{
	"contracts/TransactionContractUpdatePyament.sol": {
		"TransactionContract": {
			"abi": [
				{
					"inputs": [
						{
							"internalType": "string",
							"name": "_transactionCode",
							"type": "string"
						},
						{
							"internalType": "string",
							"name": "_buyer",
							"type": "string"
						},
						{
							"internalType": "string",
							"name": "_buyerId",
							"type": "string"
						},
						{
							"internalType": "string",
							"name": "_sellerCompany",
							"type": "string"
						},
						{
							"internalType": "string",
							"name": "_sellerId",
							"type": "string"
						},
						{
							"internalType": "uint256",
							"name": "_sumOfProduct",
							"type": "uint256"
						},
						{
							"internalType": "string",
							"name": "_totalPrice",
							"type": "string"
						},
						{
							"internalType": "string",
							"name": "_paymentStatus",
							"type": "string"
						},
						{
							"internalType": "uint256",
							"name": "_createdAt",
							"type": "uint256"
						}
					],
					"name": "addTransaction",
					"outputs": [],
					"stateMutability": "nonpayable",
					"type": "function"
				},
				{
					"inputs": [],
					"name": "getAllTransaction",
					"outputs": [
						{
							"components": [
								{
									"internalType": "uint256",
									"name": "transactionId",
									"type": "uint256"
								},
								{
									"internalType": "string",
									"name": "transactionCode",
									"type": "string"
								},
								{
									"internalType": "string",
									"name": "buyer",
									"type": "string"
								},
								{
									"internalType": "string",
									"name": "buyerId",
									"type": "string"
								},
								{
									"internalType": "string",
									"name": "sellerCompany",
									"type": "string"
								},
								{
									"internalType": "string",
									"name": "sellerId",
									"type": "string"
								},
								{
									"internalType": "uint256",
									"name": "sumOfProduct",
									"type": "uint256"
								},
								{
									"internalType": "string",
									"name": "totalPrice",
									"type": "string"
								},
								{
									"internalType": "string",
									"name": "paymentStatus",
									"type": "string"
								},
								{
									"internalType": "uint256",
									"name": "createdAt",
									"type": "uint256"
								}
							],
							"internalType": "struct TransactionContract.Transaction[]",
							"name": "",
							"type": "tuple[]"
						}
					],
					"stateMutability": "view",
					"type": "function"
				},
				{
					"inputs": [
						{
							"internalType": "uint256",
							"name": "_transactionId",
							"type": "uint256"
						}
					],
					"name": "getTransaction",
					"outputs": [
						{
							"components": [
								{
									"internalType": "uint256",
									"name": "transactionId",
									"type": "uint256"
								},
								{
									"internalType": "string",
									"name": "transactionCode",
									"type": "string"
								},
								{
									"internalType": "string",
									"name": "buyer",
									"type": "string"
								},
								{
									"internalType": "string",
									"name": "buyerId",
									"type": "string"
								},
								{
									"internalType": "string",
									"name": "sellerCompany",
									"type": "string"
								},
								{
									"internalType": "string",
									"name": "sellerId",
									"type": "string"
								},
								{
									"internalType": "uint256",
									"name": "sumOfProduct",
									"type": "uint256"
								},
								{
									"internalType": "string",
									"name": "totalPrice",
									"type": "string"
								},
								{
									"internalType": "string",
									"name": "paymentStatus",
									"type": "string"
								},
								{
									"internalType": "uint256",
									"name": "createdAt",
									"type": "uint256"
								}
							],
							"internalType": "struct TransactionContract.Transaction",
							"name": "",
							"type": "tuple"
						}
					],
					"stateMutability": "view",
					"type": "function"
				},
				{
					"inputs": [],
					"name": "transactionCount",
					"outputs": [
						{
							"internalType": "uint256",
							"name": "",
							"type": "uint256"
						}
					],
					"stateMutability": "view",
					"type": "function"
				},
				{
					"inputs": [
						{
							"internalType": "uint256",
							"name": "",
							"type": "uint256"
						}
					],
					"name": "transactions",
					"outputs": [
						{
							"internalType": "uint256",
							"name": "transactionId",
							"type": "uint256"
						},
						{
							"internalType": "string",
							"name": "transactionCode",
							"type": "string"
						},
						{
							"internalType": "string",
							"name": "buyer",
							"type": "string"
						},
						{
							"internalType": "string",
							"name": "buyerId",
							"type": "string"
						},
						{
							"internalType": "string",
							"name": "sellerCompany",
							"type": "string"
						},
						{
							"internalType": "string",
							"name": "sellerId",
							"type": "string"
						},
						{
							"internalType": "uint256",
							"name": "sumOfProduct",
							"type": "uint256"
						},
						{
							"internalType": "string",
							"name": "totalPrice",
							"type": "string"
						},
						{
							"internalType": "string",
							"name": "paymentStatus",
							"type": "string"
						},
						{
							"internalType": "uint256",
							"name": "createdAt",
							"type": "uint256"
						}
					],
					"stateMutability": "view",
					"type": "function"
				},
				{
					"inputs": [
						{
							"internalType": "uint256",
							"name": "_transactionId",
							"type": "uint256"
						},
						{
							"internalType": "string",
							"name": "_paymentStatus",
							"type": "string"
						},
						{
							"internalType": "uint256",
							"name": "_createdAt",
							"type": "uint256"
						}
					],
					"name": "updatePaymentStatus",
					"outputs": [],
					"stateMutability": "nonpayable",
					"type": "function"
				}
			],
			"devdoc": {
				"kind": "dev",
				"methods": {},
				"version": 1
			},
			"evm": {
				"assembly": "    /* \"contracts/TransactionContractUpdatePyament.sol\":54:2364  contract TransactionContract {... */\n  mstore(0x40, 0x80)\n  callvalue\n  dup1\n  iszero\n  tag_1\n  jumpi\n  0x00\n  dup1\n  revert\ntag_1:\n  pop\n  dataSize(sub_0)\n  dup1\n  dataOffset(sub_0)\n  0x00\n  codecopy\n  0x00\n  return\nstop\n\nsub_0: assembly {\n        /* \"contracts/TransactionContractUpdatePyament.sol\":54:2364  contract TransactionContract {... */\n      mstore(0x40, 0x80)\n      callvalue\n      dup1\n      iszero\n      tag_1\n      jumpi\n      0x00\n      dup1\n      revert\n    tag_1:\n      pop\n      jumpi(tag_2, lt(calldatasize, 0x04))\n      shr(0xe0, calldataload(0x00))\n      dup1\n      0x33ea3dc8\n      eq\n      tag_3\n      jumpi\n      dup1\n      0x9ace38c2\n      eq\n      tag_4\n      jumpi\n      dup1\n      0xadd6415d\n      eq\n      tag_5\n      jumpi\n      dup1\n      0xb77bf600\n      eq\n      tag_6\n      jumpi\n      dup1\n      0xce8481fd\n      eq\n      tag_7\n      jumpi\n      dup1\n      0xeb559a1e\n      eq\n      tag_8\n      jumpi\n    tag_2:\n      0x00\n      dup1\n      revert\n        /* \"contracts/TransactionContractUpdatePyament.sol\":1177:1329  function getTransaction(... */\n    tag_3:\n      tag_9\n      0x04\n      dup1\n      calldatasize\n      sub\n      dup2\n      add\n      swap1\n      tag_10\n      swap2\n      swap1\n      tag_11\n      jump\t// in\n    tag_10:\n      tag_12\n      jump\t// in\n    tag_9:\n      mload(0x40)\n      tag_13\n      swap2\n      swap1\n      tag_14\n      jump\t// in\n    tag_13:\n      mload(0x40)\n      dup1\n      swap2\n      sub\n      swap1\n      return\n        /* \"contracts/TransactionContractUpdatePyament.sol\":390:438  mapping(uint => Transaction) public transactions */\n    tag_4:\n      tag_15\n      0x04\n      dup1\n      calldatasize\n      sub\n      dup2\n      add\n      swap1\n      tag_16\n      swap2\n      swap1\n      tag_11\n      jump\t// in\n    tag_16:\n      tag_17\n      jump\t// in\n    tag_15:\n      mload(0x40)\n      tag_18\n      swap11\n      swap10\n      swap9\n      swap8\n      swap7\n      swap6\n      swap5\n      swap4\n      swap3\n      swap2\n      swap1\n      tag_19\n      jump\t// in\n    tag_18:\n      mload(0x40)\n      dup1\n      swap2\n      sub\n      swap1\n      return\n        /* \"contracts/TransactionContractUpdatePyament.sol\":2032:2362  function getAllTransaction() public view returns (Transaction[] memory) {... */\n    tag_5:\n      tag_20\n      tag_21\n      jump\t// in\n    tag_20:\n      mload(0x40)\n      tag_22\n      swap2\n      swap1\n      tag_23\n      jump\t// in\n    tag_22:\n      mload(0x40)\n      dup1\n      swap2\n      sub\n      swap1\n      return\n        /* \"contracts/TransactionContractUpdatePyament.sol\":444:472  uint public transactionCount */\n    tag_6:\n      tag_24\n      tag_25\n      jump\t// in\n    tag_24:\n      mload(0x40)\n      tag_26\n      swap2\n      swap1\n      tag_27\n      jump\t// in\n    tag_26:\n      mload(0x40)\n      dup1\n      swap2\n      sub\n      swap1\n      return\n        /* \"contracts/TransactionContractUpdatePyament.sol\":1335:2024  function updatePaymentStatus(... */\n    tag_7:\n      tag_28\n      0x04\n      dup1\n      calldatasize\n      sub\n      dup2\n      add\n      swap1\n      tag_29\n      swap2\n      swap1\n      tag_30\n      jump\t// in\n    tag_29:\n      tag_31\n      jump\t// in\n    tag_28:\n      stop\n        /* \"contracts/TransactionContractUpdatePyament.sol\":479:1171  function addTransaction(... */\n    tag_8:\n      tag_32\n      0x04\n      dup1\n      calldatasize\n      sub\n      dup2\n      add\n      swap1\n      tag_33\n      swap2\n      swap1\n      tag_34\n      jump\t// in\n    tag_33:\n      tag_35\n      jump\t// in\n    tag_32:\n      stop\n        /* \"contracts/TransactionContractUpdatePyament.sol\":1177:1329  function getTransaction(... */\n    tag_12:\n        /* \"contracts/TransactionContractUpdatePyament.sol\":1257:1275  Transaction memory */\n      tag_36\n      tag_37\n      jump\t// in\n    tag_36:\n        /* \"contracts/TransactionContractUpdatePyament.sol\":1294:1306  transactions */\n      0x00\n        /* \"contracts/TransactionContractUpdatePyament.sol\":1294:1322  transactions[_transactionId] */\n      dup1\n        /* \"contracts/TransactionContractUpdatePyament.sol\":1307:1321  _transactionId */\n      dup4\n        /* \"contracts/TransactionContractUpdatePyament.sol\":1294:1322  transactions[_transactionId] */\n      dup2\n      mstore\n      0x20\n      add\n      swap1\n      dup2\n      mstore\n      0x20\n      add\n      0x00\n      keccak256\n        /* \"contracts/TransactionContractUpdatePyament.sol\":1287:1322  return transactions[_transactionId] */\n      mload(0x40)\n      dup1\n      0x0140\n      add\n      0x40\n      mstore\n      swap1\n      dup2\n      0x00\n      dup3\n      add\n      sload\n      dup2\n      mstore\n      0x20\n      add\n      0x01\n      dup3\n      add\n      dup1\n      sload\n      tag_39\n      swap1\n      tag_40\n      jump\t// in\n    tag_39:\n      dup1\n      0x1f\n      add\n      0x20\n      dup1\n      swap2\n      div\n      mul\n      0x20\n      add\n      mload(0x40)\n      swap1\n      dup2\n      add\n      0x40\n      mstore\n      dup1\n      swap3\n      swap2\n      swap1\n      dup2\n      dup2\n      mstore\n      0x20\n      add\n      dup3\n      dup1\n      sload\n      tag_41\n      swap1\n      tag_40\n      jump\t// in\n    tag_41:\n      dup1\n      iszero\n      tag_42\n      jumpi\n      dup1\n      0x1f\n      lt\n      tag_43\n      jumpi\n      0x0100\n      dup1\n      dup4\n      sload\n      div\n      mul\n      dup4\n      mstore\n      swap2\n      0x20\n      add\n      swap2\n      jump(tag_42)\n    tag_43:\n      dup3\n      add\n      swap2\n      swap1\n      0x00\n      mstore\n      keccak256(0x00, 0x20)\n      swap1\n    tag_44:\n      dup2\n      sload\n      dup2\n      mstore\n      swap1\n      0x01\n      add\n      swap1\n      0x20\n      add\n      dup1\n      dup4\n      gt\n      tag_44\n      jumpi\n      dup3\n      swap1\n      sub\n      0x1f\n      and\n      dup3\n      add\n      swap2\n    tag_42:\n      pop\n      pop\n      pop\n      pop\n      pop\n      dup2\n      mstore\n      0x20\n      add\n      0x02\n      dup3\n      add\n      dup1\n      sload\n      tag_45\n      swap1\n      tag_40\n      jump\t// in\n    tag_45:\n      dup1\n      0x1f\n      add\n      0x20\n      dup1\n      swap2\n      div\n      mul\n      0x20\n      add\n      mload(0x40)\n      swap1\n      dup2\n      add\n      0x40\n      mstore\n      dup1\n      swap3\n      swap2\n      swap1\n      dup2\n      dup2\n      mstore\n      0x20\n      add\n      dup3\n      dup1\n      sload\n      tag_46\n      swap1\n      tag_40\n      jump\t// in\n    tag_46:\n      dup1\n      iszero\n      tag_47\n      jumpi\n      dup1\n      0x1f\n      lt\n      tag_48\n      jumpi\n      0x0100\n      dup1\n      dup4\n      sload\n      div\n      mul\n      dup4\n      mstore\n      swap2\n      0x20\n      add\n      swap2\n      jump(tag_47)\n    tag_48:\n      dup3\n      add\n      swap2\n      swap1\n      0x00\n      mstore\n      keccak256(0x00, 0x20)\n      swap1\n    tag_49:\n      dup2\n      sload\n      dup2\n      mstore\n      swap1\n      0x01\n      add\n      swap1\n      0x20\n      add\n      dup1\n      dup4\n      gt\n      tag_49\n      jumpi\n      dup3\n      swap1\n      sub\n      0x1f\n      and\n      dup3\n      add\n      swap2\n    tag_47:\n      pop\n      pop\n      pop\n      pop\n      pop\n      dup2\n      mstore\n      0x20\n      add\n      0x03\n      dup3\n      add\n      dup1\n      sload\n      tag_50\n      swap1\n      tag_40\n      jump\t// in\n    tag_50:\n      dup1\n      0x1f\n      add\n      0x20\n      dup1\n      swap2\n      div\n      mul\n      0x20\n      add\n      mload(0x40)\n      swap1\n      dup2\n      add\n      0x40\n      mstore\n      dup1\n      swap3\n      swap2\n      swap1\n      dup2\n      dup2\n      mstore\n      0x20\n      add\n      dup3\n      dup1\n      sload\n      tag_51\n      swap1\n      tag_40\n      jump\t// in\n    tag_51:\n      dup1\n      iszero\n      tag_52\n      jumpi\n      dup1\n      0x1f\n      lt\n      tag_53\n      jumpi\n      0x0100\n      dup1\n      dup4\n      sload\n      div\n      mul\n      dup4\n      mstore\n      swap2\n      0x20\n      add\n      swap2\n      jump(tag_52)\n    tag_53:\n      dup3\n      add\n      swap2\n      swap1\n      0x00\n      mstore\n      keccak256(0x00, 0x20)\n      swap1\n    tag_54:\n      dup2\n      sload\n      dup2\n      mstore\n      swap1\n      0x01\n      add\n      swap1\n      0x20\n      add\n      dup1\n      dup4\n      gt\n      tag_54\n      jumpi\n      dup3\n      swap1\n      sub\n      0x1f\n      and\n      dup3\n      add\n      swap2\n    tag_52:\n      pop\n      pop\n      pop\n      pop\n      pop\n      dup2\n      mstore\n      0x20\n      add\n      0x04\n      dup3\n      add\n      dup1\n      sload\n      tag_55\n      swap1\n      tag_40\n      jump\t// in\n    tag_55:\n      dup1\n      0x1f\n      add\n      0x20\n      dup1\n      swap2\n      div\n      mul\n      0x20\n      add\n      mload(0x40)\n      swap1\n      dup2\n      add\n      0x40\n      mstore\n      dup1\n      swap3\n      swap2\n      swap1\n      dup2\n      dup2\n      mstore\n      0x20\n      add\n      dup3\n      dup1\n      sload\n      tag_56\n      swap1\n      tag_40\n      jump\t// in\n    tag_56:\n      dup1\n      iszero\n      tag_57\n      jumpi\n      dup1\n      0x1f\n      lt\n      tag_58\n      jumpi\n      0x0100\n      dup1\n      dup4\n      sload\n      div\n      mul\n      dup4\n      mstore\n      swap2\n      0x20\n      add\n      swap2\n      jump(tag_57)\n    tag_58:\n      dup3\n      add\n      swap2\n      swap1\n      0x00\n      mstore\n      keccak256(0x00, 0x20)\n      swap1\n    tag_59:\n      dup2\n      sload\n      dup2\n      mstore\n      swap1\n      0x01\n      add\n      swap1\n      0x20\n      add\n      dup1\n      dup4\n      gt\n      tag_59\n      jumpi\n      dup3\n      swap1\n      sub\n      0x1f\n      and\n      dup3\n      add\n      swap2\n    tag_57:\n      pop\n      pop\n      pop\n      pop\n      pop\n      dup2\n      mstore\n      0x20\n      add\n      0x05\n      dup3\n      add\n      dup1\n      sload\n      tag_60\n      swap1\n      tag_40\n      jump\t// in\n    tag_60:\n      dup1\n      0x1f\n      add\n      0x20\n      dup1\n      swap2\n      div\n      mul\n      0x20\n      add\n      mload(0x40)\n      swap1\n      dup2\n      add\n      0x40\n      mstore\n      dup1\n      swap3\n      swap2\n      swap1\n      dup2\n      dup2\n      mstore\n      0x20\n      add\n      dup3\n      dup1\n      sload\n      tag_61\n      swap1\n      tag_40\n      jump\t// in\n    tag_61:\n      dup1\n      iszero\n      tag_62\n      jumpi\n      dup1\n      0x1f\n      lt\n      tag_63\n      jumpi\n      0x0100\n      dup1\n      dup4\n      sload\n      div\n      mul\n      dup4\n      mstore\n      swap2\n      0x20\n      add\n      swap2\n      jump(tag_62)\n    tag_63:\n      dup3\n      add\n      swap2\n      swap1\n      0x00\n      mstore\n      keccak256(0x00, 0x20)\n      swap1\n    tag_64:\n      dup2\n      sload\n      dup2\n      mstore\n      swap1\n      0x01\n      add\n      swap1\n      0x20\n      add\n      dup1\n      dup4\n      gt\n      tag_64\n      jumpi\n      dup3\n      swap1\n      sub\n      0x1f\n      and\n      dup3\n      add\n      swap2\n    tag_62:\n      pop\n      pop\n      pop\n      pop\n      pop\n      dup2\n      mstore\n      0x20\n      add\n      0x06\n      dup3\n      add\n      sload\n      dup2\n      mstore\n      0x20\n      add\n      0x07\n      dup3\n      add\n      dup1\n      sload\n      tag_65\n      swap1\n      tag_40\n      jump\t// in\n    tag_65:\n      dup1\n      0x1f\n      add\n      0x20\n      dup1\n      swap2\n      div\n      mul\n      0x20\n      add\n      mload(0x40)\n      swap1\n      dup2\n      add\n      0x40\n      mstore\n      dup1\n      swap3\n      swap2\n      swap1\n      dup2\n      dup2\n      mstore\n      0x20\n      add\n      dup3\n      dup1\n      sload\n      tag_66\n      swap1\n      tag_40\n      jump\t// in\n    tag_66:\n      dup1\n      iszero\n      tag_67\n      jumpi\n      dup1\n      0x1f\n      lt\n      tag_68\n      jumpi\n      0x0100\n      dup1\n      dup4\n      sload\n      div\n      mul\n      dup4\n      mstore\n      swap2\n      0x20\n      add\n      swap2\n      jump(tag_67)\n    tag_68:\n      dup3\n      add\n      swap2\n      swap1\n      0x00\n      mstore\n      keccak256(0x00, 0x20)\n      swap1\n    tag_69:\n      dup2\n      sload\n      dup2\n      mstore\n      swap1\n      0x01\n      add\n      swap1\n      0x20\n      add\n      dup1\n      dup4\n      gt\n      tag_69\n      jumpi\n      dup3\n      swap1\n      sub\n      0x1f\n      and\n      dup3\n      add\n      swap2\n    tag_67:\n      pop\n      pop\n      pop\n      pop\n      pop\n      dup2\n      mstore\n      0x20\n      add\n      0x08\n      dup3\n      add\n      dup1\n      sload\n      tag_70\n      swap1\n      tag_40\n      jump\t// in\n    tag_70:\n      dup1\n      0x1f\n      add\n      0x20\n      dup1\n      swap2\n      div\n      mul\n      0x20\n      add\n      mload(0x40)\n      swap1\n      dup2\n      add\n      0x40\n      mstore\n      dup1\n      swap3\n      swap2\n      swap1\n      dup2\n      dup2\n      mstore\n      0x20\n      add\n      dup3\n      dup1\n      sload\n      tag_71\n      swap1\n      tag_40\n      jump\t// in\n    tag_71:\n      dup1\n      iszero\n      tag_72\n      jumpi\n      dup1\n      0x1f\n      lt\n      tag_73\n      jumpi\n      0x0100\n      dup1\n      dup4\n      sload\n      div\n      mul\n      dup4\n      mstore\n      swap2\n      0x20\n      add\n      swap2\n      jump(tag_72)\n    tag_73:\n      dup3\n      add\n      swap2\n      swap1\n      0x00\n      mstore\n      keccak256(0x00, 0x20)\n      swap1\n    tag_74:\n      dup2\n      sload\n      dup2\n      mstore\n      swap1\n      0x01\n      add\n      swap1\n      0x20\n      add\n      dup1\n      dup4\n      gt\n      tag_74\n      jumpi\n      dup3\n      swap1\n      sub\n      0x1f\n      and\n      dup3\n      add\n      swap2\n    tag_72:\n      pop\n      pop\n      pop\n      pop\n      pop\n      dup2\n      mstore\n      0x20\n      add\n      0x09\n      dup3\n      add\n      sload\n      dup2\n      mstore\n      pop\n      pop\n      swap1\n      pop\n        /* \"contracts/TransactionContractUpdatePyament.sol\":1177:1329  function getTransaction(... */\n      swap2\n      swap1\n      pop\n      jump\t// out\n        /* \"contracts/TransactionContractUpdatePyament.sol\":390:438  mapping(uint => Transaction) public transactions */\n    tag_17:\n      mstore(0x20, 0x00)\n      dup1\n      0x00\n      mstore\n      keccak256(0x00, 0x40)\n      0x00\n      swap2\n      pop\n      swap1\n      pop\n      dup1\n      0x00\n      add\n      sload\n      swap1\n      dup1\n      0x01\n      add\n      dup1\n      sload\n      tag_75\n      swap1\n      tag_40\n      jump\t// in\n    tag_75:\n      dup1\n      0x1f\n      add\n      0x20\n      dup1\n      swap2\n      div\n      mul\n      0x20\n      add\n      mload(0x40)\n      swap1\n      dup2\n      add\n      0x40\n      mstore\n      dup1\n      swap3\n      swap2\n      swap1\n      dup2\n      dup2\n      mstore\n      0x20\n      add\n      dup3\n      dup1\n      sload\n      tag_76\n      swap1\n      tag_40\n      jump\t// in\n    tag_76:\n      dup1\n      iszero\n      tag_77\n      jumpi\n      dup1\n      0x1f\n      lt\n      tag_78\n      jumpi\n      0x0100\n      dup1\n      dup4\n      sload\n      div\n      mul\n      dup4\n      mstore\n      swap2\n      0x20\n      add\n      swap2\n      jump(tag_77)\n    tag_78:\n      dup3\n      add\n      swap2\n      swap1\n      0x00\n      mstore\n      keccak256(0x00, 0x20)\n      swap1\n    tag_79:\n      dup2\n      sload\n      dup2\n      mstore\n      swap1\n      0x01\n      add\n      swap1\n      0x20\n      add\n      dup1\n      dup4\n      gt\n      tag_79\n      jumpi\n      dup3\n      swap1\n      sub\n      0x1f\n      and\n      dup3\n      add\n      swap2\n    tag_77:\n      pop\n      pop\n      pop\n      pop\n      pop\n      swap1\n      dup1\n      0x02\n      add\n      dup1\n      sload\n      tag_80\n      swap1\n      tag_40\n      jump\t// in\n    tag_80:\n      dup1\n      0x1f\n      add\n      0x20\n      dup1\n      swap2\n      div\n      mul\n      0x20\n      add\n      mload(0x40)\n      swap1\n      dup2\n      add\n      0x40\n      mstore\n      dup1\n      swap3\n      swap2\n      swap1\n      dup2\n      dup2\n      mstore\n      0x20\n      add\n      dup3\n      dup1\n      sload\n      tag_81\n      swap1\n      tag_40\n      jump\t// in\n    tag_81:\n      dup1\n      iszero\n      tag_82\n      jumpi\n      dup1\n      0x1f\n      lt\n      tag_83\n      jumpi\n      0x0100\n      dup1\n      dup4\n      sload\n      div\n      mul\n      dup4\n      mstore\n      swap2\n      0x20\n      add\n      swap2\n      jump(tag_82)\n    tag_83:\n      dup3\n      add\n      swap2\n      swap1\n      0x00\n      mstore\n      keccak256(0x00, 0x20)\n      swap1\n    tag_84:\n      dup2\n      sload\n      dup2\n      mstore\n      swap1\n      0x01\n      add\n      swap1\n      0x20\n      add\n      dup1\n      dup4\n      gt\n      tag_84\n      jumpi\n      dup3\n      swap1\n      sub\n      0x1f\n      and\n      dup3\n      add\n      swap2\n    tag_82:\n      pop\n      pop\n      pop\n      pop\n      pop\n      swap1\n      dup1\n      0x03\n      add\n      dup1\n      sload\n      tag_85\n      swap1\n      tag_40\n      jump\t// in\n    tag_85:\n      dup1\n      0x1f\n      add\n      0x20\n      dup1\n      swap2\n      div\n      mul\n      0x20\n      add\n      mload(0x40)\n      swap1\n      dup2\n      add\n      0x40\n      mstore\n      dup1\n      swap3\n      swap2\n      swap1\n      dup2\n      dup2\n      mstore\n      0x20\n      add\n      dup3\n      dup1\n      sload\n      tag_86\n      swap1\n      tag_40\n      jump\t// in\n    tag_86:\n      dup1\n      iszero\n      tag_87\n      jumpi\n      dup1\n      0x1f\n      lt\n      tag_88\n      jumpi\n      0x0100\n      dup1\n      dup4\n      sload\n      div\n      mul\n      dup4\n      mstore\n      swap2\n      0x20\n      add\n      swap2\n      jump(tag_87)\n    tag_88:\n      dup3\n      add\n      swap2\n      swap1\n      0x00\n      mstore\n      keccak256(0x00, 0x20)\n      swap1\n    tag_89:\n      dup2\n      sload\n      dup2\n      mstore\n      swap1\n      0x01\n      add\n      swap1\n      0x20\n      add\n      dup1\n      dup4\n      gt\n      tag_89\n      jumpi\n      dup3\n      swap1\n      sub\n      0x1f\n      and\n      dup3\n      add\n      swap2\n    tag_87:\n      pop\n      pop\n      pop\n      pop\n      pop\n      swap1\n      dup1\n      0x04\n      add\n      dup1\n      sload\n      tag_90\n      swap1\n      tag_40\n      jump\t// in\n    tag_90:\n      dup1\n      0x1f\n      add\n      0x20\n      dup1\n      swap2\n      div\n      mul\n      0x20\n      add\n      mload(0x40)\n      swap1\n      dup2\n      add\n      0x40\n      mstore\n      dup1\n      swap3\n      swap2\n      swap1\n      dup2\n      dup2\n      mstore\n      0x20\n      add\n      dup3\n      dup1\n      sload\n      tag_91\n      swap1\n      tag_40\n      jump\t// in\n    tag_91:\n      dup1\n      iszero\n      tag_92\n      jumpi\n      dup1\n      0x1f\n      lt\n      tag_93\n      jumpi\n      0x0100\n      dup1\n      dup4\n      sload\n      div\n      mul\n      dup4\n      mstore\n      swap2\n      0x20\n      add\n      swap2\n      jump(tag_92)\n    tag_93:\n      dup3\n      add\n      swap2\n      swap1\n      0x00\n      mstore\n      keccak256(0x00, 0x20)\n      swap1\n    tag_94:\n      dup2\n      sload\n      dup2\n      mstore\n      swap1\n      0x01\n      add\n      swap1\n      0x20\n      add\n      dup1\n      dup4\n      gt\n      tag_94\n      jumpi\n      dup3\n      swap1\n      sub\n      0x1f\n      and\n      dup3\n      add\n      swap2\n    tag_92:\n      pop\n      pop\n      pop\n      pop\n      pop\n      swap1\n      dup1\n      0x05\n      add\n      dup1\n      sload\n      tag_95\n      swap1\n      tag_40\n      jump\t// in\n    tag_95:\n      dup1\n      0x1f\n      add\n      0x20\n      dup1\n      swap2\n      div\n      mul\n      0x20\n      add\n      mload(0x40)\n      swap1\n      dup2\n      add\n      0x40\n      mstore\n      dup1\n      swap3\n      swap2\n      swap1\n      dup2\n      dup2\n      mstore\n      0x20\n      add\n      dup3\n      dup1\n      sload\n      tag_96\n      swap1\n      tag_40\n      jump\t// in\n    tag_96:\n      dup1\n      iszero\n      tag_97\n      jumpi\n      dup1\n      0x1f\n      lt\n      tag_98\n      jumpi\n      0x0100\n      dup1\n      dup4\n      sload\n      div\n      mul\n      dup4\n      mstore\n      swap2\n      0x20\n      add\n      swap2\n      jump(tag_97)\n    tag_98:\n      dup3\n      add\n      swap2\n      swap1\n      0x00\n      mstore\n      keccak256(0x00, 0x20)\n      swap1\n    tag_99:\n      dup2\n      sload\n      dup2\n      mstore\n      swap1\n      0x01\n      add\n      swap1\n      0x20\n      add\n      dup1\n      dup4\n      gt\n      tag_99\n      jumpi\n      dup3\n      swap1\n      sub\n      0x1f\n      and\n      dup3\n      add\n      swap2\n    tag_97:\n      pop\n      pop\n      pop\n      pop\n      pop\n      swap1\n      dup1\n      0x06\n      add\n      sload\n      swap1\n      dup1\n      0x07\n      add\n      dup1\n      sload\n      tag_100\n      swap1\n      tag_40\n      jump\t// in\n    tag_100:\n      dup1\n      0x1f\n      add\n      0x20\n      dup1\n      swap2\n      div\n      mul\n      0x20\n      add\n      mload(0x40)\n      swap1\n      dup2\n      add\n      0x40\n      mstore\n      dup1\n      swap3\n      swap2\n      swap1\n      dup2\n      dup2\n      mstore\n      0x20\n      add\n      dup3\n      dup1\n      sload\n      tag_101\n      swap1\n      tag_40\n      jump\t// in\n    tag_101:\n      dup1\n      iszero\n      tag_102\n      jumpi\n      dup1\n      0x1f\n      lt\n      tag_103\n      jumpi\n      0x0100\n      dup1\n      dup4\n      sload\n      div\n      mul\n      dup4\n      mstore\n      swap2\n      0x20\n      add\n      swap2\n      jump(tag_102)\n    tag_103:\n      dup3\n      add\n      swap2\n      swap1\n      0x00\n      mstore\n      keccak256(0x00, 0x20)\n      swap1\n    tag_104:\n      dup2\n      sload\n      dup2\n      mstore\n      swap1\n      0x01\n      add\n      swap1\n      0x20\n      add\n      dup1\n      dup4\n      gt\n      tag_104\n      jumpi\n      dup3\n      swap1\n      sub\n      0x1f\n      and\n      dup3\n      add\n      swap2\n    tag_102:\n      pop\n      pop\n      pop\n      pop\n      pop\n      swap1\n      dup1\n      0x08\n      add\n      dup1\n      sload\n      tag_105\n      swap1\n      tag_40\n      jump\t// in\n    tag_105:\n      dup1\n      0x1f\n      add\n      0x20\n      dup1\n      swap2\n      div\n      mul\n      0x20\n      add\n      mload(0x40)\n      swap1\n      dup2\n      add\n      0x40\n      mstore\n      dup1\n      swap3\n      swap2\n      swap1\n      dup2\n      dup2\n      mstore\n      0x20\n      add\n      dup3\n      dup1\n      sload\n      tag_106\n      swap1\n      tag_40\n      jump\t// in\n    tag_106:\n      dup1\n      iszero\n      tag_107\n      jumpi\n      dup1\n      0x1f\n      lt\n      tag_108\n      jumpi\n      0x0100\n      dup1\n      dup4\n      sload\n      div\n      mul\n      dup4\n      mstore\n      swap2\n      0x20\n      add\n      swap2\n      jump(tag_107)\n    tag_108:\n      dup3\n      add\n      swap2\n      swap1\n      0x00\n      mstore\n      keccak256(0x00, 0x20)\n      swap1\n    tag_109:\n      dup2\n      sload\n      dup2\n      mstore\n      swap1\n      0x01\n      add\n      swap1\n      0x20\n      add\n      dup1\n      dup4\n      gt\n      tag_109\n      jumpi\n      dup3\n      swap1\n      sub\n      0x1f\n      and\n      dup3\n      add\n      swap2\n    tag_107:\n      pop\n      pop\n      pop\n      pop\n      pop\n      swap1\n      dup1\n      0x09\n      add\n      sload\n      swap1\n      pop\n      dup11\n      jump\t// out\n        /* \"contracts/TransactionContractUpdatePyament.sol\":2032:2362  function getAllTransaction() public view returns (Transaction[] memory) {... */\n    tag_21:\n        /* \"contracts/TransactionContractUpdatePyament.sol\":2082:2102  Transaction[] memory */\n      0x60\n        /* \"contracts/TransactionContractUpdatePyament.sol\":2114:2148  Transaction[] memory _transactions */\n      0x00\n        /* \"contracts/TransactionContractUpdatePyament.sol\":2182:2198  transactionCount */\n      sload(0x01)\n        /* \"contracts/TransactionContractUpdatePyament.sol\":2151:2208  new Transaction[](... */\n      0xffffffffffffffff\n      dup2\n      gt\n      iszero\n      tag_111\n      jumpi\n      tag_112\n      tag_113\n      jump\t// in\n    tag_112:\n    tag_111:\n      mload(0x40)\n      swap1\n      dup1\n      dup3\n      mstore\n      dup1\n      0x20\n      mul\n      0x20\n      add\n      dup3\n      add\n      0x40\n      mstore\n      dup1\n      iszero\n      tag_114\n      jumpi\n      dup2\n      0x20\n      add\n    tag_115:\n      tag_116\n      tag_37\n      jump\t// in\n    tag_116:\n      dup2\n      mstore\n      0x20\n      add\n      swap1\n      0x01\n      swap1\n      sub\n      swap1\n      dup2\n      tag_115\n      jumpi\n      swap1\n      pop\n    tag_114:\n      pop\n        /* \"contracts/TransactionContractUpdatePyament.sol\":2114:2208  Transaction[] memory _transactions = new Transaction[](... */\n      swap1\n      pop\n        /* \"contracts/TransactionContractUpdatePyament.sol\":2223:2229  uint i */\n      0x00\n        /* \"contracts/TransactionContractUpdatePyament.sol\":2232:2233  1 */\n      0x01\n        /* \"contracts/TransactionContractUpdatePyament.sol\":2223:2233  uint i = 1 */\n      swap1\n      pop\n        /* \"contracts/TransactionContractUpdatePyament.sol\":2218:2326  for (uint i = 1; i <= transactionCount; i++) {... */\n    tag_117:\n        /* \"contracts/TransactionContractUpdatePyament.sol\":2240:2256  transactionCount */\n      sload(0x01)\n        /* \"contracts/TransactionContractUpdatePyament.sol\":2235:2236  i */\n      dup2\n        /* \"contracts/TransactionContractUpdatePyament.sol\":2235:2256  i <= transactionCount */\n      gt\n        /* \"contracts/TransactionContractUpdatePyament.sol\":2218:2326  for (uint i = 1; i <= transactionCount; i++) {... */\n      tag_118\n      jumpi\n        /* \"contracts/TransactionContractUpdatePyament.sol\":2300:2312  transactions */\n      0x00\n        /* \"contracts/TransactionContractUpdatePyament.sol\":2300:2315  transactions[i] */\n      dup1\n        /* \"contracts/TransactionContractUpdatePyament.sol\":2313:2314  i */\n      dup3\n        /* \"contracts/TransactionContractUpdatePyament.sol\":2300:2315  transactions[i] */\n      dup2\n      mstore\n      0x20\n      add\n      swap1\n      dup2\n      mstore\n      0x20\n      add\n      0x00\n      keccak256\n        /* \"contracts/TransactionContractUpdatePyament.sol\":2277:2315  _transactions[i - 1] = transactions[i] */\n      mload(0x40)\n      dup1\n      0x0140\n      add\n      0x40\n      mstore\n      swap1\n      dup2\n      0x00\n      dup3\n      add\n      sload\n      dup2\n      mstore\n      0x20\n      add\n      0x01\n      dup3\n      add\n      dup1\n      sload\n      tag_120\n      swap1\n      tag_40\n      jump\t// in\n    tag_120:\n      dup1\n      0x1f\n      add\n      0x20\n      dup1\n      swap2\n      div\n      mul\n      0x20\n      add\n      mload(0x40)\n      swap1\n      dup2\n      add\n      0x40\n      mstore\n      dup1\n      swap3\n      swap2\n      swap1\n      dup2\n      dup2\n      mstore\n      0x20\n      add\n      dup3\n      dup1\n      sload\n      tag_121\n      swap1\n      tag_40\n      jump\t// in\n    tag_121:\n      dup1\n      iszero\n      tag_122\n      jumpi\n      dup1\n      0x1f\n      lt\n      tag_123\n      jumpi\n      0x0100\n      dup1\n      dup4\n      sload\n      div\n      mul\n      dup4\n      mstore\n      swap2\n      0x20\n      add\n      swap2\n      jump(tag_122)\n    tag_123:\n      dup3\n      add\n      swap2\n      swap1\n      0x00\n      mstore\n      keccak256(0x00, 0x20)\n      swap1\n    tag_124:\n      dup2\n      sload\n      dup2\n      mstore\n      swap1\n      0x01\n      add\n      swap1\n      0x20\n      add\n      dup1\n      dup4\n      gt\n      tag_124\n      jumpi\n      dup3\n      swap1\n      sub\n      0x1f\n      and\n      dup3\n      add\n      swap2\n    tag_122:\n      pop\n      pop\n      pop\n      pop\n      pop\n      dup2\n      mstore\n      0x20\n      add\n      0x02\n      dup3\n      add\n      dup1\n      sload\n      tag_125\n      swap1\n      tag_40\n      jump\t// in\n    tag_125:\n      dup1\n      0x1f\n      add\n      0x20\n      dup1\n      swap2\n      div\n      mul\n      0x20\n      add\n      mload(0x40)\n      swap1\n      dup2\n      add\n      0x40\n      mstore\n      dup1\n      swap3\n      swap2\n      swap1\n      dup2\n      dup2\n      mstore\n      0x20\n      add\n      dup3\n      dup1\n      sload\n      tag_126\n      swap1\n      tag_40\n      jump\t// in\n    tag_126:\n      dup1\n      iszero\n      tag_127\n      jumpi\n      dup1\n      0x1f\n      lt\n      tag_128\n      jumpi\n      0x0100\n      dup1\n      dup4\n      sload\n      div\n      mul\n      dup4\n      mstore\n      swap2\n      0x20\n      add\n      swap2\n      jump(tag_127)\n    tag_128:\n      dup3\n      add\n      swap2\n      swap1\n      0x00\n      mstore\n      keccak256(0x00, 0x20)\n      swap1\n    tag_129:\n      dup2\n      sload\n      dup2\n      mstore\n      swap1\n      0x01\n      add\n      swap1\n      0x20\n      add\n      dup1\n      dup4\n      gt\n      tag_129\n      jumpi\n      dup3\n      swap1\n      sub\n      0x1f\n      and\n      dup3\n      add\n      swap2\n    tag_127:\n      pop\n      pop\n      pop\n      pop\n      pop\n      dup2\n      mstore\n      0x20\n      add\n      0x03\n      dup3\n      add\n      dup1\n      sload\n      tag_130\n      swap1\n      tag_40\n      jump\t// in\n    tag_130:\n      dup1\n      0x1f\n      add\n      0x20\n      dup1\n      swap2\n      div\n      mul\n      0x20\n      add\n      mload(0x40)\n      swap1\n      dup2\n      add\n      0x40\n      mstore\n      dup1\n      swap3\n      swap2\n      swap1\n      dup2\n      dup2\n      mstore\n      0x20\n      add\n      dup3\n      dup1\n      sload\n      tag_131\n      swap1\n      tag_40\n      jump\t// in\n    tag_131:\n      dup1\n      iszero\n      tag_132\n      jumpi\n      dup1\n      0x1f\n      lt\n      tag_133\n      jumpi\n      0x0100\n      dup1\n      dup4\n      sload\n      div\n      mul\n      dup4\n      mstore\n      swap2\n      0x20\n      add\n      swap2\n      jump(tag_132)\n    tag_133:\n      dup3\n      add\n      swap2\n      swap1\n      0x00\n      mstore\n      keccak256(0x00, 0x20)\n      swap1\n    tag_134:\n      dup2\n      sload\n      dup2\n      mstore\n      swap1\n      0x01\n      add\n      swap1\n      0x20\n      add\n      dup1\n      dup4\n      gt\n      tag_134\n      jumpi\n      dup3\n      swap1\n      sub\n      0x1f\n      and\n      dup3\n      add\n      swap2\n    tag_132:\n      pop\n      pop\n      pop\n      pop\n      pop\n      dup2\n      mstore\n      0x20\n      add\n      0x04\n      dup3\n      add\n      dup1\n      sload\n      tag_135\n      swap1\n      tag_40\n      jump\t// in\n    tag_135:\n      dup1\n      0x1f\n      add\n      0x20\n      dup1\n      swap2\n      div\n      mul\n      0x20\n      add\n      mload(0x40)\n      swap1\n      dup2\n      add\n      0x40\n      mstore\n      dup1\n      swap3\n      swap2\n      swap1\n      dup2\n      dup2\n      mstore\n      0x20\n      add\n      dup3\n      dup1\n      sload\n      tag_136\n      swap1\n      tag_40\n      jump\t// in\n    tag_136:\n      dup1\n      iszero\n      tag_137\n      jumpi\n      dup1\n      0x1f\n      lt\n      tag_138\n      jumpi\n      0x0100\n      dup1\n      dup4\n      sload\n      div\n      mul\n      dup4\n      mstore\n      swap2\n      0x20\n      add\n      swap2\n      jump(tag_137)\n    tag_138:\n      dup3\n      add\n      swap2\n      swap1\n      0x00\n      mstore\n      keccak256(0x00, 0x20)\n      swap1\n    tag_139:\n      dup2\n      sload\n      dup2\n      mstore\n      swap1\n      0x01\n      add\n      swap1\n      0x20\n      add\n      dup1\n      dup4\n      gt\n      tag_139\n      jumpi\n      dup3\n      swap1\n      sub\n      0x1f\n      and\n      dup3\n      add\n      swap2\n    tag_137:\n      pop\n      pop\n      pop\n      pop\n      pop\n      dup2\n      mstore\n      0x20\n      add\n      0x05\n      dup3\n      add\n      dup1\n      sload\n      tag_140\n      swap1\n      tag_40\n      jump\t// in\n    tag_140:\n      dup1\n      0x1f\n      add\n      0x20\n      dup1\n      swap2\n      div\n      mul\n      0x20\n      add\n      mload(0x40)\n      swap1\n      dup2\n      add\n      0x40\n      mstore\n      dup1\n      swap3\n      swap2\n      swap1\n      dup2\n      dup2\n      mstore\n      0x20\n      add\n      dup3\n      dup1\n      sload\n      tag_141\n      swap1\n      tag_40\n      jump\t// in\n    tag_141:\n      dup1\n      iszero\n      tag_142\n      jumpi\n      dup1\n      0x1f\n      lt\n      tag_143\n      jumpi\n      0x0100\n      dup1\n      dup4\n      sload\n      div\n      mul\n      dup4\n      mstore\n      swap2\n      0x20\n      add\n      swap2\n      jump(tag_142)\n    tag_143:\n      dup3\n      add\n      swap2\n      swap1\n      0x00\n      mstore\n      keccak256(0x00, 0x20)\n      swap1\n    tag_144:\n      dup2\n      sload\n      dup2\n      mstore\n      swap1\n      0x01\n      add\n      swap1\n      0x20\n      add\n      dup1\n      dup4\n      gt\n      tag_144\n      jumpi\n      dup3\n      swap1\n      sub\n      0x1f\n      and\n      dup3\n      add\n      swap2\n    tag_142:\n      pop\n      pop\n      pop\n      pop\n      pop\n      dup2\n      mstore\n      0x20\n      add\n      0x06\n      dup3\n      add\n      sload\n      dup2\n      mstore\n      0x20\n      add\n      0x07\n      dup3\n      add\n      dup1\n      sload\n      tag_145\n      swap1\n      tag_40\n      jump\t// in\n    tag_145:\n      dup1\n      0x1f\n      add\n      0x20\n      dup1\n      swap2\n      div\n      mul\n      0x20\n      add\n      mload(0x40)\n      swap1\n      dup2\n      add\n      0x40\n      mstore\n      dup1\n      swap3\n      swap2\n      swap1\n      dup2\n      dup2\n      mstore\n      0x20\n      add\n      dup3\n      dup1\n      sload\n      tag_146\n      swap1\n      tag_40\n      jump\t// in\n    tag_146:\n      dup1\n      iszero\n      tag_147\n      jumpi\n      dup1\n      0x1f\n      lt\n      tag_148\n      jumpi\n      0x0100\n      dup1\n      dup4\n      sload\n      div\n      mul\n      dup4\n      mstore\n      swap2\n      0x20\n      add\n      swap2\n      jump(tag_147)\n    tag_148:\n      dup3\n      add\n      swap2\n      swap1\n      0x00\n      mstore\n      keccak256(0x00, 0x20)\n      swap1\n    tag_149:\n      dup2\n      sload\n      dup2\n      mstore\n      swap1\n      0x01\n      add\n      swap1\n      0x20\n      add\n      dup1\n      dup4\n      gt\n      tag_149\n      jumpi\n      dup3\n      swap1\n      sub\n      0x1f\n      and\n      dup3\n      add\n      swap2\n    tag_147:\n      pop\n      pop\n      pop\n      pop\n      pop\n      dup2\n      mstore\n      0x20\n      add\n      0x08\n      dup3\n      add\n      dup1\n      sload\n      tag_150\n      swap1\n      tag_40\n      jump\t// in\n    tag_150:\n      dup1\n      0x1f\n      add\n      0x20\n      dup1\n      swap2\n      div\n      mul\n      0x20\n      add\n      mload(0x40)\n      swap1\n      dup2\n      add\n      0x40\n      mstore\n      dup1\n      swap3\n      swap2\n      swap1\n      dup2\n      dup2\n      mstore\n      0x20\n      add\n      dup3\n      dup1\n      sload\n      tag_151\n      swap1\n      tag_40\n      jump\t// in\n    tag_151:\n      dup1\n      iszero\n      tag_152\n      jumpi\n      dup1\n      0x1f\n      lt\n      tag_153\n      jumpi\n      0x0100\n      dup1\n      dup4\n      sload\n      div\n      mul\n      dup4\n      mstore\n      swap2\n      0x20\n      add\n      swap2\n      jump(tag_152)\n    tag_153:\n      dup3\n      add\n      swap2\n      swap1\n      0x00\n      mstore\n      keccak256(0x00, 0x20)\n      swap1\n    tag_154:\n      dup2\n      sload\n      dup2\n      mstore\n      swap1\n      0x01\n      add\n      swap1\n      0x20\n      add\n      dup1\n      dup4\n      gt\n      tag_154\n      jumpi\n      dup3\n      swap1\n      sub\n      0x1f\n      and\n      dup3\n      add\n      swap2\n    tag_152:\n      pop\n      pop\n      pop\n      pop\n      pop\n      dup2\n      mstore\n      0x20\n      add\n      0x09\n      dup3\n      add\n      sload\n      dup2\n      mstore\n      pop\n      pop\n        /* \"contracts/TransactionContractUpdatePyament.sol\":2277:2290  _transactions */\n      dup3\n        /* \"contracts/TransactionContractUpdatePyament.sol\":2295:2296  1 */\n      0x01\n        /* \"contracts/TransactionContractUpdatePyament.sol\":2291:2292  i */\n      dup4\n        /* \"contracts/TransactionContractUpdatePyament.sol\":2291:2296  i - 1 */\n      tag_155\n      swap2\n      swap1\n      tag_156\n      jump\t// in\n    tag_155:\n        /* \"contracts/TransactionContractUpdatePyament.sol\":2277:2297  _transactions[i - 1] */\n      dup2\n      mload\n      dup2\n      lt\n      tag_157\n      jumpi\n      tag_158\n      tag_159\n      jump\t// in\n    tag_158:\n    tag_157:\n      0x20\n      mul\n      0x20\n      add\n      add\n        /* \"contracts/TransactionContractUpdatePyament.sol\":2277:2315  _transactions[i - 1] = transactions[i] */\n      dup2\n      swap1\n      mstore\n      pop\n        /* \"contracts/TransactionContractUpdatePyament.sol\":2258:2261  i++ */\n      dup1\n      dup1\n      tag_160\n      swap1\n      tag_161\n      jump\t// in\n    tag_160:\n      swap2\n      pop\n      pop\n        /* \"contracts/TransactionContractUpdatePyament.sol\":2218:2326  for (uint i = 1; i <= transactionCount; i++) {... */\n      jump(tag_117)\n    tag_118:\n      pop\n        /* \"contracts/TransactionContractUpdatePyament.sol\":2342:2355  _transactions */\n      dup1\n        /* \"contracts/TransactionContractUpdatePyament.sol\":2335:2355  return _transactions */\n      swap2\n      pop\n      pop\n        /* \"contracts/TransactionContractUpdatePyament.sol\":2032:2362  function getAllTransaction() public view returns (Transaction[] memory) {... */\n      swap1\n      jump\t// out\n        /* \"contracts/TransactionContractUpdatePyament.sol\":444:472  uint public transactionCount */\n    tag_25:\n      sload(0x01)\n      dup2\n      jump\t// out\n        /* \"contracts/TransactionContractUpdatePyament.sol\":1335:2024  function updatePaymentStatus(... */\n    tag_31:\n        /* \"contracts/TransactionContractUpdatePyament.sol\":1479:1517  Transaction memory originalTransaction */\n      0x00\n        /* \"contracts/TransactionContractUpdatePyament.sol\":1520:1532  transactions */\n      dup1\n        /* \"contracts/TransactionContractUpdatePyament.sol\":1520:1548  transactions[_transactionId] */\n      0x00\n        /* \"contracts/TransactionContractUpdatePyament.sol\":1533:1547  _transactionId */\n      dup6\n        /* \"contracts/TransactionContractUpdatePyament.sol\":1520:1548  transactions[_transactionId] */\n      dup2\n      mstore\n      0x20\n      add\n      swap1\n      dup2\n      mstore\n      0x20\n      add\n      0x00\n      keccak256\n        /* \"contracts/TransactionContractUpdatePyament.sol\":1479:1548  Transaction memory originalTransaction = transactions[_transactionId] */\n      mload(0x40)\n      dup1\n      0x0140\n      add\n      0x40\n      mstore\n      swap1\n      dup2\n      0x00\n      dup3\n      add\n      sload\n      dup2\n      mstore\n      0x20\n      add\n      0x01\n      dup3\n      add\n      dup1\n      sload\n      tag_163\n      swap1\n      tag_40\n      jump\t// in\n    tag_163:\n      dup1\n      0x1f\n      add\n      0x20\n      dup1\n      swap2\n      div\n      mul\n      0x20\n      add\n      mload(0x40)\n      swap1\n      dup2\n      add\n      0x40\n      mstore\n      dup1\n      swap3\n      swap2\n      swap1\n      dup2\n      dup2\n      mstore\n      0x20\n      add\n      dup3\n      dup1\n      sload\n      tag_164\n      swap1\n      tag_40\n      jump\t// in\n    tag_164:\n      dup1\n      iszero\n      tag_165\n      jumpi\n      dup1\n      0x1f\n      lt\n      tag_166\n      jumpi\n      0x0100\n      dup1\n      dup4\n      sload\n      div\n      mul\n      dup4\n      mstore\n      swap2\n      0x20\n      add\n      swap2\n      jump(tag_165)\n    tag_166:\n      dup3\n      add\n      swap2\n      swap1\n      0x00\n      mstore\n      keccak256(0x00, 0x20)\n      swap1\n    tag_167:\n      dup2\n      sload\n      dup2\n      mstore\n      swap1\n      0x01\n      add\n      swap1\n      0x20\n      add\n      dup1\n      dup4\n      gt\n      tag_167\n      jumpi\n      dup3\n      swap1\n      sub\n      0x1f\n      and\n      dup3\n      add\n      swap2\n    tag_165:\n      pop\n      pop\n      pop\n      pop\n      pop\n      dup2\n      mstore\n      0x20\n      add\n      0x02\n      dup3\n      add\n      dup1\n      sload\n      tag_168\n      swap1\n      tag_40\n      jump\t// in\n    tag_168:\n      dup1\n      0x1f\n      add\n      0x20\n      dup1\n      swap2\n      div\n      mul\n      0x20\n      add\n      mload(0x40)\n      swap1\n      dup2\n      add\n      0x40\n      mstore\n      dup1\n      swap3\n      swap2\n      swap1\n      dup2\n      dup2\n      mstore\n      0x20\n      add\n      dup3\n      dup1\n      sload\n      tag_169\n      swap1\n      tag_40\n      jump\t// in\n    tag_169:\n      dup1\n      iszero\n      tag_170\n      jumpi\n      dup1\n      0x1f\n      lt\n      tag_171\n      jumpi\n      0x0100\n      dup1\n      dup4\n      sload\n      div\n      mul\n      dup4\n      mstore\n      swap2\n      0x20\n      add\n      swap2\n      jump(tag_170)\n    tag_171:\n      dup3\n      add\n      swap2\n      swap1\n      0x00\n      mstore\n      keccak256(0x00, 0x20)\n      swap1\n    tag_172:\n      dup2\n      sload\n      dup2\n      mstore\n      swap1\n      0x01\n      add\n      swap1\n      0x20\n      add\n      dup1\n      dup4\n      gt\n      tag_172\n      jumpi\n      dup3\n      swap1\n      sub\n      0x1f\n      and\n      dup3\n      add\n      swap2\n    tag_170:\n      pop\n      pop\n      pop\n      pop\n      pop\n      dup2\n      mstore\n      0x20\n      add\n      0x03\n      dup3\n      add\n      dup1\n      sload\n      tag_173\n      swap1\n      tag_40\n      jump\t// in\n    tag_173:\n      dup1\n      0x1f\n      add\n      0x20\n      dup1\n      swap2\n      div\n      mul\n      0x20\n      add\n      mload(0x40)\n      swap1\n      dup2\n      add\n      0x40\n      mstore\n      dup1\n      swap3\n      swap2\n      swap1\n      dup2\n      dup2\n      mstore\n      0x20\n      add\n      dup3\n      dup1\n      sload\n      tag_174\n      swap1\n      tag_40\n      jump\t// in\n    tag_174:\n      dup1\n      iszero\n      tag_175\n      jumpi\n      dup1\n      0x1f\n      lt\n      tag_176\n      jumpi\n      0x0100\n      dup1\n      dup4\n      sload\n      div\n      mul\n      dup4\n      mstore\n      swap2\n      0x20\n      add\n      swap2\n      jump(tag_175)\n    tag_176:\n      dup3\n      add\n      swap2\n      swap1\n      0x00\n      mstore\n      keccak256(0x00, 0x20)\n      swap1\n    tag_177:\n      dup2\n      sload\n      dup2\n      mstore\n      swap1\n      0x01\n      add\n      swap1\n      0x20\n      add\n      dup1\n      dup4\n      gt\n      tag_177\n      jumpi\n      dup3\n      swap1\n      sub\n      0x1f\n      and\n      dup3\n      add\n      swap2\n    tag_175:\n      pop\n      pop\n      pop\n      pop\n      pop\n      dup2\n      mstore\n      0x20\n      add\n      0x04\n      dup3\n      add\n      dup1\n      sload\n      tag_178\n      swap1\n      tag_40\n      jump\t// in\n    tag_178:\n      dup1\n      0x1f\n      add\n      0x20\n      dup1\n      swap2\n      div\n      mul\n      0x20\n      add\n      mload(0x40)\n      swap1\n      dup2\n      add\n      0x40\n      mstore\n      dup1\n      swap3\n      swap2\n      swap1\n      dup2\n      dup2\n      mstore\n      0x20\n      add\n      dup3\n      dup1\n      sload\n      tag_179\n      swap1\n      tag_40\n      jump\t// in\n    tag_179:\n      dup1\n      iszero\n      tag_180\n      jumpi\n      dup1\n      0x1f\n      lt\n      tag_181\n      jumpi\n      0x0100\n      dup1\n      dup4\n      sload\n      div\n      mul\n      dup4\n      mstore\n      swap2\n      0x20\n      add\n      swap2\n      jump(tag_180)\n    tag_181:\n      dup3\n      add\n      swap2\n      swap1\n      0x00\n      mstore\n      keccak256(0x00, 0x20)\n      swap1\n    tag_182:\n      dup2\n      sload\n      dup2\n      mstore\n      swap1\n      0x01\n      add\n      swap1\n      0x20\n      add\n      dup1\n      dup4\n      gt\n      tag_182\n      jumpi\n      dup3\n      swap1\n      sub\n      0x1f\n      and\n      dup3\n      add\n      swap2\n    tag_180:\n      pop\n      pop\n      pop\n      pop\n      pop\n      dup2\n      mstore\n      0x20\n      add\n      0x05\n      dup3\n      add\n      dup1\n      sload\n      tag_183\n      swap1\n      tag_40\n      jump\t// in\n    tag_183:\n      dup1\n      0x1f\n      add\n      0x20\n      dup1\n      swap2\n      div\n      mul\n      0x20\n      add\n      mload(0x40)\n      swap1\n      dup2\n      add\n      0x40\n      mstore\n      dup1\n      swap3\n      swap2\n      swap1\n      dup2\n      dup2\n      mstore\n      0x20\n      add\n      dup3\n      dup1\n      sload\n      tag_184\n      swap1\n      tag_40\n      jump\t// in\n    tag_184:\n      dup1\n      iszero\n      tag_185\n      jumpi\n      dup1\n      0x1f\n      lt\n      tag_186\n      jumpi\n      0x0100\n      dup1\n      dup4\n      sload\n      div\n      mul\n      dup4\n      mstore\n      swap2\n      0x20\n      add\n      swap2\n      jump(tag_185)\n    tag_186:\n      dup3\n      add\n      swap2\n      swap1\n      0x00\n      mstore\n      keccak256(0x00, 0x20)\n      swap1\n    tag_187:\n      dup2\n      sload\n      dup2\n      mstore\n      swap1\n      0x01\n      add\n      swap1\n      0x20\n      add\n      dup1\n      dup4\n      gt\n      tag_187\n      jumpi\n      dup3\n      swap1\n      sub\n      0x1f\n      and\n      dup3\n      add\n      swap2\n    tag_185:\n      pop\n      pop\n      pop\n      pop\n      pop\n      dup2\n      mstore\n      0x20\n      add\n      0x06\n      dup3\n      add\n      sload\n      dup2\n      mstore\n      0x20\n      add\n      0x07\n      dup3\n      add\n      dup1\n      sload\n      tag_188\n      swap1\n      tag_40\n      jump\t// in\n    tag_188:\n      dup1\n      0x1f\n      add\n      0x20\n      dup1\n      swap2\n      div\n      mul\n      0x20\n      add\n      mload(0x40)\n      swap1\n      dup2\n      add\n      0x40\n      mstore\n      dup1\n      swap3\n      swap2\n      swap1\n      dup2\n      dup2\n      mstore\n      0x20\n      add\n      dup3\n      dup1\n      sload\n      tag_189\n      swap1\n      tag_40\n      jump\t// in\n    tag_189:\n      dup1\n      iszero\n      tag_190\n      jumpi\n      dup1\n      0x1f\n      lt\n      tag_191\n      jumpi\n      0x0100\n      dup1\n      dup4\n      sload\n      div\n      mul\n      dup4\n      mstore\n      swap2\n      0x20\n      add\n      swap2\n      jump(tag_190)\n    tag_191:\n      dup3\n      add\n      swap2\n      swap1\n      0x00\n      mstore\n      keccak256(0x00, 0x20)\n      swap1\n    tag_192:\n      dup2\n      sload\n      dup2\n      mstore\n      swap1\n      0x01\n      add\n      swap1\n      0x20\n      add\n      dup1\n      dup4\n      gt\n      tag_192\n      jumpi\n      dup3\n      swap1\n      sub\n      0x1f\n      and\n      dup3\n      add\n      swap2\n    tag_190:\n      pop\n      pop\n      pop\n      pop\n      pop\n      dup2\n      mstore\n      0x20\n      add\n      0x08\n      dup3\n      add\n      dup1\n      sload\n      tag_193\n      swap1\n      tag_40\n      jump\t// in\n    tag_193:\n      dup1\n      0x1f\n      add\n      0x20\n      dup1\n      swap2\n      div\n      mul\n      0x20\n      add\n      mload(0x40)\n      swap1\n      dup2\n      add\n      0x40\n      mstore\n      dup1\n      swap3\n      swap2\n      swap1\n      dup2\n      dup2\n      mstore\n      0x20\n      add\n      dup3\n      dup1\n      sload\n      tag_194\n      swap1\n      tag_40\n      jump\t// in\n    tag_194:\n      dup1\n      iszero\n      tag_195\n      jumpi\n      dup1\n      0x1f\n      lt\n      tag_196\n      jumpi\n      0x0100\n      dup1\n      dup4\n      sload\n      div\n      mul\n      dup4\n      mstore\n      swap2\n      0x20\n      add\n      swap2\n      jump(tag_195)\n    tag_196:\n      dup3\n      add\n      swap2\n      swap1\n      0x00\n      mstore\n      keccak256(0x00, 0x20)\n      swap1\n    tag_197:\n      dup2\n      sload\n      dup2\n      mstore\n      swap1\n      0x01\n      add\n      swap1\n      0x20\n      add\n      dup1\n      dup4\n      gt\n      tag_197\n      jumpi\n      dup3\n      swap1\n      sub\n      0x1f\n      and\n      dup3\n      add\n      swap2\n    tag_195:\n      pop\n      pop\n      pop\n      pop\n      pop\n      dup2\n      mstore\n      0x20\n      add\n      0x09\n      dup3\n      add\n      sload\n      dup2\n      mstore\n      pop\n      pop\n      swap1\n      pop\n        /* \"contracts/TransactionContractUpdatePyament.sol\":1589:2017  Transaction(... */\n      mload(0x40)\n      dup1\n      0x0140\n      add\n      0x40\n      mstore\n      dup1\n        /* \"contracts/TransactionContractUpdatePyament.sol\":1614:1633  originalTransaction */\n      dup3\n        /* \"contracts/TransactionContractUpdatePyament.sol\":1614:1647  originalTransaction.transactionId */\n      0x00\n      add\n      mload\n        /* \"contracts/TransactionContractUpdatePyament.sol\":1589:2017  Transaction(... */\n      dup2\n      mstore\n      0x20\n      add\n        /* \"contracts/TransactionContractUpdatePyament.sol\":1661:1680  originalTransaction */\n      dup3\n        /* \"contracts/TransactionContractUpdatePyament.sol\":1661:1696  originalTransaction.transactionCode */\n      0x20\n      add\n      mload\n        /* \"contracts/TransactionContractUpdatePyament.sol\":1589:2017  Transaction(... */\n      dup2\n      mstore\n      0x20\n      add\n        /* \"contracts/TransactionContractUpdatePyament.sol\":1710:1729  originalTransaction */\n      dup3\n        /* \"contracts/TransactionContractUpdatePyament.sol\":1710:1735  originalTransaction.buyer */\n      0x40\n      add\n      mload\n        /* \"contracts/TransactionContractUpdatePyament.sol\":1589:2017  Transaction(... */\n      dup2\n      mstore\n      0x20\n      add\n        /* \"contracts/TransactionContractUpdatePyament.sol\":1749:1768  originalTransaction */\n      dup3\n        /* \"contracts/TransactionContractUpdatePyament.sol\":1749:1776  originalTransaction.buyerId */\n      0x60\n      add\n      mload\n        /* \"contracts/TransactionContractUpdatePyament.sol\":1589:2017  Transaction(... */\n      dup2\n      mstore\n      0x20\n      add\n        /* \"contracts/TransactionContractUpdatePyament.sol\":1790:1809  originalTransaction */\n      dup3\n        /* \"contracts/TransactionContractUpdatePyament.sol\":1790:1823  originalTransaction.sellerCompany */\n      0x80\n      add\n      mload\n        /* \"contracts/TransactionContractUpdatePyament.sol\":1589:2017  Transaction(... */\n      dup2\n      mstore\n      0x20\n      add\n        /* \"contracts/TransactionContractUpdatePyament.sol\":1837:1856  originalTransaction */\n      dup3\n        /* \"contracts/TransactionContractUpdatePyament.sol\":1837:1865  originalTransaction.sellerId */\n      0xa0\n      add\n      mload\n        /* \"contracts/TransactionContractUpdatePyament.sol\":1589:2017  Transaction(... */\n      dup2\n      mstore\n      0x20\n      add\n        /* \"contracts/TransactionContractUpdatePyament.sol\":1879:1898  originalTransaction */\n      dup3\n        /* \"contracts/TransactionContractUpdatePyament.sol\":1879:1911  originalTransaction.sumOfProduct */\n      0xc0\n      add\n      mload\n        /* \"contracts/TransactionContractUpdatePyament.sol\":1589:2017  Transaction(... */\n      dup2\n      mstore\n      0x20\n      add\n        /* \"contracts/TransactionContractUpdatePyament.sol\":1925:1944  originalTransaction */\n      dup3\n        /* \"contracts/TransactionContractUpdatePyament.sol\":1925:1955  originalTransaction.totalPrice */\n      0xe0\n      add\n      mload\n        /* \"contracts/TransactionContractUpdatePyament.sol\":1589:2017  Transaction(... */\n      dup2\n      mstore\n      0x20\n      add\n        /* \"contracts/TransactionContractUpdatePyament.sol\":1969:1983  _paymentStatus */\n      dup5\n        /* \"contracts/TransactionContractUpdatePyament.sol\":1589:2017  Transaction(... */\n      dup2\n      mstore\n      0x20\n      add\n        /* \"contracts/TransactionContractUpdatePyament.sol\":1997:2007  _createdAt */\n      dup4\n        /* \"contracts/TransactionContractUpdatePyament.sol\":1589:2017  Transaction(... */\n      dup2\n      mstore\n      pop\n        /* \"contracts/TransactionContractUpdatePyament.sol\":1558:1570  transactions */\n      0x00\n        /* \"contracts/TransactionContractUpdatePyament.sol\":1558:1586  transactions[_transactionId] */\n      dup1\n        /* \"contracts/TransactionContractUpdatePyament.sol\":1571:1585  _transactionId */\n      dup7\n        /* \"contracts/TransactionContractUpdatePyament.sol\":1558:1586  transactions[_transactionId] */\n      dup2\n      mstore\n      0x20\n      add\n      swap1\n      dup2\n      mstore\n      0x20\n      add\n      0x00\n      keccak256\n        /* \"contracts/TransactionContractUpdatePyament.sol\":1558:2017  transactions[_transactionId] = Transaction(... */\n      0x00\n      dup3\n      add\n      mload\n      dup2\n      0x00\n      add\n      sstore\n      0x20\n      dup3\n      add\n      mload\n      dup2\n      0x01\n      add\n      swap1\n      dup2\n      tag_198\n      swap2\n      swap1\n      tag_199\n      jump\t// in\n    tag_198:\n      pop\n      0x40\n      dup3\n      add\n      mload\n      dup2\n      0x02\n      add\n      swap1\n      dup2\n      tag_200\n      swap2\n      swap1\n      tag_199\n      jump\t// in\n    tag_200:\n      pop\n      0x60\n      dup3\n      add\n      mload\n      dup2\n      0x03\n      add\n      swap1\n      dup2\n      tag_201\n      swap2\n      swap1\n      tag_199\n      jump\t// in\n    tag_201:\n      pop\n      0x80\n      dup3\n      add\n      mload\n      dup2\n      0x04\n      add\n      swap1\n      dup2\n      tag_202\n      swap2\n      swap1\n      tag_199\n      jump\t// in\n    tag_202:\n      pop\n      0xa0\n      dup3\n      add\n      mload\n      dup2\n      0x05\n      add\n      swap1\n      dup2\n      tag_203\n      swap2\n      swap1\n      tag_199\n      jump\t// in\n    tag_203:\n      pop\n      0xc0\n      dup3\n      add\n      mload\n      dup2\n      0x06\n      add\n      sstore\n      0xe0\n      dup3\n      add\n      mload\n      dup2\n      0x07\n      add\n      swap1\n      dup2\n      tag_204\n      swap2\n      swap1\n      tag_199\n      jump\t// in\n    tag_204:\n      pop\n      0x0100\n      dup3\n      add\n      mload\n      dup2\n      0x08\n      add\n      swap1\n      dup2\n      tag_205\n      swap2\n      swap1\n      tag_199\n      jump\t// in\n    tag_205:\n      pop\n      0x0120\n      dup3\n      add\n      mload\n      dup2\n      0x09\n      add\n      sstore\n      swap1\n      pop\n      pop\n        /* \"contracts/TransactionContractUpdatePyament.sol\":1469:2024  {... */\n      pop\n        /* \"contracts/TransactionContractUpdatePyament.sol\":1335:2024  function updatePaymentStatus(... */\n      pop\n      pop\n      pop\n      jump\t// out\n        /* \"contracts/TransactionContractUpdatePyament.sol\":479:1171  function addTransaction(... */\n    tag_35:\n        /* \"contracts/TransactionContractUpdatePyament.sol\":825:841  transactionCount */\n      0x01\n      0x00\n        /* \"contracts/TransactionContractUpdatePyament.sol\":825:843  transactionCount++ */\n      dup2\n      sload\n      dup1\n      swap3\n      swap2\n      swap1\n      tag_207\n      swap1\n      tag_161\n      jump\t// in\n    tag_207:\n      swap2\n      swap1\n      pop\n      sstore\n      pop\n        /* \"contracts/TransactionContractUpdatePyament.sol\":886:1164  Transaction(... */\n      mload(0x40)\n      dup1\n      0x0140\n      add\n      0x40\n      mstore\n      dup1\n        /* \"contracts/TransactionContractUpdatePyament.sol\":911:927  transactionCount */\n      sload(0x01)\n        /* \"contracts/TransactionContractUpdatePyament.sol\":886:1164  Transaction(... */\n      dup2\n      mstore\n      0x20\n      add\n        /* \"contracts/TransactionContractUpdatePyament.sol\":941:957  _transactionCode */\n      dup11\n        /* \"contracts/TransactionContractUpdatePyament.sol\":886:1164  Transaction(... */\n      dup2\n      mstore\n      0x20\n      add\n        /* \"contracts/TransactionContractUpdatePyament.sol\":971:977  _buyer */\n      dup10\n        /* \"contracts/TransactionContractUpdatePyament.sol\":886:1164  Transaction(... */\n      dup2\n      mstore\n      0x20\n      add\n        /* \"contracts/TransactionContractUpdatePyament.sol\":991:999  _buyerId */\n      dup9\n        /* \"contracts/TransactionContractUpdatePyament.sol\":886:1164  Transaction(... */\n      dup2\n      mstore\n      0x20\n      add\n        /* \"contracts/TransactionContractUpdatePyament.sol\":1013:1027  _sellerCompany */\n      dup8\n        /* \"contracts/TransactionContractUpdatePyament.sol\":886:1164  Transaction(... */\n      dup2\n      mstore\n      0x20\n      add\n        /* \"contracts/TransactionContractUpdatePyament.sol\":1041:1050  _sellerId */\n      dup7\n        /* \"contracts/TransactionContractUpdatePyament.sol\":886:1164  Transaction(... */\n      dup2\n      mstore\n      0x20\n      add\n        /* \"contracts/TransactionContractUpdatePyament.sol\":1064:1077  _sumOfProduct */\n      dup6\n        /* \"contracts/TransactionContractUpdatePyament.sol\":886:1164  Transaction(... */\n      dup2\n      mstore\n      0x20\n      add\n        /* \"contracts/TransactionContractUpdatePyament.sol\":1091:1102  _totalPrice */\n      dup5\n        /* \"contracts/TransactionContractUpdatePyament.sol\":886:1164  Transaction(... */\n      dup2\n      mstore\n      0x20\n      add\n        /* \"contracts/TransactionContractUpdatePyament.sol\":1116:1130  _paymentStatus */\n      dup4\n        /* \"contracts/TransactionContractUpdatePyament.sol\":886:1164  Transaction(... */\n      dup2\n      mstore\n      0x20\n      add\n        /* \"contracts/TransactionContractUpdatePyament.sol\":1144:1154  _createdAt */\n      dup3\n        /* \"contracts/TransactionContractUpdatePyament.sol\":886:1164  Transaction(... */\n      dup2\n      mstore\n      pop\n        /* \"contracts/TransactionContractUpdatePyament.sol\":853:865  transactions */\n      0x00\n        /* \"contracts/TransactionContractUpdatePyament.sol\":853:883  transactions[transactionCount] */\n      dup1\n        /* \"contracts/TransactionContractUpdatePyament.sol\":866:882  transactionCount */\n      sload(0x01)\n        /* \"contracts/TransactionContractUpdatePyament.sol\":853:883  transactions[transactionCount] */\n      dup2\n      mstore\n      0x20\n      add\n      swap1\n      dup2\n      mstore\n      0x20\n      add\n      0x00\n      keccak256\n        /* \"contracts/TransactionContractUpdatePyament.sol\":853:1164  transactions[transactionCount] = Transaction(... */\n      0x00\n      dup3\n      add\n      mload\n      dup2\n      0x00\n      add\n      sstore\n      0x20\n      dup3\n      add\n      mload\n      dup2\n      0x01\n      add\n      swap1\n      dup2\n      tag_208\n      swap2\n      swap1\n      tag_199\n      jump\t// in\n    tag_208:\n      pop\n      0x40\n      dup3\n      add\n      mload\n      dup2\n      0x02\n      add\n      swap1\n      dup2\n      tag_209\n      swap2\n      swap1\n      tag_199\n      jump\t// in\n    tag_209:\n      pop\n      0x60\n      dup3\n      add\n      mload\n      dup2\n      0x03\n      add\n      swap1\n      dup2\n      tag_210\n      swap2\n      swap1\n      tag_199\n      jump\t// in\n    tag_210:\n      pop\n      0x80\n      dup3\n      add\n      mload\n      dup2\n      0x04\n      add\n      swap1\n      dup2\n      tag_211\n      swap2\n      swap1\n      tag_199\n      jump\t// in\n    tag_211:\n      pop\n      0xa0\n      dup3\n      add\n      mload\n      dup2\n      0x05\n      add\n      swap1\n      dup2\n      tag_212\n      swap2\n      swap1\n      tag_199\n      jump\t// in\n    tag_212:\n      pop\n      0xc0\n      dup3\n      add\n      mload\n      dup2\n      0x06\n      add\n      sstore\n      0xe0\n      dup3\n      add\n      mload\n      dup2\n      0x07\n      add\n      swap1\n      dup2\n      tag_213\n      swap2\n      swap1\n      tag_199\n      jump\t// in\n    tag_213:\n      pop\n      0x0100\n      dup3\n      add\n      mload\n      dup2\n      0x08\n      add\n      swap1\n      dup2\n      tag_214\n      swap2\n      swap1\n      tag_199\n      jump\t// in\n    tag_214:\n      pop\n      0x0120\n      dup3\n      add\n      mload\n      dup2\n      0x09\n      add\n      sstore\n      swap1\n      pop\n      pop\n        /* \"contracts/TransactionContractUpdatePyament.sol\":479:1171  function addTransaction(... */\n      pop\n      pop\n      pop\n      pop\n      pop\n      pop\n      pop\n      pop\n      pop\n      jump\t// out\n    tag_37:\n      mload(0x40)\n      dup1\n      0x0140\n      add\n      0x40\n      mstore\n      dup1\n      0x00\n      dup2\n      mstore\n      0x20\n      add\n      0x60\n      dup2\n      mstore\n      0x20\n      add\n      0x60\n      dup2\n      mstore\n      0x20\n      add\n      0x60\n      dup2\n      mstore\n      0x20\n      add\n      0x60\n      dup2\n      mstore\n      0x20\n      add\n      0x60\n      dup2\n      mstore\n      0x20\n      add\n      0x00\n      dup2\n      mstore\n      0x20\n      add\n      0x60\n      dup2\n      mstore\n      0x20\n      add\n      0x60\n      dup2\n      mstore\n      0x20\n      add\n      0x00\n      dup2\n      mstore\n      pop\n      swap1\n      jump\t// out\n        /* \"#utility.yul\":7:82   */\n    tag_215:\n        /* \"#utility.yul\":40:46   */\n      0x00\n        /* \"#utility.yul\":73:75   */\n      0x40\n        /* \"#utility.yul\":67:76   */\n      mload\n        /* \"#utility.yul\":57:76   */\n      swap1\n      pop\n        /* \"#utility.yul\":7:82   */\n      swap1\n      jump\t// out\n        /* \"#utility.yul\":88:205   */\n    tag_216:\n        /* \"#utility.yul\":197:198   */\n      0x00\n        /* \"#utility.yul\":194:195   */\n      dup1\n        /* \"#utility.yul\":187:199   */\n      revert\n        /* \"#utility.yul\":211:328   */\n    tag_217:\n        /* \"#utility.yul\":320:321   */\n      0x00\n        /* \"#utility.yul\":317:318   */\n      dup1\n        /* \"#utility.yul\":310:322   */\n      revert\n        /* \"#utility.yul\":334:411   */\n    tag_218:\n        /* \"#utility.yul\":371:378   */\n      0x00\n        /* \"#utility.yul\":400:405   */\n      dup2\n        /* \"#utility.yul\":389:405   */\n      swap1\n      pop\n        /* \"#utility.yul\":334:411   */\n      swap2\n      swap1\n      pop\n      jump\t// out\n        /* \"#utility.yul\":417:539   */\n    tag_219:\n        /* \"#utility.yul\":490:514   */\n      tag_269\n        /* \"#utility.yul\":508:513   */\n      dup2\n        /* \"#utility.yul\":490:514   */\n      tag_218\n      jump\t// in\n    tag_269:\n        /* \"#utility.yul\":483:488   */\n      dup2\n        /* \"#utility.yul\":480:515   */\n      eq\n        /* \"#utility.yul\":470:533   */\n      tag_270\n      jumpi\n        /* \"#utility.yul\":529:530   */\n      0x00\n        /* \"#utility.yul\":526:527   */\n      dup1\n        /* \"#utility.yul\":519:531   */\n      revert\n        /* \"#utility.yul\":470:533   */\n    tag_270:\n        /* \"#utility.yul\":417:539   */\n      pop\n      jump\t// out\n        /* \"#utility.yul\":545:684   */\n    tag_220:\n        /* \"#utility.yul\":591:596   */\n      0x00\n        /* \"#utility.yul\":629:635   */\n      dup2\n        /* \"#utility.yul\":616:636   */\n      calldataload\n        /* \"#utility.yul\":607:636   */\n      swap1\n      pop\n        /* \"#utility.yul\":645:678   */\n      tag_272\n        /* \"#utility.yul\":672:677   */\n      dup2\n        /* \"#utility.yul\":645:678   */\n      tag_219\n      jump\t// in\n    tag_272:\n        /* \"#utility.yul\":545:684   */\n      swap3\n      swap2\n      pop\n      pop\n      jump\t// out\n        /* \"#utility.yul\":690:1019   */\n    tag_11:\n        /* \"#utility.yul\":749:755   */\n      0x00\n        /* \"#utility.yul\":798:800   */\n      0x20\n        /* \"#utility.yul\":786:795   */\n      dup3\n        /* \"#utility.yul\":777:784   */\n      dup5\n        /* \"#utility.yul\":773:796   */\n      sub\n        /* \"#utility.yul\":769:801   */\n      slt\n        /* \"#utility.yul\":766:885   */\n      iszero\n      tag_274\n      jumpi\n        /* \"#utility.yul\":804:883   */\n      tag_275\n      tag_216\n      jump\t// in\n    tag_275:\n        /* \"#utility.yul\":766:885   */\n    tag_274:\n        /* \"#utility.yul\":924:925   */\n      0x00\n        /* \"#utility.yul\":949:1002   */\n      tag_276\n        /* \"#utility.yul\":994:1001   */\n      dup5\n        /* \"#utility.yul\":985:991   */\n      dup3\n        /* \"#utility.yul\":974:983   */\n      dup6\n        /* \"#utility.yul\":970:992   */\n      add\n        /* \"#utility.yul\":949:1002   */\n      tag_220\n      jump\t// in\n    tag_276:\n        /* \"#utility.yul\":939:1002   */\n      swap2\n      pop\n        /* \"#utility.yul\":895:1012   */\n      pop\n        /* \"#utility.yul\":690:1019   */\n      swap3\n      swap2\n      pop\n      pop\n      jump\t// out\n        /* \"#utility.yul\":1025:1133   */\n    tag_221:\n        /* \"#utility.yul\":1102:1126   */\n      tag_278\n        /* \"#utility.yul\":1120:1125   */\n      dup2\n        /* \"#utility.yul\":1102:1126   */\n      tag_218\n      jump\t// in\n    tag_278:\n        /* \"#utility.yul\":1097:1100   */\n      dup3\n        /* \"#utility.yul\":1090:1127   */\n      mstore\n        /* \"#utility.yul\":1025:1133   */\n      pop\n      pop\n      jump\t// out\n        /* \"#utility.yul\":1139:1238   */\n    tag_222:\n        /* \"#utility.yul\":1191:1197   */\n      0x00\n        /* \"#utility.yul\":1225:1230   */\n      dup2\n        /* \"#utility.yul\":1219:1231   */\n      mload\n        /* \"#utility.yul\":1209:1231   */\n      swap1\n      pop\n        /* \"#utility.yul\":1139:1238   */\n      swap2\n      swap1\n      pop\n      jump\t// out\n        /* \"#utility.yul\":1244:1403   */\n    tag_223:\n        /* \"#utility.yul\":1318:1329   */\n      0x00\n        /* \"#utility.yul\":1352:1358   */\n      dup3\n        /* \"#utility.yul\":1347:1350   */\n      dup3\n        /* \"#utility.yul\":1340:1359   */\n      mstore\n        /* \"#utility.yul\":1392:1396   */\n      0x20\n        /* \"#utility.yul\":1387:1390   */\n      dup3\n        /* \"#utility.yul\":1383:1397   */\n      add\n        /* \"#utility.yul\":1368:1397   */\n      swap1\n      pop\n        /* \"#utility.yul\":1244:1403   */\n      swap3\n      swap2\n      pop\n      pop\n      jump\t// out\n        /* \"#utility.yul\":1409:1655   */\n    tag_224:\n        /* \"#utility.yul\":1490:1491   */\n      0x00\n        /* \"#utility.yul\":1500:1613   */\n    tag_282:\n        /* \"#utility.yul\":1514:1520   */\n      dup4\n        /* \"#utility.yul\":1511:1512   */\n      dup2\n        /* \"#utility.yul\":1508:1521   */\n      lt\n        /* \"#utility.yul\":1500:1613   */\n      iszero\n      tag_284\n      jumpi\n        /* \"#utility.yul\":1599:1600   */\n      dup1\n        /* \"#utility.yul\":1594:1597   */\n      dup3\n        /* \"#utility.yul\":1590:1601   */\n      add\n        /* \"#utility.yul\":1584:1602   */\n      mload\n        /* \"#utility.yul\":1580:1581   */\n      dup2\n        /* \"#utility.yul\":1575:1578   */\n      dup5\n        /* \"#utility.yul\":1571:1582   */\n      add\n        /* \"#utility.yul\":1564:1603   */\n      mstore\n        /* \"#utility.yul\":1536:1538   */\n      0x20\n        /* \"#utility.yul\":1533:1534   */\n      dup2\n        /* \"#utility.yul\":1529:1539   */\n      add\n        /* \"#utility.yul\":1524:1539   */\n      swap1\n      pop\n        /* \"#utility.yul\":1500:1613   */\n      jump(tag_282)\n    tag_284:\n        /* \"#utility.yul\":1647:1648   */\n      0x00\n        /* \"#utility.yul\":1638:1644   */\n      dup5\n        /* \"#utility.yul\":1633:1636   */\n      dup5\n        /* \"#utility.yul\":1629:1645   */\n      add\n        /* \"#utility.yul\":1622:1649   */\n      mstore\n        /* \"#utility.yul\":1471:1655   */\n      pop\n        /* \"#utility.yul\":1409:1655   */\n      pop\n      pop\n      pop\n      jump\t// out\n        /* \"#utility.yul\":1661:1763   */\n    tag_225:\n        /* \"#utility.yul\":1702:1708   */\n      0x00\n        /* \"#utility.yul\":1753:1755   */\n      0x1f\n        /* \"#utility.yul\":1749:1756   */\n      not\n        /* \"#utility.yul\":1744:1746   */\n      0x1f\n        /* \"#utility.yul\":1737:1742   */\n      dup4\n        /* \"#utility.yul\":1733:1747   */\n      add\n        /* \"#utility.yul\":1729:1757   */\n      and\n        /* \"#utility.yul\":1719:1757   */\n      swap1\n      pop\n        /* \"#utility.yul\":1661:1763   */\n      swap2\n      swap1\n      pop\n      jump\t// out\n        /* \"#utility.yul\":1769:2126   */\n    tag_226:\n        /* \"#utility.yul\":1847:1850   */\n      0x00\n        /* \"#utility.yul\":1875:1914   */\n      tag_287\n        /* \"#utility.yul\":1908:1913   */\n      dup3\n        /* \"#utility.yul\":1875:1914   */\n      tag_222\n      jump\t// in\n    tag_287:\n        /* \"#utility.yul\":1930:1991   */\n      tag_288\n        /* \"#utility.yul\":1984:1990   */\n      dup2\n        /* \"#utility.yul\":1979:1982   */\n      dup6\n        /* \"#utility.yul\":1930:1991   */\n      tag_223\n      jump\t// in\n    tag_288:\n        /* \"#utility.yul\":1923:1991   */\n      swap4\n      pop\n        /* \"#utility.yul\":2000:2065   */\n      tag_289\n        /* \"#utility.yul\":2058:2064   */\n      dup2\n        /* \"#utility.yul\":2053:2056   */\n      dup6\n        /* \"#utility.yul\":2046:2050   */\n      0x20\n        /* \"#utility.yul\":2039:2044   */\n      dup7\n        /* \"#utility.yul\":2035:2051   */\n      add\n        /* \"#utility.yul\":2000:2065   */\n      tag_224\n      jump\t// in\n    tag_289:\n        /* \"#utility.yul\":2090:2119   */\n      tag_290\n        /* \"#utility.yul\":2112:2118   */\n      dup2\n        /* \"#utility.yul\":2090:2119   */\n      tag_225\n      jump\t// in\n    tag_290:\n        /* \"#utility.yul\":2085:2088   */\n      dup5\n        /* \"#utility.yul\":2081:2120   */\n      add\n        /* \"#utility.yul\":2074:2120   */\n      swap2\n      pop\n        /* \"#utility.yul\":1851:2126   */\n      pop\n        /* \"#utility.yul\":1769:2126   */\n      swap3\n      swap2\n      pop\n      pop\n      jump\t// out\n        /* \"#utility.yul\":2220:4723   */\n    tag_227:\n        /* \"#utility.yul\":2343:2346   */\n      0x00\n        /* \"#utility.yul\":2379:2385   */\n      0x0140\n        /* \"#utility.yul\":2374:2377   */\n      dup4\n        /* \"#utility.yul\":2370:2386   */\n      add\n        /* \"#utility.yul\":2477:2481   */\n      0x00\n        /* \"#utility.yul\":2470:2475   */\n      dup4\n        /* \"#utility.yul\":2466:2482   */\n      add\n        /* \"#utility.yul\":2460:2483   */\n      mload\n        /* \"#utility.yul\":2496:2559   */\n      tag_292\n        /* \"#utility.yul\":2553:2557   */\n      0x00\n        /* \"#utility.yul\":2548:2551   */\n      dup7\n        /* \"#utility.yul\":2544:2558   */\n      add\n        /* \"#utility.yul\":2530:2542   */\n      dup3\n        /* \"#utility.yul\":2496:2559   */\n      tag_221\n      jump\t// in\n    tag_292:\n        /* \"#utility.yul\":2396:2569   */\n      pop\n        /* \"#utility.yul\":2662:2666   */\n      0x20\n        /* \"#utility.yul\":2655:2660   */\n      dup4\n        /* \"#utility.yul\":2651:2667   */\n      add\n        /* \"#utility.yul\":2645:2668   */\n      mload\n        /* \"#utility.yul\":2715:2718   */\n      dup5\n        /* \"#utility.yul\":2709:2713   */\n      dup3\n        /* \"#utility.yul\":2705:2719   */\n      sub\n        /* \"#utility.yul\":2698:2702   */\n      0x20\n        /* \"#utility.yul\":2693:2696   */\n      dup7\n        /* \"#utility.yul\":2689:2703   */\n      add\n        /* \"#utility.yul\":2682:2720   */\n      mstore\n        /* \"#utility.yul\":2741:2814   */\n      tag_293\n        /* \"#utility.yul\":2809:2813   */\n      dup3\n        /* \"#utility.yul\":2795:2807   */\n      dup3\n        /* \"#utility.yul\":2741:2814   */\n      tag_226\n      jump\t// in\n    tag_293:\n        /* \"#utility.yul\":2733:2814   */\n      swap2\n      pop\n        /* \"#utility.yul\":2579:2825   */\n      pop\n        /* \"#utility.yul\":2908:2912   */\n      0x40\n        /* \"#utility.yul\":2901:2906   */\n      dup4\n        /* \"#utility.yul\":2897:2913   */\n      add\n        /* \"#utility.yul\":2891:2914   */\n      mload\n        /* \"#utility.yul\":2961:2964   */\n      dup5\n        /* \"#utility.yul\":2955:2959   */\n      dup3\n        /* \"#utility.yul\":2951:2965   */\n      sub\n        /* \"#utility.yul\":2944:2948   */\n      0x40\n        /* \"#utility.yul\":2939:2942   */\n      dup7\n        /* \"#utility.yul\":2935:2949   */\n      add\n        /* \"#utility.yul\":2928:2966   */\n      mstore\n        /* \"#utility.yul\":2987:3060   */\n      tag_294\n        /* \"#utility.yul\":3055:3059   */\n      dup3\n        /* \"#utility.yul\":3041:3053   */\n      dup3\n        /* \"#utility.yul\":2987:3060   */\n      tag_226\n      jump\t// in\n    tag_294:\n        /* \"#utility.yul\":2979:3060   */\n      swap2\n      pop\n        /* \"#utility.yul\":2835:3071   */\n      pop\n        /* \"#utility.yul\":3156:3160   */\n      0x60\n        /* \"#utility.yul\":3149:3154   */\n      dup4\n        /* \"#utility.yul\":3145:3161   */\n      add\n        /* \"#utility.yul\":3139:3162   */\n      mload\n        /* \"#utility.yul\":3209:3212   */\n      dup5\n        /* \"#utility.yul\":3203:3207   */\n      dup3\n        /* \"#utility.yul\":3199:3213   */\n      sub\n        /* \"#utility.yul\":3192:3196   */\n      0x60\n        /* \"#utility.yul\":3187:3190   */\n      dup7\n        /* \"#utility.yul\":3183:3197   */\n      add\n        /* \"#utility.yul\":3176:3214   */\n      mstore\n        /* \"#utility.yul\":3235:3308   */\n      tag_295\n        /* \"#utility.yul\":3303:3307   */\n      dup3\n        /* \"#utility.yul\":3289:3301   */\n      dup3\n        /* \"#utility.yul\":3235:3308   */\n      tag_226\n      jump\t// in\n    tag_295:\n        /* \"#utility.yul\":3227:3308   */\n      swap2\n      pop\n        /* \"#utility.yul\":3081:3319   */\n      pop\n        /* \"#utility.yul\":3410:3414   */\n      0x80\n        /* \"#utility.yul\":3403:3408   */\n      dup4\n        /* \"#utility.yul\":3399:3415   */\n      add\n        /* \"#utility.yul\":3393:3416   */\n      mload\n        /* \"#utility.yul\":3463:3466   */\n      dup5\n        /* \"#utility.yul\":3457:3461   */\n      dup3\n        /* \"#utility.yul\":3453:3467   */\n      sub\n        /* \"#utility.yul\":3446:3450   */\n      0x80\n        /* \"#utility.yul\":3441:3444   */\n      dup7\n        /* \"#utility.yul\":3437:3451   */\n      add\n        /* \"#utility.yul\":3430:3468   */\n      mstore\n        /* \"#utility.yul\":3489:3562   */\n      tag_296\n        /* \"#utility.yul\":3557:3561   */\n      dup3\n        /* \"#utility.yul\":3543:3555   */\n      dup3\n        /* \"#utility.yul\":3489:3562   */\n      tag_226\n      jump\t// in\n    tag_296:\n        /* \"#utility.yul\":3481:3562   */\n      swap2\n      pop\n        /* \"#utility.yul\":3329:3573   */\n      pop\n        /* \"#utility.yul\":3659:3663   */\n      0xa0\n        /* \"#utility.yul\":3652:3657   */\n      dup4\n        /* \"#utility.yul\":3648:3664   */\n      add\n        /* \"#utility.yul\":3642:3665   */\n      mload\n        /* \"#utility.yul\":3712:3715   */\n      dup5\n        /* \"#utility.yul\":3706:3710   */\n      dup3\n        /* \"#utility.yul\":3702:3716   */\n      sub\n        /* \"#utility.yul\":3695:3699   */\n      0xa0\n        /* \"#utility.yul\":3690:3693   */\n      dup7\n        /* \"#utility.yul\":3686:3700   */\n      add\n        /* \"#utility.yul\":3679:3717   */\n      mstore\n        /* \"#utility.yul\":3738:3811   */\n      tag_297\n        /* \"#utility.yul\":3806:3810   */\n      dup3\n        /* \"#utility.yul\":3792:3804   */\n      dup3\n        /* \"#utility.yul\":3738:3811   */\n      tag_226\n      jump\t// in\n    tag_297:\n        /* \"#utility.yul\":3730:3811   */\n      swap2\n      pop\n        /* \"#utility.yul\":3583:3822   */\n      pop\n        /* \"#utility.yul\":3912:3916   */\n      0xc0\n        /* \"#utility.yul\":3905:3910   */\n      dup4\n        /* \"#utility.yul\":3901:3917   */\n      add\n        /* \"#utility.yul\":3895:3918   */\n      mload\n        /* \"#utility.yul\":3931:3994   */\n      tag_298\n        /* \"#utility.yul\":3988:3992   */\n      0xc0\n        /* \"#utility.yul\":3983:3986   */\n      dup7\n        /* \"#utility.yul\":3979:3993   */\n      add\n        /* \"#utility.yul\":3965:3977   */\n      dup3\n        /* \"#utility.yul\":3931:3994   */\n      tag_221\n      jump\t// in\n    tag_298:\n        /* \"#utility.yul\":3832:4004   */\n      pop\n        /* \"#utility.yul\":4092:4096   */\n      0xe0\n        /* \"#utility.yul\":4085:4090   */\n      dup4\n        /* \"#utility.yul\":4081:4097   */\n      add\n        /* \"#utility.yul\":4075:4098   */\n      mload\n        /* \"#utility.yul\":4145:4148   */\n      dup5\n        /* \"#utility.yul\":4139:4143   */\n      dup3\n        /* \"#utility.yul\":4135:4149   */\n      sub\n        /* \"#utility.yul\":4128:4132   */\n      0xe0\n        /* \"#utility.yul\":4123:4126   */\n      dup7\n        /* \"#utility.yul\":4119:4133   */\n      add\n        /* \"#utility.yul\":4112:4150   */\n      mstore\n        /* \"#utility.yul\":4171:4244   */\n      tag_299\n        /* \"#utility.yul\":4239:4243   */\n      dup3\n        /* \"#utility.yul\":4225:4237   */\n      dup3\n        /* \"#utility.yul\":4171:4244   */\n      tag_226\n      jump\t// in\n    tag_299:\n        /* \"#utility.yul\":4163:4244   */\n      swap2\n      pop\n        /* \"#utility.yul\":4014:4255   */\n      pop\n        /* \"#utility.yul\":4346:4352   */\n      0x0100\n        /* \"#utility.yul\":4339:4344   */\n      dup4\n        /* \"#utility.yul\":4335:4353   */\n      add\n        /* \"#utility.yul\":4329:4354   */\n      mload\n        /* \"#utility.yul\":4403:4406   */\n      dup5\n        /* \"#utility.yul\":4397:4401   */\n      dup3\n        /* \"#utility.yul\":4393:4407   */\n      sub\n        /* \"#utility.yul\":4384:4390   */\n      0x0100\n        /* \"#utility.yul\":4379:4382   */\n      dup7\n        /* \"#utility.yul\":4375:4391   */\n      add\n        /* \"#utility.yul\":4368:4408   */\n      mstore\n        /* \"#utility.yul\":4429:4502   */\n      tag_300\n        /* \"#utility.yul\":4497:4501   */\n      dup3\n        /* \"#utility.yul\":4483:4495   */\n      dup3\n        /* \"#utility.yul\":4429:4502   */\n      tag_226\n      jump\t// in\n    tag_300:\n        /* \"#utility.yul\":4421:4502   */\n      swap2\n      pop\n        /* \"#utility.yul\":4265:4513   */\n      pop\n        /* \"#utility.yul\":4600:4606   */\n      0x0120\n        /* \"#utility.yul\":4593:4598   */\n      dup4\n        /* \"#utility.yul\":4589:4607   */\n      add\n        /* \"#utility.yul\":4583:4608   */\n      mload\n        /* \"#utility.yul\":4621:4686   */\n      tag_301\n        /* \"#utility.yul\":4678:4684   */\n      0x0120\n        /* \"#utility.yul\":4673:4676   */\n      dup7\n        /* \"#utility.yul\":4669:4685   */\n      add\n        /* \"#utility.yul\":4655:4667   */\n      dup3\n        /* \"#utility.yul\":4621:4686   */\n      tag_221\n      jump\t// in\n    tag_301:\n        /* \"#utility.yul\":4523:4696   */\n      pop\n        /* \"#utility.yul\":4713:4717   */\n      dup1\n        /* \"#utility.yul\":4706:4717   */\n      swap2\n      pop\n        /* \"#utility.yul\":2348:4723   */\n      pop\n        /* \"#utility.yul\":2220:4723   */\n      swap3\n      swap2\n      pop\n      pop\n      jump\t// out\n        /* \"#utility.yul\":4729:5110   */\n    tag_14:\n        /* \"#utility.yul\":4876:4880   */\n      0x00\n        /* \"#utility.yul\":4914:4916   */\n      0x20\n        /* \"#utility.yul\":4903:4912   */\n      dup3\n        /* \"#utility.yul\":4899:4917   */\n      add\n        /* \"#utility.yul\":4891:4917   */\n      swap1\n      pop\n        /* \"#utility.yul\":4963:4972   */\n      dup2\n        /* \"#utility.yul\":4957:4961   */\n      dup2\n        /* \"#utility.yul\":4953:4973   */\n      sub\n        /* \"#utility.yul\":4949:4950   */\n      0x00\n        /* \"#utility.yul\":4938:4947   */\n      dup4\n        /* \"#utility.yul\":4934:4951   */\n      add\n        /* \"#utility.yul\":4927:4974   */\n      mstore\n        /* \"#utility.yul\":4991:5103   */\n      tag_303\n        /* \"#utility.yul\":5098:5102   */\n      dup2\n        /* \"#utility.yul\":5089:5095   */\n      dup5\n        /* \"#utility.yul\":4991:5103   */\n      tag_227\n      jump\t// in\n    tag_303:\n        /* \"#utility.yul\":4983:5103   */\n      swap1\n      pop\n        /* \"#utility.yul\":4729:5110   */\n      swap3\n      swap2\n      pop\n      pop\n      jump\t// out\n        /* \"#utility.yul\":5116:5234   */\n    tag_228:\n        /* \"#utility.yul\":5203:5227   */\n      tag_305\n        /* \"#utility.yul\":5221:5226   */\n      dup2\n        /* \"#utility.yul\":5203:5227   */\n      tag_218\n      jump\t// in\n    tag_305:\n        /* \"#utility.yul\":5198:5201   */\n      dup3\n        /* \"#utility.yul\":5191:5228   */\n      mstore\n        /* \"#utility.yul\":5116:5234   */\n      pop\n      pop\n      jump\t// out\n        /* \"#utility.yul\":5240:5409   */\n    tag_229:\n        /* \"#utility.yul\":5324:5335   */\n      0x00\n        /* \"#utility.yul\":5358:5364   */\n      dup3\n        /* \"#utility.yul\":5353:5356   */\n      dup3\n        /* \"#utility.yul\":5346:5365   */\n      mstore\n        /* \"#utility.yul\":5398:5402   */\n      0x20\n        /* \"#utility.yul\":5393:5396   */\n      dup3\n        /* \"#utility.yul\":5389:5403   */\n      add\n        /* \"#utility.yul\":5374:5403   */\n      swap1\n      pop\n        /* \"#utility.yul\":5240:5409   */\n      swap3\n      swap2\n      pop\n      pop\n      jump\t// out\n        /* \"#utility.yul\":5415:5792   */\n    tag_230:\n        /* \"#utility.yul\":5503:5506   */\n      0x00\n        /* \"#utility.yul\":5531:5570   */\n      tag_308\n        /* \"#utility.yul\":5564:5569   */\n      dup3\n        /* \"#utility.yul\":5531:5570   */\n      tag_222\n      jump\t// in\n    tag_308:\n        /* \"#utility.yul\":5586:5657   */\n      tag_309\n        /* \"#utility.yul\":5650:5656   */\n      dup2\n        /* \"#utility.yul\":5645:5648   */\n      dup6\n        /* \"#utility.yul\":5586:5657   */\n      tag_229\n      jump\t// in\n    tag_309:\n        /* \"#utility.yul\":5579:5657   */\n      swap4\n      pop\n        /* \"#utility.yul\":5666:5731   */\n      tag_310\n        /* \"#utility.yul\":5724:5730   */\n      dup2\n        /* \"#utility.yul\":5719:5722   */\n      dup6\n        /* \"#utility.yul\":5712:5716   */\n      0x20\n        /* \"#utility.yul\":5705:5710   */\n      dup7\n        /* \"#utility.yul\":5701:5717   */\n      add\n        /* \"#utility.yul\":5666:5731   */\n      tag_224\n      jump\t// in\n    tag_310:\n        /* \"#utility.yul\":5756:5785   */\n      tag_311\n        /* \"#utility.yul\":5778:5784   */\n      dup2\n        /* \"#utility.yul\":5756:5785   */\n      tag_225\n      jump\t// in\n    tag_311:\n        /* \"#utility.yul\":5751:5754   */\n      dup5\n        /* \"#utility.yul\":5747:5786   */\n      add\n        /* \"#utility.yul\":5740:5786   */\n      swap2\n      pop\n        /* \"#utility.yul\":5507:5792   */\n      pop\n        /* \"#utility.yul\":5415:5792   */\n      swap3\n      swap2\n      pop\n      pop\n      jump\t// out\n        /* \"#utility.yul\":5798:7654   */\n    tag_19:\n        /* \"#utility.yul\":6283:6287   */\n      0x00\n        /* \"#utility.yul\":6321:6324   */\n      0x0140\n        /* \"#utility.yul\":6310:6319   */\n      dup3\n        /* \"#utility.yul\":6306:6325   */\n      add\n        /* \"#utility.yul\":6298:6325   */\n      swap1\n      pop\n        /* \"#utility.yul\":6335:6406   */\n      tag_313\n        /* \"#utility.yul\":6403:6404   */\n      0x00\n        /* \"#utility.yul\":6392:6401   */\n      dup4\n        /* \"#utility.yul\":6388:6405   */\n      add\n        /* \"#utility.yul\":6379:6385   */\n      dup14\n        /* \"#utility.yul\":6335:6406   */\n      tag_228\n      jump\t// in\n    tag_313:\n        /* \"#utility.yul\":6453:6462   */\n      dup2\n        /* \"#utility.yul\":6447:6451   */\n      dup2\n        /* \"#utility.yul\":6443:6463   */\n      sub\n        /* \"#utility.yul\":6438:6440   */\n      0x20\n        /* \"#utility.yul\":6427:6436   */\n      dup4\n        /* \"#utility.yul\":6423:6441   */\n      add\n        /* \"#utility.yul\":6416:6464   */\n      mstore\n        /* \"#utility.yul\":6481:6559   */\n      tag_314\n        /* \"#utility.yul\":6554:6558   */\n      dup2\n        /* \"#utility.yul\":6545:6551   */\n      dup13\n        /* \"#utility.yul\":6481:6559   */\n      tag_230\n      jump\t// in\n    tag_314:\n        /* \"#utility.yul\":6473:6559   */\n      swap1\n      pop\n        /* \"#utility.yul\":6606:6615   */\n      dup2\n        /* \"#utility.yul\":6600:6604   */\n      dup2\n        /* \"#utility.yul\":6596:6616   */\n      sub\n        /* \"#utility.yul\":6591:6593   */\n      0x40\n        /* \"#utility.yul\":6580:6589   */\n      dup4\n        /* \"#utility.yul\":6576:6594   */\n      add\n        /* \"#utility.yul\":6569:6617   */\n      mstore\n        /* \"#utility.yul\":6634:6712   */\n      tag_315\n        /* \"#utility.yul\":6707:6711   */\n      dup2\n        /* \"#utility.yul\":6698:6704   */\n      dup12\n        /* \"#utility.yul\":6634:6712   */\n      tag_230\n      jump\t// in\n    tag_315:\n        /* \"#utility.yul\":6626:6712   */\n      swap1\n      pop\n        /* \"#utility.yul\":6759:6768   */\n      dup2\n        /* \"#utility.yul\":6753:6757   */\n      dup2\n        /* \"#utility.yul\":6749:6769   */\n      sub\n        /* \"#utility.yul\":6744:6746   */\n      0x60\n        /* \"#utility.yul\":6733:6742   */\n      dup4\n        /* \"#utility.yul\":6729:6747   */\n      add\n        /* \"#utility.yul\":6722:6770   */\n      mstore\n        /* \"#utility.yul\":6787:6865   */\n      tag_316\n        /* \"#utility.yul\":6860:6864   */\n      dup2\n        /* \"#utility.yul\":6851:6857   */\n      dup11\n        /* \"#utility.yul\":6787:6865   */\n      tag_230\n      jump\t// in\n    tag_316:\n        /* \"#utility.yul\":6779:6865   */\n      swap1\n      pop\n        /* \"#utility.yul\":6913:6922   */\n      dup2\n        /* \"#utility.yul\":6907:6911   */\n      dup2\n        /* \"#utility.yul\":6903:6923   */\n      sub\n        /* \"#utility.yul\":6897:6900   */\n      0x80\n        /* \"#utility.yul\":6886:6895   */\n      dup4\n        /* \"#utility.yul\":6882:6901   */\n      add\n        /* \"#utility.yul\":6875:6924   */\n      mstore\n        /* \"#utility.yul\":6941:7019   */\n      tag_317\n        /* \"#utility.yul\":7014:7018   */\n      dup2\n        /* \"#utility.yul\":7005:7011   */\n      dup10\n        /* \"#utility.yul\":6941:7019   */\n      tag_230\n      jump\t// in\n    tag_317:\n        /* \"#utility.yul\":6933:7019   */\n      swap1\n      pop\n        /* \"#utility.yul\":7067:7076   */\n      dup2\n        /* \"#utility.yul\":7061:7065   */\n      dup2\n        /* \"#utility.yul\":7057:7077   */\n      sub\n        /* \"#utility.yul\":7051:7054   */\n      0xa0\n        /* \"#utility.yul\":7040:7049   */\n      dup4\n        /* \"#utility.yul\":7036:7055   */\n      add\n        /* \"#utility.yul\":7029:7078   */\n      mstore\n        /* \"#utility.yul\":7095:7173   */\n      tag_318\n        /* \"#utility.yul\":7168:7172   */\n      dup2\n        /* \"#utility.yul\":7159:7165   */\n      dup9\n        /* \"#utility.yul\":7095:7173   */\n      tag_230\n      jump\t// in\n    tag_318:\n        /* \"#utility.yul\":7087:7173   */\n      swap1\n      pop\n        /* \"#utility.yul\":7183:7256   */\n      tag_319\n        /* \"#utility.yul\":7251:7254   */\n      0xc0\n        /* \"#utility.yul\":7240:7249   */\n      dup4\n        /* \"#utility.yul\":7236:7255   */\n      add\n        /* \"#utility.yul\":7227:7233   */\n      dup8\n        /* \"#utility.yul\":7183:7256   */\n      tag_228\n      jump\t// in\n    tag_319:\n        /* \"#utility.yul\":7304:7313   */\n      dup2\n        /* \"#utility.yul\":7298:7302   */\n      dup2\n        /* \"#utility.yul\":7294:7314   */\n      sub\n        /* \"#utility.yul\":7288:7291   */\n      0xe0\n        /* \"#utility.yul\":7277:7286   */\n      dup4\n        /* \"#utility.yul\":7273:7292   */\n      add\n        /* \"#utility.yul\":7266:7315   */\n      mstore\n        /* \"#utility.yul\":7332:7410   */\n      tag_320\n        /* \"#utility.yul\":7405:7409   */\n      dup2\n        /* \"#utility.yul\":7396:7402   */\n      dup7\n        /* \"#utility.yul\":7332:7410   */\n      tag_230\n      jump\t// in\n    tag_320:\n        /* \"#utility.yul\":7324:7410   */\n      swap1\n      pop\n        /* \"#utility.yul\":7458:7467   */\n      dup2\n        /* \"#utility.yul\":7452:7456   */\n      dup2\n        /* \"#utility.yul\":7448:7468   */\n      sub\n        /* \"#utility.yul\":7442:7445   */\n      0x0100\n        /* \"#utility.yul\":7431:7440   */\n      dup4\n        /* \"#utility.yul\":7427:7446   */\n      add\n        /* \"#utility.yul\":7420:7469   */\n      mstore\n        /* \"#utility.yul\":7486:7564   */\n      tag_321\n        /* \"#utility.yul\":7559:7563   */\n      dup2\n        /* \"#utility.yul\":7550:7556   */\n      dup6\n        /* \"#utility.yul\":7486:7564   */\n      tag_230\n      jump\t// in\n    tag_321:\n        /* \"#utility.yul\":7478:7564   */\n      swap1\n      pop\n        /* \"#utility.yul\":7574:7647   */\n      tag_322\n        /* \"#utility.yul\":7642:7645   */\n      0x0120\n        /* \"#utility.yul\":7631:7640   */\n      dup4\n        /* \"#utility.yul\":7627:7646   */\n      add\n        /* \"#utility.yul\":7618:7624   */\n      dup5\n        /* \"#utility.yul\":7574:7647   */\n      tag_228\n      jump\t// in\n    tag_322:\n        /* \"#utility.yul\":5798:7654   */\n      swap12\n      swap11\n      pop\n      pop\n      pop\n      pop\n      pop\n      pop\n      pop\n      pop\n      pop\n      pop\n      pop\n      jump\t// out\n        /* \"#utility.yul\":7660:7801   */\n    tag_231:\n        /* \"#utility.yul\":7754:7760   */\n      0x00\n        /* \"#utility.yul\":7788:7793   */\n      dup2\n        /* \"#utility.yul\":7782:7794   */\n      mload\n        /* \"#utility.yul\":7772:7794   */\n      swap1\n      pop\n        /* \"#utility.yul\":7660:7801   */\n      swap2\n      swap1\n      pop\n      jump\t// out\n        /* \"#utility.yul\":7807:8018   */\n    tag_232:\n        /* \"#utility.yul\":7933:7944   */\n      0x00\n        /* \"#utility.yul\":7967:7973   */\n      dup3\n        /* \"#utility.yul\":7962:7965   */\n      dup3\n        /* \"#utility.yul\":7955:7974   */\n      mstore\n        /* \"#utility.yul\":8007:8011   */\n      0x20\n        /* \"#utility.yul\":8002:8005   */\n      dup3\n        /* \"#utility.yul\":7998:8012   */\n      add\n        /* \"#utility.yul\":7983:8012   */\n      swap1\n      pop\n        /* \"#utility.yul\":7807:8018   */\n      swap3\n      swap2\n      pop\n      pop\n      jump\t// out\n        /* \"#utility.yul\":8024:8183   */\n    tag_233:\n        /* \"#utility.yul\":8118:8122   */\n      0x00\n        /* \"#utility.yul\":8141:8144   */\n      dup2\n        /* \"#utility.yul\":8133:8144   */\n      swap1\n      pop\n        /* \"#utility.yul\":8171:8175   */\n      0x20\n        /* \"#utility.yul\":8166:8169   */\n      dup3\n        /* \"#utility.yul\":8162:8176   */\n      add\n        /* \"#utility.yul\":8154:8176   */\n      swap1\n      pop\n        /* \"#utility.yul\":8024:8183   */\n      swap2\n      swap1\n      pop\n      jump\t// out\n        /* \"#utility.yul\":8277:10770   */\n    tag_234:\n        /* \"#utility.yul\":8390:8393   */\n      0x00\n        /* \"#utility.yul\":8426:8432   */\n      0x0140\n        /* \"#utility.yul\":8421:8424   */\n      dup4\n        /* \"#utility.yul\":8417:8433   */\n      add\n        /* \"#utility.yul\":8524:8528   */\n      0x00\n        /* \"#utility.yul\":8517:8522   */\n      dup4\n        /* \"#utility.yul\":8513:8529   */\n      add\n        /* \"#utility.yul\":8507:8530   */\n      mload\n        /* \"#utility.yul\":8543:8606   */\n      tag_327\n        /* \"#utility.yul\":8600:8604   */\n      0x00\n        /* \"#utility.yul\":8595:8598   */\n      dup7\n        /* \"#utility.yul\":8591:8605   */\n      add\n        /* \"#utility.yul\":8577:8589   */\n      dup3\n        /* \"#utility.yul\":8543:8606   */\n      tag_221\n      jump\t// in\n    tag_327:\n        /* \"#utility.yul\":8443:8616   */\n      pop\n        /* \"#utility.yul\":8709:8713   */\n      0x20\n        /* \"#utility.yul\":8702:8707   */\n      dup4\n        /* \"#utility.yul\":8698:8714   */\n      add\n        /* \"#utility.yul\":8692:8715   */\n      mload\n        /* \"#utility.yul\":8762:8765   */\n      dup5\n        /* \"#utility.yul\":8756:8760   */\n      dup3\n        /* \"#utility.yul\":8752:8766   */\n      sub\n        /* \"#utility.yul\":8745:8749   */\n      0x20\n        /* \"#utility.yul\":8740:8743   */\n      dup7\n        /* \"#utility.yul\":8736:8750   */\n      add\n        /* \"#utility.yul\":8729:8767   */\n      mstore\n        /* \"#utility.yul\":8788:8861   */\n      tag_328\n        /* \"#utility.yul\":8856:8860   */\n      dup3\n        /* \"#utility.yul\":8842:8854   */\n      dup3\n        /* \"#utility.yul\":8788:8861   */\n      tag_226\n      jump\t// in\n    tag_328:\n        /* \"#utility.yul\":8780:8861   */\n      swap2\n      pop\n        /* \"#utility.yul\":8626:8872   */\n      pop\n        /* \"#utility.yul\":8955:8959   */\n      0x40\n        /* \"#utility.yul\":8948:8953   */\n      dup4\n        /* \"#utility.yul\":8944:8960   */\n      add\n        /* \"#utility.yul\":8938:8961   */\n      mload\n        /* \"#utility.yul\":9008:9011   */\n      dup5\n        /* \"#utility.yul\":9002:9006   */\n      dup3\n        /* \"#utility.yul\":8998:9012   */\n      sub\n        /* \"#utility.yul\":8991:8995   */\n      0x40\n        /* \"#utility.yul\":8986:8989   */\n      dup7\n        /* \"#utility.yul\":8982:8996   */\n      add\n        /* \"#utility.yul\":8975:9013   */\n      mstore\n        /* \"#utility.yul\":9034:9107   */\n      tag_329\n        /* \"#utility.yul\":9102:9106   */\n      dup3\n        /* \"#utility.yul\":9088:9100   */\n      dup3\n        /* \"#utility.yul\":9034:9107   */\n      tag_226\n      jump\t// in\n    tag_329:\n        /* \"#utility.yul\":9026:9107   */\n      swap2\n      pop\n        /* \"#utility.yul\":8882:9118   */\n      pop\n        /* \"#utility.yul\":9203:9207   */\n      0x60\n        /* \"#utility.yul\":9196:9201   */\n      dup4\n        /* \"#utility.yul\":9192:9208   */\n      add\n        /* \"#utility.yul\":9186:9209   */\n      mload\n        /* \"#utility.yul\":9256:9259   */\n      dup5\n        /* \"#utility.yul\":9250:9254   */\n      dup3\n        /* \"#utility.yul\":9246:9260   */\n      sub\n        /* \"#utility.yul\":9239:9243   */\n      0x60\n        /* \"#utility.yul\":9234:9237   */\n      dup7\n        /* \"#utility.yul\":9230:9244   */\n      add\n        /* \"#utility.yul\":9223:9261   */\n      mstore\n        /* \"#utility.yul\":9282:9355   */\n      tag_330\n        /* \"#utility.yul\":9350:9354   */\n      dup3\n        /* \"#utility.yul\":9336:9348   */\n      dup3\n        /* \"#utility.yul\":9282:9355   */\n      tag_226\n      jump\t// in\n    tag_330:\n        /* \"#utility.yul\":9274:9355   */\n      swap2\n      pop\n        /* \"#utility.yul\":9128:9366   */\n      pop\n        /* \"#utility.yul\":9457:9461   */\n      0x80\n        /* \"#utility.yul\":9450:9455   */\n      dup4\n        /* \"#utility.yul\":9446:9462   */\n      add\n        /* \"#utility.yul\":9440:9463   */\n      mload\n        /* \"#utility.yul\":9510:9513   */\n      dup5\n        /* \"#utility.yul\":9504:9508   */\n      dup3\n        /* \"#utility.yul\":9500:9514   */\n      sub\n        /* \"#utility.yul\":9493:9497   */\n      0x80\n        /* \"#utility.yul\":9488:9491   */\n      dup7\n        /* \"#utility.yul\":9484:9498   */\n      add\n        /* \"#utility.yul\":9477:9515   */\n      mstore\n        /* \"#utility.yul\":9536:9609   */\n      tag_331\n        /* \"#utility.yul\":9604:9608   */\n      dup3\n        /* \"#utility.yul\":9590:9602   */\n      dup3\n        /* \"#utility.yul\":9536:9609   */\n      tag_226\n      jump\t// in\n    tag_331:\n        /* \"#utility.yul\":9528:9609   */\n      swap2\n      pop\n        /* \"#utility.yul\":9376:9620   */\n      pop\n        /* \"#utility.yul\":9706:9710   */\n      0xa0\n        /* \"#utility.yul\":9699:9704   */\n      dup4\n        /* \"#utility.yul\":9695:9711   */\n      add\n        /* \"#utility.yul\":9689:9712   */\n      mload\n        /* \"#utility.yul\":9759:9762   */\n      dup5\n        /* \"#utility.yul\":9753:9757   */\n      dup3\n        /* \"#utility.yul\":9749:9763   */\n      sub\n        /* \"#utility.yul\":9742:9746   */\n      0xa0\n        /* \"#utility.yul\":9737:9740   */\n      dup7\n        /* \"#utility.yul\":9733:9747   */\n      add\n        /* \"#utility.yul\":9726:9764   */\n      mstore\n        /* \"#utility.yul\":9785:9858   */\n      tag_332\n        /* \"#utility.yul\":9853:9857   */\n      dup3\n        /* \"#utility.yul\":9839:9851   */\n      dup3\n        /* \"#utility.yul\":9785:9858   */\n      tag_226\n      jump\t// in\n    tag_332:\n        /* \"#utility.yul\":9777:9858   */\n      swap2\n      pop\n        /* \"#utility.yul\":9630:9869   */\n      pop\n        /* \"#utility.yul\":9959:9963   */\n      0xc0\n        /* \"#utility.yul\":9952:9957   */\n      dup4\n        /* \"#utility.yul\":9948:9964   */\n      add\n        /* \"#utility.yul\":9942:9965   */\n      mload\n        /* \"#utility.yul\":9978:10041   */\n      tag_333\n        /* \"#utility.yul\":10035:10039   */\n      0xc0\n        /* \"#utility.yul\":10030:10033   */\n      dup7\n        /* \"#utility.yul\":10026:10040   */\n      add\n        /* \"#utility.yul\":10012:10024   */\n      dup3\n        /* \"#utility.yul\":9978:10041   */\n      tag_221\n      jump\t// in\n    tag_333:\n        /* \"#utility.yul\":9879:10051   */\n      pop\n        /* \"#utility.yul\":10139:10143   */\n      0xe0\n        /* \"#utility.yul\":10132:10137   */\n      dup4\n        /* \"#utility.yul\":10128:10144   */\n      add\n        /* \"#utility.yul\":10122:10145   */\n      mload\n        /* \"#utility.yul\":10192:10195   */\n      dup5\n        /* \"#utility.yul\":10186:10190   */\n      dup3\n        /* \"#utility.yul\":10182:10196   */\n      sub\n        /* \"#utility.yul\":10175:10179   */\n      0xe0\n        /* \"#utility.yul\":10170:10173   */\n      dup7\n        /* \"#utility.yul\":10166:10180   */\n      add\n        /* \"#utility.yul\":10159:10197   */\n      mstore\n        /* \"#utility.yul\":10218:10291   */\n      tag_334\n        /* \"#utility.yul\":10286:10290   */\n      dup3\n        /* \"#utility.yul\":10272:10284   */\n      dup3\n        /* \"#utility.yul\":10218:10291   */\n      tag_226\n      jump\t// in\n    tag_334:\n        /* \"#utility.yul\":10210:10291   */\n      swap2\n      pop\n        /* \"#utility.yul\":10061:10302   */\n      pop\n        /* \"#utility.yul\":10393:10399   */\n      0x0100\n        /* \"#utility.yul\":10386:10391   */\n      dup4\n        /* \"#utility.yul\":10382:10400   */\n      add\n        /* \"#utility.yul\":10376:10401   */\n      mload\n        /* \"#utility.yul\":10450:10453   */\n      dup5\n        /* \"#utility.yul\":10444:10448   */\n      dup3\n        /* \"#utility.yul\":10440:10454   */\n      sub\n        /* \"#utility.yul\":10431:10437   */\n      0x0100\n        /* \"#utility.yul\":10426:10429   */\n      dup7\n        /* \"#utility.yul\":10422:10438   */\n      add\n        /* \"#utility.yul\":10415:10455   */\n      mstore\n        /* \"#utility.yul\":10476:10549   */\n      tag_335\n        /* \"#utility.yul\":10544:10548   */\n      dup3\n        /* \"#utility.yul\":10530:10542   */\n      dup3\n        /* \"#utility.yul\":10476:10549   */\n      tag_226\n      jump\t// in\n    tag_335:\n        /* \"#utility.yul\":10468:10549   */\n      swap2\n      pop\n        /* \"#utility.yul\":10312:10560   */\n      pop\n        /* \"#utility.yul\":10647:10653   */\n      0x0120\n        /* \"#utility.yul\":10640:10645   */\n      dup4\n        /* \"#utility.yul\":10636:10654   */\n      add\n        /* \"#utility.yul\":10630:10655   */\n      mload\n        /* \"#utility.yul\":10668:10733   */\n      tag_336\n        /* \"#utility.yul\":10725:10731   */\n      0x0120\n        /* \"#utility.yul\":10720:10723   */\n      dup7\n        /* \"#utility.yul\":10716:10732   */\n      add\n        /* \"#utility.yul\":10702:10714   */\n      dup3\n        /* \"#utility.yul\":10668:10733   */\n      tag_221\n      jump\t// in\n    tag_336:\n        /* \"#utility.yul\":10570:10743   */\n      pop\n        /* \"#utility.yul\":10760:10764   */\n      dup1\n        /* \"#utility.yul\":10753:10764   */\n      swap2\n      pop\n        /* \"#utility.yul\":8395:10770   */\n      pop\n        /* \"#utility.yul\":8277:10770   */\n      swap3\n      swap2\n      pop\n      pop\n      jump\t// out\n        /* \"#utility.yul\":10776:11040   */\n    tag_235:\n        /* \"#utility.yul\":10899:10909   */\n      0x00\n        /* \"#utility.yul\":10934:11034   */\n      tag_338\n        /* \"#utility.yul\":11030:11033   */\n      dup4\n        /* \"#utility.yul\":11022:11028   */\n      dup4\n        /* \"#utility.yul\":10934:11034   */\n      tag_234\n      jump\t// in\n    tag_338:\n        /* \"#utility.yul\":10920:11034   */\n      swap1\n      pop\n        /* \"#utility.yul\":10776:11040   */\n      swap3\n      swap2\n      pop\n      pop\n      jump\t// out\n        /* \"#utility.yul\":11046:11186   */\n    tag_236:\n        /* \"#utility.yul\":11143:11147   */\n      0x00\n        /* \"#utility.yul\":11175:11179   */\n      0x20\n        /* \"#utility.yul\":11170:11173   */\n      dup3\n        /* \"#utility.yul\":11166:11180   */\n      add\n        /* \"#utility.yul\":11158:11180   */\n      swap1\n      pop\n        /* \"#utility.yul\":11046:11186   */\n      swap2\n      swap1\n      pop\n      jump\t// out\n        /* \"#utility.yul\":11284:12411   */\n    tag_237:\n        /* \"#utility.yul\":11457:11460   */\n      0x00\n        /* \"#utility.yul\":11486:11567   */\n      tag_341\n        /* \"#utility.yul\":11561:11566   */\n      dup3\n        /* \"#utility.yul\":11486:11567   */\n      tag_231\n      jump\t// in\n    tag_341:\n        /* \"#utility.yul\":11583:11696   */\n      tag_342\n        /* \"#utility.yul\":11689:11695   */\n      dup2\n        /* \"#utility.yul\":11684:11687   */\n      dup6\n        /* \"#utility.yul\":11583:11696   */\n      tag_232\n      jump\t// in\n    tag_342:\n        /* \"#utility.yul\":11576:11696   */\n      swap4\n      pop\n        /* \"#utility.yul\":11722:11725   */\n      dup4\n        /* \"#utility.yul\":11767:11771   */\n      0x20\n        /* \"#utility.yul\":11759:11765   */\n      dup3\n        /* \"#utility.yul\":11755:11772   */\n      mul\n        /* \"#utility.yul\":11750:11753   */\n      dup6\n        /* \"#utility.yul\":11746:11773   */\n      add\n        /* \"#utility.yul\":11797:11880   */\n      tag_343\n        /* \"#utility.yul\":11874:11879   */\n      dup6\n        /* \"#utility.yul\":11797:11880   */\n      tag_233\n      jump\t// in\n    tag_343:\n        /* \"#utility.yul\":11903:11910   */\n      dup1\n        /* \"#utility.yul\":11934:11935   */\n      0x00\n        /* \"#utility.yul\":11919:12366   */\n    tag_344:\n        /* \"#utility.yul\":11944:11950   */\n      dup6\n        /* \"#utility.yul\":11941:11942   */\n      dup2\n        /* \"#utility.yul\":11938:11951   */\n      lt\n        /* \"#utility.yul\":11919:12366   */\n      iszero\n      tag_346\n      jumpi\n        /* \"#utility.yul\":12015:12024   */\n      dup5\n        /* \"#utility.yul\":12009:12013   */\n      dup5\n        /* \"#utility.yul\":12005:12025   */\n      sub\n        /* \"#utility.yul\":12000:12003   */\n      dup10\n        /* \"#utility.yul\":11993:12026   */\n      mstore\n        /* \"#utility.yul\":12066:12072   */\n      dup2\n        /* \"#utility.yul\":12060:12073   */\n      mload\n        /* \"#utility.yul\":12094:12212   */\n      tag_347\n        /* \"#utility.yul\":12207:12211   */\n      dup6\n        /* \"#utility.yul\":12192:12205   */\n      dup3\n        /* \"#utility.yul\":12094:12212   */\n      tag_235\n      jump\t// in\n    tag_347:\n        /* \"#utility.yul\":12086:12212   */\n      swap5\n      pop\n        /* \"#utility.yul\":12235:12322   */\n      tag_348\n        /* \"#utility.yul\":12315:12321   */\n      dup4\n        /* \"#utility.yul\":12235:12322   */\n      tag_236\n      jump\t// in\n    tag_348:\n        /* \"#utility.yul\":12225:12322   */\n      swap3\n      pop\n        /* \"#utility.yul\":12351:12355   */\n      0x20\n        /* \"#utility.yul\":12346:12349   */\n      dup11\n        /* \"#utility.yul\":12342:12356   */\n      add\n        /* \"#utility.yul\":12335:12356   */\n      swap10\n      pop\n        /* \"#utility.yul\":11979:12366   */\n      pop\n        /* \"#utility.yul\":11966:11967   */\n      0x01\n        /* \"#utility.yul\":11963:11964   */\n      dup2\n        /* \"#utility.yul\":11959:11968   */\n      add\n        /* \"#utility.yul\":11954:11968   */\n      swap1\n      pop\n        /* \"#utility.yul\":11919:12366   */\n      jump(tag_344)\n    tag_346:\n        /* \"#utility.yul\":11923:11937   */\n      pop\n        /* \"#utility.yul\":12382:12386   */\n      dup3\n        /* \"#utility.yul\":12375:12386   */\n      swap8\n      pop\n        /* \"#utility.yul\":12402:12405   */\n      dup8\n        /* \"#utility.yul\":12395:12405   */\n      swap6\n      pop\n        /* \"#utility.yul\":11462:12411   */\n      pop\n      pop\n      pop\n      pop\n      pop\n        /* \"#utility.yul\":11284:12411   */\n      swap3\n      swap2\n      pop\n      pop\n      jump\t// out\n        /* \"#utility.yul\":12417:12898   */\n    tag_23:\n        /* \"#utility.yul\":12614:12618   */\n      0x00\n        /* \"#utility.yul\":12652:12654   */\n      0x20\n        /* \"#utility.yul\":12641:12650   */\n      dup3\n        /* \"#utility.yul\":12637:12655   */\n      add\n        /* \"#utility.yul\":12629:12655   */\n      swap1\n      pop\n        /* \"#utility.yul\":12701:12710   */\n      dup2\n        /* \"#utility.yul\":12695:12699   */\n      dup2\n        /* \"#utility.yul\":12691:12711   */\n      sub\n        /* \"#utility.yul\":12687:12688   */\n      0x00\n        /* \"#utility.yul\":12676:12685   */\n      dup4\n        /* \"#utility.yul\":12672:12689   */\n      add\n        /* \"#utility.yul\":12665:12712   */\n      mstore\n        /* \"#utility.yul\":12729:12891   */\n      tag_350\n        /* \"#utility.yul\":12886:12890   */\n      dup2\n        /* \"#utility.yul\":12877:12883   */\n      dup5\n        /* \"#utility.yul\":12729:12891   */\n      tag_237\n      jump\t// in\n    tag_350:\n        /* \"#utility.yul\":12721:12891   */\n      swap1\n      pop\n        /* \"#utility.yul\":12417:12898   */\n      swap3\n      swap2\n      pop\n      pop\n      jump\t// out\n        /* \"#utility.yul\":12904:13126   */\n    tag_27:\n        /* \"#utility.yul\":12997:13001   */\n      0x00\n        /* \"#utility.yul\":13035:13037   */\n      0x20\n        /* \"#utility.yul\":13024:13033   */\n      dup3\n        /* \"#utility.yul\":13020:13038   */\n      add\n        /* \"#utility.yul\":13012:13038   */\n      swap1\n      pop\n        /* \"#utility.yul\":13048:13119   */\n      tag_352\n        /* \"#utility.yul\":13116:13117   */\n      0x00\n        /* \"#utility.yul\":13105:13114   */\n      dup4\n        /* \"#utility.yul\":13101:13118   */\n      add\n        /* \"#utility.yul\":13092:13098   */\n      dup5\n        /* \"#utility.yul\":13048:13119   */\n      tag_228\n      jump\t// in\n    tag_352:\n        /* \"#utility.yul\":12904:13126   */\n      swap3\n      swap2\n      pop\n      pop\n      jump\t// out\n        /* \"#utility.yul\":13132:13249   */\n    tag_238:\n        /* \"#utility.yul\":13241:13242   */\n      0x00\n        /* \"#utility.yul\":13238:13239   */\n      dup1\n        /* \"#utility.yul\":13231:13243   */\n      revert\n        /* \"#utility.yul\":13255:13372   */\n    tag_239:\n        /* \"#utility.yul\":13364:13365   */\n      0x00\n        /* \"#utility.yul\":13361:13362   */\n      dup1\n        /* \"#utility.yul\":13354:13366   */\n      revert\n        /* \"#utility.yul\":13378:13558   */\n    tag_113:\n        /* \"#utility.yul\":13426:13503   */\n      0x4e487b7100000000000000000000000000000000000000000000000000000000\n        /* \"#utility.yul\":13423:13424   */\n      0x00\n        /* \"#utility.yul\":13416:13504   */\n      mstore\n        /* \"#utility.yul\":13523:13527   */\n      0x41\n        /* \"#utility.yul\":13520:13521   */\n      0x04\n        /* \"#utility.yul\":13513:13528   */\n      mstore\n        /* \"#utility.yul\":13547:13551   */\n      0x24\n        /* \"#utility.yul\":13544:13545   */\n      0x00\n        /* \"#utility.yul\":13537:13552   */\n      revert\n        /* \"#utility.yul\":13564:13845   */\n    tag_240:\n        /* \"#utility.yul\":13647:13674   */\n      tag_357\n        /* \"#utility.yul\":13669:13673   */\n      dup3\n        /* \"#utility.yul\":13647:13674   */\n      tag_225\n      jump\t// in\n    tag_357:\n        /* \"#utility.yul\":13639:13645   */\n      dup2\n        /* \"#utility.yul\":13635:13675   */\n      add\n        /* \"#utility.yul\":13777:13783   */\n      dup2\n        /* \"#utility.yul\":13765:13775   */\n      dup2\n        /* \"#utility.yul\":13762:13784   */\n      lt\n        /* \"#utility.yul\":13741:13759   */\n      0xffffffffffffffff\n        /* \"#utility.yul\":13729:13739   */\n      dup3\n        /* \"#utility.yul\":13726:13760   */\n      gt\n        /* \"#utility.yul\":13723:13785   */\n      or\n        /* \"#utility.yul\":13720:13808   */\n      iszero\n      tag_358\n      jumpi\n        /* \"#utility.yul\":13788:13806   */\n      tag_359\n      tag_113\n      jump\t// in\n    tag_359:\n        /* \"#utility.yul\":13720:13808   */\n    tag_358:\n        /* \"#utility.yul\":13828:13838   */\n      dup1\n        /* \"#utility.yul\":13824:13826   */\n      0x40\n        /* \"#utility.yul\":13817:13839   */\n      mstore\n        /* \"#utility.yul\":13607:13845   */\n      pop\n        /* \"#utility.yul\":13564:13845   */\n      pop\n      pop\n      jump\t// out\n        /* \"#utility.yul\":13851:13980   */\n    tag_241:\n        /* \"#utility.yul\":13885:13891   */\n      0x00\n        /* \"#utility.yul\":13912:13932   */\n      tag_361\n      tag_215\n      jump\t// in\n    tag_361:\n        /* \"#utility.yul\":13902:13932   */\n      swap1\n      pop\n        /* \"#utility.yul\":13941:13974   */\n      tag_362\n        /* \"#utility.yul\":13969:13973   */\n      dup3\n        /* \"#utility.yul\":13961:13967   */\n      dup3\n        /* \"#utility.yul\":13941:13974   */\n      tag_240\n      jump\t// in\n    tag_362:\n        /* \"#utility.yul\":13851:13980   */\n      swap2\n      swap1\n      pop\n      jump\t// out\n        /* \"#utility.yul\":13986:14294   */\n    tag_242:\n        /* \"#utility.yul\":14048:14052   */\n      0x00\n        /* \"#utility.yul\":14138:14156   */\n      0xffffffffffffffff\n        /* \"#utility.yul\":14130:14136   */\n      dup3\n        /* \"#utility.yul\":14127:14157   */\n      gt\n        /* \"#utility.yul\":14124:14180   */\n      iszero\n      tag_364\n      jumpi\n        /* \"#utility.yul\":14160:14178   */\n      tag_365\n      tag_113\n      jump\t// in\n    tag_365:\n        /* \"#utility.yul\":14124:14180   */\n    tag_364:\n        /* \"#utility.yul\":14198:14227   */\n      tag_366\n        /* \"#utility.yul\":14220:14226   */\n      dup3\n        /* \"#utility.yul\":14198:14227   */\n      tag_225\n      jump\t// in\n    tag_366:\n        /* \"#utility.yul\":14190:14227   */\n      swap1\n      pop\n        /* \"#utility.yul\":14282:14286   */\n      0x20\n        /* \"#utility.yul\":14276:14280   */\n      dup2\n        /* \"#utility.yul\":14272:14287   */\n      add\n        /* \"#utility.yul\":14264:14287   */\n      swap1\n      pop\n        /* \"#utility.yul\":13986:14294   */\n      swap2\n      swap1\n      pop\n      jump\t// out\n        /* \"#utility.yul\":14300:14446   */\n    tag_243:\n        /* \"#utility.yul\":14397:14403   */\n      dup3\n        /* \"#utility.yul\":14392:14395   */\n      dup2\n        /* \"#utility.yul\":14387:14390   */\n      dup4\n        /* \"#utility.yul\":14374:14404   */\n      calldatacopy\n        /* \"#utility.yul\":14438:14439   */\n      0x00\n        /* \"#utility.yul\":14429:14435   */\n      dup4\n        /* \"#utility.yul\":14424:14427   */\n      dup4\n        /* \"#utility.yul\":14420:14436   */\n      add\n        /* \"#utility.yul\":14413:14440   */\n      mstore\n        /* \"#utility.yul\":14300:14446   */\n      pop\n      pop\n      pop\n      jump\t// out\n        /* \"#utility.yul\":14452:14877   */\n    tag_244:\n        /* \"#utility.yul\":14530:14535   */\n      0x00\n        /* \"#utility.yul\":14555:14621   */\n      tag_369\n        /* \"#utility.yul\":14571:14620   */\n      tag_370\n        /* \"#utility.yul\":14613:14619   */\n      dup5\n        /* \"#utility.yul\":14571:14620   */\n      tag_242\n      jump\t// in\n    tag_370:\n        /* \"#utility.yul\":14555:14621   */\n      tag_241\n      jump\t// in\n    tag_369:\n        /* \"#utility.yul\":14546:14621   */\n      swap1\n      pop\n        /* \"#utility.yul\":14644:14650   */\n      dup3\n        /* \"#utility.yul\":14637:14642   */\n      dup2\n        /* \"#utility.yul\":14630:14651   */\n      mstore\n        /* \"#utility.yul\":14682:14686   */\n      0x20\n        /* \"#utility.yul\":14675:14680   */\n      dup2\n        /* \"#utility.yul\":14671:14687   */\n      add\n        /* \"#utility.yul\":14720:14723   */\n      dup5\n        /* \"#utility.yul\":14711:14717   */\n      dup5\n        /* \"#utility.yul\":14706:14709   */\n      dup5\n        /* \"#utility.yul\":14702:14718   */\n      add\n        /* \"#utility.yul\":14699:14724   */\n      gt\n        /* \"#utility.yul\":14696:14808   */\n      iszero\n      tag_371\n      jumpi\n        /* \"#utility.yul\":14727:14806   */\n      tag_372\n      tag_239\n      jump\t// in\n    tag_372:\n        /* \"#utility.yul\":14696:14808   */\n    tag_371:\n        /* \"#utility.yul\":14817:14871   */\n      tag_373\n        /* \"#utility.yul\":14864:14870   */\n      dup5\n        /* \"#utility.yul\":14859:14862   */\n      dup3\n        /* \"#utility.yul\":14854:14857   */\n      dup6\n        /* \"#utility.yul\":14817:14871   */\n      tag_243\n      jump\t// in\n    tag_373:\n        /* \"#utility.yul\":14536:14877   */\n      pop\n        /* \"#utility.yul\":14452:14877   */\n      swap4\n      swap3\n      pop\n      pop\n      pop\n      jump\t// out\n        /* \"#utility.yul\":14897:15237   */\n    tag_245:\n        /* \"#utility.yul\":14953:14958   */\n      0x00\n        /* \"#utility.yul\":15002:15005   */\n      dup3\n        /* \"#utility.yul\":14995:14999   */\n      0x1f\n        /* \"#utility.yul\":14987:14993   */\n      dup4\n        /* \"#utility.yul\":14983:15000   */\n      add\n        /* \"#utility.yul\":14979:15006   */\n      slt\n        /* \"#utility.yul\":14969:15091   */\n      tag_375\n      jumpi\n        /* \"#utility.yul\":15010:15089   */\n      tag_376\n      tag_238\n      jump\t// in\n    tag_376:\n        /* \"#utility.yul\":14969:15091   */\n    tag_375:\n        /* \"#utility.yul\":15127:15133   */\n      dup2\n        /* \"#utility.yul\":15114:15134   */\n      calldataload\n        /* \"#utility.yul\":15152:15231   */\n      tag_377\n        /* \"#utility.yul\":15227:15230   */\n      dup5\n        /* \"#utility.yul\":15219:15225   */\n      dup3\n        /* \"#utility.yul\":15212:15216   */\n      0x20\n        /* \"#utility.yul\":15204:15210   */\n      dup7\n        /* \"#utility.yul\":15200:15217   */\n      add\n        /* \"#utility.yul\":15152:15231   */\n      tag_244\n      jump\t// in\n    tag_377:\n        /* \"#utility.yul\":15143:15231   */\n      swap2\n      pop\n        /* \"#utility.yul\":14959:15237   */\n      pop\n        /* \"#utility.yul\":14897:15237   */\n      swap3\n      swap2\n      pop\n      pop\n      jump\t// out\n        /* \"#utility.yul\":15243:16042   */\n    tag_30:\n        /* \"#utility.yul\":15330:15336   */\n      0x00\n        /* \"#utility.yul\":15338:15344   */\n      dup1\n        /* \"#utility.yul\":15346:15352   */\n      0x00\n        /* \"#utility.yul\":15395:15397   */\n      0x60\n        /* \"#utility.yul\":15383:15392   */\n      dup5\n        /* \"#utility.yul\":15374:15381   */\n      dup7\n        /* \"#utility.yul\":15370:15393   */\n      sub\n        /* \"#utility.yul\":15366:15398   */\n      slt\n        /* \"#utility.yul\":15363:15482   */\n      iszero\n      tag_379\n      jumpi\n        /* \"#utility.yul\":15401:15480   */\n      tag_380\n      tag_216\n      jump\t// in\n    tag_380:\n        /* \"#utility.yul\":15363:15482   */\n    tag_379:\n        /* \"#utility.yul\":15521:15522   */\n      0x00\n        /* \"#utility.yul\":15546:15599   */\n      tag_381\n        /* \"#utility.yul\":15591:15598   */\n      dup7\n        /* \"#utility.yul\":15582:15588   */\n      dup3\n        /* \"#utility.yul\":15571:15580   */\n      dup8\n        /* \"#utility.yul\":15567:15589   */\n      add\n        /* \"#utility.yul\":15546:15599   */\n      tag_220\n      jump\t// in\n    tag_381:\n        /* \"#utility.yul\":15536:15599   */\n      swap4\n      pop\n        /* \"#utility.yul\":15492:15609   */\n      pop\n        /* \"#utility.yul\":15676:15678   */\n      0x20\n        /* \"#utility.yul\":15665:15674   */\n      dup5\n        /* \"#utility.yul\":15661:15679   */\n      add\n        /* \"#utility.yul\":15648:15680   */\n      calldataload\n        /* \"#utility.yul\":15707:15725   */\n      0xffffffffffffffff\n        /* \"#utility.yul\":15699:15705   */\n      dup2\n        /* \"#utility.yul\":15696:15726   */\n      gt\n        /* \"#utility.yul\":15693:15810   */\n      iszero\n      tag_382\n      jumpi\n        /* \"#utility.yul\":15729:15808   */\n      tag_383\n      tag_217\n      jump\t// in\n    tag_383:\n        /* \"#utility.yul\":15693:15810   */\n    tag_382:\n        /* \"#utility.yul\":15834:15897   */\n      tag_384\n        /* \"#utility.yul\":15889:15896   */\n      dup7\n        /* \"#utility.yul\":15880:15886   */\n      dup3\n        /* \"#utility.yul\":15869:15878   */\n      dup8\n        /* \"#utility.yul\":15865:15887   */\n      add\n        /* \"#utility.yul\":15834:15897   */\n      tag_245\n      jump\t// in\n    tag_384:\n        /* \"#utility.yul\":15824:15897   */\n      swap3\n      pop\n        /* \"#utility.yul\":15619:15907   */\n      pop\n        /* \"#utility.yul\":15946:15948   */\n      0x40\n        /* \"#utility.yul\":15972:16025   */\n      tag_385\n        /* \"#utility.yul\":16017:16024   */\n      dup7\n        /* \"#utility.yul\":16008:16014   */\n      dup3\n        /* \"#utility.yul\":15997:16006   */\n      dup8\n        /* \"#utility.yul\":15993:16015   */\n      add\n        /* \"#utility.yul\":15972:16025   */\n      tag_220\n      jump\t// in\n    tag_385:\n        /* \"#utility.yul\":15962:16025   */\n      swap2\n      pop\n        /* \"#utility.yul\":15917:16035   */\n      pop\n        /* \"#utility.yul\":15243:16042   */\n      swap3\n      pop\n      swap3\n      pop\n      swap3\n      jump\t// out\n        /* \"#utility.yul\":16048:18803   */\n    tag_34:\n        /* \"#utility.yul\":16249:16255   */\n      0x00\n        /* \"#utility.yul\":16257:16263   */\n      dup1\n        /* \"#utility.yul\":16265:16271   */\n      0x00\n        /* \"#utility.yul\":16273:16279   */\n      dup1\n        /* \"#utility.yul\":16281:16287   */\n      0x00\n        /* \"#utility.yul\":16289:16295   */\n      dup1\n        /* \"#utility.yul\":16297:16303   */\n      0x00\n        /* \"#utility.yul\":16305:16311   */\n      dup1\n        /* \"#utility.yul\":16313:16319   */\n      0x00\n        /* \"#utility.yul\":16362:16365   */\n      0x0120\n        /* \"#utility.yul\":16350:16359   */\n      dup11\n        /* \"#utility.yul\":16341:16348   */\n      dup13\n        /* \"#utility.yul\":16337:16360   */\n      sub\n        /* \"#utility.yul\":16333:16366   */\n      slt\n        /* \"#utility.yul\":16330:16450   */\n      iszero\n      tag_387\n      jumpi\n        /* \"#utility.yul\":16369:16448   */\n      tag_388\n      tag_216\n      jump\t// in\n    tag_388:\n        /* \"#utility.yul\":16330:16450   */\n    tag_387:\n        /* \"#utility.yul\":16517:16518   */\n      0x00\n        /* \"#utility.yul\":16506:16515   */\n      dup11\n        /* \"#utility.yul\":16502:16519   */\n      add\n        /* \"#utility.yul\":16489:16520   */\n      calldataload\n        /* \"#utility.yul\":16547:16565   */\n      0xffffffffffffffff\n        /* \"#utility.yul\":16539:16545   */\n      dup2\n        /* \"#utility.yul\":16536:16566   */\n      gt\n        /* \"#utility.yul\":16533:16650   */\n      iszero\n      tag_389\n      jumpi\n        /* \"#utility.yul\":16569:16648   */\n      tag_390\n      tag_217\n      jump\t// in\n    tag_390:\n        /* \"#utility.yul\":16533:16650   */\n    tag_389:\n        /* \"#utility.yul\":16674:16737   */\n      tag_391\n        /* \"#utility.yul\":16729:16736   */\n      dup13\n        /* \"#utility.yul\":16720:16726   */\n      dup3\n        /* \"#utility.yul\":16709:16718   */\n      dup14\n        /* \"#utility.yul\":16705:16727   */\n      add\n        /* \"#utility.yul\":16674:16737   */\n      tag_245\n      jump\t// in\n    tag_391:\n        /* \"#utility.yul\":16664:16737   */\n      swap10\n      pop\n        /* \"#utility.yul\":16460:16747   */\n      pop\n        /* \"#utility.yul\":16814:16816   */\n      0x20\n        /* \"#utility.yul\":16803:16812   */\n      dup11\n        /* \"#utility.yul\":16799:16817   */\n      add\n        /* \"#utility.yul\":16786:16818   */\n      calldataload\n        /* \"#utility.yul\":16845:16863   */\n      0xffffffffffffffff\n        /* \"#utility.yul\":16837:16843   */\n      dup2\n        /* \"#utility.yul\":16834:16864   */\n      gt\n        /* \"#utility.yul\":16831:16948   */\n      iszero\n      tag_392\n      jumpi\n        /* \"#utility.yul\":16867:16946   */\n      tag_393\n      tag_217\n      jump\t// in\n    tag_393:\n        /* \"#utility.yul\":16831:16948   */\n    tag_392:\n        /* \"#utility.yul\":16972:17035   */\n      tag_394\n        /* \"#utility.yul\":17027:17034   */\n      dup13\n        /* \"#utility.yul\":17018:17024   */\n      dup3\n        /* \"#utility.yul\":17007:17016   */\n      dup14\n        /* \"#utility.yul\":17003:17025   */\n      add\n        /* \"#utility.yul\":16972:17035   */\n      tag_245\n      jump\t// in\n    tag_394:\n        /* \"#utility.yul\":16962:17035   */\n      swap9\n      pop\n        /* \"#utility.yul\":16757:17045   */\n      pop\n        /* \"#utility.yul\":17112:17114   */\n      0x40\n        /* \"#utility.yul\":17101:17110   */\n      dup11\n        /* \"#utility.yul\":17097:17115   */\n      add\n        /* \"#utility.yul\":17084:17116   */\n      calldataload\n        /* \"#utility.yul\":17143:17161   */\n      0xffffffffffffffff\n        /* \"#utility.yul\":17135:17141   */\n      dup2\n        /* \"#utility.yul\":17132:17162   */\n      gt\n        /* \"#utility.yul\":17129:17246   */\n      iszero\n      tag_395\n      jumpi\n        /* \"#utility.yul\":17165:17244   */\n      tag_396\n      tag_217\n      jump\t// in\n    tag_396:\n        /* \"#utility.yul\":17129:17246   */\n    tag_395:\n        /* \"#utility.yul\":17270:17333   */\n      tag_397\n        /* \"#utility.yul\":17325:17332   */\n      dup13\n        /* \"#utility.yul\":17316:17322   */\n      dup3\n        /* \"#utility.yul\":17305:17314   */\n      dup14\n        /* \"#utility.yul\":17301:17323   */\n      add\n        /* \"#utility.yul\":17270:17333   */\n      tag_245\n      jump\t// in\n    tag_397:\n        /* \"#utility.yul\":17260:17333   */\n      swap8\n      pop\n        /* \"#utility.yul\":17055:17343   */\n      pop\n        /* \"#utility.yul\":17410:17412   */\n      0x60\n        /* \"#utility.yul\":17399:17408   */\n      dup11\n        /* \"#utility.yul\":17395:17413   */\n      add\n        /* \"#utility.yul\":17382:17414   */\n      calldataload\n        /* \"#utility.yul\":17441:17459   */\n      0xffffffffffffffff\n        /* \"#utility.yul\":17433:17439   */\n      dup2\n        /* \"#utility.yul\":17430:17460   */\n      gt\n        /* \"#utility.yul\":17427:17544   */\n      iszero\n      tag_398\n      jumpi\n        /* \"#utility.yul\":17463:17542   */\n      tag_399\n      tag_217\n      jump\t// in\n    tag_399:\n        /* \"#utility.yul\":17427:17544   */\n    tag_398:\n        /* \"#utility.yul\":17568:17631   */\n      tag_400\n        /* \"#utility.yul\":17623:17630   */\n      dup13\n        /* \"#utility.yul\":17614:17620   */\n      dup3\n        /* \"#utility.yul\":17603:17612   */\n      dup14\n        /* \"#utility.yul\":17599:17621   */\n      add\n        /* \"#utility.yul\":17568:17631   */\n      tag_245\n      jump\t// in\n    tag_400:\n        /* \"#utility.yul\":17558:17631   */\n      swap7\n      pop\n        /* \"#utility.yul\":17353:17641   */\n      pop\n        /* \"#utility.yul\":17708:17711   */\n      0x80\n        /* \"#utility.yul\":17697:17706   */\n      dup11\n        /* \"#utility.yul\":17693:17712   */\n      add\n        /* \"#utility.yul\":17680:17713   */\n      calldataload\n        /* \"#utility.yul\":17740:17758   */\n      0xffffffffffffffff\n        /* \"#utility.yul\":17732:17738   */\n      dup2\n        /* \"#utility.yul\":17729:17759   */\n      gt\n        /* \"#utility.yul\":17726:17843   */\n      iszero\n      tag_401\n      jumpi\n        /* \"#utility.yul\":17762:17841   */\n      tag_402\n      tag_217\n      jump\t// in\n    tag_402:\n        /* \"#utility.yul\":17726:17843   */\n    tag_401:\n        /* \"#utility.yul\":17867:17930   */\n      tag_403\n        /* \"#utility.yul\":17922:17929   */\n      dup13\n        /* \"#utility.yul\":17913:17919   */\n      dup3\n        /* \"#utility.yul\":17902:17911   */\n      dup14\n        /* \"#utility.yul\":17898:17920   */\n      add\n        /* \"#utility.yul\":17867:17930   */\n      tag_245\n      jump\t// in\n    tag_403:\n        /* \"#utility.yul\":17857:17930   */\n      swap6\n      pop\n        /* \"#utility.yul\":17651:17940   */\n      pop\n        /* \"#utility.yul\":17979:17982   */\n      0xa0\n        /* \"#utility.yul\":18006:18059   */\n      tag_404\n        /* \"#utility.yul\":18051:18058   */\n      dup13\n        /* \"#utility.yul\":18042:18048   */\n      dup3\n        /* \"#utility.yul\":18031:18040   */\n      dup14\n        /* \"#utility.yul\":18027:18049   */\n      add\n        /* \"#utility.yul\":18006:18059   */\n      tag_220\n      jump\t// in\n    tag_404:\n        /* \"#utility.yul\":17996:18059   */\n      swap5\n      pop\n        /* \"#utility.yul\":17950:18069   */\n      pop\n        /* \"#utility.yul\":18136:18139   */\n      0xc0\n        /* \"#utility.yul\":18125:18134   */\n      dup11\n        /* \"#utility.yul\":18121:18140   */\n      add\n        /* \"#utility.yul\":18108:18141   */\n      calldataload\n        /* \"#utility.yul\":18168:18186   */\n      0xffffffffffffffff\n        /* \"#utility.yul\":18160:18166   */\n      dup2\n        /* \"#utility.yul\":18157:18187   */\n      gt\n        /* \"#utility.yul\":18154:18271   */\n      iszero\n      tag_405\n      jumpi\n        /* \"#utility.yul\":18190:18269   */\n      tag_406\n      tag_217\n      jump\t// in\n    tag_406:\n        /* \"#utility.yul\":18154:18271   */\n    tag_405:\n        /* \"#utility.yul\":18295:18358   */\n      tag_407\n        /* \"#utility.yul\":18350:18357   */\n      dup13\n        /* \"#utility.yul\":18341:18347   */\n      dup3\n        /* \"#utility.yul\":18330:18339   */\n      dup14\n        /* \"#utility.yul\":18326:18348   */\n      add\n        /* \"#utility.yul\":18295:18358   */\n      tag_245\n      jump\t// in\n    tag_407:\n        /* \"#utility.yul\":18285:18358   */\n      swap4\n      pop\n        /* \"#utility.yul\":18079:18368   */\n      pop\n        /* \"#utility.yul\":18435:18438   */\n      0xe0\n        /* \"#utility.yul\":18424:18433   */\n      dup11\n        /* \"#utility.yul\":18420:18439   */\n      add\n        /* \"#utility.yul\":18407:18440   */\n      calldataload\n        /* \"#utility.yul\":18467:18485   */\n      0xffffffffffffffff\n        /* \"#utility.yul\":18459:18465   */\n      dup2\n        /* \"#utility.yul\":18456:18486   */\n      gt\n        /* \"#utility.yul\":18453:18570   */\n      iszero\n      tag_408\n      jumpi\n        /* \"#utility.yul\":18489:18568   */\n      tag_409\n      tag_217\n      jump\t// in\n    tag_409:\n        /* \"#utility.yul\":18453:18570   */\n    tag_408:\n        /* \"#utility.yul\":18594:18657   */\n      tag_410\n        /* \"#utility.yul\":18649:18656   */\n      dup13\n        /* \"#utility.yul\":18640:18646   */\n      dup3\n        /* \"#utility.yul\":18629:18638   */\n      dup14\n        /* \"#utility.yul\":18625:18647   */\n      add\n        /* \"#utility.yul\":18594:18657   */\n      tag_245\n      jump\t// in\n    tag_410:\n        /* \"#utility.yul\":18584:18657   */\n      swap3\n      pop\n        /* \"#utility.yul\":18378:18667   */\n      pop\n        /* \"#utility.yul\":18706:18709   */\n      0x0100\n        /* \"#utility.yul\":18733:18786   */\n      tag_411\n        /* \"#utility.yul\":18778:18785   */\n      dup13\n        /* \"#utility.yul\":18769:18775   */\n      dup3\n        /* \"#utility.yul\":18758:18767   */\n      dup14\n        /* \"#utility.yul\":18754:18776   */\n      add\n        /* \"#utility.yul\":18733:18786   */\n      tag_220\n      jump\t// in\n    tag_411:\n        /* \"#utility.yul\":18723:18786   */\n      swap2\n      pop\n        /* \"#utility.yul\":18677:18796   */\n      pop\n        /* \"#utility.yul\":16048:18803   */\n      swap3\n      swap6\n      swap9\n      pop\n      swap3\n      swap6\n      swap9\n      pop\n      swap3\n      swap6\n      swap9\n      jump\t// out\n        /* \"#utility.yul\":18809:18989   */\n    tag_246:\n        /* \"#utility.yul\":18857:18934   */\n      0x4e487b7100000000000000000000000000000000000000000000000000000000\n        /* \"#utility.yul\":18854:18855   */\n      0x00\n        /* \"#utility.yul\":18847:18935   */\n      mstore\n        /* \"#utility.yul\":18954:18958   */\n      0x22\n        /* \"#utility.yul\":18951:18952   */\n      0x04\n        /* \"#utility.yul\":18944:18959   */\n      mstore\n        /* \"#utility.yul\":18978:18982   */\n      0x24\n        /* \"#utility.yul\":18975:18976   */\n      0x00\n        /* \"#utility.yul\":18968:18983   */\n      revert\n        /* \"#utility.yul\":18995:19315   */\n    tag_40:\n        /* \"#utility.yul\":19039:19045   */\n      0x00\n        /* \"#utility.yul\":19076:19077   */\n      0x02\n        /* \"#utility.yul\":19070:19074   */\n      dup3\n        /* \"#utility.yul\":19066:19078   */\n      div\n        /* \"#utility.yul\":19056:19078   */\n      swap1\n      pop\n        /* \"#utility.yul\":19123:19124   */\n      0x01\n        /* \"#utility.yul\":19117:19121   */\n      dup3\n        /* \"#utility.yul\":19113:19125   */\n      and\n        /* \"#utility.yul\":19144:19162   */\n      dup1\n        /* \"#utility.yul\":19134:19215   */\n      tag_414\n      jumpi\n        /* \"#utility.yul\":19200:19204   */\n      0x7f\n        /* \"#utility.yul\":19192:19198   */\n      dup3\n        /* \"#utility.yul\":19188:19205   */\n      and\n        /* \"#utility.yul\":19178:19205   */\n      swap2\n      pop\n        /* \"#utility.yul\":19134:19215   */\n    tag_414:\n        /* \"#utility.yul\":19262:19264   */\n      0x20\n        /* \"#utility.yul\":19254:19260   */\n      dup3\n        /* \"#utility.yul\":19251:19265   */\n      lt\n        /* \"#utility.yul\":19231:19249   */\n      dup2\n        /* \"#utility.yul\":19228:19266   */\n      sub\n        /* \"#utility.yul\":19225:19309   */\n      tag_415\n      jumpi\n        /* \"#utility.yul\":19281:19299   */\n      tag_416\n      tag_246\n      jump\t// in\n    tag_416:\n        /* \"#utility.yul\":19225:19309   */\n    tag_415:\n        /* \"#utility.yul\":19046:19315   */\n      pop\n        /* \"#utility.yul\":18995:19315   */\n      swap2\n      swap1\n      pop\n      jump\t// out\n        /* \"#utility.yul\":19321:19501   */\n    tag_247:\n        /* \"#utility.yul\":19369:19446   */\n      0x4e487b7100000000000000000000000000000000000000000000000000000000\n        /* \"#utility.yul\":19366:19367   */\n      0x00\n        /* \"#utility.yul\":19359:19447   */\n      mstore\n        /* \"#utility.yul\":19466:19470   */\n      0x11\n        /* \"#utility.yul\":19463:19464   */\n      0x04\n        /* \"#utility.yul\":19456:19471   */\n      mstore\n        /* \"#utility.yul\":19490:19494   */\n      0x24\n        /* \"#utility.yul\":19487:19488   */\n      0x00\n        /* \"#utility.yul\":19480:19495   */\n      revert\n        /* \"#utility.yul\":19507:19701   */\n    tag_156:\n        /* \"#utility.yul\":19547:19551   */\n      0x00\n        /* \"#utility.yul\":19567:19587   */\n      tag_419\n        /* \"#utility.yul\":19585:19586   */\n      dup3\n        /* \"#utility.yul\":19567:19587   */\n      tag_218\n      jump\t// in\n    tag_419:\n        /* \"#utility.yul\":19562:19587   */\n      swap2\n      pop\n        /* \"#utility.yul\":19601:19621   */\n      tag_420\n        /* \"#utility.yul\":19619:19620   */\n      dup4\n        /* \"#utility.yul\":19601:19621   */\n      tag_218\n      jump\t// in\n    tag_420:\n        /* \"#utility.yul\":19596:19621   */\n      swap3\n      pop\n        /* \"#utility.yul\":19645:19646   */\n      dup3\n        /* \"#utility.yul\":19642:19643   */\n      dup3\n        /* \"#utility.yul\":19638:19647   */\n      sub\n        /* \"#utility.yul\":19630:19647   */\n      swap1\n      pop\n        /* \"#utility.yul\":19669:19670   */\n      dup2\n        /* \"#utility.yul\":19663:19667   */\n      dup2\n        /* \"#utility.yul\":19660:19671   */\n      gt\n        /* \"#utility.yul\":19657:19694   */\n      iszero\n      tag_421\n      jumpi\n        /* \"#utility.yul\":19674:19692   */\n      tag_422\n      tag_247\n      jump\t// in\n    tag_422:\n        /* \"#utility.yul\":19657:19694   */\n    tag_421:\n        /* \"#utility.yul\":19507:19701   */\n      swap3\n      swap2\n      pop\n      pop\n      jump\t// out\n        /* \"#utility.yul\":19707:19887   */\n    tag_159:\n        /* \"#utility.yul\":19755:19832   */\n      0x4e487b7100000000000000000000000000000000000000000000000000000000\n        /* \"#utility.yul\":19752:19753   */\n      0x00\n        /* \"#utility.yul\":19745:19833   */\n      mstore\n        /* \"#utility.yul\":19852:19856   */\n      0x32\n        /* \"#utility.yul\":19849:19850   */\n      0x04\n        /* \"#utility.yul\":19842:19857   */\n      mstore\n        /* \"#utility.yul\":19876:19880   */\n      0x24\n        /* \"#utility.yul\":19873:19874   */\n      0x00\n        /* \"#utility.yul\":19866:19881   */\n      revert\n        /* \"#utility.yul\":19893:20126   */\n    tag_161:\n        /* \"#utility.yul\":19932:19935   */\n      0x00\n        /* \"#utility.yul\":19955:19979   */\n      tag_425\n        /* \"#utility.yul\":19973:19978   */\n      dup3\n        /* \"#utility.yul\":19955:19979   */\n      tag_218\n      jump\t// in\n    tag_425:\n        /* \"#utility.yul\":19946:19979   */\n      swap2\n      pop\n        /* \"#utility.yul\":20001:20067   */\n      0xffffffffffffffffffffffffffffffffffffffffffffffffffffffffffffffff\n        /* \"#utility.yul\":19994:19999   */\n      dup3\n        /* \"#utility.yul\":19991:20068   */\n      sub\n        /* \"#utility.yul\":19988:20091   */\n      tag_426\n      jumpi\n        /* \"#utility.yul\":20071:20089   */\n      tag_427\n      tag_247\n      jump\t// in\n    tag_427:\n        /* \"#utility.yul\":19988:20091   */\n    tag_426:\n        /* \"#utility.yul\":20118:20119   */\n      0x01\n        /* \"#utility.yul\":20111:20116   */\n      dup3\n        /* \"#utility.yul\":20107:20120   */\n      add\n        /* \"#utility.yul\":20100:20120   */\n      swap1\n      pop\n        /* \"#utility.yul\":19893:20126   */\n      swap2\n      swap1\n      pop\n      jump\t// out\n        /* \"#utility.yul\":20132:20273   */\n    tag_248:\n        /* \"#utility.yul\":20181:20185   */\n      0x00\n        /* \"#utility.yul\":20204:20207   */\n      dup2\n        /* \"#utility.yul\":20196:20207   */\n      swap1\n      pop\n        /* \"#utility.yul\":20227:20230   */\n      dup2\n        /* \"#utility.yul\":20224:20225   */\n      0x00\n        /* \"#utility.yul\":20217:20231   */\n      mstore\n        /* \"#utility.yul\":20261:20265   */\n      0x20\n        /* \"#utility.yul\":20258:20259   */\n      0x00\n        /* \"#utility.yul\":20248:20266   */\n      keccak256\n        /* \"#utility.yul\":20240:20266   */\n      swap1\n      pop\n        /* \"#utility.yul\":20132:20273   */\n      swap2\n      swap1\n      pop\n      jump\t// out\n        /* \"#utility.yul\":20279:20372   */\n    tag_249:\n        /* \"#utility.yul\":20316:20322   */\n      0x00\n        /* \"#utility.yul\":20363:20365   */\n      0x20\n        /* \"#utility.yul\":20358:20360   */\n      0x1f\n        /* \"#utility.yul\":20351:20356   */\n      dup4\n        /* \"#utility.yul\":20347:20361   */\n      add\n        /* \"#utility.yul\":20343:20366   */\n      div\n        /* \"#utility.yul\":20333:20366   */\n      swap1\n      pop\n        /* \"#utility.yul\":20279:20372   */\n      swap2\n      swap1\n      pop\n      jump\t// out\n        /* \"#utility.yul\":20378:20485   */\n    tag_250:\n        /* \"#utility.yul\":20422:20430   */\n      0x00\n        /* \"#utility.yul\":20472:20477   */\n      dup3\n        /* \"#utility.yul\":20466:20470   */\n      dup3\n        /* \"#utility.yul\":20462:20478   */\n      shl\n        /* \"#utility.yul\":20441:20478   */\n      swap1\n      pop\n        /* \"#utility.yul\":20378:20485   */\n      swap3\n      swap2\n      pop\n      pop\n      jump\t// out\n        /* \"#utility.yul\":20491:20884   */\n    tag_251:\n        /* \"#utility.yul\":20560:20566   */\n      0x00\n        /* \"#utility.yul\":20610:20611   */\n      0x08\n        /* \"#utility.yul\":20598:20608   */\n      dup4\n        /* \"#utility.yul\":20594:20612   */\n      mul\n        /* \"#utility.yul\":20633:20730   */\n      tag_432\n        /* \"#utility.yul\":20663:20729   */\n      0xffffffffffffffffffffffffffffffffffffffffffffffffffffffffffffffff\n        /* \"#utility.yul\":20652:20661   */\n      dup3\n        /* \"#utility.yul\":20633:20730   */\n      tag_250\n      jump\t// in\n    tag_432:\n        /* \"#utility.yul\":20751:20790   */\n      tag_433\n        /* \"#utility.yul\":20781:20789   */\n      dup7\n        /* \"#utility.yul\":20770:20779   */\n      dup4\n        /* \"#utility.yul\":20751:20790   */\n      tag_250\n      jump\t// in\n    tag_433:\n        /* \"#utility.yul\":20739:20790   */\n      swap6\n      pop\n        /* \"#utility.yul\":20823:20827   */\n      dup1\n        /* \"#utility.yul\":20819:20828   */\n      not\n        /* \"#utility.yul\":20812:20817   */\n      dup5\n        /* \"#utility.yul\":20808:20829   */\n      and\n        /* \"#utility.yul\":20799:20829   */\n      swap4\n      pop\n        /* \"#utility.yul\":20872:20876   */\n      dup1\n        /* \"#utility.yul\":20862:20870   */\n      dup7\n        /* \"#utility.yul\":20858:20877   */\n      and\n        /* \"#utility.yul\":20851:20856   */\n      dup5\n        /* \"#utility.yul\":20848:20878   */\n      or\n        /* \"#utility.yul\":20838:20878   */\n      swap3\n      pop\n        /* \"#utility.yul\":20567:20884   */\n      pop\n      pop\n        /* \"#utility.yul\":20491:20884   */\n      swap4\n      swap3\n      pop\n      pop\n      pop\n      jump\t// out\n        /* \"#utility.yul\":20890:20950   */\n    tag_252:\n        /* \"#utility.yul\":20918:20921   */\n      0x00\n        /* \"#utility.yul\":20939:20944   */\n      dup2\n        /* \"#utility.yul\":20932:20944   */\n      swap1\n      pop\n        /* \"#utility.yul\":20890:20950   */\n      swap2\n      swap1\n      pop\n      jump\t// out\n        /* \"#utility.yul\":20956:21098   */\n    tag_253:\n        /* \"#utility.yul\":21006:21015   */\n      0x00\n        /* \"#utility.yul\":21039:21092   */\n      tag_436\n        /* \"#utility.yul\":21057:21091   */\n      tag_437\n        /* \"#utility.yul\":21066:21090   */\n      tag_438\n        /* \"#utility.yul\":21084:21089   */\n      dup5\n        /* \"#utility.yul\":21066:21090   */\n      tag_218\n      jump\t// in\n    tag_438:\n        /* \"#utility.yul\":21057:21091   */\n      tag_252\n      jump\t// in\n    tag_437:\n        /* \"#utility.yul\":21039:21092   */\n      tag_218\n      jump\t// in\n    tag_436:\n        /* \"#utility.yul\":21026:21092   */\n      swap1\n      pop\n        /* \"#utility.yul\":20956:21098   */\n      swap2\n      swap1\n      pop\n      jump\t// out\n        /* \"#utility.yul\":21104:21179   */\n    tag_254:\n        /* \"#utility.yul\":21147:21150   */\n      0x00\n        /* \"#utility.yul\":21168:21173   */\n      dup2\n        /* \"#utility.yul\":21161:21173   */\n      swap1\n      pop\n        /* \"#utility.yul\":21104:21179   */\n      swap2\n      swap1\n      pop\n      jump\t// out\n        /* \"#utility.yul\":21185:21454   */\n    tag_255:\n        /* \"#utility.yul\":21295:21334   */\n      tag_441\n        /* \"#utility.yul\":21326:21333   */\n      dup4\n        /* \"#utility.yul\":21295:21334   */\n      tag_253\n      jump\t// in\n    tag_441:\n        /* \"#utility.yul\":21356:21447   */\n      tag_442\n        /* \"#utility.yul\":21405:21446   */\n      tag_443\n        /* \"#utility.yul\":21429:21445   */\n      dup3\n        /* \"#utility.yul\":21405:21446   */\n      tag_254\n      jump\t// in\n    tag_443:\n        /* \"#utility.yul\":21397:21403   */\n      dup5\n        /* \"#utility.yul\":21390:21394   */\n      dup5\n        /* \"#utility.yul\":21384:21395   */\n      sload\n        /* \"#utility.yul\":21356:21447   */\n      tag_251\n      jump\t// in\n    tag_442:\n        /* \"#utility.yul\":21350:21354   */\n      dup3\n        /* \"#utility.yul\":21343:21448   */\n      sstore\n        /* \"#utility.yul\":21261:21454   */\n      pop\n        /* \"#utility.yul\":21185:21454   */\n      pop\n      pop\n      pop\n      jump\t// out\n        /* \"#utility.yul\":21460:21533   */\n    tag_256:\n        /* \"#utility.yul\":21505:21508   */\n      0x00\n        /* \"#utility.yul\":21460:21533   */\n      swap1\n      jump\t// out\n        /* \"#utility.yul\":21539:21728   */\n    tag_257:\n        /* \"#utility.yul\":21616:21648   */\n      tag_446\n      tag_256\n      jump\t// in\n    tag_446:\n        /* \"#utility.yul\":21657:21722   */\n      tag_447\n        /* \"#utility.yul\":21715:21721   */\n      dup2\n        /* \"#utility.yul\":21707:21713   */\n      dup5\n        /* \"#utility.yul\":21701:21705   */\n      dup5\n        /* \"#utility.yul\":21657:21722   */\n      tag_255\n      jump\t// in\n    tag_447:\n        /* \"#utility.yul\":21592:21728   */\n      pop\n        /* \"#utility.yul\":21539:21728   */\n      pop\n      pop\n      jump\t// out\n        /* \"#utility.yul\":21734:21920   */\n    tag_258:\n        /* \"#utility.yul\":21794:21914   */\n    tag_449:\n        /* \"#utility.yul\":21811:21814   */\n      dup2\n        /* \"#utility.yul\":21804:21809   */\n      dup2\n        /* \"#utility.yul\":21801:21815   */\n      lt\n        /* \"#utility.yul\":21794:21914   */\n      iszero\n      tag_451\n      jumpi\n        /* \"#utility.yul\":21865:21904   */\n      tag_452\n        /* \"#utility.yul\":21902:21903   */\n      0x00\n        /* \"#utility.yul\":21895:21900   */\n      dup3\n        /* \"#utility.yul\":21865:21904   */\n      tag_257\n      jump\t// in\n    tag_452:\n        /* \"#utility.yul\":21838:21839   */\n      0x01\n        /* \"#utility.yul\":21831:21836   */\n      dup2\n        /* \"#utility.yul\":21827:21840   */\n      add\n        /* \"#utility.yul\":21818:21840   */\n      swap1\n      pop\n        /* \"#utility.yul\":21794:21914   */\n      jump(tag_449)\n    tag_451:\n        /* \"#utility.yul\":21734:21920   */\n      pop\n      pop\n      jump\t// out\n        /* \"#utility.yul\":21926:22469   */\n    tag_259:\n        /* \"#utility.yul\":22027:22029   */\n      0x1f\n        /* \"#utility.yul\":22022:22025   */\n      dup3\n        /* \"#utility.yul\":22019:22030   */\n      gt\n        /* \"#utility.yul\":22016:22462   */\n      iszero\n      tag_454\n      jumpi\n        /* \"#utility.yul\":22061:22099   */\n      tag_455\n        /* \"#utility.yul\":22093:22098   */\n      dup2\n        /* \"#utility.yul\":22061:22099   */\n      tag_248\n      jump\t// in\n    tag_455:\n        /* \"#utility.yul\":22145:22174   */\n      tag_456\n        /* \"#utility.yul\":22163:22173   */\n      dup5\n        /* \"#utility.yul\":22145:22174   */\n      tag_249\n      jump\t// in\n    tag_456:\n        /* \"#utility.yul\":22135:22143   */\n      dup2\n        /* \"#utility.yul\":22131:22175   */\n      add\n        /* \"#utility.yul\":22328:22330   */\n      0x20\n        /* \"#utility.yul\":22316:22326   */\n      dup6\n        /* \"#utility.yul\":22313:22331   */\n      lt\n        /* \"#utility.yul\":22310:22359   */\n      iszero\n      tag_457\n      jumpi\n        /* \"#utility.yul\":22349:22357   */\n      dup2\n        /* \"#utility.yul\":22334:22357   */\n      swap1\n      pop\n        /* \"#utility.yul\":22310:22359   */\n    tag_457:\n        /* \"#utility.yul\":22372:22452   */\n      tag_458\n        /* \"#utility.yul\":22428:22450   */\n      tag_459\n        /* \"#utility.yul\":22446:22449   */\n      dup6\n        /* \"#utility.yul\":22428:22450   */\n      tag_249\n      jump\t// in\n    tag_459:\n        /* \"#utility.yul\":22418:22426   */\n      dup4\n        /* \"#utility.yul\":22414:22451   */\n      add\n        /* \"#utility.yul\":22401:22412   */\n      dup3\n        /* \"#utility.yul\":22372:22452   */\n      tag_258\n      jump\t// in\n    tag_458:\n        /* \"#utility.yul\":22031:22462   */\n      pop\n      pop\n        /* \"#utility.yul\":22016:22462   */\n    tag_454:\n        /* \"#utility.yul\":21926:22469   */\n      pop\n      pop\n      pop\n      jump\t// out\n        /* \"#utility.yul\":22475:22592   */\n    tag_260:\n        /* \"#utility.yul\":22529:22537   */\n      0x00\n        /* \"#utility.yul\":22579:22584   */\n      dup3\n        /* \"#utility.yul\":22573:22577   */\n      dup3\n        /* \"#utility.yul\":22569:22585   */\n      shr\n        /* \"#utility.yul\":22548:22585   */\n      swap1\n      pop\n        /* \"#utility.yul\":22475:22592   */\n      swap3\n      swap2\n      pop\n      pop\n      jump\t// out\n        /* \"#utility.yul\":22598:22767   */\n    tag_261:\n        /* \"#utility.yul\":22642:22648   */\n      0x00\n        /* \"#utility.yul\":22675:22726   */\n      tag_462\n        /* \"#utility.yul\":22723:22724   */\n      0x00\n        /* \"#utility.yul\":22719:22725   */\n      not\n        /* \"#utility.yul\":22711:22716   */\n      dup5\n        /* \"#utility.yul\":22708:22709   */\n      0x08\n        /* \"#utility.yul\":22704:22717   */\n      mul\n        /* \"#utility.yul\":22675:22726   */\n      tag_260\n      jump\t// in\n    tag_462:\n        /* \"#utility.yul\":22671:22727   */\n      not\n        /* \"#utility.yul\":22756:22760   */\n      dup1\n        /* \"#utility.yul\":22750:22754   */\n      dup4\n        /* \"#utility.yul\":22746:22761   */\n      and\n        /* \"#utility.yul\":22736:22761   */\n      swap2\n      pop\n        /* \"#utility.yul\":22649:22767   */\n      pop\n        /* \"#utility.yul\":22598:22767   */\n      swap3\n      swap2\n      pop\n      pop\n      jump\t// out\n        /* \"#utility.yul\":22772:23067   */\n    tag_262:\n        /* \"#utility.yul\":22848:22852   */\n      0x00\n        /* \"#utility.yul\":22994:23023   */\n      tag_464\n        /* \"#utility.yul\":23019:23022   */\n      dup4\n        /* \"#utility.yul\":23013:23017   */\n      dup4\n        /* \"#utility.yul\":22994:23023   */\n      tag_261\n      jump\t// in\n    tag_464:\n        /* \"#utility.yul\":22986:23023   */\n      swap2\n      pop\n        /* \"#utility.yul\":23056:23059   */\n      dup3\n        /* \"#utility.yul\":23053:23054   */\n      0x02\n        /* \"#utility.yul\":23049:23060   */\n      mul\n        /* \"#utility.yul\":23043:23047   */\n      dup3\n        /* \"#utility.yul\":23040:23061   */\n      or\n        /* \"#utility.yul\":23032:23061   */\n      swap1\n      pop\n        /* \"#utility.yul\":22772:23067   */\n      swap3\n      swap2\n      pop\n      pop\n      jump\t// out\n        /* \"#utility.yul\":23072:24467   */\n    tag_199:\n        /* \"#utility.yul\":23189:23226   */\n      tag_466\n        /* \"#utility.yul\":23222:23225   */\n      dup3\n        /* \"#utility.yul\":23189:23226   */\n      tag_222\n      jump\t// in\n    tag_466:\n        /* \"#utility.yul\":23291:23309   */\n      0xffffffffffffffff\n        /* \"#utility.yul\":23283:23289   */\n      dup2\n        /* \"#utility.yul\":23280:23310   */\n      gt\n        /* \"#utility.yul\":23277:23333   */\n      iszero\n      tag_467\n      jumpi\n        /* \"#utility.yul\":23313:23331   */\n      tag_468\n      tag_113\n      jump\t// in\n    tag_468:\n        /* \"#utility.yul\":23277:23333   */\n    tag_467:\n        /* \"#utility.yul\":23357:23395   */\n      tag_469\n        /* \"#utility.yul\":23389:23393   */\n      dup3\n        /* \"#utility.yul\":23383:23394   */\n      sload\n        /* \"#utility.yul\":23357:23395   */\n      tag_40\n      jump\t// in\n    tag_469:\n        /* \"#utility.yul\":23442:23509   */\n      tag_470\n        /* \"#utility.yul\":23502:23508   */\n      dup3\n        /* \"#utility.yul\":23494:23500   */\n      dup3\n        /* \"#utility.yul\":23488:23492   */\n      dup6\n        /* \"#utility.yul\":23442:23509   */\n      tag_259\n      jump\t// in\n    tag_470:\n        /* \"#utility.yul\":23536:23537   */\n      0x00\n        /* \"#utility.yul\":23560:23564   */\n      0x20\n        /* \"#utility.yul\":23547:23564   */\n      swap1\n      pop\n        /* \"#utility.yul\":23592:23594   */\n      0x1f\n        /* \"#utility.yul\":23584:23590   */\n      dup4\n        /* \"#utility.yul\":23581:23595   */\n      gt\n        /* \"#utility.yul\":23609:23610   */\n      0x01\n        /* \"#utility.yul\":23604:24222   */\n      dup2\n      eq\n      tag_472\n      jumpi\n        /* \"#utility.yul\":24266:24267   */\n      0x00\n        /* \"#utility.yul\":24283:24289   */\n      dup5\n        /* \"#utility.yul\":24280:24357   */\n      iszero\n      tag_473\n      jumpi\n        /* \"#utility.yul\":24332:24341   */\n      dup3\n        /* \"#utility.yul\":24327:24330   */\n      dup8\n        /* \"#utility.yul\":24323:24342   */\n      add\n        /* \"#utility.yul\":24317:24343   */\n      mload\n        /* \"#utility.yul\":24308:24343   */\n      swap1\n      pop\n        /* \"#utility.yul\":24280:24357   */\n    tag_473:\n        /* \"#utility.yul\":24383:24450   */\n      tag_474\n        /* \"#utility.yul\":24443:24449   */\n      dup6\n        /* \"#utility.yul\":24436:24441   */\n      dup3\n        /* \"#utility.yul\":24383:24450   */\n      tag_262\n      jump\t// in\n    tag_474:\n        /* \"#utility.yul\":24377:24381   */\n      dup7\n        /* \"#utility.yul\":24370:24451   */\n      sstore\n        /* \"#utility.yul\":24239:24461   */\n      pop\n        /* \"#utility.yul\":23574:24461   */\n      jump(tag_471)\n        /* \"#utility.yul\":23604:24222   */\n    tag_472:\n        /* \"#utility.yul\":23656:23660   */\n      0x1f\n        /* \"#utility.yul\":23652:23661   */\n      not\n        /* \"#utility.yul\":23644:23650   */\n      dup5\n        /* \"#utility.yul\":23640:23662   */\n      and\n        /* \"#utility.yul\":23690:23727   */\n      tag_475\n        /* \"#utility.yul\":23722:23726   */\n      dup7\n        /* \"#utility.yul\":23690:23727   */\n      tag_248\n      jump\t// in\n    tag_475:\n        /* \"#utility.yul\":23749:23750   */\n      0x00\n        /* \"#utility.yul\":23763:23971   */\n    tag_476:\n        /* \"#utility.yul\":23777:23784   */\n      dup3\n        /* \"#utility.yul\":23774:23775   */\n      dup2\n        /* \"#utility.yul\":23771:23785   */\n      lt\n        /* \"#utility.yul\":23763:23971   */\n      iszero\n      tag_478\n      jumpi\n        /* \"#utility.yul\":23856:23865   */\n      dup5\n        /* \"#utility.yul\":23851:23854   */\n      dup10\n        /* \"#utility.yul\":23847:23866   */\n      add\n        /* \"#utility.yul\":23841:23867   */\n      mload\n        /* \"#utility.yul\":23833:23839   */\n      dup3\n        /* \"#utility.yul\":23826:23868   */\n      sstore\n        /* \"#utility.yul\":23907:23908   */\n      0x01\n        /* \"#utility.yul\":23899:23905   */\n      dup3\n        /* \"#utility.yul\":23895:23909   */\n      add\n        /* \"#utility.yul\":23885:23909   */\n      swap2\n      pop\n        /* \"#utility.yul\":23954:23956   */\n      0x20\n        /* \"#utility.yul\":23943:23952   */\n      dup6\n        /* \"#utility.yul\":23939:23957   */\n      add\n        /* \"#utility.yul\":23926:23957   */\n      swap5\n      pop\n        /* \"#utility.yul\":23800:23804   */\n      0x20\n        /* \"#utility.yul\":23797:23798   */\n      dup2\n        /* \"#utility.yul\":23793:23805   */\n      add\n        /* \"#utility.yul\":23788:23805   */\n      swap1\n      pop\n        /* \"#utility.yul\":23763:23971   */\n      jump(tag_476)\n    tag_478:\n        /* \"#utility.yul\":23999:24005   */\n      dup7\n        /* \"#utility.yul\":23990:23997   */\n      dup4\n        /* \"#utility.yul\":23987:24006   */\n      lt\n        /* \"#utility.yul\":23984:24163   */\n      iszero\n      tag_479\n      jumpi\n        /* \"#utility.yul\":24057:24066   */\n      dup5\n        /* \"#utility.yul\":24052:24055   */\n      dup10\n        /* \"#utility.yul\":24048:24067   */\n      add\n        /* \"#utility.yul\":24042:24068   */\n      mload\n        /* \"#utility.yul\":24100:24148   */\n      tag_480\n        /* \"#utility.yul\":24142:24146   */\n      0x1f\n        /* \"#utility.yul\":24134:24140   */\n      dup10\n        /* \"#utility.yul\":24130:24147   */\n      and\n        /* \"#utility.yul\":24119:24128   */\n      dup3\n        /* \"#utility.yul\":24100:24148   */\n      tag_261\n      jump\t// in\n    tag_480:\n        /* \"#utility.yul\":24092:24098   */\n      dup4\n        /* \"#utility.yul\":24085:24149   */\n      sstore\n        /* \"#utility.yul\":24007:24163   */\n      pop\n        /* \"#utility.yul\":23984:24163   */\n    tag_479:\n        /* \"#utility.yul\":24209:24210   */\n      0x01\n        /* \"#utility.yul\":24205:24206   */\n      0x02\n        /* \"#utility.yul\":24197:24203   */\n      dup9\n        /* \"#utility.yul\":24193:24207   */\n      mul\n        /* \"#utility.yul\":24189:24211   */\n      add\n        /* \"#utility.yul\":24183:24187   */\n      dup9\n        /* \"#utility.yul\":24176:24212   */\n      sstore\n        /* \"#utility.yul\":23611:24222   */\n      pop\n      pop\n      pop\n        /* \"#utility.yul\":23574:24461   */\n    tag_471:\n      pop\n        /* \"#utility.yul\":23164:24467   */\n      pop\n      pop\n      pop\n        /* \"#utility.yul\":23072:24467   */\n      pop\n      pop\n      jump\t// out\n\n    auxdata: 0xa26469706673582212204c493f5728de287ddb612e6af485ec9fcca3442dd5d0d7d3a9cb7f2f0f005ad664736f6c63430008100033\n}\n",
				"bytecode": {
					"linkReferences": {},
					"object": "608060405234801561001057600080fd5b50612217806100206000396000f3fe608060405234801561001057600080fd5b50600436106100625760003560e01c806333ea3dc8146100675780639ace38c214610097578063add6415d146100d0578063b77bf600146100ee578063ce8481fd1461010c578063eb559a1e14610128575b600080fd5b610081600480360381019061007c91906115dc565b610144565b60405161008e91906117ac565b60405180910390f35b6100b160048036038101906100ac91906115dc565b61058d565b6040516100c79a99989796959493929190611827565b60405180910390f35b6100d8610999565b6040516100e59190611aba565b60405180910390f35b6100f6610e84565b6040516101039190611adc565b60405180910390f35b61012660048036038101906101219190611c2c565b610e8a565b005b610142600480360381019061013d9190611c9b565b611403565b005b61014c61153f565b600080838152602001908152602001600020604051806101400160405290816000820154815260200160018201805461018490611e58565b80601f01602080910402602001604051908101604052809291908181526020018280546101b090611e58565b80156101fd5780601f106101d2576101008083540402835291602001916101fd565b820191906000526020600020905b8154815290600101906020018083116101e057829003601f168201915b5050505050815260200160028201805461021690611e58565b80601f016020809104026020016040519081016040528092919081815260200182805461024290611e58565b801561028f5780601f106102645761010080835404028352916020019161028f565b820191906000526020600020905b81548152906001019060200180831161027257829003601f168201915b505050505081526020016003820180546102a890611e58565b80601f01602080910402602001604051908101604052809291908181526020018280546102d490611e58565b80156103215780601f106102f657610100808354040283529160200191610321565b820191906000526020600020905b81548152906001019060200180831161030457829003601f168201915b5050505050815260200160048201805461033a90611e58565b80601f016020809104026020016040519081016040528092919081815260200182805461036690611e58565b80156103b35780601f10610388576101008083540402835291602001916103b3565b820191906000526020600020905b81548152906001019060200180831161039657829003601f168201915b505050505081526020016005820180546103cc90611e58565b80601f01602080910402602001604051908101604052809291908181526020018280546103f890611e58565b80156104455780601f1061041a57610100808354040283529160200191610445565b820191906000526020600020905b81548152906001019060200180831161042857829003601f168201915b505050505081526020016006820154815260200160078201805461046890611e58565b80601f016020809104026020016040519081016040528092919081815260200182805461049490611e58565b80156104e15780601f106104b6576101008083540402835291602001916104e1565b820191906000526020600020905b8154815290600101906020018083116104c457829003601f168201915b505050505081526020016008820180546104fa90611e58565b80601f016020809104026020016040519081016040528092919081815260200182805461052690611e58565b80156105735780601f1061054857610100808354040283529160200191610573565b820191906000526020600020905b81548152906001019060200180831161055657829003601f168201915b505050505081526020016009820154815250509050919050565b60006020528060005260406000206000915090508060000154908060010180546105b690611e58565b80601f01602080910402602001604051908101604052809291908181526020018280546105e290611e58565b801561062f5780601f106106045761010080835404028352916020019161062f565b820191906000526020600020905b81548152906001019060200180831161061257829003601f168201915b50505050509080600201805461064490611e58565b80601f016020809104026020016040519081016040528092919081815260200182805461067090611e58565b80156106bd5780601f10610692576101008083540402835291602001916106bd565b820191906000526020600020905b8154815290600101906020018083116106a057829003601f168201915b5050505050908060030180546106d290611e58565b80601f01602080910402602001604051908101604052809291908181526020018280546106fe90611e58565b801561074b5780601f106107205761010080835404028352916020019161074b565b820191906000526020600020905b81548152906001019060200180831161072e57829003601f168201915b50505050509080600401805461076090611e58565b80601f016020809104026020016040519081016040528092919081815260200182805461078c90611e58565b80156107d95780601f106107ae576101008083540402835291602001916107d9565b820191906000526020600020905b8154815290600101906020018083116107bc57829003601f168201915b5050505050908060050180546107ee90611e58565b80601f016020809104026020016040519081016040528092919081815260200182805461081a90611e58565b80156108675780601f1061083c57610100808354040283529160200191610867565b820191906000526020600020905b81548152906001019060200180831161084a57829003601f168201915b50505050509080600601549080600701805461088290611e58565b80601f01602080910402602001604051908101604052809291908181526020018280546108ae90611e58565b80156108fb5780601f106108d0576101008083540402835291602001916108fb565b820191906000526020600020905b8154815290600101906020018083116108de57829003601f168201915b50505050509080600801805461091090611e58565b80601f016020809104026020016040519081016040528092919081815260200182805461093c90611e58565b80156109895780601f1061095e57610100808354040283529160200191610989565b820191906000526020600020905b81548152906001019060200180831161096c57829003601f168201915b505050505090806009015490508a565b6060600060015467ffffffffffffffff8111156109b9576109b8611b01565b5b6040519080825280602002602001820160405280156109f257816020015b6109df61153f565b8152602001906001900390816109d75790505b5090506000600190505b6001548111610e7c576000808281526020019081526020016000206040518061014001604052908160008201548152602001600182018054610a3d90611e58565b80601f0160208091040260200160405190810160405280929190818152602001828054610a6990611e58565b8015610ab65780601f10610a8b57610100808354040283529160200191610ab6565b820191906000526020600020905b815481529060010190602001808311610a9957829003601f168201915b50505050508152602001600282018054610acf90611e58565b80601f0160208091040260200160405190810160405280929190818152602001828054610afb90611e58565b8015610b485780601f10610b1d57610100808354040283529160200191610b48565b820191906000526020600020905b815481529060010190602001808311610b2b57829003601f168201915b50505050508152602001600382018054610b6190611e58565b80601f0160208091040260200160405190810160405280929190818152602001828054610b8d90611e58565b8015610bda5780601f10610baf57610100808354040283529160200191610bda565b820191906000526020600020905b815481529060010190602001808311610bbd57829003601f168201915b50505050508152602001600482018054610bf390611e58565b80601f0160208091040260200160405190810160405280929190818152602001828054610c1f90611e58565b8015610c6c5780601f10610c4157610100808354040283529160200191610c6c565b820191906000526020600020905b815481529060010190602001808311610c4f57829003601f168201915b50505050508152602001600582018054610c8590611e58565b80601f0160208091040260200160405190810160405280929190818152602001828054610cb190611e58565b8015610cfe5780601f10610cd357610100808354040283529160200191610cfe565b820191906000526020600020905b815481529060010190602001808311610ce157829003601f168201915b5050505050815260200160068201548152602001600782018054610d2190611e58565b80601f0160208091040260200160405190810160405280929190818152602001828054610d4d90611e58565b8015610d9a5780601f10610d6f57610100808354040283529160200191610d9a565b820191906000526020600020905b815481529060010190602001808311610d7d57829003601f168201915b50505050508152602001600882018054610db390611e58565b80601f0160208091040260200160405190810160405280929190818152602001828054610ddf90611e58565b8015610e2c5780601f10610e0157610100808354040283529160200191610e2c565b820191906000526020600020905b815481529060010190602001808311610e0f57829003601f168201915b5050505050815260200160098201548152505082600183610e4d9190611eb8565b81518110610e5e57610e5d611eec565b5b60200260200101819052508080610e7490611f1b565b9150506109fc565b508091505090565b60015481565b60008060008581526020019081526020016000206040518061014001604052908160008201548152602001600182018054610ec490611e58565b80601f0160208091040260200160405190810160405280929190818152602001828054610ef090611e58565b8015610f3d5780601f10610f1257610100808354040283529160200191610f3d565b820191906000526020600020905b815481529060010190602001808311610f2057829003601f168201915b50505050508152602001600282018054610f5690611e58565b80601f0160208091040260200160405190810160405280929190818152602001828054610f8290611e58565b8015610fcf5780601f10610fa457610100808354040283529160200191610fcf565b820191906000526020600020905b815481529060010190602001808311610fb257829003601f168201915b50505050508152602001600382018054610fe890611e58565b80601f016020809104026020016040519081016040528092919081815260200182805461101490611e58565b80156110615780601f1061103657610100808354040283529160200191611061565b820191906000526020600020905b81548152906001019060200180831161104457829003601f168201915b5050505050815260200160048201805461107a90611e58565b80601f01602080910402602001604051908101604052809291908181526020018280546110a690611e58565b80156110f35780601f106110c8576101008083540402835291602001916110f3565b820191906000526020600020905b8154815290600101906020018083116110d657829003601f168201915b5050505050815260200160058201805461110c90611e58565b80601f016020809104026020016040519081016040528092919081815260200182805461113890611e58565b80156111855780601f1061115a57610100808354040283529160200191611185565b820191906000526020600020905b81548152906001019060200180831161116857829003601f168201915b50505050508152602001600682015481526020016007820180546111a890611e58565b80601f01602080910402602001604051908101604052809291908181526020018280546111d490611e58565b80156112215780601f106111f657610100808354040283529160200191611221565b820191906000526020600020905b81548152906001019060200180831161120457829003601f168201915b5050505050815260200160088201805461123a90611e58565b80601f016020809104026020016040519081016040528092919081815260200182805461126690611e58565b80156112b35780601f10611288576101008083540402835291602001916112b3565b820191906000526020600020905b81548152906001019060200180831161129657829003601f168201915b50505050508152602001600982015481525050905060405180610140016040528082600001518152602001826020015181526020018260400151815260200182606001518152602001826080015181526020018260a0015181526020018260c0015181526020018260e0015181526020018481526020018381525060008086815260200190815260200160002060008201518160000155602082015181600101908161135f919061210f565b506040820151816002019081611375919061210f565b50606082015181600301908161138b919061210f565b5060808201518160040190816113a1919061210f565b5060a08201518160050190816113b7919061210f565b5060c0820151816006015560e08201518160070190816113d7919061210f565b506101008201518160080190816113ee919061210f565b50610120820151816009015590505050505050565b6001600081548092919061141690611f1b565b919050555060405180610140016040528060015481526020018a8152602001898152602001888152602001878152602001868152602001858152602001848152602001838152602001828152506000806001548152602001908152602001600020600082015181600001556020820151816001019081611496919061210f565b5060408201518160020190816114ac919061210f565b5060608201518160030190816114c2919061210f565b5060808201518160040190816114d8919061210f565b5060a08201518160050190816114ee919061210f565b5060c0820151816006015560e082015181600701908161150e919061210f565b50610100820151816008019081611525919061210f565b506101208201518160090155905050505050505050505050565b604051806101400160405280600081526020016060815260200160608152602001606081526020016060815260200160608152602001600081526020016060815260200160608152602001600081525090565b6000604051905090565b600080fd5b600080fd5b6000819050919050565b6115b9816115a6565b81146115c457600080fd5b50565b6000813590506115d6816115b0565b92915050565b6000602082840312156115f2576115f161159c565b5b6000611600848285016115c7565b91505092915050565b611612816115a6565b82525050565b600081519050919050565b600082825260208201905092915050565b60005b83811015611652578082015181840152602081019050611637565b60008484015250505050565b6000601f19601f8301169050919050565b600061167a82611618565b6116848185611623565b9350611694818560208601611634565b61169d8161165e565b840191505092915050565b6000610140830160008301516116c16000860182611609565b50602083015184820360208601526116d9828261166f565b915050604083015184820360408601526116f3828261166f565b9150506060830151848203606086015261170d828261166f565b91505060808301518482036080860152611727828261166f565b91505060a083015184820360a0860152611741828261166f565b91505060c083015161175660c0860182611609565b5060e083015184820360e086015261176e828261166f565b91505061010083015184820361010086015261178a828261166f565b9150506101208301516117a1610120860182611609565b508091505092915050565b600060208201905081810360008301526117c681846116a8565b905092915050565b6117d7816115a6565b82525050565b600082825260208201905092915050565b60006117f982611618565b61180381856117dd565b9350611813818560208601611634565b61181c8161165e565b840191505092915050565b60006101408201905061183d600083018d6117ce565b818103602083015261184f818c6117ee565b90508181036040830152611863818b6117ee565b90508181036060830152611877818a6117ee565b9050818103608083015261188b81896117ee565b905081810360a083015261189f81886117ee565b90506118ae60c08301876117ce565b81810360e08301526118c081866117ee565b90508181036101008301526118d581856117ee565b90506118e56101208301846117ce565b9b9a5050505050505050505050565b600081519050919050565b600082825260208201905092915050565b6000819050602082019050919050565b6000610140830160008301516119396000860182611609565b5060208301518482036020860152611951828261166f565b9150506040830151848203604086015261196b828261166f565b91505060608301518482036060860152611985828261166f565b9150506080830151848203608086015261199f828261166f565b91505060a083015184820360a08601526119b9828261166f565b91505060c08301516119ce60c0860182611609565b5060e083015184820360e08601526119e6828261166f565b915050610100830151848203610100860152611a02828261166f565b915050610120830151611a19610120860182611609565b508091505092915050565b6000611a308383611920565b905092915050565b6000602082019050919050565b6000611a50826118f4565b611a5a81856118ff565b935083602082028501611a6c85611910565b8060005b85811015611aa85784840389528151611a898582611a24565b9450611a9483611a38565b925060208a01995050600181019050611a70565b50829750879550505050505092915050565b60006020820190508181036000830152611ad48184611a45565b905092915050565b6000602082019050611af160008301846117ce565b92915050565b600080fd5b600080fd5b7f4e487b7100000000000000000000000000000000000000000000000000000000600052604160045260246000fd5b611b398261165e565b810181811067ffffffffffffffff82111715611b5857611b57611b01565b5b80604052505050565b6000611b6b611592565b9050611b778282611b30565b919050565b600067ffffffffffffffff821115611b9757611b96611b01565b5b611ba08261165e565b9050602081019050919050565b82818337600083830152505050565b6000611bcf611bca84611b7c565b611b61565b905082815260208101848484011115611beb57611bea611afc565b5b611bf6848285611bad565b509392505050565b600082601f830112611c1357611c12611af7565b5b8135611c23848260208601611bbc565b91505092915050565b600080600060608486031215611c4557611c4461159c565b5b6000611c53868287016115c7565b935050602084013567ffffffffffffffff811115611c7457611c736115a1565b5b611c8086828701611bfe565b9250506040611c91868287016115c7565b9150509250925092565b60008060008060008060008060006101208a8c031215611cbe57611cbd61159c565b5b60008a013567ffffffffffffffff811115611cdc57611cdb6115a1565b5b611ce88c828d01611bfe565b99505060208a013567ffffffffffffffff811115611d0957611d086115a1565b5b611d158c828d01611bfe565b98505060408a013567ffffffffffffffff811115611d3657611d356115a1565b5b611d428c828d01611bfe565b97505060608a013567ffffffffffffffff811115611d6357611d626115a1565b5b611d6f8c828d01611bfe565b96505060808a013567ffffffffffffffff811115611d9057611d8f6115a1565b5b611d9c8c828d01611bfe565b95505060a0611dad8c828d016115c7565b94505060c08a013567ffffffffffffffff811115611dce57611dcd6115a1565b5b611dda8c828d01611bfe565b93505060e08a013567ffffffffffffffff811115611dfb57611dfa6115a1565b5b611e078c828d01611bfe565b925050610100611e198c828d016115c7565b9150509295985092959850929598565b7f4e487b7100000000000000000000000000000000000000000000000000000000600052602260045260246000fd5b60006002820490506001821680611e7057607f821691505b602082108103611e8357611e82611e29565b5b50919050565b7f4e487b7100000000000000000000000000000000000000000000000000000000600052601160045260246000fd5b6000611ec3826115a6565b9150611ece836115a6565b9250828203905081811115611ee657611ee5611e89565b5b92915050565b7f4e487b7100000000000000000000000000000000000000000000000000000000600052603260045260246000fd5b6000611f26826115a6565b91507fffffffffffffffffffffffffffffffffffffffffffffffffffffffffffffffff8203611f5857611f57611e89565b5b600182019050919050565b60008190508160005260206000209050919050565b60006020601f8301049050919050565b600082821b905092915050565b600060088302611fc57fffffffffffffffffffffffffffffffffffffffffffffffffffffffffffffffff82611f88565b611fcf8683611f88565b95508019841693508086168417925050509392505050565b6000819050919050565b600061200c612007612002846115a6565b611fe7565b6115a6565b9050919050565b6000819050919050565b61202683611ff1565b61203a61203282612013565b848454611f95565b825550505050565b600090565b61204f612042565b61205a81848461201d565b505050565b5b8181101561207e57612073600082612047565b600181019050612060565b5050565b601f8211156120c35761209481611f63565b61209d84611f78565b810160208510156120ac578190505b6120c06120b885611f78565b83018261205f565b50505b505050565b600082821c905092915050565b60006120e6600019846008026120c8565b1980831691505092915050565b60006120ff83836120d5565b9150826002028217905092915050565b61211882611618565b67ffffffffffffffff81111561213157612130611b01565b5b61213b8254611e58565b612146828285612082565b600060209050601f8311600181146121795760008415612167578287015190505b61217185826120f3565b8655506121d9565b601f19841661218786611f63565b60005b828110156121af5784890151825560018201915060208501945060208101905061218a565b868310156121cc57848901516121c8601f8916826120d5565b8355505b6001600288020188555050505b50505050505056fea26469706673582212204c493f5728de287ddb612e6af485ec9fcca3442dd5d0d7d3a9cb7f2f0f005ad664736f6c63430008100033",
					"opcodes": "PUSH1 0x80 PUSH1 0x40 MSTORE CALLVALUE DUP1 ISZERO PUSH2 0x10 JUMPI PUSH1 0x0 DUP1 REVERT JUMPDEST POP PUSH2 0x2217 DUP1 PUSH2 0x20 PUSH1 0x0 CODECOPY PUSH1 0x0 RETURN INVALID PUSH1 0x80 PUSH1 0x40 MSTORE CALLVALUE DUP1 ISZERO PUSH2 0x10 JUMPI PUSH1 0x0 DUP1 REVERT JUMPDEST POP PUSH1 0x4 CALLDATASIZE LT PUSH2 0x62 JUMPI PUSH1 0x0 CALLDATALOAD PUSH1 0xE0 SHR DUP1 PUSH4 0x33EA3DC8 EQ PUSH2 0x67 JUMPI DUP1 PUSH4 0x9ACE38C2 EQ PUSH2 0x97 JUMPI DUP1 PUSH4 0xADD6415D EQ PUSH2 0xD0 JUMPI DUP1 PUSH4 0xB77BF600 EQ PUSH2 0xEE JUMPI DUP1 PUSH4 0xCE8481FD EQ PUSH2 0x10C JUMPI DUP1 PUSH4 0xEB559A1E EQ PUSH2 0x128 JUMPI JUMPDEST PUSH1 0x0 DUP1 REVERT JUMPDEST PUSH2 0x81 PUSH1 0x4 DUP1 CALLDATASIZE SUB DUP2 ADD SWAP1 PUSH2 0x7C SWAP2 SWAP1 PUSH2 0x15DC JUMP JUMPDEST PUSH2 0x144 JUMP JUMPDEST PUSH1 0x40 MLOAD PUSH2 0x8E SWAP2 SWAP1 PUSH2 0x17AC JUMP JUMPDEST PUSH1 0x40 MLOAD DUP1 SWAP2 SUB SWAP1 RETURN JUMPDEST PUSH2 0xB1 PUSH1 0x4 DUP1 CALLDATASIZE SUB DUP2 ADD SWAP1 PUSH2 0xAC SWAP2 SWAP1 PUSH2 0x15DC JUMP JUMPDEST PUSH2 0x58D JUMP JUMPDEST PUSH1 0x40 MLOAD PUSH2 0xC7 SWAP11 SWAP10 SWAP9 SWAP8 SWAP7 SWAP6 SWAP5 SWAP4 SWAP3 SWAP2 SWAP1 PUSH2 0x1827 JUMP JUMPDEST PUSH1 0x40 MLOAD DUP1 SWAP2 SUB SWAP1 RETURN JUMPDEST PUSH2 0xD8 PUSH2 0x999 JUMP JUMPDEST PUSH1 0x40 MLOAD PUSH2 0xE5 SWAP2 SWAP1 PUSH2 0x1ABA JUMP JUMPDEST PUSH1 0x40 MLOAD DUP1 SWAP2 SUB SWAP1 RETURN JUMPDEST PUSH2 0xF6 PUSH2 0xE84 JUMP JUMPDEST PUSH1 0x40 MLOAD PUSH2 0x103 SWAP2 SWAP1 PUSH2 0x1ADC JUMP JUMPDEST PUSH1 0x40 MLOAD DUP1 SWAP2 SUB SWAP1 RETURN JUMPDEST PUSH2 0x126 PUSH1 0x4 DUP1 CALLDATASIZE SUB DUP2 ADD SWAP1 PUSH2 0x121 SWAP2 SWAP1 PUSH2 0x1C2C JUMP JUMPDEST PUSH2 0xE8A JUMP JUMPDEST STOP JUMPDEST PUSH2 0x142 PUSH1 0x4 DUP1 CALLDATASIZE SUB DUP2 ADD SWAP1 PUSH2 0x13D SWAP2 SWAP1 PUSH2 0x1C9B JUMP JUMPDEST PUSH2 0x1403 JUMP JUMPDEST STOP JUMPDEST PUSH2 0x14C PUSH2 0x153F JUMP JUMPDEST PUSH1 0x0 DUP1 DUP4 DUP2 MSTORE PUSH1 0x20 ADD SWAP1 DUP2 MSTORE PUSH1 0x20 ADD PUSH1 0x0 KECCAK256 PUSH1 0x40 MLOAD DUP1 PUSH2 0x140 ADD PUSH1 0x40 MSTORE SWAP1 DUP2 PUSH1 0x0 DUP3 ADD SLOAD DUP2 MSTORE PUSH1 0x20 ADD PUSH1 0x1 DUP3 ADD DUP1 SLOAD PUSH2 0x184 SWAP1 PUSH2 0x1E58 JUMP JUMPDEST DUP1 PUSH1 0x1F ADD PUSH1 0x20 DUP1 SWAP2 DIV MUL PUSH1 0x20 ADD PUSH1 0x40 MLOAD SWAP1 DUP2 ADD PUSH1 0x40 MSTORE DUP1 SWAP3 SWAP2 SWAP1 DUP2 DUP2 MSTORE PUSH1 0x20 ADD DUP3 DUP1 SLOAD PUSH2 0x1B0 SWAP1 PUSH2 0x1E58 JUMP JUMPDEST DUP1 ISZERO PUSH2 0x1FD JUMPI DUP1 PUSH1 0x1F LT PUSH2 0x1D2 JUMPI PUSH2 0x100 DUP1 DUP4 SLOAD DIV MUL DUP4 MSTORE SWAP2 PUSH1 0x20 ADD SWAP2 PUSH2 0x1FD JUMP JUMPDEST DUP3 ADD SWAP2 SWAP1 PUSH1 0x0 MSTORE PUSH1 0x20 PUSH1 0x0 KECCAK256 SWAP1 JUMPDEST DUP2 SLOAD DUP2 MSTORE SWAP1 PUSH1 0x1 ADD SWAP1 PUSH1 0x20 ADD DUP1 DUP4 GT PUSH2 0x1E0 JUMPI DUP3 SWAP1 SUB PUSH1 0x1F AND DUP3 ADD SWAP2 JUMPDEST POP POP POP POP POP DUP2 MSTORE PUSH1 0x20 ADD PUSH1 0x2 DUP3 ADD DUP1 SLOAD PUSH2 0x216 SWAP1 PUSH2 0x1E58 JUMP JUMPDEST DUP1 PUSH1 0x1F ADD PUSH1 0x20 DUP1 SWAP2 DIV MUL PUSH1 0x20 ADD PUSH1 0x40 MLOAD SWAP1 DUP2 ADD PUSH1 0x40 MSTORE DUP1 SWAP3 SWAP2 SWAP1 DUP2 DUP2 MSTORE PUSH1 0x20 ADD DUP3 DUP1 SLOAD PUSH2 0x242 SWAP1 PUSH2 0x1E58 JUMP JUMPDEST DUP1 ISZERO PUSH2 0x28F JUMPI DUP1 PUSH1 0x1F LT PUSH2 0x264 JUMPI PUSH2 0x100 DUP1 DUP4 SLOAD DIV MUL DUP4 MSTORE SWAP2 PUSH1 0x20 ADD SWAP2 PUSH2 0x28F JUMP JUMPDEST DUP3 ADD SWAP2 SWAP1 PUSH1 0x0 MSTORE PUSH1 0x20 PUSH1 0x0 KECCAK256 SWAP1 JUMPDEST DUP2 SLOAD DUP2 MSTORE SWAP1 PUSH1 0x1 ADD SWAP1 PUSH1 0x20 ADD DUP1 DUP4 GT PUSH2 0x272 JUMPI DUP3 SWAP1 SUB PUSH1 0x1F AND DUP3 ADD SWAP2 JUMPDEST POP POP POP POP POP DUP2 MSTORE PUSH1 0x20 ADD PUSH1 0x3 DUP3 ADD DUP1 SLOAD PUSH2 0x2A8 SWAP1 PUSH2 0x1E58 JUMP JUMPDEST DUP1 PUSH1 0x1F ADD PUSH1 0x20 DUP1 SWAP2 DIV MUL PUSH1 0x20 ADD PUSH1 0x40 MLOAD SWAP1 DUP2 ADD PUSH1 0x40 MSTORE DUP1 SWAP3 SWAP2 SWAP1 DUP2 DUP2 MSTORE PUSH1 0x20 ADD DUP3 DUP1 SLOAD PUSH2 0x2D4 SWAP1 PUSH2 0x1E58 JUMP JUMPDEST DUP1 ISZERO PUSH2 0x321 JUMPI DUP1 PUSH1 0x1F LT PUSH2 0x2F6 JUMPI PUSH2 0x100 DUP1 DUP4 SLOAD DIV MUL DUP4 MSTORE SWAP2 PUSH1 0x20 ADD SWAP2 PUSH2 0x321 JUMP JUMPDEST DUP3 ADD SWAP2 SWAP1 PUSH1 0x0 MSTORE PUSH1 0x20 PUSH1 0x0 KECCAK256 SWAP1 JUMPDEST DUP2 SLOAD DUP2 MSTORE SWAP1 PUSH1 0x1 ADD SWAP1 PUSH1 0x20 ADD DUP1 DUP4 GT PUSH2 0x304 JUMPI DUP3 SWAP1 SUB PUSH1 0x1F AND DUP3 ADD SWAP2 JUMPDEST POP POP POP POP POP DUP2 MSTORE PUSH1 0x20 ADD PUSH1 0x4 DUP3 ADD DUP1 SLOAD PUSH2 0x33A SWAP1 PUSH2 0x1E58 JUMP JUMPDEST DUP1 PUSH1 0x1F ADD PUSH1 0x20 DUP1 SWAP2 DIV MUL PUSH1 0x20 ADD PUSH1 0x40 MLOAD SWAP1 DUP2 ADD PUSH1 0x40 MSTORE DUP1 SWAP3 SWAP2 SWAP1 DUP2 DUP2 MSTORE PUSH1 0x20 ADD DUP3 DUP1 SLOAD PUSH2 0x366 SWAP1 PUSH2 0x1E58 JUMP JUMPDEST DUP1 ISZERO PUSH2 0x3B3 JUMPI DUP1 PUSH1 0x1F LT PUSH2 0x388 JUMPI PUSH2 0x100 DUP1 DUP4 SLOAD DIV MUL DUP4 MSTORE SWAP2 PUSH1 0x20 ADD SWAP2 PUSH2 0x3B3 JUMP JUMPDEST DUP3 ADD SWAP2 SWAP1 PUSH1 0x0 MSTORE PUSH1 0x20 PUSH1 0x0 KECCAK256 SWAP1 JUMPDEST DUP2 SLOAD DUP2 MSTORE SWAP1 PUSH1 0x1 ADD SWAP1 PUSH1 0x20 ADD DUP1 DUP4 GT PUSH2 0x396 JUMPI DUP3 SWAP1 SUB PUSH1 0x1F AND DUP3 ADD SWAP2 JUMPDEST POP POP POP POP POP DUP2 MSTORE PUSH1 0x20 ADD PUSH1 0x5 DUP3 ADD DUP1 SLOAD PUSH2 0x3CC SWAP1 PUSH2 0x1E58 JUMP JUMPDEST DUP1 PUSH1 0x1F ADD PUSH1 0x20 DUP1 SWAP2 DIV MUL PUSH1 0x20 ADD PUSH1 0x40 MLOAD SWAP1 DUP2 ADD PUSH1 0x40 MSTORE DUP1 SWAP3 SWAP2 SWAP1 DUP2 DUP2 MSTORE PUSH1 0x20 ADD DUP3 DUP1 SLOAD PUSH2 0x3F8 SWAP1 PUSH2 0x1E58 JUMP JUMPDEST DUP1 ISZERO PUSH2 0x445 JUMPI DUP1 PUSH1 0x1F LT PUSH2 0x41A JUMPI PUSH2 0x100 DUP1 DUP4 SLOAD DIV MUL DUP4 MSTORE SWAP2 PUSH1 0x20 ADD SWAP2 PUSH2 0x445 JUMP JUMPDEST DUP3 ADD SWAP2 SWAP1 PUSH1 0x0 MSTORE PUSH1 0x20 PUSH1 0x0 KECCAK256 SWAP1 JUMPDEST DUP2 SLOAD DUP2 MSTORE SWAP1 PUSH1 0x1 ADD SWAP1 PUSH1 0x20 ADD DUP1 DUP4 GT PUSH2 0x428 JUMPI DUP3 SWAP1 SUB PUSH1 0x1F AND DUP3 ADD SWAP2 JUMPDEST POP POP POP POP POP DUP2 MSTORE PUSH1 0x20 ADD PUSH1 0x6 DUP3 ADD SLOAD DUP2 MSTORE PUSH1 0x20 ADD PUSH1 0x7 DUP3 ADD DUP1 SLOAD PUSH2 0x468 SWAP1 PUSH2 0x1E58 JUMP JUMPDEST DUP1 PUSH1 0x1F ADD PUSH1 0x20 DUP1 SWAP2 DIV MUL PUSH1 0x20 ADD PUSH1 0x40 MLOAD SWAP1 DUP2 ADD PUSH1 0x40 MSTORE DUP1 SWAP3 SWAP2 SWAP1 DUP2 DUP2 MSTORE PUSH1 0x20 ADD DUP3 DUP1 SLOAD PUSH2 0x494 SWAP1 PUSH2 0x1E58 JUMP JUMPDEST DUP1 ISZERO PUSH2 0x4E1 JUMPI DUP1 PUSH1 0x1F LT PUSH2 0x4B6 JUMPI PUSH2 0x100 DUP1 DUP4 SLOAD DIV MUL DUP4 MSTORE SWAP2 PUSH1 0x20 ADD SWAP2 PUSH2 0x4E1 JUMP JUMPDEST DUP3 ADD SWAP2 SWAP1 PUSH1 0x0 MSTORE PUSH1 0x20 PUSH1 0x0 KECCAK256 SWAP1 JUMPDEST DUP2 SLOAD DUP2 MSTORE SWAP1 PUSH1 0x1 ADD SWAP1 PUSH1 0x20 ADD DUP1 DUP4 GT PUSH2 0x4C4 JUMPI DUP3 SWAP1 SUB PUSH1 0x1F AND DUP3 ADD SWAP2 JUMPDEST POP POP POP POP POP DUP2 MSTORE PUSH1 0x20 ADD PUSH1 0x8 DUP3 ADD DUP1 SLOAD PUSH2 0x4FA SWAP1 PUSH2 0x1E58 JUMP JUMPDEST DUP1 PUSH1 0x1F ADD PUSH1 0x20 DUP1 SWAP2 DIV MUL PUSH1 0x20 ADD PUSH1 0x40 MLOAD SWAP1 DUP2 ADD PUSH1 0x40 MSTORE DUP1 SWAP3 SWAP2 SWAP1 DUP2 DUP2 MSTORE PUSH1 0x20 ADD DUP3 DUP1 SLOAD PUSH2 0x526 SWAP1 PUSH2 0x1E58 JUMP JUMPDEST DUP1 ISZERO PUSH2 0x573 JUMPI DUP1 PUSH1 0x1F LT PUSH2 0x548 JUMPI PUSH2 0x100 DUP1 DUP4 SLOAD DIV MUL DUP4 MSTORE SWAP2 PUSH1 0x20 ADD SWAP2 PUSH2 0x573 JUMP JUMPDEST DUP3 ADD SWAP2 SWAP1 PUSH1 0x0 MSTORE PUSH1 0x20 PUSH1 0x0 KECCAK256 SWAP1 JUMPDEST DUP2 SLOAD DUP2 MSTORE SWAP1 PUSH1 0x1 ADD SWAP1 PUSH1 0x20 ADD DUP1 DUP4 GT PUSH2 0x556 JUMPI DUP3 SWAP1 SUB PUSH1 0x1F AND DUP3 ADD SWAP2 JUMPDEST POP POP POP POP POP DUP2 MSTORE PUSH1 0x20 ADD PUSH1 0x9 DUP3 ADD SLOAD DUP2 MSTORE POP POP SWAP1 POP SWAP2 SWAP1 POP JUMP JUMPDEST PUSH1 0x0 PUSH1 0x20 MSTORE DUP1 PUSH1 0x0 MSTORE PUSH1 0x40 PUSH1 0x0 KECCAK256 PUSH1 0x0 SWAP2 POP SWAP1 POP DUP1 PUSH1 0x0 ADD SLOAD SWAP1 DUP1 PUSH1 0x1 ADD DUP1 SLOAD PUSH2 0x5B6 SWAP1 PUSH2 0x1E58 JUMP JUMPDEST DUP1 PUSH1 0x1F ADD PUSH1 0x20 DUP1 SWAP2 DIV MUL PUSH1 0x20 ADD PUSH1 0x40 MLOAD SWAP1 DUP2 ADD PUSH1 0x40 MSTORE DUP1 SWAP3 SWAP2 SWAP1 DUP2 DUP2 MSTORE PUSH1 0x20 ADD DUP3 DUP1 SLOAD PUSH2 0x5E2 SWAP1 PUSH2 0x1E58 JUMP JUMPDEST DUP1 ISZERO PUSH2 0x62F JUMPI DUP1 PUSH1 0x1F LT PUSH2 0x604 JUMPI PUSH2 0x100 DUP1 DUP4 SLOAD DIV MUL DUP4 MSTORE SWAP2 PUSH1 0x20 ADD SWAP2 PUSH2 0x62F JUMP JUMPDEST DUP3 ADD SWAP2 SWAP1 PUSH1 0x0 MSTORE PUSH1 0x20 PUSH1 0x0 KECCAK256 SWAP1 JUMPDEST DUP2 SLOAD DUP2 MSTORE SWAP1 PUSH1 0x1 ADD SWAP1 PUSH1 0x20 ADD DUP1 DUP4 GT PUSH2 0x612 JUMPI DUP3 SWAP1 SUB PUSH1 0x1F AND DUP3 ADD SWAP2 JUMPDEST POP POP POP POP POP SWAP1 DUP1 PUSH1 0x2 ADD DUP1 SLOAD PUSH2 0x644 SWAP1 PUSH2 0x1E58 JUMP JUMPDEST DUP1 PUSH1 0x1F ADD PUSH1 0x20 DUP1 SWAP2 DIV MUL PUSH1 0x20 ADD PUSH1 0x40 MLOAD SWAP1 DUP2 ADD PUSH1 0x40 MSTORE DUP1 SWAP3 SWAP2 SWAP1 DUP2 DUP2 MSTORE PUSH1 0x20 ADD DUP3 DUP1 SLOAD PUSH2 0x670 SWAP1 PUSH2 0x1E58 JUMP JUMPDEST DUP1 ISZERO PUSH2 0x6BD JUMPI DUP1 PUSH1 0x1F LT PUSH2 0x692 JUMPI PUSH2 0x100 DUP1 DUP4 SLOAD DIV MUL DUP4 MSTORE SWAP2 PUSH1 0x20 ADD SWAP2 PUSH2 0x6BD JUMP JUMPDEST DUP3 ADD SWAP2 SWAP1 PUSH1 0x0 MSTORE PUSH1 0x20 PUSH1 0x0 KECCAK256 SWAP1 JUMPDEST DUP2 SLOAD DUP2 MSTORE SWAP1 PUSH1 0x1 ADD SWAP1 PUSH1 0x20 ADD DUP1 DUP4 GT PUSH2 0x6A0 JUMPI DUP3 SWAP1 SUB PUSH1 0x1F AND DUP3 ADD SWAP2 JUMPDEST POP POP POP POP POP SWAP1 DUP1 PUSH1 0x3 ADD DUP1 SLOAD PUSH2 0x6D2 SWAP1 PUSH2 0x1E58 JUMP JUMPDEST DUP1 PUSH1 0x1F ADD PUSH1 0x20 DUP1 SWAP2 DIV MUL PUSH1 0x20 ADD PUSH1 0x40 MLOAD SWAP1 DUP2 ADD PUSH1 0x40 MSTORE DUP1 SWAP3 SWAP2 SWAP1 DUP2 DUP2 MSTORE PUSH1 0x20 ADD DUP3 DUP1 SLOAD PUSH2 0x6FE SWAP1 PUSH2 0x1E58 JUMP JUMPDEST DUP1 ISZERO PUSH2 0x74B JUMPI DUP1 PUSH1 0x1F LT PUSH2 0x720 JUMPI PUSH2 0x100 DUP1 DUP4 SLOAD DIV MUL DUP4 MSTORE SWAP2 PUSH1 0x20 ADD SWAP2 PUSH2 0x74B JUMP JUMPDEST DUP3 ADD SWAP2 SWAP1 PUSH1 0x0 MSTORE PUSH1 0x20 PUSH1 0x0 KECCAK256 SWAP1 JUMPDEST DUP2 SLOAD DUP2 MSTORE SWAP1 PUSH1 0x1 ADD SWAP1 PUSH1 0x20 ADD DUP1 DUP4 GT PUSH2 0x72E JUMPI DUP3 SWAP1 SUB PUSH1 0x1F AND DUP3 ADD SWAP2 JUMPDEST POP POP POP POP POP SWAP1 DUP1 PUSH1 0x4 ADD DUP1 SLOAD PUSH2 0x760 SWAP1 PUSH2 0x1E58 JUMP JUMPDEST DUP1 PUSH1 0x1F ADD PUSH1 0x20 DUP1 SWAP2 DIV MUL PUSH1 0x20 ADD PUSH1 0x40 MLOAD SWAP1 DUP2 ADD PUSH1 0x40 MSTORE DUP1 SWAP3 SWAP2 SWAP1 DUP2 DUP2 MSTORE PUSH1 0x20 ADD DUP3 DUP1 SLOAD PUSH2 0x78C SWAP1 PUSH2 0x1E58 JUMP JUMPDEST DUP1 ISZERO PUSH2 0x7D9 JUMPI DUP1 PUSH1 0x1F LT PUSH2 0x7AE JUMPI PUSH2 0x100 DUP1 DUP4 SLOAD DIV MUL DUP4 MSTORE SWAP2 PUSH1 0x20 ADD SWAP2 PUSH2 0x7D9 JUMP JUMPDEST DUP3 ADD SWAP2 SWAP1 PUSH1 0x0 MSTORE PUSH1 0x20 PUSH1 0x0 KECCAK256 SWAP1 JUMPDEST DUP2 SLOAD DUP2 MSTORE SWAP1 PUSH1 0x1 ADD SWAP1 PUSH1 0x20 ADD DUP1 DUP4 GT PUSH2 0x7BC JUMPI DUP3 SWAP1 SUB PUSH1 0x1F AND DUP3 ADD SWAP2 JUMPDEST POP POP POP POP POP SWAP1 DUP1 PUSH1 0x5 ADD DUP1 SLOAD PUSH2 0x7EE SWAP1 PUSH2 0x1E58 JUMP JUMPDEST DUP1 PUSH1 0x1F ADD PUSH1 0x20 DUP1 SWAP2 DIV MUL PUSH1 0x20 ADD PUSH1 0x40 MLOAD SWAP1 DUP2 ADD PUSH1 0x40 MSTORE DUP1 SWAP3 SWAP2 SWAP1 DUP2 DUP2 MSTORE PUSH1 0x20 ADD DUP3 DUP1 SLOAD PUSH2 0x81A SWAP1 PUSH2 0x1E58 JUMP JUMPDEST DUP1 ISZERO PUSH2 0x867 JUMPI DUP1 PUSH1 0x1F LT PUSH2 0x83C JUMPI PUSH2 0x100 DUP1 DUP4 SLOAD DIV MUL DUP4 MSTORE SWAP2 PUSH1 0x20 ADD SWAP2 PUSH2 0x867 JUMP JUMPDEST DUP3 ADD SWAP2 SWAP1 PUSH1 0x0 MSTORE PUSH1 0x20 PUSH1 0x0 KECCAK256 SWAP1 JUMPDEST DUP2 SLOAD DUP2 MSTORE SWAP1 PUSH1 0x1 ADD SWAP1 PUSH1 0x20 ADD DUP1 DUP4 GT PUSH2 0x84A JUMPI DUP3 SWAP1 SUB PUSH1 0x1F AND DUP3 ADD SWAP2 JUMPDEST POP POP POP POP POP SWAP1 DUP1 PUSH1 0x6 ADD SLOAD SWAP1 DUP1 PUSH1 0x7 ADD DUP1 SLOAD PUSH2 0x882 SWAP1 PUSH2 0x1E58 JUMP JUMPDEST DUP1 PUSH1 0x1F ADD PUSH1 0x20 DUP1 SWAP2 DIV MUL PUSH1 0x20 ADD PUSH1 0x40 MLOAD SWAP1 DUP2 ADD PUSH1 0x40 MSTORE DUP1 SWAP3 SWAP2 SWAP1 DUP2 DUP2 MSTORE PUSH1 0x20 ADD DUP3 DUP1 SLOAD PUSH2 0x8AE SWAP1 PUSH2 0x1E58 JUMP JUMPDEST DUP1 ISZERO PUSH2 0x8FB JUMPI DUP1 PUSH1 0x1F LT PUSH2 0x8D0 JUMPI PUSH2 0x100 DUP1 DUP4 SLOAD DIV MUL DUP4 MSTORE SWAP2 PUSH1 0x20 ADD SWAP2 PUSH2 0x8FB JUMP JUMPDEST DUP3 ADD SWAP2 SWAP1 PUSH1 0x0 MSTORE PUSH1 0x20 PUSH1 0x0 KECCAK256 SWAP1 JUMPDEST DUP2 SLOAD DUP2 MSTORE SWAP1 PUSH1 0x1 ADD SWAP1 PUSH1 0x20 ADD DUP1 DUP4 GT PUSH2 0x8DE JUMPI DUP3 SWAP1 SUB PUSH1 0x1F AND DUP3 ADD SWAP2 JUMPDEST POP POP POP POP POP SWAP1 DUP1 PUSH1 0x8 ADD DUP1 SLOAD PUSH2 0x910 SWAP1 PUSH2 0x1E58 JUMP JUMPDEST DUP1 PUSH1 0x1F ADD PUSH1 0x20 DUP1 SWAP2 DIV MUL PUSH1 0x20 ADD PUSH1 0x40 MLOAD SWAP1 DUP2 ADD PUSH1 0x40 MSTORE DUP1 SWAP3 SWAP2 SWAP1 DUP2 DUP2 MSTORE PUSH1 0x20 ADD DUP3 DUP1 SLOAD PUSH2 0x93C SWAP1 PUSH2 0x1E58 JUMP JUMPDEST DUP1 ISZERO PUSH2 0x989 JUMPI DUP1 PUSH1 0x1F LT PUSH2 0x95E JUMPI PUSH2 0x100 DUP1 DUP4 SLOAD DIV MUL DUP4 MSTORE SWAP2 PUSH1 0x20 ADD SWAP2 PUSH2 0x989 JUMP JUMPDEST DUP3 ADD SWAP2 SWAP1 PUSH1 0x0 MSTORE PUSH1 0x20 PUSH1 0x0 KECCAK256 SWAP1 JUMPDEST DUP2 SLOAD DUP2 MSTORE SWAP1 PUSH1 0x1 ADD SWAP1 PUSH1 0x20 ADD DUP1 DUP4 GT PUSH2 0x96C JUMPI DUP3 SWAP1 SUB PUSH1 0x1F AND DUP3 ADD SWAP2 JUMPDEST POP POP POP POP POP SWAP1 DUP1 PUSH1 0x9 ADD SLOAD SWAP1 POP DUP11 JUMP JUMPDEST PUSH1 0x60 PUSH1 0x0 PUSH1 0x1 SLOAD PUSH8 0xFFFFFFFFFFFFFFFF DUP2 GT ISZERO PUSH2 0x9B9 JUMPI PUSH2 0x9B8 PUSH2 0x1B01 JUMP JUMPDEST JUMPDEST PUSH1 0x40 MLOAD SWAP1 DUP1 DUP3 MSTORE DUP1 PUSH1 0x20 MUL PUSH1 0x20 ADD DUP3 ADD PUSH1 0x40 MSTORE DUP1 ISZERO PUSH2 0x9F2 JUMPI DUP2 PUSH1 0x20 ADD JUMPDEST PUSH2 0x9DF PUSH2 0x153F JUMP JUMPDEST DUP2 MSTORE PUSH1 0x20 ADD SWAP1 PUSH1 0x1 SWAP1 SUB SWAP1 DUP2 PUSH2 0x9D7 JUMPI SWAP1 POP JUMPDEST POP SWAP1 POP PUSH1 0x0 PUSH1 0x1 SWAP1 POP JUMPDEST PUSH1 0x1 SLOAD DUP2 GT PUSH2 0xE7C JUMPI PUSH1 0x0 DUP1 DUP3 DUP2 MSTORE PUSH1 0x20 ADD SWAP1 DUP2 MSTORE PUSH1 0x20 ADD PUSH1 0x0 KECCAK256 PUSH1 0x40 MLOAD DUP1 PUSH2 0x140 ADD PUSH1 0x40 MSTORE SWAP1 DUP2 PUSH1 0x0 DUP3 ADD SLOAD DUP2 MSTORE PUSH1 0x20 ADD PUSH1 0x1 DUP3 ADD DUP1 SLOAD PUSH2 0xA3D SWAP1 PUSH2 0x1E58 JUMP JUMPDEST DUP1 PUSH1 0x1F ADD PUSH1 0x20 DUP1 SWAP2 DIV MUL PUSH1 0x20 ADD PUSH1 0x40 MLOAD SWAP1 DUP2 ADD PUSH1 0x40 MSTORE DUP1 SWAP3 SWAP2 SWAP1 DUP2 DUP2 MSTORE PUSH1 0x20 ADD DUP3 DUP1 SLOAD PUSH2 0xA69 SWAP1 PUSH2 0x1E58 JUMP JUMPDEST DUP1 ISZERO PUSH2 0xAB6 JUMPI DUP1 PUSH1 0x1F LT PUSH2 0xA8B JUMPI PUSH2 0x100 DUP1 DUP4 SLOAD DIV MUL DUP4 MSTORE SWAP2 PUSH1 0x20 ADD SWAP2 PUSH2 0xAB6 JUMP JUMPDEST DUP3 ADD SWAP2 SWAP1 PUSH1 0x0 MSTORE PUSH1 0x20 PUSH1 0x0 KECCAK256 SWAP1 JUMPDEST DUP2 SLOAD DUP2 MSTORE SWAP1 PUSH1 0x1 ADD SWAP1 PUSH1 0x20 ADD DUP1 DUP4 GT PUSH2 0xA99 JUMPI DUP3 SWAP1 SUB PUSH1 0x1F AND DUP3 ADD SWAP2 JUMPDEST POP POP POP POP POP DUP2 MSTORE PUSH1 0x20 ADD PUSH1 0x2 DUP3 ADD DUP1 SLOAD PUSH2 0xACF SWAP1 PUSH2 0x1E58 JUMP JUMPDEST DUP1 PUSH1 0x1F ADD PUSH1 0x20 DUP1 SWAP2 DIV MUL PUSH1 0x20 ADD PUSH1 0x40 MLOAD SWAP1 DUP2 ADD PUSH1 0x40 MSTORE DUP1 SWAP3 SWAP2 SWAP1 DUP2 DUP2 MSTORE PUSH1 0x20 ADD DUP3 DUP1 SLOAD PUSH2 0xAFB SWAP1 PUSH2 0x1E58 JUMP JUMPDEST DUP1 ISZERO PUSH2 0xB48 JUMPI DUP1 PUSH1 0x1F LT PUSH2 0xB1D JUMPI PUSH2 0x100 DUP1 DUP4 SLOAD DIV MUL DUP4 MSTORE SWAP2 PUSH1 0x20 ADD SWAP2 PUSH2 0xB48 JUMP JUMPDEST DUP3 ADD SWAP2 SWAP1 PUSH1 0x0 MSTORE PUSH1 0x20 PUSH1 0x0 KECCAK256 SWAP1 JUMPDEST DUP2 SLOAD DUP2 MSTORE SWAP1 PUSH1 0x1 ADD SWAP1 PUSH1 0x20 ADD DUP1 DUP4 GT PUSH2 0xB2B JUMPI DUP3 SWAP1 SUB PUSH1 0x1F AND DUP3 ADD SWAP2 JUMPDEST POP POP POP POP POP DUP2 MSTORE PUSH1 0x20 ADD PUSH1 0x3 DUP3 ADD DUP1 SLOAD PUSH2 0xB61 SWAP1 PUSH2 0x1E58 JUMP JUMPDEST DUP1 PUSH1 0x1F ADD PUSH1 0x20 DUP1 SWAP2 DIV MUL PUSH1 0x20 ADD PUSH1 0x40 MLOAD SWAP1 DUP2 ADD PUSH1 0x40 MSTORE DUP1 SWAP3 SWAP2 SWAP1 DUP2 DUP2 MSTORE PUSH1 0x20 ADD DUP3 DUP1 SLOAD PUSH2 0xB8D SWAP1 PUSH2 0x1E58 JUMP JUMPDEST DUP1 ISZERO PUSH2 0xBDA JUMPI DUP1 PUSH1 0x1F LT PUSH2 0xBAF JUMPI PUSH2 0x100 DUP1 DUP4 SLOAD DIV MUL DUP4 MSTORE SWAP2 PUSH1 0x20 ADD SWAP2 PUSH2 0xBDA JUMP JUMPDEST DUP3 ADD SWAP2 SWAP1 PUSH1 0x0 MSTORE PUSH1 0x20 PUSH1 0x0 KECCAK256 SWAP1 JUMPDEST DUP2 SLOAD DUP2 MSTORE SWAP1 PUSH1 0x1 ADD SWAP1 PUSH1 0x20 ADD DUP1 DUP4 GT PUSH2 0xBBD JUMPI DUP3 SWAP1 SUB PUSH1 0x1F AND DUP3 ADD SWAP2 JUMPDEST POP POP POP POP POP DUP2 MSTORE PUSH1 0x20 ADD PUSH1 0x4 DUP3 ADD DUP1 SLOAD PUSH2 0xBF3 SWAP1 PUSH2 0x1E58 JUMP JUMPDEST DUP1 PUSH1 0x1F ADD PUSH1 0x20 DUP1 SWAP2 DIV MUL PUSH1 0x20 ADD PUSH1 0x40 MLOAD SWAP1 DUP2 ADD PUSH1 0x40 MSTORE DUP1 SWAP3 SWAP2 SWAP1 DUP2 DUP2 MSTORE PUSH1 0x20 ADD DUP3 DUP1 SLOAD PUSH2 0xC1F SWAP1 PUSH2 0x1E58 JUMP JUMPDEST DUP1 ISZERO PUSH2 0xC6C JUMPI DUP1 PUSH1 0x1F LT PUSH2 0xC41 JUMPI PUSH2 0x100 DUP1 DUP4 SLOAD DIV MUL DUP4 MSTORE SWAP2 PUSH1 0x20 ADD SWAP2 PUSH2 0xC6C JUMP JUMPDEST DUP3 ADD SWAP2 SWAP1 PUSH1 0x0 MSTORE PUSH1 0x20 PUSH1 0x0 KECCAK256 SWAP1 JUMPDEST DUP2 SLOAD DUP2 MSTORE SWAP1 PUSH1 0x1 ADD SWAP1 PUSH1 0x20 ADD DUP1 DUP4 GT PUSH2 0xC4F JUMPI DUP3 SWAP1 SUB PUSH1 0x1F AND DUP3 ADD SWAP2 JUMPDEST POP POP POP POP POP DUP2 MSTORE PUSH1 0x20 ADD PUSH1 0x5 DUP3 ADD DUP1 SLOAD PUSH2 0xC85 SWAP1 PUSH2 0x1E58 JUMP JUMPDEST DUP1 PUSH1 0x1F ADD PUSH1 0x20 DUP1 SWAP2 DIV MUL PUSH1 0x20 ADD PUSH1 0x40 MLOAD SWAP1 DUP2 ADD PUSH1 0x40 MSTORE DUP1 SWAP3 SWAP2 SWAP1 DUP2 DUP2 MSTORE PUSH1 0x20 ADD DUP3 DUP1 SLOAD PUSH2 0xCB1 SWAP1 PUSH2 0x1E58 JUMP JUMPDEST DUP1 ISZERO PUSH2 0xCFE JUMPI DUP1 PUSH1 0x1F LT PUSH2 0xCD3 JUMPI PUSH2 0x100 DUP1 DUP4 SLOAD DIV MUL DUP4 MSTORE SWAP2 PUSH1 0x20 ADD SWAP2 PUSH2 0xCFE JUMP JUMPDEST DUP3 ADD SWAP2 SWAP1 PUSH1 0x0 MSTORE PUSH1 0x20 PUSH1 0x0 KECCAK256 SWAP1 JUMPDEST DUP2 SLOAD DUP2 MSTORE SWAP1 PUSH1 0x1 ADD SWAP1 PUSH1 0x20 ADD DUP1 DUP4 GT PUSH2 0xCE1 JUMPI DUP3 SWAP1 SUB PUSH1 0x1F AND DUP3 ADD SWAP2 JUMPDEST POP POP POP POP POP DUP2 MSTORE PUSH1 0x20 ADD PUSH1 0x6 DUP3 ADD SLOAD DUP2 MSTORE PUSH1 0x20 ADD PUSH1 0x7 DUP3 ADD DUP1 SLOAD PUSH2 0xD21 SWAP1 PUSH2 0x1E58 JUMP JUMPDEST DUP1 PUSH1 0x1F ADD PUSH1 0x20 DUP1 SWAP2 DIV MUL PUSH1 0x20 ADD PUSH1 0x40 MLOAD SWAP1 DUP2 ADD PUSH1 0x40 MSTORE DUP1 SWAP3 SWAP2 SWAP1 DUP2 DUP2 MSTORE PUSH1 0x20 ADD DUP3 DUP1 SLOAD PUSH2 0xD4D SWAP1 PUSH2 0x1E58 JUMP JUMPDEST DUP1 ISZERO PUSH2 0xD9A JUMPI DUP1 PUSH1 0x1F LT PUSH2 0xD6F JUMPI PUSH2 0x100 DUP1 DUP4 SLOAD DIV MUL DUP4 MSTORE SWAP2 PUSH1 0x20 ADD SWAP2 PUSH2 0xD9A JUMP JUMPDEST DUP3 ADD SWAP2 SWAP1 PUSH1 0x0 MSTORE PUSH1 0x20 PUSH1 0x0 KECCAK256 SWAP1 JUMPDEST DUP2 SLOAD DUP2 MSTORE SWAP1 PUSH1 0x1 ADD SWAP1 PUSH1 0x20 ADD DUP1 DUP4 GT PUSH2 0xD7D JUMPI DUP3 SWAP1 SUB PUSH1 0x1F AND DUP3 ADD SWAP2 JUMPDEST POP POP POP POP POP DUP2 MSTORE PUSH1 0x20 ADD PUSH1 0x8 DUP3 ADD DUP1 SLOAD PUSH2 0xDB3 SWAP1 PUSH2 0x1E58 JUMP JUMPDEST DUP1 PUSH1 0x1F ADD PUSH1 0x20 DUP1 SWAP2 DIV MUL PUSH1 0x20 ADD PUSH1 0x40 MLOAD SWAP1 DUP2 ADD PUSH1 0x40 MSTORE DUP1 SWAP3 SWAP2 SWAP1 DUP2 DUP2 MSTORE PUSH1 0x20 ADD DUP3 DUP1 SLOAD PUSH2 0xDDF SWAP1 PUSH2 0x1E58 JUMP JUMPDEST DUP1 ISZERO PUSH2 0xE2C JUMPI DUP1 PUSH1 0x1F LT PUSH2 0xE01 JUMPI PUSH2 0x100 DUP1 DUP4 SLOAD DIV MUL DUP4 MSTORE SWAP2 PUSH1 0x20 ADD SWAP2 PUSH2 0xE2C JUMP JUMPDEST DUP3 ADD SWAP2 SWAP1 PUSH1 0x0 MSTORE PUSH1 0x20 PUSH1 0x0 KECCAK256 SWAP1 JUMPDEST DUP2 SLOAD DUP2 MSTORE SWAP1 PUSH1 0x1 ADD SWAP1 PUSH1 0x20 ADD DUP1 DUP4 GT PUSH2 0xE0F JUMPI DUP3 SWAP1 SUB PUSH1 0x1F AND DUP3 ADD SWAP2 JUMPDEST POP POP POP POP POP DUP2 MSTORE PUSH1 0x20 ADD PUSH1 0x9 DUP3 ADD SLOAD DUP2 MSTORE POP POP DUP3 PUSH1 0x1 DUP4 PUSH2 0xE4D SWAP2 SWAP1 PUSH2 0x1EB8 JUMP JUMPDEST DUP2 MLOAD DUP2 LT PUSH2 0xE5E JUMPI PUSH2 0xE5D PUSH2 0x1EEC JUMP JUMPDEST JUMPDEST PUSH1 0x20 MUL PUSH1 0x20 ADD ADD DUP2 SWAP1 MSTORE POP DUP1 DUP1 PUSH2 0xE74 SWAP1 PUSH2 0x1F1B JUMP JUMPDEST SWAP2 POP POP PUSH2 0x9FC JUMP JUMPDEST POP DUP1 SWAP2 POP POP SWAP1 JUMP JUMPDEST PUSH1 0x1 SLOAD DUP2 JUMP JUMPDEST PUSH1 0x0 DUP1 PUSH1 0x0 DUP6 DUP2 MSTORE PUSH1 0x20 ADD SWAP1 DUP2 MSTORE PUSH1 0x20 ADD PUSH1 0x0 KECCAK256 PUSH1 0x40 MLOAD DUP1 PUSH2 0x140 ADD PUSH1 0x40 MSTORE SWAP1 DUP2 PUSH1 0x0 DUP3 ADD SLOAD DUP2 MSTORE PUSH1 0x20 ADD PUSH1 0x1 DUP3 ADD DUP1 SLOAD PUSH2 0xEC4 SWAP1 PUSH2 0x1E58 JUMP JUMPDEST DUP1 PUSH1 0x1F ADD PUSH1 0x20 DUP1 SWAP2 DIV MUL PUSH1 0x20 ADD PUSH1 0x40 MLOAD SWAP1 DUP2 ADD PUSH1 0x40 MSTORE DUP1 SWAP3 SWAP2 SWAP1 DUP2 DUP2 MSTORE PUSH1 0x20 ADD DUP3 DUP1 SLOAD PUSH2 0xEF0 SWAP1 PUSH2 0x1E58 JUMP JUMPDEST DUP1 ISZERO PUSH2 0xF3D JUMPI DUP1 PUSH1 0x1F LT PUSH2 0xF12 JUMPI PUSH2 0x100 DUP1 DUP4 SLOAD DIV MUL DUP4 MSTORE SWAP2 PUSH1 0x20 ADD SWAP2 PUSH2 0xF3D JUMP JUMPDEST DUP3 ADD SWAP2 SWAP1 PUSH1 0x0 MSTORE PUSH1 0x20 PUSH1 0x0 KECCAK256 SWAP1 JUMPDEST DUP2 SLOAD DUP2 MSTORE SWAP1 PUSH1 0x1 ADD SWAP1 PUSH1 0x20 ADD DUP1 DUP4 GT PUSH2 0xF20 JUMPI DUP3 SWAP1 SUB PUSH1 0x1F AND DUP3 ADD SWAP2 JUMPDEST POP POP POP POP POP DUP2 MSTORE PUSH1 0x20 ADD PUSH1 0x2 DUP3 ADD DUP1 SLOAD PUSH2 0xF56 SWAP1 PUSH2 0x1E58 JUMP JUMPDEST DUP1 PUSH1 0x1F ADD PUSH1 0x20 DUP1 SWAP2 DIV MUL PUSH1 0x20 ADD PUSH1 0x40 MLOAD SWAP1 DUP2 ADD PUSH1 0x40 MSTORE DUP1 SWAP3 SWAP2 SWAP1 DUP2 DUP2 MSTORE PUSH1 0x20 ADD DUP3 DUP1 SLOAD PUSH2 0xF82 SWAP1 PUSH2 0x1E58 JUMP JUMPDEST DUP1 ISZERO PUSH2 0xFCF JUMPI DUP1 PUSH1 0x1F LT PUSH2 0xFA4 JUMPI PUSH2 0x100 DUP1 DUP4 SLOAD DIV MUL DUP4 MSTORE SWAP2 PUSH1 0x20 ADD SWAP2 PUSH2 0xFCF JUMP JUMPDEST DUP3 ADD SWAP2 SWAP1 PUSH1 0x0 MSTORE PUSH1 0x20 PUSH1 0x0 KECCAK256 SWAP1 JUMPDEST DUP2 SLOAD DUP2 MSTORE SWAP1 PUSH1 0x1 ADD SWAP1 PUSH1 0x20 ADD DUP1 DUP4 GT PUSH2 0xFB2 JUMPI DUP3 SWAP1 SUB PUSH1 0x1F AND DUP3 ADD SWAP2 JUMPDEST POP POP POP POP POP DUP2 MSTORE PUSH1 0x20 ADD PUSH1 0x3 DUP3 ADD DUP1 SLOAD PUSH2 0xFE8 SWAP1 PUSH2 0x1E58 JUMP JUMPDEST DUP1 PUSH1 0x1F ADD PUSH1 0x20 DUP1 SWAP2 DIV MUL PUSH1 0x20 ADD PUSH1 0x40 MLOAD SWAP1 DUP2 ADD PUSH1 0x40 MSTORE DUP1 SWAP3 SWAP2 SWAP1 DUP2 DUP2 MSTORE PUSH1 0x20 ADD DUP3 DUP1 SLOAD PUSH2 0x1014 SWAP1 PUSH2 0x1E58 JUMP JUMPDEST DUP1 ISZERO PUSH2 0x1061 JUMPI DUP1 PUSH1 0x1F LT PUSH2 0x1036 JUMPI PUSH2 0x100 DUP1 DUP4 SLOAD DIV MUL DUP4 MSTORE SWAP2 PUSH1 0x20 ADD SWAP2 PUSH2 0x1061 JUMP JUMPDEST DUP3 ADD SWAP2 SWAP1 PUSH1 0x0 MSTORE PUSH1 0x20 PUSH1 0x0 KECCAK256 SWAP1 JUMPDEST DUP2 SLOAD DUP2 MSTORE SWAP1 PUSH1 0x1 ADD SWAP1 PUSH1 0x20 ADD DUP1 DUP4 GT PUSH2 0x1044 JUMPI DUP3 SWAP1 SUB PUSH1 0x1F AND DUP3 ADD SWAP2 JUMPDEST POP POP POP POP POP DUP2 MSTORE PUSH1 0x20 ADD PUSH1 0x4 DUP3 ADD DUP1 SLOAD PUSH2 0x107A SWAP1 PUSH2 0x1E58 JUMP JUMPDEST DUP1 PUSH1 0x1F ADD PUSH1 0x20 DUP1 SWAP2 DIV MUL PUSH1 0x20 ADD PUSH1 0x40 MLOAD SWAP1 DUP2 ADD PUSH1 0x40 MSTORE DUP1 SWAP3 SWAP2 SWAP1 DUP2 DUP2 MSTORE PUSH1 0x20 ADD DUP3 DUP1 SLOAD PUSH2 0x10A6 SWAP1 PUSH2 0x1E58 JUMP JUMPDEST DUP1 ISZERO PUSH2 0x10F3 JUMPI DUP1 PUSH1 0x1F LT PUSH2 0x10C8 JUMPI PUSH2 0x100 DUP1 DUP4 SLOAD DIV MUL DUP4 MSTORE SWAP2 PUSH1 0x20 ADD SWAP2 PUSH2 0x10F3 JUMP JUMPDEST DUP3 ADD SWAP2 SWAP1 PUSH1 0x0 MSTORE PUSH1 0x20 PUSH1 0x0 KECCAK256 SWAP1 JUMPDEST DUP2 SLOAD DUP2 MSTORE SWAP1 PUSH1 0x1 ADD SWAP1 PUSH1 0x20 ADD DUP1 DUP4 GT PUSH2 0x10D6 JUMPI DUP3 SWAP1 SUB PUSH1 0x1F AND DUP3 ADD SWAP2 JUMPDEST POP POP POP POP POP DUP2 MSTORE PUSH1 0x20 ADD PUSH1 0x5 DUP3 ADD DUP1 SLOAD PUSH2 0x110C SWAP1 PUSH2 0x1E58 JUMP JUMPDEST DUP1 PUSH1 0x1F ADD PUSH1 0x20 DUP1 SWAP2 DIV MUL PUSH1 0x20 ADD PUSH1 0x40 MLOAD SWAP1 DUP2 ADD PUSH1 0x40 MSTORE DUP1 SWAP3 SWAP2 SWAP1 DUP2 DUP2 MSTORE PUSH1 0x20 ADD DUP3 DUP1 SLOAD PUSH2 0x1138 SWAP1 PUSH2 0x1E58 JUMP JUMPDEST DUP1 ISZERO PUSH2 0x1185 JUMPI DUP1 PUSH1 0x1F LT PUSH2 0x115A JUMPI PUSH2 0x100 DUP1 DUP4 SLOAD DIV MUL DUP4 MSTORE SWAP2 PUSH1 0x20 ADD SWAP2 PUSH2 0x1185 JUMP JUMPDEST DUP3 ADD SWAP2 SWAP1 PUSH1 0x0 MSTORE PUSH1 0x20 PUSH1 0x0 KECCAK256 SWAP1 JUMPDEST DUP2 SLOAD DUP2 MSTORE SWAP1 PUSH1 0x1 ADD SWAP1 PUSH1 0x20 ADD DUP1 DUP4 GT PUSH2 0x1168 JUMPI DUP3 SWAP1 SUB PUSH1 0x1F AND DUP3 ADD SWAP2 JUMPDEST POP POP POP POP POP DUP2 MSTORE PUSH1 0x20 ADD PUSH1 0x6 DUP3 ADD SLOAD DUP2 MSTORE PUSH1 0x20 ADD PUSH1 0x7 DUP3 ADD DUP1 SLOAD PUSH2 0x11A8 SWAP1 PUSH2 0x1E58 JUMP JUMPDEST DUP1 PUSH1 0x1F ADD PUSH1 0x20 DUP1 SWAP2 DIV MUL PUSH1 0x20 ADD PUSH1 0x40 MLOAD SWAP1 DUP2 ADD PUSH1 0x40 MSTORE DUP1 SWAP3 SWAP2 SWAP1 DUP2 DUP2 MSTORE PUSH1 0x20 ADD DUP3 DUP1 SLOAD PUSH2 0x11D4 SWAP1 PUSH2 0x1E58 JUMP JUMPDEST DUP1 ISZERO PUSH2 0x1221 JUMPI DUP1 PUSH1 0x1F LT PUSH2 0x11F6 JUMPI PUSH2 0x100 DUP1 DUP4 SLOAD DIV MUL DUP4 MSTORE SWAP2 PUSH1 0x20 ADD SWAP2 PUSH2 0x1221 JUMP JUMPDEST DUP3 ADD SWAP2 SWAP1 PUSH1 0x0 MSTORE PUSH1 0x20 PUSH1 0x0 KECCAK256 SWAP1 JUMPDEST DUP2 SLOAD DUP2 MSTORE SWAP1 PUSH1 0x1 ADD SWAP1 PUSH1 0x20 ADD DUP1 DUP4 GT PUSH2 0x1204 JUMPI DUP3 SWAP1 SUB PUSH1 0x1F AND DUP3 ADD SWAP2 JUMPDEST POP POP POP POP POP DUP2 MSTORE PUSH1 0x20 ADD PUSH1 0x8 DUP3 ADD DUP1 SLOAD PUSH2 0x123A SWAP1 PUSH2 0x1E58 JUMP JUMPDEST DUP1 PUSH1 0x1F ADD PUSH1 0x20 DUP1 SWAP2 DIV MUL PUSH1 0x20 ADD PUSH1 0x40 MLOAD SWAP1 DUP2 ADD PUSH1 0x40 MSTORE DUP1 SWAP3 SWAP2 SWAP1 DUP2 DUP2 MSTORE PUSH1 0x20 ADD DUP3 DUP1 SLOAD PUSH2 0x1266 SWAP1 PUSH2 0x1E58 JUMP JUMPDEST DUP1 ISZERO PUSH2 0x12B3 JUMPI DUP1 PUSH1 0x1F LT PUSH2 0x1288 JUMPI PUSH2 0x100 DUP1 DUP4 SLOAD DIV MUL DUP4 MSTORE SWAP2 PUSH1 0x20 ADD SWAP2 PUSH2 0x12B3 JUMP JUMPDEST DUP3 ADD SWAP2 SWAP1 PUSH1 0x0 MSTORE PUSH1 0x20 PUSH1 0x0 KECCAK256 SWAP1 JUMPDEST DUP2 SLOAD DUP2 MSTORE SWAP1 PUSH1 0x1 ADD SWAP1 PUSH1 0x20 ADD DUP1 DUP4 GT PUSH2 0x1296 JUMPI DUP3 SWAP1 SUB PUSH1 0x1F AND DUP3 ADD SWAP2 JUMPDEST POP POP POP POP POP DUP2 MSTORE PUSH1 0x20 ADD PUSH1 0x9 DUP3 ADD SLOAD DUP2 MSTORE POP POP SWAP1 POP PUSH1 0x40 MLOAD DUP1 PUSH2 0x140 ADD PUSH1 0x40 MSTORE DUP1 DUP3 PUSH1 0x0 ADD MLOAD DUP2 MSTORE PUSH1 0x20 ADD DUP3 PUSH1 0x20 ADD MLOAD DUP2 MSTORE PUSH1 0x20 ADD DUP3 PUSH1 0x40 ADD MLOAD DUP2 MSTORE PUSH1 0x20 ADD DUP3 PUSH1 0x60 ADD MLOAD DUP2 MSTORE PUSH1 0x20 ADD DUP3 PUSH1 0x80 ADD MLOAD DUP2 MSTORE PUSH1 0x20 ADD DUP3 PUSH1 0xA0 ADD MLOAD DUP2 MSTORE PUSH1 0x20 ADD DUP3 PUSH1 0xC0 ADD MLOAD DUP2 MSTORE PUSH1 0x20 ADD DUP3 PUSH1 0xE0 ADD MLOAD DUP2 MSTORE PUSH1 0x20 ADD DUP5 DUP2 MSTORE PUSH1 0x20 ADD DUP4 DUP2 MSTORE POP PUSH1 0x0 DUP1 DUP7 DUP2 MSTORE PUSH1 0x20 ADD SWAP1 DUP2 MSTORE PUSH1 0x20 ADD PUSH1 0x0 KECCAK256 PUSH1 0x0 DUP3 ADD MLOAD DUP2 PUSH1 0x0 ADD SSTORE PUSH1 0x20 DUP3 ADD MLOAD DUP2 PUSH1 0x1 ADD SWAP1 DUP2 PUSH2 0x135F SWAP2 SWAP1 PUSH2 0x210F JUMP JUMPDEST POP PUSH1 0x40 DUP3 ADD MLOAD DUP2 PUSH1 0x2 ADD SWAP1 DUP2 PUSH2 0x1375 SWAP2 SWAP1 PUSH2 0x210F JUMP JUMPDEST POP PUSH1 0x60 DUP3 ADD MLOAD DUP2 PUSH1 0x3 ADD SWAP1 DUP2 PUSH2 0x138B SWAP2 SWAP1 PUSH2 0x210F JUMP JUMPDEST POP PUSH1 0x80 DUP3 ADD MLOAD DUP2 PUSH1 0x4 ADD SWAP1 DUP2 PUSH2 0x13A1 SWAP2 SWAP1 PUSH2 0x210F JUMP JUMPDEST POP PUSH1 0xA0 DUP3 ADD MLOAD DUP2 PUSH1 0x5 ADD SWAP1 DUP2 PUSH2 0x13B7 SWAP2 SWAP1 PUSH2 0x210F JUMP JUMPDEST POP PUSH1 0xC0 DUP3 ADD MLOAD DUP2 PUSH1 0x6 ADD SSTORE PUSH1 0xE0 DUP3 ADD MLOAD DUP2 PUSH1 0x7 ADD SWAP1 DUP2 PUSH2 0x13D7 SWAP2 SWAP1 PUSH2 0x210F JUMP JUMPDEST POP PUSH2 0x100 DUP3 ADD MLOAD DUP2 PUSH1 0x8 ADD SWAP1 DUP2 PUSH2 0x13EE SWAP2 SWAP1 PUSH2 0x210F JUMP JUMPDEST POP PUSH2 0x120 DUP3 ADD MLOAD DUP2 PUSH1 0x9 ADD SSTORE SWAP1 POP POP POP POP POP POP JUMP JUMPDEST PUSH1 0x1 PUSH1 0x0 DUP2 SLOAD DUP1 SWAP3 SWAP2 SWAP1 PUSH2 0x1416 SWAP1 PUSH2 0x1F1B JUMP JUMPDEST SWAP2 SWAP1 POP SSTORE POP PUSH1 0x40 MLOAD DUP1 PUSH2 0x140 ADD PUSH1 0x40 MSTORE DUP1 PUSH1 0x1 SLOAD DUP2 MSTORE PUSH1 0x20 ADD DUP11 DUP2 MSTORE PUSH1 0x20 ADD DUP10 DUP2 MSTORE PUSH1 0x20 ADD DUP9 DUP2 MSTORE PUSH1 0x20 ADD DUP8 DUP2 MSTORE PUSH1 0x20 ADD DUP7 DUP2 MSTORE PUSH1 0x20 ADD DUP6 DUP2 MSTORE PUSH1 0x20 ADD DUP5 DUP2 MSTORE PUSH1 0x20 ADD DUP4 DUP2 MSTORE PUSH1 0x20 ADD DUP3 DUP2 MSTORE POP PUSH1 0x0 DUP1 PUSH1 0x1 SLOAD DUP2 MSTORE PUSH1 0x20 ADD SWAP1 DUP2 MSTORE PUSH1 0x20 ADD PUSH1 0x0 KECCAK256 PUSH1 0x0 DUP3 ADD MLOAD DUP2 PUSH1 0x0 ADD SSTORE PUSH1 0x20 DUP3 ADD MLOAD DUP2 PUSH1 0x1 ADD SWAP1 DUP2 PUSH2 0x1496 SWAP2 SWAP1 PUSH2 0x210F JUMP JUMPDEST POP PUSH1 0x40 DUP3 ADD MLOAD DUP2 PUSH1 0x2 ADD SWAP1 DUP2 PUSH2 0x14AC SWAP2 SWAP1 PUSH2 0x210F JUMP JUMPDEST POP PUSH1 0x60 DUP3 ADD MLOAD DUP2 PUSH1 0x3 ADD SWAP1 DUP2 PUSH2 0x14C2 SWAP2 SWAP1 PUSH2 0x210F JUMP JUMPDEST POP PUSH1 0x80 DUP3 ADD MLOAD DUP2 PUSH1 0x4 ADD SWAP1 DUP2 PUSH2 0x14D8 SWAP2 SWAP1 PUSH2 0x210F JUMP JUMPDEST POP PUSH1 0xA0 DUP3 ADD MLOAD DUP2 PUSH1 0x5 ADD SWAP1 DUP2 PUSH2 0x14EE SWAP2 SWAP1 PUSH2 0x210F JUMP JUMPDEST POP PUSH1 0xC0 DUP3 ADD MLOAD DUP2 PUSH1 0x6 ADD SSTORE PUSH1 0xE0 DUP3 ADD MLOAD DUP2 PUSH1 0x7 ADD SWAP1 DUP2 PUSH2 0x150E SWAP2 SWAP1 PUSH2 0x210F JUMP JUMPDEST POP PUSH2 0x100 DUP3 ADD MLOAD DUP2 PUSH1 0x8 ADD SWAP1 DUP2 PUSH2 0x1525 SWAP2 SWAP1 PUSH2 0x210F JUMP JUMPDEST POP PUSH2 0x120 DUP3 ADD MLOAD DUP2 PUSH1 0x9 ADD SSTORE SWAP1 POP POP POP POP POP POP POP POP POP POP POP JUMP JUMPDEST PUSH1 0x40 MLOAD DUP1 PUSH2 0x140 ADD PUSH1 0x40 MSTORE DUP1 PUSH1 0x0 DUP2 MSTORE PUSH1 0x20 ADD PUSH1 0x60 DUP2 MSTORE PUSH1 0x20 ADD PUSH1 0x60 DUP2 MSTORE PUSH1 0x20 ADD PUSH1 0x60 DUP2 MSTORE PUSH1 0x20 ADD PUSH1 0x60 DUP2 MSTORE PUSH1 0x20 ADD PUSH1 0x60 DUP2 MSTORE PUSH1 0x20 ADD PUSH1 0x0 DUP2 MSTORE PUSH1 0x20 ADD PUSH1 0x60 DUP2 MSTORE PUSH1 0x20 ADD PUSH1 0x60 DUP2 MSTORE PUSH1 0x20 ADD PUSH1 0x0 DUP2 MSTORE POP SWAP1 JUMP JUMPDEST PUSH1 0x0 PUSH1 0x40 MLOAD SWAP1 POP SWAP1 JUMP JUMPDEST PUSH1 0x0 DUP1 REVERT JUMPDEST PUSH1 0x0 DUP1 REVERT JUMPDEST PUSH1 0x0 DUP2 SWAP1 POP SWAP2 SWAP1 POP JUMP JUMPDEST PUSH2 0x15B9 DUP2 PUSH2 0x15A6 JUMP JUMPDEST DUP2 EQ PUSH2 0x15C4 JUMPI PUSH1 0x0 DUP1 REVERT JUMPDEST POP JUMP JUMPDEST PUSH1 0x0 DUP2 CALLDATALOAD SWAP1 POP PUSH2 0x15D6 DUP2 PUSH2 0x15B0 JUMP JUMPDEST SWAP3 SWAP2 POP POP JUMP JUMPDEST PUSH1 0x0 PUSH1 0x20 DUP3 DUP5 SUB SLT ISZERO PUSH2 0x15F2 JUMPI PUSH2 0x15F1 PUSH2 0x159C JUMP JUMPDEST JUMPDEST PUSH1 0x0 PUSH2 0x1600 DUP5 DUP3 DUP6 ADD PUSH2 0x15C7 JUMP JUMPDEST SWAP2 POP POP SWAP3 SWAP2 POP POP JUMP JUMPDEST PUSH2 0x1612 DUP2 PUSH2 0x15A6 JUMP JUMPDEST DUP3 MSTORE POP POP JUMP JUMPDEST PUSH1 0x0 DUP2 MLOAD SWAP1 POP SWAP2 SWAP1 POP JUMP JUMPDEST PUSH1 0x0 DUP3 DUP3 MSTORE PUSH1 0x20 DUP3 ADD SWAP1 POP SWAP3 SWAP2 POP POP JUMP JUMPDEST PUSH1 0x0 JUMPDEST DUP4 DUP2 LT ISZERO PUSH2 0x1652 JUMPI DUP1 DUP3 ADD MLOAD DUP2 DUP5 ADD MSTORE PUSH1 0x20 DUP2 ADD SWAP1 POP PUSH2 0x1637 JUMP JUMPDEST PUSH1 0x0 DUP5 DUP5 ADD MSTORE POP POP POP POP JUMP JUMPDEST PUSH1 0x0 PUSH1 0x1F NOT PUSH1 0x1F DUP4 ADD AND SWAP1 POP SWAP2 SWAP1 POP JUMP JUMPDEST PUSH1 0x0 PUSH2 0x167A DUP3 PUSH2 0x1618 JUMP JUMPDEST PUSH2 0x1684 DUP2 DUP6 PUSH2 0x1623 JUMP JUMPDEST SWAP4 POP PUSH2 0x1694 DUP2 DUP6 PUSH1 0x20 DUP7 ADD PUSH2 0x1634 JUMP JUMPDEST PUSH2 0x169D DUP2 PUSH2 0x165E JUMP JUMPDEST DUP5 ADD SWAP2 POP POP SWAP3 SWAP2 POP POP JUMP JUMPDEST PUSH1 0x0 PUSH2 0x140 DUP4 ADD PUSH1 0x0 DUP4 ADD MLOAD PUSH2 0x16C1 PUSH1 0x0 DUP7 ADD DUP3 PUSH2 0x1609 JUMP JUMPDEST POP PUSH1 0x20 DUP4 ADD MLOAD DUP5 DUP3 SUB PUSH1 0x20 DUP7 ADD MSTORE PUSH2 0x16D9 DUP3 DUP3 PUSH2 0x166F JUMP JUMPDEST SWAP2 POP POP PUSH1 0x40 DUP4 ADD MLOAD DUP5 DUP3 SUB PUSH1 0x40 DUP7 ADD MSTORE PUSH2 0x16F3 DUP3 DUP3 PUSH2 0x166F JUMP JUMPDEST SWAP2 POP POP PUSH1 0x60 DUP4 ADD MLOAD DUP5 DUP3 SUB PUSH1 0x60 DUP7 ADD MSTORE PUSH2 0x170D DUP3 DUP3 PUSH2 0x166F JUMP JUMPDEST SWAP2 POP POP PUSH1 0x80 DUP4 ADD MLOAD DUP5 DUP3 SUB PUSH1 0x80 DUP7 ADD MSTORE PUSH2 0x1727 DUP3 DUP3 PUSH2 0x166F JUMP JUMPDEST SWAP2 POP POP PUSH1 0xA0 DUP4 ADD MLOAD DUP5 DUP3 SUB PUSH1 0xA0 DUP7 ADD MSTORE PUSH2 0x1741 DUP3 DUP3 PUSH2 0x166F JUMP JUMPDEST SWAP2 POP POP PUSH1 0xC0 DUP4 ADD MLOAD PUSH2 0x1756 PUSH1 0xC0 DUP7 ADD DUP3 PUSH2 0x1609 JUMP JUMPDEST POP PUSH1 0xE0 DUP4 ADD MLOAD DUP5 DUP3 SUB PUSH1 0xE0 DUP7 ADD MSTORE PUSH2 0x176E DUP3 DUP3 PUSH2 0x166F JUMP JUMPDEST SWAP2 POP POP PUSH2 0x100 DUP4 ADD MLOAD DUP5 DUP3 SUB PUSH2 0x100 DUP7 ADD MSTORE PUSH2 0x178A DUP3 DUP3 PUSH2 0x166F JUMP JUMPDEST SWAP2 POP POP PUSH2 0x120 DUP4 ADD MLOAD PUSH2 0x17A1 PUSH2 0x120 DUP7 ADD DUP3 PUSH2 0x1609 JUMP JUMPDEST POP DUP1 SWAP2 POP POP SWAP3 SWAP2 POP POP JUMP JUMPDEST PUSH1 0x0 PUSH1 0x20 DUP3 ADD SWAP1 POP DUP2 DUP2 SUB PUSH1 0x0 DUP4 ADD MSTORE PUSH2 0x17C6 DUP2 DUP5 PUSH2 0x16A8 JUMP JUMPDEST SWAP1 POP SWAP3 SWAP2 POP POP JUMP JUMPDEST PUSH2 0x17D7 DUP2 PUSH2 0x15A6 JUMP JUMPDEST DUP3 MSTORE POP POP JUMP JUMPDEST PUSH1 0x0 DUP3 DUP3 MSTORE PUSH1 0x20 DUP3 ADD SWAP1 POP SWAP3 SWAP2 POP POP JUMP JUMPDEST PUSH1 0x0 PUSH2 0x17F9 DUP3 PUSH2 0x1618 JUMP JUMPDEST PUSH2 0x1803 DUP2 DUP6 PUSH2 0x17DD JUMP JUMPDEST SWAP4 POP PUSH2 0x1813 DUP2 DUP6 PUSH1 0x20 DUP7 ADD PUSH2 0x1634 JUMP JUMPDEST PUSH2 0x181C DUP2 PUSH2 0x165E JUMP JUMPDEST DUP5 ADD SWAP2 POP POP SWAP3 SWAP2 POP POP JUMP JUMPDEST PUSH1 0x0 PUSH2 0x140 DUP3 ADD SWAP1 POP PUSH2 0x183D PUSH1 0x0 DUP4 ADD DUP14 PUSH2 0x17CE JUMP JUMPDEST DUP2 DUP2 SUB PUSH1 0x20 DUP4 ADD MSTORE PUSH2 0x184F DUP2 DUP13 PUSH2 0x17EE JUMP JUMPDEST SWAP1 POP DUP2 DUP2 SUB PUSH1 0x40 DUP4 ADD MSTORE PUSH2 0x1863 DUP2 DUP12 PUSH2 0x17EE JUMP JUMPDEST SWAP1 POP DUP2 DUP2 SUB PUSH1 0x60 DUP4 ADD MSTORE PUSH2 0x1877 DUP2 DUP11 PUSH2 0x17EE JUMP JUMPDEST SWAP1 POP DUP2 DUP2 SUB PUSH1 0x80 DUP4 ADD MSTORE PUSH2 0x188B DUP2 DUP10 PUSH2 0x17EE JUMP JUMPDEST SWAP1 POP DUP2 DUP2 SUB PUSH1 0xA0 DUP4 ADD MSTORE PUSH2 0x189F DUP2 DUP9 PUSH2 0x17EE JUMP JUMPDEST SWAP1 POP PUSH2 0x18AE PUSH1 0xC0 DUP4 ADD DUP8 PUSH2 0x17CE JUMP JUMPDEST DUP2 DUP2 SUB PUSH1 0xE0 DUP4 ADD MSTORE PUSH2 0x18C0 DUP2 DUP7 PUSH2 0x17EE JUMP JUMPDEST SWAP1 POP DUP2 DUP2 SUB PUSH2 0x100 DUP4 ADD MSTORE PUSH2 0x18D5 DUP2 DUP6 PUSH2 0x17EE JUMP JUMPDEST SWAP1 POP PUSH2 0x18E5 PUSH2 0x120 DUP4 ADD DUP5 PUSH2 0x17CE JUMP JUMPDEST SWAP12 SWAP11 POP POP POP POP POP POP POP POP POP POP POP JUMP JUMPDEST PUSH1 0x0 DUP2 MLOAD SWAP1 POP SWAP2 SWAP1 POP JUMP JUMPDEST PUSH1 0x0 DUP3 DUP3 MSTORE PUSH1 0x20 DUP3 ADD SWAP1 POP SWAP3 SWAP2 POP POP JUMP JUMPDEST PUSH1 0x0 DUP2 SWAP1 POP PUSH1 0x20 DUP3 ADD SWAP1 POP SWAP2 SWAP1 POP JUMP JUMPDEST PUSH1 0x0 PUSH2 0x140 DUP4 ADD PUSH1 0x0 DUP4 ADD MLOAD PUSH2 0x1939 PUSH1 0x0 DUP7 ADD DUP3 PUSH2 0x1609 JUMP JUMPDEST POP PUSH1 0x20 DUP4 ADD MLOAD DUP5 DUP3 SUB PUSH1 0x20 DUP7 ADD MSTORE PUSH2 0x1951 DUP3 DUP3 PUSH2 0x166F JUMP JUMPDEST SWAP2 POP POP PUSH1 0x40 DUP4 ADD MLOAD DUP5 DUP3 SUB PUSH1 0x40 DUP7 ADD MSTORE PUSH2 0x196B DUP3 DUP3 PUSH2 0x166F JUMP JUMPDEST SWAP2 POP POP PUSH1 0x60 DUP4 ADD MLOAD DUP5 DUP3 SUB PUSH1 0x60 DUP7 ADD MSTORE PUSH2 0x1985 DUP3 DUP3 PUSH2 0x166F JUMP JUMPDEST SWAP2 POP POP PUSH1 0x80 DUP4 ADD MLOAD DUP5 DUP3 SUB PUSH1 0x80 DUP7 ADD MSTORE PUSH2 0x199F DUP3 DUP3 PUSH2 0x166F JUMP JUMPDEST SWAP2 POP POP PUSH1 0xA0 DUP4 ADD MLOAD DUP5 DUP3 SUB PUSH1 0xA0 DUP7 ADD MSTORE PUSH2 0x19B9 DUP3 DUP3 PUSH2 0x166F JUMP JUMPDEST SWAP2 POP POP PUSH1 0xC0 DUP4 ADD MLOAD PUSH2 0x19CE PUSH1 0xC0 DUP7 ADD DUP3 PUSH2 0x1609 JUMP JUMPDEST POP PUSH1 0xE0 DUP4 ADD MLOAD DUP5 DUP3 SUB PUSH1 0xE0 DUP7 ADD MSTORE PUSH2 0x19E6 DUP3 DUP3 PUSH2 0x166F JUMP JUMPDEST SWAP2 POP POP PUSH2 0x100 DUP4 ADD MLOAD DUP5 DUP3 SUB PUSH2 0x100 DUP7 ADD MSTORE PUSH2 0x1A02 DUP3 DUP3 PUSH2 0x166F JUMP JUMPDEST SWAP2 POP POP PUSH2 0x120 DUP4 ADD MLOAD PUSH2 0x1A19 PUSH2 0x120 DUP7 ADD DUP3 PUSH2 0x1609 JUMP JUMPDEST POP DUP1 SWAP2 POP POP SWAP3 SWAP2 POP POP JUMP JUMPDEST PUSH1 0x0 PUSH2 0x1A30 DUP4 DUP4 PUSH2 0x1920 JUMP JUMPDEST SWAP1 POP SWAP3 SWAP2 POP POP JUMP JUMPDEST PUSH1 0x0 PUSH1 0x20 DUP3 ADD SWAP1 POP SWAP2 SWAP1 POP JUMP JUMPDEST PUSH1 0x0 PUSH2 0x1A50 DUP3 PUSH2 0x18F4 JUMP JUMPDEST PUSH2 0x1A5A DUP2 DUP6 PUSH2 0x18FF JUMP JUMPDEST SWAP4 POP DUP4 PUSH1 0x20 DUP3 MUL DUP6 ADD PUSH2 0x1A6C DUP6 PUSH2 0x1910 JUMP JUMPDEST DUP1 PUSH1 0x0 JUMPDEST DUP6 DUP2 LT ISZERO PUSH2 0x1AA8 JUMPI DUP5 DUP5 SUB DUP10 MSTORE DUP2 MLOAD PUSH2 0x1A89 DUP6 DUP3 PUSH2 0x1A24 JUMP JUMPDEST SWAP5 POP PUSH2 0x1A94 DUP4 PUSH2 0x1A38 JUMP JUMPDEST SWAP3 POP PUSH1 0x20 DUP11 ADD SWAP10 POP POP PUSH1 0x1 DUP2 ADD SWAP1 POP PUSH2 0x1A70 JUMP JUMPDEST POP DUP3 SWAP8 POP DUP8 SWAP6 POP POP POP POP POP POP SWAP3 SWAP2 POP POP JUMP JUMPDEST PUSH1 0x0 PUSH1 0x20 DUP3 ADD SWAP1 POP DUP2 DUP2 SUB PUSH1 0x0 DUP4 ADD MSTORE PUSH2 0x1AD4 DUP2 DUP5 PUSH2 0x1A45 JUMP JUMPDEST SWAP1 POP SWAP3 SWAP2 POP POP JUMP JUMPDEST PUSH1 0x0 PUSH1 0x20 DUP3 ADD SWAP1 POP PUSH2 0x1AF1 PUSH1 0x0 DUP4 ADD DUP5 PUSH2 0x17CE JUMP JUMPDEST SWAP3 SWAP2 POP POP JUMP JUMPDEST PUSH1 0x0 DUP1 REVERT JUMPDEST PUSH1 0x0 DUP1 REVERT JUMPDEST PUSH32 0x4E487B7100000000000000000000000000000000000000000000000000000000 PUSH1 0x0 MSTORE PUSH1 0x41 PUSH1 0x4 MSTORE PUSH1 0x24 PUSH1 0x0 REVERT JUMPDEST PUSH2 0x1B39 DUP3 PUSH2 0x165E JUMP JUMPDEST DUP2 ADD DUP2 DUP2 LT PUSH8 0xFFFFFFFFFFFFFFFF DUP3 GT OR ISZERO PUSH2 0x1B58 JUMPI PUSH2 0x1B57 PUSH2 0x1B01 JUMP JUMPDEST JUMPDEST DUP1 PUSH1 0x40 MSTORE POP POP POP JUMP JUMPDEST PUSH1 0x0 PUSH2 0x1B6B PUSH2 0x1592 JUMP JUMPDEST SWAP1 POP PUSH2 0x1B77 DUP3 DUP3 PUSH2 0x1B30 JUMP JUMPDEST SWAP2 SWAP1 POP JUMP JUMPDEST PUSH1 0x0 PUSH8 0xFFFFFFFFFFFFFFFF DUP3 GT ISZERO PUSH2 0x1B97 JUMPI PUSH2 0x1B96 PUSH2 0x1B01 JUMP JUMPDEST JUMPDEST PUSH2 0x1BA0 DUP3 PUSH2 0x165E JUMP JUMPDEST SWAP1 POP PUSH1 0x20 DUP2 ADD SWAP1 POP SWAP2 SWAP1 POP JUMP JUMPDEST DUP3 DUP2 DUP4 CALLDATACOPY PUSH1 0x0 DUP4 DUP4 ADD MSTORE POP POP POP JUMP JUMPDEST PUSH1 0x0 PUSH2 0x1BCF PUSH2 0x1BCA DUP5 PUSH2 0x1B7C JUMP JUMPDEST PUSH2 0x1B61 JUMP JUMPDEST SWAP1 POP DUP3 DUP2 MSTORE PUSH1 0x20 DUP2 ADD DUP5 DUP5 DUP5 ADD GT ISZERO PUSH2 0x1BEB JUMPI PUSH2 0x1BEA PUSH2 0x1AFC JUMP JUMPDEST JUMPDEST PUSH2 0x1BF6 DUP5 DUP3 DUP6 PUSH2 0x1BAD JUMP JUMPDEST POP SWAP4 SWAP3 POP POP POP JUMP JUMPDEST PUSH1 0x0 DUP3 PUSH1 0x1F DUP4 ADD SLT PUSH2 0x1C13 JUMPI PUSH2 0x1C12 PUSH2 0x1AF7 JUMP JUMPDEST JUMPDEST DUP2 CALLDATALOAD PUSH2 0x1C23 DUP5 DUP3 PUSH1 0x20 DUP7 ADD PUSH2 0x1BBC JUMP JUMPDEST SWAP2 POP POP SWAP3 SWAP2 POP POP JUMP JUMPDEST PUSH1 0x0 DUP1 PUSH1 0x0 PUSH1 0x60 DUP5 DUP7 SUB SLT ISZERO PUSH2 0x1C45 JUMPI PUSH2 0x1C44 PUSH2 0x159C JUMP JUMPDEST JUMPDEST PUSH1 0x0 PUSH2 0x1C53 DUP7 DUP3 DUP8 ADD PUSH2 0x15C7 JUMP JUMPDEST SWAP4 POP POP PUSH1 0x20 DUP5 ADD CALLDATALOAD PUSH8 0xFFFFFFFFFFFFFFFF DUP2 GT ISZERO PUSH2 0x1C74 JUMPI PUSH2 0x1C73 PUSH2 0x15A1 JUMP JUMPDEST JUMPDEST PUSH2 0x1C80 DUP7 DUP3 DUP8 ADD PUSH2 0x1BFE JUMP JUMPDEST SWAP3 POP POP PUSH1 0x40 PUSH2 0x1C91 DUP7 DUP3 DUP8 ADD PUSH2 0x15C7 JUMP JUMPDEST SWAP2 POP POP SWAP3 POP SWAP3 POP SWAP3 JUMP JUMPDEST PUSH1 0x0 DUP1 PUSH1 0x0 DUP1 PUSH1 0x0 DUP1 PUSH1 0x0 DUP1 PUSH1 0x0 PUSH2 0x120 DUP11 DUP13 SUB SLT ISZERO PUSH2 0x1CBE JUMPI PUSH2 0x1CBD PUSH2 0x159C JUMP JUMPDEST JUMPDEST PUSH1 0x0 DUP11 ADD CALLDATALOAD PUSH8 0xFFFFFFFFFFFFFFFF DUP2 GT ISZERO PUSH2 0x1CDC JUMPI PUSH2 0x1CDB PUSH2 0x15A1 JUMP JUMPDEST JUMPDEST PUSH2 0x1CE8 DUP13 DUP3 DUP14 ADD PUSH2 0x1BFE JUMP JUMPDEST SWAP10 POP POP PUSH1 0x20 DUP11 ADD CALLDATALOAD PUSH8 0xFFFFFFFFFFFFFFFF DUP2 GT ISZERO PUSH2 0x1D09 JUMPI PUSH2 0x1D08 PUSH2 0x15A1 JUMP JUMPDEST JUMPDEST PUSH2 0x1D15 DUP13 DUP3 DUP14 ADD PUSH2 0x1BFE JUMP JUMPDEST SWAP9 POP POP PUSH1 0x40 DUP11 ADD CALLDATALOAD PUSH8 0xFFFFFFFFFFFFFFFF DUP2 GT ISZERO PUSH2 0x1D36 JUMPI PUSH2 0x1D35 PUSH2 0x15A1 JUMP JUMPDEST JUMPDEST PUSH2 0x1D42 DUP13 DUP3 DUP14 ADD PUSH2 0x1BFE JUMP JUMPDEST SWAP8 POP POP PUSH1 0x60 DUP11 ADD CALLDATALOAD PUSH8 0xFFFFFFFFFFFFFFFF DUP2 GT ISZERO PUSH2 0x1D63 JUMPI PUSH2 0x1D62 PUSH2 0x15A1 JUMP JUMPDEST JUMPDEST PUSH2 0x1D6F DUP13 DUP3 DUP14 ADD PUSH2 0x1BFE JUMP JUMPDEST SWAP7 POP POP PUSH1 0x80 DUP11 ADD CALLDATALOAD PUSH8 0xFFFFFFFFFFFFFFFF DUP2 GT ISZERO PUSH2 0x1D90 JUMPI PUSH2 0x1D8F PUSH2 0x15A1 JUMP JUMPDEST JUMPDEST PUSH2 0x1D9C DUP13 DUP3 DUP14 ADD PUSH2 0x1BFE JUMP JUMPDEST SWAP6 POP POP PUSH1 0xA0 PUSH2 0x1DAD DUP13 DUP3 DUP14 ADD PUSH2 0x15C7 JUMP JUMPDEST SWAP5 POP POP PUSH1 0xC0 DUP11 ADD CALLDATALOAD PUSH8 0xFFFFFFFFFFFFFFFF DUP2 GT ISZERO PUSH2 0x1DCE JUMPI PUSH2 0x1DCD PUSH2 0x15A1 JUMP JUMPDEST JUMPDEST PUSH2 0x1DDA DUP13 DUP3 DUP14 ADD PUSH2 0x1BFE JUMP JUMPDEST SWAP4 POP POP PUSH1 0xE0 DUP11 ADD CALLDATALOAD PUSH8 0xFFFFFFFFFFFFFFFF DUP2 GT ISZERO PUSH2 0x1DFB JUMPI PUSH2 0x1DFA PUSH2 0x15A1 JUMP JUMPDEST JUMPDEST PUSH2 0x1E07 DUP13 DUP3 DUP14 ADD PUSH2 0x1BFE JUMP JUMPDEST SWAP3 POP POP PUSH2 0x100 PUSH2 0x1E19 DUP13 DUP3 DUP14 ADD PUSH2 0x15C7 JUMP JUMPDEST SWAP2 POP POP SWAP3 SWAP6 SWAP9 POP SWAP3 SWAP6 SWAP9 POP SWAP3 SWAP6 SWAP9 JUMP JUMPDEST PUSH32 0x4E487B7100000000000000000000000000000000000000000000000000000000 PUSH1 0x0 MSTORE PUSH1 0x22 PUSH1 0x4 MSTORE PUSH1 0x24 PUSH1 0x0 REVERT JUMPDEST PUSH1 0x0 PUSH1 0x2 DUP3 DIV SWAP1 POP PUSH1 0x1 DUP3 AND DUP1 PUSH2 0x1E70 JUMPI PUSH1 0x7F DUP3 AND SWAP2 POP JUMPDEST PUSH1 0x20 DUP3 LT DUP2 SUB PUSH2 0x1E83 JUMPI PUSH2 0x1E82 PUSH2 0x1E29 JUMP JUMPDEST JUMPDEST POP SWAP2 SWAP1 POP JUMP JUMPDEST PUSH32 0x4E487B7100000000000000000000000000000000000000000000000000000000 PUSH1 0x0 MSTORE PUSH1 0x11 PUSH1 0x4 MSTORE PUSH1 0x24 PUSH1 0x0 REVERT JUMPDEST PUSH1 0x0 PUSH2 0x1EC3 DUP3 PUSH2 0x15A6 JUMP JUMPDEST SWAP2 POP PUSH2 0x1ECE DUP4 PUSH2 0x15A6 JUMP JUMPDEST SWAP3 POP DUP3 DUP3 SUB SWAP1 POP DUP2 DUP2 GT ISZERO PUSH2 0x1EE6 JUMPI PUSH2 0x1EE5 PUSH2 0x1E89 JUMP JUMPDEST JUMPDEST SWAP3 SWAP2 POP POP JUMP JUMPDEST PUSH32 0x4E487B7100000000000000000000000000000000000000000000000000000000 PUSH1 0x0 MSTORE PUSH1 0x32 PUSH1 0x4 MSTORE PUSH1 0x24 PUSH1 0x0 REVERT JUMPDEST PUSH1 0x0 PUSH2 0x1F26 DUP3 PUSH2 0x15A6 JUMP JUMPDEST SWAP2 POP PUSH32 0xFFFFFFFFFFFFFFFFFFFFFFFFFFFFFFFFFFFFFFFFFFFFFFFFFFFFFFFFFFFFFFFF DUP3 SUB PUSH2 0x1F58 JUMPI PUSH2 0x1F57 PUSH2 0x1E89 JUMP JUMPDEST JUMPDEST PUSH1 0x1 DUP3 ADD SWAP1 POP SWAP2 SWAP1 POP JUMP JUMPDEST PUSH1 0x0 DUP2 SWAP1 POP DUP2 PUSH1 0x0 MSTORE PUSH1 0x20 PUSH1 0x0 KECCAK256 SWAP1 POP SWAP2 SWAP1 POP JUMP JUMPDEST PUSH1 0x0 PUSH1 0x20 PUSH1 0x1F DUP4 ADD DIV SWAP1 POP SWAP2 SWAP1 POP JUMP JUMPDEST PUSH1 0x0 DUP3 DUP3 SHL SWAP1 POP SWAP3 SWAP2 POP POP JUMP JUMPDEST PUSH1 0x0 PUSH1 0x8 DUP4 MUL PUSH2 0x1FC5 PUSH32 0xFFFFFFFFFFFFFFFFFFFFFFFFFFFFFFFFFFFFFFFFFFFFFFFFFFFFFFFFFFFFFFFF DUP3 PUSH2 0x1F88 JUMP JUMPDEST PUSH2 0x1FCF DUP7 DUP4 PUSH2 0x1F88 JUMP JUMPDEST SWAP6 POP DUP1 NOT DUP5 AND SWAP4 POP DUP1 DUP7 AND DUP5 OR SWAP3 POP POP POP SWAP4 SWAP3 POP POP POP JUMP JUMPDEST PUSH1 0x0 DUP2 SWAP1 POP SWAP2 SWAP1 POP JUMP JUMPDEST PUSH1 0x0 PUSH2 0x200C PUSH2 0x2007 PUSH2 0x2002 DUP5 PUSH2 0x15A6 JUMP JUMPDEST PUSH2 0x1FE7 JUMP JUMPDEST PUSH2 0x15A6 JUMP JUMPDEST SWAP1 POP SWAP2 SWAP1 POP JUMP JUMPDEST PUSH1 0x0 DUP2 SWAP1 POP SWAP2 SWAP1 POP JUMP JUMPDEST PUSH2 0x2026 DUP4 PUSH2 0x1FF1 JUMP JUMPDEST PUSH2 0x203A PUSH2 0x2032 DUP3 PUSH2 0x2013 JUMP JUMPDEST DUP5 DUP5 SLOAD PUSH2 0x1F95 JUMP JUMPDEST DUP3 SSTORE POP POP POP POP JUMP JUMPDEST PUSH1 0x0 SWAP1 JUMP JUMPDEST PUSH2 0x204F PUSH2 0x2042 JUMP JUMPDEST PUSH2 0x205A DUP2 DUP5 DUP5 PUSH2 0x201D JUMP JUMPDEST POP POP POP JUMP JUMPDEST JUMPDEST DUP2 DUP2 LT ISZERO PUSH2 0x207E JUMPI PUSH2 0x2073 PUSH1 0x0 DUP3 PUSH2 0x2047 JUMP JUMPDEST PUSH1 0x1 DUP2 ADD SWAP1 POP PUSH2 0x2060 JUMP JUMPDEST POP POP JUMP JUMPDEST PUSH1 0x1F DUP3 GT ISZERO PUSH2 0x20C3 JUMPI PUSH2 0x2094 DUP2 PUSH2 0x1F63 JUMP JUMPDEST PUSH2 0x209D DUP5 PUSH2 0x1F78 JUMP JUMPDEST DUP2 ADD PUSH1 0x20 DUP6 LT ISZERO PUSH2 0x20AC JUMPI DUP2 SWAP1 POP JUMPDEST PUSH2 0x20C0 PUSH2 0x20B8 DUP6 PUSH2 0x1F78 JUMP JUMPDEST DUP4 ADD DUP3 PUSH2 0x205F JUMP JUMPDEST POP POP JUMPDEST POP POP POP JUMP JUMPDEST PUSH1 0x0 DUP3 DUP3 SHR SWAP1 POP SWAP3 SWAP2 POP POP JUMP JUMPDEST PUSH1 0x0 PUSH2 0x20E6 PUSH1 0x0 NOT DUP5 PUSH1 0x8 MUL PUSH2 0x20C8 JUMP JUMPDEST NOT DUP1 DUP4 AND SWAP2 POP POP SWAP3 SWAP2 POP POP JUMP JUMPDEST PUSH1 0x0 PUSH2 0x20FF DUP4 DUP4 PUSH2 0x20D5 JUMP JUMPDEST SWAP2 POP DUP3 PUSH1 0x2 MUL DUP3 OR SWAP1 POP SWAP3 SWAP2 POP POP JUMP JUMPDEST PUSH2 0x2118 DUP3 PUSH2 0x1618 JUMP JUMPDEST PUSH8 0xFFFFFFFFFFFFFFFF DUP2 GT ISZERO PUSH2 0x2131 JUMPI PUSH2 0x2130 PUSH2 0x1B01 JUMP JUMPDEST JUMPDEST PUSH2 0x213B DUP3 SLOAD PUSH2 0x1E58 JUMP JUMPDEST PUSH2 0x2146 DUP3 DUP3 DUP6 PUSH2 0x2082 JUMP JUMPDEST PUSH1 0x0 PUSH1 0x20 SWAP1 POP PUSH1 0x1F DUP4 GT PUSH1 0x1 DUP2 EQ PUSH2 0x2179 JUMPI PUSH1 0x0 DUP5 ISZERO PUSH2 0x2167 JUMPI DUP3 DUP8 ADD MLOAD SWAP1 POP JUMPDEST PUSH2 0x2171 DUP6 DUP3 PUSH2 0x20F3 JUMP JUMPDEST DUP7 SSTORE POP PUSH2 0x21D9 JUMP JUMPDEST PUSH1 0x1F NOT DUP5 AND PUSH2 0x2187 DUP7 PUSH2 0x1F63 JUMP JUMPDEST PUSH1 0x0 JUMPDEST DUP3 DUP2 LT ISZERO PUSH2 0x21AF JUMPI DUP5 DUP10 ADD MLOAD DUP3 SSTORE PUSH1 0x1 DUP3 ADD SWAP2 POP PUSH1 0x20 DUP6 ADD SWAP5 POP PUSH1 0x20 DUP2 ADD SWAP1 POP PUSH2 0x218A JUMP JUMPDEST DUP7 DUP4 LT ISZERO PUSH2 0x21CC JUMPI DUP5 DUP10 ADD MLOAD PUSH2 0x21C8 PUSH1 0x1F DUP10 AND DUP3 PUSH2 0x20D5 JUMP JUMPDEST DUP4 SSTORE POP JUMPDEST PUSH1 0x1 PUSH1 0x2 DUP9 MUL ADD DUP9 SSTORE POP POP POP JUMPDEST POP POP POP POP POP POP JUMP INVALID LOG2 PUSH5 0x6970667358 0x22 SLT KECCAK256 0x4C 0x49 EXTCODEHASH JUMPI 0x28 0xDE 0x28 PUSH30 0xDB612E6AF485EC9FCCA3442DD5D0D7D3A9CB7F2F0F005AD664736F6C6343 STOP ADDMOD LT STOP CALLER "
				},
				"gasEstimates": {
					"creation": {
						"codeDepositCost": "1745400",
						"executionCost": "1834",
						"totalCost": "1747234"
					},
					"external": {
						"addTransaction(string,string,string,string,string,uint256,string,string,uint256)": "infinite",
						"getAllTransaction()": "infinite",
						"getTransaction(uint256)": "infinite",
						"transactionCount()": "2473",
						"transactions(uint256)": "infinite",
						"updatePaymentStatus(uint256,string,uint256)": "infinite"
					}
				},
				"methodIdentifiers": {
					"addTransaction(string,string,string,string,string,uint256,string,string,uint256)": "eb559a1e",
					"getAllTransaction()": "add6415d",
					"getTransaction(uint256)": "33ea3dc8",
					"transactionCount()": "b77bf600",
					"transactions(uint256)": "9ace38c2",
					"updatePaymentStatus(uint256,string,uint256)": "ce8481fd"
				}
			},
			"storageLayout": {
				"storage": [
					{
						"astId": 27,
						"contract": "contracts/TransactionContractUpdatePyament.sol:TransactionContract",
						"label": "transactions",
						"offset": 0,
						"slot": "0",
						"type": "t_mapping(t_uint256,t_struct(Transaction)22_storage)"
					},
					{
						"astId": 29,
						"contract": "contracts/TransactionContractUpdatePyament.sol:TransactionContract",
						"label": "transactionCount",
						"offset": 0,
						"slot": "1",
						"type": "t_uint256"
					}
				],
				"types": {
					"t_mapping(t_uint256,t_struct(Transaction)22_storage)": {
						"encoding": "mapping",
						"key": "t_uint256",
						"label": "mapping(uint256 => struct TransactionContract.Transaction)",
						"numberOfBytes": "32",
						"value": "t_struct(Transaction)22_storage"
					},
					"t_string_storage": {
						"encoding": "bytes",
						"label": "string",
						"numberOfBytes": "32"
					},
					"t_struct(Transaction)22_storage": {
						"encoding": "inplace",
						"label": "struct TransactionContract.Transaction",
						"members": [
							{
								"astId": 3,
								"contract": "contracts/TransactionContractUpdatePyament.sol:TransactionContract",
								"label": "transactionId",
								"offset": 0,
								"slot": "0",
								"type": "t_uint256"
							},
							{
								"astId": 5,
								"contract": "contracts/TransactionContractUpdatePyament.sol:TransactionContract",
								"label": "transactionCode",
								"offset": 0,
								"slot": "1",
								"type": "t_string_storage"
							},
							{
								"astId": 7,
								"contract": "contracts/TransactionContractUpdatePyament.sol:TransactionContract",
								"label": "buyer",
								"offset": 0,
								"slot": "2",
								"type": "t_string_storage"
							},
							{
								"astId": 9,
								"contract": "contracts/TransactionContractUpdatePyament.sol:TransactionContract",
								"label": "buyerId",
								"offset": 0,
								"slot": "3",
								"type": "t_string_storage"
							},
							{
								"astId": 11,
								"contract": "contracts/TransactionContractUpdatePyament.sol:TransactionContract",
								"label": "sellerCompany",
								"offset": 0,
								"slot": "4",
								"type": "t_string_storage"
							},
							{
								"astId": 13,
								"contract": "contracts/TransactionContractUpdatePyament.sol:TransactionContract",
								"label": "sellerId",
								"offset": 0,
								"slot": "5",
								"type": "t_string_storage"
							},
							{
								"astId": 15,
								"contract": "contracts/TransactionContractUpdatePyament.sol:TransactionContract",
								"label": "sumOfProduct",
								"offset": 0,
								"slot": "6",
								"type": "t_uint256"
							},
							{
								"astId": 17,
								"contract": "contracts/TransactionContractUpdatePyament.sol:TransactionContract",
								"label": "totalPrice",
								"offset": 0,
								"slot": "7",
								"type": "t_string_storage"
							},
							{
								"astId": 19,
								"contract": "contracts/TransactionContractUpdatePyament.sol:TransactionContract",
								"label": "paymentStatus",
								"offset": 0,
								"slot": "8",
								"type": "t_string_storage"
							},
							{
								"astId": 21,
								"contract": "contracts/TransactionContractUpdatePyament.sol:TransactionContract",
								"label": "createdAt",
								"offset": 0,
								"slot": "9",
								"type": "t_uint256"
							}
						],
						"numberOfBytes": "320"
					},
					"t_uint256": {
						"encoding": "inplace",
						"label": "uint256",
						"numberOfBytes": "32"
					}
				}
			},
			"userdoc": {
				"kind": "user",
				"methods": {},
				"version": 1
			}
		}
	}
}