{
	"contracts/TransactionContract28April1.sol": {
		"TransactionContract": {
			"abi": [
				{
					"anonymous": false,
					"inputs": [
						{
							"indexed": true,
							"internalType": "uint256",
							"name": "transactionId",
							"type": "uint256"
						},
						{
							"indexed": false,
							"internalType": "string",
							"name": "paymentStatus",
							"type": "string"
						},
						{
							"indexed": false,
							"internalType": "uint256",
							"name": "updatedAt",
							"type": "uint256"
						}
					],
					"name": "PaymentStatusUpdated",
					"type": "event"
				},
				{
					"anonymous": false,
					"inputs": [
						{
							"indexed": true,
							"internalType": "uint256",
							"name": "transactionId",
							"type": "uint256"
						},
						{
							"indexed": false,
							"internalType": "string",
							"name": "transactionCode",
							"type": "string"
						},
						{
							"indexed": false,
							"internalType": "string",
							"name": "buyer",
							"type": "string"
						},
						{
							"indexed": false,
							"internalType": "string",
							"name": "buyerId",
							"type": "string"
						},
						{
							"indexed": false,
							"internalType": "string",
							"name": "sellerCompany",
							"type": "string"
						},
						{
							"indexed": false,
							"internalType": "string",
							"name": "sellerId",
							"type": "string"
						},
						{
							"indexed": false,
							"internalType": "string",
							"name": "paymentStatus",
							"type": "string"
						},
						{
							"indexed": false,
							"internalType": "uint256",
							"name": "createdAt",
							"type": "uint256"
						}
					],
					"name": "TransactionAdded",
					"type": "event"
				},
				{
					"inputs": [
						{
							"internalType": "string",
							"name": "_transactionCode",
							"type": "string"
						},
						{
							"internalType": "string",
							"name": "_buyer",
							"type": "string"
						},
						{
							"internalType": "string",
							"name": "_buyerId",
							"type": "string"
						},
						{
							"internalType": "string",
							"name": "_sellerCompany",
							"type": "string"
						},
						{
							"internalType": "string",
							"name": "_sellerId",
							"type": "string"
						},
						{
							"internalType": "string",
							"name": "_paymentStatus",
							"type": "string"
						},
						{
							"internalType": "uint256",
							"name": "_createdAt",
							"type": "uint256"
						}
					],
					"name": "addTransaction",
					"outputs": [],
					"stateMutability": "nonpayable",
					"type": "function"
				},
				{
					"inputs": [],
					"name": "getAllTransaction",
					"outputs": [
						{
							"components": [
								{
									"internalType": "uint256",
									"name": "transactionId",
									"type": "uint256"
								},
								{
									"internalType": "string",
									"name": "transactionCode",
									"type": "string"
								},
								{
									"internalType": "string",
									"name": "buyer",
									"type": "string"
								},
								{
									"internalType": "string",
									"name": "buyerId",
									"type": "string"
								},
								{
									"internalType": "string",
									"name": "sellerCompany",
									"type": "string"
								},
								{
									"internalType": "string",
									"name": "sellerId",
									"type": "string"
								},
								{
									"internalType": "string",
									"name": "paymentStatus",
									"type": "string"
								},
								{
									"internalType": "uint256",
									"name": "createdAt",
									"type": "uint256"
								}
							],
							"internalType": "struct TransactionContract.Transaction[]",
							"name": "",
							"type": "tuple[]"
						}
					],
					"stateMutability": "view",
					"type": "function"
				},
				{
					"inputs": [
						{
							"internalType": "uint256",
							"name": "_transactionId",
							"type": "uint256"
						}
					],
					"name": "getTransaction",
					"outputs": [
						{
							"components": [
								{
									"internalType": "uint256",
									"name": "transactionId",
									"type": "uint256"
								},
								{
									"internalType": "string",
									"name": "transactionCode",
									"type": "string"
								},
								{
									"internalType": "string",
									"name": "buyer",
									"type": "string"
								},
								{
									"internalType": "string",
									"name": "buyerId",
									"type": "string"
								},
								{
									"internalType": "string",
									"name": "sellerCompany",
									"type": "string"
								},
								{
									"internalType": "string",
									"name": "sellerId",
									"type": "string"
								},
								{
									"internalType": "string",
									"name": "paymentStatus",
									"type": "string"
								},
								{
									"internalType": "uint256",
									"name": "createdAt",
									"type": "uint256"
								}
							],
							"internalType": "struct TransactionContract.Transaction",
							"name": "",
							"type": "tuple"
						}
					],
					"stateMutability": "view",
					"type": "function"
				},
				{
					"inputs": [
						{
							"internalType": "string",
							"name": "_buyerId",
							"type": "string"
						}
					],
					"name": "getTransactionByBuyerId",
					"outputs": [
						{
							"components": [
								{
									"internalType": "uint256",
									"name": "transactionId",
									"type": "uint256"
								},
								{
									"internalType": "string",
									"name": "transactionCode",
									"type": "string"
								},
								{
									"internalType": "string",
									"name": "buyer",
									"type": "string"
								},
								{
									"internalType": "string",
									"name": "buyerId",
									"type": "string"
								},
								{
									"internalType": "string",
									"name": "sellerCompany",
									"type": "string"
								},
								{
									"internalType": "string",
									"name": "sellerId",
									"type": "string"
								},
								{
									"internalType": "string",
									"name": "paymentStatus",
									"type": "string"
								},
								{
									"internalType": "uint256",
									"name": "createdAt",
									"type": "uint256"
								}
							],
							"internalType": "struct TransactionContract.Transaction[]",
							"name": "",
							"type": "tuple[]"
						}
					],
					"stateMutability": "view",
					"type": "function"
				},
				{
					"inputs": [
						{
							"internalType": "string",
							"name": "_sellerId",
							"type": "string"
						}
					],
					"name": "getTransactionBySellerId",
					"outputs": [
						{
							"components": [
								{
									"internalType": "uint256",
									"name": "transactionId",
									"type": "uint256"
								},
								{
									"internalType": "string",
									"name": "transactionCode",
									"type": "string"
								},
								{
									"internalType": "string",
									"name": "buyer",
									"type": "string"
								},
								{
									"internalType": "string",
									"name": "buyerId",
									"type": "string"
								},
								{
									"internalType": "string",
									"name": "sellerCompany",
									"type": "string"
								},
								{
									"internalType": "string",
									"name": "sellerId",
									"type": "string"
								},
								{
									"internalType": "string",
									"name": "paymentStatus",
									"type": "string"
								},
								{
									"internalType": "uint256",
									"name": "createdAt",
									"type": "uint256"
								}
							],
							"internalType": "struct TransactionContract.Transaction[]",
							"name": "",
							"type": "tuple[]"
						}
					],
					"stateMutability": "view",
					"type": "function"
				},
				{
					"inputs": [],
					"name": "transactionCount",
					"outputs": [
						{
							"internalType": "uint256",
							"name": "",
							"type": "uint256"
						}
					],
					"stateMutability": "view",
					"type": "function"
				},
				{
					"inputs": [
						{
							"internalType": "uint256",
							"name": "",
							"type": "uint256"
						}
					],
					"name": "transactions",
					"outputs": [
						{
							"internalType": "uint256",
							"name": "transactionId",
							"type": "uint256"
						},
						{
							"internalType": "string",
							"name": "transactionCode",
							"type": "string"
						},
						{
							"internalType": "string",
							"name": "buyer",
							"type": "string"
						},
						{
							"internalType": "string",
							"name": "buyerId",
							"type": "string"
						},
						{
							"internalType": "string",
							"name": "sellerCompany",
							"type": "string"
						},
						{
							"internalType": "string",
							"name": "sellerId",
							"type": "string"
						},
						{
							"internalType": "string",
							"name": "paymentStatus",
							"type": "string"
						},
						{
							"internalType": "uint256",
							"name": "createdAt",
							"type": "uint256"
						}
					],
					"stateMutability": "view",
					"type": "function"
				},
				{
					"inputs": [
						{
							"internalType": "uint256",
							"name": "_transactionId",
							"type": "uint256"
						},
						{
							"internalType": "string",
							"name": "_paymentStatus",
							"type": "string"
						},
						{
							"internalType": "uint256",
							"name": "_updatedAt",
							"type": "uint256"
						}
					],
					"name": "updatePaymentStatus",
					"outputs": [],
					"stateMutability": "nonpayable",
					"type": "function"
				}
			],
			"devdoc": {
				"kind": "dev",
				"methods": {},
				"version": 1
			},
			"evm": {
				"assembly": "    /* \"contracts/TransactionContract28April1.sol\":57:4302  contract TransactionContract {... */\n  mstore(0x40, 0x80)\n  callvalue\n  dup1\n  iszero\n  tag_1\n  jumpi\n  0x00\n  dup1\n  revert\ntag_1:\n  pop\n  dataSize(sub_0)\n  dup1\n  dataOffset(sub_0)\n  0x00\n  codecopy\n  0x00\n  return\nstop\n\nsub_0: assembly {\n        /* \"contracts/TransactionContract28April1.sol\":57:4302  contract TransactionContract {... */\n      mstore(0x40, 0x80)\n      callvalue\n      dup1\n      iszero\n      tag_1\n      jumpi\n      0x00\n      dup1\n      revert\n    tag_1:\n      pop\n      jumpi(tag_2, lt(calldatasize, 0x04))\n      shr(0xe0, calldataload(0x00))\n      dup1\n      0xadd6415d\n      gt\n      tag_11\n      jumpi\n      dup1\n      0xadd6415d\n      eq\n      tag_7\n      jumpi\n      dup1\n      0xb77bf600\n      eq\n      tag_8\n      jumpi\n      dup1\n      0xce8481fd\n      eq\n      tag_9\n      jumpi\n      dup1\n      0xe55d57df\n      eq\n      tag_10\n      jumpi\n      jump(tag_2)\n    tag_11:\n      dup1\n      0x2e9e680c\n      eq\n      tag_3\n      jumpi\n      dup1\n      0x33ea3dc8\n      eq\n      tag_4\n      jumpi\n      dup1\n      0x9311f732\n      eq\n      tag_5\n      jumpi\n      dup1\n      0x9ace38c2\n      eq\n      tag_6\n      jumpi\n    tag_2:\n      0x00\n      dup1\n      revert\n        /* \"contracts/TransactionContract28April1.sol\":815:1639  function addTransaction(... */\n    tag_3:\n      tag_12\n      0x04\n      dup1\n      calldatasize\n      sub\n      dup2\n      add\n      swap1\n      tag_13\n      swap2\n      swap1\n      tag_14\n      jump\t// in\n    tag_13:\n      tag_15\n      jump\t// in\n    tag_12:\n      stop\n        /* \"contracts/TransactionContract28April1.sol\":1645:1797  function getTransaction(... */\n    tag_4:\n      tag_16\n      0x04\n      dup1\n      calldatasize\n      sub\n      dup2\n      add\n      swap1\n      tag_17\n      swap2\n      swap1\n      tag_18\n      jump\t// in\n    tag_17:\n      tag_19\n      jump\t// in\n    tag_16:\n      mload(0x40)\n      tag_20\n      swap2\n      swap1\n      tag_21\n      jump\t// in\n    tag_20:\n      mload(0x40)\n      dup1\n      swap2\n      sub\n      swap1\n      return\n        /* \"contracts/TransactionContract28April1.sol\":3454:4300  function getTransactionBySellerId(... */\n    tag_5:\n      tag_22\n      0x04\n      dup1\n      calldatasize\n      sub\n      dup2\n      add\n      swap1\n      tag_23\n      swap2\n      swap1\n      tag_24\n      jump\t// in\n    tag_23:\n      tag_25\n      jump\t// in\n    tag_22:\n      mload(0x40)\n      tag_26\n      swap2\n      swap1\n      tag_27\n      jump\t// in\n    tag_26:\n      mload(0x40)\n      dup1\n      swap2\n      sub\n      swap1\n      return\n        /* \"contracts/TransactionContract28April1.sol\":726:774  mapping(uint => Transaction) public transactions */\n    tag_6:\n      tag_28\n      0x04\n      dup1\n      calldatasize\n      sub\n      dup2\n      add\n      swap1\n      tag_29\n      swap2\n      swap1\n      tag_18\n      jump\t// in\n    tag_29:\n      tag_30\n      jump\t// in\n    tag_28:\n      mload(0x40)\n      tag_31\n      swap9\n      swap8\n      swap7\n      swap6\n      swap5\n      swap4\n      swap3\n      swap2\n      swap1\n      tag_32\n      jump\t// in\n    tag_31:\n      mload(0x40)\n      dup1\n      swap2\n      sub\n      swap1\n      return\n        /* \"contracts/TransactionContract28April1.sol\":2272:2602  function getAllTransaction() public view returns (Transaction[] memory) {... */\n    tag_7:\n      tag_33\n      tag_34\n      jump\t// in\n    tag_33:\n      mload(0x40)\n      tag_35\n      swap2\n      swap1\n      tag_27\n      jump\t// in\n    tag_35:\n      mload(0x40)\n      dup1\n      swap2\n      sub\n      swap1\n      return\n        /* \"contracts/TransactionContract28April1.sol\":780:808  uint public transactionCount */\n    tag_8:\n      tag_36\n      tag_37\n      jump\t// in\n    tag_36:\n      mload(0x40)\n      tag_38\n      swap2\n      swap1\n      tag_39\n      jump\t// in\n    tag_38:\n      mload(0x40)\n      dup1\n      swap2\n      sub\n      swap1\n      return\n        /* \"contracts/TransactionContract28April1.sol\":1803:2266  function updatePaymentStatus(... */\n    tag_9:\n      tag_40\n      0x04\n      dup1\n      calldatasize\n      sub\n      dup2\n      add\n      swap1\n      tag_41\n      swap2\n      swap1\n      tag_42\n      jump\t// in\n    tag_41:\n      tag_43\n      jump\t// in\n    tag_40:\n      stop\n        /* \"contracts/TransactionContract28April1.sol\":2608:3448  function getTransactionByBuyerId(... */\n    tag_10:\n      tag_44\n      0x04\n      dup1\n      calldatasize\n      sub\n      dup2\n      add\n      swap1\n      tag_45\n      swap2\n      swap1\n      tag_24\n      jump\t// in\n    tag_45:\n      tag_46\n      jump\t// in\n    tag_44:\n      mload(0x40)\n      tag_47\n      swap2\n      swap1\n      tag_27\n      jump\t// in\n    tag_47:\n      mload(0x40)\n      dup1\n      swap2\n      sub\n      swap1\n      return\n        /* \"contracts/TransactionContract28April1.sol\":815:1639  function addTransaction(... */\n    tag_15:\n        /* \"contracts/TransactionContract28April1.sol\":1098:1114  transactionCount */\n      0x01\n      0x00\n        /* \"contracts/TransactionContract28April1.sol\":1098:1116  transactionCount++ */\n      dup2\n      sload\n      dup1\n      swap3\n      swap2\n      swap1\n      tag_49\n      swap1\n      tag_50\n      jump\t// in\n    tag_49:\n      swap2\n      swap1\n      pop\n      sstore\n      pop\n        /* \"contracts/TransactionContract28April1.sol\":1159:1385  Transaction(... */\n      mload(0x40)\n      dup1\n      0x0100\n      add\n      0x40\n      mstore\n      dup1\n        /* \"contracts/TransactionContract28April1.sol\":1184:1200  transactionCount */\n      sload(0x01)\n        /* \"contracts/TransactionContract28April1.sol\":1159:1385  Transaction(... */\n      dup2\n      mstore\n      0x20\n      add\n        /* \"contracts/TransactionContract28April1.sol\":1214:1230  _transactionCode */\n      dup9\n        /* \"contracts/TransactionContract28April1.sol\":1159:1385  Transaction(... */\n      dup2\n      mstore\n      0x20\n      add\n        /* \"contracts/TransactionContract28April1.sol\":1244:1250  _buyer */\n      dup8\n        /* \"contracts/TransactionContract28April1.sol\":1159:1385  Transaction(... */\n      dup2\n      mstore\n      0x20\n      add\n        /* \"contracts/TransactionContract28April1.sol\":1264:1272  _buyerId */\n      dup7\n        /* \"contracts/TransactionContract28April1.sol\":1159:1385  Transaction(... */\n      dup2\n      mstore\n      0x20\n      add\n        /* \"contracts/TransactionContract28April1.sol\":1286:1300  _sellerCompany */\n      dup6\n        /* \"contracts/TransactionContract28April1.sol\":1159:1385  Transaction(... */\n      dup2\n      mstore\n      0x20\n      add\n        /* \"contracts/TransactionContract28April1.sol\":1314:1323  _sellerId */\n      dup5\n        /* \"contracts/TransactionContract28April1.sol\":1159:1385  Transaction(... */\n      dup2\n      mstore\n      0x20\n      add\n        /* \"contracts/TransactionContract28April1.sol\":1337:1351  _paymentStatus */\n      dup4\n        /* \"contracts/TransactionContract28April1.sol\":1159:1385  Transaction(... */\n      dup2\n      mstore\n      0x20\n      add\n        /* \"contracts/TransactionContract28April1.sol\":1365:1375  _createdAt */\n      dup3\n        /* \"contracts/TransactionContract28April1.sol\":1159:1385  Transaction(... */\n      dup2\n      mstore\n      pop\n        /* \"contracts/TransactionContract28April1.sol\":1126:1138  transactions */\n      0x00\n        /* \"contracts/TransactionContract28April1.sol\":1126:1156  transactions[transactionCount] */\n      dup1\n        /* \"contracts/TransactionContract28April1.sol\":1139:1155  transactionCount */\n      sload(0x01)\n        /* \"contracts/TransactionContract28April1.sol\":1126:1156  transactions[transactionCount] */\n      dup2\n      mstore\n      0x20\n      add\n      swap1\n      dup2\n      mstore\n      0x20\n      add\n      0x00\n      keccak256\n        /* \"contracts/TransactionContract28April1.sol\":1126:1385  transactions[transactionCount] = Transaction(... */\n      0x00\n      dup3\n      add\n      mload\n      dup2\n      0x00\n      add\n      sstore\n      0x20\n      dup3\n      add\n      mload\n      dup2\n      0x01\n      add\n      swap1\n      dup2\n      tag_51\n      swap2\n      swap1\n      tag_52\n      jump\t// in\n    tag_51:\n      pop\n      0x40\n      dup3\n      add\n      mload\n      dup2\n      0x02\n      add\n      swap1\n      dup2\n      tag_53\n      swap2\n      swap1\n      tag_52\n      jump\t// in\n    tag_53:\n      pop\n      0x60\n      dup3\n      add\n      mload\n      dup2\n      0x03\n      add\n      swap1\n      dup2\n      tag_54\n      swap2\n      swap1\n      tag_52\n      jump\t// in\n    tag_54:\n      pop\n      0x80\n      dup3\n      add\n      mload\n      dup2\n      0x04\n      add\n      swap1\n      dup2\n      tag_55\n      swap2\n      swap1\n      tag_52\n      jump\t// in\n    tag_55:\n      pop\n      0xa0\n      dup3\n      add\n      mload\n      dup2\n      0x05\n      add\n      swap1\n      dup2\n      tag_56\n      swap2\n      swap1\n      tag_52\n      jump\t// in\n    tag_56:\n      pop\n      0xc0\n      dup3\n      add\n      mload\n      dup2\n      0x06\n      add\n      swap1\n      dup2\n      tag_57\n      swap2\n      swap1\n      tag_52\n      jump\t// in\n    tag_57:\n      pop\n      0xe0\n      dup3\n      add\n      mload\n      dup2\n      0x07\n      add\n      sstore\n      swap1\n      pop\n      pop\n        /* \"contracts/TransactionContract28April1.sol\":1431:1447  transactionCount */\n      sload(0x01)\n        /* \"contracts/TransactionContract28April1.sol\":1401:1632  TransactionAdded(... */\n      0x3080626baab04ef097e275f2565f5facdff2a06c6395164f9574829599fa74a3\n        /* \"contracts/TransactionContract28April1.sol\":1461:1477  _transactionCode */\n      dup9\n        /* \"contracts/TransactionContract28April1.sol\":1491:1497  _buyer */\n      dup9\n        /* \"contracts/TransactionContract28April1.sol\":1511:1519  _buyerId */\n      dup9\n        /* \"contracts/TransactionContract28April1.sol\":1533:1547  _sellerCompany */\n      dup9\n        /* \"contracts/TransactionContract28April1.sol\":1561:1570  _sellerId */\n      dup9\n        /* \"contracts/TransactionContract28April1.sol\":1584:1598  _paymentStatus */\n      dup9\n        /* \"contracts/TransactionContract28April1.sol\":1612:1622  _createdAt */\n      dup9\n        /* \"contracts/TransactionContract28April1.sol\":1401:1632  TransactionAdded(... */\n      mload(0x40)\n      tag_58\n      swap8\n      swap7\n      swap6\n      swap5\n      swap4\n      swap3\n      swap2\n      swap1\n      tag_59\n      jump\t// in\n    tag_58:\n      mload(0x40)\n      dup1\n      swap2\n      sub\n      swap1\n      log2\n        /* \"contracts/TransactionContract28April1.sol\":815:1639  function addTransaction(... */\n      pop\n      pop\n      pop\n      pop\n      pop\n      pop\n      pop\n      jump\t// out\n        /* \"contracts/TransactionContract28April1.sol\":1645:1797  function getTransaction(... */\n    tag_19:\n        /* \"contracts/TransactionContract28April1.sol\":1725:1743  Transaction memory */\n      tag_60\n      tag_61\n      jump\t// in\n    tag_60:\n        /* \"contracts/TransactionContract28April1.sol\":1762:1774  transactions */\n      0x00\n        /* \"contracts/TransactionContract28April1.sol\":1762:1790  transactions[_transactionId] */\n      dup1\n        /* \"contracts/TransactionContract28April1.sol\":1775:1789  _transactionId */\n      dup4\n        /* \"contracts/TransactionContract28April1.sol\":1762:1790  transactions[_transactionId] */\n      dup2\n      mstore\n      0x20\n      add\n      swap1\n      dup2\n      mstore\n      0x20\n      add\n      0x00\n      keccak256\n        /* \"contracts/TransactionContract28April1.sol\":1755:1790  return transactions[_transactionId] */\n      mload(0x40)\n      dup1\n      0x0100\n      add\n      0x40\n      mstore\n      swap1\n      dup2\n      0x00\n      dup3\n      add\n      sload\n      dup2\n      mstore\n      0x20\n      add\n      0x01\n      dup3\n      add\n      dup1\n      sload\n      tag_63\n      swap1\n      tag_64\n      jump\t// in\n    tag_63:\n      dup1\n      0x1f\n      add\n      0x20\n      dup1\n      swap2\n      div\n      mul\n      0x20\n      add\n      mload(0x40)\n      swap1\n      dup2\n      add\n      0x40\n      mstore\n      dup1\n      swap3\n      swap2\n      swap1\n      dup2\n      dup2\n      mstore\n      0x20\n      add\n      dup3\n      dup1\n      sload\n      tag_65\n      swap1\n      tag_64\n      jump\t// in\n    tag_65:\n      dup1\n      iszero\n      tag_66\n      jumpi\n      dup1\n      0x1f\n      lt\n      tag_67\n      jumpi\n      0x0100\n      dup1\n      dup4\n      sload\n      div\n      mul\n      dup4\n      mstore\n      swap2\n      0x20\n      add\n      swap2\n      jump(tag_66)\n    tag_67:\n      dup3\n      add\n      swap2\n      swap1\n      0x00\n      mstore\n      keccak256(0x00, 0x20)\n      swap1\n    tag_68:\n      dup2\n      sload\n      dup2\n      mstore\n      swap1\n      0x01\n      add\n      swap1\n      0x20\n      add\n      dup1\n      dup4\n      gt\n      tag_68\n      jumpi\n      dup3\n      swap1\n      sub\n      0x1f\n      and\n      dup3\n      add\n      swap2\n    tag_66:\n      pop\n      pop\n      pop\n      pop\n      pop\n      dup2\n      mstore\n      0x20\n      add\n      0x02\n      dup3\n      add\n      dup1\n      sload\n      tag_69\n      swap1\n      tag_64\n      jump\t// in\n    tag_69:\n      dup1\n      0x1f\n      add\n      0x20\n      dup1\n      swap2\n      div\n      mul\n      0x20\n      add\n      mload(0x40)\n      swap1\n      dup2\n      add\n      0x40\n      mstore\n      dup1\n      swap3\n      swap2\n      swap1\n      dup2\n      dup2\n      mstore\n      0x20\n      add\n      dup3\n      dup1\n      sload\n      tag_70\n      swap1\n      tag_64\n      jump\t// in\n    tag_70:\n      dup1\n      iszero\n      tag_71\n      jumpi\n      dup1\n      0x1f\n      lt\n      tag_72\n      jumpi\n      0x0100\n      dup1\n      dup4\n      sload\n      div\n      mul\n      dup4\n      mstore\n      swap2\n      0x20\n      add\n      swap2\n      jump(tag_71)\n    tag_72:\n      dup3\n      add\n      swap2\n      swap1\n      0x00\n      mstore\n      keccak256(0x00, 0x20)\n      swap1\n    tag_73:\n      dup2\n      sload\n      dup2\n      mstore\n      swap1\n      0x01\n      add\n      swap1\n      0x20\n      add\n      dup1\n      dup4\n      gt\n      tag_73\n      jumpi\n      dup3\n      swap1\n      sub\n      0x1f\n      and\n      dup3\n      add\n      swap2\n    tag_71:\n      pop\n      pop\n      pop\n      pop\n      pop\n      dup2\n      mstore\n      0x20\n      add\n      0x03\n      dup3\n      add\n      dup1\n      sload\n      tag_74\n      swap1\n      tag_64\n      jump\t// in\n    tag_74:\n      dup1\n      0x1f\n      add\n      0x20\n      dup1\n      swap2\n      div\n      mul\n      0x20\n      add\n      mload(0x40)\n      swap1\n      dup2\n      add\n      0x40\n      mstore\n      dup1\n      swap3\n      swap2\n      swap1\n      dup2\n      dup2\n      mstore\n      0x20\n      add\n      dup3\n      dup1\n      sload\n      tag_75\n      swap1\n      tag_64\n      jump\t// in\n    tag_75:\n      dup1\n      iszero\n      tag_76\n      jumpi\n      dup1\n      0x1f\n      lt\n      tag_77\n      jumpi\n      0x0100\n      dup1\n      dup4\n      sload\n      div\n      mul\n      dup4\n      mstore\n      swap2\n      0x20\n      add\n      swap2\n      jump(tag_76)\n    tag_77:\n      dup3\n      add\n      swap2\n      swap1\n      0x00\n      mstore\n      keccak256(0x00, 0x20)\n      swap1\n    tag_78:\n      dup2\n      sload\n      dup2\n      mstore\n      swap1\n      0x01\n      add\n      swap1\n      0x20\n      add\n      dup1\n      dup4\n      gt\n      tag_78\n      jumpi\n      dup3\n      swap1\n      sub\n      0x1f\n      and\n      dup3\n      add\n      swap2\n    tag_76:\n      pop\n      pop\n      pop\n      pop\n      pop\n      dup2\n      mstore\n      0x20\n      add\n      0x04\n      dup3\n      add\n      dup1\n      sload\n      tag_79\n      swap1\n      tag_64\n      jump\t// in\n    tag_79:\n      dup1\n      0x1f\n      add\n      0x20\n      dup1\n      swap2\n      div\n      mul\n      0x20\n      add\n      mload(0x40)\n      swap1\n      dup2\n      add\n      0x40\n      mstore\n      dup1\n      swap3\n      swap2\n      swap1\n      dup2\n      dup2\n      mstore\n      0x20\n      add\n      dup3\n      dup1\n      sload\n      tag_80\n      swap1\n      tag_64\n      jump\t// in\n    tag_80:\n      dup1\n      iszero\n      tag_81\n      jumpi\n      dup1\n      0x1f\n      lt\n      tag_82\n      jumpi\n      0x0100\n      dup1\n      dup4\n      sload\n      div\n      mul\n      dup4\n      mstore\n      swap2\n      0x20\n      add\n      swap2\n      jump(tag_81)\n    tag_82:\n      dup3\n      add\n      swap2\n      swap1\n      0x00\n      mstore\n      keccak256(0x00, 0x20)\n      swap1\n    tag_83:\n      dup2\n      sload\n      dup2\n      mstore\n      swap1\n      0x01\n      add\n      swap1\n      0x20\n      add\n      dup1\n      dup4\n      gt\n      tag_83\n      jumpi\n      dup3\n      swap1\n      sub\n      0x1f\n      and\n      dup3\n      add\n      swap2\n    tag_81:\n      pop\n      pop\n      pop\n      pop\n      pop\n      dup2\n      mstore\n      0x20\n      add\n      0x05\n      dup3\n      add\n      dup1\n      sload\n      tag_84\n      swap1\n      tag_64\n      jump\t// in\n    tag_84:\n      dup1\n      0x1f\n      add\n      0x20\n      dup1\n      swap2\n      div\n      mul\n      0x20\n      add\n      mload(0x40)\n      swap1\n      dup2\n      add\n      0x40\n      mstore\n      dup1\n      swap3\n      swap2\n      swap1\n      dup2\n      dup2\n      mstore\n      0x20\n      add\n      dup3\n      dup1\n      sload\n      tag_85\n      swap1\n      tag_64\n      jump\t// in\n    tag_85:\n      dup1\n      iszero\n      tag_86\n      jumpi\n      dup1\n      0x1f\n      lt\n      tag_87\n      jumpi\n      0x0100\n      dup1\n      dup4\n      sload\n      div\n      mul\n      dup4\n      mstore\n      swap2\n      0x20\n      add\n      swap2\n      jump(tag_86)\n    tag_87:\n      dup3\n      add\n      swap2\n      swap1\n      0x00\n      mstore\n      keccak256(0x00, 0x20)\n      swap1\n    tag_88:\n      dup2\n      sload\n      dup2\n      mstore\n      swap1\n      0x01\n      add\n      swap1\n      0x20\n      add\n      dup1\n      dup4\n      gt\n      tag_88\n      jumpi\n      dup3\n      swap1\n      sub\n      0x1f\n      and\n      dup3\n      add\n      swap2\n    tag_86:\n      pop\n      pop\n      pop\n      pop\n      pop\n      dup2\n      mstore\n      0x20\n      add\n      0x06\n      dup3\n      add\n      dup1\n      sload\n      tag_89\n      swap1\n      tag_64\n      jump\t// in\n    tag_89:\n      dup1\n      0x1f\n      add\n      0x20\n      dup1\n      swap2\n      div\n      mul\n      0x20\n      add\n      mload(0x40)\n      swap1\n      dup2\n      add\n      0x40\n      mstore\n      dup1\n      swap3\n      swap2\n      swap1\n      dup2\n      dup2\n      mstore\n      0x20\n      add\n      dup3\n      dup1\n      sload\n      tag_90\n      swap1\n      tag_64\n      jump\t// in\n    tag_90:\n      dup1\n      iszero\n      tag_91\n      jumpi\n      dup1\n      0x1f\n      lt\n      tag_92\n      jumpi\n      0x0100\n      dup1\n      dup4\n      sload\n      div\n      mul\n      dup4\n      mstore\n      swap2\n      0x20\n      add\n      swap2\n      jump(tag_91)\n    tag_92:\n      dup3\n      add\n      swap2\n      swap1\n      0x00\n      mstore\n      keccak256(0x00, 0x20)\n      swap1\n    tag_93:\n      dup2\n      sload\n      dup2\n      mstore\n      swap1\n      0x01\n      add\n      swap1\n      0x20\n      add\n      dup1\n      dup4\n      gt\n      tag_93\n      jumpi\n      dup3\n      swap1\n      sub\n      0x1f\n      and\n      dup3\n      add\n      swap2\n    tag_91:\n      pop\n      pop\n      pop\n      pop\n      pop\n      dup2\n      mstore\n      0x20\n      add\n      0x07\n      dup3\n      add\n      sload\n      dup2\n      mstore\n      pop\n      pop\n      swap1\n      pop\n        /* \"contracts/TransactionContract28April1.sol\":1645:1797  function getTransaction(... */\n      swap2\n      swap1\n      pop\n      jump\t// out\n        /* \"contracts/TransactionContract28April1.sol\":3454:4300  function getTransactionBySellerId(... */\n    tag_25:\n        /* \"contracts/TransactionContract28April1.sol\":3548:3568  Transaction[] memory */\n      0x60\n        /* \"contracts/TransactionContract28April1.sol\":3580:3590  uint count */\n      0x00\n        /* \"contracts/TransactionContract28April1.sol\":3609:3615  uint i */\n      dup1\n        /* \"contracts/TransactionContract28April1.sol\":3618:3619  1 */\n      0x01\n        /* \"contracts/TransactionContract28April1.sol\":3609:3619  uint i = 1 */\n      swap1\n      pop\n        /* \"contracts/TransactionContract28April1.sol\":3604:3860  for (uint i = 1; i <= transactionCount; i++) {... */\n    tag_95:\n        /* \"contracts/TransactionContract28April1.sol\":3626:3642  transactionCount */\n      sload(0x01)\n        /* \"contracts/TransactionContract28April1.sol\":3621:3622  i */\n      dup2\n        /* \"contracts/TransactionContract28April1.sol\":3621:3642  i <= transactionCount */\n      gt\n        /* \"contracts/TransactionContract28April1.sol\":3604:3860  for (uint i = 1; i <= transactionCount; i++) {... */\n      tag_96\n      jumpi\n        /* \"contracts/TransactionContract28April1.sol\":3784:3793  _sellerId */\n      dup4\n        /* \"contracts/TransactionContract28April1.sol\":3767:3794  abi.encodePacked(_sellerId) */\n      add(0x20, mload(0x40))\n      tag_98\n      swap2\n      swap1\n      tag_99\n      jump\t// in\n    tag_98:\n      mload(0x40)\n      0x20\n      dup2\n      dup4\n      sub\n      sub\n      dup2\n      mstore\n      swap1\n      0x40\n      mstore\n        /* \"contracts/TransactionContract28April1.sol\":3757:3795  keccak256(abi.encodePacked(_sellerId)) */\n      dup1\n      mload\n      swap1\n      0x20\n      add\n      keccak256\n        /* \"contracts/TransactionContract28April1.sol\":3711:3723  transactions */\n      0x00\n        /* \"contracts/TransactionContract28April1.sol\":3711:3726  transactions[i] */\n      dup1\n        /* \"contracts/TransactionContract28April1.sol\":3724:3725  i */\n      dup4\n        /* \"contracts/TransactionContract28April1.sol\":3711:3726  transactions[i] */\n      dup2\n      mstore\n      0x20\n      add\n      swap1\n      dup2\n      mstore\n      0x20\n      add\n      0x00\n      keccak256\n        /* \"contracts/TransactionContract28April1.sol\":3711:3735  transactions[i].sellerId */\n      0x05\n      add\n        /* \"contracts/TransactionContract28April1.sol\":3694:3736  abi.encodePacked(transactions[i].sellerId) */\n      add(0x20, mload(0x40))\n      tag_100\n      swap2\n      swap1\n      tag_101\n      jump\t// in\n    tag_100:\n      mload(0x40)\n      0x20\n      dup2\n      dup4\n      sub\n      sub\n      dup2\n      mstore\n      swap1\n      0x40\n      mstore\n        /* \"contracts/TransactionContract28April1.sol\":3684:3737  keccak256(abi.encodePacked(transactions[i].sellerId)) */\n      dup1\n      mload\n      swap1\n      0x20\n      add\n      keccak256\n        /* \"contracts/TransactionContract28April1.sol\":3684:3795  keccak256(abi.encodePacked(transactions[i].sellerId)) ==... */\n      sub\n        /* \"contracts/TransactionContract28April1.sol\":3663:3850  if (... */\n      tag_102\n      jumpi\n        /* \"contracts/TransactionContract28April1.sol\":3828:3835  count++ */\n      dup2\n      dup1\n      tag_103\n      swap1\n      tag_50\n      jump\t// in\n    tag_103:\n      swap3\n      pop\n      pop\n        /* \"contracts/TransactionContract28April1.sol\":3663:3850  if (... */\n    tag_102:\n        /* \"contracts/TransactionContract28April1.sol\":3644:3647  i++ */\n      dup1\n      dup1\n      tag_104\n      swap1\n      tag_50\n      jump\t// in\n    tag_104:\n      swap2\n      pop\n      pop\n        /* \"contracts/TransactionContract28April1.sol\":3604:3860  for (uint i = 1; i <= transactionCount; i++) {... */\n      jump(tag_95)\n    tag_96:\n      pop\n        /* \"contracts/TransactionContract28April1.sol\":3869:3903  Transaction[] memory _transactions */\n      0x00\n        /* \"contracts/TransactionContract28April1.sol\":3924:3929  count */\n      dup2\n        /* \"contracts/TransactionContract28April1.sol\":3906:3930  new Transaction[](count) */\n      0xffffffffffffffff\n      dup2\n      gt\n      iszero\n      tag_105\n      jumpi\n      tag_106\n      tag_107\n      jump\t// in\n    tag_106:\n    tag_105:\n      mload(0x40)\n      swap1\n      dup1\n      dup3\n      mstore\n      dup1\n      0x20\n      mul\n      0x20\n      add\n      dup3\n      add\n      0x40\n      mstore\n      dup1\n      iszero\n      tag_108\n      jumpi\n      dup2\n      0x20\n      add\n    tag_109:\n      tag_110\n      tag_61\n      jump\t// in\n    tag_110:\n      dup2\n      mstore\n      0x20\n      add\n      swap1\n      0x01\n      swap1\n      sub\n      swap1\n      dup2\n      tag_109\n      jumpi\n      swap1\n      pop\n    tag_108:\n      pop\n        /* \"contracts/TransactionContract28April1.sol\":3869:3930  Transaction[] memory _transactions = new Transaction[](count) */\n      swap1\n      pop\n        /* \"contracts/TransactionContract28April1.sol\":3940:3946  uint j */\n      0x00\n        /* \"contracts/TransactionContract28April1.sol\":3965:3971  uint i */\n      dup1\n        /* \"contracts/TransactionContract28April1.sol\":3974:3975  1 */\n      0x01\n        /* \"contracts/TransactionContract28April1.sol\":3965:3975  uint i = 1 */\n      swap1\n      pop\n        /* \"contracts/TransactionContract28April1.sol\":3960:4264  for (uint i = 1; i <= transactionCount; i++) {... */\n    tag_111:\n        /* \"contracts/TransactionContract28April1.sol\":3982:3998  transactionCount */\n      sload(0x01)\n        /* \"contracts/TransactionContract28April1.sol\":3977:3978  i */\n      dup2\n        /* \"contracts/TransactionContract28April1.sol\":3977:3998  i <= transactionCount */\n      gt\n        /* \"contracts/TransactionContract28April1.sol\":3960:4264  for (uint i = 1; i <= transactionCount; i++) {... */\n      tag_112\n      jumpi\n        /* \"contracts/TransactionContract28April1.sol\":4140:4149  _sellerId */\n      dup6\n        /* \"contracts/TransactionContract28April1.sol\":4123:4150  abi.encodePacked(_sellerId) */\n      add(0x20, mload(0x40))\n      tag_114\n      swap2\n      swap1\n      tag_99\n      jump\t// in\n    tag_114:\n      mload(0x40)\n      0x20\n      dup2\n      dup4\n      sub\n      sub\n      dup2\n      mstore\n      swap1\n      0x40\n      mstore\n        /* \"contracts/TransactionContract28April1.sol\":4113:4151  keccak256(abi.encodePacked(_sellerId)) */\n      dup1\n      mload\n      swap1\n      0x20\n      add\n      keccak256\n        /* \"contracts/TransactionContract28April1.sol\":4067:4079  transactions */\n      0x00\n        /* \"contracts/TransactionContract28April1.sol\":4067:4082  transactions[i] */\n      dup1\n        /* \"contracts/TransactionContract28April1.sol\":4080:4081  i */\n      dup4\n        /* \"contracts/TransactionContract28April1.sol\":4067:4082  transactions[i] */\n      dup2\n      mstore\n      0x20\n      add\n      swap1\n      dup2\n      mstore\n      0x20\n      add\n      0x00\n      keccak256\n        /* \"contracts/TransactionContract28April1.sol\":4067:4091  transactions[i].sellerId */\n      0x05\n      add\n        /* \"contracts/TransactionContract28April1.sol\":4050:4092  abi.encodePacked(transactions[i].sellerId) */\n      add(0x20, mload(0x40))\n      tag_115\n      swap2\n      swap1\n      tag_101\n      jump\t// in\n    tag_115:\n      mload(0x40)\n      0x20\n      dup2\n      dup4\n      sub\n      sub\n      dup2\n      mstore\n      swap1\n      0x40\n      mstore\n        /* \"contracts/TransactionContract28April1.sol\":4040:4093  keccak256(abi.encodePacked(transactions[i].sellerId)) */\n      dup1\n      mload\n      swap1\n      0x20\n      add\n      keccak256\n        /* \"contracts/TransactionContract28April1.sol\":4040:4151  keccak256(abi.encodePacked(transactions[i].sellerId)) ==... */\n      sub\n        /* \"contracts/TransactionContract28April1.sol\":4019:4254  if (... */\n      tag_116\n      jumpi\n        /* \"contracts/TransactionContract28April1.sol\":4203:4215  transactions */\n      0x00\n        /* \"contracts/TransactionContract28April1.sol\":4203:4218  transactions[i] */\n      dup1\n        /* \"contracts/TransactionContract28April1.sol\":4216:4217  i */\n      dup3\n        /* \"contracts/TransactionContract28April1.sol\":4203:4218  transactions[i] */\n      dup2\n      mstore\n      0x20\n      add\n      swap1\n      dup2\n      mstore\n      0x20\n      add\n      0x00\n      keccak256\n        /* \"contracts/TransactionContract28April1.sol\":4184:4218  _transactions[j] = transactions[i] */\n      mload(0x40)\n      dup1\n      0x0100\n      add\n      0x40\n      mstore\n      swap1\n      dup2\n      0x00\n      dup3\n      add\n      sload\n      dup2\n      mstore\n      0x20\n      add\n      0x01\n      dup3\n      add\n      dup1\n      sload\n      tag_117\n      swap1\n      tag_64\n      jump\t// in\n    tag_117:\n      dup1\n      0x1f\n      add\n      0x20\n      dup1\n      swap2\n      div\n      mul\n      0x20\n      add\n      mload(0x40)\n      swap1\n      dup2\n      add\n      0x40\n      mstore\n      dup1\n      swap3\n      swap2\n      swap1\n      dup2\n      dup2\n      mstore\n      0x20\n      add\n      dup3\n      dup1\n      sload\n      tag_118\n      swap1\n      tag_64\n      jump\t// in\n    tag_118:\n      dup1\n      iszero\n      tag_119\n      jumpi\n      dup1\n      0x1f\n      lt\n      tag_120\n      jumpi\n      0x0100\n      dup1\n      dup4\n      sload\n      div\n      mul\n      dup4\n      mstore\n      swap2\n      0x20\n      add\n      swap2\n      jump(tag_119)\n    tag_120:\n      dup3\n      add\n      swap2\n      swap1\n      0x00\n      mstore\n      keccak256(0x00, 0x20)\n      swap1\n    tag_121:\n      dup2\n      sload\n      dup2\n      mstore\n      swap1\n      0x01\n      add\n      swap1\n      0x20\n      add\n      dup1\n      dup4\n      gt\n      tag_121\n      jumpi\n      dup3\n      swap1\n      sub\n      0x1f\n      and\n      dup3\n      add\n      swap2\n    tag_119:\n      pop\n      pop\n      pop\n      pop\n      pop\n      dup2\n      mstore\n      0x20\n      add\n      0x02\n      dup3\n      add\n      dup1\n      sload\n      tag_122\n      swap1\n      tag_64\n      jump\t// in\n    tag_122:\n      dup1\n      0x1f\n      add\n      0x20\n      dup1\n      swap2\n      div\n      mul\n      0x20\n      add\n      mload(0x40)\n      swap1\n      dup2\n      add\n      0x40\n      mstore\n      dup1\n      swap3\n      swap2\n      swap1\n      dup2\n      dup2\n      mstore\n      0x20\n      add\n      dup3\n      dup1\n      sload\n      tag_123\n      swap1\n      tag_64\n      jump\t// in\n    tag_123:\n      dup1\n      iszero\n      tag_124\n      jumpi\n      dup1\n      0x1f\n      lt\n      tag_125\n      jumpi\n      0x0100\n      dup1\n      dup4\n      sload\n      div\n      mul\n      dup4\n      mstore\n      swap2\n      0x20\n      add\n      swap2\n      jump(tag_124)\n    tag_125:\n      dup3\n      add\n      swap2\n      swap1\n      0x00\n      mstore\n      keccak256(0x00, 0x20)\n      swap1\n    tag_126:\n      dup2\n      sload\n      dup2\n      mstore\n      swap1\n      0x01\n      add\n      swap1\n      0x20\n      add\n      dup1\n      dup4\n      gt\n      tag_126\n      jumpi\n      dup3\n      swap1\n      sub\n      0x1f\n      and\n      dup3\n      add\n      swap2\n    tag_124:\n      pop\n      pop\n      pop\n      pop\n      pop\n      dup2\n      mstore\n      0x20\n      add\n      0x03\n      dup3\n      add\n      dup1\n      sload\n      tag_127\n      swap1\n      tag_64\n      jump\t// in\n    tag_127:\n      dup1\n      0x1f\n      add\n      0x20\n      dup1\n      swap2\n      div\n      mul\n      0x20\n      add\n      mload(0x40)\n      swap1\n      dup2\n      add\n      0x40\n      mstore\n      dup1\n      swap3\n      swap2\n      swap1\n      dup2\n      dup2\n      mstore\n      0x20\n      add\n      dup3\n      dup1\n      sload\n      tag_128\n      swap1\n      tag_64\n      jump\t// in\n    tag_128:\n      dup1\n      iszero\n      tag_129\n      jumpi\n      dup1\n      0x1f\n      lt\n      tag_130\n      jumpi\n      0x0100\n      dup1\n      dup4\n      sload\n      div\n      mul\n      dup4\n      mstore\n      swap2\n      0x20\n      add\n      swap2\n      jump(tag_129)\n    tag_130:\n      dup3\n      add\n      swap2\n      swap1\n      0x00\n      mstore\n      keccak256(0x00, 0x20)\n      swap1\n    tag_131:\n      dup2\n      sload\n      dup2\n      mstore\n      swap1\n      0x01\n      add\n      swap1\n      0x20\n      add\n      dup1\n      dup4\n      gt\n      tag_131\n      jumpi\n      dup3\n      swap1\n      sub\n      0x1f\n      and\n      dup3\n      add\n      swap2\n    tag_129:\n      pop\n      pop\n      pop\n      pop\n      pop\n      dup2\n      mstore\n      0x20\n      add\n      0x04\n      dup3\n      add\n      dup1\n      sload\n      tag_132\n      swap1\n      tag_64\n      jump\t// in\n    tag_132:\n      dup1\n      0x1f\n      add\n      0x20\n      dup1\n      swap2\n      div\n      mul\n      0x20\n      add\n      mload(0x40)\n      swap1\n      dup2\n      add\n      0x40\n      mstore\n      dup1\n      swap3\n      swap2\n      swap1\n      dup2\n      dup2\n      mstore\n      0x20\n      add\n      dup3\n      dup1\n      sload\n      tag_133\n      swap1\n      tag_64\n      jump\t// in\n    tag_133:\n      dup1\n      iszero\n      tag_134\n      jumpi\n      dup1\n      0x1f\n      lt\n      tag_135\n      jumpi\n      0x0100\n      dup1\n      dup4\n      sload\n      div\n      mul\n      dup4\n      mstore\n      swap2\n      0x20\n      add\n      swap2\n      jump(tag_134)\n    tag_135:\n      dup3\n      add\n      swap2\n      swap1\n      0x00\n      mstore\n      keccak256(0x00, 0x20)\n      swap1\n    tag_136:\n      dup2\n      sload\n      dup2\n      mstore\n      swap1\n      0x01\n      add\n      swap1\n      0x20\n      add\n      dup1\n      dup4\n      gt\n      tag_136\n      jumpi\n      dup3\n      swap1\n      sub\n      0x1f\n      and\n      dup3\n      add\n      swap2\n    tag_134:\n      pop\n      pop\n      pop\n      pop\n      pop\n      dup2\n      mstore\n      0x20\n      add\n      0x05\n      dup3\n      add\n      dup1\n      sload\n      tag_137\n      swap1\n      tag_64\n      jump\t// in\n    tag_137:\n      dup1\n      0x1f\n      add\n      0x20\n      dup1\n      swap2\n      div\n      mul\n      0x20\n      add\n      mload(0x40)\n      swap1\n      dup2\n      add\n      0x40\n      mstore\n      dup1\n      swap3\n      swap2\n      swap1\n      dup2\n      dup2\n      mstore\n      0x20\n      add\n      dup3\n      dup1\n      sload\n      tag_138\n      swap1\n      tag_64\n      jump\t// in\n    tag_138:\n      dup1\n      iszero\n      tag_139\n      jumpi\n      dup1\n      0x1f\n      lt\n      tag_140\n      jumpi\n      0x0100\n      dup1\n      dup4\n      sload\n      div\n      mul\n      dup4\n      mstore\n      swap2\n      0x20\n      add\n      swap2\n      jump(tag_139)\n    tag_140:\n      dup3\n      add\n      swap2\n      swap1\n      0x00\n      mstore\n      keccak256(0x00, 0x20)\n      swap1\n    tag_141:\n      dup2\n      sload\n      dup2\n      mstore\n      swap1\n      0x01\n      add\n      swap1\n      0x20\n      add\n      dup1\n      dup4\n      gt\n      tag_141\n      jumpi\n      dup3\n      swap1\n      sub\n      0x1f\n      and\n      dup3\n      add\n      swap2\n    tag_139:\n      pop\n      pop\n      pop\n      pop\n      pop\n      dup2\n      mstore\n      0x20\n      add\n      0x06\n      dup3\n      add\n      dup1\n      sload\n      tag_142\n      swap1\n      tag_64\n      jump\t// in\n    tag_142:\n      dup1\n      0x1f\n      add\n      0x20\n      dup1\n      swap2\n      div\n      mul\n      0x20\n      add\n      mload(0x40)\n      swap1\n      dup2\n      add\n      0x40\n      mstore\n      dup1\n      swap3\n      swap2\n      swap1\n      dup2\n      dup2\n      mstore\n      0x20\n      add\n      dup3\n      dup1\n      sload\n      tag_143\n      swap1\n      tag_64\n      jump\t// in\n    tag_143:\n      dup1\n      iszero\n      tag_144\n      jumpi\n      dup1\n      0x1f\n      lt\n      tag_145\n      jumpi\n      0x0100\n      dup1\n      dup4\n      sload\n      div\n      mul\n      dup4\n      mstore\n      swap2\n      0x20\n      add\n      swap2\n      jump(tag_144)\n    tag_145:\n      dup3\n      add\n      swap2\n      swap1\n      0x00\n      mstore\n      keccak256(0x00, 0x20)\n      swap1\n    tag_146:\n      dup2\n      sload\n      dup2\n      mstore\n      swap1\n      0x01\n      add\n      swap1\n      0x20\n      add\n      dup1\n      dup4\n      gt\n      tag_146\n      jumpi\n      dup3\n      swap1\n      sub\n      0x1f\n      and\n      dup3\n      add\n      swap2\n    tag_144:\n      pop\n      pop\n      pop\n      pop\n      pop\n      dup2\n      mstore\n      0x20\n      add\n      0x07\n      dup3\n      add\n      sload\n      dup2\n      mstore\n      pop\n      pop\n        /* \"contracts/TransactionContract28April1.sol\":4184:4197  _transactions */\n      dup4\n        /* \"contracts/TransactionContract28April1.sol\":4198:4199  j */\n      dup4\n        /* \"contracts/TransactionContract28April1.sol\":4184:4200  _transactions[j] */\n      dup2\n      mload\n      dup2\n      lt\n      tag_147\n      jumpi\n      tag_148\n      tag_149\n      jump\t// in\n    tag_148:\n    tag_147:\n      0x20\n      mul\n      0x20\n      add\n      add\n        /* \"contracts/TransactionContract28April1.sol\":4184:4218  _transactions[j] = transactions[i] */\n      dup2\n      swap1\n      mstore\n      pop\n        /* \"contracts/TransactionContract28April1.sol\":4236:4239  j++ */\n      dup2\n      dup1\n      tag_150\n      swap1\n      tag_50\n      jump\t// in\n    tag_150:\n      swap3\n      pop\n      pop\n        /* \"contracts/TransactionContract28April1.sol\":4019:4254  if (... */\n    tag_116:\n        /* \"contracts/TransactionContract28April1.sol\":4000:4003  i++ */\n      dup1\n      dup1\n      tag_151\n      swap1\n      tag_50\n      jump\t// in\n    tag_151:\n      swap2\n      pop\n      pop\n        /* \"contracts/TransactionContract28April1.sol\":3960:4264  for (uint i = 1; i <= transactionCount; i++) {... */\n      jump(tag_111)\n    tag_112:\n      pop\n        /* \"contracts/TransactionContract28April1.sol\":4280:4293  _transactions */\n      dup2\n        /* \"contracts/TransactionContract28April1.sol\":4273:4293  return _transactions */\n      swap4\n      pop\n      pop\n      pop\n      pop\n        /* \"contracts/TransactionContract28April1.sol\":3454:4300  function getTransactionBySellerId(... */\n      swap2\n      swap1\n      pop\n      jump\t// out\n        /* \"contracts/TransactionContract28April1.sol\":726:774  mapping(uint => Transaction) public transactions */\n    tag_30:\n      mstore(0x20, 0x00)\n      dup1\n      0x00\n      mstore\n      keccak256(0x00, 0x40)\n      0x00\n      swap2\n      pop\n      swap1\n      pop\n      dup1\n      0x00\n      add\n      sload\n      swap1\n      dup1\n      0x01\n      add\n      dup1\n      sload\n      tag_152\n      swap1\n      tag_64\n      jump\t// in\n    tag_152:\n      dup1\n      0x1f\n      add\n      0x20\n      dup1\n      swap2\n      div\n      mul\n      0x20\n      add\n      mload(0x40)\n      swap1\n      dup2\n      add\n      0x40\n      mstore\n      dup1\n      swap3\n      swap2\n      swap1\n      dup2\n      dup2\n      mstore\n      0x20\n      add\n      dup3\n      dup1\n      sload\n      tag_153\n      swap1\n      tag_64\n      jump\t// in\n    tag_153:\n      dup1\n      iszero\n      tag_154\n      jumpi\n      dup1\n      0x1f\n      lt\n      tag_155\n      jumpi\n      0x0100\n      dup1\n      dup4\n      sload\n      div\n      mul\n      dup4\n      mstore\n      swap2\n      0x20\n      add\n      swap2\n      jump(tag_154)\n    tag_155:\n      dup3\n      add\n      swap2\n      swap1\n      0x00\n      mstore\n      keccak256(0x00, 0x20)\n      swap1\n    tag_156:\n      dup2\n      sload\n      dup2\n      mstore\n      swap1\n      0x01\n      add\n      swap1\n      0x20\n      add\n      dup1\n      dup4\n      gt\n      tag_156\n      jumpi\n      dup3\n      swap1\n      sub\n      0x1f\n      and\n      dup3\n      add\n      swap2\n    tag_154:\n      pop\n      pop\n      pop\n      pop\n      pop\n      swap1\n      dup1\n      0x02\n      add\n      dup1\n      sload\n      tag_157\n      swap1\n      tag_64\n      jump\t// in\n    tag_157:\n      dup1\n      0x1f\n      add\n      0x20\n      dup1\n      swap2\n      div\n      mul\n      0x20\n      add\n      mload(0x40)\n      swap1\n      dup2\n      add\n      0x40\n      mstore\n      dup1\n      swap3\n      swap2\n      swap1\n      dup2\n      dup2\n      mstore\n      0x20\n      add\n      dup3\n      dup1\n      sload\n      tag_158\n      swap1\n      tag_64\n      jump\t// in\n    tag_158:\n      dup1\n      iszero\n      tag_159\n      jumpi\n      dup1\n      0x1f\n      lt\n      tag_160\n      jumpi\n      0x0100\n      dup1\n      dup4\n      sload\n      div\n      mul\n      dup4\n      mstore\n      swap2\n      0x20\n      add\n      swap2\n      jump(tag_159)\n    tag_160:\n      dup3\n      add\n      swap2\n      swap1\n      0x00\n      mstore\n      keccak256(0x00, 0x20)\n      swap1\n    tag_161:\n      dup2\n      sload\n      dup2\n      mstore\n      swap1\n      0x01\n      add\n      swap1\n      0x20\n      add\n      dup1\n      dup4\n      gt\n      tag_161\n      jumpi\n      dup3\n      swap1\n      sub\n      0x1f\n      and\n      dup3\n      add\n      swap2\n    tag_159:\n      pop\n      pop\n      pop\n      pop\n      pop\n      swap1\n      dup1\n      0x03\n      add\n      dup1\n      sload\n      tag_162\n      swap1\n      tag_64\n      jump\t// in\n    tag_162:\n      dup1\n      0x1f\n      add\n      0x20\n      dup1\n      swap2\n      div\n      mul\n      0x20\n      add\n      mload(0x40)\n      swap1\n      dup2\n      add\n      0x40\n      mstore\n      dup1\n      swap3\n      swap2\n      swap1\n      dup2\n      dup2\n      mstore\n      0x20\n      add\n      dup3\n      dup1\n      sload\n      tag_163\n      swap1\n      tag_64\n      jump\t// in\n    tag_163:\n      dup1\n      iszero\n      tag_164\n      jumpi\n      dup1\n      0x1f\n      lt\n      tag_165\n      jumpi\n      0x0100\n      dup1\n      dup4\n      sload\n      div\n      mul\n      dup4\n      mstore\n      swap2\n      0x20\n      add\n      swap2\n      jump(tag_164)\n    tag_165:\n      dup3\n      add\n      swap2\n      swap1\n      0x00\n      mstore\n      keccak256(0x00, 0x20)\n      swap1\n    tag_166:\n      dup2\n      sload\n      dup2\n      mstore\n      swap1\n      0x01\n      add\n      swap1\n      0x20\n      add\n      dup1\n      dup4\n      gt\n      tag_166\n      jumpi\n      dup3\n      swap1\n      sub\n      0x1f\n      and\n      dup3\n      add\n      swap2\n    tag_164:\n      pop\n      pop\n      pop\n      pop\n      pop\n      swap1\n      dup1\n      0x04\n      add\n      dup1\n      sload\n      tag_167\n      swap1\n      tag_64\n      jump\t// in\n    tag_167:\n      dup1\n      0x1f\n      add\n      0x20\n      dup1\n      swap2\n      div\n      mul\n      0x20\n      add\n      mload(0x40)\n      swap1\n      dup2\n      add\n      0x40\n      mstore\n      dup1\n      swap3\n      swap2\n      swap1\n      dup2\n      dup2\n      mstore\n      0x20\n      add\n      dup3\n      dup1\n      sload\n      tag_168\n      swap1\n      tag_64\n      jump\t// in\n    tag_168:\n      dup1\n      iszero\n      tag_169\n      jumpi\n      dup1\n      0x1f\n      lt\n      tag_170\n      jumpi\n      0x0100\n      dup1\n      dup4\n      sload\n      div\n      mul\n      dup4\n      mstore\n      swap2\n      0x20\n      add\n      swap2\n      jump(tag_169)\n    tag_170:\n      dup3\n      add\n      swap2\n      swap1\n      0x00\n      mstore\n      keccak256(0x00, 0x20)\n      swap1\n    tag_171:\n      dup2\n      sload\n      dup2\n      mstore\n      swap1\n      0x01\n      add\n      swap1\n      0x20\n      add\n      dup1\n      dup4\n      gt\n      tag_171\n      jumpi\n      dup3\n      swap1\n      sub\n      0x1f\n      and\n      dup3\n      add\n      swap2\n    tag_169:\n      pop\n      pop\n      pop\n      pop\n      pop\n      swap1\n      dup1\n      0x05\n      add\n      dup1\n      sload\n      tag_172\n      swap1\n      tag_64\n      jump\t// in\n    tag_172:\n      dup1\n      0x1f\n      add\n      0x20\n      dup1\n      swap2\n      div\n      mul\n      0x20\n      add\n      mload(0x40)\n      swap1\n      dup2\n      add\n      0x40\n      mstore\n      dup1\n      swap3\n      swap2\n      swap1\n      dup2\n      dup2\n      mstore\n      0x20\n      add\n      dup3\n      dup1\n      sload\n      tag_173\n      swap1\n      tag_64\n      jump\t// in\n    tag_173:\n      dup1\n      iszero\n      tag_174\n      jumpi\n      dup1\n      0x1f\n      lt\n      tag_175\n      jumpi\n      0x0100\n      dup1\n      dup4\n      sload\n      div\n      mul\n      dup4\n      mstore\n      swap2\n      0x20\n      add\n      swap2\n      jump(tag_174)\n    tag_175:\n      dup3\n      add\n      swap2\n      swap1\n      0x00\n      mstore\n      keccak256(0x00, 0x20)\n      swap1\n    tag_176:\n      dup2\n      sload\n      dup2\n      mstore\n      swap1\n      0x01\n      add\n      swap1\n      0x20\n      add\n      dup1\n      dup4\n      gt\n      tag_176\n      jumpi\n      dup3\n      swap1\n      sub\n      0x1f\n      and\n      dup3\n      add\n      swap2\n    tag_174:\n      pop\n      pop\n      pop\n      pop\n      pop\n      swap1\n      dup1\n      0x06\n      add\n      dup1\n      sload\n      tag_177\n      swap1\n      tag_64\n      jump\t// in\n    tag_177:\n      dup1\n      0x1f\n      add\n      0x20\n      dup1\n      swap2\n      div\n      mul\n      0x20\n      add\n      mload(0x40)\n      swap1\n      dup2\n      add\n      0x40\n      mstore\n      dup1\n      swap3\n      swap2\n      swap1\n      dup2\n      dup2\n      mstore\n      0x20\n      add\n      dup3\n      dup1\n      sload\n      tag_178\n      swap1\n      tag_64\n      jump\t// in\n    tag_178:\n      dup1\n      iszero\n      tag_179\n      jumpi\n      dup1\n      0x1f\n      lt\n      tag_180\n      jumpi\n      0x0100\n      dup1\n      dup4\n      sload\n      div\n      mul\n      dup4\n      mstore\n      swap2\n      0x20\n      add\n      swap2\n      jump(tag_179)\n    tag_180:\n      dup3\n      add\n      swap2\n      swap1\n      0x00\n      mstore\n      keccak256(0x00, 0x20)\n      swap1\n    tag_181:\n      dup2\n      sload\n      dup2\n      mstore\n      swap1\n      0x01\n      add\n      swap1\n      0x20\n      add\n      dup1\n      dup4\n      gt\n      tag_181\n      jumpi\n      dup3\n      swap1\n      sub\n      0x1f\n      and\n      dup3\n      add\n      swap2\n    tag_179:\n      pop\n      pop\n      pop\n      pop\n      pop\n      swap1\n      dup1\n      0x07\n      add\n      sload\n      swap1\n      pop\n      dup9\n      jump\t// out\n        /* \"contracts/TransactionContract28April1.sol\":2272:2602  function getAllTransaction() public view returns (Transaction[] memory) {... */\n    tag_34:\n        /* \"contracts/TransactionContract28April1.sol\":2322:2342  Transaction[] memory */\n      0x60\n        /* \"contracts/TransactionContract28April1.sol\":2354:2388  Transaction[] memory _transactions */\n      0x00\n        /* \"contracts/TransactionContract28April1.sol\":2422:2438  transactionCount */\n      sload(0x01)\n        /* \"contracts/TransactionContract28April1.sol\":2391:2448  new Transaction[](... */\n      0xffffffffffffffff\n      dup2\n      gt\n      iszero\n      tag_183\n      jumpi\n      tag_184\n      tag_107\n      jump\t// in\n    tag_184:\n    tag_183:\n      mload(0x40)\n      swap1\n      dup1\n      dup3\n      mstore\n      dup1\n      0x20\n      mul\n      0x20\n      add\n      dup3\n      add\n      0x40\n      mstore\n      dup1\n      iszero\n      tag_185\n      jumpi\n      dup2\n      0x20\n      add\n    tag_186:\n      tag_187\n      tag_61\n      jump\t// in\n    tag_187:\n      dup2\n      mstore\n      0x20\n      add\n      swap1\n      0x01\n      swap1\n      sub\n      swap1\n      dup2\n      tag_186\n      jumpi\n      swap1\n      pop\n    tag_185:\n      pop\n        /* \"contracts/TransactionContract28April1.sol\":2354:2448  Transaction[] memory _transactions = new Transaction[](... */\n      swap1\n      pop\n        /* \"contracts/TransactionContract28April1.sol\":2463:2469  uint i */\n      0x00\n        /* \"contracts/TransactionContract28April1.sol\":2472:2473  1 */\n      0x01\n        /* \"contracts/TransactionContract28April1.sol\":2463:2473  uint i = 1 */\n      swap1\n      pop\n        /* \"contracts/TransactionContract28April1.sol\":2458:2566  for (uint i = 1; i <= transactionCount; i++) {... */\n    tag_188:\n        /* \"contracts/TransactionContract28April1.sol\":2480:2496  transactionCount */\n      sload(0x01)\n        /* \"contracts/TransactionContract28April1.sol\":2475:2476  i */\n      dup2\n        /* \"contracts/TransactionContract28April1.sol\":2475:2496  i <= transactionCount */\n      gt\n        /* \"contracts/TransactionContract28April1.sol\":2458:2566  for (uint i = 1; i <= transactionCount; i++) {... */\n      tag_189\n      jumpi\n        /* \"contracts/TransactionContract28April1.sol\":2540:2552  transactions */\n      0x00\n        /* \"contracts/TransactionContract28April1.sol\":2540:2555  transactions[i] */\n      dup1\n        /* \"contracts/TransactionContract28April1.sol\":2553:2554  i */\n      dup3\n        /* \"contracts/TransactionContract28April1.sol\":2540:2555  transactions[i] */\n      dup2\n      mstore\n      0x20\n      add\n      swap1\n      dup2\n      mstore\n      0x20\n      add\n      0x00\n      keccak256\n        /* \"contracts/TransactionContract28April1.sol\":2517:2555  _transactions[i - 1] = transactions[i] */\n      mload(0x40)\n      dup1\n      0x0100\n      add\n      0x40\n      mstore\n      swap1\n      dup2\n      0x00\n      dup3\n      add\n      sload\n      dup2\n      mstore\n      0x20\n      add\n      0x01\n      dup3\n      add\n      dup1\n      sload\n      tag_191\n      swap1\n      tag_64\n      jump\t// in\n    tag_191:\n      dup1\n      0x1f\n      add\n      0x20\n      dup1\n      swap2\n      div\n      mul\n      0x20\n      add\n      mload(0x40)\n      swap1\n      dup2\n      add\n      0x40\n      mstore\n      dup1\n      swap3\n      swap2\n      swap1\n      dup2\n      dup2\n      mstore\n      0x20\n      add\n      dup3\n      dup1\n      sload\n      tag_192\n      swap1\n      tag_64\n      jump\t// in\n    tag_192:\n      dup1\n      iszero\n      tag_193\n      jumpi\n      dup1\n      0x1f\n      lt\n      tag_194\n      jumpi\n      0x0100\n      dup1\n      dup4\n      sload\n      div\n      mul\n      dup4\n      mstore\n      swap2\n      0x20\n      add\n      swap2\n      jump(tag_193)\n    tag_194:\n      dup3\n      add\n      swap2\n      swap1\n      0x00\n      mstore\n      keccak256(0x00, 0x20)\n      swap1\n    tag_195:\n      dup2\n      sload\n      dup2\n      mstore\n      swap1\n      0x01\n      add\n      swap1\n      0x20\n      add\n      dup1\n      dup4\n      gt\n      tag_195\n      jumpi\n      dup3\n      swap1\n      sub\n      0x1f\n      and\n      dup3\n      add\n      swap2\n    tag_193:\n      pop\n      pop\n      pop\n      pop\n      pop\n      dup2\n      mstore\n      0x20\n      add\n      0x02\n      dup3\n      add\n      dup1\n      sload\n      tag_196\n      swap1\n      tag_64\n      jump\t// in\n    tag_196:\n      dup1\n      0x1f\n      add\n      0x20\n      dup1\n      swap2\n      div\n      mul\n      0x20\n      add\n      mload(0x40)\n      swap1\n      dup2\n      add\n      0x40\n      mstore\n      dup1\n      swap3\n      swap2\n      swap1\n      dup2\n      dup2\n      mstore\n      0x20\n      add\n      dup3\n      dup1\n      sload\n      tag_197\n      swap1\n      tag_64\n      jump\t// in\n    tag_197:\n      dup1\n      iszero\n      tag_198\n      jumpi\n      dup1\n      0x1f\n      lt\n      tag_199\n      jumpi\n      0x0100\n      dup1\n      dup4\n      sload\n      div\n      mul\n      dup4\n      mstore\n      swap2\n      0x20\n      add\n      swap2\n      jump(tag_198)\n    tag_199:\n      dup3\n      add\n      swap2\n      swap1\n      0x00\n      mstore\n      keccak256(0x00, 0x20)\n      swap1\n    tag_200:\n      dup2\n      sload\n      dup2\n      mstore\n      swap1\n      0x01\n      add\n      swap1\n      0x20\n      add\n      dup1\n      dup4\n      gt\n      tag_200\n      jumpi\n      dup3\n      swap1\n      sub\n      0x1f\n      and\n      dup3\n      add\n      swap2\n    tag_198:\n      pop\n      pop\n      pop\n      pop\n      pop\n      dup2\n      mstore\n      0x20\n      add\n      0x03\n      dup3\n      add\n      dup1\n      sload\n      tag_201\n      swap1\n      tag_64\n      jump\t// in\n    tag_201:\n      dup1\n      0x1f\n      add\n      0x20\n      dup1\n      swap2\n      div\n      mul\n      0x20\n      add\n      mload(0x40)\n      swap1\n      dup2\n      add\n      0x40\n      mstore\n      dup1\n      swap3\n      swap2\n      swap1\n      dup2\n      dup2\n      mstore\n      0x20\n      add\n      dup3\n      dup1\n      sload\n      tag_202\n      swap1\n      tag_64\n      jump\t// in\n    tag_202:\n      dup1\n      iszero\n      tag_203\n      jumpi\n      dup1\n      0x1f\n      lt\n      tag_204\n      jumpi\n      0x0100\n      dup1\n      dup4\n      sload\n      div\n      mul\n      dup4\n      mstore\n      swap2\n      0x20\n      add\n      swap2\n      jump(tag_203)\n    tag_204:\n      dup3\n      add\n      swap2\n      swap1\n      0x00\n      mstore\n      keccak256(0x00, 0x20)\n      swap1\n    tag_205:\n      dup2\n      sload\n      dup2\n      mstore\n      swap1\n      0x01\n      add\n      swap1\n      0x20\n      add\n      dup1\n      dup4\n      gt\n      tag_205\n      jumpi\n      dup3\n      swap1\n      sub\n      0x1f\n      and\n      dup3\n      add\n      swap2\n    tag_203:\n      pop\n      pop\n      pop\n      pop\n      pop\n      dup2\n      mstore\n      0x20\n      add\n      0x04\n      dup3\n      add\n      dup1\n      sload\n      tag_206\n      swap1\n      tag_64\n      jump\t// in\n    tag_206:\n      dup1\n      0x1f\n      add\n      0x20\n      dup1\n      swap2\n      div\n      mul\n      0x20\n      add\n      mload(0x40)\n      swap1\n      dup2\n      add\n      0x40\n      mstore\n      dup1\n      swap3\n      swap2\n      swap1\n      dup2\n      dup2\n      mstore\n      0x20\n      add\n      dup3\n      dup1\n      sload\n      tag_207\n      swap1\n      tag_64\n      jump\t// in\n    tag_207:\n      dup1\n      iszero\n      tag_208\n      jumpi\n      dup1\n      0x1f\n      lt\n      tag_209\n      jumpi\n      0x0100\n      dup1\n      dup4\n      sload\n      div\n      mul\n      dup4\n      mstore\n      swap2\n      0x20\n      add\n      swap2\n      jump(tag_208)\n    tag_209:\n      dup3\n      add\n      swap2\n      swap1\n      0x00\n      mstore\n      keccak256(0x00, 0x20)\n      swap1\n    tag_210:\n      dup2\n      sload\n      dup2\n      mstore\n      swap1\n      0x01\n      add\n      swap1\n      0x20\n      add\n      dup1\n      dup4\n      gt\n      tag_210\n      jumpi\n      dup3\n      swap1\n      sub\n      0x1f\n      and\n      dup3\n      add\n      swap2\n    tag_208:\n      pop\n      pop\n      pop\n      pop\n      pop\n      dup2\n      mstore\n      0x20\n      add\n      0x05\n      dup3\n      add\n      dup1\n      sload\n      tag_211\n      swap1\n      tag_64\n      jump\t// in\n    tag_211:\n      dup1\n      0x1f\n      add\n      0x20\n      dup1\n      swap2\n      div\n      mul\n      0x20\n      add\n      mload(0x40)\n      swap1\n      dup2\n      add\n      0x40\n      mstore\n      dup1\n      swap3\n      swap2\n      swap1\n      dup2\n      dup2\n      mstore\n      0x20\n      add\n      dup3\n      dup1\n      sload\n      tag_212\n      swap1\n      tag_64\n      jump\t// in\n    tag_212:\n      dup1\n      iszero\n      tag_213\n      jumpi\n      dup1\n      0x1f\n      lt\n      tag_214\n      jumpi\n      0x0100\n      dup1\n      dup4\n      sload\n      div\n      mul\n      dup4\n      mstore\n      swap2\n      0x20\n      add\n      swap2\n      jump(tag_213)\n    tag_214:\n      dup3\n      add\n      swap2\n      swap1\n      0x00\n      mstore\n      keccak256(0x00, 0x20)\n      swap1\n    tag_215:\n      dup2\n      sload\n      dup2\n      mstore\n      swap1\n      0x01\n      add\n      swap1\n      0x20\n      add\n      dup1\n      dup4\n      gt\n      tag_215\n      jumpi\n      dup3\n      swap1\n      sub\n      0x1f\n      and\n      dup3\n      add\n      swap2\n    tag_213:\n      pop\n      pop\n      pop\n      pop\n      pop\n      dup2\n      mstore\n      0x20\n      add\n      0x06\n      dup3\n      add\n      dup1\n      sload\n      tag_216\n      swap1\n      tag_64\n      jump\t// in\n    tag_216:\n      dup1\n      0x1f\n      add\n      0x20\n      dup1\n      swap2\n      div\n      mul\n      0x20\n      add\n      mload(0x40)\n      swap1\n      dup2\n      add\n      0x40\n      mstore\n      dup1\n      swap3\n      swap2\n      swap1\n      dup2\n      dup2\n      mstore\n      0x20\n      add\n      dup3\n      dup1\n      sload\n      tag_217\n      swap1\n      tag_64\n      jump\t// in\n    tag_217:\n      dup1\n      iszero\n      tag_218\n      jumpi\n      dup1\n      0x1f\n      lt\n      tag_219\n      jumpi\n      0x0100\n      dup1\n      dup4\n      sload\n      div\n      mul\n      dup4\n      mstore\n      swap2\n      0x20\n      add\n      swap2\n      jump(tag_218)\n    tag_219:\n      dup3\n      add\n      swap2\n      swap1\n      0x00\n      mstore\n      keccak256(0x00, 0x20)\n      swap1\n    tag_220:\n      dup2\n      sload\n      dup2\n      mstore\n      swap1\n      0x01\n      add\n      swap1\n      0x20\n      add\n      dup1\n      dup4\n      gt\n      tag_220\n      jumpi\n      dup3\n      swap1\n      sub\n      0x1f\n      and\n      dup3\n      add\n      swap2\n    tag_218:\n      pop\n      pop\n      pop\n      pop\n      pop\n      dup2\n      mstore\n      0x20\n      add\n      0x07\n      dup3\n      add\n      sload\n      dup2\n      mstore\n      pop\n      pop\n        /* \"contracts/TransactionContract28April1.sol\":2517:2530  _transactions */\n      dup3\n        /* \"contracts/TransactionContract28April1.sol\":2535:2536  1 */\n      0x01\n        /* \"contracts/TransactionContract28April1.sol\":2531:2532  i */\n      dup4\n        /* \"contracts/TransactionContract28April1.sol\":2531:2536  i - 1 */\n      tag_221\n      swap2\n      swap1\n      tag_222\n      jump\t// in\n    tag_221:\n        /* \"contracts/TransactionContract28April1.sol\":2517:2537  _transactions[i - 1] */\n      dup2\n      mload\n      dup2\n      lt\n      tag_223\n      jumpi\n      tag_224\n      tag_149\n      jump\t// in\n    tag_224:\n    tag_223:\n      0x20\n      mul\n      0x20\n      add\n      add\n        /* \"contracts/TransactionContract28April1.sol\":2517:2555  _transactions[i - 1] = transactions[i] */\n      dup2\n      swap1\n      mstore\n      pop\n        /* \"contracts/TransactionContract28April1.sol\":2498:2501  i++ */\n      dup1\n      dup1\n      tag_225\n      swap1\n      tag_50\n      jump\t// in\n    tag_225:\n      swap2\n      pop\n      pop\n        /* \"contracts/TransactionContract28April1.sol\":2458:2566  for (uint i = 1; i <= transactionCount; i++) {... */\n      jump(tag_188)\n    tag_189:\n      pop\n        /* \"contracts/TransactionContract28April1.sol\":2582:2595  _transactions */\n      dup1\n        /* \"contracts/TransactionContract28April1.sol\":2575:2595  return _transactions */\n      swap2\n      pop\n      pop\n        /* \"contracts/TransactionContract28April1.sol\":2272:2602  function getAllTransaction() public view returns (Transaction[] memory) {... */\n      swap1\n      jump\t// out\n        /* \"contracts/TransactionContract28April1.sol\":780:808  uint public transactionCount */\n    tag_37:\n      sload(0x01)\n      dup2\n      jump\t// out\n        /* \"contracts/TransactionContract28April1.sol\":1803:2266  function updatePaymentStatus(... */\n    tag_43:\n        /* \"contracts/TransactionContract28April1.sol\":1986:2002  transactionCount */\n      sload(0x01)\n        /* \"contracts/TransactionContract28April1.sol\":1968:1982  _transactionId */\n      dup4\n        /* \"contracts/TransactionContract28April1.sol\":1968:2002  _transactionId <= transactionCount */\n      gt\n      iszero\n        /* \"contracts/TransactionContract28April1.sol\":1947:2054  require(... */\n      tag_227\n      jumpi\n      mload(0x40)\n      0x08c379a000000000000000000000000000000000000000000000000000000000\n      dup2\n      mstore\n      0x04\n      add\n      tag_228\n      swap1\n      tag_229\n      jump\t// in\n    tag_228:\n      mload(0x40)\n      dup1\n      swap2\n      sub\n      swap1\n      revert\n    tag_227:\n        /* \"contracts/TransactionContract28April1.sol\":2065:2096  Transaction storage transaction */\n      0x00\n        /* \"contracts/TransactionContract28April1.sol\":2099:2111  transactions */\n      dup1\n        /* \"contracts/TransactionContract28April1.sol\":2099:2127  transactions[_transactionId] */\n      0x00\n        /* \"contracts/TransactionContract28April1.sol\":2112:2126  _transactionId */\n      dup6\n        /* \"contracts/TransactionContract28April1.sol\":2099:2127  transactions[_transactionId] */\n      dup2\n      mstore\n      0x20\n      add\n      swap1\n      dup2\n      mstore\n      0x20\n      add\n      0x00\n      keccak256\n        /* \"contracts/TransactionContract28April1.sol\":2065:2127  Transaction storage transaction = transactions[_transactionId] */\n      swap1\n      pop\n        /* \"contracts/TransactionContract28April1.sol\":2165:2179  _paymentStatus */\n      dup3\n        /* \"contracts/TransactionContract28April1.sol\":2137:2148  transaction */\n      dup2\n        /* \"contracts/TransactionContract28April1.sol\":2137:2162  transaction.paymentStatus */\n      0x06\n      add\n        /* \"contracts/TransactionContract28April1.sol\":2137:2179  transaction.paymentStatus = _paymentStatus */\n      swap1\n      dup2\n      tag_230\n      swap2\n      swap1\n      tag_52\n      jump\t// in\n    tag_230:\n      pop\n        /* \"contracts/TransactionContract28April1.sol\":2216:2230  _transactionId */\n      dup4\n        /* \"contracts/TransactionContract28April1.sol\":2195:2259  PaymentStatusUpdated(_transactionId, _paymentStatus, _updatedAt) */\n      0xcbc92fe73220c7cc1450ff1070f1becf254013a1cd6a9d95a4b7c2055b3e9ac9\n        /* \"contracts/TransactionContract28April1.sol\":2232:2246  _paymentStatus */\n      dup5\n        /* \"contracts/TransactionContract28April1.sol\":2248:2258  _updatedAt */\n      dup5\n        /* \"contracts/TransactionContract28April1.sol\":2195:2259  PaymentStatusUpdated(_transactionId, _paymentStatus, _updatedAt) */\n      mload(0x40)\n      tag_231\n      swap3\n      swap2\n      swap1\n      tag_232\n      jump\t// in\n    tag_231:\n      mload(0x40)\n      dup1\n      swap2\n      sub\n      swap1\n      log2\n        /* \"contracts/TransactionContract28April1.sol\":1937:2266  {... */\n      pop\n        /* \"contracts/TransactionContract28April1.sol\":1803:2266  function updatePaymentStatus(... */\n      pop\n      pop\n      pop\n      jump\t// out\n        /* \"contracts/TransactionContract28April1.sol\":2608:3448  function getTransactionByBuyerId(... */\n    tag_46:\n        /* \"contracts/TransactionContract28April1.sol\":2700:2720  Transaction[] memory */\n      0x60\n        /* \"contracts/TransactionContract28April1.sol\":2732:2742  uint count */\n      0x00\n        /* \"contracts/TransactionContract28April1.sol\":2761:2767  uint i */\n      dup1\n        /* \"contracts/TransactionContract28April1.sol\":2770:2771  1 */\n      0x01\n        /* \"contracts/TransactionContract28April1.sol\":2761:2771  uint i = 1 */\n      swap1\n      pop\n        /* \"contracts/TransactionContract28April1.sol\":2756:3010  for (uint i = 1; i <= transactionCount; i++) {... */\n    tag_234:\n        /* \"contracts/TransactionContract28April1.sol\":2778:2794  transactionCount */\n      sload(0x01)\n        /* \"contracts/TransactionContract28April1.sol\":2773:2774  i */\n      dup2\n        /* \"contracts/TransactionContract28April1.sol\":2773:2794  i <= transactionCount */\n      gt\n        /* \"contracts/TransactionContract28April1.sol\":2756:3010  for (uint i = 1; i <= transactionCount; i++) {... */\n      tag_235\n      jumpi\n        /* \"contracts/TransactionContract28April1.sol\":2935:2943  _buyerId */\n      dup4\n        /* \"contracts/TransactionContract28April1.sol\":2918:2944  abi.encodePacked(_buyerId) */\n      add(0x20, mload(0x40))\n      tag_237\n      swap2\n      swap1\n      tag_99\n      jump\t// in\n    tag_237:\n      mload(0x40)\n      0x20\n      dup2\n      dup4\n      sub\n      sub\n      dup2\n      mstore\n      swap1\n      0x40\n      mstore\n        /* \"contracts/TransactionContract28April1.sol\":2908:2945  keccak256(abi.encodePacked(_buyerId)) */\n      dup1\n      mload\n      swap1\n      0x20\n      add\n      keccak256\n        /* \"contracts/TransactionContract28April1.sol\":2863:2875  transactions */\n      0x00\n        /* \"contracts/TransactionContract28April1.sol\":2863:2878  transactions[i] */\n      dup1\n        /* \"contracts/TransactionContract28April1.sol\":2876:2877  i */\n      dup4\n        /* \"contracts/TransactionContract28April1.sol\":2863:2878  transactions[i] */\n      dup2\n      mstore\n      0x20\n      add\n      swap1\n      dup2\n      mstore\n      0x20\n      add\n      0x00\n      keccak256\n        /* \"contracts/TransactionContract28April1.sol\":2863:2886  transactions[i].buyerId */\n      0x03\n      add\n        /* \"contracts/TransactionContract28April1.sol\":2846:2887  abi.encodePacked(transactions[i].buyerId) */\n      add(0x20, mload(0x40))\n      tag_238\n      swap2\n      swap1\n      tag_101\n      jump\t// in\n    tag_238:\n      mload(0x40)\n      0x20\n      dup2\n      dup4\n      sub\n      sub\n      dup2\n      mstore\n      swap1\n      0x40\n      mstore\n        /* \"contracts/TransactionContract28April1.sol\":2836:2888  keccak256(abi.encodePacked(transactions[i].buyerId)) */\n      dup1\n      mload\n      swap1\n      0x20\n      add\n      keccak256\n        /* \"contracts/TransactionContract28April1.sol\":2836:2945  keccak256(abi.encodePacked(transactions[i].buyerId)) ==... */\n      sub\n        /* \"contracts/TransactionContract28April1.sol\":2815:3000  if (... */\n      tag_239\n      jumpi\n        /* \"contracts/TransactionContract28April1.sol\":2978:2985  count++ */\n      dup2\n      dup1\n      tag_240\n      swap1\n      tag_50\n      jump\t// in\n    tag_240:\n      swap3\n      pop\n      pop\n        /* \"contracts/TransactionContract28April1.sol\":2815:3000  if (... */\n    tag_239:\n        /* \"contracts/TransactionContract28April1.sol\":2796:2799  i++ */\n      dup1\n      dup1\n      tag_241\n      swap1\n      tag_50\n      jump\t// in\n    tag_241:\n      swap2\n      pop\n      pop\n        /* \"contracts/TransactionContract28April1.sol\":2756:3010  for (uint i = 1; i <= transactionCount; i++) {... */\n      jump(tag_234)\n    tag_235:\n      pop\n        /* \"contracts/TransactionContract28April1.sol\":3019:3053  Transaction[] memory _transactions */\n      0x00\n        /* \"contracts/TransactionContract28April1.sol\":3074:3079  count */\n      dup2\n        /* \"contracts/TransactionContract28April1.sol\":3056:3080  new Transaction[](count) */\n      0xffffffffffffffff\n      dup2\n      gt\n      iszero\n      tag_242\n      jumpi\n      tag_243\n      tag_107\n      jump\t// in\n    tag_243:\n    tag_242:\n      mload(0x40)\n      swap1\n      dup1\n      dup3\n      mstore\n      dup1\n      0x20\n      mul\n      0x20\n      add\n      dup3\n      add\n      0x40\n      mstore\n      dup1\n      iszero\n      tag_244\n      jumpi\n      dup2\n      0x20\n      add\n    tag_245:\n      tag_246\n      tag_61\n      jump\t// in\n    tag_246:\n      dup2\n      mstore\n      0x20\n      add\n      swap1\n      0x01\n      swap1\n      sub\n      swap1\n      dup2\n      tag_245\n      jumpi\n      swap1\n      pop\n    tag_244:\n      pop\n        /* \"contracts/TransactionContract28April1.sol\":3019:3080  Transaction[] memory _transactions = new Transaction[](count) */\n      swap1\n      pop\n        /* \"contracts/TransactionContract28April1.sol\":3090:3096  uint j */\n      0x00\n        /* \"contracts/TransactionContract28April1.sol\":3115:3121  uint i */\n      dup1\n        /* \"contracts/TransactionContract28April1.sol\":3124:3125  1 */\n      0x01\n        /* \"contracts/TransactionContract28April1.sol\":3115:3125  uint i = 1 */\n      swap1\n      pop\n        /* \"contracts/TransactionContract28April1.sol\":3110:3412  for (uint i = 1; i <= transactionCount; i++) {... */\n    tag_247:\n        /* \"contracts/TransactionContract28April1.sol\":3132:3148  transactionCount */\n      sload(0x01)\n        /* \"contracts/TransactionContract28April1.sol\":3127:3128  i */\n      dup2\n        /* \"contracts/TransactionContract28April1.sol\":3127:3148  i <= transactionCount */\n      gt\n        /* \"contracts/TransactionContract28April1.sol\":3110:3412  for (uint i = 1; i <= transactionCount; i++) {... */\n      tag_248\n      jumpi\n        /* \"contracts/TransactionContract28April1.sol\":3289:3297  _buyerId */\n      dup6\n        /* \"contracts/TransactionContract28April1.sol\":3272:3298  abi.encodePacked(_buyerId) */\n      add(0x20, mload(0x40))\n      tag_250\n      swap2\n      swap1\n      tag_99\n      jump\t// in\n    tag_250:\n      mload(0x40)\n      0x20\n      dup2\n      dup4\n      sub\n      sub\n      dup2\n      mstore\n      swap1\n      0x40\n      mstore\n        /* \"contracts/TransactionContract28April1.sol\":3262:3299  keccak256(abi.encodePacked(_buyerId)) */\n      dup1\n      mload\n      swap1\n      0x20\n      add\n      keccak256\n        /* \"contracts/TransactionContract28April1.sol\":3217:3229  transactions */\n      0x00\n        /* \"contracts/TransactionContract28April1.sol\":3217:3232  transactions[i] */\n      dup1\n        /* \"contracts/TransactionContract28April1.sol\":3230:3231  i */\n      dup4\n        /* \"contracts/TransactionContract28April1.sol\":3217:3232  transactions[i] */\n      dup2\n      mstore\n      0x20\n      add\n      swap1\n      dup2\n      mstore\n      0x20\n      add\n      0x00\n      keccak256\n        /* \"contracts/TransactionContract28April1.sol\":3217:3240  transactions[i].buyerId */\n      0x03\n      add\n        /* \"contracts/TransactionContract28April1.sol\":3200:3241  abi.encodePacked(transactions[i].buyerId) */\n      add(0x20, mload(0x40))\n      tag_251\n      swap2\n      swap1\n      tag_101\n      jump\t// in\n    tag_251:\n      mload(0x40)\n      0x20\n      dup2\n      dup4\n      sub\n      sub\n      dup2\n      mstore\n      swap1\n      0x40\n      mstore\n        /* \"contracts/TransactionContract28April1.sol\":3190:3242  keccak256(abi.encodePacked(transactions[i].buyerId)) */\n      dup1\n      mload\n      swap1\n      0x20\n      add\n      keccak256\n        /* \"contracts/TransactionContract28April1.sol\":3190:3299  keccak256(abi.encodePacked(transactions[i].buyerId)) ==... */\n      sub\n        /* \"contracts/TransactionContract28April1.sol\":3169:3402  if (... */\n      tag_252\n      jumpi\n        /* \"contracts/TransactionContract28April1.sol\":3351:3363  transactions */\n      0x00\n        /* \"contracts/TransactionContract28April1.sol\":3351:3366  transactions[i] */\n      dup1\n        /* \"contracts/TransactionContract28April1.sol\":3364:3365  i */\n      dup3\n        /* \"contracts/TransactionContract28April1.sol\":3351:3366  transactions[i] */\n      dup2\n      mstore\n      0x20\n      add\n      swap1\n      dup2\n      mstore\n      0x20\n      add\n      0x00\n      keccak256\n        /* \"contracts/TransactionContract28April1.sol\":3332:3366  _transactions[j] = transactions[i] */\n      mload(0x40)\n      dup1\n      0x0100\n      add\n      0x40\n      mstore\n      swap1\n      dup2\n      0x00\n      dup3\n      add\n      sload\n      dup2\n      mstore\n      0x20\n      add\n      0x01\n      dup3\n      add\n      dup1\n      sload\n      tag_253\n      swap1\n      tag_64\n      jump\t// in\n    tag_253:\n      dup1\n      0x1f\n      add\n      0x20\n      dup1\n      swap2\n      div\n      mul\n      0x20\n      add\n      mload(0x40)\n      swap1\n      dup2\n      add\n      0x40\n      mstore\n      dup1\n      swap3\n      swap2\n      swap1\n      dup2\n      dup2\n      mstore\n      0x20\n      add\n      dup3\n      dup1\n      sload\n      tag_254\n      swap1\n      tag_64\n      jump\t// in\n    tag_254:\n      dup1\n      iszero\n      tag_255\n      jumpi\n      dup1\n      0x1f\n      lt\n      tag_256\n      jumpi\n      0x0100\n      dup1\n      dup4\n      sload\n      div\n      mul\n      dup4\n      mstore\n      swap2\n      0x20\n      add\n      swap2\n      jump(tag_255)\n    tag_256:\n      dup3\n      add\n      swap2\n      swap1\n      0x00\n      mstore\n      keccak256(0x00, 0x20)\n      swap1\n    tag_257:\n      dup2\n      sload\n      dup2\n      mstore\n      swap1\n      0x01\n      add\n      swap1\n      0x20\n      add\n      dup1\n      dup4\n      gt\n      tag_257\n      jumpi\n      dup3\n      swap1\n      sub\n      0x1f\n      and\n      dup3\n      add\n      swap2\n    tag_255:\n      pop\n      pop\n      pop\n      pop\n      pop\n      dup2\n      mstore\n      0x20\n      add\n      0x02\n      dup3\n      add\n      dup1\n      sload\n      tag_258\n      swap1\n      tag_64\n      jump\t// in\n    tag_258:\n      dup1\n      0x1f\n      add\n      0x20\n      dup1\n      swap2\n      div\n      mul\n      0x20\n      add\n      mload(0x40)\n      swap1\n      dup2\n      add\n      0x40\n      mstore\n      dup1\n      swap3\n      swap2\n      swap1\n      dup2\n      dup2\n      mstore\n      0x20\n      add\n      dup3\n      dup1\n      sload\n      tag_259\n      swap1\n      tag_64\n      jump\t// in\n    tag_259:\n      dup1\n      iszero\n      tag_260\n      jumpi\n      dup1\n      0x1f\n      lt\n      tag_261\n      jumpi\n      0x0100\n      dup1\n      dup4\n      sload\n      div\n      mul\n      dup4\n      mstore\n      swap2\n      0x20\n      add\n      swap2\n      jump(tag_260)\n    tag_261:\n      dup3\n      add\n      swap2\n      swap1\n      0x00\n      mstore\n      keccak256(0x00, 0x20)\n      swap1\n    tag_262:\n      dup2\n      sload\n      dup2\n      mstore\n      swap1\n      0x01\n      add\n      swap1\n      0x20\n      add\n      dup1\n      dup4\n      gt\n      tag_262\n      jumpi\n      dup3\n      swap1\n      sub\n      0x1f\n      and\n      dup3\n      add\n      swap2\n    tag_260:\n      pop\n      pop\n      pop\n      pop\n      pop\n      dup2\n      mstore\n      0x20\n      add\n      0x03\n      dup3\n      add\n      dup1\n      sload\n      tag_263\n      swap1\n      tag_64\n      jump\t// in\n    tag_263:\n      dup1\n      0x1f\n      add\n      0x20\n      dup1\n      swap2\n      div\n      mul\n      0x20\n      add\n      mload(0x40)\n      swap1\n      dup2\n      add\n      0x40\n      mstore\n      dup1\n      swap3\n      swap2\n      swap1\n      dup2\n      dup2\n      mstore\n      0x20\n      add\n      dup3\n      dup1\n      sload\n      tag_264\n      swap1\n      tag_64\n      jump\t// in\n    tag_264:\n      dup1\n      iszero\n      tag_265\n      jumpi\n      dup1\n      0x1f\n      lt\n      tag_266\n      jumpi\n      0x0100\n      dup1\n      dup4\n      sload\n      div\n      mul\n      dup4\n      mstore\n      swap2\n      0x20\n      add\n      swap2\n      jump(tag_265)\n    tag_266:\n      dup3\n      add\n      swap2\n      swap1\n      0x00\n      mstore\n      keccak256(0x00, 0x20)\n      swap1\n    tag_267:\n      dup2\n      sload\n      dup2\n      mstore\n      swap1\n      0x01\n      add\n      swap1\n      0x20\n      add\n      dup1\n      dup4\n      gt\n      tag_267\n      jumpi\n      dup3\n      swap1\n      sub\n      0x1f\n      and\n      dup3\n      add\n      swap2\n    tag_265:\n      pop\n      pop\n      pop\n      pop\n      pop\n      dup2\n      mstore\n      0x20\n      add\n      0x04\n      dup3\n      add\n      dup1\n      sload\n      tag_268\n      swap1\n      tag_64\n      jump\t// in\n    tag_268:\n      dup1\n      0x1f\n      add\n      0x20\n      dup1\n      swap2\n      div\n      mul\n      0x20\n      add\n      mload(0x40)\n      swap1\n      dup2\n      add\n      0x40\n      mstore\n      dup1\n      swap3\n      swap2\n      swap1\n      dup2\n      dup2\n      mstore\n      0x20\n      add\n      dup3\n      dup1\n      sload\n      tag_269\n      swap1\n      tag_64\n      jump\t// in\n    tag_269:\n      dup1\n      iszero\n      tag_270\n      jumpi\n      dup1\n      0x1f\n      lt\n      tag_271\n      jumpi\n      0x0100\n      dup1\n      dup4\n      sload\n      div\n      mul\n      dup4\n      mstore\n      swap2\n      0x20\n      add\n      swap2\n      jump(tag_270)\n    tag_271:\n      dup3\n      add\n      swap2\n      swap1\n      0x00\n      mstore\n      keccak256(0x00, 0x20)\n      swap1\n    tag_272:\n      dup2\n      sload\n      dup2\n      mstore\n      swap1\n      0x01\n      add\n      swap1\n      0x20\n      add\n      dup1\n      dup4\n      gt\n      tag_272\n      jumpi\n      dup3\n      swap1\n      sub\n      0x1f\n      and\n      dup3\n      add\n      swap2\n    tag_270:\n      pop\n      pop\n      pop\n      pop\n      pop\n      dup2\n      mstore\n      0x20\n      add\n      0x05\n      dup3\n      add\n      dup1\n      sload\n      tag_273\n      swap1\n      tag_64\n      jump\t// in\n    tag_273:\n      dup1\n      0x1f\n      add\n      0x20\n      dup1\n      swap2\n      div\n      mul\n      0x20\n      add\n      mload(0x40)\n      swap1\n      dup2\n      add\n      0x40\n      mstore\n      dup1\n      swap3\n      swap2\n      swap1\n      dup2\n      dup2\n      mstore\n      0x20\n      add\n      dup3\n      dup1\n      sload\n      tag_274\n      swap1\n      tag_64\n      jump\t// in\n    tag_274:\n      dup1\n      iszero\n      tag_275\n      jumpi\n      dup1\n      0x1f\n      lt\n      tag_276\n      jumpi\n      0x0100\n      dup1\n      dup4\n      sload\n      div\n      mul\n      dup4\n      mstore\n      swap2\n      0x20\n      add\n      swap2\n      jump(tag_275)\n    tag_276:\n      dup3\n      add\n      swap2\n      swap1\n      0x00\n      mstore\n      keccak256(0x00, 0x20)\n      swap1\n    tag_277:\n      dup2\n      sload\n      dup2\n      mstore\n      swap1\n      0x01\n      add\n      swap1\n      0x20\n      add\n      dup1\n      dup4\n      gt\n      tag_277\n      jumpi\n      dup3\n      swap1\n      sub\n      0x1f\n      and\n      dup3\n      add\n      swap2\n    tag_275:\n      pop\n      pop\n      pop\n      pop\n      pop\n      dup2\n      mstore\n      0x20\n      add\n      0x06\n      dup3\n      add\n      dup1\n      sload\n      tag_278\n      swap1\n      tag_64\n      jump\t// in\n    tag_278:\n      dup1\n      0x1f\n      add\n      0x20\n      dup1\n      swap2\n      div\n      mul\n      0x20\n      add\n      mload(0x40)\n      swap1\n      dup2\n      add\n      0x40\n      mstore\n      dup1\n      swap3\n      swap2\n      swap1\n      dup2\n      dup2\n      mstore\n      0x20\n      add\n      dup3\n      dup1\n      sload\n      tag_279\n      swap1\n      tag_64\n      jump\t// in\n    tag_279:\n      dup1\n      iszero\n      tag_280\n      jumpi\n      dup1\n      0x1f\n      lt\n      tag_281\n      jumpi\n      0x0100\n      dup1\n      dup4\n      sload\n      div\n      mul\n      dup4\n      mstore\n      swap2\n      0x20\n      add\n      swap2\n      jump(tag_280)\n    tag_281:\n      dup3\n      add\n      swap2\n      swap1\n      0x00\n      mstore\n      keccak256(0x00, 0x20)\n      swap1\n    tag_282:\n      dup2\n      sload\n      dup2\n      mstore\n      swap1\n      0x01\n      add\n      swap1\n      0x20\n      add\n      dup1\n      dup4\n      gt\n      tag_282\n      jumpi\n      dup3\n      swap1\n      sub\n      0x1f\n      and\n      dup3\n      add\n      swap2\n    tag_280:\n      pop\n      pop\n      pop\n      pop\n      pop\n      dup2\n      mstore\n      0x20\n      add\n      0x07\n      dup3\n      add\n      sload\n      dup2\n      mstore\n      pop\n      pop\n        /* \"contracts/TransactionContract28April1.sol\":3332:3345  _transactions */\n      dup4\n        /* \"contracts/TransactionContract28April1.sol\":3346:3347  j */\n      dup4\n        /* \"contracts/TransactionContract28April1.sol\":3332:3348  _transactions[j] */\n      dup2\n      mload\n      dup2\n      lt\n      tag_283\n      jumpi\n      tag_284\n      tag_149\n      jump\t// in\n    tag_284:\n    tag_283:\n      0x20\n      mul\n      0x20\n      add\n      add\n        /* \"contracts/TransactionContract28April1.sol\":3332:3366  _transactions[j] = transactions[i] */\n      dup2\n      swap1\n      mstore\n      pop\n        /* \"contracts/TransactionContract28April1.sol\":3384:3387  j++ */\n      dup2\n      dup1\n      tag_285\n      swap1\n      tag_50\n      jump\t// in\n    tag_285:\n      swap3\n      pop\n      pop\n        /* \"contracts/TransactionContract28April1.sol\":3169:3402  if (... */\n    tag_252:\n        /* \"contracts/TransactionContract28April1.sol\":3150:3153  i++ */\n      dup1\n      dup1\n      tag_286\n      swap1\n      tag_50\n      jump\t// in\n    tag_286:\n      swap2\n      pop\n      pop\n        /* \"contracts/TransactionContract28April1.sol\":3110:3412  for (uint i = 1; i <= transactionCount; i++) {... */\n      jump(tag_247)\n    tag_248:\n      pop\n        /* \"contracts/TransactionContract28April1.sol\":3428:3441  _transactions */\n      dup2\n        /* \"contracts/TransactionContract28April1.sol\":3421:3441  return _transactions */\n      swap4\n      pop\n      pop\n      pop\n      pop\n        /* \"contracts/TransactionContract28April1.sol\":2608:3448  function getTransactionByBuyerId(... */\n      swap2\n      swap1\n      pop\n      jump\t// out\n    tag_61:\n      mload(0x40)\n      dup1\n      0x0100\n      add\n      0x40\n      mstore\n      dup1\n      0x00\n      dup2\n      mstore\n      0x20\n      add\n      0x60\n      dup2\n      mstore\n      0x20\n      add\n      0x60\n      dup2\n      mstore\n      0x20\n      add\n      0x60\n      dup2\n      mstore\n      0x20\n      add\n      0x60\n      dup2\n      mstore\n      0x20\n      add\n      0x60\n      dup2\n      mstore\n      0x20\n      add\n      0x60\n      dup2\n      mstore\n      0x20\n      add\n      0x00\n      dup2\n      mstore\n      pop\n      swap1\n      jump\t// out\n        /* \"#utility.yul\":7:82   */\n    tag_287:\n        /* \"#utility.yul\":40:46   */\n      0x00\n        /* \"#utility.yul\":73:75   */\n      0x40\n        /* \"#utility.yul\":67:76   */\n      mload\n        /* \"#utility.yul\":57:76   */\n      swap1\n      pop\n        /* \"#utility.yul\":7:82   */\n      swap1\n      jump\t// out\n        /* \"#utility.yul\":88:205   */\n    tag_288:\n        /* \"#utility.yul\":197:198   */\n      0x00\n        /* \"#utility.yul\":194:195   */\n      dup1\n        /* \"#utility.yul\":187:199   */\n      revert\n        /* \"#utility.yul\":211:328   */\n    tag_289:\n        /* \"#utility.yul\":320:321   */\n      0x00\n        /* \"#utility.yul\":317:318   */\n      dup1\n        /* \"#utility.yul\":310:322   */\n      revert\n        /* \"#utility.yul\":334:451   */\n    tag_290:\n        /* \"#utility.yul\":443:444   */\n      0x00\n        /* \"#utility.yul\":440:441   */\n      dup1\n        /* \"#utility.yul\":433:445   */\n      revert\n        /* \"#utility.yul\":457:574   */\n    tag_291:\n        /* \"#utility.yul\":566:567   */\n      0x00\n        /* \"#utility.yul\":563:564   */\n      dup1\n        /* \"#utility.yul\":556:568   */\n      revert\n        /* \"#utility.yul\":580:682   */\n    tag_292:\n        /* \"#utility.yul\":621:627   */\n      0x00\n        /* \"#utility.yul\":672:674   */\n      0x1f\n        /* \"#utility.yul\":668:675   */\n      not\n        /* \"#utility.yul\":663:665   */\n      0x1f\n        /* \"#utility.yul\":656:661   */\n      dup4\n        /* \"#utility.yul\":652:666   */\n      add\n        /* \"#utility.yul\":648:676   */\n      and\n        /* \"#utility.yul\":638:676   */\n      swap1\n      pop\n        /* \"#utility.yul\":580:682   */\n      swap2\n      swap1\n      pop\n      jump\t// out\n        /* \"#utility.yul\":688:868   */\n    tag_107:\n        /* \"#utility.yul\":736:813   */\n      0x4e487b7100000000000000000000000000000000000000000000000000000000\n        /* \"#utility.yul\":733:734   */\n      0x00\n        /* \"#utility.yul\":726:814   */\n      mstore\n        /* \"#utility.yul\":833:837   */\n      0x41\n        /* \"#utility.yul\":830:831   */\n      0x04\n        /* \"#utility.yul\":823:838   */\n      mstore\n        /* \"#utility.yul\":857:861   */\n      0x24\n        /* \"#utility.yul\":854:855   */\n      0x00\n        /* \"#utility.yul\":847:862   */\n      revert\n        /* \"#utility.yul\":874:1155   */\n    tag_293:\n        /* \"#utility.yul\":957:984   */\n      tag_349\n        /* \"#utility.yul\":979:983   */\n      dup3\n        /* \"#utility.yul\":957:984   */\n      tag_292\n      jump\t// in\n    tag_349:\n        /* \"#utility.yul\":949:955   */\n      dup2\n        /* \"#utility.yul\":945:985   */\n      add\n        /* \"#utility.yul\":1087:1093   */\n      dup2\n        /* \"#utility.yul\":1075:1085   */\n      dup2\n        /* \"#utility.yul\":1072:1094   */\n      lt\n        /* \"#utility.yul\":1051:1069   */\n      0xffffffffffffffff\n        /* \"#utility.yul\":1039:1049   */\n      dup3\n        /* \"#utility.yul\":1036:1070   */\n      gt\n        /* \"#utility.yul\":1033:1095   */\n      or\n        /* \"#utility.yul\":1030:1118   */\n      iszero\n      tag_350\n      jumpi\n        /* \"#utility.yul\":1098:1116   */\n      tag_351\n      tag_107\n      jump\t// in\n    tag_351:\n        /* \"#utility.yul\":1030:1118   */\n    tag_350:\n        /* \"#utility.yul\":1138:1148   */\n      dup1\n        /* \"#utility.yul\":1134:1136   */\n      0x40\n        /* \"#utility.yul\":1127:1149   */\n      mstore\n        /* \"#utility.yul\":917:1155   */\n      pop\n        /* \"#utility.yul\":874:1155   */\n      pop\n      pop\n      jump\t// out\n        /* \"#utility.yul\":1161:1290   */\n    tag_294:\n        /* \"#utility.yul\":1195:1201   */\n      0x00\n        /* \"#utility.yul\":1222:1242   */\n      tag_353\n      tag_287\n      jump\t// in\n    tag_353:\n        /* \"#utility.yul\":1212:1242   */\n      swap1\n      pop\n        /* \"#utility.yul\":1251:1284   */\n      tag_354\n        /* \"#utility.yul\":1279:1283   */\n      dup3\n        /* \"#utility.yul\":1271:1277   */\n      dup3\n        /* \"#utility.yul\":1251:1284   */\n      tag_293\n      jump\t// in\n    tag_354:\n        /* \"#utility.yul\":1161:1290   */\n      swap2\n      swap1\n      pop\n      jump\t// out\n        /* \"#utility.yul\":1296:1604   */\n    tag_295:\n        /* \"#utility.yul\":1358:1362   */\n      0x00\n        /* \"#utility.yul\":1448:1466   */\n      0xffffffffffffffff\n        /* \"#utility.yul\":1440:1446   */\n      dup3\n        /* \"#utility.yul\":1437:1467   */\n      gt\n        /* \"#utility.yul\":1434:1490   */\n      iszero\n      tag_356\n      jumpi\n        /* \"#utility.yul\":1470:1488   */\n      tag_357\n      tag_107\n      jump\t// in\n    tag_357:\n        /* \"#utility.yul\":1434:1490   */\n    tag_356:\n        /* \"#utility.yul\":1508:1537   */\n      tag_358\n        /* \"#utility.yul\":1530:1536   */\n      dup3\n        /* \"#utility.yul\":1508:1537   */\n      tag_292\n      jump\t// in\n    tag_358:\n        /* \"#utility.yul\":1500:1537   */\n      swap1\n      pop\n        /* \"#utility.yul\":1592:1596   */\n      0x20\n        /* \"#utility.yul\":1586:1590   */\n      dup2\n        /* \"#utility.yul\":1582:1597   */\n      add\n        /* \"#utility.yul\":1574:1597   */\n      swap1\n      pop\n        /* \"#utility.yul\":1296:1604   */\n      swap2\n      swap1\n      pop\n      jump\t// out\n        /* \"#utility.yul\":1610:1756   */\n    tag_296:\n        /* \"#utility.yul\":1707:1713   */\n      dup3\n        /* \"#utility.yul\":1702:1705   */\n      dup2\n        /* \"#utility.yul\":1697:1700   */\n      dup4\n        /* \"#utility.yul\":1684:1714   */\n      calldatacopy\n        /* \"#utility.yul\":1748:1749   */\n      0x00\n        /* \"#utility.yul\":1739:1745   */\n      dup4\n        /* \"#utility.yul\":1734:1737   */\n      dup4\n        /* \"#utility.yul\":1730:1746   */\n      add\n        /* \"#utility.yul\":1723:1750   */\n      mstore\n        /* \"#utility.yul\":1610:1756   */\n      pop\n      pop\n      pop\n      jump\t// out\n        /* \"#utility.yul\":1762:2187   */\n    tag_297:\n        /* \"#utility.yul\":1840:1845   */\n      0x00\n        /* \"#utility.yul\":1865:1931   */\n      tag_361\n        /* \"#utility.yul\":1881:1930   */\n      tag_362\n        /* \"#utility.yul\":1923:1929   */\n      dup5\n        /* \"#utility.yul\":1881:1930   */\n      tag_295\n      jump\t// in\n    tag_362:\n        /* \"#utility.yul\":1865:1931   */\n      tag_294\n      jump\t// in\n    tag_361:\n        /* \"#utility.yul\":1856:1931   */\n      swap1\n      pop\n        /* \"#utility.yul\":1954:1960   */\n      dup3\n        /* \"#utility.yul\":1947:1952   */\n      dup2\n        /* \"#utility.yul\":1940:1961   */\n      mstore\n        /* \"#utility.yul\":1992:1996   */\n      0x20\n        /* \"#utility.yul\":1985:1990   */\n      dup2\n        /* \"#utility.yul\":1981:1997   */\n      add\n        /* \"#utility.yul\":2030:2033   */\n      dup5\n        /* \"#utility.yul\":2021:2027   */\n      dup5\n        /* \"#utility.yul\":2016:2019   */\n      dup5\n        /* \"#utility.yul\":2012:2028   */\n      add\n        /* \"#utility.yul\":2009:2034   */\n      gt\n        /* \"#utility.yul\":2006:2118   */\n      iszero\n      tag_363\n      jumpi\n        /* \"#utility.yul\":2037:2116   */\n      tag_364\n      tag_291\n      jump\t// in\n    tag_364:\n        /* \"#utility.yul\":2006:2118   */\n    tag_363:\n        /* \"#utility.yul\":2127:2181   */\n      tag_365\n        /* \"#utility.yul\":2174:2180   */\n      dup5\n        /* \"#utility.yul\":2169:2172   */\n      dup3\n        /* \"#utility.yul\":2164:2167   */\n      dup6\n        /* \"#utility.yul\":2127:2181   */\n      tag_296\n      jump\t// in\n    tag_365:\n        /* \"#utility.yul\":1846:2187   */\n      pop\n        /* \"#utility.yul\":1762:2187   */\n      swap4\n      swap3\n      pop\n      pop\n      pop\n      jump\t// out\n        /* \"#utility.yul\":2207:2547   */\n    tag_298:\n        /* \"#utility.yul\":2263:2268   */\n      0x00\n        /* \"#utility.yul\":2312:2315   */\n      dup3\n        /* \"#utility.yul\":2305:2309   */\n      0x1f\n        /* \"#utility.yul\":2297:2303   */\n      dup4\n        /* \"#utility.yul\":2293:2310   */\n      add\n        /* \"#utility.yul\":2289:2316   */\n      slt\n        /* \"#utility.yul\":2279:2401   */\n      tag_367\n      jumpi\n        /* \"#utility.yul\":2320:2399   */\n      tag_368\n      tag_290\n      jump\t// in\n    tag_368:\n        /* \"#utility.yul\":2279:2401   */\n    tag_367:\n        /* \"#utility.yul\":2437:2443   */\n      dup2\n        /* \"#utility.yul\":2424:2444   */\n      calldataload\n        /* \"#utility.yul\":2462:2541   */\n      tag_369\n        /* \"#utility.yul\":2537:2540   */\n      dup5\n        /* \"#utility.yul\":2529:2535   */\n      dup3\n        /* \"#utility.yul\":2522:2526   */\n      0x20\n        /* \"#utility.yul\":2514:2520   */\n      dup7\n        /* \"#utility.yul\":2510:2527   */\n      add\n        /* \"#utility.yul\":2462:2541   */\n      tag_297\n      jump\t// in\n    tag_369:\n        /* \"#utility.yul\":2453:2541   */\n      swap2\n      pop\n        /* \"#utility.yul\":2269:2547   */\n      pop\n        /* \"#utility.yul\":2207:2547   */\n      swap3\n      swap2\n      pop\n      pop\n      jump\t// out\n        /* \"#utility.yul\":2553:2630   */\n    tag_299:\n        /* \"#utility.yul\":2590:2597   */\n      0x00\n        /* \"#utility.yul\":2619:2624   */\n      dup2\n        /* \"#utility.yul\":2608:2624   */\n      swap1\n      pop\n        /* \"#utility.yul\":2553:2630   */\n      swap2\n      swap1\n      pop\n      jump\t// out\n        /* \"#utility.yul\":2636:2758   */\n    tag_300:\n        /* \"#utility.yul\":2709:2733   */\n      tag_372\n        /* \"#utility.yul\":2727:2732   */\n      dup2\n        /* \"#utility.yul\":2709:2733   */\n      tag_299\n      jump\t// in\n    tag_372:\n        /* \"#utility.yul\":2702:2707   */\n      dup2\n        /* \"#utility.yul\":2699:2734   */\n      eq\n        /* \"#utility.yul\":2689:2752   */\n      tag_373\n      jumpi\n        /* \"#utility.yul\":2748:2749   */\n      0x00\n        /* \"#utility.yul\":2745:2746   */\n      dup1\n        /* \"#utility.yul\":2738:2750   */\n      revert\n        /* \"#utility.yul\":2689:2752   */\n    tag_373:\n        /* \"#utility.yul\":2636:2758   */\n      pop\n      jump\t// out\n        /* \"#utility.yul\":2764:2903   */\n    tag_301:\n        /* \"#utility.yul\":2810:2815   */\n      0x00\n        /* \"#utility.yul\":2848:2854   */\n      dup2\n        /* \"#utility.yul\":2835:2855   */\n      calldataload\n        /* \"#utility.yul\":2826:2855   */\n      swap1\n      pop\n        /* \"#utility.yul\":2864:2897   */\n      tag_375\n        /* \"#utility.yul\":2891:2896   */\n      dup2\n        /* \"#utility.yul\":2864:2897   */\n      tag_300\n      jump\t// in\n    tag_375:\n        /* \"#utility.yul\":2764:2903   */\n      swap3\n      swap2\n      pop\n      pop\n      jump\t// out\n        /* \"#utility.yul\":2909:5192   */\n    tag_14:\n        /* \"#utility.yul\":3082:3088   */\n      0x00\n        /* \"#utility.yul\":3090:3096   */\n      dup1\n        /* \"#utility.yul\":3098:3104   */\n      0x00\n        /* \"#utility.yul\":3106:3112   */\n      dup1\n        /* \"#utility.yul\":3114:3120   */\n      0x00\n        /* \"#utility.yul\":3122:3128   */\n      dup1\n        /* \"#utility.yul\":3130:3136   */\n      0x00\n        /* \"#utility.yul\":3179:3182   */\n      0xe0\n        /* \"#utility.yul\":3167:3176   */\n      dup9\n        /* \"#utility.yul\":3158:3165   */\n      dup11\n        /* \"#utility.yul\":3154:3177   */\n      sub\n        /* \"#utility.yul\":3150:3183   */\n      slt\n        /* \"#utility.yul\":3147:3267   */\n      iszero\n      tag_377\n      jumpi\n        /* \"#utility.yul\":3186:3265   */\n      tag_378\n      tag_288\n      jump\t// in\n    tag_378:\n        /* \"#utility.yul\":3147:3267   */\n    tag_377:\n        /* \"#utility.yul\":3334:3335   */\n      0x00\n        /* \"#utility.yul\":3323:3332   */\n      dup9\n        /* \"#utility.yul\":3319:3336   */\n      add\n        /* \"#utility.yul\":3306:3337   */\n      calldataload\n        /* \"#utility.yul\":3364:3382   */\n      0xffffffffffffffff\n        /* \"#utility.yul\":3356:3362   */\n      dup2\n        /* \"#utility.yul\":3353:3383   */\n      gt\n        /* \"#utility.yul\":3350:3467   */\n      iszero\n      tag_379\n      jumpi\n        /* \"#utility.yul\":3386:3465   */\n      tag_380\n      tag_289\n      jump\t// in\n    tag_380:\n        /* \"#utility.yul\":3350:3467   */\n    tag_379:\n        /* \"#utility.yul\":3491:3554   */\n      tag_381\n        /* \"#utility.yul\":3546:3553   */\n      dup11\n        /* \"#utility.yul\":3537:3543   */\n      dup3\n        /* \"#utility.yul\":3526:3535   */\n      dup12\n        /* \"#utility.yul\":3522:3544   */\n      add\n        /* \"#utility.yul\":3491:3554   */\n      tag_298\n      jump\t// in\n    tag_381:\n        /* \"#utility.yul\":3481:3554   */\n      swap8\n      pop\n        /* \"#utility.yul\":3277:3564   */\n      pop\n        /* \"#utility.yul\":3631:3633   */\n      0x20\n        /* \"#utility.yul\":3620:3629   */\n      dup9\n        /* \"#utility.yul\":3616:3634   */\n      add\n        /* \"#utility.yul\":3603:3635   */\n      calldataload\n        /* \"#utility.yul\":3662:3680   */\n      0xffffffffffffffff\n        /* \"#utility.yul\":3654:3660   */\n      dup2\n        /* \"#utility.yul\":3651:3681   */\n      gt\n        /* \"#utility.yul\":3648:3765   */\n      iszero\n      tag_382\n      jumpi\n        /* \"#utility.yul\":3684:3763   */\n      tag_383\n      tag_289\n      jump\t// in\n    tag_383:\n        /* \"#utility.yul\":3648:3765   */\n    tag_382:\n        /* \"#utility.yul\":3789:3852   */\n      tag_384\n        /* \"#utility.yul\":3844:3851   */\n      dup11\n        /* \"#utility.yul\":3835:3841   */\n      dup3\n        /* \"#utility.yul\":3824:3833   */\n      dup12\n        /* \"#utility.yul\":3820:3842   */\n      add\n        /* \"#utility.yul\":3789:3852   */\n      tag_298\n      jump\t// in\n    tag_384:\n        /* \"#utility.yul\":3779:3852   */\n      swap7\n      pop\n        /* \"#utility.yul\":3574:3862   */\n      pop\n        /* \"#utility.yul\":3929:3931   */\n      0x40\n        /* \"#utility.yul\":3918:3927   */\n      dup9\n        /* \"#utility.yul\":3914:3932   */\n      add\n        /* \"#utility.yul\":3901:3933   */\n      calldataload\n        /* \"#utility.yul\":3960:3978   */\n      0xffffffffffffffff\n        /* \"#utility.yul\":3952:3958   */\n      dup2\n        /* \"#utility.yul\":3949:3979   */\n      gt\n        /* \"#utility.yul\":3946:4063   */\n      iszero\n      tag_385\n      jumpi\n        /* \"#utility.yul\":3982:4061   */\n      tag_386\n      tag_289\n      jump\t// in\n    tag_386:\n        /* \"#utility.yul\":3946:4063   */\n    tag_385:\n        /* \"#utility.yul\":4087:4150   */\n      tag_387\n        /* \"#utility.yul\":4142:4149   */\n      dup11\n        /* \"#utility.yul\":4133:4139   */\n      dup3\n        /* \"#utility.yul\":4122:4131   */\n      dup12\n        /* \"#utility.yul\":4118:4140   */\n      add\n        /* \"#utility.yul\":4087:4150   */\n      tag_298\n      jump\t// in\n    tag_387:\n        /* \"#utility.yul\":4077:4150   */\n      swap6\n      pop\n        /* \"#utility.yul\":3872:4160   */\n      pop\n        /* \"#utility.yul\":4227:4229   */\n      0x60\n        /* \"#utility.yul\":4216:4225   */\n      dup9\n        /* \"#utility.yul\":4212:4230   */\n      add\n        /* \"#utility.yul\":4199:4231   */\n      calldataload\n        /* \"#utility.yul\":4258:4276   */\n      0xffffffffffffffff\n        /* \"#utility.yul\":4250:4256   */\n      dup2\n        /* \"#utility.yul\":4247:4277   */\n      gt\n        /* \"#utility.yul\":4244:4361   */\n      iszero\n      tag_388\n      jumpi\n        /* \"#utility.yul\":4280:4359   */\n      tag_389\n      tag_289\n      jump\t// in\n    tag_389:\n        /* \"#utility.yul\":4244:4361   */\n    tag_388:\n        /* \"#utility.yul\":4385:4448   */\n      tag_390\n        /* \"#utility.yul\":4440:4447   */\n      dup11\n        /* \"#utility.yul\":4431:4437   */\n      dup3\n        /* \"#utility.yul\":4420:4429   */\n      dup12\n        /* \"#utility.yul\":4416:4438   */\n      add\n        /* \"#utility.yul\":4385:4448   */\n      tag_298\n      jump\t// in\n    tag_390:\n        /* \"#utility.yul\":4375:4448   */\n      swap5\n      pop\n        /* \"#utility.yul\":4170:4458   */\n      pop\n        /* \"#utility.yul\":4525:4528   */\n      0x80\n        /* \"#utility.yul\":4514:4523   */\n      dup9\n        /* \"#utility.yul\":4510:4529   */\n      add\n        /* \"#utility.yul\":4497:4530   */\n      calldataload\n        /* \"#utility.yul\":4557:4575   */\n      0xffffffffffffffff\n        /* \"#utility.yul\":4549:4555   */\n      dup2\n        /* \"#utility.yul\":4546:4576   */\n      gt\n        /* \"#utility.yul\":4543:4660   */\n      iszero\n      tag_391\n      jumpi\n        /* \"#utility.yul\":4579:4658   */\n      tag_392\n      tag_289\n      jump\t// in\n    tag_392:\n        /* \"#utility.yul\":4543:4660   */\n    tag_391:\n        /* \"#utility.yul\":4684:4747   */\n      tag_393\n        /* \"#utility.yul\":4739:4746   */\n      dup11\n        /* \"#utility.yul\":4730:4736   */\n      dup3\n        /* \"#utility.yul\":4719:4728   */\n      dup12\n        /* \"#utility.yul\":4715:4737   */\n      add\n        /* \"#utility.yul\":4684:4747   */\n      tag_298\n      jump\t// in\n    tag_393:\n        /* \"#utility.yul\":4674:4747   */\n      swap4\n      pop\n        /* \"#utility.yul\":4468:4757   */\n      pop\n        /* \"#utility.yul\":4824:4827   */\n      0xa0\n        /* \"#utility.yul\":4813:4822   */\n      dup9\n        /* \"#utility.yul\":4809:4828   */\n      add\n        /* \"#utility.yul\":4796:4829   */\n      calldataload\n        /* \"#utility.yul\":4856:4874   */\n      0xffffffffffffffff\n        /* \"#utility.yul\":4848:4854   */\n      dup2\n        /* \"#utility.yul\":4845:4875   */\n      gt\n        /* \"#utility.yul\":4842:4959   */\n      iszero\n      tag_394\n      jumpi\n        /* \"#utility.yul\":4878:4957   */\n      tag_395\n      tag_289\n      jump\t// in\n    tag_395:\n        /* \"#utility.yul\":4842:4959   */\n    tag_394:\n        /* \"#utility.yul\":4983:5046   */\n      tag_396\n        /* \"#utility.yul\":5038:5045   */\n      dup11\n        /* \"#utility.yul\":5029:5035   */\n      dup3\n        /* \"#utility.yul\":5018:5027   */\n      dup12\n        /* \"#utility.yul\":5014:5036   */\n      add\n        /* \"#utility.yul\":4983:5046   */\n      tag_298\n      jump\t// in\n    tag_396:\n        /* \"#utility.yul\":4973:5046   */\n      swap3\n      pop\n        /* \"#utility.yul\":4767:5056   */\n      pop\n        /* \"#utility.yul\":5095:5098   */\n      0xc0\n        /* \"#utility.yul\":5122:5175   */\n      tag_397\n        /* \"#utility.yul\":5167:5174   */\n      dup11\n        /* \"#utility.yul\":5158:5164   */\n      dup3\n        /* \"#utility.yul\":5147:5156   */\n      dup12\n        /* \"#utility.yul\":5143:5165   */\n      add\n        /* \"#utility.yul\":5122:5175   */\n      tag_301\n      jump\t// in\n    tag_397:\n        /* \"#utility.yul\":5112:5175   */\n      swap2\n      pop\n        /* \"#utility.yul\":5066:5185   */\n      pop\n        /* \"#utility.yul\":2909:5192   */\n      swap3\n      swap6\n      swap9\n      swap2\n      swap5\n      swap8\n      pop\n      swap3\n      swap6\n      pop\n      jump\t// out\n        /* \"#utility.yul\":5198:5527   */\n    tag_18:\n        /* \"#utility.yul\":5257:5263   */\n      0x00\n        /* \"#utility.yul\":5306:5308   */\n      0x20\n        /* \"#utility.yul\":5294:5303   */\n      dup3\n        /* \"#utility.yul\":5285:5292   */\n      dup5\n        /* \"#utility.yul\":5281:5304   */\n      sub\n        /* \"#utility.yul\":5277:5309   */\n      slt\n        /* \"#utility.yul\":5274:5393   */\n      iszero\n      tag_399\n      jumpi\n        /* \"#utility.yul\":5312:5391   */\n      tag_400\n      tag_288\n      jump\t// in\n    tag_400:\n        /* \"#utility.yul\":5274:5393   */\n    tag_399:\n        /* \"#utility.yul\":5432:5433   */\n      0x00\n        /* \"#utility.yul\":5457:5510   */\n      tag_401\n        /* \"#utility.yul\":5502:5509   */\n      dup5\n        /* \"#utility.yul\":5493:5499   */\n      dup3\n        /* \"#utility.yul\":5482:5491   */\n      dup6\n        /* \"#utility.yul\":5478:5500   */\n      add\n        /* \"#utility.yul\":5457:5510   */\n      tag_301\n      jump\t// in\n    tag_401:\n        /* \"#utility.yul\":5447:5510   */\n      swap2\n      pop\n        /* \"#utility.yul\":5403:5520   */\n      pop\n        /* \"#utility.yul\":5198:5527   */\n      swap3\n      swap2\n      pop\n      pop\n      jump\t// out\n        /* \"#utility.yul\":5533:5641   */\n    tag_302:\n        /* \"#utility.yul\":5610:5634   */\n      tag_403\n        /* \"#utility.yul\":5628:5633   */\n      dup2\n        /* \"#utility.yul\":5610:5634   */\n      tag_299\n      jump\t// in\n    tag_403:\n        /* \"#utility.yul\":5605:5608   */\n      dup3\n        /* \"#utility.yul\":5598:5635   */\n      mstore\n        /* \"#utility.yul\":5533:5641   */\n      pop\n      pop\n      jump\t// out\n        /* \"#utility.yul\":5647:5746   */\n    tag_303:\n        /* \"#utility.yul\":5699:5705   */\n      0x00\n        /* \"#utility.yul\":5733:5738   */\n      dup2\n        /* \"#utility.yul\":5727:5739   */\n      mload\n        /* \"#utility.yul\":5717:5739   */\n      swap1\n      pop\n        /* \"#utility.yul\":5647:5746   */\n      swap2\n      swap1\n      pop\n      jump\t// out\n        /* \"#utility.yul\":5752:5911   */\n    tag_304:\n        /* \"#utility.yul\":5826:5837   */\n      0x00\n        /* \"#utility.yul\":5860:5866   */\n      dup3\n        /* \"#utility.yul\":5855:5858   */\n      dup3\n        /* \"#utility.yul\":5848:5867   */\n      mstore\n        /* \"#utility.yul\":5900:5904   */\n      0x20\n        /* \"#utility.yul\":5895:5898   */\n      dup3\n        /* \"#utility.yul\":5891:5905   */\n      add\n        /* \"#utility.yul\":5876:5905   */\n      swap1\n      pop\n        /* \"#utility.yul\":5752:5911   */\n      swap3\n      swap2\n      pop\n      pop\n      jump\t// out\n        /* \"#utility.yul\":5917:6163   */\n    tag_305:\n        /* \"#utility.yul\":5998:5999   */\n      0x00\n        /* \"#utility.yul\":6008:6121   */\n    tag_407:\n        /* \"#utility.yul\":6022:6028   */\n      dup4\n        /* \"#utility.yul\":6019:6020   */\n      dup2\n        /* \"#utility.yul\":6016:6029   */\n      lt\n        /* \"#utility.yul\":6008:6121   */\n      iszero\n      tag_409\n      jumpi\n        /* \"#utility.yul\":6107:6108   */\n      dup1\n        /* \"#utility.yul\":6102:6105   */\n      dup3\n        /* \"#utility.yul\":6098:6109   */\n      add\n        /* \"#utility.yul\":6092:6110   */\n      mload\n        /* \"#utility.yul\":6088:6089   */\n      dup2\n        /* \"#utility.yul\":6083:6086   */\n      dup5\n        /* \"#utility.yul\":6079:6090   */\n      add\n        /* \"#utility.yul\":6072:6111   */\n      mstore\n        /* \"#utility.yul\":6044:6046   */\n      0x20\n        /* \"#utility.yul\":6041:6042   */\n      dup2\n        /* \"#utility.yul\":6037:6047   */\n      add\n        /* \"#utility.yul\":6032:6047   */\n      swap1\n      pop\n        /* \"#utility.yul\":6008:6121   */\n      jump(tag_407)\n    tag_409:\n        /* \"#utility.yul\":6155:6156   */\n      0x00\n        /* \"#utility.yul\":6146:6152   */\n      dup5\n        /* \"#utility.yul\":6141:6144   */\n      dup5\n        /* \"#utility.yul\":6137:6153   */\n      add\n        /* \"#utility.yul\":6130:6157   */\n      mstore\n        /* \"#utility.yul\":5979:6163   */\n      pop\n        /* \"#utility.yul\":5917:6163   */\n      pop\n      pop\n      pop\n      jump\t// out\n        /* \"#utility.yul\":6169:6526   */\n    tag_306:\n        /* \"#utility.yul\":6247:6250   */\n      0x00\n        /* \"#utility.yul\":6275:6314   */\n      tag_411\n        /* \"#utility.yul\":6308:6313   */\n      dup3\n        /* \"#utility.yul\":6275:6314   */\n      tag_303\n      jump\t// in\n    tag_411:\n        /* \"#utility.yul\":6330:6391   */\n      tag_412\n        /* \"#utility.yul\":6384:6390   */\n      dup2\n        /* \"#utility.yul\":6379:6382   */\n      dup6\n        /* \"#utility.yul\":6330:6391   */\n      tag_304\n      jump\t// in\n    tag_412:\n        /* \"#utility.yul\":6323:6391   */\n      swap4\n      pop\n        /* \"#utility.yul\":6400:6465   */\n      tag_413\n        /* \"#utility.yul\":6458:6464   */\n      dup2\n        /* \"#utility.yul\":6453:6456   */\n      dup6\n        /* \"#utility.yul\":6446:6450   */\n      0x20\n        /* \"#utility.yul\":6439:6444   */\n      dup7\n        /* \"#utility.yul\":6435:6451   */\n      add\n        /* \"#utility.yul\":6400:6465   */\n      tag_305\n      jump\t// in\n    tag_413:\n        /* \"#utility.yul\":6490:6519   */\n      tag_414\n        /* \"#utility.yul\":6512:6518   */\n      dup2\n        /* \"#utility.yul\":6490:6519   */\n      tag_292\n      jump\t// in\n    tag_414:\n        /* \"#utility.yul\":6485:6488   */\n      dup5\n        /* \"#utility.yul\":6481:6520   */\n      add\n        /* \"#utility.yul\":6474:6520   */\n      swap2\n      pop\n        /* \"#utility.yul\":6251:6526   */\n      pop\n        /* \"#utility.yul\":6169:6526   */\n      swap3\n      swap2\n      pop\n      pop\n      jump\t// out\n        /* \"#utility.yul\":6620:8682   */\n    tag_307:\n        /* \"#utility.yul\":6743:6746   */\n      0x00\n        /* \"#utility.yul\":6779:6785   */\n      0x0100\n        /* \"#utility.yul\":6774:6777   */\n      dup4\n        /* \"#utility.yul\":6770:6786   */\n      add\n        /* \"#utility.yul\":6877:6881   */\n      0x00\n        /* \"#utility.yul\":6870:6875   */\n      dup4\n        /* \"#utility.yul\":6866:6882   */\n      add\n        /* \"#utility.yul\":6860:6883   */\n      mload\n        /* \"#utility.yul\":6896:6959   */\n      tag_416\n        /* \"#utility.yul\":6953:6957   */\n      0x00\n        /* \"#utility.yul\":6948:6951   */\n      dup7\n        /* \"#utility.yul\":6944:6958   */\n      add\n        /* \"#utility.yul\":6930:6942   */\n      dup3\n        /* \"#utility.yul\":6896:6959   */\n      tag_302\n      jump\t// in\n    tag_416:\n        /* \"#utility.yul\":6796:6969   */\n      pop\n        /* \"#utility.yul\":7062:7066   */\n      0x20\n        /* \"#utility.yul\":7055:7060   */\n      dup4\n        /* \"#utility.yul\":7051:7067   */\n      add\n        /* \"#utility.yul\":7045:7068   */\n      mload\n        /* \"#utility.yul\":7115:7118   */\n      dup5\n        /* \"#utility.yul\":7109:7113   */\n      dup3\n        /* \"#utility.yul\":7105:7119   */\n      sub\n        /* \"#utility.yul\":7098:7102   */\n      0x20\n        /* \"#utility.yul\":7093:7096   */\n      dup7\n        /* \"#utility.yul\":7089:7103   */\n      add\n        /* \"#utility.yul\":7082:7120   */\n      mstore\n        /* \"#utility.yul\":7141:7214   */\n      tag_417\n        /* \"#utility.yul\":7209:7213   */\n      dup3\n        /* \"#utility.yul\":7195:7207   */\n      dup3\n        /* \"#utility.yul\":7141:7214   */\n      tag_306\n      jump\t// in\n    tag_417:\n        /* \"#utility.yul\":7133:7214   */\n      swap2\n      pop\n        /* \"#utility.yul\":6979:7225   */\n      pop\n        /* \"#utility.yul\":7308:7312   */\n      0x40\n        /* \"#utility.yul\":7301:7306   */\n      dup4\n        /* \"#utility.yul\":7297:7313   */\n      add\n        /* \"#utility.yul\":7291:7314   */\n      mload\n        /* \"#utility.yul\":7361:7364   */\n      dup5\n        /* \"#utility.yul\":7355:7359   */\n      dup3\n        /* \"#utility.yul\":7351:7365   */\n      sub\n        /* \"#utility.yul\":7344:7348   */\n      0x40\n        /* \"#utility.yul\":7339:7342   */\n      dup7\n        /* \"#utility.yul\":7335:7349   */\n      add\n        /* \"#utility.yul\":7328:7366   */\n      mstore\n        /* \"#utility.yul\":7387:7460   */\n      tag_418\n        /* \"#utility.yul\":7455:7459   */\n      dup3\n        /* \"#utility.yul\":7441:7453   */\n      dup3\n        /* \"#utility.yul\":7387:7460   */\n      tag_306\n      jump\t// in\n    tag_418:\n        /* \"#utility.yul\":7379:7460   */\n      swap2\n      pop\n        /* \"#utility.yul\":7235:7471   */\n      pop\n        /* \"#utility.yul\":7556:7560   */\n      0x60\n        /* \"#utility.yul\":7549:7554   */\n      dup4\n        /* \"#utility.yul\":7545:7561   */\n      add\n        /* \"#utility.yul\":7539:7562   */\n      mload\n        /* \"#utility.yul\":7609:7612   */\n      dup5\n        /* \"#utility.yul\":7603:7607   */\n      dup3\n        /* \"#utility.yul\":7599:7613   */\n      sub\n        /* \"#utility.yul\":7592:7596   */\n      0x60\n        /* \"#utility.yul\":7587:7590   */\n      dup7\n        /* \"#utility.yul\":7583:7597   */\n      add\n        /* \"#utility.yul\":7576:7614   */\n      mstore\n        /* \"#utility.yul\":7635:7708   */\n      tag_419\n        /* \"#utility.yul\":7703:7707   */\n      dup3\n        /* \"#utility.yul\":7689:7701   */\n      dup3\n        /* \"#utility.yul\":7635:7708   */\n      tag_306\n      jump\t// in\n    tag_419:\n        /* \"#utility.yul\":7627:7708   */\n      swap2\n      pop\n        /* \"#utility.yul\":7481:7719   */\n      pop\n        /* \"#utility.yul\":7810:7814   */\n      0x80\n        /* \"#utility.yul\":7803:7808   */\n      dup4\n        /* \"#utility.yul\":7799:7815   */\n      add\n        /* \"#utility.yul\":7793:7816   */\n      mload\n        /* \"#utility.yul\":7863:7866   */\n      dup5\n        /* \"#utility.yul\":7857:7861   */\n      dup3\n        /* \"#utility.yul\":7853:7867   */\n      sub\n        /* \"#utility.yul\":7846:7850   */\n      0x80\n        /* \"#utility.yul\":7841:7844   */\n      dup7\n        /* \"#utility.yul\":7837:7851   */\n      add\n        /* \"#utility.yul\":7830:7868   */\n      mstore\n        /* \"#utility.yul\":7889:7962   */\n      tag_420\n        /* \"#utility.yul\":7957:7961   */\n      dup3\n        /* \"#utility.yul\":7943:7955   */\n      dup3\n        /* \"#utility.yul\":7889:7962   */\n      tag_306\n      jump\t// in\n    tag_420:\n        /* \"#utility.yul\":7881:7962   */\n      swap2\n      pop\n        /* \"#utility.yul\":7729:7973   */\n      pop\n        /* \"#utility.yul\":8059:8063   */\n      0xa0\n        /* \"#utility.yul\":8052:8057   */\n      dup4\n        /* \"#utility.yul\":8048:8064   */\n      add\n        /* \"#utility.yul\":8042:8065   */\n      mload\n        /* \"#utility.yul\":8112:8115   */\n      dup5\n        /* \"#utility.yul\":8106:8110   */\n      dup3\n        /* \"#utility.yul\":8102:8116   */\n      sub\n        /* \"#utility.yul\":8095:8099   */\n      0xa0\n        /* \"#utility.yul\":8090:8093   */\n      dup7\n        /* \"#utility.yul\":8086:8100   */\n      add\n        /* \"#utility.yul\":8079:8117   */\n      mstore\n        /* \"#utility.yul\":8138:8211   */\n      tag_421\n        /* \"#utility.yul\":8206:8210   */\n      dup3\n        /* \"#utility.yul\":8192:8204   */\n      dup3\n        /* \"#utility.yul\":8138:8211   */\n      tag_306\n      jump\t// in\n    tag_421:\n        /* \"#utility.yul\":8130:8211   */\n      swap2\n      pop\n        /* \"#utility.yul\":7983:8222   */\n      pop\n        /* \"#utility.yul\":8313:8317   */\n      0xc0\n        /* \"#utility.yul\":8306:8311   */\n      dup4\n        /* \"#utility.yul\":8302:8318   */\n      add\n        /* \"#utility.yul\":8296:8319   */\n      mload\n        /* \"#utility.yul\":8366:8369   */\n      dup5\n        /* \"#utility.yul\":8360:8364   */\n      dup3\n        /* \"#utility.yul\":8356:8370   */\n      sub\n        /* \"#utility.yul\":8349:8353   */\n      0xc0\n        /* \"#utility.yul\":8344:8347   */\n      dup7\n        /* \"#utility.yul\":8340:8354   */\n      add\n        /* \"#utility.yul\":8333:8371   */\n      mstore\n        /* \"#utility.yul\":8392:8465   */\n      tag_422\n        /* \"#utility.yul\":8460:8464   */\n      dup3\n        /* \"#utility.yul\":8446:8458   */\n      dup3\n        /* \"#utility.yul\":8392:8465   */\n      tag_306\n      jump\t// in\n    tag_422:\n        /* \"#utility.yul\":8384:8465   */\n      swap2\n      pop\n        /* \"#utility.yul\":8232:8476   */\n      pop\n        /* \"#utility.yul\":8563:8567   */\n      0xe0\n        /* \"#utility.yul\":8556:8561   */\n      dup4\n        /* \"#utility.yul\":8552:8568   */\n      add\n        /* \"#utility.yul\":8546:8569   */\n      mload\n        /* \"#utility.yul\":8582:8645   */\n      tag_423\n        /* \"#utility.yul\":8639:8643   */\n      0xe0\n        /* \"#utility.yul\":8634:8637   */\n      dup7\n        /* \"#utility.yul\":8630:8644   */\n      add\n        /* \"#utility.yul\":8616:8628   */\n      dup3\n        /* \"#utility.yul\":8582:8645   */\n      tag_302\n      jump\t// in\n    tag_423:\n        /* \"#utility.yul\":8486:8655   */\n      pop\n        /* \"#utility.yul\":8672:8676   */\n      dup1\n        /* \"#utility.yul\":8665:8676   */\n      swap2\n      pop\n        /* \"#utility.yul\":6748:8682   */\n      pop\n        /* \"#utility.yul\":6620:8682   */\n      swap3\n      swap2\n      pop\n      pop\n      jump\t// out\n        /* \"#utility.yul\":8688:9069   */\n    tag_21:\n        /* \"#utility.yul\":8835:8839   */\n      0x00\n        /* \"#utility.yul\":8873:8875   */\n      0x20\n        /* \"#utility.yul\":8862:8871   */\n      dup3\n        /* \"#utility.yul\":8858:8876   */\n      add\n        /* \"#utility.yul\":8850:8876   */\n      swap1\n      pop\n        /* \"#utility.yul\":8922:8931   */\n      dup2\n        /* \"#utility.yul\":8916:8920   */\n      dup2\n        /* \"#utility.yul\":8912:8932   */\n      sub\n        /* \"#utility.yul\":8908:8909   */\n      0x00\n        /* \"#utility.yul\":8897:8906   */\n      dup4\n        /* \"#utility.yul\":8893:8910   */\n      add\n        /* \"#utility.yul\":8886:8933   */\n      mstore\n        /* \"#utility.yul\":8950:9062   */\n      tag_425\n        /* \"#utility.yul\":9057:9061   */\n      dup2\n        /* \"#utility.yul\":9048:9054   */\n      dup5\n        /* \"#utility.yul\":8950:9062   */\n      tag_307\n      jump\t// in\n    tag_425:\n        /* \"#utility.yul\":8942:9062   */\n      swap1\n      pop\n        /* \"#utility.yul\":8688:9069   */\n      swap3\n      swap2\n      pop\n      pop\n      jump\t// out\n        /* \"#utility.yul\":9075:9584   */\n    tag_24:\n        /* \"#utility.yul\":9144:9150   */\n      0x00\n        /* \"#utility.yul\":9193:9195   */\n      0x20\n        /* \"#utility.yul\":9181:9190   */\n      dup3\n        /* \"#utility.yul\":9172:9179   */\n      dup5\n        /* \"#utility.yul\":9168:9191   */\n      sub\n        /* \"#utility.yul\":9164:9196   */\n      slt\n        /* \"#utility.yul\":9161:9280   */\n      iszero\n      tag_427\n      jumpi\n        /* \"#utility.yul\":9199:9278   */\n      tag_428\n      tag_288\n      jump\t// in\n    tag_428:\n        /* \"#utility.yul\":9161:9280   */\n    tag_427:\n        /* \"#utility.yul\":9347:9348   */\n      0x00\n        /* \"#utility.yul\":9336:9345   */\n      dup3\n        /* \"#utility.yul\":9332:9349   */\n      add\n        /* \"#utility.yul\":9319:9350   */\n      calldataload\n        /* \"#utility.yul\":9377:9395   */\n      0xffffffffffffffff\n        /* \"#utility.yul\":9369:9375   */\n      dup2\n        /* \"#utility.yul\":9366:9396   */\n      gt\n        /* \"#utility.yul\":9363:9480   */\n      iszero\n      tag_429\n      jumpi\n        /* \"#utility.yul\":9399:9478   */\n      tag_430\n      tag_289\n      jump\t// in\n    tag_430:\n        /* \"#utility.yul\":9363:9480   */\n    tag_429:\n        /* \"#utility.yul\":9504:9567   */\n      tag_431\n        /* \"#utility.yul\":9559:9566   */\n      dup5\n        /* \"#utility.yul\":9550:9556   */\n      dup3\n        /* \"#utility.yul\":9539:9548   */\n      dup6\n        /* \"#utility.yul\":9535:9557   */\n      add\n        /* \"#utility.yul\":9504:9567   */\n      tag_298\n      jump\t// in\n    tag_431:\n        /* \"#utility.yul\":9494:9567   */\n      swap2\n      pop\n        /* \"#utility.yul\":9290:9577   */\n      pop\n        /* \"#utility.yul\":9075:9584   */\n      swap3\n      swap2\n      pop\n      pop\n      jump\t// out\n        /* \"#utility.yul\":9590:9731   */\n    tag_308:\n        /* \"#utility.yul\":9684:9690   */\n      0x00\n        /* \"#utility.yul\":9718:9723   */\n      dup2\n        /* \"#utility.yul\":9712:9724   */\n      mload\n        /* \"#utility.yul\":9702:9724   */\n      swap1\n      pop\n        /* \"#utility.yul\":9590:9731   */\n      swap2\n      swap1\n      pop\n      jump\t// out\n        /* \"#utility.yul\":9737:9948   */\n    tag_309:\n        /* \"#utility.yul\":9863:9874   */\n      0x00\n        /* \"#utility.yul\":9897:9903   */\n      dup3\n        /* \"#utility.yul\":9892:9895   */\n      dup3\n        /* \"#utility.yul\":9885:9904   */\n      mstore\n        /* \"#utility.yul\":9937:9941   */\n      0x20\n        /* \"#utility.yul\":9932:9935   */\n      dup3\n        /* \"#utility.yul\":9928:9942   */\n      add\n        /* \"#utility.yul\":9913:9942   */\n      swap1\n      pop\n        /* \"#utility.yul\":9737:9948   */\n      swap3\n      swap2\n      pop\n      pop\n      jump\t// out\n        /* \"#utility.yul\":9954:10113   */\n    tag_310:\n        /* \"#utility.yul\":10048:10052   */\n      0x00\n        /* \"#utility.yul\":10071:10074   */\n      dup2\n        /* \"#utility.yul\":10063:10074   */\n      swap1\n      pop\n        /* \"#utility.yul\":10101:10105   */\n      0x20\n        /* \"#utility.yul\":10096:10099   */\n      dup3\n        /* \"#utility.yul\":10092:10106   */\n      add\n        /* \"#utility.yul\":10084:10106   */\n      swap1\n      pop\n        /* \"#utility.yul\":9954:10113   */\n      swap2\n      swap1\n      pop\n      jump\t// out\n        /* \"#utility.yul\":10207:12259   */\n    tag_311:\n        /* \"#utility.yul\":10320:10323   */\n      0x00\n        /* \"#utility.yul\":10356:10362   */\n      0x0100\n        /* \"#utility.yul\":10351:10354   */\n      dup4\n        /* \"#utility.yul\":10347:10363   */\n      add\n        /* \"#utility.yul\":10454:10458   */\n      0x00\n        /* \"#utility.yul\":10447:10452   */\n      dup4\n        /* \"#utility.yul\":10443:10459   */\n      add\n        /* \"#utility.yul\":10437:10460   */\n      mload\n        /* \"#utility.yul\":10473:10536   */\n      tag_436\n        /* \"#utility.yul\":10530:10534   */\n      0x00\n        /* \"#utility.yul\":10525:10528   */\n      dup7\n        /* \"#utility.yul\":10521:10535   */\n      add\n        /* \"#utility.yul\":10507:10519   */\n      dup3\n        /* \"#utility.yul\":10473:10536   */\n      tag_302\n      jump\t// in\n    tag_436:\n        /* \"#utility.yul\":10373:10546   */\n      pop\n        /* \"#utility.yul\":10639:10643   */\n      0x20\n        /* \"#utility.yul\":10632:10637   */\n      dup4\n        /* \"#utility.yul\":10628:10644   */\n      add\n        /* \"#utility.yul\":10622:10645   */\n      mload\n        /* \"#utility.yul\":10692:10695   */\n      dup5\n        /* \"#utility.yul\":10686:10690   */\n      dup3\n        /* \"#utility.yul\":10682:10696   */\n      sub\n        /* \"#utility.yul\":10675:10679   */\n      0x20\n        /* \"#utility.yul\":10670:10673   */\n      dup7\n        /* \"#utility.yul\":10666:10680   */\n      add\n        /* \"#utility.yul\":10659:10697   */\n      mstore\n        /* \"#utility.yul\":10718:10791   */\n      tag_437\n        /* \"#utility.yul\":10786:10790   */\n      dup3\n        /* \"#utility.yul\":10772:10784   */\n      dup3\n        /* \"#utility.yul\":10718:10791   */\n      tag_306\n      jump\t// in\n    tag_437:\n        /* \"#utility.yul\":10710:10791   */\n      swap2\n      pop\n        /* \"#utility.yul\":10556:10802   */\n      pop\n        /* \"#utility.yul\":10885:10889   */\n      0x40\n        /* \"#utility.yul\":10878:10883   */\n      dup4\n        /* \"#utility.yul\":10874:10890   */\n      add\n        /* \"#utility.yul\":10868:10891   */\n      mload\n        /* \"#utility.yul\":10938:10941   */\n      dup5\n        /* \"#utility.yul\":10932:10936   */\n      dup3\n        /* \"#utility.yul\":10928:10942   */\n      sub\n        /* \"#utility.yul\":10921:10925   */\n      0x40\n        /* \"#utility.yul\":10916:10919   */\n      dup7\n        /* \"#utility.yul\":10912:10926   */\n      add\n        /* \"#utility.yul\":10905:10943   */\n      mstore\n        /* \"#utility.yul\":10964:11037   */\n      tag_438\n        /* \"#utility.yul\":11032:11036   */\n      dup3\n        /* \"#utility.yul\":11018:11030   */\n      dup3\n        /* \"#utility.yul\":10964:11037   */\n      tag_306\n      jump\t// in\n    tag_438:\n        /* \"#utility.yul\":10956:11037   */\n      swap2\n      pop\n        /* \"#utility.yul\":10812:11048   */\n      pop\n        /* \"#utility.yul\":11133:11137   */\n      0x60\n        /* \"#utility.yul\":11126:11131   */\n      dup4\n        /* \"#utility.yul\":11122:11138   */\n      add\n        /* \"#utility.yul\":11116:11139   */\n      mload\n        /* \"#utility.yul\":11186:11189   */\n      dup5\n        /* \"#utility.yul\":11180:11184   */\n      dup3\n        /* \"#utility.yul\":11176:11190   */\n      sub\n        /* \"#utility.yul\":11169:11173   */\n      0x60\n        /* \"#utility.yul\":11164:11167   */\n      dup7\n        /* \"#utility.yul\":11160:11174   */\n      add\n        /* \"#utility.yul\":11153:11191   */\n      mstore\n        /* \"#utility.yul\":11212:11285   */\n      tag_439\n        /* \"#utility.yul\":11280:11284   */\n      dup3\n        /* \"#utility.yul\":11266:11278   */\n      dup3\n        /* \"#utility.yul\":11212:11285   */\n      tag_306\n      jump\t// in\n    tag_439:\n        /* \"#utility.yul\":11204:11285   */\n      swap2\n      pop\n        /* \"#utility.yul\":11058:11296   */\n      pop\n        /* \"#utility.yul\":11387:11391   */\n      0x80\n        /* \"#utility.yul\":11380:11385   */\n      dup4\n        /* \"#utility.yul\":11376:11392   */\n      add\n        /* \"#utility.yul\":11370:11393   */\n      mload\n        /* \"#utility.yul\":11440:11443   */\n      dup5\n        /* \"#utility.yul\":11434:11438   */\n      dup3\n        /* \"#utility.yul\":11430:11444   */\n      sub\n        /* \"#utility.yul\":11423:11427   */\n      0x80\n        /* \"#utility.yul\":11418:11421   */\n      dup7\n        /* \"#utility.yul\":11414:11428   */\n      add\n        /* \"#utility.yul\":11407:11445   */\n      mstore\n        /* \"#utility.yul\":11466:11539   */\n      tag_440\n        /* \"#utility.yul\":11534:11538   */\n      dup3\n        /* \"#utility.yul\":11520:11532   */\n      dup3\n        /* \"#utility.yul\":11466:11539   */\n      tag_306\n      jump\t// in\n    tag_440:\n        /* \"#utility.yul\":11458:11539   */\n      swap2\n      pop\n        /* \"#utility.yul\":11306:11550   */\n      pop\n        /* \"#utility.yul\":11636:11640   */\n      0xa0\n        /* \"#utility.yul\":11629:11634   */\n      dup4\n        /* \"#utility.yul\":11625:11641   */\n      add\n        /* \"#utility.yul\":11619:11642   */\n      mload\n        /* \"#utility.yul\":11689:11692   */\n      dup5\n        /* \"#utility.yul\":11683:11687   */\n      dup3\n        /* \"#utility.yul\":11679:11693   */\n      sub\n        /* \"#utility.yul\":11672:11676   */\n      0xa0\n        /* \"#utility.yul\":11667:11670   */\n      dup7\n        /* \"#utility.yul\":11663:11677   */\n      add\n        /* \"#utility.yul\":11656:11694   */\n      mstore\n        /* \"#utility.yul\":11715:11788   */\n      tag_441\n        /* \"#utility.yul\":11783:11787   */\n      dup3\n        /* \"#utility.yul\":11769:11781   */\n      dup3\n        /* \"#utility.yul\":11715:11788   */\n      tag_306\n      jump\t// in\n    tag_441:\n        /* \"#utility.yul\":11707:11788   */\n      swap2\n      pop\n        /* \"#utility.yul\":11560:11799   */\n      pop\n        /* \"#utility.yul\":11890:11894   */\n      0xc0\n        /* \"#utility.yul\":11883:11888   */\n      dup4\n        /* \"#utility.yul\":11879:11895   */\n      add\n        /* \"#utility.yul\":11873:11896   */\n      mload\n        /* \"#utility.yul\":11943:11946   */\n      dup5\n        /* \"#utility.yul\":11937:11941   */\n      dup3\n        /* \"#utility.yul\":11933:11947   */\n      sub\n        /* \"#utility.yul\":11926:11930   */\n      0xc0\n        /* \"#utility.yul\":11921:11924   */\n      dup7\n        /* \"#utility.yul\":11917:11931   */\n      add\n        /* \"#utility.yul\":11910:11948   */\n      mstore\n        /* \"#utility.yul\":11969:12042   */\n      tag_442\n        /* \"#utility.yul\":12037:12041   */\n      dup3\n        /* \"#utility.yul\":12023:12035   */\n      dup3\n        /* \"#utility.yul\":11969:12042   */\n      tag_306\n      jump\t// in\n    tag_442:\n        /* \"#utility.yul\":11961:12042   */\n      swap2\n      pop\n        /* \"#utility.yul\":11809:12053   */\n      pop\n        /* \"#utility.yul\":12140:12144   */\n      0xe0\n        /* \"#utility.yul\":12133:12138   */\n      dup4\n        /* \"#utility.yul\":12129:12145   */\n      add\n        /* \"#utility.yul\":12123:12146   */\n      mload\n        /* \"#utility.yul\":12159:12222   */\n      tag_443\n        /* \"#utility.yul\":12216:12220   */\n      0xe0\n        /* \"#utility.yul\":12211:12214   */\n      dup7\n        /* \"#utility.yul\":12207:12221   */\n      add\n        /* \"#utility.yul\":12193:12205   */\n      dup3\n        /* \"#utility.yul\":12159:12222   */\n      tag_302\n      jump\t// in\n    tag_443:\n        /* \"#utility.yul\":12063:12232   */\n      pop\n        /* \"#utility.yul\":12249:12253   */\n      dup1\n        /* \"#utility.yul\":12242:12253   */\n      swap2\n      pop\n        /* \"#utility.yul\":10325:12259   */\n      pop\n        /* \"#utility.yul\":10207:12259   */\n      swap3\n      swap2\n      pop\n      pop\n      jump\t// out\n        /* \"#utility.yul\":12265:12529   */\n    tag_312:\n        /* \"#utility.yul\":12388:12398   */\n      0x00\n        /* \"#utility.yul\":12423:12523   */\n      tag_445\n        /* \"#utility.yul\":12519:12522   */\n      dup4\n        /* \"#utility.yul\":12511:12517   */\n      dup4\n        /* \"#utility.yul\":12423:12523   */\n      tag_311\n      jump\t// in\n    tag_445:\n        /* \"#utility.yul\":12409:12523   */\n      swap1\n      pop\n        /* \"#utility.yul\":12265:12529   */\n      swap3\n      swap2\n      pop\n      pop\n      jump\t// out\n        /* \"#utility.yul\":12535:12675   */\n    tag_313:\n        /* \"#utility.yul\":12632:12636   */\n      0x00\n        /* \"#utility.yul\":12664:12668   */\n      0x20\n        /* \"#utility.yul\":12659:12662   */\n      dup3\n        /* \"#utility.yul\":12655:12669   */\n      add\n        /* \"#utility.yul\":12647:12669   */\n      swap1\n      pop\n        /* \"#utility.yul\":12535:12675   */\n      swap2\n      swap1\n      pop\n      jump\t// out\n        /* \"#utility.yul\":12773:13900   */\n    tag_314:\n        /* \"#utility.yul\":12946:12949   */\n      0x00\n        /* \"#utility.yul\":12975:13056   */\n      tag_448\n        /* \"#utility.yul\":13050:13055   */\n      dup3\n        /* \"#utility.yul\":12975:13056   */\n      tag_308\n      jump\t// in\n    tag_448:\n        /* \"#utility.yul\":13072:13185   */\n      tag_449\n        /* \"#utility.yul\":13178:13184   */\n      dup2\n        /* \"#utility.yul\":13173:13176   */\n      dup6\n        /* \"#utility.yul\":13072:13185   */\n      tag_309\n      jump\t// in\n    tag_449:\n        /* \"#utility.yul\":13065:13185   */\n      swap4\n      pop\n        /* \"#utility.yul\":13211:13214   */\n      dup4\n        /* \"#utility.yul\":13256:13260   */\n      0x20\n        /* \"#utility.yul\":13248:13254   */\n      dup3\n        /* \"#utility.yul\":13244:13261   */\n      mul\n        /* \"#utility.yul\":13239:13242   */\n      dup6\n        /* \"#utility.yul\":13235:13262   */\n      add\n        /* \"#utility.yul\":13286:13369   */\n      tag_450\n        /* \"#utility.yul\":13363:13368   */\n      dup6\n        /* \"#utility.yul\":13286:13369   */\n      tag_310\n      jump\t// in\n    tag_450:\n        /* \"#utility.yul\":13392:13399   */\n      dup1\n        /* \"#utility.yul\":13423:13424   */\n      0x00\n        /* \"#utility.yul\":13408:13855   */\n    tag_451:\n        /* \"#utility.yul\":13433:13439   */\n      dup6\n        /* \"#utility.yul\":13430:13431   */\n      dup2\n        /* \"#utility.yul\":13427:13440   */\n      lt\n        /* \"#utility.yul\":13408:13855   */\n      iszero\n      tag_453\n      jumpi\n        /* \"#utility.yul\":13504:13513   */\n      dup5\n        /* \"#utility.yul\":13498:13502   */\n      dup5\n        /* \"#utility.yul\":13494:13514   */\n      sub\n        /* \"#utility.yul\":13489:13492   */\n      dup10\n        /* \"#utility.yul\":13482:13515   */\n      mstore\n        /* \"#utility.yul\":13555:13561   */\n      dup2\n        /* \"#utility.yul\":13549:13562   */\n      mload\n        /* \"#utility.yul\":13583:13701   */\n      tag_454\n        /* \"#utility.yul\":13696:13700   */\n      dup6\n        /* \"#utility.yul\":13681:13694   */\n      dup3\n        /* \"#utility.yul\":13583:13701   */\n      tag_312\n      jump\t// in\n    tag_454:\n        /* \"#utility.yul\":13575:13701   */\n      swap5\n      pop\n        /* \"#utility.yul\":13724:13811   */\n      tag_455\n        /* \"#utility.yul\":13804:13810   */\n      dup4\n        /* \"#utility.yul\":13724:13811   */\n      tag_313\n      jump\t// in\n    tag_455:\n        /* \"#utility.yul\":13714:13811   */\n      swap3\n      pop\n        /* \"#utility.yul\":13840:13844   */\n      0x20\n        /* \"#utility.yul\":13835:13838   */\n      dup11\n        /* \"#utility.yul\":13831:13845   */\n      add\n        /* \"#utility.yul\":13824:13845   */\n      swap10\n      pop\n        /* \"#utility.yul\":13468:13855   */\n      pop\n        /* \"#utility.yul\":13455:13456   */\n      0x01\n        /* \"#utility.yul\":13452:13453   */\n      dup2\n        /* \"#utility.yul\":13448:13457   */\n      add\n        /* \"#utility.yul\":13443:13457   */\n      swap1\n      pop\n        /* \"#utility.yul\":13408:13855   */\n      jump(tag_451)\n    tag_453:\n        /* \"#utility.yul\":13412:13426   */\n      pop\n        /* \"#utility.yul\":13871:13875   */\n      dup3\n        /* \"#utility.yul\":13864:13875   */\n      swap8\n      pop\n        /* \"#utility.yul\":13891:13894   */\n      dup8\n        /* \"#utility.yul\":13884:13894   */\n      swap6\n      pop\n        /* \"#utility.yul\":12951:13900   */\n      pop\n      pop\n      pop\n      pop\n      pop\n        /* \"#utility.yul\":12773:13900   */\n      swap3\n      swap2\n      pop\n      pop\n      jump\t// out\n        /* \"#utility.yul\":13906:14387   */\n    tag_27:\n        /* \"#utility.yul\":14103:14107   */\n      0x00\n        /* \"#utility.yul\":14141:14143   */\n      0x20\n        /* \"#utility.yul\":14130:14139   */\n      dup3\n        /* \"#utility.yul\":14126:14144   */\n      add\n        /* \"#utility.yul\":14118:14144   */\n      swap1\n      pop\n        /* \"#utility.yul\":14190:14199   */\n      dup2\n        /* \"#utility.yul\":14184:14188   */\n      dup2\n        /* \"#utility.yul\":14180:14200   */\n      sub\n        /* \"#utility.yul\":14176:14177   */\n      0x00\n        /* \"#utility.yul\":14165:14174   */\n      dup4\n        /* \"#utility.yul\":14161:14178   */\n      add\n        /* \"#utility.yul\":14154:14201   */\n      mstore\n        /* \"#utility.yul\":14218:14380   */\n      tag_457\n        /* \"#utility.yul\":14375:14379   */\n      dup2\n        /* \"#utility.yul\":14366:14372   */\n      dup5\n        /* \"#utility.yul\":14218:14380   */\n      tag_314\n      jump\t// in\n    tag_457:\n        /* \"#utility.yul\":14210:14380   */\n      swap1\n      pop\n        /* \"#utility.yul\":13906:14387   */\n      swap3\n      swap2\n      pop\n      pop\n      jump\t// out\n        /* \"#utility.yul\":14393:14511   */\n    tag_315:\n        /* \"#utility.yul\":14480:14504   */\n      tag_459\n        /* \"#utility.yul\":14498:14503   */\n      dup2\n        /* \"#utility.yul\":14480:14504   */\n      tag_299\n      jump\t// in\n    tag_459:\n        /* \"#utility.yul\":14475:14478   */\n      dup3\n        /* \"#utility.yul\":14468:14505   */\n      mstore\n        /* \"#utility.yul\":14393:14511   */\n      pop\n      pop\n      jump\t// out\n        /* \"#utility.yul\":14517:14686   */\n    tag_316:\n        /* \"#utility.yul\":14601:14612   */\n      0x00\n        /* \"#utility.yul\":14635:14641   */\n      dup3\n        /* \"#utility.yul\":14630:14633   */\n      dup3\n        /* \"#utility.yul\":14623:14642   */\n      mstore\n        /* \"#utility.yul\":14675:14679   */\n      0x20\n        /* \"#utility.yul\":14670:14673   */\n      dup3\n        /* \"#utility.yul\":14666:14680   */\n      add\n        /* \"#utility.yul\":14651:14680   */\n      swap1\n      pop\n        /* \"#utility.yul\":14517:14686   */\n      swap3\n      swap2\n      pop\n      pop\n      jump\t// out\n        /* \"#utility.yul\":14692:15069   */\n    tag_317:\n        /* \"#utility.yul\":14780:14783   */\n      0x00\n        /* \"#utility.yul\":14808:14847   */\n      tag_462\n        /* \"#utility.yul\":14841:14846   */\n      dup3\n        /* \"#utility.yul\":14808:14847   */\n      tag_303\n      jump\t// in\n    tag_462:\n        /* \"#utility.yul\":14863:14934   */\n      tag_463\n        /* \"#utility.yul\":14927:14933   */\n      dup2\n        /* \"#utility.yul\":14922:14925   */\n      dup6\n        /* \"#utility.yul\":14863:14934   */\n      tag_316\n      jump\t// in\n    tag_463:\n        /* \"#utility.yul\":14856:14934   */\n      swap4\n      pop\n        /* \"#utility.yul\":14943:15008   */\n      tag_464\n        /* \"#utility.yul\":15001:15007   */\n      dup2\n        /* \"#utility.yul\":14996:14999   */\n      dup6\n        /* \"#utility.yul\":14989:14993   */\n      0x20\n        /* \"#utility.yul\":14982:14987   */\n      dup7\n        /* \"#utility.yul\":14978:14994   */\n      add\n        /* \"#utility.yul\":14943:15008   */\n      tag_305\n      jump\t// in\n    tag_464:\n        /* \"#utility.yul\":15033:15062   */\n      tag_465\n        /* \"#utility.yul\":15055:15061   */\n      dup2\n        /* \"#utility.yul\":15033:15062   */\n      tag_292\n      jump\t// in\n    tag_465:\n        /* \"#utility.yul\":15028:15031   */\n      dup5\n        /* \"#utility.yul\":15024:15063   */\n      add\n        /* \"#utility.yul\":15017:15063   */\n      swap2\n      pop\n        /* \"#utility.yul\":14784:15069   */\n      pop\n        /* \"#utility.yul\":14692:15069   */\n      swap3\n      swap2\n      pop\n      pop\n      jump\t// out\n        /* \"#utility.yul\":15075:16618   */\n    tag_32:\n        /* \"#utility.yul\":15484:15488   */\n      0x00\n        /* \"#utility.yul\":15522:15525   */\n      0x0100\n        /* \"#utility.yul\":15511:15520   */\n      dup3\n        /* \"#utility.yul\":15507:15526   */\n      add\n        /* \"#utility.yul\":15499:15526   */\n      swap1\n      pop\n        /* \"#utility.yul\":15536:15607   */\n      tag_467\n        /* \"#utility.yul\":15604:15605   */\n      0x00\n        /* \"#utility.yul\":15593:15602   */\n      dup4\n        /* \"#utility.yul\":15589:15606   */\n      add\n        /* \"#utility.yul\":15580:15586   */\n      dup12\n        /* \"#utility.yul\":15536:15607   */\n      tag_315\n      jump\t// in\n    tag_467:\n        /* \"#utility.yul\":15654:15663   */\n      dup2\n        /* \"#utility.yul\":15648:15652   */\n      dup2\n        /* \"#utility.yul\":15644:15664   */\n      sub\n        /* \"#utility.yul\":15639:15641   */\n      0x20\n        /* \"#utility.yul\":15628:15637   */\n      dup4\n        /* \"#utility.yul\":15624:15642   */\n      add\n        /* \"#utility.yul\":15617:15665   */\n      mstore\n        /* \"#utility.yul\":15682:15760   */\n      tag_468\n        /* \"#utility.yul\":15755:15759   */\n      dup2\n        /* \"#utility.yul\":15746:15752   */\n      dup11\n        /* \"#utility.yul\":15682:15760   */\n      tag_317\n      jump\t// in\n    tag_468:\n        /* \"#utility.yul\":15674:15760   */\n      swap1\n      pop\n        /* \"#utility.yul\":15807:15816   */\n      dup2\n        /* \"#utility.yul\":15801:15805   */\n      dup2\n        /* \"#utility.yul\":15797:15817   */\n      sub\n        /* \"#utility.yul\":15792:15794   */\n      0x40\n        /* \"#utility.yul\":15781:15790   */\n      dup4\n        /* \"#utility.yul\":15777:15795   */\n      add\n        /* \"#utility.yul\":15770:15818   */\n      mstore\n        /* \"#utility.yul\":15835:15913   */\n      tag_469\n        /* \"#utility.yul\":15908:15912   */\n      dup2\n        /* \"#utility.yul\":15899:15905   */\n      dup10\n        /* \"#utility.yul\":15835:15913   */\n      tag_317\n      jump\t// in\n    tag_469:\n        /* \"#utility.yul\":15827:15913   */\n      swap1\n      pop\n        /* \"#utility.yul\":15960:15969   */\n      dup2\n        /* \"#utility.yul\":15954:15958   */\n      dup2\n        /* \"#utility.yul\":15950:15970   */\n      sub\n        /* \"#utility.yul\":15945:15947   */\n      0x60\n        /* \"#utility.yul\":15934:15943   */\n      dup4\n        /* \"#utility.yul\":15930:15948   */\n      add\n        /* \"#utility.yul\":15923:15971   */\n      mstore\n        /* \"#utility.yul\":15988:16066   */\n      tag_470\n        /* \"#utility.yul\":16061:16065   */\n      dup2\n        /* \"#utility.yul\":16052:16058   */\n      dup9\n        /* \"#utility.yul\":15988:16066   */\n      tag_317\n      jump\t// in\n    tag_470:\n        /* \"#utility.yul\":15980:16066   */\n      swap1\n      pop\n        /* \"#utility.yul\":16114:16123   */\n      dup2\n        /* \"#utility.yul\":16108:16112   */\n      dup2\n        /* \"#utility.yul\":16104:16124   */\n      sub\n        /* \"#utility.yul\":16098:16101   */\n      0x80\n        /* \"#utility.yul\":16087:16096   */\n      dup4\n        /* \"#utility.yul\":16083:16102   */\n      add\n        /* \"#utility.yul\":16076:16125   */\n      mstore\n        /* \"#utility.yul\":16142:16220   */\n      tag_471\n        /* \"#utility.yul\":16215:16219   */\n      dup2\n        /* \"#utility.yul\":16206:16212   */\n      dup8\n        /* \"#utility.yul\":16142:16220   */\n      tag_317\n      jump\t// in\n    tag_471:\n        /* \"#utility.yul\":16134:16220   */\n      swap1\n      pop\n        /* \"#utility.yul\":16268:16277   */\n      dup2\n        /* \"#utility.yul\":16262:16266   */\n      dup2\n        /* \"#utility.yul\":16258:16278   */\n      sub\n        /* \"#utility.yul\":16252:16255   */\n      0xa0\n        /* \"#utility.yul\":16241:16250   */\n      dup4\n        /* \"#utility.yul\":16237:16256   */\n      add\n        /* \"#utility.yul\":16230:16279   */\n      mstore\n        /* \"#utility.yul\":16296:16374   */\n      tag_472\n        /* \"#utility.yul\":16369:16373   */\n      dup2\n        /* \"#utility.yul\":16360:16366   */\n      dup7\n        /* \"#utility.yul\":16296:16374   */\n      tag_317\n      jump\t// in\n    tag_472:\n        /* \"#utility.yul\":16288:16374   */\n      swap1\n      pop\n        /* \"#utility.yul\":16422:16431   */\n      dup2\n        /* \"#utility.yul\":16416:16420   */\n      dup2\n        /* \"#utility.yul\":16412:16432   */\n      sub\n        /* \"#utility.yul\":16406:16409   */\n      0xc0\n        /* \"#utility.yul\":16395:16404   */\n      dup4\n        /* \"#utility.yul\":16391:16410   */\n      add\n        /* \"#utility.yul\":16384:16433   */\n      mstore\n        /* \"#utility.yul\":16450:16528   */\n      tag_473\n        /* \"#utility.yul\":16523:16527   */\n      dup2\n        /* \"#utility.yul\":16514:16520   */\n      dup6\n        /* \"#utility.yul\":16450:16528   */\n      tag_317\n      jump\t// in\n    tag_473:\n        /* \"#utility.yul\":16442:16528   */\n      swap1\n      pop\n        /* \"#utility.yul\":16538:16611   */\n      tag_474\n        /* \"#utility.yul\":16606:16609   */\n      0xe0\n        /* \"#utility.yul\":16595:16604   */\n      dup4\n        /* \"#utility.yul\":16591:16610   */\n      add\n        /* \"#utility.yul\":16582:16588   */\n      dup5\n        /* \"#utility.yul\":16538:16611   */\n      tag_315\n      jump\t// in\n    tag_474:\n        /* \"#utility.yul\":15075:16618   */\n      swap10\n      swap9\n      pop\n      pop\n      pop\n      pop\n      pop\n      pop\n      pop\n      pop\n      pop\n      jump\t// out\n        /* \"#utility.yul\":16624:16846   */\n    tag_39:\n        /* \"#utility.yul\":16717:16721   */\n      0x00\n        /* \"#utility.yul\":16755:16757   */\n      0x20\n        /* \"#utility.yul\":16744:16753   */\n      dup3\n        /* \"#utility.yul\":16740:16758   */\n      add\n        /* \"#utility.yul\":16732:16758   */\n      swap1\n      pop\n        /* \"#utility.yul\":16768:16839   */\n      tag_476\n        /* \"#utility.yul\":16836:16837   */\n      0x00\n        /* \"#utility.yul\":16825:16834   */\n      dup4\n        /* \"#utility.yul\":16821:16838   */\n      add\n        /* \"#utility.yul\":16812:16818   */\n      dup5\n        /* \"#utility.yul\":16768:16839   */\n      tag_315\n      jump\t// in\n    tag_476:\n        /* \"#utility.yul\":16624:16846   */\n      swap3\n      swap2\n      pop\n      pop\n      jump\t// out\n        /* \"#utility.yul\":16852:17651   */\n    tag_42:\n        /* \"#utility.yul\":16939:16945   */\n      0x00\n        /* \"#utility.yul\":16947:16953   */\n      dup1\n        /* \"#utility.yul\":16955:16961   */\n      0x00\n        /* \"#utility.yul\":17004:17006   */\n      0x60\n        /* \"#utility.yul\":16992:17001   */\n      dup5\n        /* \"#utility.yul\":16983:16990   */\n      dup7\n        /* \"#utility.yul\":16979:17002   */\n      sub\n        /* \"#utility.yul\":16975:17007   */\n      slt\n        /* \"#utility.yul\":16972:17091   */\n      iszero\n      tag_478\n      jumpi\n        /* \"#utility.yul\":17010:17089   */\n      tag_479\n      tag_288\n      jump\t// in\n    tag_479:\n        /* \"#utility.yul\":16972:17091   */\n    tag_478:\n        /* \"#utility.yul\":17130:17131   */\n      0x00\n        /* \"#utility.yul\":17155:17208   */\n      tag_480\n        /* \"#utility.yul\":17200:17207   */\n      dup7\n        /* \"#utility.yul\":17191:17197   */\n      dup3\n        /* \"#utility.yul\":17180:17189   */\n      dup8\n        /* \"#utility.yul\":17176:17198   */\n      add\n        /* \"#utility.yul\":17155:17208   */\n      tag_301\n      jump\t// in\n    tag_480:\n        /* \"#utility.yul\":17145:17208   */\n      swap4\n      pop\n        /* \"#utility.yul\":17101:17218   */\n      pop\n        /* \"#utility.yul\":17285:17287   */\n      0x20\n        /* \"#utility.yul\":17274:17283   */\n      dup5\n        /* \"#utility.yul\":17270:17288   */\n      add\n        /* \"#utility.yul\":17257:17289   */\n      calldataload\n        /* \"#utility.yul\":17316:17334   */\n      0xffffffffffffffff\n        /* \"#utility.yul\":17308:17314   */\n      dup2\n        /* \"#utility.yul\":17305:17335   */\n      gt\n        /* \"#utility.yul\":17302:17419   */\n      iszero\n      tag_481\n      jumpi\n        /* \"#utility.yul\":17338:17417   */\n      tag_482\n      tag_289\n      jump\t// in\n    tag_482:\n        /* \"#utility.yul\":17302:17419   */\n    tag_481:\n        /* \"#utility.yul\":17443:17506   */\n      tag_483\n        /* \"#utility.yul\":17498:17505   */\n      dup7\n        /* \"#utility.yul\":17489:17495   */\n      dup3\n        /* \"#utility.yul\":17478:17487   */\n      dup8\n        /* \"#utility.yul\":17474:17496   */\n      add\n        /* \"#utility.yul\":17443:17506   */\n      tag_298\n      jump\t// in\n    tag_483:\n        /* \"#utility.yul\":17433:17506   */\n      swap3\n      pop\n        /* \"#utility.yul\":17228:17516   */\n      pop\n        /* \"#utility.yul\":17555:17557   */\n      0x40\n        /* \"#utility.yul\":17581:17634   */\n      tag_484\n        /* \"#utility.yul\":17626:17633   */\n      dup7\n        /* \"#utility.yul\":17617:17623   */\n      dup3\n        /* \"#utility.yul\":17606:17615   */\n      dup8\n        /* \"#utility.yul\":17602:17624   */\n      add\n        /* \"#utility.yul\":17581:17634   */\n      tag_301\n      jump\t// in\n    tag_484:\n        /* \"#utility.yul\":17571:17634   */\n      swap2\n      pop\n        /* \"#utility.yul\":17526:17644   */\n      pop\n        /* \"#utility.yul\":16852:17651   */\n      swap3\n      pop\n      swap3\n      pop\n      swap3\n      jump\t// out\n        /* \"#utility.yul\":17657:17837   */\n    tag_318:\n        /* \"#utility.yul\":17705:17782   */\n      0x4e487b7100000000000000000000000000000000000000000000000000000000\n        /* \"#utility.yul\":17702:17703   */\n      0x00\n        /* \"#utility.yul\":17695:17783   */\n      mstore\n        /* \"#utility.yul\":17802:17806   */\n      0x11\n        /* \"#utility.yul\":17799:17800   */\n      0x04\n        /* \"#utility.yul\":17792:17807   */\n      mstore\n        /* \"#utility.yul\":17826:17830   */\n      0x24\n        /* \"#utility.yul\":17823:17824   */\n      0x00\n        /* \"#utility.yul\":17816:17831   */\n      revert\n        /* \"#utility.yul\":17843:18076   */\n    tag_50:\n        /* \"#utility.yul\":17882:17885   */\n      0x00\n        /* \"#utility.yul\":17905:17929   */\n      tag_487\n        /* \"#utility.yul\":17923:17928   */\n      dup3\n        /* \"#utility.yul\":17905:17929   */\n      tag_299\n      jump\t// in\n    tag_487:\n        /* \"#utility.yul\":17896:17929   */\n      swap2\n      pop\n        /* \"#utility.yul\":17951:18017   */\n      0xffffffffffffffffffffffffffffffffffffffffffffffffffffffffffffffff\n        /* \"#utility.yul\":17944:17949   */\n      dup3\n        /* \"#utility.yul\":17941:18018   */\n      sub\n        /* \"#utility.yul\":17938:18041   */\n      tag_488\n      jumpi\n        /* \"#utility.yul\":18021:18039   */\n      tag_489\n      tag_318\n      jump\t// in\n    tag_489:\n        /* \"#utility.yul\":17938:18041   */\n    tag_488:\n        /* \"#utility.yul\":18068:18069   */\n      0x01\n        /* \"#utility.yul\":18061:18066   */\n      dup3\n        /* \"#utility.yul\":18057:18070   */\n      add\n        /* \"#utility.yul\":18050:18070   */\n      swap1\n      pop\n        /* \"#utility.yul\":17843:18076   */\n      swap2\n      swap1\n      pop\n      jump\t// out\n        /* \"#utility.yul\":18082:18262   */\n    tag_319:\n        /* \"#utility.yul\":18130:18207   */\n      0x4e487b7100000000000000000000000000000000000000000000000000000000\n        /* \"#utility.yul\":18127:18128   */\n      0x00\n        /* \"#utility.yul\":18120:18208   */\n      mstore\n        /* \"#utility.yul\":18227:18231   */\n      0x22\n        /* \"#utility.yul\":18224:18225   */\n      0x04\n        /* \"#utility.yul\":18217:18232   */\n      mstore\n        /* \"#utility.yul\":18251:18255   */\n      0x24\n        /* \"#utility.yul\":18248:18249   */\n      0x00\n        /* \"#utility.yul\":18241:18256   */\n      revert\n        /* \"#utility.yul\":18268:18588   */\n    tag_64:\n        /* \"#utility.yul\":18312:18318   */\n      0x00\n        /* \"#utility.yul\":18349:18350   */\n      0x02\n        /* \"#utility.yul\":18343:18347   */\n      dup3\n        /* \"#utility.yul\":18339:18351   */\n      div\n        /* \"#utility.yul\":18329:18351   */\n      swap1\n      pop\n        /* \"#utility.yul\":18396:18397   */\n      0x01\n        /* \"#utility.yul\":18390:18394   */\n      dup3\n        /* \"#utility.yul\":18386:18398   */\n      and\n        /* \"#utility.yul\":18417:18435   */\n      dup1\n        /* \"#utility.yul\":18407:18488   */\n      tag_492\n      jumpi\n        /* \"#utility.yul\":18473:18477   */\n      0x7f\n        /* \"#utility.yul\":18465:18471   */\n      dup3\n        /* \"#utility.yul\":18461:18478   */\n      and\n        /* \"#utility.yul\":18451:18478   */\n      swap2\n      pop\n        /* \"#utility.yul\":18407:18488   */\n    tag_492:\n        /* \"#utility.yul\":18535:18537   */\n      0x20\n        /* \"#utility.yul\":18527:18533   */\n      dup3\n        /* \"#utility.yul\":18524:18538   */\n      lt\n        /* \"#utility.yul\":18504:18522   */\n      dup2\n        /* \"#utility.yul\":18501:18539   */\n      sub\n        /* \"#utility.yul\":18498:18582   */\n      tag_493\n      jumpi\n        /* \"#utility.yul\":18554:18572   */\n      tag_494\n      tag_319\n      jump\t// in\n    tag_494:\n        /* \"#utility.yul\":18498:18582   */\n    tag_493:\n        /* \"#utility.yul\":18319:18588   */\n      pop\n        /* \"#utility.yul\":18268:18588   */\n      swap2\n      swap1\n      pop\n      jump\t// out\n        /* \"#utility.yul\":18594:18735   */\n    tag_320:\n        /* \"#utility.yul\":18643:18647   */\n      0x00\n        /* \"#utility.yul\":18666:18669   */\n      dup2\n        /* \"#utility.yul\":18658:18669   */\n      swap1\n      pop\n        /* \"#utility.yul\":18689:18692   */\n      dup2\n        /* \"#utility.yul\":18686:18687   */\n      0x00\n        /* \"#utility.yul\":18679:18693   */\n      mstore\n        /* \"#utility.yul\":18723:18727   */\n      0x20\n        /* \"#utility.yul\":18720:18721   */\n      0x00\n        /* \"#utility.yul\":18710:18728   */\n      keccak256\n        /* \"#utility.yul\":18702:18728   */\n      swap1\n      pop\n        /* \"#utility.yul\":18594:18735   */\n      swap2\n      swap1\n      pop\n      jump\t// out\n        /* \"#utility.yul\":18741:18834   */\n    tag_321:\n        /* \"#utility.yul\":18778:18784   */\n      0x00\n        /* \"#utility.yul\":18825:18827   */\n      0x20\n        /* \"#utility.yul\":18820:18822   */\n      0x1f\n        /* \"#utility.yul\":18813:18818   */\n      dup4\n        /* \"#utility.yul\":18809:18823   */\n      add\n        /* \"#utility.yul\":18805:18828   */\n      div\n        /* \"#utility.yul\":18795:18828   */\n      swap1\n      pop\n        /* \"#utility.yul\":18741:18834   */\n      swap2\n      swap1\n      pop\n      jump\t// out\n        /* \"#utility.yul\":18840:18947   */\n    tag_322:\n        /* \"#utility.yul\":18884:18892   */\n      0x00\n        /* \"#utility.yul\":18934:18939   */\n      dup3\n        /* \"#utility.yul\":18928:18932   */\n      dup3\n        /* \"#utility.yul\":18924:18940   */\n      shl\n        /* \"#utility.yul\":18903:18940   */\n      swap1\n      pop\n        /* \"#utility.yul\":18840:18947   */\n      swap3\n      swap2\n      pop\n      pop\n      jump\t// out\n        /* \"#utility.yul\":18953:19346   */\n    tag_323:\n        /* \"#utility.yul\":19022:19028   */\n      0x00\n        /* \"#utility.yul\":19072:19073   */\n      0x08\n        /* \"#utility.yul\":19060:19070   */\n      dup4\n        /* \"#utility.yul\":19056:19074   */\n      mul\n        /* \"#utility.yul\":19095:19192   */\n      tag_499\n        /* \"#utility.yul\":19125:19191   */\n      0xffffffffffffffffffffffffffffffffffffffffffffffffffffffffffffffff\n        /* \"#utility.yul\":19114:19123   */\n      dup3\n        /* \"#utility.yul\":19095:19192   */\n      tag_322\n      jump\t// in\n    tag_499:\n        /* \"#utility.yul\":19213:19252   */\n      tag_500\n        /* \"#utility.yul\":19243:19251   */\n      dup7\n        /* \"#utility.yul\":19232:19241   */\n      dup4\n        /* \"#utility.yul\":19213:19252   */\n      tag_322\n      jump\t// in\n    tag_500:\n        /* \"#utility.yul\":19201:19252   */\n      swap6\n      pop\n        /* \"#utility.yul\":19285:19289   */\n      dup1\n        /* \"#utility.yul\":19281:19290   */\n      not\n        /* \"#utility.yul\":19274:19279   */\n      dup5\n        /* \"#utility.yul\":19270:19291   */\n      and\n        /* \"#utility.yul\":19261:19291   */\n      swap4\n      pop\n        /* \"#utility.yul\":19334:19338   */\n      dup1\n        /* \"#utility.yul\":19324:19332   */\n      dup7\n        /* \"#utility.yul\":19320:19339   */\n      and\n        /* \"#utility.yul\":19313:19318   */\n      dup5\n        /* \"#utility.yul\":19310:19340   */\n      or\n        /* \"#utility.yul\":19300:19340   */\n      swap3\n      pop\n        /* \"#utility.yul\":19029:19346   */\n      pop\n      pop\n        /* \"#utility.yul\":18953:19346   */\n      swap4\n      swap3\n      pop\n      pop\n      pop\n      jump\t// out\n        /* \"#utility.yul\":19352:19412   */\n    tag_324:\n        /* \"#utility.yul\":19380:19383   */\n      0x00\n        /* \"#utility.yul\":19401:19406   */\n      dup2\n        /* \"#utility.yul\":19394:19406   */\n      swap1\n      pop\n        /* \"#utility.yul\":19352:19412   */\n      swap2\n      swap1\n      pop\n      jump\t// out\n        /* \"#utility.yul\":19418:19560   */\n    tag_325:\n        /* \"#utility.yul\":19468:19477   */\n      0x00\n        /* \"#utility.yul\":19501:19554   */\n      tag_503\n        /* \"#utility.yul\":19519:19553   */\n      tag_504\n        /* \"#utility.yul\":19528:19552   */\n      tag_505\n        /* \"#utility.yul\":19546:19551   */\n      dup5\n        /* \"#utility.yul\":19528:19552   */\n      tag_299\n      jump\t// in\n    tag_505:\n        /* \"#utility.yul\":19519:19553   */\n      tag_324\n      jump\t// in\n    tag_504:\n        /* \"#utility.yul\":19501:19554   */\n      tag_299\n      jump\t// in\n    tag_503:\n        /* \"#utility.yul\":19488:19554   */\n      swap1\n      pop\n        /* \"#utility.yul\":19418:19560   */\n      swap2\n      swap1\n      pop\n      jump\t// out\n        /* \"#utility.yul\":19566:19641   */\n    tag_326:\n        /* \"#utility.yul\":19609:19612   */\n      0x00\n        /* \"#utility.yul\":19630:19635   */\n      dup2\n        /* \"#utility.yul\":19623:19635   */\n      swap1\n      pop\n        /* \"#utility.yul\":19566:19641   */\n      swap2\n      swap1\n      pop\n      jump\t// out\n        /* \"#utility.yul\":19647:19916   */\n    tag_327:\n        /* \"#utility.yul\":19757:19796   */\n      tag_508\n        /* \"#utility.yul\":19788:19795   */\n      dup4\n        /* \"#utility.yul\":19757:19796   */\n      tag_325\n      jump\t// in\n    tag_508:\n        /* \"#utility.yul\":19818:19909   */\n      tag_509\n        /* \"#utility.yul\":19867:19908   */\n      tag_510\n        /* \"#utility.yul\":19891:19907   */\n      dup3\n        /* \"#utility.yul\":19867:19908   */\n      tag_326\n      jump\t// in\n    tag_510:\n        /* \"#utility.yul\":19859:19865   */\n      dup5\n        /* \"#utility.yul\":19852:19856   */\n      dup5\n        /* \"#utility.yul\":19846:19857   */\n      sload\n        /* \"#utility.yul\":19818:19909   */\n      tag_323\n      jump\t// in\n    tag_509:\n        /* \"#utility.yul\":19812:19816   */\n      dup3\n        /* \"#utility.yul\":19805:19910   */\n      sstore\n        /* \"#utility.yul\":19723:19916   */\n      pop\n        /* \"#utility.yul\":19647:19916   */\n      pop\n      pop\n      pop\n      jump\t// out\n        /* \"#utility.yul\":19922:19995   */\n    tag_328:\n        /* \"#utility.yul\":19967:19970   */\n      0x00\n        /* \"#utility.yul\":19922:19995   */\n      swap1\n      jump\t// out\n        /* \"#utility.yul\":20001:20190   */\n    tag_329:\n        /* \"#utility.yul\":20078:20110   */\n      tag_513\n      tag_328\n      jump\t// in\n    tag_513:\n        /* \"#utility.yul\":20119:20184   */\n      tag_514\n        /* \"#utility.yul\":20177:20183   */\n      dup2\n        /* \"#utility.yul\":20169:20175   */\n      dup5\n        /* \"#utility.yul\":20163:20167   */\n      dup5\n        /* \"#utility.yul\":20119:20184   */\n      tag_327\n      jump\t// in\n    tag_514:\n        /* \"#utility.yul\":20054:20190   */\n      pop\n        /* \"#utility.yul\":20001:20190   */\n      pop\n      pop\n      jump\t// out\n        /* \"#utility.yul\":20196:20382   */\n    tag_330:\n        /* \"#utility.yul\":20256:20376   */\n    tag_516:\n        /* \"#utility.yul\":20273:20276   */\n      dup2\n        /* \"#utility.yul\":20266:20271   */\n      dup2\n        /* \"#utility.yul\":20263:20277   */\n      lt\n        /* \"#utility.yul\":20256:20376   */\n      iszero\n      tag_518\n      jumpi\n        /* \"#utility.yul\":20327:20366   */\n      tag_519\n        /* \"#utility.yul\":20364:20365   */\n      0x00\n        /* \"#utility.yul\":20357:20362   */\n      dup3\n        /* \"#utility.yul\":20327:20366   */\n      tag_329\n      jump\t// in\n    tag_519:\n        /* \"#utility.yul\":20300:20301   */\n      0x01\n        /* \"#utility.yul\":20293:20298   */\n      dup2\n        /* \"#utility.yul\":20289:20302   */\n      add\n        /* \"#utility.yul\":20280:20302   */\n      swap1\n      pop\n        /* \"#utility.yul\":20256:20376   */\n      jump(tag_516)\n    tag_518:\n        /* \"#utility.yul\":20196:20382   */\n      pop\n      pop\n      jump\t// out\n        /* \"#utility.yul\":20388:20931   */\n    tag_331:\n        /* \"#utility.yul\":20489:20491   */\n      0x1f\n        /* \"#utility.yul\":20484:20487   */\n      dup3\n        /* \"#utility.yul\":20481:20492   */\n      gt\n        /* \"#utility.yul\":20478:20924   */\n      iszero\n      tag_521\n      jumpi\n        /* \"#utility.yul\":20523:20561   */\n      tag_522\n        /* \"#utility.yul\":20555:20560   */\n      dup2\n        /* \"#utility.yul\":20523:20561   */\n      tag_320\n      jump\t// in\n    tag_522:\n        /* \"#utility.yul\":20607:20636   */\n      tag_523\n        /* \"#utility.yul\":20625:20635   */\n      dup5\n        /* \"#utility.yul\":20607:20636   */\n      tag_321\n      jump\t// in\n    tag_523:\n        /* \"#utility.yul\":20597:20605   */\n      dup2\n        /* \"#utility.yul\":20593:20637   */\n      add\n        /* \"#utility.yul\":20790:20792   */\n      0x20\n        /* \"#utility.yul\":20778:20788   */\n      dup6\n        /* \"#utility.yul\":20775:20793   */\n      lt\n        /* \"#utility.yul\":20772:20821   */\n      iszero\n      tag_524\n      jumpi\n        /* \"#utility.yul\":20811:20819   */\n      dup2\n        /* \"#utility.yul\":20796:20819   */\n      swap1\n      pop\n        /* \"#utility.yul\":20772:20821   */\n    tag_524:\n        /* \"#utility.yul\":20834:20914   */\n      tag_525\n        /* \"#utility.yul\":20890:20912   */\n      tag_526\n        /* \"#utility.yul\":20908:20911   */\n      dup6\n        /* \"#utility.yul\":20890:20912   */\n      tag_321\n      jump\t// in\n    tag_526:\n        /* \"#utility.yul\":20880:20888   */\n      dup4\n        /* \"#utility.yul\":20876:20913   */\n      add\n        /* \"#utility.yul\":20863:20874   */\n      dup3\n        /* \"#utility.yul\":20834:20914   */\n      tag_330\n      jump\t// in\n    tag_525:\n        /* \"#utility.yul\":20493:20924   */\n      pop\n      pop\n        /* \"#utility.yul\":20478:20924   */\n    tag_521:\n        /* \"#utility.yul\":20388:20931   */\n      pop\n      pop\n      pop\n      jump\t// out\n        /* \"#utility.yul\":20937:21054   */\n    tag_332:\n        /* \"#utility.yul\":20991:20999   */\n      0x00\n        /* \"#utility.yul\":21041:21046   */\n      dup3\n        /* \"#utility.yul\":21035:21039   */\n      dup3\n        /* \"#utility.yul\":21031:21047   */\n      shr\n        /* \"#utility.yul\":21010:21047   */\n      swap1\n      pop\n        /* \"#utility.yul\":20937:21054   */\n      swap3\n      swap2\n      pop\n      pop\n      jump\t// out\n        /* \"#utility.yul\":21060:21229   */\n    tag_333:\n        /* \"#utility.yul\":21104:21110   */\n      0x00\n        /* \"#utility.yul\":21137:21188   */\n      tag_529\n        /* \"#utility.yul\":21185:21186   */\n      0x00\n        /* \"#utility.yul\":21181:21187   */\n      not\n        /* \"#utility.yul\":21173:21178   */\n      dup5\n        /* \"#utility.yul\":21170:21171   */\n      0x08\n        /* \"#utility.yul\":21166:21179   */\n      mul\n        /* \"#utility.yul\":21137:21188   */\n      tag_332\n      jump\t// in\n    tag_529:\n        /* \"#utility.yul\":21133:21189   */\n      not\n        /* \"#utility.yul\":21218:21222   */\n      dup1\n        /* \"#utility.yul\":21212:21216   */\n      dup4\n        /* \"#utility.yul\":21208:21223   */\n      and\n        /* \"#utility.yul\":21198:21223   */\n      swap2\n      pop\n        /* \"#utility.yul\":21111:21229   */\n      pop\n        /* \"#utility.yul\":21060:21229   */\n      swap3\n      swap2\n      pop\n      pop\n      jump\t// out\n        /* \"#utility.yul\":21234:21529   */\n    tag_334:\n        /* \"#utility.yul\":21310:21314   */\n      0x00\n        /* \"#utility.yul\":21456:21485   */\n      tag_531\n        /* \"#utility.yul\":21481:21484   */\n      dup4\n        /* \"#utility.yul\":21475:21479   */\n      dup4\n        /* \"#utility.yul\":21456:21485   */\n      tag_333\n      jump\t// in\n    tag_531:\n        /* \"#utility.yul\":21448:21485   */\n      swap2\n      pop\n        /* \"#utility.yul\":21518:21521   */\n      dup3\n        /* \"#utility.yul\":21515:21516   */\n      0x02\n        /* \"#utility.yul\":21511:21522   */\n      mul\n        /* \"#utility.yul\":21505:21509   */\n      dup3\n        /* \"#utility.yul\":21502:21523   */\n      or\n        /* \"#utility.yul\":21494:21523   */\n      swap1\n      pop\n        /* \"#utility.yul\":21234:21529   */\n      swap3\n      swap2\n      pop\n      pop\n      jump\t// out\n        /* \"#utility.yul\":21534:22929   */\n    tag_52:\n        /* \"#utility.yul\":21651:21688   */\n      tag_533\n        /* \"#utility.yul\":21684:21687   */\n      dup3\n        /* \"#utility.yul\":21651:21688   */\n      tag_303\n      jump\t// in\n    tag_533:\n        /* \"#utility.yul\":21753:21771   */\n      0xffffffffffffffff\n        /* \"#utility.yul\":21745:21751   */\n      dup2\n        /* \"#utility.yul\":21742:21772   */\n      gt\n        /* \"#utility.yul\":21739:21795   */\n      iszero\n      tag_534\n      jumpi\n        /* \"#utility.yul\":21775:21793   */\n      tag_535\n      tag_107\n      jump\t// in\n    tag_535:\n        /* \"#utility.yul\":21739:21795   */\n    tag_534:\n        /* \"#utility.yul\":21819:21857   */\n      tag_536\n        /* \"#utility.yul\":21851:21855   */\n      dup3\n        /* \"#utility.yul\":21845:21856   */\n      sload\n        /* \"#utility.yul\":21819:21857   */\n      tag_64\n      jump\t// in\n    tag_536:\n        /* \"#utility.yul\":21904:21971   */\n      tag_537\n        /* \"#utility.yul\":21964:21970   */\n      dup3\n        /* \"#utility.yul\":21956:21962   */\n      dup3\n        /* \"#utility.yul\":21950:21954   */\n      dup6\n        /* \"#utility.yul\":21904:21971   */\n      tag_331\n      jump\t// in\n    tag_537:\n        /* \"#utility.yul\":21998:21999   */\n      0x00\n        /* \"#utility.yul\":22022:22026   */\n      0x20\n        /* \"#utility.yul\":22009:22026   */\n      swap1\n      pop\n        /* \"#utility.yul\":22054:22056   */\n      0x1f\n        /* \"#utility.yul\":22046:22052   */\n      dup4\n        /* \"#utility.yul\":22043:22057   */\n      gt\n        /* \"#utility.yul\":22071:22072   */\n      0x01\n        /* \"#utility.yul\":22066:22684   */\n      dup2\n      eq\n      tag_539\n      jumpi\n        /* \"#utility.yul\":22728:22729   */\n      0x00\n        /* \"#utility.yul\":22745:22751   */\n      dup5\n        /* \"#utility.yul\":22742:22819   */\n      iszero\n      tag_540\n      jumpi\n        /* \"#utility.yul\":22794:22803   */\n      dup3\n        /* \"#utility.yul\":22789:22792   */\n      dup8\n        /* \"#utility.yul\":22785:22804   */\n      add\n        /* \"#utility.yul\":22779:22805   */\n      mload\n        /* \"#utility.yul\":22770:22805   */\n      swap1\n      pop\n        /* \"#utility.yul\":22742:22819   */\n    tag_540:\n        /* \"#utility.yul\":22845:22912   */\n      tag_541\n        /* \"#utility.yul\":22905:22911   */\n      dup6\n        /* \"#utility.yul\":22898:22903   */\n      dup3\n        /* \"#utility.yul\":22845:22912   */\n      tag_334\n      jump\t// in\n    tag_541:\n        /* \"#utility.yul\":22839:22843   */\n      dup7\n        /* \"#utility.yul\":22832:22913   */\n      sstore\n        /* \"#utility.yul\":22701:22923   */\n      pop\n        /* \"#utility.yul\":22036:22923   */\n      jump(tag_538)\n        /* \"#utility.yul\":22066:22684   */\n    tag_539:\n        /* \"#utility.yul\":22118:22122   */\n      0x1f\n        /* \"#utility.yul\":22114:22123   */\n      not\n        /* \"#utility.yul\":22106:22112   */\n      dup5\n        /* \"#utility.yul\":22102:22124   */\n      and\n        /* \"#utility.yul\":22152:22189   */\n      tag_542\n        /* \"#utility.yul\":22184:22188   */\n      dup7\n        /* \"#utility.yul\":22152:22189   */\n      tag_320\n      jump\t// in\n    tag_542:\n        /* \"#utility.yul\":22211:22212   */\n      0x00\n        /* \"#utility.yul\":22225:22433   */\n    tag_543:\n        /* \"#utility.yul\":22239:22246   */\n      dup3\n        /* \"#utility.yul\":22236:22237   */\n      dup2\n        /* \"#utility.yul\":22233:22247   */\n      lt\n        /* \"#utility.yul\":22225:22433   */\n      iszero\n      tag_545\n      jumpi\n        /* \"#utility.yul\":22318:22327   */\n      dup5\n        /* \"#utility.yul\":22313:22316   */\n      dup10\n        /* \"#utility.yul\":22309:22328   */\n      add\n        /* \"#utility.yul\":22303:22329   */\n      mload\n        /* \"#utility.yul\":22295:22301   */\n      dup3\n        /* \"#utility.yul\":22288:22330   */\n      sstore\n        /* \"#utility.yul\":22369:22370   */\n      0x01\n        /* \"#utility.yul\":22361:22367   */\n      dup3\n        /* \"#utility.yul\":22357:22371   */\n      add\n        /* \"#utility.yul\":22347:22371   */\n      swap2\n      pop\n        /* \"#utility.yul\":22416:22418   */\n      0x20\n        /* \"#utility.yul\":22405:22414   */\n      dup6\n        /* \"#utility.yul\":22401:22419   */\n      add\n        /* \"#utility.yul\":22388:22419   */\n      swap5\n      pop\n        /* \"#utility.yul\":22262:22266   */\n      0x20\n        /* \"#utility.yul\":22259:22260   */\n      dup2\n        /* \"#utility.yul\":22255:22267   */\n      add\n        /* \"#utility.yul\":22250:22267   */\n      swap1\n      pop\n        /* \"#utility.yul\":22225:22433   */\n      jump(tag_543)\n    tag_545:\n        /* \"#utility.yul\":22461:22467   */\n      dup7\n        /* \"#utility.yul\":22452:22459   */\n      dup4\n        /* \"#utility.yul\":22449:22468   */\n      lt\n        /* \"#utility.yul\":22446:22625   */\n      iszero\n      tag_546\n      jumpi\n        /* \"#utility.yul\":22519:22528   */\n      dup5\n        /* \"#utility.yul\":22514:22517   */\n      dup10\n        /* \"#utility.yul\":22510:22529   */\n      add\n        /* \"#utility.yul\":22504:22530   */\n      mload\n        /* \"#utility.yul\":22562:22610   */\n      tag_547\n        /* \"#utility.yul\":22604:22608   */\n      0x1f\n        /* \"#utility.yul\":22596:22602   */\n      dup10\n        /* \"#utility.yul\":22592:22609   */\n      and\n        /* \"#utility.yul\":22581:22590   */\n      dup3\n        /* \"#utility.yul\":22562:22610   */\n      tag_333\n      jump\t// in\n    tag_547:\n        /* \"#utility.yul\":22554:22560   */\n      dup4\n        /* \"#utility.yul\":22547:22611   */\n      sstore\n        /* \"#utility.yul\":22469:22625   */\n      pop\n        /* \"#utility.yul\":22446:22625   */\n    tag_546:\n        /* \"#utility.yul\":22671:22672   */\n      0x01\n        /* \"#utility.yul\":22667:22668   */\n      0x02\n        /* \"#utility.yul\":22659:22665   */\n      dup9\n        /* \"#utility.yul\":22655:22669   */\n      mul\n        /* \"#utility.yul\":22651:22673   */\n      add\n        /* \"#utility.yul\":22645:22649   */\n      dup9\n        /* \"#utility.yul\":22638:22674   */\n      sstore\n        /* \"#utility.yul\":22073:22684   */\n      pop\n      pop\n      pop\n        /* \"#utility.yul\":22036:22923   */\n    tag_538:\n      pop\n        /* \"#utility.yul\":21626:22929   */\n      pop\n      pop\n      pop\n        /* \"#utility.yul\":21534:22929   */\n      pop\n      pop\n      jump\t// out\n        /* \"#utility.yul\":22935:24367   */\n    tag_59:\n        /* \"#utility.yul\":23316:23320   */\n      0x00\n        /* \"#utility.yul\":23354:23357   */\n      0xe0\n        /* \"#utility.yul\":23343:23352   */\n      dup3\n        /* \"#utility.yul\":23339:23358   */\n      add\n        /* \"#utility.yul\":23331:23358   */\n      swap1\n      pop\n        /* \"#utility.yul\":23404:23413   */\n      dup2\n        /* \"#utility.yul\":23398:23402   */\n      dup2\n        /* \"#utility.yul\":23394:23414   */\n      sub\n        /* \"#utility.yul\":23390:23391   */\n      0x00\n        /* \"#utility.yul\":23379:23388   */\n      dup4\n        /* \"#utility.yul\":23375:23392   */\n      add\n        /* \"#utility.yul\":23368:23415   */\n      mstore\n        /* \"#utility.yul\":23432:23510   */\n      tag_549\n        /* \"#utility.yul\":23505:23509   */\n      dup2\n        /* \"#utility.yul\":23496:23502   */\n      dup11\n        /* \"#utility.yul\":23432:23510   */\n      tag_317\n      jump\t// in\n    tag_549:\n        /* \"#utility.yul\":23424:23510   */\n      swap1\n      pop\n        /* \"#utility.yul\":23557:23566   */\n      dup2\n        /* \"#utility.yul\":23551:23555   */\n      dup2\n        /* \"#utility.yul\":23547:23567   */\n      sub\n        /* \"#utility.yul\":23542:23544   */\n      0x20\n        /* \"#utility.yul\":23531:23540   */\n      dup4\n        /* \"#utility.yul\":23527:23545   */\n      add\n        /* \"#utility.yul\":23520:23568   */\n      mstore\n        /* \"#utility.yul\":23585:23663   */\n      tag_550\n        /* \"#utility.yul\":23658:23662   */\n      dup2\n        /* \"#utility.yul\":23649:23655   */\n      dup10\n        /* \"#utility.yul\":23585:23663   */\n      tag_317\n      jump\t// in\n    tag_550:\n        /* \"#utility.yul\":23577:23663   */\n      swap1\n      pop\n        /* \"#utility.yul\":23710:23719   */\n      dup2\n        /* \"#utility.yul\":23704:23708   */\n      dup2\n        /* \"#utility.yul\":23700:23720   */\n      sub\n        /* \"#utility.yul\":23695:23697   */\n      0x40\n        /* \"#utility.yul\":23684:23693   */\n      dup4\n        /* \"#utility.yul\":23680:23698   */\n      add\n        /* \"#utility.yul\":23673:23721   */\n      mstore\n        /* \"#utility.yul\":23738:23816   */\n      tag_551\n        /* \"#utility.yul\":23811:23815   */\n      dup2\n        /* \"#utility.yul\":23802:23808   */\n      dup9\n        /* \"#utility.yul\":23738:23816   */\n      tag_317\n      jump\t// in\n    tag_551:\n        /* \"#utility.yul\":23730:23816   */\n      swap1\n      pop\n        /* \"#utility.yul\":23863:23872   */\n      dup2\n        /* \"#utility.yul\":23857:23861   */\n      dup2\n        /* \"#utility.yul\":23853:23873   */\n      sub\n        /* \"#utility.yul\":23848:23850   */\n      0x60\n        /* \"#utility.yul\":23837:23846   */\n      dup4\n        /* \"#utility.yul\":23833:23851   */\n      add\n        /* \"#utility.yul\":23826:23874   */\n      mstore\n        /* \"#utility.yul\":23891:23969   */\n      tag_552\n        /* \"#utility.yul\":23964:23968   */\n      dup2\n        /* \"#utility.yul\":23955:23961   */\n      dup8\n        /* \"#utility.yul\":23891:23969   */\n      tag_317\n      jump\t// in\n    tag_552:\n        /* \"#utility.yul\":23883:23969   */\n      swap1\n      pop\n        /* \"#utility.yul\":24017:24026   */\n      dup2\n        /* \"#utility.yul\":24011:24015   */\n      dup2\n        /* \"#utility.yul\":24007:24027   */\n      sub\n        /* \"#utility.yul\":24001:24004   */\n      0x80\n        /* \"#utility.yul\":23990:23999   */\n      dup4\n        /* \"#utility.yul\":23986:24005   */\n      add\n        /* \"#utility.yul\":23979:24028   */\n      mstore\n        /* \"#utility.yul\":24045:24123   */\n      tag_553\n        /* \"#utility.yul\":24118:24122   */\n      dup2\n        /* \"#utility.yul\":24109:24115   */\n      dup7\n        /* \"#utility.yul\":24045:24123   */\n      tag_317\n      jump\t// in\n    tag_553:\n        /* \"#utility.yul\":24037:24123   */\n      swap1\n      pop\n        /* \"#utility.yul\":24171:24180   */\n      dup2\n        /* \"#utility.yul\":24165:24169   */\n      dup2\n        /* \"#utility.yul\":24161:24181   */\n      sub\n        /* \"#utility.yul\":24155:24158   */\n      0xa0\n        /* \"#utility.yul\":24144:24153   */\n      dup4\n        /* \"#utility.yul\":24140:24159   */\n      add\n        /* \"#utility.yul\":24133:24182   */\n      mstore\n        /* \"#utility.yul\":24199:24277   */\n      tag_554\n        /* \"#utility.yul\":24272:24276   */\n      dup2\n        /* \"#utility.yul\":24263:24269   */\n      dup6\n        /* \"#utility.yul\":24199:24277   */\n      tag_317\n      jump\t// in\n    tag_554:\n        /* \"#utility.yul\":24191:24277   */\n      swap1\n      pop\n        /* \"#utility.yul\":24287:24360   */\n      tag_555\n        /* \"#utility.yul\":24355:24358   */\n      0xc0\n        /* \"#utility.yul\":24344:24353   */\n      dup4\n        /* \"#utility.yul\":24340:24359   */\n      add\n        /* \"#utility.yul\":24331:24337   */\n      dup5\n        /* \"#utility.yul\":24287:24360   */\n      tag_315\n      jump\t// in\n    tag_555:\n        /* \"#utility.yul\":22935:24367   */\n      swap9\n      swap8\n      pop\n      pop\n      pop\n      pop\n      pop\n      pop\n      pop\n      pop\n      jump\t// out\n        /* \"#utility.yul\":24373:24521   */\n    tag_335:\n        /* \"#utility.yul\":24475:24486   */\n      0x00\n        /* \"#utility.yul\":24512:24515   */\n      dup2\n        /* \"#utility.yul\":24497:24515   */\n      swap1\n      pop\n        /* \"#utility.yul\":24373:24521   */\n      swap3\n      swap2\n      pop\n      pop\n      jump\t// out\n        /* \"#utility.yul\":24527:24917   */\n    tag_336:\n        /* \"#utility.yul\":24633:24636   */\n      0x00\n        /* \"#utility.yul\":24661:24700   */\n      tag_558\n        /* \"#utility.yul\":24694:24699   */\n      dup3\n        /* \"#utility.yul\":24661:24700   */\n      tag_303\n      jump\t// in\n    tag_558:\n        /* \"#utility.yul\":24716:24805   */\n      tag_559\n        /* \"#utility.yul\":24798:24804   */\n      dup2\n        /* \"#utility.yul\":24793:24796   */\n      dup6\n        /* \"#utility.yul\":24716:24805   */\n      tag_335\n      jump\t// in\n    tag_559:\n        /* \"#utility.yul\":24709:24805   */\n      swap4\n      pop\n        /* \"#utility.yul\":24814:24879   */\n      tag_560\n        /* \"#utility.yul\":24872:24878   */\n      dup2\n        /* \"#utility.yul\":24867:24870   */\n      dup6\n        /* \"#utility.yul\":24860:24864   */\n      0x20\n        /* \"#utility.yul\":24853:24858   */\n      dup7\n        /* \"#utility.yul\":24849:24865   */\n      add\n        /* \"#utility.yul\":24814:24879   */\n      tag_305\n      jump\t// in\n    tag_560:\n        /* \"#utility.yul\":24904:24910   */\n      dup1\n        /* \"#utility.yul\":24899:24902   */\n      dup5\n        /* \"#utility.yul\":24895:24911   */\n      add\n        /* \"#utility.yul\":24888:24911   */\n      swap2\n      pop\n        /* \"#utility.yul\":24637:24917   */\n      pop\n        /* \"#utility.yul\":24527:24917   */\n      swap3\n      swap2\n      pop\n      pop\n      jump\t// out\n        /* \"#utility.yul\":24923:25198   */\n    tag_99:\n        /* \"#utility.yul\":25055:25058   */\n      0x00\n        /* \"#utility.yul\":25077:25172   */\n      tag_562\n        /* \"#utility.yul\":25168:25171   */\n      dup3\n        /* \"#utility.yul\":25159:25165   */\n      dup5\n        /* \"#utility.yul\":25077:25172   */\n      tag_336\n      jump\t// in\n    tag_562:\n        /* \"#utility.yul\":25070:25172   */\n      swap2\n      pop\n        /* \"#utility.yul\":25189:25192   */\n      dup2\n        /* \"#utility.yul\":25182:25192   */\n      swap1\n      pop\n        /* \"#utility.yul\":24923:25198   */\n      swap3\n      swap2\n      pop\n      pop\n      jump\t// out\n        /* \"#utility.yul\":25228:26102   */\n    tag_337:\n        /* \"#utility.yul\":25331:25334   */\n      0x00\n        /* \"#utility.yul\":25368:25373   */\n      dup2\n        /* \"#utility.yul\":25362:25374   */\n      sload\n        /* \"#utility.yul\":25397:25433   */\n      tag_564\n        /* \"#utility.yul\":25423:25432   */\n      dup2\n        /* \"#utility.yul\":25397:25433   */\n      tag_64\n      jump\t// in\n    tag_564:\n        /* \"#utility.yul\":25449:25538   */\n      tag_565\n        /* \"#utility.yul\":25531:25537   */\n      dup2\n        /* \"#utility.yul\":25526:25529   */\n      dup7\n        /* \"#utility.yul\":25449:25538   */\n      tag_335\n      jump\t// in\n    tag_565:\n        /* \"#utility.yul\":25442:25538   */\n      swap5\n      pop\n        /* \"#utility.yul\":25569:25570   */\n      0x01\n        /* \"#utility.yul\":25558:25567   */\n      dup3\n        /* \"#utility.yul\":25554:25571   */\n      and\n        /* \"#utility.yul\":25585:25586   */\n      0x00\n        /* \"#utility.yul\":25580:25746   */\n      dup2\n      eq\n      tag_567\n      jumpi\n        /* \"#utility.yul\":25760:25761   */\n      0x01\n        /* \"#utility.yul\":25755:26096   */\n      dup2\n      eq\n      tag_568\n      jumpi\n        /* \"#utility.yul\":25547:26096   */\n      jump(tag_566)\n        /* \"#utility.yul\":25580:25746   */\n    tag_567:\n        /* \"#utility.yul\":25664:25668   */\n      0xff\n        /* \"#utility.yul\":25660:25669   */\n      not\n        /* \"#utility.yul\":25649:25658   */\n      dup4\n        /* \"#utility.yul\":25645:25670   */\n      and\n        /* \"#utility.yul\":25640:25643   */\n      dup7\n        /* \"#utility.yul\":25633:25671   */\n      mstore\n        /* \"#utility.yul\":25726:25732   */\n      dup2\n        /* \"#utility.yul\":25719:25733   */\n      iszero\n        /* \"#utility.yul\":25712:25734   */\n      iszero\n        /* \"#utility.yul\":25704:25710   */\n      dup3\n        /* \"#utility.yul\":25700:25735   */\n      mul\n        /* \"#utility.yul\":25695:25698   */\n      dup7\n        /* \"#utility.yul\":25691:25736   */\n      add\n        /* \"#utility.yul\":25684:25736   */\n      swap4\n      pop\n        /* \"#utility.yul\":25580:25746   */\n      jump(tag_566)\n        /* \"#utility.yul\":25755:26096   */\n    tag_568:\n        /* \"#utility.yul\":25822:25860   */\n      tag_569\n        /* \"#utility.yul\":25854:25859   */\n      dup6\n        /* \"#utility.yul\":25822:25860   */\n      tag_320\n      jump\t// in\n    tag_569:\n        /* \"#utility.yul\":25882:25883   */\n      0x00\n        /* \"#utility.yul\":25896:26050   */\n    tag_570:\n        /* \"#utility.yul\":25910:25916   */\n      dup4\n        /* \"#utility.yul\":25907:25908   */\n      dup2\n        /* \"#utility.yul\":25904:25917   */\n      lt\n        /* \"#utility.yul\":25896:26050   */\n      iszero\n      tag_572\n      jumpi\n        /* \"#utility.yul\":25984:25991   */\n      dup2\n        /* \"#utility.yul\":25978:25992   */\n      sload\n        /* \"#utility.yul\":25974:25975   */\n      dup2\n        /* \"#utility.yul\":25969:25972   */\n      dup10\n        /* \"#utility.yul\":25965:25976   */\n      add\n        /* \"#utility.yul\":25958:25993   */\n      mstore\n        /* \"#utility.yul\":26034:26035   */\n      0x01\n        /* \"#utility.yul\":26025:26032   */\n      dup3\n        /* \"#utility.yul\":26021:26036   */\n      add\n        /* \"#utility.yul\":26010:26036   */\n      swap2\n      pop\n        /* \"#utility.yul\":25932:25936   */\n      0x20\n        /* \"#utility.yul\":25929:25930   */\n      dup2\n        /* \"#utility.yul\":25925:25937   */\n      add\n        /* \"#utility.yul\":25920:25937   */\n      swap1\n      pop\n        /* \"#utility.yul\":25896:26050   */\n      jump(tag_570)\n    tag_572:\n        /* \"#utility.yul\":26079:26085   */\n      dup4\n        /* \"#utility.yul\":26074:26077   */\n      dup9\n        /* \"#utility.yul\":26070:26086   */\n      add\n        /* \"#utility.yul\":26063:26086   */\n      swap6\n      pop\n        /* \"#utility.yul\":25762:26096   */\n      pop\n      pop\n        /* \"#utility.yul\":25547:26096   */\n    tag_566:\n      pop\n        /* \"#utility.yul\":25335:26102   */\n      pop\n      pop\n        /* \"#utility.yul\":25228:26102   */\n      swap3\n      swap2\n      pop\n      pop\n      jump\t// out\n        /* \"#utility.yul\":26108:26377   */\n    tag_101:\n        /* \"#utility.yul\":26237:26240   */\n      0x00\n        /* \"#utility.yul\":26259:26351   */\n      tag_574\n        /* \"#utility.yul\":26347:26350   */\n      dup3\n        /* \"#utility.yul\":26338:26344   */\n      dup5\n        /* \"#utility.yul\":26259:26351   */\n      tag_337\n      jump\t// in\n    tag_574:\n        /* \"#utility.yul\":26252:26351   */\n      swap2\n      pop\n        /* \"#utility.yul\":26368:26371   */\n      dup2\n        /* \"#utility.yul\":26361:26371   */\n      swap1\n      pop\n        /* \"#utility.yul\":26108:26377   */\n      swap3\n      swap2\n      pop\n      pop\n      jump\t// out\n        /* \"#utility.yul\":26383:26563   */\n    tag_149:\n        /* \"#utility.yul\":26431:26508   */\n      0x4e487b7100000000000000000000000000000000000000000000000000000000\n        /* \"#utility.yul\":26428:26429   */\n      0x00\n        /* \"#utility.yul\":26421:26509   */\n      mstore\n        /* \"#utility.yul\":26528:26532   */\n      0x32\n        /* \"#utility.yul\":26525:26526   */\n      0x04\n        /* \"#utility.yul\":26518:26533   */\n      mstore\n        /* \"#utility.yul\":26552:26556   */\n      0x24\n        /* \"#utility.yul\":26549:26550   */\n      0x00\n        /* \"#utility.yul\":26542:26557   */\n      revert\n        /* \"#utility.yul\":26569:26763   */\n    tag_222:\n        /* \"#utility.yul\":26609:26613   */\n      0x00\n        /* \"#utility.yul\":26629:26649   */\n      tag_577\n        /* \"#utility.yul\":26647:26648   */\n      dup3\n        /* \"#utility.yul\":26629:26649   */\n      tag_299\n      jump\t// in\n    tag_577:\n        /* \"#utility.yul\":26624:26649   */\n      swap2\n      pop\n        /* \"#utility.yul\":26663:26683   */\n      tag_578\n        /* \"#utility.yul\":26681:26682   */\n      dup4\n        /* \"#utility.yul\":26663:26683   */\n      tag_299\n      jump\t// in\n    tag_578:\n        /* \"#utility.yul\":26658:26683   */\n      swap3\n      pop\n        /* \"#utility.yul\":26707:26708   */\n      dup3\n        /* \"#utility.yul\":26704:26705   */\n      dup3\n        /* \"#utility.yul\":26700:26709   */\n      sub\n        /* \"#utility.yul\":26692:26709   */\n      swap1\n      pop\n        /* \"#utility.yul\":26731:26732   */\n      dup2\n        /* \"#utility.yul\":26725:26729   */\n      dup2\n        /* \"#utility.yul\":26722:26733   */\n      gt\n        /* \"#utility.yul\":26719:26756   */\n      iszero\n      tag_579\n      jumpi\n        /* \"#utility.yul\":26736:26754   */\n      tag_580\n      tag_318\n      jump\t// in\n    tag_580:\n        /* \"#utility.yul\":26719:26756   */\n    tag_579:\n        /* \"#utility.yul\":26569:26763   */\n      swap3\n      swap2\n      pop\n      pop\n      jump\t// out\n        /* \"#utility.yul\":26769:26945   */\n    tag_338:\n        /* \"#utility.yul\":26909:26937   */\n      0x5472616e73616374696f6e20646f6573206e6f74206578697374000000000000\n        /* \"#utility.yul\":26905:26906   */\n      0x00\n        /* \"#utility.yul\":26897:26903   */\n      dup3\n        /* \"#utility.yul\":26893:26907   */\n      add\n        /* \"#utility.yul\":26886:26938   */\n      mstore\n        /* \"#utility.yul\":26769:26945   */\n      pop\n      jump\t// out\n        /* \"#utility.yul\":26951:27317   */\n    tag_339:\n        /* \"#utility.yul\":27093:27096   */\n      0x00\n        /* \"#utility.yul\":27114:27181   */\n      tag_583\n        /* \"#utility.yul\":27178:27180   */\n      0x1a\n        /* \"#utility.yul\":27173:27176   */\n      dup4\n        /* \"#utility.yul\":27114:27181   */\n      tag_316\n      jump\t// in\n    tag_583:\n        /* \"#utility.yul\":27107:27181   */\n      swap2\n      pop\n        /* \"#utility.yul\":27190:27283   */\n      tag_584\n        /* \"#utility.yul\":27279:27282   */\n      dup3\n        /* \"#utility.yul\":27190:27283   */\n      tag_338\n      jump\t// in\n    tag_584:\n        /* \"#utility.yul\":27308:27310   */\n      0x20\n        /* \"#utility.yul\":27303:27306   */\n      dup3\n        /* \"#utility.yul\":27299:27311   */\n      add\n        /* \"#utility.yul\":27292:27311   */\n      swap1\n      pop\n        /* \"#utility.yul\":26951:27317   */\n      swap2\n      swap1\n      pop\n      jump\t// out\n        /* \"#utility.yul\":27323:27742   */\n    tag_229:\n        /* \"#utility.yul\":27489:27493   */\n      0x00\n        /* \"#utility.yul\":27527:27529   */\n      0x20\n        /* \"#utility.yul\":27516:27525   */\n      dup3\n        /* \"#utility.yul\":27512:27530   */\n      add\n        /* \"#utility.yul\":27504:27530   */\n      swap1\n      pop\n        /* \"#utility.yul\":27576:27585   */\n      dup2\n        /* \"#utility.yul\":27570:27574   */\n      dup2\n        /* \"#utility.yul\":27566:27586   */\n      sub\n        /* \"#utility.yul\":27562:27563   */\n      0x00\n        /* \"#utility.yul\":27551:27560   */\n      dup4\n        /* \"#utility.yul\":27547:27564   */\n      add\n        /* \"#utility.yul\":27540:27587   */\n      mstore\n        /* \"#utility.yul\":27604:27735   */\n      tag_586\n        /* \"#utility.yul\":27730:27734   */\n      dup2\n        /* \"#utility.yul\":27604:27735   */\n      tag_339\n      jump\t// in\n    tag_586:\n        /* \"#utility.yul\":27596:27735   */\n      swap1\n      pop\n        /* \"#utility.yul\":27323:27742   */\n      swap2\n      swap1\n      pop\n      jump\t// out\n        /* \"#utility.yul\":27748:28171   */\n    tag_232:\n        /* \"#utility.yul\":27889:27893   */\n      0x00\n        /* \"#utility.yul\":27927:27929   */\n      0x40\n        /* \"#utility.yul\":27916:27925   */\n      dup3\n        /* \"#utility.yul\":27912:27930   */\n      add\n        /* \"#utility.yul\":27904:27930   */\n      swap1\n      pop\n        /* \"#utility.yul\":27976:27985   */\n      dup2\n        /* \"#utility.yul\":27970:27974   */\n      dup2\n        /* \"#utility.yul\":27966:27986   */\n      sub\n        /* \"#utility.yul\":27962:27963   */\n      0x00\n        /* \"#utility.yul\":27951:27960   */\n      dup4\n        /* \"#utility.yul\":27947:27964   */\n      add\n        /* \"#utility.yul\":27940:27987   */\n      mstore\n        /* \"#utility.yul\":28004:28082   */\n      tag_588\n        /* \"#utility.yul\":28077:28081   */\n      dup2\n        /* \"#utility.yul\":28068:28074   */\n      dup6\n        /* \"#utility.yul\":28004:28082   */\n      tag_317\n      jump\t// in\n    tag_588:\n        /* \"#utility.yul\":27996:28082   */\n      swap1\n      pop\n        /* \"#utility.yul\":28092:28164   */\n      tag_589\n        /* \"#utility.yul\":28160:28162   */\n      0x20\n        /* \"#utility.yul\":28149:28158   */\n      dup4\n        /* \"#utility.yul\":28145:28163   */\n      add\n        /* \"#utility.yul\":28136:28142   */\n      dup5\n        /* \"#utility.yul\":28092:28164   */\n      tag_315\n      jump\t// in\n    tag_589:\n        /* \"#utility.yul\":27748:28171   */\n      swap4\n      swap3\n      pop\n      pop\n      pop\n      jump\t// out\n\n    auxdata: 0xa2646970667358221220a66f77f7abc8c1ed8b5145ad36e80c0b4897c77207e01f545e5a7e5a762c638064736f6c63430008100033\n}\n",
				"bytecode": {
					"linkReferences": {},
					"object": "608060405234801561001057600080fd5b50612859806100206000396000f3fe608060405234801561001057600080fd5b50600436106100885760003560e01c8063add6415d1161005b578063add6415d14610140578063b77bf6001461015e578063ce8481fd1461017c578063e55d57df1461019857610088565b80632e9e680c1461008d57806333ea3dc8146100a95780639311f732146100d95780639ace38c214610109575b600080fd5b6100a760048036038101906100a29190611bc4565b6101c8565b005b6100c360048036038101906100be9190611d0e565b61031a565b6040516100d09190611e9c565b60405180910390f35b6100f360048036038101906100ee9190611ebe565b6106c7565b604051610100919061209c565b60405180910390f35b610123600480360381019061011e9190611d0e565b610c1e565b604051610137989796959493929190612117565b60405180910390f35b610148610f96565b604051610155919061209c565b60405180910390f35b6101666113e5565b60405161017391906121bf565b60405180910390f35b610196600480360381019061019191906121da565b6113eb565b005b6101b260048036038101906101ad9190611ebe565b611498565b6040516101bf919061209c565b60405180910390f35b600160008154809291906101db90612278565b9190505550604051806101000160405280600154815260200188815260200187815260200186815260200185815260200184815260200183815260200182815250600080600154815260200190815260200160002060008201518160000155602082015181600101908161024f91906124cc565b50604082015181600201908161026591906124cc565b50606082015181600301908161027b91906124cc565b50608082015181600401908161029191906124cc565b5060a08201518160050190816102a791906124cc565b5060c08201518160060190816102bd91906124cc565b5060e082015181600701559050506001547f3080626baab04ef097e275f2565f5facdff2a06c6395164f9574829599fa74a388888888888888604051610309979695949392919061259e565b60405180910390a250505050505050565b6103226119ef565b600080838152602001908152602001600020604051806101000160405290816000820154815260200160018201805461035a906122ef565b80601f0160208091040260200160405190810160405280929190818152602001828054610386906122ef565b80156103d35780601f106103a8576101008083540402835291602001916103d3565b820191906000526020600020905b8154815290600101906020018083116103b657829003601f168201915b505050505081526020016002820180546103ec906122ef565b80601f0160208091040260200160405190810160405280929190818152602001828054610418906122ef565b80156104655780601f1061043a57610100808354040283529160200191610465565b820191906000526020600020905b81548152906001019060200180831161044857829003601f168201915b5050505050815260200160038201805461047e906122ef565b80601f01602080910402602001604051908101604052809291908181526020018280546104aa906122ef565b80156104f75780601f106104cc576101008083540402835291602001916104f7565b820191906000526020600020905b8154815290600101906020018083116104da57829003601f168201915b50505050508152602001600482018054610510906122ef565b80601f016020809104026020016040519081016040528092919081815260200182805461053c906122ef565b80156105895780601f1061055e57610100808354040283529160200191610589565b820191906000526020600020905b81548152906001019060200180831161056c57829003601f168201915b505050505081526020016005820180546105a2906122ef565b80601f01602080910402602001604051908101604052809291908181526020018280546105ce906122ef565b801561061b5780601f106105f05761010080835404028352916020019161061b565b820191906000526020600020905b8154815290600101906020018083116105fe57829003601f168201915b50505050508152602001600682018054610634906122ef565b80601f0160208091040260200160405190810160405280929190818152602001828054610660906122ef565b80156106ad5780601f10610682576101008083540402835291602001916106ad565b820191906000526020600020905b81548152906001019060200180831161069057829003601f168201915b505050505081526020016007820154815250509050919050565b6060600080600190505b600154811161076357836040516020016106eb9190612673565b60405160208183030381529060405280519060200120600080838152602001908152602001600020600501604051602001610726919061270d565b604051602081830303815290604052805190602001200361075057818061074c90612278565b9250505b808061075b90612278565b9150506106d1565b5060008167ffffffffffffffff8111156107805761077f611a63565b5b6040519080825280602002602001820160405280156107b957816020015b6107a66119ef565b81526020019060019003908161079e5790505b509050600080600190505b6001548111610c1257856040516020016107de9190612673565b60405160208183030381529060405280519060200120600080838152602001908152602001600020600501604051602001610819919061270d565b6040516020818303038152906040528051906020012003610bff57600080828152602001908152602001600020604051806101000160405290816000820154815260200160018201805461086c906122ef565b80601f0160208091040260200160405190810160405280929190818152602001828054610898906122ef565b80156108e55780601f106108ba576101008083540402835291602001916108e5565b820191906000526020600020905b8154815290600101906020018083116108c857829003601f168201915b505050505081526020016002820180546108fe906122ef565b80601f016020809104026020016040519081016040528092919081815260200182805461092a906122ef565b80156109775780601f1061094c57610100808354040283529160200191610977565b820191906000526020600020905b81548152906001019060200180831161095a57829003601f168201915b50505050508152602001600382018054610990906122ef565b80601f01602080910402602001604051908101604052809291908181526020018280546109bc906122ef565b8015610a095780601f106109de57610100808354040283529160200191610a09565b820191906000526020600020905b8154815290600101906020018083116109ec57829003601f168201915b50505050508152602001600482018054610a22906122ef565b80601f0160208091040260200160405190810160405280929190818152602001828054610a4e906122ef565b8015610a9b5780601f10610a7057610100808354040283529160200191610a9b565b820191906000526020600020905b815481529060010190602001808311610a7e57829003601f168201915b50505050508152602001600582018054610ab4906122ef565b80601f0160208091040260200160405190810160405280929190818152602001828054610ae0906122ef565b8015610b2d5780601f10610b0257610100808354040283529160200191610b2d565b820191906000526020600020905b815481529060010190602001808311610b1057829003601f168201915b50505050508152602001600682018054610b46906122ef565b80601f0160208091040260200160405190810160405280929190818152602001828054610b72906122ef565b8015610bbf5780601f10610b9457610100808354040283529160200191610bbf565b820191906000526020600020905b815481529060010190602001808311610ba257829003601f168201915b50505050508152602001600782015481525050838381518110610be557610be4612724565b5b60200260200101819052508180610bfb90612278565b9250505b8080610c0a90612278565b9150506107c4565b50819350505050919050565b6000602052806000526040600020600091509050806000015490806001018054610c47906122ef565b80601f0160208091040260200160405190810160405280929190818152602001828054610c73906122ef565b8015610cc05780601f10610c9557610100808354040283529160200191610cc0565b820191906000526020600020905b815481529060010190602001808311610ca357829003601f168201915b505050505090806002018054610cd5906122ef565b80601f0160208091040260200160405190810160405280929190818152602001828054610d01906122ef565b8015610d4e5780601f10610d2357610100808354040283529160200191610d4e565b820191906000526020600020905b815481529060010190602001808311610d3157829003601f168201915b505050505090806003018054610d63906122ef565b80601f0160208091040260200160405190810160405280929190818152602001828054610d8f906122ef565b8015610ddc5780601f10610db157610100808354040283529160200191610ddc565b820191906000526020600020905b815481529060010190602001808311610dbf57829003601f168201915b505050505090806004018054610df1906122ef565b80601f0160208091040260200160405190810160405280929190818152602001828054610e1d906122ef565b8015610e6a5780601f10610e3f57610100808354040283529160200191610e6a565b820191906000526020600020905b815481529060010190602001808311610e4d57829003601f168201915b505050505090806005018054610e7f906122ef565b80601f0160208091040260200160405190810160405280929190818152602001828054610eab906122ef565b8015610ef85780601f10610ecd57610100808354040283529160200191610ef8565b820191906000526020600020905b815481529060010190602001808311610edb57829003601f168201915b505050505090806006018054610f0d906122ef565b80601f0160208091040260200160405190810160405280929190818152602001828054610f39906122ef565b8015610f865780601f10610f5b57610100808354040283529160200191610f86565b820191906000526020600020905b815481529060010190602001808311610f6957829003601f168201915b5050505050908060070154905088565b6060600060015467ffffffffffffffff811115610fb657610fb5611a63565b5b604051908082528060200260200182016040528015610fef57816020015b610fdc6119ef565b815260200190600190039081610fd45790505b5090506000600190505b60015481116113dd57600080828152602001908152602001600020604051806101000160405290816000820154815260200160018201805461103a906122ef565b80601f0160208091040260200160405190810160405280929190818152602001828054611066906122ef565b80156110b35780601f10611088576101008083540402835291602001916110b3565b820191906000526020600020905b81548152906001019060200180831161109657829003601f168201915b505050505081526020016002820180546110cc906122ef565b80601f01602080910402602001604051908101604052809291908181526020018280546110f8906122ef565b80156111455780601f1061111a57610100808354040283529160200191611145565b820191906000526020600020905b81548152906001019060200180831161112857829003601f168201915b5050505050815260200160038201805461115e906122ef565b80601f016020809104026020016040519081016040528092919081815260200182805461118a906122ef565b80156111d75780601f106111ac576101008083540402835291602001916111d7565b820191906000526020600020905b8154815290600101906020018083116111ba57829003601f168201915b505050505081526020016004820180546111f0906122ef565b80601f016020809104026020016040519081016040528092919081815260200182805461121c906122ef565b80156112695780601f1061123e57610100808354040283529160200191611269565b820191906000526020600020905b81548152906001019060200180831161124c57829003601f168201915b50505050508152602001600582018054611282906122ef565b80601f01602080910402602001604051908101604052809291908181526020018280546112ae906122ef565b80156112fb5780601f106112d0576101008083540402835291602001916112fb565b820191906000526020600020905b8154815290600101906020018083116112de57829003601f168201915b50505050508152602001600682018054611314906122ef565b80601f0160208091040260200160405190810160405280929190818152602001828054611340906122ef565b801561138d5780601f106113625761010080835404028352916020019161138d565b820191906000526020600020905b81548152906001019060200180831161137057829003601f168201915b50505050508152602001600782015481525050826001836113ae9190612753565b815181106113bf576113be612724565b5b602002602001018190525080806113d590612278565b915050610ff9565b508091505090565b60015481565b600154831115611430576040517f08c379a0000000000000000000000000000000000000000000000000000000008152600401611427906127d3565b60405180910390fd5b600080600085815260200190815260200160002090508281600601908161145791906124cc565b50837fcbc92fe73220c7cc1450ff1070f1becf254013a1cd6a9d95a4b7c2055b3e9ac9848460405161148a9291906127f3565b60405180910390a250505050565b6060600080600190505b600154811161153457836040516020016114bc9190612673565b604051602081830303815290604052805190602001206000808381526020019081526020016000206003016040516020016114f7919061270d565b604051602081830303815290604052805190602001200361152157818061151d90612278565b9250505b808061152c90612278565b9150506114a2565b5060008167ffffffffffffffff81111561155157611550611a63565b5b60405190808252806020026020018201604052801561158a57816020015b6115776119ef565b81526020019060019003908161156f5790505b509050600080600190505b60015481116119e357856040516020016115af9190612673565b604051602081830303815290604052805190602001206000808381526020019081526020016000206003016040516020016115ea919061270d565b60405160208183030381529060405280519060200120036119d057600080828152602001908152602001600020604051806101000160405290816000820154815260200160018201805461163d906122ef565b80601f0160208091040260200160405190810160405280929190818152602001828054611669906122ef565b80156116b65780601f1061168b576101008083540402835291602001916116b6565b820191906000526020600020905b81548152906001019060200180831161169957829003601f168201915b505050505081526020016002820180546116cf906122ef565b80601f01602080910402602001604051908101604052809291908181526020018280546116fb906122ef565b80156117485780601f1061171d57610100808354040283529160200191611748565b820191906000526020600020905b81548152906001019060200180831161172b57829003601f168201915b50505050508152602001600382018054611761906122ef565b80601f016020809104026020016040519081016040528092919081815260200182805461178d906122ef565b80156117da5780601f106117af576101008083540402835291602001916117da565b820191906000526020600020905b8154815290600101906020018083116117bd57829003601f168201915b505050505081526020016004820180546117f3906122ef565b80601f016020809104026020016040519081016040528092919081815260200182805461181f906122ef565b801561186c5780601f106118415761010080835404028352916020019161186c565b820191906000526020600020905b81548152906001019060200180831161184f57829003601f168201915b50505050508152602001600582018054611885906122ef565b80601f01602080910402602001604051908101604052809291908181526020018280546118b1906122ef565b80156118fe5780601f106118d3576101008083540402835291602001916118fe565b820191906000526020600020905b8154815290600101906020018083116118e157829003601f168201915b50505050508152602001600682018054611917906122ef565b80601f0160208091040260200160405190810160405280929190818152602001828054611943906122ef565b80156119905780601f1061196557610100808354040283529160200191611990565b820191906000526020600020905b81548152906001019060200180831161197357829003601f168201915b505050505081526020016007820154815250508383815181106119b6576119b5612724565b5b602002602001018190525081806119cc90612278565b9250505b80806119db90612278565b915050611595565b50819350505050919050565b60405180610100016040528060008152602001606081526020016060815260200160608152602001606081526020016060815260200160608152602001600081525090565b6000604051905090565b600080fd5b600080fd5b600080fd5b600080fd5b6000601f19601f8301169050919050565b7f4e487b7100000000000000000000000000000000000000000000000000000000600052604160045260246000fd5b611a9b82611a52565b810181811067ffffffffffffffff82111715611aba57611ab9611a63565b5b80604052505050565b6000611acd611a34565b9050611ad98282611a92565b919050565b600067ffffffffffffffff821115611af957611af8611a63565b5b611b0282611a52565b9050602081019050919050565b82818337600083830152505050565b6000611b31611b2c84611ade565b611ac3565b905082815260208101848484011115611b4d57611b4c611a4d565b5b611b58848285611b0f565b509392505050565b600082601f830112611b7557611b74611a48565b5b8135611b85848260208601611b1e565b91505092915050565b6000819050919050565b611ba181611b8e565b8114611bac57600080fd5b50565b600081359050611bbe81611b98565b92915050565b600080600080600080600060e0888a031215611be357611be2611a3e565b5b600088013567ffffffffffffffff811115611c0157611c00611a43565b5b611c0d8a828b01611b60565b975050602088013567ffffffffffffffff811115611c2e57611c2d611a43565b5b611c3a8a828b01611b60565b965050604088013567ffffffffffffffff811115611c5b57611c5a611a43565b5b611c678a828b01611b60565b955050606088013567ffffffffffffffff811115611c8857611c87611a43565b5b611c948a828b01611b60565b945050608088013567ffffffffffffffff811115611cb557611cb4611a43565b5b611cc18a828b01611b60565b93505060a088013567ffffffffffffffff811115611ce257611ce1611a43565b5b611cee8a828b01611b60565b92505060c0611cff8a828b01611baf565b91505092959891949750929550565b600060208284031215611d2457611d23611a3e565b5b6000611d3284828501611baf565b91505092915050565b611d4481611b8e565b82525050565b600081519050919050565b600082825260208201905092915050565b60005b83811015611d84578082015181840152602081019050611d69565b60008484015250505050565b6000611d9b82611d4a565b611da58185611d55565b9350611db5818560208601611d66565b611dbe81611a52565b840191505092915050565b600061010083016000830151611de26000860182611d3b565b5060208301518482036020860152611dfa8282611d90565b91505060408301518482036040860152611e148282611d90565b91505060608301518482036060860152611e2e8282611d90565b91505060808301518482036080860152611e488282611d90565b91505060a083015184820360a0860152611e628282611d90565b91505060c083015184820360c0860152611e7c8282611d90565b91505060e0830151611e9160e0860182611d3b565b508091505092915050565b60006020820190508181036000830152611eb68184611dc9565b905092915050565b600060208284031215611ed457611ed3611a3e565b5b600082013567ffffffffffffffff811115611ef257611ef1611a43565b5b611efe84828501611b60565b91505092915050565b600081519050919050565b600082825260208201905092915050565b6000819050602082019050919050565b600061010083016000830151611f4c6000860182611d3b565b5060208301518482036020860152611f648282611d90565b91505060408301518482036040860152611f7e8282611d90565b91505060608301518482036060860152611f988282611d90565b91505060808301518482036080860152611fb28282611d90565b91505060a083015184820360a0860152611fcc8282611d90565b91505060c083015184820360c0860152611fe68282611d90565b91505060e0830151611ffb60e0860182611d3b565b508091505092915050565b60006120128383611f33565b905092915050565b6000602082019050919050565b600061203282611f07565b61203c8185611f12565b93508360208202850161204e85611f23565b8060005b8581101561208a578484038952815161206b8582612006565b94506120768361201a565b925060208a01995050600181019050612052565b50829750879550505050505092915050565b600060208201905081810360008301526120b68184612027565b905092915050565b6120c781611b8e565b82525050565b600082825260208201905092915050565b60006120e982611d4a565b6120f381856120cd565b9350612103818560208601611d66565b61210c81611a52565b840191505092915050565b60006101008201905061212d600083018b6120be565b818103602083015261213f818a6120de565b9050818103604083015261215381896120de565b9050818103606083015261216781886120de565b9050818103608083015261217b81876120de565b905081810360a083015261218f81866120de565b905081810360c08301526121a381856120de565b90506121b260e08301846120be565b9998505050505050505050565b60006020820190506121d460008301846120be565b92915050565b6000806000606084860312156121f3576121f2611a3e565b5b600061220186828701611baf565b935050602084013567ffffffffffffffff81111561222257612221611a43565b5b61222e86828701611b60565b925050604061223f86828701611baf565b9150509250925092565b7f4e487b7100000000000000000000000000000000000000000000000000000000600052601160045260246000fd5b600061228382611b8e565b91507fffffffffffffffffffffffffffffffffffffffffffffffffffffffffffffffff82036122b5576122b4612249565b5b600182019050919050565b7f4e487b7100000000000000000000000000000000000000000000000000000000600052602260045260246000fd5b6000600282049050600182168061230757607f821691505b60208210810361231a576123196122c0565b5b50919050565b60008190508160005260206000209050919050565b60006020601f8301049050919050565b600082821b905092915050565b6000600883026123827fffffffffffffffffffffffffffffffffffffffffffffffffffffffffffffffff82612345565b61238c8683612345565b95508019841693508086168417925050509392505050565b6000819050919050565b60006123c96123c46123bf84611b8e565b6123a4565b611b8e565b9050919050565b6000819050919050565b6123e3836123ae565b6123f76123ef826123d0565b848454612352565b825550505050565b600090565b61240c6123ff565b6124178184846123da565b505050565b5b8181101561243b57612430600082612404565b60018101905061241d565b5050565b601f8211156124805761245181612320565b61245a84612335565b81016020851015612469578190505b61247d61247585612335565b83018261241c565b50505b505050565b600082821c905092915050565b60006124a360001984600802612485565b1980831691505092915050565b60006124bc8383612492565b9150826002028217905092915050565b6124d582611d4a565b67ffffffffffffffff8111156124ee576124ed611a63565b5b6124f882546122ef565b61250382828561243f565b600060209050601f8311600181146125365760008415612524578287015190505b61252e85826124b0565b865550612596565b601f19841661254486612320565b60005b8281101561256c57848901518255600182019150602085019450602081019050612547565b868310156125895784890151612585601f891682612492565b8355505b6001600288020188555050505b505050505050565b600060e08201905081810360008301526125b8818a6120de565b905081810360208301526125cc81896120de565b905081810360408301526125e081886120de565b905081810360608301526125f481876120de565b9050818103608083015261260881866120de565b905081810360a083015261261c81856120de565b905061262b60c08301846120be565b98975050505050505050565b600081905092915050565b600061264d82611d4a565b6126578185612637565b9350612667818560208601611d66565b80840191505092915050565b600061267f8284612642565b915081905092915050565b60008154612697816122ef565b6126a18186612637565b945060018216600081146126bc57600181146126d157612704565b60ff1983168652811515820286019350612704565b6126da85612320565b60005b838110156126fc578154818901526001820191506020810190506126dd565b838801955050505b50505092915050565b6000612719828461268a565b915081905092915050565b7f4e487b7100000000000000000000000000000000000000000000000000000000600052603260045260246000fd5b600061275e82611b8e565b915061276983611b8e565b925082820390508181111561278157612780612249565b5b92915050565b7f5472616e73616374696f6e20646f6573206e6f74206578697374000000000000600082015250565b60006127bd601a836120cd565b91506127c882612787565b602082019050919050565b600060208201905081810360008301526127ec816127b0565b9050919050565b6000604082019050818103600083015261280d81856120de565b905061281c60208301846120be565b939250505056fea2646970667358221220a66f77f7abc8c1ed8b5145ad36e80c0b4897c77207e01f545e5a7e5a762c638064736f6c63430008100033",
					"opcodes": "PUSH1 0x80 PUSH1 0x40 MSTORE CALLVALUE DUP1 ISZERO PUSH2 0x10 JUMPI PUSH1 0x0 DUP1 REVERT JUMPDEST POP PUSH2 0x2859 DUP1 PUSH2 0x20 PUSH1 0x0 CODECOPY PUSH1 0x0 RETURN INVALID PUSH1 0x80 PUSH1 0x40 MSTORE CALLVALUE DUP1 ISZERO PUSH2 0x10 JUMPI PUSH1 0x0 DUP1 REVERT JUMPDEST POP PUSH1 0x4 CALLDATASIZE LT PUSH2 0x88 JUMPI PUSH1 0x0 CALLDATALOAD PUSH1 0xE0 SHR DUP1 PUSH4 0xADD6415D GT PUSH2 0x5B JUMPI DUP1 PUSH4 0xADD6415D EQ PUSH2 0x140 JUMPI DUP1 PUSH4 0xB77BF600 EQ PUSH2 0x15E JUMPI DUP1 PUSH4 0xCE8481FD EQ PUSH2 0x17C JUMPI DUP1 PUSH4 0xE55D57DF EQ PUSH2 0x198 JUMPI PUSH2 0x88 JUMP JUMPDEST DUP1 PUSH4 0x2E9E680C EQ PUSH2 0x8D JUMPI DUP1 PUSH4 0x33EA3DC8 EQ PUSH2 0xA9 JUMPI DUP1 PUSH4 0x9311F732 EQ PUSH2 0xD9 JUMPI DUP1 PUSH4 0x9ACE38C2 EQ PUSH2 0x109 JUMPI JUMPDEST PUSH1 0x0 DUP1 REVERT JUMPDEST PUSH2 0xA7 PUSH1 0x4 DUP1 CALLDATASIZE SUB DUP2 ADD SWAP1 PUSH2 0xA2 SWAP2 SWAP1 PUSH2 0x1BC4 JUMP JUMPDEST PUSH2 0x1C8 JUMP JUMPDEST STOP JUMPDEST PUSH2 0xC3 PUSH1 0x4 DUP1 CALLDATASIZE SUB DUP2 ADD SWAP1 PUSH2 0xBE SWAP2 SWAP1 PUSH2 0x1D0E JUMP JUMPDEST PUSH2 0x31A JUMP JUMPDEST PUSH1 0x40 MLOAD PUSH2 0xD0 SWAP2 SWAP1 PUSH2 0x1E9C JUMP JUMPDEST PUSH1 0x40 MLOAD DUP1 SWAP2 SUB SWAP1 RETURN JUMPDEST PUSH2 0xF3 PUSH1 0x4 DUP1 CALLDATASIZE SUB DUP2 ADD SWAP1 PUSH2 0xEE SWAP2 SWAP1 PUSH2 0x1EBE JUMP JUMPDEST PUSH2 0x6C7 JUMP JUMPDEST PUSH1 0x40 MLOAD PUSH2 0x100 SWAP2 SWAP1 PUSH2 0x209C JUMP JUMPDEST PUSH1 0x40 MLOAD DUP1 SWAP2 SUB SWAP1 RETURN JUMPDEST PUSH2 0x123 PUSH1 0x4 DUP1 CALLDATASIZE SUB DUP2 ADD SWAP1 PUSH2 0x11E SWAP2 SWAP1 PUSH2 0x1D0E JUMP JUMPDEST PUSH2 0xC1E JUMP JUMPDEST PUSH1 0x40 MLOAD PUSH2 0x137 SWAP9 SWAP8 SWAP7 SWAP6 SWAP5 SWAP4 SWAP3 SWAP2 SWAP1 PUSH2 0x2117 JUMP JUMPDEST PUSH1 0x40 MLOAD DUP1 SWAP2 SUB SWAP1 RETURN JUMPDEST PUSH2 0x148 PUSH2 0xF96 JUMP JUMPDEST PUSH1 0x40 MLOAD PUSH2 0x155 SWAP2 SWAP1 PUSH2 0x209C JUMP JUMPDEST PUSH1 0x40 MLOAD DUP1 SWAP2 SUB SWAP1 RETURN JUMPDEST PUSH2 0x166 PUSH2 0x13E5 JUMP JUMPDEST PUSH1 0x40 MLOAD PUSH2 0x173 SWAP2 SWAP1 PUSH2 0x21BF JUMP JUMPDEST PUSH1 0x40 MLOAD DUP1 SWAP2 SUB SWAP1 RETURN JUMPDEST PUSH2 0x196 PUSH1 0x4 DUP1 CALLDATASIZE SUB DUP2 ADD SWAP1 PUSH2 0x191 SWAP2 SWAP1 PUSH2 0x21DA JUMP JUMPDEST PUSH2 0x13EB JUMP JUMPDEST STOP JUMPDEST PUSH2 0x1B2 PUSH1 0x4 DUP1 CALLDATASIZE SUB DUP2 ADD SWAP1 PUSH2 0x1AD SWAP2 SWAP1 PUSH2 0x1EBE JUMP JUMPDEST PUSH2 0x1498 JUMP JUMPDEST PUSH1 0x40 MLOAD PUSH2 0x1BF SWAP2 SWAP1 PUSH2 0x209C JUMP JUMPDEST PUSH1 0x40 MLOAD DUP1 SWAP2 SUB SWAP1 RETURN JUMPDEST PUSH1 0x1 PUSH1 0x0 DUP2 SLOAD DUP1 SWAP3 SWAP2 SWAP1 PUSH2 0x1DB SWAP1 PUSH2 0x2278 JUMP JUMPDEST SWAP2 SWAP1 POP SSTORE POP PUSH1 0x40 MLOAD DUP1 PUSH2 0x100 ADD PUSH1 0x40 MSTORE DUP1 PUSH1 0x1 SLOAD DUP2 MSTORE PUSH1 0x20 ADD DUP9 DUP2 MSTORE PUSH1 0x20 ADD DUP8 DUP2 MSTORE PUSH1 0x20 ADD DUP7 DUP2 MSTORE PUSH1 0x20 ADD DUP6 DUP2 MSTORE PUSH1 0x20 ADD DUP5 DUP2 MSTORE PUSH1 0x20 ADD DUP4 DUP2 MSTORE PUSH1 0x20 ADD DUP3 DUP2 MSTORE POP PUSH1 0x0 DUP1 PUSH1 0x1 SLOAD DUP2 MSTORE PUSH1 0x20 ADD SWAP1 DUP2 MSTORE PUSH1 0x20 ADD PUSH1 0x0 KECCAK256 PUSH1 0x0 DUP3 ADD MLOAD DUP2 PUSH1 0x0 ADD SSTORE PUSH1 0x20 DUP3 ADD MLOAD DUP2 PUSH1 0x1 ADD SWAP1 DUP2 PUSH2 0x24F SWAP2 SWAP1 PUSH2 0x24CC JUMP JUMPDEST POP PUSH1 0x40 DUP3 ADD MLOAD DUP2 PUSH1 0x2 ADD SWAP1 DUP2 PUSH2 0x265 SWAP2 SWAP1 PUSH2 0x24CC JUMP JUMPDEST POP PUSH1 0x60 DUP3 ADD MLOAD DUP2 PUSH1 0x3 ADD SWAP1 DUP2 PUSH2 0x27B SWAP2 SWAP1 PUSH2 0x24CC JUMP JUMPDEST POP PUSH1 0x80 DUP3 ADD MLOAD DUP2 PUSH1 0x4 ADD SWAP1 DUP2 PUSH2 0x291 SWAP2 SWAP1 PUSH2 0x24CC JUMP JUMPDEST POP PUSH1 0xA0 DUP3 ADD MLOAD DUP2 PUSH1 0x5 ADD SWAP1 DUP2 PUSH2 0x2A7 SWAP2 SWAP1 PUSH2 0x24CC JUMP JUMPDEST POP PUSH1 0xC0 DUP3 ADD MLOAD DUP2 PUSH1 0x6 ADD SWAP1 DUP2 PUSH2 0x2BD SWAP2 SWAP1 PUSH2 0x24CC JUMP JUMPDEST POP PUSH1 0xE0 DUP3 ADD MLOAD DUP2 PUSH1 0x7 ADD SSTORE SWAP1 POP POP PUSH1 0x1 SLOAD PUSH32 0x3080626BAAB04EF097E275F2565F5FACDFF2A06C6395164F9574829599FA74A3 DUP9 DUP9 DUP9 DUP9 DUP9 DUP9 DUP9 PUSH1 0x40 MLOAD PUSH2 0x309 SWAP8 SWAP7 SWAP6 SWAP5 SWAP4 SWAP3 SWAP2 SWAP1 PUSH2 0x259E JUMP JUMPDEST PUSH1 0x40 MLOAD DUP1 SWAP2 SUB SWAP1 LOG2 POP POP POP POP POP POP POP JUMP JUMPDEST PUSH2 0x322 PUSH2 0x19EF JUMP JUMPDEST PUSH1 0x0 DUP1 DUP4 DUP2 MSTORE PUSH1 0x20 ADD SWAP1 DUP2 MSTORE PUSH1 0x20 ADD PUSH1 0x0 KECCAK256 PUSH1 0x40 MLOAD DUP1 PUSH2 0x100 ADD PUSH1 0x40 MSTORE SWAP1 DUP2 PUSH1 0x0 DUP3 ADD SLOAD DUP2 MSTORE PUSH1 0x20 ADD PUSH1 0x1 DUP3 ADD DUP1 SLOAD PUSH2 0x35A SWAP1 PUSH2 0x22EF JUMP JUMPDEST DUP1 PUSH1 0x1F ADD PUSH1 0x20 DUP1 SWAP2 DIV MUL PUSH1 0x20 ADD PUSH1 0x40 MLOAD SWAP1 DUP2 ADD PUSH1 0x40 MSTORE DUP1 SWAP3 SWAP2 SWAP1 DUP2 DUP2 MSTORE PUSH1 0x20 ADD DUP3 DUP1 SLOAD PUSH2 0x386 SWAP1 PUSH2 0x22EF JUMP JUMPDEST DUP1 ISZERO PUSH2 0x3D3 JUMPI DUP1 PUSH1 0x1F LT PUSH2 0x3A8 JUMPI PUSH2 0x100 DUP1 DUP4 SLOAD DIV MUL DUP4 MSTORE SWAP2 PUSH1 0x20 ADD SWAP2 PUSH2 0x3D3 JUMP JUMPDEST DUP3 ADD SWAP2 SWAP1 PUSH1 0x0 MSTORE PUSH1 0x20 PUSH1 0x0 KECCAK256 SWAP1 JUMPDEST DUP2 SLOAD DUP2 MSTORE SWAP1 PUSH1 0x1 ADD SWAP1 PUSH1 0x20 ADD DUP1 DUP4 GT PUSH2 0x3B6 JUMPI DUP3 SWAP1 SUB PUSH1 0x1F AND DUP3 ADD SWAP2 JUMPDEST POP POP POP POP POP DUP2 MSTORE PUSH1 0x20 ADD PUSH1 0x2 DUP3 ADD DUP1 SLOAD PUSH2 0x3EC SWAP1 PUSH2 0x22EF JUMP JUMPDEST DUP1 PUSH1 0x1F ADD PUSH1 0x20 DUP1 SWAP2 DIV MUL PUSH1 0x20 ADD PUSH1 0x40 MLOAD SWAP1 DUP2 ADD PUSH1 0x40 MSTORE DUP1 SWAP3 SWAP2 SWAP1 DUP2 DUP2 MSTORE PUSH1 0x20 ADD DUP3 DUP1 SLOAD PUSH2 0x418 SWAP1 PUSH2 0x22EF JUMP JUMPDEST DUP1 ISZERO PUSH2 0x465 JUMPI DUP1 PUSH1 0x1F LT PUSH2 0x43A JUMPI PUSH2 0x100 DUP1 DUP4 SLOAD DIV MUL DUP4 MSTORE SWAP2 PUSH1 0x20 ADD SWAP2 PUSH2 0x465 JUMP JUMPDEST DUP3 ADD SWAP2 SWAP1 PUSH1 0x0 MSTORE PUSH1 0x20 PUSH1 0x0 KECCAK256 SWAP1 JUMPDEST DUP2 SLOAD DUP2 MSTORE SWAP1 PUSH1 0x1 ADD SWAP1 PUSH1 0x20 ADD DUP1 DUP4 GT PUSH2 0x448 JUMPI DUP3 SWAP1 SUB PUSH1 0x1F AND DUP3 ADD SWAP2 JUMPDEST POP POP POP POP POP DUP2 MSTORE PUSH1 0x20 ADD PUSH1 0x3 DUP3 ADD DUP1 SLOAD PUSH2 0x47E SWAP1 PUSH2 0x22EF JUMP JUMPDEST DUP1 PUSH1 0x1F ADD PUSH1 0x20 DUP1 SWAP2 DIV MUL PUSH1 0x20 ADD PUSH1 0x40 MLOAD SWAP1 DUP2 ADD PUSH1 0x40 MSTORE DUP1 SWAP3 SWAP2 SWAP1 DUP2 DUP2 MSTORE PUSH1 0x20 ADD DUP3 DUP1 SLOAD PUSH2 0x4AA SWAP1 PUSH2 0x22EF JUMP JUMPDEST DUP1 ISZERO PUSH2 0x4F7 JUMPI DUP1 PUSH1 0x1F LT PUSH2 0x4CC JUMPI PUSH2 0x100 DUP1 DUP4 SLOAD DIV MUL DUP4 MSTORE SWAP2 PUSH1 0x20 ADD SWAP2 PUSH2 0x4F7 JUMP JUMPDEST DUP3 ADD SWAP2 SWAP1 PUSH1 0x0 MSTORE PUSH1 0x20 PUSH1 0x0 KECCAK256 SWAP1 JUMPDEST DUP2 SLOAD DUP2 MSTORE SWAP1 PUSH1 0x1 ADD SWAP1 PUSH1 0x20 ADD DUP1 DUP4 GT PUSH2 0x4DA JUMPI DUP3 SWAP1 SUB PUSH1 0x1F AND DUP3 ADD SWAP2 JUMPDEST POP POP POP POP POP DUP2 MSTORE PUSH1 0x20 ADD PUSH1 0x4 DUP3 ADD DUP1 SLOAD PUSH2 0x510 SWAP1 PUSH2 0x22EF JUMP JUMPDEST DUP1 PUSH1 0x1F ADD PUSH1 0x20 DUP1 SWAP2 DIV MUL PUSH1 0x20 ADD PUSH1 0x40 MLOAD SWAP1 DUP2 ADD PUSH1 0x40 MSTORE DUP1 SWAP3 SWAP2 SWAP1 DUP2 DUP2 MSTORE PUSH1 0x20 ADD DUP3 DUP1 SLOAD PUSH2 0x53C SWAP1 PUSH2 0x22EF JUMP JUMPDEST DUP1 ISZERO PUSH2 0x589 JUMPI DUP1 PUSH1 0x1F LT PUSH2 0x55E JUMPI PUSH2 0x100 DUP1 DUP4 SLOAD DIV MUL DUP4 MSTORE SWAP2 PUSH1 0x20 ADD SWAP2 PUSH2 0x589 JUMP JUMPDEST DUP3 ADD SWAP2 SWAP1 PUSH1 0x0 MSTORE PUSH1 0x20 PUSH1 0x0 KECCAK256 SWAP1 JUMPDEST DUP2 SLOAD DUP2 MSTORE SWAP1 PUSH1 0x1 ADD SWAP1 PUSH1 0x20 ADD DUP1 DUP4 GT PUSH2 0x56C JUMPI DUP3 SWAP1 SUB PUSH1 0x1F AND DUP3 ADD SWAP2 JUMPDEST POP POP POP POP POP DUP2 MSTORE PUSH1 0x20 ADD PUSH1 0x5 DUP3 ADD DUP1 SLOAD PUSH2 0x5A2 SWAP1 PUSH2 0x22EF JUMP JUMPDEST DUP1 PUSH1 0x1F ADD PUSH1 0x20 DUP1 SWAP2 DIV MUL PUSH1 0x20 ADD PUSH1 0x40 MLOAD SWAP1 DUP2 ADD PUSH1 0x40 MSTORE DUP1 SWAP3 SWAP2 SWAP1 DUP2 DUP2 MSTORE PUSH1 0x20 ADD DUP3 DUP1 SLOAD PUSH2 0x5CE SWAP1 PUSH2 0x22EF JUMP JUMPDEST DUP1 ISZERO PUSH2 0x61B JUMPI DUP1 PUSH1 0x1F LT PUSH2 0x5F0 JUMPI PUSH2 0x100 DUP1 DUP4 SLOAD DIV MUL DUP4 MSTORE SWAP2 PUSH1 0x20 ADD SWAP2 PUSH2 0x61B JUMP JUMPDEST DUP3 ADD SWAP2 SWAP1 PUSH1 0x0 MSTORE PUSH1 0x20 PUSH1 0x0 KECCAK256 SWAP1 JUMPDEST DUP2 SLOAD DUP2 MSTORE SWAP1 PUSH1 0x1 ADD SWAP1 PUSH1 0x20 ADD DUP1 DUP4 GT PUSH2 0x5FE JUMPI DUP3 SWAP1 SUB PUSH1 0x1F AND DUP3 ADD SWAP2 JUMPDEST POP POP POP POP POP DUP2 MSTORE PUSH1 0x20 ADD PUSH1 0x6 DUP3 ADD DUP1 SLOAD PUSH2 0x634 SWAP1 PUSH2 0x22EF JUMP JUMPDEST DUP1 PUSH1 0x1F ADD PUSH1 0x20 DUP1 SWAP2 DIV MUL PUSH1 0x20 ADD PUSH1 0x40 MLOAD SWAP1 DUP2 ADD PUSH1 0x40 MSTORE DUP1 SWAP3 SWAP2 SWAP1 DUP2 DUP2 MSTORE PUSH1 0x20 ADD DUP3 DUP1 SLOAD PUSH2 0x660 SWAP1 PUSH2 0x22EF JUMP JUMPDEST DUP1 ISZERO PUSH2 0x6AD JUMPI DUP1 PUSH1 0x1F LT PUSH2 0x682 JUMPI PUSH2 0x100 DUP1 DUP4 SLOAD DIV MUL DUP4 MSTORE SWAP2 PUSH1 0x20 ADD SWAP2 PUSH2 0x6AD JUMP JUMPDEST DUP3 ADD SWAP2 SWAP1 PUSH1 0x0 MSTORE PUSH1 0x20 PUSH1 0x0 KECCAK256 SWAP1 JUMPDEST DUP2 SLOAD DUP2 MSTORE SWAP1 PUSH1 0x1 ADD SWAP1 PUSH1 0x20 ADD DUP1 DUP4 GT PUSH2 0x690 JUMPI DUP3 SWAP1 SUB PUSH1 0x1F AND DUP3 ADD SWAP2 JUMPDEST POP POP POP POP POP DUP2 MSTORE PUSH1 0x20 ADD PUSH1 0x7 DUP3 ADD SLOAD DUP2 MSTORE POP POP SWAP1 POP SWAP2 SWAP1 POP JUMP JUMPDEST PUSH1 0x60 PUSH1 0x0 DUP1 PUSH1 0x1 SWAP1 POP JUMPDEST PUSH1 0x1 SLOAD DUP2 GT PUSH2 0x763 JUMPI DUP4 PUSH1 0x40 MLOAD PUSH1 0x20 ADD PUSH2 0x6EB SWAP2 SWAP1 PUSH2 0x2673 JUMP JUMPDEST PUSH1 0x40 MLOAD PUSH1 0x20 DUP2 DUP4 SUB SUB DUP2 MSTORE SWAP1 PUSH1 0x40 MSTORE DUP1 MLOAD SWAP1 PUSH1 0x20 ADD KECCAK256 PUSH1 0x0 DUP1 DUP4 DUP2 MSTORE PUSH1 0x20 ADD SWAP1 DUP2 MSTORE PUSH1 0x20 ADD PUSH1 0x0 KECCAK256 PUSH1 0x5 ADD PUSH1 0x40 MLOAD PUSH1 0x20 ADD PUSH2 0x726 SWAP2 SWAP1 PUSH2 0x270D JUMP JUMPDEST PUSH1 0x40 MLOAD PUSH1 0x20 DUP2 DUP4 SUB SUB DUP2 MSTORE SWAP1 PUSH1 0x40 MSTORE DUP1 MLOAD SWAP1 PUSH1 0x20 ADD KECCAK256 SUB PUSH2 0x750 JUMPI DUP2 DUP1 PUSH2 0x74C SWAP1 PUSH2 0x2278 JUMP JUMPDEST SWAP3 POP POP JUMPDEST DUP1 DUP1 PUSH2 0x75B SWAP1 PUSH2 0x2278 JUMP JUMPDEST SWAP2 POP POP PUSH2 0x6D1 JUMP JUMPDEST POP PUSH1 0x0 DUP2 PUSH8 0xFFFFFFFFFFFFFFFF DUP2 GT ISZERO PUSH2 0x780 JUMPI PUSH2 0x77F PUSH2 0x1A63 JUMP JUMPDEST JUMPDEST PUSH1 0x40 MLOAD SWAP1 DUP1 DUP3 MSTORE DUP1 PUSH1 0x20 MUL PUSH1 0x20 ADD DUP3 ADD PUSH1 0x40 MSTORE DUP1 ISZERO PUSH2 0x7B9 JUMPI DUP2 PUSH1 0x20 ADD JUMPDEST PUSH2 0x7A6 PUSH2 0x19EF JUMP JUMPDEST DUP2 MSTORE PUSH1 0x20 ADD SWAP1 PUSH1 0x1 SWAP1 SUB SWAP1 DUP2 PUSH2 0x79E JUMPI SWAP1 POP JUMPDEST POP SWAP1 POP PUSH1 0x0 DUP1 PUSH1 0x1 SWAP1 POP JUMPDEST PUSH1 0x1 SLOAD DUP2 GT PUSH2 0xC12 JUMPI DUP6 PUSH1 0x40 MLOAD PUSH1 0x20 ADD PUSH2 0x7DE SWAP2 SWAP1 PUSH2 0x2673 JUMP JUMPDEST PUSH1 0x40 MLOAD PUSH1 0x20 DUP2 DUP4 SUB SUB DUP2 MSTORE SWAP1 PUSH1 0x40 MSTORE DUP1 MLOAD SWAP1 PUSH1 0x20 ADD KECCAK256 PUSH1 0x0 DUP1 DUP4 DUP2 MSTORE PUSH1 0x20 ADD SWAP1 DUP2 MSTORE PUSH1 0x20 ADD PUSH1 0x0 KECCAK256 PUSH1 0x5 ADD PUSH1 0x40 MLOAD PUSH1 0x20 ADD PUSH2 0x819 SWAP2 SWAP1 PUSH2 0x270D JUMP JUMPDEST PUSH1 0x40 MLOAD PUSH1 0x20 DUP2 DUP4 SUB SUB DUP2 MSTORE SWAP1 PUSH1 0x40 MSTORE DUP1 MLOAD SWAP1 PUSH1 0x20 ADD KECCAK256 SUB PUSH2 0xBFF JUMPI PUSH1 0x0 DUP1 DUP3 DUP2 MSTORE PUSH1 0x20 ADD SWAP1 DUP2 MSTORE PUSH1 0x20 ADD PUSH1 0x0 KECCAK256 PUSH1 0x40 MLOAD DUP1 PUSH2 0x100 ADD PUSH1 0x40 MSTORE SWAP1 DUP2 PUSH1 0x0 DUP3 ADD SLOAD DUP2 MSTORE PUSH1 0x20 ADD PUSH1 0x1 DUP3 ADD DUP1 SLOAD PUSH2 0x86C SWAP1 PUSH2 0x22EF JUMP JUMPDEST DUP1 PUSH1 0x1F ADD PUSH1 0x20 DUP1 SWAP2 DIV MUL PUSH1 0x20 ADD PUSH1 0x40 MLOAD SWAP1 DUP2 ADD PUSH1 0x40 MSTORE DUP1 SWAP3 SWAP2 SWAP1 DUP2 DUP2 MSTORE PUSH1 0x20 ADD DUP3 DUP1 SLOAD PUSH2 0x898 SWAP1 PUSH2 0x22EF JUMP JUMPDEST DUP1 ISZERO PUSH2 0x8E5 JUMPI DUP1 PUSH1 0x1F LT PUSH2 0x8BA JUMPI PUSH2 0x100 DUP1 DUP4 SLOAD DIV MUL DUP4 MSTORE SWAP2 PUSH1 0x20 ADD SWAP2 PUSH2 0x8E5 JUMP JUMPDEST DUP3 ADD SWAP2 SWAP1 PUSH1 0x0 MSTORE PUSH1 0x20 PUSH1 0x0 KECCAK256 SWAP1 JUMPDEST DUP2 SLOAD DUP2 MSTORE SWAP1 PUSH1 0x1 ADD SWAP1 PUSH1 0x20 ADD DUP1 DUP4 GT PUSH2 0x8C8 JUMPI DUP3 SWAP1 SUB PUSH1 0x1F AND DUP3 ADD SWAP2 JUMPDEST POP POP POP POP POP DUP2 MSTORE PUSH1 0x20 ADD PUSH1 0x2 DUP3 ADD DUP1 SLOAD PUSH2 0x8FE SWAP1 PUSH2 0x22EF JUMP JUMPDEST DUP1 PUSH1 0x1F ADD PUSH1 0x20 DUP1 SWAP2 DIV MUL PUSH1 0x20 ADD PUSH1 0x40 MLOAD SWAP1 DUP2 ADD PUSH1 0x40 MSTORE DUP1 SWAP3 SWAP2 SWAP1 DUP2 DUP2 MSTORE PUSH1 0x20 ADD DUP3 DUP1 SLOAD PUSH2 0x92A SWAP1 PUSH2 0x22EF JUMP JUMPDEST DUP1 ISZERO PUSH2 0x977 JUMPI DUP1 PUSH1 0x1F LT PUSH2 0x94C JUMPI PUSH2 0x100 DUP1 DUP4 SLOAD DIV MUL DUP4 MSTORE SWAP2 PUSH1 0x20 ADD SWAP2 PUSH2 0x977 JUMP JUMPDEST DUP3 ADD SWAP2 SWAP1 PUSH1 0x0 MSTORE PUSH1 0x20 PUSH1 0x0 KECCAK256 SWAP1 JUMPDEST DUP2 SLOAD DUP2 MSTORE SWAP1 PUSH1 0x1 ADD SWAP1 PUSH1 0x20 ADD DUP1 DUP4 GT PUSH2 0x95A JUMPI DUP3 SWAP1 SUB PUSH1 0x1F AND DUP3 ADD SWAP2 JUMPDEST POP POP POP POP POP DUP2 MSTORE PUSH1 0x20 ADD PUSH1 0x3 DUP3 ADD DUP1 SLOAD PUSH2 0x990 SWAP1 PUSH2 0x22EF JUMP JUMPDEST DUP1 PUSH1 0x1F ADD PUSH1 0x20 DUP1 SWAP2 DIV MUL PUSH1 0x20 ADD PUSH1 0x40 MLOAD SWAP1 DUP2 ADD PUSH1 0x40 MSTORE DUP1 SWAP3 SWAP2 SWAP1 DUP2 DUP2 MSTORE PUSH1 0x20 ADD DUP3 DUP1 SLOAD PUSH2 0x9BC SWAP1 PUSH2 0x22EF JUMP JUMPDEST DUP1 ISZERO PUSH2 0xA09 JUMPI DUP1 PUSH1 0x1F LT PUSH2 0x9DE JUMPI PUSH2 0x100 DUP1 DUP4 SLOAD DIV MUL DUP4 MSTORE SWAP2 PUSH1 0x20 ADD SWAP2 PUSH2 0xA09 JUMP JUMPDEST DUP3 ADD SWAP2 SWAP1 PUSH1 0x0 MSTORE PUSH1 0x20 PUSH1 0x0 KECCAK256 SWAP1 JUMPDEST DUP2 SLOAD DUP2 MSTORE SWAP1 PUSH1 0x1 ADD SWAP1 PUSH1 0x20 ADD DUP1 DUP4 GT PUSH2 0x9EC JUMPI DUP3 SWAP1 SUB PUSH1 0x1F AND DUP3 ADD SWAP2 JUMPDEST POP POP POP POP POP DUP2 MSTORE PUSH1 0x20 ADD PUSH1 0x4 DUP3 ADD DUP1 SLOAD PUSH2 0xA22 SWAP1 PUSH2 0x22EF JUMP JUMPDEST DUP1 PUSH1 0x1F ADD PUSH1 0x20 DUP1 SWAP2 DIV MUL PUSH1 0x20 ADD PUSH1 0x40 MLOAD SWAP1 DUP2 ADD PUSH1 0x40 MSTORE DUP1 SWAP3 SWAP2 SWAP1 DUP2 DUP2 MSTORE PUSH1 0x20 ADD DUP3 DUP1 SLOAD PUSH2 0xA4E SWAP1 PUSH2 0x22EF JUMP JUMPDEST DUP1 ISZERO PUSH2 0xA9B JUMPI DUP1 PUSH1 0x1F LT PUSH2 0xA70 JUMPI PUSH2 0x100 DUP1 DUP4 SLOAD DIV MUL DUP4 MSTORE SWAP2 PUSH1 0x20 ADD SWAP2 PUSH2 0xA9B JUMP JUMPDEST DUP3 ADD SWAP2 SWAP1 PUSH1 0x0 MSTORE PUSH1 0x20 PUSH1 0x0 KECCAK256 SWAP1 JUMPDEST DUP2 SLOAD DUP2 MSTORE SWAP1 PUSH1 0x1 ADD SWAP1 PUSH1 0x20 ADD DUP1 DUP4 GT PUSH2 0xA7E JUMPI DUP3 SWAP1 SUB PUSH1 0x1F AND DUP3 ADD SWAP2 JUMPDEST POP POP POP POP POP DUP2 MSTORE PUSH1 0x20 ADD PUSH1 0x5 DUP3 ADD DUP1 SLOAD PUSH2 0xAB4 SWAP1 PUSH2 0x22EF JUMP JUMPDEST DUP1 PUSH1 0x1F ADD PUSH1 0x20 DUP1 SWAP2 DIV MUL PUSH1 0x20 ADD PUSH1 0x40 MLOAD SWAP1 DUP2 ADD PUSH1 0x40 MSTORE DUP1 SWAP3 SWAP2 SWAP1 DUP2 DUP2 MSTORE PUSH1 0x20 ADD DUP3 DUP1 SLOAD PUSH2 0xAE0 SWAP1 PUSH2 0x22EF JUMP JUMPDEST DUP1 ISZERO PUSH2 0xB2D JUMPI DUP1 PUSH1 0x1F LT PUSH2 0xB02 JUMPI PUSH2 0x100 DUP1 DUP4 SLOAD DIV MUL DUP4 MSTORE SWAP2 PUSH1 0x20 ADD SWAP2 PUSH2 0xB2D JUMP JUMPDEST DUP3 ADD SWAP2 SWAP1 PUSH1 0x0 MSTORE PUSH1 0x20 PUSH1 0x0 KECCAK256 SWAP1 JUMPDEST DUP2 SLOAD DUP2 MSTORE SWAP1 PUSH1 0x1 ADD SWAP1 PUSH1 0x20 ADD DUP1 DUP4 GT PUSH2 0xB10 JUMPI DUP3 SWAP1 SUB PUSH1 0x1F AND DUP3 ADD SWAP2 JUMPDEST POP POP POP POP POP DUP2 MSTORE PUSH1 0x20 ADD PUSH1 0x6 DUP3 ADD DUP1 SLOAD PUSH2 0xB46 SWAP1 PUSH2 0x22EF JUMP JUMPDEST DUP1 PUSH1 0x1F ADD PUSH1 0x20 DUP1 SWAP2 DIV MUL PUSH1 0x20 ADD PUSH1 0x40 MLOAD SWAP1 DUP2 ADD PUSH1 0x40 MSTORE DUP1 SWAP3 SWAP2 SWAP1 DUP2 DUP2 MSTORE PUSH1 0x20 ADD DUP3 DUP1 SLOAD PUSH2 0xB72 SWAP1 PUSH2 0x22EF JUMP JUMPDEST DUP1 ISZERO PUSH2 0xBBF JUMPI DUP1 PUSH1 0x1F LT PUSH2 0xB94 JUMPI PUSH2 0x100 DUP1 DUP4 SLOAD DIV MUL DUP4 MSTORE SWAP2 PUSH1 0x20 ADD SWAP2 PUSH2 0xBBF JUMP JUMPDEST DUP3 ADD SWAP2 SWAP1 PUSH1 0x0 MSTORE PUSH1 0x20 PUSH1 0x0 KECCAK256 SWAP1 JUMPDEST DUP2 SLOAD DUP2 MSTORE SWAP1 PUSH1 0x1 ADD SWAP1 PUSH1 0x20 ADD DUP1 DUP4 GT PUSH2 0xBA2 JUMPI DUP3 SWAP1 SUB PUSH1 0x1F AND DUP3 ADD SWAP2 JUMPDEST POP POP POP POP POP DUP2 MSTORE PUSH1 0x20 ADD PUSH1 0x7 DUP3 ADD SLOAD DUP2 MSTORE POP POP DUP4 DUP4 DUP2 MLOAD DUP2 LT PUSH2 0xBE5 JUMPI PUSH2 0xBE4 PUSH2 0x2724 JUMP JUMPDEST JUMPDEST PUSH1 0x20 MUL PUSH1 0x20 ADD ADD DUP2 SWAP1 MSTORE POP DUP2 DUP1 PUSH2 0xBFB SWAP1 PUSH2 0x2278 JUMP JUMPDEST SWAP3 POP POP JUMPDEST DUP1 DUP1 PUSH2 0xC0A SWAP1 PUSH2 0x2278 JUMP JUMPDEST SWAP2 POP POP PUSH2 0x7C4 JUMP JUMPDEST POP DUP2 SWAP4 POP POP POP POP SWAP2 SWAP1 POP JUMP JUMPDEST PUSH1 0x0 PUSH1 0x20 MSTORE DUP1 PUSH1 0x0 MSTORE PUSH1 0x40 PUSH1 0x0 KECCAK256 PUSH1 0x0 SWAP2 POP SWAP1 POP DUP1 PUSH1 0x0 ADD SLOAD SWAP1 DUP1 PUSH1 0x1 ADD DUP1 SLOAD PUSH2 0xC47 SWAP1 PUSH2 0x22EF JUMP JUMPDEST DUP1 PUSH1 0x1F ADD PUSH1 0x20 DUP1 SWAP2 DIV MUL PUSH1 0x20 ADD PUSH1 0x40 MLOAD SWAP1 DUP2 ADD PUSH1 0x40 MSTORE DUP1 SWAP3 SWAP2 SWAP1 DUP2 DUP2 MSTORE PUSH1 0x20 ADD DUP3 DUP1 SLOAD PUSH2 0xC73 SWAP1 PUSH2 0x22EF JUMP JUMPDEST DUP1 ISZERO PUSH2 0xCC0 JUMPI DUP1 PUSH1 0x1F LT PUSH2 0xC95 JUMPI PUSH2 0x100 DUP1 DUP4 SLOAD DIV MUL DUP4 MSTORE SWAP2 PUSH1 0x20 ADD SWAP2 PUSH2 0xCC0 JUMP JUMPDEST DUP3 ADD SWAP2 SWAP1 PUSH1 0x0 MSTORE PUSH1 0x20 PUSH1 0x0 KECCAK256 SWAP1 JUMPDEST DUP2 SLOAD DUP2 MSTORE SWAP1 PUSH1 0x1 ADD SWAP1 PUSH1 0x20 ADD DUP1 DUP4 GT PUSH2 0xCA3 JUMPI DUP3 SWAP1 SUB PUSH1 0x1F AND DUP3 ADD SWAP2 JUMPDEST POP POP POP POP POP SWAP1 DUP1 PUSH1 0x2 ADD DUP1 SLOAD PUSH2 0xCD5 SWAP1 PUSH2 0x22EF JUMP JUMPDEST DUP1 PUSH1 0x1F ADD PUSH1 0x20 DUP1 SWAP2 DIV MUL PUSH1 0x20 ADD PUSH1 0x40 MLOAD SWAP1 DUP2 ADD PUSH1 0x40 MSTORE DUP1 SWAP3 SWAP2 SWAP1 DUP2 DUP2 MSTORE PUSH1 0x20 ADD DUP3 DUP1 SLOAD PUSH2 0xD01 SWAP1 PUSH2 0x22EF JUMP JUMPDEST DUP1 ISZERO PUSH2 0xD4E JUMPI DUP1 PUSH1 0x1F LT PUSH2 0xD23 JUMPI PUSH2 0x100 DUP1 DUP4 SLOAD DIV MUL DUP4 MSTORE SWAP2 PUSH1 0x20 ADD SWAP2 PUSH2 0xD4E JUMP JUMPDEST DUP3 ADD SWAP2 SWAP1 PUSH1 0x0 MSTORE PUSH1 0x20 PUSH1 0x0 KECCAK256 SWAP1 JUMPDEST DUP2 SLOAD DUP2 MSTORE SWAP1 PUSH1 0x1 ADD SWAP1 PUSH1 0x20 ADD DUP1 DUP4 GT PUSH2 0xD31 JUMPI DUP3 SWAP1 SUB PUSH1 0x1F AND DUP3 ADD SWAP2 JUMPDEST POP POP POP POP POP SWAP1 DUP1 PUSH1 0x3 ADD DUP1 SLOAD PUSH2 0xD63 SWAP1 PUSH2 0x22EF JUMP JUMPDEST DUP1 PUSH1 0x1F ADD PUSH1 0x20 DUP1 SWAP2 DIV MUL PUSH1 0x20 ADD PUSH1 0x40 MLOAD SWAP1 DUP2 ADD PUSH1 0x40 MSTORE DUP1 SWAP3 SWAP2 SWAP1 DUP2 DUP2 MSTORE PUSH1 0x20 ADD DUP3 DUP1 SLOAD PUSH2 0xD8F SWAP1 PUSH2 0x22EF JUMP JUMPDEST DUP1 ISZERO PUSH2 0xDDC JUMPI DUP1 PUSH1 0x1F LT PUSH2 0xDB1 JUMPI PUSH2 0x100 DUP1 DUP4 SLOAD DIV MUL DUP4 MSTORE SWAP2 PUSH1 0x20 ADD SWAP2 PUSH2 0xDDC JUMP JUMPDEST DUP3 ADD SWAP2 SWAP1 PUSH1 0x0 MSTORE PUSH1 0x20 PUSH1 0x0 KECCAK256 SWAP1 JUMPDEST DUP2 SLOAD DUP2 MSTORE SWAP1 PUSH1 0x1 ADD SWAP1 PUSH1 0x20 ADD DUP1 DUP4 GT PUSH2 0xDBF JUMPI DUP3 SWAP1 SUB PUSH1 0x1F AND DUP3 ADD SWAP2 JUMPDEST POP POP POP POP POP SWAP1 DUP1 PUSH1 0x4 ADD DUP1 SLOAD PUSH2 0xDF1 SWAP1 PUSH2 0x22EF JUMP JUMPDEST DUP1 PUSH1 0x1F ADD PUSH1 0x20 DUP1 SWAP2 DIV MUL PUSH1 0x20 ADD PUSH1 0x40 MLOAD SWAP1 DUP2 ADD PUSH1 0x40 MSTORE DUP1 SWAP3 SWAP2 SWAP1 DUP2 DUP2 MSTORE PUSH1 0x20 ADD DUP3 DUP1 SLOAD PUSH2 0xE1D SWAP1 PUSH2 0x22EF JUMP JUMPDEST DUP1 ISZERO PUSH2 0xE6A JUMPI DUP1 PUSH1 0x1F LT PUSH2 0xE3F JUMPI PUSH2 0x100 DUP1 DUP4 SLOAD DIV MUL DUP4 MSTORE SWAP2 PUSH1 0x20 ADD SWAP2 PUSH2 0xE6A JUMP JUMPDEST DUP3 ADD SWAP2 SWAP1 PUSH1 0x0 MSTORE PUSH1 0x20 PUSH1 0x0 KECCAK256 SWAP1 JUMPDEST DUP2 SLOAD DUP2 MSTORE SWAP1 PUSH1 0x1 ADD SWAP1 PUSH1 0x20 ADD DUP1 DUP4 GT PUSH2 0xE4D JUMPI DUP3 SWAP1 SUB PUSH1 0x1F AND DUP3 ADD SWAP2 JUMPDEST POP POP POP POP POP SWAP1 DUP1 PUSH1 0x5 ADD DUP1 SLOAD PUSH2 0xE7F SWAP1 PUSH2 0x22EF JUMP JUMPDEST DUP1 PUSH1 0x1F ADD PUSH1 0x20 DUP1 SWAP2 DIV MUL PUSH1 0x20 ADD PUSH1 0x40 MLOAD SWAP1 DUP2 ADD PUSH1 0x40 MSTORE DUP1 SWAP3 SWAP2 SWAP1 DUP2 DUP2 MSTORE PUSH1 0x20 ADD DUP3 DUP1 SLOAD PUSH2 0xEAB SWAP1 PUSH2 0x22EF JUMP JUMPDEST DUP1 ISZERO PUSH2 0xEF8 JUMPI DUP1 PUSH1 0x1F LT PUSH2 0xECD JUMPI PUSH2 0x100 DUP1 DUP4 SLOAD DIV MUL DUP4 MSTORE SWAP2 PUSH1 0x20 ADD SWAP2 PUSH2 0xEF8 JUMP JUMPDEST DUP3 ADD SWAP2 SWAP1 PUSH1 0x0 MSTORE PUSH1 0x20 PUSH1 0x0 KECCAK256 SWAP1 JUMPDEST DUP2 SLOAD DUP2 MSTORE SWAP1 PUSH1 0x1 ADD SWAP1 PUSH1 0x20 ADD DUP1 DUP4 GT PUSH2 0xEDB JUMPI DUP3 SWAP1 SUB PUSH1 0x1F AND DUP3 ADD SWAP2 JUMPDEST POP POP POP POP POP SWAP1 DUP1 PUSH1 0x6 ADD DUP1 SLOAD PUSH2 0xF0D SWAP1 PUSH2 0x22EF JUMP JUMPDEST DUP1 PUSH1 0x1F ADD PUSH1 0x20 DUP1 SWAP2 DIV MUL PUSH1 0x20 ADD PUSH1 0x40 MLOAD SWAP1 DUP2 ADD PUSH1 0x40 MSTORE DUP1 SWAP3 SWAP2 SWAP1 DUP2 DUP2 MSTORE PUSH1 0x20 ADD DUP3 DUP1 SLOAD PUSH2 0xF39 SWAP1 PUSH2 0x22EF JUMP JUMPDEST DUP1 ISZERO PUSH2 0xF86 JUMPI DUP1 PUSH1 0x1F LT PUSH2 0xF5B JUMPI PUSH2 0x100 DUP1 DUP4 SLOAD DIV MUL DUP4 MSTORE SWAP2 PUSH1 0x20 ADD SWAP2 PUSH2 0xF86 JUMP JUMPDEST DUP3 ADD SWAP2 SWAP1 PUSH1 0x0 MSTORE PUSH1 0x20 PUSH1 0x0 KECCAK256 SWAP1 JUMPDEST DUP2 SLOAD DUP2 MSTORE SWAP1 PUSH1 0x1 ADD SWAP1 PUSH1 0x20 ADD DUP1 DUP4 GT PUSH2 0xF69 JUMPI DUP3 SWAP1 SUB PUSH1 0x1F AND DUP3 ADD SWAP2 JUMPDEST POP POP POP POP POP SWAP1 DUP1 PUSH1 0x7 ADD SLOAD SWAP1 POP DUP9 JUMP JUMPDEST PUSH1 0x60 PUSH1 0x0 PUSH1 0x1 SLOAD PUSH8 0xFFFFFFFFFFFFFFFF DUP2 GT ISZERO PUSH2 0xFB6 JUMPI PUSH2 0xFB5 PUSH2 0x1A63 JUMP JUMPDEST JUMPDEST PUSH1 0x40 MLOAD SWAP1 DUP1 DUP3 MSTORE DUP1 PUSH1 0x20 MUL PUSH1 0x20 ADD DUP3 ADD PUSH1 0x40 MSTORE DUP1 ISZERO PUSH2 0xFEF JUMPI DUP2 PUSH1 0x20 ADD JUMPDEST PUSH2 0xFDC PUSH2 0x19EF JUMP JUMPDEST DUP2 MSTORE PUSH1 0x20 ADD SWAP1 PUSH1 0x1 SWAP1 SUB SWAP1 DUP2 PUSH2 0xFD4 JUMPI SWAP1 POP JUMPDEST POP SWAP1 POP PUSH1 0x0 PUSH1 0x1 SWAP1 POP JUMPDEST PUSH1 0x1 SLOAD DUP2 GT PUSH2 0x13DD JUMPI PUSH1 0x0 DUP1 DUP3 DUP2 MSTORE PUSH1 0x20 ADD SWAP1 DUP2 MSTORE PUSH1 0x20 ADD PUSH1 0x0 KECCAK256 PUSH1 0x40 MLOAD DUP1 PUSH2 0x100 ADD PUSH1 0x40 MSTORE SWAP1 DUP2 PUSH1 0x0 DUP3 ADD SLOAD DUP2 MSTORE PUSH1 0x20 ADD PUSH1 0x1 DUP3 ADD DUP1 SLOAD PUSH2 0x103A SWAP1 PUSH2 0x22EF JUMP JUMPDEST DUP1 PUSH1 0x1F ADD PUSH1 0x20 DUP1 SWAP2 DIV MUL PUSH1 0x20 ADD PUSH1 0x40 MLOAD SWAP1 DUP2 ADD PUSH1 0x40 MSTORE DUP1 SWAP3 SWAP2 SWAP1 DUP2 DUP2 MSTORE PUSH1 0x20 ADD DUP3 DUP1 SLOAD PUSH2 0x1066 SWAP1 PUSH2 0x22EF JUMP JUMPDEST DUP1 ISZERO PUSH2 0x10B3 JUMPI DUP1 PUSH1 0x1F LT PUSH2 0x1088 JUMPI PUSH2 0x100 DUP1 DUP4 SLOAD DIV MUL DUP4 MSTORE SWAP2 PUSH1 0x20 ADD SWAP2 PUSH2 0x10B3 JUMP JUMPDEST DUP3 ADD SWAP2 SWAP1 PUSH1 0x0 MSTORE PUSH1 0x20 PUSH1 0x0 KECCAK256 SWAP1 JUMPDEST DUP2 SLOAD DUP2 MSTORE SWAP1 PUSH1 0x1 ADD SWAP1 PUSH1 0x20 ADD DUP1 DUP4 GT PUSH2 0x1096 JUMPI DUP3 SWAP1 SUB PUSH1 0x1F AND DUP3 ADD SWAP2 JUMPDEST POP POP POP POP POP DUP2 MSTORE PUSH1 0x20 ADD PUSH1 0x2 DUP3 ADD DUP1 SLOAD PUSH2 0x10CC SWAP1 PUSH2 0x22EF JUMP JUMPDEST DUP1 PUSH1 0x1F ADD PUSH1 0x20 DUP1 SWAP2 DIV MUL PUSH1 0x20 ADD PUSH1 0x40 MLOAD SWAP1 DUP2 ADD PUSH1 0x40 MSTORE DUP1 SWAP3 SWAP2 SWAP1 DUP2 DUP2 MSTORE PUSH1 0x20 ADD DUP3 DUP1 SLOAD PUSH2 0x10F8 SWAP1 PUSH2 0x22EF JUMP JUMPDEST DUP1 ISZERO PUSH2 0x1145 JUMPI DUP1 PUSH1 0x1F LT PUSH2 0x111A JUMPI PUSH2 0x100 DUP1 DUP4 SLOAD DIV MUL DUP4 MSTORE SWAP2 PUSH1 0x20 ADD SWAP2 PUSH2 0x1145 JUMP JUMPDEST DUP3 ADD SWAP2 SWAP1 PUSH1 0x0 MSTORE PUSH1 0x20 PUSH1 0x0 KECCAK256 SWAP1 JUMPDEST DUP2 SLOAD DUP2 MSTORE SWAP1 PUSH1 0x1 ADD SWAP1 PUSH1 0x20 ADD DUP1 DUP4 GT PUSH2 0x1128 JUMPI DUP3 SWAP1 SUB PUSH1 0x1F AND DUP3 ADD SWAP2 JUMPDEST POP POP POP POP POP DUP2 MSTORE PUSH1 0x20 ADD PUSH1 0x3 DUP3 ADD DUP1 SLOAD PUSH2 0x115E SWAP1 PUSH2 0x22EF JUMP JUMPDEST DUP1 PUSH1 0x1F ADD PUSH1 0x20 DUP1 SWAP2 DIV MUL PUSH1 0x20 ADD PUSH1 0x40 MLOAD SWAP1 DUP2 ADD PUSH1 0x40 MSTORE DUP1 SWAP3 SWAP2 SWAP1 DUP2 DUP2 MSTORE PUSH1 0x20 ADD DUP3 DUP1 SLOAD PUSH2 0x118A SWAP1 PUSH2 0x22EF JUMP JUMPDEST DUP1 ISZERO PUSH2 0x11D7 JUMPI DUP1 PUSH1 0x1F LT PUSH2 0x11AC JUMPI PUSH2 0x100 DUP1 DUP4 SLOAD DIV MUL DUP4 MSTORE SWAP2 PUSH1 0x20 ADD SWAP2 PUSH2 0x11D7 JUMP JUMPDEST DUP3 ADD SWAP2 SWAP1 PUSH1 0x0 MSTORE PUSH1 0x20 PUSH1 0x0 KECCAK256 SWAP1 JUMPDEST DUP2 SLOAD DUP2 MSTORE SWAP1 PUSH1 0x1 ADD SWAP1 PUSH1 0x20 ADD DUP1 DUP4 GT PUSH2 0x11BA JUMPI DUP3 SWAP1 SUB PUSH1 0x1F AND DUP3 ADD SWAP2 JUMPDEST POP POP POP POP POP DUP2 MSTORE PUSH1 0x20 ADD PUSH1 0x4 DUP3 ADD DUP1 SLOAD PUSH2 0x11F0 SWAP1 PUSH2 0x22EF JUMP JUMPDEST DUP1 PUSH1 0x1F ADD PUSH1 0x20 DUP1 SWAP2 DIV MUL PUSH1 0x20 ADD PUSH1 0x40 MLOAD SWAP1 DUP2 ADD PUSH1 0x40 MSTORE DUP1 SWAP3 SWAP2 SWAP1 DUP2 DUP2 MSTORE PUSH1 0x20 ADD DUP3 DUP1 SLOAD PUSH2 0x121C SWAP1 PUSH2 0x22EF JUMP JUMPDEST DUP1 ISZERO PUSH2 0x1269 JUMPI DUP1 PUSH1 0x1F LT PUSH2 0x123E JUMPI PUSH2 0x100 DUP1 DUP4 SLOAD DIV MUL DUP4 MSTORE SWAP2 PUSH1 0x20 ADD SWAP2 PUSH2 0x1269 JUMP JUMPDEST DUP3 ADD SWAP2 SWAP1 PUSH1 0x0 MSTORE PUSH1 0x20 PUSH1 0x0 KECCAK256 SWAP1 JUMPDEST DUP2 SLOAD DUP2 MSTORE SWAP1 PUSH1 0x1 ADD SWAP1 PUSH1 0x20 ADD DUP1 DUP4 GT PUSH2 0x124C JUMPI DUP3 SWAP1 SUB PUSH1 0x1F AND DUP3 ADD SWAP2 JUMPDEST POP POP POP POP POP DUP2 MSTORE PUSH1 0x20 ADD PUSH1 0x5 DUP3 ADD DUP1 SLOAD PUSH2 0x1282 SWAP1 PUSH2 0x22EF JUMP JUMPDEST DUP1 PUSH1 0x1F ADD PUSH1 0x20 DUP1 SWAP2 DIV MUL PUSH1 0x20 ADD PUSH1 0x40 MLOAD SWAP1 DUP2 ADD PUSH1 0x40 MSTORE DUP1 SWAP3 SWAP2 SWAP1 DUP2 DUP2 MSTORE PUSH1 0x20 ADD DUP3 DUP1 SLOAD PUSH2 0x12AE SWAP1 PUSH2 0x22EF JUMP JUMPDEST DUP1 ISZERO PUSH2 0x12FB JUMPI DUP1 PUSH1 0x1F LT PUSH2 0x12D0 JUMPI PUSH2 0x100 DUP1 DUP4 SLOAD DIV MUL DUP4 MSTORE SWAP2 PUSH1 0x20 ADD SWAP2 PUSH2 0x12FB JUMP JUMPDEST DUP3 ADD SWAP2 SWAP1 PUSH1 0x0 MSTORE PUSH1 0x20 PUSH1 0x0 KECCAK256 SWAP1 JUMPDEST DUP2 SLOAD DUP2 MSTORE SWAP1 PUSH1 0x1 ADD SWAP1 PUSH1 0x20 ADD DUP1 DUP4 GT PUSH2 0x12DE JUMPI DUP3 SWAP1 SUB PUSH1 0x1F AND DUP3 ADD SWAP2 JUMPDEST POP POP POP POP POP DUP2 MSTORE PUSH1 0x20 ADD PUSH1 0x6 DUP3 ADD DUP1 SLOAD PUSH2 0x1314 SWAP1 PUSH2 0x22EF JUMP JUMPDEST DUP1 PUSH1 0x1F ADD PUSH1 0x20 DUP1 SWAP2 DIV MUL PUSH1 0x20 ADD PUSH1 0x40 MLOAD SWAP1 DUP2 ADD PUSH1 0x40 MSTORE DUP1 SWAP3 SWAP2 SWAP1 DUP2 DUP2 MSTORE PUSH1 0x20 ADD DUP3 DUP1 SLOAD PUSH2 0x1340 SWAP1 PUSH2 0x22EF JUMP JUMPDEST DUP1 ISZERO PUSH2 0x138D JUMPI DUP1 PUSH1 0x1F LT PUSH2 0x1362 JUMPI PUSH2 0x100 DUP1 DUP4 SLOAD DIV MUL DUP4 MSTORE SWAP2 PUSH1 0x20 ADD SWAP2 PUSH2 0x138D JUMP JUMPDEST DUP3 ADD SWAP2 SWAP1 PUSH1 0x0 MSTORE PUSH1 0x20 PUSH1 0x0 KECCAK256 SWAP1 JUMPDEST DUP2 SLOAD DUP2 MSTORE SWAP1 PUSH1 0x1 ADD SWAP1 PUSH1 0x20 ADD DUP1 DUP4 GT PUSH2 0x1370 JUMPI DUP3 SWAP1 SUB PUSH1 0x1F AND DUP3 ADD SWAP2 JUMPDEST POP POP POP POP POP DUP2 MSTORE PUSH1 0x20 ADD PUSH1 0x7 DUP3 ADD SLOAD DUP2 MSTORE POP POP DUP3 PUSH1 0x1 DUP4 PUSH2 0x13AE SWAP2 SWAP1 PUSH2 0x2753 JUMP JUMPDEST DUP2 MLOAD DUP2 LT PUSH2 0x13BF JUMPI PUSH2 0x13BE PUSH2 0x2724 JUMP JUMPDEST JUMPDEST PUSH1 0x20 MUL PUSH1 0x20 ADD ADD DUP2 SWAP1 MSTORE POP DUP1 DUP1 PUSH2 0x13D5 SWAP1 PUSH2 0x2278 JUMP JUMPDEST SWAP2 POP POP PUSH2 0xFF9 JUMP JUMPDEST POP DUP1 SWAP2 POP POP SWAP1 JUMP JUMPDEST PUSH1 0x1 SLOAD DUP2 JUMP JUMPDEST PUSH1 0x1 SLOAD DUP4 GT ISZERO PUSH2 0x1430 JUMPI PUSH1 0x40 MLOAD PUSH32 0x8C379A000000000000000000000000000000000000000000000000000000000 DUP2 MSTORE PUSH1 0x4 ADD PUSH2 0x1427 SWAP1 PUSH2 0x27D3 JUMP JUMPDEST PUSH1 0x40 MLOAD DUP1 SWAP2 SUB SWAP1 REVERT JUMPDEST PUSH1 0x0 DUP1 PUSH1 0x0 DUP6 DUP2 MSTORE PUSH1 0x20 ADD SWAP1 DUP2 MSTORE PUSH1 0x20 ADD PUSH1 0x0 KECCAK256 SWAP1 POP DUP3 DUP2 PUSH1 0x6 ADD SWAP1 DUP2 PUSH2 0x1457 SWAP2 SWAP1 PUSH2 0x24CC JUMP JUMPDEST POP DUP4 PUSH32 0xCBC92FE73220C7CC1450FF1070F1BECF254013A1CD6A9D95A4B7C2055B3E9AC9 DUP5 DUP5 PUSH1 0x40 MLOAD PUSH2 0x148A SWAP3 SWAP2 SWAP1 PUSH2 0x27F3 JUMP JUMPDEST PUSH1 0x40 MLOAD DUP1 SWAP2 SUB SWAP1 LOG2 POP POP POP POP JUMP JUMPDEST PUSH1 0x60 PUSH1 0x0 DUP1 PUSH1 0x1 SWAP1 POP JUMPDEST PUSH1 0x1 SLOAD DUP2 GT PUSH2 0x1534 JUMPI DUP4 PUSH1 0x40 MLOAD PUSH1 0x20 ADD PUSH2 0x14BC SWAP2 SWAP1 PUSH2 0x2673 JUMP JUMPDEST PUSH1 0x40 MLOAD PUSH1 0x20 DUP2 DUP4 SUB SUB DUP2 MSTORE SWAP1 PUSH1 0x40 MSTORE DUP1 MLOAD SWAP1 PUSH1 0x20 ADD KECCAK256 PUSH1 0x0 DUP1 DUP4 DUP2 MSTORE PUSH1 0x20 ADD SWAP1 DUP2 MSTORE PUSH1 0x20 ADD PUSH1 0x0 KECCAK256 PUSH1 0x3 ADD PUSH1 0x40 MLOAD PUSH1 0x20 ADD PUSH2 0x14F7 SWAP2 SWAP1 PUSH2 0x270D JUMP JUMPDEST PUSH1 0x40 MLOAD PUSH1 0x20 DUP2 DUP4 SUB SUB DUP2 MSTORE SWAP1 PUSH1 0x40 MSTORE DUP1 MLOAD SWAP1 PUSH1 0x20 ADD KECCAK256 SUB PUSH2 0x1521 JUMPI DUP2 DUP1 PUSH2 0x151D SWAP1 PUSH2 0x2278 JUMP JUMPDEST SWAP3 POP POP JUMPDEST DUP1 DUP1 PUSH2 0x152C SWAP1 PUSH2 0x2278 JUMP JUMPDEST SWAP2 POP POP PUSH2 0x14A2 JUMP JUMPDEST POP PUSH1 0x0 DUP2 PUSH8 0xFFFFFFFFFFFFFFFF DUP2 GT ISZERO PUSH2 0x1551 JUMPI PUSH2 0x1550 PUSH2 0x1A63 JUMP JUMPDEST JUMPDEST PUSH1 0x40 MLOAD SWAP1 DUP1 DUP3 MSTORE DUP1 PUSH1 0x20 MUL PUSH1 0x20 ADD DUP3 ADD PUSH1 0x40 MSTORE DUP1 ISZERO PUSH2 0x158A JUMPI DUP2 PUSH1 0x20 ADD JUMPDEST PUSH2 0x1577 PUSH2 0x19EF JUMP JUMPDEST DUP2 MSTORE PUSH1 0x20 ADD SWAP1 PUSH1 0x1 SWAP1 SUB SWAP1 DUP2 PUSH2 0x156F JUMPI SWAP1 POP JUMPDEST POP SWAP1 POP PUSH1 0x0 DUP1 PUSH1 0x1 SWAP1 POP JUMPDEST PUSH1 0x1 SLOAD DUP2 GT PUSH2 0x19E3 JUMPI DUP6 PUSH1 0x40 MLOAD PUSH1 0x20 ADD PUSH2 0x15AF SWAP2 SWAP1 PUSH2 0x2673 JUMP JUMPDEST PUSH1 0x40 MLOAD PUSH1 0x20 DUP2 DUP4 SUB SUB DUP2 MSTORE SWAP1 PUSH1 0x40 MSTORE DUP1 MLOAD SWAP1 PUSH1 0x20 ADD KECCAK256 PUSH1 0x0 DUP1 DUP4 DUP2 MSTORE PUSH1 0x20 ADD SWAP1 DUP2 MSTORE PUSH1 0x20 ADD PUSH1 0x0 KECCAK256 PUSH1 0x3 ADD PUSH1 0x40 MLOAD PUSH1 0x20 ADD PUSH2 0x15EA SWAP2 SWAP1 PUSH2 0x270D JUMP JUMPDEST PUSH1 0x40 MLOAD PUSH1 0x20 DUP2 DUP4 SUB SUB DUP2 MSTORE SWAP1 PUSH1 0x40 MSTORE DUP1 MLOAD SWAP1 PUSH1 0x20 ADD KECCAK256 SUB PUSH2 0x19D0 JUMPI PUSH1 0x0 DUP1 DUP3 DUP2 MSTORE PUSH1 0x20 ADD SWAP1 DUP2 MSTORE PUSH1 0x20 ADD PUSH1 0x0 KECCAK256 PUSH1 0x40 MLOAD DUP1 PUSH2 0x100 ADD PUSH1 0x40 MSTORE SWAP1 DUP2 PUSH1 0x0 DUP3 ADD SLOAD DUP2 MSTORE PUSH1 0x20 ADD PUSH1 0x1 DUP3 ADD DUP1 SLOAD PUSH2 0x163D SWAP1 PUSH2 0x22EF JUMP JUMPDEST DUP1 PUSH1 0x1F ADD PUSH1 0x20 DUP1 SWAP2 DIV MUL PUSH1 0x20 ADD PUSH1 0x40 MLOAD SWAP1 DUP2 ADD PUSH1 0x40 MSTORE DUP1 SWAP3 SWAP2 SWAP1 DUP2 DUP2 MSTORE PUSH1 0x20 ADD DUP3 DUP1 SLOAD PUSH2 0x1669 SWAP1 PUSH2 0x22EF JUMP JUMPDEST DUP1 ISZERO PUSH2 0x16B6 JUMPI DUP1 PUSH1 0x1F LT PUSH2 0x168B JUMPI PUSH2 0x100 DUP1 DUP4 SLOAD DIV MUL DUP4 MSTORE SWAP2 PUSH1 0x20 ADD SWAP2 PUSH2 0x16B6 JUMP JUMPDEST DUP3 ADD SWAP2 SWAP1 PUSH1 0x0 MSTORE PUSH1 0x20 PUSH1 0x0 KECCAK256 SWAP1 JUMPDEST DUP2 SLOAD DUP2 MSTORE SWAP1 PUSH1 0x1 ADD SWAP1 PUSH1 0x20 ADD DUP1 DUP4 GT PUSH2 0x1699 JUMPI DUP3 SWAP1 SUB PUSH1 0x1F AND DUP3 ADD SWAP2 JUMPDEST POP POP POP POP POP DUP2 MSTORE PUSH1 0x20 ADD PUSH1 0x2 DUP3 ADD DUP1 SLOAD PUSH2 0x16CF SWAP1 PUSH2 0x22EF JUMP JUMPDEST DUP1 PUSH1 0x1F ADD PUSH1 0x20 DUP1 SWAP2 DIV MUL PUSH1 0x20 ADD PUSH1 0x40 MLOAD SWAP1 DUP2 ADD PUSH1 0x40 MSTORE DUP1 SWAP3 SWAP2 SWAP1 DUP2 DUP2 MSTORE PUSH1 0x20 ADD DUP3 DUP1 SLOAD PUSH2 0x16FB SWAP1 PUSH2 0x22EF JUMP JUMPDEST DUP1 ISZERO PUSH2 0x1748 JUMPI DUP1 PUSH1 0x1F LT PUSH2 0x171D JUMPI PUSH2 0x100 DUP1 DUP4 SLOAD DIV MUL DUP4 MSTORE SWAP2 PUSH1 0x20 ADD SWAP2 PUSH2 0x1748 JUMP JUMPDEST DUP3 ADD SWAP2 SWAP1 PUSH1 0x0 MSTORE PUSH1 0x20 PUSH1 0x0 KECCAK256 SWAP1 JUMPDEST DUP2 SLOAD DUP2 MSTORE SWAP1 PUSH1 0x1 ADD SWAP1 PUSH1 0x20 ADD DUP1 DUP4 GT PUSH2 0x172B JUMPI DUP3 SWAP1 SUB PUSH1 0x1F AND DUP3 ADD SWAP2 JUMPDEST POP POP POP POP POP DUP2 MSTORE PUSH1 0x20 ADD PUSH1 0x3 DUP3 ADD DUP1 SLOAD PUSH2 0x1761 SWAP1 PUSH2 0x22EF JUMP JUMPDEST DUP1 PUSH1 0x1F ADD PUSH1 0x20 DUP1 SWAP2 DIV MUL PUSH1 0x20 ADD PUSH1 0x40 MLOAD SWAP1 DUP2 ADD PUSH1 0x40 MSTORE DUP1 SWAP3 SWAP2 SWAP1 DUP2 DUP2 MSTORE PUSH1 0x20 ADD DUP3 DUP1 SLOAD PUSH2 0x178D SWAP1 PUSH2 0x22EF JUMP JUMPDEST DUP1 ISZERO PUSH2 0x17DA JUMPI DUP1 PUSH1 0x1F LT PUSH2 0x17AF JUMPI PUSH2 0x100 DUP1 DUP4 SLOAD DIV MUL DUP4 MSTORE SWAP2 PUSH1 0x20 ADD SWAP2 PUSH2 0x17DA JUMP JUMPDEST DUP3 ADD SWAP2 SWAP1 PUSH1 0x0 MSTORE PUSH1 0x20 PUSH1 0x0 KECCAK256 SWAP1 JUMPDEST DUP2 SLOAD DUP2 MSTORE SWAP1 PUSH1 0x1 ADD SWAP1 PUSH1 0x20 ADD DUP1 DUP4 GT PUSH2 0x17BD JUMPI DUP3 SWAP1 SUB PUSH1 0x1F AND DUP3 ADD SWAP2 JUMPDEST POP POP POP POP POP DUP2 MSTORE PUSH1 0x20 ADD PUSH1 0x4 DUP3 ADD DUP1 SLOAD PUSH2 0x17F3 SWAP1 PUSH2 0x22EF JUMP JUMPDEST DUP1 PUSH1 0x1F ADD PUSH1 0x20 DUP1 SWAP2 DIV MUL PUSH1 0x20 ADD PUSH1 0x40 MLOAD SWAP1 DUP2 ADD PUSH1 0x40 MSTORE DUP1 SWAP3 SWAP2 SWAP1 DUP2 DUP2 MSTORE PUSH1 0x20 ADD DUP3 DUP1 SLOAD PUSH2 0x181F SWAP1 PUSH2 0x22EF JUMP JUMPDEST DUP1 ISZERO PUSH2 0x186C JUMPI DUP1 PUSH1 0x1F LT PUSH2 0x1841 JUMPI PUSH2 0x100 DUP1 DUP4 SLOAD DIV MUL DUP4 MSTORE SWAP2 PUSH1 0x20 ADD SWAP2 PUSH2 0x186C JUMP JUMPDEST DUP3 ADD SWAP2 SWAP1 PUSH1 0x0 MSTORE PUSH1 0x20 PUSH1 0x0 KECCAK256 SWAP1 JUMPDEST DUP2 SLOAD DUP2 MSTORE SWAP1 PUSH1 0x1 ADD SWAP1 PUSH1 0x20 ADD DUP1 DUP4 GT PUSH2 0x184F JUMPI DUP3 SWAP1 SUB PUSH1 0x1F AND DUP3 ADD SWAP2 JUMPDEST POP POP POP POP POP DUP2 MSTORE PUSH1 0x20 ADD PUSH1 0x5 DUP3 ADD DUP1 SLOAD PUSH2 0x1885 SWAP1 PUSH2 0x22EF JUMP JUMPDEST DUP1 PUSH1 0x1F ADD PUSH1 0x20 DUP1 SWAP2 DIV MUL PUSH1 0x20 ADD PUSH1 0x40 MLOAD SWAP1 DUP2 ADD PUSH1 0x40 MSTORE DUP1 SWAP3 SWAP2 SWAP1 DUP2 DUP2 MSTORE PUSH1 0x20 ADD DUP3 DUP1 SLOAD PUSH2 0x18B1 SWAP1 PUSH2 0x22EF JUMP JUMPDEST DUP1 ISZERO PUSH2 0x18FE JUMPI DUP1 PUSH1 0x1F LT PUSH2 0x18D3 JUMPI PUSH2 0x100 DUP1 DUP4 SLOAD DIV MUL DUP4 MSTORE SWAP2 PUSH1 0x20 ADD SWAP2 PUSH2 0x18FE JUMP JUMPDEST DUP3 ADD SWAP2 SWAP1 PUSH1 0x0 MSTORE PUSH1 0x20 PUSH1 0x0 KECCAK256 SWAP1 JUMPDEST DUP2 SLOAD DUP2 MSTORE SWAP1 PUSH1 0x1 ADD SWAP1 PUSH1 0x20 ADD DUP1 DUP4 GT PUSH2 0x18E1 JUMPI DUP3 SWAP1 SUB PUSH1 0x1F AND DUP3 ADD SWAP2 JUMPDEST POP POP POP POP POP DUP2 MSTORE PUSH1 0x20 ADD PUSH1 0x6 DUP3 ADD DUP1 SLOAD PUSH2 0x1917 SWAP1 PUSH2 0x22EF JUMP JUMPDEST DUP1 PUSH1 0x1F ADD PUSH1 0x20 DUP1 SWAP2 DIV MUL PUSH1 0x20 ADD PUSH1 0x40 MLOAD SWAP1 DUP2 ADD PUSH1 0x40 MSTORE DUP1 SWAP3 SWAP2 SWAP1 DUP2 DUP2 MSTORE PUSH1 0x20 ADD DUP3 DUP1 SLOAD PUSH2 0x1943 SWAP1 PUSH2 0x22EF JUMP JUMPDEST DUP1 ISZERO PUSH2 0x1990 JUMPI DUP1 PUSH1 0x1F LT PUSH2 0x1965 JUMPI PUSH2 0x100 DUP1 DUP4 SLOAD DIV MUL DUP4 MSTORE SWAP2 PUSH1 0x20 ADD SWAP2 PUSH2 0x1990 JUMP JUMPDEST DUP3 ADD SWAP2 SWAP1 PUSH1 0x0 MSTORE PUSH1 0x20 PUSH1 0x0 KECCAK256 SWAP1 JUMPDEST DUP2 SLOAD DUP2 MSTORE SWAP1 PUSH1 0x1 ADD SWAP1 PUSH1 0x20 ADD DUP1 DUP4 GT PUSH2 0x1973 JUMPI DUP3 SWAP1 SUB PUSH1 0x1F AND DUP3 ADD SWAP2 JUMPDEST POP POP POP POP POP DUP2 MSTORE PUSH1 0x20 ADD PUSH1 0x7 DUP3 ADD SLOAD DUP2 MSTORE POP POP DUP4 DUP4 DUP2 MLOAD DUP2 LT PUSH2 0x19B6 JUMPI PUSH2 0x19B5 PUSH2 0x2724 JUMP JUMPDEST JUMPDEST PUSH1 0x20 MUL PUSH1 0x20 ADD ADD DUP2 SWAP1 MSTORE POP DUP2 DUP1 PUSH2 0x19CC SWAP1 PUSH2 0x2278 JUMP JUMPDEST SWAP3 POP POP JUMPDEST DUP1 DUP1 PUSH2 0x19DB SWAP1 PUSH2 0x2278 JUMP JUMPDEST SWAP2 POP POP PUSH2 0x1595 JUMP JUMPDEST POP DUP2 SWAP4 POP POP POP POP SWAP2 SWAP1 POP JUMP JUMPDEST PUSH1 0x40 MLOAD DUP1 PUSH2 0x100 ADD PUSH1 0x40 MSTORE DUP1 PUSH1 0x0 DUP2 MSTORE PUSH1 0x20 ADD PUSH1 0x60 DUP2 MSTORE PUSH1 0x20 ADD PUSH1 0x60 DUP2 MSTORE PUSH1 0x20 ADD PUSH1 0x60 DUP2 MSTORE PUSH1 0x20 ADD PUSH1 0x60 DUP2 MSTORE PUSH1 0x20 ADD PUSH1 0x60 DUP2 MSTORE PUSH1 0x20 ADD PUSH1 0x60 DUP2 MSTORE PUSH1 0x20 ADD PUSH1 0x0 DUP2 MSTORE POP SWAP1 JUMP JUMPDEST PUSH1 0x0 PUSH1 0x40 MLOAD SWAP1 POP SWAP1 JUMP JUMPDEST PUSH1 0x0 DUP1 REVERT JUMPDEST PUSH1 0x0 DUP1 REVERT JUMPDEST PUSH1 0x0 DUP1 REVERT JUMPDEST PUSH1 0x0 DUP1 REVERT JUMPDEST PUSH1 0x0 PUSH1 0x1F NOT PUSH1 0x1F DUP4 ADD AND SWAP1 POP SWAP2 SWAP1 POP JUMP JUMPDEST PUSH32 0x4E487B7100000000000000000000000000000000000000000000000000000000 PUSH1 0x0 MSTORE PUSH1 0x41 PUSH1 0x4 MSTORE PUSH1 0x24 PUSH1 0x0 REVERT JUMPDEST PUSH2 0x1A9B DUP3 PUSH2 0x1A52 JUMP JUMPDEST DUP2 ADD DUP2 DUP2 LT PUSH8 0xFFFFFFFFFFFFFFFF DUP3 GT OR ISZERO PUSH2 0x1ABA JUMPI PUSH2 0x1AB9 PUSH2 0x1A63 JUMP JUMPDEST JUMPDEST DUP1 PUSH1 0x40 MSTORE POP POP POP JUMP JUMPDEST PUSH1 0x0 PUSH2 0x1ACD PUSH2 0x1A34 JUMP JUMPDEST SWAP1 POP PUSH2 0x1AD9 DUP3 DUP3 PUSH2 0x1A92 JUMP JUMPDEST SWAP2 SWAP1 POP JUMP JUMPDEST PUSH1 0x0 PUSH8 0xFFFFFFFFFFFFFFFF DUP3 GT ISZERO PUSH2 0x1AF9 JUMPI PUSH2 0x1AF8 PUSH2 0x1A63 JUMP JUMPDEST JUMPDEST PUSH2 0x1B02 DUP3 PUSH2 0x1A52 JUMP JUMPDEST SWAP1 POP PUSH1 0x20 DUP2 ADD SWAP1 POP SWAP2 SWAP1 POP JUMP JUMPDEST DUP3 DUP2 DUP4 CALLDATACOPY PUSH1 0x0 DUP4 DUP4 ADD MSTORE POP POP POP JUMP JUMPDEST PUSH1 0x0 PUSH2 0x1B31 PUSH2 0x1B2C DUP5 PUSH2 0x1ADE JUMP JUMPDEST PUSH2 0x1AC3 JUMP JUMPDEST SWAP1 POP DUP3 DUP2 MSTORE PUSH1 0x20 DUP2 ADD DUP5 DUP5 DUP5 ADD GT ISZERO PUSH2 0x1B4D JUMPI PUSH2 0x1B4C PUSH2 0x1A4D JUMP JUMPDEST JUMPDEST PUSH2 0x1B58 DUP5 DUP3 DUP6 PUSH2 0x1B0F JUMP JUMPDEST POP SWAP4 SWAP3 POP POP POP JUMP JUMPDEST PUSH1 0x0 DUP3 PUSH1 0x1F DUP4 ADD SLT PUSH2 0x1B75 JUMPI PUSH2 0x1B74 PUSH2 0x1A48 JUMP JUMPDEST JUMPDEST DUP2 CALLDATALOAD PUSH2 0x1B85 DUP5 DUP3 PUSH1 0x20 DUP7 ADD PUSH2 0x1B1E JUMP JUMPDEST SWAP2 POP POP SWAP3 SWAP2 POP POP JUMP JUMPDEST PUSH1 0x0 DUP2 SWAP1 POP SWAP2 SWAP1 POP JUMP JUMPDEST PUSH2 0x1BA1 DUP2 PUSH2 0x1B8E JUMP JUMPDEST DUP2 EQ PUSH2 0x1BAC JUMPI PUSH1 0x0 DUP1 REVERT JUMPDEST POP JUMP JUMPDEST PUSH1 0x0 DUP2 CALLDATALOAD SWAP1 POP PUSH2 0x1BBE DUP2 PUSH2 0x1B98 JUMP JUMPDEST SWAP3 SWAP2 POP POP JUMP JUMPDEST PUSH1 0x0 DUP1 PUSH1 0x0 DUP1 PUSH1 0x0 DUP1 PUSH1 0x0 PUSH1 0xE0 DUP9 DUP11 SUB SLT ISZERO PUSH2 0x1BE3 JUMPI PUSH2 0x1BE2 PUSH2 0x1A3E JUMP JUMPDEST JUMPDEST PUSH1 0x0 DUP9 ADD CALLDATALOAD PUSH8 0xFFFFFFFFFFFFFFFF DUP2 GT ISZERO PUSH2 0x1C01 JUMPI PUSH2 0x1C00 PUSH2 0x1A43 JUMP JUMPDEST JUMPDEST PUSH2 0x1C0D DUP11 DUP3 DUP12 ADD PUSH2 0x1B60 JUMP JUMPDEST SWAP8 POP POP PUSH1 0x20 DUP9 ADD CALLDATALOAD PUSH8 0xFFFFFFFFFFFFFFFF DUP2 GT ISZERO PUSH2 0x1C2E JUMPI PUSH2 0x1C2D PUSH2 0x1A43 JUMP JUMPDEST JUMPDEST PUSH2 0x1C3A DUP11 DUP3 DUP12 ADD PUSH2 0x1B60 JUMP JUMPDEST SWAP7 POP POP PUSH1 0x40 DUP9 ADD CALLDATALOAD PUSH8 0xFFFFFFFFFFFFFFFF DUP2 GT ISZERO PUSH2 0x1C5B JUMPI PUSH2 0x1C5A PUSH2 0x1A43 JUMP JUMPDEST JUMPDEST PUSH2 0x1C67 DUP11 DUP3 DUP12 ADD PUSH2 0x1B60 JUMP JUMPDEST SWAP6 POP POP PUSH1 0x60 DUP9 ADD CALLDATALOAD PUSH8 0xFFFFFFFFFFFFFFFF DUP2 GT ISZERO PUSH2 0x1C88 JUMPI PUSH2 0x1C87 PUSH2 0x1A43 JUMP JUMPDEST JUMPDEST PUSH2 0x1C94 DUP11 DUP3 DUP12 ADD PUSH2 0x1B60 JUMP JUMPDEST SWAP5 POP POP PUSH1 0x80 DUP9 ADD CALLDATALOAD PUSH8 0xFFFFFFFFFFFFFFFF DUP2 GT ISZERO PUSH2 0x1CB5 JUMPI PUSH2 0x1CB4 PUSH2 0x1A43 JUMP JUMPDEST JUMPDEST PUSH2 0x1CC1 DUP11 DUP3 DUP12 ADD PUSH2 0x1B60 JUMP JUMPDEST SWAP4 POP POP PUSH1 0xA0 DUP9 ADD CALLDATALOAD PUSH8 0xFFFFFFFFFFFFFFFF DUP2 GT ISZERO PUSH2 0x1CE2 JUMPI PUSH2 0x1CE1 PUSH2 0x1A43 JUMP JUMPDEST JUMPDEST PUSH2 0x1CEE DUP11 DUP3 DUP12 ADD PUSH2 0x1B60 JUMP JUMPDEST SWAP3 POP POP PUSH1 0xC0 PUSH2 0x1CFF DUP11 DUP3 DUP12 ADD PUSH2 0x1BAF JUMP JUMPDEST SWAP2 POP POP SWAP3 SWAP6 SWAP9 SWAP2 SWAP5 SWAP8 POP SWAP3 SWAP6 POP JUMP JUMPDEST PUSH1 0x0 PUSH1 0x20 DUP3 DUP5 SUB SLT ISZERO PUSH2 0x1D24 JUMPI PUSH2 0x1D23 PUSH2 0x1A3E JUMP JUMPDEST JUMPDEST PUSH1 0x0 PUSH2 0x1D32 DUP5 DUP3 DUP6 ADD PUSH2 0x1BAF JUMP JUMPDEST SWAP2 POP POP SWAP3 SWAP2 POP POP JUMP JUMPDEST PUSH2 0x1D44 DUP2 PUSH2 0x1B8E JUMP JUMPDEST DUP3 MSTORE POP POP JUMP JUMPDEST PUSH1 0x0 DUP2 MLOAD SWAP1 POP SWAP2 SWAP1 POP JUMP JUMPDEST PUSH1 0x0 DUP3 DUP3 MSTORE PUSH1 0x20 DUP3 ADD SWAP1 POP SWAP3 SWAP2 POP POP JUMP JUMPDEST PUSH1 0x0 JUMPDEST DUP4 DUP2 LT ISZERO PUSH2 0x1D84 JUMPI DUP1 DUP3 ADD MLOAD DUP2 DUP5 ADD MSTORE PUSH1 0x20 DUP2 ADD SWAP1 POP PUSH2 0x1D69 JUMP JUMPDEST PUSH1 0x0 DUP5 DUP5 ADD MSTORE POP POP POP POP JUMP JUMPDEST PUSH1 0x0 PUSH2 0x1D9B DUP3 PUSH2 0x1D4A JUMP JUMPDEST PUSH2 0x1DA5 DUP2 DUP6 PUSH2 0x1D55 JUMP JUMPDEST SWAP4 POP PUSH2 0x1DB5 DUP2 DUP6 PUSH1 0x20 DUP7 ADD PUSH2 0x1D66 JUMP JUMPDEST PUSH2 0x1DBE DUP2 PUSH2 0x1A52 JUMP JUMPDEST DUP5 ADD SWAP2 POP POP SWAP3 SWAP2 POP POP JUMP JUMPDEST PUSH1 0x0 PUSH2 0x100 DUP4 ADD PUSH1 0x0 DUP4 ADD MLOAD PUSH2 0x1DE2 PUSH1 0x0 DUP7 ADD DUP3 PUSH2 0x1D3B JUMP JUMPDEST POP PUSH1 0x20 DUP4 ADD MLOAD DUP5 DUP3 SUB PUSH1 0x20 DUP7 ADD MSTORE PUSH2 0x1DFA DUP3 DUP3 PUSH2 0x1D90 JUMP JUMPDEST SWAP2 POP POP PUSH1 0x40 DUP4 ADD MLOAD DUP5 DUP3 SUB PUSH1 0x40 DUP7 ADD MSTORE PUSH2 0x1E14 DUP3 DUP3 PUSH2 0x1D90 JUMP JUMPDEST SWAP2 POP POP PUSH1 0x60 DUP4 ADD MLOAD DUP5 DUP3 SUB PUSH1 0x60 DUP7 ADD MSTORE PUSH2 0x1E2E DUP3 DUP3 PUSH2 0x1D90 JUMP JUMPDEST SWAP2 POP POP PUSH1 0x80 DUP4 ADD MLOAD DUP5 DUP3 SUB PUSH1 0x80 DUP7 ADD MSTORE PUSH2 0x1E48 DUP3 DUP3 PUSH2 0x1D90 JUMP JUMPDEST SWAP2 POP POP PUSH1 0xA0 DUP4 ADD MLOAD DUP5 DUP3 SUB PUSH1 0xA0 DUP7 ADD MSTORE PUSH2 0x1E62 DUP3 DUP3 PUSH2 0x1D90 JUMP JUMPDEST SWAP2 POP POP PUSH1 0xC0 DUP4 ADD MLOAD DUP5 DUP3 SUB PUSH1 0xC0 DUP7 ADD MSTORE PUSH2 0x1E7C DUP3 DUP3 PUSH2 0x1D90 JUMP JUMPDEST SWAP2 POP POP PUSH1 0xE0 DUP4 ADD MLOAD PUSH2 0x1E91 PUSH1 0xE0 DUP7 ADD DUP3 PUSH2 0x1D3B JUMP JUMPDEST POP DUP1 SWAP2 POP POP SWAP3 SWAP2 POP POP JUMP JUMPDEST PUSH1 0x0 PUSH1 0x20 DUP3 ADD SWAP1 POP DUP2 DUP2 SUB PUSH1 0x0 DUP4 ADD MSTORE PUSH2 0x1EB6 DUP2 DUP5 PUSH2 0x1DC9 JUMP JUMPDEST SWAP1 POP SWAP3 SWAP2 POP POP JUMP JUMPDEST PUSH1 0x0 PUSH1 0x20 DUP3 DUP5 SUB SLT ISZERO PUSH2 0x1ED4 JUMPI PUSH2 0x1ED3 PUSH2 0x1A3E JUMP JUMPDEST JUMPDEST PUSH1 0x0 DUP3 ADD CALLDATALOAD PUSH8 0xFFFFFFFFFFFFFFFF DUP2 GT ISZERO PUSH2 0x1EF2 JUMPI PUSH2 0x1EF1 PUSH2 0x1A43 JUMP JUMPDEST JUMPDEST PUSH2 0x1EFE DUP5 DUP3 DUP6 ADD PUSH2 0x1B60 JUMP JUMPDEST SWAP2 POP POP SWAP3 SWAP2 POP POP JUMP JUMPDEST PUSH1 0x0 DUP2 MLOAD SWAP1 POP SWAP2 SWAP1 POP JUMP JUMPDEST PUSH1 0x0 DUP3 DUP3 MSTORE PUSH1 0x20 DUP3 ADD SWAP1 POP SWAP3 SWAP2 POP POP JUMP JUMPDEST PUSH1 0x0 DUP2 SWAP1 POP PUSH1 0x20 DUP3 ADD SWAP1 POP SWAP2 SWAP1 POP JUMP JUMPDEST PUSH1 0x0 PUSH2 0x100 DUP4 ADD PUSH1 0x0 DUP4 ADD MLOAD PUSH2 0x1F4C PUSH1 0x0 DUP7 ADD DUP3 PUSH2 0x1D3B JUMP JUMPDEST POP PUSH1 0x20 DUP4 ADD MLOAD DUP5 DUP3 SUB PUSH1 0x20 DUP7 ADD MSTORE PUSH2 0x1F64 DUP3 DUP3 PUSH2 0x1D90 JUMP JUMPDEST SWAP2 POP POP PUSH1 0x40 DUP4 ADD MLOAD DUP5 DUP3 SUB PUSH1 0x40 DUP7 ADD MSTORE PUSH2 0x1F7E DUP3 DUP3 PUSH2 0x1D90 JUMP JUMPDEST SWAP2 POP POP PUSH1 0x60 DUP4 ADD MLOAD DUP5 DUP3 SUB PUSH1 0x60 DUP7 ADD MSTORE PUSH2 0x1F98 DUP3 DUP3 PUSH2 0x1D90 JUMP JUMPDEST SWAP2 POP POP PUSH1 0x80 DUP4 ADD MLOAD DUP5 DUP3 SUB PUSH1 0x80 DUP7 ADD MSTORE PUSH2 0x1FB2 DUP3 DUP3 PUSH2 0x1D90 JUMP JUMPDEST SWAP2 POP POP PUSH1 0xA0 DUP4 ADD MLOAD DUP5 DUP3 SUB PUSH1 0xA0 DUP7 ADD MSTORE PUSH2 0x1FCC DUP3 DUP3 PUSH2 0x1D90 JUMP JUMPDEST SWAP2 POP POP PUSH1 0xC0 DUP4 ADD MLOAD DUP5 DUP3 SUB PUSH1 0xC0 DUP7 ADD MSTORE PUSH2 0x1FE6 DUP3 DUP3 PUSH2 0x1D90 JUMP JUMPDEST SWAP2 POP POP PUSH1 0xE0 DUP4 ADD MLOAD PUSH2 0x1FFB PUSH1 0xE0 DUP7 ADD DUP3 PUSH2 0x1D3B JUMP JUMPDEST POP DUP1 SWAP2 POP POP SWAP3 SWAP2 POP POP JUMP JUMPDEST PUSH1 0x0 PUSH2 0x2012 DUP4 DUP4 PUSH2 0x1F33 JUMP JUMPDEST SWAP1 POP SWAP3 SWAP2 POP POP JUMP JUMPDEST PUSH1 0x0 PUSH1 0x20 DUP3 ADD SWAP1 POP SWAP2 SWAP1 POP JUMP JUMPDEST PUSH1 0x0 PUSH2 0x2032 DUP3 PUSH2 0x1F07 JUMP JUMPDEST PUSH2 0x203C DUP2 DUP6 PUSH2 0x1F12 JUMP JUMPDEST SWAP4 POP DUP4 PUSH1 0x20 DUP3 MUL DUP6 ADD PUSH2 0x204E DUP6 PUSH2 0x1F23 JUMP JUMPDEST DUP1 PUSH1 0x0 JUMPDEST DUP6 DUP2 LT ISZERO PUSH2 0x208A JUMPI DUP5 DUP5 SUB DUP10 MSTORE DUP2 MLOAD PUSH2 0x206B DUP6 DUP3 PUSH2 0x2006 JUMP JUMPDEST SWAP5 POP PUSH2 0x2076 DUP4 PUSH2 0x201A JUMP JUMPDEST SWAP3 POP PUSH1 0x20 DUP11 ADD SWAP10 POP POP PUSH1 0x1 DUP2 ADD SWAP1 POP PUSH2 0x2052 JUMP JUMPDEST POP DUP3 SWAP8 POP DUP8 SWAP6 POP POP POP POP POP POP SWAP3 SWAP2 POP POP JUMP JUMPDEST PUSH1 0x0 PUSH1 0x20 DUP3 ADD SWAP1 POP DUP2 DUP2 SUB PUSH1 0x0 DUP4 ADD MSTORE PUSH2 0x20B6 DUP2 DUP5 PUSH2 0x2027 JUMP JUMPDEST SWAP1 POP SWAP3 SWAP2 POP POP JUMP JUMPDEST PUSH2 0x20C7 DUP2 PUSH2 0x1B8E JUMP JUMPDEST DUP3 MSTORE POP POP JUMP JUMPDEST PUSH1 0x0 DUP3 DUP3 MSTORE PUSH1 0x20 DUP3 ADD SWAP1 POP SWAP3 SWAP2 POP POP JUMP JUMPDEST PUSH1 0x0 PUSH2 0x20E9 DUP3 PUSH2 0x1D4A JUMP JUMPDEST PUSH2 0x20F3 DUP2 DUP6 PUSH2 0x20CD JUMP JUMPDEST SWAP4 POP PUSH2 0x2103 DUP2 DUP6 PUSH1 0x20 DUP7 ADD PUSH2 0x1D66 JUMP JUMPDEST PUSH2 0x210C DUP2 PUSH2 0x1A52 JUMP JUMPDEST DUP5 ADD SWAP2 POP POP SWAP3 SWAP2 POP POP JUMP JUMPDEST PUSH1 0x0 PUSH2 0x100 DUP3 ADD SWAP1 POP PUSH2 0x212D PUSH1 0x0 DUP4 ADD DUP12 PUSH2 0x20BE JUMP JUMPDEST DUP2 DUP2 SUB PUSH1 0x20 DUP4 ADD MSTORE PUSH2 0x213F DUP2 DUP11 PUSH2 0x20DE JUMP JUMPDEST SWAP1 POP DUP2 DUP2 SUB PUSH1 0x40 DUP4 ADD MSTORE PUSH2 0x2153 DUP2 DUP10 PUSH2 0x20DE JUMP JUMPDEST SWAP1 POP DUP2 DUP2 SUB PUSH1 0x60 DUP4 ADD MSTORE PUSH2 0x2167 DUP2 DUP9 PUSH2 0x20DE JUMP JUMPDEST SWAP1 POP DUP2 DUP2 SUB PUSH1 0x80 DUP4 ADD MSTORE PUSH2 0x217B DUP2 DUP8 PUSH2 0x20DE JUMP JUMPDEST SWAP1 POP DUP2 DUP2 SUB PUSH1 0xA0 DUP4 ADD MSTORE PUSH2 0x218F DUP2 DUP7 PUSH2 0x20DE JUMP JUMPDEST SWAP1 POP DUP2 DUP2 SUB PUSH1 0xC0 DUP4 ADD MSTORE PUSH2 0x21A3 DUP2 DUP6 PUSH2 0x20DE JUMP JUMPDEST SWAP1 POP PUSH2 0x21B2 PUSH1 0xE0 DUP4 ADD DUP5 PUSH2 0x20BE JUMP JUMPDEST SWAP10 SWAP9 POP POP POP POP POP POP POP POP POP JUMP JUMPDEST PUSH1 0x0 PUSH1 0x20 DUP3 ADD SWAP1 POP PUSH2 0x21D4 PUSH1 0x0 DUP4 ADD DUP5 PUSH2 0x20BE JUMP JUMPDEST SWAP3 SWAP2 POP POP JUMP JUMPDEST PUSH1 0x0 DUP1 PUSH1 0x0 PUSH1 0x60 DUP5 DUP7 SUB SLT ISZERO PUSH2 0x21F3 JUMPI PUSH2 0x21F2 PUSH2 0x1A3E JUMP JUMPDEST JUMPDEST PUSH1 0x0 PUSH2 0x2201 DUP7 DUP3 DUP8 ADD PUSH2 0x1BAF JUMP JUMPDEST SWAP4 POP POP PUSH1 0x20 DUP5 ADD CALLDATALOAD PUSH8 0xFFFFFFFFFFFFFFFF DUP2 GT ISZERO PUSH2 0x2222 JUMPI PUSH2 0x2221 PUSH2 0x1A43 JUMP JUMPDEST JUMPDEST PUSH2 0x222E DUP7 DUP3 DUP8 ADD PUSH2 0x1B60 JUMP JUMPDEST SWAP3 POP POP PUSH1 0x40 PUSH2 0x223F DUP7 DUP3 DUP8 ADD PUSH2 0x1BAF JUMP JUMPDEST SWAP2 POP POP SWAP3 POP SWAP3 POP SWAP3 JUMP JUMPDEST PUSH32 0x4E487B7100000000000000000000000000000000000000000000000000000000 PUSH1 0x0 MSTORE PUSH1 0x11 PUSH1 0x4 MSTORE PUSH1 0x24 PUSH1 0x0 REVERT JUMPDEST PUSH1 0x0 PUSH2 0x2283 DUP3 PUSH2 0x1B8E JUMP JUMPDEST SWAP2 POP PUSH32 0xFFFFFFFFFFFFFFFFFFFFFFFFFFFFFFFFFFFFFFFFFFFFFFFFFFFFFFFFFFFFFFFF DUP3 SUB PUSH2 0x22B5 JUMPI PUSH2 0x22B4 PUSH2 0x2249 JUMP JUMPDEST JUMPDEST PUSH1 0x1 DUP3 ADD SWAP1 POP SWAP2 SWAP1 POP JUMP JUMPDEST PUSH32 0x4E487B7100000000000000000000000000000000000000000000000000000000 PUSH1 0x0 MSTORE PUSH1 0x22 PUSH1 0x4 MSTORE PUSH1 0x24 PUSH1 0x0 REVERT JUMPDEST PUSH1 0x0 PUSH1 0x2 DUP3 DIV SWAP1 POP PUSH1 0x1 DUP3 AND DUP1 PUSH2 0x2307 JUMPI PUSH1 0x7F DUP3 AND SWAP2 POP JUMPDEST PUSH1 0x20 DUP3 LT DUP2 SUB PUSH2 0x231A JUMPI PUSH2 0x2319 PUSH2 0x22C0 JUMP JUMPDEST JUMPDEST POP SWAP2 SWAP1 POP JUMP JUMPDEST PUSH1 0x0 DUP2 SWAP1 POP DUP2 PUSH1 0x0 MSTORE PUSH1 0x20 PUSH1 0x0 KECCAK256 SWAP1 POP SWAP2 SWAP1 POP JUMP JUMPDEST PUSH1 0x0 PUSH1 0x20 PUSH1 0x1F DUP4 ADD DIV SWAP1 POP SWAP2 SWAP1 POP JUMP JUMPDEST PUSH1 0x0 DUP3 DUP3 SHL SWAP1 POP SWAP3 SWAP2 POP POP JUMP JUMPDEST PUSH1 0x0 PUSH1 0x8 DUP4 MUL PUSH2 0x2382 PUSH32 0xFFFFFFFFFFFFFFFFFFFFFFFFFFFFFFFFFFFFFFFFFFFFFFFFFFFFFFFFFFFFFFFF DUP3 PUSH2 0x2345 JUMP JUMPDEST PUSH2 0x238C DUP7 DUP4 PUSH2 0x2345 JUMP JUMPDEST SWAP6 POP DUP1 NOT DUP5 AND SWAP4 POP DUP1 DUP7 AND DUP5 OR SWAP3 POP POP POP SWAP4 SWAP3 POP POP POP JUMP JUMPDEST PUSH1 0x0 DUP2 SWAP1 POP SWAP2 SWAP1 POP JUMP JUMPDEST PUSH1 0x0 PUSH2 0x23C9 PUSH2 0x23C4 PUSH2 0x23BF DUP5 PUSH2 0x1B8E JUMP JUMPDEST PUSH2 0x23A4 JUMP JUMPDEST PUSH2 0x1B8E JUMP JUMPDEST SWAP1 POP SWAP2 SWAP1 POP JUMP JUMPDEST PUSH1 0x0 DUP2 SWAP1 POP SWAP2 SWAP1 POP JUMP JUMPDEST PUSH2 0x23E3 DUP4 PUSH2 0x23AE JUMP JUMPDEST PUSH2 0x23F7 PUSH2 0x23EF DUP3 PUSH2 0x23D0 JUMP JUMPDEST DUP5 DUP5 SLOAD PUSH2 0x2352 JUMP JUMPDEST DUP3 SSTORE POP POP POP POP JUMP JUMPDEST PUSH1 0x0 SWAP1 JUMP JUMPDEST PUSH2 0x240C PUSH2 0x23FF JUMP JUMPDEST PUSH2 0x2417 DUP2 DUP5 DUP5 PUSH2 0x23DA JUMP JUMPDEST POP POP POP JUMP JUMPDEST JUMPDEST DUP2 DUP2 LT ISZERO PUSH2 0x243B JUMPI PUSH2 0x2430 PUSH1 0x0 DUP3 PUSH2 0x2404 JUMP JUMPDEST PUSH1 0x1 DUP2 ADD SWAP1 POP PUSH2 0x241D JUMP JUMPDEST POP POP JUMP JUMPDEST PUSH1 0x1F DUP3 GT ISZERO PUSH2 0x2480 JUMPI PUSH2 0x2451 DUP2 PUSH2 0x2320 JUMP JUMPDEST PUSH2 0x245A DUP5 PUSH2 0x2335 JUMP JUMPDEST DUP2 ADD PUSH1 0x20 DUP6 LT ISZERO PUSH2 0x2469 JUMPI DUP2 SWAP1 POP JUMPDEST PUSH2 0x247D PUSH2 0x2475 DUP6 PUSH2 0x2335 JUMP JUMPDEST DUP4 ADD DUP3 PUSH2 0x241C JUMP JUMPDEST POP POP JUMPDEST POP POP POP JUMP JUMPDEST PUSH1 0x0 DUP3 DUP3 SHR SWAP1 POP SWAP3 SWAP2 POP POP JUMP JUMPDEST PUSH1 0x0 PUSH2 0x24A3 PUSH1 0x0 NOT DUP5 PUSH1 0x8 MUL PUSH2 0x2485 JUMP JUMPDEST NOT DUP1 DUP4 AND SWAP2 POP POP SWAP3 SWAP2 POP POP JUMP JUMPDEST PUSH1 0x0 PUSH2 0x24BC DUP4 DUP4 PUSH2 0x2492 JUMP JUMPDEST SWAP2 POP DUP3 PUSH1 0x2 MUL DUP3 OR SWAP1 POP SWAP3 SWAP2 POP POP JUMP JUMPDEST PUSH2 0x24D5 DUP3 PUSH2 0x1D4A JUMP JUMPDEST PUSH8 0xFFFFFFFFFFFFFFFF DUP2 GT ISZERO PUSH2 0x24EE JUMPI PUSH2 0x24ED PUSH2 0x1A63 JUMP JUMPDEST JUMPDEST PUSH2 0x24F8 DUP3 SLOAD PUSH2 0x22EF JUMP JUMPDEST PUSH2 0x2503 DUP3 DUP3 DUP6 PUSH2 0x243F JUMP JUMPDEST PUSH1 0x0 PUSH1 0x20 SWAP1 POP PUSH1 0x1F DUP4 GT PUSH1 0x1 DUP2 EQ PUSH2 0x2536 JUMPI PUSH1 0x0 DUP5 ISZERO PUSH2 0x2524 JUMPI DUP3 DUP8 ADD MLOAD SWAP1 POP JUMPDEST PUSH2 0x252E DUP6 DUP3 PUSH2 0x24B0 JUMP JUMPDEST DUP7 SSTORE POP PUSH2 0x2596 JUMP JUMPDEST PUSH1 0x1F NOT DUP5 AND PUSH2 0x2544 DUP7 PUSH2 0x2320 JUMP JUMPDEST PUSH1 0x0 JUMPDEST DUP3 DUP2 LT ISZERO PUSH2 0x256C JUMPI DUP5 DUP10 ADD MLOAD DUP3 SSTORE PUSH1 0x1 DUP3 ADD SWAP2 POP PUSH1 0x20 DUP6 ADD SWAP5 POP PUSH1 0x20 DUP2 ADD SWAP1 POP PUSH2 0x2547 JUMP JUMPDEST DUP7 DUP4 LT ISZERO PUSH2 0x2589 JUMPI DUP5 DUP10 ADD MLOAD PUSH2 0x2585 PUSH1 0x1F DUP10 AND DUP3 PUSH2 0x2492 JUMP JUMPDEST DUP4 SSTORE POP JUMPDEST PUSH1 0x1 PUSH1 0x2 DUP9 MUL ADD DUP9 SSTORE POP POP POP JUMPDEST POP POP POP POP POP POP JUMP JUMPDEST PUSH1 0x0 PUSH1 0xE0 DUP3 ADD SWAP1 POP DUP2 DUP2 SUB PUSH1 0x0 DUP4 ADD MSTORE PUSH2 0x25B8 DUP2 DUP11 PUSH2 0x20DE JUMP JUMPDEST SWAP1 POP DUP2 DUP2 SUB PUSH1 0x20 DUP4 ADD MSTORE PUSH2 0x25CC DUP2 DUP10 PUSH2 0x20DE JUMP JUMPDEST SWAP1 POP DUP2 DUP2 SUB PUSH1 0x40 DUP4 ADD MSTORE PUSH2 0x25E0 DUP2 DUP9 PUSH2 0x20DE JUMP JUMPDEST SWAP1 POP DUP2 DUP2 SUB PUSH1 0x60 DUP4 ADD MSTORE PUSH2 0x25F4 DUP2 DUP8 PUSH2 0x20DE JUMP JUMPDEST SWAP1 POP DUP2 DUP2 SUB PUSH1 0x80 DUP4 ADD MSTORE PUSH2 0x2608 DUP2 DUP7 PUSH2 0x20DE JUMP JUMPDEST SWAP1 POP DUP2 DUP2 SUB PUSH1 0xA0 DUP4 ADD MSTORE PUSH2 0x261C DUP2 DUP6 PUSH2 0x20DE JUMP JUMPDEST SWAP1 POP PUSH2 0x262B PUSH1 0xC0 DUP4 ADD DUP5 PUSH2 0x20BE JUMP JUMPDEST SWAP9 SWAP8 POP POP POP POP POP POP POP POP JUMP JUMPDEST PUSH1 0x0 DUP2 SWAP1 POP SWAP3 SWAP2 POP POP JUMP JUMPDEST PUSH1 0x0 PUSH2 0x264D DUP3 PUSH2 0x1D4A JUMP JUMPDEST PUSH2 0x2657 DUP2 DUP6 PUSH2 0x2637 JUMP JUMPDEST SWAP4 POP PUSH2 0x2667 DUP2 DUP6 PUSH1 0x20 DUP7 ADD PUSH2 0x1D66 JUMP JUMPDEST DUP1 DUP5 ADD SWAP2 POP POP SWAP3 SWAP2 POP POP JUMP JUMPDEST PUSH1 0x0 PUSH2 0x267F DUP3 DUP5 PUSH2 0x2642 JUMP JUMPDEST SWAP2 POP DUP2 SWAP1 POP SWAP3 SWAP2 POP POP JUMP JUMPDEST PUSH1 0x0 DUP2 SLOAD PUSH2 0x2697 DUP2 PUSH2 0x22EF JUMP JUMPDEST PUSH2 0x26A1 DUP2 DUP7 PUSH2 0x2637 JUMP JUMPDEST SWAP5 POP PUSH1 0x1 DUP3 AND PUSH1 0x0 DUP2 EQ PUSH2 0x26BC JUMPI PUSH1 0x1 DUP2 EQ PUSH2 0x26D1 JUMPI PUSH2 0x2704 JUMP JUMPDEST PUSH1 0xFF NOT DUP4 AND DUP7 MSTORE DUP2 ISZERO ISZERO DUP3 MUL DUP7 ADD SWAP4 POP PUSH2 0x2704 JUMP JUMPDEST PUSH2 0x26DA DUP6 PUSH2 0x2320 JUMP JUMPDEST PUSH1 0x0 JUMPDEST DUP4 DUP2 LT ISZERO PUSH2 0x26FC JUMPI DUP2 SLOAD DUP2 DUP10 ADD MSTORE PUSH1 0x1 DUP3 ADD SWAP2 POP PUSH1 0x20 DUP2 ADD SWAP1 POP PUSH2 0x26DD JUMP JUMPDEST DUP4 DUP9 ADD SWAP6 POP POP POP JUMPDEST POP POP POP SWAP3 SWAP2 POP POP JUMP JUMPDEST PUSH1 0x0 PUSH2 0x2719 DUP3 DUP5 PUSH2 0x268A JUMP JUMPDEST SWAP2 POP DUP2 SWAP1 POP SWAP3 SWAP2 POP POP JUMP JUMPDEST PUSH32 0x4E487B7100000000000000000000000000000000000000000000000000000000 PUSH1 0x0 MSTORE PUSH1 0x32 PUSH1 0x4 MSTORE PUSH1 0x24 PUSH1 0x0 REVERT JUMPDEST PUSH1 0x0 PUSH2 0x275E DUP3 PUSH2 0x1B8E JUMP JUMPDEST SWAP2 POP PUSH2 0x2769 DUP4 PUSH2 0x1B8E JUMP JUMPDEST SWAP3 POP DUP3 DUP3 SUB SWAP1 POP DUP2 DUP2 GT ISZERO PUSH2 0x2781 JUMPI PUSH2 0x2780 PUSH2 0x2249 JUMP JUMPDEST JUMPDEST SWAP3 SWAP2 POP POP JUMP JUMPDEST PUSH32 0x5472616E73616374696F6E20646F6573206E6F74206578697374000000000000 PUSH1 0x0 DUP3 ADD MSTORE POP JUMP JUMPDEST PUSH1 0x0 PUSH2 0x27BD PUSH1 0x1A DUP4 PUSH2 0x20CD JUMP JUMPDEST SWAP2 POP PUSH2 0x27C8 DUP3 PUSH2 0x2787 JUMP JUMPDEST PUSH1 0x20 DUP3 ADD SWAP1 POP SWAP2 SWAP1 POP JUMP JUMPDEST PUSH1 0x0 PUSH1 0x20 DUP3 ADD SWAP1 POP DUP2 DUP2 SUB PUSH1 0x0 DUP4 ADD MSTORE PUSH2 0x27EC DUP2 PUSH2 0x27B0 JUMP JUMPDEST SWAP1 POP SWAP2 SWAP1 POP JUMP JUMPDEST PUSH1 0x0 PUSH1 0x40 DUP3 ADD SWAP1 POP DUP2 DUP2 SUB PUSH1 0x0 DUP4 ADD MSTORE PUSH2 0x280D DUP2 DUP6 PUSH2 0x20DE JUMP JUMPDEST SWAP1 POP PUSH2 0x281C PUSH1 0x20 DUP4 ADD DUP5 PUSH2 0x20BE JUMP JUMPDEST SWAP4 SWAP3 POP POP POP JUMP INVALID LOG2 PUSH5 0x6970667358 0x22 SLT KECCAK256 0xA6 PUSH16 0x77F7ABC8C1ED8B5145AD36E80C0B4897 0xC7 PUSH19 0x7E01F545E5A7E5A762C638064736F6C634300 ADDMOD LT STOP CALLER "
				},
				"gasEstimates": {
					"creation": {
						"codeDepositCost": "2065800",
						"executionCost": "2192",
						"totalCost": "2067992"
					},
					"external": {
						"addTransaction(string,string,string,string,string,string,uint256)": "infinite",
						"getAllTransaction()": "infinite",
						"getTransaction(uint256)": "infinite",
						"getTransactionByBuyerId(string)": "infinite",
						"getTransactionBySellerId(string)": "infinite",
						"transactionCount()": "2451",
						"transactions(uint256)": "infinite",
						"updatePaymentStatus(uint256,string,uint256)": "infinite"
					}
				},
				"methodIdentifiers": {
					"addTransaction(string,string,string,string,string,string,uint256)": "2e9e680c",
					"getAllTransaction()": "add6415d",
					"getTransaction(uint256)": "33ea3dc8",
					"getTransactionByBuyerId(string)": "e55d57df",
					"getTransactionBySellerId(string)": "9311f732",
					"transactionCount()": "b77bf600",
					"transactions(uint256)": "9ace38c2",
					"updatePaymentStatus(uint256,string,uint256)": "ce8481fd"
				}
			},
			"storageLayout": {
				"storage": [
					{
						"astId": 49,
						"contract": "contracts/TransactionContract28April1.sol:TransactionContract",
						"label": "transactions",
						"offset": 0,
						"slot": "0",
						"type": "t_mapping(t_uint256,t_struct(Transaction)18_storage)"
					},
					{
						"astId": 51,
						"contract": "contracts/TransactionContract28April1.sol:TransactionContract",
						"label": "transactionCount",
						"offset": 0,
						"slot": "1",
						"type": "t_uint256"
					}
				],
				"types": {
					"t_mapping(t_uint256,t_struct(Transaction)18_storage)": {
						"encoding": "mapping",
						"key": "t_uint256",
						"label": "mapping(uint256 => struct TransactionContract.Transaction)",
						"numberOfBytes": "32",
						"value": "t_struct(Transaction)18_storage"
					},
					"t_string_storage": {
						"encoding": "bytes",
						"label": "string",
						"numberOfBytes": "32"
					},
					"t_struct(Transaction)18_storage": {
						"encoding": "inplace",
						"label": "struct TransactionContract.Transaction",
						"members": [
							{
								"astId": 3,
								"contract": "contracts/TransactionContract28April1.sol:TransactionContract",
								"label": "transactionId",
								"offset": 0,
								"slot": "0",
								"type": "t_uint256"
							},
							{
								"astId": 5,
								"contract": "contracts/TransactionContract28April1.sol:TransactionContract",
								"label": "transactionCode",
								"offset": 0,
								"slot": "1",
								"type": "t_string_storage"
							},
							{
								"astId": 7,
								"contract": "contracts/TransactionContract28April1.sol:TransactionContract",
								"label": "buyer",
								"offset": 0,
								"slot": "2",
								"type": "t_string_storage"
							},
							{
								"astId": 9,
								"contract": "contracts/TransactionContract28April1.sol:TransactionContract",
								"label": "buyerId",
								"offset": 0,
								"slot": "3",
								"type": "t_string_storage"
							},
							{
								"astId": 11,
								"contract": "contracts/TransactionContract28April1.sol:TransactionContract",
								"label": "sellerCompany",
								"offset": 0,
								"slot": "4",
								"type": "t_string_storage"
							},
							{
								"astId": 13,
								"contract": "contracts/TransactionContract28April1.sol:TransactionContract",
								"label": "sellerId",
								"offset": 0,
								"slot": "5",
								"type": "t_string_storage"
							},
							{
								"astId": 15,
								"contract": "contracts/TransactionContract28April1.sol:TransactionContract",
								"label": "paymentStatus",
								"offset": 0,
								"slot": "6",
								"type": "t_string_storage"
							},
							{
								"astId": 17,
								"contract": "contracts/TransactionContract28April1.sol:TransactionContract",
								"label": "createdAt",
								"offset": 0,
								"slot": "7",
								"type": "t_uint256"
							}
						],
						"numberOfBytes": "256"
					},
					"t_uint256": {
						"encoding": "inplace",
						"label": "uint256",
						"numberOfBytes": "32"
					}
				}
			},
			"userdoc": {
				"kind": "user",
				"methods": {},
				"version": 1
			}
		}
	}
}