{
	"contracts/TransactionContract28April.sol": {
		"TransactionContract": {
			"abi": [
				{
					"anonymous": false,
					"inputs": [
						{
							"indexed": true,
							"internalType": "uint256",
							"name": "transactionId",
							"type": "uint256"
						},
						{
							"indexed": false,
							"internalType": "string",
							"name": "paymentStatus",
							"type": "string"
						},
						{
							"indexed": false,
							"internalType": "uint256",
							"name": "updatedAt",
							"type": "uint256"
						}
					],
					"name": "PaymentStatusUpdated",
					"type": "event"
				},
				{
					"anonymous": false,
					"inputs": [
						{
							"indexed": true,
							"internalType": "uint256",
							"name": "transactionId",
							"type": "uint256"
						},
						{
							"indexed": false,
							"internalType": "string",
							"name": "transactionCode",
							"type": "string"
						},
						{
							"indexed": false,
							"internalType": "string",
							"name": "from",
							"type": "string"
						},
						{
							"indexed": false,
							"internalType": "string",
							"name": "fromId",
							"type": "string"
						},
						{
							"indexed": false,
							"internalType": "string",
							"name": "to",
							"type": "string"
						},
						{
							"indexed": false,
							"internalType": "string",
							"name": "toId",
							"type": "string"
						},
						{
							"indexed": false,
							"internalType": "string",
							"name": "orderType",
							"type": "string"
						},
						{
							"indexed": false,
							"internalType": "string",
							"name": "paymentStatus",
							"type": "string"
						},
						{
							"indexed": false,
							"internalType": "uint256",
							"name": "createdAt",
							"type": "uint256"
						}
					],
					"name": "TransactionAdded",
					"type": "event"
				},
				{
					"inputs": [
						{
							"internalType": "string",
							"name": "_transactionCode",
							"type": "string"
						},
						{
							"internalType": "string",
							"name": "_from",
							"type": "string"
						},
						{
							"internalType": "string",
							"name": "_fromId",
							"type": "string"
						},
						{
							"internalType": "string",
							"name": "_to",
							"type": "string"
						},
						{
							"internalType": "string",
							"name": "_toId",
							"type": "string"
						},
						{
							"internalType": "string",
							"name": "_orderType",
							"type": "string"
						},
						{
							"internalType": "string",
							"name": "_paymentStatus",
							"type": "string"
						},
						{
							"internalType": "uint256",
							"name": "_createdAt",
							"type": "uint256"
						}
					],
					"name": "addTransaction",
					"outputs": [],
					"stateMutability": "nonpayable",
					"type": "function"
				},
				{
					"inputs": [],
					"name": "getAllTransaction",
					"outputs": [
						{
							"components": [
								{
									"internalType": "uint256",
									"name": "transactionId",
									"type": "uint256"
								},
								{
									"internalType": "string",
									"name": "transactionCode",
									"type": "string"
								},
								{
									"internalType": "string",
									"name": "from",
									"type": "string"
								},
								{
									"internalType": "string",
									"name": "fromId",
									"type": "string"
								},
								{
									"internalType": "string",
									"name": "to",
									"type": "string"
								},
								{
									"internalType": "string",
									"name": "toId",
									"type": "string"
								},
								{
									"internalType": "string",
									"name": "orderType",
									"type": "string"
								},
								{
									"internalType": "string",
									"name": "paymentStatus",
									"type": "string"
								},
								{
									"internalType": "uint256",
									"name": "createdAt",
									"type": "uint256"
								}
							],
							"internalType": "struct TransactionContract.Transaction[]",
							"name": "",
							"type": "tuple[]"
						}
					],
					"stateMutability": "view",
					"type": "function"
				},
				{
					"inputs": [
						{
							"internalType": "uint256",
							"name": "_transactionId",
							"type": "uint256"
						}
					],
					"name": "getTransaction",
					"outputs": [
						{
							"components": [
								{
									"internalType": "uint256",
									"name": "transactionId",
									"type": "uint256"
								},
								{
									"internalType": "string",
									"name": "transactionCode",
									"type": "string"
								},
								{
									"internalType": "string",
									"name": "from",
									"type": "string"
								},
								{
									"internalType": "string",
									"name": "fromId",
									"type": "string"
								},
								{
									"internalType": "string",
									"name": "to",
									"type": "string"
								},
								{
									"internalType": "string",
									"name": "toId",
									"type": "string"
								},
								{
									"internalType": "string",
									"name": "orderType",
									"type": "string"
								},
								{
									"internalType": "string",
									"name": "paymentStatus",
									"type": "string"
								},
								{
									"internalType": "uint256",
									"name": "createdAt",
									"type": "uint256"
								}
							],
							"internalType": "struct TransactionContract.Transaction",
							"name": "",
							"type": "tuple"
						}
					],
					"stateMutability": "view",
					"type": "function"
				},
				{
					"inputs": [
						{
							"internalType": "string",
							"name": "_buyerId",
							"type": "string"
						}
					],
					"name": "getTransactionByBuyerId",
					"outputs": [
						{
							"components": [
								{
									"internalType": "uint256",
									"name": "transactionId",
									"type": "uint256"
								},
								{
									"internalType": "string",
									"name": "transactionCode",
									"type": "string"
								},
								{
									"internalType": "string",
									"name": "from",
									"type": "string"
								},
								{
									"internalType": "string",
									"name": "fromId",
									"type": "string"
								},
								{
									"internalType": "string",
									"name": "to",
									"type": "string"
								},
								{
									"internalType": "string",
									"name": "toId",
									"type": "string"
								},
								{
									"internalType": "string",
									"name": "orderType",
									"type": "string"
								},
								{
									"internalType": "string",
									"name": "paymentStatus",
									"type": "string"
								},
								{
									"internalType": "uint256",
									"name": "createdAt",
									"type": "uint256"
								}
							],
							"internalType": "struct TransactionContract.Transaction[]",
							"name": "",
							"type": "tuple[]"
						}
					],
					"stateMutability": "view",
					"type": "function"
				},
				{
					"inputs": [
						{
							"internalType": "string",
							"name": "_sellerId",
							"type": "string"
						}
					],
					"name": "getTransactionBySellerId",
					"outputs": [
						{
							"components": [
								{
									"internalType": "uint256",
									"name": "transactionId",
									"type": "uint256"
								},
								{
									"internalType": "string",
									"name": "transactionCode",
									"type": "string"
								},
								{
									"internalType": "string",
									"name": "from",
									"type": "string"
								},
								{
									"internalType": "string",
									"name": "fromId",
									"type": "string"
								},
								{
									"internalType": "string",
									"name": "to",
									"type": "string"
								},
								{
									"internalType": "string",
									"name": "toId",
									"type": "string"
								},
								{
									"internalType": "string",
									"name": "orderType",
									"type": "string"
								},
								{
									"internalType": "string",
									"name": "paymentStatus",
									"type": "string"
								},
								{
									"internalType": "uint256",
									"name": "createdAt",
									"type": "uint256"
								}
							],
							"internalType": "struct TransactionContract.Transaction[]",
							"name": "",
							"type": "tuple[]"
						}
					],
					"stateMutability": "view",
					"type": "function"
				},
				{
					"inputs": [],
					"name": "transactionCount",
					"outputs": [
						{
							"internalType": "uint256",
							"name": "",
							"type": "uint256"
						}
					],
					"stateMutability": "view",
					"type": "function"
				},
				{
					"inputs": [
						{
							"internalType": "uint256",
							"name": "",
							"type": "uint256"
						}
					],
					"name": "transactions",
					"outputs": [
						{
							"internalType": "uint256",
							"name": "transactionId",
							"type": "uint256"
						},
						{
							"internalType": "string",
							"name": "transactionCode",
							"type": "string"
						},
						{
							"internalType": "string",
							"name": "from",
							"type": "string"
						},
						{
							"internalType": "string",
							"name": "fromId",
							"type": "string"
						},
						{
							"internalType": "string",
							"name": "to",
							"type": "string"
						},
						{
							"internalType": "string",
							"name": "toId",
							"type": "string"
						},
						{
							"internalType": "string",
							"name": "orderType",
							"type": "string"
						},
						{
							"internalType": "string",
							"name": "paymentStatus",
							"type": "string"
						},
						{
							"internalType": "uint256",
							"name": "createdAt",
							"type": "uint256"
						}
					],
					"stateMutability": "view",
					"type": "function"
				},
				{
					"inputs": [
						{
							"internalType": "uint256",
							"name": "_transactionId",
							"type": "uint256"
						},
						{
							"internalType": "string",
							"name": "_paymentStatus",
							"type": "string"
						},
						{
							"internalType": "uint256",
							"name": "_updatedAt",
							"type": "uint256"
						}
					],
					"name": "updatePaymentStatus",
					"outputs": [],
					"stateMutability": "nonpayable",
					"type": "function"
				}
			],
			"devdoc": {
				"kind": "dev",
				"methods": {},
				"version": 1
			},
			"evm": {
				"assembly": "    /* \"contracts/TransactionContract28April.sol\":57:4525  contract TransactionContract {... */\n  mstore(0x40, 0x80)\n  callvalue\n  dup1\n  iszero\n  tag_1\n  jumpi\n  0x00\n  dup1\n  revert\ntag_1:\n  pop\n  dataSize(sub_0)\n  dup1\n  dataOffset(sub_0)\n  0x00\n  codecopy\n  0x00\n  return\nstop\n\nsub_0: assembly {\n        /* \"contracts/TransactionContract28April.sol\":57:4525  contract TransactionContract {... */\n      mstore(0x40, 0x80)\n      callvalue\n      dup1\n      iszero\n      tag_1\n      jumpi\n      0x00\n      dup1\n      revert\n    tag_1:\n      pop\n      jumpi(tag_2, lt(calldatasize, 0x04))\n      shr(0xe0, calldataload(0x00))\n      dup1\n      0xadd6415d\n      gt\n      tag_11\n      jumpi\n      dup1\n      0xadd6415d\n      eq\n      tag_7\n      jumpi\n      dup1\n      0xb77bf600\n      eq\n      tag_8\n      jumpi\n      dup1\n      0xce8481fd\n      eq\n      tag_9\n      jumpi\n      dup1\n      0xe55d57df\n      eq\n      tag_10\n      jumpi\n      jump(tag_2)\n    tag_11:\n      dup1\n      0x33ea3dc8\n      eq\n      tag_3\n      jumpi\n      dup1\n      0x9311f732\n      eq\n      tag_4\n      jumpi\n      dup1\n      0x9ace38c2\n      eq\n      tag_5\n      jumpi\n      dup1\n      0xabed9fb4\n      eq\n      tag_6\n      jumpi\n    tag_2:\n      0x00\n      dup1\n      revert\n        /* \"contracts/TransactionContract28April.sol\":1878:2030  function getTransaction(... */\n    tag_3:\n      tag_12\n      0x04\n      dup1\n      calldatasize\n      sub\n      dup2\n      add\n      swap1\n      tag_13\n      swap2\n      swap1\n      tag_14\n      jump\t// in\n    tag_13:\n      tag_15\n      jump\t// in\n    tag_12:\n      mload(0x40)\n      tag_16\n      swap2\n      swap1\n      tag_17\n      jump\t// in\n    tag_16:\n      mload(0x40)\n      dup1\n      swap2\n      sub\n      swap1\n      return\n        /* \"contracts/TransactionContract28April.sol\":3685:4523  function getTransactionBySellerId(... */\n    tag_4:\n      tag_18\n      0x04\n      dup1\n      calldatasize\n      sub\n      dup2\n      add\n      swap1\n      tag_19\n      swap2\n      swap1\n      tag_20\n      jump\t// in\n    tag_19:\n      tag_21\n      jump\t// in\n    tag_18:\n      mload(0x40)\n      tag_22\n      swap2\n      swap1\n      tag_23\n      jump\t// in\n    tag_22:\n      mload(0x40)\n      dup1\n      swap2\n      sub\n      swap1\n      return\n        /* \"contracts/TransactionContract28April.sol\":928:976  mapping(uint => Transaction) public transactions */\n    tag_5:\n      tag_24\n      0x04\n      dup1\n      calldatasize\n      sub\n      dup2\n      add\n      swap1\n      tag_25\n      swap2\n      swap1\n      tag_14\n      jump\t// in\n    tag_25:\n      tag_26\n      jump\t// in\n    tag_24:\n      mload(0x40)\n      tag_27\n      swap10\n      swap9\n      swap8\n      swap7\n      swap6\n      swap5\n      swap4\n      swap3\n      swap2\n      swap1\n      tag_28\n      jump\t// in\n    tag_27:\n      mload(0x40)\n      dup1\n      swap2\n      sub\n      swap1\n      return\n        /* \"contracts/TransactionContract28April.sol\":1017:1872  function addTransaction(... */\n    tag_6:\n      tag_29\n      0x04\n      dup1\n      calldatasize\n      sub\n      dup2\n      add\n      swap1\n      tag_30\n      swap2\n      swap1\n      tag_31\n      jump\t// in\n    tag_30:\n      tag_32\n      jump\t// in\n    tag_29:\n      stop\n        /* \"contracts/TransactionContract28April.sol\":2505:2835  function getAllTransaction() public view returns (Transaction[] memory) {... */\n    tag_7:\n      tag_33\n      tag_34\n      jump\t// in\n    tag_33:\n      mload(0x40)\n      tag_35\n      swap2\n      swap1\n      tag_23\n      jump\t// in\n    tag_35:\n      mload(0x40)\n      dup1\n      swap2\n      sub\n      swap1\n      return\n        /* \"contracts/TransactionContract28April.sol\":982:1010  uint public transactionCount */\n    tag_8:\n      tag_36\n      tag_37\n      jump\t// in\n    tag_36:\n      mload(0x40)\n      tag_38\n      swap2\n      swap1\n      tag_39\n      jump\t// in\n    tag_38:\n      mload(0x40)\n      dup1\n      swap2\n      sub\n      swap1\n      return\n        /* \"contracts/TransactionContract28April.sol\":2036:2499  function updatePaymentStatus(... */\n    tag_9:\n      tag_40\n      0x04\n      dup1\n      calldatasize\n      sub\n      dup2\n      add\n      swap1\n      tag_41\n      swap2\n      swap1\n      tag_42\n      jump\t// in\n    tag_41:\n      tag_43\n      jump\t// in\n    tag_40:\n      stop\n        /* \"contracts/TransactionContract28April.sol\":2841:3679  function getTransactionByBuyerId(... */\n    tag_10:\n      tag_44\n      0x04\n      dup1\n      calldatasize\n      sub\n      dup2\n      add\n      swap1\n      tag_45\n      swap2\n      swap1\n      tag_20\n      jump\t// in\n    tag_45:\n      tag_46\n      jump\t// in\n    tag_44:\n      mload(0x40)\n      tag_47\n      swap2\n      swap1\n      tag_23\n      jump\t// in\n    tag_47:\n      mload(0x40)\n      dup1\n      swap2\n      sub\n      swap1\n      return\n        /* \"contracts/TransactionContract28April.sol\":1878:2030  function getTransaction(... */\n    tag_15:\n        /* \"contracts/TransactionContract28April.sol\":1958:1976  Transaction memory */\n      tag_48\n      tag_49\n      jump\t// in\n    tag_48:\n        /* \"contracts/TransactionContract28April.sol\":1995:2007  transactions */\n      0x00\n        /* \"contracts/TransactionContract28April.sol\":1995:2023  transactions[_transactionId] */\n      dup1\n        /* \"contracts/TransactionContract28April.sol\":2008:2022  _transactionId */\n      dup4\n        /* \"contracts/TransactionContract28April.sol\":1995:2023  transactions[_transactionId] */\n      dup2\n      mstore\n      0x20\n      add\n      swap1\n      dup2\n      mstore\n      0x20\n      add\n      0x00\n      keccak256\n        /* \"contracts/TransactionContract28April.sol\":1988:2023  return transactions[_transactionId] */\n      mload(0x40)\n      dup1\n      0x0120\n      add\n      0x40\n      mstore\n      swap1\n      dup2\n      0x00\n      dup3\n      add\n      sload\n      dup2\n      mstore\n      0x20\n      add\n      0x01\n      dup3\n      add\n      dup1\n      sload\n      tag_51\n      swap1\n      tag_52\n      jump\t// in\n    tag_51:\n      dup1\n      0x1f\n      add\n      0x20\n      dup1\n      swap2\n      div\n      mul\n      0x20\n      add\n      mload(0x40)\n      swap1\n      dup2\n      add\n      0x40\n      mstore\n      dup1\n      swap3\n      swap2\n      swap1\n      dup2\n      dup2\n      mstore\n      0x20\n      add\n      dup3\n      dup1\n      sload\n      tag_53\n      swap1\n      tag_52\n      jump\t// in\n    tag_53:\n      dup1\n      iszero\n      tag_54\n      jumpi\n      dup1\n      0x1f\n      lt\n      tag_55\n      jumpi\n      0x0100\n      dup1\n      dup4\n      sload\n      div\n      mul\n      dup4\n      mstore\n      swap2\n      0x20\n      add\n      swap2\n      jump(tag_54)\n    tag_55:\n      dup3\n      add\n      swap2\n      swap1\n      0x00\n      mstore\n      keccak256(0x00, 0x20)\n      swap1\n    tag_56:\n      dup2\n      sload\n      dup2\n      mstore\n      swap1\n      0x01\n      add\n      swap1\n      0x20\n      add\n      dup1\n      dup4\n      gt\n      tag_56\n      jumpi\n      dup3\n      swap1\n      sub\n      0x1f\n      and\n      dup3\n      add\n      swap2\n    tag_54:\n      pop\n      pop\n      pop\n      pop\n      pop\n      dup2\n      mstore\n      0x20\n      add\n      0x02\n      dup3\n      add\n      dup1\n      sload\n      tag_57\n      swap1\n      tag_52\n      jump\t// in\n    tag_57:\n      dup1\n      0x1f\n      add\n      0x20\n      dup1\n      swap2\n      div\n      mul\n      0x20\n      add\n      mload(0x40)\n      swap1\n      dup2\n      add\n      0x40\n      mstore\n      dup1\n      swap3\n      swap2\n      swap1\n      dup2\n      dup2\n      mstore\n      0x20\n      add\n      dup3\n      dup1\n      sload\n      tag_58\n      swap1\n      tag_52\n      jump\t// in\n    tag_58:\n      dup1\n      iszero\n      tag_59\n      jumpi\n      dup1\n      0x1f\n      lt\n      tag_60\n      jumpi\n      0x0100\n      dup1\n      dup4\n      sload\n      div\n      mul\n      dup4\n      mstore\n      swap2\n      0x20\n      add\n      swap2\n      jump(tag_59)\n    tag_60:\n      dup3\n      add\n      swap2\n      swap1\n      0x00\n      mstore\n      keccak256(0x00, 0x20)\n      swap1\n    tag_61:\n      dup2\n      sload\n      dup2\n      mstore\n      swap1\n      0x01\n      add\n      swap1\n      0x20\n      add\n      dup1\n      dup4\n      gt\n      tag_61\n      jumpi\n      dup3\n      swap1\n      sub\n      0x1f\n      and\n      dup3\n      add\n      swap2\n    tag_59:\n      pop\n      pop\n      pop\n      pop\n      pop\n      dup2\n      mstore\n      0x20\n      add\n      0x03\n      dup3\n      add\n      dup1\n      sload\n      tag_62\n      swap1\n      tag_52\n      jump\t// in\n    tag_62:\n      dup1\n      0x1f\n      add\n      0x20\n      dup1\n      swap2\n      div\n      mul\n      0x20\n      add\n      mload(0x40)\n      swap1\n      dup2\n      add\n      0x40\n      mstore\n      dup1\n      swap3\n      swap2\n      swap1\n      dup2\n      dup2\n      mstore\n      0x20\n      add\n      dup3\n      dup1\n      sload\n      tag_63\n      swap1\n      tag_52\n      jump\t// in\n    tag_63:\n      dup1\n      iszero\n      tag_64\n      jumpi\n      dup1\n      0x1f\n      lt\n      tag_65\n      jumpi\n      0x0100\n      dup1\n      dup4\n      sload\n      div\n      mul\n      dup4\n      mstore\n      swap2\n      0x20\n      add\n      swap2\n      jump(tag_64)\n    tag_65:\n      dup3\n      add\n      swap2\n      swap1\n      0x00\n      mstore\n      keccak256(0x00, 0x20)\n      swap1\n    tag_66:\n      dup2\n      sload\n      dup2\n      mstore\n      swap1\n      0x01\n      add\n      swap1\n      0x20\n      add\n      dup1\n      dup4\n      gt\n      tag_66\n      jumpi\n      dup3\n      swap1\n      sub\n      0x1f\n      and\n      dup3\n      add\n      swap2\n    tag_64:\n      pop\n      pop\n      pop\n      pop\n      pop\n      dup2\n      mstore\n      0x20\n      add\n      0x04\n      dup3\n      add\n      dup1\n      sload\n      tag_67\n      swap1\n      tag_52\n      jump\t// in\n    tag_67:\n      dup1\n      0x1f\n      add\n      0x20\n      dup1\n      swap2\n      div\n      mul\n      0x20\n      add\n      mload(0x40)\n      swap1\n      dup2\n      add\n      0x40\n      mstore\n      dup1\n      swap3\n      swap2\n      swap1\n      dup2\n      dup2\n      mstore\n      0x20\n      add\n      dup3\n      dup1\n      sload\n      tag_68\n      swap1\n      tag_52\n      jump\t// in\n    tag_68:\n      dup1\n      iszero\n      tag_69\n      jumpi\n      dup1\n      0x1f\n      lt\n      tag_70\n      jumpi\n      0x0100\n      dup1\n      dup4\n      sload\n      div\n      mul\n      dup4\n      mstore\n      swap2\n      0x20\n      add\n      swap2\n      jump(tag_69)\n    tag_70:\n      dup3\n      add\n      swap2\n      swap1\n      0x00\n      mstore\n      keccak256(0x00, 0x20)\n      swap1\n    tag_71:\n      dup2\n      sload\n      dup2\n      mstore\n      swap1\n      0x01\n      add\n      swap1\n      0x20\n      add\n      dup1\n      dup4\n      gt\n      tag_71\n      jumpi\n      dup3\n      swap1\n      sub\n      0x1f\n      and\n      dup3\n      add\n      swap2\n    tag_69:\n      pop\n      pop\n      pop\n      pop\n      pop\n      dup2\n      mstore\n      0x20\n      add\n      0x05\n      dup3\n      add\n      dup1\n      sload\n      tag_72\n      swap1\n      tag_52\n      jump\t// in\n    tag_72:\n      dup1\n      0x1f\n      add\n      0x20\n      dup1\n      swap2\n      div\n      mul\n      0x20\n      add\n      mload(0x40)\n      swap1\n      dup2\n      add\n      0x40\n      mstore\n      dup1\n      swap3\n      swap2\n      swap1\n      dup2\n      dup2\n      mstore\n      0x20\n      add\n      dup3\n      dup1\n      sload\n      tag_73\n      swap1\n      tag_52\n      jump\t// in\n    tag_73:\n      dup1\n      iszero\n      tag_74\n      jumpi\n      dup1\n      0x1f\n      lt\n      tag_75\n      jumpi\n      0x0100\n      dup1\n      dup4\n      sload\n      div\n      mul\n      dup4\n      mstore\n      swap2\n      0x20\n      add\n      swap2\n      jump(tag_74)\n    tag_75:\n      dup3\n      add\n      swap2\n      swap1\n      0x00\n      mstore\n      keccak256(0x00, 0x20)\n      swap1\n    tag_76:\n      dup2\n      sload\n      dup2\n      mstore\n      swap1\n      0x01\n      add\n      swap1\n      0x20\n      add\n      dup1\n      dup4\n      gt\n      tag_76\n      jumpi\n      dup3\n      swap1\n      sub\n      0x1f\n      and\n      dup3\n      add\n      swap2\n    tag_74:\n      pop\n      pop\n      pop\n      pop\n      pop\n      dup2\n      mstore\n      0x20\n      add\n      0x06\n      dup3\n      add\n      dup1\n      sload\n      tag_77\n      swap1\n      tag_52\n      jump\t// in\n    tag_77:\n      dup1\n      0x1f\n      add\n      0x20\n      dup1\n      swap2\n      div\n      mul\n      0x20\n      add\n      mload(0x40)\n      swap1\n      dup2\n      add\n      0x40\n      mstore\n      dup1\n      swap3\n      swap2\n      swap1\n      dup2\n      dup2\n      mstore\n      0x20\n      add\n      dup3\n      dup1\n      sload\n      tag_78\n      swap1\n      tag_52\n      jump\t// in\n    tag_78:\n      dup1\n      iszero\n      tag_79\n      jumpi\n      dup1\n      0x1f\n      lt\n      tag_80\n      jumpi\n      0x0100\n      dup1\n      dup4\n      sload\n      div\n      mul\n      dup4\n      mstore\n      swap2\n      0x20\n      add\n      swap2\n      jump(tag_79)\n    tag_80:\n      dup3\n      add\n      swap2\n      swap1\n      0x00\n      mstore\n      keccak256(0x00, 0x20)\n      swap1\n    tag_81:\n      dup2\n      sload\n      dup2\n      mstore\n      swap1\n      0x01\n      add\n      swap1\n      0x20\n      add\n      dup1\n      dup4\n      gt\n      tag_81\n      jumpi\n      dup3\n      swap1\n      sub\n      0x1f\n      and\n      dup3\n      add\n      swap2\n    tag_79:\n      pop\n      pop\n      pop\n      pop\n      pop\n      dup2\n      mstore\n      0x20\n      add\n      0x07\n      dup3\n      add\n      dup1\n      sload\n      tag_82\n      swap1\n      tag_52\n      jump\t// in\n    tag_82:\n      dup1\n      0x1f\n      add\n      0x20\n      dup1\n      swap2\n      div\n      mul\n      0x20\n      add\n      mload(0x40)\n      swap1\n      dup2\n      add\n      0x40\n      mstore\n      dup1\n      swap3\n      swap2\n      swap1\n      dup2\n      dup2\n      mstore\n      0x20\n      add\n      dup3\n      dup1\n      sload\n      tag_83\n      swap1\n      tag_52\n      jump\t// in\n    tag_83:\n      dup1\n      iszero\n      tag_84\n      jumpi\n      dup1\n      0x1f\n      lt\n      tag_85\n      jumpi\n      0x0100\n      dup1\n      dup4\n      sload\n      div\n      mul\n      dup4\n      mstore\n      swap2\n      0x20\n      add\n      swap2\n      jump(tag_84)\n    tag_85:\n      dup3\n      add\n      swap2\n      swap1\n      0x00\n      mstore\n      keccak256(0x00, 0x20)\n      swap1\n    tag_86:\n      dup2\n      sload\n      dup2\n      mstore\n      swap1\n      0x01\n      add\n      swap1\n      0x20\n      add\n      dup1\n      dup4\n      gt\n      tag_86\n      jumpi\n      dup3\n      swap1\n      sub\n      0x1f\n      and\n      dup3\n      add\n      swap2\n    tag_84:\n      pop\n      pop\n      pop\n      pop\n      pop\n      dup2\n      mstore\n      0x20\n      add\n      0x08\n      dup3\n      add\n      sload\n      dup2\n      mstore\n      pop\n      pop\n      swap1\n      pop\n        /* \"contracts/TransactionContract28April.sol\":1878:2030  function getTransaction(... */\n      swap2\n      swap1\n      pop\n      jump\t// out\n        /* \"contracts/TransactionContract28April.sol\":3685:4523  function getTransactionBySellerId(... */\n    tag_21:\n        /* \"contracts/TransactionContract28April.sol\":3779:3799  Transaction[] memory */\n      0x60\n        /* \"contracts/TransactionContract28April.sol\":3811:3821  uint count */\n      0x00\n        /* \"contracts/TransactionContract28April.sol\":3840:3846  uint i */\n      dup1\n        /* \"contracts/TransactionContract28April.sol\":3849:3850  1 */\n      0x01\n        /* \"contracts/TransactionContract28April.sol\":3840:3850  uint i = 1 */\n      swap1\n      pop\n        /* \"contracts/TransactionContract28April.sol\":3835:4087  for (uint i = 1; i <= transactionCount; i++) {... */\n    tag_88:\n        /* \"contracts/TransactionContract28April.sol\":3857:3873  transactionCount */\n      sload(0x01)\n        /* \"contracts/TransactionContract28April.sol\":3852:3853  i */\n      dup2\n        /* \"contracts/TransactionContract28April.sol\":3852:3873  i <= transactionCount */\n      gt\n        /* \"contracts/TransactionContract28April.sol\":3835:4087  for (uint i = 1; i <= transactionCount; i++) {... */\n      tag_89\n      jumpi\n        /* \"contracts/TransactionContract28April.sol\":4011:4020  _sellerId */\n      dup4\n        /* \"contracts/TransactionContract28April.sol\":3994:4021  abi.encodePacked(_sellerId) */\n      add(0x20, mload(0x40))\n      tag_91\n      swap2\n      swap1\n      tag_92\n      jump\t// in\n    tag_91:\n      mload(0x40)\n      0x20\n      dup2\n      dup4\n      sub\n      sub\n      dup2\n      mstore\n      swap1\n      0x40\n      mstore\n        /* \"contracts/TransactionContract28April.sol\":3984:4022  keccak256(abi.encodePacked(_sellerId)) */\n      dup1\n      mload\n      swap1\n      0x20\n      add\n      keccak256\n        /* \"contracts/TransactionContract28April.sol\":3942:3954  transactions */\n      0x00\n        /* \"contracts/TransactionContract28April.sol\":3942:3957  transactions[i] */\n      dup1\n        /* \"contracts/TransactionContract28April.sol\":3955:3956  i */\n      dup4\n        /* \"contracts/TransactionContract28April.sol\":3942:3957  transactions[i] */\n      dup2\n      mstore\n      0x20\n      add\n      swap1\n      dup2\n      mstore\n      0x20\n      add\n      0x00\n      keccak256\n        /* \"contracts/TransactionContract28April.sol\":3942:3962  transactions[i].toId */\n      0x05\n      add\n        /* \"contracts/TransactionContract28April.sol\":3925:3963  abi.encodePacked(transactions[i].toId) */\n      add(0x20, mload(0x40))\n      tag_93\n      swap2\n      swap1\n      tag_94\n      jump\t// in\n    tag_93:\n      mload(0x40)\n      0x20\n      dup2\n      dup4\n      sub\n      sub\n      dup2\n      mstore\n      swap1\n      0x40\n      mstore\n        /* \"contracts/TransactionContract28April.sol\":3915:3964  keccak256(abi.encodePacked(transactions[i].toId)) */\n      dup1\n      mload\n      swap1\n      0x20\n      add\n      keccak256\n        /* \"contracts/TransactionContract28April.sol\":3915:4022  keccak256(abi.encodePacked(transactions[i].toId)) ==... */\n      sub\n        /* \"contracts/TransactionContract28April.sol\":3894:4077  if (... */\n      tag_95\n      jumpi\n        /* \"contracts/TransactionContract28April.sol\":4055:4062  count++ */\n      dup2\n      dup1\n      tag_96\n      swap1\n      tag_97\n      jump\t// in\n    tag_96:\n      swap3\n      pop\n      pop\n        /* \"contracts/TransactionContract28April.sol\":3894:4077  if (... */\n    tag_95:\n        /* \"contracts/TransactionContract28April.sol\":3875:3878  i++ */\n      dup1\n      dup1\n      tag_98\n      swap1\n      tag_97\n      jump\t// in\n    tag_98:\n      swap2\n      pop\n      pop\n        /* \"contracts/TransactionContract28April.sol\":3835:4087  for (uint i = 1; i <= transactionCount; i++) {... */\n      jump(tag_88)\n    tag_89:\n      pop\n        /* \"contracts/TransactionContract28April.sol\":4096:4130  Transaction[] memory _transactions */\n      0x00\n        /* \"contracts/TransactionContract28April.sol\":4151:4156  count */\n      dup2\n        /* \"contracts/TransactionContract28April.sol\":4133:4157  new Transaction[](count) */\n      0xffffffffffffffff\n      dup2\n      gt\n      iszero\n      tag_99\n      jumpi\n      tag_100\n      tag_101\n      jump\t// in\n    tag_100:\n    tag_99:\n      mload(0x40)\n      swap1\n      dup1\n      dup3\n      mstore\n      dup1\n      0x20\n      mul\n      0x20\n      add\n      dup3\n      add\n      0x40\n      mstore\n      dup1\n      iszero\n      tag_102\n      jumpi\n      dup2\n      0x20\n      add\n    tag_103:\n      tag_104\n      tag_49\n      jump\t// in\n    tag_104:\n      dup2\n      mstore\n      0x20\n      add\n      swap1\n      0x01\n      swap1\n      sub\n      swap1\n      dup2\n      tag_103\n      jumpi\n      swap1\n      pop\n    tag_102:\n      pop\n        /* \"contracts/TransactionContract28April.sol\":4096:4157  Transaction[] memory _transactions = new Transaction[](count) */\n      swap1\n      pop\n        /* \"contracts/TransactionContract28April.sol\":4167:4173  uint j */\n      0x00\n        /* \"contracts/TransactionContract28April.sol\":4192:4198  uint i */\n      dup1\n        /* \"contracts/TransactionContract28April.sol\":4201:4202  1 */\n      0x01\n        /* \"contracts/TransactionContract28April.sol\":4192:4202  uint i = 1 */\n      swap1\n      pop\n        /* \"contracts/TransactionContract28April.sol\":4187:4487  for (uint i = 1; i <= transactionCount; i++) {... */\n    tag_105:\n        /* \"contracts/TransactionContract28April.sol\":4209:4225  transactionCount */\n      sload(0x01)\n        /* \"contracts/TransactionContract28April.sol\":4204:4205  i */\n      dup2\n        /* \"contracts/TransactionContract28April.sol\":4204:4225  i <= transactionCount */\n      gt\n        /* \"contracts/TransactionContract28April.sol\":4187:4487  for (uint i = 1; i <= transactionCount; i++) {... */\n      tag_106\n      jumpi\n        /* \"contracts/TransactionContract28April.sol\":4363:4372  _sellerId */\n      dup6\n        /* \"contracts/TransactionContract28April.sol\":4346:4373  abi.encodePacked(_sellerId) */\n      add(0x20, mload(0x40))\n      tag_108\n      swap2\n      swap1\n      tag_92\n      jump\t// in\n    tag_108:\n      mload(0x40)\n      0x20\n      dup2\n      dup4\n      sub\n      sub\n      dup2\n      mstore\n      swap1\n      0x40\n      mstore\n        /* \"contracts/TransactionContract28April.sol\":4336:4374  keccak256(abi.encodePacked(_sellerId)) */\n      dup1\n      mload\n      swap1\n      0x20\n      add\n      keccak256\n        /* \"contracts/TransactionContract28April.sol\":4294:4306  transactions */\n      0x00\n        /* \"contracts/TransactionContract28April.sol\":4294:4309  transactions[i] */\n      dup1\n        /* \"contracts/TransactionContract28April.sol\":4307:4308  i */\n      dup4\n        /* \"contracts/TransactionContract28April.sol\":4294:4309  transactions[i] */\n      dup2\n      mstore\n      0x20\n      add\n      swap1\n      dup2\n      mstore\n      0x20\n      add\n      0x00\n      keccak256\n        /* \"contracts/TransactionContract28April.sol\":4294:4314  transactions[i].toId */\n      0x05\n      add\n        /* \"contracts/TransactionContract28April.sol\":4277:4315  abi.encodePacked(transactions[i].toId) */\n      add(0x20, mload(0x40))\n      tag_109\n      swap2\n      swap1\n      tag_94\n      jump\t// in\n    tag_109:\n      mload(0x40)\n      0x20\n      dup2\n      dup4\n      sub\n      sub\n      dup2\n      mstore\n      swap1\n      0x40\n      mstore\n        /* \"contracts/TransactionContract28April.sol\":4267:4316  keccak256(abi.encodePacked(transactions[i].toId)) */\n      dup1\n      mload\n      swap1\n      0x20\n      add\n      keccak256\n        /* \"contracts/TransactionContract28April.sol\":4267:4374  keccak256(abi.encodePacked(transactions[i].toId)) ==... */\n      sub\n        /* \"contracts/TransactionContract28April.sol\":4246:4477  if (... */\n      tag_110\n      jumpi\n        /* \"contracts/TransactionContract28April.sol\":4426:4438  transactions */\n      0x00\n        /* \"contracts/TransactionContract28April.sol\":4426:4441  transactions[i] */\n      dup1\n        /* \"contracts/TransactionContract28April.sol\":4439:4440  i */\n      dup3\n        /* \"contracts/TransactionContract28April.sol\":4426:4441  transactions[i] */\n      dup2\n      mstore\n      0x20\n      add\n      swap1\n      dup2\n      mstore\n      0x20\n      add\n      0x00\n      keccak256\n        /* \"contracts/TransactionContract28April.sol\":4407:4441  _transactions[j] = transactions[i] */\n      mload(0x40)\n      dup1\n      0x0120\n      add\n      0x40\n      mstore\n      swap1\n      dup2\n      0x00\n      dup3\n      add\n      sload\n      dup2\n      mstore\n      0x20\n      add\n      0x01\n      dup3\n      add\n      dup1\n      sload\n      tag_111\n      swap1\n      tag_52\n      jump\t// in\n    tag_111:\n      dup1\n      0x1f\n      add\n      0x20\n      dup1\n      swap2\n      div\n      mul\n      0x20\n      add\n      mload(0x40)\n      swap1\n      dup2\n      add\n      0x40\n      mstore\n      dup1\n      swap3\n      swap2\n      swap1\n      dup2\n      dup2\n      mstore\n      0x20\n      add\n      dup3\n      dup1\n      sload\n      tag_112\n      swap1\n      tag_52\n      jump\t// in\n    tag_112:\n      dup1\n      iszero\n      tag_113\n      jumpi\n      dup1\n      0x1f\n      lt\n      tag_114\n      jumpi\n      0x0100\n      dup1\n      dup4\n      sload\n      div\n      mul\n      dup4\n      mstore\n      swap2\n      0x20\n      add\n      swap2\n      jump(tag_113)\n    tag_114:\n      dup3\n      add\n      swap2\n      swap1\n      0x00\n      mstore\n      keccak256(0x00, 0x20)\n      swap1\n    tag_115:\n      dup2\n      sload\n      dup2\n      mstore\n      swap1\n      0x01\n      add\n      swap1\n      0x20\n      add\n      dup1\n      dup4\n      gt\n      tag_115\n      jumpi\n      dup3\n      swap1\n      sub\n      0x1f\n      and\n      dup3\n      add\n      swap2\n    tag_113:\n      pop\n      pop\n      pop\n      pop\n      pop\n      dup2\n      mstore\n      0x20\n      add\n      0x02\n      dup3\n      add\n      dup1\n      sload\n      tag_116\n      swap1\n      tag_52\n      jump\t// in\n    tag_116:\n      dup1\n      0x1f\n      add\n      0x20\n      dup1\n      swap2\n      div\n      mul\n      0x20\n      add\n      mload(0x40)\n      swap1\n      dup2\n      add\n      0x40\n      mstore\n      dup1\n      swap3\n      swap2\n      swap1\n      dup2\n      dup2\n      mstore\n      0x20\n      add\n      dup3\n      dup1\n      sload\n      tag_117\n      swap1\n      tag_52\n      jump\t// in\n    tag_117:\n      dup1\n      iszero\n      tag_118\n      jumpi\n      dup1\n      0x1f\n      lt\n      tag_119\n      jumpi\n      0x0100\n      dup1\n      dup4\n      sload\n      div\n      mul\n      dup4\n      mstore\n      swap2\n      0x20\n      add\n      swap2\n      jump(tag_118)\n    tag_119:\n      dup3\n      add\n      swap2\n      swap1\n      0x00\n      mstore\n      keccak256(0x00, 0x20)\n      swap1\n    tag_120:\n      dup2\n      sload\n      dup2\n      mstore\n      swap1\n      0x01\n      add\n      swap1\n      0x20\n      add\n      dup1\n      dup4\n      gt\n      tag_120\n      jumpi\n      dup3\n      swap1\n      sub\n      0x1f\n      and\n      dup3\n      add\n      swap2\n    tag_118:\n      pop\n      pop\n      pop\n      pop\n      pop\n      dup2\n      mstore\n      0x20\n      add\n      0x03\n      dup3\n      add\n      dup1\n      sload\n      tag_121\n      swap1\n      tag_52\n      jump\t// in\n    tag_121:\n      dup1\n      0x1f\n      add\n      0x20\n      dup1\n      swap2\n      div\n      mul\n      0x20\n      add\n      mload(0x40)\n      swap1\n      dup2\n      add\n      0x40\n      mstore\n      dup1\n      swap3\n      swap2\n      swap1\n      dup2\n      dup2\n      mstore\n      0x20\n      add\n      dup3\n      dup1\n      sload\n      tag_122\n      swap1\n      tag_52\n      jump\t// in\n    tag_122:\n      dup1\n      iszero\n      tag_123\n      jumpi\n      dup1\n      0x1f\n      lt\n      tag_124\n      jumpi\n      0x0100\n      dup1\n      dup4\n      sload\n      div\n      mul\n      dup4\n      mstore\n      swap2\n      0x20\n      add\n      swap2\n      jump(tag_123)\n    tag_124:\n      dup3\n      add\n      swap2\n      swap1\n      0x00\n      mstore\n      keccak256(0x00, 0x20)\n      swap1\n    tag_125:\n      dup2\n      sload\n      dup2\n      mstore\n      swap1\n      0x01\n      add\n      swap1\n      0x20\n      add\n      dup1\n      dup4\n      gt\n      tag_125\n      jumpi\n      dup3\n      swap1\n      sub\n      0x1f\n      and\n      dup3\n      add\n      swap2\n    tag_123:\n      pop\n      pop\n      pop\n      pop\n      pop\n      dup2\n      mstore\n      0x20\n      add\n      0x04\n      dup3\n      add\n      dup1\n      sload\n      tag_126\n      swap1\n      tag_52\n      jump\t// in\n    tag_126:\n      dup1\n      0x1f\n      add\n      0x20\n      dup1\n      swap2\n      div\n      mul\n      0x20\n      add\n      mload(0x40)\n      swap1\n      dup2\n      add\n      0x40\n      mstore\n      dup1\n      swap3\n      swap2\n      swap1\n      dup2\n      dup2\n      mstore\n      0x20\n      add\n      dup3\n      dup1\n      sload\n      tag_127\n      swap1\n      tag_52\n      jump\t// in\n    tag_127:\n      dup1\n      iszero\n      tag_128\n      jumpi\n      dup1\n      0x1f\n      lt\n      tag_129\n      jumpi\n      0x0100\n      dup1\n      dup4\n      sload\n      div\n      mul\n      dup4\n      mstore\n      swap2\n      0x20\n      add\n      swap2\n      jump(tag_128)\n    tag_129:\n      dup3\n      add\n      swap2\n      swap1\n      0x00\n      mstore\n      keccak256(0x00, 0x20)\n      swap1\n    tag_130:\n      dup2\n      sload\n      dup2\n      mstore\n      swap1\n      0x01\n      add\n      swap1\n      0x20\n      add\n      dup1\n      dup4\n      gt\n      tag_130\n      jumpi\n      dup3\n      swap1\n      sub\n      0x1f\n      and\n      dup3\n      add\n      swap2\n    tag_128:\n      pop\n      pop\n      pop\n      pop\n      pop\n      dup2\n      mstore\n      0x20\n      add\n      0x05\n      dup3\n      add\n      dup1\n      sload\n      tag_131\n      swap1\n      tag_52\n      jump\t// in\n    tag_131:\n      dup1\n      0x1f\n      add\n      0x20\n      dup1\n      swap2\n      div\n      mul\n      0x20\n      add\n      mload(0x40)\n      swap1\n      dup2\n      add\n      0x40\n      mstore\n      dup1\n      swap3\n      swap2\n      swap1\n      dup2\n      dup2\n      mstore\n      0x20\n      add\n      dup3\n      dup1\n      sload\n      tag_132\n      swap1\n      tag_52\n      jump\t// in\n    tag_132:\n      dup1\n      iszero\n      tag_133\n      jumpi\n      dup1\n      0x1f\n      lt\n      tag_134\n      jumpi\n      0x0100\n      dup1\n      dup4\n      sload\n      div\n      mul\n      dup4\n      mstore\n      swap2\n      0x20\n      add\n      swap2\n      jump(tag_133)\n    tag_134:\n      dup3\n      add\n      swap2\n      swap1\n      0x00\n      mstore\n      keccak256(0x00, 0x20)\n      swap1\n    tag_135:\n      dup2\n      sload\n      dup2\n      mstore\n      swap1\n      0x01\n      add\n      swap1\n      0x20\n      add\n      dup1\n      dup4\n      gt\n      tag_135\n      jumpi\n      dup3\n      swap1\n      sub\n      0x1f\n      and\n      dup3\n      add\n      swap2\n    tag_133:\n      pop\n      pop\n      pop\n      pop\n      pop\n      dup2\n      mstore\n      0x20\n      add\n      0x06\n      dup3\n      add\n      dup1\n      sload\n      tag_136\n      swap1\n      tag_52\n      jump\t// in\n    tag_136:\n      dup1\n      0x1f\n      add\n      0x20\n      dup1\n      swap2\n      div\n      mul\n      0x20\n      add\n      mload(0x40)\n      swap1\n      dup2\n      add\n      0x40\n      mstore\n      dup1\n      swap3\n      swap2\n      swap1\n      dup2\n      dup2\n      mstore\n      0x20\n      add\n      dup3\n      dup1\n      sload\n      tag_137\n      swap1\n      tag_52\n      jump\t// in\n    tag_137:\n      dup1\n      iszero\n      tag_138\n      jumpi\n      dup1\n      0x1f\n      lt\n      tag_139\n      jumpi\n      0x0100\n      dup1\n      dup4\n      sload\n      div\n      mul\n      dup4\n      mstore\n      swap2\n      0x20\n      add\n      swap2\n      jump(tag_138)\n    tag_139:\n      dup3\n      add\n      swap2\n      swap1\n      0x00\n      mstore\n      keccak256(0x00, 0x20)\n      swap1\n    tag_140:\n      dup2\n      sload\n      dup2\n      mstore\n      swap1\n      0x01\n      add\n      swap1\n      0x20\n      add\n      dup1\n      dup4\n      gt\n      tag_140\n      jumpi\n      dup3\n      swap1\n      sub\n      0x1f\n      and\n      dup3\n      add\n      swap2\n    tag_138:\n      pop\n      pop\n      pop\n      pop\n      pop\n      dup2\n      mstore\n      0x20\n      add\n      0x07\n      dup3\n      add\n      dup1\n      sload\n      tag_141\n      swap1\n      tag_52\n      jump\t// in\n    tag_141:\n      dup1\n      0x1f\n      add\n      0x20\n      dup1\n      swap2\n      div\n      mul\n      0x20\n      add\n      mload(0x40)\n      swap1\n      dup2\n      add\n      0x40\n      mstore\n      dup1\n      swap3\n      swap2\n      swap1\n      dup2\n      dup2\n      mstore\n      0x20\n      add\n      dup3\n      dup1\n      sload\n      tag_142\n      swap1\n      tag_52\n      jump\t// in\n    tag_142:\n      dup1\n      iszero\n      tag_143\n      jumpi\n      dup1\n      0x1f\n      lt\n      tag_144\n      jumpi\n      0x0100\n      dup1\n      dup4\n      sload\n      div\n      mul\n      dup4\n      mstore\n      swap2\n      0x20\n      add\n      swap2\n      jump(tag_143)\n    tag_144:\n      dup3\n      add\n      swap2\n      swap1\n      0x00\n      mstore\n      keccak256(0x00, 0x20)\n      swap1\n    tag_145:\n      dup2\n      sload\n      dup2\n      mstore\n      swap1\n      0x01\n      add\n      swap1\n      0x20\n      add\n      dup1\n      dup4\n      gt\n      tag_145\n      jumpi\n      dup3\n      swap1\n      sub\n      0x1f\n      and\n      dup3\n      add\n      swap2\n    tag_143:\n      pop\n      pop\n      pop\n      pop\n      pop\n      dup2\n      mstore\n      0x20\n      add\n      0x08\n      dup3\n      add\n      sload\n      dup2\n      mstore\n      pop\n      pop\n        /* \"contracts/TransactionContract28April.sol\":4407:4420  _transactions */\n      dup4\n        /* \"contracts/TransactionContract28April.sol\":4421:4422  j */\n      dup4\n        /* \"contracts/TransactionContract28April.sol\":4407:4423  _transactions[j] */\n      dup2\n      mload\n      dup2\n      lt\n      tag_146\n      jumpi\n      tag_147\n      tag_148\n      jump\t// in\n    tag_147:\n    tag_146:\n      0x20\n      mul\n      0x20\n      add\n      add\n        /* \"contracts/TransactionContract28April.sol\":4407:4441  _transactions[j] = transactions[i] */\n      dup2\n      swap1\n      mstore\n      pop\n        /* \"contracts/TransactionContract28April.sol\":4459:4462  j++ */\n      dup2\n      dup1\n      tag_149\n      swap1\n      tag_97\n      jump\t// in\n    tag_149:\n      swap3\n      pop\n      pop\n        /* \"contracts/TransactionContract28April.sol\":4246:4477  if (... */\n    tag_110:\n        /* \"contracts/TransactionContract28April.sol\":4227:4230  i++ */\n      dup1\n      dup1\n      tag_150\n      swap1\n      tag_97\n      jump\t// in\n    tag_150:\n      swap2\n      pop\n      pop\n        /* \"contracts/TransactionContract28April.sol\":4187:4487  for (uint i = 1; i <= transactionCount; i++) {... */\n      jump(tag_105)\n    tag_106:\n      pop\n        /* \"contracts/TransactionContract28April.sol\":4503:4516  _transactions */\n      dup2\n        /* \"contracts/TransactionContract28April.sol\":4496:4516  return _transactions */\n      swap4\n      pop\n      pop\n      pop\n      pop\n        /* \"contracts/TransactionContract28April.sol\":3685:4523  function getTransactionBySellerId(... */\n      swap2\n      swap1\n      pop\n      jump\t// out\n        /* \"contracts/TransactionContract28April.sol\":928:976  mapping(uint => Transaction) public transactions */\n    tag_26:\n      mstore(0x20, 0x00)\n      dup1\n      0x00\n      mstore\n      keccak256(0x00, 0x40)\n      0x00\n      swap2\n      pop\n      swap1\n      pop\n      dup1\n      0x00\n      add\n      sload\n      swap1\n      dup1\n      0x01\n      add\n      dup1\n      sload\n      tag_151\n      swap1\n      tag_52\n      jump\t// in\n    tag_151:\n      dup1\n      0x1f\n      add\n      0x20\n      dup1\n      swap2\n      div\n      mul\n      0x20\n      add\n      mload(0x40)\n      swap1\n      dup2\n      add\n      0x40\n      mstore\n      dup1\n      swap3\n      swap2\n      swap1\n      dup2\n      dup2\n      mstore\n      0x20\n      add\n      dup3\n      dup1\n      sload\n      tag_152\n      swap1\n      tag_52\n      jump\t// in\n    tag_152:\n      dup1\n      iszero\n      tag_153\n      jumpi\n      dup1\n      0x1f\n      lt\n      tag_154\n      jumpi\n      0x0100\n      dup1\n      dup4\n      sload\n      div\n      mul\n      dup4\n      mstore\n      swap2\n      0x20\n      add\n      swap2\n      jump(tag_153)\n    tag_154:\n      dup3\n      add\n      swap2\n      swap1\n      0x00\n      mstore\n      keccak256(0x00, 0x20)\n      swap1\n    tag_155:\n      dup2\n      sload\n      dup2\n      mstore\n      swap1\n      0x01\n      add\n      swap1\n      0x20\n      add\n      dup1\n      dup4\n      gt\n      tag_155\n      jumpi\n      dup3\n      swap1\n      sub\n      0x1f\n      and\n      dup3\n      add\n      swap2\n    tag_153:\n      pop\n      pop\n      pop\n      pop\n      pop\n      swap1\n      dup1\n      0x02\n      add\n      dup1\n      sload\n      tag_156\n      swap1\n      tag_52\n      jump\t// in\n    tag_156:\n      dup1\n      0x1f\n      add\n      0x20\n      dup1\n      swap2\n      div\n      mul\n      0x20\n      add\n      mload(0x40)\n      swap1\n      dup2\n      add\n      0x40\n      mstore\n      dup1\n      swap3\n      swap2\n      swap1\n      dup2\n      dup2\n      mstore\n      0x20\n      add\n      dup3\n      dup1\n      sload\n      tag_157\n      swap1\n      tag_52\n      jump\t// in\n    tag_157:\n      dup1\n      iszero\n      tag_158\n      jumpi\n      dup1\n      0x1f\n      lt\n      tag_159\n      jumpi\n      0x0100\n      dup1\n      dup4\n      sload\n      div\n      mul\n      dup4\n      mstore\n      swap2\n      0x20\n      add\n      swap2\n      jump(tag_158)\n    tag_159:\n      dup3\n      add\n      swap2\n      swap1\n      0x00\n      mstore\n      keccak256(0x00, 0x20)\n      swap1\n    tag_160:\n      dup2\n      sload\n      dup2\n      mstore\n      swap1\n      0x01\n      add\n      swap1\n      0x20\n      add\n      dup1\n      dup4\n      gt\n      tag_160\n      jumpi\n      dup3\n      swap1\n      sub\n      0x1f\n      and\n      dup3\n      add\n      swap2\n    tag_158:\n      pop\n      pop\n      pop\n      pop\n      pop\n      swap1\n      dup1\n      0x03\n      add\n      dup1\n      sload\n      tag_161\n      swap1\n      tag_52\n      jump\t// in\n    tag_161:\n      dup1\n      0x1f\n      add\n      0x20\n      dup1\n      swap2\n      div\n      mul\n      0x20\n      add\n      mload(0x40)\n      swap1\n      dup2\n      add\n      0x40\n      mstore\n      dup1\n      swap3\n      swap2\n      swap1\n      dup2\n      dup2\n      mstore\n      0x20\n      add\n      dup3\n      dup1\n      sload\n      tag_162\n      swap1\n      tag_52\n      jump\t// in\n    tag_162:\n      dup1\n      iszero\n      tag_163\n      jumpi\n      dup1\n      0x1f\n      lt\n      tag_164\n      jumpi\n      0x0100\n      dup1\n      dup4\n      sload\n      div\n      mul\n      dup4\n      mstore\n      swap2\n      0x20\n      add\n      swap2\n      jump(tag_163)\n    tag_164:\n      dup3\n      add\n      swap2\n      swap1\n      0x00\n      mstore\n      keccak256(0x00, 0x20)\n      swap1\n    tag_165:\n      dup2\n      sload\n      dup2\n      mstore\n      swap1\n      0x01\n      add\n      swap1\n      0x20\n      add\n      dup1\n      dup4\n      gt\n      tag_165\n      jumpi\n      dup3\n      swap1\n      sub\n      0x1f\n      and\n      dup3\n      add\n      swap2\n    tag_163:\n      pop\n      pop\n      pop\n      pop\n      pop\n      swap1\n      dup1\n      0x04\n      add\n      dup1\n      sload\n      tag_166\n      swap1\n      tag_52\n      jump\t// in\n    tag_166:\n      dup1\n      0x1f\n      add\n      0x20\n      dup1\n      swap2\n      div\n      mul\n      0x20\n      add\n      mload(0x40)\n      swap1\n      dup2\n      add\n      0x40\n      mstore\n      dup1\n      swap3\n      swap2\n      swap1\n      dup2\n      dup2\n      mstore\n      0x20\n      add\n      dup3\n      dup1\n      sload\n      tag_167\n      swap1\n      tag_52\n      jump\t// in\n    tag_167:\n      dup1\n      iszero\n      tag_168\n      jumpi\n      dup1\n      0x1f\n      lt\n      tag_169\n      jumpi\n      0x0100\n      dup1\n      dup4\n      sload\n      div\n      mul\n      dup4\n      mstore\n      swap2\n      0x20\n      add\n      swap2\n      jump(tag_168)\n    tag_169:\n      dup3\n      add\n      swap2\n      swap1\n      0x00\n      mstore\n      keccak256(0x00, 0x20)\n      swap1\n    tag_170:\n      dup2\n      sload\n      dup2\n      mstore\n      swap1\n      0x01\n      add\n      swap1\n      0x20\n      add\n      dup1\n      dup4\n      gt\n      tag_170\n      jumpi\n      dup3\n      swap1\n      sub\n      0x1f\n      and\n      dup3\n      add\n      swap2\n    tag_168:\n      pop\n      pop\n      pop\n      pop\n      pop\n      swap1\n      dup1\n      0x05\n      add\n      dup1\n      sload\n      tag_171\n      swap1\n      tag_52\n      jump\t// in\n    tag_171:\n      dup1\n      0x1f\n      add\n      0x20\n      dup1\n      swap2\n      div\n      mul\n      0x20\n      add\n      mload(0x40)\n      swap1\n      dup2\n      add\n      0x40\n      mstore\n      dup1\n      swap3\n      swap2\n      swap1\n      dup2\n      dup2\n      mstore\n      0x20\n      add\n      dup3\n      dup1\n      sload\n      tag_172\n      swap1\n      tag_52\n      jump\t// in\n    tag_172:\n      dup1\n      iszero\n      tag_173\n      jumpi\n      dup1\n      0x1f\n      lt\n      tag_174\n      jumpi\n      0x0100\n      dup1\n      dup4\n      sload\n      div\n      mul\n      dup4\n      mstore\n      swap2\n      0x20\n      add\n      swap2\n      jump(tag_173)\n    tag_174:\n      dup3\n      add\n      swap2\n      swap1\n      0x00\n      mstore\n      keccak256(0x00, 0x20)\n      swap1\n    tag_175:\n      dup2\n      sload\n      dup2\n      mstore\n      swap1\n      0x01\n      add\n      swap1\n      0x20\n      add\n      dup1\n      dup4\n      gt\n      tag_175\n      jumpi\n      dup3\n      swap1\n      sub\n      0x1f\n      and\n      dup3\n      add\n      swap2\n    tag_173:\n      pop\n      pop\n      pop\n      pop\n      pop\n      swap1\n      dup1\n      0x06\n      add\n      dup1\n      sload\n      tag_176\n      swap1\n      tag_52\n      jump\t// in\n    tag_176:\n      dup1\n      0x1f\n      add\n      0x20\n      dup1\n      swap2\n      div\n      mul\n      0x20\n      add\n      mload(0x40)\n      swap1\n      dup2\n      add\n      0x40\n      mstore\n      dup1\n      swap3\n      swap2\n      swap1\n      dup2\n      dup2\n      mstore\n      0x20\n      add\n      dup3\n      dup1\n      sload\n      tag_177\n      swap1\n      tag_52\n      jump\t// in\n    tag_177:\n      dup1\n      iszero\n      tag_178\n      jumpi\n      dup1\n      0x1f\n      lt\n      tag_179\n      jumpi\n      0x0100\n      dup1\n      dup4\n      sload\n      div\n      mul\n      dup4\n      mstore\n      swap2\n      0x20\n      add\n      swap2\n      jump(tag_178)\n    tag_179:\n      dup3\n      add\n      swap2\n      swap1\n      0x00\n      mstore\n      keccak256(0x00, 0x20)\n      swap1\n    tag_180:\n      dup2\n      sload\n      dup2\n      mstore\n      swap1\n      0x01\n      add\n      swap1\n      0x20\n      add\n      dup1\n      dup4\n      gt\n      tag_180\n      jumpi\n      dup3\n      swap1\n      sub\n      0x1f\n      and\n      dup3\n      add\n      swap2\n    tag_178:\n      pop\n      pop\n      pop\n      pop\n      pop\n      swap1\n      dup1\n      0x07\n      add\n      dup1\n      sload\n      tag_181\n      swap1\n      tag_52\n      jump\t// in\n    tag_181:\n      dup1\n      0x1f\n      add\n      0x20\n      dup1\n      swap2\n      div\n      mul\n      0x20\n      add\n      mload(0x40)\n      swap1\n      dup2\n      add\n      0x40\n      mstore\n      dup1\n      swap3\n      swap2\n      swap1\n      dup2\n      dup2\n      mstore\n      0x20\n      add\n      dup3\n      dup1\n      sload\n      tag_182\n      swap1\n      tag_52\n      jump\t// in\n    tag_182:\n      dup1\n      iszero\n      tag_183\n      jumpi\n      dup1\n      0x1f\n      lt\n      tag_184\n      jumpi\n      0x0100\n      dup1\n      dup4\n      sload\n      div\n      mul\n      dup4\n      mstore\n      swap2\n      0x20\n      add\n      swap2\n      jump(tag_183)\n    tag_184:\n      dup3\n      add\n      swap2\n      swap1\n      0x00\n      mstore\n      keccak256(0x00, 0x20)\n      swap1\n    tag_185:\n      dup2\n      sload\n      dup2\n      mstore\n      swap1\n      0x01\n      add\n      swap1\n      0x20\n      add\n      dup1\n      dup4\n      gt\n      tag_185\n      jumpi\n      dup3\n      swap1\n      sub\n      0x1f\n      and\n      dup3\n      add\n      swap2\n    tag_183:\n      pop\n      pop\n      pop\n      pop\n      pop\n      swap1\n      dup1\n      0x08\n      add\n      sload\n      swap1\n      pop\n      dup10\n      jump\t// out\n        /* \"contracts/TransactionContract28April.sol\":1017:1872  function addTransaction(... */\n    tag_32:\n        /* \"contracts/TransactionContract28April.sol\":1317:1333  transactionCount */\n      0x01\n      0x00\n        /* \"contracts/TransactionContract28April.sol\":1317:1335  transactionCount++ */\n      dup2\n      sload\n      dup1\n      swap3\n      swap2\n      swap1\n      tag_187\n      swap1\n      tag_97\n      jump\t// in\n    tag_187:\n      swap2\n      swap1\n      pop\n      sstore\n      pop\n        /* \"contracts/TransactionContract28April.sol\":1378:1611  Transaction(... */\n      mload(0x40)\n      dup1\n      0x0120\n      add\n      0x40\n      mstore\n      dup1\n        /* \"contracts/TransactionContract28April.sol\":1403:1419  transactionCount */\n      sload(0x01)\n        /* \"contracts/TransactionContract28April.sol\":1378:1611  Transaction(... */\n      dup2\n      mstore\n      0x20\n      add\n        /* \"contracts/TransactionContract28April.sol\":1433:1449  _transactionCode */\n      dup10\n        /* \"contracts/TransactionContract28April.sol\":1378:1611  Transaction(... */\n      dup2\n      mstore\n      0x20\n      add\n        /* \"contracts/TransactionContract28April.sol\":1463:1468  _from */\n      dup9\n        /* \"contracts/TransactionContract28April.sol\":1378:1611  Transaction(... */\n      dup2\n      mstore\n      0x20\n      add\n        /* \"contracts/TransactionContract28April.sol\":1482:1489  _fromId */\n      dup8\n        /* \"contracts/TransactionContract28April.sol\":1378:1611  Transaction(... */\n      dup2\n      mstore\n      0x20\n      add\n        /* \"contracts/TransactionContract28April.sol\":1503:1506  _to */\n      dup7\n        /* \"contracts/TransactionContract28April.sol\":1378:1611  Transaction(... */\n      dup2\n      mstore\n      0x20\n      add\n        /* \"contracts/TransactionContract28April.sol\":1520:1525  _toId */\n      dup6\n        /* \"contracts/TransactionContract28April.sol\":1378:1611  Transaction(... */\n      dup2\n      mstore\n      0x20\n      add\n        /* \"contracts/TransactionContract28April.sol\":1539:1549  _orderType */\n      dup5\n        /* \"contracts/TransactionContract28April.sol\":1378:1611  Transaction(... */\n      dup2\n      mstore\n      0x20\n      add\n        /* \"contracts/TransactionContract28April.sol\":1563:1577  _paymentStatus */\n      dup4\n        /* \"contracts/TransactionContract28April.sol\":1378:1611  Transaction(... */\n      dup2\n      mstore\n      0x20\n      add\n        /* \"contracts/TransactionContract28April.sol\":1591:1601  _createdAt */\n      dup3\n        /* \"contracts/TransactionContract28April.sol\":1378:1611  Transaction(... */\n      dup2\n      mstore\n      pop\n        /* \"contracts/TransactionContract28April.sol\":1345:1357  transactions */\n      0x00\n        /* \"contracts/TransactionContract28April.sol\":1345:1375  transactions[transactionCount] */\n      dup1\n        /* \"contracts/TransactionContract28April.sol\":1358:1374  transactionCount */\n      sload(0x01)\n        /* \"contracts/TransactionContract28April.sol\":1345:1375  transactions[transactionCount] */\n      dup2\n      mstore\n      0x20\n      add\n      swap1\n      dup2\n      mstore\n      0x20\n      add\n      0x00\n      keccak256\n        /* \"contracts/TransactionContract28April.sol\":1345:1611  transactions[transactionCount] = Transaction(... */\n      0x00\n      dup3\n      add\n      mload\n      dup2\n      0x00\n      add\n      sstore\n      0x20\n      dup3\n      add\n      mload\n      dup2\n      0x01\n      add\n      swap1\n      dup2\n      tag_188\n      swap2\n      swap1\n      tag_189\n      jump\t// in\n    tag_188:\n      pop\n      0x40\n      dup3\n      add\n      mload\n      dup2\n      0x02\n      add\n      swap1\n      dup2\n      tag_190\n      swap2\n      swap1\n      tag_189\n      jump\t// in\n    tag_190:\n      pop\n      0x60\n      dup3\n      add\n      mload\n      dup2\n      0x03\n      add\n      swap1\n      dup2\n      tag_191\n      swap2\n      swap1\n      tag_189\n      jump\t// in\n    tag_191:\n      pop\n      0x80\n      dup3\n      add\n      mload\n      dup2\n      0x04\n      add\n      swap1\n      dup2\n      tag_192\n      swap2\n      swap1\n      tag_189\n      jump\t// in\n    tag_192:\n      pop\n      0xa0\n      dup3\n      add\n      mload\n      dup2\n      0x05\n      add\n      swap1\n      dup2\n      tag_193\n      swap2\n      swap1\n      tag_189\n      jump\t// in\n    tag_193:\n      pop\n      0xc0\n      dup3\n      add\n      mload\n      dup2\n      0x06\n      add\n      swap1\n      dup2\n      tag_194\n      swap2\n      swap1\n      tag_189\n      jump\t// in\n    tag_194:\n      pop\n      0xe0\n      dup3\n      add\n      mload\n      dup2\n      0x07\n      add\n      swap1\n      dup2\n      tag_195\n      swap2\n      swap1\n      tag_189\n      jump\t// in\n    tag_195:\n      pop\n      0x0100\n      dup3\n      add\n      mload\n      dup2\n      0x08\n      add\n      sstore\n      swap1\n      pop\n      pop\n        /* \"contracts/TransactionContract28April.sol\":1657:1673  transactionCount */\n      sload(0x01)\n        /* \"contracts/TransactionContract28April.sol\":1627:1865  TransactionAdded(... */\n      0x07b4968f6fa44d4c825736654173422261c8568a6c3da8a5b336270401bd3c8b\n        /* \"contracts/TransactionContract28April.sol\":1687:1703  _transactionCode */\n      dup10\n        /* \"contracts/TransactionContract28April.sol\":1717:1722  _from */\n      dup10\n        /* \"contracts/TransactionContract28April.sol\":1736:1743  _fromId */\n      dup10\n        /* \"contracts/TransactionContract28April.sol\":1757:1760  _to */\n      dup10\n        /* \"contracts/TransactionContract28April.sol\":1774:1779  _toId */\n      dup10\n        /* \"contracts/TransactionContract28April.sol\":1793:1803  _orderType */\n      dup10\n        /* \"contracts/TransactionContract28April.sol\":1817:1831  _paymentStatus */\n      dup10\n        /* \"contracts/TransactionContract28April.sol\":1845:1855  _createdAt */\n      dup10\n        /* \"contracts/TransactionContract28April.sol\":1627:1865  TransactionAdded(... */\n      mload(0x40)\n      tag_196\n      swap9\n      swap8\n      swap7\n      swap6\n      swap5\n      swap4\n      swap3\n      swap2\n      swap1\n      tag_197\n      jump\t// in\n    tag_196:\n      mload(0x40)\n      dup1\n      swap2\n      sub\n      swap1\n      log2\n        /* \"contracts/TransactionContract28April.sol\":1017:1872  function addTransaction(... */\n      pop\n      pop\n      pop\n      pop\n      pop\n      pop\n      pop\n      pop\n      jump\t// out\n        /* \"contracts/TransactionContract28April.sol\":2505:2835  function getAllTransaction() public view returns (Transaction[] memory) {... */\n    tag_34:\n        /* \"contracts/TransactionContract28April.sol\":2555:2575  Transaction[] memory */\n      0x60\n        /* \"contracts/TransactionContract28April.sol\":2587:2621  Transaction[] memory _transactions */\n      0x00\n        /* \"contracts/TransactionContract28April.sol\":2655:2671  transactionCount */\n      sload(0x01)\n        /* \"contracts/TransactionContract28April.sol\":2624:2681  new Transaction[](... */\n      0xffffffffffffffff\n      dup2\n      gt\n      iszero\n      tag_199\n      jumpi\n      tag_200\n      tag_101\n      jump\t// in\n    tag_200:\n    tag_199:\n      mload(0x40)\n      swap1\n      dup1\n      dup3\n      mstore\n      dup1\n      0x20\n      mul\n      0x20\n      add\n      dup3\n      add\n      0x40\n      mstore\n      dup1\n      iszero\n      tag_201\n      jumpi\n      dup2\n      0x20\n      add\n    tag_202:\n      tag_203\n      tag_49\n      jump\t// in\n    tag_203:\n      dup2\n      mstore\n      0x20\n      add\n      swap1\n      0x01\n      swap1\n      sub\n      swap1\n      dup2\n      tag_202\n      jumpi\n      swap1\n      pop\n    tag_201:\n      pop\n        /* \"contracts/TransactionContract28April.sol\":2587:2681  Transaction[] memory _transactions = new Transaction[](... */\n      swap1\n      pop\n        /* \"contracts/TransactionContract28April.sol\":2696:2702  uint i */\n      0x00\n        /* \"contracts/TransactionContract28April.sol\":2705:2706  1 */\n      0x01\n        /* \"contracts/TransactionContract28April.sol\":2696:2706  uint i = 1 */\n      swap1\n      pop\n        /* \"contracts/TransactionContract28April.sol\":2691:2799  for (uint i = 1; i <= transactionCount; i++) {... */\n    tag_204:\n        /* \"contracts/TransactionContract28April.sol\":2713:2729  transactionCount */\n      sload(0x01)\n        /* \"contracts/TransactionContract28April.sol\":2708:2709  i */\n      dup2\n        /* \"contracts/TransactionContract28April.sol\":2708:2729  i <= transactionCount */\n      gt\n        /* \"contracts/TransactionContract28April.sol\":2691:2799  for (uint i = 1; i <= transactionCount; i++) {... */\n      tag_205\n      jumpi\n        /* \"contracts/TransactionContract28April.sol\":2773:2785  transactions */\n      0x00\n        /* \"contracts/TransactionContract28April.sol\":2773:2788  transactions[i] */\n      dup1\n        /* \"contracts/TransactionContract28April.sol\":2786:2787  i */\n      dup3\n        /* \"contracts/TransactionContract28April.sol\":2773:2788  transactions[i] */\n      dup2\n      mstore\n      0x20\n      add\n      swap1\n      dup2\n      mstore\n      0x20\n      add\n      0x00\n      keccak256\n        /* \"contracts/TransactionContract28April.sol\":2750:2788  _transactions[i - 1] = transactions[i] */\n      mload(0x40)\n      dup1\n      0x0120\n      add\n      0x40\n      mstore\n      swap1\n      dup2\n      0x00\n      dup3\n      add\n      sload\n      dup2\n      mstore\n      0x20\n      add\n      0x01\n      dup3\n      add\n      dup1\n      sload\n      tag_207\n      swap1\n      tag_52\n      jump\t// in\n    tag_207:\n      dup1\n      0x1f\n      add\n      0x20\n      dup1\n      swap2\n      div\n      mul\n      0x20\n      add\n      mload(0x40)\n      swap1\n      dup2\n      add\n      0x40\n      mstore\n      dup1\n      swap3\n      swap2\n      swap1\n      dup2\n      dup2\n      mstore\n      0x20\n      add\n      dup3\n      dup1\n      sload\n      tag_208\n      swap1\n      tag_52\n      jump\t// in\n    tag_208:\n      dup1\n      iszero\n      tag_209\n      jumpi\n      dup1\n      0x1f\n      lt\n      tag_210\n      jumpi\n      0x0100\n      dup1\n      dup4\n      sload\n      div\n      mul\n      dup4\n      mstore\n      swap2\n      0x20\n      add\n      swap2\n      jump(tag_209)\n    tag_210:\n      dup3\n      add\n      swap2\n      swap1\n      0x00\n      mstore\n      keccak256(0x00, 0x20)\n      swap1\n    tag_211:\n      dup2\n      sload\n      dup2\n      mstore\n      swap1\n      0x01\n      add\n      swap1\n      0x20\n      add\n      dup1\n      dup4\n      gt\n      tag_211\n      jumpi\n      dup3\n      swap1\n      sub\n      0x1f\n      and\n      dup3\n      add\n      swap2\n    tag_209:\n      pop\n      pop\n      pop\n      pop\n      pop\n      dup2\n      mstore\n      0x20\n      add\n      0x02\n      dup3\n      add\n      dup1\n      sload\n      tag_212\n      swap1\n      tag_52\n      jump\t// in\n    tag_212:\n      dup1\n      0x1f\n      add\n      0x20\n      dup1\n      swap2\n      div\n      mul\n      0x20\n      add\n      mload(0x40)\n      swap1\n      dup2\n      add\n      0x40\n      mstore\n      dup1\n      swap3\n      swap2\n      swap1\n      dup2\n      dup2\n      mstore\n      0x20\n      add\n      dup3\n      dup1\n      sload\n      tag_213\n      swap1\n      tag_52\n      jump\t// in\n    tag_213:\n      dup1\n      iszero\n      tag_214\n      jumpi\n      dup1\n      0x1f\n      lt\n      tag_215\n      jumpi\n      0x0100\n      dup1\n      dup4\n      sload\n      div\n      mul\n      dup4\n      mstore\n      swap2\n      0x20\n      add\n      swap2\n      jump(tag_214)\n    tag_215:\n      dup3\n      add\n      swap2\n      swap1\n      0x00\n      mstore\n      keccak256(0x00, 0x20)\n      swap1\n    tag_216:\n      dup2\n      sload\n      dup2\n      mstore\n      swap1\n      0x01\n      add\n      swap1\n      0x20\n      add\n      dup1\n      dup4\n      gt\n      tag_216\n      jumpi\n      dup3\n      swap1\n      sub\n      0x1f\n      and\n      dup3\n      add\n      swap2\n    tag_214:\n      pop\n      pop\n      pop\n      pop\n      pop\n      dup2\n      mstore\n      0x20\n      add\n      0x03\n      dup3\n      add\n      dup1\n      sload\n      tag_217\n      swap1\n      tag_52\n      jump\t// in\n    tag_217:\n      dup1\n      0x1f\n      add\n      0x20\n      dup1\n      swap2\n      div\n      mul\n      0x20\n      add\n      mload(0x40)\n      swap1\n      dup2\n      add\n      0x40\n      mstore\n      dup1\n      swap3\n      swap2\n      swap1\n      dup2\n      dup2\n      mstore\n      0x20\n      add\n      dup3\n      dup1\n      sload\n      tag_218\n      swap1\n      tag_52\n      jump\t// in\n    tag_218:\n      dup1\n      iszero\n      tag_219\n      jumpi\n      dup1\n      0x1f\n      lt\n      tag_220\n      jumpi\n      0x0100\n      dup1\n      dup4\n      sload\n      div\n      mul\n      dup4\n      mstore\n      swap2\n      0x20\n      add\n      swap2\n      jump(tag_219)\n    tag_220:\n      dup3\n      add\n      swap2\n      swap1\n      0x00\n      mstore\n      keccak256(0x00, 0x20)\n      swap1\n    tag_221:\n      dup2\n      sload\n      dup2\n      mstore\n      swap1\n      0x01\n      add\n      swap1\n      0x20\n      add\n      dup1\n      dup4\n      gt\n      tag_221\n      jumpi\n      dup3\n      swap1\n      sub\n      0x1f\n      and\n      dup3\n      add\n      swap2\n    tag_219:\n      pop\n      pop\n      pop\n      pop\n      pop\n      dup2\n      mstore\n      0x20\n      add\n      0x04\n      dup3\n      add\n      dup1\n      sload\n      tag_222\n      swap1\n      tag_52\n      jump\t// in\n    tag_222:\n      dup1\n      0x1f\n      add\n      0x20\n      dup1\n      swap2\n      div\n      mul\n      0x20\n      add\n      mload(0x40)\n      swap1\n      dup2\n      add\n      0x40\n      mstore\n      dup1\n      swap3\n      swap2\n      swap1\n      dup2\n      dup2\n      mstore\n      0x20\n      add\n      dup3\n      dup1\n      sload\n      tag_223\n      swap1\n      tag_52\n      jump\t// in\n    tag_223:\n      dup1\n      iszero\n      tag_224\n      jumpi\n      dup1\n      0x1f\n      lt\n      tag_225\n      jumpi\n      0x0100\n      dup1\n      dup4\n      sload\n      div\n      mul\n      dup4\n      mstore\n      swap2\n      0x20\n      add\n      swap2\n      jump(tag_224)\n    tag_225:\n      dup3\n      add\n      swap2\n      swap1\n      0x00\n      mstore\n      keccak256(0x00, 0x20)\n      swap1\n    tag_226:\n      dup2\n      sload\n      dup2\n      mstore\n      swap1\n      0x01\n      add\n      swap1\n      0x20\n      add\n      dup1\n      dup4\n      gt\n      tag_226\n      jumpi\n      dup3\n      swap1\n      sub\n      0x1f\n      and\n      dup3\n      add\n      swap2\n    tag_224:\n      pop\n      pop\n      pop\n      pop\n      pop\n      dup2\n      mstore\n      0x20\n      add\n      0x05\n      dup3\n      add\n      dup1\n      sload\n      tag_227\n      swap1\n      tag_52\n      jump\t// in\n    tag_227:\n      dup1\n      0x1f\n      add\n      0x20\n      dup1\n      swap2\n      div\n      mul\n      0x20\n      add\n      mload(0x40)\n      swap1\n      dup2\n      add\n      0x40\n      mstore\n      dup1\n      swap3\n      swap2\n      swap1\n      dup2\n      dup2\n      mstore\n      0x20\n      add\n      dup3\n      dup1\n      sload\n      tag_228\n      swap1\n      tag_52\n      jump\t// in\n    tag_228:\n      dup1\n      iszero\n      tag_229\n      jumpi\n      dup1\n      0x1f\n      lt\n      tag_230\n      jumpi\n      0x0100\n      dup1\n      dup4\n      sload\n      div\n      mul\n      dup4\n      mstore\n      swap2\n      0x20\n      add\n      swap2\n      jump(tag_229)\n    tag_230:\n      dup3\n      add\n      swap2\n      swap1\n      0x00\n      mstore\n      keccak256(0x00, 0x20)\n      swap1\n    tag_231:\n      dup2\n      sload\n      dup2\n      mstore\n      swap1\n      0x01\n      add\n      swap1\n      0x20\n      add\n      dup1\n      dup4\n      gt\n      tag_231\n      jumpi\n      dup3\n      swap1\n      sub\n      0x1f\n      and\n      dup3\n      add\n      swap2\n    tag_229:\n      pop\n      pop\n      pop\n      pop\n      pop\n      dup2\n      mstore\n      0x20\n      add\n      0x06\n      dup3\n      add\n      dup1\n      sload\n      tag_232\n      swap1\n      tag_52\n      jump\t// in\n    tag_232:\n      dup1\n      0x1f\n      add\n      0x20\n      dup1\n      swap2\n      div\n      mul\n      0x20\n      add\n      mload(0x40)\n      swap1\n      dup2\n      add\n      0x40\n      mstore\n      dup1\n      swap3\n      swap2\n      swap1\n      dup2\n      dup2\n      mstore\n      0x20\n      add\n      dup3\n      dup1\n      sload\n      tag_233\n      swap1\n      tag_52\n      jump\t// in\n    tag_233:\n      dup1\n      iszero\n      tag_234\n      jumpi\n      dup1\n      0x1f\n      lt\n      tag_235\n      jumpi\n      0x0100\n      dup1\n      dup4\n      sload\n      div\n      mul\n      dup4\n      mstore\n      swap2\n      0x20\n      add\n      swap2\n      jump(tag_234)\n    tag_235:\n      dup3\n      add\n      swap2\n      swap1\n      0x00\n      mstore\n      keccak256(0x00, 0x20)\n      swap1\n    tag_236:\n      dup2\n      sload\n      dup2\n      mstore\n      swap1\n      0x01\n      add\n      swap1\n      0x20\n      add\n      dup1\n      dup4\n      gt\n      tag_236\n      jumpi\n      dup3\n      swap1\n      sub\n      0x1f\n      and\n      dup3\n      add\n      swap2\n    tag_234:\n      pop\n      pop\n      pop\n      pop\n      pop\n      dup2\n      mstore\n      0x20\n      add\n      0x07\n      dup3\n      add\n      dup1\n      sload\n      tag_237\n      swap1\n      tag_52\n      jump\t// in\n    tag_237:\n      dup1\n      0x1f\n      add\n      0x20\n      dup1\n      swap2\n      div\n      mul\n      0x20\n      add\n      mload(0x40)\n      swap1\n      dup2\n      add\n      0x40\n      mstore\n      dup1\n      swap3\n      swap2\n      swap1\n      dup2\n      dup2\n      mstore\n      0x20\n      add\n      dup3\n      dup1\n      sload\n      tag_238\n      swap1\n      tag_52\n      jump\t// in\n    tag_238:\n      dup1\n      iszero\n      tag_239\n      jumpi\n      dup1\n      0x1f\n      lt\n      tag_240\n      jumpi\n      0x0100\n      dup1\n      dup4\n      sload\n      div\n      mul\n      dup4\n      mstore\n      swap2\n      0x20\n      add\n      swap2\n      jump(tag_239)\n    tag_240:\n      dup3\n      add\n      swap2\n      swap1\n      0x00\n      mstore\n      keccak256(0x00, 0x20)\n      swap1\n    tag_241:\n      dup2\n      sload\n      dup2\n      mstore\n      swap1\n      0x01\n      add\n      swap1\n      0x20\n      add\n      dup1\n      dup4\n      gt\n      tag_241\n      jumpi\n      dup3\n      swap1\n      sub\n      0x1f\n      and\n      dup3\n      add\n      swap2\n    tag_239:\n      pop\n      pop\n      pop\n      pop\n      pop\n      dup2\n      mstore\n      0x20\n      add\n      0x08\n      dup3\n      add\n      sload\n      dup2\n      mstore\n      pop\n      pop\n        /* \"contracts/TransactionContract28April.sol\":2750:2763  _transactions */\n      dup3\n        /* \"contracts/TransactionContract28April.sol\":2768:2769  1 */\n      0x01\n        /* \"contracts/TransactionContract28April.sol\":2764:2765  i */\n      dup4\n        /* \"contracts/TransactionContract28April.sol\":2764:2769  i - 1 */\n      tag_242\n      swap2\n      swap1\n      tag_243\n      jump\t// in\n    tag_242:\n        /* \"contracts/TransactionContract28April.sol\":2750:2770  _transactions[i - 1] */\n      dup2\n      mload\n      dup2\n      lt\n      tag_244\n      jumpi\n      tag_245\n      tag_148\n      jump\t// in\n    tag_245:\n    tag_244:\n      0x20\n      mul\n      0x20\n      add\n      add\n        /* \"contracts/TransactionContract28April.sol\":2750:2788  _transactions[i - 1] = transactions[i] */\n      dup2\n      swap1\n      mstore\n      pop\n        /* \"contracts/TransactionContract28April.sol\":2731:2734  i++ */\n      dup1\n      dup1\n      tag_246\n      swap1\n      tag_97\n      jump\t// in\n    tag_246:\n      swap2\n      pop\n      pop\n        /* \"contracts/TransactionContract28April.sol\":2691:2799  for (uint i = 1; i <= transactionCount; i++) {... */\n      jump(tag_204)\n    tag_205:\n      pop\n        /* \"contracts/TransactionContract28April.sol\":2815:2828  _transactions */\n      dup1\n        /* \"contracts/TransactionContract28April.sol\":2808:2828  return _transactions */\n      swap2\n      pop\n      pop\n        /* \"contracts/TransactionContract28April.sol\":2505:2835  function getAllTransaction() public view returns (Transaction[] memory) {... */\n      swap1\n      jump\t// out\n        /* \"contracts/TransactionContract28April.sol\":982:1010  uint public transactionCount */\n    tag_37:\n      sload(0x01)\n      dup2\n      jump\t// out\n        /* \"contracts/TransactionContract28April.sol\":2036:2499  function updatePaymentStatus(... */\n    tag_43:\n        /* \"contracts/TransactionContract28April.sol\":2219:2235  transactionCount */\n      sload(0x01)\n        /* \"contracts/TransactionContract28April.sol\":2201:2215  _transactionId */\n      dup4\n        /* \"contracts/TransactionContract28April.sol\":2201:2235  _transactionId <= transactionCount */\n      gt\n      iszero\n        /* \"contracts/TransactionContract28April.sol\":2180:2287  require(... */\n      tag_248\n      jumpi\n      mload(0x40)\n      0x08c379a000000000000000000000000000000000000000000000000000000000\n      dup2\n      mstore\n      0x04\n      add\n      tag_249\n      swap1\n      tag_250\n      jump\t// in\n    tag_249:\n      mload(0x40)\n      dup1\n      swap2\n      sub\n      swap1\n      revert\n    tag_248:\n        /* \"contracts/TransactionContract28April.sol\":2298:2329  Transaction storage transaction */\n      0x00\n        /* \"contracts/TransactionContract28April.sol\":2332:2344  transactions */\n      dup1\n        /* \"contracts/TransactionContract28April.sol\":2332:2360  transactions[_transactionId] */\n      0x00\n        /* \"contracts/TransactionContract28April.sol\":2345:2359  _transactionId */\n      dup6\n        /* \"contracts/TransactionContract28April.sol\":2332:2360  transactions[_transactionId] */\n      dup2\n      mstore\n      0x20\n      add\n      swap1\n      dup2\n      mstore\n      0x20\n      add\n      0x00\n      keccak256\n        /* \"contracts/TransactionContract28April.sol\":2298:2360  Transaction storage transaction = transactions[_transactionId] */\n      swap1\n      pop\n        /* \"contracts/TransactionContract28April.sol\":2398:2412  _paymentStatus */\n      dup3\n        /* \"contracts/TransactionContract28April.sol\":2370:2381  transaction */\n      dup2\n        /* \"contracts/TransactionContract28April.sol\":2370:2395  transaction.paymentStatus */\n      0x07\n      add\n        /* \"contracts/TransactionContract28April.sol\":2370:2412  transaction.paymentStatus = _paymentStatus */\n      swap1\n      dup2\n      tag_251\n      swap2\n      swap1\n      tag_189\n      jump\t// in\n    tag_251:\n      pop\n        /* \"contracts/TransactionContract28April.sol\":2449:2463  _transactionId */\n      dup4\n        /* \"contracts/TransactionContract28April.sol\":2428:2492  PaymentStatusUpdated(_transactionId, _paymentStatus, _updatedAt) */\n      0xcbc92fe73220c7cc1450ff1070f1becf254013a1cd6a9d95a4b7c2055b3e9ac9\n        /* \"contracts/TransactionContract28April.sol\":2465:2479  _paymentStatus */\n      dup5\n        /* \"contracts/TransactionContract28April.sol\":2481:2491  _updatedAt */\n      dup5\n        /* \"contracts/TransactionContract28April.sol\":2428:2492  PaymentStatusUpdated(_transactionId, _paymentStatus, _updatedAt) */\n      mload(0x40)\n      tag_252\n      swap3\n      swap2\n      swap1\n      tag_253\n      jump\t// in\n    tag_252:\n      mload(0x40)\n      dup1\n      swap2\n      sub\n      swap1\n      log2\n        /* \"contracts/TransactionContract28April.sol\":2170:2499  {... */\n      pop\n        /* \"contracts/TransactionContract28April.sol\":2036:2499  function updatePaymentStatus(... */\n      pop\n      pop\n      pop\n      jump\t// out\n        /* \"contracts/TransactionContract28April.sol\":2841:3679  function getTransactionByBuyerId(... */\n    tag_46:\n        /* \"contracts/TransactionContract28April.sol\":2933:2953  Transaction[] memory */\n      0x60\n        /* \"contracts/TransactionContract28April.sol\":2965:2975  uint count */\n      0x00\n        /* \"contracts/TransactionContract28April.sol\":2994:3000  uint i */\n      dup1\n        /* \"contracts/TransactionContract28April.sol\":3003:3004  1 */\n      0x01\n        /* \"contracts/TransactionContract28April.sol\":2994:3004  uint i = 1 */\n      swap1\n      pop\n        /* \"contracts/TransactionContract28April.sol\":2989:3242  for (uint i = 1; i <= transactionCount; i++) {... */\n    tag_255:\n        /* \"contracts/TransactionContract28April.sol\":3011:3027  transactionCount */\n      sload(0x01)\n        /* \"contracts/TransactionContract28April.sol\":3006:3007  i */\n      dup2\n        /* \"contracts/TransactionContract28April.sol\":3006:3027  i <= transactionCount */\n      gt\n        /* \"contracts/TransactionContract28April.sol\":2989:3242  for (uint i = 1; i <= transactionCount; i++) {... */\n      tag_256\n      jumpi\n        /* \"contracts/TransactionContract28April.sol\":3167:3175  _buyerId */\n      dup4\n        /* \"contracts/TransactionContract28April.sol\":3150:3176  abi.encodePacked(_buyerId) */\n      add(0x20, mload(0x40))\n      tag_258\n      swap2\n      swap1\n      tag_92\n      jump\t// in\n    tag_258:\n      mload(0x40)\n      0x20\n      dup2\n      dup4\n      sub\n      sub\n      dup2\n      mstore\n      swap1\n      0x40\n      mstore\n        /* \"contracts/TransactionContract28April.sol\":3140:3177  keccak256(abi.encodePacked(_buyerId)) */\n      dup1\n      mload\n      swap1\n      0x20\n      add\n      keccak256\n        /* \"contracts/TransactionContract28April.sol\":3096:3108  transactions */\n      0x00\n        /* \"contracts/TransactionContract28April.sol\":3096:3111  transactions[i] */\n      dup1\n        /* \"contracts/TransactionContract28April.sol\":3109:3110  i */\n      dup4\n        /* \"contracts/TransactionContract28April.sol\":3096:3111  transactions[i] */\n      dup2\n      mstore\n      0x20\n      add\n      swap1\n      dup2\n      mstore\n      0x20\n      add\n      0x00\n      keccak256\n        /* \"contracts/TransactionContract28April.sol\":3096:3118  transactions[i].fromId */\n      0x03\n      add\n        /* \"contracts/TransactionContract28April.sol\":3079:3119  abi.encodePacked(transactions[i].fromId) */\n      add(0x20, mload(0x40))\n      tag_259\n      swap2\n      swap1\n      tag_94\n      jump\t// in\n    tag_259:\n      mload(0x40)\n      0x20\n      dup2\n      dup4\n      sub\n      sub\n      dup2\n      mstore\n      swap1\n      0x40\n      mstore\n        /* \"contracts/TransactionContract28April.sol\":3069:3120  keccak256(abi.encodePacked(transactions[i].fromId)) */\n      dup1\n      mload\n      swap1\n      0x20\n      add\n      keccak256\n        /* \"contracts/TransactionContract28April.sol\":3069:3177  keccak256(abi.encodePacked(transactions[i].fromId)) ==... */\n      sub\n        /* \"contracts/TransactionContract28April.sol\":3048:3232  if (... */\n      tag_260\n      jumpi\n        /* \"contracts/TransactionContract28April.sol\":3210:3217  count++ */\n      dup2\n      dup1\n      tag_261\n      swap1\n      tag_97\n      jump\t// in\n    tag_261:\n      swap3\n      pop\n      pop\n        /* \"contracts/TransactionContract28April.sol\":3048:3232  if (... */\n    tag_260:\n        /* \"contracts/TransactionContract28April.sol\":3029:3032  i++ */\n      dup1\n      dup1\n      tag_262\n      swap1\n      tag_97\n      jump\t// in\n    tag_262:\n      swap2\n      pop\n      pop\n        /* \"contracts/TransactionContract28April.sol\":2989:3242  for (uint i = 1; i <= transactionCount; i++) {... */\n      jump(tag_255)\n    tag_256:\n      pop\n        /* \"contracts/TransactionContract28April.sol\":3251:3285  Transaction[] memory _transactions */\n      0x00\n        /* \"contracts/TransactionContract28April.sol\":3306:3311  count */\n      dup2\n        /* \"contracts/TransactionContract28April.sol\":3288:3312  new Transaction[](count) */\n      0xffffffffffffffff\n      dup2\n      gt\n      iszero\n      tag_263\n      jumpi\n      tag_264\n      tag_101\n      jump\t// in\n    tag_264:\n    tag_263:\n      mload(0x40)\n      swap1\n      dup1\n      dup3\n      mstore\n      dup1\n      0x20\n      mul\n      0x20\n      add\n      dup3\n      add\n      0x40\n      mstore\n      dup1\n      iszero\n      tag_265\n      jumpi\n      dup2\n      0x20\n      add\n    tag_266:\n      tag_267\n      tag_49\n      jump\t// in\n    tag_267:\n      dup2\n      mstore\n      0x20\n      add\n      swap1\n      0x01\n      swap1\n      sub\n      swap1\n      dup2\n      tag_266\n      jumpi\n      swap1\n      pop\n    tag_265:\n      pop\n        /* \"contracts/TransactionContract28April.sol\":3251:3312  Transaction[] memory _transactions = new Transaction[](count) */\n      swap1\n      pop\n        /* \"contracts/TransactionContract28April.sol\":3322:3328  uint j */\n      0x00\n        /* \"contracts/TransactionContract28April.sol\":3347:3353  uint i */\n      dup1\n        /* \"contracts/TransactionContract28April.sol\":3356:3357  1 */\n      0x01\n        /* \"contracts/TransactionContract28April.sol\":3347:3357  uint i = 1 */\n      swap1\n      pop\n        /* \"contracts/TransactionContract28April.sol\":3342:3643  for (uint i = 1; i <= transactionCount; i++) {... */\n    tag_268:\n        /* \"contracts/TransactionContract28April.sol\":3364:3380  transactionCount */\n      sload(0x01)\n        /* \"contracts/TransactionContract28April.sol\":3359:3360  i */\n      dup2\n        /* \"contracts/TransactionContract28April.sol\":3359:3380  i <= transactionCount */\n      gt\n        /* \"contracts/TransactionContract28April.sol\":3342:3643  for (uint i = 1; i <= transactionCount; i++) {... */\n      tag_269\n      jumpi\n        /* \"contracts/TransactionContract28April.sol\":3520:3528  _buyerId */\n      dup6\n        /* \"contracts/TransactionContract28April.sol\":3503:3529  abi.encodePacked(_buyerId) */\n      add(0x20, mload(0x40))\n      tag_271\n      swap2\n      swap1\n      tag_92\n      jump\t// in\n    tag_271:\n      mload(0x40)\n      0x20\n      dup2\n      dup4\n      sub\n      sub\n      dup2\n      mstore\n      swap1\n      0x40\n      mstore\n        /* \"contracts/TransactionContract28April.sol\":3493:3530  keccak256(abi.encodePacked(_buyerId)) */\n      dup1\n      mload\n      swap1\n      0x20\n      add\n      keccak256\n        /* \"contracts/TransactionContract28April.sol\":3449:3461  transactions */\n      0x00\n        /* \"contracts/TransactionContract28April.sol\":3449:3464  transactions[i] */\n      dup1\n        /* \"contracts/TransactionContract28April.sol\":3462:3463  i */\n      dup4\n        /* \"contracts/TransactionContract28April.sol\":3449:3464  transactions[i] */\n      dup2\n      mstore\n      0x20\n      add\n      swap1\n      dup2\n      mstore\n      0x20\n      add\n      0x00\n      keccak256\n        /* \"contracts/TransactionContract28April.sol\":3449:3471  transactions[i].fromId */\n      0x03\n      add\n        /* \"contracts/TransactionContract28April.sol\":3432:3472  abi.encodePacked(transactions[i].fromId) */\n      add(0x20, mload(0x40))\n      tag_272\n      swap2\n      swap1\n      tag_94\n      jump\t// in\n    tag_272:\n      mload(0x40)\n      0x20\n      dup2\n      dup4\n      sub\n      sub\n      dup2\n      mstore\n      swap1\n      0x40\n      mstore\n        /* \"contracts/TransactionContract28April.sol\":3422:3473  keccak256(abi.encodePacked(transactions[i].fromId)) */\n      dup1\n      mload\n      swap1\n      0x20\n      add\n      keccak256\n        /* \"contracts/TransactionContract28April.sol\":3422:3530  keccak256(abi.encodePacked(transactions[i].fromId)) ==... */\n      sub\n        /* \"contracts/TransactionContract28April.sol\":3401:3633  if (... */\n      tag_273\n      jumpi\n        /* \"contracts/TransactionContract28April.sol\":3582:3594  transactions */\n      0x00\n        /* \"contracts/TransactionContract28April.sol\":3582:3597  transactions[i] */\n      dup1\n        /* \"contracts/TransactionContract28April.sol\":3595:3596  i */\n      dup3\n        /* \"contracts/TransactionContract28April.sol\":3582:3597  transactions[i] */\n      dup2\n      mstore\n      0x20\n      add\n      swap1\n      dup2\n      mstore\n      0x20\n      add\n      0x00\n      keccak256\n        /* \"contracts/TransactionContract28April.sol\":3563:3597  _transactions[j] = transactions[i] */\n      mload(0x40)\n      dup1\n      0x0120\n      add\n      0x40\n      mstore\n      swap1\n      dup2\n      0x00\n      dup3\n      add\n      sload\n      dup2\n      mstore\n      0x20\n      add\n      0x01\n      dup3\n      add\n      dup1\n      sload\n      tag_274\n      swap1\n      tag_52\n      jump\t// in\n    tag_274:\n      dup1\n      0x1f\n      add\n      0x20\n      dup1\n      swap2\n      div\n      mul\n      0x20\n      add\n      mload(0x40)\n      swap1\n      dup2\n      add\n      0x40\n      mstore\n      dup1\n      swap3\n      swap2\n      swap1\n      dup2\n      dup2\n      mstore\n      0x20\n      add\n      dup3\n      dup1\n      sload\n      tag_275\n      swap1\n      tag_52\n      jump\t// in\n    tag_275:\n      dup1\n      iszero\n      tag_276\n      jumpi\n      dup1\n      0x1f\n      lt\n      tag_277\n      jumpi\n      0x0100\n      dup1\n      dup4\n      sload\n      div\n      mul\n      dup4\n      mstore\n      swap2\n      0x20\n      add\n      swap2\n      jump(tag_276)\n    tag_277:\n      dup3\n      add\n      swap2\n      swap1\n      0x00\n      mstore\n      keccak256(0x00, 0x20)\n      swap1\n    tag_278:\n      dup2\n      sload\n      dup2\n      mstore\n      swap1\n      0x01\n      add\n      swap1\n      0x20\n      add\n      dup1\n      dup4\n      gt\n      tag_278\n      jumpi\n      dup3\n      swap1\n      sub\n      0x1f\n      and\n      dup3\n      add\n      swap2\n    tag_276:\n      pop\n      pop\n      pop\n      pop\n      pop\n      dup2\n      mstore\n      0x20\n      add\n      0x02\n      dup3\n      add\n      dup1\n      sload\n      tag_279\n      swap1\n      tag_52\n      jump\t// in\n    tag_279:\n      dup1\n      0x1f\n      add\n      0x20\n      dup1\n      swap2\n      div\n      mul\n      0x20\n      add\n      mload(0x40)\n      swap1\n      dup2\n      add\n      0x40\n      mstore\n      dup1\n      swap3\n      swap2\n      swap1\n      dup2\n      dup2\n      mstore\n      0x20\n      add\n      dup3\n      dup1\n      sload\n      tag_280\n      swap1\n      tag_52\n      jump\t// in\n    tag_280:\n      dup1\n      iszero\n      tag_281\n      jumpi\n      dup1\n      0x1f\n      lt\n      tag_282\n      jumpi\n      0x0100\n      dup1\n      dup4\n      sload\n      div\n      mul\n      dup4\n      mstore\n      swap2\n      0x20\n      add\n      swap2\n      jump(tag_281)\n    tag_282:\n      dup3\n      add\n      swap2\n      swap1\n      0x00\n      mstore\n      keccak256(0x00, 0x20)\n      swap1\n    tag_283:\n      dup2\n      sload\n      dup2\n      mstore\n      swap1\n      0x01\n      add\n      swap1\n      0x20\n      add\n      dup1\n      dup4\n      gt\n      tag_283\n      jumpi\n      dup3\n      swap1\n      sub\n      0x1f\n      and\n      dup3\n      add\n      swap2\n    tag_281:\n      pop\n      pop\n      pop\n      pop\n      pop\n      dup2\n      mstore\n      0x20\n      add\n      0x03\n      dup3\n      add\n      dup1\n      sload\n      tag_284\n      swap1\n      tag_52\n      jump\t// in\n    tag_284:\n      dup1\n      0x1f\n      add\n      0x20\n      dup1\n      swap2\n      div\n      mul\n      0x20\n      add\n      mload(0x40)\n      swap1\n      dup2\n      add\n      0x40\n      mstore\n      dup1\n      swap3\n      swap2\n      swap1\n      dup2\n      dup2\n      mstore\n      0x20\n      add\n      dup3\n      dup1\n      sload\n      tag_285\n      swap1\n      tag_52\n      jump\t// in\n    tag_285:\n      dup1\n      iszero\n      tag_286\n      jumpi\n      dup1\n      0x1f\n      lt\n      tag_287\n      jumpi\n      0x0100\n      dup1\n      dup4\n      sload\n      div\n      mul\n      dup4\n      mstore\n      swap2\n      0x20\n      add\n      swap2\n      jump(tag_286)\n    tag_287:\n      dup3\n      add\n      swap2\n      swap1\n      0x00\n      mstore\n      keccak256(0x00, 0x20)\n      swap1\n    tag_288:\n      dup2\n      sload\n      dup2\n      mstore\n      swap1\n      0x01\n      add\n      swap1\n      0x20\n      add\n      dup1\n      dup4\n      gt\n      tag_288\n      jumpi\n      dup3\n      swap1\n      sub\n      0x1f\n      and\n      dup3\n      add\n      swap2\n    tag_286:\n      pop\n      pop\n      pop\n      pop\n      pop\n      dup2\n      mstore\n      0x20\n      add\n      0x04\n      dup3\n      add\n      dup1\n      sload\n      tag_289\n      swap1\n      tag_52\n      jump\t// in\n    tag_289:\n      dup1\n      0x1f\n      add\n      0x20\n      dup1\n      swap2\n      div\n      mul\n      0x20\n      add\n      mload(0x40)\n      swap1\n      dup2\n      add\n      0x40\n      mstore\n      dup1\n      swap3\n      swap2\n      swap1\n      dup2\n      dup2\n      mstore\n      0x20\n      add\n      dup3\n      dup1\n      sload\n      tag_290\n      swap1\n      tag_52\n      jump\t// in\n    tag_290:\n      dup1\n      iszero\n      tag_291\n      jumpi\n      dup1\n      0x1f\n      lt\n      tag_292\n      jumpi\n      0x0100\n      dup1\n      dup4\n      sload\n      div\n      mul\n      dup4\n      mstore\n      swap2\n      0x20\n      add\n      swap2\n      jump(tag_291)\n    tag_292:\n      dup3\n      add\n      swap2\n      swap1\n      0x00\n      mstore\n      keccak256(0x00, 0x20)\n      swap1\n    tag_293:\n      dup2\n      sload\n      dup2\n      mstore\n      swap1\n      0x01\n      add\n      swap1\n      0x20\n      add\n      dup1\n      dup4\n      gt\n      tag_293\n      jumpi\n      dup3\n      swap1\n      sub\n      0x1f\n      and\n      dup3\n      add\n      swap2\n    tag_291:\n      pop\n      pop\n      pop\n      pop\n      pop\n      dup2\n      mstore\n      0x20\n      add\n      0x05\n      dup3\n      add\n      dup1\n      sload\n      tag_294\n      swap1\n      tag_52\n      jump\t// in\n    tag_294:\n      dup1\n      0x1f\n      add\n      0x20\n      dup1\n      swap2\n      div\n      mul\n      0x20\n      add\n      mload(0x40)\n      swap1\n      dup2\n      add\n      0x40\n      mstore\n      dup1\n      swap3\n      swap2\n      swap1\n      dup2\n      dup2\n      mstore\n      0x20\n      add\n      dup3\n      dup1\n      sload\n      tag_295\n      swap1\n      tag_52\n      jump\t// in\n    tag_295:\n      dup1\n      iszero\n      tag_296\n      jumpi\n      dup1\n      0x1f\n      lt\n      tag_297\n      jumpi\n      0x0100\n      dup1\n      dup4\n      sload\n      div\n      mul\n      dup4\n      mstore\n      swap2\n      0x20\n      add\n      swap2\n      jump(tag_296)\n    tag_297:\n      dup3\n      add\n      swap2\n      swap1\n      0x00\n      mstore\n      keccak256(0x00, 0x20)\n      swap1\n    tag_298:\n      dup2\n      sload\n      dup2\n      mstore\n      swap1\n      0x01\n      add\n      swap1\n      0x20\n      add\n      dup1\n      dup4\n      gt\n      tag_298\n      jumpi\n      dup3\n      swap1\n      sub\n      0x1f\n      and\n      dup3\n      add\n      swap2\n    tag_296:\n      pop\n      pop\n      pop\n      pop\n      pop\n      dup2\n      mstore\n      0x20\n      add\n      0x06\n      dup3\n      add\n      dup1\n      sload\n      tag_299\n      swap1\n      tag_52\n      jump\t// in\n    tag_299:\n      dup1\n      0x1f\n      add\n      0x20\n      dup1\n      swap2\n      div\n      mul\n      0x20\n      add\n      mload(0x40)\n      swap1\n      dup2\n      add\n      0x40\n      mstore\n      dup1\n      swap3\n      swap2\n      swap1\n      dup2\n      dup2\n      mstore\n      0x20\n      add\n      dup3\n      dup1\n      sload\n      tag_300\n      swap1\n      tag_52\n      jump\t// in\n    tag_300:\n      dup1\n      iszero\n      tag_301\n      jumpi\n      dup1\n      0x1f\n      lt\n      tag_302\n      jumpi\n      0x0100\n      dup1\n      dup4\n      sload\n      div\n      mul\n      dup4\n      mstore\n      swap2\n      0x20\n      add\n      swap2\n      jump(tag_301)\n    tag_302:\n      dup3\n      add\n      swap2\n      swap1\n      0x00\n      mstore\n      keccak256(0x00, 0x20)\n      swap1\n    tag_303:\n      dup2\n      sload\n      dup2\n      mstore\n      swap1\n      0x01\n      add\n      swap1\n      0x20\n      add\n      dup1\n      dup4\n      gt\n      tag_303\n      jumpi\n      dup3\n      swap1\n      sub\n      0x1f\n      and\n      dup3\n      add\n      swap2\n    tag_301:\n      pop\n      pop\n      pop\n      pop\n      pop\n      dup2\n      mstore\n      0x20\n      add\n      0x07\n      dup3\n      add\n      dup1\n      sload\n      tag_304\n      swap1\n      tag_52\n      jump\t// in\n    tag_304:\n      dup1\n      0x1f\n      add\n      0x20\n      dup1\n      swap2\n      div\n      mul\n      0x20\n      add\n      mload(0x40)\n      swap1\n      dup2\n      add\n      0x40\n      mstore\n      dup1\n      swap3\n      swap2\n      swap1\n      dup2\n      dup2\n      mstore\n      0x20\n      add\n      dup3\n      dup1\n      sload\n      tag_305\n      swap1\n      tag_52\n      jump\t// in\n    tag_305:\n      dup1\n      iszero\n      tag_306\n      jumpi\n      dup1\n      0x1f\n      lt\n      tag_307\n      jumpi\n      0x0100\n      dup1\n      dup4\n      sload\n      div\n      mul\n      dup4\n      mstore\n      swap2\n      0x20\n      add\n      swap2\n      jump(tag_306)\n    tag_307:\n      dup3\n      add\n      swap2\n      swap1\n      0x00\n      mstore\n      keccak256(0x00, 0x20)\n      swap1\n    tag_308:\n      dup2\n      sload\n      dup2\n      mstore\n      swap1\n      0x01\n      add\n      swap1\n      0x20\n      add\n      dup1\n      dup4\n      gt\n      tag_308\n      jumpi\n      dup3\n      swap1\n      sub\n      0x1f\n      and\n      dup3\n      add\n      swap2\n    tag_306:\n      pop\n      pop\n      pop\n      pop\n      pop\n      dup2\n      mstore\n      0x20\n      add\n      0x08\n      dup3\n      add\n      sload\n      dup2\n      mstore\n      pop\n      pop\n        /* \"contracts/TransactionContract28April.sol\":3563:3576  _transactions */\n      dup4\n        /* \"contracts/TransactionContract28April.sol\":3577:3578  j */\n      dup4\n        /* \"contracts/TransactionContract28April.sol\":3563:3579  _transactions[j] */\n      dup2\n      mload\n      dup2\n      lt\n      tag_309\n      jumpi\n      tag_310\n      tag_148\n      jump\t// in\n    tag_310:\n    tag_309:\n      0x20\n      mul\n      0x20\n      add\n      add\n        /* \"contracts/TransactionContract28April.sol\":3563:3597  _transactions[j] = transactions[i] */\n      dup2\n      swap1\n      mstore\n      pop\n        /* \"contracts/TransactionContract28April.sol\":3615:3618  j++ */\n      dup2\n      dup1\n      tag_311\n      swap1\n      tag_97\n      jump\t// in\n    tag_311:\n      swap3\n      pop\n      pop\n        /* \"contracts/TransactionContract28April.sol\":3401:3633  if (... */\n    tag_273:\n        /* \"contracts/TransactionContract28April.sol\":3382:3385  i++ */\n      dup1\n      dup1\n      tag_312\n      swap1\n      tag_97\n      jump\t// in\n    tag_312:\n      swap2\n      pop\n      pop\n        /* \"contracts/TransactionContract28April.sol\":3342:3643  for (uint i = 1; i <= transactionCount; i++) {... */\n      jump(tag_268)\n    tag_269:\n      pop\n        /* \"contracts/TransactionContract28April.sol\":3659:3672  _transactions */\n      dup2\n        /* \"contracts/TransactionContract28April.sol\":3652:3672  return _transactions */\n      swap4\n      pop\n      pop\n      pop\n      pop\n        /* \"contracts/TransactionContract28April.sol\":2841:3679  function getTransactionByBuyerId(... */\n      swap2\n      swap1\n      pop\n      jump\t// out\n    tag_49:\n      mload(0x40)\n      dup1\n      0x0120\n      add\n      0x40\n      mstore\n      dup1\n      0x00\n      dup2\n      mstore\n      0x20\n      add\n      0x60\n      dup2\n      mstore\n      0x20\n      add\n      0x60\n      dup2\n      mstore\n      0x20\n      add\n      0x60\n      dup2\n      mstore\n      0x20\n      add\n      0x60\n      dup2\n      mstore\n      0x20\n      add\n      0x60\n      dup2\n      mstore\n      0x20\n      add\n      0x60\n      dup2\n      mstore\n      0x20\n      add\n      0x60\n      dup2\n      mstore\n      0x20\n      add\n      0x00\n      dup2\n      mstore\n      pop\n      swap1\n      jump\t// out\n        /* \"#utility.yul\":7:82   */\n    tag_313:\n        /* \"#utility.yul\":40:46   */\n      0x00\n        /* \"#utility.yul\":73:75   */\n      0x40\n        /* \"#utility.yul\":67:76   */\n      mload\n        /* \"#utility.yul\":57:76   */\n      swap1\n      pop\n        /* \"#utility.yul\":7:82   */\n      swap1\n      jump\t// out\n        /* \"#utility.yul\":88:205   */\n    tag_314:\n        /* \"#utility.yul\":197:198   */\n      0x00\n        /* \"#utility.yul\":194:195   */\n      dup1\n        /* \"#utility.yul\":187:199   */\n      revert\n        /* \"#utility.yul\":211:328   */\n    tag_315:\n        /* \"#utility.yul\":320:321   */\n      0x00\n        /* \"#utility.yul\":317:318   */\n      dup1\n        /* \"#utility.yul\":310:322   */\n      revert\n        /* \"#utility.yul\":334:411   */\n    tag_316:\n        /* \"#utility.yul\":371:378   */\n      0x00\n        /* \"#utility.yul\":400:405   */\n      dup2\n        /* \"#utility.yul\":389:405   */\n      swap1\n      pop\n        /* \"#utility.yul\":334:411   */\n      swap2\n      swap1\n      pop\n      jump\t// out\n        /* \"#utility.yul\":417:539   */\n    tag_317:\n        /* \"#utility.yul\":490:514   */\n      tag_372\n        /* \"#utility.yul\":508:513   */\n      dup2\n        /* \"#utility.yul\":490:514   */\n      tag_316\n      jump\t// in\n    tag_372:\n        /* \"#utility.yul\":483:488   */\n      dup2\n        /* \"#utility.yul\":480:515   */\n      eq\n        /* \"#utility.yul\":470:533   */\n      tag_373\n      jumpi\n        /* \"#utility.yul\":529:530   */\n      0x00\n        /* \"#utility.yul\":526:527   */\n      dup1\n        /* \"#utility.yul\":519:531   */\n      revert\n        /* \"#utility.yul\":470:533   */\n    tag_373:\n        /* \"#utility.yul\":417:539   */\n      pop\n      jump\t// out\n        /* \"#utility.yul\":545:684   */\n    tag_318:\n        /* \"#utility.yul\":591:596   */\n      0x00\n        /* \"#utility.yul\":629:635   */\n      dup2\n        /* \"#utility.yul\":616:636   */\n      calldataload\n        /* \"#utility.yul\":607:636   */\n      swap1\n      pop\n        /* \"#utility.yul\":645:678   */\n      tag_375\n        /* \"#utility.yul\":672:677   */\n      dup2\n        /* \"#utility.yul\":645:678   */\n      tag_317\n      jump\t// in\n    tag_375:\n        /* \"#utility.yul\":545:684   */\n      swap3\n      swap2\n      pop\n      pop\n      jump\t// out\n        /* \"#utility.yul\":690:1019   */\n    tag_14:\n        /* \"#utility.yul\":749:755   */\n      0x00\n        /* \"#utility.yul\":798:800   */\n      0x20\n        /* \"#utility.yul\":786:795   */\n      dup3\n        /* \"#utility.yul\":777:784   */\n      dup5\n        /* \"#utility.yul\":773:796   */\n      sub\n        /* \"#utility.yul\":769:801   */\n      slt\n        /* \"#utility.yul\":766:885   */\n      iszero\n      tag_377\n      jumpi\n        /* \"#utility.yul\":804:883   */\n      tag_378\n      tag_314\n      jump\t// in\n    tag_378:\n        /* \"#utility.yul\":766:885   */\n    tag_377:\n        /* \"#utility.yul\":924:925   */\n      0x00\n        /* \"#utility.yul\":949:1002   */\n      tag_379\n        /* \"#utility.yul\":994:1001   */\n      dup5\n        /* \"#utility.yul\":985:991   */\n      dup3\n        /* \"#utility.yul\":974:983   */\n      dup6\n        /* \"#utility.yul\":970:992   */\n      add\n        /* \"#utility.yul\":949:1002   */\n      tag_318\n      jump\t// in\n    tag_379:\n        /* \"#utility.yul\":939:1002   */\n      swap2\n      pop\n        /* \"#utility.yul\":895:1012   */\n      pop\n        /* \"#utility.yul\":690:1019   */\n      swap3\n      swap2\n      pop\n      pop\n      jump\t// out\n        /* \"#utility.yul\":1025:1133   */\n    tag_319:\n        /* \"#utility.yul\":1102:1126   */\n      tag_381\n        /* \"#utility.yul\":1120:1125   */\n      dup2\n        /* \"#utility.yul\":1102:1126   */\n      tag_316\n      jump\t// in\n    tag_381:\n        /* \"#utility.yul\":1097:1100   */\n      dup3\n        /* \"#utility.yul\":1090:1127   */\n      mstore\n        /* \"#utility.yul\":1025:1133   */\n      pop\n      pop\n      jump\t// out\n        /* \"#utility.yul\":1139:1238   */\n    tag_320:\n        /* \"#utility.yul\":1191:1197   */\n      0x00\n        /* \"#utility.yul\":1225:1230   */\n      dup2\n        /* \"#utility.yul\":1219:1231   */\n      mload\n        /* \"#utility.yul\":1209:1231   */\n      swap1\n      pop\n        /* \"#utility.yul\":1139:1238   */\n      swap2\n      swap1\n      pop\n      jump\t// out\n        /* \"#utility.yul\":1244:1403   */\n    tag_321:\n        /* \"#utility.yul\":1318:1329   */\n      0x00\n        /* \"#utility.yul\":1352:1358   */\n      dup3\n        /* \"#utility.yul\":1347:1350   */\n      dup3\n        /* \"#utility.yul\":1340:1359   */\n      mstore\n        /* \"#utility.yul\":1392:1396   */\n      0x20\n        /* \"#utility.yul\":1387:1390   */\n      dup3\n        /* \"#utility.yul\":1383:1397   */\n      add\n        /* \"#utility.yul\":1368:1397   */\n      swap1\n      pop\n        /* \"#utility.yul\":1244:1403   */\n      swap3\n      swap2\n      pop\n      pop\n      jump\t// out\n        /* \"#utility.yul\":1409:1548   */\n    tag_322:\n        /* \"#utility.yul\":1498:1504   */\n      dup3\n        /* \"#utility.yul\":1493:1496   */\n      dup2\n        /* \"#utility.yul\":1488:1491   */\n      dup4\n        /* \"#utility.yul\":1482:1505   */\n      mcopy\n        /* \"#utility.yul\":1539:1540   */\n      0x00\n        /* \"#utility.yul\":1530:1536   */\n      dup4\n        /* \"#utility.yul\":1525:1528   */\n      dup4\n        /* \"#utility.yul\":1521:1537   */\n      add\n        /* \"#utility.yul\":1514:1541   */\n      mstore\n        /* \"#utility.yul\":1409:1548   */\n      pop\n      pop\n      pop\n      jump\t// out\n        /* \"#utility.yul\":1554:1656   */\n    tag_323:\n        /* \"#utility.yul\":1595:1601   */\n      0x00\n        /* \"#utility.yul\":1646:1648   */\n      0x1f\n        /* \"#utility.yul\":1642:1649   */\n      not\n        /* \"#utility.yul\":1637:1639   */\n      0x1f\n        /* \"#utility.yul\":1630:1635   */\n      dup4\n        /* \"#utility.yul\":1626:1640   */\n      add\n        /* \"#utility.yul\":1622:1650   */\n      and\n        /* \"#utility.yul\":1612:1650   */\n      swap1\n      pop\n        /* \"#utility.yul\":1554:1656   */\n      swap2\n      swap1\n      pop\n      jump\t// out\n        /* \"#utility.yul\":1662:2019   */\n    tag_324:\n        /* \"#utility.yul\":1740:1743   */\n      0x00\n        /* \"#utility.yul\":1768:1807   */\n      tag_387\n        /* \"#utility.yul\":1801:1806   */\n      dup3\n        /* \"#utility.yul\":1768:1807   */\n      tag_320\n      jump\t// in\n    tag_387:\n        /* \"#utility.yul\":1823:1884   */\n      tag_388\n        /* \"#utility.yul\":1877:1883   */\n      dup2\n        /* \"#utility.yul\":1872:1875   */\n      dup6\n        /* \"#utility.yul\":1823:1884   */\n      tag_321\n      jump\t// in\n    tag_388:\n        /* \"#utility.yul\":1816:1884   */\n      swap4\n      pop\n        /* \"#utility.yul\":1893:1958   */\n      tag_389\n        /* \"#utility.yul\":1951:1957   */\n      dup2\n        /* \"#utility.yul\":1946:1949   */\n      dup6\n        /* \"#utility.yul\":1939:1943   */\n      0x20\n        /* \"#utility.yul\":1932:1937   */\n      dup7\n        /* \"#utility.yul\":1928:1944   */\n      add\n        /* \"#utility.yul\":1893:1958   */\n      tag_322\n      jump\t// in\n    tag_389:\n        /* \"#utility.yul\":1983:2012   */\n      tag_390\n        /* \"#utility.yul\":2005:2011   */\n      dup2\n        /* \"#utility.yul\":1983:2012   */\n      tag_323\n      jump\t// in\n    tag_390:\n        /* \"#utility.yul\":1978:1981   */\n      dup5\n        /* \"#utility.yul\":1974:2013   */\n      add\n        /* \"#utility.yul\":1967:2013   */\n      swap2\n      pop\n        /* \"#utility.yul\":1744:2019   */\n      pop\n        /* \"#utility.yul\":1662:2019   */\n      swap3\n      swap2\n      pop\n      pop\n      jump\t// out\n        /* \"#utility.yul\":2113:4412   */\n    tag_325:\n        /* \"#utility.yul\":2236:2239   */\n      0x00\n        /* \"#utility.yul\":2272:2278   */\n      0x0120\n        /* \"#utility.yul\":2267:2270   */\n      dup4\n        /* \"#utility.yul\":2263:2279   */\n      add\n        /* \"#utility.yul\":2370:2374   */\n      0x00\n        /* \"#utility.yul\":2363:2368   */\n      dup4\n        /* \"#utility.yul\":2359:2375   */\n      add\n        /* \"#utility.yul\":2353:2376   */\n      mload\n        /* \"#utility.yul\":2389:2452   */\n      tag_392\n        /* \"#utility.yul\":2446:2450   */\n      0x00\n        /* \"#utility.yul\":2441:2444   */\n      dup7\n        /* \"#utility.yul\":2437:2451   */\n      add\n        /* \"#utility.yul\":2423:2435   */\n      dup3\n        /* \"#utility.yul\":2389:2452   */\n      tag_319\n      jump\t// in\n    tag_392:\n        /* \"#utility.yul\":2289:2462   */\n      pop\n        /* \"#utility.yul\":2555:2559   */\n      0x20\n        /* \"#utility.yul\":2548:2553   */\n      dup4\n        /* \"#utility.yul\":2544:2560   */\n      add\n        /* \"#utility.yul\":2538:2561   */\n      mload\n        /* \"#utility.yul\":2608:2611   */\n      dup5\n        /* \"#utility.yul\":2602:2606   */\n      dup3\n        /* \"#utility.yul\":2598:2612   */\n      sub\n        /* \"#utility.yul\":2591:2595   */\n      0x20\n        /* \"#utility.yul\":2586:2589   */\n      dup7\n        /* \"#utility.yul\":2582:2596   */\n      add\n        /* \"#utility.yul\":2575:2613   */\n      mstore\n        /* \"#utility.yul\":2634:2707   */\n      tag_393\n        /* \"#utility.yul\":2702:2706   */\n      dup3\n        /* \"#utility.yul\":2688:2700   */\n      dup3\n        /* \"#utility.yul\":2634:2707   */\n      tag_324\n      jump\t// in\n    tag_393:\n        /* \"#utility.yul\":2626:2707   */\n      swap2\n      pop\n        /* \"#utility.yul\":2472:2718   */\n      pop\n        /* \"#utility.yul\":2800:2804   */\n      0x40\n        /* \"#utility.yul\":2793:2798   */\n      dup4\n        /* \"#utility.yul\":2789:2805   */\n      add\n        /* \"#utility.yul\":2783:2806   */\n      mload\n        /* \"#utility.yul\":2853:2856   */\n      dup5\n        /* \"#utility.yul\":2847:2851   */\n      dup3\n        /* \"#utility.yul\":2843:2857   */\n      sub\n        /* \"#utility.yul\":2836:2840   */\n      0x40\n        /* \"#utility.yul\":2831:2834   */\n      dup7\n        /* \"#utility.yul\":2827:2841   */\n      add\n        /* \"#utility.yul\":2820:2858   */\n      mstore\n        /* \"#utility.yul\":2879:2952   */\n      tag_394\n        /* \"#utility.yul\":2947:2951   */\n      dup3\n        /* \"#utility.yul\":2933:2945   */\n      dup3\n        /* \"#utility.yul\":2879:2952   */\n      tag_324\n      jump\t// in\n    tag_394:\n        /* \"#utility.yul\":2871:2952   */\n      swap2\n      pop\n        /* \"#utility.yul\":2728:2963   */\n      pop\n        /* \"#utility.yul\":3047:3051   */\n      0x60\n        /* \"#utility.yul\":3040:3045   */\n      dup4\n        /* \"#utility.yul\":3036:3052   */\n      add\n        /* \"#utility.yul\":3030:3053   */\n      mload\n        /* \"#utility.yul\":3100:3103   */\n      dup5\n        /* \"#utility.yul\":3094:3098   */\n      dup3\n        /* \"#utility.yul\":3090:3104   */\n      sub\n        /* \"#utility.yul\":3083:3087   */\n      0x60\n        /* \"#utility.yul\":3078:3081   */\n      dup7\n        /* \"#utility.yul\":3074:3088   */\n      add\n        /* \"#utility.yul\":3067:3105   */\n      mstore\n        /* \"#utility.yul\":3126:3199   */\n      tag_395\n        /* \"#utility.yul\":3194:3198   */\n      dup3\n        /* \"#utility.yul\":3180:3192   */\n      dup3\n        /* \"#utility.yul\":3126:3199   */\n      tag_324\n      jump\t// in\n    tag_395:\n        /* \"#utility.yul\":3118:3199   */\n      swap2\n      pop\n        /* \"#utility.yul\":2973:3210   */\n      pop\n        /* \"#utility.yul\":3290:3294   */\n      0x80\n        /* \"#utility.yul\":3283:3288   */\n      dup4\n        /* \"#utility.yul\":3279:3295   */\n      add\n        /* \"#utility.yul\":3273:3296   */\n      mload\n        /* \"#utility.yul\":3343:3346   */\n      dup5\n        /* \"#utility.yul\":3337:3341   */\n      dup3\n        /* \"#utility.yul\":3333:3347   */\n      sub\n        /* \"#utility.yul\":3326:3330   */\n      0x80\n        /* \"#utility.yul\":3321:3324   */\n      dup7\n        /* \"#utility.yul\":3317:3331   */\n      add\n        /* \"#utility.yul\":3310:3348   */\n      mstore\n        /* \"#utility.yul\":3369:3442   */\n      tag_396\n        /* \"#utility.yul\":3437:3441   */\n      dup3\n        /* \"#utility.yul\":3423:3435   */\n      dup3\n        /* \"#utility.yul\":3369:3442   */\n      tag_324\n      jump\t// in\n    tag_396:\n        /* \"#utility.yul\":3361:3442   */\n      swap2\n      pop\n        /* \"#utility.yul\":3220:3453   */\n      pop\n        /* \"#utility.yul\":3535:3539   */\n      0xa0\n        /* \"#utility.yul\":3528:3533   */\n      dup4\n        /* \"#utility.yul\":3524:3540   */\n      add\n        /* \"#utility.yul\":3518:3541   */\n      mload\n        /* \"#utility.yul\":3588:3591   */\n      dup5\n        /* \"#utility.yul\":3582:3586   */\n      dup3\n        /* \"#utility.yul\":3578:3592   */\n      sub\n        /* \"#utility.yul\":3571:3575   */\n      0xa0\n        /* \"#utility.yul\":3566:3569   */\n      dup7\n        /* \"#utility.yul\":3562:3576   */\n      add\n        /* \"#utility.yul\":3555:3593   */\n      mstore\n        /* \"#utility.yul\":3614:3687   */\n      tag_397\n        /* \"#utility.yul\":3682:3686   */\n      dup3\n        /* \"#utility.yul\":3668:3680   */\n      dup3\n        /* \"#utility.yul\":3614:3687   */\n      tag_324\n      jump\t// in\n    tag_397:\n        /* \"#utility.yul\":3606:3687   */\n      swap2\n      pop\n        /* \"#utility.yul\":3463:3698   */\n      pop\n        /* \"#utility.yul\":3785:3789   */\n      0xc0\n        /* \"#utility.yul\":3778:3783   */\n      dup4\n        /* \"#utility.yul\":3774:3790   */\n      add\n        /* \"#utility.yul\":3768:3791   */\n      mload\n        /* \"#utility.yul\":3838:3841   */\n      dup5\n        /* \"#utility.yul\":3832:3836   */\n      dup3\n        /* \"#utility.yul\":3828:3842   */\n      sub\n        /* \"#utility.yul\":3821:3825   */\n      0xc0\n        /* \"#utility.yul\":3816:3819   */\n      dup7\n        /* \"#utility.yul\":3812:3826   */\n      add\n        /* \"#utility.yul\":3805:3843   */\n      mstore\n        /* \"#utility.yul\":3864:3937   */\n      tag_398\n        /* \"#utility.yul\":3932:3936   */\n      dup3\n        /* \"#utility.yul\":3918:3930   */\n      dup3\n        /* \"#utility.yul\":3864:3937   */\n      tag_324\n      jump\t// in\n    tag_398:\n        /* \"#utility.yul\":3856:3937   */\n      swap2\n      pop\n        /* \"#utility.yul\":3708:3948   */\n      pop\n        /* \"#utility.yul\":4039:4043   */\n      0xe0\n        /* \"#utility.yul\":4032:4037   */\n      dup4\n        /* \"#utility.yul\":4028:4044   */\n      add\n        /* \"#utility.yul\":4022:4045   */\n      mload\n        /* \"#utility.yul\":4092:4095   */\n      dup5\n        /* \"#utility.yul\":4086:4090   */\n      dup3\n        /* \"#utility.yul\":4082:4096   */\n      sub\n        /* \"#utility.yul\":4075:4079   */\n      0xe0\n        /* \"#utility.yul\":4070:4073   */\n      dup7\n        /* \"#utility.yul\":4066:4080   */\n      add\n        /* \"#utility.yul\":4059:4097   */\n      mstore\n        /* \"#utility.yul\":4118:4191   */\n      tag_399\n        /* \"#utility.yul\":4186:4190   */\n      dup3\n        /* \"#utility.yul\":4172:4184   */\n      dup3\n        /* \"#utility.yul\":4118:4191   */\n      tag_324\n      jump\t// in\n    tag_399:\n        /* \"#utility.yul\":4110:4191   */\n      swap2\n      pop\n        /* \"#utility.yul\":3958:4202   */\n      pop\n        /* \"#utility.yul\":4289:4295   */\n      0x0100\n        /* \"#utility.yul\":4282:4287   */\n      dup4\n        /* \"#utility.yul\":4278:4296   */\n      add\n        /* \"#utility.yul\":4272:4297   */\n      mload\n        /* \"#utility.yul\":4310:4375   */\n      tag_400\n        /* \"#utility.yul\":4367:4373   */\n      0x0100\n        /* \"#utility.yul\":4362:4365   */\n      dup7\n        /* \"#utility.yul\":4358:4374   */\n      add\n        /* \"#utility.yul\":4344:4356   */\n      dup3\n        /* \"#utility.yul\":4310:4375   */\n      tag_319\n      jump\t// in\n    tag_400:\n        /* \"#utility.yul\":4212:4385   */\n      pop\n        /* \"#utility.yul\":4402:4406   */\n      dup1\n        /* \"#utility.yul\":4395:4406   */\n      swap2\n      pop\n        /* \"#utility.yul\":2241:4412   */\n      pop\n        /* \"#utility.yul\":2113:4412   */\n      swap3\n      swap2\n      pop\n      pop\n      jump\t// out\n        /* \"#utility.yul\":4418:4799   */\n    tag_17:\n        /* \"#utility.yul\":4565:4569   */\n      0x00\n        /* \"#utility.yul\":4603:4605   */\n      0x20\n        /* \"#utility.yul\":4592:4601   */\n      dup3\n        /* \"#utility.yul\":4588:4606   */\n      add\n        /* \"#utility.yul\":4580:4606   */\n      swap1\n      pop\n        /* \"#utility.yul\":4652:4661   */\n      dup2\n        /* \"#utility.yul\":4646:4650   */\n      dup2\n        /* \"#utility.yul\":4642:4662   */\n      sub\n        /* \"#utility.yul\":4638:4639   */\n      0x00\n        /* \"#utility.yul\":4627:4636   */\n      dup4\n        /* \"#utility.yul\":4623:4640   */\n      add\n        /* \"#utility.yul\":4616:4663   */\n      mstore\n        /* \"#utility.yul\":4680:4792   */\n      tag_402\n        /* \"#utility.yul\":4787:4791   */\n      dup2\n        /* \"#utility.yul\":4778:4784   */\n      dup5\n        /* \"#utility.yul\":4680:4792   */\n      tag_325\n      jump\t// in\n    tag_402:\n        /* \"#utility.yul\":4672:4792   */\n      swap1\n      pop\n        /* \"#utility.yul\":4418:4799   */\n      swap3\n      swap2\n      pop\n      pop\n      jump\t// out\n        /* \"#utility.yul\":4805:4922   */\n    tag_326:\n        /* \"#utility.yul\":4914:4915   */\n      0x00\n        /* \"#utility.yul\":4911:4912   */\n      dup1\n        /* \"#utility.yul\":4904:4916   */\n      revert\n        /* \"#utility.yul\":4928:5045   */\n    tag_327:\n        /* \"#utility.yul\":5037:5038   */\n      0x00\n        /* \"#utility.yul\":5034:5035   */\n      dup1\n        /* \"#utility.yul\":5027:5039   */\n      revert\n        /* \"#utility.yul\":5051:5231   */\n    tag_101:\n        /* \"#utility.yul\":5099:5176   */\n      0x4e487b7100000000000000000000000000000000000000000000000000000000\n        /* \"#utility.yul\":5096:5097   */\n      0x00\n        /* \"#utility.yul\":5089:5177   */\n      mstore\n        /* \"#utility.yul\":5196:5200   */\n      0x41\n        /* \"#utility.yul\":5193:5194   */\n      0x04\n        /* \"#utility.yul\":5186:5201   */\n      mstore\n        /* \"#utility.yul\":5220:5224   */\n      0x24\n        /* \"#utility.yul\":5217:5218   */\n      0x00\n        /* \"#utility.yul\":5210:5225   */\n      revert\n        /* \"#utility.yul\":5237:5518   */\n    tag_328:\n        /* \"#utility.yul\":5320:5347   */\n      tag_407\n        /* \"#utility.yul\":5342:5346   */\n      dup3\n        /* \"#utility.yul\":5320:5347   */\n      tag_323\n      jump\t// in\n    tag_407:\n        /* \"#utility.yul\":5312:5318   */\n      dup2\n        /* \"#utility.yul\":5308:5348   */\n      add\n        /* \"#utility.yul\":5450:5456   */\n      dup2\n        /* \"#utility.yul\":5438:5448   */\n      dup2\n        /* \"#utility.yul\":5435:5457   */\n      lt\n        /* \"#utility.yul\":5414:5432   */\n      0xffffffffffffffff\n        /* \"#utility.yul\":5402:5412   */\n      dup3\n        /* \"#utility.yul\":5399:5433   */\n      gt\n        /* \"#utility.yul\":5396:5458   */\n      or\n        /* \"#utility.yul\":5393:5481   */\n      iszero\n      tag_408\n      jumpi\n        /* \"#utility.yul\":5461:5479   */\n      tag_409\n      tag_101\n      jump\t// in\n    tag_409:\n        /* \"#utility.yul\":5393:5481   */\n    tag_408:\n        /* \"#utility.yul\":5501:5511   */\n      dup1\n        /* \"#utility.yul\":5497:5499   */\n      0x40\n        /* \"#utility.yul\":5490:5512   */\n      mstore\n        /* \"#utility.yul\":5280:5518   */\n      pop\n        /* \"#utility.yul\":5237:5518   */\n      pop\n      pop\n      jump\t// out\n        /* \"#utility.yul\":5524:5653   */\n    tag_329:\n        /* \"#utility.yul\":5558:5564   */\n      0x00\n        /* \"#utility.yul\":5585:5605   */\n      tag_411\n      tag_313\n      jump\t// in\n    tag_411:\n        /* \"#utility.yul\":5575:5605   */\n      swap1\n      pop\n        /* \"#utility.yul\":5614:5647   */\n      tag_412\n        /* \"#utility.yul\":5642:5646   */\n      dup3\n        /* \"#utility.yul\":5634:5640   */\n      dup3\n        /* \"#utility.yul\":5614:5647   */\n      tag_328\n      jump\t// in\n    tag_412:\n        /* \"#utility.yul\":5524:5653   */\n      swap2\n      swap1\n      pop\n      jump\t// out\n        /* \"#utility.yul\":5659:5967   */\n    tag_330:\n        /* \"#utility.yul\":5721:5725   */\n      0x00\n        /* \"#utility.yul\":5811:5829   */\n      0xffffffffffffffff\n        /* \"#utility.yul\":5803:5809   */\n      dup3\n        /* \"#utility.yul\":5800:5830   */\n      gt\n        /* \"#utility.yul\":5797:5853   */\n      iszero\n      tag_414\n      jumpi\n        /* \"#utility.yul\":5833:5851   */\n      tag_415\n      tag_101\n      jump\t// in\n    tag_415:\n        /* \"#utility.yul\":5797:5853   */\n    tag_414:\n        /* \"#utility.yul\":5871:5900   */\n      tag_416\n        /* \"#utility.yul\":5893:5899   */\n      dup3\n        /* \"#utility.yul\":5871:5900   */\n      tag_323\n      jump\t// in\n    tag_416:\n        /* \"#utility.yul\":5863:5900   */\n      swap1\n      pop\n        /* \"#utility.yul\":5955:5959   */\n      0x20\n        /* \"#utility.yul\":5949:5953   */\n      dup2\n        /* \"#utility.yul\":5945:5960   */\n      add\n        /* \"#utility.yul\":5937:5960   */\n      swap1\n      pop\n        /* \"#utility.yul\":5659:5967   */\n      swap2\n      swap1\n      pop\n      jump\t// out\n        /* \"#utility.yul\":5973:6121   */\n    tag_331:\n        /* \"#utility.yul\":6071:6077   */\n      dup3\n        /* \"#utility.yul\":6066:6069   */\n      dup2\n        /* \"#utility.yul\":6061:6064   */\n      dup4\n        /* \"#utility.yul\":6048:6078   */\n      calldatacopy\n        /* \"#utility.yul\":6112:6113   */\n      0x00\n        /* \"#utility.yul\":6103:6109   */\n      dup4\n        /* \"#utility.yul\":6098:6101   */\n      dup4\n        /* \"#utility.yul\":6094:6110   */\n      add\n        /* \"#utility.yul\":6087:6114   */\n      mstore\n        /* \"#utility.yul\":5973:6121   */\n      pop\n      pop\n      pop\n      jump\t// out\n        /* \"#utility.yul\":6127:6552   */\n    tag_332:\n        /* \"#utility.yul\":6205:6210   */\n      0x00\n        /* \"#utility.yul\":6230:6296   */\n      tag_419\n        /* \"#utility.yul\":6246:6295   */\n      tag_420\n        /* \"#utility.yul\":6288:6294   */\n      dup5\n        /* \"#utility.yul\":6246:6295   */\n      tag_330\n      jump\t// in\n    tag_420:\n        /* \"#utility.yul\":6230:6296   */\n      tag_329\n      jump\t// in\n    tag_419:\n        /* \"#utility.yul\":6221:6296   */\n      swap1\n      pop\n        /* \"#utility.yul\":6319:6325   */\n      dup3\n        /* \"#utility.yul\":6312:6317   */\n      dup2\n        /* \"#utility.yul\":6305:6326   */\n      mstore\n        /* \"#utility.yul\":6357:6361   */\n      0x20\n        /* \"#utility.yul\":6350:6355   */\n      dup2\n        /* \"#utility.yul\":6346:6362   */\n      add\n        /* \"#utility.yul\":6395:6398   */\n      dup5\n        /* \"#utility.yul\":6386:6392   */\n      dup5\n        /* \"#utility.yul\":6381:6384   */\n      dup5\n        /* \"#utility.yul\":6377:6393   */\n      add\n        /* \"#utility.yul\":6374:6399   */\n      gt\n        /* \"#utility.yul\":6371:6483   */\n      iszero\n      tag_421\n      jumpi\n        /* \"#utility.yul\":6402:6481   */\n      tag_422\n      tag_327\n      jump\t// in\n    tag_422:\n        /* \"#utility.yul\":6371:6483   */\n    tag_421:\n        /* \"#utility.yul\":6492:6546   */\n      tag_423\n        /* \"#utility.yul\":6539:6545   */\n      dup5\n        /* \"#utility.yul\":6534:6537   */\n      dup3\n        /* \"#utility.yul\":6529:6532   */\n      dup6\n        /* \"#utility.yul\":6492:6546   */\n      tag_331\n      jump\t// in\n    tag_423:\n        /* \"#utility.yul\":6211:6552   */\n      pop\n        /* \"#utility.yul\":6127:6552   */\n      swap4\n      swap3\n      pop\n      pop\n      pop\n      jump\t// out\n        /* \"#utility.yul\":6572:6912   */\n    tag_333:\n        /* \"#utility.yul\":6628:6633   */\n      0x00\n        /* \"#utility.yul\":6677:6680   */\n      dup3\n        /* \"#utility.yul\":6670:6674   */\n      0x1f\n        /* \"#utility.yul\":6662:6668   */\n      dup4\n        /* \"#utility.yul\":6658:6675   */\n      add\n        /* \"#utility.yul\":6654:6681   */\n      slt\n        /* \"#utility.yul\":6644:6766   */\n      tag_425\n      jumpi\n        /* \"#utility.yul\":6685:6764   */\n      tag_426\n      tag_326\n      jump\t// in\n    tag_426:\n        /* \"#utility.yul\":6644:6766   */\n    tag_425:\n        /* \"#utility.yul\":6802:6808   */\n      dup2\n        /* \"#utility.yul\":6789:6809   */\n      calldataload\n        /* \"#utility.yul\":6827:6906   */\n      tag_427\n        /* \"#utility.yul\":6902:6905   */\n      dup5\n        /* \"#utility.yul\":6894:6900   */\n      dup3\n        /* \"#utility.yul\":6887:6891   */\n      0x20\n        /* \"#utility.yul\":6879:6885   */\n      dup7\n        /* \"#utility.yul\":6875:6892   */\n      add\n        /* \"#utility.yul\":6827:6906   */\n      tag_332\n      jump\t// in\n    tag_427:\n        /* \"#utility.yul\":6818:6906   */\n      swap2\n      pop\n        /* \"#utility.yul\":6634:6912   */\n      pop\n        /* \"#utility.yul\":6572:6912   */\n      swap3\n      swap2\n      pop\n      pop\n      jump\t// out\n        /* \"#utility.yul\":6918:7427   */\n    tag_20:\n        /* \"#utility.yul\":6987:6993   */\n      0x00\n        /* \"#utility.yul\":7036:7038   */\n      0x20\n        /* \"#utility.yul\":7024:7033   */\n      dup3\n        /* \"#utility.yul\":7015:7022   */\n      dup5\n        /* \"#utility.yul\":7011:7034   */\n      sub\n        /* \"#utility.yul\":7007:7039   */\n      slt\n        /* \"#utility.yul\":7004:7123   */\n      iszero\n      tag_429\n      jumpi\n        /* \"#utility.yul\":7042:7121   */\n      tag_430\n      tag_314\n      jump\t// in\n    tag_430:\n        /* \"#utility.yul\":7004:7123   */\n    tag_429:\n        /* \"#utility.yul\":7190:7191   */\n      0x00\n        /* \"#utility.yul\":7179:7188   */\n      dup3\n        /* \"#utility.yul\":7175:7192   */\n      add\n        /* \"#utility.yul\":7162:7193   */\n      calldataload\n        /* \"#utility.yul\":7220:7238   */\n      0xffffffffffffffff\n        /* \"#utility.yul\":7212:7218   */\n      dup2\n        /* \"#utility.yul\":7209:7239   */\n      gt\n        /* \"#utility.yul\":7206:7323   */\n      iszero\n      tag_431\n      jumpi\n        /* \"#utility.yul\":7242:7321   */\n      tag_432\n      tag_315\n      jump\t// in\n    tag_432:\n        /* \"#utility.yul\":7206:7323   */\n    tag_431:\n        /* \"#utility.yul\":7347:7410   */\n      tag_433\n        /* \"#utility.yul\":7402:7409   */\n      dup5\n        /* \"#utility.yul\":7393:7399   */\n      dup3\n        /* \"#utility.yul\":7382:7391   */\n      dup6\n        /* \"#utility.yul\":7378:7400   */\n      add\n        /* \"#utility.yul\":7347:7410   */\n      tag_333\n      jump\t// in\n    tag_433:\n        /* \"#utility.yul\":7337:7410   */\n      swap2\n      pop\n        /* \"#utility.yul\":7133:7420   */\n      pop\n        /* \"#utility.yul\":6918:7427   */\n      swap3\n      swap2\n      pop\n      pop\n      jump\t// out\n        /* \"#utility.yul\":7433:7574   */\n    tag_334:\n        /* \"#utility.yul\":7527:7533   */\n      0x00\n        /* \"#utility.yul\":7561:7566   */\n      dup2\n        /* \"#utility.yul\":7555:7567   */\n      mload\n        /* \"#utility.yul\":7545:7567   */\n      swap1\n      pop\n        /* \"#utility.yul\":7433:7574   */\n      swap2\n      swap1\n      pop\n      jump\t// out\n        /* \"#utility.yul\":7580:7791   */\n    tag_335:\n        /* \"#utility.yul\":7706:7717   */\n      0x00\n        /* \"#utility.yul\":7740:7746   */\n      dup3\n        /* \"#utility.yul\":7735:7738   */\n      dup3\n        /* \"#utility.yul\":7728:7747   */\n      mstore\n        /* \"#utility.yul\":7780:7784   */\n      0x20\n        /* \"#utility.yul\":7775:7778   */\n      dup3\n        /* \"#utility.yul\":7771:7785   */\n      add\n        /* \"#utility.yul\":7756:7785   */\n      swap1\n      pop\n        /* \"#utility.yul\":7580:7791   */\n      swap3\n      swap2\n      pop\n      pop\n      jump\t// out\n        /* \"#utility.yul\":7797:7956   */\n    tag_336:\n        /* \"#utility.yul\":7891:7895   */\n      0x00\n        /* \"#utility.yul\":7914:7917   */\n      dup2\n        /* \"#utility.yul\":7906:7917   */\n      swap1\n      pop\n        /* \"#utility.yul\":7944:7948   */\n      0x20\n        /* \"#utility.yul\":7939:7942   */\n      dup3\n        /* \"#utility.yul\":7935:7949   */\n      add\n        /* \"#utility.yul\":7927:7949   */\n      swap1\n      pop\n        /* \"#utility.yul\":7797:7956   */\n      swap2\n      swap1\n      pop\n      jump\t// out\n        /* \"#utility.yul\":8050:10339   */\n    tag_337:\n        /* \"#utility.yul\":8163:8166   */\n      0x00\n        /* \"#utility.yul\":8199:8205   */\n      0x0120\n        /* \"#utility.yul\":8194:8197   */\n      dup4\n        /* \"#utility.yul\":8190:8206   */\n      add\n        /* \"#utility.yul\":8297:8301   */\n      0x00\n        /* \"#utility.yul\":8290:8295   */\n      dup4\n        /* \"#utility.yul\":8286:8302   */\n      add\n        /* \"#utility.yul\":8280:8303   */\n      mload\n        /* \"#utility.yul\":8316:8379   */\n      tag_438\n        /* \"#utility.yul\":8373:8377   */\n      0x00\n        /* \"#utility.yul\":8368:8371   */\n      dup7\n        /* \"#utility.yul\":8364:8378   */\n      add\n        /* \"#utility.yul\":8350:8362   */\n      dup3\n        /* \"#utility.yul\":8316:8379   */\n      tag_319\n      jump\t// in\n    tag_438:\n        /* \"#utility.yul\":8216:8389   */\n      pop\n        /* \"#utility.yul\":8482:8486   */\n      0x20\n        /* \"#utility.yul\":8475:8480   */\n      dup4\n        /* \"#utility.yul\":8471:8487   */\n      add\n        /* \"#utility.yul\":8465:8488   */\n      mload\n        /* \"#utility.yul\":8535:8538   */\n      dup5\n        /* \"#utility.yul\":8529:8533   */\n      dup3\n        /* \"#utility.yul\":8525:8539   */\n      sub\n        /* \"#utility.yul\":8518:8522   */\n      0x20\n        /* \"#utility.yul\":8513:8516   */\n      dup7\n        /* \"#utility.yul\":8509:8523   */\n      add\n        /* \"#utility.yul\":8502:8540   */\n      mstore\n        /* \"#utility.yul\":8561:8634   */\n      tag_439\n        /* \"#utility.yul\":8629:8633   */\n      dup3\n        /* \"#utility.yul\":8615:8627   */\n      dup3\n        /* \"#utility.yul\":8561:8634   */\n      tag_324\n      jump\t// in\n    tag_439:\n        /* \"#utility.yul\":8553:8634   */\n      swap2\n      pop\n        /* \"#utility.yul\":8399:8645   */\n      pop\n        /* \"#utility.yul\":8727:8731   */\n      0x40\n        /* \"#utility.yul\":8720:8725   */\n      dup4\n        /* \"#utility.yul\":8716:8732   */\n      add\n        /* \"#utility.yul\":8710:8733   */\n      mload\n        /* \"#utility.yul\":8780:8783   */\n      dup5\n        /* \"#utility.yul\":8774:8778   */\n      dup3\n        /* \"#utility.yul\":8770:8784   */\n      sub\n        /* \"#utility.yul\":8763:8767   */\n      0x40\n        /* \"#utility.yul\":8758:8761   */\n      dup7\n        /* \"#utility.yul\":8754:8768   */\n      add\n        /* \"#utility.yul\":8747:8785   */\n      mstore\n        /* \"#utility.yul\":8806:8879   */\n      tag_440\n        /* \"#utility.yul\":8874:8878   */\n      dup3\n        /* \"#utility.yul\":8860:8872   */\n      dup3\n        /* \"#utility.yul\":8806:8879   */\n      tag_324\n      jump\t// in\n    tag_440:\n        /* \"#utility.yul\":8798:8879   */\n      swap2\n      pop\n        /* \"#utility.yul\":8655:8890   */\n      pop\n        /* \"#utility.yul\":8974:8978   */\n      0x60\n        /* \"#utility.yul\":8967:8972   */\n      dup4\n        /* \"#utility.yul\":8963:8979   */\n      add\n        /* \"#utility.yul\":8957:8980   */\n      mload\n        /* \"#utility.yul\":9027:9030   */\n      dup5\n        /* \"#utility.yul\":9021:9025   */\n      dup3\n        /* \"#utility.yul\":9017:9031   */\n      sub\n        /* \"#utility.yul\":9010:9014   */\n      0x60\n        /* \"#utility.yul\":9005:9008   */\n      dup7\n        /* \"#utility.yul\":9001:9015   */\n      add\n        /* \"#utility.yul\":8994:9032   */\n      mstore\n        /* \"#utility.yul\":9053:9126   */\n      tag_441\n        /* \"#utility.yul\":9121:9125   */\n      dup3\n        /* \"#utility.yul\":9107:9119   */\n      dup3\n        /* \"#utility.yul\":9053:9126   */\n      tag_324\n      jump\t// in\n    tag_441:\n        /* \"#utility.yul\":9045:9126   */\n      swap2\n      pop\n        /* \"#utility.yul\":8900:9137   */\n      pop\n        /* \"#utility.yul\":9217:9221   */\n      0x80\n        /* \"#utility.yul\":9210:9215   */\n      dup4\n        /* \"#utility.yul\":9206:9222   */\n      add\n        /* \"#utility.yul\":9200:9223   */\n      mload\n        /* \"#utility.yul\":9270:9273   */\n      dup5\n        /* \"#utility.yul\":9264:9268   */\n      dup3\n        /* \"#utility.yul\":9260:9274   */\n      sub\n        /* \"#utility.yul\":9253:9257   */\n      0x80\n        /* \"#utility.yul\":9248:9251   */\n      dup7\n        /* \"#utility.yul\":9244:9258   */\n      add\n        /* \"#utility.yul\":9237:9275   */\n      mstore\n        /* \"#utility.yul\":9296:9369   */\n      tag_442\n        /* \"#utility.yul\":9364:9368   */\n      dup3\n        /* \"#utility.yul\":9350:9362   */\n      dup3\n        /* \"#utility.yul\":9296:9369   */\n      tag_324\n      jump\t// in\n    tag_442:\n        /* \"#utility.yul\":9288:9369   */\n      swap2\n      pop\n        /* \"#utility.yul\":9147:9380   */\n      pop\n        /* \"#utility.yul\":9462:9466   */\n      0xa0\n        /* \"#utility.yul\":9455:9460   */\n      dup4\n        /* \"#utility.yul\":9451:9467   */\n      add\n        /* \"#utility.yul\":9445:9468   */\n      mload\n        /* \"#utility.yul\":9515:9518   */\n      dup5\n        /* \"#utility.yul\":9509:9513   */\n      dup3\n        /* \"#utility.yul\":9505:9519   */\n      sub\n        /* \"#utility.yul\":9498:9502   */\n      0xa0\n        /* \"#utility.yul\":9493:9496   */\n      dup7\n        /* \"#utility.yul\":9489:9503   */\n      add\n        /* \"#utility.yul\":9482:9520   */\n      mstore\n        /* \"#utility.yul\":9541:9614   */\n      tag_443\n        /* \"#utility.yul\":9609:9613   */\n      dup3\n        /* \"#utility.yul\":9595:9607   */\n      dup3\n        /* \"#utility.yul\":9541:9614   */\n      tag_324\n      jump\t// in\n    tag_443:\n        /* \"#utility.yul\":9533:9614   */\n      swap2\n      pop\n        /* \"#utility.yul\":9390:9625   */\n      pop\n        /* \"#utility.yul\":9712:9716   */\n      0xc0\n        /* \"#utility.yul\":9705:9710   */\n      dup4\n        /* \"#utility.yul\":9701:9717   */\n      add\n        /* \"#utility.yul\":9695:9718   */\n      mload\n        /* \"#utility.yul\":9765:9768   */\n      dup5\n        /* \"#utility.yul\":9759:9763   */\n      dup3\n        /* \"#utility.yul\":9755:9769   */\n      sub\n        /* \"#utility.yul\":9748:9752   */\n      0xc0\n        /* \"#utility.yul\":9743:9746   */\n      dup7\n        /* \"#utility.yul\":9739:9753   */\n      add\n        /* \"#utility.yul\":9732:9770   */\n      mstore\n        /* \"#utility.yul\":9791:9864   */\n      tag_444\n        /* \"#utility.yul\":9859:9863   */\n      dup3\n        /* \"#utility.yul\":9845:9857   */\n      dup3\n        /* \"#utility.yul\":9791:9864   */\n      tag_324\n      jump\t// in\n    tag_444:\n        /* \"#utility.yul\":9783:9864   */\n      swap2\n      pop\n        /* \"#utility.yul\":9635:9875   */\n      pop\n        /* \"#utility.yul\":9966:9970   */\n      0xe0\n        /* \"#utility.yul\":9959:9964   */\n      dup4\n        /* \"#utility.yul\":9955:9971   */\n      add\n        /* \"#utility.yul\":9949:9972   */\n      mload\n        /* \"#utility.yul\":10019:10022   */\n      dup5\n        /* \"#utility.yul\":10013:10017   */\n      dup3\n        /* \"#utility.yul\":10009:10023   */\n      sub\n        /* \"#utility.yul\":10002:10006   */\n      0xe0\n        /* \"#utility.yul\":9997:10000   */\n      dup7\n        /* \"#utility.yul\":9993:10007   */\n      add\n        /* \"#utility.yul\":9986:10024   */\n      mstore\n        /* \"#utility.yul\":10045:10118   */\n      tag_445\n        /* \"#utility.yul\":10113:10117   */\n      dup3\n        /* \"#utility.yul\":10099:10111   */\n      dup3\n        /* \"#utility.yul\":10045:10118   */\n      tag_324\n      jump\t// in\n    tag_445:\n        /* \"#utility.yul\":10037:10118   */\n      swap2\n      pop\n        /* \"#utility.yul\":9885:10129   */\n      pop\n        /* \"#utility.yul\":10216:10222   */\n      0x0100\n        /* \"#utility.yul\":10209:10214   */\n      dup4\n        /* \"#utility.yul\":10205:10223   */\n      add\n        /* \"#utility.yul\":10199:10224   */\n      mload\n        /* \"#utility.yul\":10237:10302   */\n      tag_446\n        /* \"#utility.yul\":10294:10300   */\n      0x0100\n        /* \"#utility.yul\":10289:10292   */\n      dup7\n        /* \"#utility.yul\":10285:10301   */\n      add\n        /* \"#utility.yul\":10271:10283   */\n      dup3\n        /* \"#utility.yul\":10237:10302   */\n      tag_319\n      jump\t// in\n    tag_446:\n        /* \"#utility.yul\":10139:10312   */\n      pop\n        /* \"#utility.yul\":10329:10333   */\n      dup1\n        /* \"#utility.yul\":10322:10333   */\n      swap2\n      pop\n        /* \"#utility.yul\":8168:10339   */\n      pop\n        /* \"#utility.yul\":8050:10339   */\n      swap3\n      swap2\n      pop\n      pop\n      jump\t// out\n        /* \"#utility.yul\":10345:10609   */\n    tag_338:\n        /* \"#utility.yul\":10468:10478   */\n      0x00\n        /* \"#utility.yul\":10503:10603   */\n      tag_448\n        /* \"#utility.yul\":10599:10602   */\n      dup4\n        /* \"#utility.yul\":10591:10597   */\n      dup4\n        /* \"#utility.yul\":10503:10603   */\n      tag_337\n      jump\t// in\n    tag_448:\n        /* \"#utility.yul\":10489:10603   */\n      swap1\n      pop\n        /* \"#utility.yul\":10345:10609   */\n      swap3\n      swap2\n      pop\n      pop\n      jump\t// out\n        /* \"#utility.yul\":10615:10755   */\n    tag_339:\n        /* \"#utility.yul\":10712:10716   */\n      0x00\n        /* \"#utility.yul\":10744:10748   */\n      0x20\n        /* \"#utility.yul\":10739:10742   */\n      dup3\n        /* \"#utility.yul\":10735:10749   */\n      add\n        /* \"#utility.yul\":10727:10749   */\n      swap1\n      pop\n        /* \"#utility.yul\":10615:10755   */\n      swap2\n      swap1\n      pop\n      jump\t// out\n        /* \"#utility.yul\":10853:11980   */\n    tag_340:\n        /* \"#utility.yul\":11026:11029   */\n      0x00\n        /* \"#utility.yul\":11055:11136   */\n      tag_451\n        /* \"#utility.yul\":11130:11135   */\n      dup3\n        /* \"#utility.yul\":11055:11136   */\n      tag_334\n      jump\t// in\n    tag_451:\n        /* \"#utility.yul\":11152:11265   */\n      tag_452\n        /* \"#utility.yul\":11258:11264   */\n      dup2\n        /* \"#utility.yul\":11253:11256   */\n      dup6\n        /* \"#utility.yul\":11152:11265   */\n      tag_335\n      jump\t// in\n    tag_452:\n        /* \"#utility.yul\":11145:11265   */\n      swap4\n      pop\n        /* \"#utility.yul\":11291:11294   */\n      dup4\n        /* \"#utility.yul\":11336:11340   */\n      0x20\n        /* \"#utility.yul\":11328:11334   */\n      dup3\n        /* \"#utility.yul\":11324:11341   */\n      mul\n        /* \"#utility.yul\":11319:11322   */\n      dup6\n        /* \"#utility.yul\":11315:11342   */\n      add\n        /* \"#utility.yul\":11366:11449   */\n      tag_453\n        /* \"#utility.yul\":11443:11448   */\n      dup6\n        /* \"#utility.yul\":11366:11449   */\n      tag_336\n      jump\t// in\n    tag_453:\n        /* \"#utility.yul\":11472:11479   */\n      dup1\n        /* \"#utility.yul\":11503:11504   */\n      0x00\n        /* \"#utility.yul\":11488:11935   */\n    tag_454:\n        /* \"#utility.yul\":11513:11519   */\n      dup6\n        /* \"#utility.yul\":11510:11511   */\n      dup2\n        /* \"#utility.yul\":11507:11520   */\n      lt\n        /* \"#utility.yul\":11488:11935   */\n      iszero\n      tag_456\n      jumpi\n        /* \"#utility.yul\":11584:11593   */\n      dup5\n        /* \"#utility.yul\":11578:11582   */\n      dup5\n        /* \"#utility.yul\":11574:11594   */\n      sub\n        /* \"#utility.yul\":11569:11572   */\n      dup10\n        /* \"#utility.yul\":11562:11595   */\n      mstore\n        /* \"#utility.yul\":11635:11641   */\n      dup2\n        /* \"#utility.yul\":11629:11642   */\n      mload\n        /* \"#utility.yul\":11663:11781   */\n      tag_457\n        /* \"#utility.yul\":11776:11780   */\n      dup6\n        /* \"#utility.yul\":11761:11774   */\n      dup3\n        /* \"#utility.yul\":11663:11781   */\n      tag_338\n      jump\t// in\n    tag_457:\n        /* \"#utility.yul\":11655:11781   */\n      swap5\n      pop\n        /* \"#utility.yul\":11804:11891   */\n      tag_458\n        /* \"#utility.yul\":11884:11890   */\n      dup4\n        /* \"#utility.yul\":11804:11891   */\n      tag_339\n      jump\t// in\n    tag_458:\n        /* \"#utility.yul\":11794:11891   */\n      swap3\n      pop\n        /* \"#utility.yul\":11920:11924   */\n      0x20\n        /* \"#utility.yul\":11915:11918   */\n      dup11\n        /* \"#utility.yul\":11911:11925   */\n      add\n        /* \"#utility.yul\":11904:11925   */\n      swap10\n      pop\n        /* \"#utility.yul\":11548:11935   */\n      pop\n        /* \"#utility.yul\":11535:11536   */\n      0x01\n        /* \"#utility.yul\":11532:11533   */\n      dup2\n        /* \"#utility.yul\":11528:11537   */\n      add\n        /* \"#utility.yul\":11523:11537   */\n      swap1\n      pop\n        /* \"#utility.yul\":11488:11935   */\n      jump(tag_454)\n    tag_456:\n        /* \"#utility.yul\":11492:11506   */\n      pop\n        /* \"#utility.yul\":11951:11955   */\n      dup3\n        /* \"#utility.yul\":11944:11955   */\n      swap8\n      pop\n        /* \"#utility.yul\":11971:11974   */\n      dup8\n        /* \"#utility.yul\":11964:11974   */\n      swap6\n      pop\n        /* \"#utility.yul\":11031:11980   */\n      pop\n      pop\n      pop\n      pop\n      pop\n        /* \"#utility.yul\":10853:11980   */\n      swap3\n      swap2\n      pop\n      pop\n      jump\t// out\n        /* \"#utility.yul\":11986:12467   */\n    tag_23:\n        /* \"#utility.yul\":12183:12187   */\n      0x00\n        /* \"#utility.yul\":12221:12223   */\n      0x20\n        /* \"#utility.yul\":12210:12219   */\n      dup3\n        /* \"#utility.yul\":12206:12224   */\n      add\n        /* \"#utility.yul\":12198:12224   */\n      swap1\n      pop\n        /* \"#utility.yul\":12270:12279   */\n      dup2\n        /* \"#utility.yul\":12264:12268   */\n      dup2\n        /* \"#utility.yul\":12260:12280   */\n      sub\n        /* \"#utility.yul\":12256:12257   */\n      0x00\n        /* \"#utility.yul\":12245:12254   */\n      dup4\n        /* \"#utility.yul\":12241:12258   */\n      add\n        /* \"#utility.yul\":12234:12281   */\n      mstore\n        /* \"#utility.yul\":12298:12460   */\n      tag_460\n        /* \"#utility.yul\":12455:12459   */\n      dup2\n        /* \"#utility.yul\":12446:12452   */\n      dup5\n        /* \"#utility.yul\":12298:12460   */\n      tag_340\n      jump\t// in\n    tag_460:\n        /* \"#utility.yul\":12290:12460   */\n      swap1\n      pop\n        /* \"#utility.yul\":11986:12467   */\n      swap3\n      swap2\n      pop\n      pop\n      jump\t// out\n        /* \"#utility.yul\":12473:12591   */\n    tag_341:\n        /* \"#utility.yul\":12560:12584   */\n      tag_462\n        /* \"#utility.yul\":12578:12583   */\n      dup2\n        /* \"#utility.yul\":12560:12584   */\n      tag_316\n      jump\t// in\n    tag_462:\n        /* \"#utility.yul\":12555:12558   */\n      dup3\n        /* \"#utility.yul\":12548:12585   */\n      mstore\n        /* \"#utility.yul\":12473:12591   */\n      pop\n      pop\n      jump\t// out\n        /* \"#utility.yul\":12597:12766   */\n    tag_342:\n        /* \"#utility.yul\":12681:12692   */\n      0x00\n        /* \"#utility.yul\":12715:12721   */\n      dup3\n        /* \"#utility.yul\":12710:12713   */\n      dup3\n        /* \"#utility.yul\":12703:12722   */\n      mstore\n        /* \"#utility.yul\":12755:12759   */\n      0x20\n        /* \"#utility.yul\":12750:12753   */\n      dup3\n        /* \"#utility.yul\":12746:12760   */\n      add\n        /* \"#utility.yul\":12731:12760   */\n      swap1\n      pop\n        /* \"#utility.yul\":12597:12766   */\n      swap3\n      swap2\n      pop\n      pop\n      jump\t// out\n        /* \"#utility.yul\":12772:13149   */\n    tag_343:\n        /* \"#utility.yul\":12860:12863   */\n      0x00\n        /* \"#utility.yul\":12888:12927   */\n      tag_465\n        /* \"#utility.yul\":12921:12926   */\n      dup3\n        /* \"#utility.yul\":12888:12927   */\n      tag_320\n      jump\t// in\n    tag_465:\n        /* \"#utility.yul\":12943:13014   */\n      tag_466\n        /* \"#utility.yul\":13007:13013   */\n      dup2\n        /* \"#utility.yul\":13002:13005   */\n      dup6\n        /* \"#utility.yul\":12943:13014   */\n      tag_342\n      jump\t// in\n    tag_466:\n        /* \"#utility.yul\":12936:13014   */\n      swap4\n      pop\n        /* \"#utility.yul\":13023:13088   */\n      tag_467\n        /* \"#utility.yul\":13081:13087   */\n      dup2\n        /* \"#utility.yul\":13076:13079   */\n      dup6\n        /* \"#utility.yul\":13069:13073   */\n      0x20\n        /* \"#utility.yul\":13062:13067   */\n      dup7\n        /* \"#utility.yul\":13058:13074   */\n      add\n        /* \"#utility.yul\":13023:13088   */\n      tag_322\n      jump\t// in\n    tag_467:\n        /* \"#utility.yul\":13113:13142   */\n      tag_468\n        /* \"#utility.yul\":13135:13141   */\n      dup2\n        /* \"#utility.yul\":13113:13142   */\n      tag_323\n      jump\t// in\n    tag_468:\n        /* \"#utility.yul\":13108:13111   */\n      dup5\n        /* \"#utility.yul\":13104:13143   */\n      add\n        /* \"#utility.yul\":13097:13143   */\n      swap2\n      pop\n        /* \"#utility.yul\":12864:13149   */\n      pop\n        /* \"#utility.yul\":12772:13149   */\n      swap3\n      swap2\n      pop\n      pop\n      jump\t// out\n        /* \"#utility.yul\":13155:14900   */\n    tag_28:\n        /* \"#utility.yul\":13612:13616   */\n      0x00\n        /* \"#utility.yul\":13650:13653   */\n      0x0120\n        /* \"#utility.yul\":13639:13648   */\n      dup3\n        /* \"#utility.yul\":13635:13654   */\n      add\n        /* \"#utility.yul\":13627:13654   */\n      swap1\n      pop\n        /* \"#utility.yul\":13664:13735   */\n      tag_470\n        /* \"#utility.yul\":13732:13733   */\n      0x00\n        /* \"#utility.yul\":13721:13730   */\n      dup4\n        /* \"#utility.yul\":13717:13734   */\n      add\n        /* \"#utility.yul\":13708:13714   */\n      dup13\n        /* \"#utility.yul\":13664:13735   */\n      tag_341\n      jump\t// in\n    tag_470:\n        /* \"#utility.yul\":13782:13791   */\n      dup2\n        /* \"#utility.yul\":13776:13780   */\n      dup2\n        /* \"#utility.yul\":13772:13792   */\n      sub\n        /* \"#utility.yul\":13767:13769   */\n      0x20\n        /* \"#utility.yul\":13756:13765   */\n      dup4\n        /* \"#utility.yul\":13752:13770   */\n      add\n        /* \"#utility.yul\":13745:13793   */\n      mstore\n        /* \"#utility.yul\":13810:13888   */\n      tag_471\n        /* \"#utility.yul\":13883:13887   */\n      dup2\n        /* \"#utility.yul\":13874:13880   */\n      dup12\n        /* \"#utility.yul\":13810:13888   */\n      tag_343\n      jump\t// in\n    tag_471:\n        /* \"#utility.yul\":13802:13888   */\n      swap1\n      pop\n        /* \"#utility.yul\":13935:13944   */\n      dup2\n        /* \"#utility.yul\":13929:13933   */\n      dup2\n        /* \"#utility.yul\":13925:13945   */\n      sub\n        /* \"#utility.yul\":13920:13922   */\n      0x40\n        /* \"#utility.yul\":13909:13918   */\n      dup4\n        /* \"#utility.yul\":13905:13923   */\n      add\n        /* \"#utility.yul\":13898:13946   */\n      mstore\n        /* \"#utility.yul\":13963:14041   */\n      tag_472\n        /* \"#utility.yul\":14036:14040   */\n      dup2\n        /* \"#utility.yul\":14027:14033   */\n      dup11\n        /* \"#utility.yul\":13963:14041   */\n      tag_343\n      jump\t// in\n    tag_472:\n        /* \"#utility.yul\":13955:14041   */\n      swap1\n      pop\n        /* \"#utility.yul\":14088:14097   */\n      dup2\n        /* \"#utility.yul\":14082:14086   */\n      dup2\n        /* \"#utility.yul\":14078:14098   */\n      sub\n        /* \"#utility.yul\":14073:14075   */\n      0x60\n        /* \"#utility.yul\":14062:14071   */\n      dup4\n        /* \"#utility.yul\":14058:14076   */\n      add\n        /* \"#utility.yul\":14051:14099   */\n      mstore\n        /* \"#utility.yul\":14116:14194   */\n      tag_473\n        /* \"#utility.yul\":14189:14193   */\n      dup2\n        /* \"#utility.yul\":14180:14186   */\n      dup10\n        /* \"#utility.yul\":14116:14194   */\n      tag_343\n      jump\t// in\n    tag_473:\n        /* \"#utility.yul\":14108:14194   */\n      swap1\n      pop\n        /* \"#utility.yul\":14242:14251   */\n      dup2\n        /* \"#utility.yul\":14236:14240   */\n      dup2\n        /* \"#utility.yul\":14232:14252   */\n      sub\n        /* \"#utility.yul\":14226:14229   */\n      0x80\n        /* \"#utility.yul\":14215:14224   */\n      dup4\n        /* \"#utility.yul\":14211:14230   */\n      add\n        /* \"#utility.yul\":14204:14253   */\n      mstore\n        /* \"#utility.yul\":14270:14348   */\n      tag_474\n        /* \"#utility.yul\":14343:14347   */\n      dup2\n        /* \"#utility.yul\":14334:14340   */\n      dup9\n        /* \"#utility.yul\":14270:14348   */\n      tag_343\n      jump\t// in\n    tag_474:\n        /* \"#utility.yul\":14262:14348   */\n      swap1\n      pop\n        /* \"#utility.yul\":14396:14405   */\n      dup2\n        /* \"#utility.yul\":14390:14394   */\n      dup2\n        /* \"#utility.yul\":14386:14406   */\n      sub\n        /* \"#utility.yul\":14380:14383   */\n      0xa0\n        /* \"#utility.yul\":14369:14378   */\n      dup4\n        /* \"#utility.yul\":14365:14384   */\n      add\n        /* \"#utility.yul\":14358:14407   */\n      mstore\n        /* \"#utility.yul\":14424:14502   */\n      tag_475\n        /* \"#utility.yul\":14497:14501   */\n      dup2\n        /* \"#utility.yul\":14488:14494   */\n      dup8\n        /* \"#utility.yul\":14424:14502   */\n      tag_343\n      jump\t// in\n    tag_475:\n        /* \"#utility.yul\":14416:14502   */\n      swap1\n      pop\n        /* \"#utility.yul\":14550:14559   */\n      dup2\n        /* \"#utility.yul\":14544:14548   */\n      dup2\n        /* \"#utility.yul\":14540:14560   */\n      sub\n        /* \"#utility.yul\":14534:14537   */\n      0xc0\n        /* \"#utility.yul\":14523:14532   */\n      dup4\n        /* \"#utility.yul\":14519:14538   */\n      add\n        /* \"#utility.yul\":14512:14561   */\n      mstore\n        /* \"#utility.yul\":14578:14656   */\n      tag_476\n        /* \"#utility.yul\":14651:14655   */\n      dup2\n        /* \"#utility.yul\":14642:14648   */\n      dup7\n        /* \"#utility.yul\":14578:14656   */\n      tag_343\n      jump\t// in\n    tag_476:\n        /* \"#utility.yul\":14570:14656   */\n      swap1\n      pop\n        /* \"#utility.yul\":14704:14713   */\n      dup2\n        /* \"#utility.yul\":14698:14702   */\n      dup2\n        /* \"#utility.yul\":14694:14714   */\n      sub\n        /* \"#utility.yul\":14688:14691   */\n      0xe0\n        /* \"#utility.yul\":14677:14686   */\n      dup4\n        /* \"#utility.yul\":14673:14692   */\n      add\n        /* \"#utility.yul\":14666:14715   */\n      mstore\n        /* \"#utility.yul\":14732:14810   */\n      tag_477\n        /* \"#utility.yul\":14805:14809   */\n      dup2\n        /* \"#utility.yul\":14796:14802   */\n      dup6\n        /* \"#utility.yul\":14732:14810   */\n      tag_343\n      jump\t// in\n    tag_477:\n        /* \"#utility.yul\":14724:14810   */\n      swap1\n      pop\n        /* \"#utility.yul\":14820:14893   */\n      tag_478\n        /* \"#utility.yul\":14888:14891   */\n      0x0100\n        /* \"#utility.yul\":14877:14886   */\n      dup4\n        /* \"#utility.yul\":14873:14892   */\n      add\n        /* \"#utility.yul\":14864:14870   */\n      dup5\n        /* \"#utility.yul\":14820:14893   */\n      tag_341\n      jump\t// in\n    tag_478:\n        /* \"#utility.yul\":13155:14900   */\n      swap11\n      swap10\n      pop\n      pop\n      pop\n      pop\n      pop\n      pop\n      pop\n      pop\n      pop\n      pop\n      jump\t// out\n        /* \"#utility.yul\":14906:17515   */\n    tag_31:\n        /* \"#utility.yul\":15098:15104   */\n      0x00\n        /* \"#utility.yul\":15106:15112   */\n      dup1\n        /* \"#utility.yul\":15114:15120   */\n      0x00\n        /* \"#utility.yul\":15122:15128   */\n      dup1\n        /* \"#utility.yul\":15130:15136   */\n      0x00\n        /* \"#utility.yul\":15138:15144   */\n      dup1\n        /* \"#utility.yul\":15146:15152   */\n      0x00\n        /* \"#utility.yul\":15154:15160   */\n      dup1\n        /* \"#utility.yul\":15203:15206   */\n      0x0100\n        /* \"#utility.yul\":15191:15200   */\n      dup10\n        /* \"#utility.yul\":15182:15189   */\n      dup12\n        /* \"#utility.yul\":15178:15201   */\n      sub\n        /* \"#utility.yul\":15174:15207   */\n      slt\n        /* \"#utility.yul\":15171:15291   */\n      iszero\n      tag_480\n      jumpi\n        /* \"#utility.yul\":15210:15289   */\n      tag_481\n      tag_314\n      jump\t// in\n    tag_481:\n        /* \"#utility.yul\":15171:15291   */\n    tag_480:\n        /* \"#utility.yul\":15358:15359   */\n      0x00\n        /* \"#utility.yul\":15347:15356   */\n      dup10\n        /* \"#utility.yul\":15343:15360   */\n      add\n        /* \"#utility.yul\":15330:15361   */\n      calldataload\n        /* \"#utility.yul\":15388:15406   */\n      0xffffffffffffffff\n        /* \"#utility.yul\":15380:15386   */\n      dup2\n        /* \"#utility.yul\":15377:15407   */\n      gt\n        /* \"#utility.yul\":15374:15491   */\n      iszero\n      tag_482\n      jumpi\n        /* \"#utility.yul\":15410:15489   */\n      tag_483\n      tag_315\n      jump\t// in\n    tag_483:\n        /* \"#utility.yul\":15374:15491   */\n    tag_482:\n        /* \"#utility.yul\":15515:15578   */\n      tag_484\n        /* \"#utility.yul\":15570:15577   */\n      dup12\n        /* \"#utility.yul\":15561:15567   */\n      dup3\n        /* \"#utility.yul\":15550:15559   */\n      dup13\n        /* \"#utility.yul\":15546:15568   */\n      add\n        /* \"#utility.yul\":15515:15578   */\n      tag_333\n      jump\t// in\n    tag_484:\n        /* \"#utility.yul\":15505:15578   */\n      swap9\n      pop\n        /* \"#utility.yul\":15301:15588   */\n      pop\n        /* \"#utility.yul\":15655:15657   */\n      0x20\n        /* \"#utility.yul\":15644:15653   */\n      dup10\n        /* \"#utility.yul\":15640:15658   */\n      add\n        /* \"#utility.yul\":15627:15659   */\n      calldataload\n        /* \"#utility.yul\":15686:15704   */\n      0xffffffffffffffff\n        /* \"#utility.yul\":15678:15684   */\n      dup2\n        /* \"#utility.yul\":15675:15705   */\n      gt\n        /* \"#utility.yul\":15672:15789   */\n      iszero\n      tag_485\n      jumpi\n        /* \"#utility.yul\":15708:15787   */\n      tag_486\n      tag_315\n      jump\t// in\n    tag_486:\n        /* \"#utility.yul\":15672:15789   */\n    tag_485:\n        /* \"#utility.yul\":15813:15876   */\n      tag_487\n        /* \"#utility.yul\":15868:15875   */\n      dup12\n        /* \"#utility.yul\":15859:15865   */\n      dup3\n        /* \"#utility.yul\":15848:15857   */\n      dup13\n        /* \"#utility.yul\":15844:15866   */\n      add\n        /* \"#utility.yul\":15813:15876   */\n      tag_333\n      jump\t// in\n    tag_487:\n        /* \"#utility.yul\":15803:15876   */\n      swap8\n      pop\n        /* \"#utility.yul\":15598:15886   */\n      pop\n        /* \"#utility.yul\":15953:15955   */\n      0x40\n        /* \"#utility.yul\":15942:15951   */\n      dup10\n        /* \"#utility.yul\":15938:15956   */\n      add\n        /* \"#utility.yul\":15925:15957   */\n      calldataload\n        /* \"#utility.yul\":15984:16002   */\n      0xffffffffffffffff\n        /* \"#utility.yul\":15976:15982   */\n      dup2\n        /* \"#utility.yul\":15973:16003   */\n      gt\n        /* \"#utility.yul\":15970:16087   */\n      iszero\n      tag_488\n      jumpi\n        /* \"#utility.yul\":16006:16085   */\n      tag_489\n      tag_315\n      jump\t// in\n    tag_489:\n        /* \"#utility.yul\":15970:16087   */\n    tag_488:\n        /* \"#utility.yul\":16111:16174   */\n      tag_490\n        /* \"#utility.yul\":16166:16173   */\n      dup12\n        /* \"#utility.yul\":16157:16163   */\n      dup3\n        /* \"#utility.yul\":16146:16155   */\n      dup13\n        /* \"#utility.yul\":16142:16164   */\n      add\n        /* \"#utility.yul\":16111:16174   */\n      tag_333\n      jump\t// in\n    tag_490:\n        /* \"#utility.yul\":16101:16174   */\n      swap7\n      pop\n        /* \"#utility.yul\":15896:16184   */\n      pop\n        /* \"#utility.yul\":16251:16253   */\n      0x60\n        /* \"#utility.yul\":16240:16249   */\n      dup10\n        /* \"#utility.yul\":16236:16254   */\n      add\n        /* \"#utility.yul\":16223:16255   */\n      calldataload\n        /* \"#utility.yul\":16282:16300   */\n      0xffffffffffffffff\n        /* \"#utility.yul\":16274:16280   */\n      dup2\n        /* \"#utility.yul\":16271:16301   */\n      gt\n        /* \"#utility.yul\":16268:16385   */\n      iszero\n      tag_491\n      jumpi\n        /* \"#utility.yul\":16304:16383   */\n      tag_492\n      tag_315\n      jump\t// in\n    tag_492:\n        /* \"#utility.yul\":16268:16385   */\n    tag_491:\n        /* \"#utility.yul\":16409:16472   */\n      tag_493\n        /* \"#utility.yul\":16464:16471   */\n      dup12\n        /* \"#utility.yul\":16455:16461   */\n      dup3\n        /* \"#utility.yul\":16444:16453   */\n      dup13\n        /* \"#utility.yul\":16440:16462   */\n      add\n        /* \"#utility.yul\":16409:16472   */\n      tag_333\n      jump\t// in\n    tag_493:\n        /* \"#utility.yul\":16399:16472   */\n      swap6\n      pop\n        /* \"#utility.yul\":16194:16482   */\n      pop\n        /* \"#utility.yul\":16549:16552   */\n      0x80\n        /* \"#utility.yul\":16538:16547   */\n      dup10\n        /* \"#utility.yul\":16534:16553   */\n      add\n        /* \"#utility.yul\":16521:16554   */\n      calldataload\n        /* \"#utility.yul\":16581:16599   */\n      0xffffffffffffffff\n        /* \"#utility.yul\":16573:16579   */\n      dup2\n        /* \"#utility.yul\":16570:16600   */\n      gt\n        /* \"#utility.yul\":16567:16684   */\n      iszero\n      tag_494\n      jumpi\n        /* \"#utility.yul\":16603:16682   */\n      tag_495\n      tag_315\n      jump\t// in\n    tag_495:\n        /* \"#utility.yul\":16567:16684   */\n    tag_494:\n        /* \"#utility.yul\":16708:16771   */\n      tag_496\n        /* \"#utility.yul\":16763:16770   */\n      dup12\n        /* \"#utility.yul\":16754:16760   */\n      dup3\n        /* \"#utility.yul\":16743:16752   */\n      dup13\n        /* \"#utility.yul\":16739:16761   */\n      add\n        /* \"#utility.yul\":16708:16771   */\n      tag_333\n      jump\t// in\n    tag_496:\n        /* \"#utility.yul\":16698:16771   */\n      swap5\n      pop\n        /* \"#utility.yul\":16492:16781   */\n      pop\n        /* \"#utility.yul\":16848:16851   */\n      0xa0\n        /* \"#utility.yul\":16837:16846   */\n      dup10\n        /* \"#utility.yul\":16833:16852   */\n      add\n        /* \"#utility.yul\":16820:16853   */\n      calldataload\n        /* \"#utility.yul\":16880:16898   */\n      0xffffffffffffffff\n        /* \"#utility.yul\":16872:16878   */\n      dup2\n        /* \"#utility.yul\":16869:16899   */\n      gt\n        /* \"#utility.yul\":16866:16983   */\n      iszero\n      tag_497\n      jumpi\n        /* \"#utility.yul\":16902:16981   */\n      tag_498\n      tag_315\n      jump\t// in\n    tag_498:\n        /* \"#utility.yul\":16866:16983   */\n    tag_497:\n        /* \"#utility.yul\":17007:17070   */\n      tag_499\n        /* \"#utility.yul\":17062:17069   */\n      dup12\n        /* \"#utility.yul\":17053:17059   */\n      dup3\n        /* \"#utility.yul\":17042:17051   */\n      dup13\n        /* \"#utility.yul\":17038:17060   */\n      add\n        /* \"#utility.yul\":17007:17070   */\n      tag_333\n      jump\t// in\n    tag_499:\n        /* \"#utility.yul\":16997:17070   */\n      swap4\n      pop\n        /* \"#utility.yul\":16791:17080   */\n      pop\n        /* \"#utility.yul\":17147:17150   */\n      0xc0\n        /* \"#utility.yul\":17136:17145   */\n      dup10\n        /* \"#utility.yul\":17132:17151   */\n      add\n        /* \"#utility.yul\":17119:17152   */\n      calldataload\n        /* \"#utility.yul\":17179:17197   */\n      0xffffffffffffffff\n        /* \"#utility.yul\":17171:17177   */\n      dup2\n        /* \"#utility.yul\":17168:17198   */\n      gt\n        /* \"#utility.yul\":17165:17282   */\n      iszero\n      tag_500\n      jumpi\n        /* \"#utility.yul\":17201:17280   */\n      tag_501\n      tag_315\n      jump\t// in\n    tag_501:\n        /* \"#utility.yul\":17165:17282   */\n    tag_500:\n        /* \"#utility.yul\":17306:17369   */\n      tag_502\n        /* \"#utility.yul\":17361:17368   */\n      dup12\n        /* \"#utility.yul\":17352:17358   */\n      dup3\n        /* \"#utility.yul\":17341:17350   */\n      dup13\n        /* \"#utility.yul\":17337:17359   */\n      add\n        /* \"#utility.yul\":17306:17369   */\n      tag_333\n      jump\t// in\n    tag_502:\n        /* \"#utility.yul\":17296:17369   */\n      swap3\n      pop\n        /* \"#utility.yul\":17090:17379   */\n      pop\n        /* \"#utility.yul\":17418:17421   */\n      0xe0\n        /* \"#utility.yul\":17445:17498   */\n      tag_503\n        /* \"#utility.yul\":17490:17497   */\n      dup12\n        /* \"#utility.yul\":17481:17487   */\n      dup3\n        /* \"#utility.yul\":17470:17479   */\n      dup13\n        /* \"#utility.yul\":17466:17488   */\n      add\n        /* \"#utility.yul\":17445:17498   */\n      tag_318\n      jump\t// in\n    tag_503:\n        /* \"#utility.yul\":17435:17498   */\n      swap2\n      pop\n        /* \"#utility.yul\":17389:17508   */\n      pop\n        /* \"#utility.yul\":14906:17515   */\n      swap3\n      swap6\n      swap9\n      pop\n      swap3\n      swap6\n      swap9\n      swap1\n      swap4\n      swap7\n      pop\n      jump\t// out\n        /* \"#utility.yul\":17521:17743   */\n    tag_39:\n        /* \"#utility.yul\":17614:17618   */\n      0x00\n        /* \"#utility.yul\":17652:17654   */\n      0x20\n        /* \"#utility.yul\":17641:17650   */\n      dup3\n        /* \"#utility.yul\":17637:17655   */\n      add\n        /* \"#utility.yul\":17629:17655   */\n      swap1\n      pop\n        /* \"#utility.yul\":17665:17736   */\n      tag_505\n        /* \"#utility.yul\":17733:17734   */\n      0x00\n        /* \"#utility.yul\":17722:17731   */\n      dup4\n        /* \"#utility.yul\":17718:17735   */\n      add\n        /* \"#utility.yul\":17709:17715   */\n      dup5\n        /* \"#utility.yul\":17665:17736   */\n      tag_341\n      jump\t// in\n    tag_505:\n        /* \"#utility.yul\":17521:17743   */\n      swap3\n      swap2\n      pop\n      pop\n      jump\t// out\n        /* \"#utility.yul\":17749:18548   */\n    tag_42:\n        /* \"#utility.yul\":17836:17842   */\n      0x00\n        /* \"#utility.yul\":17844:17850   */\n      dup1\n        /* \"#utility.yul\":17852:17858   */\n      0x00\n        /* \"#utility.yul\":17901:17903   */\n      0x60\n        /* \"#utility.yul\":17889:17898   */\n      dup5\n        /* \"#utility.yul\":17880:17887   */\n      dup7\n        /* \"#utility.yul\":17876:17899   */\n      sub\n        /* \"#utility.yul\":17872:17904   */\n      slt\n        /* \"#utility.yul\":17869:17988   */\n      iszero\n      tag_507\n      jumpi\n        /* \"#utility.yul\":17907:17986   */\n      tag_508\n      tag_314\n      jump\t// in\n    tag_508:\n        /* \"#utility.yul\":17869:17988   */\n    tag_507:\n        /* \"#utility.yul\":18027:18028   */\n      0x00\n        /* \"#utility.yul\":18052:18105   */\n      tag_509\n        /* \"#utility.yul\":18097:18104   */\n      dup7\n        /* \"#utility.yul\":18088:18094   */\n      dup3\n        /* \"#utility.yul\":18077:18086   */\n      dup8\n        /* \"#utility.yul\":18073:18095   */\n      add\n        /* \"#utility.yul\":18052:18105   */\n      tag_318\n      jump\t// in\n    tag_509:\n        /* \"#utility.yul\":18042:18105   */\n      swap4\n      pop\n        /* \"#utility.yul\":17998:18115   */\n      pop\n        /* \"#utility.yul\":18182:18184   */\n      0x20\n        /* \"#utility.yul\":18171:18180   */\n      dup5\n        /* \"#utility.yul\":18167:18185   */\n      add\n        /* \"#utility.yul\":18154:18186   */\n      calldataload\n        /* \"#utility.yul\":18213:18231   */\n      0xffffffffffffffff\n        /* \"#utility.yul\":18205:18211   */\n      dup2\n        /* \"#utility.yul\":18202:18232   */\n      gt\n        /* \"#utility.yul\":18199:18316   */\n      iszero\n      tag_510\n      jumpi\n        /* \"#utility.yul\":18235:18314   */\n      tag_511\n      tag_315\n      jump\t// in\n    tag_511:\n        /* \"#utility.yul\":18199:18316   */\n    tag_510:\n        /* \"#utility.yul\":18340:18403   */\n      tag_512\n        /* \"#utility.yul\":18395:18402   */\n      dup7\n        /* \"#utility.yul\":18386:18392   */\n      dup3\n        /* \"#utility.yul\":18375:18384   */\n      dup8\n        /* \"#utility.yul\":18371:18393   */\n      add\n        /* \"#utility.yul\":18340:18403   */\n      tag_333\n      jump\t// in\n    tag_512:\n        /* \"#utility.yul\":18330:18403   */\n      swap3\n      pop\n        /* \"#utility.yul\":18125:18413   */\n      pop\n        /* \"#utility.yul\":18452:18454   */\n      0x40\n        /* \"#utility.yul\":18478:18531   */\n      tag_513\n        /* \"#utility.yul\":18523:18530   */\n      dup7\n        /* \"#utility.yul\":18514:18520   */\n      dup3\n        /* \"#utility.yul\":18503:18512   */\n      dup8\n        /* \"#utility.yul\":18499:18521   */\n      add\n        /* \"#utility.yul\":18478:18531   */\n      tag_318\n      jump\t// in\n    tag_513:\n        /* \"#utility.yul\":18468:18531   */\n      swap2\n      pop\n        /* \"#utility.yul\":18423:18541   */\n      pop\n        /* \"#utility.yul\":17749:18548   */\n      swap3\n      pop\n      swap3\n      pop\n      swap3\n      jump\t// out\n        /* \"#utility.yul\":18554:18734   */\n    tag_344:\n        /* \"#utility.yul\":18602:18679   */\n      0x4e487b7100000000000000000000000000000000000000000000000000000000\n        /* \"#utility.yul\":18599:18600   */\n      0x00\n        /* \"#utility.yul\":18592:18680   */\n      mstore\n        /* \"#utility.yul\":18699:18703   */\n      0x22\n        /* \"#utility.yul\":18696:18697   */\n      0x04\n        /* \"#utility.yul\":18689:18704   */\n      mstore\n        /* \"#utility.yul\":18723:18727   */\n      0x24\n        /* \"#utility.yul\":18720:18721   */\n      0x00\n        /* \"#utility.yul\":18713:18728   */\n      revert\n        /* \"#utility.yul\":18740:19060   */\n    tag_52:\n        /* \"#utility.yul\":18784:18790   */\n      0x00\n        /* \"#utility.yul\":18821:18822   */\n      0x02\n        /* \"#utility.yul\":18815:18819   */\n      dup3\n        /* \"#utility.yul\":18811:18823   */\n      div\n        /* \"#utility.yul\":18801:18823   */\n      swap1\n      pop\n        /* \"#utility.yul\":18868:18869   */\n      0x01\n        /* \"#utility.yul\":18862:18866   */\n      dup3\n        /* \"#utility.yul\":18858:18870   */\n      and\n        /* \"#utility.yul\":18889:18907   */\n      dup1\n        /* \"#utility.yul\":18879:18960   */\n      tag_516\n      jumpi\n        /* \"#utility.yul\":18945:18949   */\n      0x7f\n        /* \"#utility.yul\":18937:18943   */\n      dup3\n        /* \"#utility.yul\":18933:18950   */\n      and\n        /* \"#utility.yul\":18923:18950   */\n      swap2\n      pop\n        /* \"#utility.yul\":18879:18960   */\n    tag_516:\n        /* \"#utility.yul\":19007:19009   */\n      0x20\n        /* \"#utility.yul\":18999:19005   */\n      dup3\n        /* \"#utility.yul\":18996:19010   */\n      lt\n        /* \"#utility.yul\":18976:18994   */\n      dup2\n        /* \"#utility.yul\":18973:19011   */\n      sub\n        /* \"#utility.yul\":18970:19054   */\n      tag_517\n      jumpi\n        /* \"#utility.yul\":19026:19044   */\n      tag_518\n      tag_344\n      jump\t// in\n    tag_518:\n        /* \"#utility.yul\":18970:19054   */\n    tag_517:\n        /* \"#utility.yul\":18791:19060   */\n      pop\n        /* \"#utility.yul\":18740:19060   */\n      swap2\n      swap1\n      pop\n      jump\t// out\n        /* \"#utility.yul\":19066:19214   */\n    tag_345:\n        /* \"#utility.yul\":19168:19179   */\n      0x00\n        /* \"#utility.yul\":19205:19208   */\n      dup2\n        /* \"#utility.yul\":19190:19208   */\n      swap1\n      pop\n        /* \"#utility.yul\":19066:19214   */\n      swap3\n      swap2\n      pop\n      pop\n      jump\t// out\n        /* \"#utility.yul\":19220:19610   */\n    tag_346:\n        /* \"#utility.yul\":19326:19329   */\n      0x00\n        /* \"#utility.yul\":19354:19393   */\n      tag_521\n        /* \"#utility.yul\":19387:19392   */\n      dup3\n        /* \"#utility.yul\":19354:19393   */\n      tag_320\n      jump\t// in\n    tag_521:\n        /* \"#utility.yul\":19409:19498   */\n      tag_522\n        /* \"#utility.yul\":19491:19497   */\n      dup2\n        /* \"#utility.yul\":19486:19489   */\n      dup6\n        /* \"#utility.yul\":19409:19498   */\n      tag_345\n      jump\t// in\n    tag_522:\n        /* \"#utility.yul\":19402:19498   */\n      swap4\n      pop\n        /* \"#utility.yul\":19507:19572   */\n      tag_523\n        /* \"#utility.yul\":19565:19571   */\n      dup2\n        /* \"#utility.yul\":19560:19563   */\n      dup6\n        /* \"#utility.yul\":19553:19557   */\n      0x20\n        /* \"#utility.yul\":19546:19551   */\n      dup7\n        /* \"#utility.yul\":19542:19558   */\n      add\n        /* \"#utility.yul\":19507:19572   */\n      tag_322\n      jump\t// in\n    tag_523:\n        /* \"#utility.yul\":19597:19603   */\n      dup1\n        /* \"#utility.yul\":19592:19595   */\n      dup5\n        /* \"#utility.yul\":19588:19604   */\n      add\n        /* \"#utility.yul\":19581:19604   */\n      swap2\n      pop\n        /* \"#utility.yul\":19330:19610   */\n      pop\n        /* \"#utility.yul\":19220:19610   */\n      swap3\n      swap2\n      pop\n      pop\n      jump\t// out\n        /* \"#utility.yul\":19616:19891   */\n    tag_92:\n        /* \"#utility.yul\":19748:19751   */\n      0x00\n        /* \"#utility.yul\":19770:19865   */\n      tag_525\n        /* \"#utility.yul\":19861:19864   */\n      dup3\n        /* \"#utility.yul\":19852:19858   */\n      dup5\n        /* \"#utility.yul\":19770:19865   */\n      tag_346\n      jump\t// in\n    tag_525:\n        /* \"#utility.yul\":19763:19865   */\n      swap2\n      pop\n        /* \"#utility.yul\":19882:19885   */\n      dup2\n        /* \"#utility.yul\":19875:19885   */\n      swap1\n      pop\n        /* \"#utility.yul\":19616:19891   */\n      swap3\n      swap2\n      pop\n      pop\n      jump\t// out\n        /* \"#utility.yul\":19897:20038   */\n    tag_347:\n        /* \"#utility.yul\":19946:19950   */\n      0x00\n        /* \"#utility.yul\":19969:19972   */\n      dup2\n        /* \"#utility.yul\":19961:19972   */\n      swap1\n      pop\n        /* \"#utility.yul\":19992:19995   */\n      dup2\n        /* \"#utility.yul\":19989:19990   */\n      0x00\n        /* \"#utility.yul\":19982:19996   */\n      mstore\n        /* \"#utility.yul\":20026:20030   */\n      0x20\n        /* \"#utility.yul\":20023:20024   */\n      0x00\n        /* \"#utility.yul\":20013:20031   */\n      keccak256\n        /* \"#utility.yul\":20005:20031   */\n      swap1\n      pop\n        /* \"#utility.yul\":19897:20038   */\n      swap2\n      swap1\n      pop\n      jump\t// out\n        /* \"#utility.yul\":20068:20942   */\n    tag_348:\n        /* \"#utility.yul\":20171:20174   */\n      0x00\n        /* \"#utility.yul\":20208:20213   */\n      dup2\n        /* \"#utility.yul\":20202:20214   */\n      sload\n        /* \"#utility.yul\":20237:20273   */\n      tag_528\n        /* \"#utility.yul\":20263:20272   */\n      dup2\n        /* \"#utility.yul\":20237:20273   */\n      tag_52\n      jump\t// in\n    tag_528:\n        /* \"#utility.yul\":20289:20378   */\n      tag_529\n        /* \"#utility.yul\":20371:20377   */\n      dup2\n        /* \"#utility.yul\":20366:20369   */\n      dup7\n        /* \"#utility.yul\":20289:20378   */\n      tag_345\n      jump\t// in\n    tag_529:\n        /* \"#utility.yul\":20282:20378   */\n      swap5\n      pop\n        /* \"#utility.yul\":20409:20410   */\n      0x01\n        /* \"#utility.yul\":20398:20407   */\n      dup3\n        /* \"#utility.yul\":20394:20411   */\n      and\n        /* \"#utility.yul\":20425:20426   */\n      0x00\n        /* \"#utility.yul\":20420:20586   */\n      dup2\n      eq\n      tag_531\n      jumpi\n        /* \"#utility.yul\":20600:20601   */\n      0x01\n        /* \"#utility.yul\":20595:20936   */\n      dup2\n      eq\n      tag_532\n      jumpi\n        /* \"#utility.yul\":20387:20936   */\n      jump(tag_530)\n        /* \"#utility.yul\":20420:20586   */\n    tag_531:\n        /* \"#utility.yul\":20504:20508   */\n      0xff\n        /* \"#utility.yul\":20500:20509   */\n      not\n        /* \"#utility.yul\":20489:20498   */\n      dup4\n        /* \"#utility.yul\":20485:20510   */\n      and\n        /* \"#utility.yul\":20480:20483   */\n      dup7\n        /* \"#utility.yul\":20473:20511   */\n      mstore\n        /* \"#utility.yul\":20566:20572   */\n      dup2\n        /* \"#utility.yul\":20559:20573   */\n      iszero\n        /* \"#utility.yul\":20552:20574   */\n      iszero\n        /* \"#utility.yul\":20544:20550   */\n      dup3\n        /* \"#utility.yul\":20540:20575   */\n      mul\n        /* \"#utility.yul\":20535:20538   */\n      dup7\n        /* \"#utility.yul\":20531:20576   */\n      add\n        /* \"#utility.yul\":20524:20576   */\n      swap4\n      pop\n        /* \"#utility.yul\":20420:20586   */\n      jump(tag_530)\n        /* \"#utility.yul\":20595:20936   */\n    tag_532:\n        /* \"#utility.yul\":20662:20700   */\n      tag_533\n        /* \"#utility.yul\":20694:20699   */\n      dup6\n        /* \"#utility.yul\":20662:20700   */\n      tag_347\n      jump\t// in\n    tag_533:\n        /* \"#utility.yul\":20722:20723   */\n      0x00\n        /* \"#utility.yul\":20736:20890   */\n    tag_534:\n        /* \"#utility.yul\":20750:20756   */\n      dup4\n        /* \"#utility.yul\":20747:20748   */\n      dup2\n        /* \"#utility.yul\":20744:20757   */\n      lt\n        /* \"#utility.yul\":20736:20890   */\n      iszero\n      tag_536\n      jumpi\n        /* \"#utility.yul\":20824:20831   */\n      dup2\n        /* \"#utility.yul\":20818:20832   */\n      sload\n        /* \"#utility.yul\":20814:20815   */\n      dup2\n        /* \"#utility.yul\":20809:20812   */\n      dup10\n        /* \"#utility.yul\":20805:20816   */\n      add\n        /* \"#utility.yul\":20798:20833   */\n      mstore\n        /* \"#utility.yul\":20874:20875   */\n      0x01\n        /* \"#utility.yul\":20865:20872   */\n      dup3\n        /* \"#utility.yul\":20861:20876   */\n      add\n        /* \"#utility.yul\":20850:20876   */\n      swap2\n      pop\n        /* \"#utility.yul\":20772:20776   */\n      0x20\n        /* \"#utility.yul\":20769:20770   */\n      dup2\n        /* \"#utility.yul\":20765:20777   */\n      add\n        /* \"#utility.yul\":20760:20777   */\n      swap1\n      pop\n        /* \"#utility.yul\":20736:20890   */\n      jump(tag_534)\n    tag_536:\n        /* \"#utility.yul\":20919:20925   */\n      dup4\n        /* \"#utility.yul\":20914:20917   */\n      dup9\n        /* \"#utility.yul\":20910:20926   */\n      add\n        /* \"#utility.yul\":20903:20926   */\n      swap6\n      pop\n        /* \"#utility.yul\":20602:20936   */\n      pop\n      pop\n        /* \"#utility.yul\":20387:20936   */\n    tag_530:\n      pop\n        /* \"#utility.yul\":20175:20942   */\n      pop\n      pop\n        /* \"#utility.yul\":20068:20942   */\n      swap3\n      swap2\n      pop\n      pop\n      jump\t// out\n        /* \"#utility.yul\":20948:21217   */\n    tag_94:\n        /* \"#utility.yul\":21077:21080   */\n      0x00\n        /* \"#utility.yul\":21099:21191   */\n      tag_538\n        /* \"#utility.yul\":21187:21190   */\n      dup3\n        /* \"#utility.yul\":21178:21184   */\n      dup5\n        /* \"#utility.yul\":21099:21191   */\n      tag_348\n      jump\t// in\n    tag_538:\n        /* \"#utility.yul\":21092:21191   */\n      swap2\n      pop\n        /* \"#utility.yul\":21208:21211   */\n      dup2\n        /* \"#utility.yul\":21201:21211   */\n      swap1\n      pop\n        /* \"#utility.yul\":20948:21217   */\n      swap3\n      swap2\n      pop\n      pop\n      jump\t// out\n        /* \"#utility.yul\":21223:21403   */\n    tag_349:\n        /* \"#utility.yul\":21271:21348   */\n      0x4e487b7100000000000000000000000000000000000000000000000000000000\n        /* \"#utility.yul\":21268:21269   */\n      0x00\n        /* \"#utility.yul\":21261:21349   */\n      mstore\n        /* \"#utility.yul\":21368:21372   */\n      0x11\n        /* \"#utility.yul\":21365:21366   */\n      0x04\n        /* \"#utility.yul\":21358:21373   */\n      mstore\n        /* \"#utility.yul\":21392:21396   */\n      0x24\n        /* \"#utility.yul\":21389:21390   */\n      0x00\n        /* \"#utility.yul\":21382:21397   */\n      revert\n        /* \"#utility.yul\":21409:21642   */\n    tag_97:\n        /* \"#utility.yul\":21448:21451   */\n      0x00\n        /* \"#utility.yul\":21471:21495   */\n      tag_541\n        /* \"#utility.yul\":21489:21494   */\n      dup3\n        /* \"#utility.yul\":21471:21495   */\n      tag_316\n      jump\t// in\n    tag_541:\n        /* \"#utility.yul\":21462:21495   */\n      swap2\n      pop\n        /* \"#utility.yul\":21517:21583   */\n      0xffffffffffffffffffffffffffffffffffffffffffffffffffffffffffffffff\n        /* \"#utility.yul\":21510:21515   */\n      dup3\n        /* \"#utility.yul\":21507:21584   */\n      sub\n        /* \"#utility.yul\":21504:21607   */\n      tag_542\n      jumpi\n        /* \"#utility.yul\":21587:21605   */\n      tag_543\n      tag_349\n      jump\t// in\n    tag_543:\n        /* \"#utility.yul\":21504:21607   */\n    tag_542:\n        /* \"#utility.yul\":21634:21635   */\n      0x01\n        /* \"#utility.yul\":21627:21632   */\n      dup3\n        /* \"#utility.yul\":21623:21636   */\n      add\n        /* \"#utility.yul\":21616:21636   */\n      swap1\n      pop\n        /* \"#utility.yul\":21409:21642   */\n      swap2\n      swap1\n      pop\n      jump\t// out\n        /* \"#utility.yul\":21648:21828   */\n    tag_148:\n        /* \"#utility.yul\":21696:21773   */\n      0x4e487b7100000000000000000000000000000000000000000000000000000000\n        /* \"#utility.yul\":21693:21694   */\n      0x00\n        /* \"#utility.yul\":21686:21774   */\n      mstore\n        /* \"#utility.yul\":21793:21797   */\n      0x32\n        /* \"#utility.yul\":21790:21791   */\n      0x04\n        /* \"#utility.yul\":21783:21798   */\n      mstore\n        /* \"#utility.yul\":21817:21821   */\n      0x24\n        /* \"#utility.yul\":21814:21815   */\n      0x00\n        /* \"#utility.yul\":21807:21822   */\n      revert\n        /* \"#utility.yul\":21834:21927   */\n    tag_350:\n        /* \"#utility.yul\":21871:21877   */\n      0x00\n        /* \"#utility.yul\":21918:21920   */\n      0x20\n        /* \"#utility.yul\":21913:21915   */\n      0x1f\n        /* \"#utility.yul\":21906:21911   */\n      dup4\n        /* \"#utility.yul\":21902:21916   */\n      add\n        /* \"#utility.yul\":21898:21921   */\n      div\n        /* \"#utility.yul\":21888:21921   */\n      swap1\n      pop\n        /* \"#utility.yul\":21834:21927   */\n      swap2\n      swap1\n      pop\n      jump\t// out\n        /* \"#utility.yul\":21933:22040   */\n    tag_351:\n        /* \"#utility.yul\":21977:21985   */\n      0x00\n        /* \"#utility.yul\":22027:22032   */\n      dup3\n        /* \"#utility.yul\":22021:22025   */\n      dup3\n        /* \"#utility.yul\":22017:22033   */\n      shl\n        /* \"#utility.yul\":21996:22033   */\n      swap1\n      pop\n        /* \"#utility.yul\":21933:22040   */\n      swap3\n      swap2\n      pop\n      pop\n      jump\t// out\n        /* \"#utility.yul\":22046:22439   */\n    tag_352:\n        /* \"#utility.yul\":22115:22121   */\n      0x00\n        /* \"#utility.yul\":22165:22166   */\n      0x08\n        /* \"#utility.yul\":22153:22163   */\n      dup4\n        /* \"#utility.yul\":22149:22167   */\n      mul\n        /* \"#utility.yul\":22188:22285   */\n      tag_548\n        /* \"#utility.yul\":22218:22284   */\n      0xffffffffffffffffffffffffffffffffffffffffffffffffffffffffffffffff\n        /* \"#utility.yul\":22207:22216   */\n      dup3\n        /* \"#utility.yul\":22188:22285   */\n      tag_351\n      jump\t// in\n    tag_548:\n        /* \"#utility.yul\":22306:22345   */\n      tag_549\n        /* \"#utility.yul\":22336:22344   */\n      dup7\n        /* \"#utility.yul\":22325:22334   */\n      dup4\n        /* \"#utility.yul\":22306:22345   */\n      tag_351\n      jump\t// in\n    tag_549:\n        /* \"#utility.yul\":22294:22345   */\n      swap6\n      pop\n        /* \"#utility.yul\":22378:22382   */\n      dup1\n        /* \"#utility.yul\":22374:22383   */\n      not\n        /* \"#utility.yul\":22367:22372   */\n      dup5\n        /* \"#utility.yul\":22363:22384   */\n      and\n        /* \"#utility.yul\":22354:22384   */\n      swap4\n      pop\n        /* \"#utility.yul\":22427:22431   */\n      dup1\n        /* \"#utility.yul\":22417:22425   */\n      dup7\n        /* \"#utility.yul\":22413:22432   */\n      and\n        /* \"#utility.yul\":22406:22411   */\n      dup5\n        /* \"#utility.yul\":22403:22433   */\n      or\n        /* \"#utility.yul\":22393:22433   */\n      swap3\n      pop\n        /* \"#utility.yul\":22122:22439   */\n      pop\n      pop\n        /* \"#utility.yul\":22046:22439   */\n      swap4\n      swap3\n      pop\n      pop\n      pop\n      jump\t// out\n        /* \"#utility.yul\":22445:22505   */\n    tag_353:\n        /* \"#utility.yul\":22473:22476   */\n      0x00\n        /* \"#utility.yul\":22494:22499   */\n      dup2\n        /* \"#utility.yul\":22487:22499   */\n      swap1\n      pop\n        /* \"#utility.yul\":22445:22505   */\n      swap2\n      swap1\n      pop\n      jump\t// out\n        /* \"#utility.yul\":22511:22653   */\n    tag_354:\n        /* \"#utility.yul\":22561:22570   */\n      0x00\n        /* \"#utility.yul\":22594:22647   */\n      tag_552\n        /* \"#utility.yul\":22612:22646   */\n      tag_553\n        /* \"#utility.yul\":22621:22645   */\n      tag_554\n        /* \"#utility.yul\":22639:22644   */\n      dup5\n        /* \"#utility.yul\":22621:22645   */\n      tag_316\n      jump\t// in\n    tag_554:\n        /* \"#utility.yul\":22612:22646   */\n      tag_353\n      jump\t// in\n    tag_553:\n        /* \"#utility.yul\":22594:22647   */\n      tag_316\n      jump\t// in\n    tag_552:\n        /* \"#utility.yul\":22581:22647   */\n      swap1\n      pop\n        /* \"#utility.yul\":22511:22653   */\n      swap2\n      swap1\n      pop\n      jump\t// out\n        /* \"#utility.yul\":22659:22734   */\n    tag_355:\n        /* \"#utility.yul\":22702:22705   */\n      0x00\n        /* \"#utility.yul\":22723:22728   */\n      dup2\n        /* \"#utility.yul\":22716:22728   */\n      swap1\n      pop\n        /* \"#utility.yul\":22659:22734   */\n      swap2\n      swap1\n      pop\n      jump\t// out\n        /* \"#utility.yul\":22740:23009   */\n    tag_356:\n        /* \"#utility.yul\":22850:22889   */\n      tag_557\n        /* \"#utility.yul\":22881:22888   */\n      dup4\n        /* \"#utility.yul\":22850:22889   */\n      tag_354\n      jump\t// in\n    tag_557:\n        /* \"#utility.yul\":22911:23002   */\n      tag_558\n        /* \"#utility.yul\":22960:23001   */\n      tag_559\n        /* \"#utility.yul\":22984:23000   */\n      dup3\n        /* \"#utility.yul\":22960:23001   */\n      tag_355\n      jump\t// in\n    tag_559:\n        /* \"#utility.yul\":22952:22958   */\n      dup5\n        /* \"#utility.yul\":22945:22949   */\n      dup5\n        /* \"#utility.yul\":22939:22950   */\n      sload\n        /* \"#utility.yul\":22911:23002   */\n      tag_352\n      jump\t// in\n    tag_558:\n        /* \"#utility.yul\":22905:22909   */\n      dup3\n        /* \"#utility.yul\":22898:23003   */\n      sstore\n        /* \"#utility.yul\":22816:23009   */\n      pop\n        /* \"#utility.yul\":22740:23009   */\n      pop\n      pop\n      pop\n      jump\t// out\n        /* \"#utility.yul\":23015:23088   */\n    tag_357:\n        /* \"#utility.yul\":23060:23063   */\n      0x00\n        /* \"#utility.yul\":23015:23088   */\n      swap1\n      jump\t// out\n        /* \"#utility.yul\":23094:23283   */\n    tag_358:\n        /* \"#utility.yul\":23171:23203   */\n      tag_562\n      tag_357\n      jump\t// in\n    tag_562:\n        /* \"#utility.yul\":23212:23277   */\n      tag_563\n        /* \"#utility.yul\":23270:23276   */\n      dup2\n        /* \"#utility.yul\":23262:23268   */\n      dup5\n        /* \"#utility.yul\":23256:23260   */\n      dup5\n        /* \"#utility.yul\":23212:23277   */\n      tag_356\n      jump\t// in\n    tag_563:\n        /* \"#utility.yul\":23147:23283   */\n      pop\n        /* \"#utility.yul\":23094:23283   */\n      pop\n      pop\n      jump\t// out\n        /* \"#utility.yul\":23289:23475   */\n    tag_359:\n        /* \"#utility.yul\":23349:23469   */\n    tag_565:\n        /* \"#utility.yul\":23366:23369   */\n      dup2\n        /* \"#utility.yul\":23359:23364   */\n      dup2\n        /* \"#utility.yul\":23356:23370   */\n      lt\n        /* \"#utility.yul\":23349:23469   */\n      iszero\n      tag_567\n      jumpi\n        /* \"#utility.yul\":23420:23459   */\n      tag_568\n        /* \"#utility.yul\":23457:23458   */\n      0x00\n        /* \"#utility.yul\":23450:23455   */\n      dup3\n        /* \"#utility.yul\":23420:23459   */\n      tag_358\n      jump\t// in\n    tag_568:\n        /* \"#utility.yul\":23393:23394   */\n      0x01\n        /* \"#utility.yul\":23386:23391   */\n      dup2\n        /* \"#utility.yul\":23382:23395   */\n      add\n        /* \"#utility.yul\":23373:23395   */\n      swap1\n      pop\n        /* \"#utility.yul\":23349:23469   */\n      jump(tag_565)\n    tag_567:\n        /* \"#utility.yul\":23289:23475   */\n      pop\n      pop\n      jump\t// out\n        /* \"#utility.yul\":23481:24024   */\n    tag_360:\n        /* \"#utility.yul\":23582:23584   */\n      0x1f\n        /* \"#utility.yul\":23577:23580   */\n      dup3\n        /* \"#utility.yul\":23574:23585   */\n      gt\n        /* \"#utility.yul\":23571:24017   */\n      iszero\n      tag_570\n      jumpi\n        /* \"#utility.yul\":23616:23654   */\n      tag_571\n        /* \"#utility.yul\":23648:23653   */\n      dup2\n        /* \"#utility.yul\":23616:23654   */\n      tag_347\n      jump\t// in\n    tag_571:\n        /* \"#utility.yul\":23700:23729   */\n      tag_572\n        /* \"#utility.yul\":23718:23728   */\n      dup5\n        /* \"#utility.yul\":23700:23729   */\n      tag_350\n      jump\t// in\n    tag_572:\n        /* \"#utility.yul\":23690:23698   */\n      dup2\n        /* \"#utility.yul\":23686:23730   */\n      add\n        /* \"#utility.yul\":23883:23885   */\n      0x20\n        /* \"#utility.yul\":23871:23881   */\n      dup6\n        /* \"#utility.yul\":23868:23886   */\n      lt\n        /* \"#utility.yul\":23865:23914   */\n      iszero\n      tag_573\n      jumpi\n        /* \"#utility.yul\":23904:23912   */\n      dup2\n        /* \"#utility.yul\":23889:23912   */\n      swap1\n      pop\n        /* \"#utility.yul\":23865:23914   */\n    tag_573:\n        /* \"#utility.yul\":23927:24007   */\n      tag_574\n        /* \"#utility.yul\":23983:24005   */\n      tag_575\n        /* \"#utility.yul\":24001:24004   */\n      dup6\n        /* \"#utility.yul\":23983:24005   */\n      tag_350\n      jump\t// in\n    tag_575:\n        /* \"#utility.yul\":23973:23981   */\n      dup4\n        /* \"#utility.yul\":23969:24006   */\n      add\n        /* \"#utility.yul\":23956:23967   */\n      dup3\n        /* \"#utility.yul\":23927:24007   */\n      tag_359\n      jump\t// in\n    tag_574:\n        /* \"#utility.yul\":23586:24017   */\n      pop\n      pop\n        /* \"#utility.yul\":23571:24017   */\n    tag_570:\n        /* \"#utility.yul\":23481:24024   */\n      pop\n      pop\n      pop\n      jump\t// out\n        /* \"#utility.yul\":24030:24147   */\n    tag_361:\n        /* \"#utility.yul\":24084:24092   */\n      0x00\n        /* \"#utility.yul\":24134:24139   */\n      dup3\n        /* \"#utility.yul\":24128:24132   */\n      dup3\n        /* \"#utility.yul\":24124:24140   */\n      shr\n        /* \"#utility.yul\":24103:24140   */\n      swap1\n      pop\n        /* \"#utility.yul\":24030:24147   */\n      swap3\n      swap2\n      pop\n      pop\n      jump\t// out\n        /* \"#utility.yul\":24153:24322   */\n    tag_362:\n        /* \"#utility.yul\":24197:24203   */\n      0x00\n        /* \"#utility.yul\":24230:24281   */\n      tag_578\n        /* \"#utility.yul\":24278:24279   */\n      0x00\n        /* \"#utility.yul\":24274:24280   */\n      not\n        /* \"#utility.yul\":24266:24271   */\n      dup5\n        /* \"#utility.yul\":24263:24264   */\n      0x08\n        /* \"#utility.yul\":24259:24272   */\n      mul\n        /* \"#utility.yul\":24230:24281   */\n      tag_361\n      jump\t// in\n    tag_578:\n        /* \"#utility.yul\":24226:24282   */\n      not\n        /* \"#utility.yul\":24311:24315   */\n      dup1\n        /* \"#utility.yul\":24305:24309   */\n      dup4\n        /* \"#utility.yul\":24301:24316   */\n      and\n        /* \"#utility.yul\":24291:24316   */\n      swap2\n      pop\n        /* \"#utility.yul\":24204:24322   */\n      pop\n        /* \"#utility.yul\":24153:24322   */\n      swap3\n      swap2\n      pop\n      pop\n      jump\t// out\n        /* \"#utility.yul\":24327:24622   */\n    tag_363:\n        /* \"#utility.yul\":24403:24407   */\n      0x00\n        /* \"#utility.yul\":24549:24578   */\n      tag_580\n        /* \"#utility.yul\":24574:24577   */\n      dup4\n        /* \"#utility.yul\":24568:24572   */\n      dup4\n        /* \"#utility.yul\":24549:24578   */\n      tag_362\n      jump\t// in\n    tag_580:\n        /* \"#utility.yul\":24541:24578   */\n      swap2\n      pop\n        /* \"#utility.yul\":24611:24614   */\n      dup3\n        /* \"#utility.yul\":24608:24609   */\n      0x02\n        /* \"#utility.yul\":24604:24615   */\n      mul\n        /* \"#utility.yul\":24598:24602   */\n      dup3\n        /* \"#utility.yul\":24595:24616   */\n      or\n        /* \"#utility.yul\":24587:24616   */\n      swap1\n      pop\n        /* \"#utility.yul\":24327:24622   */\n      swap3\n      swap2\n      pop\n      pop\n      jump\t// out\n        /* \"#utility.yul\":24627:26022   */\n    tag_189:\n        /* \"#utility.yul\":24744:24781   */\n      tag_582\n        /* \"#utility.yul\":24777:24780   */\n      dup3\n        /* \"#utility.yul\":24744:24781   */\n      tag_320\n      jump\t// in\n    tag_582:\n        /* \"#utility.yul\":24846:24864   */\n      0xffffffffffffffff\n        /* \"#utility.yul\":24838:24844   */\n      dup2\n        /* \"#utility.yul\":24835:24865   */\n      gt\n        /* \"#utility.yul\":24832:24888   */\n      iszero\n      tag_583\n      jumpi\n        /* \"#utility.yul\":24868:24886   */\n      tag_584\n      tag_101\n      jump\t// in\n    tag_584:\n        /* \"#utility.yul\":24832:24888   */\n    tag_583:\n        /* \"#utility.yul\":24912:24950   */\n      tag_585\n        /* \"#utility.yul\":24944:24948   */\n      dup3\n        /* \"#utility.yul\":24938:24949   */\n      sload\n        /* \"#utility.yul\":24912:24950   */\n      tag_52\n      jump\t// in\n    tag_585:\n        /* \"#utility.yul\":24997:25064   */\n      tag_586\n        /* \"#utility.yul\":25057:25063   */\n      dup3\n        /* \"#utility.yul\":25049:25055   */\n      dup3\n        /* \"#utility.yul\":25043:25047   */\n      dup6\n        /* \"#utility.yul\":24997:25064   */\n      tag_360\n      jump\t// in\n    tag_586:\n        /* \"#utility.yul\":25091:25092   */\n      0x00\n        /* \"#utility.yul\":25115:25119   */\n      0x20\n        /* \"#utility.yul\":25102:25119   */\n      swap1\n      pop\n        /* \"#utility.yul\":25147:25149   */\n      0x1f\n        /* \"#utility.yul\":25139:25145   */\n      dup4\n        /* \"#utility.yul\":25136:25150   */\n      gt\n        /* \"#utility.yul\":25164:25165   */\n      0x01\n        /* \"#utility.yul\":25159:25777   */\n      dup2\n      eq\n      tag_588\n      jumpi\n        /* \"#utility.yul\":25821:25822   */\n      0x00\n        /* \"#utility.yul\":25838:25844   */\n      dup5\n        /* \"#utility.yul\":25835:25912   */\n      iszero\n      tag_589\n      jumpi\n        /* \"#utility.yul\":25887:25896   */\n      dup3\n        /* \"#utility.yul\":25882:25885   */\n      dup8\n        /* \"#utility.yul\":25878:25897   */\n      add\n        /* \"#utility.yul\":25872:25898   */\n      mload\n        /* \"#utility.yul\":25863:25898   */\n      swap1\n      pop\n        /* \"#utility.yul\":25835:25912   */\n    tag_589:\n        /* \"#utility.yul\":25938:26005   */\n      tag_590\n        /* \"#utility.yul\":25998:26004   */\n      dup6\n        /* \"#utility.yul\":25991:25996   */\n      dup3\n        /* \"#utility.yul\":25938:26005   */\n      tag_363\n      jump\t// in\n    tag_590:\n        /* \"#utility.yul\":25932:25936   */\n      dup7\n        /* \"#utility.yul\":25925:26006   */\n      sstore\n        /* \"#utility.yul\":25794:26016   */\n      pop\n        /* \"#utility.yul\":25129:26016   */\n      jump(tag_587)\n        /* \"#utility.yul\":25159:25777   */\n    tag_588:\n        /* \"#utility.yul\":25211:25215   */\n      0x1f\n        /* \"#utility.yul\":25207:25216   */\n      not\n        /* \"#utility.yul\":25199:25205   */\n      dup5\n        /* \"#utility.yul\":25195:25217   */\n      and\n        /* \"#utility.yul\":25245:25282   */\n      tag_591\n        /* \"#utility.yul\":25277:25281   */\n      dup7\n        /* \"#utility.yul\":25245:25282   */\n      tag_347\n      jump\t// in\n    tag_591:\n        /* \"#utility.yul\":25304:25305   */\n      0x00\n        /* \"#utility.yul\":25318:25526   */\n    tag_592:\n        /* \"#utility.yul\":25332:25339   */\n      dup3\n        /* \"#utility.yul\":25329:25330   */\n      dup2\n        /* \"#utility.yul\":25326:25340   */\n      lt\n        /* \"#utility.yul\":25318:25526   */\n      iszero\n      tag_594\n      jumpi\n        /* \"#utility.yul\":25411:25420   */\n      dup5\n        /* \"#utility.yul\":25406:25409   */\n      dup10\n        /* \"#utility.yul\":25402:25421   */\n      add\n        /* \"#utility.yul\":25396:25422   */\n      mload\n        /* \"#utility.yul\":25388:25394   */\n      dup3\n        /* \"#utility.yul\":25381:25423   */\n      sstore\n        /* \"#utility.yul\":25462:25463   */\n      0x01\n        /* \"#utility.yul\":25454:25460   */\n      dup3\n        /* \"#utility.yul\":25450:25464   */\n      add\n        /* \"#utility.yul\":25440:25464   */\n      swap2\n      pop\n        /* \"#utility.yul\":25509:25511   */\n      0x20\n        /* \"#utility.yul\":25498:25507   */\n      dup6\n        /* \"#utility.yul\":25494:25512   */\n      add\n        /* \"#utility.yul\":25481:25512   */\n      swap5\n      pop\n        /* \"#utility.yul\":25355:25359   */\n      0x20\n        /* \"#utility.yul\":25352:25353   */\n      dup2\n        /* \"#utility.yul\":25348:25360   */\n      add\n        /* \"#utility.yul\":25343:25360   */\n      swap1\n      pop\n        /* \"#utility.yul\":25318:25526   */\n      jump(tag_592)\n    tag_594:\n        /* \"#utility.yul\":25554:25560   */\n      dup7\n        /* \"#utility.yul\":25545:25552   */\n      dup4\n        /* \"#utility.yul\":25542:25561   */\n      lt\n        /* \"#utility.yul\":25539:25718   */\n      iszero\n      tag_595\n      jumpi\n        /* \"#utility.yul\":25612:25621   */\n      dup5\n        /* \"#utility.yul\":25607:25610   */\n      dup10\n        /* \"#utility.yul\":25603:25622   */\n      add\n        /* \"#utility.yul\":25597:25623   */\n      mload\n        /* \"#utility.yul\":25655:25703   */\n      tag_596\n        /* \"#utility.yul\":25697:25701   */\n      0x1f\n        /* \"#utility.yul\":25689:25695   */\n      dup10\n        /* \"#utility.yul\":25685:25702   */\n      and\n        /* \"#utility.yul\":25674:25683   */\n      dup3\n        /* \"#utility.yul\":25655:25703   */\n      tag_362\n      jump\t// in\n    tag_596:\n        /* \"#utility.yul\":25647:25653   */\n      dup4\n        /* \"#utility.yul\":25640:25704   */\n      sstore\n        /* \"#utility.yul\":25562:25718   */\n      pop\n        /* \"#utility.yul\":25539:25718   */\n    tag_595:\n        /* \"#utility.yul\":25764:25765   */\n      0x01\n        /* \"#utility.yul\":25760:25761   */\n      0x02\n        /* \"#utility.yul\":25752:25758   */\n      dup9\n        /* \"#utility.yul\":25748:25762   */\n      mul\n        /* \"#utility.yul\":25744:25766   */\n      add\n        /* \"#utility.yul\":25738:25742   */\n      dup9\n        /* \"#utility.yul\":25731:25767   */\n      sstore\n        /* \"#utility.yul\":25166:25777   */\n      pop\n      pop\n      pop\n        /* \"#utility.yul\":25129:26016   */\n    tag_587:\n      pop\n        /* \"#utility.yul\":24719:26022   */\n      pop\n      pop\n      pop\n        /* \"#utility.yul\":24627:26022   */\n      pop\n      pop\n      jump\t// out\n        /* \"#utility.yul\":26028:27662   */\n    tag_197:\n        /* \"#utility.yul\":26457:26461   */\n      0x00\n        /* \"#utility.yul\":26495:26498   */\n      0x0100\n        /* \"#utility.yul\":26484:26493   */\n      dup3\n        /* \"#utility.yul\":26480:26499   */\n      add\n        /* \"#utility.yul\":26472:26499   */\n      swap1\n      pop\n        /* \"#utility.yul\":26545:26554   */\n      dup2\n        /* \"#utility.yul\":26539:26543   */\n      dup2\n        /* \"#utility.yul\":26535:26555   */\n      sub\n        /* \"#utility.yul\":26531:26532   */\n      0x00\n        /* \"#utility.yul\":26520:26529   */\n      dup4\n        /* \"#utility.yul\":26516:26533   */\n      add\n        /* \"#utility.yul\":26509:26556   */\n      mstore\n        /* \"#utility.yul\":26573:26651   */\n      tag_598\n        /* \"#utility.yul\":26646:26650   */\n      dup2\n        /* \"#utility.yul\":26637:26643   */\n      dup12\n        /* \"#utility.yul\":26573:26651   */\n      tag_343\n      jump\t// in\n    tag_598:\n        /* \"#utility.yul\":26565:26651   */\n      swap1\n      pop\n        /* \"#utility.yul\":26698:26707   */\n      dup2\n        /* \"#utility.yul\":26692:26696   */\n      dup2\n        /* \"#utility.yul\":26688:26708   */\n      sub\n        /* \"#utility.yul\":26683:26685   */\n      0x20\n        /* \"#utility.yul\":26672:26681   */\n      dup4\n        /* \"#utility.yul\":26668:26686   */\n      add\n        /* \"#utility.yul\":26661:26709   */\n      mstore\n        /* \"#utility.yul\":26726:26804   */\n      tag_599\n        /* \"#utility.yul\":26799:26803   */\n      dup2\n        /* \"#utility.yul\":26790:26796   */\n      dup11\n        /* \"#utility.yul\":26726:26804   */\n      tag_343\n      jump\t// in\n    tag_599:\n        /* \"#utility.yul\":26718:26804   */\n      swap1\n      pop\n        /* \"#utility.yul\":26851:26860   */\n      dup2\n        /* \"#utility.yul\":26845:26849   */\n      dup2\n        /* \"#utility.yul\":26841:26861   */\n      sub\n        /* \"#utility.yul\":26836:26838   */\n      0x40\n        /* \"#utility.yul\":26825:26834   */\n      dup4\n        /* \"#utility.yul\":26821:26839   */\n      add\n        /* \"#utility.yul\":26814:26862   */\n      mstore\n        /* \"#utility.yul\":26879:26957   */\n      tag_600\n        /* \"#utility.yul\":26952:26956   */\n      dup2\n        /* \"#utility.yul\":26943:26949   */\n      dup10\n        /* \"#utility.yul\":26879:26957   */\n      tag_343\n      jump\t// in\n    tag_600:\n        /* \"#utility.yul\":26871:26957   */\n      swap1\n      pop\n        /* \"#utility.yul\":27004:27013   */\n      dup2\n        /* \"#utility.yul\":26998:27002   */\n      dup2\n        /* \"#utility.yul\":26994:27014   */\n      sub\n        /* \"#utility.yul\":26989:26991   */\n      0x60\n        /* \"#utility.yul\":26978:26987   */\n      dup4\n        /* \"#utility.yul\":26974:26992   */\n      add\n        /* \"#utility.yul\":26967:27015   */\n      mstore\n        /* \"#utility.yul\":27032:27110   */\n      tag_601\n        /* \"#utility.yul\":27105:27109   */\n      dup2\n        /* \"#utility.yul\":27096:27102   */\n      dup9\n        /* \"#utility.yul\":27032:27110   */\n      tag_343\n      jump\t// in\n    tag_601:\n        /* \"#utility.yul\":27024:27110   */\n      swap1\n      pop\n        /* \"#utility.yul\":27158:27167   */\n      dup2\n        /* \"#utility.yul\":27152:27156   */\n      dup2\n        /* \"#utility.yul\":27148:27168   */\n      sub\n        /* \"#utility.yul\":27142:27145   */\n      0x80\n        /* \"#utility.yul\":27131:27140   */\n      dup4\n        /* \"#utility.yul\":27127:27146   */\n      add\n        /* \"#utility.yul\":27120:27169   */\n      mstore\n        /* \"#utility.yul\":27186:27264   */\n      tag_602\n        /* \"#utility.yul\":27259:27263   */\n      dup2\n        /* \"#utility.yul\":27250:27256   */\n      dup8\n        /* \"#utility.yul\":27186:27264   */\n      tag_343\n      jump\t// in\n    tag_602:\n        /* \"#utility.yul\":27178:27264   */\n      swap1\n      pop\n        /* \"#utility.yul\":27312:27321   */\n      dup2\n        /* \"#utility.yul\":27306:27310   */\n      dup2\n        /* \"#utility.yul\":27302:27322   */\n      sub\n        /* \"#utility.yul\":27296:27299   */\n      0xa0\n        /* \"#utility.yul\":27285:27294   */\n      dup4\n        /* \"#utility.yul\":27281:27300   */\n      add\n        /* \"#utility.yul\":27274:27323   */\n      mstore\n        /* \"#utility.yul\":27340:27418   */\n      tag_603\n        /* \"#utility.yul\":27413:27417   */\n      dup2\n        /* \"#utility.yul\":27404:27410   */\n      dup7\n        /* \"#utility.yul\":27340:27418   */\n      tag_343\n      jump\t// in\n    tag_603:\n        /* \"#utility.yul\":27332:27418   */\n      swap1\n      pop\n        /* \"#utility.yul\":27466:27475   */\n      dup2\n        /* \"#utility.yul\":27460:27464   */\n      dup2\n        /* \"#utility.yul\":27456:27476   */\n      sub\n        /* \"#utility.yul\":27450:27453   */\n      0xc0\n        /* \"#utility.yul\":27439:27448   */\n      dup4\n        /* \"#utility.yul\":27435:27454   */\n      add\n        /* \"#utility.yul\":27428:27477   */\n      mstore\n        /* \"#utility.yul\":27494:27572   */\n      tag_604\n        /* \"#utility.yul\":27567:27571   */\n      dup2\n        /* \"#utility.yul\":27558:27564   */\n      dup6\n        /* \"#utility.yul\":27494:27572   */\n      tag_343\n      jump\t// in\n    tag_604:\n        /* \"#utility.yul\":27486:27572   */\n      swap1\n      pop\n        /* \"#utility.yul\":27582:27655   */\n      tag_605\n        /* \"#utility.yul\":27650:27653   */\n      0xe0\n        /* \"#utility.yul\":27639:27648   */\n      dup4\n        /* \"#utility.yul\":27635:27654   */\n      add\n        /* \"#utility.yul\":27626:27632   */\n      dup5\n        /* \"#utility.yul\":27582:27655   */\n      tag_341\n      jump\t// in\n    tag_605:\n        /* \"#utility.yul\":26028:27662   */\n      swap10\n      swap9\n      pop\n      pop\n      pop\n      pop\n      pop\n      pop\n      pop\n      pop\n      pop\n      jump\t// out\n        /* \"#utility.yul\":27668:27862   */\n    tag_243:\n        /* \"#utility.yul\":27708:27712   */\n      0x00\n        /* \"#utility.yul\":27728:27748   */\n      tag_607\n        /* \"#utility.yul\":27746:27747   */\n      dup3\n        /* \"#utility.yul\":27728:27748   */\n      tag_316\n      jump\t// in\n    tag_607:\n        /* \"#utility.yul\":27723:27748   */\n      swap2\n      pop\n        /* \"#utility.yul\":27762:27782   */\n      tag_608\n        /* \"#utility.yul\":27780:27781   */\n      dup4\n        /* \"#utility.yul\":27762:27782   */\n      tag_316\n      jump\t// in\n    tag_608:\n        /* \"#utility.yul\":27757:27782   */\n      swap3\n      pop\n        /* \"#utility.yul\":27806:27807   */\n      dup3\n        /* \"#utility.yul\":27803:27804   */\n      dup3\n        /* \"#utility.yul\":27799:27808   */\n      sub\n        /* \"#utility.yul\":27791:27808   */\n      swap1\n      pop\n        /* \"#utility.yul\":27830:27831   */\n      dup2\n        /* \"#utility.yul\":27824:27828   */\n      dup2\n        /* \"#utility.yul\":27821:27832   */\n      gt\n        /* \"#utility.yul\":27818:27855   */\n      iszero\n      tag_609\n      jumpi\n        /* \"#utility.yul\":27835:27853   */\n      tag_610\n      tag_349\n      jump\t// in\n    tag_610:\n        /* \"#utility.yul\":27818:27855   */\n    tag_609:\n        /* \"#utility.yul\":27668:27862   */\n      swap3\n      swap2\n      pop\n      pop\n      jump\t// out\n        /* \"#utility.yul\":27868:28044   */\n    tag_364:\n        /* \"#utility.yul\":28008:28036   */\n      0x5472616e73616374696f6e20646f6573206e6f74206578697374000000000000\n        /* \"#utility.yul\":28004:28005   */\n      0x00\n        /* \"#utility.yul\":27996:28002   */\n      dup3\n        /* \"#utility.yul\":27992:28006   */\n      add\n        /* \"#utility.yul\":27985:28037   */\n      mstore\n        /* \"#utility.yul\":27868:28044   */\n      pop\n      jump\t// out\n        /* \"#utility.yul\":28050:28416   */\n    tag_365:\n        /* \"#utility.yul\":28192:28195   */\n      0x00\n        /* \"#utility.yul\":28213:28280   */\n      tag_613\n        /* \"#utility.yul\":28277:28279   */\n      0x1a\n        /* \"#utility.yul\":28272:28275   */\n      dup4\n        /* \"#utility.yul\":28213:28280   */\n      tag_342\n      jump\t// in\n    tag_613:\n        /* \"#utility.yul\":28206:28280   */\n      swap2\n      pop\n        /* \"#utility.yul\":28289:28382   */\n      tag_614\n        /* \"#utility.yul\":28378:28381   */\n      dup3\n        /* \"#utility.yul\":28289:28382   */\n      tag_364\n      jump\t// in\n    tag_614:\n        /* \"#utility.yul\":28407:28409   */\n      0x20\n        /* \"#utility.yul\":28402:28405   */\n      dup3\n        /* \"#utility.yul\":28398:28410   */\n      add\n        /* \"#utility.yul\":28391:28410   */\n      swap1\n      pop\n        /* \"#utility.yul\":28050:28416   */\n      swap2\n      swap1\n      pop\n      jump\t// out\n        /* \"#utility.yul\":28422:28841   */\n    tag_250:\n        /* \"#utility.yul\":28588:28592   */\n      0x00\n        /* \"#utility.yul\":28626:28628   */\n      0x20\n        /* \"#utility.yul\":28615:28624   */\n      dup3\n        /* \"#utility.yul\":28611:28629   */\n      add\n        /* \"#utility.yul\":28603:28629   */\n      swap1\n      pop\n        /* \"#utility.yul\":28675:28684   */\n      dup2\n        /* \"#utility.yul\":28669:28673   */\n      dup2\n        /* \"#utility.yul\":28665:28685   */\n      sub\n        /* \"#utility.yul\":28661:28662   */\n      0x00\n        /* \"#utility.yul\":28650:28659   */\n      dup4\n        /* \"#utility.yul\":28646:28663   */\n      add\n        /* \"#utility.yul\":28639:28686   */\n      mstore\n        /* \"#utility.yul\":28703:28834   */\n      tag_616\n        /* \"#utility.yul\":28829:28833   */\n      dup2\n        /* \"#utility.yul\":28703:28834   */\n      tag_365\n      jump\t// in\n    tag_616:\n        /* \"#utility.yul\":28695:28834   */\n      swap1\n      pop\n        /* \"#utility.yul\":28422:28841   */\n      swap2\n      swap1\n      pop\n      jump\t// out\n        /* \"#utility.yul\":28847:29270   */\n    tag_253:\n        /* \"#utility.yul\":28988:28992   */\n      0x00\n        /* \"#utility.yul\":29026:29028   */\n      0x40\n        /* \"#utility.yul\":29015:29024   */\n      dup3\n        /* \"#utility.yul\":29011:29029   */\n      add\n        /* \"#utility.yul\":29003:29029   */\n      swap1\n      pop\n        /* \"#utility.yul\":29075:29084   */\n      dup2\n        /* \"#utility.yul\":29069:29073   */\n      dup2\n        /* \"#utility.yul\":29065:29085   */\n      sub\n        /* \"#utility.yul\":29061:29062   */\n      0x00\n        /* \"#utility.yul\":29050:29059   */\n      dup4\n        /* \"#utility.yul\":29046:29063   */\n      add\n        /* \"#utility.yul\":29039:29086   */\n      mstore\n        /* \"#utility.yul\":29103:29181   */\n      tag_618\n        /* \"#utility.yul\":29176:29180   */\n      dup2\n        /* \"#utility.yul\":29167:29173   */\n      dup6\n        /* \"#utility.yul\":29103:29181   */\n      tag_343\n      jump\t// in\n    tag_618:\n        /* \"#utility.yul\":29095:29181   */\n      swap1\n      pop\n        /* \"#utility.yul\":29191:29263   */\n      tag_619\n        /* \"#utility.yul\":29259:29261   */\n      0x20\n        /* \"#utility.yul\":29248:29257   */\n      dup4\n        /* \"#utility.yul\":29244:29262   */\n      add\n        /* \"#utility.yul\":29235:29241   */\n      dup5\n        /* \"#utility.yul\":29191:29263   */\n      tag_341\n      jump\t// in\n    tag_619:\n        /* \"#utility.yul\":28847:29270   */\n      swap4\n      swap3\n      pop\n      pop\n      pop\n      jump\t// out\n\n    auxdata: 0xa26469706673582212200e79fb17138be02edfe58211399fbc8529de5cd01c4f281287f74a4381af787b64736f6c634300081a0033\n}\n",
				"bytecode": {
					"linkReferences": {},
					"object": "6080604052348015600e575f80fd5b50612afb8061001c5f395ff3fe608060405234801561000f575f80fd5b5060043610610086575f3560e01c8063add6415d11610059578063add6415d1461013e578063b77bf6001461015c578063ce8481fd1461017a578063e55d57df1461019657610086565b806333ea3dc81461008a5780639311f732146100ba5780639ace38c2146100ea578063abed9fb414610122575b5f80fd5b6100a4600480360381019061009f9190611d02565b6101c6565b6040516100b19190611e98565b60405180910390f35b6100d460048036038101906100cf9190611fe4565b6105f4565b6040516100e191906121d2565b60405180910390f35b61010460048036038101906100ff9190611d02565b610bc5565b60405161011999989796959493929190612249565b60405180910390f35b61013c60048036038101906101379190612305565b610fb8565b005b610146611125565b60405161015391906121d2565b60405180910390f35b6101646115f3565b604051610171919061247a565b60405180910390f35b610194600480360381019061018f9190612493565b6115f9565b005b6101b060048036038101906101ab9190611fe4565b6116a3565b6040516101bd91906121d2565b60405180910390f35b6101ce611c74565b5f808381526020019081526020015f20604051806101200160405290815f82015481526020016001820180546102039061252c565b80601f016020809104026020016040519081016040528092919081815260200182805461022f9061252c565b801561027a5780601f106102515761010080835404028352916020019161027a565b820191905f5260205f20905b81548152906001019060200180831161025d57829003601f168201915b505050505081526020016002820180546102939061252c565b80601f01602080910402602001604051908101604052809291908181526020018280546102bf9061252c565b801561030a5780601f106102e15761010080835404028352916020019161030a565b820191905f5260205f20905b8154815290600101906020018083116102ed57829003601f168201915b505050505081526020016003820180546103239061252c565b80601f016020809104026020016040519081016040528092919081815260200182805461034f9061252c565b801561039a5780601f106103715761010080835404028352916020019161039a565b820191905f5260205f20905b81548152906001019060200180831161037d57829003601f168201915b505050505081526020016004820180546103b39061252c565b80601f01602080910402602001604051908101604052809291908181526020018280546103df9061252c565b801561042a5780601f106104015761010080835404028352916020019161042a565b820191905f5260205f20905b81548152906001019060200180831161040d57829003601f168201915b505050505081526020016005820180546104439061252c565b80601f016020809104026020016040519081016040528092919081815260200182805461046f9061252c565b80156104ba5780601f10610491576101008083540402835291602001916104ba565b820191905f5260205f20905b81548152906001019060200180831161049d57829003601f168201915b505050505081526020016006820180546104d39061252c565b80601f01602080910402602001604051908101604052809291908181526020018280546104ff9061252c565b801561054a5780601f106105215761010080835404028352916020019161054a565b820191905f5260205f20905b81548152906001019060200180831161052d57829003601f168201915b505050505081526020016007820180546105639061252c565b80601f016020809104026020016040519081016040528092919081815260200182805461058f9061252c565b80156105da5780601f106105b1576101008083540402835291602001916105da565b820191905f5260205f20905b8154815290600101906020018083116105bd57829003601f168201915b505050505081526020016008820154815250509050919050565b60605f80600190505b600154811161068d57836040516020016106179190612596565b604051602081830303815290604052805190602001205f808381526020019081526020015f20600501604051602001610650919061263e565b604051602081830303815290604052805190602001200361067a57818061067690612681565b9250505b808061068590612681565b9150506105fd565b505f8167ffffffffffffffff8111156106a9576106a8611ec0565b5b6040519080825280602002602001820160405280156106e257816020015b6106cf611c74565b8152602001906001900390816106c75790505b5090505f80600190505b6001548111610bb957856040516020016107069190612596565b604051602081830303815290604052805190602001205f808381526020019081526020015f2060050160405160200161073f919061263e565b6040516020818303038152906040528051906020012003610ba6575f808281526020019081526020015f20604051806101200160405290815f820154815260200160018201805461078f9061252c565b80601f01602080910402602001604051908101604052809291908181526020018280546107bb9061252c565b80156108065780601f106107dd57610100808354040283529160200191610806565b820191905f5260205f20905b8154815290600101906020018083116107e957829003601f168201915b5050505050815260200160028201805461081f9061252c565b80601f016020809104026020016040519081016040528092919081815260200182805461084b9061252c565b80156108965780601f1061086d57610100808354040283529160200191610896565b820191905f5260205f20905b81548152906001019060200180831161087957829003601f168201915b505050505081526020016003820180546108af9061252c565b80601f01602080910402602001604051908101604052809291908181526020018280546108db9061252c565b80156109265780601f106108fd57610100808354040283529160200191610926565b820191905f5260205f20905b81548152906001019060200180831161090957829003601f168201915b5050505050815260200160048201805461093f9061252c565b80601f016020809104026020016040519081016040528092919081815260200182805461096b9061252c565b80156109b65780601f1061098d576101008083540402835291602001916109b6565b820191905f5260205f20905b81548152906001019060200180831161099957829003601f168201915b505050505081526020016005820180546109cf9061252c565b80601f01602080910402602001604051908101604052809291908181526020018280546109fb9061252c565b8015610a465780601f10610a1d57610100808354040283529160200191610a46565b820191905f5260205f20905b815481529060010190602001808311610a2957829003601f168201915b50505050508152602001600682018054610a5f9061252c565b80601f0160208091040260200160405190810160405280929190818152602001828054610a8b9061252c565b8015610ad65780601f10610aad57610100808354040283529160200191610ad6565b820191905f5260205f20905b815481529060010190602001808311610ab957829003601f168201915b50505050508152602001600782018054610aef9061252c565b80601f0160208091040260200160405190810160405280929190818152602001828054610b1b9061252c565b8015610b665780601f10610b3d57610100808354040283529160200191610b66565b820191905f5260205f20905b815481529060010190602001808311610b4957829003601f168201915b50505050508152602001600882015481525050838381518110610b8c57610b8b6126c8565b5b60200260200101819052508180610ba290612681565b9250505b8080610bb190612681565b9150506106ec565b50819350505050919050565b5f602052805f5260405f205f91509050805f015490806001018054610be99061252c565b80601f0160208091040260200160405190810160405280929190818152602001828054610c159061252c565b8015610c605780601f10610c3757610100808354040283529160200191610c60565b820191905f5260205f20905b815481529060010190602001808311610c4357829003601f168201915b505050505090806002018054610c759061252c565b80601f0160208091040260200160405190810160405280929190818152602001828054610ca19061252c565b8015610cec5780601f10610cc357610100808354040283529160200191610cec565b820191905f5260205f20905b815481529060010190602001808311610ccf57829003601f168201915b505050505090806003018054610d019061252c565b80601f0160208091040260200160405190810160405280929190818152602001828054610d2d9061252c565b8015610d785780601f10610d4f57610100808354040283529160200191610d78565b820191905f5260205f20905b815481529060010190602001808311610d5b57829003601f168201915b505050505090806004018054610d8d9061252c565b80601f0160208091040260200160405190810160405280929190818152602001828054610db99061252c565b8015610e045780601f10610ddb57610100808354040283529160200191610e04565b820191905f5260205f20905b815481529060010190602001808311610de757829003601f168201915b505050505090806005018054610e199061252c565b80601f0160208091040260200160405190810160405280929190818152602001828054610e459061252c565b8015610e905780601f10610e6757610100808354040283529160200191610e90565b820191905f5260205f20905b815481529060010190602001808311610e7357829003601f168201915b505050505090806006018054610ea59061252c565b80601f0160208091040260200160405190810160405280929190818152602001828054610ed19061252c565b8015610f1c5780601f10610ef357610100808354040283529160200191610f1c565b820191905f5260205f20905b815481529060010190602001808311610eff57829003601f168201915b505050505090806007018054610f319061252c565b80601f0160208091040260200160405190810160405280929190818152602001828054610f5d9061252c565b8015610fa85780601f10610f7f57610100808354040283529160200191610fa8565b820191905f5260205f20905b815481529060010190602001808311610f8b57829003601f168201915b5050505050908060080154905089565b60015f815480929190610fca90612681565b91905055506040518061012001604052806001548152602001898152602001888152602001878152602001868152602001858152602001848152602001838152602001828152505f8060015481526020019081526020015f205f820151815f015560208201518160010190816110409190612880565b5060408201518160020190816110569190612880565b50606082015181600301908161106c9190612880565b5060808201518160040190816110829190612880565b5060a08201518160050190816110989190612880565b5060c08201518160060190816110ae9190612880565b5060e08201518160070190816110c49190612880565b5061010082015181600801559050506001547f07b4968f6fa44d4c825736654173422261c8568a6c3da8a5b336270401bd3c8b898989898989898960405161111398979695949392919061294f565b60405180910390a25050505050505050565b60605f60015467ffffffffffffffff81111561114457611143611ec0565b5b60405190808252806020026020018201604052801561117d57816020015b61116a611c74565b8152602001906001900390816111625790505b5090505f600190505b60015481116115eb575f808281526020019081526020015f20604051806101200160405290815f82015481526020016001820180546111c49061252c565b80601f01602080910402602001604051908101604052809291908181526020018280546111f09061252c565b801561123b5780601f106112125761010080835404028352916020019161123b565b820191905f5260205f20905b81548152906001019060200180831161121e57829003601f168201915b505050505081526020016002820180546112549061252c565b80601f01602080910402602001604051908101604052809291908181526020018280546112809061252c565b80156112cb5780601f106112a2576101008083540402835291602001916112cb565b820191905f5260205f20905b8154815290600101906020018083116112ae57829003601f168201915b505050505081526020016003820180546112e49061252c565b80601f01602080910402602001604051908101604052809291908181526020018280546113109061252c565b801561135b5780601f106113325761010080835404028352916020019161135b565b820191905f5260205f20905b81548152906001019060200180831161133e57829003601f168201915b505050505081526020016004820180546113749061252c565b80601f01602080910402602001604051908101604052809291908181526020018280546113a09061252c565b80156113eb5780601f106113c2576101008083540402835291602001916113eb565b820191905f5260205f20905b8154815290600101906020018083116113ce57829003601f168201915b505050505081526020016005820180546114049061252c565b80601f01602080910402602001604051908101604052809291908181526020018280546114309061252c565b801561147b5780601f106114525761010080835404028352916020019161147b565b820191905f5260205f20905b81548152906001019060200180831161145e57829003601f168201915b505050505081526020016006820180546114949061252c565b80601f01602080910402602001604051908101604052809291908181526020018280546114c09061252c565b801561150b5780601f106114e25761010080835404028352916020019161150b565b820191905f5260205f20905b8154815290600101906020018083116114ee57829003601f168201915b505050505081526020016007820180546115249061252c565b80601f01602080910402602001604051908101604052809291908181526020018280546115509061252c565b801561159b5780601f106115725761010080835404028352916020019161159b565b820191905f5260205f20905b81548152906001019060200180831161157e57829003601f168201915b50505050508152602001600882015481525050826001836115bc91906129fc565b815181106115cd576115cc6126c8565b5b602002602001018190525080806115e390612681565b915050611186565b508091505090565b60015481565b60015483111561163e576040517f08c379a000000000000000000000000000000000000000000000000000000000815260040161163590612a79565b60405180910390fd5b5f805f8581526020019081526020015f209050828160070190816116629190612880565b50837fcbc92fe73220c7cc1450ff1070f1becf254013a1cd6a9d95a4b7c2055b3e9ac98484604051611695929190612a97565b60405180910390a250505050565b60605f80600190505b600154811161173c57836040516020016116c69190612596565b604051602081830303815290604052805190602001205f808381526020019081526020015f206003016040516020016116ff919061263e565b604051602081830303815290604052805190602001200361172957818061172590612681565b9250505b808061173490612681565b9150506116ac565b505f8167ffffffffffffffff81111561175857611757611ec0565b5b60405190808252806020026020018201604052801561179157816020015b61177e611c74565b8152602001906001900390816117765790505b5090505f80600190505b6001548111611c6857856040516020016117b59190612596565b604051602081830303815290604052805190602001205f808381526020019081526020015f206003016040516020016117ee919061263e565b6040516020818303038152906040528051906020012003611c55575f808281526020019081526020015f20604051806101200160405290815f820154815260200160018201805461183e9061252c565b80601f016020809104026020016040519081016040528092919081815260200182805461186a9061252c565b80156118b55780601f1061188c576101008083540402835291602001916118b5565b820191905f5260205f20905b81548152906001019060200180831161189857829003601f168201915b505050505081526020016002820180546118ce9061252c565b80601f01602080910402602001604051908101604052809291908181526020018280546118fa9061252c565b80156119455780601f1061191c57610100808354040283529160200191611945565b820191905f5260205f20905b81548152906001019060200180831161192857829003601f168201915b5050505050815260200160038201805461195e9061252c565b80601f016020809104026020016040519081016040528092919081815260200182805461198a9061252c565b80156119d55780601f106119ac576101008083540402835291602001916119d5565b820191905f5260205f20905b8154815290600101906020018083116119b857829003601f168201915b505050505081526020016004820180546119ee9061252c565b80601f0160208091040260200160405190810160405280929190818152602001828054611a1a9061252c565b8015611a655780601f10611a3c57610100808354040283529160200191611a65565b820191905f5260205f20905b815481529060010190602001808311611a4857829003601f168201915b50505050508152602001600582018054611a7e9061252c565b80601f0160208091040260200160405190810160405280929190818152602001828054611aaa9061252c565b8015611af55780601f10611acc57610100808354040283529160200191611af5565b820191905f5260205f20905b815481529060010190602001808311611ad857829003601f168201915b50505050508152602001600682018054611b0e9061252c565b80601f0160208091040260200160405190810160405280929190818152602001828054611b3a9061252c565b8015611b855780601f10611b5c57610100808354040283529160200191611b85565b820191905f5260205f20905b815481529060010190602001808311611b6857829003601f168201915b50505050508152602001600782018054611b9e9061252c565b80601f0160208091040260200160405190810160405280929190818152602001828054611bca9061252c565b8015611c155780601f10611bec57610100808354040283529160200191611c15565b820191905f5260205f20905b815481529060010190602001808311611bf857829003601f168201915b50505050508152602001600882015481525050838381518110611c3b57611c3a6126c8565b5b60200260200101819052508180611c5190612681565b9250505b8080611c6090612681565b91505061179b565b50819350505050919050565b6040518061012001604052805f8152602001606081526020016060815260200160608152602001606081526020016060815260200160608152602001606081526020015f81525090565b5f604051905090565b5f80fd5b5f80fd5b5f819050919050565b611ce181611ccf565b8114611ceb575f80fd5b50565b5f81359050611cfc81611cd8565b92915050565b5f60208284031215611d1757611d16611cc7565b5b5f611d2484828501611cee565b91505092915050565b611d3681611ccf565b82525050565b5f81519050919050565b5f82825260208201905092915050565b8281835e5f83830152505050565b5f601f19601f8301169050919050565b5f611d7e82611d3c565b611d888185611d46565b9350611d98818560208601611d56565b611da181611d64565b840191505092915050565b5f61012083015f830151611dc25f860182611d2d565b5060208301518482036020860152611dda8282611d74565b91505060408301518482036040860152611df48282611d74565b91505060608301518482036060860152611e0e8282611d74565b91505060808301518482036080860152611e288282611d74565b91505060a083015184820360a0860152611e428282611d74565b91505060c083015184820360c0860152611e5c8282611d74565b91505060e083015184820360e0860152611e768282611d74565b915050610100830151611e8d610100860182611d2d565b508091505092915050565b5f6020820190508181035f830152611eb08184611dac565b905092915050565b5f80fd5b5f80fd5b7f4e487b71000000000000000000000000000000000000000000000000000000005f52604160045260245ffd5b611ef682611d64565b810181811067ffffffffffffffff82111715611f1557611f14611ec0565b5b80604052505050565b5f611f27611cbe565b9050611f338282611eed565b919050565b5f67ffffffffffffffff821115611f5257611f51611ec0565b5b611f5b82611d64565b9050602081019050919050565b828183375f83830152505050565b5f611f88611f8384611f38565b611f1e565b905082815260208101848484011115611fa457611fa3611ebc565b5b611faf848285611f68565b509392505050565b5f82601f830112611fcb57611fca611eb8565b5b8135611fdb848260208601611f76565b91505092915050565b5f60208284031215611ff957611ff8611cc7565b5b5f82013567ffffffffffffffff81111561201657612015611ccb565b5b61202284828501611fb7565b91505092915050565b5f81519050919050565b5f82825260208201905092915050565b5f819050602082019050919050565b5f61012083015f83015161206a5f860182611d2d565b50602083015184820360208601526120828282611d74565b9150506040830151848203604086015261209c8282611d74565b915050606083015184820360608601526120b68282611d74565b915050608083015184820360808601526120d08282611d74565b91505060a083015184820360a08601526120ea8282611d74565b91505060c083015184820360c08601526121048282611d74565b91505060e083015184820360e086015261211e8282611d74565b915050610100830151612135610100860182611d2d565b508091505092915050565b5f61214b8383612054565b905092915050565b5f602082019050919050565b5f6121698261202b565b6121738185612035565b93508360208202850161218585612045565b805f5b858110156121c057848403895281516121a18582612140565b94506121ac83612153565b925060208a01995050600181019050612188565b50829750879550505050505092915050565b5f6020820190508181035f8301526121ea818461215f565b905092915050565b6121fb81611ccf565b82525050565b5f82825260208201905092915050565b5f61221b82611d3c565b6122258185612201565b9350612235818560208601611d56565b61223e81611d64565b840191505092915050565b5f6101208201905061225d5f83018c6121f2565b818103602083015261226f818b612211565b90508181036040830152612283818a612211565b905081810360608301526122978189612211565b905081810360808301526122ab8188612211565b905081810360a08301526122bf8187612211565b905081810360c08301526122d38186612211565b905081810360e08301526122e78185612211565b90506122f76101008301846121f2565b9a9950505050505050505050565b5f805f805f805f80610100898b03121561232257612321611cc7565b5b5f89013567ffffffffffffffff81111561233f5761233e611ccb565b5b61234b8b828c01611fb7565b985050602089013567ffffffffffffffff81111561236c5761236b611ccb565b5b6123788b828c01611fb7565b975050604089013567ffffffffffffffff81111561239957612398611ccb565b5b6123a58b828c01611fb7565b965050606089013567ffffffffffffffff8111156123c6576123c5611ccb565b5b6123d28b828c01611fb7565b955050608089013567ffffffffffffffff8111156123f3576123f2611ccb565b5b6123ff8b828c01611fb7565b94505060a089013567ffffffffffffffff8111156124205761241f611ccb565b5b61242c8b828c01611fb7565b93505060c089013567ffffffffffffffff81111561244d5761244c611ccb565b5b6124598b828c01611fb7565b92505060e061246a8b828c01611cee565b9150509295985092959890939650565b5f60208201905061248d5f8301846121f2565b92915050565b5f805f606084860312156124aa576124a9611cc7565b5b5f6124b786828701611cee565b935050602084013567ffffffffffffffff8111156124d8576124d7611ccb565b5b6124e486828701611fb7565b92505060406124f586828701611cee565b9150509250925092565b7f4e487b71000000000000000000000000000000000000000000000000000000005f52602260045260245ffd5b5f600282049050600182168061254357607f821691505b602082108103612556576125556124ff565b5b50919050565b5f81905092915050565b5f61257082611d3c565b61257a818561255c565b935061258a818560208601611d56565b80840191505092915050565b5f6125a18284612566565b915081905092915050565b5f819050815f5260205f209050919050565b5f81546125ca8161252c565b6125d4818661255c565b9450600182165f81146125ee576001811461260357612635565b60ff1983168652811515820286019350612635565b61260c856125ac565b5f5b8381101561262d5781548189015260018201915060208101905061260e565b838801955050505b50505092915050565b5f61264982846125be565b915081905092915050565b7f4e487b71000000000000000000000000000000000000000000000000000000005f52601160045260245ffd5b5f61268b82611ccf565b91507fffffffffffffffffffffffffffffffffffffffffffffffffffffffffffffffff82036126bd576126bc612654565b5b600182019050919050565b7f4e487b71000000000000000000000000000000000000000000000000000000005f52603260045260245ffd5b5f6020601f8301049050919050565b5f82821b905092915050565b5f6008830261273f7fffffffffffffffffffffffffffffffffffffffffffffffffffffffffffffffff82612704565b6127498683612704565b95508019841693508086168417925050509392505050565b5f819050919050565b5f61278461277f61277a84611ccf565b612761565b611ccf565b9050919050565b5f819050919050565b61279d8361276a565b6127b16127a98261278b565b848454612710565b825550505050565b5f90565b6127c56127b9565b6127d0818484612794565b505050565b5b818110156127f3576127e85f826127bd565b6001810190506127d6565b5050565b601f82111561283857612809816125ac565b612812846126f5565b81016020851015612821578190505b61283561282d856126f5565b8301826127d5565b50505b505050565b5f82821c905092915050565b5f6128585f198460080261283d565b1980831691505092915050565b5f6128708383612849565b9150826002028217905092915050565b61288982611d3c565b67ffffffffffffffff8111156128a2576128a1611ec0565b5b6128ac825461252c565b6128b78282856127f7565b5f60209050601f8311600181146128e8575f84156128d6578287015190505b6128e08582612865565b865550612947565b601f1984166128f6866125ac565b5f5b8281101561291d578489015182556001820191506020850194506020810190506128f8565b8683101561293a5784890151612936601f891682612849565b8355505b6001600288020188555050505b505050505050565b5f610100820190508181035f830152612968818b612211565b9050818103602083015261297c818a612211565b905081810360408301526129908189612211565b905081810360608301526129a48188612211565b905081810360808301526129b88187612211565b905081810360a08301526129cc8186612211565b905081810360c08301526129e08185612211565b90506129ef60e08301846121f2565b9998505050505050505050565b5f612a0682611ccf565b9150612a1183611ccf565b9250828203905081811115612a2957612a28612654565b5b92915050565b7f5472616e73616374696f6e20646f6573206e6f742065786973740000000000005f82015250565b5f612a63601a83612201565b9150612a6e82612a2f565b602082019050919050565b5f6020820190508181035f830152612a9081612a57565b9050919050565b5f6040820190508181035f830152612aaf8185612211565b9050612abe60208301846121f2565b939250505056fea26469706673582212200e79fb17138be02edfe58211399fbc8529de5cd01c4f281287f74a4381af787b64736f6c634300081a0033",
					"opcodes": "PUSH1 0x80 PUSH1 0x40 MSTORE CALLVALUE DUP1 ISZERO PUSH1 0xE JUMPI PUSH0 DUP1 REVERT JUMPDEST POP PUSH2 0x2AFB DUP1 PUSH2 0x1C PUSH0 CODECOPY PUSH0 RETURN INVALID PUSH1 0x80 PUSH1 0x40 MSTORE CALLVALUE DUP1 ISZERO PUSH2 0xF JUMPI PUSH0 DUP1 REVERT JUMPDEST POP PUSH1 0x4 CALLDATASIZE LT PUSH2 0x86 JUMPI PUSH0 CALLDATALOAD PUSH1 0xE0 SHR DUP1 PUSH4 0xADD6415D GT PUSH2 0x59 JUMPI DUP1 PUSH4 0xADD6415D EQ PUSH2 0x13E JUMPI DUP1 PUSH4 0xB77BF600 EQ PUSH2 0x15C JUMPI DUP1 PUSH4 0xCE8481FD EQ PUSH2 0x17A JUMPI DUP1 PUSH4 0xE55D57DF EQ PUSH2 0x196 JUMPI PUSH2 0x86 JUMP JUMPDEST DUP1 PUSH4 0x33EA3DC8 EQ PUSH2 0x8A JUMPI DUP1 PUSH4 0x9311F732 EQ PUSH2 0xBA JUMPI DUP1 PUSH4 0x9ACE38C2 EQ PUSH2 0xEA JUMPI DUP1 PUSH4 0xABED9FB4 EQ PUSH2 0x122 JUMPI JUMPDEST PUSH0 DUP1 REVERT JUMPDEST PUSH2 0xA4 PUSH1 0x4 DUP1 CALLDATASIZE SUB DUP2 ADD SWAP1 PUSH2 0x9F SWAP2 SWAP1 PUSH2 0x1D02 JUMP JUMPDEST PUSH2 0x1C6 JUMP JUMPDEST PUSH1 0x40 MLOAD PUSH2 0xB1 SWAP2 SWAP1 PUSH2 0x1E98 JUMP JUMPDEST PUSH1 0x40 MLOAD DUP1 SWAP2 SUB SWAP1 RETURN JUMPDEST PUSH2 0xD4 PUSH1 0x4 DUP1 CALLDATASIZE SUB DUP2 ADD SWAP1 PUSH2 0xCF SWAP2 SWAP1 PUSH2 0x1FE4 JUMP JUMPDEST PUSH2 0x5F4 JUMP JUMPDEST PUSH1 0x40 MLOAD PUSH2 0xE1 SWAP2 SWAP1 PUSH2 0x21D2 JUMP JUMPDEST PUSH1 0x40 MLOAD DUP1 SWAP2 SUB SWAP1 RETURN JUMPDEST PUSH2 0x104 PUSH1 0x4 DUP1 CALLDATASIZE SUB DUP2 ADD SWAP1 PUSH2 0xFF SWAP2 SWAP1 PUSH2 0x1D02 JUMP JUMPDEST PUSH2 0xBC5 JUMP JUMPDEST PUSH1 0x40 MLOAD PUSH2 0x119 SWAP10 SWAP9 SWAP8 SWAP7 SWAP6 SWAP5 SWAP4 SWAP3 SWAP2 SWAP1 PUSH2 0x2249 JUMP JUMPDEST PUSH1 0x40 MLOAD DUP1 SWAP2 SUB SWAP1 RETURN JUMPDEST PUSH2 0x13C PUSH1 0x4 DUP1 CALLDATASIZE SUB DUP2 ADD SWAP1 PUSH2 0x137 SWAP2 SWAP1 PUSH2 0x2305 JUMP JUMPDEST PUSH2 0xFB8 JUMP JUMPDEST STOP JUMPDEST PUSH2 0x146 PUSH2 0x1125 JUMP JUMPDEST PUSH1 0x40 MLOAD PUSH2 0x153 SWAP2 SWAP1 PUSH2 0x21D2 JUMP JUMPDEST PUSH1 0x40 MLOAD DUP1 SWAP2 SUB SWAP1 RETURN JUMPDEST PUSH2 0x164 PUSH2 0x15F3 JUMP JUMPDEST PUSH1 0x40 MLOAD PUSH2 0x171 SWAP2 SWAP1 PUSH2 0x247A JUMP JUMPDEST PUSH1 0x40 MLOAD DUP1 SWAP2 SUB SWAP1 RETURN JUMPDEST PUSH2 0x194 PUSH1 0x4 DUP1 CALLDATASIZE SUB DUP2 ADD SWAP1 PUSH2 0x18F SWAP2 SWAP1 PUSH2 0x2493 JUMP JUMPDEST PUSH2 0x15F9 JUMP JUMPDEST STOP JUMPDEST PUSH2 0x1B0 PUSH1 0x4 DUP1 CALLDATASIZE SUB DUP2 ADD SWAP1 PUSH2 0x1AB SWAP2 SWAP1 PUSH2 0x1FE4 JUMP JUMPDEST PUSH2 0x16A3 JUMP JUMPDEST PUSH1 0x40 MLOAD PUSH2 0x1BD SWAP2 SWAP1 PUSH2 0x21D2 JUMP JUMPDEST PUSH1 0x40 MLOAD DUP1 SWAP2 SUB SWAP1 RETURN JUMPDEST PUSH2 0x1CE PUSH2 0x1C74 JUMP JUMPDEST PUSH0 DUP1 DUP4 DUP2 MSTORE PUSH1 0x20 ADD SWAP1 DUP2 MSTORE PUSH1 0x20 ADD PUSH0 KECCAK256 PUSH1 0x40 MLOAD DUP1 PUSH2 0x120 ADD PUSH1 0x40 MSTORE SWAP1 DUP2 PUSH0 DUP3 ADD SLOAD DUP2 MSTORE PUSH1 0x20 ADD PUSH1 0x1 DUP3 ADD DUP1 SLOAD PUSH2 0x203 SWAP1 PUSH2 0x252C JUMP JUMPDEST DUP1 PUSH1 0x1F ADD PUSH1 0x20 DUP1 SWAP2 DIV MUL PUSH1 0x20 ADD PUSH1 0x40 MLOAD SWAP1 DUP2 ADD PUSH1 0x40 MSTORE DUP1 SWAP3 SWAP2 SWAP1 DUP2 DUP2 MSTORE PUSH1 0x20 ADD DUP3 DUP1 SLOAD PUSH2 0x22F SWAP1 PUSH2 0x252C JUMP JUMPDEST DUP1 ISZERO PUSH2 0x27A JUMPI DUP1 PUSH1 0x1F LT PUSH2 0x251 JUMPI PUSH2 0x100 DUP1 DUP4 SLOAD DIV MUL DUP4 MSTORE SWAP2 PUSH1 0x20 ADD SWAP2 PUSH2 0x27A JUMP JUMPDEST DUP3 ADD SWAP2 SWAP1 PUSH0 MSTORE PUSH1 0x20 PUSH0 KECCAK256 SWAP1 JUMPDEST DUP2 SLOAD DUP2 MSTORE SWAP1 PUSH1 0x1 ADD SWAP1 PUSH1 0x20 ADD DUP1 DUP4 GT PUSH2 0x25D JUMPI DUP3 SWAP1 SUB PUSH1 0x1F AND DUP3 ADD SWAP2 JUMPDEST POP POP POP POP POP DUP2 MSTORE PUSH1 0x20 ADD PUSH1 0x2 DUP3 ADD DUP1 SLOAD PUSH2 0x293 SWAP1 PUSH2 0x252C JUMP JUMPDEST DUP1 PUSH1 0x1F ADD PUSH1 0x20 DUP1 SWAP2 DIV MUL PUSH1 0x20 ADD PUSH1 0x40 MLOAD SWAP1 DUP2 ADD PUSH1 0x40 MSTORE DUP1 SWAP3 SWAP2 SWAP1 DUP2 DUP2 MSTORE PUSH1 0x20 ADD DUP3 DUP1 SLOAD PUSH2 0x2BF SWAP1 PUSH2 0x252C JUMP JUMPDEST DUP1 ISZERO PUSH2 0x30A JUMPI DUP1 PUSH1 0x1F LT PUSH2 0x2E1 JUMPI PUSH2 0x100 DUP1 DUP4 SLOAD DIV MUL DUP4 MSTORE SWAP2 PUSH1 0x20 ADD SWAP2 PUSH2 0x30A JUMP JUMPDEST DUP3 ADD SWAP2 SWAP1 PUSH0 MSTORE PUSH1 0x20 PUSH0 KECCAK256 SWAP1 JUMPDEST DUP2 SLOAD DUP2 MSTORE SWAP1 PUSH1 0x1 ADD SWAP1 PUSH1 0x20 ADD DUP1 DUP4 GT PUSH2 0x2ED JUMPI DUP3 SWAP1 SUB PUSH1 0x1F AND DUP3 ADD SWAP2 JUMPDEST POP POP POP POP POP DUP2 MSTORE PUSH1 0x20 ADD PUSH1 0x3 DUP3 ADD DUP1 SLOAD PUSH2 0x323 SWAP1 PUSH2 0x252C JUMP JUMPDEST DUP1 PUSH1 0x1F ADD PUSH1 0x20 DUP1 SWAP2 DIV MUL PUSH1 0x20 ADD PUSH1 0x40 MLOAD SWAP1 DUP2 ADD PUSH1 0x40 MSTORE DUP1 SWAP3 SWAP2 SWAP1 DUP2 DUP2 MSTORE PUSH1 0x20 ADD DUP3 DUP1 SLOAD PUSH2 0x34F SWAP1 PUSH2 0x252C JUMP JUMPDEST DUP1 ISZERO PUSH2 0x39A JUMPI DUP1 PUSH1 0x1F LT PUSH2 0x371 JUMPI PUSH2 0x100 DUP1 DUP4 SLOAD DIV MUL DUP4 MSTORE SWAP2 PUSH1 0x20 ADD SWAP2 PUSH2 0x39A JUMP JUMPDEST DUP3 ADD SWAP2 SWAP1 PUSH0 MSTORE PUSH1 0x20 PUSH0 KECCAK256 SWAP1 JUMPDEST DUP2 SLOAD DUP2 MSTORE SWAP1 PUSH1 0x1 ADD SWAP1 PUSH1 0x20 ADD DUP1 DUP4 GT PUSH2 0x37D JUMPI DUP3 SWAP1 SUB PUSH1 0x1F AND DUP3 ADD SWAP2 JUMPDEST POP POP POP POP POP DUP2 MSTORE PUSH1 0x20 ADD PUSH1 0x4 DUP3 ADD DUP1 SLOAD PUSH2 0x3B3 SWAP1 PUSH2 0x252C JUMP JUMPDEST DUP1 PUSH1 0x1F ADD PUSH1 0x20 DUP1 SWAP2 DIV MUL PUSH1 0x20 ADD PUSH1 0x40 MLOAD SWAP1 DUP2 ADD PUSH1 0x40 MSTORE DUP1 SWAP3 SWAP2 SWAP1 DUP2 DUP2 MSTORE PUSH1 0x20 ADD DUP3 DUP1 SLOAD PUSH2 0x3DF SWAP1 PUSH2 0x252C JUMP JUMPDEST DUP1 ISZERO PUSH2 0x42A JUMPI DUP1 PUSH1 0x1F LT PUSH2 0x401 JUMPI PUSH2 0x100 DUP1 DUP4 SLOAD DIV MUL DUP4 MSTORE SWAP2 PUSH1 0x20 ADD SWAP2 PUSH2 0x42A JUMP JUMPDEST DUP3 ADD SWAP2 SWAP1 PUSH0 MSTORE PUSH1 0x20 PUSH0 KECCAK256 SWAP1 JUMPDEST DUP2 SLOAD DUP2 MSTORE SWAP1 PUSH1 0x1 ADD SWAP1 PUSH1 0x20 ADD DUP1 DUP4 GT PUSH2 0x40D JUMPI DUP3 SWAP1 SUB PUSH1 0x1F AND DUP3 ADD SWAP2 JUMPDEST POP POP POP POP POP DUP2 MSTORE PUSH1 0x20 ADD PUSH1 0x5 DUP3 ADD DUP1 SLOAD PUSH2 0x443 SWAP1 PUSH2 0x252C JUMP JUMPDEST DUP1 PUSH1 0x1F ADD PUSH1 0x20 DUP1 SWAP2 DIV MUL PUSH1 0x20 ADD PUSH1 0x40 MLOAD SWAP1 DUP2 ADD PUSH1 0x40 MSTORE DUP1 SWAP3 SWAP2 SWAP1 DUP2 DUP2 MSTORE PUSH1 0x20 ADD DUP3 DUP1 SLOAD PUSH2 0x46F SWAP1 PUSH2 0x252C JUMP JUMPDEST DUP1 ISZERO PUSH2 0x4BA JUMPI DUP1 PUSH1 0x1F LT PUSH2 0x491 JUMPI PUSH2 0x100 DUP1 DUP4 SLOAD DIV MUL DUP4 MSTORE SWAP2 PUSH1 0x20 ADD SWAP2 PUSH2 0x4BA JUMP JUMPDEST DUP3 ADD SWAP2 SWAP1 PUSH0 MSTORE PUSH1 0x20 PUSH0 KECCAK256 SWAP1 JUMPDEST DUP2 SLOAD DUP2 MSTORE SWAP1 PUSH1 0x1 ADD SWAP1 PUSH1 0x20 ADD DUP1 DUP4 GT PUSH2 0x49D JUMPI DUP3 SWAP1 SUB PUSH1 0x1F AND DUP3 ADD SWAP2 JUMPDEST POP POP POP POP POP DUP2 MSTORE PUSH1 0x20 ADD PUSH1 0x6 DUP3 ADD DUP1 SLOAD PUSH2 0x4D3 SWAP1 PUSH2 0x252C JUMP JUMPDEST DUP1 PUSH1 0x1F ADD PUSH1 0x20 DUP1 SWAP2 DIV MUL PUSH1 0x20 ADD PUSH1 0x40 MLOAD SWAP1 DUP2 ADD PUSH1 0x40 MSTORE DUP1 SWAP3 SWAP2 SWAP1 DUP2 DUP2 MSTORE PUSH1 0x20 ADD DUP3 DUP1 SLOAD PUSH2 0x4FF SWAP1 PUSH2 0x252C JUMP JUMPDEST DUP1 ISZERO PUSH2 0x54A JUMPI DUP1 PUSH1 0x1F LT PUSH2 0x521 JUMPI PUSH2 0x100 DUP1 DUP4 SLOAD DIV MUL DUP4 MSTORE SWAP2 PUSH1 0x20 ADD SWAP2 PUSH2 0x54A JUMP JUMPDEST DUP3 ADD SWAP2 SWAP1 PUSH0 MSTORE PUSH1 0x20 PUSH0 KECCAK256 SWAP1 JUMPDEST DUP2 SLOAD DUP2 MSTORE SWAP1 PUSH1 0x1 ADD SWAP1 PUSH1 0x20 ADD DUP1 DUP4 GT PUSH2 0x52D JUMPI DUP3 SWAP1 SUB PUSH1 0x1F AND DUP3 ADD SWAP2 JUMPDEST POP POP POP POP POP DUP2 MSTORE PUSH1 0x20 ADD PUSH1 0x7 DUP3 ADD DUP1 SLOAD PUSH2 0x563 SWAP1 PUSH2 0x252C JUMP JUMPDEST DUP1 PUSH1 0x1F ADD PUSH1 0x20 DUP1 SWAP2 DIV MUL PUSH1 0x20 ADD PUSH1 0x40 MLOAD SWAP1 DUP2 ADD PUSH1 0x40 MSTORE DUP1 SWAP3 SWAP2 SWAP1 DUP2 DUP2 MSTORE PUSH1 0x20 ADD DUP3 DUP1 SLOAD PUSH2 0x58F SWAP1 PUSH2 0x252C JUMP JUMPDEST DUP1 ISZERO PUSH2 0x5DA JUMPI DUP1 PUSH1 0x1F LT PUSH2 0x5B1 JUMPI PUSH2 0x100 DUP1 DUP4 SLOAD DIV MUL DUP4 MSTORE SWAP2 PUSH1 0x20 ADD SWAP2 PUSH2 0x5DA JUMP JUMPDEST DUP3 ADD SWAP2 SWAP1 PUSH0 MSTORE PUSH1 0x20 PUSH0 KECCAK256 SWAP1 JUMPDEST DUP2 SLOAD DUP2 MSTORE SWAP1 PUSH1 0x1 ADD SWAP1 PUSH1 0x20 ADD DUP1 DUP4 GT PUSH2 0x5BD JUMPI DUP3 SWAP1 SUB PUSH1 0x1F AND DUP3 ADD SWAP2 JUMPDEST POP POP POP POP POP DUP2 MSTORE PUSH1 0x20 ADD PUSH1 0x8 DUP3 ADD SLOAD DUP2 MSTORE POP POP SWAP1 POP SWAP2 SWAP1 POP JUMP JUMPDEST PUSH1 0x60 PUSH0 DUP1 PUSH1 0x1 SWAP1 POP JUMPDEST PUSH1 0x1 SLOAD DUP2 GT PUSH2 0x68D JUMPI DUP4 PUSH1 0x40 MLOAD PUSH1 0x20 ADD PUSH2 0x617 SWAP2 SWAP1 PUSH2 0x2596 JUMP JUMPDEST PUSH1 0x40 MLOAD PUSH1 0x20 DUP2 DUP4 SUB SUB DUP2 MSTORE SWAP1 PUSH1 0x40 MSTORE DUP1 MLOAD SWAP1 PUSH1 0x20 ADD KECCAK256 PUSH0 DUP1 DUP4 DUP2 MSTORE PUSH1 0x20 ADD SWAP1 DUP2 MSTORE PUSH1 0x20 ADD PUSH0 KECCAK256 PUSH1 0x5 ADD PUSH1 0x40 MLOAD PUSH1 0x20 ADD PUSH2 0x650 SWAP2 SWAP1 PUSH2 0x263E JUMP JUMPDEST PUSH1 0x40 MLOAD PUSH1 0x20 DUP2 DUP4 SUB SUB DUP2 MSTORE SWAP1 PUSH1 0x40 MSTORE DUP1 MLOAD SWAP1 PUSH1 0x20 ADD KECCAK256 SUB PUSH2 0x67A JUMPI DUP2 DUP1 PUSH2 0x676 SWAP1 PUSH2 0x2681 JUMP JUMPDEST SWAP3 POP POP JUMPDEST DUP1 DUP1 PUSH2 0x685 SWAP1 PUSH2 0x2681 JUMP JUMPDEST SWAP2 POP POP PUSH2 0x5FD JUMP JUMPDEST POP PUSH0 DUP2 PUSH8 0xFFFFFFFFFFFFFFFF DUP2 GT ISZERO PUSH2 0x6A9 JUMPI PUSH2 0x6A8 PUSH2 0x1EC0 JUMP JUMPDEST JUMPDEST PUSH1 0x40 MLOAD SWAP1 DUP1 DUP3 MSTORE DUP1 PUSH1 0x20 MUL PUSH1 0x20 ADD DUP3 ADD PUSH1 0x40 MSTORE DUP1 ISZERO PUSH2 0x6E2 JUMPI DUP2 PUSH1 0x20 ADD JUMPDEST PUSH2 0x6CF PUSH2 0x1C74 JUMP JUMPDEST DUP2 MSTORE PUSH1 0x20 ADD SWAP1 PUSH1 0x1 SWAP1 SUB SWAP1 DUP2 PUSH2 0x6C7 JUMPI SWAP1 POP JUMPDEST POP SWAP1 POP PUSH0 DUP1 PUSH1 0x1 SWAP1 POP JUMPDEST PUSH1 0x1 SLOAD DUP2 GT PUSH2 0xBB9 JUMPI DUP6 PUSH1 0x40 MLOAD PUSH1 0x20 ADD PUSH2 0x706 SWAP2 SWAP1 PUSH2 0x2596 JUMP JUMPDEST PUSH1 0x40 MLOAD PUSH1 0x20 DUP2 DUP4 SUB SUB DUP2 MSTORE SWAP1 PUSH1 0x40 MSTORE DUP1 MLOAD SWAP1 PUSH1 0x20 ADD KECCAK256 PUSH0 DUP1 DUP4 DUP2 MSTORE PUSH1 0x20 ADD SWAP1 DUP2 MSTORE PUSH1 0x20 ADD PUSH0 KECCAK256 PUSH1 0x5 ADD PUSH1 0x40 MLOAD PUSH1 0x20 ADD PUSH2 0x73F SWAP2 SWAP1 PUSH2 0x263E JUMP JUMPDEST PUSH1 0x40 MLOAD PUSH1 0x20 DUP2 DUP4 SUB SUB DUP2 MSTORE SWAP1 PUSH1 0x40 MSTORE DUP1 MLOAD SWAP1 PUSH1 0x20 ADD KECCAK256 SUB PUSH2 0xBA6 JUMPI PUSH0 DUP1 DUP3 DUP2 MSTORE PUSH1 0x20 ADD SWAP1 DUP2 MSTORE PUSH1 0x20 ADD PUSH0 KECCAK256 PUSH1 0x40 MLOAD DUP1 PUSH2 0x120 ADD PUSH1 0x40 MSTORE SWAP1 DUP2 PUSH0 DUP3 ADD SLOAD DUP2 MSTORE PUSH1 0x20 ADD PUSH1 0x1 DUP3 ADD DUP1 SLOAD PUSH2 0x78F SWAP1 PUSH2 0x252C JUMP JUMPDEST DUP1 PUSH1 0x1F ADD PUSH1 0x20 DUP1 SWAP2 DIV MUL PUSH1 0x20 ADD PUSH1 0x40 MLOAD SWAP1 DUP2 ADD PUSH1 0x40 MSTORE DUP1 SWAP3 SWAP2 SWAP1 DUP2 DUP2 MSTORE PUSH1 0x20 ADD DUP3 DUP1 SLOAD PUSH2 0x7BB SWAP1 PUSH2 0x252C JUMP JUMPDEST DUP1 ISZERO PUSH2 0x806 JUMPI DUP1 PUSH1 0x1F LT PUSH2 0x7DD JUMPI PUSH2 0x100 DUP1 DUP4 SLOAD DIV MUL DUP4 MSTORE SWAP2 PUSH1 0x20 ADD SWAP2 PUSH2 0x806 JUMP JUMPDEST DUP3 ADD SWAP2 SWAP1 PUSH0 MSTORE PUSH1 0x20 PUSH0 KECCAK256 SWAP1 JUMPDEST DUP2 SLOAD DUP2 MSTORE SWAP1 PUSH1 0x1 ADD SWAP1 PUSH1 0x20 ADD DUP1 DUP4 GT PUSH2 0x7E9 JUMPI DUP3 SWAP1 SUB PUSH1 0x1F AND DUP3 ADD SWAP2 JUMPDEST POP POP POP POP POP DUP2 MSTORE PUSH1 0x20 ADD PUSH1 0x2 DUP3 ADD DUP1 SLOAD PUSH2 0x81F SWAP1 PUSH2 0x252C JUMP JUMPDEST DUP1 PUSH1 0x1F ADD PUSH1 0x20 DUP1 SWAP2 DIV MUL PUSH1 0x20 ADD PUSH1 0x40 MLOAD SWAP1 DUP2 ADD PUSH1 0x40 MSTORE DUP1 SWAP3 SWAP2 SWAP1 DUP2 DUP2 MSTORE PUSH1 0x20 ADD DUP3 DUP1 SLOAD PUSH2 0x84B SWAP1 PUSH2 0x252C JUMP JUMPDEST DUP1 ISZERO PUSH2 0x896 JUMPI DUP1 PUSH1 0x1F LT PUSH2 0x86D JUMPI PUSH2 0x100 DUP1 DUP4 SLOAD DIV MUL DUP4 MSTORE SWAP2 PUSH1 0x20 ADD SWAP2 PUSH2 0x896 JUMP JUMPDEST DUP3 ADD SWAP2 SWAP1 PUSH0 MSTORE PUSH1 0x20 PUSH0 KECCAK256 SWAP1 JUMPDEST DUP2 SLOAD DUP2 MSTORE SWAP1 PUSH1 0x1 ADD SWAP1 PUSH1 0x20 ADD DUP1 DUP4 GT PUSH2 0x879 JUMPI DUP3 SWAP1 SUB PUSH1 0x1F AND DUP3 ADD SWAP2 JUMPDEST POP POP POP POP POP DUP2 MSTORE PUSH1 0x20 ADD PUSH1 0x3 DUP3 ADD DUP1 SLOAD PUSH2 0x8AF SWAP1 PUSH2 0x252C JUMP JUMPDEST DUP1 PUSH1 0x1F ADD PUSH1 0x20 DUP1 SWAP2 DIV MUL PUSH1 0x20 ADD PUSH1 0x40 MLOAD SWAP1 DUP2 ADD PUSH1 0x40 MSTORE DUP1 SWAP3 SWAP2 SWAP1 DUP2 DUP2 MSTORE PUSH1 0x20 ADD DUP3 DUP1 SLOAD PUSH2 0x8DB SWAP1 PUSH2 0x252C JUMP JUMPDEST DUP1 ISZERO PUSH2 0x926 JUMPI DUP1 PUSH1 0x1F LT PUSH2 0x8FD JUMPI PUSH2 0x100 DUP1 DUP4 SLOAD DIV MUL DUP4 MSTORE SWAP2 PUSH1 0x20 ADD SWAP2 PUSH2 0x926 JUMP JUMPDEST DUP3 ADD SWAP2 SWAP1 PUSH0 MSTORE PUSH1 0x20 PUSH0 KECCAK256 SWAP1 JUMPDEST DUP2 SLOAD DUP2 MSTORE SWAP1 PUSH1 0x1 ADD SWAP1 PUSH1 0x20 ADD DUP1 DUP4 GT PUSH2 0x909 JUMPI DUP3 SWAP1 SUB PUSH1 0x1F AND DUP3 ADD SWAP2 JUMPDEST POP POP POP POP POP DUP2 MSTORE PUSH1 0x20 ADD PUSH1 0x4 DUP3 ADD DUP1 SLOAD PUSH2 0x93F SWAP1 PUSH2 0x252C JUMP JUMPDEST DUP1 PUSH1 0x1F ADD PUSH1 0x20 DUP1 SWAP2 DIV MUL PUSH1 0x20 ADD PUSH1 0x40 MLOAD SWAP1 DUP2 ADD PUSH1 0x40 MSTORE DUP1 SWAP3 SWAP2 SWAP1 DUP2 DUP2 MSTORE PUSH1 0x20 ADD DUP3 DUP1 SLOAD PUSH2 0x96B SWAP1 PUSH2 0x252C JUMP JUMPDEST DUP1 ISZERO PUSH2 0x9B6 JUMPI DUP1 PUSH1 0x1F LT PUSH2 0x98D JUMPI PUSH2 0x100 DUP1 DUP4 SLOAD DIV MUL DUP4 MSTORE SWAP2 PUSH1 0x20 ADD SWAP2 PUSH2 0x9B6 JUMP JUMPDEST DUP3 ADD SWAP2 SWAP1 PUSH0 MSTORE PUSH1 0x20 PUSH0 KECCAK256 SWAP1 JUMPDEST DUP2 SLOAD DUP2 MSTORE SWAP1 PUSH1 0x1 ADD SWAP1 PUSH1 0x20 ADD DUP1 DUP4 GT PUSH2 0x999 JUMPI DUP3 SWAP1 SUB PUSH1 0x1F AND DUP3 ADD SWAP2 JUMPDEST POP POP POP POP POP DUP2 MSTORE PUSH1 0x20 ADD PUSH1 0x5 DUP3 ADD DUP1 SLOAD PUSH2 0x9CF SWAP1 PUSH2 0x252C JUMP JUMPDEST DUP1 PUSH1 0x1F ADD PUSH1 0x20 DUP1 SWAP2 DIV MUL PUSH1 0x20 ADD PUSH1 0x40 MLOAD SWAP1 DUP2 ADD PUSH1 0x40 MSTORE DUP1 SWAP3 SWAP2 SWAP1 DUP2 DUP2 MSTORE PUSH1 0x20 ADD DUP3 DUP1 SLOAD PUSH2 0x9FB SWAP1 PUSH2 0x252C JUMP JUMPDEST DUP1 ISZERO PUSH2 0xA46 JUMPI DUP1 PUSH1 0x1F LT PUSH2 0xA1D JUMPI PUSH2 0x100 DUP1 DUP4 SLOAD DIV MUL DUP4 MSTORE SWAP2 PUSH1 0x20 ADD SWAP2 PUSH2 0xA46 JUMP JUMPDEST DUP3 ADD SWAP2 SWAP1 PUSH0 MSTORE PUSH1 0x20 PUSH0 KECCAK256 SWAP1 JUMPDEST DUP2 SLOAD DUP2 MSTORE SWAP1 PUSH1 0x1 ADD SWAP1 PUSH1 0x20 ADD DUP1 DUP4 GT PUSH2 0xA29 JUMPI DUP3 SWAP1 SUB PUSH1 0x1F AND DUP3 ADD SWAP2 JUMPDEST POP POP POP POP POP DUP2 MSTORE PUSH1 0x20 ADD PUSH1 0x6 DUP3 ADD DUP1 SLOAD PUSH2 0xA5F SWAP1 PUSH2 0x252C JUMP JUMPDEST DUP1 PUSH1 0x1F ADD PUSH1 0x20 DUP1 SWAP2 DIV MUL PUSH1 0x20 ADD PUSH1 0x40 MLOAD SWAP1 DUP2 ADD PUSH1 0x40 MSTORE DUP1 SWAP3 SWAP2 SWAP1 DUP2 DUP2 MSTORE PUSH1 0x20 ADD DUP3 DUP1 SLOAD PUSH2 0xA8B SWAP1 PUSH2 0x252C JUMP JUMPDEST DUP1 ISZERO PUSH2 0xAD6 JUMPI DUP1 PUSH1 0x1F LT PUSH2 0xAAD JUMPI PUSH2 0x100 DUP1 DUP4 SLOAD DIV MUL DUP4 MSTORE SWAP2 PUSH1 0x20 ADD SWAP2 PUSH2 0xAD6 JUMP JUMPDEST DUP3 ADD SWAP2 SWAP1 PUSH0 MSTORE PUSH1 0x20 PUSH0 KECCAK256 SWAP1 JUMPDEST DUP2 SLOAD DUP2 MSTORE SWAP1 PUSH1 0x1 ADD SWAP1 PUSH1 0x20 ADD DUP1 DUP4 GT PUSH2 0xAB9 JUMPI DUP3 SWAP1 SUB PUSH1 0x1F AND DUP3 ADD SWAP2 JUMPDEST POP POP POP POP POP DUP2 MSTORE PUSH1 0x20 ADD PUSH1 0x7 DUP3 ADD DUP1 SLOAD PUSH2 0xAEF SWAP1 PUSH2 0x252C JUMP JUMPDEST DUP1 PUSH1 0x1F ADD PUSH1 0x20 DUP1 SWAP2 DIV MUL PUSH1 0x20 ADD PUSH1 0x40 MLOAD SWAP1 DUP2 ADD PUSH1 0x40 MSTORE DUP1 SWAP3 SWAP2 SWAP1 DUP2 DUP2 MSTORE PUSH1 0x20 ADD DUP3 DUP1 SLOAD PUSH2 0xB1B SWAP1 PUSH2 0x252C JUMP JUMPDEST DUP1 ISZERO PUSH2 0xB66 JUMPI DUP1 PUSH1 0x1F LT PUSH2 0xB3D JUMPI PUSH2 0x100 DUP1 DUP4 SLOAD DIV MUL DUP4 MSTORE SWAP2 PUSH1 0x20 ADD SWAP2 PUSH2 0xB66 JUMP JUMPDEST DUP3 ADD SWAP2 SWAP1 PUSH0 MSTORE PUSH1 0x20 PUSH0 KECCAK256 SWAP1 JUMPDEST DUP2 SLOAD DUP2 MSTORE SWAP1 PUSH1 0x1 ADD SWAP1 PUSH1 0x20 ADD DUP1 DUP4 GT PUSH2 0xB49 JUMPI DUP3 SWAP1 SUB PUSH1 0x1F AND DUP3 ADD SWAP2 JUMPDEST POP POP POP POP POP DUP2 MSTORE PUSH1 0x20 ADD PUSH1 0x8 DUP3 ADD SLOAD DUP2 MSTORE POP POP DUP4 DUP4 DUP2 MLOAD DUP2 LT PUSH2 0xB8C JUMPI PUSH2 0xB8B PUSH2 0x26C8 JUMP JUMPDEST JUMPDEST PUSH1 0x20 MUL PUSH1 0x20 ADD ADD DUP2 SWAP1 MSTORE POP DUP2 DUP1 PUSH2 0xBA2 SWAP1 PUSH2 0x2681 JUMP JUMPDEST SWAP3 POP POP JUMPDEST DUP1 DUP1 PUSH2 0xBB1 SWAP1 PUSH2 0x2681 JUMP JUMPDEST SWAP2 POP POP PUSH2 0x6EC JUMP JUMPDEST POP DUP2 SWAP4 POP POP POP POP SWAP2 SWAP1 POP JUMP JUMPDEST PUSH0 PUSH1 0x20 MSTORE DUP1 PUSH0 MSTORE PUSH1 0x40 PUSH0 KECCAK256 PUSH0 SWAP2 POP SWAP1 POP DUP1 PUSH0 ADD SLOAD SWAP1 DUP1 PUSH1 0x1 ADD DUP1 SLOAD PUSH2 0xBE9 SWAP1 PUSH2 0x252C JUMP JUMPDEST DUP1 PUSH1 0x1F ADD PUSH1 0x20 DUP1 SWAP2 DIV MUL PUSH1 0x20 ADD PUSH1 0x40 MLOAD SWAP1 DUP2 ADD PUSH1 0x40 MSTORE DUP1 SWAP3 SWAP2 SWAP1 DUP2 DUP2 MSTORE PUSH1 0x20 ADD DUP3 DUP1 SLOAD PUSH2 0xC15 SWAP1 PUSH2 0x252C JUMP JUMPDEST DUP1 ISZERO PUSH2 0xC60 JUMPI DUP1 PUSH1 0x1F LT PUSH2 0xC37 JUMPI PUSH2 0x100 DUP1 DUP4 SLOAD DIV MUL DUP4 MSTORE SWAP2 PUSH1 0x20 ADD SWAP2 PUSH2 0xC60 JUMP JUMPDEST DUP3 ADD SWAP2 SWAP1 PUSH0 MSTORE PUSH1 0x20 PUSH0 KECCAK256 SWAP1 JUMPDEST DUP2 SLOAD DUP2 MSTORE SWAP1 PUSH1 0x1 ADD SWAP1 PUSH1 0x20 ADD DUP1 DUP4 GT PUSH2 0xC43 JUMPI DUP3 SWAP1 SUB PUSH1 0x1F AND DUP3 ADD SWAP2 JUMPDEST POP POP POP POP POP SWAP1 DUP1 PUSH1 0x2 ADD DUP1 SLOAD PUSH2 0xC75 SWAP1 PUSH2 0x252C JUMP JUMPDEST DUP1 PUSH1 0x1F ADD PUSH1 0x20 DUP1 SWAP2 DIV MUL PUSH1 0x20 ADD PUSH1 0x40 MLOAD SWAP1 DUP2 ADD PUSH1 0x40 MSTORE DUP1 SWAP3 SWAP2 SWAP1 DUP2 DUP2 MSTORE PUSH1 0x20 ADD DUP3 DUP1 SLOAD PUSH2 0xCA1 SWAP1 PUSH2 0x252C JUMP JUMPDEST DUP1 ISZERO PUSH2 0xCEC JUMPI DUP1 PUSH1 0x1F LT PUSH2 0xCC3 JUMPI PUSH2 0x100 DUP1 DUP4 SLOAD DIV MUL DUP4 MSTORE SWAP2 PUSH1 0x20 ADD SWAP2 PUSH2 0xCEC JUMP JUMPDEST DUP3 ADD SWAP2 SWAP1 PUSH0 MSTORE PUSH1 0x20 PUSH0 KECCAK256 SWAP1 JUMPDEST DUP2 SLOAD DUP2 MSTORE SWAP1 PUSH1 0x1 ADD SWAP1 PUSH1 0x20 ADD DUP1 DUP4 GT PUSH2 0xCCF JUMPI DUP3 SWAP1 SUB PUSH1 0x1F AND DUP3 ADD SWAP2 JUMPDEST POP POP POP POP POP SWAP1 DUP1 PUSH1 0x3 ADD DUP1 SLOAD PUSH2 0xD01 SWAP1 PUSH2 0x252C JUMP JUMPDEST DUP1 PUSH1 0x1F ADD PUSH1 0x20 DUP1 SWAP2 DIV MUL PUSH1 0x20 ADD PUSH1 0x40 MLOAD SWAP1 DUP2 ADD PUSH1 0x40 MSTORE DUP1 SWAP3 SWAP2 SWAP1 DUP2 DUP2 MSTORE PUSH1 0x20 ADD DUP3 DUP1 SLOAD PUSH2 0xD2D SWAP1 PUSH2 0x252C JUMP JUMPDEST DUP1 ISZERO PUSH2 0xD78 JUMPI DUP1 PUSH1 0x1F LT PUSH2 0xD4F JUMPI PUSH2 0x100 DUP1 DUP4 SLOAD DIV MUL DUP4 MSTORE SWAP2 PUSH1 0x20 ADD SWAP2 PUSH2 0xD78 JUMP JUMPDEST DUP3 ADD SWAP2 SWAP1 PUSH0 MSTORE PUSH1 0x20 PUSH0 KECCAK256 SWAP1 JUMPDEST DUP2 SLOAD DUP2 MSTORE SWAP1 PUSH1 0x1 ADD SWAP1 PUSH1 0x20 ADD DUP1 DUP4 GT PUSH2 0xD5B JUMPI DUP3 SWAP1 SUB PUSH1 0x1F AND DUP3 ADD SWAP2 JUMPDEST POP POP POP POP POP SWAP1 DUP1 PUSH1 0x4 ADD DUP1 SLOAD PUSH2 0xD8D SWAP1 PUSH2 0x252C JUMP JUMPDEST DUP1 PUSH1 0x1F ADD PUSH1 0x20 DUP1 SWAP2 DIV MUL PUSH1 0x20 ADD PUSH1 0x40 MLOAD SWAP1 DUP2 ADD PUSH1 0x40 MSTORE DUP1 SWAP3 SWAP2 SWAP1 DUP2 DUP2 MSTORE PUSH1 0x20 ADD DUP3 DUP1 SLOAD PUSH2 0xDB9 SWAP1 PUSH2 0x252C JUMP JUMPDEST DUP1 ISZERO PUSH2 0xE04 JUMPI DUP1 PUSH1 0x1F LT PUSH2 0xDDB JUMPI PUSH2 0x100 DUP1 DUP4 SLOAD DIV MUL DUP4 MSTORE SWAP2 PUSH1 0x20 ADD SWAP2 PUSH2 0xE04 JUMP JUMPDEST DUP3 ADD SWAP2 SWAP1 PUSH0 MSTORE PUSH1 0x20 PUSH0 KECCAK256 SWAP1 JUMPDEST DUP2 SLOAD DUP2 MSTORE SWAP1 PUSH1 0x1 ADD SWAP1 PUSH1 0x20 ADD DUP1 DUP4 GT PUSH2 0xDE7 JUMPI DUP3 SWAP1 SUB PUSH1 0x1F AND DUP3 ADD SWAP2 JUMPDEST POP POP POP POP POP SWAP1 DUP1 PUSH1 0x5 ADD DUP1 SLOAD PUSH2 0xE19 SWAP1 PUSH2 0x252C JUMP JUMPDEST DUP1 PUSH1 0x1F ADD PUSH1 0x20 DUP1 SWAP2 DIV MUL PUSH1 0x20 ADD PUSH1 0x40 MLOAD SWAP1 DUP2 ADD PUSH1 0x40 MSTORE DUP1 SWAP3 SWAP2 SWAP1 DUP2 DUP2 MSTORE PUSH1 0x20 ADD DUP3 DUP1 SLOAD PUSH2 0xE45 SWAP1 PUSH2 0x252C JUMP JUMPDEST DUP1 ISZERO PUSH2 0xE90 JUMPI DUP1 PUSH1 0x1F LT PUSH2 0xE67 JUMPI PUSH2 0x100 DUP1 DUP4 SLOAD DIV MUL DUP4 MSTORE SWAP2 PUSH1 0x20 ADD SWAP2 PUSH2 0xE90 JUMP JUMPDEST DUP3 ADD SWAP2 SWAP1 PUSH0 MSTORE PUSH1 0x20 PUSH0 KECCAK256 SWAP1 JUMPDEST DUP2 SLOAD DUP2 MSTORE SWAP1 PUSH1 0x1 ADD SWAP1 PUSH1 0x20 ADD DUP1 DUP4 GT PUSH2 0xE73 JUMPI DUP3 SWAP1 SUB PUSH1 0x1F AND DUP3 ADD SWAP2 JUMPDEST POP POP POP POP POP SWAP1 DUP1 PUSH1 0x6 ADD DUP1 SLOAD PUSH2 0xEA5 SWAP1 PUSH2 0x252C JUMP JUMPDEST DUP1 PUSH1 0x1F ADD PUSH1 0x20 DUP1 SWAP2 DIV MUL PUSH1 0x20 ADD PUSH1 0x40 MLOAD SWAP1 DUP2 ADD PUSH1 0x40 MSTORE DUP1 SWAP3 SWAP2 SWAP1 DUP2 DUP2 MSTORE PUSH1 0x20 ADD DUP3 DUP1 SLOAD PUSH2 0xED1 SWAP1 PUSH2 0x252C JUMP JUMPDEST DUP1 ISZERO PUSH2 0xF1C JUMPI DUP1 PUSH1 0x1F LT PUSH2 0xEF3 JUMPI PUSH2 0x100 DUP1 DUP4 SLOAD DIV MUL DUP4 MSTORE SWAP2 PUSH1 0x20 ADD SWAP2 PUSH2 0xF1C JUMP JUMPDEST DUP3 ADD SWAP2 SWAP1 PUSH0 MSTORE PUSH1 0x20 PUSH0 KECCAK256 SWAP1 JUMPDEST DUP2 SLOAD DUP2 MSTORE SWAP1 PUSH1 0x1 ADD SWAP1 PUSH1 0x20 ADD DUP1 DUP4 GT PUSH2 0xEFF JUMPI DUP3 SWAP1 SUB PUSH1 0x1F AND DUP3 ADD SWAP2 JUMPDEST POP POP POP POP POP SWAP1 DUP1 PUSH1 0x7 ADD DUP1 SLOAD PUSH2 0xF31 SWAP1 PUSH2 0x252C JUMP JUMPDEST DUP1 PUSH1 0x1F ADD PUSH1 0x20 DUP1 SWAP2 DIV MUL PUSH1 0x20 ADD PUSH1 0x40 MLOAD SWAP1 DUP2 ADD PUSH1 0x40 MSTORE DUP1 SWAP3 SWAP2 SWAP1 DUP2 DUP2 MSTORE PUSH1 0x20 ADD DUP3 DUP1 SLOAD PUSH2 0xF5D SWAP1 PUSH2 0x252C JUMP JUMPDEST DUP1 ISZERO PUSH2 0xFA8 JUMPI DUP1 PUSH1 0x1F LT PUSH2 0xF7F JUMPI PUSH2 0x100 DUP1 DUP4 SLOAD DIV MUL DUP4 MSTORE SWAP2 PUSH1 0x20 ADD SWAP2 PUSH2 0xFA8 JUMP JUMPDEST DUP3 ADD SWAP2 SWAP1 PUSH0 MSTORE PUSH1 0x20 PUSH0 KECCAK256 SWAP1 JUMPDEST DUP2 SLOAD DUP2 MSTORE SWAP1 PUSH1 0x1 ADD SWAP1 PUSH1 0x20 ADD DUP1 DUP4 GT PUSH2 0xF8B JUMPI DUP3 SWAP1 SUB PUSH1 0x1F AND DUP3 ADD SWAP2 JUMPDEST POP POP POP POP POP SWAP1 DUP1 PUSH1 0x8 ADD SLOAD SWAP1 POP DUP10 JUMP JUMPDEST PUSH1 0x1 PUSH0 DUP2 SLOAD DUP1 SWAP3 SWAP2 SWAP1 PUSH2 0xFCA SWAP1 PUSH2 0x2681 JUMP JUMPDEST SWAP2 SWAP1 POP SSTORE POP PUSH1 0x40 MLOAD DUP1 PUSH2 0x120 ADD PUSH1 0x40 MSTORE DUP1 PUSH1 0x1 SLOAD DUP2 MSTORE PUSH1 0x20 ADD DUP10 DUP2 MSTORE PUSH1 0x20 ADD DUP9 DUP2 MSTORE PUSH1 0x20 ADD DUP8 DUP2 MSTORE PUSH1 0x20 ADD DUP7 DUP2 MSTORE PUSH1 0x20 ADD DUP6 DUP2 MSTORE PUSH1 0x20 ADD DUP5 DUP2 MSTORE PUSH1 0x20 ADD DUP4 DUP2 MSTORE PUSH1 0x20 ADD DUP3 DUP2 MSTORE POP PUSH0 DUP1 PUSH1 0x1 SLOAD DUP2 MSTORE PUSH1 0x20 ADD SWAP1 DUP2 MSTORE PUSH1 0x20 ADD PUSH0 KECCAK256 PUSH0 DUP3 ADD MLOAD DUP2 PUSH0 ADD SSTORE PUSH1 0x20 DUP3 ADD MLOAD DUP2 PUSH1 0x1 ADD SWAP1 DUP2 PUSH2 0x1040 SWAP2 SWAP1 PUSH2 0x2880 JUMP JUMPDEST POP PUSH1 0x40 DUP3 ADD MLOAD DUP2 PUSH1 0x2 ADD SWAP1 DUP2 PUSH2 0x1056 SWAP2 SWAP1 PUSH2 0x2880 JUMP JUMPDEST POP PUSH1 0x60 DUP3 ADD MLOAD DUP2 PUSH1 0x3 ADD SWAP1 DUP2 PUSH2 0x106C SWAP2 SWAP1 PUSH2 0x2880 JUMP JUMPDEST POP PUSH1 0x80 DUP3 ADD MLOAD DUP2 PUSH1 0x4 ADD SWAP1 DUP2 PUSH2 0x1082 SWAP2 SWAP1 PUSH2 0x2880 JUMP JUMPDEST POP PUSH1 0xA0 DUP3 ADD MLOAD DUP2 PUSH1 0x5 ADD SWAP1 DUP2 PUSH2 0x1098 SWAP2 SWAP1 PUSH2 0x2880 JUMP JUMPDEST POP PUSH1 0xC0 DUP3 ADD MLOAD DUP2 PUSH1 0x6 ADD SWAP1 DUP2 PUSH2 0x10AE SWAP2 SWAP1 PUSH2 0x2880 JUMP JUMPDEST POP PUSH1 0xE0 DUP3 ADD MLOAD DUP2 PUSH1 0x7 ADD SWAP1 DUP2 PUSH2 0x10C4 SWAP2 SWAP1 PUSH2 0x2880 JUMP JUMPDEST POP PUSH2 0x100 DUP3 ADD MLOAD DUP2 PUSH1 0x8 ADD SSTORE SWAP1 POP POP PUSH1 0x1 SLOAD PUSH32 0x7B4968F6FA44D4C825736654173422261C8568A6C3DA8A5B336270401BD3C8B DUP10 DUP10 DUP10 DUP10 DUP10 DUP10 DUP10 DUP10 PUSH1 0x40 MLOAD PUSH2 0x1113 SWAP9 SWAP8 SWAP7 SWAP6 SWAP5 SWAP4 SWAP3 SWAP2 SWAP1 PUSH2 0x294F JUMP JUMPDEST PUSH1 0x40 MLOAD DUP1 SWAP2 SUB SWAP1 LOG2 POP POP POP POP POP POP POP POP JUMP JUMPDEST PUSH1 0x60 PUSH0 PUSH1 0x1 SLOAD PUSH8 0xFFFFFFFFFFFFFFFF DUP2 GT ISZERO PUSH2 0x1144 JUMPI PUSH2 0x1143 PUSH2 0x1EC0 JUMP JUMPDEST JUMPDEST PUSH1 0x40 MLOAD SWAP1 DUP1 DUP3 MSTORE DUP1 PUSH1 0x20 MUL PUSH1 0x20 ADD DUP3 ADD PUSH1 0x40 MSTORE DUP1 ISZERO PUSH2 0x117D JUMPI DUP2 PUSH1 0x20 ADD JUMPDEST PUSH2 0x116A PUSH2 0x1C74 JUMP JUMPDEST DUP2 MSTORE PUSH1 0x20 ADD SWAP1 PUSH1 0x1 SWAP1 SUB SWAP1 DUP2 PUSH2 0x1162 JUMPI SWAP1 POP JUMPDEST POP SWAP1 POP PUSH0 PUSH1 0x1 SWAP1 POP JUMPDEST PUSH1 0x1 SLOAD DUP2 GT PUSH2 0x15EB JUMPI PUSH0 DUP1 DUP3 DUP2 MSTORE PUSH1 0x20 ADD SWAP1 DUP2 MSTORE PUSH1 0x20 ADD PUSH0 KECCAK256 PUSH1 0x40 MLOAD DUP1 PUSH2 0x120 ADD PUSH1 0x40 MSTORE SWAP1 DUP2 PUSH0 DUP3 ADD SLOAD DUP2 MSTORE PUSH1 0x20 ADD PUSH1 0x1 DUP3 ADD DUP1 SLOAD PUSH2 0x11C4 SWAP1 PUSH2 0x252C JUMP JUMPDEST DUP1 PUSH1 0x1F ADD PUSH1 0x20 DUP1 SWAP2 DIV MUL PUSH1 0x20 ADD PUSH1 0x40 MLOAD SWAP1 DUP2 ADD PUSH1 0x40 MSTORE DUP1 SWAP3 SWAP2 SWAP1 DUP2 DUP2 MSTORE PUSH1 0x20 ADD DUP3 DUP1 SLOAD PUSH2 0x11F0 SWAP1 PUSH2 0x252C JUMP JUMPDEST DUP1 ISZERO PUSH2 0x123B JUMPI DUP1 PUSH1 0x1F LT PUSH2 0x1212 JUMPI PUSH2 0x100 DUP1 DUP4 SLOAD DIV MUL DUP4 MSTORE SWAP2 PUSH1 0x20 ADD SWAP2 PUSH2 0x123B JUMP JUMPDEST DUP3 ADD SWAP2 SWAP1 PUSH0 MSTORE PUSH1 0x20 PUSH0 KECCAK256 SWAP1 JUMPDEST DUP2 SLOAD DUP2 MSTORE SWAP1 PUSH1 0x1 ADD SWAP1 PUSH1 0x20 ADD DUP1 DUP4 GT PUSH2 0x121E JUMPI DUP3 SWAP1 SUB PUSH1 0x1F AND DUP3 ADD SWAP2 JUMPDEST POP POP POP POP POP DUP2 MSTORE PUSH1 0x20 ADD PUSH1 0x2 DUP3 ADD DUP1 SLOAD PUSH2 0x1254 SWAP1 PUSH2 0x252C JUMP JUMPDEST DUP1 PUSH1 0x1F ADD PUSH1 0x20 DUP1 SWAP2 DIV MUL PUSH1 0x20 ADD PUSH1 0x40 MLOAD SWAP1 DUP2 ADD PUSH1 0x40 MSTORE DUP1 SWAP3 SWAP2 SWAP1 DUP2 DUP2 MSTORE PUSH1 0x20 ADD DUP3 DUP1 SLOAD PUSH2 0x1280 SWAP1 PUSH2 0x252C JUMP JUMPDEST DUP1 ISZERO PUSH2 0x12CB JUMPI DUP1 PUSH1 0x1F LT PUSH2 0x12A2 JUMPI PUSH2 0x100 DUP1 DUP4 SLOAD DIV MUL DUP4 MSTORE SWAP2 PUSH1 0x20 ADD SWAP2 PUSH2 0x12CB JUMP JUMPDEST DUP3 ADD SWAP2 SWAP1 PUSH0 MSTORE PUSH1 0x20 PUSH0 KECCAK256 SWAP1 JUMPDEST DUP2 SLOAD DUP2 MSTORE SWAP1 PUSH1 0x1 ADD SWAP1 PUSH1 0x20 ADD DUP1 DUP4 GT PUSH2 0x12AE JUMPI DUP3 SWAP1 SUB PUSH1 0x1F AND DUP3 ADD SWAP2 JUMPDEST POP POP POP POP POP DUP2 MSTORE PUSH1 0x20 ADD PUSH1 0x3 DUP3 ADD DUP1 SLOAD PUSH2 0x12E4 SWAP1 PUSH2 0x252C JUMP JUMPDEST DUP1 PUSH1 0x1F ADD PUSH1 0x20 DUP1 SWAP2 DIV MUL PUSH1 0x20 ADD PUSH1 0x40 MLOAD SWAP1 DUP2 ADD PUSH1 0x40 MSTORE DUP1 SWAP3 SWAP2 SWAP1 DUP2 DUP2 MSTORE PUSH1 0x20 ADD DUP3 DUP1 SLOAD PUSH2 0x1310 SWAP1 PUSH2 0x252C JUMP JUMPDEST DUP1 ISZERO PUSH2 0x135B JUMPI DUP1 PUSH1 0x1F LT PUSH2 0x1332 JUMPI PUSH2 0x100 DUP1 DUP4 SLOAD DIV MUL DUP4 MSTORE SWAP2 PUSH1 0x20 ADD SWAP2 PUSH2 0x135B JUMP JUMPDEST DUP3 ADD SWAP2 SWAP1 PUSH0 MSTORE PUSH1 0x20 PUSH0 KECCAK256 SWAP1 JUMPDEST DUP2 SLOAD DUP2 MSTORE SWAP1 PUSH1 0x1 ADD SWAP1 PUSH1 0x20 ADD DUP1 DUP4 GT PUSH2 0x133E JUMPI DUP3 SWAP1 SUB PUSH1 0x1F AND DUP3 ADD SWAP2 JUMPDEST POP POP POP POP POP DUP2 MSTORE PUSH1 0x20 ADD PUSH1 0x4 DUP3 ADD DUP1 SLOAD PUSH2 0x1374 SWAP1 PUSH2 0x252C JUMP JUMPDEST DUP1 PUSH1 0x1F ADD PUSH1 0x20 DUP1 SWAP2 DIV MUL PUSH1 0x20 ADD PUSH1 0x40 MLOAD SWAP1 DUP2 ADD PUSH1 0x40 MSTORE DUP1 SWAP3 SWAP2 SWAP1 DUP2 DUP2 MSTORE PUSH1 0x20 ADD DUP3 DUP1 SLOAD PUSH2 0x13A0 SWAP1 PUSH2 0x252C JUMP JUMPDEST DUP1 ISZERO PUSH2 0x13EB JUMPI DUP1 PUSH1 0x1F LT PUSH2 0x13C2 JUMPI PUSH2 0x100 DUP1 DUP4 SLOAD DIV MUL DUP4 MSTORE SWAP2 PUSH1 0x20 ADD SWAP2 PUSH2 0x13EB JUMP JUMPDEST DUP3 ADD SWAP2 SWAP1 PUSH0 MSTORE PUSH1 0x20 PUSH0 KECCAK256 SWAP1 JUMPDEST DUP2 SLOAD DUP2 MSTORE SWAP1 PUSH1 0x1 ADD SWAP1 PUSH1 0x20 ADD DUP1 DUP4 GT PUSH2 0x13CE JUMPI DUP3 SWAP1 SUB PUSH1 0x1F AND DUP3 ADD SWAP2 JUMPDEST POP POP POP POP POP DUP2 MSTORE PUSH1 0x20 ADD PUSH1 0x5 DUP3 ADD DUP1 SLOAD PUSH2 0x1404 SWAP1 PUSH2 0x252C JUMP JUMPDEST DUP1 PUSH1 0x1F ADD PUSH1 0x20 DUP1 SWAP2 DIV MUL PUSH1 0x20 ADD PUSH1 0x40 MLOAD SWAP1 DUP2 ADD PUSH1 0x40 MSTORE DUP1 SWAP3 SWAP2 SWAP1 DUP2 DUP2 MSTORE PUSH1 0x20 ADD DUP3 DUP1 SLOAD PUSH2 0x1430 SWAP1 PUSH2 0x252C JUMP JUMPDEST DUP1 ISZERO PUSH2 0x147B JUMPI DUP1 PUSH1 0x1F LT PUSH2 0x1452 JUMPI PUSH2 0x100 DUP1 DUP4 SLOAD DIV MUL DUP4 MSTORE SWAP2 PUSH1 0x20 ADD SWAP2 PUSH2 0x147B JUMP JUMPDEST DUP3 ADD SWAP2 SWAP1 PUSH0 MSTORE PUSH1 0x20 PUSH0 KECCAK256 SWAP1 JUMPDEST DUP2 SLOAD DUP2 MSTORE SWAP1 PUSH1 0x1 ADD SWAP1 PUSH1 0x20 ADD DUP1 DUP4 GT PUSH2 0x145E JUMPI DUP3 SWAP1 SUB PUSH1 0x1F AND DUP3 ADD SWAP2 JUMPDEST POP POP POP POP POP DUP2 MSTORE PUSH1 0x20 ADD PUSH1 0x6 DUP3 ADD DUP1 SLOAD PUSH2 0x1494 SWAP1 PUSH2 0x252C JUMP JUMPDEST DUP1 PUSH1 0x1F ADD PUSH1 0x20 DUP1 SWAP2 DIV MUL PUSH1 0x20 ADD PUSH1 0x40 MLOAD SWAP1 DUP2 ADD PUSH1 0x40 MSTORE DUP1 SWAP3 SWAP2 SWAP1 DUP2 DUP2 MSTORE PUSH1 0x20 ADD DUP3 DUP1 SLOAD PUSH2 0x14C0 SWAP1 PUSH2 0x252C JUMP JUMPDEST DUP1 ISZERO PUSH2 0x150B JUMPI DUP1 PUSH1 0x1F LT PUSH2 0x14E2 JUMPI PUSH2 0x100 DUP1 DUP4 SLOAD DIV MUL DUP4 MSTORE SWAP2 PUSH1 0x20 ADD SWAP2 PUSH2 0x150B JUMP JUMPDEST DUP3 ADD SWAP2 SWAP1 PUSH0 MSTORE PUSH1 0x20 PUSH0 KECCAK256 SWAP1 JUMPDEST DUP2 SLOAD DUP2 MSTORE SWAP1 PUSH1 0x1 ADD SWAP1 PUSH1 0x20 ADD DUP1 DUP4 GT PUSH2 0x14EE JUMPI DUP3 SWAP1 SUB PUSH1 0x1F AND DUP3 ADD SWAP2 JUMPDEST POP POP POP POP POP DUP2 MSTORE PUSH1 0x20 ADD PUSH1 0x7 DUP3 ADD DUP1 SLOAD PUSH2 0x1524 SWAP1 PUSH2 0x252C JUMP JUMPDEST DUP1 PUSH1 0x1F ADD PUSH1 0x20 DUP1 SWAP2 DIV MUL PUSH1 0x20 ADD PUSH1 0x40 MLOAD SWAP1 DUP2 ADD PUSH1 0x40 MSTORE DUP1 SWAP3 SWAP2 SWAP1 DUP2 DUP2 MSTORE PUSH1 0x20 ADD DUP3 DUP1 SLOAD PUSH2 0x1550 SWAP1 PUSH2 0x252C JUMP JUMPDEST DUP1 ISZERO PUSH2 0x159B JUMPI DUP1 PUSH1 0x1F LT PUSH2 0x1572 JUMPI PUSH2 0x100 DUP1 DUP4 SLOAD DIV MUL DUP4 MSTORE SWAP2 PUSH1 0x20 ADD SWAP2 PUSH2 0x159B JUMP JUMPDEST DUP3 ADD SWAP2 SWAP1 PUSH0 MSTORE PUSH1 0x20 PUSH0 KECCAK256 SWAP1 JUMPDEST DUP2 SLOAD DUP2 MSTORE SWAP1 PUSH1 0x1 ADD SWAP1 PUSH1 0x20 ADD DUP1 DUP4 GT PUSH2 0x157E JUMPI DUP3 SWAP1 SUB PUSH1 0x1F AND DUP3 ADD SWAP2 JUMPDEST POP POP POP POP POP DUP2 MSTORE PUSH1 0x20 ADD PUSH1 0x8 DUP3 ADD SLOAD DUP2 MSTORE POP POP DUP3 PUSH1 0x1 DUP4 PUSH2 0x15BC SWAP2 SWAP1 PUSH2 0x29FC JUMP JUMPDEST DUP2 MLOAD DUP2 LT PUSH2 0x15CD JUMPI PUSH2 0x15CC PUSH2 0x26C8 JUMP JUMPDEST JUMPDEST PUSH1 0x20 MUL PUSH1 0x20 ADD ADD DUP2 SWAP1 MSTORE POP DUP1 DUP1 PUSH2 0x15E3 SWAP1 PUSH2 0x2681 JUMP JUMPDEST SWAP2 POP POP PUSH2 0x1186 JUMP JUMPDEST POP DUP1 SWAP2 POP POP SWAP1 JUMP JUMPDEST PUSH1 0x1 SLOAD DUP2 JUMP JUMPDEST PUSH1 0x1 SLOAD DUP4 GT ISZERO PUSH2 0x163E JUMPI PUSH1 0x40 MLOAD PUSH32 0x8C379A000000000000000000000000000000000000000000000000000000000 DUP2 MSTORE PUSH1 0x4 ADD PUSH2 0x1635 SWAP1 PUSH2 0x2A79 JUMP JUMPDEST PUSH1 0x40 MLOAD DUP1 SWAP2 SUB SWAP1 REVERT JUMPDEST PUSH0 DUP1 PUSH0 DUP6 DUP2 MSTORE PUSH1 0x20 ADD SWAP1 DUP2 MSTORE PUSH1 0x20 ADD PUSH0 KECCAK256 SWAP1 POP DUP3 DUP2 PUSH1 0x7 ADD SWAP1 DUP2 PUSH2 0x1662 SWAP2 SWAP1 PUSH2 0x2880 JUMP JUMPDEST POP DUP4 PUSH32 0xCBC92FE73220C7CC1450FF1070F1BECF254013A1CD6A9D95A4B7C2055B3E9AC9 DUP5 DUP5 PUSH1 0x40 MLOAD PUSH2 0x1695 SWAP3 SWAP2 SWAP1 PUSH2 0x2A97 JUMP JUMPDEST PUSH1 0x40 MLOAD DUP1 SWAP2 SUB SWAP1 LOG2 POP POP POP POP JUMP JUMPDEST PUSH1 0x60 PUSH0 DUP1 PUSH1 0x1 SWAP1 POP JUMPDEST PUSH1 0x1 SLOAD DUP2 GT PUSH2 0x173C JUMPI DUP4 PUSH1 0x40 MLOAD PUSH1 0x20 ADD PUSH2 0x16C6 SWAP2 SWAP1 PUSH2 0x2596 JUMP JUMPDEST PUSH1 0x40 MLOAD PUSH1 0x20 DUP2 DUP4 SUB SUB DUP2 MSTORE SWAP1 PUSH1 0x40 MSTORE DUP1 MLOAD SWAP1 PUSH1 0x20 ADD KECCAK256 PUSH0 DUP1 DUP4 DUP2 MSTORE PUSH1 0x20 ADD SWAP1 DUP2 MSTORE PUSH1 0x20 ADD PUSH0 KECCAK256 PUSH1 0x3 ADD PUSH1 0x40 MLOAD PUSH1 0x20 ADD PUSH2 0x16FF SWAP2 SWAP1 PUSH2 0x263E JUMP JUMPDEST PUSH1 0x40 MLOAD PUSH1 0x20 DUP2 DUP4 SUB SUB DUP2 MSTORE SWAP1 PUSH1 0x40 MSTORE DUP1 MLOAD SWAP1 PUSH1 0x20 ADD KECCAK256 SUB PUSH2 0x1729 JUMPI DUP2 DUP1 PUSH2 0x1725 SWAP1 PUSH2 0x2681 JUMP JUMPDEST SWAP3 POP POP JUMPDEST DUP1 DUP1 PUSH2 0x1734 SWAP1 PUSH2 0x2681 JUMP JUMPDEST SWAP2 POP POP PUSH2 0x16AC JUMP JUMPDEST POP PUSH0 DUP2 PUSH8 0xFFFFFFFFFFFFFFFF DUP2 GT ISZERO PUSH2 0x1758 JUMPI PUSH2 0x1757 PUSH2 0x1EC0 JUMP JUMPDEST JUMPDEST PUSH1 0x40 MLOAD SWAP1 DUP1 DUP3 MSTORE DUP1 PUSH1 0x20 MUL PUSH1 0x20 ADD DUP3 ADD PUSH1 0x40 MSTORE DUP1 ISZERO PUSH2 0x1791 JUMPI DUP2 PUSH1 0x20 ADD JUMPDEST PUSH2 0x177E PUSH2 0x1C74 JUMP JUMPDEST DUP2 MSTORE PUSH1 0x20 ADD SWAP1 PUSH1 0x1 SWAP1 SUB SWAP1 DUP2 PUSH2 0x1776 JUMPI SWAP1 POP JUMPDEST POP SWAP1 POP PUSH0 DUP1 PUSH1 0x1 SWAP1 POP JUMPDEST PUSH1 0x1 SLOAD DUP2 GT PUSH2 0x1C68 JUMPI DUP6 PUSH1 0x40 MLOAD PUSH1 0x20 ADD PUSH2 0x17B5 SWAP2 SWAP1 PUSH2 0x2596 JUMP JUMPDEST PUSH1 0x40 MLOAD PUSH1 0x20 DUP2 DUP4 SUB SUB DUP2 MSTORE SWAP1 PUSH1 0x40 MSTORE DUP1 MLOAD SWAP1 PUSH1 0x20 ADD KECCAK256 PUSH0 DUP1 DUP4 DUP2 MSTORE PUSH1 0x20 ADD SWAP1 DUP2 MSTORE PUSH1 0x20 ADD PUSH0 KECCAK256 PUSH1 0x3 ADD PUSH1 0x40 MLOAD PUSH1 0x20 ADD PUSH2 0x17EE SWAP2 SWAP1 PUSH2 0x263E JUMP JUMPDEST PUSH1 0x40 MLOAD PUSH1 0x20 DUP2 DUP4 SUB SUB DUP2 MSTORE SWAP1 PUSH1 0x40 MSTORE DUP1 MLOAD SWAP1 PUSH1 0x20 ADD KECCAK256 SUB PUSH2 0x1C55 JUMPI PUSH0 DUP1 DUP3 DUP2 MSTORE PUSH1 0x20 ADD SWAP1 DUP2 MSTORE PUSH1 0x20 ADD PUSH0 KECCAK256 PUSH1 0x40 MLOAD DUP1 PUSH2 0x120 ADD PUSH1 0x40 MSTORE SWAP1 DUP2 PUSH0 DUP3 ADD SLOAD DUP2 MSTORE PUSH1 0x20 ADD PUSH1 0x1 DUP3 ADD DUP1 SLOAD PUSH2 0x183E SWAP1 PUSH2 0x252C JUMP JUMPDEST DUP1 PUSH1 0x1F ADD PUSH1 0x20 DUP1 SWAP2 DIV MUL PUSH1 0x20 ADD PUSH1 0x40 MLOAD SWAP1 DUP2 ADD PUSH1 0x40 MSTORE DUP1 SWAP3 SWAP2 SWAP1 DUP2 DUP2 MSTORE PUSH1 0x20 ADD DUP3 DUP1 SLOAD PUSH2 0x186A SWAP1 PUSH2 0x252C JUMP JUMPDEST DUP1 ISZERO PUSH2 0x18B5 JUMPI DUP1 PUSH1 0x1F LT PUSH2 0x188C JUMPI PUSH2 0x100 DUP1 DUP4 SLOAD DIV MUL DUP4 MSTORE SWAP2 PUSH1 0x20 ADD SWAP2 PUSH2 0x18B5 JUMP JUMPDEST DUP3 ADD SWAP2 SWAP1 PUSH0 MSTORE PUSH1 0x20 PUSH0 KECCAK256 SWAP1 JUMPDEST DUP2 SLOAD DUP2 MSTORE SWAP1 PUSH1 0x1 ADD SWAP1 PUSH1 0x20 ADD DUP1 DUP4 GT PUSH2 0x1898 JUMPI DUP3 SWAP1 SUB PUSH1 0x1F AND DUP3 ADD SWAP2 JUMPDEST POP POP POP POP POP DUP2 MSTORE PUSH1 0x20 ADD PUSH1 0x2 DUP3 ADD DUP1 SLOAD PUSH2 0x18CE SWAP1 PUSH2 0x252C JUMP JUMPDEST DUP1 PUSH1 0x1F ADD PUSH1 0x20 DUP1 SWAP2 DIV MUL PUSH1 0x20 ADD PUSH1 0x40 MLOAD SWAP1 DUP2 ADD PUSH1 0x40 MSTORE DUP1 SWAP3 SWAP2 SWAP1 DUP2 DUP2 MSTORE PUSH1 0x20 ADD DUP3 DUP1 SLOAD PUSH2 0x18FA SWAP1 PUSH2 0x252C JUMP JUMPDEST DUP1 ISZERO PUSH2 0x1945 JUMPI DUP1 PUSH1 0x1F LT PUSH2 0x191C JUMPI PUSH2 0x100 DUP1 DUP4 SLOAD DIV MUL DUP4 MSTORE SWAP2 PUSH1 0x20 ADD SWAP2 PUSH2 0x1945 JUMP JUMPDEST DUP3 ADD SWAP2 SWAP1 PUSH0 MSTORE PUSH1 0x20 PUSH0 KECCAK256 SWAP1 JUMPDEST DUP2 SLOAD DUP2 MSTORE SWAP1 PUSH1 0x1 ADD SWAP1 PUSH1 0x20 ADD DUP1 DUP4 GT PUSH2 0x1928 JUMPI DUP3 SWAP1 SUB PUSH1 0x1F AND DUP3 ADD SWAP2 JUMPDEST POP POP POP POP POP DUP2 MSTORE PUSH1 0x20 ADD PUSH1 0x3 DUP3 ADD DUP1 SLOAD PUSH2 0x195E SWAP1 PUSH2 0x252C JUMP JUMPDEST DUP1 PUSH1 0x1F ADD PUSH1 0x20 DUP1 SWAP2 DIV MUL PUSH1 0x20 ADD PUSH1 0x40 MLOAD SWAP1 DUP2 ADD PUSH1 0x40 MSTORE DUP1 SWAP3 SWAP2 SWAP1 DUP2 DUP2 MSTORE PUSH1 0x20 ADD DUP3 DUP1 SLOAD PUSH2 0x198A SWAP1 PUSH2 0x252C JUMP JUMPDEST DUP1 ISZERO PUSH2 0x19D5 JUMPI DUP1 PUSH1 0x1F LT PUSH2 0x19AC JUMPI PUSH2 0x100 DUP1 DUP4 SLOAD DIV MUL DUP4 MSTORE SWAP2 PUSH1 0x20 ADD SWAP2 PUSH2 0x19D5 JUMP JUMPDEST DUP3 ADD SWAP2 SWAP1 PUSH0 MSTORE PUSH1 0x20 PUSH0 KECCAK256 SWAP1 JUMPDEST DUP2 SLOAD DUP2 MSTORE SWAP1 PUSH1 0x1 ADD SWAP1 PUSH1 0x20 ADD DUP1 DUP4 GT PUSH2 0x19B8 JUMPI DUP3 SWAP1 SUB PUSH1 0x1F AND DUP3 ADD SWAP2 JUMPDEST POP POP POP POP POP DUP2 MSTORE PUSH1 0x20 ADD PUSH1 0x4 DUP3 ADD DUP1 SLOAD PUSH2 0x19EE SWAP1 PUSH2 0x252C JUMP JUMPDEST DUP1 PUSH1 0x1F ADD PUSH1 0x20 DUP1 SWAP2 DIV MUL PUSH1 0x20 ADD PUSH1 0x40 MLOAD SWAP1 DUP2 ADD PUSH1 0x40 MSTORE DUP1 SWAP3 SWAP2 SWAP1 DUP2 DUP2 MSTORE PUSH1 0x20 ADD DUP3 DUP1 SLOAD PUSH2 0x1A1A SWAP1 PUSH2 0x252C JUMP JUMPDEST DUP1 ISZERO PUSH2 0x1A65 JUMPI DUP1 PUSH1 0x1F LT PUSH2 0x1A3C JUMPI PUSH2 0x100 DUP1 DUP4 SLOAD DIV MUL DUP4 MSTORE SWAP2 PUSH1 0x20 ADD SWAP2 PUSH2 0x1A65 JUMP JUMPDEST DUP3 ADD SWAP2 SWAP1 PUSH0 MSTORE PUSH1 0x20 PUSH0 KECCAK256 SWAP1 JUMPDEST DUP2 SLOAD DUP2 MSTORE SWAP1 PUSH1 0x1 ADD SWAP1 PUSH1 0x20 ADD DUP1 DUP4 GT PUSH2 0x1A48 JUMPI DUP3 SWAP1 SUB PUSH1 0x1F AND DUP3 ADD SWAP2 JUMPDEST POP POP POP POP POP DUP2 MSTORE PUSH1 0x20 ADD PUSH1 0x5 DUP3 ADD DUP1 SLOAD PUSH2 0x1A7E SWAP1 PUSH2 0x252C JUMP JUMPDEST DUP1 PUSH1 0x1F ADD PUSH1 0x20 DUP1 SWAP2 DIV MUL PUSH1 0x20 ADD PUSH1 0x40 MLOAD SWAP1 DUP2 ADD PUSH1 0x40 MSTORE DUP1 SWAP3 SWAP2 SWAP1 DUP2 DUP2 MSTORE PUSH1 0x20 ADD DUP3 DUP1 SLOAD PUSH2 0x1AAA SWAP1 PUSH2 0x252C JUMP JUMPDEST DUP1 ISZERO PUSH2 0x1AF5 JUMPI DUP1 PUSH1 0x1F LT PUSH2 0x1ACC JUMPI PUSH2 0x100 DUP1 DUP4 SLOAD DIV MUL DUP4 MSTORE SWAP2 PUSH1 0x20 ADD SWAP2 PUSH2 0x1AF5 JUMP JUMPDEST DUP3 ADD SWAP2 SWAP1 PUSH0 MSTORE PUSH1 0x20 PUSH0 KECCAK256 SWAP1 JUMPDEST DUP2 SLOAD DUP2 MSTORE SWAP1 PUSH1 0x1 ADD SWAP1 PUSH1 0x20 ADD DUP1 DUP4 GT PUSH2 0x1AD8 JUMPI DUP3 SWAP1 SUB PUSH1 0x1F AND DUP3 ADD SWAP2 JUMPDEST POP POP POP POP POP DUP2 MSTORE PUSH1 0x20 ADD PUSH1 0x6 DUP3 ADD DUP1 SLOAD PUSH2 0x1B0E SWAP1 PUSH2 0x252C JUMP JUMPDEST DUP1 PUSH1 0x1F ADD PUSH1 0x20 DUP1 SWAP2 DIV MUL PUSH1 0x20 ADD PUSH1 0x40 MLOAD SWAP1 DUP2 ADD PUSH1 0x40 MSTORE DUP1 SWAP3 SWAP2 SWAP1 DUP2 DUP2 MSTORE PUSH1 0x20 ADD DUP3 DUP1 SLOAD PUSH2 0x1B3A SWAP1 PUSH2 0x252C JUMP JUMPDEST DUP1 ISZERO PUSH2 0x1B85 JUMPI DUP1 PUSH1 0x1F LT PUSH2 0x1B5C JUMPI PUSH2 0x100 DUP1 DUP4 SLOAD DIV MUL DUP4 MSTORE SWAP2 PUSH1 0x20 ADD SWAP2 PUSH2 0x1B85 JUMP JUMPDEST DUP3 ADD SWAP2 SWAP1 PUSH0 MSTORE PUSH1 0x20 PUSH0 KECCAK256 SWAP1 JUMPDEST DUP2 SLOAD DUP2 MSTORE SWAP1 PUSH1 0x1 ADD SWAP1 PUSH1 0x20 ADD DUP1 DUP4 GT PUSH2 0x1B68 JUMPI DUP3 SWAP1 SUB PUSH1 0x1F AND DUP3 ADD SWAP2 JUMPDEST POP POP POP POP POP DUP2 MSTORE PUSH1 0x20 ADD PUSH1 0x7 DUP3 ADD DUP1 SLOAD PUSH2 0x1B9E SWAP1 PUSH2 0x252C JUMP JUMPDEST DUP1 PUSH1 0x1F ADD PUSH1 0x20 DUP1 SWAP2 DIV MUL PUSH1 0x20 ADD PUSH1 0x40 MLOAD SWAP1 DUP2 ADD PUSH1 0x40 MSTORE DUP1 SWAP3 SWAP2 SWAP1 DUP2 DUP2 MSTORE PUSH1 0x20 ADD DUP3 DUP1 SLOAD PUSH2 0x1BCA SWAP1 PUSH2 0x252C JUMP JUMPDEST DUP1 ISZERO PUSH2 0x1C15 JUMPI DUP1 PUSH1 0x1F LT PUSH2 0x1BEC JUMPI PUSH2 0x100 DUP1 DUP4 SLOAD DIV MUL DUP4 MSTORE SWAP2 PUSH1 0x20 ADD SWAP2 PUSH2 0x1C15 JUMP JUMPDEST DUP3 ADD SWAP2 SWAP1 PUSH0 MSTORE PUSH1 0x20 PUSH0 KECCAK256 SWAP1 JUMPDEST DUP2 SLOAD DUP2 MSTORE SWAP1 PUSH1 0x1 ADD SWAP1 PUSH1 0x20 ADD DUP1 DUP4 GT PUSH2 0x1BF8 JUMPI DUP3 SWAP1 SUB PUSH1 0x1F AND DUP3 ADD SWAP2 JUMPDEST POP POP POP POP POP DUP2 MSTORE PUSH1 0x20 ADD PUSH1 0x8 DUP3 ADD SLOAD DUP2 MSTORE POP POP DUP4 DUP4 DUP2 MLOAD DUP2 LT PUSH2 0x1C3B JUMPI PUSH2 0x1C3A PUSH2 0x26C8 JUMP JUMPDEST JUMPDEST PUSH1 0x20 MUL PUSH1 0x20 ADD ADD DUP2 SWAP1 MSTORE POP DUP2 DUP1 PUSH2 0x1C51 SWAP1 PUSH2 0x2681 JUMP JUMPDEST SWAP3 POP POP JUMPDEST DUP1 DUP1 PUSH2 0x1C60 SWAP1 PUSH2 0x2681 JUMP JUMPDEST SWAP2 POP POP PUSH2 0x179B JUMP JUMPDEST POP DUP2 SWAP4 POP POP POP POP SWAP2 SWAP1 POP JUMP JUMPDEST PUSH1 0x40 MLOAD DUP1 PUSH2 0x120 ADD PUSH1 0x40 MSTORE DUP1 PUSH0 DUP2 MSTORE PUSH1 0x20 ADD PUSH1 0x60 DUP2 MSTORE PUSH1 0x20 ADD PUSH1 0x60 DUP2 MSTORE PUSH1 0x20 ADD PUSH1 0x60 DUP2 MSTORE PUSH1 0x20 ADD PUSH1 0x60 DUP2 MSTORE PUSH1 0x20 ADD PUSH1 0x60 DUP2 MSTORE PUSH1 0x20 ADD PUSH1 0x60 DUP2 MSTORE PUSH1 0x20 ADD PUSH1 0x60 DUP2 MSTORE PUSH1 0x20 ADD PUSH0 DUP2 MSTORE POP SWAP1 JUMP JUMPDEST PUSH0 PUSH1 0x40 MLOAD SWAP1 POP SWAP1 JUMP JUMPDEST PUSH0 DUP1 REVERT JUMPDEST PUSH0 DUP1 REVERT JUMPDEST PUSH0 DUP2 SWAP1 POP SWAP2 SWAP1 POP JUMP JUMPDEST PUSH2 0x1CE1 DUP2 PUSH2 0x1CCF JUMP JUMPDEST DUP2 EQ PUSH2 0x1CEB JUMPI PUSH0 DUP1 REVERT JUMPDEST POP JUMP JUMPDEST PUSH0 DUP2 CALLDATALOAD SWAP1 POP PUSH2 0x1CFC DUP2 PUSH2 0x1CD8 JUMP JUMPDEST SWAP3 SWAP2 POP POP JUMP JUMPDEST PUSH0 PUSH1 0x20 DUP3 DUP5 SUB SLT ISZERO PUSH2 0x1D17 JUMPI PUSH2 0x1D16 PUSH2 0x1CC7 JUMP JUMPDEST JUMPDEST PUSH0 PUSH2 0x1D24 DUP5 DUP3 DUP6 ADD PUSH2 0x1CEE JUMP JUMPDEST SWAP2 POP POP SWAP3 SWAP2 POP POP JUMP JUMPDEST PUSH2 0x1D36 DUP2 PUSH2 0x1CCF JUMP JUMPDEST DUP3 MSTORE POP POP JUMP JUMPDEST PUSH0 DUP2 MLOAD SWAP1 POP SWAP2 SWAP1 POP JUMP JUMPDEST PUSH0 DUP3 DUP3 MSTORE PUSH1 0x20 DUP3 ADD SWAP1 POP SWAP3 SWAP2 POP POP JUMP JUMPDEST DUP3 DUP2 DUP4 MCOPY PUSH0 DUP4 DUP4 ADD MSTORE POP POP POP JUMP JUMPDEST PUSH0 PUSH1 0x1F NOT PUSH1 0x1F DUP4 ADD AND SWAP1 POP SWAP2 SWAP1 POP JUMP JUMPDEST PUSH0 PUSH2 0x1D7E DUP3 PUSH2 0x1D3C JUMP JUMPDEST PUSH2 0x1D88 DUP2 DUP6 PUSH2 0x1D46 JUMP JUMPDEST SWAP4 POP PUSH2 0x1D98 DUP2 DUP6 PUSH1 0x20 DUP7 ADD PUSH2 0x1D56 JUMP JUMPDEST PUSH2 0x1DA1 DUP2 PUSH2 0x1D64 JUMP JUMPDEST DUP5 ADD SWAP2 POP POP SWAP3 SWAP2 POP POP JUMP JUMPDEST PUSH0 PUSH2 0x120 DUP4 ADD PUSH0 DUP4 ADD MLOAD PUSH2 0x1DC2 PUSH0 DUP7 ADD DUP3 PUSH2 0x1D2D JUMP JUMPDEST POP PUSH1 0x20 DUP4 ADD MLOAD DUP5 DUP3 SUB PUSH1 0x20 DUP7 ADD MSTORE PUSH2 0x1DDA DUP3 DUP3 PUSH2 0x1D74 JUMP JUMPDEST SWAP2 POP POP PUSH1 0x40 DUP4 ADD MLOAD DUP5 DUP3 SUB PUSH1 0x40 DUP7 ADD MSTORE PUSH2 0x1DF4 DUP3 DUP3 PUSH2 0x1D74 JUMP JUMPDEST SWAP2 POP POP PUSH1 0x60 DUP4 ADD MLOAD DUP5 DUP3 SUB PUSH1 0x60 DUP7 ADD MSTORE PUSH2 0x1E0E DUP3 DUP3 PUSH2 0x1D74 JUMP JUMPDEST SWAP2 POP POP PUSH1 0x80 DUP4 ADD MLOAD DUP5 DUP3 SUB PUSH1 0x80 DUP7 ADD MSTORE PUSH2 0x1E28 DUP3 DUP3 PUSH2 0x1D74 JUMP JUMPDEST SWAP2 POP POP PUSH1 0xA0 DUP4 ADD MLOAD DUP5 DUP3 SUB PUSH1 0xA0 DUP7 ADD MSTORE PUSH2 0x1E42 DUP3 DUP3 PUSH2 0x1D74 JUMP JUMPDEST SWAP2 POP POP PUSH1 0xC0 DUP4 ADD MLOAD DUP5 DUP3 SUB PUSH1 0xC0 DUP7 ADD MSTORE PUSH2 0x1E5C DUP3 DUP3 PUSH2 0x1D74 JUMP JUMPDEST SWAP2 POP POP PUSH1 0xE0 DUP4 ADD MLOAD DUP5 DUP3 SUB PUSH1 0xE0 DUP7 ADD MSTORE PUSH2 0x1E76 DUP3 DUP3 PUSH2 0x1D74 JUMP JUMPDEST SWAP2 POP POP PUSH2 0x100 DUP4 ADD MLOAD PUSH2 0x1E8D PUSH2 0x100 DUP7 ADD DUP3 PUSH2 0x1D2D JUMP JUMPDEST POP DUP1 SWAP2 POP POP SWAP3 SWAP2 POP POP JUMP JUMPDEST PUSH0 PUSH1 0x20 DUP3 ADD SWAP1 POP DUP2 DUP2 SUB PUSH0 DUP4 ADD MSTORE PUSH2 0x1EB0 DUP2 DUP5 PUSH2 0x1DAC JUMP JUMPDEST SWAP1 POP SWAP3 SWAP2 POP POP JUMP JUMPDEST PUSH0 DUP1 REVERT JUMPDEST PUSH0 DUP1 REVERT JUMPDEST PUSH32 0x4E487B7100000000000000000000000000000000000000000000000000000000 PUSH0 MSTORE PUSH1 0x41 PUSH1 0x4 MSTORE PUSH1 0x24 PUSH0 REVERT JUMPDEST PUSH2 0x1EF6 DUP3 PUSH2 0x1D64 JUMP JUMPDEST DUP2 ADD DUP2 DUP2 LT PUSH8 0xFFFFFFFFFFFFFFFF DUP3 GT OR ISZERO PUSH2 0x1F15 JUMPI PUSH2 0x1F14 PUSH2 0x1EC0 JUMP JUMPDEST JUMPDEST DUP1 PUSH1 0x40 MSTORE POP POP POP JUMP JUMPDEST PUSH0 PUSH2 0x1F27 PUSH2 0x1CBE JUMP JUMPDEST SWAP1 POP PUSH2 0x1F33 DUP3 DUP3 PUSH2 0x1EED JUMP JUMPDEST SWAP2 SWAP1 POP JUMP JUMPDEST PUSH0 PUSH8 0xFFFFFFFFFFFFFFFF DUP3 GT ISZERO PUSH2 0x1F52 JUMPI PUSH2 0x1F51 PUSH2 0x1EC0 JUMP JUMPDEST JUMPDEST PUSH2 0x1F5B DUP3 PUSH2 0x1D64 JUMP JUMPDEST SWAP1 POP PUSH1 0x20 DUP2 ADD SWAP1 POP SWAP2 SWAP1 POP JUMP JUMPDEST DUP3 DUP2 DUP4 CALLDATACOPY PUSH0 DUP4 DUP4 ADD MSTORE POP POP POP JUMP JUMPDEST PUSH0 PUSH2 0x1F88 PUSH2 0x1F83 DUP5 PUSH2 0x1F38 JUMP JUMPDEST PUSH2 0x1F1E JUMP JUMPDEST SWAP1 POP DUP3 DUP2 MSTORE PUSH1 0x20 DUP2 ADD DUP5 DUP5 DUP5 ADD GT ISZERO PUSH2 0x1FA4 JUMPI PUSH2 0x1FA3 PUSH2 0x1EBC JUMP JUMPDEST JUMPDEST PUSH2 0x1FAF DUP5 DUP3 DUP6 PUSH2 0x1F68 JUMP JUMPDEST POP SWAP4 SWAP3 POP POP POP JUMP JUMPDEST PUSH0 DUP3 PUSH1 0x1F DUP4 ADD SLT PUSH2 0x1FCB JUMPI PUSH2 0x1FCA PUSH2 0x1EB8 JUMP JUMPDEST JUMPDEST DUP2 CALLDATALOAD PUSH2 0x1FDB DUP5 DUP3 PUSH1 0x20 DUP7 ADD PUSH2 0x1F76 JUMP JUMPDEST SWAP2 POP POP SWAP3 SWAP2 POP POP JUMP JUMPDEST PUSH0 PUSH1 0x20 DUP3 DUP5 SUB SLT ISZERO PUSH2 0x1FF9 JUMPI PUSH2 0x1FF8 PUSH2 0x1CC7 JUMP JUMPDEST JUMPDEST PUSH0 DUP3 ADD CALLDATALOAD PUSH8 0xFFFFFFFFFFFFFFFF DUP2 GT ISZERO PUSH2 0x2016 JUMPI PUSH2 0x2015 PUSH2 0x1CCB JUMP JUMPDEST JUMPDEST PUSH2 0x2022 DUP5 DUP3 DUP6 ADD PUSH2 0x1FB7 JUMP JUMPDEST SWAP2 POP POP SWAP3 SWAP2 POP POP JUMP JUMPDEST PUSH0 DUP2 MLOAD SWAP1 POP SWAP2 SWAP1 POP JUMP JUMPDEST PUSH0 DUP3 DUP3 MSTORE PUSH1 0x20 DUP3 ADD SWAP1 POP SWAP3 SWAP2 POP POP JUMP JUMPDEST PUSH0 DUP2 SWAP1 POP PUSH1 0x20 DUP3 ADD SWAP1 POP SWAP2 SWAP1 POP JUMP JUMPDEST PUSH0 PUSH2 0x120 DUP4 ADD PUSH0 DUP4 ADD MLOAD PUSH2 0x206A PUSH0 DUP7 ADD DUP3 PUSH2 0x1D2D JUMP JUMPDEST POP PUSH1 0x20 DUP4 ADD MLOAD DUP5 DUP3 SUB PUSH1 0x20 DUP7 ADD MSTORE PUSH2 0x2082 DUP3 DUP3 PUSH2 0x1D74 JUMP JUMPDEST SWAP2 POP POP PUSH1 0x40 DUP4 ADD MLOAD DUP5 DUP3 SUB PUSH1 0x40 DUP7 ADD MSTORE PUSH2 0x209C DUP3 DUP3 PUSH2 0x1D74 JUMP JUMPDEST SWAP2 POP POP PUSH1 0x60 DUP4 ADD MLOAD DUP5 DUP3 SUB PUSH1 0x60 DUP7 ADD MSTORE PUSH2 0x20B6 DUP3 DUP3 PUSH2 0x1D74 JUMP JUMPDEST SWAP2 POP POP PUSH1 0x80 DUP4 ADD MLOAD DUP5 DUP3 SUB PUSH1 0x80 DUP7 ADD MSTORE PUSH2 0x20D0 DUP3 DUP3 PUSH2 0x1D74 JUMP JUMPDEST SWAP2 POP POP PUSH1 0xA0 DUP4 ADD MLOAD DUP5 DUP3 SUB PUSH1 0xA0 DUP7 ADD MSTORE PUSH2 0x20EA DUP3 DUP3 PUSH2 0x1D74 JUMP JUMPDEST SWAP2 POP POP PUSH1 0xC0 DUP4 ADD MLOAD DUP5 DUP3 SUB PUSH1 0xC0 DUP7 ADD MSTORE PUSH2 0x2104 DUP3 DUP3 PUSH2 0x1D74 JUMP JUMPDEST SWAP2 POP POP PUSH1 0xE0 DUP4 ADD MLOAD DUP5 DUP3 SUB PUSH1 0xE0 DUP7 ADD MSTORE PUSH2 0x211E DUP3 DUP3 PUSH2 0x1D74 JUMP JUMPDEST SWAP2 POP POP PUSH2 0x100 DUP4 ADD MLOAD PUSH2 0x2135 PUSH2 0x100 DUP7 ADD DUP3 PUSH2 0x1D2D JUMP JUMPDEST POP DUP1 SWAP2 POP POP SWAP3 SWAP2 POP POP JUMP JUMPDEST PUSH0 PUSH2 0x214B DUP4 DUP4 PUSH2 0x2054 JUMP JUMPDEST SWAP1 POP SWAP3 SWAP2 POP POP JUMP JUMPDEST PUSH0 PUSH1 0x20 DUP3 ADD SWAP1 POP SWAP2 SWAP1 POP JUMP JUMPDEST PUSH0 PUSH2 0x2169 DUP3 PUSH2 0x202B JUMP JUMPDEST PUSH2 0x2173 DUP2 DUP6 PUSH2 0x2035 JUMP JUMPDEST SWAP4 POP DUP4 PUSH1 0x20 DUP3 MUL DUP6 ADD PUSH2 0x2185 DUP6 PUSH2 0x2045 JUMP JUMPDEST DUP1 PUSH0 JUMPDEST DUP6 DUP2 LT ISZERO PUSH2 0x21C0 JUMPI DUP5 DUP5 SUB DUP10 MSTORE DUP2 MLOAD PUSH2 0x21A1 DUP6 DUP3 PUSH2 0x2140 JUMP JUMPDEST SWAP5 POP PUSH2 0x21AC DUP4 PUSH2 0x2153 JUMP JUMPDEST SWAP3 POP PUSH1 0x20 DUP11 ADD SWAP10 POP POP PUSH1 0x1 DUP2 ADD SWAP1 POP PUSH2 0x2188 JUMP JUMPDEST POP DUP3 SWAP8 POP DUP8 SWAP6 POP POP POP POP POP POP SWAP3 SWAP2 POP POP JUMP JUMPDEST PUSH0 PUSH1 0x20 DUP3 ADD SWAP1 POP DUP2 DUP2 SUB PUSH0 DUP4 ADD MSTORE PUSH2 0x21EA DUP2 DUP5 PUSH2 0x215F JUMP JUMPDEST SWAP1 POP SWAP3 SWAP2 POP POP JUMP JUMPDEST PUSH2 0x21FB DUP2 PUSH2 0x1CCF JUMP JUMPDEST DUP3 MSTORE POP POP JUMP JUMPDEST PUSH0 DUP3 DUP3 MSTORE PUSH1 0x20 DUP3 ADD SWAP1 POP SWAP3 SWAP2 POP POP JUMP JUMPDEST PUSH0 PUSH2 0x221B DUP3 PUSH2 0x1D3C JUMP JUMPDEST PUSH2 0x2225 DUP2 DUP6 PUSH2 0x2201 JUMP JUMPDEST SWAP4 POP PUSH2 0x2235 DUP2 DUP6 PUSH1 0x20 DUP7 ADD PUSH2 0x1D56 JUMP JUMPDEST PUSH2 0x223E DUP2 PUSH2 0x1D64 JUMP JUMPDEST DUP5 ADD SWAP2 POP POP SWAP3 SWAP2 POP POP JUMP JUMPDEST PUSH0 PUSH2 0x120 DUP3 ADD SWAP1 POP PUSH2 0x225D PUSH0 DUP4 ADD DUP13 PUSH2 0x21F2 JUMP JUMPDEST DUP2 DUP2 SUB PUSH1 0x20 DUP4 ADD MSTORE PUSH2 0x226F DUP2 DUP12 PUSH2 0x2211 JUMP JUMPDEST SWAP1 POP DUP2 DUP2 SUB PUSH1 0x40 DUP4 ADD MSTORE PUSH2 0x2283 DUP2 DUP11 PUSH2 0x2211 JUMP JUMPDEST SWAP1 POP DUP2 DUP2 SUB PUSH1 0x60 DUP4 ADD MSTORE PUSH2 0x2297 DUP2 DUP10 PUSH2 0x2211 JUMP JUMPDEST SWAP1 POP DUP2 DUP2 SUB PUSH1 0x80 DUP4 ADD MSTORE PUSH2 0x22AB DUP2 DUP9 PUSH2 0x2211 JUMP JUMPDEST SWAP1 POP DUP2 DUP2 SUB PUSH1 0xA0 DUP4 ADD MSTORE PUSH2 0x22BF DUP2 DUP8 PUSH2 0x2211 JUMP JUMPDEST SWAP1 POP DUP2 DUP2 SUB PUSH1 0xC0 DUP4 ADD MSTORE PUSH2 0x22D3 DUP2 DUP7 PUSH2 0x2211 JUMP JUMPDEST SWAP1 POP DUP2 DUP2 SUB PUSH1 0xE0 DUP4 ADD MSTORE PUSH2 0x22E7 DUP2 DUP6 PUSH2 0x2211 JUMP JUMPDEST SWAP1 POP PUSH2 0x22F7 PUSH2 0x100 DUP4 ADD DUP5 PUSH2 0x21F2 JUMP JUMPDEST SWAP11 SWAP10 POP POP POP POP POP POP POP POP POP POP JUMP JUMPDEST PUSH0 DUP1 PUSH0 DUP1 PUSH0 DUP1 PUSH0 DUP1 PUSH2 0x100 DUP10 DUP12 SUB SLT ISZERO PUSH2 0x2322 JUMPI PUSH2 0x2321 PUSH2 0x1CC7 JUMP JUMPDEST JUMPDEST PUSH0 DUP10 ADD CALLDATALOAD PUSH8 0xFFFFFFFFFFFFFFFF DUP2 GT ISZERO PUSH2 0x233F JUMPI PUSH2 0x233E PUSH2 0x1CCB JUMP JUMPDEST JUMPDEST PUSH2 0x234B DUP12 DUP3 DUP13 ADD PUSH2 0x1FB7 JUMP JUMPDEST SWAP9 POP POP PUSH1 0x20 DUP10 ADD CALLDATALOAD PUSH8 0xFFFFFFFFFFFFFFFF DUP2 GT ISZERO PUSH2 0x236C JUMPI PUSH2 0x236B PUSH2 0x1CCB JUMP JUMPDEST JUMPDEST PUSH2 0x2378 DUP12 DUP3 DUP13 ADD PUSH2 0x1FB7 JUMP JUMPDEST SWAP8 POP POP PUSH1 0x40 DUP10 ADD CALLDATALOAD PUSH8 0xFFFFFFFFFFFFFFFF DUP2 GT ISZERO PUSH2 0x2399 JUMPI PUSH2 0x2398 PUSH2 0x1CCB JUMP JUMPDEST JUMPDEST PUSH2 0x23A5 DUP12 DUP3 DUP13 ADD PUSH2 0x1FB7 JUMP JUMPDEST SWAP7 POP POP PUSH1 0x60 DUP10 ADD CALLDATALOAD PUSH8 0xFFFFFFFFFFFFFFFF DUP2 GT ISZERO PUSH2 0x23C6 JUMPI PUSH2 0x23C5 PUSH2 0x1CCB JUMP JUMPDEST JUMPDEST PUSH2 0x23D2 DUP12 DUP3 DUP13 ADD PUSH2 0x1FB7 JUMP JUMPDEST SWAP6 POP POP PUSH1 0x80 DUP10 ADD CALLDATALOAD PUSH8 0xFFFFFFFFFFFFFFFF DUP2 GT ISZERO PUSH2 0x23F3 JUMPI PUSH2 0x23F2 PUSH2 0x1CCB JUMP JUMPDEST JUMPDEST PUSH2 0x23FF DUP12 DUP3 DUP13 ADD PUSH2 0x1FB7 JUMP JUMPDEST SWAP5 POP POP PUSH1 0xA0 DUP10 ADD CALLDATALOAD PUSH8 0xFFFFFFFFFFFFFFFF DUP2 GT ISZERO PUSH2 0x2420 JUMPI PUSH2 0x241F PUSH2 0x1CCB JUMP JUMPDEST JUMPDEST PUSH2 0x242C DUP12 DUP3 DUP13 ADD PUSH2 0x1FB7 JUMP JUMPDEST SWAP4 POP POP PUSH1 0xC0 DUP10 ADD CALLDATALOAD PUSH8 0xFFFFFFFFFFFFFFFF DUP2 GT ISZERO PUSH2 0x244D JUMPI PUSH2 0x244C PUSH2 0x1CCB JUMP JUMPDEST JUMPDEST PUSH2 0x2459 DUP12 DUP3 DUP13 ADD PUSH2 0x1FB7 JUMP JUMPDEST SWAP3 POP POP PUSH1 0xE0 PUSH2 0x246A DUP12 DUP3 DUP13 ADD PUSH2 0x1CEE JUMP JUMPDEST SWAP2 POP POP SWAP3 SWAP6 SWAP9 POP SWAP3 SWAP6 SWAP9 SWAP1 SWAP4 SWAP7 POP JUMP JUMPDEST PUSH0 PUSH1 0x20 DUP3 ADD SWAP1 POP PUSH2 0x248D PUSH0 DUP4 ADD DUP5 PUSH2 0x21F2 JUMP JUMPDEST SWAP3 SWAP2 POP POP JUMP JUMPDEST PUSH0 DUP1 PUSH0 PUSH1 0x60 DUP5 DUP7 SUB SLT ISZERO PUSH2 0x24AA JUMPI PUSH2 0x24A9 PUSH2 0x1CC7 JUMP JUMPDEST JUMPDEST PUSH0 PUSH2 0x24B7 DUP7 DUP3 DUP8 ADD PUSH2 0x1CEE JUMP JUMPDEST SWAP4 POP POP PUSH1 0x20 DUP5 ADD CALLDATALOAD PUSH8 0xFFFFFFFFFFFFFFFF DUP2 GT ISZERO PUSH2 0x24D8 JUMPI PUSH2 0x24D7 PUSH2 0x1CCB JUMP JUMPDEST JUMPDEST PUSH2 0x24E4 DUP7 DUP3 DUP8 ADD PUSH2 0x1FB7 JUMP JUMPDEST SWAP3 POP POP PUSH1 0x40 PUSH2 0x24F5 DUP7 DUP3 DUP8 ADD PUSH2 0x1CEE JUMP JUMPDEST SWAP2 POP POP SWAP3 POP SWAP3 POP SWAP3 JUMP JUMPDEST PUSH32 0x4E487B7100000000000000000000000000000000000000000000000000000000 PUSH0 MSTORE PUSH1 0x22 PUSH1 0x4 MSTORE PUSH1 0x24 PUSH0 REVERT JUMPDEST PUSH0 PUSH1 0x2 DUP3 DIV SWAP1 POP PUSH1 0x1 DUP3 AND DUP1 PUSH2 0x2543 JUMPI PUSH1 0x7F DUP3 AND SWAP2 POP JUMPDEST PUSH1 0x20 DUP3 LT DUP2 SUB PUSH2 0x2556 JUMPI PUSH2 0x2555 PUSH2 0x24FF JUMP JUMPDEST JUMPDEST POP SWAP2 SWAP1 POP JUMP JUMPDEST PUSH0 DUP2 SWAP1 POP SWAP3 SWAP2 POP POP JUMP JUMPDEST PUSH0 PUSH2 0x2570 DUP3 PUSH2 0x1D3C JUMP JUMPDEST PUSH2 0x257A DUP2 DUP6 PUSH2 0x255C JUMP JUMPDEST SWAP4 POP PUSH2 0x258A DUP2 DUP6 PUSH1 0x20 DUP7 ADD PUSH2 0x1D56 JUMP JUMPDEST DUP1 DUP5 ADD SWAP2 POP POP SWAP3 SWAP2 POP POP JUMP JUMPDEST PUSH0 PUSH2 0x25A1 DUP3 DUP5 PUSH2 0x2566 JUMP JUMPDEST SWAP2 POP DUP2 SWAP1 POP SWAP3 SWAP2 POP POP JUMP JUMPDEST PUSH0 DUP2 SWAP1 POP DUP2 PUSH0 MSTORE PUSH1 0x20 PUSH0 KECCAK256 SWAP1 POP SWAP2 SWAP1 POP JUMP JUMPDEST PUSH0 DUP2 SLOAD PUSH2 0x25CA DUP2 PUSH2 0x252C JUMP JUMPDEST PUSH2 0x25D4 DUP2 DUP7 PUSH2 0x255C JUMP JUMPDEST SWAP5 POP PUSH1 0x1 DUP3 AND PUSH0 DUP2 EQ PUSH2 0x25EE JUMPI PUSH1 0x1 DUP2 EQ PUSH2 0x2603 JUMPI PUSH2 0x2635 JUMP JUMPDEST PUSH1 0xFF NOT DUP4 AND DUP7 MSTORE DUP2 ISZERO ISZERO DUP3 MUL DUP7 ADD SWAP4 POP PUSH2 0x2635 JUMP JUMPDEST PUSH2 0x260C DUP6 PUSH2 0x25AC JUMP JUMPDEST PUSH0 JUMPDEST DUP4 DUP2 LT ISZERO PUSH2 0x262D JUMPI DUP2 SLOAD DUP2 DUP10 ADD MSTORE PUSH1 0x1 DUP3 ADD SWAP2 POP PUSH1 0x20 DUP2 ADD SWAP1 POP PUSH2 0x260E JUMP JUMPDEST DUP4 DUP9 ADD SWAP6 POP POP POP JUMPDEST POP POP POP SWAP3 SWAP2 POP POP JUMP JUMPDEST PUSH0 PUSH2 0x2649 DUP3 DUP5 PUSH2 0x25BE JUMP JUMPDEST SWAP2 POP DUP2 SWAP1 POP SWAP3 SWAP2 POP POP JUMP JUMPDEST PUSH32 0x4E487B7100000000000000000000000000000000000000000000000000000000 PUSH0 MSTORE PUSH1 0x11 PUSH1 0x4 MSTORE PUSH1 0x24 PUSH0 REVERT JUMPDEST PUSH0 PUSH2 0x268B DUP3 PUSH2 0x1CCF JUMP JUMPDEST SWAP2 POP PUSH32 0xFFFFFFFFFFFFFFFFFFFFFFFFFFFFFFFFFFFFFFFFFFFFFFFFFFFFFFFFFFFFFFFF DUP3 SUB PUSH2 0x26BD JUMPI PUSH2 0x26BC PUSH2 0x2654 JUMP JUMPDEST JUMPDEST PUSH1 0x1 DUP3 ADD SWAP1 POP SWAP2 SWAP1 POP JUMP JUMPDEST PUSH32 0x4E487B7100000000000000000000000000000000000000000000000000000000 PUSH0 MSTORE PUSH1 0x32 PUSH1 0x4 MSTORE PUSH1 0x24 PUSH0 REVERT JUMPDEST PUSH0 PUSH1 0x20 PUSH1 0x1F DUP4 ADD DIV SWAP1 POP SWAP2 SWAP1 POP JUMP JUMPDEST PUSH0 DUP3 DUP3 SHL SWAP1 POP SWAP3 SWAP2 POP POP JUMP JUMPDEST PUSH0 PUSH1 0x8 DUP4 MUL PUSH2 0x273F PUSH32 0xFFFFFFFFFFFFFFFFFFFFFFFFFFFFFFFFFFFFFFFFFFFFFFFFFFFFFFFFFFFFFFFF DUP3 PUSH2 0x2704 JUMP JUMPDEST PUSH2 0x2749 DUP7 DUP4 PUSH2 0x2704 JUMP JUMPDEST SWAP6 POP DUP1 NOT DUP5 AND SWAP4 POP DUP1 DUP7 AND DUP5 OR SWAP3 POP POP POP SWAP4 SWAP3 POP POP POP JUMP JUMPDEST PUSH0 DUP2 SWAP1 POP SWAP2 SWAP1 POP JUMP JUMPDEST PUSH0 PUSH2 0x2784 PUSH2 0x277F PUSH2 0x277A DUP5 PUSH2 0x1CCF JUMP JUMPDEST PUSH2 0x2761 JUMP JUMPDEST PUSH2 0x1CCF JUMP JUMPDEST SWAP1 POP SWAP2 SWAP1 POP JUMP JUMPDEST PUSH0 DUP2 SWAP1 POP SWAP2 SWAP1 POP JUMP JUMPDEST PUSH2 0x279D DUP4 PUSH2 0x276A JUMP JUMPDEST PUSH2 0x27B1 PUSH2 0x27A9 DUP3 PUSH2 0x278B JUMP JUMPDEST DUP5 DUP5 SLOAD PUSH2 0x2710 JUMP JUMPDEST DUP3 SSTORE POP POP POP POP JUMP JUMPDEST PUSH0 SWAP1 JUMP JUMPDEST PUSH2 0x27C5 PUSH2 0x27B9 JUMP JUMPDEST PUSH2 0x27D0 DUP2 DUP5 DUP5 PUSH2 0x2794 JUMP JUMPDEST POP POP POP JUMP JUMPDEST JUMPDEST DUP2 DUP2 LT ISZERO PUSH2 0x27F3 JUMPI PUSH2 0x27E8 PUSH0 DUP3 PUSH2 0x27BD JUMP JUMPDEST PUSH1 0x1 DUP2 ADD SWAP1 POP PUSH2 0x27D6 JUMP JUMPDEST POP POP JUMP JUMPDEST PUSH1 0x1F DUP3 GT ISZERO PUSH2 0x2838 JUMPI PUSH2 0x2809 DUP2 PUSH2 0x25AC JUMP JUMPDEST PUSH2 0x2812 DUP5 PUSH2 0x26F5 JUMP JUMPDEST DUP2 ADD PUSH1 0x20 DUP6 LT ISZERO PUSH2 0x2821 JUMPI DUP2 SWAP1 POP JUMPDEST PUSH2 0x2835 PUSH2 0x282D DUP6 PUSH2 0x26F5 JUMP JUMPDEST DUP4 ADD DUP3 PUSH2 0x27D5 JUMP JUMPDEST POP POP JUMPDEST POP POP POP JUMP JUMPDEST PUSH0 DUP3 DUP3 SHR SWAP1 POP SWAP3 SWAP2 POP POP JUMP JUMPDEST PUSH0 PUSH2 0x2858 PUSH0 NOT DUP5 PUSH1 0x8 MUL PUSH2 0x283D JUMP JUMPDEST NOT DUP1 DUP4 AND SWAP2 POP POP SWAP3 SWAP2 POP POP JUMP JUMPDEST PUSH0 PUSH2 0x2870 DUP4 DUP4 PUSH2 0x2849 JUMP JUMPDEST SWAP2 POP DUP3 PUSH1 0x2 MUL DUP3 OR SWAP1 POP SWAP3 SWAP2 POP POP JUMP JUMPDEST PUSH2 0x2889 DUP3 PUSH2 0x1D3C JUMP JUMPDEST PUSH8 0xFFFFFFFFFFFFFFFF DUP2 GT ISZERO PUSH2 0x28A2 JUMPI PUSH2 0x28A1 PUSH2 0x1EC0 JUMP JUMPDEST JUMPDEST PUSH2 0x28AC DUP3 SLOAD PUSH2 0x252C JUMP JUMPDEST PUSH2 0x28B7 DUP3 DUP3 DUP6 PUSH2 0x27F7 JUMP JUMPDEST PUSH0 PUSH1 0x20 SWAP1 POP PUSH1 0x1F DUP4 GT PUSH1 0x1 DUP2 EQ PUSH2 0x28E8 JUMPI PUSH0 DUP5 ISZERO PUSH2 0x28D6 JUMPI DUP3 DUP8 ADD MLOAD SWAP1 POP JUMPDEST PUSH2 0x28E0 DUP6 DUP3 PUSH2 0x2865 JUMP JUMPDEST DUP7 SSTORE POP PUSH2 0x2947 JUMP JUMPDEST PUSH1 0x1F NOT DUP5 AND PUSH2 0x28F6 DUP7 PUSH2 0x25AC JUMP JUMPDEST PUSH0 JUMPDEST DUP3 DUP2 LT ISZERO PUSH2 0x291D JUMPI DUP5 DUP10 ADD MLOAD DUP3 SSTORE PUSH1 0x1 DUP3 ADD SWAP2 POP PUSH1 0x20 DUP6 ADD SWAP5 POP PUSH1 0x20 DUP2 ADD SWAP1 POP PUSH2 0x28F8 JUMP JUMPDEST DUP7 DUP4 LT ISZERO PUSH2 0x293A JUMPI DUP5 DUP10 ADD MLOAD PUSH2 0x2936 PUSH1 0x1F DUP10 AND DUP3 PUSH2 0x2849 JUMP JUMPDEST DUP4 SSTORE POP JUMPDEST PUSH1 0x1 PUSH1 0x2 DUP9 MUL ADD DUP9 SSTORE POP POP POP JUMPDEST POP POP POP POP POP POP JUMP JUMPDEST PUSH0 PUSH2 0x100 DUP3 ADD SWAP1 POP DUP2 DUP2 SUB PUSH0 DUP4 ADD MSTORE PUSH2 0x2968 DUP2 DUP12 PUSH2 0x2211 JUMP JUMPDEST SWAP1 POP DUP2 DUP2 SUB PUSH1 0x20 DUP4 ADD MSTORE PUSH2 0x297C DUP2 DUP11 PUSH2 0x2211 JUMP JUMPDEST SWAP1 POP DUP2 DUP2 SUB PUSH1 0x40 DUP4 ADD MSTORE PUSH2 0x2990 DUP2 DUP10 PUSH2 0x2211 JUMP JUMPDEST SWAP1 POP DUP2 DUP2 SUB PUSH1 0x60 DUP4 ADD MSTORE PUSH2 0x29A4 DUP2 DUP9 PUSH2 0x2211 JUMP JUMPDEST SWAP1 POP DUP2 DUP2 SUB PUSH1 0x80 DUP4 ADD MSTORE PUSH2 0x29B8 DUP2 DUP8 PUSH2 0x2211 JUMP JUMPDEST SWAP1 POP DUP2 DUP2 SUB PUSH1 0xA0 DUP4 ADD MSTORE PUSH2 0x29CC DUP2 DUP7 PUSH2 0x2211 JUMP JUMPDEST SWAP1 POP DUP2 DUP2 SUB PUSH1 0xC0 DUP4 ADD MSTORE PUSH2 0x29E0 DUP2 DUP6 PUSH2 0x2211 JUMP JUMPDEST SWAP1 POP PUSH2 0x29EF PUSH1 0xE0 DUP4 ADD DUP5 PUSH2 0x21F2 JUMP JUMPDEST SWAP10 SWAP9 POP POP POP POP POP POP POP POP POP JUMP JUMPDEST PUSH0 PUSH2 0x2A06 DUP3 PUSH2 0x1CCF JUMP JUMPDEST SWAP2 POP PUSH2 0x2A11 DUP4 PUSH2 0x1CCF JUMP JUMPDEST SWAP3 POP DUP3 DUP3 SUB SWAP1 POP DUP2 DUP2 GT ISZERO PUSH2 0x2A29 JUMPI PUSH2 0x2A28 PUSH2 0x2654 JUMP JUMPDEST JUMPDEST SWAP3 SWAP2 POP POP JUMP JUMPDEST PUSH32 0x5472616E73616374696F6E20646F6573206E6F74206578697374000000000000 PUSH0 DUP3 ADD MSTORE POP JUMP JUMPDEST PUSH0 PUSH2 0x2A63 PUSH1 0x1A DUP4 PUSH2 0x2201 JUMP JUMPDEST SWAP2 POP PUSH2 0x2A6E DUP3 PUSH2 0x2A2F JUMP JUMPDEST PUSH1 0x20 DUP3 ADD SWAP1 POP SWAP2 SWAP1 POP JUMP JUMPDEST PUSH0 PUSH1 0x20 DUP3 ADD SWAP1 POP DUP2 DUP2 SUB PUSH0 DUP4 ADD MSTORE PUSH2 0x2A90 DUP2 PUSH2 0x2A57 JUMP JUMPDEST SWAP1 POP SWAP2 SWAP1 POP JUMP JUMPDEST PUSH0 PUSH1 0x40 DUP3 ADD SWAP1 POP DUP2 DUP2 SUB PUSH0 DUP4 ADD MSTORE PUSH2 0x2AAF DUP2 DUP6 PUSH2 0x2211 JUMP JUMPDEST SWAP1 POP PUSH2 0x2ABE PUSH1 0x20 DUP4 ADD DUP5 PUSH2 0x21F2 JUMP JUMPDEST SWAP4 SWAP3 POP POP POP JUMP INVALID LOG2 PUSH5 0x6970667358 0x22 SLT KECCAK256 0xE PUSH26 0xFB17138BE02EDFE58211399FBC8529DE5CD01C4F281287F74A43 DUP2 0xAF PUSH25 0x7B64736F6C634300081A003300000000000000000000000000 "
				},
				"gasEstimates": {
					"creation": {
						"codeDepositCost": "2200600",
						"executionCost": "2344",
						"totalCost": "2202944"
					},
					"external": {
						"addTransaction(string,string,string,string,string,string,string,uint256)": "infinite",
						"getAllTransaction()": "infinite",
						"getTransaction(uint256)": "infinite",
						"getTransactionByBuyerId(string)": "infinite",
						"getTransactionBySellerId(string)": "infinite",
						"transactionCount()": "2447",
						"transactions(uint256)": "infinite",
						"updatePaymentStatus(uint256,string,uint256)": "infinite"
					}
				},
				"methodIdentifiers": {
					"addTransaction(string,string,string,string,string,string,string,uint256)": "abed9fb4",
					"getAllTransaction()": "add6415d",
					"getTransaction(uint256)": "33ea3dc8",
					"getTransactionByBuyerId(string)": "e55d57df",
					"getTransactionBySellerId(string)": "9311f732",
					"transactionCount()": "b77bf600",
					"transactions(uint256)": "9ace38c2",
					"updatePaymentStatus(uint256,string,uint256)": "ce8481fd"
				}
			},
			"storageLayout": {
				"storage": [
					{
						"astId": 53,
						"contract": "contracts/TransactionContract28April.sol:TransactionContract",
						"label": "transactions",
						"offset": 0,
						"slot": "0",
						"type": "t_mapping(t_uint256,t_struct(Transaction)20_storage)"
					},
					{
						"astId": 55,
						"contract": "contracts/TransactionContract28April.sol:TransactionContract",
						"label": "transactionCount",
						"offset": 0,
						"slot": "1",
						"type": "t_uint256"
					}
				],
				"types": {
					"t_mapping(t_uint256,t_struct(Transaction)20_storage)": {
						"encoding": "mapping",
						"key": "t_uint256",
						"label": "mapping(uint256 => struct TransactionContract.Transaction)",
						"numberOfBytes": "32",
						"value": "t_struct(Transaction)20_storage"
					},
					"t_string_storage": {
						"encoding": "bytes",
						"label": "string",
						"numberOfBytes": "32"
					},
					"t_struct(Transaction)20_storage": {
						"encoding": "inplace",
						"label": "struct TransactionContract.Transaction",
						"members": [
							{
								"astId": 3,
								"contract": "contracts/TransactionContract28April.sol:TransactionContract",
								"label": "transactionId",
								"offset": 0,
								"slot": "0",
								"type": "t_uint256"
							},
							{
								"astId": 5,
								"contract": "contracts/TransactionContract28April.sol:TransactionContract",
								"label": "transactionCode",
								"offset": 0,
								"slot": "1",
								"type": "t_string_storage"
							},
							{
								"astId": 7,
								"contract": "contracts/TransactionContract28April.sol:TransactionContract",
								"label": "from",
								"offset": 0,
								"slot": "2",
								"type": "t_string_storage"
							},
							{
								"astId": 9,
								"contract": "contracts/TransactionContract28April.sol:TransactionContract",
								"label": "fromId",
								"offset": 0,
								"slot": "3",
								"type": "t_string_storage"
							},
							{
								"astId": 11,
								"contract": "contracts/TransactionContract28April.sol:TransactionContract",
								"label": "to",
								"offset": 0,
								"slot": "4",
								"type": "t_string_storage"
							},
							{
								"astId": 13,
								"contract": "contracts/TransactionContract28April.sol:TransactionContract",
								"label": "toId",
								"offset": 0,
								"slot": "5",
								"type": "t_string_storage"
							},
							{
								"astId": 15,
								"contract": "contracts/TransactionContract28April.sol:TransactionContract",
								"label": "orderType",
								"offset": 0,
								"slot": "6",
								"type": "t_string_storage"
							},
							{
								"astId": 17,
								"contract": "contracts/TransactionContract28April.sol:TransactionContract",
								"label": "paymentStatus",
								"offset": 0,
								"slot": "7",
								"type": "t_string_storage"
							},
							{
								"astId": 19,
								"contract": "contracts/TransactionContract28April.sol:TransactionContract",
								"label": "createdAt",
								"offset": 0,
								"slot": "8",
								"type": "t_uint256"
							}
						],
						"numberOfBytes": "288"
					},
					"t_uint256": {
						"encoding": "inplace",
						"label": "uint256",
						"numberOfBytes": "32"
					}
				}
			},
			"userdoc": {
				"kind": "user",
				"methods": {},
				"version": 1
			}
		}
	}
}