{
	"contracts/TransactionDetailContract.sol": {
		"TransactionDetailContract": {
			"abi": [
				{
					"inputs": [
						{
							"internalType": "string[]",
							"name": "_transactionCode",
							"type": "string[]"
						},
						{
							"internalType": "string[]",
							"name": "_productName",
							"type": "string[]"
						},
						{
							"internalType": "string[]",
							"name": "_productDescription",
							"type": "string[]"
						},
						{
							"internalType": "string[]",
							"name": "_tokenOfProduct",
							"type": "string[]"
						},
						{
							"internalType": "string[]",
							"name": "_price",
							"type": "string[]"
						},
						{
							"internalType": "uint256[]",
							"name": "_createdAt",
							"type": "uint256[]"
						}
					],
					"name": "addTransactionDetail",
					"outputs": [],
					"stateMutability": "nonpayable",
					"type": "function"
				},
				{
					"inputs": [],
					"name": "getAllTransactionDetail",
					"outputs": [
						{
							"components": [
								{
									"internalType": "string",
									"name": "transactionCode",
									"type": "string"
								},
								{
									"internalType": "string",
									"name": "productName",
									"type": "string"
								},
								{
									"internalType": "string",
									"name": "productDescription",
									"type": "string"
								},
								{
									"internalType": "string",
									"name": "tokenOfProduct",
									"type": "string"
								},
								{
									"internalType": "string",
									"name": "price",
									"type": "string"
								},
								{
									"internalType": "uint256",
									"name": "createdAt",
									"type": "uint256"
								}
							],
							"internalType": "struct TransactionDetailContract.TransactionDetail[]",
							"name": "",
							"type": "tuple[]"
						}
					],
					"stateMutability": "view",
					"type": "function"
				},
				{
					"inputs": [
						{
							"internalType": "string",
							"name": "_transactionCode",
							"type": "string"
						}
					],
					"name": "getTransactionDetailByTransactionCode",
					"outputs": [
						{
							"components": [
								{
									"internalType": "string",
									"name": "transactionCode",
									"type": "string"
								},
								{
									"internalType": "string",
									"name": "productName",
									"type": "string"
								},
								{
									"internalType": "string",
									"name": "productDescription",
									"type": "string"
								},
								{
									"internalType": "string",
									"name": "tokenOfProduct",
									"type": "string"
								},
								{
									"internalType": "string",
									"name": "price",
									"type": "string"
								},
								{
									"internalType": "uint256",
									"name": "createdAt",
									"type": "uint256"
								}
							],
							"internalType": "struct TransactionDetailContract.TransactionDetail[]",
							"name": "",
							"type": "tuple[]"
						}
					],
					"stateMutability": "view",
					"type": "function"
				},
				{
					"inputs": [],
					"name": "transactionDetailCount",
					"outputs": [
						{
							"internalType": "uint256",
							"name": "",
							"type": "uint256"
						}
					],
					"stateMutability": "view",
					"type": "function"
				},
				{
					"inputs": [
						{
							"internalType": "uint256",
							"name": "",
							"type": "uint256"
						}
					],
					"name": "transactionDetails",
					"outputs": [
						{
							"internalType": "string",
							"name": "transactionCode",
							"type": "string"
						},
						{
							"internalType": "string",
							"name": "productName",
							"type": "string"
						},
						{
							"internalType": "string",
							"name": "productDescription",
							"type": "string"
						},
						{
							"internalType": "string",
							"name": "tokenOfProduct",
							"type": "string"
						},
						{
							"internalType": "string",
							"name": "price",
							"type": "string"
						},
						{
							"internalType": "uint256",
							"name": "createdAt",
							"type": "uint256"
						}
					],
					"stateMutability": "view",
					"type": "function"
				}
			],
			"devdoc": {
				"kind": "dev",
				"methods": {},
				"version": 1
			},
			"evm": {
				"assembly": "    /* \"contracts/TransactionDetailContract.sol\":57:2865  contract TransactionDetailContract {... */\n  mstore(0x40, 0x80)\n  callvalue\n  dup1\n  iszero\n  tag_1\n  jumpi\n  0x00\n  dup1\n  revert\ntag_1:\n  pop\n  dataSize(sub_0)\n  dup1\n  dataOffset(sub_0)\n  0x00\n  codecopy\n  0x00\n  return\nstop\n\nsub_0: assembly {\n        /* \"contracts/TransactionDetailContract.sol\":57:2865  contract TransactionDetailContract {... */\n      mstore(0x40, 0x80)\n      callvalue\n      dup1\n      iszero\n      tag_1\n      jumpi\n      0x00\n      dup1\n      revert\n    tag_1:\n      pop\n      jumpi(tag_2, lt(calldatasize, 0x04))\n      shr(0xe0, calldataload(0x00))\n      dup1\n      0x2ef8750f\n      eq\n      tag_3\n      jumpi\n      dup1\n      0x3f0a54a6\n      eq\n      tag_4\n      jumpi\n      dup1\n      0x857030e6\n      eq\n      tag_5\n      jumpi\n      dup1\n      0xa5773610\n      eq\n      tag_6\n      jumpi\n      dup1\n      0xcf810953\n      eq\n      tag_7\n      jumpi\n    tag_2:\n      0x00\n      dup1\n      revert\n        /* \"contracts/TransactionDetailContract.sol\":1885:2863  function getTransactionDetailByTransactionCode(... */\n    tag_3:\n      tag_8\n      0x04\n      dup1\n      calldatasize\n      sub\n      dup2\n      add\n      swap1\n      tag_9\n      swap2\n      swap1\n      tag_10\n      jump\t// in\n    tag_9:\n      tag_11\n      jump\t// in\n    tag_8:\n      mload(0x40)\n      tag_12\n      swap2\n      swap1\n      tag_13\n      jump\t// in\n    tag_12:\n      mload(0x40)\n      dup1\n      swap2\n      sub\n      swap1\n      return\n        /* \"contracts/TransactionDetailContract.sol\":308:368  mapping(uint => TransactionDetail) public transactionDetails */\n    tag_4:\n      tag_14\n      0x04\n      dup1\n      calldatasize\n      sub\n      dup2\n      add\n      swap1\n      tag_15\n      swap2\n      swap1\n      tag_16\n      jump\t// in\n    tag_15:\n      tag_17\n      jump\t// in\n    tag_14:\n      mload(0x40)\n      tag_18\n      swap7\n      swap6\n      swap5\n      swap4\n      swap3\n      swap2\n      swap1\n      tag_19\n      jump\t// in\n    tag_18:\n      mload(0x40)\n      dup1\n      swap2\n      sub\n      swap1\n      return\n        /* \"contracts/TransactionDetailContract.sol\":415:1494  function addTransactionDetail(... */\n    tag_5:\n      tag_20\n      0x04\n      dup1\n      calldatasize\n      sub\n      dup2\n      add\n      swap1\n      tag_21\n      swap2\n      swap1\n      tag_22\n      jump\t// in\n    tag_21:\n      tag_23\n      jump\t// in\n    tag_20:\n      stop\n        /* \"contracts/TransactionDetailContract.sol\":1500:1879  function getAllTransactionDetail()... */\n    tag_6:\n      tag_24\n      tag_25\n      jump\t// in\n    tag_24:\n      mload(0x40)\n      tag_26\n      swap2\n      swap1\n      tag_13\n      jump\t// in\n    tag_26:\n      mload(0x40)\n      dup1\n      swap2\n      sub\n      swap1\n      return\n        /* \"contracts/TransactionDetailContract.sol\":374:408  uint public transactionDetailCount */\n    tag_7:\n      tag_27\n      tag_28\n      jump\t// in\n    tag_27:\n      mload(0x40)\n      tag_29\n      swap2\n      swap1\n      tag_30\n      jump\t// in\n    tag_29:\n      mload(0x40)\n      dup1\n      swap2\n      sub\n      swap1\n      return\n        /* \"contracts/TransactionDetailContract.sol\":1885:2863  function getTransactionDetailByTransactionCode(... */\n    tag_11:\n        /* \"contracts/TransactionDetailContract.sol\":1999:2025  TransactionDetail[] memory */\n      0x60\n        /* \"contracts/TransactionDetailContract.sol\":2037:2047  uint count */\n      0x00\n        /* \"contracts/TransactionDetailContract.sol\":2066:2072  uint i */\n      dup1\n        /* \"contracts/TransactionDetailContract.sol\":2075:2076  1 */\n      0x01\n        /* \"contracts/TransactionDetailContract.sol\":2066:2076  uint i = 1 */\n      swap1\n      pop\n        /* \"contracts/TransactionDetailContract.sol\":2061:2365  for (uint i = 1; i <= transactionDetailCount; i++) {... */\n    tag_32:\n        /* \"contracts/TransactionDetailContract.sol\":2083:2105  transactionDetailCount */\n      sload(0x01)\n        /* \"contracts/TransactionDetailContract.sol\":2078:2079  i */\n      dup2\n        /* \"contracts/TransactionDetailContract.sol\":2078:2105  i <= transactionDetailCount */\n      gt\n        /* \"contracts/TransactionDetailContract.sol\":2061:2365  for (uint i = 1; i <= transactionDetailCount; i++) {... */\n      tag_33\n      jumpi\n        /* \"contracts/TransactionDetailContract.sol\":2282:2298  _transactionCode */\n      dup4\n        /* \"contracts/TransactionDetailContract.sol\":2265:2299  abi.encodePacked(_transactionCode) */\n      add(0x20, mload(0x40))\n      tag_35\n      swap2\n      swap1\n      tag_36\n      jump\t// in\n    tag_35:\n      mload(0x40)\n      0x20\n      dup2\n      dup4\n      sub\n      sub\n      dup2\n      mstore\n      swap1\n      0x40\n      mstore\n        /* \"contracts/TransactionDetailContract.sol\":2255:2300  keccak256(abi.encodePacked(_transactionCode)) */\n      dup1\n      mload\n      swap1\n      0x20\n      add\n      keccak256\n        /* \"contracts/TransactionDetailContract.sol\":2195:2213  transactionDetails */\n      0x00\n        /* \"contracts/TransactionDetailContract.sol\":2195:2216  transactionDetails[i] */\n      dup1\n        /* \"contracts/TransactionDetailContract.sol\":2214:2215  i */\n      dup4\n        /* \"contracts/TransactionDetailContract.sol\":2195:2216  transactionDetails[i] */\n      dup2\n      mstore\n      0x20\n      add\n      swap1\n      dup2\n      mstore\n      0x20\n      add\n      0x00\n      keccak256\n        /* \"contracts/TransactionDetailContract.sol\":2195:2232  transactionDetails[i].transactionCode */\n      0x00\n      add\n        /* \"contracts/TransactionDetailContract.sol\":2178:2233  abi.encodePacked(transactionDetails[i].transactionCode) */\n      add(0x20, mload(0x40))\n      tag_37\n      swap2\n      swap1\n      tag_38\n      jump\t// in\n    tag_37:\n      mload(0x40)\n      0x20\n      dup2\n      dup4\n      sub\n      sub\n      dup2\n      mstore\n      swap1\n      0x40\n      mstore\n        /* \"contracts/TransactionDetailContract.sol\":2147:2251  keccak256(... */\n      dup1\n      mload\n      swap1\n      0x20\n      add\n      keccak256\n        /* \"contracts/TransactionDetailContract.sol\":2147:2300  keccak256(... */\n      sub\n        /* \"contracts/TransactionDetailContract.sol\":2126:2355  if (... */\n      tag_39\n      jumpi\n        /* \"contracts/TransactionDetailContract.sol\":2333:2340  count++ */\n      dup2\n      dup1\n      tag_40\n      swap1\n      tag_41\n      jump\t// in\n    tag_40:\n      swap3\n      pop\n      pop\n        /* \"contracts/TransactionDetailContract.sol\":2126:2355  if (... */\n    tag_39:\n        /* \"contracts/TransactionDetailContract.sol\":2107:2110  i++ */\n      dup1\n      dup1\n      tag_42\n      swap1\n      tag_41\n      jump\t// in\n    tag_42:\n      swap2\n      pop\n      pop\n        /* \"contracts/TransactionDetailContract.sol\":2061:2365  for (uint i = 1; i <= transactionDetailCount; i++) {... */\n      jump(tag_32)\n    tag_33:\n      pop\n        /* \"contracts/TransactionDetailContract.sol\":2375:2408  TransactionDetail[] memory result */\n      0x00\n        /* \"contracts/TransactionDetailContract.sol\":2435:2440  count */\n      dup2\n        /* \"contracts/TransactionDetailContract.sol\":2411:2441  new TransactionDetail[](count) */\n      0xffffffffffffffff\n      dup2\n      gt\n      iszero\n      tag_43\n      jumpi\n      tag_44\n      tag_45\n      jump\t// in\n    tag_44:\n    tag_43:\n      mload(0x40)\n      swap1\n      dup1\n      dup3\n      mstore\n      dup1\n      0x20\n      mul\n      0x20\n      add\n      dup3\n      add\n      0x40\n      mstore\n      dup1\n      iszero\n      tag_46\n      jumpi\n      dup2\n      0x20\n      add\n    tag_47:\n      tag_48\n      tag_49\n      jump\t// in\n    tag_48:\n      dup2\n      mstore\n      0x20\n      add\n      swap1\n      0x01\n      swap1\n      sub\n      swap1\n      dup2\n      tag_47\n      jumpi\n      swap1\n      pop\n    tag_46:\n      pop\n        /* \"contracts/TransactionDetailContract.sol\":2375:2441  TransactionDetail[] memory result = new TransactionDetail[](count) */\n      swap1\n      pop\n        /* \"contracts/TransactionDetailContract.sol\":2451:2461  uint index */\n      0x00\n        /* \"contracts/TransactionDetailContract.sol\":2480:2486  uint i */\n      dup1\n        /* \"contracts/TransactionDetailContract.sol\":2489:2490  1 */\n      0x01\n        /* \"contracts/TransactionDetailContract.sol\":2480:2490  uint i = 1 */\n      swap1\n      pop\n        /* \"contracts/TransactionDetailContract.sol\":2475:2834  for (uint i = 1; i <= transactionDetailCount; i++) {... */\n    tag_50:\n        /* \"contracts/TransactionDetailContract.sol\":2497:2519  transactionDetailCount */\n      sload(0x01)\n        /* \"contracts/TransactionDetailContract.sol\":2492:2493  i */\n      dup2\n        /* \"contracts/TransactionDetailContract.sol\":2492:2519  i <= transactionDetailCount */\n      gt\n        /* \"contracts/TransactionDetailContract.sol\":2475:2834  for (uint i = 1; i <= transactionDetailCount; i++) {... */\n      tag_51\n      jumpi\n        /* \"contracts/TransactionDetailContract.sol\":2696:2712  _transactionCode */\n      dup6\n        /* \"contracts/TransactionDetailContract.sol\":2679:2713  abi.encodePacked(_transactionCode) */\n      add(0x20, mload(0x40))\n      tag_53\n      swap2\n      swap1\n      tag_36\n      jump\t// in\n    tag_53:\n      mload(0x40)\n      0x20\n      dup2\n      dup4\n      sub\n      sub\n      dup2\n      mstore\n      swap1\n      0x40\n      mstore\n        /* \"contracts/TransactionDetailContract.sol\":2669:2714  keccak256(abi.encodePacked(_transactionCode)) */\n      dup1\n      mload\n      swap1\n      0x20\n      add\n      keccak256\n        /* \"contracts/TransactionDetailContract.sol\":2609:2627  transactionDetails */\n      0x00\n        /* \"contracts/TransactionDetailContract.sol\":2609:2630  transactionDetails[i] */\n      dup1\n        /* \"contracts/TransactionDetailContract.sol\":2628:2629  i */\n      dup4\n        /* \"contracts/TransactionDetailContract.sol\":2609:2630  transactionDetails[i] */\n      dup2\n      mstore\n      0x20\n      add\n      swap1\n      dup2\n      mstore\n      0x20\n      add\n      0x00\n      keccak256\n        /* \"contracts/TransactionDetailContract.sol\":2609:2646  transactionDetails[i].transactionCode */\n      0x00\n      add\n        /* \"contracts/TransactionDetailContract.sol\":2592:2647  abi.encodePacked(transactionDetails[i].transactionCode) */\n      add(0x20, mload(0x40))\n      tag_54\n      swap2\n      swap1\n      tag_38\n      jump\t// in\n    tag_54:\n      mload(0x40)\n      0x20\n      dup2\n      dup4\n      sub\n      sub\n      dup2\n      mstore\n      swap1\n      0x40\n      mstore\n        /* \"contracts/TransactionDetailContract.sol\":2561:2665  keccak256(... */\n      dup1\n      mload\n      swap1\n      0x20\n      add\n      keccak256\n        /* \"contracts/TransactionDetailContract.sol\":2561:2714  keccak256(... */\n      sub\n        /* \"contracts/TransactionDetailContract.sol\":2540:2824  if (... */\n      tag_55\n      jumpi\n        /* \"contracts/TransactionDetailContract.sol\":2763:2781  transactionDetails */\n      0x00\n        /* \"contracts/TransactionDetailContract.sol\":2763:2784  transactionDetails[i] */\n      dup1\n        /* \"contracts/TransactionDetailContract.sol\":2782:2783  i */\n      dup3\n        /* \"contracts/TransactionDetailContract.sol\":2763:2784  transactionDetails[i] */\n      dup2\n      mstore\n      0x20\n      add\n      swap1\n      dup2\n      mstore\n      0x20\n      add\n      0x00\n      keccak256\n        /* \"contracts/TransactionDetailContract.sol\":2747:2784  result[index] = transactionDetails[i] */\n      mload(0x40)\n      dup1\n      0xc0\n      add\n      0x40\n      mstore\n      swap1\n      dup2\n      0x00\n      dup3\n      add\n      dup1\n      sload\n      tag_56\n      swap1\n      tag_57\n      jump\t// in\n    tag_56:\n      dup1\n      0x1f\n      add\n      0x20\n      dup1\n      swap2\n      div\n      mul\n      0x20\n      add\n      mload(0x40)\n      swap1\n      dup2\n      add\n      0x40\n      mstore\n      dup1\n      swap3\n      swap2\n      swap1\n      dup2\n      dup2\n      mstore\n      0x20\n      add\n      dup3\n      dup1\n      sload\n      tag_58\n      swap1\n      tag_57\n      jump\t// in\n    tag_58:\n      dup1\n      iszero\n      tag_59\n      jumpi\n      dup1\n      0x1f\n      lt\n      tag_60\n      jumpi\n      0x0100\n      dup1\n      dup4\n      sload\n      div\n      mul\n      dup4\n      mstore\n      swap2\n      0x20\n      add\n      swap2\n      jump(tag_59)\n    tag_60:\n      dup3\n      add\n      swap2\n      swap1\n      0x00\n      mstore\n      keccak256(0x00, 0x20)\n      swap1\n    tag_61:\n      dup2\n      sload\n      dup2\n      mstore\n      swap1\n      0x01\n      add\n      swap1\n      0x20\n      add\n      dup1\n      dup4\n      gt\n      tag_61\n      jumpi\n      dup3\n      swap1\n      sub\n      0x1f\n      and\n      dup3\n      add\n      swap2\n    tag_59:\n      pop\n      pop\n      pop\n      pop\n      pop\n      dup2\n      mstore\n      0x20\n      add\n      0x01\n      dup3\n      add\n      dup1\n      sload\n      tag_62\n      swap1\n      tag_57\n      jump\t// in\n    tag_62:\n      dup1\n      0x1f\n      add\n      0x20\n      dup1\n      swap2\n      div\n      mul\n      0x20\n      add\n      mload(0x40)\n      swap1\n      dup2\n      add\n      0x40\n      mstore\n      dup1\n      swap3\n      swap2\n      swap1\n      dup2\n      dup2\n      mstore\n      0x20\n      add\n      dup3\n      dup1\n      sload\n      tag_63\n      swap1\n      tag_57\n      jump\t// in\n    tag_63:\n      dup1\n      iszero\n      tag_64\n      jumpi\n      dup1\n      0x1f\n      lt\n      tag_65\n      jumpi\n      0x0100\n      dup1\n      dup4\n      sload\n      div\n      mul\n      dup4\n      mstore\n      swap2\n      0x20\n      add\n      swap2\n      jump(tag_64)\n    tag_65:\n      dup3\n      add\n      swap2\n      swap1\n      0x00\n      mstore\n      keccak256(0x00, 0x20)\n      swap1\n    tag_66:\n      dup2\n      sload\n      dup2\n      mstore\n      swap1\n      0x01\n      add\n      swap1\n      0x20\n      add\n      dup1\n      dup4\n      gt\n      tag_66\n      jumpi\n      dup3\n      swap1\n      sub\n      0x1f\n      and\n      dup3\n      add\n      swap2\n    tag_64:\n      pop\n      pop\n      pop\n      pop\n      pop\n      dup2\n      mstore\n      0x20\n      add\n      0x02\n      dup3\n      add\n      dup1\n      sload\n      tag_67\n      swap1\n      tag_57\n      jump\t// in\n    tag_67:\n      dup1\n      0x1f\n      add\n      0x20\n      dup1\n      swap2\n      div\n      mul\n      0x20\n      add\n      mload(0x40)\n      swap1\n      dup2\n      add\n      0x40\n      mstore\n      dup1\n      swap3\n      swap2\n      swap1\n      dup2\n      dup2\n      mstore\n      0x20\n      add\n      dup3\n      dup1\n      sload\n      tag_68\n      swap1\n      tag_57\n      jump\t// in\n    tag_68:\n      dup1\n      iszero\n      tag_69\n      jumpi\n      dup1\n      0x1f\n      lt\n      tag_70\n      jumpi\n      0x0100\n      dup1\n      dup4\n      sload\n      div\n      mul\n      dup4\n      mstore\n      swap2\n      0x20\n      add\n      swap2\n      jump(tag_69)\n    tag_70:\n      dup3\n      add\n      swap2\n      swap1\n      0x00\n      mstore\n      keccak256(0x00, 0x20)\n      swap1\n    tag_71:\n      dup2\n      sload\n      dup2\n      mstore\n      swap1\n      0x01\n      add\n      swap1\n      0x20\n      add\n      dup1\n      dup4\n      gt\n      tag_71\n      jumpi\n      dup3\n      swap1\n      sub\n      0x1f\n      and\n      dup3\n      add\n      swap2\n    tag_69:\n      pop\n      pop\n      pop\n      pop\n      pop\n      dup2\n      mstore\n      0x20\n      add\n      0x03\n      dup3\n      add\n      dup1\n      sload\n      tag_72\n      swap1\n      tag_57\n      jump\t// in\n    tag_72:\n      dup1\n      0x1f\n      add\n      0x20\n      dup1\n      swap2\n      div\n      mul\n      0x20\n      add\n      mload(0x40)\n      swap1\n      dup2\n      add\n      0x40\n      mstore\n      dup1\n      swap3\n      swap2\n      swap1\n      dup2\n      dup2\n      mstore\n      0x20\n      add\n      dup3\n      dup1\n      sload\n      tag_73\n      swap1\n      tag_57\n      jump\t// in\n    tag_73:\n      dup1\n      iszero\n      tag_74\n      jumpi\n      dup1\n      0x1f\n      lt\n      tag_75\n      jumpi\n      0x0100\n      dup1\n      dup4\n      sload\n      div\n      mul\n      dup4\n      mstore\n      swap2\n      0x20\n      add\n      swap2\n      jump(tag_74)\n    tag_75:\n      dup3\n      add\n      swap2\n      swap1\n      0x00\n      mstore\n      keccak256(0x00, 0x20)\n      swap1\n    tag_76:\n      dup2\n      sload\n      dup2\n      mstore\n      swap1\n      0x01\n      add\n      swap1\n      0x20\n      add\n      dup1\n      dup4\n      gt\n      tag_76\n      jumpi\n      dup3\n      swap1\n      sub\n      0x1f\n      and\n      dup3\n      add\n      swap2\n    tag_74:\n      pop\n      pop\n      pop\n      pop\n      pop\n      dup2\n      mstore\n      0x20\n      add\n      0x04\n      dup3\n      add\n      dup1\n      sload\n      tag_77\n      swap1\n      tag_57\n      jump\t// in\n    tag_77:\n      dup1\n      0x1f\n      add\n      0x20\n      dup1\n      swap2\n      div\n      mul\n      0x20\n      add\n      mload(0x40)\n      swap1\n      dup2\n      add\n      0x40\n      mstore\n      dup1\n      swap3\n      swap2\n      swap1\n      dup2\n      dup2\n      mstore\n      0x20\n      add\n      dup3\n      dup1\n      sload\n      tag_78\n      swap1\n      tag_57\n      jump\t// in\n    tag_78:\n      dup1\n      iszero\n      tag_79\n      jumpi\n      dup1\n      0x1f\n      lt\n      tag_80\n      jumpi\n      0x0100\n      dup1\n      dup4\n      sload\n      div\n      mul\n      dup4\n      mstore\n      swap2\n      0x20\n      add\n      swap2\n      jump(tag_79)\n    tag_80:\n      dup3\n      add\n      swap2\n      swap1\n      0x00\n      mstore\n      keccak256(0x00, 0x20)\n      swap1\n    tag_81:\n      dup2\n      sload\n      dup2\n      mstore\n      swap1\n      0x01\n      add\n      swap1\n      0x20\n      add\n      dup1\n      dup4\n      gt\n      tag_81\n      jumpi\n      dup3\n      swap1\n      sub\n      0x1f\n      and\n      dup3\n      add\n      swap2\n    tag_79:\n      pop\n      pop\n      pop\n      pop\n      pop\n      dup2\n      mstore\n      0x20\n      add\n      0x05\n      dup3\n      add\n      sload\n      dup2\n      mstore\n      pop\n      pop\n        /* \"contracts/TransactionDetailContract.sol\":2747:2753  result */\n      dup4\n        /* \"contracts/TransactionDetailContract.sol\":2754:2759  index */\n      dup4\n        /* \"contracts/TransactionDetailContract.sol\":2747:2760  result[index] */\n      dup2\n      mload\n      dup2\n      lt\n      tag_82\n      jumpi\n      tag_83\n      tag_84\n      jump\t// in\n    tag_83:\n    tag_82:\n      0x20\n      mul\n      0x20\n      add\n      add\n        /* \"contracts/TransactionDetailContract.sol\":2747:2784  result[index] = transactionDetails[i] */\n      dup2\n      swap1\n      mstore\n      pop\n        /* \"contracts/TransactionDetailContract.sol\":2802:2809  index++ */\n      dup2\n      dup1\n      tag_85\n      swap1\n      tag_41\n      jump\t// in\n    tag_85:\n      swap3\n      pop\n      pop\n        /* \"contracts/TransactionDetailContract.sol\":2540:2824  if (... */\n    tag_55:\n        /* \"contracts/TransactionDetailContract.sol\":2521:2524  i++ */\n      dup1\n      dup1\n      tag_86\n      swap1\n      tag_41\n      jump\t// in\n    tag_86:\n      swap2\n      pop\n      pop\n        /* \"contracts/TransactionDetailContract.sol\":2475:2834  for (uint i = 1; i <= transactionDetailCount; i++) {... */\n      jump(tag_50)\n    tag_51:\n      pop\n        /* \"contracts/TransactionDetailContract.sol\":2850:2856  result */\n      dup2\n        /* \"contracts/TransactionDetailContract.sol\":2843:2856  return result */\n      swap4\n      pop\n      pop\n      pop\n      pop\n        /* \"contracts/TransactionDetailContract.sol\":1885:2863  function getTransactionDetailByTransactionCode(... */\n      swap2\n      swap1\n      pop\n      jump\t// out\n        /* \"contracts/TransactionDetailContract.sol\":308:368  mapping(uint => TransactionDetail) public transactionDetails */\n    tag_17:\n      mstore(0x20, 0x00)\n      dup1\n      0x00\n      mstore\n      keccak256(0x00, 0x40)\n      0x00\n      swap2\n      pop\n      swap1\n      pop\n      dup1\n      0x00\n      add\n      dup1\n      sload\n      tag_87\n      swap1\n      tag_57\n      jump\t// in\n    tag_87:\n      dup1\n      0x1f\n      add\n      0x20\n      dup1\n      swap2\n      div\n      mul\n      0x20\n      add\n      mload(0x40)\n      swap1\n      dup2\n      add\n      0x40\n      mstore\n      dup1\n      swap3\n      swap2\n      swap1\n      dup2\n      dup2\n      mstore\n      0x20\n      add\n      dup3\n      dup1\n      sload\n      tag_88\n      swap1\n      tag_57\n      jump\t// in\n    tag_88:\n      dup1\n      iszero\n      tag_89\n      jumpi\n      dup1\n      0x1f\n      lt\n      tag_90\n      jumpi\n      0x0100\n      dup1\n      dup4\n      sload\n      div\n      mul\n      dup4\n      mstore\n      swap2\n      0x20\n      add\n      swap2\n      jump(tag_89)\n    tag_90:\n      dup3\n      add\n      swap2\n      swap1\n      0x00\n      mstore\n      keccak256(0x00, 0x20)\n      swap1\n    tag_91:\n      dup2\n      sload\n      dup2\n      mstore\n      swap1\n      0x01\n      add\n      swap1\n      0x20\n      add\n      dup1\n      dup4\n      gt\n      tag_91\n      jumpi\n      dup3\n      swap1\n      sub\n      0x1f\n      and\n      dup3\n      add\n      swap2\n    tag_89:\n      pop\n      pop\n      pop\n      pop\n      pop\n      swap1\n      dup1\n      0x01\n      add\n      dup1\n      sload\n      tag_92\n      swap1\n      tag_57\n      jump\t// in\n    tag_92:\n      dup1\n      0x1f\n      add\n      0x20\n      dup1\n      swap2\n      div\n      mul\n      0x20\n      add\n      mload(0x40)\n      swap1\n      dup2\n      add\n      0x40\n      mstore\n      dup1\n      swap3\n      swap2\n      swap1\n      dup2\n      dup2\n      mstore\n      0x20\n      add\n      dup3\n      dup1\n      sload\n      tag_93\n      swap1\n      tag_57\n      jump\t// in\n    tag_93:\n      dup1\n      iszero\n      tag_94\n      jumpi\n      dup1\n      0x1f\n      lt\n      tag_95\n      jumpi\n      0x0100\n      dup1\n      dup4\n      sload\n      div\n      mul\n      dup4\n      mstore\n      swap2\n      0x20\n      add\n      swap2\n      jump(tag_94)\n    tag_95:\n      dup3\n      add\n      swap2\n      swap1\n      0x00\n      mstore\n      keccak256(0x00, 0x20)\n      swap1\n    tag_96:\n      dup2\n      sload\n      dup2\n      mstore\n      swap1\n      0x01\n      add\n      swap1\n      0x20\n      add\n      dup1\n      dup4\n      gt\n      tag_96\n      jumpi\n      dup3\n      swap1\n      sub\n      0x1f\n      and\n      dup3\n      add\n      swap2\n    tag_94:\n      pop\n      pop\n      pop\n      pop\n      pop\n      swap1\n      dup1\n      0x02\n      add\n      dup1\n      sload\n      tag_97\n      swap1\n      tag_57\n      jump\t// in\n    tag_97:\n      dup1\n      0x1f\n      add\n      0x20\n      dup1\n      swap2\n      div\n      mul\n      0x20\n      add\n      mload(0x40)\n      swap1\n      dup2\n      add\n      0x40\n      mstore\n      dup1\n      swap3\n      swap2\n      swap1\n      dup2\n      dup2\n      mstore\n      0x20\n      add\n      dup3\n      dup1\n      sload\n      tag_98\n      swap1\n      tag_57\n      jump\t// in\n    tag_98:\n      dup1\n      iszero\n      tag_99\n      jumpi\n      dup1\n      0x1f\n      lt\n      tag_100\n      jumpi\n      0x0100\n      dup1\n      dup4\n      sload\n      div\n      mul\n      dup4\n      mstore\n      swap2\n      0x20\n      add\n      swap2\n      jump(tag_99)\n    tag_100:\n      dup3\n      add\n      swap2\n      swap1\n      0x00\n      mstore\n      keccak256(0x00, 0x20)\n      swap1\n    tag_101:\n      dup2\n      sload\n      dup2\n      mstore\n      swap1\n      0x01\n      add\n      swap1\n      0x20\n      add\n      dup1\n      dup4\n      gt\n      tag_101\n      jumpi\n      dup3\n      swap1\n      sub\n      0x1f\n      and\n      dup3\n      add\n      swap2\n    tag_99:\n      pop\n      pop\n      pop\n      pop\n      pop\n      swap1\n      dup1\n      0x03\n      add\n      dup1\n      sload\n      tag_102\n      swap1\n      tag_57\n      jump\t// in\n    tag_102:\n      dup1\n      0x1f\n      add\n      0x20\n      dup1\n      swap2\n      div\n      mul\n      0x20\n      add\n      mload(0x40)\n      swap1\n      dup2\n      add\n      0x40\n      mstore\n      dup1\n      swap3\n      swap2\n      swap1\n      dup2\n      dup2\n      mstore\n      0x20\n      add\n      dup3\n      dup1\n      sload\n      tag_103\n      swap1\n      tag_57\n      jump\t// in\n    tag_103:\n      dup1\n      iszero\n      tag_104\n      jumpi\n      dup1\n      0x1f\n      lt\n      tag_105\n      jumpi\n      0x0100\n      dup1\n      dup4\n      sload\n      div\n      mul\n      dup4\n      mstore\n      swap2\n      0x20\n      add\n      swap2\n      jump(tag_104)\n    tag_105:\n      dup3\n      add\n      swap2\n      swap1\n      0x00\n      mstore\n      keccak256(0x00, 0x20)\n      swap1\n    tag_106:\n      dup2\n      sload\n      dup2\n      mstore\n      swap1\n      0x01\n      add\n      swap1\n      0x20\n      add\n      dup1\n      dup4\n      gt\n      tag_106\n      jumpi\n      dup3\n      swap1\n      sub\n      0x1f\n      and\n      dup3\n      add\n      swap2\n    tag_104:\n      pop\n      pop\n      pop\n      pop\n      pop\n      swap1\n      dup1\n      0x04\n      add\n      dup1\n      sload\n      tag_107\n      swap1\n      tag_57\n      jump\t// in\n    tag_107:\n      dup1\n      0x1f\n      add\n      0x20\n      dup1\n      swap2\n      div\n      mul\n      0x20\n      add\n      mload(0x40)\n      swap1\n      dup2\n      add\n      0x40\n      mstore\n      dup1\n      swap3\n      swap2\n      swap1\n      dup2\n      dup2\n      mstore\n      0x20\n      add\n      dup3\n      dup1\n      sload\n      tag_108\n      swap1\n      tag_57\n      jump\t// in\n    tag_108:\n      dup1\n      iszero\n      tag_109\n      jumpi\n      dup1\n      0x1f\n      lt\n      tag_110\n      jumpi\n      0x0100\n      dup1\n      dup4\n      sload\n      div\n      mul\n      dup4\n      mstore\n      swap2\n      0x20\n      add\n      swap2\n      jump(tag_109)\n    tag_110:\n      dup3\n      add\n      swap2\n      swap1\n      0x00\n      mstore\n      keccak256(0x00, 0x20)\n      swap1\n    tag_111:\n      dup2\n      sload\n      dup2\n      mstore\n      swap1\n      0x01\n      add\n      swap1\n      0x20\n      add\n      dup1\n      dup4\n      gt\n      tag_111\n      jumpi\n      dup3\n      swap1\n      sub\n      0x1f\n      and\n      dup3\n      add\n      swap2\n    tag_109:\n      pop\n      pop\n      pop\n      pop\n      pop\n      swap1\n      dup1\n      0x05\n      add\n      sload\n      swap1\n      pop\n      dup7\n      jump\t// out\n        /* \"contracts/TransactionDetailContract.sol\":415:1494  function addTransactionDetail(... */\n    tag_23:\n        /* \"contracts/TransactionDetailContract.sol\":748:760  _productName */\n      dup5\n        /* \"contracts/TransactionDetailContract.sol\":748:767  _productName.length */\n      mload\n        /* \"contracts/TransactionDetailContract.sol\":721:737  _transactionCode */\n      dup7\n        /* \"contracts/TransactionDetailContract.sol\":721:744  _transactionCode.length */\n      mload\n        /* \"contracts/TransactionDetailContract.sol\":721:767  _transactionCode.length == _productName.length */\n      eq\n        /* \"contracts/TransactionDetailContract.sol\":721:836  _transactionCode.length == _productName.length &&... */\n      dup1\n      iszero\n      tag_113\n      jumpi\n      pop\n        /* \"contracts/TransactionDetailContract.sol\":810:829  _productDescription */\n      dup4\n        /* \"contracts/TransactionDetailContract.sol\":810:836  _productDescription.length */\n      mload\n        /* \"contracts/TransactionDetailContract.sol\":787:799  _productName */\n      dup6\n        /* \"contracts/TransactionDetailContract.sol\":787:806  _productName.length */\n      mload\n        /* \"contracts/TransactionDetailContract.sol\":787:836  _productName.length == _productDescription.length */\n      eq\n        /* \"contracts/TransactionDetailContract.sol\":721:836  _transactionCode.length == _productName.length &&... */\n    tag_113:\n        /* \"contracts/TransactionDetailContract.sol\":721:908  _transactionCode.length == _productName.length &&... */\n      dup1\n      iszero\n      tag_114\n      jumpi\n      pop\n        /* \"contracts/TransactionDetailContract.sol\":886:901  _tokenOfProduct */\n      dup3\n        /* \"contracts/TransactionDetailContract.sol\":886:908  _tokenOfProduct.length */\n      mload\n        /* \"contracts/TransactionDetailContract.sol\":856:875  _productDescription */\n      dup5\n        /* \"contracts/TransactionDetailContract.sol\":856:882  _productDescription.length */\n      mload\n        /* \"contracts/TransactionDetailContract.sol\":856:908  _productDescription.length == _tokenOfProduct.length */\n      eq\n        /* \"contracts/TransactionDetailContract.sol\":721:908  _transactionCode.length == _productName.length &&... */\n    tag_114:\n        /* \"contracts/TransactionDetailContract.sol\":721:967  _transactionCode.length == _productName.length &&... */\n      dup1\n      iszero\n      tag_115\n      jumpi\n      pop\n        /* \"contracts/TransactionDetailContract.sol\":954:960  _price */\n      dup2\n        /* \"contracts/TransactionDetailContract.sol\":954:967  _price.length */\n      mload\n        /* \"contracts/TransactionDetailContract.sol\":928:943  _tokenOfProduct */\n      dup4\n        /* \"contracts/TransactionDetailContract.sol\":928:950  _tokenOfProduct.length */\n      mload\n        /* \"contracts/TransactionDetailContract.sol\":928:967  _tokenOfProduct.length == _price.length */\n      eq\n        /* \"contracts/TransactionDetailContract.sol\":721:967  _transactionCode.length == _productName.length &&... */\n    tag_115:\n        /* \"contracts/TransactionDetailContract.sol\":721:1021  _transactionCode.length == _productName.length &&... */\n      dup1\n      iszero\n      tag_116\n      jumpi\n      pop\n        /* \"contracts/TransactionDetailContract.sol\":1004:1014  _createdAt */\n      dup1\n        /* \"contracts/TransactionDetailContract.sol\":1004:1021  _createdAt.length */\n      mload\n        /* \"contracts/TransactionDetailContract.sol\":987:993  _price */\n      dup3\n        /* \"contracts/TransactionDetailContract.sol\":987:1000  _price.length */\n      mload\n        /* \"contracts/TransactionDetailContract.sol\":987:1021  _price.length == _createdAt.length */\n      eq\n        /* \"contracts/TransactionDetailContract.sol\":721:1021  _transactionCode.length == _productName.length &&... */\n    tag_116:\n        /* \"contracts/TransactionDetailContract.sol\":700:1083  require(... */\n      tag_117\n      jumpi\n      mload(0x40)\n      0x08c379a000000000000000000000000000000000000000000000000000000000\n      dup2\n      mstore\n      0x04\n      add\n      tag_118\n      swap1\n      tag_119\n      jump\t// in\n    tag_118:\n      mload(0x40)\n      dup1\n      swap2\n      sub\n      swap1\n      revert\n    tag_117:\n        /* \"contracts/TransactionDetailContract.sol\":1099:1105  uint i */\n      0x00\n        /* \"contracts/TransactionDetailContract.sol\":1094:1488  for (uint i = 0; i < _transactionCode.length; i++) {... */\n    tag_120:\n        /* \"contracts/TransactionDetailContract.sol\":1115:1131  _transactionCode */\n      dup7\n        /* \"contracts/TransactionDetailContract.sol\":1115:1138  _transactionCode.length */\n      mload\n        /* \"contracts/TransactionDetailContract.sol\":1111:1112  i */\n      dup2\n        /* \"contracts/TransactionDetailContract.sol\":1111:1138  i < _transactionCode.length */\n      lt\n        /* \"contracts/TransactionDetailContract.sol\":1094:1488  for (uint i = 0; i < _transactionCode.length; i++) {... */\n      iszero\n      tag_121\n      jumpi\n        /* \"contracts/TransactionDetailContract.sol\":1159:1181  transactionDetailCount */\n      0x01\n      0x00\n        /* \"contracts/TransactionDetailContract.sol\":1159:1183  transactionDetailCount++ */\n      dup2\n      sload\n      dup1\n      swap3\n      swap2\n      swap1\n      tag_123\n      swap1\n      tag_41\n      jump\t// in\n    tag_123:\n      swap2\n      swap1\n      pop\n      sstore\n      pop\n        /* \"contracts/TransactionDetailContract.sol\":1242:1477  TransactionDetail(... */\n      mload(0x40)\n      dup1\n      0xc0\n      add\n      0x40\n      mstore\n      dup1\n        /* \"contracts/TransactionDetailContract.sol\":1277:1293  _transactionCode */\n      dup9\n        /* \"contracts/TransactionDetailContract.sol\":1294:1295  i */\n      dup4\n        /* \"contracts/TransactionDetailContract.sol\":1277:1296  _transactionCode[i] */\n      dup2\n      mload\n      dup2\n      lt\n      tag_124\n      jumpi\n      tag_125\n      tag_84\n      jump\t// in\n    tag_125:\n    tag_124:\n      0x20\n      mul\n      0x20\n      add\n      add\n      mload\n        /* \"contracts/TransactionDetailContract.sol\":1242:1477  TransactionDetail(... */\n      dup2\n      mstore\n      0x20\n      add\n        /* \"contracts/TransactionDetailContract.sol\":1314:1326  _productName */\n      dup8\n        /* \"contracts/TransactionDetailContract.sol\":1327:1328  i */\n      dup4\n        /* \"contracts/TransactionDetailContract.sol\":1314:1329  _productName[i] */\n      dup2\n      mload\n      dup2\n      lt\n      tag_126\n      jumpi\n      tag_127\n      tag_84\n      jump\t// in\n    tag_127:\n    tag_126:\n      0x20\n      mul\n      0x20\n      add\n      add\n      mload\n        /* \"contracts/TransactionDetailContract.sol\":1242:1477  TransactionDetail(... */\n      dup2\n      mstore\n      0x20\n      add\n        /* \"contracts/TransactionDetailContract.sol\":1347:1366  _productDescription */\n      dup7\n        /* \"contracts/TransactionDetailContract.sol\":1367:1368  i */\n      dup4\n        /* \"contracts/TransactionDetailContract.sol\":1347:1369  _productDescription[i] */\n      dup2\n      mload\n      dup2\n      lt\n      tag_128\n      jumpi\n      tag_129\n      tag_84\n      jump\t// in\n    tag_129:\n    tag_128:\n      0x20\n      mul\n      0x20\n      add\n      add\n      mload\n        /* \"contracts/TransactionDetailContract.sol\":1242:1477  TransactionDetail(... */\n      dup2\n      mstore\n      0x20\n      add\n        /* \"contracts/TransactionDetailContract.sol\":1387:1402  _tokenOfProduct */\n      dup6\n        /* \"contracts/TransactionDetailContract.sol\":1403:1404  i */\n      dup4\n        /* \"contracts/TransactionDetailContract.sol\":1387:1405  _tokenOfProduct[i] */\n      dup2\n      mload\n      dup2\n      lt\n      tag_130\n      jumpi\n      tag_131\n      tag_84\n      jump\t// in\n    tag_131:\n    tag_130:\n      0x20\n      mul\n      0x20\n      add\n      add\n      mload\n        /* \"contracts/TransactionDetailContract.sol\":1242:1477  TransactionDetail(... */\n      dup2\n      mstore\n      0x20\n      add\n        /* \"contracts/TransactionDetailContract.sol\":1423:1429  _price */\n      dup5\n        /* \"contracts/TransactionDetailContract.sol\":1430:1431  i */\n      dup4\n        /* \"contracts/TransactionDetailContract.sol\":1423:1432  _price[i] */\n      dup2\n      mload\n      dup2\n      lt\n      tag_132\n      jumpi\n      tag_133\n      tag_84\n      jump\t// in\n    tag_133:\n    tag_132:\n      0x20\n      mul\n      0x20\n      add\n      add\n      mload\n        /* \"contracts/TransactionDetailContract.sol\":1242:1477  TransactionDetail(... */\n      dup2\n      mstore\n      0x20\n      add\n        /* \"contracts/TransactionDetailContract.sol\":1450:1460  _createdAt */\n      dup4\n        /* \"contracts/TransactionDetailContract.sol\":1461:1462  i */\n      dup4\n        /* \"contracts/TransactionDetailContract.sol\":1450:1463  _createdAt[i] */\n      dup2\n      mload\n      dup2\n      lt\n      tag_134\n      jumpi\n      tag_135\n      tag_84\n      jump\t// in\n    tag_135:\n    tag_134:\n      0x20\n      mul\n      0x20\n      add\n      add\n      mload\n        /* \"contracts/TransactionDetailContract.sol\":1242:1477  TransactionDetail(... */\n      dup2\n      mstore\n      pop\n        /* \"contracts/TransactionDetailContract.sol\":1197:1215  transactionDetails */\n      0x00\n        /* \"contracts/TransactionDetailContract.sol\":1197:1239  transactionDetails[transactionDetailCount] */\n      dup1\n        /* \"contracts/TransactionDetailContract.sol\":1216:1238  transactionDetailCount */\n      sload(0x01)\n        /* \"contracts/TransactionDetailContract.sol\":1197:1239  transactionDetails[transactionDetailCount] */\n      dup2\n      mstore\n      0x20\n      add\n      swap1\n      dup2\n      mstore\n      0x20\n      add\n      0x00\n      keccak256\n        /* \"contracts/TransactionDetailContract.sol\":1197:1477  transactionDetails[transactionDetailCount] = TransactionDetail(... */\n      0x00\n      dup3\n      add\n      mload\n      dup2\n      0x00\n      add\n      swap1\n      dup2\n      tag_136\n      swap2\n      swap1\n      tag_137\n      jump\t// in\n    tag_136:\n      pop\n      0x20\n      dup3\n      add\n      mload\n      dup2\n      0x01\n      add\n      swap1\n      dup2\n      tag_138\n      swap2\n      swap1\n      tag_137\n      jump\t// in\n    tag_138:\n      pop\n      0x40\n      dup3\n      add\n      mload\n      dup2\n      0x02\n      add\n      swap1\n      dup2\n      tag_139\n      swap2\n      swap1\n      tag_137\n      jump\t// in\n    tag_139:\n      pop\n      0x60\n      dup3\n      add\n      mload\n      dup2\n      0x03\n      add\n      swap1\n      dup2\n      tag_140\n      swap2\n      swap1\n      tag_137\n      jump\t// in\n    tag_140:\n      pop\n      0x80\n      dup3\n      add\n      mload\n      dup2\n      0x04\n      add\n      swap1\n      dup2\n      tag_141\n      swap2\n      swap1\n      tag_137\n      jump\t// in\n    tag_141:\n      pop\n      0xa0\n      dup3\n      add\n      mload\n      dup2\n      0x05\n      add\n      sstore\n      swap1\n      pop\n      pop\n        /* \"contracts/TransactionDetailContract.sol\":1140:1143  i++ */\n      dup1\n      dup1\n      tag_142\n      swap1\n      tag_41\n      jump\t// in\n    tag_142:\n      swap2\n      pop\n      pop\n        /* \"contracts/TransactionDetailContract.sol\":1094:1488  for (uint i = 0; i < _transactionCode.length; i++) {... */\n      jump(tag_120)\n    tag_121:\n      pop\n        /* \"contracts/TransactionDetailContract.sol\":415:1494  function addTransactionDetail(... */\n      pop\n      pop\n      pop\n      pop\n      pop\n      pop\n      jump\t// out\n        /* \"contracts/TransactionDetailContract.sol\":1500:1879  function getAllTransactionDetail()... */\n    tag_25:\n        /* \"contracts/TransactionDetailContract.sol\":1580:1606  TransactionDetail[] memory */\n      0x60\n        /* \"contracts/TransactionDetailContract.sol\":1622:1655  TransactionDetail[] memory result */\n      0x00\n        /* \"contracts/TransactionDetailContract.sol\":1695:1717  transactionDetailCount */\n      sload(0x01)\n        /* \"contracts/TransactionDetailContract.sol\":1658:1727  new TransactionDetail[](... */\n      0xffffffffffffffff\n      dup2\n      gt\n      iszero\n      tag_144\n      jumpi\n      tag_145\n      tag_45\n      jump\t// in\n    tag_145:\n    tag_144:\n      mload(0x40)\n      swap1\n      dup1\n      dup3\n      mstore\n      dup1\n      0x20\n      mul\n      0x20\n      add\n      dup3\n      add\n      0x40\n      mstore\n      dup1\n      iszero\n      tag_146\n      jumpi\n      dup2\n      0x20\n      add\n    tag_147:\n      tag_148\n      tag_49\n      jump\t// in\n    tag_148:\n      dup2\n      mstore\n      0x20\n      add\n      swap1\n      0x01\n      swap1\n      sub\n      swap1\n      dup2\n      tag_147\n      jumpi\n      swap1\n      pop\n    tag_146:\n      pop\n        /* \"contracts/TransactionDetailContract.sol\":1622:1727  TransactionDetail[] memory result = new TransactionDetail[](... */\n      swap1\n      pop\n        /* \"contracts/TransactionDetailContract.sol\":1742:1748  uint i */\n      0x00\n        /* \"contracts/TransactionDetailContract.sol\":1751:1752  1 */\n      0x01\n        /* \"contracts/TransactionDetailContract.sol\":1742:1752  uint i = 1 */\n      swap1\n      pop\n        /* \"contracts/TransactionDetailContract.sol\":1737:1850  for (uint i = 1; i <= transactionDetailCount; i++) {... */\n    tag_149:\n        /* \"contracts/TransactionDetailContract.sol\":1759:1781  transactionDetailCount */\n      sload(0x01)\n        /* \"contracts/TransactionDetailContract.sol\":1754:1755  i */\n      dup2\n        /* \"contracts/TransactionDetailContract.sol\":1754:1781  i <= transactionDetailCount */\n      gt\n        /* \"contracts/TransactionDetailContract.sol\":1737:1850  for (uint i = 1; i <= transactionDetailCount; i++) {... */\n      tag_150\n      jumpi\n        /* \"contracts/TransactionDetailContract.sol\":1818:1836  transactionDetails */\n      0x00\n        /* \"contracts/TransactionDetailContract.sol\":1818:1839  transactionDetails[i] */\n      dup1\n        /* \"contracts/TransactionDetailContract.sol\":1837:1838  i */\n      dup3\n        /* \"contracts/TransactionDetailContract.sol\":1818:1839  transactionDetails[i] */\n      dup2\n      mstore\n      0x20\n      add\n      swap1\n      dup2\n      mstore\n      0x20\n      add\n      0x00\n      keccak256\n        /* \"contracts/TransactionDetailContract.sol\":1802:1839  result[i - 1] = transactionDetails[i] */\n      mload(0x40)\n      dup1\n      0xc0\n      add\n      0x40\n      mstore\n      swap1\n      dup2\n      0x00\n      dup3\n      add\n      dup1\n      sload\n      tag_152\n      swap1\n      tag_57\n      jump\t// in\n    tag_152:\n      dup1\n      0x1f\n      add\n      0x20\n      dup1\n      swap2\n      div\n      mul\n      0x20\n      add\n      mload(0x40)\n      swap1\n      dup2\n      add\n      0x40\n      mstore\n      dup1\n      swap3\n      swap2\n      swap1\n      dup2\n      dup2\n      mstore\n      0x20\n      add\n      dup3\n      dup1\n      sload\n      tag_153\n      swap1\n      tag_57\n      jump\t// in\n    tag_153:\n      dup1\n      iszero\n      tag_154\n      jumpi\n      dup1\n      0x1f\n      lt\n      tag_155\n      jumpi\n      0x0100\n      dup1\n      dup4\n      sload\n      div\n      mul\n      dup4\n      mstore\n      swap2\n      0x20\n      add\n      swap2\n      jump(tag_154)\n    tag_155:\n      dup3\n      add\n      swap2\n      swap1\n      0x00\n      mstore\n      keccak256(0x00, 0x20)\n      swap1\n    tag_156:\n      dup2\n      sload\n      dup2\n      mstore\n      swap1\n      0x01\n      add\n      swap1\n      0x20\n      add\n      dup1\n      dup4\n      gt\n      tag_156\n      jumpi\n      dup3\n      swap1\n      sub\n      0x1f\n      and\n      dup3\n      add\n      swap2\n    tag_154:\n      pop\n      pop\n      pop\n      pop\n      pop\n      dup2\n      mstore\n      0x20\n      add\n      0x01\n      dup3\n      add\n      dup1\n      sload\n      tag_157\n      swap1\n      tag_57\n      jump\t// in\n    tag_157:\n      dup1\n      0x1f\n      add\n      0x20\n      dup1\n      swap2\n      div\n      mul\n      0x20\n      add\n      mload(0x40)\n      swap1\n      dup2\n      add\n      0x40\n      mstore\n      dup1\n      swap3\n      swap2\n      swap1\n      dup2\n      dup2\n      mstore\n      0x20\n      add\n      dup3\n      dup1\n      sload\n      tag_158\n      swap1\n      tag_57\n      jump\t// in\n    tag_158:\n      dup1\n      iszero\n      tag_159\n      jumpi\n      dup1\n      0x1f\n      lt\n      tag_160\n      jumpi\n      0x0100\n      dup1\n      dup4\n      sload\n      div\n      mul\n      dup4\n      mstore\n      swap2\n      0x20\n      add\n      swap2\n      jump(tag_159)\n    tag_160:\n      dup3\n      add\n      swap2\n      swap1\n      0x00\n      mstore\n      keccak256(0x00, 0x20)\n      swap1\n    tag_161:\n      dup2\n      sload\n      dup2\n      mstore\n      swap1\n      0x01\n      add\n      swap1\n      0x20\n      add\n      dup1\n      dup4\n      gt\n      tag_161\n      jumpi\n      dup3\n      swap1\n      sub\n      0x1f\n      and\n      dup3\n      add\n      swap2\n    tag_159:\n      pop\n      pop\n      pop\n      pop\n      pop\n      dup2\n      mstore\n      0x20\n      add\n      0x02\n      dup3\n      add\n      dup1\n      sload\n      tag_162\n      swap1\n      tag_57\n      jump\t// in\n    tag_162:\n      dup1\n      0x1f\n      add\n      0x20\n      dup1\n      swap2\n      div\n      mul\n      0x20\n      add\n      mload(0x40)\n      swap1\n      dup2\n      add\n      0x40\n      mstore\n      dup1\n      swap3\n      swap2\n      swap1\n      dup2\n      dup2\n      mstore\n      0x20\n      add\n      dup3\n      dup1\n      sload\n      tag_163\n      swap1\n      tag_57\n      jump\t// in\n    tag_163:\n      dup1\n      iszero\n      tag_164\n      jumpi\n      dup1\n      0x1f\n      lt\n      tag_165\n      jumpi\n      0x0100\n      dup1\n      dup4\n      sload\n      div\n      mul\n      dup4\n      mstore\n      swap2\n      0x20\n      add\n      swap2\n      jump(tag_164)\n    tag_165:\n      dup3\n      add\n      swap2\n      swap1\n      0x00\n      mstore\n      keccak256(0x00, 0x20)\n      swap1\n    tag_166:\n      dup2\n      sload\n      dup2\n      mstore\n      swap1\n      0x01\n      add\n      swap1\n      0x20\n      add\n      dup1\n      dup4\n      gt\n      tag_166\n      jumpi\n      dup3\n      swap1\n      sub\n      0x1f\n      and\n      dup3\n      add\n      swap2\n    tag_164:\n      pop\n      pop\n      pop\n      pop\n      pop\n      dup2\n      mstore\n      0x20\n      add\n      0x03\n      dup3\n      add\n      dup1\n      sload\n      tag_167\n      swap1\n      tag_57\n      jump\t// in\n    tag_167:\n      dup1\n      0x1f\n      add\n      0x20\n      dup1\n      swap2\n      div\n      mul\n      0x20\n      add\n      mload(0x40)\n      swap1\n      dup2\n      add\n      0x40\n      mstore\n      dup1\n      swap3\n      swap2\n      swap1\n      dup2\n      dup2\n      mstore\n      0x20\n      add\n      dup3\n      dup1\n      sload\n      tag_168\n      swap1\n      tag_57\n      jump\t// in\n    tag_168:\n      dup1\n      iszero\n      tag_169\n      jumpi\n      dup1\n      0x1f\n      lt\n      tag_170\n      jumpi\n      0x0100\n      dup1\n      dup4\n      sload\n      div\n      mul\n      dup4\n      mstore\n      swap2\n      0x20\n      add\n      swap2\n      jump(tag_169)\n    tag_170:\n      dup3\n      add\n      swap2\n      swap1\n      0x00\n      mstore\n      keccak256(0x00, 0x20)\n      swap1\n    tag_171:\n      dup2\n      sload\n      dup2\n      mstore\n      swap1\n      0x01\n      add\n      swap1\n      0x20\n      add\n      dup1\n      dup4\n      gt\n      tag_171\n      jumpi\n      dup3\n      swap1\n      sub\n      0x1f\n      and\n      dup3\n      add\n      swap2\n    tag_169:\n      pop\n      pop\n      pop\n      pop\n      pop\n      dup2\n      mstore\n      0x20\n      add\n      0x04\n      dup3\n      add\n      dup1\n      sload\n      tag_172\n      swap1\n      tag_57\n      jump\t// in\n    tag_172:\n      dup1\n      0x1f\n      add\n      0x20\n      dup1\n      swap2\n      div\n      mul\n      0x20\n      add\n      mload(0x40)\n      swap1\n      dup2\n      add\n      0x40\n      mstore\n      dup1\n      swap3\n      swap2\n      swap1\n      dup2\n      dup2\n      mstore\n      0x20\n      add\n      dup3\n      dup1\n      sload\n      tag_173\n      swap1\n      tag_57\n      jump\t// in\n    tag_173:\n      dup1\n      iszero\n      tag_174\n      jumpi\n      dup1\n      0x1f\n      lt\n      tag_175\n      jumpi\n      0x0100\n      dup1\n      dup4\n      sload\n      div\n      mul\n      dup4\n      mstore\n      swap2\n      0x20\n      add\n      swap2\n      jump(tag_174)\n    tag_175:\n      dup3\n      add\n      swap2\n      swap1\n      0x00\n      mstore\n      keccak256(0x00, 0x20)\n      swap1\n    tag_176:\n      dup2\n      sload\n      dup2\n      mstore\n      swap1\n      0x01\n      add\n      swap1\n      0x20\n      add\n      dup1\n      dup4\n      gt\n      tag_176\n      jumpi\n      dup3\n      swap1\n      sub\n      0x1f\n      and\n      dup3\n      add\n      swap2\n    tag_174:\n      pop\n      pop\n      pop\n      pop\n      pop\n      dup2\n      mstore\n      0x20\n      add\n      0x05\n      dup3\n      add\n      sload\n      dup2\n      mstore\n      pop\n      pop\n        /* \"contracts/TransactionDetailContract.sol\":1802:1808  result */\n      dup3\n        /* \"contracts/TransactionDetailContract.sol\":1813:1814  1 */\n      0x01\n        /* \"contracts/TransactionDetailContract.sol\":1809:1810  i */\n      dup4\n        /* \"contracts/TransactionDetailContract.sol\":1809:1814  i - 1 */\n      tag_177\n      swap2\n      swap1\n      tag_178\n      jump\t// in\n    tag_177:\n        /* \"contracts/TransactionDetailContract.sol\":1802:1815  result[i - 1] */\n      dup2\n      mload\n      dup2\n      lt\n      tag_179\n      jumpi\n      tag_180\n      tag_84\n      jump\t// in\n    tag_180:\n    tag_179:\n      0x20\n      mul\n      0x20\n      add\n      add\n        /* \"contracts/TransactionDetailContract.sol\":1802:1839  result[i - 1] = transactionDetails[i] */\n      dup2\n      swap1\n      mstore\n      pop\n        /* \"contracts/TransactionDetailContract.sol\":1783:1786  i++ */\n      dup1\n      dup1\n      tag_181\n      swap1\n      tag_41\n      jump\t// in\n    tag_181:\n      swap2\n      pop\n      pop\n        /* \"contracts/TransactionDetailContract.sol\":1737:1850  for (uint i = 1; i <= transactionDetailCount; i++) {... */\n      jump(tag_149)\n    tag_150:\n      pop\n        /* \"contracts/TransactionDetailContract.sol\":1866:1872  result */\n      dup1\n        /* \"contracts/TransactionDetailContract.sol\":1859:1872  return result */\n      swap2\n      pop\n      pop\n        /* \"contracts/TransactionDetailContract.sol\":1500:1879  function getAllTransactionDetail()... */\n      swap1\n      jump\t// out\n        /* \"contracts/TransactionDetailContract.sol\":374:408  uint public transactionDetailCount */\n    tag_28:\n      sload(0x01)\n      dup2\n      jump\t// out\n    tag_49:\n      mload(0x40)\n      dup1\n      0xc0\n      add\n      0x40\n      mstore\n      dup1\n      0x60\n      dup2\n      mstore\n      0x20\n      add\n      0x60\n      dup2\n      mstore\n      0x20\n      add\n      0x60\n      dup2\n      mstore\n      0x20\n      add\n      0x60\n      dup2\n      mstore\n      0x20\n      add\n      0x60\n      dup2\n      mstore\n      0x20\n      add\n      0x00\n      dup2\n      mstore\n      pop\n      swap1\n      jump\t// out\n        /* \"#utility.yul\":7:82   */\n    tag_182:\n        /* \"#utility.yul\":40:46   */\n      0x00\n        /* \"#utility.yul\":73:75   */\n      0x40\n        /* \"#utility.yul\":67:76   */\n      mload\n        /* \"#utility.yul\":57:76   */\n      swap1\n      pop\n        /* \"#utility.yul\":7:82   */\n      swap1\n      jump\t// out\n        /* \"#utility.yul\":88:205   */\n    tag_183:\n        /* \"#utility.yul\":197:198   */\n      0x00\n        /* \"#utility.yul\":194:195   */\n      dup1\n        /* \"#utility.yul\":187:199   */\n      revert\n        /* \"#utility.yul\":211:328   */\n    tag_184:\n        /* \"#utility.yul\":320:321   */\n      0x00\n        /* \"#utility.yul\":317:318   */\n      dup1\n        /* \"#utility.yul\":310:322   */\n      revert\n        /* \"#utility.yul\":334:451   */\n    tag_185:\n        /* \"#utility.yul\":443:444   */\n      0x00\n        /* \"#utility.yul\":440:441   */\n      dup1\n        /* \"#utility.yul\":433:445   */\n      revert\n        /* \"#utility.yul\":457:574   */\n    tag_186:\n        /* \"#utility.yul\":566:567   */\n      0x00\n        /* \"#utility.yul\":563:564   */\n      dup1\n        /* \"#utility.yul\":556:568   */\n      revert\n        /* \"#utility.yul\":580:682   */\n    tag_187:\n        /* \"#utility.yul\":621:627   */\n      0x00\n        /* \"#utility.yul\":672:674   */\n      0x1f\n        /* \"#utility.yul\":668:675   */\n      not\n        /* \"#utility.yul\":663:665   */\n      0x1f\n        /* \"#utility.yul\":656:661   */\n      dup4\n        /* \"#utility.yul\":652:666   */\n      add\n        /* \"#utility.yul\":648:676   */\n      and\n        /* \"#utility.yul\":638:676   */\n      swap1\n      pop\n        /* \"#utility.yul\":580:682   */\n      swap2\n      swap1\n      pop\n      jump\t// out\n        /* \"#utility.yul\":688:868   */\n    tag_45:\n        /* \"#utility.yul\":736:813   */\n      0x4e487b7100000000000000000000000000000000000000000000000000000000\n        /* \"#utility.yul\":733:734   */\n      0x00\n        /* \"#utility.yul\":726:814   */\n      mstore\n        /* \"#utility.yul\":833:837   */\n      0x41\n        /* \"#utility.yul\":830:831   */\n      0x04\n        /* \"#utility.yul\":823:838   */\n      mstore\n        /* \"#utility.yul\":857:861   */\n      0x24\n        /* \"#utility.yul\":854:855   */\n      0x00\n        /* \"#utility.yul\":847:862   */\n      revert\n        /* \"#utility.yul\":874:1155   */\n    tag_188:\n        /* \"#utility.yul\":957:984   */\n      tag_250\n        /* \"#utility.yul\":979:983   */\n      dup3\n        /* \"#utility.yul\":957:984   */\n      tag_187\n      jump\t// in\n    tag_250:\n        /* \"#utility.yul\":949:955   */\n      dup2\n        /* \"#utility.yul\":945:985   */\n      add\n        /* \"#utility.yul\":1087:1093   */\n      dup2\n        /* \"#utility.yul\":1075:1085   */\n      dup2\n        /* \"#utility.yul\":1072:1094   */\n      lt\n        /* \"#utility.yul\":1051:1069   */\n      0xffffffffffffffff\n        /* \"#utility.yul\":1039:1049   */\n      dup3\n        /* \"#utility.yul\":1036:1070   */\n      gt\n        /* \"#utility.yul\":1033:1095   */\n      or\n        /* \"#utility.yul\":1030:1118   */\n      iszero\n      tag_251\n      jumpi\n        /* \"#utility.yul\":1098:1116   */\n      tag_252\n      tag_45\n      jump\t// in\n    tag_252:\n        /* \"#utility.yul\":1030:1118   */\n    tag_251:\n        /* \"#utility.yul\":1138:1148   */\n      dup1\n        /* \"#utility.yul\":1134:1136   */\n      0x40\n        /* \"#utility.yul\":1127:1149   */\n      mstore\n        /* \"#utility.yul\":917:1155   */\n      pop\n        /* \"#utility.yul\":874:1155   */\n      pop\n      pop\n      jump\t// out\n        /* \"#utility.yul\":1161:1290   */\n    tag_189:\n        /* \"#utility.yul\":1195:1201   */\n      0x00\n        /* \"#utility.yul\":1222:1242   */\n      tag_254\n      tag_182\n      jump\t// in\n    tag_254:\n        /* \"#utility.yul\":1212:1242   */\n      swap1\n      pop\n        /* \"#utility.yul\":1251:1284   */\n      tag_255\n        /* \"#utility.yul\":1279:1283   */\n      dup3\n        /* \"#utility.yul\":1271:1277   */\n      dup3\n        /* \"#utility.yul\":1251:1284   */\n      tag_188\n      jump\t// in\n    tag_255:\n        /* \"#utility.yul\":1161:1290   */\n      swap2\n      swap1\n      pop\n      jump\t// out\n        /* \"#utility.yul\":1296:1604   */\n    tag_190:\n        /* \"#utility.yul\":1358:1362   */\n      0x00\n        /* \"#utility.yul\":1448:1466   */\n      0xffffffffffffffff\n        /* \"#utility.yul\":1440:1446   */\n      dup3\n        /* \"#utility.yul\":1437:1467   */\n      gt\n        /* \"#utility.yul\":1434:1490   */\n      iszero\n      tag_257\n      jumpi\n        /* \"#utility.yul\":1470:1488   */\n      tag_258\n      tag_45\n      jump\t// in\n    tag_258:\n        /* \"#utility.yul\":1434:1490   */\n    tag_257:\n        /* \"#utility.yul\":1508:1537   */\n      tag_259\n        /* \"#utility.yul\":1530:1536   */\n      dup3\n        /* \"#utility.yul\":1508:1537   */\n      tag_187\n      jump\t// in\n    tag_259:\n        /* \"#utility.yul\":1500:1537   */\n      swap1\n      pop\n        /* \"#utility.yul\":1592:1596   */\n      0x20\n        /* \"#utility.yul\":1586:1590   */\n      dup2\n        /* \"#utility.yul\":1582:1597   */\n      add\n        /* \"#utility.yul\":1574:1597   */\n      swap1\n      pop\n        /* \"#utility.yul\":1296:1604   */\n      swap2\n      swap1\n      pop\n      jump\t// out\n        /* \"#utility.yul\":1610:1756   */\n    tag_191:\n        /* \"#utility.yul\":1707:1713   */\n      dup3\n        /* \"#utility.yul\":1702:1705   */\n      dup2\n        /* \"#utility.yul\":1697:1700   */\n      dup4\n        /* \"#utility.yul\":1684:1714   */\n      calldatacopy\n        /* \"#utility.yul\":1748:1749   */\n      0x00\n        /* \"#utility.yul\":1739:1745   */\n      dup4\n        /* \"#utility.yul\":1734:1737   */\n      dup4\n        /* \"#utility.yul\":1730:1746   */\n      add\n        /* \"#utility.yul\":1723:1750   */\n      mstore\n        /* \"#utility.yul\":1610:1756   */\n      pop\n      pop\n      pop\n      jump\t// out\n        /* \"#utility.yul\":1762:2187   */\n    tag_192:\n        /* \"#utility.yul\":1840:1845   */\n      0x00\n        /* \"#utility.yul\":1865:1931   */\n      tag_262\n        /* \"#utility.yul\":1881:1930   */\n      tag_263\n        /* \"#utility.yul\":1923:1929   */\n      dup5\n        /* \"#utility.yul\":1881:1930   */\n      tag_190\n      jump\t// in\n    tag_263:\n        /* \"#utility.yul\":1865:1931   */\n      tag_189\n      jump\t// in\n    tag_262:\n        /* \"#utility.yul\":1856:1931   */\n      swap1\n      pop\n        /* \"#utility.yul\":1954:1960   */\n      dup3\n        /* \"#utility.yul\":1947:1952   */\n      dup2\n        /* \"#utility.yul\":1940:1961   */\n      mstore\n        /* \"#utility.yul\":1992:1996   */\n      0x20\n        /* \"#utility.yul\":1985:1990   */\n      dup2\n        /* \"#utility.yul\":1981:1997   */\n      add\n        /* \"#utility.yul\":2030:2033   */\n      dup5\n        /* \"#utility.yul\":2021:2027   */\n      dup5\n        /* \"#utility.yul\":2016:2019   */\n      dup5\n        /* \"#utility.yul\":2012:2028   */\n      add\n        /* \"#utility.yul\":2009:2034   */\n      gt\n        /* \"#utility.yul\":2006:2118   */\n      iszero\n      tag_264\n      jumpi\n        /* \"#utility.yul\":2037:2116   */\n      tag_265\n      tag_186\n      jump\t// in\n    tag_265:\n        /* \"#utility.yul\":2006:2118   */\n    tag_264:\n        /* \"#utility.yul\":2127:2181   */\n      tag_266\n        /* \"#utility.yul\":2174:2180   */\n      dup5\n        /* \"#utility.yul\":2169:2172   */\n      dup3\n        /* \"#utility.yul\":2164:2167   */\n      dup6\n        /* \"#utility.yul\":2127:2181   */\n      tag_191\n      jump\t// in\n    tag_266:\n        /* \"#utility.yul\":1846:2187   */\n      pop\n        /* \"#utility.yul\":1762:2187   */\n      swap4\n      swap3\n      pop\n      pop\n      pop\n      jump\t// out\n        /* \"#utility.yul\":2207:2547   */\n    tag_193:\n        /* \"#utility.yul\":2263:2268   */\n      0x00\n        /* \"#utility.yul\":2312:2315   */\n      dup3\n        /* \"#utility.yul\":2305:2309   */\n      0x1f\n        /* \"#utility.yul\":2297:2303   */\n      dup4\n        /* \"#utility.yul\":2293:2310   */\n      add\n        /* \"#utility.yul\":2289:2316   */\n      slt\n        /* \"#utility.yul\":2279:2401   */\n      tag_268\n      jumpi\n        /* \"#utility.yul\":2320:2399   */\n      tag_269\n      tag_185\n      jump\t// in\n    tag_269:\n        /* \"#utility.yul\":2279:2401   */\n    tag_268:\n        /* \"#utility.yul\":2437:2443   */\n      dup2\n        /* \"#utility.yul\":2424:2444   */\n      calldataload\n        /* \"#utility.yul\":2462:2541   */\n      tag_270\n        /* \"#utility.yul\":2537:2540   */\n      dup5\n        /* \"#utility.yul\":2529:2535   */\n      dup3\n        /* \"#utility.yul\":2522:2526   */\n      0x20\n        /* \"#utility.yul\":2514:2520   */\n      dup7\n        /* \"#utility.yul\":2510:2527   */\n      add\n        /* \"#utility.yul\":2462:2541   */\n      tag_192\n      jump\t// in\n    tag_270:\n        /* \"#utility.yul\":2453:2541   */\n      swap2\n      pop\n        /* \"#utility.yul\":2269:2547   */\n      pop\n        /* \"#utility.yul\":2207:2547   */\n      swap3\n      swap2\n      pop\n      pop\n      jump\t// out\n        /* \"#utility.yul\":2553:3062   */\n    tag_10:\n        /* \"#utility.yul\":2622:2628   */\n      0x00\n        /* \"#utility.yul\":2671:2673   */\n      0x20\n        /* \"#utility.yul\":2659:2668   */\n      dup3\n        /* \"#utility.yul\":2650:2657   */\n      dup5\n        /* \"#utility.yul\":2646:2669   */\n      sub\n        /* \"#utility.yul\":2642:2674   */\n      slt\n        /* \"#utility.yul\":2639:2758   */\n      iszero\n      tag_272\n      jumpi\n        /* \"#utility.yul\":2677:2756   */\n      tag_273\n      tag_183\n      jump\t// in\n    tag_273:\n        /* \"#utility.yul\":2639:2758   */\n    tag_272:\n        /* \"#utility.yul\":2825:2826   */\n      0x00\n        /* \"#utility.yul\":2814:2823   */\n      dup3\n        /* \"#utility.yul\":2810:2827   */\n      add\n        /* \"#utility.yul\":2797:2828   */\n      calldataload\n        /* \"#utility.yul\":2855:2873   */\n      0xffffffffffffffff\n        /* \"#utility.yul\":2847:2853   */\n      dup2\n        /* \"#utility.yul\":2844:2874   */\n      gt\n        /* \"#utility.yul\":2841:2958   */\n      iszero\n      tag_274\n      jumpi\n        /* \"#utility.yul\":2877:2956   */\n      tag_275\n      tag_184\n      jump\t// in\n    tag_275:\n        /* \"#utility.yul\":2841:2958   */\n    tag_274:\n        /* \"#utility.yul\":2982:3045   */\n      tag_276\n        /* \"#utility.yul\":3037:3044   */\n      dup5\n        /* \"#utility.yul\":3028:3034   */\n      dup3\n        /* \"#utility.yul\":3017:3026   */\n      dup6\n        /* \"#utility.yul\":3013:3035   */\n      add\n        /* \"#utility.yul\":2982:3045   */\n      tag_193\n      jump\t// in\n    tag_276:\n        /* \"#utility.yul\":2972:3045   */\n      swap2\n      pop\n        /* \"#utility.yul\":2768:3055   */\n      pop\n        /* \"#utility.yul\":2553:3062   */\n      swap3\n      swap2\n      pop\n      pop\n      jump\t// out\n        /* \"#utility.yul\":3068:3215   */\n    tag_194:\n        /* \"#utility.yul\":3168:3174   */\n      0x00\n        /* \"#utility.yul\":3202:3207   */\n      dup2\n        /* \"#utility.yul\":3196:3208   */\n      mload\n        /* \"#utility.yul\":3186:3208   */\n      swap1\n      pop\n        /* \"#utility.yul\":3068:3215   */\n      swap2\n      swap1\n      pop\n      jump\t// out\n        /* \"#utility.yul\":3221:3438   */\n    tag_195:\n        /* \"#utility.yul\":3353:3364   */\n      0x00\n        /* \"#utility.yul\":3387:3393   */\n      dup3\n        /* \"#utility.yul\":3382:3385   */\n      dup3\n        /* \"#utility.yul\":3375:3394   */\n      mstore\n        /* \"#utility.yul\":3427:3431   */\n      0x20\n        /* \"#utility.yul\":3422:3425   */\n      dup3\n        /* \"#utility.yul\":3418:3432   */\n      add\n        /* \"#utility.yul\":3403:3432   */\n      swap1\n      pop\n        /* \"#utility.yul\":3221:3438   */\n      swap3\n      swap2\n      pop\n      pop\n      jump\t// out\n        /* \"#utility.yul\":3444:3609   */\n    tag_196:\n        /* \"#utility.yul\":3544:3548   */\n      0x00\n        /* \"#utility.yul\":3567:3570   */\n      dup2\n        /* \"#utility.yul\":3559:3570   */\n      swap1\n      pop\n        /* \"#utility.yul\":3597:3601   */\n      0x20\n        /* \"#utility.yul\":3592:3595   */\n      dup3\n        /* \"#utility.yul\":3588:3602   */\n      add\n        /* \"#utility.yul\":3580:3602   */\n      swap1\n      pop\n        /* \"#utility.yul\":3444:3609   */\n      swap2\n      swap1\n      pop\n      jump\t// out\n        /* \"#utility.yul\":3615:3714   */\n    tag_197:\n        /* \"#utility.yul\":3667:3673   */\n      0x00\n        /* \"#utility.yul\":3701:3706   */\n      dup2\n        /* \"#utility.yul\":3695:3707   */\n      mload\n        /* \"#utility.yul\":3685:3707   */\n      swap1\n      pop\n        /* \"#utility.yul\":3615:3714   */\n      swap2\n      swap1\n      pop\n      jump\t// out\n        /* \"#utility.yul\":3720:3879   */\n    tag_198:\n        /* \"#utility.yul\":3794:3805   */\n      0x00\n        /* \"#utility.yul\":3828:3834   */\n      dup3\n        /* \"#utility.yul\":3823:3826   */\n      dup3\n        /* \"#utility.yul\":3816:3835   */\n      mstore\n        /* \"#utility.yul\":3868:3872   */\n      0x20\n        /* \"#utility.yul\":3863:3866   */\n      dup3\n        /* \"#utility.yul\":3859:3873   */\n      add\n        /* \"#utility.yul\":3844:3873   */\n      swap1\n      pop\n        /* \"#utility.yul\":3720:3879   */\n      swap3\n      swap2\n      pop\n      pop\n      jump\t// out\n        /* \"#utility.yul\":3885:4131   */\n    tag_199:\n        /* \"#utility.yul\":3966:3967   */\n      0x00\n        /* \"#utility.yul\":3976:4089   */\n    tag_283:\n        /* \"#utility.yul\":3990:3996   */\n      dup4\n        /* \"#utility.yul\":3987:3988   */\n      dup2\n        /* \"#utility.yul\":3984:3997   */\n      lt\n        /* \"#utility.yul\":3976:4089   */\n      iszero\n      tag_285\n      jumpi\n        /* \"#utility.yul\":4075:4076   */\n      dup1\n        /* \"#utility.yul\":4070:4073   */\n      dup3\n        /* \"#utility.yul\":4066:4077   */\n      add\n        /* \"#utility.yul\":4060:4078   */\n      mload\n        /* \"#utility.yul\":4056:4057   */\n      dup2\n        /* \"#utility.yul\":4051:4054   */\n      dup5\n        /* \"#utility.yul\":4047:4058   */\n      add\n        /* \"#utility.yul\":4040:4079   */\n      mstore\n        /* \"#utility.yul\":4012:4014   */\n      0x20\n        /* \"#utility.yul\":4009:4010   */\n      dup2\n        /* \"#utility.yul\":4005:4015   */\n      add\n        /* \"#utility.yul\":4000:4015   */\n      swap1\n      pop\n        /* \"#utility.yul\":3976:4089   */\n      jump(tag_283)\n    tag_285:\n        /* \"#utility.yul\":4123:4124   */\n      0x00\n        /* \"#utility.yul\":4114:4120   */\n      dup5\n        /* \"#utility.yul\":4109:4112   */\n      dup5\n        /* \"#utility.yul\":4105:4121   */\n      add\n        /* \"#utility.yul\":4098:4125   */\n      mstore\n        /* \"#utility.yul\":3947:4131   */\n      pop\n        /* \"#utility.yul\":3885:4131   */\n      pop\n      pop\n      pop\n      jump\t// out\n        /* \"#utility.yul\":4137:4494   */\n    tag_200:\n        /* \"#utility.yul\":4215:4218   */\n      0x00\n        /* \"#utility.yul\":4243:4282   */\n      tag_287\n        /* \"#utility.yul\":4276:4281   */\n      dup3\n        /* \"#utility.yul\":4243:4282   */\n      tag_197\n      jump\t// in\n    tag_287:\n        /* \"#utility.yul\":4298:4359   */\n      tag_288\n        /* \"#utility.yul\":4352:4358   */\n      dup2\n        /* \"#utility.yul\":4347:4350   */\n      dup6\n        /* \"#utility.yul\":4298:4359   */\n      tag_198\n      jump\t// in\n    tag_288:\n        /* \"#utility.yul\":4291:4359   */\n      swap4\n      pop\n        /* \"#utility.yul\":4368:4433   */\n      tag_289\n        /* \"#utility.yul\":4426:4432   */\n      dup2\n        /* \"#utility.yul\":4421:4424   */\n      dup6\n        /* \"#utility.yul\":4414:4418   */\n      0x20\n        /* \"#utility.yul\":4407:4412   */\n      dup7\n        /* \"#utility.yul\":4403:4419   */\n      add\n        /* \"#utility.yul\":4368:4433   */\n      tag_199\n      jump\t// in\n    tag_289:\n        /* \"#utility.yul\":4458:4487   */\n      tag_290\n        /* \"#utility.yul\":4480:4486   */\n      dup2\n        /* \"#utility.yul\":4458:4487   */\n      tag_187\n      jump\t// in\n    tag_290:\n        /* \"#utility.yul\":4453:4456   */\n      dup5\n        /* \"#utility.yul\":4449:4488   */\n      add\n        /* \"#utility.yul\":4442:4488   */\n      swap2\n      pop\n        /* \"#utility.yul\":4219:4494   */\n      pop\n        /* \"#utility.yul\":4137:4494   */\n      swap3\n      swap2\n      pop\n      pop\n      jump\t// out\n        /* \"#utility.yul\":4500:4577   */\n    tag_201:\n        /* \"#utility.yul\":4537:4544   */\n      0x00\n        /* \"#utility.yul\":4566:4571   */\n      dup2\n        /* \"#utility.yul\":4555:4571   */\n      swap1\n      pop\n        /* \"#utility.yul\":4500:4577   */\n      swap2\n      swap1\n      pop\n      jump\t// out\n        /* \"#utility.yul\":4583:4691   */\n    tag_202:\n        /* \"#utility.yul\":4660:4684   */\n      tag_293\n        /* \"#utility.yul\":4678:4683   */\n      dup2\n        /* \"#utility.yul\":4660:4684   */\n      tag_201\n      jump\t// in\n    tag_293:\n        /* \"#utility.yul\":4655:4658   */\n      dup3\n        /* \"#utility.yul\":4648:4685   */\n      mstore\n        /* \"#utility.yul\":4583:4691   */\n      pop\n      pop\n      jump\t// out\n        /* \"#utility.yul\":4809:6449   */\n    tag_203:\n        /* \"#utility.yul\":4934:4937   */\n      0x00\n        /* \"#utility.yul\":4970:4974   */\n      0xc0\n        /* \"#utility.yul\":4965:4968   */\n      dup4\n        /* \"#utility.yul\":4961:4975   */\n      add\n        /* \"#utility.yul\":5068:5072   */\n      0x00\n        /* \"#utility.yul\":5061:5066   */\n      dup4\n        /* \"#utility.yul\":5057:5073   */\n      add\n        /* \"#utility.yul\":5051:5074   */\n      mload\n        /* \"#utility.yul\":5121:5124   */\n      dup5\n        /* \"#utility.yul\":5115:5119   */\n      dup3\n        /* \"#utility.yul\":5111:5125   */\n      sub\n        /* \"#utility.yul\":5104:5108   */\n      0x00\n        /* \"#utility.yul\":5099:5102   */\n      dup7\n        /* \"#utility.yul\":5095:5109   */\n      add\n        /* \"#utility.yul\":5088:5126   */\n      mstore\n        /* \"#utility.yul\":5147:5220   */\n      tag_295\n        /* \"#utility.yul\":5215:5219   */\n      dup3\n        /* \"#utility.yul\":5201:5213   */\n      dup3\n        /* \"#utility.yul\":5147:5220   */\n      tag_200\n      jump\t// in\n    tag_295:\n        /* \"#utility.yul\":5139:5220   */\n      swap2\n      pop\n        /* \"#utility.yul\":4985:5231   */\n      pop\n        /* \"#utility.yul\":5320:5324   */\n      0x20\n        /* \"#utility.yul\":5313:5318   */\n      dup4\n        /* \"#utility.yul\":5309:5325   */\n      add\n        /* \"#utility.yul\":5303:5326   */\n      mload\n        /* \"#utility.yul\":5373:5376   */\n      dup5\n        /* \"#utility.yul\":5367:5371   */\n      dup3\n        /* \"#utility.yul\":5363:5377   */\n      sub\n        /* \"#utility.yul\":5356:5360   */\n      0x20\n        /* \"#utility.yul\":5351:5354   */\n      dup7\n        /* \"#utility.yul\":5347:5361   */\n      add\n        /* \"#utility.yul\":5340:5378   */\n      mstore\n        /* \"#utility.yul\":5399:5472   */\n      tag_296\n        /* \"#utility.yul\":5467:5471   */\n      dup3\n        /* \"#utility.yul\":5453:5465   */\n      dup3\n        /* \"#utility.yul\":5399:5472   */\n      tag_200\n      jump\t// in\n    tag_296:\n        /* \"#utility.yul\":5391:5472   */\n      swap2\n      pop\n        /* \"#utility.yul\":5241:5483   */\n      pop\n        /* \"#utility.yul\":5579:5583   */\n      0x40\n        /* \"#utility.yul\":5572:5577   */\n      dup4\n        /* \"#utility.yul\":5568:5584   */\n      add\n        /* \"#utility.yul\":5562:5585   */\n      mload\n        /* \"#utility.yul\":5632:5635   */\n      dup5\n        /* \"#utility.yul\":5626:5630   */\n      dup3\n        /* \"#utility.yul\":5622:5636   */\n      sub\n        /* \"#utility.yul\":5615:5619   */\n      0x40\n        /* \"#utility.yul\":5610:5613   */\n      dup7\n        /* \"#utility.yul\":5606:5620   */\n      add\n        /* \"#utility.yul\":5599:5637   */\n      mstore\n        /* \"#utility.yul\":5658:5731   */\n      tag_297\n        /* \"#utility.yul\":5726:5730   */\n      dup3\n        /* \"#utility.yul\":5712:5724   */\n      dup3\n        /* \"#utility.yul\":5658:5731   */\n      tag_200\n      jump\t// in\n    tag_297:\n        /* \"#utility.yul\":5650:5731   */\n      swap2\n      pop\n        /* \"#utility.yul\":5493:5742   */\n      pop\n        /* \"#utility.yul\":5834:5838   */\n      0x60\n        /* \"#utility.yul\":5827:5832   */\n      dup4\n        /* \"#utility.yul\":5823:5839   */\n      add\n        /* \"#utility.yul\":5817:5840   */\n      mload\n        /* \"#utility.yul\":5887:5890   */\n      dup5\n        /* \"#utility.yul\":5881:5885   */\n      dup3\n        /* \"#utility.yul\":5877:5891   */\n      sub\n        /* \"#utility.yul\":5870:5874   */\n      0x60\n        /* \"#utility.yul\":5865:5868   */\n      dup7\n        /* \"#utility.yul\":5861:5875   */\n      add\n        /* \"#utility.yul\":5854:5892   */\n      mstore\n        /* \"#utility.yul\":5913:5986   */\n      tag_298\n        /* \"#utility.yul\":5981:5985   */\n      dup3\n        /* \"#utility.yul\":5967:5979   */\n      dup3\n        /* \"#utility.yul\":5913:5986   */\n      tag_200\n      jump\t// in\n    tag_298:\n        /* \"#utility.yul\":5905:5986   */\n      swap2\n      pop\n        /* \"#utility.yul\":5752:5997   */\n      pop\n        /* \"#utility.yul\":6080:6084   */\n      0x80\n        /* \"#utility.yul\":6073:6078   */\n      dup4\n        /* \"#utility.yul\":6069:6085   */\n      add\n        /* \"#utility.yul\":6063:6086   */\n      mload\n        /* \"#utility.yul\":6133:6136   */\n      dup5\n        /* \"#utility.yul\":6127:6131   */\n      dup3\n        /* \"#utility.yul\":6123:6137   */\n      sub\n        /* \"#utility.yul\":6116:6120   */\n      0x80\n        /* \"#utility.yul\":6111:6114   */\n      dup7\n        /* \"#utility.yul\":6107:6121   */\n      add\n        /* \"#utility.yul\":6100:6138   */\n      mstore\n        /* \"#utility.yul\":6159:6232   */\n      tag_299\n        /* \"#utility.yul\":6227:6231   */\n      dup3\n        /* \"#utility.yul\":6213:6225   */\n      dup3\n        /* \"#utility.yul\":6159:6232   */\n      tag_200\n      jump\t// in\n    tag_299:\n        /* \"#utility.yul\":6151:6232   */\n      swap2\n      pop\n        /* \"#utility.yul\":6007:6243   */\n      pop\n        /* \"#utility.yul\":6330:6334   */\n      0xa0\n        /* \"#utility.yul\":6323:6328   */\n      dup4\n        /* \"#utility.yul\":6319:6335   */\n      add\n        /* \"#utility.yul\":6313:6336   */\n      mload\n        /* \"#utility.yul\":6349:6412   */\n      tag_300\n        /* \"#utility.yul\":6406:6410   */\n      0xa0\n        /* \"#utility.yul\":6401:6404   */\n      dup7\n        /* \"#utility.yul\":6397:6411   */\n      add\n        /* \"#utility.yul\":6383:6395   */\n      dup3\n        /* \"#utility.yul\":6349:6412   */\n      tag_202\n      jump\t// in\n    tag_300:\n        /* \"#utility.yul\":6253:6422   */\n      pop\n        /* \"#utility.yul\":6439:6443   */\n      dup1\n        /* \"#utility.yul\":6432:6443   */\n      swap2\n      pop\n        /* \"#utility.yul\":4939:6449   */\n      pop\n        /* \"#utility.yul\":4809:6449   */\n      swap3\n      swap2\n      pop\n      pop\n      jump\t// out\n        /* \"#utility.yul\":6455:6743   */\n    tag_204:\n        /* \"#utility.yul\":6590:6600   */\n      0x00\n        /* \"#utility.yul\":6625:6737   */\n      tag_302\n        /* \"#utility.yul\":6733:6736   */\n      dup4\n        /* \"#utility.yul\":6725:6731   */\n      dup4\n        /* \"#utility.yul\":6625:6737   */\n      tag_203\n      jump\t// in\n    tag_302:\n        /* \"#utility.yul\":6611:6737   */\n      swap1\n      pop\n        /* \"#utility.yul\":6455:6743   */\n      swap3\n      swap2\n      pop\n      pop\n      jump\t// out\n        /* \"#utility.yul\":6749:6895   */\n    tag_205:\n        /* \"#utility.yul\":6852:6856   */\n      0x00\n        /* \"#utility.yul\":6884:6888   */\n      0x20\n        /* \"#utility.yul\":6879:6882   */\n      dup3\n        /* \"#utility.yul\":6875:6889   */\n      add\n        /* \"#utility.yul\":6867:6889   */\n      swap1\n      pop\n        /* \"#utility.yul\":6749:6895   */\n      swap2\n      swap1\n      pop\n      jump\t// out\n        /* \"#utility.yul\":7017:8192   */\n    tag_206:\n        /* \"#utility.yul\":7202:7205   */\n      0x00\n        /* \"#utility.yul\":7231:7318   */\n      tag_305\n        /* \"#utility.yul\":7312:7317   */\n      dup3\n        /* \"#utility.yul\":7231:7318   */\n      tag_194\n      jump\t// in\n    tag_305:\n        /* \"#utility.yul\":7334:7453   */\n      tag_306\n        /* \"#utility.yul\":7446:7452   */\n      dup2\n        /* \"#utility.yul\":7441:7444   */\n      dup6\n        /* \"#utility.yul\":7334:7453   */\n      tag_195\n      jump\t// in\n    tag_306:\n        /* \"#utility.yul\":7327:7453   */\n      swap4\n      pop\n        /* \"#utility.yul\":7479:7482   */\n      dup4\n        /* \"#utility.yul\":7524:7528   */\n      0x20\n        /* \"#utility.yul\":7516:7522   */\n      dup3\n        /* \"#utility.yul\":7512:7529   */\n      mul\n        /* \"#utility.yul\":7507:7510   */\n      dup6\n        /* \"#utility.yul\":7503:7530   */\n      add\n        /* \"#utility.yul\":7554:7643   */\n      tag_307\n        /* \"#utility.yul\":7637:7642   */\n      dup6\n        /* \"#utility.yul\":7554:7643   */\n      tag_196\n      jump\t// in\n    tag_307:\n        /* \"#utility.yul\":7666:7673   */\n      dup1\n        /* \"#utility.yul\":7697:7698   */\n      0x00\n        /* \"#utility.yul\":7682:8147   */\n    tag_308:\n        /* \"#utility.yul\":7707:7713   */\n      dup6\n        /* \"#utility.yul\":7704:7705   */\n      dup2\n        /* \"#utility.yul\":7701:7714   */\n      lt\n        /* \"#utility.yul\":7682:8147   */\n      iszero\n      tag_310\n      jumpi\n        /* \"#utility.yul\":7778:7787   */\n      dup5\n        /* \"#utility.yul\":7772:7776   */\n      dup5\n        /* \"#utility.yul\":7768:7788   */\n      sub\n        /* \"#utility.yul\":7763:7766   */\n      dup10\n        /* \"#utility.yul\":7756:7789   */\n      mstore\n        /* \"#utility.yul\":7829:7835   */\n      dup2\n        /* \"#utility.yul\":7823:7836   */\n      mload\n        /* \"#utility.yul\":7857:7987   */\n      tag_311\n        /* \"#utility.yul\":7982:7986   */\n      dup6\n        /* \"#utility.yul\":7967:7980   */\n      dup3\n        /* \"#utility.yul\":7857:7987   */\n      tag_204\n      jump\t// in\n    tag_311:\n        /* \"#utility.yul\":7849:7987   */\n      swap5\n      pop\n        /* \"#utility.yul\":8010:8103   */\n      tag_312\n        /* \"#utility.yul\":8096:8102   */\n      dup4\n        /* \"#utility.yul\":8010:8103   */\n      tag_205\n      jump\t// in\n    tag_312:\n        /* \"#utility.yul\":8000:8103   */\n      swap3\n      pop\n        /* \"#utility.yul\":8132:8136   */\n      0x20\n        /* \"#utility.yul\":8127:8130   */\n      dup11\n        /* \"#utility.yul\":8123:8137   */\n      add\n        /* \"#utility.yul\":8116:8137   */\n      swap10\n      pop\n        /* \"#utility.yul\":7742:8147   */\n      pop\n        /* \"#utility.yul\":7729:7730   */\n      0x01\n        /* \"#utility.yul\":7726:7727   */\n      dup2\n        /* \"#utility.yul\":7722:7731   */\n      add\n        /* \"#utility.yul\":7717:7731   */\n      swap1\n      pop\n        /* \"#utility.yul\":7682:8147   */\n      jump(tag_308)\n    tag_310:\n        /* \"#utility.yul\":7686:7700   */\n      pop\n        /* \"#utility.yul\":8163:8167   */\n      dup3\n        /* \"#utility.yul\":8156:8167   */\n      swap8\n      pop\n        /* \"#utility.yul\":8183:8186   */\n      dup8\n        /* \"#utility.yul\":8176:8186   */\n      swap6\n      pop\n        /* \"#utility.yul\":7207:8192   */\n      pop\n      pop\n      pop\n      pop\n      pop\n        /* \"#utility.yul\":7017:8192   */\n      swap3\n      swap2\n      pop\n      pop\n      jump\t// out\n        /* \"#utility.yul\":8198:8703   */\n    tag_13:\n        /* \"#utility.yul\":8407:8411   */\n      0x00\n        /* \"#utility.yul\":8445:8447   */\n      0x20\n        /* \"#utility.yul\":8434:8443   */\n      dup3\n        /* \"#utility.yul\":8430:8448   */\n      add\n        /* \"#utility.yul\":8422:8448   */\n      swap1\n      pop\n        /* \"#utility.yul\":8494:8503   */\n      dup2\n        /* \"#utility.yul\":8488:8492   */\n      dup2\n        /* \"#utility.yul\":8484:8504   */\n      sub\n        /* \"#utility.yul\":8480:8481   */\n      0x00\n        /* \"#utility.yul\":8469:8478   */\n      dup4\n        /* \"#utility.yul\":8465:8482   */\n      add\n        /* \"#utility.yul\":8458:8505   */\n      mstore\n        /* \"#utility.yul\":8522:8696   */\n      tag_314\n        /* \"#utility.yul\":8691:8695   */\n      dup2\n        /* \"#utility.yul\":8682:8688   */\n      dup5\n        /* \"#utility.yul\":8522:8696   */\n      tag_206\n      jump\t// in\n    tag_314:\n        /* \"#utility.yul\":8514:8696   */\n      swap1\n      pop\n        /* \"#utility.yul\":8198:8703   */\n      swap3\n      swap2\n      pop\n      pop\n      jump\t// out\n        /* \"#utility.yul\":8709:8831   */\n    tag_207:\n        /* \"#utility.yul\":8782:8806   */\n      tag_316\n        /* \"#utility.yul\":8800:8805   */\n      dup2\n        /* \"#utility.yul\":8782:8806   */\n      tag_201\n      jump\t// in\n    tag_316:\n        /* \"#utility.yul\":8775:8780   */\n      dup2\n        /* \"#utility.yul\":8772:8807   */\n      eq\n        /* \"#utility.yul\":8762:8825   */\n      tag_317\n      jumpi\n        /* \"#utility.yul\":8821:8822   */\n      0x00\n        /* \"#utility.yul\":8818:8819   */\n      dup1\n        /* \"#utility.yul\":8811:8823   */\n      revert\n        /* \"#utility.yul\":8762:8825   */\n    tag_317:\n        /* \"#utility.yul\":8709:8831   */\n      pop\n      jump\t// out\n        /* \"#utility.yul\":8837:8976   */\n    tag_208:\n        /* \"#utility.yul\":8883:8888   */\n      0x00\n        /* \"#utility.yul\":8921:8927   */\n      dup2\n        /* \"#utility.yul\":8908:8928   */\n      calldataload\n        /* \"#utility.yul\":8899:8928   */\n      swap1\n      pop\n        /* \"#utility.yul\":8937:8970   */\n      tag_319\n        /* \"#utility.yul\":8964:8969   */\n      dup2\n        /* \"#utility.yul\":8937:8970   */\n      tag_207\n      jump\t// in\n    tag_319:\n        /* \"#utility.yul\":8837:8976   */\n      swap3\n      swap2\n      pop\n      pop\n      jump\t// out\n        /* \"#utility.yul\":8982:9311   */\n    tag_16:\n        /* \"#utility.yul\":9041:9047   */\n      0x00\n        /* \"#utility.yul\":9090:9092   */\n      0x20\n        /* \"#utility.yul\":9078:9087   */\n      dup3\n        /* \"#utility.yul\":9069:9076   */\n      dup5\n        /* \"#utility.yul\":9065:9088   */\n      sub\n        /* \"#utility.yul\":9061:9093   */\n      slt\n        /* \"#utility.yul\":9058:9177   */\n      iszero\n      tag_321\n      jumpi\n        /* \"#utility.yul\":9096:9175   */\n      tag_322\n      tag_183\n      jump\t// in\n    tag_322:\n        /* \"#utility.yul\":9058:9177   */\n    tag_321:\n        /* \"#utility.yul\":9216:9217   */\n      0x00\n        /* \"#utility.yul\":9241:9294   */\n      tag_323\n        /* \"#utility.yul\":9286:9293   */\n      dup5\n        /* \"#utility.yul\":9277:9283   */\n      dup3\n        /* \"#utility.yul\":9266:9275   */\n      dup6\n        /* \"#utility.yul\":9262:9284   */\n      add\n        /* \"#utility.yul\":9241:9294   */\n      tag_208\n      jump\t// in\n    tag_323:\n        /* \"#utility.yul\":9231:9294   */\n      swap2\n      pop\n        /* \"#utility.yul\":9187:9304   */\n      pop\n        /* \"#utility.yul\":8982:9311   */\n      swap3\n      swap2\n      pop\n      pop\n      jump\t// out\n        /* \"#utility.yul\":9317:9486   */\n    tag_209:\n        /* \"#utility.yul\":9401:9412   */\n      0x00\n        /* \"#utility.yul\":9435:9441   */\n      dup3\n        /* \"#utility.yul\":9430:9433   */\n      dup3\n        /* \"#utility.yul\":9423:9442   */\n      mstore\n        /* \"#utility.yul\":9475:9479   */\n      0x20\n        /* \"#utility.yul\":9470:9473   */\n      dup3\n        /* \"#utility.yul\":9466:9480   */\n      add\n        /* \"#utility.yul\":9451:9480   */\n      swap1\n      pop\n        /* \"#utility.yul\":9317:9486   */\n      swap3\n      swap2\n      pop\n      pop\n      jump\t// out\n        /* \"#utility.yul\":9492:9869   */\n    tag_210:\n        /* \"#utility.yul\":9580:9583   */\n      0x00\n        /* \"#utility.yul\":9608:9647   */\n      tag_326\n        /* \"#utility.yul\":9641:9646   */\n      dup3\n        /* \"#utility.yul\":9608:9647   */\n      tag_197\n      jump\t// in\n    tag_326:\n        /* \"#utility.yul\":9663:9734   */\n      tag_327\n        /* \"#utility.yul\":9727:9733   */\n      dup2\n        /* \"#utility.yul\":9722:9725   */\n      dup6\n        /* \"#utility.yul\":9663:9734   */\n      tag_209\n      jump\t// in\n    tag_327:\n        /* \"#utility.yul\":9656:9734   */\n      swap4\n      pop\n        /* \"#utility.yul\":9743:9808   */\n      tag_328\n        /* \"#utility.yul\":9801:9807   */\n      dup2\n        /* \"#utility.yul\":9796:9799   */\n      dup6\n        /* \"#utility.yul\":9789:9793   */\n      0x20\n        /* \"#utility.yul\":9782:9787   */\n      dup7\n        /* \"#utility.yul\":9778:9794   */\n      add\n        /* \"#utility.yul\":9743:9808   */\n      tag_199\n      jump\t// in\n    tag_328:\n        /* \"#utility.yul\":9833:9862   */\n      tag_329\n        /* \"#utility.yul\":9855:9861   */\n      dup2\n        /* \"#utility.yul\":9833:9862   */\n      tag_187\n      jump\t// in\n    tag_329:\n        /* \"#utility.yul\":9828:9831   */\n      dup5\n        /* \"#utility.yul\":9824:9863   */\n      add\n        /* \"#utility.yul\":9817:9863   */\n      swap2\n      pop\n        /* \"#utility.yul\":9584:9869   */\n      pop\n        /* \"#utility.yul\":9492:9869   */\n      swap3\n      swap2\n      pop\n      pop\n      jump\t// out\n        /* \"#utility.yul\":9875:9993   */\n    tag_211:\n        /* \"#utility.yul\":9962:9986   */\n      tag_331\n        /* \"#utility.yul\":9980:9985   */\n      dup2\n        /* \"#utility.yul\":9962:9986   */\n      tag_201\n      jump\t// in\n    tag_331:\n        /* \"#utility.yul\":9957:9960   */\n      dup3\n        /* \"#utility.yul\":9950:9987   */\n      mstore\n        /* \"#utility.yul\":9875:9993   */\n      pop\n      pop\n      jump\t// out\n        /* \"#utility.yul\":9999:11229   */\n    tag_19:\n        /* \"#utility.yul\":10332:10336   */\n      0x00\n        /* \"#utility.yul\":10370:10373   */\n      0xc0\n        /* \"#utility.yul\":10359:10368   */\n      dup3\n        /* \"#utility.yul\":10355:10374   */\n      add\n        /* \"#utility.yul\":10347:10374   */\n      swap1\n      pop\n        /* \"#utility.yul\":10420:10429   */\n      dup2\n        /* \"#utility.yul\":10414:10418   */\n      dup2\n        /* \"#utility.yul\":10410:10430   */\n      sub\n        /* \"#utility.yul\":10406:10407   */\n      0x00\n        /* \"#utility.yul\":10395:10404   */\n      dup4\n        /* \"#utility.yul\":10391:10408   */\n      add\n        /* \"#utility.yul\":10384:10431   */\n      mstore\n        /* \"#utility.yul\":10448:10526   */\n      tag_333\n        /* \"#utility.yul\":10521:10525   */\n      dup2\n        /* \"#utility.yul\":10512:10518   */\n      dup10\n        /* \"#utility.yul\":10448:10526   */\n      tag_210\n      jump\t// in\n    tag_333:\n        /* \"#utility.yul\":10440:10526   */\n      swap1\n      pop\n        /* \"#utility.yul\":10573:10582   */\n      dup2\n        /* \"#utility.yul\":10567:10571   */\n      dup2\n        /* \"#utility.yul\":10563:10583   */\n      sub\n        /* \"#utility.yul\":10558:10560   */\n      0x20\n        /* \"#utility.yul\":10547:10556   */\n      dup4\n        /* \"#utility.yul\":10543:10561   */\n      add\n        /* \"#utility.yul\":10536:10584   */\n      mstore\n        /* \"#utility.yul\":10601:10679   */\n      tag_334\n        /* \"#utility.yul\":10674:10678   */\n      dup2\n        /* \"#utility.yul\":10665:10671   */\n      dup9\n        /* \"#utility.yul\":10601:10679   */\n      tag_210\n      jump\t// in\n    tag_334:\n        /* \"#utility.yul\":10593:10679   */\n      swap1\n      pop\n        /* \"#utility.yul\":10726:10735   */\n      dup2\n        /* \"#utility.yul\":10720:10724   */\n      dup2\n        /* \"#utility.yul\":10716:10736   */\n      sub\n        /* \"#utility.yul\":10711:10713   */\n      0x40\n        /* \"#utility.yul\":10700:10709   */\n      dup4\n        /* \"#utility.yul\":10696:10714   */\n      add\n        /* \"#utility.yul\":10689:10737   */\n      mstore\n        /* \"#utility.yul\":10754:10832   */\n      tag_335\n        /* \"#utility.yul\":10827:10831   */\n      dup2\n        /* \"#utility.yul\":10818:10824   */\n      dup8\n        /* \"#utility.yul\":10754:10832   */\n      tag_210\n      jump\t// in\n    tag_335:\n        /* \"#utility.yul\":10746:10832   */\n      swap1\n      pop\n        /* \"#utility.yul\":10879:10888   */\n      dup2\n        /* \"#utility.yul\":10873:10877   */\n      dup2\n        /* \"#utility.yul\":10869:10889   */\n      sub\n        /* \"#utility.yul\":10864:10866   */\n      0x60\n        /* \"#utility.yul\":10853:10862   */\n      dup4\n        /* \"#utility.yul\":10849:10867   */\n      add\n        /* \"#utility.yul\":10842:10890   */\n      mstore\n        /* \"#utility.yul\":10907:10985   */\n      tag_336\n        /* \"#utility.yul\":10980:10984   */\n      dup2\n        /* \"#utility.yul\":10971:10977   */\n      dup7\n        /* \"#utility.yul\":10907:10985   */\n      tag_210\n      jump\t// in\n    tag_336:\n        /* \"#utility.yul\":10899:10985   */\n      swap1\n      pop\n        /* \"#utility.yul\":11033:11042   */\n      dup2\n        /* \"#utility.yul\":11027:11031   */\n      dup2\n        /* \"#utility.yul\":11023:11043   */\n      sub\n        /* \"#utility.yul\":11017:11020   */\n      0x80\n        /* \"#utility.yul\":11006:11015   */\n      dup4\n        /* \"#utility.yul\":11002:11021   */\n      add\n        /* \"#utility.yul\":10995:11044   */\n      mstore\n        /* \"#utility.yul\":11061:11139   */\n      tag_337\n        /* \"#utility.yul\":11134:11138   */\n      dup2\n        /* \"#utility.yul\":11125:11131   */\n      dup6\n        /* \"#utility.yul\":11061:11139   */\n      tag_210\n      jump\t// in\n    tag_337:\n        /* \"#utility.yul\":11053:11139   */\n      swap1\n      pop\n        /* \"#utility.yul\":11149:11222   */\n      tag_338\n        /* \"#utility.yul\":11217:11220   */\n      0xa0\n        /* \"#utility.yul\":11206:11215   */\n      dup4\n        /* \"#utility.yul\":11202:11221   */\n      add\n        /* \"#utility.yul\":11193:11199   */\n      dup5\n        /* \"#utility.yul\":11149:11222   */\n      tag_211\n      jump\t// in\n    tag_338:\n        /* \"#utility.yul\":9999:11229   */\n      swap8\n      swap7\n      pop\n      pop\n      pop\n      pop\n      pop\n      pop\n      pop\n      jump\t// out\n        /* \"#utility.yul\":11235:11556   */\n    tag_212:\n        /* \"#utility.yul\":11322:11326   */\n      0x00\n        /* \"#utility.yul\":11412:11430   */\n      0xffffffffffffffff\n        /* \"#utility.yul\":11404:11410   */\n      dup3\n        /* \"#utility.yul\":11401:11431   */\n      gt\n        /* \"#utility.yul\":11398:11454   */\n      iszero\n      tag_340\n      jumpi\n        /* \"#utility.yul\":11434:11452   */\n      tag_341\n      tag_45\n      jump\t// in\n    tag_341:\n        /* \"#utility.yul\":11398:11454   */\n    tag_340:\n        /* \"#utility.yul\":11484:11488   */\n      0x20\n        /* \"#utility.yul\":11476:11482   */\n      dup3\n        /* \"#utility.yul\":11472:11489   */\n      mul\n        /* \"#utility.yul\":11464:11489   */\n      swap1\n      pop\n        /* \"#utility.yul\":11544:11548   */\n      0x20\n        /* \"#utility.yul\":11538:11542   */\n      dup2\n        /* \"#utility.yul\":11534:11549   */\n      add\n        /* \"#utility.yul\":11526:11549   */\n      swap1\n      pop\n        /* \"#utility.yul\":11235:11556   */\n      swap2\n      swap1\n      pop\n      jump\t// out\n        /* \"#utility.yul\":11562:11679   */\n    tag_213:\n        /* \"#utility.yul\":11671:11672   */\n      0x00\n        /* \"#utility.yul\":11668:11669   */\n      dup1\n        /* \"#utility.yul\":11661:11673   */\n      revert\n        /* \"#utility.yul\":11701:12646   */\n    tag_214:\n        /* \"#utility.yul\":11807:11812   */\n      0x00\n        /* \"#utility.yul\":11832:11923   */\n      tag_344\n        /* \"#utility.yul\":11848:11922   */\n      tag_345\n        /* \"#utility.yul\":11915:11921   */\n      dup5\n        /* \"#utility.yul\":11848:11922   */\n      tag_212\n      jump\t// in\n    tag_345:\n        /* \"#utility.yul\":11832:11923   */\n      tag_189\n      jump\t// in\n    tag_344:\n        /* \"#utility.yul\":11823:11923   */\n      swap1\n      pop\n        /* \"#utility.yul\":11943:11948   */\n      dup1\n        /* \"#utility.yul\":11972:11978   */\n      dup4\n        /* \"#utility.yul\":11965:11970   */\n      dup3\n        /* \"#utility.yul\":11958:11979   */\n      mstore\n        /* \"#utility.yul\":12006:12010   */\n      0x20\n        /* \"#utility.yul\":11999:12004   */\n      dup3\n        /* \"#utility.yul\":11995:12011   */\n      add\n        /* \"#utility.yul\":11988:12011   */\n      swap1\n      pop\n        /* \"#utility.yul\":12059:12063   */\n      0x20\n        /* \"#utility.yul\":12051:12057   */\n      dup5\n        /* \"#utility.yul\":12047:12064   */\n      mul\n        /* \"#utility.yul\":12039:12045   */\n      dup4\n        /* \"#utility.yul\":12035:12065   */\n      add\n        /* \"#utility.yul\":12088:12091   */\n      dup6\n        /* \"#utility.yul\":12080:12086   */\n      dup2\n        /* \"#utility.yul\":12077:12092   */\n      gt\n        /* \"#utility.yul\":12074:12196   */\n      iszero\n      tag_346\n      jumpi\n        /* \"#utility.yul\":12107:12186   */\n      tag_347\n      tag_213\n      jump\t// in\n    tag_347:\n        /* \"#utility.yul\":12074:12196   */\n    tag_346:\n        /* \"#utility.yul\":12222:12228   */\n      dup4\n        /* \"#utility.yul\":12205:12640   */\n    tag_348:\n        /* \"#utility.yul\":12239:12245   */\n      dup2\n        /* \"#utility.yul\":12234:12237   */\n      dup2\n        /* \"#utility.yul\":12231:12246   */\n      lt\n        /* \"#utility.yul\":12205:12640   */\n      iszero\n      tag_350\n      jumpi\n        /* \"#utility.yul\":12328:12331   */\n      dup1\n        /* \"#utility.yul\":12315:12332   */\n      calldataload\n        /* \"#utility.yul\":12364:12382   */\n      0xffffffffffffffff\n        /* \"#utility.yul\":12351:12362   */\n      dup2\n        /* \"#utility.yul\":12348:12383   */\n      gt\n        /* \"#utility.yul\":12345:12467   */\n      iszero\n      tag_351\n      jumpi\n        /* \"#utility.yul\":12386:12465   */\n      tag_352\n      tag_185\n      jump\t// in\n    tag_352:\n        /* \"#utility.yul\":12345:12467   */\n    tag_351:\n        /* \"#utility.yul\":12510:12521   */\n      dup1\n        /* \"#utility.yul\":12502:12508   */\n      dup7\n        /* \"#utility.yul\":12498:12522   */\n      add\n        /* \"#utility.yul\":12548:12595   */\n      tag_353\n        /* \"#utility.yul\":12591:12594   */\n      dup10\n        /* \"#utility.yul\":12579:12589   */\n      dup3\n        /* \"#utility.yul\":12548:12595   */\n      tag_193\n      jump\t// in\n    tag_353:\n        /* \"#utility.yul\":12543:12546   */\n      dup6\n        /* \"#utility.yul\":12536:12596   */\n      mstore\n        /* \"#utility.yul\":12625:12629   */\n      0x20\n        /* \"#utility.yul\":12620:12623   */\n      dup6\n        /* \"#utility.yul\":12616:12630   */\n      add\n        /* \"#utility.yul\":12609:12630   */\n      swap5\n      pop\n        /* \"#utility.yul\":12281:12640   */\n      pop\n      pop\n        /* \"#utility.yul\":12265:12269   */\n      0x20\n        /* \"#utility.yul\":12260:12263   */\n      dup2\n        /* \"#utility.yul\":12256:12270   */\n      add\n        /* \"#utility.yul\":12249:12270   */\n      swap1\n      pop\n        /* \"#utility.yul\":12205:12640   */\n      jump(tag_348)\n    tag_350:\n        /* \"#utility.yul\":12209:12230   */\n      pop\n        /* \"#utility.yul\":11813:12646   */\n      pop\n      pop\n        /* \"#utility.yul\":11701:12646   */\n      swap4\n      swap3\n      pop\n      pop\n      pop\n      jump\t// out\n        /* \"#utility.yul\":12668:13058   */\n    tag_215:\n        /* \"#utility.yul\":12749:12754   */\n      0x00\n        /* \"#utility.yul\":12798:12801   */\n      dup3\n        /* \"#utility.yul\":12791:12795   */\n      0x1f\n        /* \"#utility.yul\":12783:12789   */\n      dup4\n        /* \"#utility.yul\":12779:12796   */\n      add\n        /* \"#utility.yul\":12775:12802   */\n      slt\n        /* \"#utility.yul\":12765:12887   */\n      tag_355\n      jumpi\n        /* \"#utility.yul\":12806:12885   */\n      tag_356\n      tag_185\n      jump\t// in\n    tag_356:\n        /* \"#utility.yul\":12765:12887   */\n    tag_355:\n        /* \"#utility.yul\":12923:12929   */\n      dup2\n        /* \"#utility.yul\":12910:12930   */\n      calldataload\n        /* \"#utility.yul\":12948:13052   */\n      tag_357\n        /* \"#utility.yul\":13048:13051   */\n      dup5\n        /* \"#utility.yul\":13040:13046   */\n      dup3\n        /* \"#utility.yul\":13033:13037   */\n      0x20\n        /* \"#utility.yul\":13025:13031   */\n      dup7\n        /* \"#utility.yul\":13021:13038   */\n      add\n        /* \"#utility.yul\":12948:13052   */\n      tag_214\n      jump\t// in\n    tag_357:\n        /* \"#utility.yul\":12939:13052   */\n      swap2\n      pop\n        /* \"#utility.yul\":12755:13058   */\n      pop\n        /* \"#utility.yul\":12668:13058   */\n      swap3\n      swap2\n      pop\n      pop\n      jump\t// out\n        /* \"#utility.yul\":13064:13375   */\n    tag_216:\n        /* \"#utility.yul\":13141:13145   */\n      0x00\n        /* \"#utility.yul\":13231:13249   */\n      0xffffffffffffffff\n        /* \"#utility.yul\":13223:13229   */\n      dup3\n        /* \"#utility.yul\":13220:13250   */\n      gt\n        /* \"#utility.yul\":13217:13273   */\n      iszero\n      tag_359\n      jumpi\n        /* \"#utility.yul\":13253:13271   */\n      tag_360\n      tag_45\n      jump\t// in\n    tag_360:\n        /* \"#utility.yul\":13217:13273   */\n    tag_359:\n        /* \"#utility.yul\":13303:13307   */\n      0x20\n        /* \"#utility.yul\":13295:13301   */\n      dup3\n        /* \"#utility.yul\":13291:13308   */\n      mul\n        /* \"#utility.yul\":13283:13308   */\n      swap1\n      pop\n        /* \"#utility.yul\":13363:13367   */\n      0x20\n        /* \"#utility.yul\":13357:13361   */\n      dup2\n        /* \"#utility.yul\":13353:13368   */\n      add\n        /* \"#utility.yul\":13345:13368   */\n      swap1\n      pop\n        /* \"#utility.yul\":13064:13375   */\n      swap2\n      swap1\n      pop\n      jump\t// out\n        /* \"#utility.yul\":13398:14108   */\n    tag_217:\n        /* \"#utility.yul\":13494:13499   */\n      0x00\n        /* \"#utility.yul\":13519:13600   */\n      tag_362\n        /* \"#utility.yul\":13535:13599   */\n      tag_363\n        /* \"#utility.yul\":13592:13598   */\n      dup5\n        /* \"#utility.yul\":13535:13599   */\n      tag_216\n      jump\t// in\n    tag_363:\n        /* \"#utility.yul\":13519:13600   */\n      tag_189\n      jump\t// in\n    tag_362:\n        /* \"#utility.yul\":13510:13600   */\n      swap1\n      pop\n        /* \"#utility.yul\":13620:13625   */\n      dup1\n        /* \"#utility.yul\":13649:13655   */\n      dup4\n        /* \"#utility.yul\":13642:13647   */\n      dup3\n        /* \"#utility.yul\":13635:13656   */\n      mstore\n        /* \"#utility.yul\":13683:13687   */\n      0x20\n        /* \"#utility.yul\":13676:13681   */\n      dup3\n        /* \"#utility.yul\":13672:13688   */\n      add\n        /* \"#utility.yul\":13665:13688   */\n      swap1\n      pop\n        /* \"#utility.yul\":13736:13740   */\n      0x20\n        /* \"#utility.yul\":13728:13734   */\n      dup5\n        /* \"#utility.yul\":13724:13741   */\n      mul\n        /* \"#utility.yul\":13716:13722   */\n      dup4\n        /* \"#utility.yul\":13712:13742   */\n      add\n        /* \"#utility.yul\":13765:13768   */\n      dup6\n        /* \"#utility.yul\":13757:13763   */\n      dup2\n        /* \"#utility.yul\":13754:13769   */\n      gt\n        /* \"#utility.yul\":13751:13873   */\n      iszero\n      tag_364\n      jumpi\n        /* \"#utility.yul\":13784:13863   */\n      tag_365\n      tag_213\n      jump\t// in\n    tag_365:\n        /* \"#utility.yul\":13751:13873   */\n    tag_364:\n        /* \"#utility.yul\":13899:13905   */\n      dup4\n        /* \"#utility.yul\":13882:14102   */\n    tag_366:\n        /* \"#utility.yul\":13916:13922   */\n      dup2\n        /* \"#utility.yul\":13911:13914   */\n      dup2\n        /* \"#utility.yul\":13908:13923   */\n      lt\n        /* \"#utility.yul\":13882:14102   */\n      iszero\n      tag_368\n      jumpi\n        /* \"#utility.yul\":13991:13994   */\n      dup1\n        /* \"#utility.yul\":14020:14057   */\n      tag_369\n        /* \"#utility.yul\":14053:14056   */\n      dup9\n        /* \"#utility.yul\":14041:14051   */\n      dup3\n        /* \"#utility.yul\":14020:14057   */\n      tag_208\n      jump\t// in\n    tag_369:\n        /* \"#utility.yul\":14015:14018   */\n      dup5\n        /* \"#utility.yul\":14008:14058   */\n      mstore\n        /* \"#utility.yul\":14087:14091   */\n      0x20\n        /* \"#utility.yul\":14082:14085   */\n      dup5\n        /* \"#utility.yul\":14078:14092   */\n      add\n        /* \"#utility.yul\":14071:14092   */\n      swap4\n      pop\n        /* \"#utility.yul\":13958:14102   */\n      pop\n        /* \"#utility.yul\":13942:13946   */\n      0x20\n        /* \"#utility.yul\":13937:13940   */\n      dup2\n        /* \"#utility.yul\":13933:13947   */\n      add\n        /* \"#utility.yul\":13926:13947   */\n      swap1\n      pop\n        /* \"#utility.yul\":13882:14102   */\n      jump(tag_366)\n    tag_368:\n        /* \"#utility.yul\":13886:13907   */\n      pop\n        /* \"#utility.yul\":13500:14108   */\n      pop\n      pop\n        /* \"#utility.yul\":13398:14108   */\n      swap4\n      swap3\n      pop\n      pop\n      pop\n      jump\t// out\n        /* \"#utility.yul\":14131:14501   */\n    tag_218:\n        /* \"#utility.yul\":14202:14207   */\n      0x00\n        /* \"#utility.yul\":14251:14254   */\n      dup3\n        /* \"#utility.yul\":14244:14248   */\n      0x1f\n        /* \"#utility.yul\":14236:14242   */\n      dup4\n        /* \"#utility.yul\":14232:14249   */\n      add\n        /* \"#utility.yul\":14228:14255   */\n      slt\n        /* \"#utility.yul\":14218:14340   */\n      tag_371\n      jumpi\n        /* \"#utility.yul\":14259:14338   */\n      tag_372\n      tag_185\n      jump\t// in\n    tag_372:\n        /* \"#utility.yul\":14218:14340   */\n    tag_371:\n        /* \"#utility.yul\":14376:14382   */\n      dup2\n        /* \"#utility.yul\":14363:14383   */\n      calldataload\n        /* \"#utility.yul\":14401:14495   */\n      tag_373\n        /* \"#utility.yul\":14491:14494   */\n      dup5\n        /* \"#utility.yul\":14483:14489   */\n      dup3\n        /* \"#utility.yul\":14476:14480   */\n      0x20\n        /* \"#utility.yul\":14468:14474   */\n      dup7\n        /* \"#utility.yul\":14464:14481   */\n      add\n        /* \"#utility.yul\":14401:14495   */\n      tag_217\n      jump\t// in\n    tag_373:\n        /* \"#utility.yul\":14392:14495   */\n      swap2\n      pop\n        /* \"#utility.yul\":14208:14501   */\n      pop\n        /* \"#utility.yul\":14131:14501   */\n      swap3\n      swap2\n      pop\n      pop\n      jump\t// out\n        /* \"#utility.yul\":14507:16924   */\n    tag_22:\n        /* \"#utility.yul\":14811:14817   */\n      0x00\n        /* \"#utility.yul\":14819:14825   */\n      dup1\n        /* \"#utility.yul\":14827:14833   */\n      0x00\n        /* \"#utility.yul\":14835:14841   */\n      dup1\n        /* \"#utility.yul\":14843:14849   */\n      0x00\n        /* \"#utility.yul\":14851:14857   */\n      dup1\n        /* \"#utility.yul\":14900:14903   */\n      0xc0\n        /* \"#utility.yul\":14888:14897   */\n      dup8\n        /* \"#utility.yul\":14879:14886   */\n      dup10\n        /* \"#utility.yul\":14875:14898   */\n      sub\n        /* \"#utility.yul\":14871:14904   */\n      slt\n        /* \"#utility.yul\":14868:14988   */\n      iszero\n      tag_375\n      jumpi\n        /* \"#utility.yul\":14907:14986   */\n      tag_376\n      tag_183\n      jump\t// in\n    tag_376:\n        /* \"#utility.yul\":14868:14988   */\n    tag_375:\n        /* \"#utility.yul\":15055:15056   */\n      0x00\n        /* \"#utility.yul\":15044:15053   */\n      dup8\n        /* \"#utility.yul\":15040:15057   */\n      add\n        /* \"#utility.yul\":15027:15058   */\n      calldataload\n        /* \"#utility.yul\":15085:15103   */\n      0xffffffffffffffff\n        /* \"#utility.yul\":15077:15083   */\n      dup2\n        /* \"#utility.yul\":15074:15104   */\n      gt\n        /* \"#utility.yul\":15071:15188   */\n      iszero\n      tag_377\n      jumpi\n        /* \"#utility.yul\":15107:15186   */\n      tag_378\n      tag_184\n      jump\t// in\n    tag_378:\n        /* \"#utility.yul\":15071:15188   */\n    tag_377:\n        /* \"#utility.yul\":15212:15300   */\n      tag_379\n        /* \"#utility.yul\":15292:15299   */\n      dup10\n        /* \"#utility.yul\":15283:15289   */\n      dup3\n        /* \"#utility.yul\":15272:15281   */\n      dup11\n        /* \"#utility.yul\":15268:15290   */\n      add\n        /* \"#utility.yul\":15212:15300   */\n      tag_215\n      jump\t// in\n    tag_379:\n        /* \"#utility.yul\":15202:15300   */\n      swap7\n      pop\n        /* \"#utility.yul\":14998:15310   */\n      pop\n        /* \"#utility.yul\":15377:15379   */\n      0x20\n        /* \"#utility.yul\":15366:15375   */\n      dup8\n        /* \"#utility.yul\":15362:15380   */\n      add\n        /* \"#utility.yul\":15349:15381   */\n      calldataload\n        /* \"#utility.yul\":15408:15426   */\n      0xffffffffffffffff\n        /* \"#utility.yul\":15400:15406   */\n      dup2\n        /* \"#utility.yul\":15397:15427   */\n      gt\n        /* \"#utility.yul\":15394:15511   */\n      iszero\n      tag_380\n      jumpi\n        /* \"#utility.yul\":15430:15509   */\n      tag_381\n      tag_184\n      jump\t// in\n    tag_381:\n        /* \"#utility.yul\":15394:15511   */\n    tag_380:\n        /* \"#utility.yul\":15535:15623   */\n      tag_382\n        /* \"#utility.yul\":15615:15622   */\n      dup10\n        /* \"#utility.yul\":15606:15612   */\n      dup3\n        /* \"#utility.yul\":15595:15604   */\n      dup11\n        /* \"#utility.yul\":15591:15613   */\n      add\n        /* \"#utility.yul\":15535:15623   */\n      tag_215\n      jump\t// in\n    tag_382:\n        /* \"#utility.yul\":15525:15623   */\n      swap6\n      pop\n        /* \"#utility.yul\":15320:15633   */\n      pop\n        /* \"#utility.yul\":15700:15702   */\n      0x40\n        /* \"#utility.yul\":15689:15698   */\n      dup8\n        /* \"#utility.yul\":15685:15703   */\n      add\n        /* \"#utility.yul\":15672:15704   */\n      calldataload\n        /* \"#utility.yul\":15731:15749   */\n      0xffffffffffffffff\n        /* \"#utility.yul\":15723:15729   */\n      dup2\n        /* \"#utility.yul\":15720:15750   */\n      gt\n        /* \"#utility.yul\":15717:15834   */\n      iszero\n      tag_383\n      jumpi\n        /* \"#utility.yul\":15753:15832   */\n      tag_384\n      tag_184\n      jump\t// in\n    tag_384:\n        /* \"#utility.yul\":15717:15834   */\n    tag_383:\n        /* \"#utility.yul\":15858:15946   */\n      tag_385\n        /* \"#utility.yul\":15938:15945   */\n      dup10\n        /* \"#utility.yul\":15929:15935   */\n      dup3\n        /* \"#utility.yul\":15918:15927   */\n      dup11\n        /* \"#utility.yul\":15914:15936   */\n      add\n        /* \"#utility.yul\":15858:15946   */\n      tag_215\n      jump\t// in\n    tag_385:\n        /* \"#utility.yul\":15848:15946   */\n      swap5\n      pop\n        /* \"#utility.yul\":15643:15956   */\n      pop\n        /* \"#utility.yul\":16023:16025   */\n      0x60\n        /* \"#utility.yul\":16012:16021   */\n      dup8\n        /* \"#utility.yul\":16008:16026   */\n      add\n        /* \"#utility.yul\":15995:16027   */\n      calldataload\n        /* \"#utility.yul\":16054:16072   */\n      0xffffffffffffffff\n        /* \"#utility.yul\":16046:16052   */\n      dup2\n        /* \"#utility.yul\":16043:16073   */\n      gt\n        /* \"#utility.yul\":16040:16157   */\n      iszero\n      tag_386\n      jumpi\n        /* \"#utility.yul\":16076:16155   */\n      tag_387\n      tag_184\n      jump\t// in\n    tag_387:\n        /* \"#utility.yul\":16040:16157   */\n    tag_386:\n        /* \"#utility.yul\":16181:16269   */\n      tag_388\n        /* \"#utility.yul\":16261:16268   */\n      dup10\n        /* \"#utility.yul\":16252:16258   */\n      dup3\n        /* \"#utility.yul\":16241:16250   */\n      dup11\n        /* \"#utility.yul\":16237:16259   */\n      add\n        /* \"#utility.yul\":16181:16269   */\n      tag_215\n      jump\t// in\n    tag_388:\n        /* \"#utility.yul\":16171:16269   */\n      swap4\n      pop\n        /* \"#utility.yul\":15966:16279   */\n      pop\n        /* \"#utility.yul\":16346:16349   */\n      0x80\n        /* \"#utility.yul\":16335:16344   */\n      dup8\n        /* \"#utility.yul\":16331:16350   */\n      add\n        /* \"#utility.yul\":16318:16351   */\n      calldataload\n        /* \"#utility.yul\":16378:16396   */\n      0xffffffffffffffff\n        /* \"#utility.yul\":16370:16376   */\n      dup2\n        /* \"#utility.yul\":16367:16397   */\n      gt\n        /* \"#utility.yul\":16364:16481   */\n      iszero\n      tag_389\n      jumpi\n        /* \"#utility.yul\":16400:16479   */\n      tag_390\n      tag_184\n      jump\t// in\n    tag_390:\n        /* \"#utility.yul\":16364:16481   */\n    tag_389:\n        /* \"#utility.yul\":16505:16593   */\n      tag_391\n        /* \"#utility.yul\":16585:16592   */\n      dup10\n        /* \"#utility.yul\":16576:16582   */\n      dup3\n        /* \"#utility.yul\":16565:16574   */\n      dup11\n        /* \"#utility.yul\":16561:16583   */\n      add\n        /* \"#utility.yul\":16505:16593   */\n      tag_215\n      jump\t// in\n    tag_391:\n        /* \"#utility.yul\":16495:16593   */\n      swap3\n      pop\n        /* \"#utility.yul\":16289:16603   */\n      pop\n        /* \"#utility.yul\":16670:16673   */\n      0xa0\n        /* \"#utility.yul\":16659:16668   */\n      dup8\n        /* \"#utility.yul\":16655:16674   */\n      add\n        /* \"#utility.yul\":16642:16675   */\n      calldataload\n        /* \"#utility.yul\":16702:16720   */\n      0xffffffffffffffff\n        /* \"#utility.yul\":16694:16700   */\n      dup2\n        /* \"#utility.yul\":16691:16721   */\n      gt\n        /* \"#utility.yul\":16688:16805   */\n      iszero\n      tag_392\n      jumpi\n        /* \"#utility.yul\":16724:16803   */\n      tag_393\n      tag_184\n      jump\t// in\n    tag_393:\n        /* \"#utility.yul\":16688:16805   */\n    tag_392:\n        /* \"#utility.yul\":16829:16907   */\n      tag_394\n        /* \"#utility.yul\":16899:16906   */\n      dup10\n        /* \"#utility.yul\":16890:16896   */\n      dup3\n        /* \"#utility.yul\":16879:16888   */\n      dup11\n        /* \"#utility.yul\":16875:16897   */\n      add\n        /* \"#utility.yul\":16829:16907   */\n      tag_218\n      jump\t// in\n    tag_394:\n        /* \"#utility.yul\":16819:16907   */\n      swap2\n      pop\n        /* \"#utility.yul\":16613:16917   */\n      pop\n        /* \"#utility.yul\":14507:16924   */\n      swap3\n      swap6\n      pop\n      swap3\n      swap6\n      pop\n      swap3\n      swap6\n      jump\t// out\n        /* \"#utility.yul\":16930:17152   */\n    tag_30:\n        /* \"#utility.yul\":17023:17027   */\n      0x00\n        /* \"#utility.yul\":17061:17063   */\n      0x20\n        /* \"#utility.yul\":17050:17059   */\n      dup3\n        /* \"#utility.yul\":17046:17064   */\n      add\n        /* \"#utility.yul\":17038:17064   */\n      swap1\n      pop\n        /* \"#utility.yul\":17074:17145   */\n      tag_396\n        /* \"#utility.yul\":17142:17143   */\n      0x00\n        /* \"#utility.yul\":17131:17140   */\n      dup4\n        /* \"#utility.yul\":17127:17144   */\n      add\n        /* \"#utility.yul\":17118:17124   */\n      dup5\n        /* \"#utility.yul\":17074:17145   */\n      tag_211\n      jump\t// in\n    tag_396:\n        /* \"#utility.yul\":16930:17152   */\n      swap3\n      swap2\n      pop\n      pop\n      jump\t// out\n        /* \"#utility.yul\":17158:17306   */\n    tag_219:\n        /* \"#utility.yul\":17260:17271   */\n      0x00\n        /* \"#utility.yul\":17297:17300   */\n      dup2\n        /* \"#utility.yul\":17282:17300   */\n      swap1\n      pop\n        /* \"#utility.yul\":17158:17306   */\n      swap3\n      swap2\n      pop\n      pop\n      jump\t// out\n        /* \"#utility.yul\":17312:17702   */\n    tag_220:\n        /* \"#utility.yul\":17418:17421   */\n      0x00\n        /* \"#utility.yul\":17446:17485   */\n      tag_399\n        /* \"#utility.yul\":17479:17484   */\n      dup3\n        /* \"#utility.yul\":17446:17485   */\n      tag_197\n      jump\t// in\n    tag_399:\n        /* \"#utility.yul\":17501:17590   */\n      tag_400\n        /* \"#utility.yul\":17583:17589   */\n      dup2\n        /* \"#utility.yul\":17578:17581   */\n      dup6\n        /* \"#utility.yul\":17501:17590   */\n      tag_219\n      jump\t// in\n    tag_400:\n        /* \"#utility.yul\":17494:17590   */\n      swap4\n      pop\n        /* \"#utility.yul\":17599:17664   */\n      tag_401\n        /* \"#utility.yul\":17657:17663   */\n      dup2\n        /* \"#utility.yul\":17652:17655   */\n      dup6\n        /* \"#utility.yul\":17645:17649   */\n      0x20\n        /* \"#utility.yul\":17638:17643   */\n      dup7\n        /* \"#utility.yul\":17634:17650   */\n      add\n        /* \"#utility.yul\":17599:17664   */\n      tag_199\n      jump\t// in\n    tag_401:\n        /* \"#utility.yul\":17689:17695   */\n      dup1\n        /* \"#utility.yul\":17684:17687   */\n      dup5\n        /* \"#utility.yul\":17680:17696   */\n      add\n        /* \"#utility.yul\":17673:17696   */\n      swap2\n      pop\n        /* \"#utility.yul\":17422:17702   */\n      pop\n        /* \"#utility.yul\":17312:17702   */\n      swap3\n      swap2\n      pop\n      pop\n      jump\t// out\n        /* \"#utility.yul\":17708:17983   */\n    tag_36:\n        /* \"#utility.yul\":17840:17843   */\n      0x00\n        /* \"#utility.yul\":17862:17957   */\n      tag_403\n        /* \"#utility.yul\":17953:17956   */\n      dup3\n        /* \"#utility.yul\":17944:17950   */\n      dup5\n        /* \"#utility.yul\":17862:17957   */\n      tag_220\n      jump\t// in\n    tag_403:\n        /* \"#utility.yul\":17855:17957   */\n      swap2\n      pop\n        /* \"#utility.yul\":17974:17977   */\n      dup2\n        /* \"#utility.yul\":17967:17977   */\n      swap1\n      pop\n        /* \"#utility.yul\":17708:17983   */\n      swap3\n      swap2\n      pop\n      pop\n      jump\t// out\n        /* \"#utility.yul\":17989:18169   */\n    tag_221:\n        /* \"#utility.yul\":18037:18114   */\n      0x4e487b7100000000000000000000000000000000000000000000000000000000\n        /* \"#utility.yul\":18034:18035   */\n      0x00\n        /* \"#utility.yul\":18027:18115   */\n      mstore\n        /* \"#utility.yul\":18134:18138   */\n      0x22\n        /* \"#utility.yul\":18131:18132   */\n      0x04\n        /* \"#utility.yul\":18124:18139   */\n      mstore\n        /* \"#utility.yul\":18158:18162   */\n      0x24\n        /* \"#utility.yul\":18155:18156   */\n      0x00\n        /* \"#utility.yul\":18148:18163   */\n      revert\n        /* \"#utility.yul\":18175:18495   */\n    tag_57:\n        /* \"#utility.yul\":18219:18225   */\n      0x00\n        /* \"#utility.yul\":18256:18257   */\n      0x02\n        /* \"#utility.yul\":18250:18254   */\n      dup3\n        /* \"#utility.yul\":18246:18258   */\n      div\n        /* \"#utility.yul\":18236:18258   */\n      swap1\n      pop\n        /* \"#utility.yul\":18303:18304   */\n      0x01\n        /* \"#utility.yul\":18297:18301   */\n      dup3\n        /* \"#utility.yul\":18293:18305   */\n      and\n        /* \"#utility.yul\":18324:18342   */\n      dup1\n        /* \"#utility.yul\":18314:18395   */\n      tag_406\n      jumpi\n        /* \"#utility.yul\":18380:18384   */\n      0x7f\n        /* \"#utility.yul\":18372:18378   */\n      dup3\n        /* \"#utility.yul\":18368:18385   */\n      and\n        /* \"#utility.yul\":18358:18385   */\n      swap2\n      pop\n        /* \"#utility.yul\":18314:18395   */\n    tag_406:\n        /* \"#utility.yul\":18442:18444   */\n      0x20\n        /* \"#utility.yul\":18434:18440   */\n      dup3\n        /* \"#utility.yul\":18431:18445   */\n      lt\n        /* \"#utility.yul\":18411:18429   */\n      dup2\n        /* \"#utility.yul\":18408:18446   */\n      sub\n        /* \"#utility.yul\":18405:18489   */\n      tag_407\n      jumpi\n        /* \"#utility.yul\":18461:18479   */\n      tag_408\n      tag_221\n      jump\t// in\n    tag_408:\n        /* \"#utility.yul\":18405:18489   */\n    tag_407:\n        /* \"#utility.yul\":18226:18495   */\n      pop\n        /* \"#utility.yul\":18175:18495   */\n      swap2\n      swap1\n      pop\n      jump\t// out\n        /* \"#utility.yul\":18501:18642   */\n    tag_222:\n        /* \"#utility.yul\":18550:18554   */\n      0x00\n        /* \"#utility.yul\":18573:18576   */\n      dup2\n        /* \"#utility.yul\":18565:18576   */\n      swap1\n      pop\n        /* \"#utility.yul\":18596:18599   */\n      dup2\n        /* \"#utility.yul\":18593:18594   */\n      0x00\n        /* \"#utility.yul\":18586:18600   */\n      mstore\n        /* \"#utility.yul\":18630:18634   */\n      0x20\n        /* \"#utility.yul\":18627:18628   */\n      0x00\n        /* \"#utility.yul\":18617:18635   */\n      keccak256\n        /* \"#utility.yul\":18609:18635   */\n      swap1\n      pop\n        /* \"#utility.yul\":18501:18642   */\n      swap2\n      swap1\n      pop\n      jump\t// out\n        /* \"#utility.yul\":18672:19546   */\n    tag_223:\n        /* \"#utility.yul\":18775:18778   */\n      0x00\n        /* \"#utility.yul\":18812:18817   */\n      dup2\n        /* \"#utility.yul\":18806:18818   */\n      sload\n        /* \"#utility.yul\":18841:18877   */\n      tag_411\n        /* \"#utility.yul\":18867:18876   */\n      dup2\n        /* \"#utility.yul\":18841:18877   */\n      tag_57\n      jump\t// in\n    tag_411:\n        /* \"#utility.yul\":18893:18982   */\n      tag_412\n        /* \"#utility.yul\":18975:18981   */\n      dup2\n        /* \"#utility.yul\":18970:18973   */\n      dup7\n        /* \"#utility.yul\":18893:18982   */\n      tag_219\n      jump\t// in\n    tag_412:\n        /* \"#utility.yul\":18886:18982   */\n      swap5\n      pop\n        /* \"#utility.yul\":19013:19014   */\n      0x01\n        /* \"#utility.yul\":19002:19011   */\n      dup3\n        /* \"#utility.yul\":18998:19015   */\n      and\n        /* \"#utility.yul\":19029:19030   */\n      0x00\n        /* \"#utility.yul\":19024:19190   */\n      dup2\n      eq\n      tag_414\n      jumpi\n        /* \"#utility.yul\":19204:19205   */\n      0x01\n        /* \"#utility.yul\":19199:19540   */\n      dup2\n      eq\n      tag_415\n      jumpi\n        /* \"#utility.yul\":18991:19540   */\n      jump(tag_413)\n        /* \"#utility.yul\":19024:19190   */\n    tag_414:\n        /* \"#utility.yul\":19108:19112   */\n      0xff\n        /* \"#utility.yul\":19104:19113   */\n      not\n        /* \"#utility.yul\":19093:19102   */\n      dup4\n        /* \"#utility.yul\":19089:19114   */\n      and\n        /* \"#utility.yul\":19084:19087   */\n      dup7\n        /* \"#utility.yul\":19077:19115   */\n      mstore\n        /* \"#utility.yul\":19170:19176   */\n      dup2\n        /* \"#utility.yul\":19163:19177   */\n      iszero\n        /* \"#utility.yul\":19156:19178   */\n      iszero\n        /* \"#utility.yul\":19148:19154   */\n      dup3\n        /* \"#utility.yul\":19144:19179   */\n      mul\n        /* \"#utility.yul\":19139:19142   */\n      dup7\n        /* \"#utility.yul\":19135:19180   */\n      add\n        /* \"#utility.yul\":19128:19180   */\n      swap4\n      pop\n        /* \"#utility.yul\":19024:19190   */\n      jump(tag_413)\n        /* \"#utility.yul\":19199:19540   */\n    tag_415:\n        /* \"#utility.yul\":19266:19304   */\n      tag_416\n        /* \"#utility.yul\":19298:19303   */\n      dup6\n        /* \"#utility.yul\":19266:19304   */\n      tag_222\n      jump\t// in\n    tag_416:\n        /* \"#utility.yul\":19326:19327   */\n      0x00\n        /* \"#utility.yul\":19340:19494   */\n    tag_417:\n        /* \"#utility.yul\":19354:19360   */\n      dup4\n        /* \"#utility.yul\":19351:19352   */\n      dup2\n        /* \"#utility.yul\":19348:19361   */\n      lt\n        /* \"#utility.yul\":19340:19494   */\n      iszero\n      tag_419\n      jumpi\n        /* \"#utility.yul\":19428:19435   */\n      dup2\n        /* \"#utility.yul\":19422:19436   */\n      sload\n        /* \"#utility.yul\":19418:19419   */\n      dup2\n        /* \"#utility.yul\":19413:19416   */\n      dup10\n        /* \"#utility.yul\":19409:19420   */\n      add\n        /* \"#utility.yul\":19402:19437   */\n      mstore\n        /* \"#utility.yul\":19478:19479   */\n      0x01\n        /* \"#utility.yul\":19469:19476   */\n      dup3\n        /* \"#utility.yul\":19465:19480   */\n      add\n        /* \"#utility.yul\":19454:19480   */\n      swap2\n      pop\n        /* \"#utility.yul\":19376:19380   */\n      0x20\n        /* \"#utility.yul\":19373:19374   */\n      dup2\n        /* \"#utility.yul\":19369:19381   */\n      add\n        /* \"#utility.yul\":19364:19381   */\n      swap1\n      pop\n        /* \"#utility.yul\":19340:19494   */\n      jump(tag_417)\n    tag_419:\n        /* \"#utility.yul\":19523:19529   */\n      dup4\n        /* \"#utility.yul\":19518:19521   */\n      dup9\n        /* \"#utility.yul\":19514:19530   */\n      add\n        /* \"#utility.yul\":19507:19530   */\n      swap6\n      pop\n        /* \"#utility.yul\":19206:19540   */\n      pop\n      pop\n        /* \"#utility.yul\":18991:19540   */\n    tag_413:\n      pop\n        /* \"#utility.yul\":18779:19546   */\n      pop\n      pop\n        /* \"#utility.yul\":18672:19546   */\n      swap3\n      swap2\n      pop\n      pop\n      jump\t// out\n        /* \"#utility.yul\":19552:19821   */\n    tag_38:\n        /* \"#utility.yul\":19681:19684   */\n      0x00\n        /* \"#utility.yul\":19703:19795   */\n      tag_421\n        /* \"#utility.yul\":19791:19794   */\n      dup3\n        /* \"#utility.yul\":19782:19788   */\n      dup5\n        /* \"#utility.yul\":19703:19795   */\n      tag_223\n      jump\t// in\n    tag_421:\n        /* \"#utility.yul\":19696:19795   */\n      swap2\n      pop\n        /* \"#utility.yul\":19812:19815   */\n      dup2\n        /* \"#utility.yul\":19805:19815   */\n      swap1\n      pop\n        /* \"#utility.yul\":19552:19821   */\n      swap3\n      swap2\n      pop\n      pop\n      jump\t// out\n        /* \"#utility.yul\":19827:20007   */\n    tag_224:\n        /* \"#utility.yul\":19875:19952   */\n      0x4e487b7100000000000000000000000000000000000000000000000000000000\n        /* \"#utility.yul\":19872:19873   */\n      0x00\n        /* \"#utility.yul\":19865:19953   */\n      mstore\n        /* \"#utility.yul\":19972:19976   */\n      0x11\n        /* \"#utility.yul\":19969:19970   */\n      0x04\n        /* \"#utility.yul\":19962:19977   */\n      mstore\n        /* \"#utility.yul\":19996:20000   */\n      0x24\n        /* \"#utility.yul\":19993:19994   */\n      0x00\n        /* \"#utility.yul\":19986:20001   */\n      revert\n        /* \"#utility.yul\":20013:20246   */\n    tag_41:\n        /* \"#utility.yul\":20052:20055   */\n      0x00\n        /* \"#utility.yul\":20075:20099   */\n      tag_424\n        /* \"#utility.yul\":20093:20098   */\n      dup3\n        /* \"#utility.yul\":20075:20099   */\n      tag_201\n      jump\t// in\n    tag_424:\n        /* \"#utility.yul\":20066:20099   */\n      swap2\n      pop\n        /* \"#utility.yul\":20121:20187   */\n      0xffffffffffffffffffffffffffffffffffffffffffffffffffffffffffffffff\n        /* \"#utility.yul\":20114:20119   */\n      dup3\n        /* \"#utility.yul\":20111:20188   */\n      sub\n        /* \"#utility.yul\":20108:20211   */\n      tag_425\n      jumpi\n        /* \"#utility.yul\":20191:20209   */\n      tag_426\n      tag_224\n      jump\t// in\n    tag_426:\n        /* \"#utility.yul\":20108:20211   */\n    tag_425:\n        /* \"#utility.yul\":20238:20239   */\n      0x01\n        /* \"#utility.yul\":20231:20236   */\n      dup3\n        /* \"#utility.yul\":20227:20240   */\n      add\n        /* \"#utility.yul\":20220:20240   */\n      swap1\n      pop\n        /* \"#utility.yul\":20013:20246   */\n      swap2\n      swap1\n      pop\n      jump\t// out\n        /* \"#utility.yul\":20252:20432   */\n    tag_84:\n        /* \"#utility.yul\":20300:20377   */\n      0x4e487b7100000000000000000000000000000000000000000000000000000000\n        /* \"#utility.yul\":20297:20298   */\n      0x00\n        /* \"#utility.yul\":20290:20378   */\n      mstore\n        /* \"#utility.yul\":20397:20401   */\n      0x32\n        /* \"#utility.yul\":20394:20395   */\n      0x04\n        /* \"#utility.yul\":20387:20402   */\n      mstore\n        /* \"#utility.yul\":20421:20425   */\n      0x24\n        /* \"#utility.yul\":20418:20419   */\n      0x00\n        /* \"#utility.yul\":20411:20426   */\n      revert\n        /* \"#utility.yul\":20438:20661   */\n    tag_225:\n        /* \"#utility.yul\":20578:20612   */\n      0x4c656e67746873206f6620696e7075742061727261797320646f206e6f74206d\n        /* \"#utility.yul\":20574:20575   */\n      0x00\n        /* \"#utility.yul\":20566:20572   */\n      dup3\n        /* \"#utility.yul\":20562:20576   */\n      add\n        /* \"#utility.yul\":20555:20613   */\n      mstore\n        /* \"#utility.yul\":20647:20653   */\n      0x6174636800000000000000000000000000000000000000000000000000000000\n        /* \"#utility.yul\":20642:20644   */\n      0x20\n        /* \"#utility.yul\":20634:20640   */\n      dup3\n        /* \"#utility.yul\":20630:20645   */\n      add\n        /* \"#utility.yul\":20623:20654   */\n      mstore\n        /* \"#utility.yul\":20438:20661   */\n      pop\n      jump\t// out\n        /* \"#utility.yul\":20667:21033   */\n    tag_226:\n        /* \"#utility.yul\":20809:20812   */\n      0x00\n        /* \"#utility.yul\":20830:20897   */\n      tag_430\n        /* \"#utility.yul\":20894:20896   */\n      0x24\n        /* \"#utility.yul\":20889:20892   */\n      dup4\n        /* \"#utility.yul\":20830:20897   */\n      tag_209\n      jump\t// in\n    tag_430:\n        /* \"#utility.yul\":20823:20897   */\n      swap2\n      pop\n        /* \"#utility.yul\":20906:20999   */\n      tag_431\n        /* \"#utility.yul\":20995:20998   */\n      dup3\n        /* \"#utility.yul\":20906:20999   */\n      tag_225\n      jump\t// in\n    tag_431:\n        /* \"#utility.yul\":21024:21026   */\n      0x40\n        /* \"#utility.yul\":21019:21022   */\n      dup3\n        /* \"#utility.yul\":21015:21027   */\n      add\n        /* \"#utility.yul\":21008:21027   */\n      swap1\n      pop\n        /* \"#utility.yul\":20667:21033   */\n      swap2\n      swap1\n      pop\n      jump\t// out\n        /* \"#utility.yul\":21039:21458   */\n    tag_119:\n        /* \"#utility.yul\":21205:21209   */\n      0x00\n        /* \"#utility.yul\":21243:21245   */\n      0x20\n        /* \"#utility.yul\":21232:21241   */\n      dup3\n        /* \"#utility.yul\":21228:21246   */\n      add\n        /* \"#utility.yul\":21220:21246   */\n      swap1\n      pop\n        /* \"#utility.yul\":21292:21301   */\n      dup2\n        /* \"#utility.yul\":21286:21290   */\n      dup2\n        /* \"#utility.yul\":21282:21302   */\n      sub\n        /* \"#utility.yul\":21278:21279   */\n      0x00\n        /* \"#utility.yul\":21267:21276   */\n      dup4\n        /* \"#utility.yul\":21263:21280   */\n      add\n        /* \"#utility.yul\":21256:21303   */\n      mstore\n        /* \"#utility.yul\":21320:21451   */\n      tag_433\n        /* \"#utility.yul\":21446:21450   */\n      dup2\n        /* \"#utility.yul\":21320:21451   */\n      tag_226\n      jump\t// in\n    tag_433:\n        /* \"#utility.yul\":21312:21451   */\n      swap1\n      pop\n        /* \"#utility.yul\":21039:21458   */\n      swap2\n      swap1\n      pop\n      jump\t// out\n        /* \"#utility.yul\":21464:21557   */\n    tag_227:\n        /* \"#utility.yul\":21501:21507   */\n      0x00\n        /* \"#utility.yul\":21548:21550   */\n      0x20\n        /* \"#utility.yul\":21543:21545   */\n      0x1f\n        /* \"#utility.yul\":21536:21541   */\n      dup4\n        /* \"#utility.yul\":21532:21546   */\n      add\n        /* \"#utility.yul\":21528:21551   */\n      div\n        /* \"#utility.yul\":21518:21551   */\n      swap1\n      pop\n        /* \"#utility.yul\":21464:21557   */\n      swap2\n      swap1\n      pop\n      jump\t// out\n        /* \"#utility.yul\":21563:21670   */\n    tag_228:\n        /* \"#utility.yul\":21607:21615   */\n      0x00\n        /* \"#utility.yul\":21657:21662   */\n      dup3\n        /* \"#utility.yul\":21651:21655   */\n      dup3\n        /* \"#utility.yul\":21647:21663   */\n      shl\n        /* \"#utility.yul\":21626:21663   */\n      swap1\n      pop\n        /* \"#utility.yul\":21563:21670   */\n      swap3\n      swap2\n      pop\n      pop\n      jump\t// out\n        /* \"#utility.yul\":21676:22069   */\n    tag_229:\n        /* \"#utility.yul\":21745:21751   */\n      0x00\n        /* \"#utility.yul\":21795:21796   */\n      0x08\n        /* \"#utility.yul\":21783:21793   */\n      dup4\n        /* \"#utility.yul\":21779:21797   */\n      mul\n        /* \"#utility.yul\":21818:21915   */\n      tag_437\n        /* \"#utility.yul\":21848:21914   */\n      0xffffffffffffffffffffffffffffffffffffffffffffffffffffffffffffffff\n        /* \"#utility.yul\":21837:21846   */\n      dup3\n        /* \"#utility.yul\":21818:21915   */\n      tag_228\n      jump\t// in\n    tag_437:\n        /* \"#utility.yul\":21936:21975   */\n      tag_438\n        /* \"#utility.yul\":21966:21974   */\n      dup7\n        /* \"#utility.yul\":21955:21964   */\n      dup4\n        /* \"#utility.yul\":21936:21975   */\n      tag_228\n      jump\t// in\n    tag_438:\n        /* \"#utility.yul\":21924:21975   */\n      swap6\n      pop\n        /* \"#utility.yul\":22008:22012   */\n      dup1\n        /* \"#utility.yul\":22004:22013   */\n      not\n        /* \"#utility.yul\":21997:22002   */\n      dup5\n        /* \"#utility.yul\":21993:22014   */\n      and\n        /* \"#utility.yul\":21984:22014   */\n      swap4\n      pop\n        /* \"#utility.yul\":22057:22061   */\n      dup1\n        /* \"#utility.yul\":22047:22055   */\n      dup7\n        /* \"#utility.yul\":22043:22062   */\n      and\n        /* \"#utility.yul\":22036:22041   */\n      dup5\n        /* \"#utility.yul\":22033:22063   */\n      or\n        /* \"#utility.yul\":22023:22063   */\n      swap3\n      pop\n        /* \"#utility.yul\":21752:22069   */\n      pop\n      pop\n        /* \"#utility.yul\":21676:22069   */\n      swap4\n      swap3\n      pop\n      pop\n      pop\n      jump\t// out\n        /* \"#utility.yul\":22075:22135   */\n    tag_230:\n        /* \"#utility.yul\":22103:22106   */\n      0x00\n        /* \"#utility.yul\":22124:22129   */\n      dup2\n        /* \"#utility.yul\":22117:22129   */\n      swap1\n      pop\n        /* \"#utility.yul\":22075:22135   */\n      swap2\n      swap1\n      pop\n      jump\t// out\n        /* \"#utility.yul\":22141:22283   */\n    tag_231:\n        /* \"#utility.yul\":22191:22200   */\n      0x00\n        /* \"#utility.yul\":22224:22277   */\n      tag_441\n        /* \"#utility.yul\":22242:22276   */\n      tag_442\n        /* \"#utility.yul\":22251:22275   */\n      tag_443\n        /* \"#utility.yul\":22269:22274   */\n      dup5\n        /* \"#utility.yul\":22251:22275   */\n      tag_201\n      jump\t// in\n    tag_443:\n        /* \"#utility.yul\":22242:22276   */\n      tag_230\n      jump\t// in\n    tag_442:\n        /* \"#utility.yul\":22224:22277   */\n      tag_201\n      jump\t// in\n    tag_441:\n        /* \"#utility.yul\":22211:22277   */\n      swap1\n      pop\n        /* \"#utility.yul\":22141:22283   */\n      swap2\n      swap1\n      pop\n      jump\t// out\n        /* \"#utility.yul\":22289:22364   */\n    tag_232:\n        /* \"#utility.yul\":22332:22335   */\n      0x00\n        /* \"#utility.yul\":22353:22358   */\n      dup2\n        /* \"#utility.yul\":22346:22358   */\n      swap1\n      pop\n        /* \"#utility.yul\":22289:22364   */\n      swap2\n      swap1\n      pop\n      jump\t// out\n        /* \"#utility.yul\":22370:22639   */\n    tag_233:\n        /* \"#utility.yul\":22480:22519   */\n      tag_446\n        /* \"#utility.yul\":22511:22518   */\n      dup4\n        /* \"#utility.yul\":22480:22519   */\n      tag_231\n      jump\t// in\n    tag_446:\n        /* \"#utility.yul\":22541:22632   */\n      tag_447\n        /* \"#utility.yul\":22590:22631   */\n      tag_448\n        /* \"#utility.yul\":22614:22630   */\n      dup3\n        /* \"#utility.yul\":22590:22631   */\n      tag_232\n      jump\t// in\n    tag_448:\n        /* \"#utility.yul\":22582:22588   */\n      dup5\n        /* \"#utility.yul\":22575:22579   */\n      dup5\n        /* \"#utility.yul\":22569:22580   */\n      sload\n        /* \"#utility.yul\":22541:22632   */\n      tag_229\n      jump\t// in\n    tag_447:\n        /* \"#utility.yul\":22535:22539   */\n      dup3\n        /* \"#utility.yul\":22528:22633   */\n      sstore\n        /* \"#utility.yul\":22446:22639   */\n      pop\n        /* \"#utility.yul\":22370:22639   */\n      pop\n      pop\n      pop\n      jump\t// out\n        /* \"#utility.yul\":22645:22718   */\n    tag_234:\n        /* \"#utility.yul\":22690:22693   */\n      0x00\n        /* \"#utility.yul\":22645:22718   */\n      swap1\n      jump\t// out\n        /* \"#utility.yul\":22724:22913   */\n    tag_235:\n        /* \"#utility.yul\":22801:22833   */\n      tag_451\n      tag_234\n      jump\t// in\n    tag_451:\n        /* \"#utility.yul\":22842:22907   */\n      tag_452\n        /* \"#utility.yul\":22900:22906   */\n      dup2\n        /* \"#utility.yul\":22892:22898   */\n      dup5\n        /* \"#utility.yul\":22886:22890   */\n      dup5\n        /* \"#utility.yul\":22842:22907   */\n      tag_233\n      jump\t// in\n    tag_452:\n        /* \"#utility.yul\":22777:22913   */\n      pop\n        /* \"#utility.yul\":22724:22913   */\n      pop\n      pop\n      jump\t// out\n        /* \"#utility.yul\":22919:23105   */\n    tag_236:\n        /* \"#utility.yul\":22979:23099   */\n    tag_454:\n        /* \"#utility.yul\":22996:22999   */\n      dup2\n        /* \"#utility.yul\":22989:22994   */\n      dup2\n        /* \"#utility.yul\":22986:23000   */\n      lt\n        /* \"#utility.yul\":22979:23099   */\n      iszero\n      tag_456\n      jumpi\n        /* \"#utility.yul\":23050:23089   */\n      tag_457\n        /* \"#utility.yul\":23087:23088   */\n      0x00\n        /* \"#utility.yul\":23080:23085   */\n      dup3\n        /* \"#utility.yul\":23050:23089   */\n      tag_235\n      jump\t// in\n    tag_457:\n        /* \"#utility.yul\":23023:23024   */\n      0x01\n        /* \"#utility.yul\":23016:23021   */\n      dup2\n        /* \"#utility.yul\":23012:23025   */\n      add\n        /* \"#utility.yul\":23003:23025   */\n      swap1\n      pop\n        /* \"#utility.yul\":22979:23099   */\n      jump(tag_454)\n    tag_456:\n        /* \"#utility.yul\":22919:23105   */\n      pop\n      pop\n      jump\t// out\n        /* \"#utility.yul\":23111:23654   */\n    tag_237:\n        /* \"#utility.yul\":23212:23214   */\n      0x1f\n        /* \"#utility.yul\":23207:23210   */\n      dup3\n        /* \"#utility.yul\":23204:23215   */\n      gt\n        /* \"#utility.yul\":23201:23647   */\n      iszero\n      tag_459\n      jumpi\n        /* \"#utility.yul\":23246:23284   */\n      tag_460\n        /* \"#utility.yul\":23278:23283   */\n      dup2\n        /* \"#utility.yul\":23246:23284   */\n      tag_222\n      jump\t// in\n    tag_460:\n        /* \"#utility.yul\":23330:23359   */\n      tag_461\n        /* \"#utility.yul\":23348:23358   */\n      dup5\n        /* \"#utility.yul\":23330:23359   */\n      tag_227\n      jump\t// in\n    tag_461:\n        /* \"#utility.yul\":23320:23328   */\n      dup2\n        /* \"#utility.yul\":23316:23360   */\n      add\n        /* \"#utility.yul\":23513:23515   */\n      0x20\n        /* \"#utility.yul\":23501:23511   */\n      dup6\n        /* \"#utility.yul\":23498:23516   */\n      lt\n        /* \"#utility.yul\":23495:23544   */\n      iszero\n      tag_462\n      jumpi\n        /* \"#utility.yul\":23534:23542   */\n      dup2\n        /* \"#utility.yul\":23519:23542   */\n      swap1\n      pop\n        /* \"#utility.yul\":23495:23544   */\n    tag_462:\n        /* \"#utility.yul\":23557:23637   */\n      tag_463\n        /* \"#utility.yul\":23613:23635   */\n      tag_464\n        /* \"#utility.yul\":23631:23634   */\n      dup6\n        /* \"#utility.yul\":23613:23635   */\n      tag_227\n      jump\t// in\n    tag_464:\n        /* \"#utility.yul\":23603:23611   */\n      dup4\n        /* \"#utility.yul\":23599:23636   */\n      add\n        /* \"#utility.yul\":23586:23597   */\n      dup3\n        /* \"#utility.yul\":23557:23637   */\n      tag_236\n      jump\t// in\n    tag_463:\n        /* \"#utility.yul\":23216:23647   */\n      pop\n      pop\n        /* \"#utility.yul\":23201:23647   */\n    tag_459:\n        /* \"#utility.yul\":23111:23654   */\n      pop\n      pop\n      pop\n      jump\t// out\n        /* \"#utility.yul\":23660:23777   */\n    tag_238:\n        /* \"#utility.yul\":23714:23722   */\n      0x00\n        /* \"#utility.yul\":23764:23769   */\n      dup3\n        /* \"#utility.yul\":23758:23762   */\n      dup3\n        /* \"#utility.yul\":23754:23770   */\n      shr\n        /* \"#utility.yul\":23733:23770   */\n      swap1\n      pop\n        /* \"#utility.yul\":23660:23777   */\n      swap3\n      swap2\n      pop\n      pop\n      jump\t// out\n        /* \"#utility.yul\":23783:23952   */\n    tag_239:\n        /* \"#utility.yul\":23827:23833   */\n      0x00\n        /* \"#utility.yul\":23860:23911   */\n      tag_467\n        /* \"#utility.yul\":23908:23909   */\n      0x00\n        /* \"#utility.yul\":23904:23910   */\n      not\n        /* \"#utility.yul\":23896:23901   */\n      dup5\n        /* \"#utility.yul\":23893:23894   */\n      0x08\n        /* \"#utility.yul\":23889:23902   */\n      mul\n        /* \"#utility.yul\":23860:23911   */\n      tag_238\n      jump\t// in\n    tag_467:\n        /* \"#utility.yul\":23856:23912   */\n      not\n        /* \"#utility.yul\":23941:23945   */\n      dup1\n        /* \"#utility.yul\":23935:23939   */\n      dup4\n        /* \"#utility.yul\":23931:23946   */\n      and\n        /* \"#utility.yul\":23921:23946   */\n      swap2\n      pop\n        /* \"#utility.yul\":23834:23952   */\n      pop\n        /* \"#utility.yul\":23783:23952   */\n      swap3\n      swap2\n      pop\n      pop\n      jump\t// out\n        /* \"#utility.yul\":23957:24252   */\n    tag_240:\n        /* \"#utility.yul\":24033:24037   */\n      0x00\n        /* \"#utility.yul\":24179:24208   */\n      tag_469\n        /* \"#utility.yul\":24204:24207   */\n      dup4\n        /* \"#utility.yul\":24198:24202   */\n      dup4\n        /* \"#utility.yul\":24179:24208   */\n      tag_239\n      jump\t// in\n    tag_469:\n        /* \"#utility.yul\":24171:24208   */\n      swap2\n      pop\n        /* \"#utility.yul\":24241:24244   */\n      dup3\n        /* \"#utility.yul\":24238:24239   */\n      0x02\n        /* \"#utility.yul\":24234:24245   */\n      mul\n        /* \"#utility.yul\":24228:24232   */\n      dup3\n        /* \"#utility.yul\":24225:24246   */\n      or\n        /* \"#utility.yul\":24217:24246   */\n      swap1\n      pop\n        /* \"#utility.yul\":23957:24252   */\n      swap3\n      swap2\n      pop\n      pop\n      jump\t// out\n        /* \"#utility.yul\":24257:25652   */\n    tag_137:\n        /* \"#utility.yul\":24374:24411   */\n      tag_471\n        /* \"#utility.yul\":24407:24410   */\n      dup3\n        /* \"#utility.yul\":24374:24411   */\n      tag_197\n      jump\t// in\n    tag_471:\n        /* \"#utility.yul\":24476:24494   */\n      0xffffffffffffffff\n        /* \"#utility.yul\":24468:24474   */\n      dup2\n        /* \"#utility.yul\":24465:24495   */\n      gt\n        /* \"#utility.yul\":24462:24518   */\n      iszero\n      tag_472\n      jumpi\n        /* \"#utility.yul\":24498:24516   */\n      tag_473\n      tag_45\n      jump\t// in\n    tag_473:\n        /* \"#utility.yul\":24462:24518   */\n    tag_472:\n        /* \"#utility.yul\":24542:24580   */\n      tag_474\n        /* \"#utility.yul\":24574:24578   */\n      dup3\n        /* \"#utility.yul\":24568:24579   */\n      sload\n        /* \"#utility.yul\":24542:24580   */\n      tag_57\n      jump\t// in\n    tag_474:\n        /* \"#utility.yul\":24627:24694   */\n      tag_475\n        /* \"#utility.yul\":24687:24693   */\n      dup3\n        /* \"#utility.yul\":24679:24685   */\n      dup3\n        /* \"#utility.yul\":24673:24677   */\n      dup6\n        /* \"#utility.yul\":24627:24694   */\n      tag_237\n      jump\t// in\n    tag_475:\n        /* \"#utility.yul\":24721:24722   */\n      0x00\n        /* \"#utility.yul\":24745:24749   */\n      0x20\n        /* \"#utility.yul\":24732:24749   */\n      swap1\n      pop\n        /* \"#utility.yul\":24777:24779   */\n      0x1f\n        /* \"#utility.yul\":24769:24775   */\n      dup4\n        /* \"#utility.yul\":24766:24780   */\n      gt\n        /* \"#utility.yul\":24794:24795   */\n      0x01\n        /* \"#utility.yul\":24789:25407   */\n      dup2\n      eq\n      tag_477\n      jumpi\n        /* \"#utility.yul\":25451:25452   */\n      0x00\n        /* \"#utility.yul\":25468:25474   */\n      dup5\n        /* \"#utility.yul\":25465:25542   */\n      iszero\n      tag_478\n      jumpi\n        /* \"#utility.yul\":25517:25526   */\n      dup3\n        /* \"#utility.yul\":25512:25515   */\n      dup8\n        /* \"#utility.yul\":25508:25527   */\n      add\n        /* \"#utility.yul\":25502:25528   */\n      mload\n        /* \"#utility.yul\":25493:25528   */\n      swap1\n      pop\n        /* \"#utility.yul\":25465:25542   */\n    tag_478:\n        /* \"#utility.yul\":25568:25635   */\n      tag_479\n        /* \"#utility.yul\":25628:25634   */\n      dup6\n        /* \"#utility.yul\":25621:25626   */\n      dup3\n        /* \"#utility.yul\":25568:25635   */\n      tag_240\n      jump\t// in\n    tag_479:\n        /* \"#utility.yul\":25562:25566   */\n      dup7\n        /* \"#utility.yul\":25555:25636   */\n      sstore\n        /* \"#utility.yul\":25424:25646   */\n      pop\n        /* \"#utility.yul\":24759:25646   */\n      jump(tag_476)\n        /* \"#utility.yul\":24789:25407   */\n    tag_477:\n        /* \"#utility.yul\":24841:24845   */\n      0x1f\n        /* \"#utility.yul\":24837:24846   */\n      not\n        /* \"#utility.yul\":24829:24835   */\n      dup5\n        /* \"#utility.yul\":24825:24847   */\n      and\n        /* \"#utility.yul\":24875:24912   */\n      tag_480\n        /* \"#utility.yul\":24907:24911   */\n      dup7\n        /* \"#utility.yul\":24875:24912   */\n      tag_222\n      jump\t// in\n    tag_480:\n        /* \"#utility.yul\":24934:24935   */\n      0x00\n        /* \"#utility.yul\":24948:25156   */\n    tag_481:\n        /* \"#utility.yul\":24962:24969   */\n      dup3\n        /* \"#utility.yul\":24959:24960   */\n      dup2\n        /* \"#utility.yul\":24956:24970   */\n      lt\n        /* \"#utility.yul\":24948:25156   */\n      iszero\n      tag_483\n      jumpi\n        /* \"#utility.yul\":25041:25050   */\n      dup5\n        /* \"#utility.yul\":25036:25039   */\n      dup10\n        /* \"#utility.yul\":25032:25051   */\n      add\n        /* \"#utility.yul\":25026:25052   */\n      mload\n        /* \"#utility.yul\":25018:25024   */\n      dup3\n        /* \"#utility.yul\":25011:25053   */\n      sstore\n        /* \"#utility.yul\":25092:25093   */\n      0x01\n        /* \"#utility.yul\":25084:25090   */\n      dup3\n        /* \"#utility.yul\":25080:25094   */\n      add\n        /* \"#utility.yul\":25070:25094   */\n      swap2\n      pop\n        /* \"#utility.yul\":25139:25141   */\n      0x20\n        /* \"#utility.yul\":25128:25137   */\n      dup6\n        /* \"#utility.yul\":25124:25142   */\n      add\n        /* \"#utility.yul\":25111:25142   */\n      swap5\n      pop\n        /* \"#utility.yul\":24985:24989   */\n      0x20\n        /* \"#utility.yul\":24982:24983   */\n      dup2\n        /* \"#utility.yul\":24978:24990   */\n      add\n        /* \"#utility.yul\":24973:24990   */\n      swap1\n      pop\n        /* \"#utility.yul\":24948:25156   */\n      jump(tag_481)\n    tag_483:\n        /* \"#utility.yul\":25184:25190   */\n      dup7\n        /* \"#utility.yul\":25175:25182   */\n      dup4\n        /* \"#utility.yul\":25172:25191   */\n      lt\n        /* \"#utility.yul\":25169:25348   */\n      iszero\n      tag_484\n      jumpi\n        /* \"#utility.yul\":25242:25251   */\n      dup5\n        /* \"#utility.yul\":25237:25240   */\n      dup10\n        /* \"#utility.yul\":25233:25252   */\n      add\n        /* \"#utility.yul\":25227:25253   */\n      mload\n        /* \"#utility.yul\":25285:25333   */\n      tag_485\n        /* \"#utility.yul\":25327:25331   */\n      0x1f\n        /* \"#utility.yul\":25319:25325   */\n      dup10\n        /* \"#utility.yul\":25315:25332   */\n      and\n        /* \"#utility.yul\":25304:25313   */\n      dup3\n        /* \"#utility.yul\":25285:25333   */\n      tag_239\n      jump\t// in\n    tag_485:\n        /* \"#utility.yul\":25277:25283   */\n      dup4\n        /* \"#utility.yul\":25270:25334   */\n      sstore\n        /* \"#utility.yul\":25192:25348   */\n      pop\n        /* \"#utility.yul\":25169:25348   */\n    tag_484:\n        /* \"#utility.yul\":25394:25395   */\n      0x01\n        /* \"#utility.yul\":25390:25391   */\n      0x02\n        /* \"#utility.yul\":25382:25388   */\n      dup9\n        /* \"#utility.yul\":25378:25392   */\n      mul\n        /* \"#utility.yul\":25374:25396   */\n      add\n        /* \"#utility.yul\":25368:25372   */\n      dup9\n        /* \"#utility.yul\":25361:25397   */\n      sstore\n        /* \"#utility.yul\":24796:25407   */\n      pop\n      pop\n      pop\n        /* \"#utility.yul\":24759:25646   */\n    tag_476:\n      pop\n        /* \"#utility.yul\":24349:25652   */\n      pop\n      pop\n      pop\n        /* \"#utility.yul\":24257:25652   */\n      pop\n      pop\n      jump\t// out\n        /* \"#utility.yul\":25658:25852   */\n    tag_178:\n        /* \"#utility.yul\":25698:25702   */\n      0x00\n        /* \"#utility.yul\":25718:25738   */\n      tag_487\n        /* \"#utility.yul\":25736:25737   */\n      dup3\n        /* \"#utility.yul\":25718:25738   */\n      tag_201\n      jump\t// in\n    tag_487:\n        /* \"#utility.yul\":25713:25738   */\n      swap2\n      pop\n        /* \"#utility.yul\":25752:25772   */\n      tag_488\n        /* \"#utility.yul\":25770:25771   */\n      dup4\n        /* \"#utility.yul\":25752:25772   */\n      tag_201\n      jump\t// in\n    tag_488:\n        /* \"#utility.yul\":25747:25772   */\n      swap3\n      pop\n        /* \"#utility.yul\":25796:25797   */\n      dup3\n        /* \"#utility.yul\":25793:25794   */\n      dup3\n        /* \"#utility.yul\":25789:25798   */\n      sub\n        /* \"#utility.yul\":25781:25798   */\n      swap1\n      pop\n        /* \"#utility.yul\":25820:25821   */\n      dup2\n        /* \"#utility.yul\":25814:25818   */\n      dup2\n        /* \"#utility.yul\":25811:25822   */\n      gt\n        /* \"#utility.yul\":25808:25845   */\n      iszero\n      tag_489\n      jumpi\n        /* \"#utility.yul\":25825:25843   */\n      tag_490\n      tag_224\n      jump\t// in\n    tag_490:\n        /* \"#utility.yul\":25808:25845   */\n    tag_489:\n        /* \"#utility.yul\":25658:25852   */\n      swap3\n      swap2\n      pop\n      pop\n      jump\t// out\n\n    auxdata: 0xa2646970667358221220bac5ab9de08ac4e52dfd74f8653a38f5e0246dd7446f89a7b43db2298b24f8a064736f6c63430008100033\n}\n",
				"bytecode": {
					"linkReferences": {},
					"object": "608060405234801561001057600080fd5b50611c15806100206000396000f3fe608060405234801561001057600080fd5b50600436106100575760003560e01c80632ef8750f1461005c5780633f0a54a61461008c578063857030e6146100c1578063a5773610146100dd578063cf810953146100fb575b600080fd5b6100766004803603810190610071919061100f565b610119565b6040516100839190611257565b60405180910390f35b6100a660048036038101906100a191906112a5565b6105d3565b6040516100b89695949392919061132b565b60405180910390f35b6100db60048036038101906100d69190611558565b6108b7565b005b6100e5610ac7565b6040516100f29190611257565b60405180910390f35b610103610e79565b604051610110919061168d565b60405180910390f35b6060600080600190505b60015481116101b5578360405160200161013d91906116e4565b6040516020818303038152906040528051906020012060008083815260200190815260200160002060000160405160200161017891906117f3565b60405160208183030381529060405280519060200120036101a257818061019e90611839565b9250505b80806101ad90611839565b915050610123565b5060008167ffffffffffffffff8111156101d2576101d1610ee4565b5b60405190808252806020026020018201604052801561020b57816020015b6101f8610e7f565b8152602001906001900390816101f05790505b509050600080600190505b60015481116105c7578560405160200161023091906116e4565b6040516020818303038152906040528051906020012060008083815260200190815260200160002060000160405160200161026b91906117f3565b60405160208183030381529060405280519060200120036105b4576000808281526020019081526020016000206040518060c00160405290816000820180546102b39061172a565b80601f01602080910402602001604051908101604052809291908181526020018280546102df9061172a565b801561032c5780601f106103015761010080835404028352916020019161032c565b820191906000526020600020905b81548152906001019060200180831161030f57829003601f168201915b505050505081526020016001820180546103459061172a565b80601f01602080910402602001604051908101604052809291908181526020018280546103719061172a565b80156103be5780601f10610393576101008083540402835291602001916103be565b820191906000526020600020905b8154815290600101906020018083116103a157829003601f168201915b505050505081526020016002820180546103d79061172a565b80601f01602080910402602001604051908101604052809291908181526020018280546104039061172a565b80156104505780601f1061042557610100808354040283529160200191610450565b820191906000526020600020905b81548152906001019060200180831161043357829003601f168201915b505050505081526020016003820180546104699061172a565b80601f01602080910402602001604051908101604052809291908181526020018280546104959061172a565b80156104e25780601f106104b7576101008083540402835291602001916104e2565b820191906000526020600020905b8154815290600101906020018083116104c557829003601f168201915b505050505081526020016004820180546104fb9061172a565b80601f01602080910402602001604051908101604052809291908181526020018280546105279061172a565b80156105745780601f1061054957610100808354040283529160200191610574565b820191906000526020600020905b81548152906001019060200180831161055757829003601f168201915b5050505050815260200160058201548152505083838151811061059a57610599611881565b5b602002602001018190525081806105b090611839565b9250505b80806105bf90611839565b915050610216565b50819350505050919050565b60006020528060005260406000206000915090508060000180546105f69061172a565b80601f01602080910402602001604051908101604052809291908181526020018280546106229061172a565b801561066f5780601f106106445761010080835404028352916020019161066f565b820191906000526020600020905b81548152906001019060200180831161065257829003601f168201915b5050505050908060010180546106849061172a565b80601f01602080910402602001604051908101604052809291908181526020018280546106b09061172a565b80156106fd5780601f106106d2576101008083540402835291602001916106fd565b820191906000526020600020905b8154815290600101906020018083116106e057829003601f168201915b5050505050908060020180546107129061172a565b80601f016020809104026020016040519081016040528092919081815260200182805461073e9061172a565b801561078b5780601f106107605761010080835404028352916020019161078b565b820191906000526020600020905b81548152906001019060200180831161076e57829003601f168201915b5050505050908060030180546107a09061172a565b80601f01602080910402602001604051908101604052809291908181526020018280546107cc9061172a565b80156108195780601f106107ee57610100808354040283529160200191610819565b820191906000526020600020905b8154815290600101906020018083116107fc57829003601f168201915b50505050509080600401805461082e9061172a565b80601f016020809104026020016040519081016040528092919081815260200182805461085a9061172a565b80156108a75780601f1061087c576101008083540402835291602001916108a7565b820191906000526020600020905b81548152906001019060200180831161088a57829003601f168201915b5050505050908060050154905086565b845186511480156108c9575083518551145b80156108d6575082518451145b80156108e3575081518351145b80156108f0575080518251145b61092f576040517f08c379a000000000000000000000000000000000000000000000000000000000815260040161092690611922565b60405180910390fd5b60005b8651811015610abe576001600081548092919061094e90611839565b91905055506040518060c0016040528088838151811061097157610970611881565b5b6020026020010151815260200187838151811061099157610990611881565b5b602002602001015181526020018683815181106109b1576109b0611881565b5b602002602001015181526020018583815181106109d1576109d0611881565b5b602002602001015181526020018483815181106109f1576109f0611881565b5b60200260200101518152602001838381518110610a1157610a10611881565b5b602002602001015181525060008060015481526020019081526020016000206000820151816000019081610a459190611ad9565b506020820151816001019081610a5b9190611ad9565b506040820151816002019081610a719190611ad9565b506060820151816003019081610a879190611ad9565b506080820151816004019081610a9d9190611ad9565b5060a082015181600501559050508080610ab690611839565b915050610932565b50505050505050565b6060600060015467ffffffffffffffff811115610ae757610ae6610ee4565b5b604051908082528060200260200182016040528015610b2057816020015b610b0d610e7f565b815260200190600190039081610b055790505b5090506000600190505b6001548111610e71576000808281526020019081526020016000206040518060c0016040529081600082018054610b609061172a565b80601f0160208091040260200160405190810160405280929190818152602001828054610b8c9061172a565b8015610bd95780601f10610bae57610100808354040283529160200191610bd9565b820191906000526020600020905b815481529060010190602001808311610bbc57829003601f168201915b50505050508152602001600182018054610bf29061172a565b80601f0160208091040260200160405190810160405280929190818152602001828054610c1e9061172a565b8015610c6b5780601f10610c4057610100808354040283529160200191610c6b565b820191906000526020600020905b815481529060010190602001808311610c4e57829003601f168201915b50505050508152602001600282018054610c849061172a565b80601f0160208091040260200160405190810160405280929190818152602001828054610cb09061172a565b8015610cfd5780601f10610cd257610100808354040283529160200191610cfd565b820191906000526020600020905b815481529060010190602001808311610ce057829003601f168201915b50505050508152602001600382018054610d169061172a565b80601f0160208091040260200160405190810160405280929190818152602001828054610d429061172a565b8015610d8f5780601f10610d6457610100808354040283529160200191610d8f565b820191906000526020600020905b815481529060010190602001808311610d7257829003601f168201915b50505050508152602001600482018054610da89061172a565b80601f0160208091040260200160405190810160405280929190818152602001828054610dd49061172a565b8015610e215780601f10610df657610100808354040283529160200191610e21565b820191906000526020600020905b815481529060010190602001808311610e0457829003601f168201915b5050505050815260200160058201548152505082600183610e429190611bab565b81518110610e5357610e52611881565b5b60200260200101819052508080610e6990611839565b915050610b2a565b508091505090565b60015481565b6040518060c001604052806060815260200160608152602001606081526020016060815260200160608152602001600081525090565b6000604051905090565b600080fd5b600080fd5b600080fd5b600080fd5b6000601f19601f8301169050919050565b7f4e487b7100000000000000000000000000000000000000000000000000000000600052604160045260246000fd5b610f1c82610ed3565b810181811067ffffffffffffffff82111715610f3b57610f3a610ee4565b5b80604052505050565b6000610f4e610eb5565b9050610f5a8282610f13565b919050565b600067ffffffffffffffff821115610f7a57610f79610ee4565b5b610f8382610ed3565b9050602081019050919050565b82818337600083830152505050565b6000610fb2610fad84610f5f565b610f44565b905082815260208101848484011115610fce57610fcd610ece565b5b610fd9848285610f90565b509392505050565b600082601f830112610ff657610ff5610ec9565b5b8135611006848260208601610f9f565b91505092915050565b60006020828403121561102557611024610ebf565b5b600082013567ffffffffffffffff81111561104357611042610ec4565b5b61104f84828501610fe1565b91505092915050565b600081519050919050565b600082825260208201905092915050565b6000819050602082019050919050565b600081519050919050565b600082825260208201905092915050565b60005b838110156110be5780820151818401526020810190506110a3565b60008484015250505050565b60006110d582611084565b6110df818561108f565b93506110ef8185602086016110a0565b6110f881610ed3565b840191505092915050565b6000819050919050565b61111681611103565b82525050565b600060c083016000830151848203600086015261113982826110ca565b9150506020830151848203602086015261115382826110ca565b9150506040830151848203604086015261116d82826110ca565b9150506060830151848203606086015261118782826110ca565b915050608083015184820360808601526111a182826110ca565b91505060a08301516111b660a086018261110d565b508091505092915050565b60006111cd838361111c565b905092915050565b6000602082019050919050565b60006111ed82611058565b6111f78185611063565b93508360208202850161120985611074565b8060005b85811015611245578484038952815161122685826111c1565b9450611231836111d5565b925060208a0199505060018101905061120d565b50829750879550505050505092915050565b6000602082019050818103600083015261127181846111e2565b905092915050565b61128281611103565b811461128d57600080fd5b50565b60008135905061129f81611279565b92915050565b6000602082840312156112bb576112ba610ebf565b5b60006112c984828501611290565b91505092915050565b600082825260208201905092915050565b60006112ee82611084565b6112f881856112d2565b93506113088185602086016110a0565b61131181610ed3565b840191505092915050565b61132581611103565b82525050565b600060c082019050818103600083015261134581896112e3565b9050818103602083015261135981886112e3565b9050818103604083015261136d81876112e3565b9050818103606083015261138181866112e3565b9050818103608083015261139581856112e3565b90506113a460a083018461131c565b979650505050505050565b600067ffffffffffffffff8211156113ca576113c9610ee4565b5b602082029050602081019050919050565b600080fd5b60006113f36113ee846113af565b610f44565b90508083825260208201905060208402830185811115611416576114156113db565b5b835b8181101561145d57803567ffffffffffffffff81111561143b5761143a610ec9565b5b8086016114488982610fe1565b85526020850194505050602081019050611418565b5050509392505050565b600082601f83011261147c5761147b610ec9565b5b813561148c8482602086016113e0565b91505092915050565b600067ffffffffffffffff8211156114b0576114af610ee4565b5b602082029050602081019050919050565b60006114d46114cf84611495565b610f44565b905080838252602082019050602084028301858111156114f7576114f66113db565b5b835b81811015611520578061150c8882611290565b8452602084019350506020810190506114f9565b5050509392505050565b600082601f83011261153f5761153e610ec9565b5b813561154f8482602086016114c1565b91505092915050565b60008060008060008060c0878903121561157557611574610ebf565b5b600087013567ffffffffffffffff81111561159357611592610ec4565b5b61159f89828a01611467565b965050602087013567ffffffffffffffff8111156115c0576115bf610ec4565b5b6115cc89828a01611467565b955050604087013567ffffffffffffffff8111156115ed576115ec610ec4565b5b6115f989828a01611467565b945050606087013567ffffffffffffffff81111561161a57611619610ec4565b5b61162689828a01611467565b935050608087013567ffffffffffffffff81111561164757611646610ec4565b5b61165389828a01611467565b92505060a087013567ffffffffffffffff81111561167457611673610ec4565b5b61168089828a0161152a565b9150509295509295509295565b60006020820190506116a2600083018461131c565b92915050565b600081905092915050565b60006116be82611084565b6116c881856116a8565b93506116d88185602086016110a0565b80840191505092915050565b60006116f082846116b3565b915081905092915050565b7f4e487b7100000000000000000000000000000000000000000000000000000000600052602260045260246000fd5b6000600282049050600182168061174257607f821691505b602082108103611755576117546116fb565b5b50919050565b60008190508160005260206000209050919050565b6000815461177d8161172a565b61178781866116a8565b945060018216600081146117a257600181146117b7576117ea565b60ff19831686528115158202860193506117ea565b6117c08561175b565b60005b838110156117e2578154818901526001820191506020810190506117c3565b838801955050505b50505092915050565b60006117ff8284611770565b915081905092915050565b7f4e487b7100000000000000000000000000000000000000000000000000000000600052601160045260246000fd5b600061184482611103565b91507fffffffffffffffffffffffffffffffffffffffffffffffffffffffffffffffff82036118765761187561180a565b5b600182019050919050565b7f4e487b7100000000000000000000000000000000000000000000000000000000600052603260045260246000fd5b7f4c656e67746873206f6620696e7075742061727261797320646f206e6f74206d60008201527f6174636800000000000000000000000000000000000000000000000000000000602082015250565b600061190c6024836112d2565b9150611917826118b0565b604082019050919050565b6000602082019050818103600083015261193b816118ff565b9050919050565b60006020601f8301049050919050565b600082821b905092915050565b60006008830261198f7fffffffffffffffffffffffffffffffffffffffffffffffffffffffffffffffff82611952565b6119998683611952565b95508019841693508086168417925050509392505050565b6000819050919050565b60006119d66119d16119cc84611103565b6119b1565b611103565b9050919050565b6000819050919050565b6119f0836119bb565b611a046119fc826119dd565b84845461195f565b825550505050565b600090565b611a19611a0c565b611a248184846119e7565b505050565b5b81811015611a4857611a3d600082611a11565b600181019050611a2a565b5050565b601f821115611a8d57611a5e8161175b565b611a6784611942565b81016020851015611a76578190505b611a8a611a8285611942565b830182611a29565b50505b505050565b600082821c905092915050565b6000611ab060001984600802611a92565b1980831691505092915050565b6000611ac98383611a9f565b9150826002028217905092915050565b611ae282611084565b67ffffffffffffffff811115611afb57611afa610ee4565b5b611b05825461172a565b611b10828285611a4c565b600060209050601f831160018114611b435760008415611b31578287015190505b611b3b8582611abd565b865550611ba3565b601f198416611b518661175b565b60005b82811015611b7957848901518255600182019150602085019450602081019050611b54565b86831015611b965784890151611b92601f891682611a9f565b8355505b6001600288020188555050505b505050505050565b6000611bb682611103565b9150611bc183611103565b9250828203905081811115611bd957611bd861180a565b5b9291505056fea2646970667358221220bac5ab9de08ac4e52dfd74f8653a38f5e0246dd7446f89a7b43db2298b24f8a064736f6c63430008100033",
					"opcodes": "PUSH1 0x80 PUSH1 0x40 MSTORE CALLVALUE DUP1 ISZERO PUSH2 0x10 JUMPI PUSH1 0x0 DUP1 REVERT JUMPDEST POP PUSH2 0x1C15 DUP1 PUSH2 0x20 PUSH1 0x0 CODECOPY PUSH1 0x0 RETURN INVALID PUSH1 0x80 PUSH1 0x40 MSTORE CALLVALUE DUP1 ISZERO PUSH2 0x10 JUMPI PUSH1 0x0 DUP1 REVERT JUMPDEST POP PUSH1 0x4 CALLDATASIZE LT PUSH2 0x57 JUMPI PUSH1 0x0 CALLDATALOAD PUSH1 0xE0 SHR DUP1 PUSH4 0x2EF8750F EQ PUSH2 0x5C JUMPI DUP1 PUSH4 0x3F0A54A6 EQ PUSH2 0x8C JUMPI DUP1 PUSH4 0x857030E6 EQ PUSH2 0xC1 JUMPI DUP1 PUSH4 0xA5773610 EQ PUSH2 0xDD JUMPI DUP1 PUSH4 0xCF810953 EQ PUSH2 0xFB JUMPI JUMPDEST PUSH1 0x0 DUP1 REVERT JUMPDEST PUSH2 0x76 PUSH1 0x4 DUP1 CALLDATASIZE SUB DUP2 ADD SWAP1 PUSH2 0x71 SWAP2 SWAP1 PUSH2 0x100F JUMP JUMPDEST PUSH2 0x119 JUMP JUMPDEST PUSH1 0x40 MLOAD PUSH2 0x83 SWAP2 SWAP1 PUSH2 0x1257 JUMP JUMPDEST PUSH1 0x40 MLOAD DUP1 SWAP2 SUB SWAP1 RETURN JUMPDEST PUSH2 0xA6 PUSH1 0x4 DUP1 CALLDATASIZE SUB DUP2 ADD SWAP1 PUSH2 0xA1 SWAP2 SWAP1 PUSH2 0x12A5 JUMP JUMPDEST PUSH2 0x5D3 JUMP JUMPDEST PUSH1 0x40 MLOAD PUSH2 0xB8 SWAP7 SWAP6 SWAP5 SWAP4 SWAP3 SWAP2 SWAP1 PUSH2 0x132B JUMP JUMPDEST PUSH1 0x40 MLOAD DUP1 SWAP2 SUB SWAP1 RETURN JUMPDEST PUSH2 0xDB PUSH1 0x4 DUP1 CALLDATASIZE SUB DUP2 ADD SWAP1 PUSH2 0xD6 SWAP2 SWAP1 PUSH2 0x1558 JUMP JUMPDEST PUSH2 0x8B7 JUMP JUMPDEST STOP JUMPDEST PUSH2 0xE5 PUSH2 0xAC7 JUMP JUMPDEST PUSH1 0x40 MLOAD PUSH2 0xF2 SWAP2 SWAP1 PUSH2 0x1257 JUMP JUMPDEST PUSH1 0x40 MLOAD DUP1 SWAP2 SUB SWAP1 RETURN JUMPDEST PUSH2 0x103 PUSH2 0xE79 JUMP JUMPDEST PUSH1 0x40 MLOAD PUSH2 0x110 SWAP2 SWAP1 PUSH2 0x168D JUMP JUMPDEST PUSH1 0x40 MLOAD DUP1 SWAP2 SUB SWAP1 RETURN JUMPDEST PUSH1 0x60 PUSH1 0x0 DUP1 PUSH1 0x1 SWAP1 POP JUMPDEST PUSH1 0x1 SLOAD DUP2 GT PUSH2 0x1B5 JUMPI DUP4 PUSH1 0x40 MLOAD PUSH1 0x20 ADD PUSH2 0x13D SWAP2 SWAP1 PUSH2 0x16E4 JUMP JUMPDEST PUSH1 0x40 MLOAD PUSH1 0x20 DUP2 DUP4 SUB SUB DUP2 MSTORE SWAP1 PUSH1 0x40 MSTORE DUP1 MLOAD SWAP1 PUSH1 0x20 ADD KECCAK256 PUSH1 0x0 DUP1 DUP4 DUP2 MSTORE PUSH1 0x20 ADD SWAP1 DUP2 MSTORE PUSH1 0x20 ADD PUSH1 0x0 KECCAK256 PUSH1 0x0 ADD PUSH1 0x40 MLOAD PUSH1 0x20 ADD PUSH2 0x178 SWAP2 SWAP1 PUSH2 0x17F3 JUMP JUMPDEST PUSH1 0x40 MLOAD PUSH1 0x20 DUP2 DUP4 SUB SUB DUP2 MSTORE SWAP1 PUSH1 0x40 MSTORE DUP1 MLOAD SWAP1 PUSH1 0x20 ADD KECCAK256 SUB PUSH2 0x1A2 JUMPI DUP2 DUP1 PUSH2 0x19E SWAP1 PUSH2 0x1839 JUMP JUMPDEST SWAP3 POP POP JUMPDEST DUP1 DUP1 PUSH2 0x1AD SWAP1 PUSH2 0x1839 JUMP JUMPDEST SWAP2 POP POP PUSH2 0x123 JUMP JUMPDEST POP PUSH1 0x0 DUP2 PUSH8 0xFFFFFFFFFFFFFFFF DUP2 GT ISZERO PUSH2 0x1D2 JUMPI PUSH2 0x1D1 PUSH2 0xEE4 JUMP JUMPDEST JUMPDEST PUSH1 0x40 MLOAD SWAP1 DUP1 DUP3 MSTORE DUP1 PUSH1 0x20 MUL PUSH1 0x20 ADD DUP3 ADD PUSH1 0x40 MSTORE DUP1 ISZERO PUSH2 0x20B JUMPI DUP2 PUSH1 0x20 ADD JUMPDEST PUSH2 0x1F8 PUSH2 0xE7F JUMP JUMPDEST DUP2 MSTORE PUSH1 0x20 ADD SWAP1 PUSH1 0x1 SWAP1 SUB SWAP1 DUP2 PUSH2 0x1F0 JUMPI SWAP1 POP JUMPDEST POP SWAP1 POP PUSH1 0x0 DUP1 PUSH1 0x1 SWAP1 POP JUMPDEST PUSH1 0x1 SLOAD DUP2 GT PUSH2 0x5C7 JUMPI DUP6 PUSH1 0x40 MLOAD PUSH1 0x20 ADD PUSH2 0x230 SWAP2 SWAP1 PUSH2 0x16E4 JUMP JUMPDEST PUSH1 0x40 MLOAD PUSH1 0x20 DUP2 DUP4 SUB SUB DUP2 MSTORE SWAP1 PUSH1 0x40 MSTORE DUP1 MLOAD SWAP1 PUSH1 0x20 ADD KECCAK256 PUSH1 0x0 DUP1 DUP4 DUP2 MSTORE PUSH1 0x20 ADD SWAP1 DUP2 MSTORE PUSH1 0x20 ADD PUSH1 0x0 KECCAK256 PUSH1 0x0 ADD PUSH1 0x40 MLOAD PUSH1 0x20 ADD PUSH2 0x26B SWAP2 SWAP1 PUSH2 0x17F3 JUMP JUMPDEST PUSH1 0x40 MLOAD PUSH1 0x20 DUP2 DUP4 SUB SUB DUP2 MSTORE SWAP1 PUSH1 0x40 MSTORE DUP1 MLOAD SWAP1 PUSH1 0x20 ADD KECCAK256 SUB PUSH2 0x5B4 JUMPI PUSH1 0x0 DUP1 DUP3 DUP2 MSTORE PUSH1 0x20 ADD SWAP1 DUP2 MSTORE PUSH1 0x20 ADD PUSH1 0x0 KECCAK256 PUSH1 0x40 MLOAD DUP1 PUSH1 0xC0 ADD PUSH1 0x40 MSTORE SWAP1 DUP2 PUSH1 0x0 DUP3 ADD DUP1 SLOAD PUSH2 0x2B3 SWAP1 PUSH2 0x172A JUMP JUMPDEST DUP1 PUSH1 0x1F ADD PUSH1 0x20 DUP1 SWAP2 DIV MUL PUSH1 0x20 ADD PUSH1 0x40 MLOAD SWAP1 DUP2 ADD PUSH1 0x40 MSTORE DUP1 SWAP3 SWAP2 SWAP1 DUP2 DUP2 MSTORE PUSH1 0x20 ADD DUP3 DUP1 SLOAD PUSH2 0x2DF SWAP1 PUSH2 0x172A JUMP JUMPDEST DUP1 ISZERO PUSH2 0x32C JUMPI DUP1 PUSH1 0x1F LT PUSH2 0x301 JUMPI PUSH2 0x100 DUP1 DUP4 SLOAD DIV MUL DUP4 MSTORE SWAP2 PUSH1 0x20 ADD SWAP2 PUSH2 0x32C JUMP JUMPDEST DUP3 ADD SWAP2 SWAP1 PUSH1 0x0 MSTORE PUSH1 0x20 PUSH1 0x0 KECCAK256 SWAP1 JUMPDEST DUP2 SLOAD DUP2 MSTORE SWAP1 PUSH1 0x1 ADD SWAP1 PUSH1 0x20 ADD DUP1 DUP4 GT PUSH2 0x30F JUMPI DUP3 SWAP1 SUB PUSH1 0x1F AND DUP3 ADD SWAP2 JUMPDEST POP POP POP POP POP DUP2 MSTORE PUSH1 0x20 ADD PUSH1 0x1 DUP3 ADD DUP1 SLOAD PUSH2 0x345 SWAP1 PUSH2 0x172A JUMP JUMPDEST DUP1 PUSH1 0x1F ADD PUSH1 0x20 DUP1 SWAP2 DIV MUL PUSH1 0x20 ADD PUSH1 0x40 MLOAD SWAP1 DUP2 ADD PUSH1 0x40 MSTORE DUP1 SWAP3 SWAP2 SWAP1 DUP2 DUP2 MSTORE PUSH1 0x20 ADD DUP3 DUP1 SLOAD PUSH2 0x371 SWAP1 PUSH2 0x172A JUMP JUMPDEST DUP1 ISZERO PUSH2 0x3BE JUMPI DUP1 PUSH1 0x1F LT PUSH2 0x393 JUMPI PUSH2 0x100 DUP1 DUP4 SLOAD DIV MUL DUP4 MSTORE SWAP2 PUSH1 0x20 ADD SWAP2 PUSH2 0x3BE JUMP JUMPDEST DUP3 ADD SWAP2 SWAP1 PUSH1 0x0 MSTORE PUSH1 0x20 PUSH1 0x0 KECCAK256 SWAP1 JUMPDEST DUP2 SLOAD DUP2 MSTORE SWAP1 PUSH1 0x1 ADD SWAP1 PUSH1 0x20 ADD DUP1 DUP4 GT PUSH2 0x3A1 JUMPI DUP3 SWAP1 SUB PUSH1 0x1F AND DUP3 ADD SWAP2 JUMPDEST POP POP POP POP POP DUP2 MSTORE PUSH1 0x20 ADD PUSH1 0x2 DUP3 ADD DUP1 SLOAD PUSH2 0x3D7 SWAP1 PUSH2 0x172A JUMP JUMPDEST DUP1 PUSH1 0x1F ADD PUSH1 0x20 DUP1 SWAP2 DIV MUL PUSH1 0x20 ADD PUSH1 0x40 MLOAD SWAP1 DUP2 ADD PUSH1 0x40 MSTORE DUP1 SWAP3 SWAP2 SWAP1 DUP2 DUP2 MSTORE PUSH1 0x20 ADD DUP3 DUP1 SLOAD PUSH2 0x403 SWAP1 PUSH2 0x172A JUMP JUMPDEST DUP1 ISZERO PUSH2 0x450 JUMPI DUP1 PUSH1 0x1F LT PUSH2 0x425 JUMPI PUSH2 0x100 DUP1 DUP4 SLOAD DIV MUL DUP4 MSTORE SWAP2 PUSH1 0x20 ADD SWAP2 PUSH2 0x450 JUMP JUMPDEST DUP3 ADD SWAP2 SWAP1 PUSH1 0x0 MSTORE PUSH1 0x20 PUSH1 0x0 KECCAK256 SWAP1 JUMPDEST DUP2 SLOAD DUP2 MSTORE SWAP1 PUSH1 0x1 ADD SWAP1 PUSH1 0x20 ADD DUP1 DUP4 GT PUSH2 0x433 JUMPI DUP3 SWAP1 SUB PUSH1 0x1F AND DUP3 ADD SWAP2 JUMPDEST POP POP POP POP POP DUP2 MSTORE PUSH1 0x20 ADD PUSH1 0x3 DUP3 ADD DUP1 SLOAD PUSH2 0x469 SWAP1 PUSH2 0x172A JUMP JUMPDEST DUP1 PUSH1 0x1F ADD PUSH1 0x20 DUP1 SWAP2 DIV MUL PUSH1 0x20 ADD PUSH1 0x40 MLOAD SWAP1 DUP2 ADD PUSH1 0x40 MSTORE DUP1 SWAP3 SWAP2 SWAP1 DUP2 DUP2 MSTORE PUSH1 0x20 ADD DUP3 DUP1 SLOAD PUSH2 0x495 SWAP1 PUSH2 0x172A JUMP JUMPDEST DUP1 ISZERO PUSH2 0x4E2 JUMPI DUP1 PUSH1 0x1F LT PUSH2 0x4B7 JUMPI PUSH2 0x100 DUP1 DUP4 SLOAD DIV MUL DUP4 MSTORE SWAP2 PUSH1 0x20 ADD SWAP2 PUSH2 0x4E2 JUMP JUMPDEST DUP3 ADD SWAP2 SWAP1 PUSH1 0x0 MSTORE PUSH1 0x20 PUSH1 0x0 KECCAK256 SWAP1 JUMPDEST DUP2 SLOAD DUP2 MSTORE SWAP1 PUSH1 0x1 ADD SWAP1 PUSH1 0x20 ADD DUP1 DUP4 GT PUSH2 0x4C5 JUMPI DUP3 SWAP1 SUB PUSH1 0x1F AND DUP3 ADD SWAP2 JUMPDEST POP POP POP POP POP DUP2 MSTORE PUSH1 0x20 ADD PUSH1 0x4 DUP3 ADD DUP1 SLOAD PUSH2 0x4FB SWAP1 PUSH2 0x172A JUMP JUMPDEST DUP1 PUSH1 0x1F ADD PUSH1 0x20 DUP1 SWAP2 DIV MUL PUSH1 0x20 ADD PUSH1 0x40 MLOAD SWAP1 DUP2 ADD PUSH1 0x40 MSTORE DUP1 SWAP3 SWAP2 SWAP1 DUP2 DUP2 MSTORE PUSH1 0x20 ADD DUP3 DUP1 SLOAD PUSH2 0x527 SWAP1 PUSH2 0x172A JUMP JUMPDEST DUP1 ISZERO PUSH2 0x574 JUMPI DUP1 PUSH1 0x1F LT PUSH2 0x549 JUMPI PUSH2 0x100 DUP1 DUP4 SLOAD DIV MUL DUP4 MSTORE SWAP2 PUSH1 0x20 ADD SWAP2 PUSH2 0x574 JUMP JUMPDEST DUP3 ADD SWAP2 SWAP1 PUSH1 0x0 MSTORE PUSH1 0x20 PUSH1 0x0 KECCAK256 SWAP1 JUMPDEST DUP2 SLOAD DUP2 MSTORE SWAP1 PUSH1 0x1 ADD SWAP1 PUSH1 0x20 ADD DUP1 DUP4 GT PUSH2 0x557 JUMPI DUP3 SWAP1 SUB PUSH1 0x1F AND DUP3 ADD SWAP2 JUMPDEST POP POP POP POP POP DUP2 MSTORE PUSH1 0x20 ADD PUSH1 0x5 DUP3 ADD SLOAD DUP2 MSTORE POP POP DUP4 DUP4 DUP2 MLOAD DUP2 LT PUSH2 0x59A JUMPI PUSH2 0x599 PUSH2 0x1881 JUMP JUMPDEST JUMPDEST PUSH1 0x20 MUL PUSH1 0x20 ADD ADD DUP2 SWAP1 MSTORE POP DUP2 DUP1 PUSH2 0x5B0 SWAP1 PUSH2 0x1839 JUMP JUMPDEST SWAP3 POP POP JUMPDEST DUP1 DUP1 PUSH2 0x5BF SWAP1 PUSH2 0x1839 JUMP JUMPDEST SWAP2 POP POP PUSH2 0x216 JUMP JUMPDEST POP DUP2 SWAP4 POP POP POP POP SWAP2 SWAP1 POP JUMP JUMPDEST PUSH1 0x0 PUSH1 0x20 MSTORE DUP1 PUSH1 0x0 MSTORE PUSH1 0x40 PUSH1 0x0 KECCAK256 PUSH1 0x0 SWAP2 POP SWAP1 POP DUP1 PUSH1 0x0 ADD DUP1 SLOAD PUSH2 0x5F6 SWAP1 PUSH2 0x172A JUMP JUMPDEST DUP1 PUSH1 0x1F ADD PUSH1 0x20 DUP1 SWAP2 DIV MUL PUSH1 0x20 ADD PUSH1 0x40 MLOAD SWAP1 DUP2 ADD PUSH1 0x40 MSTORE DUP1 SWAP3 SWAP2 SWAP1 DUP2 DUP2 MSTORE PUSH1 0x20 ADD DUP3 DUP1 SLOAD PUSH2 0x622 SWAP1 PUSH2 0x172A JUMP JUMPDEST DUP1 ISZERO PUSH2 0x66F JUMPI DUP1 PUSH1 0x1F LT PUSH2 0x644 JUMPI PUSH2 0x100 DUP1 DUP4 SLOAD DIV MUL DUP4 MSTORE SWAP2 PUSH1 0x20 ADD SWAP2 PUSH2 0x66F JUMP JUMPDEST DUP3 ADD SWAP2 SWAP1 PUSH1 0x0 MSTORE PUSH1 0x20 PUSH1 0x0 KECCAK256 SWAP1 JUMPDEST DUP2 SLOAD DUP2 MSTORE SWAP1 PUSH1 0x1 ADD SWAP1 PUSH1 0x20 ADD DUP1 DUP4 GT PUSH2 0x652 JUMPI DUP3 SWAP1 SUB PUSH1 0x1F AND DUP3 ADD SWAP2 JUMPDEST POP POP POP POP POP SWAP1 DUP1 PUSH1 0x1 ADD DUP1 SLOAD PUSH2 0x684 SWAP1 PUSH2 0x172A JUMP JUMPDEST DUP1 PUSH1 0x1F ADD PUSH1 0x20 DUP1 SWAP2 DIV MUL PUSH1 0x20 ADD PUSH1 0x40 MLOAD SWAP1 DUP2 ADD PUSH1 0x40 MSTORE DUP1 SWAP3 SWAP2 SWAP1 DUP2 DUP2 MSTORE PUSH1 0x20 ADD DUP3 DUP1 SLOAD PUSH2 0x6B0 SWAP1 PUSH2 0x172A JUMP JUMPDEST DUP1 ISZERO PUSH2 0x6FD JUMPI DUP1 PUSH1 0x1F LT PUSH2 0x6D2 JUMPI PUSH2 0x100 DUP1 DUP4 SLOAD DIV MUL DUP4 MSTORE SWAP2 PUSH1 0x20 ADD SWAP2 PUSH2 0x6FD JUMP JUMPDEST DUP3 ADD SWAP2 SWAP1 PUSH1 0x0 MSTORE PUSH1 0x20 PUSH1 0x0 KECCAK256 SWAP1 JUMPDEST DUP2 SLOAD DUP2 MSTORE SWAP1 PUSH1 0x1 ADD SWAP1 PUSH1 0x20 ADD DUP1 DUP4 GT PUSH2 0x6E0 JUMPI DUP3 SWAP1 SUB PUSH1 0x1F AND DUP3 ADD SWAP2 JUMPDEST POP POP POP POP POP SWAP1 DUP1 PUSH1 0x2 ADD DUP1 SLOAD PUSH2 0x712 SWAP1 PUSH2 0x172A JUMP JUMPDEST DUP1 PUSH1 0x1F ADD PUSH1 0x20 DUP1 SWAP2 DIV MUL PUSH1 0x20 ADD PUSH1 0x40 MLOAD SWAP1 DUP2 ADD PUSH1 0x40 MSTORE DUP1 SWAP3 SWAP2 SWAP1 DUP2 DUP2 MSTORE PUSH1 0x20 ADD DUP3 DUP1 SLOAD PUSH2 0x73E SWAP1 PUSH2 0x172A JUMP JUMPDEST DUP1 ISZERO PUSH2 0x78B JUMPI DUP1 PUSH1 0x1F LT PUSH2 0x760 JUMPI PUSH2 0x100 DUP1 DUP4 SLOAD DIV MUL DUP4 MSTORE SWAP2 PUSH1 0x20 ADD SWAP2 PUSH2 0x78B JUMP JUMPDEST DUP3 ADD SWAP2 SWAP1 PUSH1 0x0 MSTORE PUSH1 0x20 PUSH1 0x0 KECCAK256 SWAP1 JUMPDEST DUP2 SLOAD DUP2 MSTORE SWAP1 PUSH1 0x1 ADD SWAP1 PUSH1 0x20 ADD DUP1 DUP4 GT PUSH2 0x76E JUMPI DUP3 SWAP1 SUB PUSH1 0x1F AND DUP3 ADD SWAP2 JUMPDEST POP POP POP POP POP SWAP1 DUP1 PUSH1 0x3 ADD DUP1 SLOAD PUSH2 0x7A0 SWAP1 PUSH2 0x172A JUMP JUMPDEST DUP1 PUSH1 0x1F ADD PUSH1 0x20 DUP1 SWAP2 DIV MUL PUSH1 0x20 ADD PUSH1 0x40 MLOAD SWAP1 DUP2 ADD PUSH1 0x40 MSTORE DUP1 SWAP3 SWAP2 SWAP1 DUP2 DUP2 MSTORE PUSH1 0x20 ADD DUP3 DUP1 SLOAD PUSH2 0x7CC SWAP1 PUSH2 0x172A JUMP JUMPDEST DUP1 ISZERO PUSH2 0x819 JUMPI DUP1 PUSH1 0x1F LT PUSH2 0x7EE JUMPI PUSH2 0x100 DUP1 DUP4 SLOAD DIV MUL DUP4 MSTORE SWAP2 PUSH1 0x20 ADD SWAP2 PUSH2 0x819 JUMP JUMPDEST DUP3 ADD SWAP2 SWAP1 PUSH1 0x0 MSTORE PUSH1 0x20 PUSH1 0x0 KECCAK256 SWAP1 JUMPDEST DUP2 SLOAD DUP2 MSTORE SWAP1 PUSH1 0x1 ADD SWAP1 PUSH1 0x20 ADD DUP1 DUP4 GT PUSH2 0x7FC JUMPI DUP3 SWAP1 SUB PUSH1 0x1F AND DUP3 ADD SWAP2 JUMPDEST POP POP POP POP POP SWAP1 DUP1 PUSH1 0x4 ADD DUP1 SLOAD PUSH2 0x82E SWAP1 PUSH2 0x172A JUMP JUMPDEST DUP1 PUSH1 0x1F ADD PUSH1 0x20 DUP1 SWAP2 DIV MUL PUSH1 0x20 ADD PUSH1 0x40 MLOAD SWAP1 DUP2 ADD PUSH1 0x40 MSTORE DUP1 SWAP3 SWAP2 SWAP1 DUP2 DUP2 MSTORE PUSH1 0x20 ADD DUP3 DUP1 SLOAD PUSH2 0x85A SWAP1 PUSH2 0x172A JUMP JUMPDEST DUP1 ISZERO PUSH2 0x8A7 JUMPI DUP1 PUSH1 0x1F LT PUSH2 0x87C JUMPI PUSH2 0x100 DUP1 DUP4 SLOAD DIV MUL DUP4 MSTORE SWAP2 PUSH1 0x20 ADD SWAP2 PUSH2 0x8A7 JUMP JUMPDEST DUP3 ADD SWAP2 SWAP1 PUSH1 0x0 MSTORE PUSH1 0x20 PUSH1 0x0 KECCAK256 SWAP1 JUMPDEST DUP2 SLOAD DUP2 MSTORE SWAP1 PUSH1 0x1 ADD SWAP1 PUSH1 0x20 ADD DUP1 DUP4 GT PUSH2 0x88A JUMPI DUP3 SWAP1 SUB PUSH1 0x1F AND DUP3 ADD SWAP2 JUMPDEST POP POP POP POP POP SWAP1 DUP1 PUSH1 0x5 ADD SLOAD SWAP1 POP DUP7 JUMP JUMPDEST DUP5 MLOAD DUP7 MLOAD EQ DUP1 ISZERO PUSH2 0x8C9 JUMPI POP DUP4 MLOAD DUP6 MLOAD EQ JUMPDEST DUP1 ISZERO PUSH2 0x8D6 JUMPI POP DUP3 MLOAD DUP5 MLOAD EQ JUMPDEST DUP1 ISZERO PUSH2 0x8E3 JUMPI POP DUP2 MLOAD DUP4 MLOAD EQ JUMPDEST DUP1 ISZERO PUSH2 0x8F0 JUMPI POP DUP1 MLOAD DUP3 MLOAD EQ JUMPDEST PUSH2 0x92F JUMPI PUSH1 0x40 MLOAD PUSH32 0x8C379A000000000000000000000000000000000000000000000000000000000 DUP2 MSTORE PUSH1 0x4 ADD PUSH2 0x926 SWAP1 PUSH2 0x1922 JUMP JUMPDEST PUSH1 0x40 MLOAD DUP1 SWAP2 SUB SWAP1 REVERT JUMPDEST PUSH1 0x0 JUMPDEST DUP7 MLOAD DUP2 LT ISZERO PUSH2 0xABE JUMPI PUSH1 0x1 PUSH1 0x0 DUP2 SLOAD DUP1 SWAP3 SWAP2 SWAP1 PUSH2 0x94E SWAP1 PUSH2 0x1839 JUMP JUMPDEST SWAP2 SWAP1 POP SSTORE POP PUSH1 0x40 MLOAD DUP1 PUSH1 0xC0 ADD PUSH1 0x40 MSTORE DUP1 DUP9 DUP4 DUP2 MLOAD DUP2 LT PUSH2 0x971 JUMPI PUSH2 0x970 PUSH2 0x1881 JUMP JUMPDEST JUMPDEST PUSH1 0x20 MUL PUSH1 0x20 ADD ADD MLOAD DUP2 MSTORE PUSH1 0x20 ADD DUP8 DUP4 DUP2 MLOAD DUP2 LT PUSH2 0x991 JUMPI PUSH2 0x990 PUSH2 0x1881 JUMP JUMPDEST JUMPDEST PUSH1 0x20 MUL PUSH1 0x20 ADD ADD MLOAD DUP2 MSTORE PUSH1 0x20 ADD DUP7 DUP4 DUP2 MLOAD DUP2 LT PUSH2 0x9B1 JUMPI PUSH2 0x9B0 PUSH2 0x1881 JUMP JUMPDEST JUMPDEST PUSH1 0x20 MUL PUSH1 0x20 ADD ADD MLOAD DUP2 MSTORE PUSH1 0x20 ADD DUP6 DUP4 DUP2 MLOAD DUP2 LT PUSH2 0x9D1 JUMPI PUSH2 0x9D0 PUSH2 0x1881 JUMP JUMPDEST JUMPDEST PUSH1 0x20 MUL PUSH1 0x20 ADD ADD MLOAD DUP2 MSTORE PUSH1 0x20 ADD DUP5 DUP4 DUP2 MLOAD DUP2 LT PUSH2 0x9F1 JUMPI PUSH2 0x9F0 PUSH2 0x1881 JUMP JUMPDEST JUMPDEST PUSH1 0x20 MUL PUSH1 0x20 ADD ADD MLOAD DUP2 MSTORE PUSH1 0x20 ADD DUP4 DUP4 DUP2 MLOAD DUP2 LT PUSH2 0xA11 JUMPI PUSH2 0xA10 PUSH2 0x1881 JUMP JUMPDEST JUMPDEST PUSH1 0x20 MUL PUSH1 0x20 ADD ADD MLOAD DUP2 MSTORE POP PUSH1 0x0 DUP1 PUSH1 0x1 SLOAD DUP2 MSTORE PUSH1 0x20 ADD SWAP1 DUP2 MSTORE PUSH1 0x20 ADD PUSH1 0x0 KECCAK256 PUSH1 0x0 DUP3 ADD MLOAD DUP2 PUSH1 0x0 ADD SWAP1 DUP2 PUSH2 0xA45 SWAP2 SWAP1 PUSH2 0x1AD9 JUMP JUMPDEST POP PUSH1 0x20 DUP3 ADD MLOAD DUP2 PUSH1 0x1 ADD SWAP1 DUP2 PUSH2 0xA5B SWAP2 SWAP1 PUSH2 0x1AD9 JUMP JUMPDEST POP PUSH1 0x40 DUP3 ADD MLOAD DUP2 PUSH1 0x2 ADD SWAP1 DUP2 PUSH2 0xA71 SWAP2 SWAP1 PUSH2 0x1AD9 JUMP JUMPDEST POP PUSH1 0x60 DUP3 ADD MLOAD DUP2 PUSH1 0x3 ADD SWAP1 DUP2 PUSH2 0xA87 SWAP2 SWAP1 PUSH2 0x1AD9 JUMP JUMPDEST POP PUSH1 0x80 DUP3 ADD MLOAD DUP2 PUSH1 0x4 ADD SWAP1 DUP2 PUSH2 0xA9D SWAP2 SWAP1 PUSH2 0x1AD9 JUMP JUMPDEST POP PUSH1 0xA0 DUP3 ADD MLOAD DUP2 PUSH1 0x5 ADD SSTORE SWAP1 POP POP DUP1 DUP1 PUSH2 0xAB6 SWAP1 PUSH2 0x1839 JUMP JUMPDEST SWAP2 POP POP PUSH2 0x932 JUMP JUMPDEST POP POP POP POP POP POP POP JUMP JUMPDEST PUSH1 0x60 PUSH1 0x0 PUSH1 0x1 SLOAD PUSH8 0xFFFFFFFFFFFFFFFF DUP2 GT ISZERO PUSH2 0xAE7 JUMPI PUSH2 0xAE6 PUSH2 0xEE4 JUMP JUMPDEST JUMPDEST PUSH1 0x40 MLOAD SWAP1 DUP1 DUP3 MSTORE DUP1 PUSH1 0x20 MUL PUSH1 0x20 ADD DUP3 ADD PUSH1 0x40 MSTORE DUP1 ISZERO PUSH2 0xB20 JUMPI DUP2 PUSH1 0x20 ADD JUMPDEST PUSH2 0xB0D PUSH2 0xE7F JUMP JUMPDEST DUP2 MSTORE PUSH1 0x20 ADD SWAP1 PUSH1 0x1 SWAP1 SUB SWAP1 DUP2 PUSH2 0xB05 JUMPI SWAP1 POP JUMPDEST POP SWAP1 POP PUSH1 0x0 PUSH1 0x1 SWAP1 POP JUMPDEST PUSH1 0x1 SLOAD DUP2 GT PUSH2 0xE71 JUMPI PUSH1 0x0 DUP1 DUP3 DUP2 MSTORE PUSH1 0x20 ADD SWAP1 DUP2 MSTORE PUSH1 0x20 ADD PUSH1 0x0 KECCAK256 PUSH1 0x40 MLOAD DUP1 PUSH1 0xC0 ADD PUSH1 0x40 MSTORE SWAP1 DUP2 PUSH1 0x0 DUP3 ADD DUP1 SLOAD PUSH2 0xB60 SWAP1 PUSH2 0x172A JUMP JUMPDEST DUP1 PUSH1 0x1F ADD PUSH1 0x20 DUP1 SWAP2 DIV MUL PUSH1 0x20 ADD PUSH1 0x40 MLOAD SWAP1 DUP2 ADD PUSH1 0x40 MSTORE DUP1 SWAP3 SWAP2 SWAP1 DUP2 DUP2 MSTORE PUSH1 0x20 ADD DUP3 DUP1 SLOAD PUSH2 0xB8C SWAP1 PUSH2 0x172A JUMP JUMPDEST DUP1 ISZERO PUSH2 0xBD9 JUMPI DUP1 PUSH1 0x1F LT PUSH2 0xBAE JUMPI PUSH2 0x100 DUP1 DUP4 SLOAD DIV MUL DUP4 MSTORE SWAP2 PUSH1 0x20 ADD SWAP2 PUSH2 0xBD9 JUMP JUMPDEST DUP3 ADD SWAP2 SWAP1 PUSH1 0x0 MSTORE PUSH1 0x20 PUSH1 0x0 KECCAK256 SWAP1 JUMPDEST DUP2 SLOAD DUP2 MSTORE SWAP1 PUSH1 0x1 ADD SWAP1 PUSH1 0x20 ADD DUP1 DUP4 GT PUSH2 0xBBC JUMPI DUP3 SWAP1 SUB PUSH1 0x1F AND DUP3 ADD SWAP2 JUMPDEST POP POP POP POP POP DUP2 MSTORE PUSH1 0x20 ADD PUSH1 0x1 DUP3 ADD DUP1 SLOAD PUSH2 0xBF2 SWAP1 PUSH2 0x172A JUMP JUMPDEST DUP1 PUSH1 0x1F ADD PUSH1 0x20 DUP1 SWAP2 DIV MUL PUSH1 0x20 ADD PUSH1 0x40 MLOAD SWAP1 DUP2 ADD PUSH1 0x40 MSTORE DUP1 SWAP3 SWAP2 SWAP1 DUP2 DUP2 MSTORE PUSH1 0x20 ADD DUP3 DUP1 SLOAD PUSH2 0xC1E SWAP1 PUSH2 0x172A JUMP JUMPDEST DUP1 ISZERO PUSH2 0xC6B JUMPI DUP1 PUSH1 0x1F LT PUSH2 0xC40 JUMPI PUSH2 0x100 DUP1 DUP4 SLOAD DIV MUL DUP4 MSTORE SWAP2 PUSH1 0x20 ADD SWAP2 PUSH2 0xC6B JUMP JUMPDEST DUP3 ADD SWAP2 SWAP1 PUSH1 0x0 MSTORE PUSH1 0x20 PUSH1 0x0 KECCAK256 SWAP1 JUMPDEST DUP2 SLOAD DUP2 MSTORE SWAP1 PUSH1 0x1 ADD SWAP1 PUSH1 0x20 ADD DUP1 DUP4 GT PUSH2 0xC4E JUMPI DUP3 SWAP1 SUB PUSH1 0x1F AND DUP3 ADD SWAP2 JUMPDEST POP POP POP POP POP DUP2 MSTORE PUSH1 0x20 ADD PUSH1 0x2 DUP3 ADD DUP1 SLOAD PUSH2 0xC84 SWAP1 PUSH2 0x172A JUMP JUMPDEST DUP1 PUSH1 0x1F ADD PUSH1 0x20 DUP1 SWAP2 DIV MUL PUSH1 0x20 ADD PUSH1 0x40 MLOAD SWAP1 DUP2 ADD PUSH1 0x40 MSTORE DUP1 SWAP3 SWAP2 SWAP1 DUP2 DUP2 MSTORE PUSH1 0x20 ADD DUP3 DUP1 SLOAD PUSH2 0xCB0 SWAP1 PUSH2 0x172A JUMP JUMPDEST DUP1 ISZERO PUSH2 0xCFD JUMPI DUP1 PUSH1 0x1F LT PUSH2 0xCD2 JUMPI PUSH2 0x100 DUP1 DUP4 SLOAD DIV MUL DUP4 MSTORE SWAP2 PUSH1 0x20 ADD SWAP2 PUSH2 0xCFD JUMP JUMPDEST DUP3 ADD SWAP2 SWAP1 PUSH1 0x0 MSTORE PUSH1 0x20 PUSH1 0x0 KECCAK256 SWAP1 JUMPDEST DUP2 SLOAD DUP2 MSTORE SWAP1 PUSH1 0x1 ADD SWAP1 PUSH1 0x20 ADD DUP1 DUP4 GT PUSH2 0xCE0 JUMPI DUP3 SWAP1 SUB PUSH1 0x1F AND DUP3 ADD SWAP2 JUMPDEST POP POP POP POP POP DUP2 MSTORE PUSH1 0x20 ADD PUSH1 0x3 DUP3 ADD DUP1 SLOAD PUSH2 0xD16 SWAP1 PUSH2 0x172A JUMP JUMPDEST DUP1 PUSH1 0x1F ADD PUSH1 0x20 DUP1 SWAP2 DIV MUL PUSH1 0x20 ADD PUSH1 0x40 MLOAD SWAP1 DUP2 ADD PUSH1 0x40 MSTORE DUP1 SWAP3 SWAP2 SWAP1 DUP2 DUP2 MSTORE PUSH1 0x20 ADD DUP3 DUP1 SLOAD PUSH2 0xD42 SWAP1 PUSH2 0x172A JUMP JUMPDEST DUP1 ISZERO PUSH2 0xD8F JUMPI DUP1 PUSH1 0x1F LT PUSH2 0xD64 JUMPI PUSH2 0x100 DUP1 DUP4 SLOAD DIV MUL DUP4 MSTORE SWAP2 PUSH1 0x20 ADD SWAP2 PUSH2 0xD8F JUMP JUMPDEST DUP3 ADD SWAP2 SWAP1 PUSH1 0x0 MSTORE PUSH1 0x20 PUSH1 0x0 KECCAK256 SWAP1 JUMPDEST DUP2 SLOAD DUP2 MSTORE SWAP1 PUSH1 0x1 ADD SWAP1 PUSH1 0x20 ADD DUP1 DUP4 GT PUSH2 0xD72 JUMPI DUP3 SWAP1 SUB PUSH1 0x1F AND DUP3 ADD SWAP2 JUMPDEST POP POP POP POP POP DUP2 MSTORE PUSH1 0x20 ADD PUSH1 0x4 DUP3 ADD DUP1 SLOAD PUSH2 0xDA8 SWAP1 PUSH2 0x172A JUMP JUMPDEST DUP1 PUSH1 0x1F ADD PUSH1 0x20 DUP1 SWAP2 DIV MUL PUSH1 0x20 ADD PUSH1 0x40 MLOAD SWAP1 DUP2 ADD PUSH1 0x40 MSTORE DUP1 SWAP3 SWAP2 SWAP1 DUP2 DUP2 MSTORE PUSH1 0x20 ADD DUP3 DUP1 SLOAD PUSH2 0xDD4 SWAP1 PUSH2 0x172A JUMP JUMPDEST DUP1 ISZERO PUSH2 0xE21 JUMPI DUP1 PUSH1 0x1F LT PUSH2 0xDF6 JUMPI PUSH2 0x100 DUP1 DUP4 SLOAD DIV MUL DUP4 MSTORE SWAP2 PUSH1 0x20 ADD SWAP2 PUSH2 0xE21 JUMP JUMPDEST DUP3 ADD SWAP2 SWAP1 PUSH1 0x0 MSTORE PUSH1 0x20 PUSH1 0x0 KECCAK256 SWAP1 JUMPDEST DUP2 SLOAD DUP2 MSTORE SWAP1 PUSH1 0x1 ADD SWAP1 PUSH1 0x20 ADD DUP1 DUP4 GT PUSH2 0xE04 JUMPI DUP3 SWAP1 SUB PUSH1 0x1F AND DUP3 ADD SWAP2 JUMPDEST POP POP POP POP POP DUP2 MSTORE PUSH1 0x20 ADD PUSH1 0x5 DUP3 ADD SLOAD DUP2 MSTORE POP POP DUP3 PUSH1 0x1 DUP4 PUSH2 0xE42 SWAP2 SWAP1 PUSH2 0x1BAB JUMP JUMPDEST DUP2 MLOAD DUP2 LT PUSH2 0xE53 JUMPI PUSH2 0xE52 PUSH2 0x1881 JUMP JUMPDEST JUMPDEST PUSH1 0x20 MUL PUSH1 0x20 ADD ADD DUP2 SWAP1 MSTORE POP DUP1 DUP1 PUSH2 0xE69 SWAP1 PUSH2 0x1839 JUMP JUMPDEST SWAP2 POP POP PUSH2 0xB2A JUMP JUMPDEST POP DUP1 SWAP2 POP POP SWAP1 JUMP JUMPDEST PUSH1 0x1 SLOAD DUP2 JUMP JUMPDEST PUSH1 0x40 MLOAD DUP1 PUSH1 0xC0 ADD PUSH1 0x40 MSTORE DUP1 PUSH1 0x60 DUP2 MSTORE PUSH1 0x20 ADD PUSH1 0x60 DUP2 MSTORE PUSH1 0x20 ADD PUSH1 0x60 DUP2 MSTORE PUSH1 0x20 ADD PUSH1 0x60 DUP2 MSTORE PUSH1 0x20 ADD PUSH1 0x60 DUP2 MSTORE PUSH1 0x20 ADD PUSH1 0x0 DUP2 MSTORE POP SWAP1 JUMP JUMPDEST PUSH1 0x0 PUSH1 0x40 MLOAD SWAP1 POP SWAP1 JUMP JUMPDEST PUSH1 0x0 DUP1 REVERT JUMPDEST PUSH1 0x0 DUP1 REVERT JUMPDEST PUSH1 0x0 DUP1 REVERT JUMPDEST PUSH1 0x0 DUP1 REVERT JUMPDEST PUSH1 0x0 PUSH1 0x1F NOT PUSH1 0x1F DUP4 ADD AND SWAP1 POP SWAP2 SWAP1 POP JUMP JUMPDEST PUSH32 0x4E487B7100000000000000000000000000000000000000000000000000000000 PUSH1 0x0 MSTORE PUSH1 0x41 PUSH1 0x4 MSTORE PUSH1 0x24 PUSH1 0x0 REVERT JUMPDEST PUSH2 0xF1C DUP3 PUSH2 0xED3 JUMP JUMPDEST DUP2 ADD DUP2 DUP2 LT PUSH8 0xFFFFFFFFFFFFFFFF DUP3 GT OR ISZERO PUSH2 0xF3B JUMPI PUSH2 0xF3A PUSH2 0xEE4 JUMP JUMPDEST JUMPDEST DUP1 PUSH1 0x40 MSTORE POP POP POP JUMP JUMPDEST PUSH1 0x0 PUSH2 0xF4E PUSH2 0xEB5 JUMP JUMPDEST SWAP1 POP PUSH2 0xF5A DUP3 DUP3 PUSH2 0xF13 JUMP JUMPDEST SWAP2 SWAP1 POP JUMP JUMPDEST PUSH1 0x0 PUSH8 0xFFFFFFFFFFFFFFFF DUP3 GT ISZERO PUSH2 0xF7A JUMPI PUSH2 0xF79 PUSH2 0xEE4 JUMP JUMPDEST JUMPDEST PUSH2 0xF83 DUP3 PUSH2 0xED3 JUMP JUMPDEST SWAP1 POP PUSH1 0x20 DUP2 ADD SWAP1 POP SWAP2 SWAP1 POP JUMP JUMPDEST DUP3 DUP2 DUP4 CALLDATACOPY PUSH1 0x0 DUP4 DUP4 ADD MSTORE POP POP POP JUMP JUMPDEST PUSH1 0x0 PUSH2 0xFB2 PUSH2 0xFAD DUP5 PUSH2 0xF5F JUMP JUMPDEST PUSH2 0xF44 JUMP JUMPDEST SWAP1 POP DUP3 DUP2 MSTORE PUSH1 0x20 DUP2 ADD DUP5 DUP5 DUP5 ADD GT ISZERO PUSH2 0xFCE JUMPI PUSH2 0xFCD PUSH2 0xECE JUMP JUMPDEST JUMPDEST PUSH2 0xFD9 DUP5 DUP3 DUP6 PUSH2 0xF90 JUMP JUMPDEST POP SWAP4 SWAP3 POP POP POP JUMP JUMPDEST PUSH1 0x0 DUP3 PUSH1 0x1F DUP4 ADD SLT PUSH2 0xFF6 JUMPI PUSH2 0xFF5 PUSH2 0xEC9 JUMP JUMPDEST JUMPDEST DUP2 CALLDATALOAD PUSH2 0x1006 DUP5 DUP3 PUSH1 0x20 DUP7 ADD PUSH2 0xF9F JUMP JUMPDEST SWAP2 POP POP SWAP3 SWAP2 POP POP JUMP JUMPDEST PUSH1 0x0 PUSH1 0x20 DUP3 DUP5 SUB SLT ISZERO PUSH2 0x1025 JUMPI PUSH2 0x1024 PUSH2 0xEBF JUMP JUMPDEST JUMPDEST PUSH1 0x0 DUP3 ADD CALLDATALOAD PUSH8 0xFFFFFFFFFFFFFFFF DUP2 GT ISZERO PUSH2 0x1043 JUMPI PUSH2 0x1042 PUSH2 0xEC4 JUMP JUMPDEST JUMPDEST PUSH2 0x104F DUP5 DUP3 DUP6 ADD PUSH2 0xFE1 JUMP JUMPDEST SWAP2 POP POP SWAP3 SWAP2 POP POP JUMP JUMPDEST PUSH1 0x0 DUP2 MLOAD SWAP1 POP SWAP2 SWAP1 POP JUMP JUMPDEST PUSH1 0x0 DUP3 DUP3 MSTORE PUSH1 0x20 DUP3 ADD SWAP1 POP SWAP3 SWAP2 POP POP JUMP JUMPDEST PUSH1 0x0 DUP2 SWAP1 POP PUSH1 0x20 DUP3 ADD SWAP1 POP SWAP2 SWAP1 POP JUMP JUMPDEST PUSH1 0x0 DUP2 MLOAD SWAP1 POP SWAP2 SWAP1 POP JUMP JUMPDEST PUSH1 0x0 DUP3 DUP3 MSTORE PUSH1 0x20 DUP3 ADD SWAP1 POP SWAP3 SWAP2 POP POP JUMP JUMPDEST PUSH1 0x0 JUMPDEST DUP4 DUP2 LT ISZERO PUSH2 0x10BE JUMPI DUP1 DUP3 ADD MLOAD DUP2 DUP5 ADD MSTORE PUSH1 0x20 DUP2 ADD SWAP1 POP PUSH2 0x10A3 JUMP JUMPDEST PUSH1 0x0 DUP5 DUP5 ADD MSTORE POP POP POP POP JUMP JUMPDEST PUSH1 0x0 PUSH2 0x10D5 DUP3 PUSH2 0x1084 JUMP JUMPDEST PUSH2 0x10DF DUP2 DUP6 PUSH2 0x108F JUMP JUMPDEST SWAP4 POP PUSH2 0x10EF DUP2 DUP6 PUSH1 0x20 DUP7 ADD PUSH2 0x10A0 JUMP JUMPDEST PUSH2 0x10F8 DUP2 PUSH2 0xED3 JUMP JUMPDEST DUP5 ADD SWAP2 POP POP SWAP3 SWAP2 POP POP JUMP JUMPDEST PUSH1 0x0 DUP2 SWAP1 POP SWAP2 SWAP1 POP JUMP JUMPDEST PUSH2 0x1116 DUP2 PUSH2 0x1103 JUMP JUMPDEST DUP3 MSTORE POP POP JUMP JUMPDEST PUSH1 0x0 PUSH1 0xC0 DUP4 ADD PUSH1 0x0 DUP4 ADD MLOAD DUP5 DUP3 SUB PUSH1 0x0 DUP7 ADD MSTORE PUSH2 0x1139 DUP3 DUP3 PUSH2 0x10CA JUMP JUMPDEST SWAP2 POP POP PUSH1 0x20 DUP4 ADD MLOAD DUP5 DUP3 SUB PUSH1 0x20 DUP7 ADD MSTORE PUSH2 0x1153 DUP3 DUP3 PUSH2 0x10CA JUMP JUMPDEST SWAP2 POP POP PUSH1 0x40 DUP4 ADD MLOAD DUP5 DUP3 SUB PUSH1 0x40 DUP7 ADD MSTORE PUSH2 0x116D DUP3 DUP3 PUSH2 0x10CA JUMP JUMPDEST SWAP2 POP POP PUSH1 0x60 DUP4 ADD MLOAD DUP5 DUP3 SUB PUSH1 0x60 DUP7 ADD MSTORE PUSH2 0x1187 DUP3 DUP3 PUSH2 0x10CA JUMP JUMPDEST SWAP2 POP POP PUSH1 0x80 DUP4 ADD MLOAD DUP5 DUP3 SUB PUSH1 0x80 DUP7 ADD MSTORE PUSH2 0x11A1 DUP3 DUP3 PUSH2 0x10CA JUMP JUMPDEST SWAP2 POP POP PUSH1 0xA0 DUP4 ADD MLOAD PUSH2 0x11B6 PUSH1 0xA0 DUP7 ADD DUP3 PUSH2 0x110D JUMP JUMPDEST POP DUP1 SWAP2 POP POP SWAP3 SWAP2 POP POP JUMP JUMPDEST PUSH1 0x0 PUSH2 0x11CD DUP4 DUP4 PUSH2 0x111C JUMP JUMPDEST SWAP1 POP SWAP3 SWAP2 POP POP JUMP JUMPDEST PUSH1 0x0 PUSH1 0x20 DUP3 ADD SWAP1 POP SWAP2 SWAP1 POP JUMP JUMPDEST PUSH1 0x0 PUSH2 0x11ED DUP3 PUSH2 0x1058 JUMP JUMPDEST PUSH2 0x11F7 DUP2 DUP6 PUSH2 0x1063 JUMP JUMPDEST SWAP4 POP DUP4 PUSH1 0x20 DUP3 MUL DUP6 ADD PUSH2 0x1209 DUP6 PUSH2 0x1074 JUMP JUMPDEST DUP1 PUSH1 0x0 JUMPDEST DUP6 DUP2 LT ISZERO PUSH2 0x1245 JUMPI DUP5 DUP5 SUB DUP10 MSTORE DUP2 MLOAD PUSH2 0x1226 DUP6 DUP3 PUSH2 0x11C1 JUMP JUMPDEST SWAP5 POP PUSH2 0x1231 DUP4 PUSH2 0x11D5 JUMP JUMPDEST SWAP3 POP PUSH1 0x20 DUP11 ADD SWAP10 POP POP PUSH1 0x1 DUP2 ADD SWAP1 POP PUSH2 0x120D JUMP JUMPDEST POP DUP3 SWAP8 POP DUP8 SWAP6 POP POP POP POP POP POP SWAP3 SWAP2 POP POP JUMP JUMPDEST PUSH1 0x0 PUSH1 0x20 DUP3 ADD SWAP1 POP DUP2 DUP2 SUB PUSH1 0x0 DUP4 ADD MSTORE PUSH2 0x1271 DUP2 DUP5 PUSH2 0x11E2 JUMP JUMPDEST SWAP1 POP SWAP3 SWAP2 POP POP JUMP JUMPDEST PUSH2 0x1282 DUP2 PUSH2 0x1103 JUMP JUMPDEST DUP2 EQ PUSH2 0x128D JUMPI PUSH1 0x0 DUP1 REVERT JUMPDEST POP JUMP JUMPDEST PUSH1 0x0 DUP2 CALLDATALOAD SWAP1 POP PUSH2 0x129F DUP2 PUSH2 0x1279 JUMP JUMPDEST SWAP3 SWAP2 POP POP JUMP JUMPDEST PUSH1 0x0 PUSH1 0x20 DUP3 DUP5 SUB SLT ISZERO PUSH2 0x12BB JUMPI PUSH2 0x12BA PUSH2 0xEBF JUMP JUMPDEST JUMPDEST PUSH1 0x0 PUSH2 0x12C9 DUP5 DUP3 DUP6 ADD PUSH2 0x1290 JUMP JUMPDEST SWAP2 POP POP SWAP3 SWAP2 POP POP JUMP JUMPDEST PUSH1 0x0 DUP3 DUP3 MSTORE PUSH1 0x20 DUP3 ADD SWAP1 POP SWAP3 SWAP2 POP POP JUMP JUMPDEST PUSH1 0x0 PUSH2 0x12EE DUP3 PUSH2 0x1084 JUMP JUMPDEST PUSH2 0x12F8 DUP2 DUP6 PUSH2 0x12D2 JUMP JUMPDEST SWAP4 POP PUSH2 0x1308 DUP2 DUP6 PUSH1 0x20 DUP7 ADD PUSH2 0x10A0 JUMP JUMPDEST PUSH2 0x1311 DUP2 PUSH2 0xED3 JUMP JUMPDEST DUP5 ADD SWAP2 POP POP SWAP3 SWAP2 POP POP JUMP JUMPDEST PUSH2 0x1325 DUP2 PUSH2 0x1103 JUMP JUMPDEST DUP3 MSTORE POP POP JUMP JUMPDEST PUSH1 0x0 PUSH1 0xC0 DUP3 ADD SWAP1 POP DUP2 DUP2 SUB PUSH1 0x0 DUP4 ADD MSTORE PUSH2 0x1345 DUP2 DUP10 PUSH2 0x12E3 JUMP JUMPDEST SWAP1 POP DUP2 DUP2 SUB PUSH1 0x20 DUP4 ADD MSTORE PUSH2 0x1359 DUP2 DUP9 PUSH2 0x12E3 JUMP JUMPDEST SWAP1 POP DUP2 DUP2 SUB PUSH1 0x40 DUP4 ADD MSTORE PUSH2 0x136D DUP2 DUP8 PUSH2 0x12E3 JUMP JUMPDEST SWAP1 POP DUP2 DUP2 SUB PUSH1 0x60 DUP4 ADD MSTORE PUSH2 0x1381 DUP2 DUP7 PUSH2 0x12E3 JUMP JUMPDEST SWAP1 POP DUP2 DUP2 SUB PUSH1 0x80 DUP4 ADD MSTORE PUSH2 0x1395 DUP2 DUP6 PUSH2 0x12E3 JUMP JUMPDEST SWAP1 POP PUSH2 0x13A4 PUSH1 0xA0 DUP4 ADD DUP5 PUSH2 0x131C JUMP JUMPDEST SWAP8 SWAP7 POP POP POP POP POP POP POP JUMP JUMPDEST PUSH1 0x0 PUSH8 0xFFFFFFFFFFFFFFFF DUP3 GT ISZERO PUSH2 0x13CA JUMPI PUSH2 0x13C9 PUSH2 0xEE4 JUMP JUMPDEST JUMPDEST PUSH1 0x20 DUP3 MUL SWAP1 POP PUSH1 0x20 DUP2 ADD SWAP1 POP SWAP2 SWAP1 POP JUMP JUMPDEST PUSH1 0x0 DUP1 REVERT JUMPDEST PUSH1 0x0 PUSH2 0x13F3 PUSH2 0x13EE DUP5 PUSH2 0x13AF JUMP JUMPDEST PUSH2 0xF44 JUMP JUMPDEST SWAP1 POP DUP1 DUP4 DUP3 MSTORE PUSH1 0x20 DUP3 ADD SWAP1 POP PUSH1 0x20 DUP5 MUL DUP4 ADD DUP6 DUP2 GT ISZERO PUSH2 0x1416 JUMPI PUSH2 0x1415 PUSH2 0x13DB JUMP JUMPDEST JUMPDEST DUP4 JUMPDEST DUP2 DUP2 LT ISZERO PUSH2 0x145D JUMPI DUP1 CALLDATALOAD PUSH8 0xFFFFFFFFFFFFFFFF DUP2 GT ISZERO PUSH2 0x143B JUMPI PUSH2 0x143A PUSH2 0xEC9 JUMP JUMPDEST JUMPDEST DUP1 DUP7 ADD PUSH2 0x1448 DUP10 DUP3 PUSH2 0xFE1 JUMP JUMPDEST DUP6 MSTORE PUSH1 0x20 DUP6 ADD SWAP5 POP POP POP PUSH1 0x20 DUP2 ADD SWAP1 POP PUSH2 0x1418 JUMP JUMPDEST POP POP POP SWAP4 SWAP3 POP POP POP JUMP JUMPDEST PUSH1 0x0 DUP3 PUSH1 0x1F DUP4 ADD SLT PUSH2 0x147C JUMPI PUSH2 0x147B PUSH2 0xEC9 JUMP JUMPDEST JUMPDEST DUP2 CALLDATALOAD PUSH2 0x148C DUP5 DUP3 PUSH1 0x20 DUP7 ADD PUSH2 0x13E0 JUMP JUMPDEST SWAP2 POP POP SWAP3 SWAP2 POP POP JUMP JUMPDEST PUSH1 0x0 PUSH8 0xFFFFFFFFFFFFFFFF DUP3 GT ISZERO PUSH2 0x14B0 JUMPI PUSH2 0x14AF PUSH2 0xEE4 JUMP JUMPDEST JUMPDEST PUSH1 0x20 DUP3 MUL SWAP1 POP PUSH1 0x20 DUP2 ADD SWAP1 POP SWAP2 SWAP1 POP JUMP JUMPDEST PUSH1 0x0 PUSH2 0x14D4 PUSH2 0x14CF DUP5 PUSH2 0x1495 JUMP JUMPDEST PUSH2 0xF44 JUMP JUMPDEST SWAP1 POP DUP1 DUP4 DUP3 MSTORE PUSH1 0x20 DUP3 ADD SWAP1 POP PUSH1 0x20 DUP5 MUL DUP4 ADD DUP6 DUP2 GT ISZERO PUSH2 0x14F7 JUMPI PUSH2 0x14F6 PUSH2 0x13DB JUMP JUMPDEST JUMPDEST DUP4 JUMPDEST DUP2 DUP2 LT ISZERO PUSH2 0x1520 JUMPI DUP1 PUSH2 0x150C DUP9 DUP3 PUSH2 0x1290 JUMP JUMPDEST DUP5 MSTORE PUSH1 0x20 DUP5 ADD SWAP4 POP POP PUSH1 0x20 DUP2 ADD SWAP1 POP PUSH2 0x14F9 JUMP JUMPDEST POP POP POP SWAP4 SWAP3 POP POP POP JUMP JUMPDEST PUSH1 0x0 DUP3 PUSH1 0x1F DUP4 ADD SLT PUSH2 0x153F JUMPI PUSH2 0x153E PUSH2 0xEC9 JUMP JUMPDEST JUMPDEST DUP2 CALLDATALOAD PUSH2 0x154F DUP5 DUP3 PUSH1 0x20 DUP7 ADD PUSH2 0x14C1 JUMP JUMPDEST SWAP2 POP POP SWAP3 SWAP2 POP POP JUMP JUMPDEST PUSH1 0x0 DUP1 PUSH1 0x0 DUP1 PUSH1 0x0 DUP1 PUSH1 0xC0 DUP8 DUP10 SUB SLT ISZERO PUSH2 0x1575 JUMPI PUSH2 0x1574 PUSH2 0xEBF JUMP JUMPDEST JUMPDEST PUSH1 0x0 DUP8 ADD CALLDATALOAD PUSH8 0xFFFFFFFFFFFFFFFF DUP2 GT ISZERO PUSH2 0x1593 JUMPI PUSH2 0x1592 PUSH2 0xEC4 JUMP JUMPDEST JUMPDEST PUSH2 0x159F DUP10 DUP3 DUP11 ADD PUSH2 0x1467 JUMP JUMPDEST SWAP7 POP POP PUSH1 0x20 DUP8 ADD CALLDATALOAD PUSH8 0xFFFFFFFFFFFFFFFF DUP2 GT ISZERO PUSH2 0x15C0 JUMPI PUSH2 0x15BF PUSH2 0xEC4 JUMP JUMPDEST JUMPDEST PUSH2 0x15CC DUP10 DUP3 DUP11 ADD PUSH2 0x1467 JUMP JUMPDEST SWAP6 POP POP PUSH1 0x40 DUP8 ADD CALLDATALOAD PUSH8 0xFFFFFFFFFFFFFFFF DUP2 GT ISZERO PUSH2 0x15ED JUMPI PUSH2 0x15EC PUSH2 0xEC4 JUMP JUMPDEST JUMPDEST PUSH2 0x15F9 DUP10 DUP3 DUP11 ADD PUSH2 0x1467 JUMP JUMPDEST SWAP5 POP POP PUSH1 0x60 DUP8 ADD CALLDATALOAD PUSH8 0xFFFFFFFFFFFFFFFF DUP2 GT ISZERO PUSH2 0x161A JUMPI PUSH2 0x1619 PUSH2 0xEC4 JUMP JUMPDEST JUMPDEST PUSH2 0x1626 DUP10 DUP3 DUP11 ADD PUSH2 0x1467 JUMP JUMPDEST SWAP4 POP POP PUSH1 0x80 DUP8 ADD CALLDATALOAD PUSH8 0xFFFFFFFFFFFFFFFF DUP2 GT ISZERO PUSH2 0x1647 JUMPI PUSH2 0x1646 PUSH2 0xEC4 JUMP JUMPDEST JUMPDEST PUSH2 0x1653 DUP10 DUP3 DUP11 ADD PUSH2 0x1467 JUMP JUMPDEST SWAP3 POP POP PUSH1 0xA0 DUP8 ADD CALLDATALOAD PUSH8 0xFFFFFFFFFFFFFFFF DUP2 GT ISZERO PUSH2 0x1674 JUMPI PUSH2 0x1673 PUSH2 0xEC4 JUMP JUMPDEST JUMPDEST PUSH2 0x1680 DUP10 DUP3 DUP11 ADD PUSH2 0x152A JUMP JUMPDEST SWAP2 POP POP SWAP3 SWAP6 POP SWAP3 SWAP6 POP SWAP3 SWAP6 JUMP JUMPDEST PUSH1 0x0 PUSH1 0x20 DUP3 ADD SWAP1 POP PUSH2 0x16A2 PUSH1 0x0 DUP4 ADD DUP5 PUSH2 0x131C JUMP JUMPDEST SWAP3 SWAP2 POP POP JUMP JUMPDEST PUSH1 0x0 DUP2 SWAP1 POP SWAP3 SWAP2 POP POP JUMP JUMPDEST PUSH1 0x0 PUSH2 0x16BE DUP3 PUSH2 0x1084 JUMP JUMPDEST PUSH2 0x16C8 DUP2 DUP6 PUSH2 0x16A8 JUMP JUMPDEST SWAP4 POP PUSH2 0x16D8 DUP2 DUP6 PUSH1 0x20 DUP7 ADD PUSH2 0x10A0 JUMP JUMPDEST DUP1 DUP5 ADD SWAP2 POP POP SWAP3 SWAP2 POP POP JUMP JUMPDEST PUSH1 0x0 PUSH2 0x16F0 DUP3 DUP5 PUSH2 0x16B3 JUMP JUMPDEST SWAP2 POP DUP2 SWAP1 POP SWAP3 SWAP2 POP POP JUMP JUMPDEST PUSH32 0x4E487B7100000000000000000000000000000000000000000000000000000000 PUSH1 0x0 MSTORE PUSH1 0x22 PUSH1 0x4 MSTORE PUSH1 0x24 PUSH1 0x0 REVERT JUMPDEST PUSH1 0x0 PUSH1 0x2 DUP3 DIV SWAP1 POP PUSH1 0x1 DUP3 AND DUP1 PUSH2 0x1742 JUMPI PUSH1 0x7F DUP3 AND SWAP2 POP JUMPDEST PUSH1 0x20 DUP3 LT DUP2 SUB PUSH2 0x1755 JUMPI PUSH2 0x1754 PUSH2 0x16FB JUMP JUMPDEST JUMPDEST POP SWAP2 SWAP1 POP JUMP JUMPDEST PUSH1 0x0 DUP2 SWAP1 POP DUP2 PUSH1 0x0 MSTORE PUSH1 0x20 PUSH1 0x0 KECCAK256 SWAP1 POP SWAP2 SWAP1 POP JUMP JUMPDEST PUSH1 0x0 DUP2 SLOAD PUSH2 0x177D DUP2 PUSH2 0x172A JUMP JUMPDEST PUSH2 0x1787 DUP2 DUP7 PUSH2 0x16A8 JUMP JUMPDEST SWAP5 POP PUSH1 0x1 DUP3 AND PUSH1 0x0 DUP2 EQ PUSH2 0x17A2 JUMPI PUSH1 0x1 DUP2 EQ PUSH2 0x17B7 JUMPI PUSH2 0x17EA JUMP JUMPDEST PUSH1 0xFF NOT DUP4 AND DUP7 MSTORE DUP2 ISZERO ISZERO DUP3 MUL DUP7 ADD SWAP4 POP PUSH2 0x17EA JUMP JUMPDEST PUSH2 0x17C0 DUP6 PUSH2 0x175B JUMP JUMPDEST PUSH1 0x0 JUMPDEST DUP4 DUP2 LT ISZERO PUSH2 0x17E2 JUMPI DUP2 SLOAD DUP2 DUP10 ADD MSTORE PUSH1 0x1 DUP3 ADD SWAP2 POP PUSH1 0x20 DUP2 ADD SWAP1 POP PUSH2 0x17C3 JUMP JUMPDEST DUP4 DUP9 ADD SWAP6 POP POP POP JUMPDEST POP POP POP SWAP3 SWAP2 POP POP JUMP JUMPDEST PUSH1 0x0 PUSH2 0x17FF DUP3 DUP5 PUSH2 0x1770 JUMP JUMPDEST SWAP2 POP DUP2 SWAP1 POP SWAP3 SWAP2 POP POP JUMP JUMPDEST PUSH32 0x4E487B7100000000000000000000000000000000000000000000000000000000 PUSH1 0x0 MSTORE PUSH1 0x11 PUSH1 0x4 MSTORE PUSH1 0x24 PUSH1 0x0 REVERT JUMPDEST PUSH1 0x0 PUSH2 0x1844 DUP3 PUSH2 0x1103 JUMP JUMPDEST SWAP2 POP PUSH32 0xFFFFFFFFFFFFFFFFFFFFFFFFFFFFFFFFFFFFFFFFFFFFFFFFFFFFFFFFFFFFFFFF DUP3 SUB PUSH2 0x1876 JUMPI PUSH2 0x1875 PUSH2 0x180A JUMP JUMPDEST JUMPDEST PUSH1 0x1 DUP3 ADD SWAP1 POP SWAP2 SWAP1 POP JUMP JUMPDEST PUSH32 0x4E487B7100000000000000000000000000000000000000000000000000000000 PUSH1 0x0 MSTORE PUSH1 0x32 PUSH1 0x4 MSTORE PUSH1 0x24 PUSH1 0x0 REVERT JUMPDEST PUSH32 0x4C656E67746873206F6620696E7075742061727261797320646F206E6F74206D PUSH1 0x0 DUP3 ADD MSTORE PUSH32 0x6174636800000000000000000000000000000000000000000000000000000000 PUSH1 0x20 DUP3 ADD MSTORE POP JUMP JUMPDEST PUSH1 0x0 PUSH2 0x190C PUSH1 0x24 DUP4 PUSH2 0x12D2 JUMP JUMPDEST SWAP2 POP PUSH2 0x1917 DUP3 PUSH2 0x18B0 JUMP JUMPDEST PUSH1 0x40 DUP3 ADD SWAP1 POP SWAP2 SWAP1 POP JUMP JUMPDEST PUSH1 0x0 PUSH1 0x20 DUP3 ADD SWAP1 POP DUP2 DUP2 SUB PUSH1 0x0 DUP4 ADD MSTORE PUSH2 0x193B DUP2 PUSH2 0x18FF JUMP JUMPDEST SWAP1 POP SWAP2 SWAP1 POP JUMP JUMPDEST PUSH1 0x0 PUSH1 0x20 PUSH1 0x1F DUP4 ADD DIV SWAP1 POP SWAP2 SWAP1 POP JUMP JUMPDEST PUSH1 0x0 DUP3 DUP3 SHL SWAP1 POP SWAP3 SWAP2 POP POP JUMP JUMPDEST PUSH1 0x0 PUSH1 0x8 DUP4 MUL PUSH2 0x198F PUSH32 0xFFFFFFFFFFFFFFFFFFFFFFFFFFFFFFFFFFFFFFFFFFFFFFFFFFFFFFFFFFFFFFFF DUP3 PUSH2 0x1952 JUMP JUMPDEST PUSH2 0x1999 DUP7 DUP4 PUSH2 0x1952 JUMP JUMPDEST SWAP6 POP DUP1 NOT DUP5 AND SWAP4 POP DUP1 DUP7 AND DUP5 OR SWAP3 POP POP POP SWAP4 SWAP3 POP POP POP JUMP JUMPDEST PUSH1 0x0 DUP2 SWAP1 POP SWAP2 SWAP1 POP JUMP JUMPDEST PUSH1 0x0 PUSH2 0x19D6 PUSH2 0x19D1 PUSH2 0x19CC DUP5 PUSH2 0x1103 JUMP JUMPDEST PUSH2 0x19B1 JUMP JUMPDEST PUSH2 0x1103 JUMP JUMPDEST SWAP1 POP SWAP2 SWAP1 POP JUMP JUMPDEST PUSH1 0x0 DUP2 SWAP1 POP SWAP2 SWAP1 POP JUMP JUMPDEST PUSH2 0x19F0 DUP4 PUSH2 0x19BB JUMP JUMPDEST PUSH2 0x1A04 PUSH2 0x19FC DUP3 PUSH2 0x19DD JUMP JUMPDEST DUP5 DUP5 SLOAD PUSH2 0x195F JUMP JUMPDEST DUP3 SSTORE POP POP POP POP JUMP JUMPDEST PUSH1 0x0 SWAP1 JUMP JUMPDEST PUSH2 0x1A19 PUSH2 0x1A0C JUMP JUMPDEST PUSH2 0x1A24 DUP2 DUP5 DUP5 PUSH2 0x19E7 JUMP JUMPDEST POP POP POP JUMP JUMPDEST JUMPDEST DUP2 DUP2 LT ISZERO PUSH2 0x1A48 JUMPI PUSH2 0x1A3D PUSH1 0x0 DUP3 PUSH2 0x1A11 JUMP JUMPDEST PUSH1 0x1 DUP2 ADD SWAP1 POP PUSH2 0x1A2A JUMP JUMPDEST POP POP JUMP JUMPDEST PUSH1 0x1F DUP3 GT ISZERO PUSH2 0x1A8D JUMPI PUSH2 0x1A5E DUP2 PUSH2 0x175B JUMP JUMPDEST PUSH2 0x1A67 DUP5 PUSH2 0x1942 JUMP JUMPDEST DUP2 ADD PUSH1 0x20 DUP6 LT ISZERO PUSH2 0x1A76 JUMPI DUP2 SWAP1 POP JUMPDEST PUSH2 0x1A8A PUSH2 0x1A82 DUP6 PUSH2 0x1942 JUMP JUMPDEST DUP4 ADD DUP3 PUSH2 0x1A29 JUMP JUMPDEST POP POP JUMPDEST POP POP POP JUMP JUMPDEST PUSH1 0x0 DUP3 DUP3 SHR SWAP1 POP SWAP3 SWAP2 POP POP JUMP JUMPDEST PUSH1 0x0 PUSH2 0x1AB0 PUSH1 0x0 NOT DUP5 PUSH1 0x8 MUL PUSH2 0x1A92 JUMP JUMPDEST NOT DUP1 DUP4 AND SWAP2 POP POP SWAP3 SWAP2 POP POP JUMP JUMPDEST PUSH1 0x0 PUSH2 0x1AC9 DUP4 DUP4 PUSH2 0x1A9F JUMP JUMPDEST SWAP2 POP DUP3 PUSH1 0x2 MUL DUP3 OR SWAP1 POP SWAP3 SWAP2 POP POP JUMP JUMPDEST PUSH2 0x1AE2 DUP3 PUSH2 0x1084 JUMP JUMPDEST PUSH8 0xFFFFFFFFFFFFFFFF DUP2 GT ISZERO PUSH2 0x1AFB JUMPI PUSH2 0x1AFA PUSH2 0xEE4 JUMP JUMPDEST JUMPDEST PUSH2 0x1B05 DUP3 SLOAD PUSH2 0x172A JUMP JUMPDEST PUSH2 0x1B10 DUP3 DUP3 DUP6 PUSH2 0x1A4C JUMP JUMPDEST PUSH1 0x0 PUSH1 0x20 SWAP1 POP PUSH1 0x1F DUP4 GT PUSH1 0x1 DUP2 EQ PUSH2 0x1B43 JUMPI PUSH1 0x0 DUP5 ISZERO PUSH2 0x1B31 JUMPI DUP3 DUP8 ADD MLOAD SWAP1 POP JUMPDEST PUSH2 0x1B3B DUP6 DUP3 PUSH2 0x1ABD JUMP JUMPDEST DUP7 SSTORE POP PUSH2 0x1BA3 JUMP JUMPDEST PUSH1 0x1F NOT DUP5 AND PUSH2 0x1B51 DUP7 PUSH2 0x175B JUMP JUMPDEST PUSH1 0x0 JUMPDEST DUP3 DUP2 LT ISZERO PUSH2 0x1B79 JUMPI DUP5 DUP10 ADD MLOAD DUP3 SSTORE PUSH1 0x1 DUP3 ADD SWAP2 POP PUSH1 0x20 DUP6 ADD SWAP5 POP PUSH1 0x20 DUP2 ADD SWAP1 POP PUSH2 0x1B54 JUMP JUMPDEST DUP7 DUP4 LT ISZERO PUSH2 0x1B96 JUMPI DUP5 DUP10 ADD MLOAD PUSH2 0x1B92 PUSH1 0x1F DUP10 AND DUP3 PUSH2 0x1A9F JUMP JUMPDEST DUP4 SSTORE POP JUMPDEST PUSH1 0x1 PUSH1 0x2 DUP9 MUL ADD DUP9 SSTORE POP POP POP JUMPDEST POP POP POP POP POP POP JUMP JUMPDEST PUSH1 0x0 PUSH2 0x1BB6 DUP3 PUSH2 0x1103 JUMP JUMPDEST SWAP2 POP PUSH2 0x1BC1 DUP4 PUSH2 0x1103 JUMP JUMPDEST SWAP3 POP DUP3 DUP3 SUB SWAP1 POP DUP2 DUP2 GT ISZERO PUSH2 0x1BD9 JUMPI PUSH2 0x1BD8 PUSH2 0x180A JUMP JUMPDEST JUMPDEST SWAP3 SWAP2 POP POP JUMP INVALID LOG2 PUSH5 0x6970667358 0x22 SLT KECCAK256 0xBA 0xC5 0xAB SWAP14 0xE0 DUP11 0xC4 0xE5 0x2D REVERT PUSH21 0xF8653A38F5E0246DD7446F89A7B43DB2298B24F8A0 PUSH5 0x736F6C6343 STOP ADDMOD LT STOP CALLER "
				},
				"gasEstimates": {
					"creation": {
						"codeDepositCost": "1437800",
						"executionCost": "1499",
						"totalCost": "1439299"
					},
					"external": {
						"addTransactionDetail(string[],string[],string[],string[],string[],uint256[])": "infinite",
						"getAllTransactionDetail()": "infinite",
						"getTransactionDetailByTransactionCode(string)": "infinite",
						"transactionDetailCount()": "2495",
						"transactionDetails(uint256)": "infinite"
					}
				},
				"methodIdentifiers": {
					"addTransactionDetail(string[],string[],string[],string[],string[],uint256[])": "857030e6",
					"getAllTransactionDetail()": "a5773610",
					"getTransactionDetailByTransactionCode(string)": "2ef8750f",
					"transactionDetailCount()": "cf810953",
					"transactionDetails(uint256)": "3f0a54a6"
				}
			},
			"storageLayout": {
				"storage": [
					{
						"astId": 19,
						"contract": "contracts/TransactionDetailContract.sol:TransactionDetailContract",
						"label": "transactionDetails",
						"offset": 0,
						"slot": "0",
						"type": "t_mapping(t_uint256,t_struct(TransactionDetail)14_storage)"
					},
					{
						"astId": 21,
						"contract": "contracts/TransactionDetailContract.sol:TransactionDetailContract",
						"label": "transactionDetailCount",
						"offset": 0,
						"slot": "1",
						"type": "t_uint256"
					}
				],
				"types": {
					"t_mapping(t_uint256,t_struct(TransactionDetail)14_storage)": {
						"encoding": "mapping",
						"key": "t_uint256",
						"label": "mapping(uint256 => struct TransactionDetailContract.TransactionDetail)",
						"numberOfBytes": "32",
						"value": "t_struct(TransactionDetail)14_storage"
					},
					"t_string_storage": {
						"encoding": "bytes",
						"label": "string",
						"numberOfBytes": "32"
					},
					"t_struct(TransactionDetail)14_storage": {
						"encoding": "inplace",
						"label": "struct TransactionDetailContract.TransactionDetail",
						"members": [
							{
								"astId": 3,
								"contract": "contracts/TransactionDetailContract.sol:TransactionDetailContract",
								"label": "transactionCode",
								"offset": 0,
								"slot": "0",
								"type": "t_string_storage"
							},
							{
								"astId": 5,
								"contract": "contracts/TransactionDetailContract.sol:TransactionDetailContract",
								"label": "productName",
								"offset": 0,
								"slot": "1",
								"type": "t_string_storage"
							},
							{
								"astId": 7,
								"contract": "contracts/TransactionDetailContract.sol:TransactionDetailContract",
								"label": "productDescription",
								"offset": 0,
								"slot": "2",
								"type": "t_string_storage"
							},
							{
								"astId": 9,
								"contract": "contracts/TransactionDetailContract.sol:TransactionDetailContract",
								"label": "tokenOfProduct",
								"offset": 0,
								"slot": "3",
								"type": "t_string_storage"
							},
							{
								"astId": 11,
								"contract": "contracts/TransactionDetailContract.sol:TransactionDetailContract",
								"label": "price",
								"offset": 0,
								"slot": "4",
								"type": "t_string_storage"
							},
							{
								"astId": 13,
								"contract": "contracts/TransactionDetailContract.sol:TransactionDetailContract",
								"label": "createdAt",
								"offset": 0,
								"slot": "5",
								"type": "t_uint256"
							}
						],
						"numberOfBytes": "192"
					},
					"t_uint256": {
						"encoding": "inplace",
						"label": "uint256",
						"numberOfBytes": "32"
					}
				}
			},
			"userdoc": {
				"kind": "user",
				"methods": {},
				"version": 1
			}
		}
	}
}