{
	"contracts/TransactionContract28April.sol": {
		"TransactionContract": {
			"abi": [
				{
					"anonymous": false,
					"inputs": [
						{
							"indexed": true,
							"internalType": "uint256",
							"name": "transactionId",
							"type": "uint256"
						},
						{
							"indexed": false,
							"internalType": "string",
							"name": "paymentStatus",
							"type": "string"
						},
						{
							"indexed": false,
							"internalType": "uint256",
							"name": "updatedAt",
							"type": "uint256"
						}
					],
					"name": "PaymentStatusUpdated",
					"type": "event"
				},
				{
					"anonymous": false,
					"inputs": [
						{
							"indexed": true,
							"internalType": "uint256",
							"name": "transactionId",
							"type": "uint256"
						},
						{
							"indexed": false,
							"internalType": "string",
							"name": "transactionCode",
							"type": "string"
						},
						{
							"indexed": false,
							"internalType": "string",
							"name": "from",
							"type": "string"
						},
						{
							"indexed": false,
							"internalType": "string",
							"name": "fromId",
							"type": "string"
						},
						{
							"indexed": false,
							"internalType": "string",
							"name": "to",
							"type": "string"
						},
						{
							"indexed": false,
							"internalType": "string",
							"name": "toId",
							"type": "string"
						},
						{
							"indexed": false,
							"internalType": "string",
							"name": "orderType",
							"type": "string"
						},
						{
							"indexed": false,
							"internalType": "string",
							"name": "paymentStatus",
							"type": "string"
						},
						{
							"indexed": false,
							"internalType": "uint256",
							"name": "createdAt",
							"type": "uint256"
						}
					],
					"name": "TransactionAdded",
					"type": "event"
				},
				{
					"inputs": [
						{
							"internalType": "string",
							"name": "_transactionCode",
							"type": "string"
						},
						{
							"internalType": "string",
							"name": "_from",
							"type": "string"
						},
						{
							"internalType": "string",
							"name": "_fromId",
							"type": "string"
						},
						{
							"internalType": "string",
							"name": "_to",
							"type": "string"
						},
						{
							"internalType": "string",
							"name": "_toId",
							"type": "string"
						},
						{
							"internalType": "string",
							"name": "_orderType",
							"type": "string"
						},
						{
							"internalType": "string",
							"name": "_paymentStatus",
							"type": "string"
						},
						{
							"internalType": "uint256",
							"name": "_createdAt",
							"type": "uint256"
						}
					],
					"name": "addTransaction",
					"outputs": [],
					"stateMutability": "nonpayable",
					"type": "function"
				},
				{
					"inputs": [],
					"name": "getAllTransaction",
					"outputs": [
						{
							"components": [
								{
									"internalType": "uint256",
									"name": "transactionId",
									"type": "uint256"
								},
								{
									"internalType": "string",
									"name": "transactionCode",
									"type": "string"
								},
								{
									"internalType": "string",
									"name": "from",
									"type": "string"
								},
								{
									"internalType": "string",
									"name": "fromId",
									"type": "string"
								},
								{
									"internalType": "string",
									"name": "to",
									"type": "string"
								},
								{
									"internalType": "string",
									"name": "toId",
									"type": "string"
								},
								{
									"internalType": "string",
									"name": "orderType",
									"type": "string"
								},
								{
									"internalType": "string",
									"name": "paymentStatus",
									"type": "string"
								},
								{
									"internalType": "uint256",
									"name": "createdAt",
									"type": "uint256"
								}
							],
							"internalType": "struct TransactionContract.Transaction[]",
							"name": "",
							"type": "tuple[]"
						}
					],
					"stateMutability": "view",
					"type": "function"
				},
				{
					"inputs": [
						{
							"internalType": "uint256",
							"name": "_transactionId",
							"type": "uint256"
						}
					],
					"name": "getTransaction",
					"outputs": [
						{
							"components": [
								{
									"internalType": "uint256",
									"name": "transactionId",
									"type": "uint256"
								},
								{
									"internalType": "string",
									"name": "transactionCode",
									"type": "string"
								},
								{
									"internalType": "string",
									"name": "from",
									"type": "string"
								},
								{
									"internalType": "string",
									"name": "fromId",
									"type": "string"
								},
								{
									"internalType": "string",
									"name": "to",
									"type": "string"
								},
								{
									"internalType": "string",
									"name": "toId",
									"type": "string"
								},
								{
									"internalType": "string",
									"name": "orderType",
									"type": "string"
								},
								{
									"internalType": "string",
									"name": "paymentStatus",
									"type": "string"
								},
								{
									"internalType": "uint256",
									"name": "createdAt",
									"type": "uint256"
								}
							],
							"internalType": "struct TransactionContract.Transaction",
							"name": "",
							"type": "tuple"
						}
					],
					"stateMutability": "view",
					"type": "function"
				},
				{
					"inputs": [
						{
							"internalType": "string",
							"name": "_buyerId",
							"type": "string"
						}
					],
					"name": "getTransactionByBuyerId",
					"outputs": [
						{
							"components": [
								{
									"internalType": "uint256",
									"name": "transactionId",
									"type": "uint256"
								},
								{
									"internalType": "string",
									"name": "transactionCode",
									"type": "string"
								},
								{
									"internalType": "string",
									"name": "from",
									"type": "string"
								},
								{
									"internalType": "string",
									"name": "fromId",
									"type": "string"
								},
								{
									"internalType": "string",
									"name": "to",
									"type": "string"
								},
								{
									"internalType": "string",
									"name": "toId",
									"type": "string"
								},
								{
									"internalType": "string",
									"name": "orderType",
									"type": "string"
								},
								{
									"internalType": "string",
									"name": "paymentStatus",
									"type": "string"
								},
								{
									"internalType": "uint256",
									"name": "createdAt",
									"type": "uint256"
								}
							],
							"internalType": "struct TransactionContract.Transaction[]",
							"name": "",
							"type": "tuple[]"
						}
					],
					"stateMutability": "view",
					"type": "function"
				},
				{
					"inputs": [
						{
							"internalType": "string",
							"name": "_sellerId",
							"type": "string"
						}
					],
					"name": "getTransactionBySellerId",
					"outputs": [
						{
							"components": [
								{
									"internalType": "uint256",
									"name": "transactionId",
									"type": "uint256"
								},
								{
									"internalType": "string",
									"name": "transactionCode",
									"type": "string"
								},
								{
									"internalType": "string",
									"name": "from",
									"type": "string"
								},
								{
									"internalType": "string",
									"name": "fromId",
									"type": "string"
								},
								{
									"internalType": "string",
									"name": "to",
									"type": "string"
								},
								{
									"internalType": "string",
									"name": "toId",
									"type": "string"
								},
								{
									"internalType": "string",
									"name": "orderType",
									"type": "string"
								},
								{
									"internalType": "string",
									"name": "paymentStatus",
									"type": "string"
								},
								{
									"internalType": "uint256",
									"name": "createdAt",
									"type": "uint256"
								}
							],
							"internalType": "struct TransactionContract.Transaction[]",
							"name": "",
							"type": "tuple[]"
						}
					],
					"stateMutability": "view",
					"type": "function"
				},
				{
					"inputs": [],
					"name": "transactionCount",
					"outputs": [
						{
							"internalType": "uint256",
							"name": "",
							"type": "uint256"
						}
					],
					"stateMutability": "view",
					"type": "function"
				},
				{
					"inputs": [
						{
							"internalType": "uint256",
							"name": "",
							"type": "uint256"
						}
					],
					"name": "transactions",
					"outputs": [
						{
							"internalType": "uint256",
							"name": "transactionId",
							"type": "uint256"
						},
						{
							"internalType": "string",
							"name": "transactionCode",
							"type": "string"
						},
						{
							"internalType": "string",
							"name": "from",
							"type": "string"
						},
						{
							"internalType": "string",
							"name": "fromId",
							"type": "string"
						},
						{
							"internalType": "string",
							"name": "to",
							"type": "string"
						},
						{
							"internalType": "string",
							"name": "toId",
							"type": "string"
						},
						{
							"internalType": "string",
							"name": "orderType",
							"type": "string"
						},
						{
							"internalType": "string",
							"name": "paymentStatus",
							"type": "string"
						},
						{
							"internalType": "uint256",
							"name": "createdAt",
							"type": "uint256"
						}
					],
					"stateMutability": "view",
					"type": "function"
				},
				{
					"inputs": [
						{
							"internalType": "uint256",
							"name": "_transactionId",
							"type": "uint256"
						},
						{
							"internalType": "string",
							"name": "_paymentStatus",
							"type": "string"
						},
						{
							"internalType": "uint256",
							"name": "_updatedAt",
							"type": "uint256"
						}
					],
					"name": "updatePaymentStatus",
					"outputs": [],
					"stateMutability": "nonpayable",
					"type": "function"
				}
			],
			"devdoc": {
				"kind": "dev",
				"methods": {},
				"version": 1
			},
			"evm": {
				"assembly": "    /* \"contracts/TransactionContract28April.sol\":57:4525  contract TransactionContract {... */\n  mstore(0x40, 0x80)\n  callvalue\n  dup1\n  iszero\n  tag_1\n  jumpi\n  0x00\n  dup1\n  revert\ntag_1:\n  pop\n  dataSize(sub_0)\n  dup1\n  dataOffset(sub_0)\n  0x00\n  codecopy\n  0x00\n  return\nstop\n\nsub_0: assembly {\n        /* \"contracts/TransactionContract28April.sol\":57:4525  contract TransactionContract {... */\n      mstore(0x40, 0x80)\n      callvalue\n      dup1\n      iszero\n      tag_1\n      jumpi\n      0x00\n      dup1\n      revert\n    tag_1:\n      pop\n      jumpi(tag_2, lt(calldatasize, 0x04))\n      shr(0xe0, calldataload(0x00))\n      dup1\n      0xadd6415d\n      gt\n      tag_11\n      jumpi\n      dup1\n      0xadd6415d\n      eq\n      tag_7\n      jumpi\n      dup1\n      0xb77bf600\n      eq\n      tag_8\n      jumpi\n      dup1\n      0xce8481fd\n      eq\n      tag_9\n      jumpi\n      dup1\n      0xe55d57df\n      eq\n      tag_10\n      jumpi\n      jump(tag_2)\n    tag_11:\n      dup1\n      0x33ea3dc8\n      eq\n      tag_3\n      jumpi\n      dup1\n      0x9311f732\n      eq\n      tag_4\n      jumpi\n      dup1\n      0x9ace38c2\n      eq\n      tag_5\n      jumpi\n      dup1\n      0xabed9fb4\n      eq\n      tag_6\n      jumpi\n    tag_2:\n      0x00\n      dup1\n      revert\n        /* \"contracts/TransactionContract28April.sol\":1878:2030  function getTransaction(... */\n    tag_3:\n      tag_12\n      0x04\n      dup1\n      calldatasize\n      sub\n      dup2\n      add\n      swap1\n      tag_13\n      swap2\n      swap1\n      tag_14\n      jump\t// in\n    tag_13:\n      tag_15\n      jump\t// in\n    tag_12:\n      mload(0x40)\n      tag_16\n      swap2\n      swap1\n      tag_17\n      jump\t// in\n    tag_16:\n      mload(0x40)\n      dup1\n      swap2\n      sub\n      swap1\n      return\n        /* \"contracts/TransactionContract28April.sol\":3685:4523  function getTransactionBySellerId(... */\n    tag_4:\n      tag_18\n      0x04\n      dup1\n      calldatasize\n      sub\n      dup2\n      add\n      swap1\n      tag_19\n      swap2\n      swap1\n      tag_20\n      jump\t// in\n    tag_19:\n      tag_21\n      jump\t// in\n    tag_18:\n      mload(0x40)\n      tag_22\n      swap2\n      swap1\n      tag_23\n      jump\t// in\n    tag_22:\n      mload(0x40)\n      dup1\n      swap2\n      sub\n      swap1\n      return\n        /* \"contracts/TransactionContract28April.sol\":928:976  mapping(uint => Transaction) public transactions */\n    tag_5:\n      tag_24\n      0x04\n      dup1\n      calldatasize\n      sub\n      dup2\n      add\n      swap1\n      tag_25\n      swap2\n      swap1\n      tag_14\n      jump\t// in\n    tag_25:\n      tag_26\n      jump\t// in\n    tag_24:\n      mload(0x40)\n      tag_27\n      swap10\n      swap9\n      swap8\n      swap7\n      swap6\n      swap5\n      swap4\n      swap3\n      swap2\n      swap1\n      tag_28\n      jump\t// in\n    tag_27:\n      mload(0x40)\n      dup1\n      swap2\n      sub\n      swap1\n      return\n        /* \"contracts/TransactionContract28April.sol\":1017:1872  function addTransaction(... */\n    tag_6:\n      tag_29\n      0x04\n      dup1\n      calldatasize\n      sub\n      dup2\n      add\n      swap1\n      tag_30\n      swap2\n      swap1\n      tag_31\n      jump\t// in\n    tag_30:\n      tag_32\n      jump\t// in\n    tag_29:\n      stop\n        /* \"contracts/TransactionContract28April.sol\":2505:2835  function getAllTransaction() public view returns (Transaction[] memory) {... */\n    tag_7:\n      tag_33\n      tag_34\n      jump\t// in\n    tag_33:\n      mload(0x40)\n      tag_35\n      swap2\n      swap1\n      tag_23\n      jump\t// in\n    tag_35:\n      mload(0x40)\n      dup1\n      swap2\n      sub\n      swap1\n      return\n        /* \"contracts/TransactionContract28April.sol\":982:1010  uint public transactionCount */\n    tag_8:\n      tag_36\n      tag_37\n      jump\t// in\n    tag_36:\n      mload(0x40)\n      tag_38\n      swap2\n      swap1\n      tag_39\n      jump\t// in\n    tag_38:\n      mload(0x40)\n      dup1\n      swap2\n      sub\n      swap1\n      return\n        /* \"contracts/TransactionContract28April.sol\":2036:2499  function updatePaymentStatus(... */\n    tag_9:\n      tag_40\n      0x04\n      dup1\n      calldatasize\n      sub\n      dup2\n      add\n      swap1\n      tag_41\n      swap2\n      swap1\n      tag_42\n      jump\t// in\n    tag_41:\n      tag_43\n      jump\t// in\n    tag_40:\n      stop\n        /* \"contracts/TransactionContract28April.sol\":2841:3679  function getTransactionByBuyerId(... */\n    tag_10:\n      tag_44\n      0x04\n      dup1\n      calldatasize\n      sub\n      dup2\n      add\n      swap1\n      tag_45\n      swap2\n      swap1\n      tag_20\n      jump\t// in\n    tag_45:\n      tag_46\n      jump\t// in\n    tag_44:\n      mload(0x40)\n      tag_47\n      swap2\n      swap1\n      tag_23\n      jump\t// in\n    tag_47:\n      mload(0x40)\n      dup1\n      swap2\n      sub\n      swap1\n      return\n        /* \"contracts/TransactionContract28April.sol\":1878:2030  function getTransaction(... */\n    tag_15:\n        /* \"contracts/TransactionContract28April.sol\":1958:1976  Transaction memory */\n      tag_48\n      tag_49\n      jump\t// in\n    tag_48:\n        /* \"contracts/TransactionContract28April.sol\":1995:2007  transactions */\n      0x00\n        /* \"contracts/TransactionContract28April.sol\":1995:2023  transactions[_transactionId] */\n      dup1\n        /* \"contracts/TransactionContract28April.sol\":2008:2022  _transactionId */\n      dup4\n        /* \"contracts/TransactionContract28April.sol\":1995:2023  transactions[_transactionId] */\n      dup2\n      mstore\n      0x20\n      add\n      swap1\n      dup2\n      mstore\n      0x20\n      add\n      0x00\n      keccak256\n        /* \"contracts/TransactionContract28April.sol\":1988:2023  return transactions[_transactionId] */\n      mload(0x40)\n      dup1\n      0x0120\n      add\n      0x40\n      mstore\n      swap1\n      dup2\n      0x00\n      dup3\n      add\n      sload\n      dup2\n      mstore\n      0x20\n      add\n      0x01\n      dup3\n      add\n      dup1\n      sload\n      tag_51\n      swap1\n      tag_52\n      jump\t// in\n    tag_51:\n      dup1\n      0x1f\n      add\n      0x20\n      dup1\n      swap2\n      div\n      mul\n      0x20\n      add\n      mload(0x40)\n      swap1\n      dup2\n      add\n      0x40\n      mstore\n      dup1\n      swap3\n      swap2\n      swap1\n      dup2\n      dup2\n      mstore\n      0x20\n      add\n      dup3\n      dup1\n      sload\n      tag_53\n      swap1\n      tag_52\n      jump\t// in\n    tag_53:\n      dup1\n      iszero\n      tag_54\n      jumpi\n      dup1\n      0x1f\n      lt\n      tag_55\n      jumpi\n      0x0100\n      dup1\n      dup4\n      sload\n      div\n      mul\n      dup4\n      mstore\n      swap2\n      0x20\n      add\n      swap2\n      jump(tag_54)\n    tag_55:\n      dup3\n      add\n      swap2\n      swap1\n      0x00\n      mstore\n      keccak256(0x00, 0x20)\n      swap1\n    tag_56:\n      dup2\n      sload\n      dup2\n      mstore\n      swap1\n      0x01\n      add\n      swap1\n      0x20\n      add\n      dup1\n      dup4\n      gt\n      tag_56\n      jumpi\n      dup3\n      swap1\n      sub\n      0x1f\n      and\n      dup3\n      add\n      swap2\n    tag_54:\n      pop\n      pop\n      pop\n      pop\n      pop\n      dup2\n      mstore\n      0x20\n      add\n      0x02\n      dup3\n      add\n      dup1\n      sload\n      tag_57\n      swap1\n      tag_52\n      jump\t// in\n    tag_57:\n      dup1\n      0x1f\n      add\n      0x20\n      dup1\n      swap2\n      div\n      mul\n      0x20\n      add\n      mload(0x40)\n      swap1\n      dup2\n      add\n      0x40\n      mstore\n      dup1\n      swap3\n      swap2\n      swap1\n      dup2\n      dup2\n      mstore\n      0x20\n      add\n      dup3\n      dup1\n      sload\n      tag_58\n      swap1\n      tag_52\n      jump\t// in\n    tag_58:\n      dup1\n      iszero\n      tag_59\n      jumpi\n      dup1\n      0x1f\n      lt\n      tag_60\n      jumpi\n      0x0100\n      dup1\n      dup4\n      sload\n      div\n      mul\n      dup4\n      mstore\n      swap2\n      0x20\n      add\n      swap2\n      jump(tag_59)\n    tag_60:\n      dup3\n      add\n      swap2\n      swap1\n      0x00\n      mstore\n      keccak256(0x00, 0x20)\n      swap1\n    tag_61:\n      dup2\n      sload\n      dup2\n      mstore\n      swap1\n      0x01\n      add\n      swap1\n      0x20\n      add\n      dup1\n      dup4\n      gt\n      tag_61\n      jumpi\n      dup3\n      swap1\n      sub\n      0x1f\n      and\n      dup3\n      add\n      swap2\n    tag_59:\n      pop\n      pop\n      pop\n      pop\n      pop\n      dup2\n      mstore\n      0x20\n      add\n      0x03\n      dup3\n      add\n      dup1\n      sload\n      tag_62\n      swap1\n      tag_52\n      jump\t// in\n    tag_62:\n      dup1\n      0x1f\n      add\n      0x20\n      dup1\n      swap2\n      div\n      mul\n      0x20\n      add\n      mload(0x40)\n      swap1\n      dup2\n      add\n      0x40\n      mstore\n      dup1\n      swap3\n      swap2\n      swap1\n      dup2\n      dup2\n      mstore\n      0x20\n      add\n      dup3\n      dup1\n      sload\n      tag_63\n      swap1\n      tag_52\n      jump\t// in\n    tag_63:\n      dup1\n      iszero\n      tag_64\n      jumpi\n      dup1\n      0x1f\n      lt\n      tag_65\n      jumpi\n      0x0100\n      dup1\n      dup4\n      sload\n      div\n      mul\n      dup4\n      mstore\n      swap2\n      0x20\n      add\n      swap2\n      jump(tag_64)\n    tag_65:\n      dup3\n      add\n      swap2\n      swap1\n      0x00\n      mstore\n      keccak256(0x00, 0x20)\n      swap1\n    tag_66:\n      dup2\n      sload\n      dup2\n      mstore\n      swap1\n      0x01\n      add\n      swap1\n      0x20\n      add\n      dup1\n      dup4\n      gt\n      tag_66\n      jumpi\n      dup3\n      swap1\n      sub\n      0x1f\n      and\n      dup3\n      add\n      swap2\n    tag_64:\n      pop\n      pop\n      pop\n      pop\n      pop\n      dup2\n      mstore\n      0x20\n      add\n      0x04\n      dup3\n      add\n      dup1\n      sload\n      tag_67\n      swap1\n      tag_52\n      jump\t// in\n    tag_67:\n      dup1\n      0x1f\n      add\n      0x20\n      dup1\n      swap2\n      div\n      mul\n      0x20\n      add\n      mload(0x40)\n      swap1\n      dup2\n      add\n      0x40\n      mstore\n      dup1\n      swap3\n      swap2\n      swap1\n      dup2\n      dup2\n      mstore\n      0x20\n      add\n      dup3\n      dup1\n      sload\n      tag_68\n      swap1\n      tag_52\n      jump\t// in\n    tag_68:\n      dup1\n      iszero\n      tag_69\n      jumpi\n      dup1\n      0x1f\n      lt\n      tag_70\n      jumpi\n      0x0100\n      dup1\n      dup4\n      sload\n      div\n      mul\n      dup4\n      mstore\n      swap2\n      0x20\n      add\n      swap2\n      jump(tag_69)\n    tag_70:\n      dup3\n      add\n      swap2\n      swap1\n      0x00\n      mstore\n      keccak256(0x00, 0x20)\n      swap1\n    tag_71:\n      dup2\n      sload\n      dup2\n      mstore\n      swap1\n      0x01\n      add\n      swap1\n      0x20\n      add\n      dup1\n      dup4\n      gt\n      tag_71\n      jumpi\n      dup3\n      swap1\n      sub\n      0x1f\n      and\n      dup3\n      add\n      swap2\n    tag_69:\n      pop\n      pop\n      pop\n      pop\n      pop\n      dup2\n      mstore\n      0x20\n      add\n      0x05\n      dup3\n      add\n      dup1\n      sload\n      tag_72\n      swap1\n      tag_52\n      jump\t// in\n    tag_72:\n      dup1\n      0x1f\n      add\n      0x20\n      dup1\n      swap2\n      div\n      mul\n      0x20\n      add\n      mload(0x40)\n      swap1\n      dup2\n      add\n      0x40\n      mstore\n      dup1\n      swap3\n      swap2\n      swap1\n      dup2\n      dup2\n      mstore\n      0x20\n      add\n      dup3\n      dup1\n      sload\n      tag_73\n      swap1\n      tag_52\n      jump\t// in\n    tag_73:\n      dup1\n      iszero\n      tag_74\n      jumpi\n      dup1\n      0x1f\n      lt\n      tag_75\n      jumpi\n      0x0100\n      dup1\n      dup4\n      sload\n      div\n      mul\n      dup4\n      mstore\n      swap2\n      0x20\n      add\n      swap2\n      jump(tag_74)\n    tag_75:\n      dup3\n      add\n      swap2\n      swap1\n      0x00\n      mstore\n      keccak256(0x00, 0x20)\n      swap1\n    tag_76:\n      dup2\n      sload\n      dup2\n      mstore\n      swap1\n      0x01\n      add\n      swap1\n      0x20\n      add\n      dup1\n      dup4\n      gt\n      tag_76\n      jumpi\n      dup3\n      swap1\n      sub\n      0x1f\n      and\n      dup3\n      add\n      swap2\n    tag_74:\n      pop\n      pop\n      pop\n      pop\n      pop\n      dup2\n      mstore\n      0x20\n      add\n      0x06\n      dup3\n      add\n      dup1\n      sload\n      tag_77\n      swap1\n      tag_52\n      jump\t// in\n    tag_77:\n      dup1\n      0x1f\n      add\n      0x20\n      dup1\n      swap2\n      div\n      mul\n      0x20\n      add\n      mload(0x40)\n      swap1\n      dup2\n      add\n      0x40\n      mstore\n      dup1\n      swap3\n      swap2\n      swap1\n      dup2\n      dup2\n      mstore\n      0x20\n      add\n      dup3\n      dup1\n      sload\n      tag_78\n      swap1\n      tag_52\n      jump\t// in\n    tag_78:\n      dup1\n      iszero\n      tag_79\n      jumpi\n      dup1\n      0x1f\n      lt\n      tag_80\n      jumpi\n      0x0100\n      dup1\n      dup4\n      sload\n      div\n      mul\n      dup4\n      mstore\n      swap2\n      0x20\n      add\n      swap2\n      jump(tag_79)\n    tag_80:\n      dup3\n      add\n      swap2\n      swap1\n      0x00\n      mstore\n      keccak256(0x00, 0x20)\n      swap1\n    tag_81:\n      dup2\n      sload\n      dup2\n      mstore\n      swap1\n      0x01\n      add\n      swap1\n      0x20\n      add\n      dup1\n      dup4\n      gt\n      tag_81\n      jumpi\n      dup3\n      swap1\n      sub\n      0x1f\n      and\n      dup3\n      add\n      swap2\n    tag_79:\n      pop\n      pop\n      pop\n      pop\n      pop\n      dup2\n      mstore\n      0x20\n      add\n      0x07\n      dup3\n      add\n      dup1\n      sload\n      tag_82\n      swap1\n      tag_52\n      jump\t// in\n    tag_82:\n      dup1\n      0x1f\n      add\n      0x20\n      dup1\n      swap2\n      div\n      mul\n      0x20\n      add\n      mload(0x40)\n      swap1\n      dup2\n      add\n      0x40\n      mstore\n      dup1\n      swap3\n      swap2\n      swap1\n      dup2\n      dup2\n      mstore\n      0x20\n      add\n      dup3\n      dup1\n      sload\n      tag_83\n      swap1\n      tag_52\n      jump\t// in\n    tag_83:\n      dup1\n      iszero\n      tag_84\n      jumpi\n      dup1\n      0x1f\n      lt\n      tag_85\n      jumpi\n      0x0100\n      dup1\n      dup4\n      sload\n      div\n      mul\n      dup4\n      mstore\n      swap2\n      0x20\n      add\n      swap2\n      jump(tag_84)\n    tag_85:\n      dup3\n      add\n      swap2\n      swap1\n      0x00\n      mstore\n      keccak256(0x00, 0x20)\n      swap1\n    tag_86:\n      dup2\n      sload\n      dup2\n      mstore\n      swap1\n      0x01\n      add\n      swap1\n      0x20\n      add\n      dup1\n      dup4\n      gt\n      tag_86\n      jumpi\n      dup3\n      swap1\n      sub\n      0x1f\n      and\n      dup3\n      add\n      swap2\n    tag_84:\n      pop\n      pop\n      pop\n      pop\n      pop\n      dup2\n      mstore\n      0x20\n      add\n      0x08\n      dup3\n      add\n      sload\n      dup2\n      mstore\n      pop\n      pop\n      swap1\n      pop\n        /* \"contracts/TransactionContract28April.sol\":1878:2030  function getTransaction(... */\n      swap2\n      swap1\n      pop\n      jump\t// out\n        /* \"contracts/TransactionContract28April.sol\":3685:4523  function getTransactionBySellerId(... */\n    tag_21:\n        /* \"contracts/TransactionContract28April.sol\":3779:3799  Transaction[] memory */\n      0x60\n        /* \"contracts/TransactionContract28April.sol\":3811:3821  uint count */\n      0x00\n        /* \"contracts/TransactionContract28April.sol\":3840:3846  uint i */\n      dup1\n        /* \"contracts/TransactionContract28April.sol\":3849:3850  1 */\n      0x01\n        /* \"contracts/TransactionContract28April.sol\":3840:3850  uint i = 1 */\n      swap1\n      pop\n        /* \"contracts/TransactionContract28April.sol\":3835:4087  for (uint i = 1; i <= transactionCount; i++) {... */\n    tag_88:\n        /* \"contracts/TransactionContract28April.sol\":3857:3873  transactionCount */\n      sload(0x01)\n        /* \"contracts/TransactionContract28April.sol\":3852:3853  i */\n      dup2\n        /* \"contracts/TransactionContract28April.sol\":3852:3873  i <= transactionCount */\n      gt\n        /* \"contracts/TransactionContract28April.sol\":3835:4087  for (uint i = 1; i <= transactionCount; i++) {... */\n      tag_89\n      jumpi\n        /* \"contracts/TransactionContract28April.sol\":4011:4020  _sellerId */\n      dup4\n        /* \"contracts/TransactionContract28April.sol\":3994:4021  abi.encodePacked(_sellerId) */\n      add(0x20, mload(0x40))\n      tag_91\n      swap2\n      swap1\n      tag_92\n      jump\t// in\n    tag_91:\n      mload(0x40)\n      0x20\n      dup2\n      dup4\n      sub\n      sub\n      dup2\n      mstore\n      swap1\n      0x40\n      mstore\n        /* \"contracts/TransactionContract28April.sol\":3984:4022  keccak256(abi.encodePacked(_sellerId)) */\n      dup1\n      mload\n      swap1\n      0x20\n      add\n      keccak256\n        /* \"contracts/TransactionContract28April.sol\":3942:3954  transactions */\n      0x00\n        /* \"contracts/TransactionContract28April.sol\":3942:3957  transactions[i] */\n      dup1\n        /* \"contracts/TransactionContract28April.sol\":3955:3956  i */\n      dup4\n        /* \"contracts/TransactionContract28April.sol\":3942:3957  transactions[i] */\n      dup2\n      mstore\n      0x20\n      add\n      swap1\n      dup2\n      mstore\n      0x20\n      add\n      0x00\n      keccak256\n        /* \"contracts/TransactionContract28April.sol\":3942:3962  transactions[i].toId */\n      0x05\n      add\n        /* \"contracts/TransactionContract28April.sol\":3925:3963  abi.encodePacked(transactions[i].toId) */\n      add(0x20, mload(0x40))\n      tag_93\n      swap2\n      swap1\n      tag_94\n      jump\t// in\n    tag_93:\n      mload(0x40)\n      0x20\n      dup2\n      dup4\n      sub\n      sub\n      dup2\n      mstore\n      swap1\n      0x40\n      mstore\n        /* \"contracts/TransactionContract28April.sol\":3915:3964  keccak256(abi.encodePacked(transactions[i].toId)) */\n      dup1\n      mload\n      swap1\n      0x20\n      add\n      keccak256\n        /* \"contracts/TransactionContract28April.sol\":3915:4022  keccak256(abi.encodePacked(transactions[i].toId)) ==... */\n      sub\n        /* \"contracts/TransactionContract28April.sol\":3894:4077  if (... */\n      tag_95\n      jumpi\n        /* \"contracts/TransactionContract28April.sol\":4055:4062  count++ */\n      dup2\n      dup1\n      tag_96\n      swap1\n      tag_97\n      jump\t// in\n    tag_96:\n      swap3\n      pop\n      pop\n        /* \"contracts/TransactionContract28April.sol\":3894:4077  if (... */\n    tag_95:\n        /* \"contracts/TransactionContract28April.sol\":3875:3878  i++ */\n      dup1\n      dup1\n      tag_98\n      swap1\n      tag_97\n      jump\t// in\n    tag_98:\n      swap2\n      pop\n      pop\n        /* \"contracts/TransactionContract28April.sol\":3835:4087  for (uint i = 1; i <= transactionCount; i++) {... */\n      jump(tag_88)\n    tag_89:\n      pop\n        /* \"contracts/TransactionContract28April.sol\":4096:4130  Transaction[] memory _transactions */\n      0x00\n        /* \"contracts/TransactionContract28April.sol\":4151:4156  count */\n      dup2\n        /* \"contracts/TransactionContract28April.sol\":4133:4157  new Transaction[](count) */\n      0xffffffffffffffff\n      dup2\n      gt\n      iszero\n      tag_99\n      jumpi\n      tag_100\n      tag_101\n      jump\t// in\n    tag_100:\n    tag_99:\n      mload(0x40)\n      swap1\n      dup1\n      dup3\n      mstore\n      dup1\n      0x20\n      mul\n      0x20\n      add\n      dup3\n      add\n      0x40\n      mstore\n      dup1\n      iszero\n      tag_102\n      jumpi\n      dup2\n      0x20\n      add\n    tag_103:\n      tag_104\n      tag_49\n      jump\t// in\n    tag_104:\n      dup2\n      mstore\n      0x20\n      add\n      swap1\n      0x01\n      swap1\n      sub\n      swap1\n      dup2\n      tag_103\n      jumpi\n      swap1\n      pop\n    tag_102:\n      pop\n        /* \"contracts/TransactionContract28April.sol\":4096:4157  Transaction[] memory _transactions = new Transaction[](count) */\n      swap1\n      pop\n        /* \"contracts/TransactionContract28April.sol\":4167:4173  uint j */\n      0x00\n        /* \"contracts/TransactionContract28April.sol\":4192:4198  uint i */\n      dup1\n        /* \"contracts/TransactionContract28April.sol\":4201:4202  1 */\n      0x01\n        /* \"contracts/TransactionContract28April.sol\":4192:4202  uint i = 1 */\n      swap1\n      pop\n        /* \"contracts/TransactionContract28April.sol\":4187:4487  for (uint i = 1; i <= transactionCount; i++) {... */\n    tag_105:\n        /* \"contracts/TransactionContract28April.sol\":4209:4225  transactionCount */\n      sload(0x01)\n        /* \"contracts/TransactionContract28April.sol\":4204:4205  i */\n      dup2\n        /* \"contracts/TransactionContract28April.sol\":4204:4225  i <= transactionCount */\n      gt\n        /* \"contracts/TransactionContract28April.sol\":4187:4487  for (uint i = 1; i <= transactionCount; i++) {... */\n      tag_106\n      jumpi\n        /* \"contracts/TransactionContract28April.sol\":4363:4372  _sellerId */\n      dup6\n        /* \"contracts/TransactionContract28April.sol\":4346:4373  abi.encodePacked(_sellerId) */\n      add(0x20, mload(0x40))\n      tag_108\n      swap2\n      swap1\n      tag_92\n      jump\t// in\n    tag_108:\n      mload(0x40)\n      0x20\n      dup2\n      dup4\n      sub\n      sub\n      dup2\n      mstore\n      swap1\n      0x40\n      mstore\n        /* \"contracts/TransactionContract28April.sol\":4336:4374  keccak256(abi.encodePacked(_sellerId)) */\n      dup1\n      mload\n      swap1\n      0x20\n      add\n      keccak256\n        /* \"contracts/TransactionContract28April.sol\":4294:4306  transactions */\n      0x00\n        /* \"contracts/TransactionContract28April.sol\":4294:4309  transactions[i] */\n      dup1\n        /* \"contracts/TransactionContract28April.sol\":4307:4308  i */\n      dup4\n        /* \"contracts/TransactionContract28April.sol\":4294:4309  transactions[i] */\n      dup2\n      mstore\n      0x20\n      add\n      swap1\n      dup2\n      mstore\n      0x20\n      add\n      0x00\n      keccak256\n        /* \"contracts/TransactionContract28April.sol\":4294:4314  transactions[i].toId */\n      0x05\n      add\n        /* \"contracts/TransactionContract28April.sol\":4277:4315  abi.encodePacked(transactions[i].toId) */\n      add(0x20, mload(0x40))\n      tag_109\n      swap2\n      swap1\n      tag_94\n      jump\t// in\n    tag_109:\n      mload(0x40)\n      0x20\n      dup2\n      dup4\n      sub\n      sub\n      dup2\n      mstore\n      swap1\n      0x40\n      mstore\n        /* \"contracts/TransactionContract28April.sol\":4267:4316  keccak256(abi.encodePacked(transactions[i].toId)) */\n      dup1\n      mload\n      swap1\n      0x20\n      add\n      keccak256\n        /* \"contracts/TransactionContract28April.sol\":4267:4374  keccak256(abi.encodePacked(transactions[i].toId)) ==... */\n      sub\n        /* \"contracts/TransactionContract28April.sol\":4246:4477  if (... */\n      tag_110\n      jumpi\n        /* \"contracts/TransactionContract28April.sol\":4426:4438  transactions */\n      0x00\n        /* \"contracts/TransactionContract28April.sol\":4426:4441  transactions[i] */\n      dup1\n        /* \"contracts/TransactionContract28April.sol\":4439:4440  i */\n      dup3\n        /* \"contracts/TransactionContract28April.sol\":4426:4441  transactions[i] */\n      dup2\n      mstore\n      0x20\n      add\n      swap1\n      dup2\n      mstore\n      0x20\n      add\n      0x00\n      keccak256\n        /* \"contracts/TransactionContract28April.sol\":4407:4441  _transactions[j] = transactions[i] */\n      mload(0x40)\n      dup1\n      0x0120\n      add\n      0x40\n      mstore\n      swap1\n      dup2\n      0x00\n      dup3\n      add\n      sload\n      dup2\n      mstore\n      0x20\n      add\n      0x01\n      dup3\n      add\n      dup1\n      sload\n      tag_111\n      swap1\n      tag_52\n      jump\t// in\n    tag_111:\n      dup1\n      0x1f\n      add\n      0x20\n      dup1\n      swap2\n      div\n      mul\n      0x20\n      add\n      mload(0x40)\n      swap1\n      dup2\n      add\n      0x40\n      mstore\n      dup1\n      swap3\n      swap2\n      swap1\n      dup2\n      dup2\n      mstore\n      0x20\n      add\n      dup3\n      dup1\n      sload\n      tag_112\n      swap1\n      tag_52\n      jump\t// in\n    tag_112:\n      dup1\n      iszero\n      tag_113\n      jumpi\n      dup1\n      0x1f\n      lt\n      tag_114\n      jumpi\n      0x0100\n      dup1\n      dup4\n      sload\n      div\n      mul\n      dup4\n      mstore\n      swap2\n      0x20\n      add\n      swap2\n      jump(tag_113)\n    tag_114:\n      dup3\n      add\n      swap2\n      swap1\n      0x00\n      mstore\n      keccak256(0x00, 0x20)\n      swap1\n    tag_115:\n      dup2\n      sload\n      dup2\n      mstore\n      swap1\n      0x01\n      add\n      swap1\n      0x20\n      add\n      dup1\n      dup4\n      gt\n      tag_115\n      jumpi\n      dup3\n      swap1\n      sub\n      0x1f\n      and\n      dup3\n      add\n      swap2\n    tag_113:\n      pop\n      pop\n      pop\n      pop\n      pop\n      dup2\n      mstore\n      0x20\n      add\n      0x02\n      dup3\n      add\n      dup1\n      sload\n      tag_116\n      swap1\n      tag_52\n      jump\t// in\n    tag_116:\n      dup1\n      0x1f\n      add\n      0x20\n      dup1\n      swap2\n      div\n      mul\n      0x20\n      add\n      mload(0x40)\n      swap1\n      dup2\n      add\n      0x40\n      mstore\n      dup1\n      swap3\n      swap2\n      swap1\n      dup2\n      dup2\n      mstore\n      0x20\n      add\n      dup3\n      dup1\n      sload\n      tag_117\n      swap1\n      tag_52\n      jump\t// in\n    tag_117:\n      dup1\n      iszero\n      tag_118\n      jumpi\n      dup1\n      0x1f\n      lt\n      tag_119\n      jumpi\n      0x0100\n      dup1\n      dup4\n      sload\n      div\n      mul\n      dup4\n      mstore\n      swap2\n      0x20\n      add\n      swap2\n      jump(tag_118)\n    tag_119:\n      dup3\n      add\n      swap2\n      swap1\n      0x00\n      mstore\n      keccak256(0x00, 0x20)\n      swap1\n    tag_120:\n      dup2\n      sload\n      dup2\n      mstore\n      swap1\n      0x01\n      add\n      swap1\n      0x20\n      add\n      dup1\n      dup4\n      gt\n      tag_120\n      jumpi\n      dup3\n      swap1\n      sub\n      0x1f\n      and\n      dup3\n      add\n      swap2\n    tag_118:\n      pop\n      pop\n      pop\n      pop\n      pop\n      dup2\n      mstore\n      0x20\n      add\n      0x03\n      dup3\n      add\n      dup1\n      sload\n      tag_121\n      swap1\n      tag_52\n      jump\t// in\n    tag_121:\n      dup1\n      0x1f\n      add\n      0x20\n      dup1\n      swap2\n      div\n      mul\n      0x20\n      add\n      mload(0x40)\n      swap1\n      dup2\n      add\n      0x40\n      mstore\n      dup1\n      swap3\n      swap2\n      swap1\n      dup2\n      dup2\n      mstore\n      0x20\n      add\n      dup3\n      dup1\n      sload\n      tag_122\n      swap1\n      tag_52\n      jump\t// in\n    tag_122:\n      dup1\n      iszero\n      tag_123\n      jumpi\n      dup1\n      0x1f\n      lt\n      tag_124\n      jumpi\n      0x0100\n      dup1\n      dup4\n      sload\n      div\n      mul\n      dup4\n      mstore\n      swap2\n      0x20\n      add\n      swap2\n      jump(tag_123)\n    tag_124:\n      dup3\n      add\n      swap2\n      swap1\n      0x00\n      mstore\n      keccak256(0x00, 0x20)\n      swap1\n    tag_125:\n      dup2\n      sload\n      dup2\n      mstore\n      swap1\n      0x01\n      add\n      swap1\n      0x20\n      add\n      dup1\n      dup4\n      gt\n      tag_125\n      jumpi\n      dup3\n      swap1\n      sub\n      0x1f\n      and\n      dup3\n      add\n      swap2\n    tag_123:\n      pop\n      pop\n      pop\n      pop\n      pop\n      dup2\n      mstore\n      0x20\n      add\n      0x04\n      dup3\n      add\n      dup1\n      sload\n      tag_126\n      swap1\n      tag_52\n      jump\t// in\n    tag_126:\n      dup1\n      0x1f\n      add\n      0x20\n      dup1\n      swap2\n      div\n      mul\n      0x20\n      add\n      mload(0x40)\n      swap1\n      dup2\n      add\n      0x40\n      mstore\n      dup1\n      swap3\n      swap2\n      swap1\n      dup2\n      dup2\n      mstore\n      0x20\n      add\n      dup3\n      dup1\n      sload\n      tag_127\n      swap1\n      tag_52\n      jump\t// in\n    tag_127:\n      dup1\n      iszero\n      tag_128\n      jumpi\n      dup1\n      0x1f\n      lt\n      tag_129\n      jumpi\n      0x0100\n      dup1\n      dup4\n      sload\n      div\n      mul\n      dup4\n      mstore\n      swap2\n      0x20\n      add\n      swap2\n      jump(tag_128)\n    tag_129:\n      dup3\n      add\n      swap2\n      swap1\n      0x00\n      mstore\n      keccak256(0x00, 0x20)\n      swap1\n    tag_130:\n      dup2\n      sload\n      dup2\n      mstore\n      swap1\n      0x01\n      add\n      swap1\n      0x20\n      add\n      dup1\n      dup4\n      gt\n      tag_130\n      jumpi\n      dup3\n      swap1\n      sub\n      0x1f\n      and\n      dup3\n      add\n      swap2\n    tag_128:\n      pop\n      pop\n      pop\n      pop\n      pop\n      dup2\n      mstore\n      0x20\n      add\n      0x05\n      dup3\n      add\n      dup1\n      sload\n      tag_131\n      swap1\n      tag_52\n      jump\t// in\n    tag_131:\n      dup1\n      0x1f\n      add\n      0x20\n      dup1\n      swap2\n      div\n      mul\n      0x20\n      add\n      mload(0x40)\n      swap1\n      dup2\n      add\n      0x40\n      mstore\n      dup1\n      swap3\n      swap2\n      swap1\n      dup2\n      dup2\n      mstore\n      0x20\n      add\n      dup3\n      dup1\n      sload\n      tag_132\n      swap1\n      tag_52\n      jump\t// in\n    tag_132:\n      dup1\n      iszero\n      tag_133\n      jumpi\n      dup1\n      0x1f\n      lt\n      tag_134\n      jumpi\n      0x0100\n      dup1\n      dup4\n      sload\n      div\n      mul\n      dup4\n      mstore\n      swap2\n      0x20\n      add\n      swap2\n      jump(tag_133)\n    tag_134:\n      dup3\n      add\n      swap2\n      swap1\n      0x00\n      mstore\n      keccak256(0x00, 0x20)\n      swap1\n    tag_135:\n      dup2\n      sload\n      dup2\n      mstore\n      swap1\n      0x01\n      add\n      swap1\n      0x20\n      add\n      dup1\n      dup4\n      gt\n      tag_135\n      jumpi\n      dup3\n      swap1\n      sub\n      0x1f\n      and\n      dup3\n      add\n      swap2\n    tag_133:\n      pop\n      pop\n      pop\n      pop\n      pop\n      dup2\n      mstore\n      0x20\n      add\n      0x06\n      dup3\n      add\n      dup1\n      sload\n      tag_136\n      swap1\n      tag_52\n      jump\t// in\n    tag_136:\n      dup1\n      0x1f\n      add\n      0x20\n      dup1\n      swap2\n      div\n      mul\n      0x20\n      add\n      mload(0x40)\n      swap1\n      dup2\n      add\n      0x40\n      mstore\n      dup1\n      swap3\n      swap2\n      swap1\n      dup2\n      dup2\n      mstore\n      0x20\n      add\n      dup3\n      dup1\n      sload\n      tag_137\n      swap1\n      tag_52\n      jump\t// in\n    tag_137:\n      dup1\n      iszero\n      tag_138\n      jumpi\n      dup1\n      0x1f\n      lt\n      tag_139\n      jumpi\n      0x0100\n      dup1\n      dup4\n      sload\n      div\n      mul\n      dup4\n      mstore\n      swap2\n      0x20\n      add\n      swap2\n      jump(tag_138)\n    tag_139:\n      dup3\n      add\n      swap2\n      swap1\n      0x00\n      mstore\n      keccak256(0x00, 0x20)\n      swap1\n    tag_140:\n      dup2\n      sload\n      dup2\n      mstore\n      swap1\n      0x01\n      add\n      swap1\n      0x20\n      add\n      dup1\n      dup4\n      gt\n      tag_140\n      jumpi\n      dup3\n      swap1\n      sub\n      0x1f\n      and\n      dup3\n      add\n      swap2\n    tag_138:\n      pop\n      pop\n      pop\n      pop\n      pop\n      dup2\n      mstore\n      0x20\n      add\n      0x07\n      dup3\n      add\n      dup1\n      sload\n      tag_141\n      swap1\n      tag_52\n      jump\t// in\n    tag_141:\n      dup1\n      0x1f\n      add\n      0x20\n      dup1\n      swap2\n      div\n      mul\n      0x20\n      add\n      mload(0x40)\n      swap1\n      dup2\n      add\n      0x40\n      mstore\n      dup1\n      swap3\n      swap2\n      swap1\n      dup2\n      dup2\n      mstore\n      0x20\n      add\n      dup3\n      dup1\n      sload\n      tag_142\n      swap1\n      tag_52\n      jump\t// in\n    tag_142:\n      dup1\n      iszero\n      tag_143\n      jumpi\n      dup1\n      0x1f\n      lt\n      tag_144\n      jumpi\n      0x0100\n      dup1\n      dup4\n      sload\n      div\n      mul\n      dup4\n      mstore\n      swap2\n      0x20\n      add\n      swap2\n      jump(tag_143)\n    tag_144:\n      dup3\n      add\n      swap2\n      swap1\n      0x00\n      mstore\n      keccak256(0x00, 0x20)\n      swap1\n    tag_145:\n      dup2\n      sload\n      dup2\n      mstore\n      swap1\n      0x01\n      add\n      swap1\n      0x20\n      add\n      dup1\n      dup4\n      gt\n      tag_145\n      jumpi\n      dup3\n      swap1\n      sub\n      0x1f\n      and\n      dup3\n      add\n      swap2\n    tag_143:\n      pop\n      pop\n      pop\n      pop\n      pop\n      dup2\n      mstore\n      0x20\n      add\n      0x08\n      dup3\n      add\n      sload\n      dup2\n      mstore\n      pop\n      pop\n        /* \"contracts/TransactionContract28April.sol\":4407:4420  _transactions */\n      dup4\n        /* \"contracts/TransactionContract28April.sol\":4421:4422  j */\n      dup4\n        /* \"contracts/TransactionContract28April.sol\":4407:4423  _transactions[j] */\n      dup2\n      mload\n      dup2\n      lt\n      tag_146\n      jumpi\n      tag_147\n      tag_148\n      jump\t// in\n    tag_147:\n    tag_146:\n      0x20\n      mul\n      0x20\n      add\n      add\n        /* \"contracts/TransactionContract28April.sol\":4407:4441  _transactions[j] = transactions[i] */\n      dup2\n      swap1\n      mstore\n      pop\n        /* \"contracts/TransactionContract28April.sol\":4459:4462  j++ */\n      dup2\n      dup1\n      tag_149\n      swap1\n      tag_97\n      jump\t// in\n    tag_149:\n      swap3\n      pop\n      pop\n        /* \"contracts/TransactionContract28April.sol\":4246:4477  if (... */\n    tag_110:\n        /* \"contracts/TransactionContract28April.sol\":4227:4230  i++ */\n      dup1\n      dup1\n      tag_150\n      swap1\n      tag_97\n      jump\t// in\n    tag_150:\n      swap2\n      pop\n      pop\n        /* \"contracts/TransactionContract28April.sol\":4187:4487  for (uint i = 1; i <= transactionCount; i++) {... */\n      jump(tag_105)\n    tag_106:\n      pop\n        /* \"contracts/TransactionContract28April.sol\":4503:4516  _transactions */\n      dup2\n        /* \"contracts/TransactionContract28April.sol\":4496:4516  return _transactions */\n      swap4\n      pop\n      pop\n      pop\n      pop\n        /* \"contracts/TransactionContract28April.sol\":3685:4523  function getTransactionBySellerId(... */\n      swap2\n      swap1\n      pop\n      jump\t// out\n        /* \"contracts/TransactionContract28April.sol\":928:976  mapping(uint => Transaction) public transactions */\n    tag_26:\n      mstore(0x20, 0x00)\n      dup1\n      0x00\n      mstore\n      keccak256(0x00, 0x40)\n      0x00\n      swap2\n      pop\n      swap1\n      pop\n      dup1\n      0x00\n      add\n      sload\n      swap1\n      dup1\n      0x01\n      add\n      dup1\n      sload\n      tag_151\n      swap1\n      tag_52\n      jump\t// in\n    tag_151:\n      dup1\n      0x1f\n      add\n      0x20\n      dup1\n      swap2\n      div\n      mul\n      0x20\n      add\n      mload(0x40)\n      swap1\n      dup2\n      add\n      0x40\n      mstore\n      dup1\n      swap3\n      swap2\n      swap1\n      dup2\n      dup2\n      mstore\n      0x20\n      add\n      dup3\n      dup1\n      sload\n      tag_152\n      swap1\n      tag_52\n      jump\t// in\n    tag_152:\n      dup1\n      iszero\n      tag_153\n      jumpi\n      dup1\n      0x1f\n      lt\n      tag_154\n      jumpi\n      0x0100\n      dup1\n      dup4\n      sload\n      div\n      mul\n      dup4\n      mstore\n      swap2\n      0x20\n      add\n      swap2\n      jump(tag_153)\n    tag_154:\n      dup3\n      add\n      swap2\n      swap1\n      0x00\n      mstore\n      keccak256(0x00, 0x20)\n      swap1\n    tag_155:\n      dup2\n      sload\n      dup2\n      mstore\n      swap1\n      0x01\n      add\n      swap1\n      0x20\n      add\n      dup1\n      dup4\n      gt\n      tag_155\n      jumpi\n      dup3\n      swap1\n      sub\n      0x1f\n      and\n      dup3\n      add\n      swap2\n    tag_153:\n      pop\n      pop\n      pop\n      pop\n      pop\n      swap1\n      dup1\n      0x02\n      add\n      dup1\n      sload\n      tag_156\n      swap1\n      tag_52\n      jump\t// in\n    tag_156:\n      dup1\n      0x1f\n      add\n      0x20\n      dup1\n      swap2\n      div\n      mul\n      0x20\n      add\n      mload(0x40)\n      swap1\n      dup2\n      add\n      0x40\n      mstore\n      dup1\n      swap3\n      swap2\n      swap1\n      dup2\n      dup2\n      mstore\n      0x20\n      add\n      dup3\n      dup1\n      sload\n      tag_157\n      swap1\n      tag_52\n      jump\t// in\n    tag_157:\n      dup1\n      iszero\n      tag_158\n      jumpi\n      dup1\n      0x1f\n      lt\n      tag_159\n      jumpi\n      0x0100\n      dup1\n      dup4\n      sload\n      div\n      mul\n      dup4\n      mstore\n      swap2\n      0x20\n      add\n      swap2\n      jump(tag_158)\n    tag_159:\n      dup3\n      add\n      swap2\n      swap1\n      0x00\n      mstore\n      keccak256(0x00, 0x20)\n      swap1\n    tag_160:\n      dup2\n      sload\n      dup2\n      mstore\n      swap1\n      0x01\n      add\n      swap1\n      0x20\n      add\n      dup1\n      dup4\n      gt\n      tag_160\n      jumpi\n      dup3\n      swap1\n      sub\n      0x1f\n      and\n      dup3\n      add\n      swap2\n    tag_158:\n      pop\n      pop\n      pop\n      pop\n      pop\n      swap1\n      dup1\n      0x03\n      add\n      dup1\n      sload\n      tag_161\n      swap1\n      tag_52\n      jump\t// in\n    tag_161:\n      dup1\n      0x1f\n      add\n      0x20\n      dup1\n      swap2\n      div\n      mul\n      0x20\n      add\n      mload(0x40)\n      swap1\n      dup2\n      add\n      0x40\n      mstore\n      dup1\n      swap3\n      swap2\n      swap1\n      dup2\n      dup2\n      mstore\n      0x20\n      add\n      dup3\n      dup1\n      sload\n      tag_162\n      swap1\n      tag_52\n      jump\t// in\n    tag_162:\n      dup1\n      iszero\n      tag_163\n      jumpi\n      dup1\n      0x1f\n      lt\n      tag_164\n      jumpi\n      0x0100\n      dup1\n      dup4\n      sload\n      div\n      mul\n      dup4\n      mstore\n      swap2\n      0x20\n      add\n      swap2\n      jump(tag_163)\n    tag_164:\n      dup3\n      add\n      swap2\n      swap1\n      0x00\n      mstore\n      keccak256(0x00, 0x20)\n      swap1\n    tag_165:\n      dup2\n      sload\n      dup2\n      mstore\n      swap1\n      0x01\n      add\n      swap1\n      0x20\n      add\n      dup1\n      dup4\n      gt\n      tag_165\n      jumpi\n      dup3\n      swap1\n      sub\n      0x1f\n      and\n      dup3\n      add\n      swap2\n    tag_163:\n      pop\n      pop\n      pop\n      pop\n      pop\n      swap1\n      dup1\n      0x04\n      add\n      dup1\n      sload\n      tag_166\n      swap1\n      tag_52\n      jump\t// in\n    tag_166:\n      dup1\n      0x1f\n      add\n      0x20\n      dup1\n      swap2\n      div\n      mul\n      0x20\n      add\n      mload(0x40)\n      swap1\n      dup2\n      add\n      0x40\n      mstore\n      dup1\n      swap3\n      swap2\n      swap1\n      dup2\n      dup2\n      mstore\n      0x20\n      add\n      dup3\n      dup1\n      sload\n      tag_167\n      swap1\n      tag_52\n      jump\t// in\n    tag_167:\n      dup1\n      iszero\n      tag_168\n      jumpi\n      dup1\n      0x1f\n      lt\n      tag_169\n      jumpi\n      0x0100\n      dup1\n      dup4\n      sload\n      div\n      mul\n      dup4\n      mstore\n      swap2\n      0x20\n      add\n      swap2\n      jump(tag_168)\n    tag_169:\n      dup3\n      add\n      swap2\n      swap1\n      0x00\n      mstore\n      keccak256(0x00, 0x20)\n      swap1\n    tag_170:\n      dup2\n      sload\n      dup2\n      mstore\n      swap1\n      0x01\n      add\n      swap1\n      0x20\n      add\n      dup1\n      dup4\n      gt\n      tag_170\n      jumpi\n      dup3\n      swap1\n      sub\n      0x1f\n      and\n      dup3\n      add\n      swap2\n    tag_168:\n      pop\n      pop\n      pop\n      pop\n      pop\n      swap1\n      dup1\n      0x05\n      add\n      dup1\n      sload\n      tag_171\n      swap1\n      tag_52\n      jump\t// in\n    tag_171:\n      dup1\n      0x1f\n      add\n      0x20\n      dup1\n      swap2\n      div\n      mul\n      0x20\n      add\n      mload(0x40)\n      swap1\n      dup2\n      add\n      0x40\n      mstore\n      dup1\n      swap3\n      swap2\n      swap1\n      dup2\n      dup2\n      mstore\n      0x20\n      add\n      dup3\n      dup1\n      sload\n      tag_172\n      swap1\n      tag_52\n      jump\t// in\n    tag_172:\n      dup1\n      iszero\n      tag_173\n      jumpi\n      dup1\n      0x1f\n      lt\n      tag_174\n      jumpi\n      0x0100\n      dup1\n      dup4\n      sload\n      div\n      mul\n      dup4\n      mstore\n      swap2\n      0x20\n      add\n      swap2\n      jump(tag_173)\n    tag_174:\n      dup3\n      add\n      swap2\n      swap1\n      0x00\n      mstore\n      keccak256(0x00, 0x20)\n      swap1\n    tag_175:\n      dup2\n      sload\n      dup2\n      mstore\n      swap1\n      0x01\n      add\n      swap1\n      0x20\n      add\n      dup1\n      dup4\n      gt\n      tag_175\n      jumpi\n      dup3\n      swap1\n      sub\n      0x1f\n      and\n      dup3\n      add\n      swap2\n    tag_173:\n      pop\n      pop\n      pop\n      pop\n      pop\n      swap1\n      dup1\n      0x06\n      add\n      dup1\n      sload\n      tag_176\n      swap1\n      tag_52\n      jump\t// in\n    tag_176:\n      dup1\n      0x1f\n      add\n      0x20\n      dup1\n      swap2\n      div\n      mul\n      0x20\n      add\n      mload(0x40)\n      swap1\n      dup2\n      add\n      0x40\n      mstore\n      dup1\n      swap3\n      swap2\n      swap1\n      dup2\n      dup2\n      mstore\n      0x20\n      add\n      dup3\n      dup1\n      sload\n      tag_177\n      swap1\n      tag_52\n      jump\t// in\n    tag_177:\n      dup1\n      iszero\n      tag_178\n      jumpi\n      dup1\n      0x1f\n      lt\n      tag_179\n      jumpi\n      0x0100\n      dup1\n      dup4\n      sload\n      div\n      mul\n      dup4\n      mstore\n      swap2\n      0x20\n      add\n      swap2\n      jump(tag_178)\n    tag_179:\n      dup3\n      add\n      swap2\n      swap1\n      0x00\n      mstore\n      keccak256(0x00, 0x20)\n      swap1\n    tag_180:\n      dup2\n      sload\n      dup2\n      mstore\n      swap1\n      0x01\n      add\n      swap1\n      0x20\n      add\n      dup1\n      dup4\n      gt\n      tag_180\n      jumpi\n      dup3\n      swap1\n      sub\n      0x1f\n      and\n      dup3\n      add\n      swap2\n    tag_178:\n      pop\n      pop\n      pop\n      pop\n      pop\n      swap1\n      dup1\n      0x07\n      add\n      dup1\n      sload\n      tag_181\n      swap1\n      tag_52\n      jump\t// in\n    tag_181:\n      dup1\n      0x1f\n      add\n      0x20\n      dup1\n      swap2\n      div\n      mul\n      0x20\n      add\n      mload(0x40)\n      swap1\n      dup2\n      add\n      0x40\n      mstore\n      dup1\n      swap3\n      swap2\n      swap1\n      dup2\n      dup2\n      mstore\n      0x20\n      add\n      dup3\n      dup1\n      sload\n      tag_182\n      swap1\n      tag_52\n      jump\t// in\n    tag_182:\n      dup1\n      iszero\n      tag_183\n      jumpi\n      dup1\n      0x1f\n      lt\n      tag_184\n      jumpi\n      0x0100\n      dup1\n      dup4\n      sload\n      div\n      mul\n      dup4\n      mstore\n      swap2\n      0x20\n      add\n      swap2\n      jump(tag_183)\n    tag_184:\n      dup3\n      add\n      swap2\n      swap1\n      0x00\n      mstore\n      keccak256(0x00, 0x20)\n      swap1\n    tag_185:\n      dup2\n      sload\n      dup2\n      mstore\n      swap1\n      0x01\n      add\n      swap1\n      0x20\n      add\n      dup1\n      dup4\n      gt\n      tag_185\n      jumpi\n      dup3\n      swap1\n      sub\n      0x1f\n      and\n      dup3\n      add\n      swap2\n    tag_183:\n      pop\n      pop\n      pop\n      pop\n      pop\n      swap1\n      dup1\n      0x08\n      add\n      sload\n      swap1\n      pop\n      dup10\n      jump\t// out\n        /* \"contracts/TransactionContract28April.sol\":1017:1872  function addTransaction(... */\n    tag_32:\n        /* \"contracts/TransactionContract28April.sol\":1317:1333  transactionCount */\n      0x01\n      0x00\n        /* \"contracts/TransactionContract28April.sol\":1317:1335  transactionCount++ */\n      dup2\n      sload\n      dup1\n      swap3\n      swap2\n      swap1\n      tag_187\n      swap1\n      tag_97\n      jump\t// in\n    tag_187:\n      swap2\n      swap1\n      pop\n      sstore\n      pop\n        /* \"contracts/TransactionContract28April.sol\":1378:1611  Transaction(... */\n      mload(0x40)\n      dup1\n      0x0120\n      add\n      0x40\n      mstore\n      dup1\n        /* \"contracts/TransactionContract28April.sol\":1403:1419  transactionCount */\n      sload(0x01)\n        /* \"contracts/TransactionContract28April.sol\":1378:1611  Transaction(... */\n      dup2\n      mstore\n      0x20\n      add\n        /* \"contracts/TransactionContract28April.sol\":1433:1449  _transactionCode */\n      dup10\n        /* \"contracts/TransactionContract28April.sol\":1378:1611  Transaction(... */\n      dup2\n      mstore\n      0x20\n      add\n        /* \"contracts/TransactionContract28April.sol\":1463:1468  _from */\n      dup9\n        /* \"contracts/TransactionContract28April.sol\":1378:1611  Transaction(... */\n      dup2\n      mstore\n      0x20\n      add\n        /* \"contracts/TransactionContract28April.sol\":1482:1489  _fromId */\n      dup8\n        /* \"contracts/TransactionContract28April.sol\":1378:1611  Transaction(... */\n      dup2\n      mstore\n      0x20\n      add\n        /* \"contracts/TransactionContract28April.sol\":1503:1506  _to */\n      dup7\n        /* \"contracts/TransactionContract28April.sol\":1378:1611  Transaction(... */\n      dup2\n      mstore\n      0x20\n      add\n        /* \"contracts/TransactionContract28April.sol\":1520:1525  _toId */\n      dup6\n        /* \"contracts/TransactionContract28April.sol\":1378:1611  Transaction(... */\n      dup2\n      mstore\n      0x20\n      add\n        /* \"contracts/TransactionContract28April.sol\":1539:1549  _orderType */\n      dup5\n        /* \"contracts/TransactionContract28April.sol\":1378:1611  Transaction(... */\n      dup2\n      mstore\n      0x20\n      add\n        /* \"contracts/TransactionContract28April.sol\":1563:1577  _paymentStatus */\n      dup4\n        /* \"contracts/TransactionContract28April.sol\":1378:1611  Transaction(... */\n      dup2\n      mstore\n      0x20\n      add\n        /* \"contracts/TransactionContract28April.sol\":1591:1601  _createdAt */\n      dup3\n        /* \"contracts/TransactionContract28April.sol\":1378:1611  Transaction(... */\n      dup2\n      mstore\n      pop\n        /* \"contracts/TransactionContract28April.sol\":1345:1357  transactions */\n      0x00\n        /* \"contracts/TransactionContract28April.sol\":1345:1375  transactions[transactionCount] */\n      dup1\n        /* \"contracts/TransactionContract28April.sol\":1358:1374  transactionCount */\n      sload(0x01)\n        /* \"contracts/TransactionContract28April.sol\":1345:1375  transactions[transactionCount] */\n      dup2\n      mstore\n      0x20\n      add\n      swap1\n      dup2\n      mstore\n      0x20\n      add\n      0x00\n      keccak256\n        /* \"contracts/TransactionContract28April.sol\":1345:1611  transactions[transactionCount] = Transaction(... */\n      0x00\n      dup3\n      add\n      mload\n      dup2\n      0x00\n      add\n      sstore\n      0x20\n      dup3\n      add\n      mload\n      dup2\n      0x01\n      add\n      swap1\n      dup2\n      tag_188\n      swap2\n      swap1\n      tag_189\n      jump\t// in\n    tag_188:\n      pop\n      0x40\n      dup3\n      add\n      mload\n      dup2\n      0x02\n      add\n      swap1\n      dup2\n      tag_190\n      swap2\n      swap1\n      tag_189\n      jump\t// in\n    tag_190:\n      pop\n      0x60\n      dup3\n      add\n      mload\n      dup2\n      0x03\n      add\n      swap1\n      dup2\n      tag_191\n      swap2\n      swap1\n      tag_189\n      jump\t// in\n    tag_191:\n      pop\n      0x80\n      dup3\n      add\n      mload\n      dup2\n      0x04\n      add\n      swap1\n      dup2\n      tag_192\n      swap2\n      swap1\n      tag_189\n      jump\t// in\n    tag_192:\n      pop\n      0xa0\n      dup3\n      add\n      mload\n      dup2\n      0x05\n      add\n      swap1\n      dup2\n      tag_193\n      swap2\n      swap1\n      tag_189\n      jump\t// in\n    tag_193:\n      pop\n      0xc0\n      dup3\n      add\n      mload\n      dup2\n      0x06\n      add\n      swap1\n      dup2\n      tag_194\n      swap2\n      swap1\n      tag_189\n      jump\t// in\n    tag_194:\n      pop\n      0xe0\n      dup3\n      add\n      mload\n      dup2\n      0x07\n      add\n      swap1\n      dup2\n      tag_195\n      swap2\n      swap1\n      tag_189\n      jump\t// in\n    tag_195:\n      pop\n      0x0100\n      dup3\n      add\n      mload\n      dup2\n      0x08\n      add\n      sstore\n      swap1\n      pop\n      pop\n        /* \"contracts/TransactionContract28April.sol\":1657:1673  transactionCount */\n      sload(0x01)\n        /* \"contracts/TransactionContract28April.sol\":1627:1865  TransactionAdded(... */\n      0x07b4968f6fa44d4c825736654173422261c8568a6c3da8a5b336270401bd3c8b\n        /* \"contracts/TransactionContract28April.sol\":1687:1703  _transactionCode */\n      dup10\n        /* \"contracts/TransactionContract28April.sol\":1717:1722  _from */\n      dup10\n        /* \"contracts/TransactionContract28April.sol\":1736:1743  _fromId */\n      dup10\n        /* \"contracts/TransactionContract28April.sol\":1757:1760  _to */\n      dup10\n        /* \"contracts/TransactionContract28April.sol\":1774:1779  _toId */\n      dup10\n        /* \"contracts/TransactionContract28April.sol\":1793:1803  _orderType */\n      dup10\n        /* \"contracts/TransactionContract28April.sol\":1817:1831  _paymentStatus */\n      dup10\n        /* \"contracts/TransactionContract28April.sol\":1845:1855  _createdAt */\n      dup10\n        /* \"contracts/TransactionContract28April.sol\":1627:1865  TransactionAdded(... */\n      mload(0x40)\n      tag_196\n      swap9\n      swap8\n      swap7\n      swap6\n      swap5\n      swap4\n      swap3\n      swap2\n      swap1\n      tag_197\n      jump\t// in\n    tag_196:\n      mload(0x40)\n      dup1\n      swap2\n      sub\n      swap1\n      log2\n        /* \"contracts/TransactionContract28April.sol\":1017:1872  function addTransaction(... */\n      pop\n      pop\n      pop\n      pop\n      pop\n      pop\n      pop\n      pop\n      jump\t// out\n        /* \"contracts/TransactionContract28April.sol\":2505:2835  function getAllTransaction() public view returns (Transaction[] memory) {... */\n    tag_34:\n        /* \"contracts/TransactionContract28April.sol\":2555:2575  Transaction[] memory */\n      0x60\n        /* \"contracts/TransactionContract28April.sol\":2587:2621  Transaction[] memory _transactions */\n      0x00\n        /* \"contracts/TransactionContract28April.sol\":2655:2671  transactionCount */\n      sload(0x01)\n        /* \"contracts/TransactionContract28April.sol\":2624:2681  new Transaction[](... */\n      0xffffffffffffffff\n      dup2\n      gt\n      iszero\n      tag_199\n      jumpi\n      tag_200\n      tag_101\n      jump\t// in\n    tag_200:\n    tag_199:\n      mload(0x40)\n      swap1\n      dup1\n      dup3\n      mstore\n      dup1\n      0x20\n      mul\n      0x20\n      add\n      dup3\n      add\n      0x40\n      mstore\n      dup1\n      iszero\n      tag_201\n      jumpi\n      dup2\n      0x20\n      add\n    tag_202:\n      tag_203\n      tag_49\n      jump\t// in\n    tag_203:\n      dup2\n      mstore\n      0x20\n      add\n      swap1\n      0x01\n      swap1\n      sub\n      swap1\n      dup2\n      tag_202\n      jumpi\n      swap1\n      pop\n    tag_201:\n      pop\n        /* \"contracts/TransactionContract28April.sol\":2587:2681  Transaction[] memory _transactions = new Transaction[](... */\n      swap1\n      pop\n        /* \"contracts/TransactionContract28April.sol\":2696:2702  uint i */\n      0x00\n        /* \"contracts/TransactionContract28April.sol\":2705:2706  1 */\n      0x01\n        /* \"contracts/TransactionContract28April.sol\":2696:2706  uint i = 1 */\n      swap1\n      pop\n        /* \"contracts/TransactionContract28April.sol\":2691:2799  for (uint i = 1; i <= transactionCount; i++) {... */\n    tag_204:\n        /* \"contracts/TransactionContract28April.sol\":2713:2729  transactionCount */\n      sload(0x01)\n        /* \"contracts/TransactionContract28April.sol\":2708:2709  i */\n      dup2\n        /* \"contracts/TransactionContract28April.sol\":2708:2729  i <= transactionCount */\n      gt\n        /* \"contracts/TransactionContract28April.sol\":2691:2799  for (uint i = 1; i <= transactionCount; i++) {... */\n      tag_205\n      jumpi\n        /* \"contracts/TransactionContract28April.sol\":2773:2785  transactions */\n      0x00\n        /* \"contracts/TransactionContract28April.sol\":2773:2788  transactions[i] */\n      dup1\n        /* \"contracts/TransactionContract28April.sol\":2786:2787  i */\n      dup3\n        /* \"contracts/TransactionContract28April.sol\":2773:2788  transactions[i] */\n      dup2\n      mstore\n      0x20\n      add\n      swap1\n      dup2\n      mstore\n      0x20\n      add\n      0x00\n      keccak256\n        /* \"contracts/TransactionContract28April.sol\":2750:2788  _transactions[i - 1] = transactions[i] */\n      mload(0x40)\n      dup1\n      0x0120\n      add\n      0x40\n      mstore\n      swap1\n      dup2\n      0x00\n      dup3\n      add\n      sload\n      dup2\n      mstore\n      0x20\n      add\n      0x01\n      dup3\n      add\n      dup1\n      sload\n      tag_207\n      swap1\n      tag_52\n      jump\t// in\n    tag_207:\n      dup1\n      0x1f\n      add\n      0x20\n      dup1\n      swap2\n      div\n      mul\n      0x20\n      add\n      mload(0x40)\n      swap1\n      dup2\n      add\n      0x40\n      mstore\n      dup1\n      swap3\n      swap2\n      swap1\n      dup2\n      dup2\n      mstore\n      0x20\n      add\n      dup3\n      dup1\n      sload\n      tag_208\n      swap1\n      tag_52\n      jump\t// in\n    tag_208:\n      dup1\n      iszero\n      tag_209\n      jumpi\n      dup1\n      0x1f\n      lt\n      tag_210\n      jumpi\n      0x0100\n      dup1\n      dup4\n      sload\n      div\n      mul\n      dup4\n      mstore\n      swap2\n      0x20\n      add\n      swap2\n      jump(tag_209)\n    tag_210:\n      dup3\n      add\n      swap2\n      swap1\n      0x00\n      mstore\n      keccak256(0x00, 0x20)\n      swap1\n    tag_211:\n      dup2\n      sload\n      dup2\n      mstore\n      swap1\n      0x01\n      add\n      swap1\n      0x20\n      add\n      dup1\n      dup4\n      gt\n      tag_211\n      jumpi\n      dup3\n      swap1\n      sub\n      0x1f\n      and\n      dup3\n      add\n      swap2\n    tag_209:\n      pop\n      pop\n      pop\n      pop\n      pop\n      dup2\n      mstore\n      0x20\n      add\n      0x02\n      dup3\n      add\n      dup1\n      sload\n      tag_212\n      swap1\n      tag_52\n      jump\t// in\n    tag_212:\n      dup1\n      0x1f\n      add\n      0x20\n      dup1\n      swap2\n      div\n      mul\n      0x20\n      add\n      mload(0x40)\n      swap1\n      dup2\n      add\n      0x40\n      mstore\n      dup1\n      swap3\n      swap2\n      swap1\n      dup2\n      dup2\n      mstore\n      0x20\n      add\n      dup3\n      dup1\n      sload\n      tag_213\n      swap1\n      tag_52\n      jump\t// in\n    tag_213:\n      dup1\n      iszero\n      tag_214\n      jumpi\n      dup1\n      0x1f\n      lt\n      tag_215\n      jumpi\n      0x0100\n      dup1\n      dup4\n      sload\n      div\n      mul\n      dup4\n      mstore\n      swap2\n      0x20\n      add\n      swap2\n      jump(tag_214)\n    tag_215:\n      dup3\n      add\n      swap2\n      swap1\n      0x00\n      mstore\n      keccak256(0x00, 0x20)\n      swap1\n    tag_216:\n      dup2\n      sload\n      dup2\n      mstore\n      swap1\n      0x01\n      add\n      swap1\n      0x20\n      add\n      dup1\n      dup4\n      gt\n      tag_216\n      jumpi\n      dup3\n      swap1\n      sub\n      0x1f\n      and\n      dup3\n      add\n      swap2\n    tag_214:\n      pop\n      pop\n      pop\n      pop\n      pop\n      dup2\n      mstore\n      0x20\n      add\n      0x03\n      dup3\n      add\n      dup1\n      sload\n      tag_217\n      swap1\n      tag_52\n      jump\t// in\n    tag_217:\n      dup1\n      0x1f\n      add\n      0x20\n      dup1\n      swap2\n      div\n      mul\n      0x20\n      add\n      mload(0x40)\n      swap1\n      dup2\n      add\n      0x40\n      mstore\n      dup1\n      swap3\n      swap2\n      swap1\n      dup2\n      dup2\n      mstore\n      0x20\n      add\n      dup3\n      dup1\n      sload\n      tag_218\n      swap1\n      tag_52\n      jump\t// in\n    tag_218:\n      dup1\n      iszero\n      tag_219\n      jumpi\n      dup1\n      0x1f\n      lt\n      tag_220\n      jumpi\n      0x0100\n      dup1\n      dup4\n      sload\n      div\n      mul\n      dup4\n      mstore\n      swap2\n      0x20\n      add\n      swap2\n      jump(tag_219)\n    tag_220:\n      dup3\n      add\n      swap2\n      swap1\n      0x00\n      mstore\n      keccak256(0x00, 0x20)\n      swap1\n    tag_221:\n      dup2\n      sload\n      dup2\n      mstore\n      swap1\n      0x01\n      add\n      swap1\n      0x20\n      add\n      dup1\n      dup4\n      gt\n      tag_221\n      jumpi\n      dup3\n      swap1\n      sub\n      0x1f\n      and\n      dup3\n      add\n      swap2\n    tag_219:\n      pop\n      pop\n      pop\n      pop\n      pop\n      dup2\n      mstore\n      0x20\n      add\n      0x04\n      dup3\n      add\n      dup1\n      sload\n      tag_222\n      swap1\n      tag_52\n      jump\t// in\n    tag_222:\n      dup1\n      0x1f\n      add\n      0x20\n      dup1\n      swap2\n      div\n      mul\n      0x20\n      add\n      mload(0x40)\n      swap1\n      dup2\n      add\n      0x40\n      mstore\n      dup1\n      swap3\n      swap2\n      swap1\n      dup2\n      dup2\n      mstore\n      0x20\n      add\n      dup3\n      dup1\n      sload\n      tag_223\n      swap1\n      tag_52\n      jump\t// in\n    tag_223:\n      dup1\n      iszero\n      tag_224\n      jumpi\n      dup1\n      0x1f\n      lt\n      tag_225\n      jumpi\n      0x0100\n      dup1\n      dup4\n      sload\n      div\n      mul\n      dup4\n      mstore\n      swap2\n      0x20\n      add\n      swap2\n      jump(tag_224)\n    tag_225:\n      dup3\n      add\n      swap2\n      swap1\n      0x00\n      mstore\n      keccak256(0x00, 0x20)\n      swap1\n    tag_226:\n      dup2\n      sload\n      dup2\n      mstore\n      swap1\n      0x01\n      add\n      swap1\n      0x20\n      add\n      dup1\n      dup4\n      gt\n      tag_226\n      jumpi\n      dup3\n      swap1\n      sub\n      0x1f\n      and\n      dup3\n      add\n      swap2\n    tag_224:\n      pop\n      pop\n      pop\n      pop\n      pop\n      dup2\n      mstore\n      0x20\n      add\n      0x05\n      dup3\n      add\n      dup1\n      sload\n      tag_227\n      swap1\n      tag_52\n      jump\t// in\n    tag_227:\n      dup1\n      0x1f\n      add\n      0x20\n      dup1\n      swap2\n      div\n      mul\n      0x20\n      add\n      mload(0x40)\n      swap1\n      dup2\n      add\n      0x40\n      mstore\n      dup1\n      swap3\n      swap2\n      swap1\n      dup2\n      dup2\n      mstore\n      0x20\n      add\n      dup3\n      dup1\n      sload\n      tag_228\n      swap1\n      tag_52\n      jump\t// in\n    tag_228:\n      dup1\n      iszero\n      tag_229\n      jumpi\n      dup1\n      0x1f\n      lt\n      tag_230\n      jumpi\n      0x0100\n      dup1\n      dup4\n      sload\n      div\n      mul\n      dup4\n      mstore\n      swap2\n      0x20\n      add\n      swap2\n      jump(tag_229)\n    tag_230:\n      dup3\n      add\n      swap2\n      swap1\n      0x00\n      mstore\n      keccak256(0x00, 0x20)\n      swap1\n    tag_231:\n      dup2\n      sload\n      dup2\n      mstore\n      swap1\n      0x01\n      add\n      swap1\n      0x20\n      add\n      dup1\n      dup4\n      gt\n      tag_231\n      jumpi\n      dup3\n      swap1\n      sub\n      0x1f\n      and\n      dup3\n      add\n      swap2\n    tag_229:\n      pop\n      pop\n      pop\n      pop\n      pop\n      dup2\n      mstore\n      0x20\n      add\n      0x06\n      dup3\n      add\n      dup1\n      sload\n      tag_232\n      swap1\n      tag_52\n      jump\t// in\n    tag_232:\n      dup1\n      0x1f\n      add\n      0x20\n      dup1\n      swap2\n      div\n      mul\n      0x20\n      add\n      mload(0x40)\n      swap1\n      dup2\n      add\n      0x40\n      mstore\n      dup1\n      swap3\n      swap2\n      swap1\n      dup2\n      dup2\n      mstore\n      0x20\n      add\n      dup3\n      dup1\n      sload\n      tag_233\n      swap1\n      tag_52\n      jump\t// in\n    tag_233:\n      dup1\n      iszero\n      tag_234\n      jumpi\n      dup1\n      0x1f\n      lt\n      tag_235\n      jumpi\n      0x0100\n      dup1\n      dup4\n      sload\n      div\n      mul\n      dup4\n      mstore\n      swap2\n      0x20\n      add\n      swap2\n      jump(tag_234)\n    tag_235:\n      dup3\n      add\n      swap2\n      swap1\n      0x00\n      mstore\n      keccak256(0x00, 0x20)\n      swap1\n    tag_236:\n      dup2\n      sload\n      dup2\n      mstore\n      swap1\n      0x01\n      add\n      swap1\n      0x20\n      add\n      dup1\n      dup4\n      gt\n      tag_236\n      jumpi\n      dup3\n      swap1\n      sub\n      0x1f\n      and\n      dup3\n      add\n      swap2\n    tag_234:\n      pop\n      pop\n      pop\n      pop\n      pop\n      dup2\n      mstore\n      0x20\n      add\n      0x07\n      dup3\n      add\n      dup1\n      sload\n      tag_237\n      swap1\n      tag_52\n      jump\t// in\n    tag_237:\n      dup1\n      0x1f\n      add\n      0x20\n      dup1\n      swap2\n      div\n      mul\n      0x20\n      add\n      mload(0x40)\n      swap1\n      dup2\n      add\n      0x40\n      mstore\n      dup1\n      swap3\n      swap2\n      swap1\n      dup2\n      dup2\n      mstore\n      0x20\n      add\n      dup3\n      dup1\n      sload\n      tag_238\n      swap1\n      tag_52\n      jump\t// in\n    tag_238:\n      dup1\n      iszero\n      tag_239\n      jumpi\n      dup1\n      0x1f\n      lt\n      tag_240\n      jumpi\n      0x0100\n      dup1\n      dup4\n      sload\n      div\n      mul\n      dup4\n      mstore\n      swap2\n      0x20\n      add\n      swap2\n      jump(tag_239)\n    tag_240:\n      dup3\n      add\n      swap2\n      swap1\n      0x00\n      mstore\n      keccak256(0x00, 0x20)\n      swap1\n    tag_241:\n      dup2\n      sload\n      dup2\n      mstore\n      swap1\n      0x01\n      add\n      swap1\n      0x20\n      add\n      dup1\n      dup4\n      gt\n      tag_241\n      jumpi\n      dup3\n      swap1\n      sub\n      0x1f\n      and\n      dup3\n      add\n      swap2\n    tag_239:\n      pop\n      pop\n      pop\n      pop\n      pop\n      dup2\n      mstore\n      0x20\n      add\n      0x08\n      dup3\n      add\n      sload\n      dup2\n      mstore\n      pop\n      pop\n        /* \"contracts/TransactionContract28April.sol\":2750:2763  _transactions */\n      dup3\n        /* \"contracts/TransactionContract28April.sol\":2768:2769  1 */\n      0x01\n        /* \"contracts/TransactionContract28April.sol\":2764:2765  i */\n      dup4\n        /* \"contracts/TransactionContract28April.sol\":2764:2769  i - 1 */\n      tag_242\n      swap2\n      swap1\n      tag_243\n      jump\t// in\n    tag_242:\n        /* \"contracts/TransactionContract28April.sol\":2750:2770  _transactions[i - 1] */\n      dup2\n      mload\n      dup2\n      lt\n      tag_244\n      jumpi\n      tag_245\n      tag_148\n      jump\t// in\n    tag_245:\n    tag_244:\n      0x20\n      mul\n      0x20\n      add\n      add\n        /* \"contracts/TransactionContract28April.sol\":2750:2788  _transactions[i - 1] = transactions[i] */\n      dup2\n      swap1\n      mstore\n      pop\n        /* \"contracts/TransactionContract28April.sol\":2731:2734  i++ */\n      dup1\n      dup1\n      tag_246\n      swap1\n      tag_97\n      jump\t// in\n    tag_246:\n      swap2\n      pop\n      pop\n        /* \"contracts/TransactionContract28April.sol\":2691:2799  for (uint i = 1; i <= transactionCount; i++) {... */\n      jump(tag_204)\n    tag_205:\n      pop\n        /* \"contracts/TransactionContract28April.sol\":2815:2828  _transactions */\n      dup1\n        /* \"contracts/TransactionContract28April.sol\":2808:2828  return _transactions */\n      swap2\n      pop\n      pop\n        /* \"contracts/TransactionContract28April.sol\":2505:2835  function getAllTransaction() public view returns (Transaction[] memory) {... */\n      swap1\n      jump\t// out\n        /* \"contracts/TransactionContract28April.sol\":982:1010  uint public transactionCount */\n    tag_37:\n      sload(0x01)\n      dup2\n      jump\t// out\n        /* \"contracts/TransactionContract28April.sol\":2036:2499  function updatePaymentStatus(... */\n    tag_43:\n        /* \"contracts/TransactionContract28April.sol\":2219:2235  transactionCount */\n      sload(0x01)\n        /* \"contracts/TransactionContract28April.sol\":2201:2215  _transactionId */\n      dup4\n        /* \"contracts/TransactionContract28April.sol\":2201:2235  _transactionId <= transactionCount */\n      gt\n      iszero\n        /* \"contracts/TransactionContract28April.sol\":2180:2287  require(... */\n      tag_248\n      jumpi\n      mload(0x40)\n      0x08c379a000000000000000000000000000000000000000000000000000000000\n      dup2\n      mstore\n      0x04\n      add\n      tag_249\n      swap1\n      tag_250\n      jump\t// in\n    tag_249:\n      mload(0x40)\n      dup1\n      swap2\n      sub\n      swap1\n      revert\n    tag_248:\n        /* \"contracts/TransactionContract28April.sol\":2298:2329  Transaction storage transaction */\n      0x00\n        /* \"contracts/TransactionContract28April.sol\":2332:2344  transactions */\n      dup1\n        /* \"contracts/TransactionContract28April.sol\":2332:2360  transactions[_transactionId] */\n      0x00\n        /* \"contracts/TransactionContract28April.sol\":2345:2359  _transactionId */\n      dup6\n        /* \"contracts/TransactionContract28April.sol\":2332:2360  transactions[_transactionId] */\n      dup2\n      mstore\n      0x20\n      add\n      swap1\n      dup2\n      mstore\n      0x20\n      add\n      0x00\n      keccak256\n        /* \"contracts/TransactionContract28April.sol\":2298:2360  Transaction storage transaction = transactions[_transactionId] */\n      swap1\n      pop\n        /* \"contracts/TransactionContract28April.sol\":2398:2412  _paymentStatus */\n      dup3\n        /* \"contracts/TransactionContract28April.sol\":2370:2381  transaction */\n      dup2\n        /* \"contracts/TransactionContract28April.sol\":2370:2395  transaction.paymentStatus */\n      0x07\n      add\n        /* \"contracts/TransactionContract28April.sol\":2370:2412  transaction.paymentStatus = _paymentStatus */\n      swap1\n      dup2\n      tag_251\n      swap2\n      swap1\n      tag_189\n      jump\t// in\n    tag_251:\n      pop\n        /* \"contracts/TransactionContract28April.sol\":2449:2463  _transactionId */\n      dup4\n        /* \"contracts/TransactionContract28April.sol\":2428:2492  PaymentStatusUpdated(_transactionId, _paymentStatus, _updatedAt) */\n      0xcbc92fe73220c7cc1450ff1070f1becf254013a1cd6a9d95a4b7c2055b3e9ac9\n        /* \"contracts/TransactionContract28April.sol\":2465:2479  _paymentStatus */\n      dup5\n        /* \"contracts/TransactionContract28April.sol\":2481:2491  _updatedAt */\n      dup5\n        /* \"contracts/TransactionContract28April.sol\":2428:2492  PaymentStatusUpdated(_transactionId, _paymentStatus, _updatedAt) */\n      mload(0x40)\n      tag_252\n      swap3\n      swap2\n      swap1\n      tag_253\n      jump\t// in\n    tag_252:\n      mload(0x40)\n      dup1\n      swap2\n      sub\n      swap1\n      log2\n        /* \"contracts/TransactionContract28April.sol\":2170:2499  {... */\n      pop\n        /* \"contracts/TransactionContract28April.sol\":2036:2499  function updatePaymentStatus(... */\n      pop\n      pop\n      pop\n      jump\t// out\n        /* \"contracts/TransactionContract28April.sol\":2841:3679  function getTransactionByBuyerId(... */\n    tag_46:\n        /* \"contracts/TransactionContract28April.sol\":2933:2953  Transaction[] memory */\n      0x60\n        /* \"contracts/TransactionContract28April.sol\":2965:2975  uint count */\n      0x00\n        /* \"contracts/TransactionContract28April.sol\":2994:3000  uint i */\n      dup1\n        /* \"contracts/TransactionContract28April.sol\":3003:3004  1 */\n      0x01\n        /* \"contracts/TransactionContract28April.sol\":2994:3004  uint i = 1 */\n      swap1\n      pop\n        /* \"contracts/TransactionContract28April.sol\":2989:3242  for (uint i = 1; i <= transactionCount; i++) {... */\n    tag_255:\n        /* \"contracts/TransactionContract28April.sol\":3011:3027  transactionCount */\n      sload(0x01)\n        /* \"contracts/TransactionContract28April.sol\":3006:3007  i */\n      dup2\n        /* \"contracts/TransactionContract28April.sol\":3006:3027  i <= transactionCount */\n      gt\n        /* \"contracts/TransactionContract28April.sol\":2989:3242  for (uint i = 1; i <= transactionCount; i++) {... */\n      tag_256\n      jumpi\n        /* \"contracts/TransactionContract28April.sol\":3167:3175  _buyerId */\n      dup4\n        /* \"contracts/TransactionContract28April.sol\":3150:3176  abi.encodePacked(_buyerId) */\n      add(0x20, mload(0x40))\n      tag_258\n      swap2\n      swap1\n      tag_92\n      jump\t// in\n    tag_258:\n      mload(0x40)\n      0x20\n      dup2\n      dup4\n      sub\n      sub\n      dup2\n      mstore\n      swap1\n      0x40\n      mstore\n        /* \"contracts/TransactionContract28April.sol\":3140:3177  keccak256(abi.encodePacked(_buyerId)) */\n      dup1\n      mload\n      swap1\n      0x20\n      add\n      keccak256\n        /* \"contracts/TransactionContract28April.sol\":3096:3108  transactions */\n      0x00\n        /* \"contracts/TransactionContract28April.sol\":3096:3111  transactions[i] */\n      dup1\n        /* \"contracts/TransactionContract28April.sol\":3109:3110  i */\n      dup4\n        /* \"contracts/TransactionContract28April.sol\":3096:3111  transactions[i] */\n      dup2\n      mstore\n      0x20\n      add\n      swap1\n      dup2\n      mstore\n      0x20\n      add\n      0x00\n      keccak256\n        /* \"contracts/TransactionContract28April.sol\":3096:3118  transactions[i].fromId */\n      0x03\n      add\n        /* \"contracts/TransactionContract28April.sol\":3079:3119  abi.encodePacked(transactions[i].fromId) */\n      add(0x20, mload(0x40))\n      tag_259\n      swap2\n      swap1\n      tag_94\n      jump\t// in\n    tag_259:\n      mload(0x40)\n      0x20\n      dup2\n      dup4\n      sub\n      sub\n      dup2\n      mstore\n      swap1\n      0x40\n      mstore\n        /* \"contracts/TransactionContract28April.sol\":3069:3120  keccak256(abi.encodePacked(transactions[i].fromId)) */\n      dup1\n      mload\n      swap1\n      0x20\n      add\n      keccak256\n        /* \"contracts/TransactionContract28April.sol\":3069:3177  keccak256(abi.encodePacked(transactions[i].fromId)) ==... */\n      sub\n        /* \"contracts/TransactionContract28April.sol\":3048:3232  if (... */\n      tag_260\n      jumpi\n        /* \"contracts/TransactionContract28April.sol\":3210:3217  count++ */\n      dup2\n      dup1\n      tag_261\n      swap1\n      tag_97\n      jump\t// in\n    tag_261:\n      swap3\n      pop\n      pop\n        /* \"contracts/TransactionContract28April.sol\":3048:3232  if (... */\n    tag_260:\n        /* \"contracts/TransactionContract28April.sol\":3029:3032  i++ */\n      dup1\n      dup1\n      tag_262\n      swap1\n      tag_97\n      jump\t// in\n    tag_262:\n      swap2\n      pop\n      pop\n        /* \"contracts/TransactionContract28April.sol\":2989:3242  for (uint i = 1; i <= transactionCount; i++) {... */\n      jump(tag_255)\n    tag_256:\n      pop\n        /* \"contracts/TransactionContract28April.sol\":3251:3285  Transaction[] memory _transactions */\n      0x00\n        /* \"contracts/TransactionContract28April.sol\":3306:3311  count */\n      dup2\n        /* \"contracts/TransactionContract28April.sol\":3288:3312  new Transaction[](count) */\n      0xffffffffffffffff\n      dup2\n      gt\n      iszero\n      tag_263\n      jumpi\n      tag_264\n      tag_101\n      jump\t// in\n    tag_264:\n    tag_263:\n      mload(0x40)\n      swap1\n      dup1\n      dup3\n      mstore\n      dup1\n      0x20\n      mul\n      0x20\n      add\n      dup3\n      add\n      0x40\n      mstore\n      dup1\n      iszero\n      tag_265\n      jumpi\n      dup2\n      0x20\n      add\n    tag_266:\n      tag_267\n      tag_49\n      jump\t// in\n    tag_267:\n      dup2\n      mstore\n      0x20\n      add\n      swap1\n      0x01\n      swap1\n      sub\n      swap1\n      dup2\n      tag_266\n      jumpi\n      swap1\n      pop\n    tag_265:\n      pop\n        /* \"contracts/TransactionContract28April.sol\":3251:3312  Transaction[] memory _transactions = new Transaction[](count) */\n      swap1\n      pop\n        /* \"contracts/TransactionContract28April.sol\":3322:3328  uint j */\n      0x00\n        /* \"contracts/TransactionContract28April.sol\":3347:3353  uint i */\n      dup1\n        /* \"contracts/TransactionContract28April.sol\":3356:3357  1 */\n      0x01\n        /* \"contracts/TransactionContract28April.sol\":3347:3357  uint i = 1 */\n      swap1\n      pop\n        /* \"contracts/TransactionContract28April.sol\":3342:3643  for (uint i = 1; i <= transactionCount; i++) {... */\n    tag_268:\n        /* \"contracts/TransactionContract28April.sol\":3364:3380  transactionCount */\n      sload(0x01)\n        /* \"contracts/TransactionContract28April.sol\":3359:3360  i */\n      dup2\n        /* \"contracts/TransactionContract28April.sol\":3359:3380  i <= transactionCount */\n      gt\n        /* \"contracts/TransactionContract28April.sol\":3342:3643  for (uint i = 1; i <= transactionCount; i++) {... */\n      tag_269\n      jumpi\n        /* \"contracts/TransactionContract28April.sol\":3520:3528  _buyerId */\n      dup6\n        /* \"contracts/TransactionContract28April.sol\":3503:3529  abi.encodePacked(_buyerId) */\n      add(0x20, mload(0x40))\n      tag_271\n      swap2\n      swap1\n      tag_92\n      jump\t// in\n    tag_271:\n      mload(0x40)\n      0x20\n      dup2\n      dup4\n      sub\n      sub\n      dup2\n      mstore\n      swap1\n      0x40\n      mstore\n        /* \"contracts/TransactionContract28April.sol\":3493:3530  keccak256(abi.encodePacked(_buyerId)) */\n      dup1\n      mload\n      swap1\n      0x20\n      add\n      keccak256\n        /* \"contracts/TransactionContract28April.sol\":3449:3461  transactions */\n      0x00\n        /* \"contracts/TransactionContract28April.sol\":3449:3464  transactions[i] */\n      dup1\n        /* \"contracts/TransactionContract28April.sol\":3462:3463  i */\n      dup4\n        /* \"contracts/TransactionContract28April.sol\":3449:3464  transactions[i] */\n      dup2\n      mstore\n      0x20\n      add\n      swap1\n      dup2\n      mstore\n      0x20\n      add\n      0x00\n      keccak256\n        /* \"contracts/TransactionContract28April.sol\":3449:3471  transactions[i].fromId */\n      0x03\n      add\n        /* \"contracts/TransactionContract28April.sol\":3432:3472  abi.encodePacked(transactions[i].fromId) */\n      add(0x20, mload(0x40))\n      tag_272\n      swap2\n      swap1\n      tag_94\n      jump\t// in\n    tag_272:\n      mload(0x40)\n      0x20\n      dup2\n      dup4\n      sub\n      sub\n      dup2\n      mstore\n      swap1\n      0x40\n      mstore\n        /* \"contracts/TransactionContract28April.sol\":3422:3473  keccak256(abi.encodePacked(transactions[i].fromId)) */\n      dup1\n      mload\n      swap1\n      0x20\n      add\n      keccak256\n        /* \"contracts/TransactionContract28April.sol\":3422:3530  keccak256(abi.encodePacked(transactions[i].fromId)) ==... */\n      sub\n        /* \"contracts/TransactionContract28April.sol\":3401:3633  if (... */\n      tag_273\n      jumpi\n        /* \"contracts/TransactionContract28April.sol\":3582:3594  transactions */\n      0x00\n        /* \"contracts/TransactionContract28April.sol\":3582:3597  transactions[i] */\n      dup1\n        /* \"contracts/TransactionContract28April.sol\":3595:3596  i */\n      dup3\n        /* \"contracts/TransactionContract28April.sol\":3582:3597  transactions[i] */\n      dup2\n      mstore\n      0x20\n      add\n      swap1\n      dup2\n      mstore\n      0x20\n      add\n      0x00\n      keccak256\n        /* \"contracts/TransactionContract28April.sol\":3563:3597  _transactions[j] = transactions[i] */\n      mload(0x40)\n      dup1\n      0x0120\n      add\n      0x40\n      mstore\n      swap1\n      dup2\n      0x00\n      dup3\n      add\n      sload\n      dup2\n      mstore\n      0x20\n      add\n      0x01\n      dup3\n      add\n      dup1\n      sload\n      tag_274\n      swap1\n      tag_52\n      jump\t// in\n    tag_274:\n      dup1\n      0x1f\n      add\n      0x20\n      dup1\n      swap2\n      div\n      mul\n      0x20\n      add\n      mload(0x40)\n      swap1\n      dup2\n      add\n      0x40\n      mstore\n      dup1\n      swap3\n      swap2\n      swap1\n      dup2\n      dup2\n      mstore\n      0x20\n      add\n      dup3\n      dup1\n      sload\n      tag_275\n      swap1\n      tag_52\n      jump\t// in\n    tag_275:\n      dup1\n      iszero\n      tag_276\n      jumpi\n      dup1\n      0x1f\n      lt\n      tag_277\n      jumpi\n      0x0100\n      dup1\n      dup4\n      sload\n      div\n      mul\n      dup4\n      mstore\n      swap2\n      0x20\n      add\n      swap2\n      jump(tag_276)\n    tag_277:\n      dup3\n      add\n      swap2\n      swap1\n      0x00\n      mstore\n      keccak256(0x00, 0x20)\n      swap1\n    tag_278:\n      dup2\n      sload\n      dup2\n      mstore\n      swap1\n      0x01\n      add\n      swap1\n      0x20\n      add\n      dup1\n      dup4\n      gt\n      tag_278\n      jumpi\n      dup3\n      swap1\n      sub\n      0x1f\n      and\n      dup3\n      add\n      swap2\n    tag_276:\n      pop\n      pop\n      pop\n      pop\n      pop\n      dup2\n      mstore\n      0x20\n      add\n      0x02\n      dup3\n      add\n      dup1\n      sload\n      tag_279\n      swap1\n      tag_52\n      jump\t// in\n    tag_279:\n      dup1\n      0x1f\n      add\n      0x20\n      dup1\n      swap2\n      div\n      mul\n      0x20\n      add\n      mload(0x40)\n      swap1\n      dup2\n      add\n      0x40\n      mstore\n      dup1\n      swap3\n      swap2\n      swap1\n      dup2\n      dup2\n      mstore\n      0x20\n      add\n      dup3\n      dup1\n      sload\n      tag_280\n      swap1\n      tag_52\n      jump\t// in\n    tag_280:\n      dup1\n      iszero\n      tag_281\n      jumpi\n      dup1\n      0x1f\n      lt\n      tag_282\n      jumpi\n      0x0100\n      dup1\n      dup4\n      sload\n      div\n      mul\n      dup4\n      mstore\n      swap2\n      0x20\n      add\n      swap2\n      jump(tag_281)\n    tag_282:\n      dup3\n      add\n      swap2\n      swap1\n      0x00\n      mstore\n      keccak256(0x00, 0x20)\n      swap1\n    tag_283:\n      dup2\n      sload\n      dup2\n      mstore\n      swap1\n      0x01\n      add\n      swap1\n      0x20\n      add\n      dup1\n      dup4\n      gt\n      tag_283\n      jumpi\n      dup3\n      swap1\n      sub\n      0x1f\n      and\n      dup3\n      add\n      swap2\n    tag_281:\n      pop\n      pop\n      pop\n      pop\n      pop\n      dup2\n      mstore\n      0x20\n      add\n      0x03\n      dup3\n      add\n      dup1\n      sload\n      tag_284\n      swap1\n      tag_52\n      jump\t// in\n    tag_284:\n      dup1\n      0x1f\n      add\n      0x20\n      dup1\n      swap2\n      div\n      mul\n      0x20\n      add\n      mload(0x40)\n      swap1\n      dup2\n      add\n      0x40\n      mstore\n      dup1\n      swap3\n      swap2\n      swap1\n      dup2\n      dup2\n      mstore\n      0x20\n      add\n      dup3\n      dup1\n      sload\n      tag_285\n      swap1\n      tag_52\n      jump\t// in\n    tag_285:\n      dup1\n      iszero\n      tag_286\n      jumpi\n      dup1\n      0x1f\n      lt\n      tag_287\n      jumpi\n      0x0100\n      dup1\n      dup4\n      sload\n      div\n      mul\n      dup4\n      mstore\n      swap2\n      0x20\n      add\n      swap2\n      jump(tag_286)\n    tag_287:\n      dup3\n      add\n      swap2\n      swap1\n      0x00\n      mstore\n      keccak256(0x00, 0x20)\n      swap1\n    tag_288:\n      dup2\n      sload\n      dup2\n      mstore\n      swap1\n      0x01\n      add\n      swap1\n      0x20\n      add\n      dup1\n      dup4\n      gt\n      tag_288\n      jumpi\n      dup3\n      swap1\n      sub\n      0x1f\n      and\n      dup3\n      add\n      swap2\n    tag_286:\n      pop\n      pop\n      pop\n      pop\n      pop\n      dup2\n      mstore\n      0x20\n      add\n      0x04\n      dup3\n      add\n      dup1\n      sload\n      tag_289\n      swap1\n      tag_52\n      jump\t// in\n    tag_289:\n      dup1\n      0x1f\n      add\n      0x20\n      dup1\n      swap2\n      div\n      mul\n      0x20\n      add\n      mload(0x40)\n      swap1\n      dup2\n      add\n      0x40\n      mstore\n      dup1\n      swap3\n      swap2\n      swap1\n      dup2\n      dup2\n      mstore\n      0x20\n      add\n      dup3\n      dup1\n      sload\n      tag_290\n      swap1\n      tag_52\n      jump\t// in\n    tag_290:\n      dup1\n      iszero\n      tag_291\n      jumpi\n      dup1\n      0x1f\n      lt\n      tag_292\n      jumpi\n      0x0100\n      dup1\n      dup4\n      sload\n      div\n      mul\n      dup4\n      mstore\n      swap2\n      0x20\n      add\n      swap2\n      jump(tag_291)\n    tag_292:\n      dup3\n      add\n      swap2\n      swap1\n      0x00\n      mstore\n      keccak256(0x00, 0x20)\n      swap1\n    tag_293:\n      dup2\n      sload\n      dup2\n      mstore\n      swap1\n      0x01\n      add\n      swap1\n      0x20\n      add\n      dup1\n      dup4\n      gt\n      tag_293\n      jumpi\n      dup3\n      swap1\n      sub\n      0x1f\n      and\n      dup3\n      add\n      swap2\n    tag_291:\n      pop\n      pop\n      pop\n      pop\n      pop\n      dup2\n      mstore\n      0x20\n      add\n      0x05\n      dup3\n      add\n      dup1\n      sload\n      tag_294\n      swap1\n      tag_52\n      jump\t// in\n    tag_294:\n      dup1\n      0x1f\n      add\n      0x20\n      dup1\n      swap2\n      div\n      mul\n      0x20\n      add\n      mload(0x40)\n      swap1\n      dup2\n      add\n      0x40\n      mstore\n      dup1\n      swap3\n      swap2\n      swap1\n      dup2\n      dup2\n      mstore\n      0x20\n      add\n      dup3\n      dup1\n      sload\n      tag_295\n      swap1\n      tag_52\n      jump\t// in\n    tag_295:\n      dup1\n      iszero\n      tag_296\n      jumpi\n      dup1\n      0x1f\n      lt\n      tag_297\n      jumpi\n      0x0100\n      dup1\n      dup4\n      sload\n      div\n      mul\n      dup4\n      mstore\n      swap2\n      0x20\n      add\n      swap2\n      jump(tag_296)\n    tag_297:\n      dup3\n      add\n      swap2\n      swap1\n      0x00\n      mstore\n      keccak256(0x00, 0x20)\n      swap1\n    tag_298:\n      dup2\n      sload\n      dup2\n      mstore\n      swap1\n      0x01\n      add\n      swap1\n      0x20\n      add\n      dup1\n      dup4\n      gt\n      tag_298\n      jumpi\n      dup3\n      swap1\n      sub\n      0x1f\n      and\n      dup3\n      add\n      swap2\n    tag_296:\n      pop\n      pop\n      pop\n      pop\n      pop\n      dup2\n      mstore\n      0x20\n      add\n      0x06\n      dup3\n      add\n      dup1\n      sload\n      tag_299\n      swap1\n      tag_52\n      jump\t// in\n    tag_299:\n      dup1\n      0x1f\n      add\n      0x20\n      dup1\n      swap2\n      div\n      mul\n      0x20\n      add\n      mload(0x40)\n      swap1\n      dup2\n      add\n      0x40\n      mstore\n      dup1\n      swap3\n      swap2\n      swap1\n      dup2\n      dup2\n      mstore\n      0x20\n      add\n      dup3\n      dup1\n      sload\n      tag_300\n      swap1\n      tag_52\n      jump\t// in\n    tag_300:\n      dup1\n      iszero\n      tag_301\n      jumpi\n      dup1\n      0x1f\n      lt\n      tag_302\n      jumpi\n      0x0100\n      dup1\n      dup4\n      sload\n      div\n      mul\n      dup4\n      mstore\n      swap2\n      0x20\n      add\n      swap2\n      jump(tag_301)\n    tag_302:\n      dup3\n      add\n      swap2\n      swap1\n      0x00\n      mstore\n      keccak256(0x00, 0x20)\n      swap1\n    tag_303:\n      dup2\n      sload\n      dup2\n      mstore\n      swap1\n      0x01\n      add\n      swap1\n      0x20\n      add\n      dup1\n      dup4\n      gt\n      tag_303\n      jumpi\n      dup3\n      swap1\n      sub\n      0x1f\n      and\n      dup3\n      add\n      swap2\n    tag_301:\n      pop\n      pop\n      pop\n      pop\n      pop\n      dup2\n      mstore\n      0x20\n      add\n      0x07\n      dup3\n      add\n      dup1\n      sload\n      tag_304\n      swap1\n      tag_52\n      jump\t// in\n    tag_304:\n      dup1\n      0x1f\n      add\n      0x20\n      dup1\n      swap2\n      div\n      mul\n      0x20\n      add\n      mload(0x40)\n      swap1\n      dup2\n      add\n      0x40\n      mstore\n      dup1\n      swap3\n      swap2\n      swap1\n      dup2\n      dup2\n      mstore\n      0x20\n      add\n      dup3\n      dup1\n      sload\n      tag_305\n      swap1\n      tag_52\n      jump\t// in\n    tag_305:\n      dup1\n      iszero\n      tag_306\n      jumpi\n      dup1\n      0x1f\n      lt\n      tag_307\n      jumpi\n      0x0100\n      dup1\n      dup4\n      sload\n      div\n      mul\n      dup4\n      mstore\n      swap2\n      0x20\n      add\n      swap2\n      jump(tag_306)\n    tag_307:\n      dup3\n      add\n      swap2\n      swap1\n      0x00\n      mstore\n      keccak256(0x00, 0x20)\n      swap1\n    tag_308:\n      dup2\n      sload\n      dup2\n      mstore\n      swap1\n      0x01\n      add\n      swap1\n      0x20\n      add\n      dup1\n      dup4\n      gt\n      tag_308\n      jumpi\n      dup3\n      swap1\n      sub\n      0x1f\n      and\n      dup3\n      add\n      swap2\n    tag_306:\n      pop\n      pop\n      pop\n      pop\n      pop\n      dup2\n      mstore\n      0x20\n      add\n      0x08\n      dup3\n      add\n      sload\n      dup2\n      mstore\n      pop\n      pop\n        /* \"contracts/TransactionContract28April.sol\":3563:3576  _transactions */\n      dup4\n        /* \"contracts/TransactionContract28April.sol\":3577:3578  j */\n      dup4\n        /* \"contracts/TransactionContract28April.sol\":3563:3579  _transactions[j] */\n      dup2\n      mload\n      dup2\n      lt\n      tag_309\n      jumpi\n      tag_310\n      tag_148\n      jump\t// in\n    tag_310:\n    tag_309:\n      0x20\n      mul\n      0x20\n      add\n      add\n        /* \"contracts/TransactionContract28April.sol\":3563:3597  _transactions[j] = transactions[i] */\n      dup2\n      swap1\n      mstore\n      pop\n        /* \"contracts/TransactionContract28April.sol\":3615:3618  j++ */\n      dup2\n      dup1\n      tag_311\n      swap1\n      tag_97\n      jump\t// in\n    tag_311:\n      swap3\n      pop\n      pop\n        /* \"contracts/TransactionContract28April.sol\":3401:3633  if (... */\n    tag_273:\n        /* \"contracts/TransactionContract28April.sol\":3382:3385  i++ */\n      dup1\n      dup1\n      tag_312\n      swap1\n      tag_97\n      jump\t// in\n    tag_312:\n      swap2\n      pop\n      pop\n        /* \"contracts/TransactionContract28April.sol\":3342:3643  for (uint i = 1; i <= transactionCount; i++) {... */\n      jump(tag_268)\n    tag_269:\n      pop\n        /* \"contracts/TransactionContract28April.sol\":3659:3672  _transactions */\n      dup2\n        /* \"contracts/TransactionContract28April.sol\":3652:3672  return _transactions */\n      swap4\n      pop\n      pop\n      pop\n      pop\n        /* \"contracts/TransactionContract28April.sol\":2841:3679  function getTransactionByBuyerId(... */\n      swap2\n      swap1\n      pop\n      jump\t// out\n    tag_49:\n      mload(0x40)\n      dup1\n      0x0120\n      add\n      0x40\n      mstore\n      dup1\n      0x00\n      dup2\n      mstore\n      0x20\n      add\n      0x60\n      dup2\n      mstore\n      0x20\n      add\n      0x60\n      dup2\n      mstore\n      0x20\n      add\n      0x60\n      dup2\n      mstore\n      0x20\n      add\n      0x60\n      dup2\n      mstore\n      0x20\n      add\n      0x60\n      dup2\n      mstore\n      0x20\n      add\n      0x60\n      dup2\n      mstore\n      0x20\n      add\n      0x60\n      dup2\n      mstore\n      0x20\n      add\n      0x00\n      dup2\n      mstore\n      pop\n      swap1\n      jump\t// out\n        /* \"#utility.yul\":7:82   */\n    tag_313:\n        /* \"#utility.yul\":40:46   */\n      0x00\n        /* \"#utility.yul\":73:75   */\n      0x40\n        /* \"#utility.yul\":67:76   */\n      mload\n        /* \"#utility.yul\":57:76   */\n      swap1\n      pop\n        /* \"#utility.yul\":7:82   */\n      swap1\n      jump\t// out\n        /* \"#utility.yul\":88:205   */\n    tag_314:\n        /* \"#utility.yul\":197:198   */\n      0x00\n        /* \"#utility.yul\":194:195   */\n      dup1\n        /* \"#utility.yul\":187:199   */\n      revert\n        /* \"#utility.yul\":211:328   */\n    tag_315:\n        /* \"#utility.yul\":320:321   */\n      0x00\n        /* \"#utility.yul\":317:318   */\n      dup1\n        /* \"#utility.yul\":310:322   */\n      revert\n        /* \"#utility.yul\":334:411   */\n    tag_316:\n        /* \"#utility.yul\":371:378   */\n      0x00\n        /* \"#utility.yul\":400:405   */\n      dup2\n        /* \"#utility.yul\":389:405   */\n      swap1\n      pop\n        /* \"#utility.yul\":334:411   */\n      swap2\n      swap1\n      pop\n      jump\t// out\n        /* \"#utility.yul\":417:539   */\n    tag_317:\n        /* \"#utility.yul\":490:514   */\n      tag_372\n        /* \"#utility.yul\":508:513   */\n      dup2\n        /* \"#utility.yul\":490:514   */\n      tag_316\n      jump\t// in\n    tag_372:\n        /* \"#utility.yul\":483:488   */\n      dup2\n        /* \"#utility.yul\":480:515   */\n      eq\n        /* \"#utility.yul\":470:533   */\n      tag_373\n      jumpi\n        /* \"#utility.yul\":529:530   */\n      0x00\n        /* \"#utility.yul\":526:527   */\n      dup1\n        /* \"#utility.yul\":519:531   */\n      revert\n        /* \"#utility.yul\":470:533   */\n    tag_373:\n        /* \"#utility.yul\":417:539   */\n      pop\n      jump\t// out\n        /* \"#utility.yul\":545:684   */\n    tag_318:\n        /* \"#utility.yul\":591:596   */\n      0x00\n        /* \"#utility.yul\":629:635   */\n      dup2\n        /* \"#utility.yul\":616:636   */\n      calldataload\n        /* \"#utility.yul\":607:636   */\n      swap1\n      pop\n        /* \"#utility.yul\":645:678   */\n      tag_375\n        /* \"#utility.yul\":672:677   */\n      dup2\n        /* \"#utility.yul\":645:678   */\n      tag_317\n      jump\t// in\n    tag_375:\n        /* \"#utility.yul\":545:684   */\n      swap3\n      swap2\n      pop\n      pop\n      jump\t// out\n        /* \"#utility.yul\":690:1019   */\n    tag_14:\n        /* \"#utility.yul\":749:755   */\n      0x00\n        /* \"#utility.yul\":798:800   */\n      0x20\n        /* \"#utility.yul\":786:795   */\n      dup3\n        /* \"#utility.yul\":777:784   */\n      dup5\n        /* \"#utility.yul\":773:796   */\n      sub\n        /* \"#utility.yul\":769:801   */\n      slt\n        /* \"#utility.yul\":766:885   */\n      iszero\n      tag_377\n      jumpi\n        /* \"#utility.yul\":804:883   */\n      tag_378\n      tag_314\n      jump\t// in\n    tag_378:\n        /* \"#utility.yul\":766:885   */\n    tag_377:\n        /* \"#utility.yul\":924:925   */\n      0x00\n        /* \"#utility.yul\":949:1002   */\n      tag_379\n        /* \"#utility.yul\":994:1001   */\n      dup5\n        /* \"#utility.yul\":985:991   */\n      dup3\n        /* \"#utility.yul\":974:983   */\n      dup6\n        /* \"#utility.yul\":970:992   */\n      add\n        /* \"#utility.yul\":949:1002   */\n      tag_318\n      jump\t// in\n    tag_379:\n        /* \"#utility.yul\":939:1002   */\n      swap2\n      pop\n        /* \"#utility.yul\":895:1012   */\n      pop\n        /* \"#utility.yul\":690:1019   */\n      swap3\n      swap2\n      pop\n      pop\n      jump\t// out\n        /* \"#utility.yul\":1025:1133   */\n    tag_319:\n        /* \"#utility.yul\":1102:1126   */\n      tag_381\n        /* \"#utility.yul\":1120:1125   */\n      dup2\n        /* \"#utility.yul\":1102:1126   */\n      tag_316\n      jump\t// in\n    tag_381:\n        /* \"#utility.yul\":1097:1100   */\n      dup3\n        /* \"#utility.yul\":1090:1127   */\n      mstore\n        /* \"#utility.yul\":1025:1133   */\n      pop\n      pop\n      jump\t// out\n        /* \"#utility.yul\":1139:1238   */\n    tag_320:\n        /* \"#utility.yul\":1191:1197   */\n      0x00\n        /* \"#utility.yul\":1225:1230   */\n      dup2\n        /* \"#utility.yul\":1219:1231   */\n      mload\n        /* \"#utility.yul\":1209:1231   */\n      swap1\n      pop\n        /* \"#utility.yul\":1139:1238   */\n      swap2\n      swap1\n      pop\n      jump\t// out\n        /* \"#utility.yul\":1244:1403   */\n    tag_321:\n        /* \"#utility.yul\":1318:1329   */\n      0x00\n        /* \"#utility.yul\":1352:1358   */\n      dup3\n        /* \"#utility.yul\":1347:1350   */\n      dup3\n        /* \"#utility.yul\":1340:1359   */\n      mstore\n        /* \"#utility.yul\":1392:1396   */\n      0x20\n        /* \"#utility.yul\":1387:1390   */\n      dup3\n        /* \"#utility.yul\":1383:1397   */\n      add\n        /* \"#utility.yul\":1368:1397   */\n      swap1\n      pop\n        /* \"#utility.yul\":1244:1403   */\n      swap3\n      swap2\n      pop\n      pop\n      jump\t// out\n        /* \"#utility.yul\":1409:1655   */\n    tag_322:\n        /* \"#utility.yul\":1490:1491   */\n      0x00\n        /* \"#utility.yul\":1500:1613   */\n    tag_385:\n        /* \"#utility.yul\":1514:1520   */\n      dup4\n        /* \"#utility.yul\":1511:1512   */\n      dup2\n        /* \"#utility.yul\":1508:1521   */\n      lt\n        /* \"#utility.yul\":1500:1613   */\n      iszero\n      tag_387\n      jumpi\n        /* \"#utility.yul\":1599:1600   */\n      dup1\n        /* \"#utility.yul\":1594:1597   */\n      dup3\n        /* \"#utility.yul\":1590:1601   */\n      add\n        /* \"#utility.yul\":1584:1602   */\n      mload\n        /* \"#utility.yul\":1580:1581   */\n      dup2\n        /* \"#utility.yul\":1575:1578   */\n      dup5\n        /* \"#utility.yul\":1571:1582   */\n      add\n        /* \"#utility.yul\":1564:1603   */\n      mstore\n        /* \"#utility.yul\":1536:1538   */\n      0x20\n        /* \"#utility.yul\":1533:1534   */\n      dup2\n        /* \"#utility.yul\":1529:1539   */\n      add\n        /* \"#utility.yul\":1524:1539   */\n      swap1\n      pop\n        /* \"#utility.yul\":1500:1613   */\n      jump(tag_385)\n    tag_387:\n        /* \"#utility.yul\":1647:1648   */\n      0x00\n        /* \"#utility.yul\":1638:1644   */\n      dup5\n        /* \"#utility.yul\":1633:1636   */\n      dup5\n        /* \"#utility.yul\":1629:1645   */\n      add\n        /* \"#utility.yul\":1622:1649   */\n      mstore\n        /* \"#utility.yul\":1471:1655   */\n      pop\n        /* \"#utility.yul\":1409:1655   */\n      pop\n      pop\n      pop\n      jump\t// out\n        /* \"#utility.yul\":1661:1763   */\n    tag_323:\n        /* \"#utility.yul\":1702:1708   */\n      0x00\n        /* \"#utility.yul\":1753:1755   */\n      0x1f\n        /* \"#utility.yul\":1749:1756   */\n      not\n        /* \"#utility.yul\":1744:1746   */\n      0x1f\n        /* \"#utility.yul\":1737:1742   */\n      dup4\n        /* \"#utility.yul\":1733:1747   */\n      add\n        /* \"#utility.yul\":1729:1757   */\n      and\n        /* \"#utility.yul\":1719:1757   */\n      swap1\n      pop\n        /* \"#utility.yul\":1661:1763   */\n      swap2\n      swap1\n      pop\n      jump\t// out\n        /* \"#utility.yul\":1769:2126   */\n    tag_324:\n        /* \"#utility.yul\":1847:1850   */\n      0x00\n        /* \"#utility.yul\":1875:1914   */\n      tag_390\n        /* \"#utility.yul\":1908:1913   */\n      dup3\n        /* \"#utility.yul\":1875:1914   */\n      tag_320\n      jump\t// in\n    tag_390:\n        /* \"#utility.yul\":1930:1991   */\n      tag_391\n        /* \"#utility.yul\":1984:1990   */\n      dup2\n        /* \"#utility.yul\":1979:1982   */\n      dup6\n        /* \"#utility.yul\":1930:1991   */\n      tag_321\n      jump\t// in\n    tag_391:\n        /* \"#utility.yul\":1923:1991   */\n      swap4\n      pop\n        /* \"#utility.yul\":2000:2065   */\n      tag_392\n        /* \"#utility.yul\":2058:2064   */\n      dup2\n        /* \"#utility.yul\":2053:2056   */\n      dup6\n        /* \"#utility.yul\":2046:2050   */\n      0x20\n        /* \"#utility.yul\":2039:2044   */\n      dup7\n        /* \"#utility.yul\":2035:2051   */\n      add\n        /* \"#utility.yul\":2000:2065   */\n      tag_322\n      jump\t// in\n    tag_392:\n        /* \"#utility.yul\":2090:2119   */\n      tag_393\n        /* \"#utility.yul\":2112:2118   */\n      dup2\n        /* \"#utility.yul\":2090:2119   */\n      tag_323\n      jump\t// in\n    tag_393:\n        /* \"#utility.yul\":2085:2088   */\n      dup5\n        /* \"#utility.yul\":2081:2120   */\n      add\n        /* \"#utility.yul\":2074:2120   */\n      swap2\n      pop\n        /* \"#utility.yul\":1851:2126   */\n      pop\n        /* \"#utility.yul\":1769:2126   */\n      swap3\n      swap2\n      pop\n      pop\n      jump\t// out\n        /* \"#utility.yul\":2220:4519   */\n    tag_325:\n        /* \"#utility.yul\":2343:2346   */\n      0x00\n        /* \"#utility.yul\":2379:2385   */\n      0x0120\n        /* \"#utility.yul\":2374:2377   */\n      dup4\n        /* \"#utility.yul\":2370:2386   */\n      add\n        /* \"#utility.yul\":2477:2481   */\n      0x00\n        /* \"#utility.yul\":2470:2475   */\n      dup4\n        /* \"#utility.yul\":2466:2482   */\n      add\n        /* \"#utility.yul\":2460:2483   */\n      mload\n        /* \"#utility.yul\":2496:2559   */\n      tag_395\n        /* \"#utility.yul\":2553:2557   */\n      0x00\n        /* \"#utility.yul\":2548:2551   */\n      dup7\n        /* \"#utility.yul\":2544:2558   */\n      add\n        /* \"#utility.yul\":2530:2542   */\n      dup3\n        /* \"#utility.yul\":2496:2559   */\n      tag_319\n      jump\t// in\n    tag_395:\n        /* \"#utility.yul\":2396:2569   */\n      pop\n        /* \"#utility.yul\":2662:2666   */\n      0x20\n        /* \"#utility.yul\":2655:2660   */\n      dup4\n        /* \"#utility.yul\":2651:2667   */\n      add\n        /* \"#utility.yul\":2645:2668   */\n      mload\n        /* \"#utility.yul\":2715:2718   */\n      dup5\n        /* \"#utility.yul\":2709:2713   */\n      dup3\n        /* \"#utility.yul\":2705:2719   */\n      sub\n        /* \"#utility.yul\":2698:2702   */\n      0x20\n        /* \"#utility.yul\":2693:2696   */\n      dup7\n        /* \"#utility.yul\":2689:2703   */\n      add\n        /* \"#utility.yul\":2682:2720   */\n      mstore\n        /* \"#utility.yul\":2741:2814   */\n      tag_396\n        /* \"#utility.yul\":2809:2813   */\n      dup3\n        /* \"#utility.yul\":2795:2807   */\n      dup3\n        /* \"#utility.yul\":2741:2814   */\n      tag_324\n      jump\t// in\n    tag_396:\n        /* \"#utility.yul\":2733:2814   */\n      swap2\n      pop\n        /* \"#utility.yul\":2579:2825   */\n      pop\n        /* \"#utility.yul\":2907:2911   */\n      0x40\n        /* \"#utility.yul\":2900:2905   */\n      dup4\n        /* \"#utility.yul\":2896:2912   */\n      add\n        /* \"#utility.yul\":2890:2913   */\n      mload\n        /* \"#utility.yul\":2960:2963   */\n      dup5\n        /* \"#utility.yul\":2954:2958   */\n      dup3\n        /* \"#utility.yul\":2950:2964   */\n      sub\n        /* \"#utility.yul\":2943:2947   */\n      0x40\n        /* \"#utility.yul\":2938:2941   */\n      dup7\n        /* \"#utility.yul\":2934:2948   */\n      add\n        /* \"#utility.yul\":2927:2965   */\n      mstore\n        /* \"#utility.yul\":2986:3059   */\n      tag_397\n        /* \"#utility.yul\":3054:3058   */\n      dup3\n        /* \"#utility.yul\":3040:3052   */\n      dup3\n        /* \"#utility.yul\":2986:3059   */\n      tag_324\n      jump\t// in\n    tag_397:\n        /* \"#utility.yul\":2978:3059   */\n      swap2\n      pop\n        /* \"#utility.yul\":2835:3070   */\n      pop\n        /* \"#utility.yul\":3154:3158   */\n      0x60\n        /* \"#utility.yul\":3147:3152   */\n      dup4\n        /* \"#utility.yul\":3143:3159   */\n      add\n        /* \"#utility.yul\":3137:3160   */\n      mload\n        /* \"#utility.yul\":3207:3210   */\n      dup5\n        /* \"#utility.yul\":3201:3205   */\n      dup3\n        /* \"#utility.yul\":3197:3211   */\n      sub\n        /* \"#utility.yul\":3190:3194   */\n      0x60\n        /* \"#utility.yul\":3185:3188   */\n      dup7\n        /* \"#utility.yul\":3181:3195   */\n      add\n        /* \"#utility.yul\":3174:3212   */\n      mstore\n        /* \"#utility.yul\":3233:3306   */\n      tag_398\n        /* \"#utility.yul\":3301:3305   */\n      dup3\n        /* \"#utility.yul\":3287:3299   */\n      dup3\n        /* \"#utility.yul\":3233:3306   */\n      tag_324\n      jump\t// in\n    tag_398:\n        /* \"#utility.yul\":3225:3306   */\n      swap2\n      pop\n        /* \"#utility.yul\":3080:3317   */\n      pop\n        /* \"#utility.yul\":3397:3401   */\n      0x80\n        /* \"#utility.yul\":3390:3395   */\n      dup4\n        /* \"#utility.yul\":3386:3402   */\n      add\n        /* \"#utility.yul\":3380:3403   */\n      mload\n        /* \"#utility.yul\":3450:3453   */\n      dup5\n        /* \"#utility.yul\":3444:3448   */\n      dup3\n        /* \"#utility.yul\":3440:3454   */\n      sub\n        /* \"#utility.yul\":3433:3437   */\n      0x80\n        /* \"#utility.yul\":3428:3431   */\n      dup7\n        /* \"#utility.yul\":3424:3438   */\n      add\n        /* \"#utility.yul\":3417:3455   */\n      mstore\n        /* \"#utility.yul\":3476:3549   */\n      tag_399\n        /* \"#utility.yul\":3544:3548   */\n      dup3\n        /* \"#utility.yul\":3530:3542   */\n      dup3\n        /* \"#utility.yul\":3476:3549   */\n      tag_324\n      jump\t// in\n    tag_399:\n        /* \"#utility.yul\":3468:3549   */\n      swap2\n      pop\n        /* \"#utility.yul\":3327:3560   */\n      pop\n        /* \"#utility.yul\":3642:3646   */\n      0xa0\n        /* \"#utility.yul\":3635:3640   */\n      dup4\n        /* \"#utility.yul\":3631:3647   */\n      add\n        /* \"#utility.yul\":3625:3648   */\n      mload\n        /* \"#utility.yul\":3695:3698   */\n      dup5\n        /* \"#utility.yul\":3689:3693   */\n      dup3\n        /* \"#utility.yul\":3685:3699   */\n      sub\n        /* \"#utility.yul\":3678:3682   */\n      0xa0\n        /* \"#utility.yul\":3673:3676   */\n      dup7\n        /* \"#utility.yul\":3669:3683   */\n      add\n        /* \"#utility.yul\":3662:3700   */\n      mstore\n        /* \"#utility.yul\":3721:3794   */\n      tag_400\n        /* \"#utility.yul\":3789:3793   */\n      dup3\n        /* \"#utility.yul\":3775:3787   */\n      dup3\n        /* \"#utility.yul\":3721:3794   */\n      tag_324\n      jump\t// in\n    tag_400:\n        /* \"#utility.yul\":3713:3794   */\n      swap2\n      pop\n        /* \"#utility.yul\":3570:3805   */\n      pop\n        /* \"#utility.yul\":3892:3896   */\n      0xc0\n        /* \"#utility.yul\":3885:3890   */\n      dup4\n        /* \"#utility.yul\":3881:3897   */\n      add\n        /* \"#utility.yul\":3875:3898   */\n      mload\n        /* \"#utility.yul\":3945:3948   */\n      dup5\n        /* \"#utility.yul\":3939:3943   */\n      dup3\n        /* \"#utility.yul\":3935:3949   */\n      sub\n        /* \"#utility.yul\":3928:3932   */\n      0xc0\n        /* \"#utility.yul\":3923:3926   */\n      dup7\n        /* \"#utility.yul\":3919:3933   */\n      add\n        /* \"#utility.yul\":3912:3950   */\n      mstore\n        /* \"#utility.yul\":3971:4044   */\n      tag_401\n        /* \"#utility.yul\":4039:4043   */\n      dup3\n        /* \"#utility.yul\":4025:4037   */\n      dup3\n        /* \"#utility.yul\":3971:4044   */\n      tag_324\n      jump\t// in\n    tag_401:\n        /* \"#utility.yul\":3963:4044   */\n      swap2\n      pop\n        /* \"#utility.yul\":3815:4055   */\n      pop\n        /* \"#utility.yul\":4146:4150   */\n      0xe0\n        /* \"#utility.yul\":4139:4144   */\n      dup4\n        /* \"#utility.yul\":4135:4151   */\n      add\n        /* \"#utility.yul\":4129:4152   */\n      mload\n        /* \"#utility.yul\":4199:4202   */\n      dup5\n        /* \"#utility.yul\":4193:4197   */\n      dup3\n        /* \"#utility.yul\":4189:4203   */\n      sub\n        /* \"#utility.yul\":4182:4186   */\n      0xe0\n        /* \"#utility.yul\":4177:4180   */\n      dup7\n        /* \"#utility.yul\":4173:4187   */\n      add\n        /* \"#utility.yul\":4166:4204   */\n      mstore\n        /* \"#utility.yul\":4225:4298   */\n      tag_402\n        /* \"#utility.yul\":4293:4297   */\n      dup3\n        /* \"#utility.yul\":4279:4291   */\n      dup3\n        /* \"#utility.yul\":4225:4298   */\n      tag_324\n      jump\t// in\n    tag_402:\n        /* \"#utility.yul\":4217:4298   */\n      swap2\n      pop\n        /* \"#utility.yul\":4065:4309   */\n      pop\n        /* \"#utility.yul\":4396:4402   */\n      0x0100\n        /* \"#utility.yul\":4389:4394   */\n      dup4\n        /* \"#utility.yul\":4385:4403   */\n      add\n        /* \"#utility.yul\":4379:4404   */\n      mload\n        /* \"#utility.yul\":4417:4482   */\n      tag_403\n        /* \"#utility.yul\":4474:4480   */\n      0x0100\n        /* \"#utility.yul\":4469:4472   */\n      dup7\n        /* \"#utility.yul\":4465:4481   */\n      add\n        /* \"#utility.yul\":4451:4463   */\n      dup3\n        /* \"#utility.yul\":4417:4482   */\n      tag_319\n      jump\t// in\n    tag_403:\n        /* \"#utility.yul\":4319:4492   */\n      pop\n        /* \"#utility.yul\":4509:4513   */\n      dup1\n        /* \"#utility.yul\":4502:4513   */\n      swap2\n      pop\n        /* \"#utility.yul\":2348:4519   */\n      pop\n        /* \"#utility.yul\":2220:4519   */\n      swap3\n      swap2\n      pop\n      pop\n      jump\t// out\n        /* \"#utility.yul\":4525:4906   */\n    tag_17:\n        /* \"#utility.yul\":4672:4676   */\n      0x00\n        /* \"#utility.yul\":4710:4712   */\n      0x20\n        /* \"#utility.yul\":4699:4708   */\n      dup3\n        /* \"#utility.yul\":4695:4713   */\n      add\n        /* \"#utility.yul\":4687:4713   */\n      swap1\n      pop\n        /* \"#utility.yul\":4759:4768   */\n      dup2\n        /* \"#utility.yul\":4753:4757   */\n      dup2\n        /* \"#utility.yul\":4749:4769   */\n      sub\n        /* \"#utility.yul\":4745:4746   */\n      0x00\n        /* \"#utility.yul\":4734:4743   */\n      dup4\n        /* \"#utility.yul\":4730:4747   */\n      add\n        /* \"#utility.yul\":4723:4770   */\n      mstore\n        /* \"#utility.yul\":4787:4899   */\n      tag_405\n        /* \"#utility.yul\":4894:4898   */\n      dup2\n        /* \"#utility.yul\":4885:4891   */\n      dup5\n        /* \"#utility.yul\":4787:4899   */\n      tag_325\n      jump\t// in\n    tag_405:\n        /* \"#utility.yul\":4779:4899   */\n      swap1\n      pop\n        /* \"#utility.yul\":4525:4906   */\n      swap3\n      swap2\n      pop\n      pop\n      jump\t// out\n        /* \"#utility.yul\":4912:5029   */\n    tag_326:\n        /* \"#utility.yul\":5021:5022   */\n      0x00\n        /* \"#utility.yul\":5018:5019   */\n      dup1\n        /* \"#utility.yul\":5011:5023   */\n      revert\n        /* \"#utility.yul\":5035:5152   */\n    tag_327:\n        /* \"#utility.yul\":5144:5145   */\n      0x00\n        /* \"#utility.yul\":5141:5142   */\n      dup1\n        /* \"#utility.yul\":5134:5146   */\n      revert\n        /* \"#utility.yul\":5158:5338   */\n    tag_101:\n        /* \"#utility.yul\":5206:5283   */\n      0x4e487b7100000000000000000000000000000000000000000000000000000000\n        /* \"#utility.yul\":5203:5204   */\n      0x00\n        /* \"#utility.yul\":5196:5284   */\n      mstore\n        /* \"#utility.yul\":5303:5307   */\n      0x41\n        /* \"#utility.yul\":5300:5301   */\n      0x04\n        /* \"#utility.yul\":5293:5308   */\n      mstore\n        /* \"#utility.yul\":5327:5331   */\n      0x24\n        /* \"#utility.yul\":5324:5325   */\n      0x00\n        /* \"#utility.yul\":5317:5332   */\n      revert\n        /* \"#utility.yul\":5344:5625   */\n    tag_328:\n        /* \"#utility.yul\":5427:5454   */\n      tag_410\n        /* \"#utility.yul\":5449:5453   */\n      dup3\n        /* \"#utility.yul\":5427:5454   */\n      tag_323\n      jump\t// in\n    tag_410:\n        /* \"#utility.yul\":5419:5425   */\n      dup2\n        /* \"#utility.yul\":5415:5455   */\n      add\n        /* \"#utility.yul\":5557:5563   */\n      dup2\n        /* \"#utility.yul\":5545:5555   */\n      dup2\n        /* \"#utility.yul\":5542:5564   */\n      lt\n        /* \"#utility.yul\":5521:5539   */\n      0xffffffffffffffff\n        /* \"#utility.yul\":5509:5519   */\n      dup3\n        /* \"#utility.yul\":5506:5540   */\n      gt\n        /* \"#utility.yul\":5503:5565   */\n      or\n        /* \"#utility.yul\":5500:5588   */\n      iszero\n      tag_411\n      jumpi\n        /* \"#utility.yul\":5568:5586   */\n      tag_412\n      tag_101\n      jump\t// in\n    tag_412:\n        /* \"#utility.yul\":5500:5588   */\n    tag_411:\n        /* \"#utility.yul\":5608:5618   */\n      dup1\n        /* \"#utility.yul\":5604:5606   */\n      0x40\n        /* \"#utility.yul\":5597:5619   */\n      mstore\n        /* \"#utility.yul\":5387:5625   */\n      pop\n        /* \"#utility.yul\":5344:5625   */\n      pop\n      pop\n      jump\t// out\n        /* \"#utility.yul\":5631:5760   */\n    tag_329:\n        /* \"#utility.yul\":5665:5671   */\n      0x00\n        /* \"#utility.yul\":5692:5712   */\n      tag_414\n      tag_313\n      jump\t// in\n    tag_414:\n        /* \"#utility.yul\":5682:5712   */\n      swap1\n      pop\n        /* \"#utility.yul\":5721:5754   */\n      tag_415\n        /* \"#utility.yul\":5749:5753   */\n      dup3\n        /* \"#utility.yul\":5741:5747   */\n      dup3\n        /* \"#utility.yul\":5721:5754   */\n      tag_328\n      jump\t// in\n    tag_415:\n        /* \"#utility.yul\":5631:5760   */\n      swap2\n      swap1\n      pop\n      jump\t// out\n        /* \"#utility.yul\":5766:6074   */\n    tag_330:\n        /* \"#utility.yul\":5828:5832   */\n      0x00\n        /* \"#utility.yul\":5918:5936   */\n      0xffffffffffffffff\n        /* \"#utility.yul\":5910:5916   */\n      dup3\n        /* \"#utility.yul\":5907:5937   */\n      gt\n        /* \"#utility.yul\":5904:5960   */\n      iszero\n      tag_417\n      jumpi\n        /* \"#utility.yul\":5940:5958   */\n      tag_418\n      tag_101\n      jump\t// in\n    tag_418:\n        /* \"#utility.yul\":5904:5960   */\n    tag_417:\n        /* \"#utility.yul\":5978:6007   */\n      tag_419\n        /* \"#utility.yul\":6000:6006   */\n      dup3\n        /* \"#utility.yul\":5978:6007   */\n      tag_323\n      jump\t// in\n    tag_419:\n        /* \"#utility.yul\":5970:6007   */\n      swap1\n      pop\n        /* \"#utility.yul\":6062:6066   */\n      0x20\n        /* \"#utility.yul\":6056:6060   */\n      dup2\n        /* \"#utility.yul\":6052:6067   */\n      add\n        /* \"#utility.yul\":6044:6067   */\n      swap1\n      pop\n        /* \"#utility.yul\":5766:6074   */\n      swap2\n      swap1\n      pop\n      jump\t// out\n        /* \"#utility.yul\":6080:6226   */\n    tag_331:\n        /* \"#utility.yul\":6177:6183   */\n      dup3\n        /* \"#utility.yul\":6172:6175   */\n      dup2\n        /* \"#utility.yul\":6167:6170   */\n      dup4\n        /* \"#utility.yul\":6154:6184   */\n      calldatacopy\n        /* \"#utility.yul\":6218:6219   */\n      0x00\n        /* \"#utility.yul\":6209:6215   */\n      dup4\n        /* \"#utility.yul\":6204:6207   */\n      dup4\n        /* \"#utility.yul\":6200:6216   */\n      add\n        /* \"#utility.yul\":6193:6220   */\n      mstore\n        /* \"#utility.yul\":6080:6226   */\n      pop\n      pop\n      pop\n      jump\t// out\n        /* \"#utility.yul\":6232:6657   */\n    tag_332:\n        /* \"#utility.yul\":6310:6315   */\n      0x00\n        /* \"#utility.yul\":6335:6401   */\n      tag_422\n        /* \"#utility.yul\":6351:6400   */\n      tag_423\n        /* \"#utility.yul\":6393:6399   */\n      dup5\n        /* \"#utility.yul\":6351:6400   */\n      tag_330\n      jump\t// in\n    tag_423:\n        /* \"#utility.yul\":6335:6401   */\n      tag_329\n      jump\t// in\n    tag_422:\n        /* \"#utility.yul\":6326:6401   */\n      swap1\n      pop\n        /* \"#utility.yul\":6424:6430   */\n      dup3\n        /* \"#utility.yul\":6417:6422   */\n      dup2\n        /* \"#utility.yul\":6410:6431   */\n      mstore\n        /* \"#utility.yul\":6462:6466   */\n      0x20\n        /* \"#utility.yul\":6455:6460   */\n      dup2\n        /* \"#utility.yul\":6451:6467   */\n      add\n        /* \"#utility.yul\":6500:6503   */\n      dup5\n        /* \"#utility.yul\":6491:6497   */\n      dup5\n        /* \"#utility.yul\":6486:6489   */\n      dup5\n        /* \"#utility.yul\":6482:6498   */\n      add\n        /* \"#utility.yul\":6479:6504   */\n      gt\n        /* \"#utility.yul\":6476:6588   */\n      iszero\n      tag_424\n      jumpi\n        /* \"#utility.yul\":6507:6586   */\n      tag_425\n      tag_327\n      jump\t// in\n    tag_425:\n        /* \"#utility.yul\":6476:6588   */\n    tag_424:\n        /* \"#utility.yul\":6597:6651   */\n      tag_426\n        /* \"#utility.yul\":6644:6650   */\n      dup5\n        /* \"#utility.yul\":6639:6642   */\n      dup3\n        /* \"#utility.yul\":6634:6637   */\n      dup6\n        /* \"#utility.yul\":6597:6651   */\n      tag_331\n      jump\t// in\n    tag_426:\n        /* \"#utility.yul\":6316:6657   */\n      pop\n        /* \"#utility.yul\":6232:6657   */\n      swap4\n      swap3\n      pop\n      pop\n      pop\n      jump\t// out\n        /* \"#utility.yul\":6677:7017   */\n    tag_333:\n        /* \"#utility.yul\":6733:6738   */\n      0x00\n        /* \"#utility.yul\":6782:6785   */\n      dup3\n        /* \"#utility.yul\":6775:6779   */\n      0x1f\n        /* \"#utility.yul\":6767:6773   */\n      dup4\n        /* \"#utility.yul\":6763:6780   */\n      add\n        /* \"#utility.yul\":6759:6786   */\n      slt\n        /* \"#utility.yul\":6749:6871   */\n      tag_428\n      jumpi\n        /* \"#utility.yul\":6790:6869   */\n      tag_429\n      tag_326\n      jump\t// in\n    tag_429:\n        /* \"#utility.yul\":6749:6871   */\n    tag_428:\n        /* \"#utility.yul\":6907:6913   */\n      dup2\n        /* \"#utility.yul\":6894:6914   */\n      calldataload\n        /* \"#utility.yul\":6932:7011   */\n      tag_430\n        /* \"#utility.yul\":7007:7010   */\n      dup5\n        /* \"#utility.yul\":6999:7005   */\n      dup3\n        /* \"#utility.yul\":6992:6996   */\n      0x20\n        /* \"#utility.yul\":6984:6990   */\n      dup7\n        /* \"#utility.yul\":6980:6997   */\n      add\n        /* \"#utility.yul\":6932:7011   */\n      tag_332\n      jump\t// in\n    tag_430:\n        /* \"#utility.yul\":6923:7011   */\n      swap2\n      pop\n        /* \"#utility.yul\":6739:7017   */\n      pop\n        /* \"#utility.yul\":6677:7017   */\n      swap3\n      swap2\n      pop\n      pop\n      jump\t// out\n        /* \"#utility.yul\":7023:7532   */\n    tag_20:\n        /* \"#utility.yul\":7092:7098   */\n      0x00\n        /* \"#utility.yul\":7141:7143   */\n      0x20\n        /* \"#utility.yul\":7129:7138   */\n      dup3\n        /* \"#utility.yul\":7120:7127   */\n      dup5\n        /* \"#utility.yul\":7116:7139   */\n      sub\n        /* \"#utility.yul\":7112:7144   */\n      slt\n        /* \"#utility.yul\":7109:7228   */\n      iszero\n      tag_432\n      jumpi\n        /* \"#utility.yul\":7147:7226   */\n      tag_433\n      tag_314\n      jump\t// in\n    tag_433:\n        /* \"#utility.yul\":7109:7228   */\n    tag_432:\n        /* \"#utility.yul\":7295:7296   */\n      0x00\n        /* \"#utility.yul\":7284:7293   */\n      dup3\n        /* \"#utility.yul\":7280:7297   */\n      add\n        /* \"#utility.yul\":7267:7298   */\n      calldataload\n        /* \"#utility.yul\":7325:7343   */\n      0xffffffffffffffff\n        /* \"#utility.yul\":7317:7323   */\n      dup2\n        /* \"#utility.yul\":7314:7344   */\n      gt\n        /* \"#utility.yul\":7311:7428   */\n      iszero\n      tag_434\n      jumpi\n        /* \"#utility.yul\":7347:7426   */\n      tag_435\n      tag_315\n      jump\t// in\n    tag_435:\n        /* \"#utility.yul\":7311:7428   */\n    tag_434:\n        /* \"#utility.yul\":7452:7515   */\n      tag_436\n        /* \"#utility.yul\":7507:7514   */\n      dup5\n        /* \"#utility.yul\":7498:7504   */\n      dup3\n        /* \"#utility.yul\":7487:7496   */\n      dup6\n        /* \"#utility.yul\":7483:7505   */\n      add\n        /* \"#utility.yul\":7452:7515   */\n      tag_333\n      jump\t// in\n    tag_436:\n        /* \"#utility.yul\":7442:7515   */\n      swap2\n      pop\n        /* \"#utility.yul\":7238:7525   */\n      pop\n        /* \"#utility.yul\":7023:7532   */\n      swap3\n      swap2\n      pop\n      pop\n      jump\t// out\n        /* \"#utility.yul\":7538:7679   */\n    tag_334:\n        /* \"#utility.yul\":7632:7638   */\n      0x00\n        /* \"#utility.yul\":7666:7671   */\n      dup2\n        /* \"#utility.yul\":7660:7672   */\n      mload\n        /* \"#utility.yul\":7650:7672   */\n      swap1\n      pop\n        /* \"#utility.yul\":7538:7679   */\n      swap2\n      swap1\n      pop\n      jump\t// out\n        /* \"#utility.yul\":7685:7896   */\n    tag_335:\n        /* \"#utility.yul\":7811:7822   */\n      0x00\n        /* \"#utility.yul\":7845:7851   */\n      dup3\n        /* \"#utility.yul\":7840:7843   */\n      dup3\n        /* \"#utility.yul\":7833:7852   */\n      mstore\n        /* \"#utility.yul\":7885:7889   */\n      0x20\n        /* \"#utility.yul\":7880:7883   */\n      dup3\n        /* \"#utility.yul\":7876:7890   */\n      add\n        /* \"#utility.yul\":7861:7890   */\n      swap1\n      pop\n        /* \"#utility.yul\":7685:7896   */\n      swap3\n      swap2\n      pop\n      pop\n      jump\t// out\n        /* \"#utility.yul\":7902:8061   */\n    tag_336:\n        /* \"#utility.yul\":7996:8000   */\n      0x00\n        /* \"#utility.yul\":8019:8022   */\n      dup2\n        /* \"#utility.yul\":8011:8022   */\n      swap1\n      pop\n        /* \"#utility.yul\":8049:8053   */\n      0x20\n        /* \"#utility.yul\":8044:8047   */\n      dup3\n        /* \"#utility.yul\":8040:8054   */\n      add\n        /* \"#utility.yul\":8032:8054   */\n      swap1\n      pop\n        /* \"#utility.yul\":7902:8061   */\n      swap2\n      swap1\n      pop\n      jump\t// out\n        /* \"#utility.yul\":8155:10444   */\n    tag_337:\n        /* \"#utility.yul\":8268:8271   */\n      0x00\n        /* \"#utility.yul\":8304:8310   */\n      0x0120\n        /* \"#utility.yul\":8299:8302   */\n      dup4\n        /* \"#utility.yul\":8295:8311   */\n      add\n        /* \"#utility.yul\":8402:8406   */\n      0x00\n        /* \"#utility.yul\":8395:8400   */\n      dup4\n        /* \"#utility.yul\":8391:8407   */\n      add\n        /* \"#utility.yul\":8385:8408   */\n      mload\n        /* \"#utility.yul\":8421:8484   */\n      tag_441\n        /* \"#utility.yul\":8478:8482   */\n      0x00\n        /* \"#utility.yul\":8473:8476   */\n      dup7\n        /* \"#utility.yul\":8469:8483   */\n      add\n        /* \"#utility.yul\":8455:8467   */\n      dup3\n        /* \"#utility.yul\":8421:8484   */\n      tag_319\n      jump\t// in\n    tag_441:\n        /* \"#utility.yul\":8321:8494   */\n      pop\n        /* \"#utility.yul\":8587:8591   */\n      0x20\n        /* \"#utility.yul\":8580:8585   */\n      dup4\n        /* \"#utility.yul\":8576:8592   */\n      add\n        /* \"#utility.yul\":8570:8593   */\n      mload\n        /* \"#utility.yul\":8640:8643   */\n      dup5\n        /* \"#utility.yul\":8634:8638   */\n      dup3\n        /* \"#utility.yul\":8630:8644   */\n      sub\n        /* \"#utility.yul\":8623:8627   */\n      0x20\n        /* \"#utility.yul\":8618:8621   */\n      dup7\n        /* \"#utility.yul\":8614:8628   */\n      add\n        /* \"#utility.yul\":8607:8645   */\n      mstore\n        /* \"#utility.yul\":8666:8739   */\n      tag_442\n        /* \"#utility.yul\":8734:8738   */\n      dup3\n        /* \"#utility.yul\":8720:8732   */\n      dup3\n        /* \"#utility.yul\":8666:8739   */\n      tag_324\n      jump\t// in\n    tag_442:\n        /* \"#utility.yul\":8658:8739   */\n      swap2\n      pop\n        /* \"#utility.yul\":8504:8750   */\n      pop\n        /* \"#utility.yul\":8832:8836   */\n      0x40\n        /* \"#utility.yul\":8825:8830   */\n      dup4\n        /* \"#utility.yul\":8821:8837   */\n      add\n        /* \"#utility.yul\":8815:8838   */\n      mload\n        /* \"#utility.yul\":8885:8888   */\n      dup5\n        /* \"#utility.yul\":8879:8883   */\n      dup3\n        /* \"#utility.yul\":8875:8889   */\n      sub\n        /* \"#utility.yul\":8868:8872   */\n      0x40\n        /* \"#utility.yul\":8863:8866   */\n      dup7\n        /* \"#utility.yul\":8859:8873   */\n      add\n        /* \"#utility.yul\":8852:8890   */\n      mstore\n        /* \"#utility.yul\":8911:8984   */\n      tag_443\n        /* \"#utility.yul\":8979:8983   */\n      dup3\n        /* \"#utility.yul\":8965:8977   */\n      dup3\n        /* \"#utility.yul\":8911:8984   */\n      tag_324\n      jump\t// in\n    tag_443:\n        /* \"#utility.yul\":8903:8984   */\n      swap2\n      pop\n        /* \"#utility.yul\":8760:8995   */\n      pop\n        /* \"#utility.yul\":9079:9083   */\n      0x60\n        /* \"#utility.yul\":9072:9077   */\n      dup4\n        /* \"#utility.yul\":9068:9084   */\n      add\n        /* \"#utility.yul\":9062:9085   */\n      mload\n        /* \"#utility.yul\":9132:9135   */\n      dup5\n        /* \"#utility.yul\":9126:9130   */\n      dup3\n        /* \"#utility.yul\":9122:9136   */\n      sub\n        /* \"#utility.yul\":9115:9119   */\n      0x60\n        /* \"#utility.yul\":9110:9113   */\n      dup7\n        /* \"#utility.yul\":9106:9120   */\n      add\n        /* \"#utility.yul\":9099:9137   */\n      mstore\n        /* \"#utility.yul\":9158:9231   */\n      tag_444\n        /* \"#utility.yul\":9226:9230   */\n      dup3\n        /* \"#utility.yul\":9212:9224   */\n      dup3\n        /* \"#utility.yul\":9158:9231   */\n      tag_324\n      jump\t// in\n    tag_444:\n        /* \"#utility.yul\":9150:9231   */\n      swap2\n      pop\n        /* \"#utility.yul\":9005:9242   */\n      pop\n        /* \"#utility.yul\":9322:9326   */\n      0x80\n        /* \"#utility.yul\":9315:9320   */\n      dup4\n        /* \"#utility.yul\":9311:9327   */\n      add\n        /* \"#utility.yul\":9305:9328   */\n      mload\n        /* \"#utility.yul\":9375:9378   */\n      dup5\n        /* \"#utility.yul\":9369:9373   */\n      dup3\n        /* \"#utility.yul\":9365:9379   */\n      sub\n        /* \"#utility.yul\":9358:9362   */\n      0x80\n        /* \"#utility.yul\":9353:9356   */\n      dup7\n        /* \"#utility.yul\":9349:9363   */\n      add\n        /* \"#utility.yul\":9342:9380   */\n      mstore\n        /* \"#utility.yul\":9401:9474   */\n      tag_445\n        /* \"#utility.yul\":9469:9473   */\n      dup3\n        /* \"#utility.yul\":9455:9467   */\n      dup3\n        /* \"#utility.yul\":9401:9474   */\n      tag_324\n      jump\t// in\n    tag_445:\n        /* \"#utility.yul\":9393:9474   */\n      swap2\n      pop\n        /* \"#utility.yul\":9252:9485   */\n      pop\n        /* \"#utility.yul\":9567:9571   */\n      0xa0\n        /* \"#utility.yul\":9560:9565   */\n      dup4\n        /* \"#utility.yul\":9556:9572   */\n      add\n        /* \"#utility.yul\":9550:9573   */\n      mload\n        /* \"#utility.yul\":9620:9623   */\n      dup5\n        /* \"#utility.yul\":9614:9618   */\n      dup3\n        /* \"#utility.yul\":9610:9624   */\n      sub\n        /* \"#utility.yul\":9603:9607   */\n      0xa0\n        /* \"#utility.yul\":9598:9601   */\n      dup7\n        /* \"#utility.yul\":9594:9608   */\n      add\n        /* \"#utility.yul\":9587:9625   */\n      mstore\n        /* \"#utility.yul\":9646:9719   */\n      tag_446\n        /* \"#utility.yul\":9714:9718   */\n      dup3\n        /* \"#utility.yul\":9700:9712   */\n      dup3\n        /* \"#utility.yul\":9646:9719   */\n      tag_324\n      jump\t// in\n    tag_446:\n        /* \"#utility.yul\":9638:9719   */\n      swap2\n      pop\n        /* \"#utility.yul\":9495:9730   */\n      pop\n        /* \"#utility.yul\":9817:9821   */\n      0xc0\n        /* \"#utility.yul\":9810:9815   */\n      dup4\n        /* \"#utility.yul\":9806:9822   */\n      add\n        /* \"#utility.yul\":9800:9823   */\n      mload\n        /* \"#utility.yul\":9870:9873   */\n      dup5\n        /* \"#utility.yul\":9864:9868   */\n      dup3\n        /* \"#utility.yul\":9860:9874   */\n      sub\n        /* \"#utility.yul\":9853:9857   */\n      0xc0\n        /* \"#utility.yul\":9848:9851   */\n      dup7\n        /* \"#utility.yul\":9844:9858   */\n      add\n        /* \"#utility.yul\":9837:9875   */\n      mstore\n        /* \"#utility.yul\":9896:9969   */\n      tag_447\n        /* \"#utility.yul\":9964:9968   */\n      dup3\n        /* \"#utility.yul\":9950:9962   */\n      dup3\n        /* \"#utility.yul\":9896:9969   */\n      tag_324\n      jump\t// in\n    tag_447:\n        /* \"#utility.yul\":9888:9969   */\n      swap2\n      pop\n        /* \"#utility.yul\":9740:9980   */\n      pop\n        /* \"#utility.yul\":10071:10075   */\n      0xe0\n        /* \"#utility.yul\":10064:10069   */\n      dup4\n        /* \"#utility.yul\":10060:10076   */\n      add\n        /* \"#utility.yul\":10054:10077   */\n      mload\n        /* \"#utility.yul\":10124:10127   */\n      dup5\n        /* \"#utility.yul\":10118:10122   */\n      dup3\n        /* \"#utility.yul\":10114:10128   */\n      sub\n        /* \"#utility.yul\":10107:10111   */\n      0xe0\n        /* \"#utility.yul\":10102:10105   */\n      dup7\n        /* \"#utility.yul\":10098:10112   */\n      add\n        /* \"#utility.yul\":10091:10129   */\n      mstore\n        /* \"#utility.yul\":10150:10223   */\n      tag_448\n        /* \"#utility.yul\":10218:10222   */\n      dup3\n        /* \"#utility.yul\":10204:10216   */\n      dup3\n        /* \"#utility.yul\":10150:10223   */\n      tag_324\n      jump\t// in\n    tag_448:\n        /* \"#utility.yul\":10142:10223   */\n      swap2\n      pop\n        /* \"#utility.yul\":9990:10234   */\n      pop\n        /* \"#utility.yul\":10321:10327   */\n      0x0100\n        /* \"#utility.yul\":10314:10319   */\n      dup4\n        /* \"#utility.yul\":10310:10328   */\n      add\n        /* \"#utility.yul\":10304:10329   */\n      mload\n        /* \"#utility.yul\":10342:10407   */\n      tag_449\n        /* \"#utility.yul\":10399:10405   */\n      0x0100\n        /* \"#utility.yul\":10394:10397   */\n      dup7\n        /* \"#utility.yul\":10390:10406   */\n      add\n        /* \"#utility.yul\":10376:10388   */\n      dup3\n        /* \"#utility.yul\":10342:10407   */\n      tag_319\n      jump\t// in\n    tag_449:\n        /* \"#utility.yul\":10244:10417   */\n      pop\n        /* \"#utility.yul\":10434:10438   */\n      dup1\n        /* \"#utility.yul\":10427:10438   */\n      swap2\n      pop\n        /* \"#utility.yul\":8273:10444   */\n      pop\n        /* \"#utility.yul\":8155:10444   */\n      swap3\n      swap2\n      pop\n      pop\n      jump\t// out\n        /* \"#utility.yul\":10450:10714   */\n    tag_338:\n        /* \"#utility.yul\":10573:10583   */\n      0x00\n        /* \"#utility.yul\":10608:10708   */\n      tag_451\n        /* \"#utility.yul\":10704:10707   */\n      dup4\n        /* \"#utility.yul\":10696:10702   */\n      dup4\n        /* \"#utility.yul\":10608:10708   */\n      tag_337\n      jump\t// in\n    tag_451:\n        /* \"#utility.yul\":10594:10708   */\n      swap1\n      pop\n        /* \"#utility.yul\":10450:10714   */\n      swap3\n      swap2\n      pop\n      pop\n      jump\t// out\n        /* \"#utility.yul\":10720:10860   */\n    tag_339:\n        /* \"#utility.yul\":10817:10821   */\n      0x00\n        /* \"#utility.yul\":10849:10853   */\n      0x20\n        /* \"#utility.yul\":10844:10847   */\n      dup3\n        /* \"#utility.yul\":10840:10854   */\n      add\n        /* \"#utility.yul\":10832:10854   */\n      swap1\n      pop\n        /* \"#utility.yul\":10720:10860   */\n      swap2\n      swap1\n      pop\n      jump\t// out\n        /* \"#utility.yul\":10958:12085   */\n    tag_340:\n        /* \"#utility.yul\":11131:11134   */\n      0x00\n        /* \"#utility.yul\":11160:11241   */\n      tag_454\n        /* \"#utility.yul\":11235:11240   */\n      dup3\n        /* \"#utility.yul\":11160:11241   */\n      tag_334\n      jump\t// in\n    tag_454:\n        /* \"#utility.yul\":11257:11370   */\n      tag_455\n        /* \"#utility.yul\":11363:11369   */\n      dup2\n        /* \"#utility.yul\":11358:11361   */\n      dup6\n        /* \"#utility.yul\":11257:11370   */\n      tag_335\n      jump\t// in\n    tag_455:\n        /* \"#utility.yul\":11250:11370   */\n      swap4\n      pop\n        /* \"#utility.yul\":11396:11399   */\n      dup4\n        /* \"#utility.yul\":11441:11445   */\n      0x20\n        /* \"#utility.yul\":11433:11439   */\n      dup3\n        /* \"#utility.yul\":11429:11446   */\n      mul\n        /* \"#utility.yul\":11424:11427   */\n      dup6\n        /* \"#utility.yul\":11420:11447   */\n      add\n        /* \"#utility.yul\":11471:11554   */\n      tag_456\n        /* \"#utility.yul\":11548:11553   */\n      dup6\n        /* \"#utility.yul\":11471:11554   */\n      tag_336\n      jump\t// in\n    tag_456:\n        /* \"#utility.yul\":11577:11584   */\n      dup1\n        /* \"#utility.yul\":11608:11609   */\n      0x00\n        /* \"#utility.yul\":11593:12040   */\n    tag_457:\n        /* \"#utility.yul\":11618:11624   */\n      dup6\n        /* \"#utility.yul\":11615:11616   */\n      dup2\n        /* \"#utility.yul\":11612:11625   */\n      lt\n        /* \"#utility.yul\":11593:12040   */\n      iszero\n      tag_459\n      jumpi\n        /* \"#utility.yul\":11689:11698   */\n      dup5\n        /* \"#utility.yul\":11683:11687   */\n      dup5\n        /* \"#utility.yul\":11679:11699   */\n      sub\n        /* \"#utility.yul\":11674:11677   */\n      dup10\n        /* \"#utility.yul\":11667:11700   */\n      mstore\n        /* \"#utility.yul\":11740:11746   */\n      dup2\n        /* \"#utility.yul\":11734:11747   */\n      mload\n        /* \"#utility.yul\":11768:11886   */\n      tag_460\n        /* \"#utility.yul\":11881:11885   */\n      dup6\n        /* \"#utility.yul\":11866:11879   */\n      dup3\n        /* \"#utility.yul\":11768:11886   */\n      tag_338\n      jump\t// in\n    tag_460:\n        /* \"#utility.yul\":11760:11886   */\n      swap5\n      pop\n        /* \"#utility.yul\":11909:11996   */\n      tag_461\n        /* \"#utility.yul\":11989:11995   */\n      dup4\n        /* \"#utility.yul\":11909:11996   */\n      tag_339\n      jump\t// in\n    tag_461:\n        /* \"#utility.yul\":11899:11996   */\n      swap3\n      pop\n        /* \"#utility.yul\":12025:12029   */\n      0x20\n        /* \"#utility.yul\":12020:12023   */\n      dup11\n        /* \"#utility.yul\":12016:12030   */\n      add\n        /* \"#utility.yul\":12009:12030   */\n      swap10\n      pop\n        /* \"#utility.yul\":11653:12040   */\n      pop\n        /* \"#utility.yul\":11640:11641   */\n      0x01\n        /* \"#utility.yul\":11637:11638   */\n      dup2\n        /* \"#utility.yul\":11633:11642   */\n      add\n        /* \"#utility.yul\":11628:11642   */\n      swap1\n      pop\n        /* \"#utility.yul\":11593:12040   */\n      jump(tag_457)\n    tag_459:\n        /* \"#utility.yul\":11597:11611   */\n      pop\n        /* \"#utility.yul\":12056:12060   */\n      dup3\n        /* \"#utility.yul\":12049:12060   */\n      swap8\n      pop\n        /* \"#utility.yul\":12076:12079   */\n      dup8\n        /* \"#utility.yul\":12069:12079   */\n      swap6\n      pop\n        /* \"#utility.yul\":11136:12085   */\n      pop\n      pop\n      pop\n      pop\n      pop\n        /* \"#utility.yul\":10958:12085   */\n      swap3\n      swap2\n      pop\n      pop\n      jump\t// out\n        /* \"#utility.yul\":12091:12572   */\n    tag_23:\n        /* \"#utility.yul\":12288:12292   */\n      0x00\n        /* \"#utility.yul\":12326:12328   */\n      0x20\n        /* \"#utility.yul\":12315:12324   */\n      dup3\n        /* \"#utility.yul\":12311:12329   */\n      add\n        /* \"#utility.yul\":12303:12329   */\n      swap1\n      pop\n        /* \"#utility.yul\":12375:12384   */\n      dup2\n        /* \"#utility.yul\":12369:12373   */\n      dup2\n        /* \"#utility.yul\":12365:12385   */\n      sub\n        /* \"#utility.yul\":12361:12362   */\n      0x00\n        /* \"#utility.yul\":12350:12359   */\n      dup4\n        /* \"#utility.yul\":12346:12363   */\n      add\n        /* \"#utility.yul\":12339:12386   */\n      mstore\n        /* \"#utility.yul\":12403:12565   */\n      tag_463\n        /* \"#utility.yul\":12560:12564   */\n      dup2\n        /* \"#utility.yul\":12551:12557   */\n      dup5\n        /* \"#utility.yul\":12403:12565   */\n      tag_340\n      jump\t// in\n    tag_463:\n        /* \"#utility.yul\":12395:12565   */\n      swap1\n      pop\n        /* \"#utility.yul\":12091:12572   */\n      swap3\n      swap2\n      pop\n      pop\n      jump\t// out\n        /* \"#utility.yul\":12578:12696   */\n    tag_341:\n        /* \"#utility.yul\":12665:12689   */\n      tag_465\n        /* \"#utility.yul\":12683:12688   */\n      dup2\n        /* \"#utility.yul\":12665:12689   */\n      tag_316\n      jump\t// in\n    tag_465:\n        /* \"#utility.yul\":12660:12663   */\n      dup3\n        /* \"#utility.yul\":12653:12690   */\n      mstore\n        /* \"#utility.yul\":12578:12696   */\n      pop\n      pop\n      jump\t// out\n        /* \"#utility.yul\":12702:12871   */\n    tag_342:\n        /* \"#utility.yul\":12786:12797   */\n      0x00\n        /* \"#utility.yul\":12820:12826   */\n      dup3\n        /* \"#utility.yul\":12815:12818   */\n      dup3\n        /* \"#utility.yul\":12808:12827   */\n      mstore\n        /* \"#utility.yul\":12860:12864   */\n      0x20\n        /* \"#utility.yul\":12855:12858   */\n      dup3\n        /* \"#utility.yul\":12851:12865   */\n      add\n        /* \"#utility.yul\":12836:12865   */\n      swap1\n      pop\n        /* \"#utility.yul\":12702:12871   */\n      swap3\n      swap2\n      pop\n      pop\n      jump\t// out\n        /* \"#utility.yul\":12877:13254   */\n    tag_343:\n        /* \"#utility.yul\":12965:12968   */\n      0x00\n        /* \"#utility.yul\":12993:13032   */\n      tag_468\n        /* \"#utility.yul\":13026:13031   */\n      dup3\n        /* \"#utility.yul\":12993:13032   */\n      tag_320\n      jump\t// in\n    tag_468:\n        /* \"#utility.yul\":13048:13119   */\n      tag_469\n        /* \"#utility.yul\":13112:13118   */\n      dup2\n        /* \"#utility.yul\":13107:13110   */\n      dup6\n        /* \"#utility.yul\":13048:13119   */\n      tag_342\n      jump\t// in\n    tag_469:\n        /* \"#utility.yul\":13041:13119   */\n      swap4\n      pop\n        /* \"#utility.yul\":13128:13193   */\n      tag_470\n        /* \"#utility.yul\":13186:13192   */\n      dup2\n        /* \"#utility.yul\":13181:13184   */\n      dup6\n        /* \"#utility.yul\":13174:13178   */\n      0x20\n        /* \"#utility.yul\":13167:13172   */\n      dup7\n        /* \"#utility.yul\":13163:13179   */\n      add\n        /* \"#utility.yul\":13128:13193   */\n      tag_322\n      jump\t// in\n    tag_470:\n        /* \"#utility.yul\":13218:13247   */\n      tag_471\n        /* \"#utility.yul\":13240:13246   */\n      dup2\n        /* \"#utility.yul\":13218:13247   */\n      tag_323\n      jump\t// in\n    tag_471:\n        /* \"#utility.yul\":13213:13216   */\n      dup5\n        /* \"#utility.yul\":13209:13248   */\n      add\n        /* \"#utility.yul\":13202:13248   */\n      swap2\n      pop\n        /* \"#utility.yul\":12969:13254   */\n      pop\n        /* \"#utility.yul\":12877:13254   */\n      swap3\n      swap2\n      pop\n      pop\n      jump\t// out\n        /* \"#utility.yul\":13260:15005   */\n    tag_28:\n        /* \"#utility.yul\":13717:13721   */\n      0x00\n        /* \"#utility.yul\":13755:13758   */\n      0x0120\n        /* \"#utility.yul\":13744:13753   */\n      dup3\n        /* \"#utility.yul\":13740:13759   */\n      add\n        /* \"#utility.yul\":13732:13759   */\n      swap1\n      pop\n        /* \"#utility.yul\":13769:13840   */\n      tag_473\n        /* \"#utility.yul\":13837:13838   */\n      0x00\n        /* \"#utility.yul\":13826:13835   */\n      dup4\n        /* \"#utility.yul\":13822:13839   */\n      add\n        /* \"#utility.yul\":13813:13819   */\n      dup13\n        /* \"#utility.yul\":13769:13840   */\n      tag_341\n      jump\t// in\n    tag_473:\n        /* \"#utility.yul\":13887:13896   */\n      dup2\n        /* \"#utility.yul\":13881:13885   */\n      dup2\n        /* \"#utility.yul\":13877:13897   */\n      sub\n        /* \"#utility.yul\":13872:13874   */\n      0x20\n        /* \"#utility.yul\":13861:13870   */\n      dup4\n        /* \"#utility.yul\":13857:13875   */\n      add\n        /* \"#utility.yul\":13850:13898   */\n      mstore\n        /* \"#utility.yul\":13915:13993   */\n      tag_474\n        /* \"#utility.yul\":13988:13992   */\n      dup2\n        /* \"#utility.yul\":13979:13985   */\n      dup12\n        /* \"#utility.yul\":13915:13993   */\n      tag_343\n      jump\t// in\n    tag_474:\n        /* \"#utility.yul\":13907:13993   */\n      swap1\n      pop\n        /* \"#utility.yul\":14040:14049   */\n      dup2\n        /* \"#utility.yul\":14034:14038   */\n      dup2\n        /* \"#utility.yul\":14030:14050   */\n      sub\n        /* \"#utility.yul\":14025:14027   */\n      0x40\n        /* \"#utility.yul\":14014:14023   */\n      dup4\n        /* \"#utility.yul\":14010:14028   */\n      add\n        /* \"#utility.yul\":14003:14051   */\n      mstore\n        /* \"#utility.yul\":14068:14146   */\n      tag_475\n        /* \"#utility.yul\":14141:14145   */\n      dup2\n        /* \"#utility.yul\":14132:14138   */\n      dup11\n        /* \"#utility.yul\":14068:14146   */\n      tag_343\n      jump\t// in\n    tag_475:\n        /* \"#utility.yul\":14060:14146   */\n      swap1\n      pop\n        /* \"#utility.yul\":14193:14202   */\n      dup2\n        /* \"#utility.yul\":14187:14191   */\n      dup2\n        /* \"#utility.yul\":14183:14203   */\n      sub\n        /* \"#utility.yul\":14178:14180   */\n      0x60\n        /* \"#utility.yul\":14167:14176   */\n      dup4\n        /* \"#utility.yul\":14163:14181   */\n      add\n        /* \"#utility.yul\":14156:14204   */\n      mstore\n        /* \"#utility.yul\":14221:14299   */\n      tag_476\n        /* \"#utility.yul\":14294:14298   */\n      dup2\n        /* \"#utility.yul\":14285:14291   */\n      dup10\n        /* \"#utility.yul\":14221:14299   */\n      tag_343\n      jump\t// in\n    tag_476:\n        /* \"#utility.yul\":14213:14299   */\n      swap1\n      pop\n        /* \"#utility.yul\":14347:14356   */\n      dup2\n        /* \"#utility.yul\":14341:14345   */\n      dup2\n        /* \"#utility.yul\":14337:14357   */\n      sub\n        /* \"#utility.yul\":14331:14334   */\n      0x80\n        /* \"#utility.yul\":14320:14329   */\n      dup4\n        /* \"#utility.yul\":14316:14335   */\n      add\n        /* \"#utility.yul\":14309:14358   */\n      mstore\n        /* \"#utility.yul\":14375:14453   */\n      tag_477\n        /* \"#utility.yul\":14448:14452   */\n      dup2\n        /* \"#utility.yul\":14439:14445   */\n      dup9\n        /* \"#utility.yul\":14375:14453   */\n      tag_343\n      jump\t// in\n    tag_477:\n        /* \"#utility.yul\":14367:14453   */\n      swap1\n      pop\n        /* \"#utility.yul\":14501:14510   */\n      dup2\n        /* \"#utility.yul\":14495:14499   */\n      dup2\n        /* \"#utility.yul\":14491:14511   */\n      sub\n        /* \"#utility.yul\":14485:14488   */\n      0xa0\n        /* \"#utility.yul\":14474:14483   */\n      dup4\n        /* \"#utility.yul\":14470:14489   */\n      add\n        /* \"#utility.yul\":14463:14512   */\n      mstore\n        /* \"#utility.yul\":14529:14607   */\n      tag_478\n        /* \"#utility.yul\":14602:14606   */\n      dup2\n        /* \"#utility.yul\":14593:14599   */\n      dup8\n        /* \"#utility.yul\":14529:14607   */\n      tag_343\n      jump\t// in\n    tag_478:\n        /* \"#utility.yul\":14521:14607   */\n      swap1\n      pop\n        /* \"#utility.yul\":14655:14664   */\n      dup2\n        /* \"#utility.yul\":14649:14653   */\n      dup2\n        /* \"#utility.yul\":14645:14665   */\n      sub\n        /* \"#utility.yul\":14639:14642   */\n      0xc0\n        /* \"#utility.yul\":14628:14637   */\n      dup4\n        /* \"#utility.yul\":14624:14643   */\n      add\n        /* \"#utility.yul\":14617:14666   */\n      mstore\n        /* \"#utility.yul\":14683:14761   */\n      tag_479\n        /* \"#utility.yul\":14756:14760   */\n      dup2\n        /* \"#utility.yul\":14747:14753   */\n      dup7\n        /* \"#utility.yul\":14683:14761   */\n      tag_343\n      jump\t// in\n    tag_479:\n        /* \"#utility.yul\":14675:14761   */\n      swap1\n      pop\n        /* \"#utility.yul\":14809:14818   */\n      dup2\n        /* \"#utility.yul\":14803:14807   */\n      dup2\n        /* \"#utility.yul\":14799:14819   */\n      sub\n        /* \"#utility.yul\":14793:14796   */\n      0xe0\n        /* \"#utility.yul\":14782:14791   */\n      dup4\n        /* \"#utility.yul\":14778:14797   */\n      add\n        /* \"#utility.yul\":14771:14820   */\n      mstore\n        /* \"#utility.yul\":14837:14915   */\n      tag_480\n        /* \"#utility.yul\":14910:14914   */\n      dup2\n        /* \"#utility.yul\":14901:14907   */\n      dup6\n        /* \"#utility.yul\":14837:14915   */\n      tag_343\n      jump\t// in\n    tag_480:\n        /* \"#utility.yul\":14829:14915   */\n      swap1\n      pop\n        /* \"#utility.yul\":14925:14998   */\n      tag_481\n        /* \"#utility.yul\":14993:14996   */\n      0x0100\n        /* \"#utility.yul\":14982:14991   */\n      dup4\n        /* \"#utility.yul\":14978:14997   */\n      add\n        /* \"#utility.yul\":14969:14975   */\n      dup5\n        /* \"#utility.yul\":14925:14998   */\n      tag_341\n      jump\t// in\n    tag_481:\n        /* \"#utility.yul\":13260:15005   */\n      swap11\n      swap10\n      pop\n      pop\n      pop\n      pop\n      pop\n      pop\n      pop\n      pop\n      pop\n      pop\n      jump\t// out\n        /* \"#utility.yul\":15011:17620   */\n    tag_31:\n        /* \"#utility.yul\":15203:15209   */\n      0x00\n        /* \"#utility.yul\":15211:15217   */\n      dup1\n        /* \"#utility.yul\":15219:15225   */\n      0x00\n        /* \"#utility.yul\":15227:15233   */\n      dup1\n        /* \"#utility.yul\":15235:15241   */\n      0x00\n        /* \"#utility.yul\":15243:15249   */\n      dup1\n        /* \"#utility.yul\":15251:15257   */\n      0x00\n        /* \"#utility.yul\":15259:15265   */\n      dup1\n        /* \"#utility.yul\":15308:15311   */\n      0x0100\n        /* \"#utility.yul\":15296:15305   */\n      dup10\n        /* \"#utility.yul\":15287:15294   */\n      dup12\n        /* \"#utility.yul\":15283:15306   */\n      sub\n        /* \"#utility.yul\":15279:15312   */\n      slt\n        /* \"#utility.yul\":15276:15396   */\n      iszero\n      tag_483\n      jumpi\n        /* \"#utility.yul\":15315:15394   */\n      tag_484\n      tag_314\n      jump\t// in\n    tag_484:\n        /* \"#utility.yul\":15276:15396   */\n    tag_483:\n        /* \"#utility.yul\":15463:15464   */\n      0x00\n        /* \"#utility.yul\":15452:15461   */\n      dup10\n        /* \"#utility.yul\":15448:15465   */\n      add\n        /* \"#utility.yul\":15435:15466   */\n      calldataload\n        /* \"#utility.yul\":15493:15511   */\n      0xffffffffffffffff\n        /* \"#utility.yul\":15485:15491   */\n      dup2\n        /* \"#utility.yul\":15482:15512   */\n      gt\n        /* \"#utility.yul\":15479:15596   */\n      iszero\n      tag_485\n      jumpi\n        /* \"#utility.yul\":15515:15594   */\n      tag_486\n      tag_315\n      jump\t// in\n    tag_486:\n        /* \"#utility.yul\":15479:15596   */\n    tag_485:\n        /* \"#utility.yul\":15620:15683   */\n      tag_487\n        /* \"#utility.yul\":15675:15682   */\n      dup12\n        /* \"#utility.yul\":15666:15672   */\n      dup3\n        /* \"#utility.yul\":15655:15664   */\n      dup13\n        /* \"#utility.yul\":15651:15673   */\n      add\n        /* \"#utility.yul\":15620:15683   */\n      tag_333\n      jump\t// in\n    tag_487:\n        /* \"#utility.yul\":15610:15683   */\n      swap9\n      pop\n        /* \"#utility.yul\":15406:15693   */\n      pop\n        /* \"#utility.yul\":15760:15762   */\n      0x20\n        /* \"#utility.yul\":15749:15758   */\n      dup10\n        /* \"#utility.yul\":15745:15763   */\n      add\n        /* \"#utility.yul\":15732:15764   */\n      calldataload\n        /* \"#utility.yul\":15791:15809   */\n      0xffffffffffffffff\n        /* \"#utility.yul\":15783:15789   */\n      dup2\n        /* \"#utility.yul\":15780:15810   */\n      gt\n        /* \"#utility.yul\":15777:15894   */\n      iszero\n      tag_488\n      jumpi\n        /* \"#utility.yul\":15813:15892   */\n      tag_489\n      tag_315\n      jump\t// in\n    tag_489:\n        /* \"#utility.yul\":15777:15894   */\n    tag_488:\n        /* \"#utility.yul\":15918:15981   */\n      tag_490\n        /* \"#utility.yul\":15973:15980   */\n      dup12\n        /* \"#utility.yul\":15964:15970   */\n      dup3\n        /* \"#utility.yul\":15953:15962   */\n      dup13\n        /* \"#utility.yul\":15949:15971   */\n      add\n        /* \"#utility.yul\":15918:15981   */\n      tag_333\n      jump\t// in\n    tag_490:\n        /* \"#utility.yul\":15908:15981   */\n      swap8\n      pop\n        /* \"#utility.yul\":15703:15991   */\n      pop\n        /* \"#utility.yul\":16058:16060   */\n      0x40\n        /* \"#utility.yul\":16047:16056   */\n      dup10\n        /* \"#utility.yul\":16043:16061   */\n      add\n        /* \"#utility.yul\":16030:16062   */\n      calldataload\n        /* \"#utility.yul\":16089:16107   */\n      0xffffffffffffffff\n        /* \"#utility.yul\":16081:16087   */\n      dup2\n        /* \"#utility.yul\":16078:16108   */\n      gt\n        /* \"#utility.yul\":16075:16192   */\n      iszero\n      tag_491\n      jumpi\n        /* \"#utility.yul\":16111:16190   */\n      tag_492\n      tag_315\n      jump\t// in\n    tag_492:\n        /* \"#utility.yul\":16075:16192   */\n    tag_491:\n        /* \"#utility.yul\":16216:16279   */\n      tag_493\n        /* \"#utility.yul\":16271:16278   */\n      dup12\n        /* \"#utility.yul\":16262:16268   */\n      dup3\n        /* \"#utility.yul\":16251:16260   */\n      dup13\n        /* \"#utility.yul\":16247:16269   */\n      add\n        /* \"#utility.yul\":16216:16279   */\n      tag_333\n      jump\t// in\n    tag_493:\n        /* \"#utility.yul\":16206:16279   */\n      swap7\n      pop\n        /* \"#utility.yul\":16001:16289   */\n      pop\n        /* \"#utility.yul\":16356:16358   */\n      0x60\n        /* \"#utility.yul\":16345:16354   */\n      dup10\n        /* \"#utility.yul\":16341:16359   */\n      add\n        /* \"#utility.yul\":16328:16360   */\n      calldataload\n        /* \"#utility.yul\":16387:16405   */\n      0xffffffffffffffff\n        /* \"#utility.yul\":16379:16385   */\n      dup2\n        /* \"#utility.yul\":16376:16406   */\n      gt\n        /* \"#utility.yul\":16373:16490   */\n      iszero\n      tag_494\n      jumpi\n        /* \"#utility.yul\":16409:16488   */\n      tag_495\n      tag_315\n      jump\t// in\n    tag_495:\n        /* \"#utility.yul\":16373:16490   */\n    tag_494:\n        /* \"#utility.yul\":16514:16577   */\n      tag_496\n        /* \"#utility.yul\":16569:16576   */\n      dup12\n        /* \"#utility.yul\":16560:16566   */\n      dup3\n        /* \"#utility.yul\":16549:16558   */\n      dup13\n        /* \"#utility.yul\":16545:16567   */\n      add\n        /* \"#utility.yul\":16514:16577   */\n      tag_333\n      jump\t// in\n    tag_496:\n        /* \"#utility.yul\":16504:16577   */\n      swap6\n      pop\n        /* \"#utility.yul\":16299:16587   */\n      pop\n        /* \"#utility.yul\":16654:16657   */\n      0x80\n        /* \"#utility.yul\":16643:16652   */\n      dup10\n        /* \"#utility.yul\":16639:16658   */\n      add\n        /* \"#utility.yul\":16626:16659   */\n      calldataload\n        /* \"#utility.yul\":16686:16704   */\n      0xffffffffffffffff\n        /* \"#utility.yul\":16678:16684   */\n      dup2\n        /* \"#utility.yul\":16675:16705   */\n      gt\n        /* \"#utility.yul\":16672:16789   */\n      iszero\n      tag_497\n      jumpi\n        /* \"#utility.yul\":16708:16787   */\n      tag_498\n      tag_315\n      jump\t// in\n    tag_498:\n        /* \"#utility.yul\":16672:16789   */\n    tag_497:\n        /* \"#utility.yul\":16813:16876   */\n      tag_499\n        /* \"#utility.yul\":16868:16875   */\n      dup12\n        /* \"#utility.yul\":16859:16865   */\n      dup3\n        /* \"#utility.yul\":16848:16857   */\n      dup13\n        /* \"#utility.yul\":16844:16866   */\n      add\n        /* \"#utility.yul\":16813:16876   */\n      tag_333\n      jump\t// in\n    tag_499:\n        /* \"#utility.yul\":16803:16876   */\n      swap5\n      pop\n        /* \"#utility.yul\":16597:16886   */\n      pop\n        /* \"#utility.yul\":16953:16956   */\n      0xa0\n        /* \"#utility.yul\":16942:16951   */\n      dup10\n        /* \"#utility.yul\":16938:16957   */\n      add\n        /* \"#utility.yul\":16925:16958   */\n      calldataload\n        /* \"#utility.yul\":16985:17003   */\n      0xffffffffffffffff\n        /* \"#utility.yul\":16977:16983   */\n      dup2\n        /* \"#utility.yul\":16974:17004   */\n      gt\n        /* \"#utility.yul\":16971:17088   */\n      iszero\n      tag_500\n      jumpi\n        /* \"#utility.yul\":17007:17086   */\n      tag_501\n      tag_315\n      jump\t// in\n    tag_501:\n        /* \"#utility.yul\":16971:17088   */\n    tag_500:\n        /* \"#utility.yul\":17112:17175   */\n      tag_502\n        /* \"#utility.yul\":17167:17174   */\n      dup12\n        /* \"#utility.yul\":17158:17164   */\n      dup3\n        /* \"#utility.yul\":17147:17156   */\n      dup13\n        /* \"#utility.yul\":17143:17165   */\n      add\n        /* \"#utility.yul\":17112:17175   */\n      tag_333\n      jump\t// in\n    tag_502:\n        /* \"#utility.yul\":17102:17175   */\n      swap4\n      pop\n        /* \"#utility.yul\":16896:17185   */\n      pop\n        /* \"#utility.yul\":17252:17255   */\n      0xc0\n        /* \"#utility.yul\":17241:17250   */\n      dup10\n        /* \"#utility.yul\":17237:17256   */\n      add\n        /* \"#utility.yul\":17224:17257   */\n      calldataload\n        /* \"#utility.yul\":17284:17302   */\n      0xffffffffffffffff\n        /* \"#utility.yul\":17276:17282   */\n      dup2\n        /* \"#utility.yul\":17273:17303   */\n      gt\n        /* \"#utility.yul\":17270:17387   */\n      iszero\n      tag_503\n      jumpi\n        /* \"#utility.yul\":17306:17385   */\n      tag_504\n      tag_315\n      jump\t// in\n    tag_504:\n        /* \"#utility.yul\":17270:17387   */\n    tag_503:\n        /* \"#utility.yul\":17411:17474   */\n      tag_505\n        /* \"#utility.yul\":17466:17473   */\n      dup12\n        /* \"#utility.yul\":17457:17463   */\n      dup3\n        /* \"#utility.yul\":17446:17455   */\n      dup13\n        /* \"#utility.yul\":17442:17464   */\n      add\n        /* \"#utility.yul\":17411:17474   */\n      tag_333\n      jump\t// in\n    tag_505:\n        /* \"#utility.yul\":17401:17474   */\n      swap3\n      pop\n        /* \"#utility.yul\":17195:17484   */\n      pop\n        /* \"#utility.yul\":17523:17526   */\n      0xe0\n        /* \"#utility.yul\":17550:17603   */\n      tag_506\n        /* \"#utility.yul\":17595:17602   */\n      dup12\n        /* \"#utility.yul\":17586:17592   */\n      dup3\n        /* \"#utility.yul\":17575:17584   */\n      dup13\n        /* \"#utility.yul\":17571:17593   */\n      add\n        /* \"#utility.yul\":17550:17603   */\n      tag_318\n      jump\t// in\n    tag_506:\n        /* \"#utility.yul\":17540:17603   */\n      swap2\n      pop\n        /* \"#utility.yul\":17494:17613   */\n      pop\n        /* \"#utility.yul\":15011:17620   */\n      swap3\n      swap6\n      swap9\n      pop\n      swap3\n      swap6\n      swap9\n      swap1\n      swap4\n      swap7\n      pop\n      jump\t// out\n        /* \"#utility.yul\":17626:17848   */\n    tag_39:\n        /* \"#utility.yul\":17719:17723   */\n      0x00\n        /* \"#utility.yul\":17757:17759   */\n      0x20\n        /* \"#utility.yul\":17746:17755   */\n      dup3\n        /* \"#utility.yul\":17742:17760   */\n      add\n        /* \"#utility.yul\":17734:17760   */\n      swap1\n      pop\n        /* \"#utility.yul\":17770:17841   */\n      tag_508\n        /* \"#utility.yul\":17838:17839   */\n      0x00\n        /* \"#utility.yul\":17827:17836   */\n      dup4\n        /* \"#utility.yul\":17823:17840   */\n      add\n        /* \"#utility.yul\":17814:17820   */\n      dup5\n        /* \"#utility.yul\":17770:17841   */\n      tag_341\n      jump\t// in\n    tag_508:\n        /* \"#utility.yul\":17626:17848   */\n      swap3\n      swap2\n      pop\n      pop\n      jump\t// out\n        /* \"#utility.yul\":17854:18653   */\n    tag_42:\n        /* \"#utility.yul\":17941:17947   */\n      0x00\n        /* \"#utility.yul\":17949:17955   */\n      dup1\n        /* \"#utility.yul\":17957:17963   */\n      0x00\n        /* \"#utility.yul\":18006:18008   */\n      0x60\n        /* \"#utility.yul\":17994:18003   */\n      dup5\n        /* \"#utility.yul\":17985:17992   */\n      dup7\n        /* \"#utility.yul\":17981:18004   */\n      sub\n        /* \"#utility.yul\":17977:18009   */\n      slt\n        /* \"#utility.yul\":17974:18093   */\n      iszero\n      tag_510\n      jumpi\n        /* \"#utility.yul\":18012:18091   */\n      tag_511\n      tag_314\n      jump\t// in\n    tag_511:\n        /* \"#utility.yul\":17974:18093   */\n    tag_510:\n        /* \"#utility.yul\":18132:18133   */\n      0x00\n        /* \"#utility.yul\":18157:18210   */\n      tag_512\n        /* \"#utility.yul\":18202:18209   */\n      dup7\n        /* \"#utility.yul\":18193:18199   */\n      dup3\n        /* \"#utility.yul\":18182:18191   */\n      dup8\n        /* \"#utility.yul\":18178:18200   */\n      add\n        /* \"#utility.yul\":18157:18210   */\n      tag_318\n      jump\t// in\n    tag_512:\n        /* \"#utility.yul\":18147:18210   */\n      swap4\n      pop\n        /* \"#utility.yul\":18103:18220   */\n      pop\n        /* \"#utility.yul\":18287:18289   */\n      0x20\n        /* \"#utility.yul\":18276:18285   */\n      dup5\n        /* \"#utility.yul\":18272:18290   */\n      add\n        /* \"#utility.yul\":18259:18291   */\n      calldataload\n        /* \"#utility.yul\":18318:18336   */\n      0xffffffffffffffff\n        /* \"#utility.yul\":18310:18316   */\n      dup2\n        /* \"#utility.yul\":18307:18337   */\n      gt\n        /* \"#utility.yul\":18304:18421   */\n      iszero\n      tag_513\n      jumpi\n        /* \"#utility.yul\":18340:18419   */\n      tag_514\n      tag_315\n      jump\t// in\n    tag_514:\n        /* \"#utility.yul\":18304:18421   */\n    tag_513:\n        /* \"#utility.yul\":18445:18508   */\n      tag_515\n        /* \"#utility.yul\":18500:18507   */\n      dup7\n        /* \"#utility.yul\":18491:18497   */\n      dup3\n        /* \"#utility.yul\":18480:18489   */\n      dup8\n        /* \"#utility.yul\":18476:18498   */\n      add\n        /* \"#utility.yul\":18445:18508   */\n      tag_333\n      jump\t// in\n    tag_515:\n        /* \"#utility.yul\":18435:18508   */\n      swap3\n      pop\n        /* \"#utility.yul\":18230:18518   */\n      pop\n        /* \"#utility.yul\":18557:18559   */\n      0x40\n        /* \"#utility.yul\":18583:18636   */\n      tag_516\n        /* \"#utility.yul\":18628:18635   */\n      dup7\n        /* \"#utility.yul\":18619:18625   */\n      dup3\n        /* \"#utility.yul\":18608:18617   */\n      dup8\n        /* \"#utility.yul\":18604:18626   */\n      add\n        /* \"#utility.yul\":18583:18636   */\n      tag_318\n      jump\t// in\n    tag_516:\n        /* \"#utility.yul\":18573:18636   */\n      swap2\n      pop\n        /* \"#utility.yul\":18528:18646   */\n      pop\n        /* \"#utility.yul\":17854:18653   */\n      swap3\n      pop\n      swap3\n      pop\n      swap3\n      jump\t// out\n        /* \"#utility.yul\":18659:18839   */\n    tag_344:\n        /* \"#utility.yul\":18707:18784   */\n      0x4e487b7100000000000000000000000000000000000000000000000000000000\n        /* \"#utility.yul\":18704:18705   */\n      0x00\n        /* \"#utility.yul\":18697:18785   */\n      mstore\n        /* \"#utility.yul\":18804:18808   */\n      0x22\n        /* \"#utility.yul\":18801:18802   */\n      0x04\n        /* \"#utility.yul\":18794:18809   */\n      mstore\n        /* \"#utility.yul\":18828:18832   */\n      0x24\n        /* \"#utility.yul\":18825:18826   */\n      0x00\n        /* \"#utility.yul\":18818:18833   */\n      revert\n        /* \"#utility.yul\":18845:19165   */\n    tag_52:\n        /* \"#utility.yul\":18889:18895   */\n      0x00\n        /* \"#utility.yul\":18926:18927   */\n      0x02\n        /* \"#utility.yul\":18920:18924   */\n      dup3\n        /* \"#utility.yul\":18916:18928   */\n      div\n        /* \"#utility.yul\":18906:18928   */\n      swap1\n      pop\n        /* \"#utility.yul\":18973:18974   */\n      0x01\n        /* \"#utility.yul\":18967:18971   */\n      dup3\n        /* \"#utility.yul\":18963:18975   */\n      and\n        /* \"#utility.yul\":18994:19012   */\n      dup1\n        /* \"#utility.yul\":18984:19065   */\n      tag_519\n      jumpi\n        /* \"#utility.yul\":19050:19054   */\n      0x7f\n        /* \"#utility.yul\":19042:19048   */\n      dup3\n        /* \"#utility.yul\":19038:19055   */\n      and\n        /* \"#utility.yul\":19028:19055   */\n      swap2\n      pop\n        /* \"#utility.yul\":18984:19065   */\n    tag_519:\n        /* \"#utility.yul\":19112:19114   */\n      0x20\n        /* \"#utility.yul\":19104:19110   */\n      dup3\n        /* \"#utility.yul\":19101:19115   */\n      lt\n        /* \"#utility.yul\":19081:19099   */\n      dup2\n        /* \"#utility.yul\":19078:19116   */\n      sub\n        /* \"#utility.yul\":19075:19159   */\n      tag_520\n      jumpi\n        /* \"#utility.yul\":19131:19149   */\n      tag_521\n      tag_344\n      jump\t// in\n    tag_521:\n        /* \"#utility.yul\":19075:19159   */\n    tag_520:\n        /* \"#utility.yul\":18896:19165   */\n      pop\n        /* \"#utility.yul\":18845:19165   */\n      swap2\n      swap1\n      pop\n      jump\t// out\n        /* \"#utility.yul\":19171:19319   */\n    tag_345:\n        /* \"#utility.yul\":19273:19284   */\n      0x00\n        /* \"#utility.yul\":19310:19313   */\n      dup2\n        /* \"#utility.yul\":19295:19313   */\n      swap1\n      pop\n        /* \"#utility.yul\":19171:19319   */\n      swap3\n      swap2\n      pop\n      pop\n      jump\t// out\n        /* \"#utility.yul\":19325:19715   */\n    tag_346:\n        /* \"#utility.yul\":19431:19434   */\n      0x00\n        /* \"#utility.yul\":19459:19498   */\n      tag_524\n        /* \"#utility.yul\":19492:19497   */\n      dup3\n        /* \"#utility.yul\":19459:19498   */\n      tag_320\n      jump\t// in\n    tag_524:\n        /* \"#utility.yul\":19514:19603   */\n      tag_525\n        /* \"#utility.yul\":19596:19602   */\n      dup2\n        /* \"#utility.yul\":19591:19594   */\n      dup6\n        /* \"#utility.yul\":19514:19603   */\n      tag_345\n      jump\t// in\n    tag_525:\n        /* \"#utility.yul\":19507:19603   */\n      swap4\n      pop\n        /* \"#utility.yul\":19612:19677   */\n      tag_526\n        /* \"#utility.yul\":19670:19676   */\n      dup2\n        /* \"#utility.yul\":19665:19668   */\n      dup6\n        /* \"#utility.yul\":19658:19662   */\n      0x20\n        /* \"#utility.yul\":19651:19656   */\n      dup7\n        /* \"#utility.yul\":19647:19663   */\n      add\n        /* \"#utility.yul\":19612:19677   */\n      tag_322\n      jump\t// in\n    tag_526:\n        /* \"#utility.yul\":19702:19708   */\n      dup1\n        /* \"#utility.yul\":19697:19700   */\n      dup5\n        /* \"#utility.yul\":19693:19709   */\n      add\n        /* \"#utility.yul\":19686:19709   */\n      swap2\n      pop\n        /* \"#utility.yul\":19435:19715   */\n      pop\n        /* \"#utility.yul\":19325:19715   */\n      swap3\n      swap2\n      pop\n      pop\n      jump\t// out\n        /* \"#utility.yul\":19721:19996   */\n    tag_92:\n        /* \"#utility.yul\":19853:19856   */\n      0x00\n        /* \"#utility.yul\":19875:19970   */\n      tag_528\n        /* \"#utility.yul\":19966:19969   */\n      dup3\n        /* \"#utility.yul\":19957:19963   */\n      dup5\n        /* \"#utility.yul\":19875:19970   */\n      tag_346\n      jump\t// in\n    tag_528:\n        /* \"#utility.yul\":19868:19970   */\n      swap2\n      pop\n        /* \"#utility.yul\":19987:19990   */\n      dup2\n        /* \"#utility.yul\":19980:19990   */\n      swap1\n      pop\n        /* \"#utility.yul\":19721:19996   */\n      swap3\n      swap2\n      pop\n      pop\n      jump\t// out\n        /* \"#utility.yul\":20002:20143   */\n    tag_347:\n        /* \"#utility.yul\":20051:20055   */\n      0x00\n        /* \"#utility.yul\":20074:20077   */\n      dup2\n        /* \"#utility.yul\":20066:20077   */\n      swap1\n      pop\n        /* \"#utility.yul\":20097:20100   */\n      dup2\n        /* \"#utility.yul\":20094:20095   */\n      0x00\n        /* \"#utility.yul\":20087:20101   */\n      mstore\n        /* \"#utility.yul\":20131:20135   */\n      0x20\n        /* \"#utility.yul\":20128:20129   */\n      0x00\n        /* \"#utility.yul\":20118:20136   */\n      keccak256\n        /* \"#utility.yul\":20110:20136   */\n      swap1\n      pop\n        /* \"#utility.yul\":20002:20143   */\n      swap2\n      swap1\n      pop\n      jump\t// out\n        /* \"#utility.yul\":20173:21047   */\n    tag_348:\n        /* \"#utility.yul\":20276:20279   */\n      0x00\n        /* \"#utility.yul\":20313:20318   */\n      dup2\n        /* \"#utility.yul\":20307:20319   */\n      sload\n        /* \"#utility.yul\":20342:20378   */\n      tag_531\n        /* \"#utility.yul\":20368:20377   */\n      dup2\n        /* \"#utility.yul\":20342:20378   */\n      tag_52\n      jump\t// in\n    tag_531:\n        /* \"#utility.yul\":20394:20483   */\n      tag_532\n        /* \"#utility.yul\":20476:20482   */\n      dup2\n        /* \"#utility.yul\":20471:20474   */\n      dup7\n        /* \"#utility.yul\":20394:20483   */\n      tag_345\n      jump\t// in\n    tag_532:\n        /* \"#utility.yul\":20387:20483   */\n      swap5\n      pop\n        /* \"#utility.yul\":20514:20515   */\n      0x01\n        /* \"#utility.yul\":20503:20512   */\n      dup3\n        /* \"#utility.yul\":20499:20516   */\n      and\n        /* \"#utility.yul\":20530:20531   */\n      0x00\n        /* \"#utility.yul\":20525:20691   */\n      dup2\n      eq\n      tag_534\n      jumpi\n        /* \"#utility.yul\":20705:20706   */\n      0x01\n        /* \"#utility.yul\":20700:21041   */\n      dup2\n      eq\n      tag_535\n      jumpi\n        /* \"#utility.yul\":20492:21041   */\n      jump(tag_533)\n        /* \"#utility.yul\":20525:20691   */\n    tag_534:\n        /* \"#utility.yul\":20609:20613   */\n      0xff\n        /* \"#utility.yul\":20605:20614   */\n      not\n        /* \"#utility.yul\":20594:20603   */\n      dup4\n        /* \"#utility.yul\":20590:20615   */\n      and\n        /* \"#utility.yul\":20585:20588   */\n      dup7\n        /* \"#utility.yul\":20578:20616   */\n      mstore\n        /* \"#utility.yul\":20671:20677   */\n      dup2\n        /* \"#utility.yul\":20664:20678   */\n      iszero\n        /* \"#utility.yul\":20657:20679   */\n      iszero\n        /* \"#utility.yul\":20649:20655   */\n      dup3\n        /* \"#utility.yul\":20645:20680   */\n      mul\n        /* \"#utility.yul\":20640:20643   */\n      dup7\n        /* \"#utility.yul\":20636:20681   */\n      add\n        /* \"#utility.yul\":20629:20681   */\n      swap4\n      pop\n        /* \"#utility.yul\":20525:20691   */\n      jump(tag_533)\n        /* \"#utility.yul\":20700:21041   */\n    tag_535:\n        /* \"#utility.yul\":20767:20805   */\n      tag_536\n        /* \"#utility.yul\":20799:20804   */\n      dup6\n        /* \"#utility.yul\":20767:20805   */\n      tag_347\n      jump\t// in\n    tag_536:\n        /* \"#utility.yul\":20827:20828   */\n      0x00\n        /* \"#utility.yul\":20841:20995   */\n    tag_537:\n        /* \"#utility.yul\":20855:20861   */\n      dup4\n        /* \"#utility.yul\":20852:20853   */\n      dup2\n        /* \"#utility.yul\":20849:20862   */\n      lt\n        /* \"#utility.yul\":20841:20995   */\n      iszero\n      tag_539\n      jumpi\n        /* \"#utility.yul\":20929:20936   */\n      dup2\n        /* \"#utility.yul\":20923:20937   */\n      sload\n        /* \"#utility.yul\":20919:20920   */\n      dup2\n        /* \"#utility.yul\":20914:20917   */\n      dup10\n        /* \"#utility.yul\":20910:20921   */\n      add\n        /* \"#utility.yul\":20903:20938   */\n      mstore\n        /* \"#utility.yul\":20979:20980   */\n      0x01\n        /* \"#utility.yul\":20970:20977   */\n      dup3\n        /* \"#utility.yul\":20966:20981   */\n      add\n        /* \"#utility.yul\":20955:20981   */\n      swap2\n      pop\n        /* \"#utility.yul\":20877:20881   */\n      0x20\n        /* \"#utility.yul\":20874:20875   */\n      dup2\n        /* \"#utility.yul\":20870:20882   */\n      add\n        /* \"#utility.yul\":20865:20882   */\n      swap1\n      pop\n        /* \"#utility.yul\":20841:20995   */\n      jump(tag_537)\n    tag_539:\n        /* \"#utility.yul\":21024:21030   */\n      dup4\n        /* \"#utility.yul\":21019:21022   */\n      dup9\n        /* \"#utility.yul\":21015:21031   */\n      add\n        /* \"#utility.yul\":21008:21031   */\n      swap6\n      pop\n        /* \"#utility.yul\":20707:21041   */\n      pop\n      pop\n        /* \"#utility.yul\":20492:21041   */\n    tag_533:\n      pop\n        /* \"#utility.yul\":20280:21047   */\n      pop\n      pop\n        /* \"#utility.yul\":20173:21047   */\n      swap3\n      swap2\n      pop\n      pop\n      jump\t// out\n        /* \"#utility.yul\":21053:21322   */\n    tag_94:\n        /* \"#utility.yul\":21182:21185   */\n      0x00\n        /* \"#utility.yul\":21204:21296   */\n      tag_541\n        /* \"#utility.yul\":21292:21295   */\n      dup3\n        /* \"#utility.yul\":21283:21289   */\n      dup5\n        /* \"#utility.yul\":21204:21296   */\n      tag_348\n      jump\t// in\n    tag_541:\n        /* \"#utility.yul\":21197:21296   */\n      swap2\n      pop\n        /* \"#utility.yul\":21313:21316   */\n      dup2\n        /* \"#utility.yul\":21306:21316   */\n      swap1\n      pop\n        /* \"#utility.yul\":21053:21322   */\n      swap3\n      swap2\n      pop\n      pop\n      jump\t// out\n        /* \"#utility.yul\":21328:21508   */\n    tag_349:\n        /* \"#utility.yul\":21376:21453   */\n      0x4e487b7100000000000000000000000000000000000000000000000000000000\n        /* \"#utility.yul\":21373:21374   */\n      0x00\n        /* \"#utility.yul\":21366:21454   */\n      mstore\n        /* \"#utility.yul\":21473:21477   */\n      0x11\n        /* \"#utility.yul\":21470:21471   */\n      0x04\n        /* \"#utility.yul\":21463:21478   */\n      mstore\n        /* \"#utility.yul\":21497:21501   */\n      0x24\n        /* \"#utility.yul\":21494:21495   */\n      0x00\n        /* \"#utility.yul\":21487:21502   */\n      revert\n        /* \"#utility.yul\":21514:21747   */\n    tag_97:\n        /* \"#utility.yul\":21553:21556   */\n      0x00\n        /* \"#utility.yul\":21576:21600   */\n      tag_544\n        /* \"#utility.yul\":21594:21599   */\n      dup3\n        /* \"#utility.yul\":21576:21600   */\n      tag_316\n      jump\t// in\n    tag_544:\n        /* \"#utility.yul\":21567:21600   */\n      swap2\n      pop\n        /* \"#utility.yul\":21622:21688   */\n      0xffffffffffffffffffffffffffffffffffffffffffffffffffffffffffffffff\n        /* \"#utility.yul\":21615:21620   */\n      dup3\n        /* \"#utility.yul\":21612:21689   */\n      sub\n        /* \"#utility.yul\":21609:21712   */\n      tag_545\n      jumpi\n        /* \"#utility.yul\":21692:21710   */\n      tag_546\n      tag_349\n      jump\t// in\n    tag_546:\n        /* \"#utility.yul\":21609:21712   */\n    tag_545:\n        /* \"#utility.yul\":21739:21740   */\n      0x01\n        /* \"#utility.yul\":21732:21737   */\n      dup3\n        /* \"#utility.yul\":21728:21741   */\n      add\n        /* \"#utility.yul\":21721:21741   */\n      swap1\n      pop\n        /* \"#utility.yul\":21514:21747   */\n      swap2\n      swap1\n      pop\n      jump\t// out\n        /* \"#utility.yul\":21753:21933   */\n    tag_148:\n        /* \"#utility.yul\":21801:21878   */\n      0x4e487b7100000000000000000000000000000000000000000000000000000000\n        /* \"#utility.yul\":21798:21799   */\n      0x00\n        /* \"#utility.yul\":21791:21879   */\n      mstore\n        /* \"#utility.yul\":21898:21902   */\n      0x32\n        /* \"#utility.yul\":21895:21896   */\n      0x04\n        /* \"#utility.yul\":21888:21903   */\n      mstore\n        /* \"#utility.yul\":21922:21926   */\n      0x24\n        /* \"#utility.yul\":21919:21920   */\n      0x00\n        /* \"#utility.yul\":21912:21927   */\n      revert\n        /* \"#utility.yul\":21939:22032   */\n    tag_350:\n        /* \"#utility.yul\":21976:21982   */\n      0x00\n        /* \"#utility.yul\":22023:22025   */\n      0x20\n        /* \"#utility.yul\":22018:22020   */\n      0x1f\n        /* \"#utility.yul\":22011:22016   */\n      dup4\n        /* \"#utility.yul\":22007:22021   */\n      add\n        /* \"#utility.yul\":22003:22026   */\n      div\n        /* \"#utility.yul\":21993:22026   */\n      swap1\n      pop\n        /* \"#utility.yul\":21939:22032   */\n      swap2\n      swap1\n      pop\n      jump\t// out\n        /* \"#utility.yul\":22038:22145   */\n    tag_351:\n        /* \"#utility.yul\":22082:22090   */\n      0x00\n        /* \"#utility.yul\":22132:22137   */\n      dup3\n        /* \"#utility.yul\":22126:22130   */\n      dup3\n        /* \"#utility.yul\":22122:22138   */\n      shl\n        /* \"#utility.yul\":22101:22138   */\n      swap1\n      pop\n        /* \"#utility.yul\":22038:22145   */\n      swap3\n      swap2\n      pop\n      pop\n      jump\t// out\n        /* \"#utility.yul\":22151:22544   */\n    tag_352:\n        /* \"#utility.yul\":22220:22226   */\n      0x00\n        /* \"#utility.yul\":22270:22271   */\n      0x08\n        /* \"#utility.yul\":22258:22268   */\n      dup4\n        /* \"#utility.yul\":22254:22272   */\n      mul\n        /* \"#utility.yul\":22293:22390   */\n      tag_551\n        /* \"#utility.yul\":22323:22389   */\n      0xffffffffffffffffffffffffffffffffffffffffffffffffffffffffffffffff\n        /* \"#utility.yul\":22312:22321   */\n      dup3\n        /* \"#utility.yul\":22293:22390   */\n      tag_351\n      jump\t// in\n    tag_551:\n        /* \"#utility.yul\":22411:22450   */\n      tag_552\n        /* \"#utility.yul\":22441:22449   */\n      dup7\n        /* \"#utility.yul\":22430:22439   */\n      dup4\n        /* \"#utility.yul\":22411:22450   */\n      tag_351\n      jump\t// in\n    tag_552:\n        /* \"#utility.yul\":22399:22450   */\n      swap6\n      pop\n        /* \"#utility.yul\":22483:22487   */\n      dup1\n        /* \"#utility.yul\":22479:22488   */\n      not\n        /* \"#utility.yul\":22472:22477   */\n      dup5\n        /* \"#utility.yul\":22468:22489   */\n      and\n        /* \"#utility.yul\":22459:22489   */\n      swap4\n      pop\n        /* \"#utility.yul\":22532:22536   */\n      dup1\n        /* \"#utility.yul\":22522:22530   */\n      dup7\n        /* \"#utility.yul\":22518:22537   */\n      and\n        /* \"#utility.yul\":22511:22516   */\n      dup5\n        /* \"#utility.yul\":22508:22538   */\n      or\n        /* \"#utility.yul\":22498:22538   */\n      swap3\n      pop\n        /* \"#utility.yul\":22227:22544   */\n      pop\n      pop\n        /* \"#utility.yul\":22151:22544   */\n      swap4\n      swap3\n      pop\n      pop\n      pop\n      jump\t// out\n        /* \"#utility.yul\":22550:22610   */\n    tag_353:\n        /* \"#utility.yul\":22578:22581   */\n      0x00\n        /* \"#utility.yul\":22599:22604   */\n      dup2\n        /* \"#utility.yul\":22592:22604   */\n      swap1\n      pop\n        /* \"#utility.yul\":22550:22610   */\n      swap2\n      swap1\n      pop\n      jump\t// out\n        /* \"#utility.yul\":22616:22758   */\n    tag_354:\n        /* \"#utility.yul\":22666:22675   */\n      0x00\n        /* \"#utility.yul\":22699:22752   */\n      tag_555\n        /* \"#utility.yul\":22717:22751   */\n      tag_556\n        /* \"#utility.yul\":22726:22750   */\n      tag_557\n        /* \"#utility.yul\":22744:22749   */\n      dup5\n        /* \"#utility.yul\":22726:22750   */\n      tag_316\n      jump\t// in\n    tag_557:\n        /* \"#utility.yul\":22717:22751   */\n      tag_353\n      jump\t// in\n    tag_556:\n        /* \"#utility.yul\":22699:22752   */\n      tag_316\n      jump\t// in\n    tag_555:\n        /* \"#utility.yul\":22686:22752   */\n      swap1\n      pop\n        /* \"#utility.yul\":22616:22758   */\n      swap2\n      swap1\n      pop\n      jump\t// out\n        /* \"#utility.yul\":22764:22839   */\n    tag_355:\n        /* \"#utility.yul\":22807:22810   */\n      0x00\n        /* \"#utility.yul\":22828:22833   */\n      dup2\n        /* \"#utility.yul\":22821:22833   */\n      swap1\n      pop\n        /* \"#utility.yul\":22764:22839   */\n      swap2\n      swap1\n      pop\n      jump\t// out\n        /* \"#utility.yul\":22845:23114   */\n    tag_356:\n        /* \"#utility.yul\":22955:22994   */\n      tag_560\n        /* \"#utility.yul\":22986:22993   */\n      dup4\n        /* \"#utility.yul\":22955:22994   */\n      tag_354\n      jump\t// in\n    tag_560:\n        /* \"#utility.yul\":23016:23107   */\n      tag_561\n        /* \"#utility.yul\":23065:23106   */\n      tag_562\n        /* \"#utility.yul\":23089:23105   */\n      dup3\n        /* \"#utility.yul\":23065:23106   */\n      tag_355\n      jump\t// in\n    tag_562:\n        /* \"#utility.yul\":23057:23063   */\n      dup5\n        /* \"#utility.yul\":23050:23054   */\n      dup5\n        /* \"#utility.yul\":23044:23055   */\n      sload\n        /* \"#utility.yul\":23016:23107   */\n      tag_352\n      jump\t// in\n    tag_561:\n        /* \"#utility.yul\":23010:23014   */\n      dup3\n        /* \"#utility.yul\":23003:23108   */\n      sstore\n        /* \"#utility.yul\":22921:23114   */\n      pop\n        /* \"#utility.yul\":22845:23114   */\n      pop\n      pop\n      pop\n      jump\t// out\n        /* \"#utility.yul\":23120:23193   */\n    tag_357:\n        /* \"#utility.yul\":23165:23168   */\n      0x00\n        /* \"#utility.yul\":23120:23193   */\n      swap1\n      jump\t// out\n        /* \"#utility.yul\":23199:23388   */\n    tag_358:\n        /* \"#utility.yul\":23276:23308   */\n      tag_565\n      tag_357\n      jump\t// in\n    tag_565:\n        /* \"#utility.yul\":23317:23382   */\n      tag_566\n        /* \"#utility.yul\":23375:23381   */\n      dup2\n        /* \"#utility.yul\":23367:23373   */\n      dup5\n        /* \"#utility.yul\":23361:23365   */\n      dup5\n        /* \"#utility.yul\":23317:23382   */\n      tag_356\n      jump\t// in\n    tag_566:\n        /* \"#utility.yul\":23252:23388   */\n      pop\n        /* \"#utility.yul\":23199:23388   */\n      pop\n      pop\n      jump\t// out\n        /* \"#utility.yul\":23394:23580   */\n    tag_359:\n        /* \"#utility.yul\":23454:23574   */\n    tag_568:\n        /* \"#utility.yul\":23471:23474   */\n      dup2\n        /* \"#utility.yul\":23464:23469   */\n      dup2\n        /* \"#utility.yul\":23461:23475   */\n      lt\n        /* \"#utility.yul\":23454:23574   */\n      iszero\n      tag_570\n      jumpi\n        /* \"#utility.yul\":23525:23564   */\n      tag_571\n        /* \"#utility.yul\":23562:23563   */\n      0x00\n        /* \"#utility.yul\":23555:23560   */\n      dup3\n        /* \"#utility.yul\":23525:23564   */\n      tag_358\n      jump\t// in\n    tag_571:\n        /* \"#utility.yul\":23498:23499   */\n      0x01\n        /* \"#utility.yul\":23491:23496   */\n      dup2\n        /* \"#utility.yul\":23487:23500   */\n      add\n        /* \"#utility.yul\":23478:23500   */\n      swap1\n      pop\n        /* \"#utility.yul\":23454:23574   */\n      jump(tag_568)\n    tag_570:\n        /* \"#utility.yul\":23394:23580   */\n      pop\n      pop\n      jump\t// out\n        /* \"#utility.yul\":23586:24129   */\n    tag_360:\n        /* \"#utility.yul\":23687:23689   */\n      0x1f\n        /* \"#utility.yul\":23682:23685   */\n      dup3\n        /* \"#utility.yul\":23679:23690   */\n      gt\n        /* \"#utility.yul\":23676:24122   */\n      iszero\n      tag_573\n      jumpi\n        /* \"#utility.yul\":23721:23759   */\n      tag_574\n        /* \"#utility.yul\":23753:23758   */\n      dup2\n        /* \"#utility.yul\":23721:23759   */\n      tag_347\n      jump\t// in\n    tag_574:\n        /* \"#utility.yul\":23805:23834   */\n      tag_575\n        /* \"#utility.yul\":23823:23833   */\n      dup5\n        /* \"#utility.yul\":23805:23834   */\n      tag_350\n      jump\t// in\n    tag_575:\n        /* \"#utility.yul\":23795:23803   */\n      dup2\n        /* \"#utility.yul\":23791:23835   */\n      add\n        /* \"#utility.yul\":23988:23990   */\n      0x20\n        /* \"#utility.yul\":23976:23986   */\n      dup6\n        /* \"#utility.yul\":23973:23991   */\n      lt\n        /* \"#utility.yul\":23970:24019   */\n      iszero\n      tag_576\n      jumpi\n        /* \"#utility.yul\":24009:24017   */\n      dup2\n        /* \"#utility.yul\":23994:24017   */\n      swap1\n      pop\n        /* \"#utility.yul\":23970:24019   */\n    tag_576:\n        /* \"#utility.yul\":24032:24112   */\n      tag_577\n        /* \"#utility.yul\":24088:24110   */\n      tag_578\n        /* \"#utility.yul\":24106:24109   */\n      dup6\n        /* \"#utility.yul\":24088:24110   */\n      tag_350\n      jump\t// in\n    tag_578:\n        /* \"#utility.yul\":24078:24086   */\n      dup4\n        /* \"#utility.yul\":24074:24111   */\n      add\n        /* \"#utility.yul\":24061:24072   */\n      dup3\n        /* \"#utility.yul\":24032:24112   */\n      tag_359\n      jump\t// in\n    tag_577:\n        /* \"#utility.yul\":23691:24122   */\n      pop\n      pop\n        /* \"#utility.yul\":23676:24122   */\n    tag_573:\n        /* \"#utility.yul\":23586:24129   */\n      pop\n      pop\n      pop\n      jump\t// out\n        /* \"#utility.yul\":24135:24252   */\n    tag_361:\n        /* \"#utility.yul\":24189:24197   */\n      0x00\n        /* \"#utility.yul\":24239:24244   */\n      dup3\n        /* \"#utility.yul\":24233:24237   */\n      dup3\n        /* \"#utility.yul\":24229:24245   */\n      shr\n        /* \"#utility.yul\":24208:24245   */\n      swap1\n      pop\n        /* \"#utility.yul\":24135:24252   */\n      swap3\n      swap2\n      pop\n      pop\n      jump\t// out\n        /* \"#utility.yul\":24258:24427   */\n    tag_362:\n        /* \"#utility.yul\":24302:24308   */\n      0x00\n        /* \"#utility.yul\":24335:24386   */\n      tag_581\n        /* \"#utility.yul\":24383:24384   */\n      0x00\n        /* \"#utility.yul\":24379:24385   */\n      not\n        /* \"#utility.yul\":24371:24376   */\n      dup5\n        /* \"#utility.yul\":24368:24369   */\n      0x08\n        /* \"#utility.yul\":24364:24377   */\n      mul\n        /* \"#utility.yul\":24335:24386   */\n      tag_361\n      jump\t// in\n    tag_581:\n        /* \"#utility.yul\":24331:24387   */\n      not\n        /* \"#utility.yul\":24416:24420   */\n      dup1\n        /* \"#utility.yul\":24410:24414   */\n      dup4\n        /* \"#utility.yul\":24406:24421   */\n      and\n        /* \"#utility.yul\":24396:24421   */\n      swap2\n      pop\n        /* \"#utility.yul\":24309:24427   */\n      pop\n        /* \"#utility.yul\":24258:24427   */\n      swap3\n      swap2\n      pop\n      pop\n      jump\t// out\n        /* \"#utility.yul\":24432:24727   */\n    tag_363:\n        /* \"#utility.yul\":24508:24512   */\n      0x00\n        /* \"#utility.yul\":24654:24683   */\n      tag_583\n        /* \"#utility.yul\":24679:24682   */\n      dup4\n        /* \"#utility.yul\":24673:24677   */\n      dup4\n        /* \"#utility.yul\":24654:24683   */\n      tag_362\n      jump\t// in\n    tag_583:\n        /* \"#utility.yul\":24646:24683   */\n      swap2\n      pop\n        /* \"#utility.yul\":24716:24719   */\n      dup3\n        /* \"#utility.yul\":24713:24714   */\n      0x02\n        /* \"#utility.yul\":24709:24720   */\n      mul\n        /* \"#utility.yul\":24703:24707   */\n      dup3\n        /* \"#utility.yul\":24700:24721   */\n      or\n        /* \"#utility.yul\":24692:24721   */\n      swap1\n      pop\n        /* \"#utility.yul\":24432:24727   */\n      swap3\n      swap2\n      pop\n      pop\n      jump\t// out\n        /* \"#utility.yul\":24732:26127   */\n    tag_189:\n        /* \"#utility.yul\":24849:24886   */\n      tag_585\n        /* \"#utility.yul\":24882:24885   */\n      dup3\n        /* \"#utility.yul\":24849:24886   */\n      tag_320\n      jump\t// in\n    tag_585:\n        /* \"#utility.yul\":24951:24969   */\n      0xffffffffffffffff\n        /* \"#utility.yul\":24943:24949   */\n      dup2\n        /* \"#utility.yul\":24940:24970   */\n      gt\n        /* \"#utility.yul\":24937:24993   */\n      iszero\n      tag_586\n      jumpi\n        /* \"#utility.yul\":24973:24991   */\n      tag_587\n      tag_101\n      jump\t// in\n    tag_587:\n        /* \"#utility.yul\":24937:24993   */\n    tag_586:\n        /* \"#utility.yul\":25017:25055   */\n      tag_588\n        /* \"#utility.yul\":25049:25053   */\n      dup3\n        /* \"#utility.yul\":25043:25054   */\n      sload\n        /* \"#utility.yul\":25017:25055   */\n      tag_52\n      jump\t// in\n    tag_588:\n        /* \"#utility.yul\":25102:25169   */\n      tag_589\n        /* \"#utility.yul\":25162:25168   */\n      dup3\n        /* \"#utility.yul\":25154:25160   */\n      dup3\n        /* \"#utility.yul\":25148:25152   */\n      dup6\n        /* \"#utility.yul\":25102:25169   */\n      tag_360\n      jump\t// in\n    tag_589:\n        /* \"#utility.yul\":25196:25197   */\n      0x00\n        /* \"#utility.yul\":25220:25224   */\n      0x20\n        /* \"#utility.yul\":25207:25224   */\n      swap1\n      pop\n        /* \"#utility.yul\":25252:25254   */\n      0x1f\n        /* \"#utility.yul\":25244:25250   */\n      dup4\n        /* \"#utility.yul\":25241:25255   */\n      gt\n        /* \"#utility.yul\":25269:25270   */\n      0x01\n        /* \"#utility.yul\":25264:25882   */\n      dup2\n      eq\n      tag_591\n      jumpi\n        /* \"#utility.yul\":25926:25927   */\n      0x00\n        /* \"#utility.yul\":25943:25949   */\n      dup5\n        /* \"#utility.yul\":25940:26017   */\n      iszero\n      tag_592\n      jumpi\n        /* \"#utility.yul\":25992:26001   */\n      dup3\n        /* \"#utility.yul\":25987:25990   */\n      dup8\n        /* \"#utility.yul\":25983:26002   */\n      add\n        /* \"#utility.yul\":25977:26003   */\n      mload\n        /* \"#utility.yul\":25968:26003   */\n      swap1\n      pop\n        /* \"#utility.yul\":25940:26017   */\n    tag_592:\n        /* \"#utility.yul\":26043:26110   */\n      tag_593\n        /* \"#utility.yul\":26103:26109   */\n      dup6\n        /* \"#utility.yul\":26096:26101   */\n      dup3\n        /* \"#utility.yul\":26043:26110   */\n      tag_363\n      jump\t// in\n    tag_593:\n        /* \"#utility.yul\":26037:26041   */\n      dup7\n        /* \"#utility.yul\":26030:26111   */\n      sstore\n        /* \"#utility.yul\":25899:26121   */\n      pop\n        /* \"#utility.yul\":25234:26121   */\n      jump(tag_590)\n        /* \"#utility.yul\":25264:25882   */\n    tag_591:\n        /* \"#utility.yul\":25316:25320   */\n      0x1f\n        /* \"#utility.yul\":25312:25321   */\n      not\n        /* \"#utility.yul\":25304:25310   */\n      dup5\n        /* \"#utility.yul\":25300:25322   */\n      and\n        /* \"#utility.yul\":25350:25387   */\n      tag_594\n        /* \"#utility.yul\":25382:25386   */\n      dup7\n        /* \"#utility.yul\":25350:25387   */\n      tag_347\n      jump\t// in\n    tag_594:\n        /* \"#utility.yul\":25409:25410   */\n      0x00\n        /* \"#utility.yul\":25423:25631   */\n    tag_595:\n        /* \"#utility.yul\":25437:25444   */\n      dup3\n        /* \"#utility.yul\":25434:25435   */\n      dup2\n        /* \"#utility.yul\":25431:25445   */\n      lt\n        /* \"#utility.yul\":25423:25631   */\n      iszero\n      tag_597\n      jumpi\n        /* \"#utility.yul\":25516:25525   */\n      dup5\n        /* \"#utility.yul\":25511:25514   */\n      dup10\n        /* \"#utility.yul\":25507:25526   */\n      add\n        /* \"#utility.yul\":25501:25527   */\n      mload\n        /* \"#utility.yul\":25493:25499   */\n      dup3\n        /* \"#utility.yul\":25486:25528   */\n      sstore\n        /* \"#utility.yul\":25567:25568   */\n      0x01\n        /* \"#utility.yul\":25559:25565   */\n      dup3\n        /* \"#utility.yul\":25555:25569   */\n      add\n        /* \"#utility.yul\":25545:25569   */\n      swap2\n      pop\n        /* \"#utility.yul\":25614:25616   */\n      0x20\n        /* \"#utility.yul\":25603:25612   */\n      dup6\n        /* \"#utility.yul\":25599:25617   */\n      add\n        /* \"#utility.yul\":25586:25617   */\n      swap5\n      pop\n        /* \"#utility.yul\":25460:25464   */\n      0x20\n        /* \"#utility.yul\":25457:25458   */\n      dup2\n        /* \"#utility.yul\":25453:25465   */\n      add\n        /* \"#utility.yul\":25448:25465   */\n      swap1\n      pop\n        /* \"#utility.yul\":25423:25631   */\n      jump(tag_595)\n    tag_597:\n        /* \"#utility.yul\":25659:25665   */\n      dup7\n        /* \"#utility.yul\":25650:25657   */\n      dup4\n        /* \"#utility.yul\":25647:25666   */\n      lt\n        /* \"#utility.yul\":25644:25823   */\n      iszero\n      tag_598\n      jumpi\n        /* \"#utility.yul\":25717:25726   */\n      dup5\n        /* \"#utility.yul\":25712:25715   */\n      dup10\n        /* \"#utility.yul\":25708:25727   */\n      add\n        /* \"#utility.yul\":25702:25728   */\n      mload\n        /* \"#utility.yul\":25760:25808   */\n      tag_599\n        /* \"#utility.yul\":25802:25806   */\n      0x1f\n        /* \"#utility.yul\":25794:25800   */\n      dup10\n        /* \"#utility.yul\":25790:25807   */\n      and\n        /* \"#utility.yul\":25779:25788   */\n      dup3\n        /* \"#utility.yul\":25760:25808   */\n      tag_362\n      jump\t// in\n    tag_599:\n        /* \"#utility.yul\":25752:25758   */\n      dup4\n        /* \"#utility.yul\":25745:25809   */\n      sstore\n        /* \"#utility.yul\":25667:25823   */\n      pop\n        /* \"#utility.yul\":25644:25823   */\n    tag_598:\n        /* \"#utility.yul\":25869:25870   */\n      0x01\n        /* \"#utility.yul\":25865:25866   */\n      0x02\n        /* \"#utility.yul\":25857:25863   */\n      dup9\n        /* \"#utility.yul\":25853:25867   */\n      mul\n        /* \"#utility.yul\":25849:25871   */\n      add\n        /* \"#utility.yul\":25843:25847   */\n      dup9\n        /* \"#utility.yul\":25836:25872   */\n      sstore\n        /* \"#utility.yul\":25271:25882   */\n      pop\n      pop\n      pop\n        /* \"#utility.yul\":25234:26121   */\n    tag_590:\n      pop\n        /* \"#utility.yul\":24824:26127   */\n      pop\n      pop\n      pop\n        /* \"#utility.yul\":24732:26127   */\n      pop\n      pop\n      jump\t// out\n        /* \"#utility.yul\":26133:27767   */\n    tag_197:\n        /* \"#utility.yul\":26562:26566   */\n      0x00\n        /* \"#utility.yul\":26600:26603   */\n      0x0100\n        /* \"#utility.yul\":26589:26598   */\n      dup3\n        /* \"#utility.yul\":26585:26604   */\n      add\n        /* \"#utility.yul\":26577:26604   */\n      swap1\n      pop\n        /* \"#utility.yul\":26650:26659   */\n      dup2\n        /* \"#utility.yul\":26644:26648   */\n      dup2\n        /* \"#utility.yul\":26640:26660   */\n      sub\n        /* \"#utility.yul\":26636:26637   */\n      0x00\n        /* \"#utility.yul\":26625:26634   */\n      dup4\n        /* \"#utility.yul\":26621:26638   */\n      add\n        /* \"#utility.yul\":26614:26661   */\n      mstore\n        /* \"#utility.yul\":26678:26756   */\n      tag_601\n        /* \"#utility.yul\":26751:26755   */\n      dup2\n        /* \"#utility.yul\":26742:26748   */\n      dup12\n        /* \"#utility.yul\":26678:26756   */\n      tag_343\n      jump\t// in\n    tag_601:\n        /* \"#utility.yul\":26670:26756   */\n      swap1\n      pop\n        /* \"#utility.yul\":26803:26812   */\n      dup2\n        /* \"#utility.yul\":26797:26801   */\n      dup2\n        /* \"#utility.yul\":26793:26813   */\n      sub\n        /* \"#utility.yul\":26788:26790   */\n      0x20\n        /* \"#utility.yul\":26777:26786   */\n      dup4\n        /* \"#utility.yul\":26773:26791   */\n      add\n        /* \"#utility.yul\":26766:26814   */\n      mstore\n        /* \"#utility.yul\":26831:26909   */\n      tag_602\n        /* \"#utility.yul\":26904:26908   */\n      dup2\n        /* \"#utility.yul\":26895:26901   */\n      dup11\n        /* \"#utility.yul\":26831:26909   */\n      tag_343\n      jump\t// in\n    tag_602:\n        /* \"#utility.yul\":26823:26909   */\n      swap1\n      pop\n        /* \"#utility.yul\":26956:26965   */\n      dup2\n        /* \"#utility.yul\":26950:26954   */\n      dup2\n        /* \"#utility.yul\":26946:26966   */\n      sub\n        /* \"#utility.yul\":26941:26943   */\n      0x40\n        /* \"#utility.yul\":26930:26939   */\n      dup4\n        /* \"#utility.yul\":26926:26944   */\n      add\n        /* \"#utility.yul\":26919:26967   */\n      mstore\n        /* \"#utility.yul\":26984:27062   */\n      tag_603\n        /* \"#utility.yul\":27057:27061   */\n      dup2\n        /* \"#utility.yul\":27048:27054   */\n      dup10\n        /* \"#utility.yul\":26984:27062   */\n      tag_343\n      jump\t// in\n    tag_603:\n        /* \"#utility.yul\":26976:27062   */\n      swap1\n      pop\n        /* \"#utility.yul\":27109:27118   */\n      dup2\n        /* \"#utility.yul\":27103:27107   */\n      dup2\n        /* \"#utility.yul\":27099:27119   */\n      sub\n        /* \"#utility.yul\":27094:27096   */\n      0x60\n        /* \"#utility.yul\":27083:27092   */\n      dup4\n        /* \"#utility.yul\":27079:27097   */\n      add\n        /* \"#utility.yul\":27072:27120   */\n      mstore\n        /* \"#utility.yul\":27137:27215   */\n      tag_604\n        /* \"#utility.yul\":27210:27214   */\n      dup2\n        /* \"#utility.yul\":27201:27207   */\n      dup9\n        /* \"#utility.yul\":27137:27215   */\n      tag_343\n      jump\t// in\n    tag_604:\n        /* \"#utility.yul\":27129:27215   */\n      swap1\n      pop\n        /* \"#utility.yul\":27263:27272   */\n      dup2\n        /* \"#utility.yul\":27257:27261   */\n      dup2\n        /* \"#utility.yul\":27253:27273   */\n      sub\n        /* \"#utility.yul\":27247:27250   */\n      0x80\n        /* \"#utility.yul\":27236:27245   */\n      dup4\n        /* \"#utility.yul\":27232:27251   */\n      add\n        /* \"#utility.yul\":27225:27274   */\n      mstore\n        /* \"#utility.yul\":27291:27369   */\n      tag_605\n        /* \"#utility.yul\":27364:27368   */\n      dup2\n        /* \"#utility.yul\":27355:27361   */\n      dup8\n        /* \"#utility.yul\":27291:27369   */\n      tag_343\n      jump\t// in\n    tag_605:\n        /* \"#utility.yul\":27283:27369   */\n      swap1\n      pop\n        /* \"#utility.yul\":27417:27426   */\n      dup2\n        /* \"#utility.yul\":27411:27415   */\n      dup2\n        /* \"#utility.yul\":27407:27427   */\n      sub\n        /* \"#utility.yul\":27401:27404   */\n      0xa0\n        /* \"#utility.yul\":27390:27399   */\n      dup4\n        /* \"#utility.yul\":27386:27405   */\n      add\n        /* \"#utility.yul\":27379:27428   */\n      mstore\n        /* \"#utility.yul\":27445:27523   */\n      tag_606\n        /* \"#utility.yul\":27518:27522   */\n      dup2\n        /* \"#utility.yul\":27509:27515   */\n      dup7\n        /* \"#utility.yul\":27445:27523   */\n      tag_343\n      jump\t// in\n    tag_606:\n        /* \"#utility.yul\":27437:27523   */\n      swap1\n      pop\n        /* \"#utility.yul\":27571:27580   */\n      dup2\n        /* \"#utility.yul\":27565:27569   */\n      dup2\n        /* \"#utility.yul\":27561:27581   */\n      sub\n        /* \"#utility.yul\":27555:27558   */\n      0xc0\n        /* \"#utility.yul\":27544:27553   */\n      dup4\n        /* \"#utility.yul\":27540:27559   */\n      add\n        /* \"#utility.yul\":27533:27582   */\n      mstore\n        /* \"#utility.yul\":27599:27677   */\n      tag_607\n        /* \"#utility.yul\":27672:27676   */\n      dup2\n        /* \"#utility.yul\":27663:27669   */\n      dup6\n        /* \"#utility.yul\":27599:27677   */\n      tag_343\n      jump\t// in\n    tag_607:\n        /* \"#utility.yul\":27591:27677   */\n      swap1\n      pop\n        /* \"#utility.yul\":27687:27760   */\n      tag_608\n        /* \"#utility.yul\":27755:27758   */\n      0xe0\n        /* \"#utility.yul\":27744:27753   */\n      dup4\n        /* \"#utility.yul\":27740:27759   */\n      add\n        /* \"#utility.yul\":27731:27737   */\n      dup5\n        /* \"#utility.yul\":27687:27760   */\n      tag_341\n      jump\t// in\n    tag_608:\n        /* \"#utility.yul\":26133:27767   */\n      swap10\n      swap9\n      pop\n      pop\n      pop\n      pop\n      pop\n      pop\n      pop\n      pop\n      pop\n      jump\t// out\n        /* \"#utility.yul\":27773:27967   */\n    tag_243:\n        /* \"#utility.yul\":27813:27817   */\n      0x00\n        /* \"#utility.yul\":27833:27853   */\n      tag_610\n        /* \"#utility.yul\":27851:27852   */\n      dup3\n        /* \"#utility.yul\":27833:27853   */\n      tag_316\n      jump\t// in\n    tag_610:\n        /* \"#utility.yul\":27828:27853   */\n      swap2\n      pop\n        /* \"#utility.yul\":27867:27887   */\n      tag_611\n        /* \"#utility.yul\":27885:27886   */\n      dup4\n        /* \"#utility.yul\":27867:27887   */\n      tag_316\n      jump\t// in\n    tag_611:\n        /* \"#utility.yul\":27862:27887   */\n      swap3\n      pop\n        /* \"#utility.yul\":27911:27912   */\n      dup3\n        /* \"#utility.yul\":27908:27909   */\n      dup3\n        /* \"#utility.yul\":27904:27913   */\n      sub\n        /* \"#utility.yul\":27896:27913   */\n      swap1\n      pop\n        /* \"#utility.yul\":27935:27936   */\n      dup2\n        /* \"#utility.yul\":27929:27933   */\n      dup2\n        /* \"#utility.yul\":27926:27937   */\n      gt\n        /* \"#utility.yul\":27923:27960   */\n      iszero\n      tag_612\n      jumpi\n        /* \"#utility.yul\":27940:27958   */\n      tag_613\n      tag_349\n      jump\t// in\n    tag_613:\n        /* \"#utility.yul\":27923:27960   */\n    tag_612:\n        /* \"#utility.yul\":27773:27967   */\n      swap3\n      swap2\n      pop\n      pop\n      jump\t// out\n        /* \"#utility.yul\":27973:28149   */\n    tag_364:\n        /* \"#utility.yul\":28113:28141   */\n      0x5472616e73616374696f6e20646f6573206e6f74206578697374000000000000\n        /* \"#utility.yul\":28109:28110   */\n      0x00\n        /* \"#utility.yul\":28101:28107   */\n      dup3\n        /* \"#utility.yul\":28097:28111   */\n      add\n        /* \"#utility.yul\":28090:28142   */\n      mstore\n        /* \"#utility.yul\":27973:28149   */\n      pop\n      jump\t// out\n        /* \"#utility.yul\":28155:28521   */\n    tag_365:\n        /* \"#utility.yul\":28297:28300   */\n      0x00\n        /* \"#utility.yul\":28318:28385   */\n      tag_616\n        /* \"#utility.yul\":28382:28384   */\n      0x1a\n        /* \"#utility.yul\":28377:28380   */\n      dup4\n        /* \"#utility.yul\":28318:28385   */\n      tag_342\n      jump\t// in\n    tag_616:\n        /* \"#utility.yul\":28311:28385   */\n      swap2\n      pop\n        /* \"#utility.yul\":28394:28487   */\n      tag_617\n        /* \"#utility.yul\":28483:28486   */\n      dup3\n        /* \"#utility.yul\":28394:28487   */\n      tag_364\n      jump\t// in\n    tag_617:\n        /* \"#utility.yul\":28512:28514   */\n      0x20\n        /* \"#utility.yul\":28507:28510   */\n      dup3\n        /* \"#utility.yul\":28503:28515   */\n      add\n        /* \"#utility.yul\":28496:28515   */\n      swap1\n      pop\n        /* \"#utility.yul\":28155:28521   */\n      swap2\n      swap1\n      pop\n      jump\t// out\n        /* \"#utility.yul\":28527:28946   */\n    tag_250:\n        /* \"#utility.yul\":28693:28697   */\n      0x00\n        /* \"#utility.yul\":28731:28733   */\n      0x20\n        /* \"#utility.yul\":28720:28729   */\n      dup3\n        /* \"#utility.yul\":28716:28734   */\n      add\n        /* \"#utility.yul\":28708:28734   */\n      swap1\n      pop\n        /* \"#utility.yul\":28780:28789   */\n      dup2\n        /* \"#utility.yul\":28774:28778   */\n      dup2\n        /* \"#utility.yul\":28770:28790   */\n      sub\n        /* \"#utility.yul\":28766:28767   */\n      0x00\n        /* \"#utility.yul\":28755:28764   */\n      dup4\n        /* \"#utility.yul\":28751:28768   */\n      add\n        /* \"#utility.yul\":28744:28791   */\n      mstore\n        /* \"#utility.yul\":28808:28939   */\n      tag_619\n        /* \"#utility.yul\":28934:28938   */\n      dup2\n        /* \"#utility.yul\":28808:28939   */\n      tag_365\n      jump\t// in\n    tag_619:\n        /* \"#utility.yul\":28800:28939   */\n      swap1\n      pop\n        /* \"#utility.yul\":28527:28946   */\n      swap2\n      swap1\n      pop\n      jump\t// out\n        /* \"#utility.yul\":28952:29375   */\n    tag_253:\n        /* \"#utility.yul\":29093:29097   */\n      0x00\n        /* \"#utility.yul\":29131:29133   */\n      0x40\n        /* \"#utility.yul\":29120:29129   */\n      dup3\n        /* \"#utility.yul\":29116:29134   */\n      add\n        /* \"#utility.yul\":29108:29134   */\n      swap1\n      pop\n        /* \"#utility.yul\":29180:29189   */\n      dup2\n        /* \"#utility.yul\":29174:29178   */\n      dup2\n        /* \"#utility.yul\":29170:29190   */\n      sub\n        /* \"#utility.yul\":29166:29167   */\n      0x00\n        /* \"#utility.yul\":29155:29164   */\n      dup4\n        /* \"#utility.yul\":29151:29168   */\n      add\n        /* \"#utility.yul\":29144:29191   */\n      mstore\n        /* \"#utility.yul\":29208:29286   */\n      tag_621\n        /* \"#utility.yul\":29281:29285   */\n      dup2\n        /* \"#utility.yul\":29272:29278   */\n      dup6\n        /* \"#utility.yul\":29208:29286   */\n      tag_343\n      jump\t// in\n    tag_621:\n        /* \"#utility.yul\":29200:29286   */\n      swap1\n      pop\n        /* \"#utility.yul\":29296:29368   */\n      tag_622\n        /* \"#utility.yul\":29364:29366   */\n      0x20\n        /* \"#utility.yul\":29353:29362   */\n      dup4\n        /* \"#utility.yul\":29349:29367   */\n      add\n        /* \"#utility.yul\":29340:29346   */\n      dup5\n        /* \"#utility.yul\":29296:29368   */\n      tag_341\n      jump\t// in\n    tag_622:\n        /* \"#utility.yul\":28952:29375   */\n      swap4\n      swap3\n      pop\n      pop\n      pop\n      jump\t// out\n\n    auxdata: 0xa2646970667358221220e290a99d5caf325f8d5ade7e3174cac9011d53cc7b83fbb60372c5c30e9afdfc64736f6c63430008100033\n}\n",
				"bytecode": {
					"linkReferences": {},
					"object": "608060405234801561001057600080fd5b50612beb806100206000396000f3fe608060405234801561001057600080fd5b50600436106100885760003560e01c8063add6415d1161005b578063add6415d14610141578063b77bf6001461015f578063ce8481fd1461017d578063e55d57df1461019957610088565b806333ea3dc81461008d5780639311f732146100bd5780639ace38c2146100ed578063abed9fb414610125575b600080fd5b6100a760048036038101906100a29190611d7c565b6101c9565b6040516100b49190611f37565b60405180910390f35b6100d760048036038101906100d2919061208e565b610608565b6040516100e49190612288565b60405180910390f35b61010760048036038101906101029190611d7c565b610bf1565b60405161011c99989796959493929190612303565b60405180910390f35b61013f600480360381019061013a91906123c1565b610ff7565b005b610149611169565b6040516101569190612288565b60405180910390f35b61016761164a565b604051610174919061253b565b60405180910390f35b61019760048036038101906101929190612556565b611650565b005b6101b360048036038101906101ae919061208e565b6116fd565b6040516101c09190612288565b60405180910390f35b6101d1611ce6565b6000808381526020019081526020016000206040518061012001604052908160008201548152602001600182018054610209906125f4565b80601f0160208091040260200160405190810160405280929190818152602001828054610235906125f4565b80156102825780601f1061025757610100808354040283529160200191610282565b820191906000526020600020905b81548152906001019060200180831161026557829003601f168201915b5050505050815260200160028201805461029b906125f4565b80601f01602080910402602001604051908101604052809291908181526020018280546102c7906125f4565b80156103145780601f106102e957610100808354040283529160200191610314565b820191906000526020600020905b8154815290600101906020018083116102f757829003601f168201915b5050505050815260200160038201805461032d906125f4565b80601f0160208091040260200160405190810160405280929190818152602001828054610359906125f4565b80156103a65780601f1061037b576101008083540402835291602001916103a6565b820191906000526020600020905b81548152906001019060200180831161038957829003601f168201915b505050505081526020016004820180546103bf906125f4565b80601f01602080910402602001604051908101604052809291908181526020018280546103eb906125f4565b80156104385780601f1061040d57610100808354040283529160200191610438565b820191906000526020600020905b81548152906001019060200180831161041b57829003601f168201915b50505050508152602001600582018054610451906125f4565b80601f016020809104026020016040519081016040528092919081815260200182805461047d906125f4565b80156104ca5780601f1061049f576101008083540402835291602001916104ca565b820191906000526020600020905b8154815290600101906020018083116104ad57829003601f168201915b505050505081526020016006820180546104e3906125f4565b80601f016020809104026020016040519081016040528092919081815260200182805461050f906125f4565b801561055c5780601f106105315761010080835404028352916020019161055c565b820191906000526020600020905b81548152906001019060200180831161053f57829003601f168201915b50505050508152602001600782018054610575906125f4565b80601f01602080910402602001604051908101604052809291908181526020018280546105a1906125f4565b80156105ee5780601f106105c3576101008083540402835291602001916105ee565b820191906000526020600020905b8154815290600101906020018083116105d157829003601f168201915b505050505081526020016008820154815250509050919050565b6060600080600190505b60015481116106a4578360405160200161062c9190612661565b604051602081830303815290604052805190602001206000808381526020019081526020016000206005016040516020016106679190612710565b604051602081830303815290604052805190602001200361069157818061068d90612756565b9250505b808061069c90612756565b915050610612565b5060008167ffffffffffffffff8111156106c1576106c0611f63565b5b6040519080825280602002602001820160405280156106fa57816020015b6106e7611ce6565b8152602001906001900390816106df5790505b509050600080600190505b6001548111610be5578560405160200161071f9190612661565b6040516020818303038152906040528051906020012060008083815260200190815260200160002060050160405160200161075a9190612710565b6040516020818303038152906040528051906020012003610bd25760008082815260200190815260200160002060405180610120016040529081600082015481526020016001820180546107ad906125f4565b80601f01602080910402602001604051908101604052809291908181526020018280546107d9906125f4565b80156108265780601f106107fb57610100808354040283529160200191610826565b820191906000526020600020905b81548152906001019060200180831161080957829003601f168201915b5050505050815260200160028201805461083f906125f4565b80601f016020809104026020016040519081016040528092919081815260200182805461086b906125f4565b80156108b85780601f1061088d576101008083540402835291602001916108b8565b820191906000526020600020905b81548152906001019060200180831161089b57829003601f168201915b505050505081526020016003820180546108d1906125f4565b80601f01602080910402602001604051908101604052809291908181526020018280546108fd906125f4565b801561094a5780601f1061091f5761010080835404028352916020019161094a565b820191906000526020600020905b81548152906001019060200180831161092d57829003601f168201915b50505050508152602001600482018054610963906125f4565b80601f016020809104026020016040519081016040528092919081815260200182805461098f906125f4565b80156109dc5780601f106109b1576101008083540402835291602001916109dc565b820191906000526020600020905b8154815290600101906020018083116109bf57829003601f168201915b505050505081526020016005820180546109f5906125f4565b80601f0160208091040260200160405190810160405280929190818152602001828054610a21906125f4565b8015610a6e5780601f10610a4357610100808354040283529160200191610a6e565b820191906000526020600020905b815481529060010190602001808311610a5157829003601f168201915b50505050508152602001600682018054610a87906125f4565b80601f0160208091040260200160405190810160405280929190818152602001828054610ab3906125f4565b8015610b005780601f10610ad557610100808354040283529160200191610b00565b820191906000526020600020905b815481529060010190602001808311610ae357829003601f168201915b50505050508152602001600782018054610b19906125f4565b80601f0160208091040260200160405190810160405280929190818152602001828054610b45906125f4565b8015610b925780601f10610b6757610100808354040283529160200191610b92565b820191906000526020600020905b815481529060010190602001808311610b7557829003601f168201915b50505050508152602001600882015481525050838381518110610bb857610bb761279e565b5b60200260200101819052508180610bce90612756565b9250505b8080610bdd90612756565b915050610705565b50819350505050919050565b6000602052806000526040600020600091509050806000015490806001018054610c1a906125f4565b80601f0160208091040260200160405190810160405280929190818152602001828054610c46906125f4565b8015610c935780601f10610c6857610100808354040283529160200191610c93565b820191906000526020600020905b815481529060010190602001808311610c7657829003601f168201915b505050505090806002018054610ca8906125f4565b80601f0160208091040260200160405190810160405280929190818152602001828054610cd4906125f4565b8015610d215780601f10610cf657610100808354040283529160200191610d21565b820191906000526020600020905b815481529060010190602001808311610d0457829003601f168201915b505050505090806003018054610d36906125f4565b80601f0160208091040260200160405190810160405280929190818152602001828054610d62906125f4565b8015610daf5780601f10610d8457610100808354040283529160200191610daf565b820191906000526020600020905b815481529060010190602001808311610d9257829003601f168201915b505050505090806004018054610dc4906125f4565b80601f0160208091040260200160405190810160405280929190818152602001828054610df0906125f4565b8015610e3d5780601f10610e1257610100808354040283529160200191610e3d565b820191906000526020600020905b815481529060010190602001808311610e2057829003601f168201915b505050505090806005018054610e52906125f4565b80601f0160208091040260200160405190810160405280929190818152602001828054610e7e906125f4565b8015610ecb5780601f10610ea057610100808354040283529160200191610ecb565b820191906000526020600020905b815481529060010190602001808311610eae57829003601f168201915b505050505090806006018054610ee0906125f4565b80601f0160208091040260200160405190810160405280929190818152602001828054610f0c906125f4565b8015610f595780601f10610f2e57610100808354040283529160200191610f59565b820191906000526020600020905b815481529060010190602001808311610f3c57829003601f168201915b505050505090806007018054610f6e906125f4565b80601f0160208091040260200160405190810160405280929190818152602001828054610f9a906125f4565b8015610fe75780601f10610fbc57610100808354040283529160200191610fe7565b820191906000526020600020905b815481529060010190602001808311610fca57829003601f168201915b5050505050908060080154905089565b6001600081548092919061100a90612756565b919050555060405180610120016040528060015481526020018981526020018881526020018781526020018681526020018581526020018481526020018381526020018281525060008060015481526020019081526020016000206000820151816000015560208201518160010190816110849190612964565b50604082015181600201908161109a9190612964565b5060608201518160030190816110b09190612964565b5060808201518160040190816110c69190612964565b5060a08201518160050190816110dc9190612964565b5060c08201518160060190816110f29190612964565b5060e08201518160070190816111089190612964565b5061010082015181600801559050506001547f07b4968f6fa44d4c825736654173422261c8568a6c3da8a5b336270401bd3c8b8989898989898989604051611157989796959493929190612a36565b60405180910390a25050505050505050565b6060600060015467ffffffffffffffff81111561118957611188611f63565b5b6040519080825280602002602001820160405280156111c257816020015b6111af611ce6565b8152602001906001900390816111a75790505b5090506000600190505b600154811161164257600080828152602001908152602001600020604051806101200160405290816000820154815260200160018201805461120d906125f4565b80601f0160208091040260200160405190810160405280929190818152602001828054611239906125f4565b80156112865780601f1061125b57610100808354040283529160200191611286565b820191906000526020600020905b81548152906001019060200180831161126957829003601f168201915b5050505050815260200160028201805461129f906125f4565b80601f01602080910402602001604051908101604052809291908181526020018280546112cb906125f4565b80156113185780601f106112ed57610100808354040283529160200191611318565b820191906000526020600020905b8154815290600101906020018083116112fb57829003601f168201915b50505050508152602001600382018054611331906125f4565b80601f016020809104026020016040519081016040528092919081815260200182805461135d906125f4565b80156113aa5780601f1061137f576101008083540402835291602001916113aa565b820191906000526020600020905b81548152906001019060200180831161138d57829003601f168201915b505050505081526020016004820180546113c3906125f4565b80601f01602080910402602001604051908101604052809291908181526020018280546113ef906125f4565b801561143c5780601f106114115761010080835404028352916020019161143c565b820191906000526020600020905b81548152906001019060200180831161141f57829003601f168201915b50505050508152602001600582018054611455906125f4565b80601f0160208091040260200160405190810160405280929190818152602001828054611481906125f4565b80156114ce5780601f106114a3576101008083540402835291602001916114ce565b820191906000526020600020905b8154815290600101906020018083116114b157829003601f168201915b505050505081526020016006820180546114e7906125f4565b80601f0160208091040260200160405190810160405280929190818152602001828054611513906125f4565b80156115605780601f1061153557610100808354040283529160200191611560565b820191906000526020600020905b81548152906001019060200180831161154357829003601f168201915b50505050508152602001600782018054611579906125f4565b80601f01602080910402602001604051908101604052809291908181526020018280546115a5906125f4565b80156115f25780601f106115c7576101008083540402835291602001916115f2565b820191906000526020600020905b8154815290600101906020018083116115d557829003601f168201915b50505050508152602001600882015481525050826001836116139190612ae5565b815181106116245761162361279e565b5b6020026020010181905250808061163a90612756565b9150506111cc565b508091505090565b60015481565b600154831115611695576040517f08c379a000000000000000000000000000000000000000000000000000000000815260040161168c90612b65565b60405180910390fd5b60008060008581526020019081526020016000209050828160070190816116bc9190612964565b50837fcbc92fe73220c7cc1450ff1070f1becf254013a1cd6a9d95a4b7c2055b3e9ac984846040516116ef929190612b85565b60405180910390a250505050565b6060600080600190505b600154811161179957836040516020016117219190612661565b6040516020818303038152906040528051906020012060008083815260200190815260200160002060030160405160200161175c9190612710565b604051602081830303815290604052805190602001200361178657818061178290612756565b9250505b808061179190612756565b915050611707565b5060008167ffffffffffffffff8111156117b6576117b5611f63565b5b6040519080825280602002602001820160405280156117ef57816020015b6117dc611ce6565b8152602001906001900390816117d45790505b509050600080600190505b6001548111611cda57856040516020016118149190612661565b6040516020818303038152906040528051906020012060008083815260200190815260200160002060030160405160200161184f9190612710565b6040516020818303038152906040528051906020012003611cc75760008082815260200190815260200160002060405180610120016040529081600082015481526020016001820180546118a2906125f4565b80601f01602080910402602001604051908101604052809291908181526020018280546118ce906125f4565b801561191b5780601f106118f05761010080835404028352916020019161191b565b820191906000526020600020905b8154815290600101906020018083116118fe57829003601f168201915b50505050508152602001600282018054611934906125f4565b80601f0160208091040260200160405190810160405280929190818152602001828054611960906125f4565b80156119ad5780601f10611982576101008083540402835291602001916119ad565b820191906000526020600020905b81548152906001019060200180831161199057829003601f168201915b505050505081526020016003820180546119c6906125f4565b80601f01602080910402602001604051908101604052809291908181526020018280546119f2906125f4565b8015611a3f5780601f10611a1457610100808354040283529160200191611a3f565b820191906000526020600020905b815481529060010190602001808311611a2257829003601f168201915b50505050508152602001600482018054611a58906125f4565b80601f0160208091040260200160405190810160405280929190818152602001828054611a84906125f4565b8015611ad15780601f10611aa657610100808354040283529160200191611ad1565b820191906000526020600020905b815481529060010190602001808311611ab457829003601f168201915b50505050508152602001600582018054611aea906125f4565b80601f0160208091040260200160405190810160405280929190818152602001828054611b16906125f4565b8015611b635780601f10611b3857610100808354040283529160200191611b63565b820191906000526020600020905b815481529060010190602001808311611b4657829003601f168201915b50505050508152602001600682018054611b7c906125f4565b80601f0160208091040260200160405190810160405280929190818152602001828054611ba8906125f4565b8015611bf55780601f10611bca57610100808354040283529160200191611bf5565b820191906000526020600020905b815481529060010190602001808311611bd857829003601f168201915b50505050508152602001600782018054611c0e906125f4565b80601f0160208091040260200160405190810160405280929190818152602001828054611c3a906125f4565b8015611c875780601f10611c5c57610100808354040283529160200191611c87565b820191906000526020600020905b815481529060010190602001808311611c6a57829003601f168201915b50505050508152602001600882015481525050838381518110611cad57611cac61279e565b5b60200260200101819052508180611cc390612756565b9250505b8080611cd290612756565b9150506117fa565b50819350505050919050565b6040518061012001604052806000815260200160608152602001606081526020016060815260200160608152602001606081526020016060815260200160608152602001600081525090565b6000604051905090565b600080fd5b600080fd5b6000819050919050565b611d5981611d46565b8114611d6457600080fd5b50565b600081359050611d7681611d50565b92915050565b600060208284031215611d9257611d91611d3c565b5b6000611da084828501611d67565b91505092915050565b611db281611d46565b82525050565b600081519050919050565b600082825260208201905092915050565b60005b83811015611df2578082015181840152602081019050611dd7565b60008484015250505050565b6000601f19601f8301169050919050565b6000611e1a82611db8565b611e248185611dc3565b9350611e34818560208601611dd4565b611e3d81611dfe565b840191505092915050565b600061012083016000830151611e616000860182611da9565b5060208301518482036020860152611e798282611e0f565b91505060408301518482036040860152611e938282611e0f565b91505060608301518482036060860152611ead8282611e0f565b91505060808301518482036080860152611ec78282611e0f565b91505060a083015184820360a0860152611ee18282611e0f565b91505060c083015184820360c0860152611efb8282611e0f565b91505060e083015184820360e0860152611f158282611e0f565b915050610100830151611f2c610100860182611da9565b508091505092915050565b60006020820190508181036000830152611f518184611e48565b905092915050565b600080fd5b600080fd5b7f4e487b7100000000000000000000000000000000000000000000000000000000600052604160045260246000fd5b611f9b82611dfe565b810181811067ffffffffffffffff82111715611fba57611fb9611f63565b5b80604052505050565b6000611fcd611d32565b9050611fd98282611f92565b919050565b600067ffffffffffffffff821115611ff957611ff8611f63565b5b61200282611dfe565b9050602081019050919050565b82818337600083830152505050565b600061203161202c84611fde565b611fc3565b90508281526020810184848401111561204d5761204c611f5e565b5b61205884828561200f565b509392505050565b600082601f83011261207557612074611f59565b5b813561208584826020860161201e565b91505092915050565b6000602082840312156120a4576120a3611d3c565b5b600082013567ffffffffffffffff8111156120c2576120c1611d41565b5b6120ce84828501612060565b91505092915050565b600081519050919050565b600082825260208201905092915050565b6000819050602082019050919050565b60006101208301600083015161211c6000860182611da9565b50602083015184820360208601526121348282611e0f565b9150506040830151848203604086015261214e8282611e0f565b915050606083015184820360608601526121688282611e0f565b915050608083015184820360808601526121828282611e0f565b91505060a083015184820360a086015261219c8282611e0f565b91505060c083015184820360c08601526121b68282611e0f565b91505060e083015184820360e08601526121d08282611e0f565b9150506101008301516121e7610100860182611da9565b508091505092915050565b60006121fe8383612103565b905092915050565b6000602082019050919050565b600061221e826120d7565b61222881856120e2565b93508360208202850161223a856120f3565b8060005b85811015612276578484038952815161225785826121f2565b945061226283612206565b925060208a0199505060018101905061223e565b50829750879550505050505092915050565b600060208201905081810360008301526122a28184612213565b905092915050565b6122b381611d46565b82525050565b600082825260208201905092915050565b60006122d582611db8565b6122df81856122b9565b93506122ef818560208601611dd4565b6122f881611dfe565b840191505092915050565b600061012082019050612319600083018c6122aa565b818103602083015261232b818b6122ca565b9050818103604083015261233f818a6122ca565b9050818103606083015261235381896122ca565b9050818103608083015261236781886122ca565b905081810360a083015261237b81876122ca565b905081810360c083015261238f81866122ca565b905081810360e08301526123a381856122ca565b90506123b36101008301846122aa565b9a9950505050505050505050565b600080600080600080600080610100898b0312156123e2576123e1611d3c565b5b600089013567ffffffffffffffff811115612400576123ff611d41565b5b61240c8b828c01612060565b985050602089013567ffffffffffffffff81111561242d5761242c611d41565b5b6124398b828c01612060565b975050604089013567ffffffffffffffff81111561245a57612459611d41565b5b6124668b828c01612060565b965050606089013567ffffffffffffffff81111561248757612486611d41565b5b6124938b828c01612060565b955050608089013567ffffffffffffffff8111156124b4576124b3611d41565b5b6124c08b828c01612060565b94505060a089013567ffffffffffffffff8111156124e1576124e0611d41565b5b6124ed8b828c01612060565b93505060c089013567ffffffffffffffff81111561250e5761250d611d41565b5b61251a8b828c01612060565b92505060e061252b8b828c01611d67565b9150509295985092959890939650565b600060208201905061255060008301846122aa565b92915050565b60008060006060848603121561256f5761256e611d3c565b5b600061257d86828701611d67565b935050602084013567ffffffffffffffff81111561259e5761259d611d41565b5b6125aa86828701612060565b92505060406125bb86828701611d67565b9150509250925092565b7f4e487b7100000000000000000000000000000000000000000000000000000000600052602260045260246000fd5b6000600282049050600182168061260c57607f821691505b60208210810361261f5761261e6125c5565b5b50919050565b600081905092915050565b600061263b82611db8565b6126458185612625565b9350612655818560208601611dd4565b80840191505092915050565b600061266d8284612630565b915081905092915050565b60008190508160005260206000209050919050565b6000815461269a816125f4565b6126a48186612625565b945060018216600081146126bf57600181146126d457612707565b60ff1983168652811515820286019350612707565b6126dd85612678565b60005b838110156126ff578154818901526001820191506020810190506126e0565b838801955050505b50505092915050565b600061271c828461268d565b915081905092915050565b7f4e487b7100000000000000000000000000000000000000000000000000000000600052601160045260246000fd5b600061276182611d46565b91507fffffffffffffffffffffffffffffffffffffffffffffffffffffffffffffffff820361279357612792612727565b5b600182019050919050565b7f4e487b7100000000000000000000000000000000000000000000000000000000600052603260045260246000fd5b60006020601f8301049050919050565b600082821b905092915050565b60006008830261281a7fffffffffffffffffffffffffffffffffffffffffffffffffffffffffffffffff826127dd565b61282486836127dd565b95508019841693508086168417925050509392505050565b6000819050919050565b600061286161285c61285784611d46565b61283c565b611d46565b9050919050565b6000819050919050565b61287b83612846565b61288f61288782612868565b8484546127ea565b825550505050565b600090565b6128a4612897565b6128af818484612872565b505050565b5b818110156128d3576128c860008261289c565b6001810190506128b5565b5050565b601f821115612918576128e981612678565b6128f2846127cd565b81016020851015612901578190505b61291561290d856127cd565b8301826128b4565b50505b505050565b600082821c905092915050565b600061293b6000198460080261291d565b1980831691505092915050565b6000612954838361292a565b9150826002028217905092915050565b61296d82611db8565b67ffffffffffffffff81111561298657612985611f63565b5b61299082546125f4565b61299b8282856128d7565b600060209050601f8311600181146129ce57600084156129bc578287015190505b6129c68582612948565b865550612a2e565b601f1984166129dc86612678565b60005b82811015612a04578489015182556001820191506020850194506020810190506129df565b86831015612a215784890151612a1d601f89168261292a565b8355505b6001600288020188555050505b505050505050565b6000610100820190508181036000830152612a51818b6122ca565b90508181036020830152612a65818a6122ca565b90508181036040830152612a7981896122ca565b90508181036060830152612a8d81886122ca565b90508181036080830152612aa181876122ca565b905081810360a0830152612ab581866122ca565b905081810360c0830152612ac981856122ca565b9050612ad860e08301846122aa565b9998505050505050505050565b6000612af082611d46565b9150612afb83611d46565b9250828203905081811115612b1357612b12612727565b5b92915050565b7f5472616e73616374696f6e20646f6573206e6f74206578697374000000000000600082015250565b6000612b4f601a836122b9565b9150612b5a82612b19565b602082019050919050565b60006020820190508181036000830152612b7e81612b42565b9050919050565b60006040820190508181036000830152612b9f81856122ca565b9050612bae60208301846122aa565b939250505056fea2646970667358221220e290a99d5caf325f8d5ade7e3174cac9011d53cc7b83fbb60372c5c30e9afdfc64736f6c63430008100033",
					"opcodes": "PUSH1 0x80 PUSH1 0x40 MSTORE CALLVALUE DUP1 ISZERO PUSH2 0x10 JUMPI PUSH1 0x0 DUP1 REVERT JUMPDEST POP PUSH2 0x2BEB DUP1 PUSH2 0x20 PUSH1 0x0 CODECOPY PUSH1 0x0 RETURN INVALID PUSH1 0x80 PUSH1 0x40 MSTORE CALLVALUE DUP1 ISZERO PUSH2 0x10 JUMPI PUSH1 0x0 DUP1 REVERT JUMPDEST POP PUSH1 0x4 CALLDATASIZE LT PUSH2 0x88 JUMPI PUSH1 0x0 CALLDATALOAD PUSH1 0xE0 SHR DUP1 PUSH4 0xADD6415D GT PUSH2 0x5B JUMPI DUP1 PUSH4 0xADD6415D EQ PUSH2 0x141 JUMPI DUP1 PUSH4 0xB77BF600 EQ PUSH2 0x15F JUMPI DUP1 PUSH4 0xCE8481FD EQ PUSH2 0x17D JUMPI DUP1 PUSH4 0xE55D57DF EQ PUSH2 0x199 JUMPI PUSH2 0x88 JUMP JUMPDEST DUP1 PUSH4 0x33EA3DC8 EQ PUSH2 0x8D JUMPI DUP1 PUSH4 0x9311F732 EQ PUSH2 0xBD JUMPI DUP1 PUSH4 0x9ACE38C2 EQ PUSH2 0xED JUMPI DUP1 PUSH4 0xABED9FB4 EQ PUSH2 0x125 JUMPI JUMPDEST PUSH1 0x0 DUP1 REVERT JUMPDEST PUSH2 0xA7 PUSH1 0x4 DUP1 CALLDATASIZE SUB DUP2 ADD SWAP1 PUSH2 0xA2 SWAP2 SWAP1 PUSH2 0x1D7C JUMP JUMPDEST PUSH2 0x1C9 JUMP JUMPDEST PUSH1 0x40 MLOAD PUSH2 0xB4 SWAP2 SWAP1 PUSH2 0x1F37 JUMP JUMPDEST PUSH1 0x40 MLOAD DUP1 SWAP2 SUB SWAP1 RETURN JUMPDEST PUSH2 0xD7 PUSH1 0x4 DUP1 CALLDATASIZE SUB DUP2 ADD SWAP1 PUSH2 0xD2 SWAP2 SWAP1 PUSH2 0x208E JUMP JUMPDEST PUSH2 0x608 JUMP JUMPDEST PUSH1 0x40 MLOAD PUSH2 0xE4 SWAP2 SWAP1 PUSH2 0x2288 JUMP JUMPDEST PUSH1 0x40 MLOAD DUP1 SWAP2 SUB SWAP1 RETURN JUMPDEST PUSH2 0x107 PUSH1 0x4 DUP1 CALLDATASIZE SUB DUP2 ADD SWAP1 PUSH2 0x102 SWAP2 SWAP1 PUSH2 0x1D7C JUMP JUMPDEST PUSH2 0xBF1 JUMP JUMPDEST PUSH1 0x40 MLOAD PUSH2 0x11C SWAP10 SWAP9 SWAP8 SWAP7 SWAP6 SWAP5 SWAP4 SWAP3 SWAP2 SWAP1 PUSH2 0x2303 JUMP JUMPDEST PUSH1 0x40 MLOAD DUP1 SWAP2 SUB SWAP1 RETURN JUMPDEST PUSH2 0x13F PUSH1 0x4 DUP1 CALLDATASIZE SUB DUP2 ADD SWAP1 PUSH2 0x13A SWAP2 SWAP1 PUSH2 0x23C1 JUMP JUMPDEST PUSH2 0xFF7 JUMP JUMPDEST STOP JUMPDEST PUSH2 0x149 PUSH2 0x1169 JUMP JUMPDEST PUSH1 0x40 MLOAD PUSH2 0x156 SWAP2 SWAP1 PUSH2 0x2288 JUMP JUMPDEST PUSH1 0x40 MLOAD DUP1 SWAP2 SUB SWAP1 RETURN JUMPDEST PUSH2 0x167 PUSH2 0x164A JUMP JUMPDEST PUSH1 0x40 MLOAD PUSH2 0x174 SWAP2 SWAP1 PUSH2 0x253B JUMP JUMPDEST PUSH1 0x40 MLOAD DUP1 SWAP2 SUB SWAP1 RETURN JUMPDEST PUSH2 0x197 PUSH1 0x4 DUP1 CALLDATASIZE SUB DUP2 ADD SWAP1 PUSH2 0x192 SWAP2 SWAP1 PUSH2 0x2556 JUMP JUMPDEST PUSH2 0x1650 JUMP JUMPDEST STOP JUMPDEST PUSH2 0x1B3 PUSH1 0x4 DUP1 CALLDATASIZE SUB DUP2 ADD SWAP1 PUSH2 0x1AE SWAP2 SWAP1 PUSH2 0x208E JUMP JUMPDEST PUSH2 0x16FD JUMP JUMPDEST PUSH1 0x40 MLOAD PUSH2 0x1C0 SWAP2 SWAP1 PUSH2 0x2288 JUMP JUMPDEST PUSH1 0x40 MLOAD DUP1 SWAP2 SUB SWAP1 RETURN JUMPDEST PUSH2 0x1D1 PUSH2 0x1CE6 JUMP JUMPDEST PUSH1 0x0 DUP1 DUP4 DUP2 MSTORE PUSH1 0x20 ADD SWAP1 DUP2 MSTORE PUSH1 0x20 ADD PUSH1 0x0 KECCAK256 PUSH1 0x40 MLOAD DUP1 PUSH2 0x120 ADD PUSH1 0x40 MSTORE SWAP1 DUP2 PUSH1 0x0 DUP3 ADD SLOAD DUP2 MSTORE PUSH1 0x20 ADD PUSH1 0x1 DUP3 ADD DUP1 SLOAD PUSH2 0x209 SWAP1 PUSH2 0x25F4 JUMP JUMPDEST DUP1 PUSH1 0x1F ADD PUSH1 0x20 DUP1 SWAP2 DIV MUL PUSH1 0x20 ADD PUSH1 0x40 MLOAD SWAP1 DUP2 ADD PUSH1 0x40 MSTORE DUP1 SWAP3 SWAP2 SWAP1 DUP2 DUP2 MSTORE PUSH1 0x20 ADD DUP3 DUP1 SLOAD PUSH2 0x235 SWAP1 PUSH2 0x25F4 JUMP JUMPDEST DUP1 ISZERO PUSH2 0x282 JUMPI DUP1 PUSH1 0x1F LT PUSH2 0x257 JUMPI PUSH2 0x100 DUP1 DUP4 SLOAD DIV MUL DUP4 MSTORE SWAP2 PUSH1 0x20 ADD SWAP2 PUSH2 0x282 JUMP JUMPDEST DUP3 ADD SWAP2 SWAP1 PUSH1 0x0 MSTORE PUSH1 0x20 PUSH1 0x0 KECCAK256 SWAP1 JUMPDEST DUP2 SLOAD DUP2 MSTORE SWAP1 PUSH1 0x1 ADD SWAP1 PUSH1 0x20 ADD DUP1 DUP4 GT PUSH2 0x265 JUMPI DUP3 SWAP1 SUB PUSH1 0x1F AND DUP3 ADD SWAP2 JUMPDEST POP POP POP POP POP DUP2 MSTORE PUSH1 0x20 ADD PUSH1 0x2 DUP3 ADD DUP1 SLOAD PUSH2 0x29B SWAP1 PUSH2 0x25F4 JUMP JUMPDEST DUP1 PUSH1 0x1F ADD PUSH1 0x20 DUP1 SWAP2 DIV MUL PUSH1 0x20 ADD PUSH1 0x40 MLOAD SWAP1 DUP2 ADD PUSH1 0x40 MSTORE DUP1 SWAP3 SWAP2 SWAP1 DUP2 DUP2 MSTORE PUSH1 0x20 ADD DUP3 DUP1 SLOAD PUSH2 0x2C7 SWAP1 PUSH2 0x25F4 JUMP JUMPDEST DUP1 ISZERO PUSH2 0x314 JUMPI DUP1 PUSH1 0x1F LT PUSH2 0x2E9 JUMPI PUSH2 0x100 DUP1 DUP4 SLOAD DIV MUL DUP4 MSTORE SWAP2 PUSH1 0x20 ADD SWAP2 PUSH2 0x314 JUMP JUMPDEST DUP3 ADD SWAP2 SWAP1 PUSH1 0x0 MSTORE PUSH1 0x20 PUSH1 0x0 KECCAK256 SWAP1 JUMPDEST DUP2 SLOAD DUP2 MSTORE SWAP1 PUSH1 0x1 ADD SWAP1 PUSH1 0x20 ADD DUP1 DUP4 GT PUSH2 0x2F7 JUMPI DUP3 SWAP1 SUB PUSH1 0x1F AND DUP3 ADD SWAP2 JUMPDEST POP POP POP POP POP DUP2 MSTORE PUSH1 0x20 ADD PUSH1 0x3 DUP3 ADD DUP1 SLOAD PUSH2 0x32D SWAP1 PUSH2 0x25F4 JUMP JUMPDEST DUP1 PUSH1 0x1F ADD PUSH1 0x20 DUP1 SWAP2 DIV MUL PUSH1 0x20 ADD PUSH1 0x40 MLOAD SWAP1 DUP2 ADD PUSH1 0x40 MSTORE DUP1 SWAP3 SWAP2 SWAP1 DUP2 DUP2 MSTORE PUSH1 0x20 ADD DUP3 DUP1 SLOAD PUSH2 0x359 SWAP1 PUSH2 0x25F4 JUMP JUMPDEST DUP1 ISZERO PUSH2 0x3A6 JUMPI DUP1 PUSH1 0x1F LT PUSH2 0x37B JUMPI PUSH2 0x100 DUP1 DUP4 SLOAD DIV MUL DUP4 MSTORE SWAP2 PUSH1 0x20 ADD SWAP2 PUSH2 0x3A6 JUMP JUMPDEST DUP3 ADD SWAP2 SWAP1 PUSH1 0x0 MSTORE PUSH1 0x20 PUSH1 0x0 KECCAK256 SWAP1 JUMPDEST DUP2 SLOAD DUP2 MSTORE SWAP1 PUSH1 0x1 ADD SWAP1 PUSH1 0x20 ADD DUP1 DUP4 GT PUSH2 0x389 JUMPI DUP3 SWAP1 SUB PUSH1 0x1F AND DUP3 ADD SWAP2 JUMPDEST POP POP POP POP POP DUP2 MSTORE PUSH1 0x20 ADD PUSH1 0x4 DUP3 ADD DUP1 SLOAD PUSH2 0x3BF SWAP1 PUSH2 0x25F4 JUMP JUMPDEST DUP1 PUSH1 0x1F ADD PUSH1 0x20 DUP1 SWAP2 DIV MUL PUSH1 0x20 ADD PUSH1 0x40 MLOAD SWAP1 DUP2 ADD PUSH1 0x40 MSTORE DUP1 SWAP3 SWAP2 SWAP1 DUP2 DUP2 MSTORE PUSH1 0x20 ADD DUP3 DUP1 SLOAD PUSH2 0x3EB SWAP1 PUSH2 0x25F4 JUMP JUMPDEST DUP1 ISZERO PUSH2 0x438 JUMPI DUP1 PUSH1 0x1F LT PUSH2 0x40D JUMPI PUSH2 0x100 DUP1 DUP4 SLOAD DIV MUL DUP4 MSTORE SWAP2 PUSH1 0x20 ADD SWAP2 PUSH2 0x438 JUMP JUMPDEST DUP3 ADD SWAP2 SWAP1 PUSH1 0x0 MSTORE PUSH1 0x20 PUSH1 0x0 KECCAK256 SWAP1 JUMPDEST DUP2 SLOAD DUP2 MSTORE SWAP1 PUSH1 0x1 ADD SWAP1 PUSH1 0x20 ADD DUP1 DUP4 GT PUSH2 0x41B JUMPI DUP3 SWAP1 SUB PUSH1 0x1F AND DUP3 ADD SWAP2 JUMPDEST POP POP POP POP POP DUP2 MSTORE PUSH1 0x20 ADD PUSH1 0x5 DUP3 ADD DUP1 SLOAD PUSH2 0x451 SWAP1 PUSH2 0x25F4 JUMP JUMPDEST DUP1 PUSH1 0x1F ADD PUSH1 0x20 DUP1 SWAP2 DIV MUL PUSH1 0x20 ADD PUSH1 0x40 MLOAD SWAP1 DUP2 ADD PUSH1 0x40 MSTORE DUP1 SWAP3 SWAP2 SWAP1 DUP2 DUP2 MSTORE PUSH1 0x20 ADD DUP3 DUP1 SLOAD PUSH2 0x47D SWAP1 PUSH2 0x25F4 JUMP JUMPDEST DUP1 ISZERO PUSH2 0x4CA JUMPI DUP1 PUSH1 0x1F LT PUSH2 0x49F JUMPI PUSH2 0x100 DUP1 DUP4 SLOAD DIV MUL DUP4 MSTORE SWAP2 PUSH1 0x20 ADD SWAP2 PUSH2 0x4CA JUMP JUMPDEST DUP3 ADD SWAP2 SWAP1 PUSH1 0x0 MSTORE PUSH1 0x20 PUSH1 0x0 KECCAK256 SWAP1 JUMPDEST DUP2 SLOAD DUP2 MSTORE SWAP1 PUSH1 0x1 ADD SWAP1 PUSH1 0x20 ADD DUP1 DUP4 GT PUSH2 0x4AD JUMPI DUP3 SWAP1 SUB PUSH1 0x1F AND DUP3 ADD SWAP2 JUMPDEST POP POP POP POP POP DUP2 MSTORE PUSH1 0x20 ADD PUSH1 0x6 DUP3 ADD DUP1 SLOAD PUSH2 0x4E3 SWAP1 PUSH2 0x25F4 JUMP JUMPDEST DUP1 PUSH1 0x1F ADD PUSH1 0x20 DUP1 SWAP2 DIV MUL PUSH1 0x20 ADD PUSH1 0x40 MLOAD SWAP1 DUP2 ADD PUSH1 0x40 MSTORE DUP1 SWAP3 SWAP2 SWAP1 DUP2 DUP2 MSTORE PUSH1 0x20 ADD DUP3 DUP1 SLOAD PUSH2 0x50F SWAP1 PUSH2 0x25F4 JUMP JUMPDEST DUP1 ISZERO PUSH2 0x55C JUMPI DUP1 PUSH1 0x1F LT PUSH2 0x531 JUMPI PUSH2 0x100 DUP1 DUP4 SLOAD DIV MUL DUP4 MSTORE SWAP2 PUSH1 0x20 ADD SWAP2 PUSH2 0x55C JUMP JUMPDEST DUP3 ADD SWAP2 SWAP1 PUSH1 0x0 MSTORE PUSH1 0x20 PUSH1 0x0 KECCAK256 SWAP1 JUMPDEST DUP2 SLOAD DUP2 MSTORE SWAP1 PUSH1 0x1 ADD SWAP1 PUSH1 0x20 ADD DUP1 DUP4 GT PUSH2 0x53F JUMPI DUP3 SWAP1 SUB PUSH1 0x1F AND DUP3 ADD SWAP2 JUMPDEST POP POP POP POP POP DUP2 MSTORE PUSH1 0x20 ADD PUSH1 0x7 DUP3 ADD DUP1 SLOAD PUSH2 0x575 SWAP1 PUSH2 0x25F4 JUMP JUMPDEST DUP1 PUSH1 0x1F ADD PUSH1 0x20 DUP1 SWAP2 DIV MUL PUSH1 0x20 ADD PUSH1 0x40 MLOAD SWAP1 DUP2 ADD PUSH1 0x40 MSTORE DUP1 SWAP3 SWAP2 SWAP1 DUP2 DUP2 MSTORE PUSH1 0x20 ADD DUP3 DUP1 SLOAD PUSH2 0x5A1 SWAP1 PUSH2 0x25F4 JUMP JUMPDEST DUP1 ISZERO PUSH2 0x5EE JUMPI DUP1 PUSH1 0x1F LT PUSH2 0x5C3 JUMPI PUSH2 0x100 DUP1 DUP4 SLOAD DIV MUL DUP4 MSTORE SWAP2 PUSH1 0x20 ADD SWAP2 PUSH2 0x5EE JUMP JUMPDEST DUP3 ADD SWAP2 SWAP1 PUSH1 0x0 MSTORE PUSH1 0x20 PUSH1 0x0 KECCAK256 SWAP1 JUMPDEST DUP2 SLOAD DUP2 MSTORE SWAP1 PUSH1 0x1 ADD SWAP1 PUSH1 0x20 ADD DUP1 DUP4 GT PUSH2 0x5D1 JUMPI DUP3 SWAP1 SUB PUSH1 0x1F AND DUP3 ADD SWAP2 JUMPDEST POP POP POP POP POP DUP2 MSTORE PUSH1 0x20 ADD PUSH1 0x8 DUP3 ADD SLOAD DUP2 MSTORE POP POP SWAP1 POP SWAP2 SWAP1 POP JUMP JUMPDEST PUSH1 0x60 PUSH1 0x0 DUP1 PUSH1 0x1 SWAP1 POP JUMPDEST PUSH1 0x1 SLOAD DUP2 GT PUSH2 0x6A4 JUMPI DUP4 PUSH1 0x40 MLOAD PUSH1 0x20 ADD PUSH2 0x62C SWAP2 SWAP1 PUSH2 0x2661 JUMP JUMPDEST PUSH1 0x40 MLOAD PUSH1 0x20 DUP2 DUP4 SUB SUB DUP2 MSTORE SWAP1 PUSH1 0x40 MSTORE DUP1 MLOAD SWAP1 PUSH1 0x20 ADD KECCAK256 PUSH1 0x0 DUP1 DUP4 DUP2 MSTORE PUSH1 0x20 ADD SWAP1 DUP2 MSTORE PUSH1 0x20 ADD PUSH1 0x0 KECCAK256 PUSH1 0x5 ADD PUSH1 0x40 MLOAD PUSH1 0x20 ADD PUSH2 0x667 SWAP2 SWAP1 PUSH2 0x2710 JUMP JUMPDEST PUSH1 0x40 MLOAD PUSH1 0x20 DUP2 DUP4 SUB SUB DUP2 MSTORE SWAP1 PUSH1 0x40 MSTORE DUP1 MLOAD SWAP1 PUSH1 0x20 ADD KECCAK256 SUB PUSH2 0x691 JUMPI DUP2 DUP1 PUSH2 0x68D SWAP1 PUSH2 0x2756 JUMP JUMPDEST SWAP3 POP POP JUMPDEST DUP1 DUP1 PUSH2 0x69C SWAP1 PUSH2 0x2756 JUMP JUMPDEST SWAP2 POP POP PUSH2 0x612 JUMP JUMPDEST POP PUSH1 0x0 DUP2 PUSH8 0xFFFFFFFFFFFFFFFF DUP2 GT ISZERO PUSH2 0x6C1 JUMPI PUSH2 0x6C0 PUSH2 0x1F63 JUMP JUMPDEST JUMPDEST PUSH1 0x40 MLOAD SWAP1 DUP1 DUP3 MSTORE DUP1 PUSH1 0x20 MUL PUSH1 0x20 ADD DUP3 ADD PUSH1 0x40 MSTORE DUP1 ISZERO PUSH2 0x6FA JUMPI DUP2 PUSH1 0x20 ADD JUMPDEST PUSH2 0x6E7 PUSH2 0x1CE6 JUMP JUMPDEST DUP2 MSTORE PUSH1 0x20 ADD SWAP1 PUSH1 0x1 SWAP1 SUB SWAP1 DUP2 PUSH2 0x6DF JUMPI SWAP1 POP JUMPDEST POP SWAP1 POP PUSH1 0x0 DUP1 PUSH1 0x1 SWAP1 POP JUMPDEST PUSH1 0x1 SLOAD DUP2 GT PUSH2 0xBE5 JUMPI DUP6 PUSH1 0x40 MLOAD PUSH1 0x20 ADD PUSH2 0x71F SWAP2 SWAP1 PUSH2 0x2661 JUMP JUMPDEST PUSH1 0x40 MLOAD PUSH1 0x20 DUP2 DUP4 SUB SUB DUP2 MSTORE SWAP1 PUSH1 0x40 MSTORE DUP1 MLOAD SWAP1 PUSH1 0x20 ADD KECCAK256 PUSH1 0x0 DUP1 DUP4 DUP2 MSTORE PUSH1 0x20 ADD SWAP1 DUP2 MSTORE PUSH1 0x20 ADD PUSH1 0x0 KECCAK256 PUSH1 0x5 ADD PUSH1 0x40 MLOAD PUSH1 0x20 ADD PUSH2 0x75A SWAP2 SWAP1 PUSH2 0x2710 JUMP JUMPDEST PUSH1 0x40 MLOAD PUSH1 0x20 DUP2 DUP4 SUB SUB DUP2 MSTORE SWAP1 PUSH1 0x40 MSTORE DUP1 MLOAD SWAP1 PUSH1 0x20 ADD KECCAK256 SUB PUSH2 0xBD2 JUMPI PUSH1 0x0 DUP1 DUP3 DUP2 MSTORE PUSH1 0x20 ADD SWAP1 DUP2 MSTORE PUSH1 0x20 ADD PUSH1 0x0 KECCAK256 PUSH1 0x40 MLOAD DUP1 PUSH2 0x120 ADD PUSH1 0x40 MSTORE SWAP1 DUP2 PUSH1 0x0 DUP3 ADD SLOAD DUP2 MSTORE PUSH1 0x20 ADD PUSH1 0x1 DUP3 ADD DUP1 SLOAD PUSH2 0x7AD SWAP1 PUSH2 0x25F4 JUMP JUMPDEST DUP1 PUSH1 0x1F ADD PUSH1 0x20 DUP1 SWAP2 DIV MUL PUSH1 0x20 ADD PUSH1 0x40 MLOAD SWAP1 DUP2 ADD PUSH1 0x40 MSTORE DUP1 SWAP3 SWAP2 SWAP1 DUP2 DUP2 MSTORE PUSH1 0x20 ADD DUP3 DUP1 SLOAD PUSH2 0x7D9 SWAP1 PUSH2 0x25F4 JUMP JUMPDEST DUP1 ISZERO PUSH2 0x826 JUMPI DUP1 PUSH1 0x1F LT PUSH2 0x7FB JUMPI PUSH2 0x100 DUP1 DUP4 SLOAD DIV MUL DUP4 MSTORE SWAP2 PUSH1 0x20 ADD SWAP2 PUSH2 0x826 JUMP JUMPDEST DUP3 ADD SWAP2 SWAP1 PUSH1 0x0 MSTORE PUSH1 0x20 PUSH1 0x0 KECCAK256 SWAP1 JUMPDEST DUP2 SLOAD DUP2 MSTORE SWAP1 PUSH1 0x1 ADD SWAP1 PUSH1 0x20 ADD DUP1 DUP4 GT PUSH2 0x809 JUMPI DUP3 SWAP1 SUB PUSH1 0x1F AND DUP3 ADD SWAP2 JUMPDEST POP POP POP POP POP DUP2 MSTORE PUSH1 0x20 ADD PUSH1 0x2 DUP3 ADD DUP1 SLOAD PUSH2 0x83F SWAP1 PUSH2 0x25F4 JUMP JUMPDEST DUP1 PUSH1 0x1F ADD PUSH1 0x20 DUP1 SWAP2 DIV MUL PUSH1 0x20 ADD PUSH1 0x40 MLOAD SWAP1 DUP2 ADD PUSH1 0x40 MSTORE DUP1 SWAP3 SWAP2 SWAP1 DUP2 DUP2 MSTORE PUSH1 0x20 ADD DUP3 DUP1 SLOAD PUSH2 0x86B SWAP1 PUSH2 0x25F4 JUMP JUMPDEST DUP1 ISZERO PUSH2 0x8B8 JUMPI DUP1 PUSH1 0x1F LT PUSH2 0x88D JUMPI PUSH2 0x100 DUP1 DUP4 SLOAD DIV MUL DUP4 MSTORE SWAP2 PUSH1 0x20 ADD SWAP2 PUSH2 0x8B8 JUMP JUMPDEST DUP3 ADD SWAP2 SWAP1 PUSH1 0x0 MSTORE PUSH1 0x20 PUSH1 0x0 KECCAK256 SWAP1 JUMPDEST DUP2 SLOAD DUP2 MSTORE SWAP1 PUSH1 0x1 ADD SWAP1 PUSH1 0x20 ADD DUP1 DUP4 GT PUSH2 0x89B JUMPI DUP3 SWAP1 SUB PUSH1 0x1F AND DUP3 ADD SWAP2 JUMPDEST POP POP POP POP POP DUP2 MSTORE PUSH1 0x20 ADD PUSH1 0x3 DUP3 ADD DUP1 SLOAD PUSH2 0x8D1 SWAP1 PUSH2 0x25F4 JUMP JUMPDEST DUP1 PUSH1 0x1F ADD PUSH1 0x20 DUP1 SWAP2 DIV MUL PUSH1 0x20 ADD PUSH1 0x40 MLOAD SWAP1 DUP2 ADD PUSH1 0x40 MSTORE DUP1 SWAP3 SWAP2 SWAP1 DUP2 DUP2 MSTORE PUSH1 0x20 ADD DUP3 DUP1 SLOAD PUSH2 0x8FD SWAP1 PUSH2 0x25F4 JUMP JUMPDEST DUP1 ISZERO PUSH2 0x94A JUMPI DUP1 PUSH1 0x1F LT PUSH2 0x91F JUMPI PUSH2 0x100 DUP1 DUP4 SLOAD DIV MUL DUP4 MSTORE SWAP2 PUSH1 0x20 ADD SWAP2 PUSH2 0x94A JUMP JUMPDEST DUP3 ADD SWAP2 SWAP1 PUSH1 0x0 MSTORE PUSH1 0x20 PUSH1 0x0 KECCAK256 SWAP1 JUMPDEST DUP2 SLOAD DUP2 MSTORE SWAP1 PUSH1 0x1 ADD SWAP1 PUSH1 0x20 ADD DUP1 DUP4 GT PUSH2 0x92D JUMPI DUP3 SWAP1 SUB PUSH1 0x1F AND DUP3 ADD SWAP2 JUMPDEST POP POP POP POP POP DUP2 MSTORE PUSH1 0x20 ADD PUSH1 0x4 DUP3 ADD DUP1 SLOAD PUSH2 0x963 SWAP1 PUSH2 0x25F4 JUMP JUMPDEST DUP1 PUSH1 0x1F ADD PUSH1 0x20 DUP1 SWAP2 DIV MUL PUSH1 0x20 ADD PUSH1 0x40 MLOAD SWAP1 DUP2 ADD PUSH1 0x40 MSTORE DUP1 SWAP3 SWAP2 SWAP1 DUP2 DUP2 MSTORE PUSH1 0x20 ADD DUP3 DUP1 SLOAD PUSH2 0x98F SWAP1 PUSH2 0x25F4 JUMP JUMPDEST DUP1 ISZERO PUSH2 0x9DC JUMPI DUP1 PUSH1 0x1F LT PUSH2 0x9B1 JUMPI PUSH2 0x100 DUP1 DUP4 SLOAD DIV MUL DUP4 MSTORE SWAP2 PUSH1 0x20 ADD SWAP2 PUSH2 0x9DC JUMP JUMPDEST DUP3 ADD SWAP2 SWAP1 PUSH1 0x0 MSTORE PUSH1 0x20 PUSH1 0x0 KECCAK256 SWAP1 JUMPDEST DUP2 SLOAD DUP2 MSTORE SWAP1 PUSH1 0x1 ADD SWAP1 PUSH1 0x20 ADD DUP1 DUP4 GT PUSH2 0x9BF JUMPI DUP3 SWAP1 SUB PUSH1 0x1F AND DUP3 ADD SWAP2 JUMPDEST POP POP POP POP POP DUP2 MSTORE PUSH1 0x20 ADD PUSH1 0x5 DUP3 ADD DUP1 SLOAD PUSH2 0x9F5 SWAP1 PUSH2 0x25F4 JUMP JUMPDEST DUP1 PUSH1 0x1F ADD PUSH1 0x20 DUP1 SWAP2 DIV MUL PUSH1 0x20 ADD PUSH1 0x40 MLOAD SWAP1 DUP2 ADD PUSH1 0x40 MSTORE DUP1 SWAP3 SWAP2 SWAP1 DUP2 DUP2 MSTORE PUSH1 0x20 ADD DUP3 DUP1 SLOAD PUSH2 0xA21 SWAP1 PUSH2 0x25F4 JUMP JUMPDEST DUP1 ISZERO PUSH2 0xA6E JUMPI DUP1 PUSH1 0x1F LT PUSH2 0xA43 JUMPI PUSH2 0x100 DUP1 DUP4 SLOAD DIV MUL DUP4 MSTORE SWAP2 PUSH1 0x20 ADD SWAP2 PUSH2 0xA6E JUMP JUMPDEST DUP3 ADD SWAP2 SWAP1 PUSH1 0x0 MSTORE PUSH1 0x20 PUSH1 0x0 KECCAK256 SWAP1 JUMPDEST DUP2 SLOAD DUP2 MSTORE SWAP1 PUSH1 0x1 ADD SWAP1 PUSH1 0x20 ADD DUP1 DUP4 GT PUSH2 0xA51 JUMPI DUP3 SWAP1 SUB PUSH1 0x1F AND DUP3 ADD SWAP2 JUMPDEST POP POP POP POP POP DUP2 MSTORE PUSH1 0x20 ADD PUSH1 0x6 DUP3 ADD DUP1 SLOAD PUSH2 0xA87 SWAP1 PUSH2 0x25F4 JUMP JUMPDEST DUP1 PUSH1 0x1F ADD PUSH1 0x20 DUP1 SWAP2 DIV MUL PUSH1 0x20 ADD PUSH1 0x40 MLOAD SWAP1 DUP2 ADD PUSH1 0x40 MSTORE DUP1 SWAP3 SWAP2 SWAP1 DUP2 DUP2 MSTORE PUSH1 0x20 ADD DUP3 DUP1 SLOAD PUSH2 0xAB3 SWAP1 PUSH2 0x25F4 JUMP JUMPDEST DUP1 ISZERO PUSH2 0xB00 JUMPI DUP1 PUSH1 0x1F LT PUSH2 0xAD5 JUMPI PUSH2 0x100 DUP1 DUP4 SLOAD DIV MUL DUP4 MSTORE SWAP2 PUSH1 0x20 ADD SWAP2 PUSH2 0xB00 JUMP JUMPDEST DUP3 ADD SWAP2 SWAP1 PUSH1 0x0 MSTORE PUSH1 0x20 PUSH1 0x0 KECCAK256 SWAP1 JUMPDEST DUP2 SLOAD DUP2 MSTORE SWAP1 PUSH1 0x1 ADD SWAP1 PUSH1 0x20 ADD DUP1 DUP4 GT PUSH2 0xAE3 JUMPI DUP3 SWAP1 SUB PUSH1 0x1F AND DUP3 ADD SWAP2 JUMPDEST POP POP POP POP POP DUP2 MSTORE PUSH1 0x20 ADD PUSH1 0x7 DUP3 ADD DUP1 SLOAD PUSH2 0xB19 SWAP1 PUSH2 0x25F4 JUMP JUMPDEST DUP1 PUSH1 0x1F ADD PUSH1 0x20 DUP1 SWAP2 DIV MUL PUSH1 0x20 ADD PUSH1 0x40 MLOAD SWAP1 DUP2 ADD PUSH1 0x40 MSTORE DUP1 SWAP3 SWAP2 SWAP1 DUP2 DUP2 MSTORE PUSH1 0x20 ADD DUP3 DUP1 SLOAD PUSH2 0xB45 SWAP1 PUSH2 0x25F4 JUMP JUMPDEST DUP1 ISZERO PUSH2 0xB92 JUMPI DUP1 PUSH1 0x1F LT PUSH2 0xB67 JUMPI PUSH2 0x100 DUP1 DUP4 SLOAD DIV MUL DUP4 MSTORE SWAP2 PUSH1 0x20 ADD SWAP2 PUSH2 0xB92 JUMP JUMPDEST DUP3 ADD SWAP2 SWAP1 PUSH1 0x0 MSTORE PUSH1 0x20 PUSH1 0x0 KECCAK256 SWAP1 JUMPDEST DUP2 SLOAD DUP2 MSTORE SWAP1 PUSH1 0x1 ADD SWAP1 PUSH1 0x20 ADD DUP1 DUP4 GT PUSH2 0xB75 JUMPI DUP3 SWAP1 SUB PUSH1 0x1F AND DUP3 ADD SWAP2 JUMPDEST POP POP POP POP POP DUP2 MSTORE PUSH1 0x20 ADD PUSH1 0x8 DUP3 ADD SLOAD DUP2 MSTORE POP POP DUP4 DUP4 DUP2 MLOAD DUP2 LT PUSH2 0xBB8 JUMPI PUSH2 0xBB7 PUSH2 0x279E JUMP JUMPDEST JUMPDEST PUSH1 0x20 MUL PUSH1 0x20 ADD ADD DUP2 SWAP1 MSTORE POP DUP2 DUP1 PUSH2 0xBCE SWAP1 PUSH2 0x2756 JUMP JUMPDEST SWAP3 POP POP JUMPDEST DUP1 DUP1 PUSH2 0xBDD SWAP1 PUSH2 0x2756 JUMP JUMPDEST SWAP2 POP POP PUSH2 0x705 JUMP JUMPDEST POP DUP2 SWAP4 POP POP POP POP SWAP2 SWAP1 POP JUMP JUMPDEST PUSH1 0x0 PUSH1 0x20 MSTORE DUP1 PUSH1 0x0 MSTORE PUSH1 0x40 PUSH1 0x0 KECCAK256 PUSH1 0x0 SWAP2 POP SWAP1 POP DUP1 PUSH1 0x0 ADD SLOAD SWAP1 DUP1 PUSH1 0x1 ADD DUP1 SLOAD PUSH2 0xC1A SWAP1 PUSH2 0x25F4 JUMP JUMPDEST DUP1 PUSH1 0x1F ADD PUSH1 0x20 DUP1 SWAP2 DIV MUL PUSH1 0x20 ADD PUSH1 0x40 MLOAD SWAP1 DUP2 ADD PUSH1 0x40 MSTORE DUP1 SWAP3 SWAP2 SWAP1 DUP2 DUP2 MSTORE PUSH1 0x20 ADD DUP3 DUP1 SLOAD PUSH2 0xC46 SWAP1 PUSH2 0x25F4 JUMP JUMPDEST DUP1 ISZERO PUSH2 0xC93 JUMPI DUP1 PUSH1 0x1F LT PUSH2 0xC68 JUMPI PUSH2 0x100 DUP1 DUP4 SLOAD DIV MUL DUP4 MSTORE SWAP2 PUSH1 0x20 ADD SWAP2 PUSH2 0xC93 JUMP JUMPDEST DUP3 ADD SWAP2 SWAP1 PUSH1 0x0 MSTORE PUSH1 0x20 PUSH1 0x0 KECCAK256 SWAP1 JUMPDEST DUP2 SLOAD DUP2 MSTORE SWAP1 PUSH1 0x1 ADD SWAP1 PUSH1 0x20 ADD DUP1 DUP4 GT PUSH2 0xC76 JUMPI DUP3 SWAP1 SUB PUSH1 0x1F AND DUP3 ADD SWAP2 JUMPDEST POP POP POP POP POP SWAP1 DUP1 PUSH1 0x2 ADD DUP1 SLOAD PUSH2 0xCA8 SWAP1 PUSH2 0x25F4 JUMP JUMPDEST DUP1 PUSH1 0x1F ADD PUSH1 0x20 DUP1 SWAP2 DIV MUL PUSH1 0x20 ADD PUSH1 0x40 MLOAD SWAP1 DUP2 ADD PUSH1 0x40 MSTORE DUP1 SWAP3 SWAP2 SWAP1 DUP2 DUP2 MSTORE PUSH1 0x20 ADD DUP3 DUP1 SLOAD PUSH2 0xCD4 SWAP1 PUSH2 0x25F4 JUMP JUMPDEST DUP1 ISZERO PUSH2 0xD21 JUMPI DUP1 PUSH1 0x1F LT PUSH2 0xCF6 JUMPI PUSH2 0x100 DUP1 DUP4 SLOAD DIV MUL DUP4 MSTORE SWAP2 PUSH1 0x20 ADD SWAP2 PUSH2 0xD21 JUMP JUMPDEST DUP3 ADD SWAP2 SWAP1 PUSH1 0x0 MSTORE PUSH1 0x20 PUSH1 0x0 KECCAK256 SWAP1 JUMPDEST DUP2 SLOAD DUP2 MSTORE SWAP1 PUSH1 0x1 ADD SWAP1 PUSH1 0x20 ADD DUP1 DUP4 GT PUSH2 0xD04 JUMPI DUP3 SWAP1 SUB PUSH1 0x1F AND DUP3 ADD SWAP2 JUMPDEST POP POP POP POP POP SWAP1 DUP1 PUSH1 0x3 ADD DUP1 SLOAD PUSH2 0xD36 SWAP1 PUSH2 0x25F4 JUMP JUMPDEST DUP1 PUSH1 0x1F ADD PUSH1 0x20 DUP1 SWAP2 DIV MUL PUSH1 0x20 ADD PUSH1 0x40 MLOAD SWAP1 DUP2 ADD PUSH1 0x40 MSTORE DUP1 SWAP3 SWAP2 SWAP1 DUP2 DUP2 MSTORE PUSH1 0x20 ADD DUP3 DUP1 SLOAD PUSH2 0xD62 SWAP1 PUSH2 0x25F4 JUMP JUMPDEST DUP1 ISZERO PUSH2 0xDAF JUMPI DUP1 PUSH1 0x1F LT PUSH2 0xD84 JUMPI PUSH2 0x100 DUP1 DUP4 SLOAD DIV MUL DUP4 MSTORE SWAP2 PUSH1 0x20 ADD SWAP2 PUSH2 0xDAF JUMP JUMPDEST DUP3 ADD SWAP2 SWAP1 PUSH1 0x0 MSTORE PUSH1 0x20 PUSH1 0x0 KECCAK256 SWAP1 JUMPDEST DUP2 SLOAD DUP2 MSTORE SWAP1 PUSH1 0x1 ADD SWAP1 PUSH1 0x20 ADD DUP1 DUP4 GT PUSH2 0xD92 JUMPI DUP3 SWAP1 SUB PUSH1 0x1F AND DUP3 ADD SWAP2 JUMPDEST POP POP POP POP POP SWAP1 DUP1 PUSH1 0x4 ADD DUP1 SLOAD PUSH2 0xDC4 SWAP1 PUSH2 0x25F4 JUMP JUMPDEST DUP1 PUSH1 0x1F ADD PUSH1 0x20 DUP1 SWAP2 DIV MUL PUSH1 0x20 ADD PUSH1 0x40 MLOAD SWAP1 DUP2 ADD PUSH1 0x40 MSTORE DUP1 SWAP3 SWAP2 SWAP1 DUP2 DUP2 MSTORE PUSH1 0x20 ADD DUP3 DUP1 SLOAD PUSH2 0xDF0 SWAP1 PUSH2 0x25F4 JUMP JUMPDEST DUP1 ISZERO PUSH2 0xE3D JUMPI DUP1 PUSH1 0x1F LT PUSH2 0xE12 JUMPI PUSH2 0x100 DUP1 DUP4 SLOAD DIV MUL DUP4 MSTORE SWAP2 PUSH1 0x20 ADD SWAP2 PUSH2 0xE3D JUMP JUMPDEST DUP3 ADD SWAP2 SWAP1 PUSH1 0x0 MSTORE PUSH1 0x20 PUSH1 0x0 KECCAK256 SWAP1 JUMPDEST DUP2 SLOAD DUP2 MSTORE SWAP1 PUSH1 0x1 ADD SWAP1 PUSH1 0x20 ADD DUP1 DUP4 GT PUSH2 0xE20 JUMPI DUP3 SWAP1 SUB PUSH1 0x1F AND DUP3 ADD SWAP2 JUMPDEST POP POP POP POP POP SWAP1 DUP1 PUSH1 0x5 ADD DUP1 SLOAD PUSH2 0xE52 SWAP1 PUSH2 0x25F4 JUMP JUMPDEST DUP1 PUSH1 0x1F ADD PUSH1 0x20 DUP1 SWAP2 DIV MUL PUSH1 0x20 ADD PUSH1 0x40 MLOAD SWAP1 DUP2 ADD PUSH1 0x40 MSTORE DUP1 SWAP3 SWAP2 SWAP1 DUP2 DUP2 MSTORE PUSH1 0x20 ADD DUP3 DUP1 SLOAD PUSH2 0xE7E SWAP1 PUSH2 0x25F4 JUMP JUMPDEST DUP1 ISZERO PUSH2 0xECB JUMPI DUP1 PUSH1 0x1F LT PUSH2 0xEA0 JUMPI PUSH2 0x100 DUP1 DUP4 SLOAD DIV MUL DUP4 MSTORE SWAP2 PUSH1 0x20 ADD SWAP2 PUSH2 0xECB JUMP JUMPDEST DUP3 ADD SWAP2 SWAP1 PUSH1 0x0 MSTORE PUSH1 0x20 PUSH1 0x0 KECCAK256 SWAP1 JUMPDEST DUP2 SLOAD DUP2 MSTORE SWAP1 PUSH1 0x1 ADD SWAP1 PUSH1 0x20 ADD DUP1 DUP4 GT PUSH2 0xEAE JUMPI DUP3 SWAP1 SUB PUSH1 0x1F AND DUP3 ADD SWAP2 JUMPDEST POP POP POP POP POP SWAP1 DUP1 PUSH1 0x6 ADD DUP1 SLOAD PUSH2 0xEE0 SWAP1 PUSH2 0x25F4 JUMP JUMPDEST DUP1 PUSH1 0x1F ADD PUSH1 0x20 DUP1 SWAP2 DIV MUL PUSH1 0x20 ADD PUSH1 0x40 MLOAD SWAP1 DUP2 ADD PUSH1 0x40 MSTORE DUP1 SWAP3 SWAP2 SWAP1 DUP2 DUP2 MSTORE PUSH1 0x20 ADD DUP3 DUP1 SLOAD PUSH2 0xF0C SWAP1 PUSH2 0x25F4 JUMP JUMPDEST DUP1 ISZERO PUSH2 0xF59 JUMPI DUP1 PUSH1 0x1F LT PUSH2 0xF2E JUMPI PUSH2 0x100 DUP1 DUP4 SLOAD DIV MUL DUP4 MSTORE SWAP2 PUSH1 0x20 ADD SWAP2 PUSH2 0xF59 JUMP JUMPDEST DUP3 ADD SWAP2 SWAP1 PUSH1 0x0 MSTORE PUSH1 0x20 PUSH1 0x0 KECCAK256 SWAP1 JUMPDEST DUP2 SLOAD DUP2 MSTORE SWAP1 PUSH1 0x1 ADD SWAP1 PUSH1 0x20 ADD DUP1 DUP4 GT PUSH2 0xF3C JUMPI DUP3 SWAP1 SUB PUSH1 0x1F AND DUP3 ADD SWAP2 JUMPDEST POP POP POP POP POP SWAP1 DUP1 PUSH1 0x7 ADD DUP1 SLOAD PUSH2 0xF6E SWAP1 PUSH2 0x25F4 JUMP JUMPDEST DUP1 PUSH1 0x1F ADD PUSH1 0x20 DUP1 SWAP2 DIV MUL PUSH1 0x20 ADD PUSH1 0x40 MLOAD SWAP1 DUP2 ADD PUSH1 0x40 MSTORE DUP1 SWAP3 SWAP2 SWAP1 DUP2 DUP2 MSTORE PUSH1 0x20 ADD DUP3 DUP1 SLOAD PUSH2 0xF9A SWAP1 PUSH2 0x25F4 JUMP JUMPDEST DUP1 ISZERO PUSH2 0xFE7 JUMPI DUP1 PUSH1 0x1F LT PUSH2 0xFBC JUMPI PUSH2 0x100 DUP1 DUP4 SLOAD DIV MUL DUP4 MSTORE SWAP2 PUSH1 0x20 ADD SWAP2 PUSH2 0xFE7 JUMP JUMPDEST DUP3 ADD SWAP2 SWAP1 PUSH1 0x0 MSTORE PUSH1 0x20 PUSH1 0x0 KECCAK256 SWAP1 JUMPDEST DUP2 SLOAD DUP2 MSTORE SWAP1 PUSH1 0x1 ADD SWAP1 PUSH1 0x20 ADD DUP1 DUP4 GT PUSH2 0xFCA JUMPI DUP3 SWAP1 SUB PUSH1 0x1F AND DUP3 ADD SWAP2 JUMPDEST POP POP POP POP POP SWAP1 DUP1 PUSH1 0x8 ADD SLOAD SWAP1 POP DUP10 JUMP JUMPDEST PUSH1 0x1 PUSH1 0x0 DUP2 SLOAD DUP1 SWAP3 SWAP2 SWAP1 PUSH2 0x100A SWAP1 PUSH2 0x2756 JUMP JUMPDEST SWAP2 SWAP1 POP SSTORE POP PUSH1 0x40 MLOAD DUP1 PUSH2 0x120 ADD PUSH1 0x40 MSTORE DUP1 PUSH1 0x1 SLOAD DUP2 MSTORE PUSH1 0x20 ADD DUP10 DUP2 MSTORE PUSH1 0x20 ADD DUP9 DUP2 MSTORE PUSH1 0x20 ADD DUP8 DUP2 MSTORE PUSH1 0x20 ADD DUP7 DUP2 MSTORE PUSH1 0x20 ADD DUP6 DUP2 MSTORE PUSH1 0x20 ADD DUP5 DUP2 MSTORE PUSH1 0x20 ADD DUP4 DUP2 MSTORE PUSH1 0x20 ADD DUP3 DUP2 MSTORE POP PUSH1 0x0 DUP1 PUSH1 0x1 SLOAD DUP2 MSTORE PUSH1 0x20 ADD SWAP1 DUP2 MSTORE PUSH1 0x20 ADD PUSH1 0x0 KECCAK256 PUSH1 0x0 DUP3 ADD MLOAD DUP2 PUSH1 0x0 ADD SSTORE PUSH1 0x20 DUP3 ADD MLOAD DUP2 PUSH1 0x1 ADD SWAP1 DUP2 PUSH2 0x1084 SWAP2 SWAP1 PUSH2 0x2964 JUMP JUMPDEST POP PUSH1 0x40 DUP3 ADD MLOAD DUP2 PUSH1 0x2 ADD SWAP1 DUP2 PUSH2 0x109A SWAP2 SWAP1 PUSH2 0x2964 JUMP JUMPDEST POP PUSH1 0x60 DUP3 ADD MLOAD DUP2 PUSH1 0x3 ADD SWAP1 DUP2 PUSH2 0x10B0 SWAP2 SWAP1 PUSH2 0x2964 JUMP JUMPDEST POP PUSH1 0x80 DUP3 ADD MLOAD DUP2 PUSH1 0x4 ADD SWAP1 DUP2 PUSH2 0x10C6 SWAP2 SWAP1 PUSH2 0x2964 JUMP JUMPDEST POP PUSH1 0xA0 DUP3 ADD MLOAD DUP2 PUSH1 0x5 ADD SWAP1 DUP2 PUSH2 0x10DC SWAP2 SWAP1 PUSH2 0x2964 JUMP JUMPDEST POP PUSH1 0xC0 DUP3 ADD MLOAD DUP2 PUSH1 0x6 ADD SWAP1 DUP2 PUSH2 0x10F2 SWAP2 SWAP1 PUSH2 0x2964 JUMP JUMPDEST POP PUSH1 0xE0 DUP3 ADD MLOAD DUP2 PUSH1 0x7 ADD SWAP1 DUP2 PUSH2 0x1108 SWAP2 SWAP1 PUSH2 0x2964 JUMP JUMPDEST POP PUSH2 0x100 DUP3 ADD MLOAD DUP2 PUSH1 0x8 ADD SSTORE SWAP1 POP POP PUSH1 0x1 SLOAD PUSH32 0x7B4968F6FA44D4C825736654173422261C8568A6C3DA8A5B336270401BD3C8B DUP10 DUP10 DUP10 DUP10 DUP10 DUP10 DUP10 DUP10 PUSH1 0x40 MLOAD PUSH2 0x1157 SWAP9 SWAP8 SWAP7 SWAP6 SWAP5 SWAP4 SWAP3 SWAP2 SWAP1 PUSH2 0x2A36 JUMP JUMPDEST PUSH1 0x40 MLOAD DUP1 SWAP2 SUB SWAP1 LOG2 POP POP POP POP POP POP POP POP JUMP JUMPDEST PUSH1 0x60 PUSH1 0x0 PUSH1 0x1 SLOAD PUSH8 0xFFFFFFFFFFFFFFFF DUP2 GT ISZERO PUSH2 0x1189 JUMPI PUSH2 0x1188 PUSH2 0x1F63 JUMP JUMPDEST JUMPDEST PUSH1 0x40 MLOAD SWAP1 DUP1 DUP3 MSTORE DUP1 PUSH1 0x20 MUL PUSH1 0x20 ADD DUP3 ADD PUSH1 0x40 MSTORE DUP1 ISZERO PUSH2 0x11C2 JUMPI DUP2 PUSH1 0x20 ADD JUMPDEST PUSH2 0x11AF PUSH2 0x1CE6 JUMP JUMPDEST DUP2 MSTORE PUSH1 0x20 ADD SWAP1 PUSH1 0x1 SWAP1 SUB SWAP1 DUP2 PUSH2 0x11A7 JUMPI SWAP1 POP JUMPDEST POP SWAP1 POP PUSH1 0x0 PUSH1 0x1 SWAP1 POP JUMPDEST PUSH1 0x1 SLOAD DUP2 GT PUSH2 0x1642 JUMPI PUSH1 0x0 DUP1 DUP3 DUP2 MSTORE PUSH1 0x20 ADD SWAP1 DUP2 MSTORE PUSH1 0x20 ADD PUSH1 0x0 KECCAK256 PUSH1 0x40 MLOAD DUP1 PUSH2 0x120 ADD PUSH1 0x40 MSTORE SWAP1 DUP2 PUSH1 0x0 DUP3 ADD SLOAD DUP2 MSTORE PUSH1 0x20 ADD PUSH1 0x1 DUP3 ADD DUP1 SLOAD PUSH2 0x120D SWAP1 PUSH2 0x25F4 JUMP JUMPDEST DUP1 PUSH1 0x1F ADD PUSH1 0x20 DUP1 SWAP2 DIV MUL PUSH1 0x20 ADD PUSH1 0x40 MLOAD SWAP1 DUP2 ADD PUSH1 0x40 MSTORE DUP1 SWAP3 SWAP2 SWAP1 DUP2 DUP2 MSTORE PUSH1 0x20 ADD DUP3 DUP1 SLOAD PUSH2 0x1239 SWAP1 PUSH2 0x25F4 JUMP JUMPDEST DUP1 ISZERO PUSH2 0x1286 JUMPI DUP1 PUSH1 0x1F LT PUSH2 0x125B JUMPI PUSH2 0x100 DUP1 DUP4 SLOAD DIV MUL DUP4 MSTORE SWAP2 PUSH1 0x20 ADD SWAP2 PUSH2 0x1286 JUMP JUMPDEST DUP3 ADD SWAP2 SWAP1 PUSH1 0x0 MSTORE PUSH1 0x20 PUSH1 0x0 KECCAK256 SWAP1 JUMPDEST DUP2 SLOAD DUP2 MSTORE SWAP1 PUSH1 0x1 ADD SWAP1 PUSH1 0x20 ADD DUP1 DUP4 GT PUSH2 0x1269 JUMPI DUP3 SWAP1 SUB PUSH1 0x1F AND DUP3 ADD SWAP2 JUMPDEST POP POP POP POP POP DUP2 MSTORE PUSH1 0x20 ADD PUSH1 0x2 DUP3 ADD DUP1 SLOAD PUSH2 0x129F SWAP1 PUSH2 0x25F4 JUMP JUMPDEST DUP1 PUSH1 0x1F ADD PUSH1 0x20 DUP1 SWAP2 DIV MUL PUSH1 0x20 ADD PUSH1 0x40 MLOAD SWAP1 DUP2 ADD PUSH1 0x40 MSTORE DUP1 SWAP3 SWAP2 SWAP1 DUP2 DUP2 MSTORE PUSH1 0x20 ADD DUP3 DUP1 SLOAD PUSH2 0x12CB SWAP1 PUSH2 0x25F4 JUMP JUMPDEST DUP1 ISZERO PUSH2 0x1318 JUMPI DUP1 PUSH1 0x1F LT PUSH2 0x12ED JUMPI PUSH2 0x100 DUP1 DUP4 SLOAD DIV MUL DUP4 MSTORE SWAP2 PUSH1 0x20 ADD SWAP2 PUSH2 0x1318 JUMP JUMPDEST DUP3 ADD SWAP2 SWAP1 PUSH1 0x0 MSTORE PUSH1 0x20 PUSH1 0x0 KECCAK256 SWAP1 JUMPDEST DUP2 SLOAD DUP2 MSTORE SWAP1 PUSH1 0x1 ADD SWAP1 PUSH1 0x20 ADD DUP1 DUP4 GT PUSH2 0x12FB JUMPI DUP3 SWAP1 SUB PUSH1 0x1F AND DUP3 ADD SWAP2 JUMPDEST POP POP POP POP POP DUP2 MSTORE PUSH1 0x20 ADD PUSH1 0x3 DUP3 ADD DUP1 SLOAD PUSH2 0x1331 SWAP1 PUSH2 0x25F4 JUMP JUMPDEST DUP1 PUSH1 0x1F ADD PUSH1 0x20 DUP1 SWAP2 DIV MUL PUSH1 0x20 ADD PUSH1 0x40 MLOAD SWAP1 DUP2 ADD PUSH1 0x40 MSTORE DUP1 SWAP3 SWAP2 SWAP1 DUP2 DUP2 MSTORE PUSH1 0x20 ADD DUP3 DUP1 SLOAD PUSH2 0x135D SWAP1 PUSH2 0x25F4 JUMP JUMPDEST DUP1 ISZERO PUSH2 0x13AA JUMPI DUP1 PUSH1 0x1F LT PUSH2 0x137F JUMPI PUSH2 0x100 DUP1 DUP4 SLOAD DIV MUL DUP4 MSTORE SWAP2 PUSH1 0x20 ADD SWAP2 PUSH2 0x13AA JUMP JUMPDEST DUP3 ADD SWAP2 SWAP1 PUSH1 0x0 MSTORE PUSH1 0x20 PUSH1 0x0 KECCAK256 SWAP1 JUMPDEST DUP2 SLOAD DUP2 MSTORE SWAP1 PUSH1 0x1 ADD SWAP1 PUSH1 0x20 ADD DUP1 DUP4 GT PUSH2 0x138D JUMPI DUP3 SWAP1 SUB PUSH1 0x1F AND DUP3 ADD SWAP2 JUMPDEST POP POP POP POP POP DUP2 MSTORE PUSH1 0x20 ADD PUSH1 0x4 DUP3 ADD DUP1 SLOAD PUSH2 0x13C3 SWAP1 PUSH2 0x25F4 JUMP JUMPDEST DUP1 PUSH1 0x1F ADD PUSH1 0x20 DUP1 SWAP2 DIV MUL PUSH1 0x20 ADD PUSH1 0x40 MLOAD SWAP1 DUP2 ADD PUSH1 0x40 MSTORE DUP1 SWAP3 SWAP2 SWAP1 DUP2 DUP2 MSTORE PUSH1 0x20 ADD DUP3 DUP1 SLOAD PUSH2 0x13EF SWAP1 PUSH2 0x25F4 JUMP JUMPDEST DUP1 ISZERO PUSH2 0x143C JUMPI DUP1 PUSH1 0x1F LT PUSH2 0x1411 JUMPI PUSH2 0x100 DUP1 DUP4 SLOAD DIV MUL DUP4 MSTORE SWAP2 PUSH1 0x20 ADD SWAP2 PUSH2 0x143C JUMP JUMPDEST DUP3 ADD SWAP2 SWAP1 PUSH1 0x0 MSTORE PUSH1 0x20 PUSH1 0x0 KECCAK256 SWAP1 JUMPDEST DUP2 SLOAD DUP2 MSTORE SWAP1 PUSH1 0x1 ADD SWAP1 PUSH1 0x20 ADD DUP1 DUP4 GT PUSH2 0x141F JUMPI DUP3 SWAP1 SUB PUSH1 0x1F AND DUP3 ADD SWAP2 JUMPDEST POP POP POP POP POP DUP2 MSTORE PUSH1 0x20 ADD PUSH1 0x5 DUP3 ADD DUP1 SLOAD PUSH2 0x1455 SWAP1 PUSH2 0x25F4 JUMP JUMPDEST DUP1 PUSH1 0x1F ADD PUSH1 0x20 DUP1 SWAP2 DIV MUL PUSH1 0x20 ADD PUSH1 0x40 MLOAD SWAP1 DUP2 ADD PUSH1 0x40 MSTORE DUP1 SWAP3 SWAP2 SWAP1 DUP2 DUP2 MSTORE PUSH1 0x20 ADD DUP3 DUP1 SLOAD PUSH2 0x1481 SWAP1 PUSH2 0x25F4 JUMP JUMPDEST DUP1 ISZERO PUSH2 0x14CE JUMPI DUP1 PUSH1 0x1F LT PUSH2 0x14A3 JUMPI PUSH2 0x100 DUP1 DUP4 SLOAD DIV MUL DUP4 MSTORE SWAP2 PUSH1 0x20 ADD SWAP2 PUSH2 0x14CE JUMP JUMPDEST DUP3 ADD SWAP2 SWAP1 PUSH1 0x0 MSTORE PUSH1 0x20 PUSH1 0x0 KECCAK256 SWAP1 JUMPDEST DUP2 SLOAD DUP2 MSTORE SWAP1 PUSH1 0x1 ADD SWAP1 PUSH1 0x20 ADD DUP1 DUP4 GT PUSH2 0x14B1 JUMPI DUP3 SWAP1 SUB PUSH1 0x1F AND DUP3 ADD SWAP2 JUMPDEST POP POP POP POP POP DUP2 MSTORE PUSH1 0x20 ADD PUSH1 0x6 DUP3 ADD DUP1 SLOAD PUSH2 0x14E7 SWAP1 PUSH2 0x25F4 JUMP JUMPDEST DUP1 PUSH1 0x1F ADD PUSH1 0x20 DUP1 SWAP2 DIV MUL PUSH1 0x20 ADD PUSH1 0x40 MLOAD SWAP1 DUP2 ADD PUSH1 0x40 MSTORE DUP1 SWAP3 SWAP2 SWAP1 DUP2 DUP2 MSTORE PUSH1 0x20 ADD DUP3 DUP1 SLOAD PUSH2 0x1513 SWAP1 PUSH2 0x25F4 JUMP JUMPDEST DUP1 ISZERO PUSH2 0x1560 JUMPI DUP1 PUSH1 0x1F LT PUSH2 0x1535 JUMPI PUSH2 0x100 DUP1 DUP4 SLOAD DIV MUL DUP4 MSTORE SWAP2 PUSH1 0x20 ADD SWAP2 PUSH2 0x1560 JUMP JUMPDEST DUP3 ADD SWAP2 SWAP1 PUSH1 0x0 MSTORE PUSH1 0x20 PUSH1 0x0 KECCAK256 SWAP1 JUMPDEST DUP2 SLOAD DUP2 MSTORE SWAP1 PUSH1 0x1 ADD SWAP1 PUSH1 0x20 ADD DUP1 DUP4 GT PUSH2 0x1543 JUMPI DUP3 SWAP1 SUB PUSH1 0x1F AND DUP3 ADD SWAP2 JUMPDEST POP POP POP POP POP DUP2 MSTORE PUSH1 0x20 ADD PUSH1 0x7 DUP3 ADD DUP1 SLOAD PUSH2 0x1579 SWAP1 PUSH2 0x25F4 JUMP JUMPDEST DUP1 PUSH1 0x1F ADD PUSH1 0x20 DUP1 SWAP2 DIV MUL PUSH1 0x20 ADD PUSH1 0x40 MLOAD SWAP1 DUP2 ADD PUSH1 0x40 MSTORE DUP1 SWAP3 SWAP2 SWAP1 DUP2 DUP2 MSTORE PUSH1 0x20 ADD DUP3 DUP1 SLOAD PUSH2 0x15A5 SWAP1 PUSH2 0x25F4 JUMP JUMPDEST DUP1 ISZERO PUSH2 0x15F2 JUMPI DUP1 PUSH1 0x1F LT PUSH2 0x15C7 JUMPI PUSH2 0x100 DUP1 DUP4 SLOAD DIV MUL DUP4 MSTORE SWAP2 PUSH1 0x20 ADD SWAP2 PUSH2 0x15F2 JUMP JUMPDEST DUP3 ADD SWAP2 SWAP1 PUSH1 0x0 MSTORE PUSH1 0x20 PUSH1 0x0 KECCAK256 SWAP1 JUMPDEST DUP2 SLOAD DUP2 MSTORE SWAP1 PUSH1 0x1 ADD SWAP1 PUSH1 0x20 ADD DUP1 DUP4 GT PUSH2 0x15D5 JUMPI DUP3 SWAP1 SUB PUSH1 0x1F AND DUP3 ADD SWAP2 JUMPDEST POP POP POP POP POP DUP2 MSTORE PUSH1 0x20 ADD PUSH1 0x8 DUP3 ADD SLOAD DUP2 MSTORE POP POP DUP3 PUSH1 0x1 DUP4 PUSH2 0x1613 SWAP2 SWAP1 PUSH2 0x2AE5 JUMP JUMPDEST DUP2 MLOAD DUP2 LT PUSH2 0x1624 JUMPI PUSH2 0x1623 PUSH2 0x279E JUMP JUMPDEST JUMPDEST PUSH1 0x20 MUL PUSH1 0x20 ADD ADD DUP2 SWAP1 MSTORE POP DUP1 DUP1 PUSH2 0x163A SWAP1 PUSH2 0x2756 JUMP JUMPDEST SWAP2 POP POP PUSH2 0x11CC JUMP JUMPDEST POP DUP1 SWAP2 POP POP SWAP1 JUMP JUMPDEST PUSH1 0x1 SLOAD DUP2 JUMP JUMPDEST PUSH1 0x1 SLOAD DUP4 GT ISZERO PUSH2 0x1695 JUMPI PUSH1 0x40 MLOAD PUSH32 0x8C379A000000000000000000000000000000000000000000000000000000000 DUP2 MSTORE PUSH1 0x4 ADD PUSH2 0x168C SWAP1 PUSH2 0x2B65 JUMP JUMPDEST PUSH1 0x40 MLOAD DUP1 SWAP2 SUB SWAP1 REVERT JUMPDEST PUSH1 0x0 DUP1 PUSH1 0x0 DUP6 DUP2 MSTORE PUSH1 0x20 ADD SWAP1 DUP2 MSTORE PUSH1 0x20 ADD PUSH1 0x0 KECCAK256 SWAP1 POP DUP3 DUP2 PUSH1 0x7 ADD SWAP1 DUP2 PUSH2 0x16BC SWAP2 SWAP1 PUSH2 0x2964 JUMP JUMPDEST POP DUP4 PUSH32 0xCBC92FE73220C7CC1450FF1070F1BECF254013A1CD6A9D95A4B7C2055B3E9AC9 DUP5 DUP5 PUSH1 0x40 MLOAD PUSH2 0x16EF SWAP3 SWAP2 SWAP1 PUSH2 0x2B85 JUMP JUMPDEST PUSH1 0x40 MLOAD DUP1 SWAP2 SUB SWAP1 LOG2 POP POP POP POP JUMP JUMPDEST PUSH1 0x60 PUSH1 0x0 DUP1 PUSH1 0x1 SWAP1 POP JUMPDEST PUSH1 0x1 SLOAD DUP2 GT PUSH2 0x1799 JUMPI DUP4 PUSH1 0x40 MLOAD PUSH1 0x20 ADD PUSH2 0x1721 SWAP2 SWAP1 PUSH2 0x2661 JUMP JUMPDEST PUSH1 0x40 MLOAD PUSH1 0x20 DUP2 DUP4 SUB SUB DUP2 MSTORE SWAP1 PUSH1 0x40 MSTORE DUP1 MLOAD SWAP1 PUSH1 0x20 ADD KECCAK256 PUSH1 0x0 DUP1 DUP4 DUP2 MSTORE PUSH1 0x20 ADD SWAP1 DUP2 MSTORE PUSH1 0x20 ADD PUSH1 0x0 KECCAK256 PUSH1 0x3 ADD PUSH1 0x40 MLOAD PUSH1 0x20 ADD PUSH2 0x175C SWAP2 SWAP1 PUSH2 0x2710 JUMP JUMPDEST PUSH1 0x40 MLOAD PUSH1 0x20 DUP2 DUP4 SUB SUB DUP2 MSTORE SWAP1 PUSH1 0x40 MSTORE DUP1 MLOAD SWAP1 PUSH1 0x20 ADD KECCAK256 SUB PUSH2 0x1786 JUMPI DUP2 DUP1 PUSH2 0x1782 SWAP1 PUSH2 0x2756 JUMP JUMPDEST SWAP3 POP POP JUMPDEST DUP1 DUP1 PUSH2 0x1791 SWAP1 PUSH2 0x2756 JUMP JUMPDEST SWAP2 POP POP PUSH2 0x1707 JUMP JUMPDEST POP PUSH1 0x0 DUP2 PUSH8 0xFFFFFFFFFFFFFFFF DUP2 GT ISZERO PUSH2 0x17B6 JUMPI PUSH2 0x17B5 PUSH2 0x1F63 JUMP JUMPDEST JUMPDEST PUSH1 0x40 MLOAD SWAP1 DUP1 DUP3 MSTORE DUP1 PUSH1 0x20 MUL PUSH1 0x20 ADD DUP3 ADD PUSH1 0x40 MSTORE DUP1 ISZERO PUSH2 0x17EF JUMPI DUP2 PUSH1 0x20 ADD JUMPDEST PUSH2 0x17DC PUSH2 0x1CE6 JUMP JUMPDEST DUP2 MSTORE PUSH1 0x20 ADD SWAP1 PUSH1 0x1 SWAP1 SUB SWAP1 DUP2 PUSH2 0x17D4 JUMPI SWAP1 POP JUMPDEST POP SWAP1 POP PUSH1 0x0 DUP1 PUSH1 0x1 SWAP1 POP JUMPDEST PUSH1 0x1 SLOAD DUP2 GT PUSH2 0x1CDA JUMPI DUP6 PUSH1 0x40 MLOAD PUSH1 0x20 ADD PUSH2 0x1814 SWAP2 SWAP1 PUSH2 0x2661 JUMP JUMPDEST PUSH1 0x40 MLOAD PUSH1 0x20 DUP2 DUP4 SUB SUB DUP2 MSTORE SWAP1 PUSH1 0x40 MSTORE DUP1 MLOAD SWAP1 PUSH1 0x20 ADD KECCAK256 PUSH1 0x0 DUP1 DUP4 DUP2 MSTORE PUSH1 0x20 ADD SWAP1 DUP2 MSTORE PUSH1 0x20 ADD PUSH1 0x0 KECCAK256 PUSH1 0x3 ADD PUSH1 0x40 MLOAD PUSH1 0x20 ADD PUSH2 0x184F SWAP2 SWAP1 PUSH2 0x2710 JUMP JUMPDEST PUSH1 0x40 MLOAD PUSH1 0x20 DUP2 DUP4 SUB SUB DUP2 MSTORE SWAP1 PUSH1 0x40 MSTORE DUP1 MLOAD SWAP1 PUSH1 0x20 ADD KECCAK256 SUB PUSH2 0x1CC7 JUMPI PUSH1 0x0 DUP1 DUP3 DUP2 MSTORE PUSH1 0x20 ADD SWAP1 DUP2 MSTORE PUSH1 0x20 ADD PUSH1 0x0 KECCAK256 PUSH1 0x40 MLOAD DUP1 PUSH2 0x120 ADD PUSH1 0x40 MSTORE SWAP1 DUP2 PUSH1 0x0 DUP3 ADD SLOAD DUP2 MSTORE PUSH1 0x20 ADD PUSH1 0x1 DUP3 ADD DUP1 SLOAD PUSH2 0x18A2 SWAP1 PUSH2 0x25F4 JUMP JUMPDEST DUP1 PUSH1 0x1F ADD PUSH1 0x20 DUP1 SWAP2 DIV MUL PUSH1 0x20 ADD PUSH1 0x40 MLOAD SWAP1 DUP2 ADD PUSH1 0x40 MSTORE DUP1 SWAP3 SWAP2 SWAP1 DUP2 DUP2 MSTORE PUSH1 0x20 ADD DUP3 DUP1 SLOAD PUSH2 0x18CE SWAP1 PUSH2 0x25F4 JUMP JUMPDEST DUP1 ISZERO PUSH2 0x191B JUMPI DUP1 PUSH1 0x1F LT PUSH2 0x18F0 JUMPI PUSH2 0x100 DUP1 DUP4 SLOAD DIV MUL DUP4 MSTORE SWAP2 PUSH1 0x20 ADD SWAP2 PUSH2 0x191B JUMP JUMPDEST DUP3 ADD SWAP2 SWAP1 PUSH1 0x0 MSTORE PUSH1 0x20 PUSH1 0x0 KECCAK256 SWAP1 JUMPDEST DUP2 SLOAD DUP2 MSTORE SWAP1 PUSH1 0x1 ADD SWAP1 PUSH1 0x20 ADD DUP1 DUP4 GT PUSH2 0x18FE JUMPI DUP3 SWAP1 SUB PUSH1 0x1F AND DUP3 ADD SWAP2 JUMPDEST POP POP POP POP POP DUP2 MSTORE PUSH1 0x20 ADD PUSH1 0x2 DUP3 ADD DUP1 SLOAD PUSH2 0x1934 SWAP1 PUSH2 0x25F4 JUMP JUMPDEST DUP1 PUSH1 0x1F ADD PUSH1 0x20 DUP1 SWAP2 DIV MUL PUSH1 0x20 ADD PUSH1 0x40 MLOAD SWAP1 DUP2 ADD PUSH1 0x40 MSTORE DUP1 SWAP3 SWAP2 SWAP1 DUP2 DUP2 MSTORE PUSH1 0x20 ADD DUP3 DUP1 SLOAD PUSH2 0x1960 SWAP1 PUSH2 0x25F4 JUMP JUMPDEST DUP1 ISZERO PUSH2 0x19AD JUMPI DUP1 PUSH1 0x1F LT PUSH2 0x1982 JUMPI PUSH2 0x100 DUP1 DUP4 SLOAD DIV MUL DUP4 MSTORE SWAP2 PUSH1 0x20 ADD SWAP2 PUSH2 0x19AD JUMP JUMPDEST DUP3 ADD SWAP2 SWAP1 PUSH1 0x0 MSTORE PUSH1 0x20 PUSH1 0x0 KECCAK256 SWAP1 JUMPDEST DUP2 SLOAD DUP2 MSTORE SWAP1 PUSH1 0x1 ADD SWAP1 PUSH1 0x20 ADD DUP1 DUP4 GT PUSH2 0x1990 JUMPI DUP3 SWAP1 SUB PUSH1 0x1F AND DUP3 ADD SWAP2 JUMPDEST POP POP POP POP POP DUP2 MSTORE PUSH1 0x20 ADD PUSH1 0x3 DUP3 ADD DUP1 SLOAD PUSH2 0x19C6 SWAP1 PUSH2 0x25F4 JUMP JUMPDEST DUP1 PUSH1 0x1F ADD PUSH1 0x20 DUP1 SWAP2 DIV MUL PUSH1 0x20 ADD PUSH1 0x40 MLOAD SWAP1 DUP2 ADD PUSH1 0x40 MSTORE DUP1 SWAP3 SWAP2 SWAP1 DUP2 DUP2 MSTORE PUSH1 0x20 ADD DUP3 DUP1 SLOAD PUSH2 0x19F2 SWAP1 PUSH2 0x25F4 JUMP JUMPDEST DUP1 ISZERO PUSH2 0x1A3F JUMPI DUP1 PUSH1 0x1F LT PUSH2 0x1A14 JUMPI PUSH2 0x100 DUP1 DUP4 SLOAD DIV MUL DUP4 MSTORE SWAP2 PUSH1 0x20 ADD SWAP2 PUSH2 0x1A3F JUMP JUMPDEST DUP3 ADD SWAP2 SWAP1 PUSH1 0x0 MSTORE PUSH1 0x20 PUSH1 0x0 KECCAK256 SWAP1 JUMPDEST DUP2 SLOAD DUP2 MSTORE SWAP1 PUSH1 0x1 ADD SWAP1 PUSH1 0x20 ADD DUP1 DUP4 GT PUSH2 0x1A22 JUMPI DUP3 SWAP1 SUB PUSH1 0x1F AND DUP3 ADD SWAP2 JUMPDEST POP POP POP POP POP DUP2 MSTORE PUSH1 0x20 ADD PUSH1 0x4 DUP3 ADD DUP1 SLOAD PUSH2 0x1A58 SWAP1 PUSH2 0x25F4 JUMP JUMPDEST DUP1 PUSH1 0x1F ADD PUSH1 0x20 DUP1 SWAP2 DIV MUL PUSH1 0x20 ADD PUSH1 0x40 MLOAD SWAP1 DUP2 ADD PUSH1 0x40 MSTORE DUP1 SWAP3 SWAP2 SWAP1 DUP2 DUP2 MSTORE PUSH1 0x20 ADD DUP3 DUP1 SLOAD PUSH2 0x1A84 SWAP1 PUSH2 0x25F4 JUMP JUMPDEST DUP1 ISZERO PUSH2 0x1AD1 JUMPI DUP1 PUSH1 0x1F LT PUSH2 0x1AA6 JUMPI PUSH2 0x100 DUP1 DUP4 SLOAD DIV MUL DUP4 MSTORE SWAP2 PUSH1 0x20 ADD SWAP2 PUSH2 0x1AD1 JUMP JUMPDEST DUP3 ADD SWAP2 SWAP1 PUSH1 0x0 MSTORE PUSH1 0x20 PUSH1 0x0 KECCAK256 SWAP1 JUMPDEST DUP2 SLOAD DUP2 MSTORE SWAP1 PUSH1 0x1 ADD SWAP1 PUSH1 0x20 ADD DUP1 DUP4 GT PUSH2 0x1AB4 JUMPI DUP3 SWAP1 SUB PUSH1 0x1F AND DUP3 ADD SWAP2 JUMPDEST POP POP POP POP POP DUP2 MSTORE PUSH1 0x20 ADD PUSH1 0x5 DUP3 ADD DUP1 SLOAD PUSH2 0x1AEA SWAP1 PUSH2 0x25F4 JUMP JUMPDEST DUP1 PUSH1 0x1F ADD PUSH1 0x20 DUP1 SWAP2 DIV MUL PUSH1 0x20 ADD PUSH1 0x40 MLOAD SWAP1 DUP2 ADD PUSH1 0x40 MSTORE DUP1 SWAP3 SWAP2 SWAP1 DUP2 DUP2 MSTORE PUSH1 0x20 ADD DUP3 DUP1 SLOAD PUSH2 0x1B16 SWAP1 PUSH2 0x25F4 JUMP JUMPDEST DUP1 ISZERO PUSH2 0x1B63 JUMPI DUP1 PUSH1 0x1F LT PUSH2 0x1B38 JUMPI PUSH2 0x100 DUP1 DUP4 SLOAD DIV MUL DUP4 MSTORE SWAP2 PUSH1 0x20 ADD SWAP2 PUSH2 0x1B63 JUMP JUMPDEST DUP3 ADD SWAP2 SWAP1 PUSH1 0x0 MSTORE PUSH1 0x20 PUSH1 0x0 KECCAK256 SWAP1 JUMPDEST DUP2 SLOAD DUP2 MSTORE SWAP1 PUSH1 0x1 ADD SWAP1 PUSH1 0x20 ADD DUP1 DUP4 GT PUSH2 0x1B46 JUMPI DUP3 SWAP1 SUB PUSH1 0x1F AND DUP3 ADD SWAP2 JUMPDEST POP POP POP POP POP DUP2 MSTORE PUSH1 0x20 ADD PUSH1 0x6 DUP3 ADD DUP1 SLOAD PUSH2 0x1B7C SWAP1 PUSH2 0x25F4 JUMP JUMPDEST DUP1 PUSH1 0x1F ADD PUSH1 0x20 DUP1 SWAP2 DIV MUL PUSH1 0x20 ADD PUSH1 0x40 MLOAD SWAP1 DUP2 ADD PUSH1 0x40 MSTORE DUP1 SWAP3 SWAP2 SWAP1 DUP2 DUP2 MSTORE PUSH1 0x20 ADD DUP3 DUP1 SLOAD PUSH2 0x1BA8 SWAP1 PUSH2 0x25F4 JUMP JUMPDEST DUP1 ISZERO PUSH2 0x1BF5 JUMPI DUP1 PUSH1 0x1F LT PUSH2 0x1BCA JUMPI PUSH2 0x100 DUP1 DUP4 SLOAD DIV MUL DUP4 MSTORE SWAP2 PUSH1 0x20 ADD SWAP2 PUSH2 0x1BF5 JUMP JUMPDEST DUP3 ADD SWAP2 SWAP1 PUSH1 0x0 MSTORE PUSH1 0x20 PUSH1 0x0 KECCAK256 SWAP1 JUMPDEST DUP2 SLOAD DUP2 MSTORE SWAP1 PUSH1 0x1 ADD SWAP1 PUSH1 0x20 ADD DUP1 DUP4 GT PUSH2 0x1BD8 JUMPI DUP3 SWAP1 SUB PUSH1 0x1F AND DUP3 ADD SWAP2 JUMPDEST POP POP POP POP POP DUP2 MSTORE PUSH1 0x20 ADD PUSH1 0x7 DUP3 ADD DUP1 SLOAD PUSH2 0x1C0E SWAP1 PUSH2 0x25F4 JUMP JUMPDEST DUP1 PUSH1 0x1F ADD PUSH1 0x20 DUP1 SWAP2 DIV MUL PUSH1 0x20 ADD PUSH1 0x40 MLOAD SWAP1 DUP2 ADD PUSH1 0x40 MSTORE DUP1 SWAP3 SWAP2 SWAP1 DUP2 DUP2 MSTORE PUSH1 0x20 ADD DUP3 DUP1 SLOAD PUSH2 0x1C3A SWAP1 PUSH2 0x25F4 JUMP JUMPDEST DUP1 ISZERO PUSH2 0x1C87 JUMPI DUP1 PUSH1 0x1F LT PUSH2 0x1C5C JUMPI PUSH2 0x100 DUP1 DUP4 SLOAD DIV MUL DUP4 MSTORE SWAP2 PUSH1 0x20 ADD SWAP2 PUSH2 0x1C87 JUMP JUMPDEST DUP3 ADD SWAP2 SWAP1 PUSH1 0x0 MSTORE PUSH1 0x20 PUSH1 0x0 KECCAK256 SWAP1 JUMPDEST DUP2 SLOAD DUP2 MSTORE SWAP1 PUSH1 0x1 ADD SWAP1 PUSH1 0x20 ADD DUP1 DUP4 GT PUSH2 0x1C6A JUMPI DUP3 SWAP1 SUB PUSH1 0x1F AND DUP3 ADD SWAP2 JUMPDEST POP POP POP POP POP DUP2 MSTORE PUSH1 0x20 ADD PUSH1 0x8 DUP3 ADD SLOAD DUP2 MSTORE POP POP DUP4 DUP4 DUP2 MLOAD DUP2 LT PUSH2 0x1CAD JUMPI PUSH2 0x1CAC PUSH2 0x279E JUMP JUMPDEST JUMPDEST PUSH1 0x20 MUL PUSH1 0x20 ADD ADD DUP2 SWAP1 MSTORE POP DUP2 DUP1 PUSH2 0x1CC3 SWAP1 PUSH2 0x2756 JUMP JUMPDEST SWAP3 POP POP JUMPDEST DUP1 DUP1 PUSH2 0x1CD2 SWAP1 PUSH2 0x2756 JUMP JUMPDEST SWAP2 POP POP PUSH2 0x17FA JUMP JUMPDEST POP DUP2 SWAP4 POP POP POP POP SWAP2 SWAP1 POP JUMP JUMPDEST PUSH1 0x40 MLOAD DUP1 PUSH2 0x120 ADD PUSH1 0x40 MSTORE DUP1 PUSH1 0x0 DUP2 MSTORE PUSH1 0x20 ADD PUSH1 0x60 DUP2 MSTORE PUSH1 0x20 ADD PUSH1 0x60 DUP2 MSTORE PUSH1 0x20 ADD PUSH1 0x60 DUP2 MSTORE PUSH1 0x20 ADD PUSH1 0x60 DUP2 MSTORE PUSH1 0x20 ADD PUSH1 0x60 DUP2 MSTORE PUSH1 0x20 ADD PUSH1 0x60 DUP2 MSTORE PUSH1 0x20 ADD PUSH1 0x60 DUP2 MSTORE PUSH1 0x20 ADD PUSH1 0x0 DUP2 MSTORE POP SWAP1 JUMP JUMPDEST PUSH1 0x0 PUSH1 0x40 MLOAD SWAP1 POP SWAP1 JUMP JUMPDEST PUSH1 0x0 DUP1 REVERT JUMPDEST PUSH1 0x0 DUP1 REVERT JUMPDEST PUSH1 0x0 DUP2 SWAP1 POP SWAP2 SWAP1 POP JUMP JUMPDEST PUSH2 0x1D59 DUP2 PUSH2 0x1D46 JUMP JUMPDEST DUP2 EQ PUSH2 0x1D64 JUMPI PUSH1 0x0 DUP1 REVERT JUMPDEST POP JUMP JUMPDEST PUSH1 0x0 DUP2 CALLDATALOAD SWAP1 POP PUSH2 0x1D76 DUP2 PUSH2 0x1D50 JUMP JUMPDEST SWAP3 SWAP2 POP POP JUMP JUMPDEST PUSH1 0x0 PUSH1 0x20 DUP3 DUP5 SUB SLT ISZERO PUSH2 0x1D92 JUMPI PUSH2 0x1D91 PUSH2 0x1D3C JUMP JUMPDEST JUMPDEST PUSH1 0x0 PUSH2 0x1DA0 DUP5 DUP3 DUP6 ADD PUSH2 0x1D67 JUMP JUMPDEST SWAP2 POP POP SWAP3 SWAP2 POP POP JUMP JUMPDEST PUSH2 0x1DB2 DUP2 PUSH2 0x1D46 JUMP JUMPDEST DUP3 MSTORE POP POP JUMP JUMPDEST PUSH1 0x0 DUP2 MLOAD SWAP1 POP SWAP2 SWAP1 POP JUMP JUMPDEST PUSH1 0x0 DUP3 DUP3 MSTORE PUSH1 0x20 DUP3 ADD SWAP1 POP SWAP3 SWAP2 POP POP JUMP JUMPDEST PUSH1 0x0 JUMPDEST DUP4 DUP2 LT ISZERO PUSH2 0x1DF2 JUMPI DUP1 DUP3 ADD MLOAD DUP2 DUP5 ADD MSTORE PUSH1 0x20 DUP2 ADD SWAP1 POP PUSH2 0x1DD7 JUMP JUMPDEST PUSH1 0x0 DUP5 DUP5 ADD MSTORE POP POP POP POP JUMP JUMPDEST PUSH1 0x0 PUSH1 0x1F NOT PUSH1 0x1F DUP4 ADD AND SWAP1 POP SWAP2 SWAP1 POP JUMP JUMPDEST PUSH1 0x0 PUSH2 0x1E1A DUP3 PUSH2 0x1DB8 JUMP JUMPDEST PUSH2 0x1E24 DUP2 DUP6 PUSH2 0x1DC3 JUMP JUMPDEST SWAP4 POP PUSH2 0x1E34 DUP2 DUP6 PUSH1 0x20 DUP7 ADD PUSH2 0x1DD4 JUMP JUMPDEST PUSH2 0x1E3D DUP2 PUSH2 0x1DFE JUMP JUMPDEST DUP5 ADD SWAP2 POP POP SWAP3 SWAP2 POP POP JUMP JUMPDEST PUSH1 0x0 PUSH2 0x120 DUP4 ADD PUSH1 0x0 DUP4 ADD MLOAD PUSH2 0x1E61 PUSH1 0x0 DUP7 ADD DUP3 PUSH2 0x1DA9 JUMP JUMPDEST POP PUSH1 0x20 DUP4 ADD MLOAD DUP5 DUP3 SUB PUSH1 0x20 DUP7 ADD MSTORE PUSH2 0x1E79 DUP3 DUP3 PUSH2 0x1E0F JUMP JUMPDEST SWAP2 POP POP PUSH1 0x40 DUP4 ADD MLOAD DUP5 DUP3 SUB PUSH1 0x40 DUP7 ADD MSTORE PUSH2 0x1E93 DUP3 DUP3 PUSH2 0x1E0F JUMP JUMPDEST SWAP2 POP POP PUSH1 0x60 DUP4 ADD MLOAD DUP5 DUP3 SUB PUSH1 0x60 DUP7 ADD MSTORE PUSH2 0x1EAD DUP3 DUP3 PUSH2 0x1E0F JUMP JUMPDEST SWAP2 POP POP PUSH1 0x80 DUP4 ADD MLOAD DUP5 DUP3 SUB PUSH1 0x80 DUP7 ADD MSTORE PUSH2 0x1EC7 DUP3 DUP3 PUSH2 0x1E0F JUMP JUMPDEST SWAP2 POP POP PUSH1 0xA0 DUP4 ADD MLOAD DUP5 DUP3 SUB PUSH1 0xA0 DUP7 ADD MSTORE PUSH2 0x1EE1 DUP3 DUP3 PUSH2 0x1E0F JUMP JUMPDEST SWAP2 POP POP PUSH1 0xC0 DUP4 ADD MLOAD DUP5 DUP3 SUB PUSH1 0xC0 DUP7 ADD MSTORE PUSH2 0x1EFB DUP3 DUP3 PUSH2 0x1E0F JUMP JUMPDEST SWAP2 POP POP PUSH1 0xE0 DUP4 ADD MLOAD DUP5 DUP3 SUB PUSH1 0xE0 DUP7 ADD MSTORE PUSH2 0x1F15 DUP3 DUP3 PUSH2 0x1E0F JUMP JUMPDEST SWAP2 POP POP PUSH2 0x100 DUP4 ADD MLOAD PUSH2 0x1F2C PUSH2 0x100 DUP7 ADD DUP3 PUSH2 0x1DA9 JUMP JUMPDEST POP DUP1 SWAP2 POP POP SWAP3 SWAP2 POP POP JUMP JUMPDEST PUSH1 0x0 PUSH1 0x20 DUP3 ADD SWAP1 POP DUP2 DUP2 SUB PUSH1 0x0 DUP4 ADD MSTORE PUSH2 0x1F51 DUP2 DUP5 PUSH2 0x1E48 JUMP JUMPDEST SWAP1 POP SWAP3 SWAP2 POP POP JUMP JUMPDEST PUSH1 0x0 DUP1 REVERT JUMPDEST PUSH1 0x0 DUP1 REVERT JUMPDEST PUSH32 0x4E487B7100000000000000000000000000000000000000000000000000000000 PUSH1 0x0 MSTORE PUSH1 0x41 PUSH1 0x4 MSTORE PUSH1 0x24 PUSH1 0x0 REVERT JUMPDEST PUSH2 0x1F9B DUP3 PUSH2 0x1DFE JUMP JUMPDEST DUP2 ADD DUP2 DUP2 LT PUSH8 0xFFFFFFFFFFFFFFFF DUP3 GT OR ISZERO PUSH2 0x1FBA JUMPI PUSH2 0x1FB9 PUSH2 0x1F63 JUMP JUMPDEST JUMPDEST DUP1 PUSH1 0x40 MSTORE POP POP POP JUMP JUMPDEST PUSH1 0x0 PUSH2 0x1FCD PUSH2 0x1D32 JUMP JUMPDEST SWAP1 POP PUSH2 0x1FD9 DUP3 DUP3 PUSH2 0x1F92 JUMP JUMPDEST SWAP2 SWAP1 POP JUMP JUMPDEST PUSH1 0x0 PUSH8 0xFFFFFFFFFFFFFFFF DUP3 GT ISZERO PUSH2 0x1FF9 JUMPI PUSH2 0x1FF8 PUSH2 0x1F63 JUMP JUMPDEST JUMPDEST PUSH2 0x2002 DUP3 PUSH2 0x1DFE JUMP JUMPDEST SWAP1 POP PUSH1 0x20 DUP2 ADD SWAP1 POP SWAP2 SWAP1 POP JUMP JUMPDEST DUP3 DUP2 DUP4 CALLDATACOPY PUSH1 0x0 DUP4 DUP4 ADD MSTORE POP POP POP JUMP JUMPDEST PUSH1 0x0 PUSH2 0x2031 PUSH2 0x202C DUP5 PUSH2 0x1FDE JUMP JUMPDEST PUSH2 0x1FC3 JUMP JUMPDEST SWAP1 POP DUP3 DUP2 MSTORE PUSH1 0x20 DUP2 ADD DUP5 DUP5 DUP5 ADD GT ISZERO PUSH2 0x204D JUMPI PUSH2 0x204C PUSH2 0x1F5E JUMP JUMPDEST JUMPDEST PUSH2 0x2058 DUP5 DUP3 DUP6 PUSH2 0x200F JUMP JUMPDEST POP SWAP4 SWAP3 POP POP POP JUMP JUMPDEST PUSH1 0x0 DUP3 PUSH1 0x1F DUP4 ADD SLT PUSH2 0x2075 JUMPI PUSH2 0x2074 PUSH2 0x1F59 JUMP JUMPDEST JUMPDEST DUP2 CALLDATALOAD PUSH2 0x2085 DUP5 DUP3 PUSH1 0x20 DUP7 ADD PUSH2 0x201E JUMP JUMPDEST SWAP2 POP POP SWAP3 SWAP2 POP POP JUMP JUMPDEST PUSH1 0x0 PUSH1 0x20 DUP3 DUP5 SUB SLT ISZERO PUSH2 0x20A4 JUMPI PUSH2 0x20A3 PUSH2 0x1D3C JUMP JUMPDEST JUMPDEST PUSH1 0x0 DUP3 ADD CALLDATALOAD PUSH8 0xFFFFFFFFFFFFFFFF DUP2 GT ISZERO PUSH2 0x20C2 JUMPI PUSH2 0x20C1 PUSH2 0x1D41 JUMP JUMPDEST JUMPDEST PUSH2 0x20CE DUP5 DUP3 DUP6 ADD PUSH2 0x2060 JUMP JUMPDEST SWAP2 POP POP SWAP3 SWAP2 POP POP JUMP JUMPDEST PUSH1 0x0 DUP2 MLOAD SWAP1 POP SWAP2 SWAP1 POP JUMP JUMPDEST PUSH1 0x0 DUP3 DUP3 MSTORE PUSH1 0x20 DUP3 ADD SWAP1 POP SWAP3 SWAP2 POP POP JUMP JUMPDEST PUSH1 0x0 DUP2 SWAP1 POP PUSH1 0x20 DUP3 ADD SWAP1 POP SWAP2 SWAP1 POP JUMP JUMPDEST PUSH1 0x0 PUSH2 0x120 DUP4 ADD PUSH1 0x0 DUP4 ADD MLOAD PUSH2 0x211C PUSH1 0x0 DUP7 ADD DUP3 PUSH2 0x1DA9 JUMP JUMPDEST POP PUSH1 0x20 DUP4 ADD MLOAD DUP5 DUP3 SUB PUSH1 0x20 DUP7 ADD MSTORE PUSH2 0x2134 DUP3 DUP3 PUSH2 0x1E0F JUMP JUMPDEST SWAP2 POP POP PUSH1 0x40 DUP4 ADD MLOAD DUP5 DUP3 SUB PUSH1 0x40 DUP7 ADD MSTORE PUSH2 0x214E DUP3 DUP3 PUSH2 0x1E0F JUMP JUMPDEST SWAP2 POP POP PUSH1 0x60 DUP4 ADD MLOAD DUP5 DUP3 SUB PUSH1 0x60 DUP7 ADD MSTORE PUSH2 0x2168 DUP3 DUP3 PUSH2 0x1E0F JUMP JUMPDEST SWAP2 POP POP PUSH1 0x80 DUP4 ADD MLOAD DUP5 DUP3 SUB PUSH1 0x80 DUP7 ADD MSTORE PUSH2 0x2182 DUP3 DUP3 PUSH2 0x1E0F JUMP JUMPDEST SWAP2 POP POP PUSH1 0xA0 DUP4 ADD MLOAD DUP5 DUP3 SUB PUSH1 0xA0 DUP7 ADD MSTORE PUSH2 0x219C DUP3 DUP3 PUSH2 0x1E0F JUMP JUMPDEST SWAP2 POP POP PUSH1 0xC0 DUP4 ADD MLOAD DUP5 DUP3 SUB PUSH1 0xC0 DUP7 ADD MSTORE PUSH2 0x21B6 DUP3 DUP3 PUSH2 0x1E0F JUMP JUMPDEST SWAP2 POP POP PUSH1 0xE0 DUP4 ADD MLOAD DUP5 DUP3 SUB PUSH1 0xE0 DUP7 ADD MSTORE PUSH2 0x21D0 DUP3 DUP3 PUSH2 0x1E0F JUMP JUMPDEST SWAP2 POP POP PUSH2 0x100 DUP4 ADD MLOAD PUSH2 0x21E7 PUSH2 0x100 DUP7 ADD DUP3 PUSH2 0x1DA9 JUMP JUMPDEST POP DUP1 SWAP2 POP POP SWAP3 SWAP2 POP POP JUMP JUMPDEST PUSH1 0x0 PUSH2 0x21FE DUP4 DUP4 PUSH2 0x2103 JUMP JUMPDEST SWAP1 POP SWAP3 SWAP2 POP POP JUMP JUMPDEST PUSH1 0x0 PUSH1 0x20 DUP3 ADD SWAP1 POP SWAP2 SWAP1 POP JUMP JUMPDEST PUSH1 0x0 PUSH2 0x221E DUP3 PUSH2 0x20D7 JUMP JUMPDEST PUSH2 0x2228 DUP2 DUP6 PUSH2 0x20E2 JUMP JUMPDEST SWAP4 POP DUP4 PUSH1 0x20 DUP3 MUL DUP6 ADD PUSH2 0x223A DUP6 PUSH2 0x20F3 JUMP JUMPDEST DUP1 PUSH1 0x0 JUMPDEST DUP6 DUP2 LT ISZERO PUSH2 0x2276 JUMPI DUP5 DUP5 SUB DUP10 MSTORE DUP2 MLOAD PUSH2 0x2257 DUP6 DUP3 PUSH2 0x21F2 JUMP JUMPDEST SWAP5 POP PUSH2 0x2262 DUP4 PUSH2 0x2206 JUMP JUMPDEST SWAP3 POP PUSH1 0x20 DUP11 ADD SWAP10 POP POP PUSH1 0x1 DUP2 ADD SWAP1 POP PUSH2 0x223E JUMP JUMPDEST POP DUP3 SWAP8 POP DUP8 SWAP6 POP POP POP POP POP POP SWAP3 SWAP2 POP POP JUMP JUMPDEST PUSH1 0x0 PUSH1 0x20 DUP3 ADD SWAP1 POP DUP2 DUP2 SUB PUSH1 0x0 DUP4 ADD MSTORE PUSH2 0x22A2 DUP2 DUP5 PUSH2 0x2213 JUMP JUMPDEST SWAP1 POP SWAP3 SWAP2 POP POP JUMP JUMPDEST PUSH2 0x22B3 DUP2 PUSH2 0x1D46 JUMP JUMPDEST DUP3 MSTORE POP POP JUMP JUMPDEST PUSH1 0x0 DUP3 DUP3 MSTORE PUSH1 0x20 DUP3 ADD SWAP1 POP SWAP3 SWAP2 POP POP JUMP JUMPDEST PUSH1 0x0 PUSH2 0x22D5 DUP3 PUSH2 0x1DB8 JUMP JUMPDEST PUSH2 0x22DF DUP2 DUP6 PUSH2 0x22B9 JUMP JUMPDEST SWAP4 POP PUSH2 0x22EF DUP2 DUP6 PUSH1 0x20 DUP7 ADD PUSH2 0x1DD4 JUMP JUMPDEST PUSH2 0x22F8 DUP2 PUSH2 0x1DFE JUMP JUMPDEST DUP5 ADD SWAP2 POP POP SWAP3 SWAP2 POP POP JUMP JUMPDEST PUSH1 0x0 PUSH2 0x120 DUP3 ADD SWAP1 POP PUSH2 0x2319 PUSH1 0x0 DUP4 ADD DUP13 PUSH2 0x22AA JUMP JUMPDEST DUP2 DUP2 SUB PUSH1 0x20 DUP4 ADD MSTORE PUSH2 0x232B DUP2 DUP12 PUSH2 0x22CA JUMP JUMPDEST SWAP1 POP DUP2 DUP2 SUB PUSH1 0x40 DUP4 ADD MSTORE PUSH2 0x233F DUP2 DUP11 PUSH2 0x22CA JUMP JUMPDEST SWAP1 POP DUP2 DUP2 SUB PUSH1 0x60 DUP4 ADD MSTORE PUSH2 0x2353 DUP2 DUP10 PUSH2 0x22CA JUMP JUMPDEST SWAP1 POP DUP2 DUP2 SUB PUSH1 0x80 DUP4 ADD MSTORE PUSH2 0x2367 DUP2 DUP9 PUSH2 0x22CA JUMP JUMPDEST SWAP1 POP DUP2 DUP2 SUB PUSH1 0xA0 DUP4 ADD MSTORE PUSH2 0x237B DUP2 DUP8 PUSH2 0x22CA JUMP JUMPDEST SWAP1 POP DUP2 DUP2 SUB PUSH1 0xC0 DUP4 ADD MSTORE PUSH2 0x238F DUP2 DUP7 PUSH2 0x22CA JUMP JUMPDEST SWAP1 POP DUP2 DUP2 SUB PUSH1 0xE0 DUP4 ADD MSTORE PUSH2 0x23A3 DUP2 DUP6 PUSH2 0x22CA JUMP JUMPDEST SWAP1 POP PUSH2 0x23B3 PUSH2 0x100 DUP4 ADD DUP5 PUSH2 0x22AA JUMP JUMPDEST SWAP11 SWAP10 POP POP POP POP POP POP POP POP POP POP JUMP JUMPDEST PUSH1 0x0 DUP1 PUSH1 0x0 DUP1 PUSH1 0x0 DUP1 PUSH1 0x0 DUP1 PUSH2 0x100 DUP10 DUP12 SUB SLT ISZERO PUSH2 0x23E2 JUMPI PUSH2 0x23E1 PUSH2 0x1D3C JUMP JUMPDEST JUMPDEST PUSH1 0x0 DUP10 ADD CALLDATALOAD PUSH8 0xFFFFFFFFFFFFFFFF DUP2 GT ISZERO PUSH2 0x2400 JUMPI PUSH2 0x23FF PUSH2 0x1D41 JUMP JUMPDEST JUMPDEST PUSH2 0x240C DUP12 DUP3 DUP13 ADD PUSH2 0x2060 JUMP JUMPDEST SWAP9 POP POP PUSH1 0x20 DUP10 ADD CALLDATALOAD PUSH8 0xFFFFFFFFFFFFFFFF DUP2 GT ISZERO PUSH2 0x242D JUMPI PUSH2 0x242C PUSH2 0x1D41 JUMP JUMPDEST JUMPDEST PUSH2 0x2439 DUP12 DUP3 DUP13 ADD PUSH2 0x2060 JUMP JUMPDEST SWAP8 POP POP PUSH1 0x40 DUP10 ADD CALLDATALOAD PUSH8 0xFFFFFFFFFFFFFFFF DUP2 GT ISZERO PUSH2 0x245A JUMPI PUSH2 0x2459 PUSH2 0x1D41 JUMP JUMPDEST JUMPDEST PUSH2 0x2466 DUP12 DUP3 DUP13 ADD PUSH2 0x2060 JUMP JUMPDEST SWAP7 POP POP PUSH1 0x60 DUP10 ADD CALLDATALOAD PUSH8 0xFFFFFFFFFFFFFFFF DUP2 GT ISZERO PUSH2 0x2487 JUMPI PUSH2 0x2486 PUSH2 0x1D41 JUMP JUMPDEST JUMPDEST PUSH2 0x2493 DUP12 DUP3 DUP13 ADD PUSH2 0x2060 JUMP JUMPDEST SWAP6 POP POP PUSH1 0x80 DUP10 ADD CALLDATALOAD PUSH8 0xFFFFFFFFFFFFFFFF DUP2 GT ISZERO PUSH2 0x24B4 JUMPI PUSH2 0x24B3 PUSH2 0x1D41 JUMP JUMPDEST JUMPDEST PUSH2 0x24C0 DUP12 DUP3 DUP13 ADD PUSH2 0x2060 JUMP JUMPDEST SWAP5 POP POP PUSH1 0xA0 DUP10 ADD CALLDATALOAD PUSH8 0xFFFFFFFFFFFFFFFF DUP2 GT ISZERO PUSH2 0x24E1 JUMPI PUSH2 0x24E0 PUSH2 0x1D41 JUMP JUMPDEST JUMPDEST PUSH2 0x24ED DUP12 DUP3 DUP13 ADD PUSH2 0x2060 JUMP JUMPDEST SWAP4 POP POP PUSH1 0xC0 DUP10 ADD CALLDATALOAD PUSH8 0xFFFFFFFFFFFFFFFF DUP2 GT ISZERO PUSH2 0x250E JUMPI PUSH2 0x250D PUSH2 0x1D41 JUMP JUMPDEST JUMPDEST PUSH2 0x251A DUP12 DUP3 DUP13 ADD PUSH2 0x2060 JUMP JUMPDEST SWAP3 POP POP PUSH1 0xE0 PUSH2 0x252B DUP12 DUP3 DUP13 ADD PUSH2 0x1D67 JUMP JUMPDEST SWAP2 POP POP SWAP3 SWAP6 SWAP9 POP SWAP3 SWAP6 SWAP9 SWAP1 SWAP4 SWAP7 POP JUMP JUMPDEST PUSH1 0x0 PUSH1 0x20 DUP3 ADD SWAP1 POP PUSH2 0x2550 PUSH1 0x0 DUP4 ADD DUP5 PUSH2 0x22AA JUMP JUMPDEST SWAP3 SWAP2 POP POP JUMP JUMPDEST PUSH1 0x0 DUP1 PUSH1 0x0 PUSH1 0x60 DUP5 DUP7 SUB SLT ISZERO PUSH2 0x256F JUMPI PUSH2 0x256E PUSH2 0x1D3C JUMP JUMPDEST JUMPDEST PUSH1 0x0 PUSH2 0x257D DUP7 DUP3 DUP8 ADD PUSH2 0x1D67 JUMP JUMPDEST SWAP4 POP POP PUSH1 0x20 DUP5 ADD CALLDATALOAD PUSH8 0xFFFFFFFFFFFFFFFF DUP2 GT ISZERO PUSH2 0x259E JUMPI PUSH2 0x259D PUSH2 0x1D41 JUMP JUMPDEST JUMPDEST PUSH2 0x25AA DUP7 DUP3 DUP8 ADD PUSH2 0x2060 JUMP JUMPDEST SWAP3 POP POP PUSH1 0x40 PUSH2 0x25BB DUP7 DUP3 DUP8 ADD PUSH2 0x1D67 JUMP JUMPDEST SWAP2 POP POP SWAP3 POP SWAP3 POP SWAP3 JUMP JUMPDEST PUSH32 0x4E487B7100000000000000000000000000000000000000000000000000000000 PUSH1 0x0 MSTORE PUSH1 0x22 PUSH1 0x4 MSTORE PUSH1 0x24 PUSH1 0x0 REVERT JUMPDEST PUSH1 0x0 PUSH1 0x2 DUP3 DIV SWAP1 POP PUSH1 0x1 DUP3 AND DUP1 PUSH2 0x260C JUMPI PUSH1 0x7F DUP3 AND SWAP2 POP JUMPDEST PUSH1 0x20 DUP3 LT DUP2 SUB PUSH2 0x261F JUMPI PUSH2 0x261E PUSH2 0x25C5 JUMP JUMPDEST JUMPDEST POP SWAP2 SWAP1 POP JUMP JUMPDEST PUSH1 0x0 DUP2 SWAP1 POP SWAP3 SWAP2 POP POP JUMP JUMPDEST PUSH1 0x0 PUSH2 0x263B DUP3 PUSH2 0x1DB8 JUMP JUMPDEST PUSH2 0x2645 DUP2 DUP6 PUSH2 0x2625 JUMP JUMPDEST SWAP4 POP PUSH2 0x2655 DUP2 DUP6 PUSH1 0x20 DUP7 ADD PUSH2 0x1DD4 JUMP JUMPDEST DUP1 DUP5 ADD SWAP2 POP POP SWAP3 SWAP2 POP POP JUMP JUMPDEST PUSH1 0x0 PUSH2 0x266D DUP3 DUP5 PUSH2 0x2630 JUMP JUMPDEST SWAP2 POP DUP2 SWAP1 POP SWAP3 SWAP2 POP POP JUMP JUMPDEST PUSH1 0x0 DUP2 SWAP1 POP DUP2 PUSH1 0x0 MSTORE PUSH1 0x20 PUSH1 0x0 KECCAK256 SWAP1 POP SWAP2 SWAP1 POP JUMP JUMPDEST PUSH1 0x0 DUP2 SLOAD PUSH2 0x269A DUP2 PUSH2 0x25F4 JUMP JUMPDEST PUSH2 0x26A4 DUP2 DUP7 PUSH2 0x2625 JUMP JUMPDEST SWAP5 POP PUSH1 0x1 DUP3 AND PUSH1 0x0 DUP2 EQ PUSH2 0x26BF JUMPI PUSH1 0x1 DUP2 EQ PUSH2 0x26D4 JUMPI PUSH2 0x2707 JUMP JUMPDEST PUSH1 0xFF NOT DUP4 AND DUP7 MSTORE DUP2 ISZERO ISZERO DUP3 MUL DUP7 ADD SWAP4 POP PUSH2 0x2707 JUMP JUMPDEST PUSH2 0x26DD DUP6 PUSH2 0x2678 JUMP JUMPDEST PUSH1 0x0 JUMPDEST DUP4 DUP2 LT ISZERO PUSH2 0x26FF JUMPI DUP2 SLOAD DUP2 DUP10 ADD MSTORE PUSH1 0x1 DUP3 ADD SWAP2 POP PUSH1 0x20 DUP2 ADD SWAP1 POP PUSH2 0x26E0 JUMP JUMPDEST DUP4 DUP9 ADD SWAP6 POP POP POP JUMPDEST POP POP POP SWAP3 SWAP2 POP POP JUMP JUMPDEST PUSH1 0x0 PUSH2 0x271C DUP3 DUP5 PUSH2 0x268D JUMP JUMPDEST SWAP2 POP DUP2 SWAP1 POP SWAP3 SWAP2 POP POP JUMP JUMPDEST PUSH32 0x4E487B7100000000000000000000000000000000000000000000000000000000 PUSH1 0x0 MSTORE PUSH1 0x11 PUSH1 0x4 MSTORE PUSH1 0x24 PUSH1 0x0 REVERT JUMPDEST PUSH1 0x0 PUSH2 0x2761 DUP3 PUSH2 0x1D46 JUMP JUMPDEST SWAP2 POP PUSH32 0xFFFFFFFFFFFFFFFFFFFFFFFFFFFFFFFFFFFFFFFFFFFFFFFFFFFFFFFFFFFFFFFF DUP3 SUB PUSH2 0x2793 JUMPI PUSH2 0x2792 PUSH2 0x2727 JUMP JUMPDEST JUMPDEST PUSH1 0x1 DUP3 ADD SWAP1 POP SWAP2 SWAP1 POP JUMP JUMPDEST PUSH32 0x4E487B7100000000000000000000000000000000000000000000000000000000 PUSH1 0x0 MSTORE PUSH1 0x32 PUSH1 0x4 MSTORE PUSH1 0x24 PUSH1 0x0 REVERT JUMPDEST PUSH1 0x0 PUSH1 0x20 PUSH1 0x1F DUP4 ADD DIV SWAP1 POP SWAP2 SWAP1 POP JUMP JUMPDEST PUSH1 0x0 DUP3 DUP3 SHL SWAP1 POP SWAP3 SWAP2 POP POP JUMP JUMPDEST PUSH1 0x0 PUSH1 0x8 DUP4 MUL PUSH2 0x281A PUSH32 0xFFFFFFFFFFFFFFFFFFFFFFFFFFFFFFFFFFFFFFFFFFFFFFFFFFFFFFFFFFFFFFFF DUP3 PUSH2 0x27DD JUMP JUMPDEST PUSH2 0x2824 DUP7 DUP4 PUSH2 0x27DD JUMP JUMPDEST SWAP6 POP DUP1 NOT DUP5 AND SWAP4 POP DUP1 DUP7 AND DUP5 OR SWAP3 POP POP POP SWAP4 SWAP3 POP POP POP JUMP JUMPDEST PUSH1 0x0 DUP2 SWAP1 POP SWAP2 SWAP1 POP JUMP JUMPDEST PUSH1 0x0 PUSH2 0x2861 PUSH2 0x285C PUSH2 0x2857 DUP5 PUSH2 0x1D46 JUMP JUMPDEST PUSH2 0x283C JUMP JUMPDEST PUSH2 0x1D46 JUMP JUMPDEST SWAP1 POP SWAP2 SWAP1 POP JUMP JUMPDEST PUSH1 0x0 DUP2 SWAP1 POP SWAP2 SWAP1 POP JUMP JUMPDEST PUSH2 0x287B DUP4 PUSH2 0x2846 JUMP JUMPDEST PUSH2 0x288F PUSH2 0x2887 DUP3 PUSH2 0x2868 JUMP JUMPDEST DUP5 DUP5 SLOAD PUSH2 0x27EA JUMP JUMPDEST DUP3 SSTORE POP POP POP POP JUMP JUMPDEST PUSH1 0x0 SWAP1 JUMP JUMPDEST PUSH2 0x28A4 PUSH2 0x2897 JUMP JUMPDEST PUSH2 0x28AF DUP2 DUP5 DUP5 PUSH2 0x2872 JUMP JUMPDEST POP POP POP JUMP JUMPDEST JUMPDEST DUP2 DUP2 LT ISZERO PUSH2 0x28D3 JUMPI PUSH2 0x28C8 PUSH1 0x0 DUP3 PUSH2 0x289C JUMP JUMPDEST PUSH1 0x1 DUP2 ADD SWAP1 POP PUSH2 0x28B5 JUMP JUMPDEST POP POP JUMP JUMPDEST PUSH1 0x1F DUP3 GT ISZERO PUSH2 0x2918 JUMPI PUSH2 0x28E9 DUP2 PUSH2 0x2678 JUMP JUMPDEST PUSH2 0x28F2 DUP5 PUSH2 0x27CD JUMP JUMPDEST DUP2 ADD PUSH1 0x20 DUP6 LT ISZERO PUSH2 0x2901 JUMPI DUP2 SWAP1 POP JUMPDEST PUSH2 0x2915 PUSH2 0x290D DUP6 PUSH2 0x27CD JUMP JUMPDEST DUP4 ADD DUP3 PUSH2 0x28B4 JUMP JUMPDEST POP POP JUMPDEST POP POP POP JUMP JUMPDEST PUSH1 0x0 DUP3 DUP3 SHR SWAP1 POP SWAP3 SWAP2 POP POP JUMP JUMPDEST PUSH1 0x0 PUSH2 0x293B PUSH1 0x0 NOT DUP5 PUSH1 0x8 MUL PUSH2 0x291D JUMP JUMPDEST NOT DUP1 DUP4 AND SWAP2 POP POP SWAP3 SWAP2 POP POP JUMP JUMPDEST PUSH1 0x0 PUSH2 0x2954 DUP4 DUP4 PUSH2 0x292A JUMP JUMPDEST SWAP2 POP DUP3 PUSH1 0x2 MUL DUP3 OR SWAP1 POP SWAP3 SWAP2 POP POP JUMP JUMPDEST PUSH2 0x296D DUP3 PUSH2 0x1DB8 JUMP JUMPDEST PUSH8 0xFFFFFFFFFFFFFFFF DUP2 GT ISZERO PUSH2 0x2986 JUMPI PUSH2 0x2985 PUSH2 0x1F63 JUMP JUMPDEST JUMPDEST PUSH2 0x2990 DUP3 SLOAD PUSH2 0x25F4 JUMP JUMPDEST PUSH2 0x299B DUP3 DUP3 DUP6 PUSH2 0x28D7 JUMP JUMPDEST PUSH1 0x0 PUSH1 0x20 SWAP1 POP PUSH1 0x1F DUP4 GT PUSH1 0x1 DUP2 EQ PUSH2 0x29CE JUMPI PUSH1 0x0 DUP5 ISZERO PUSH2 0x29BC JUMPI DUP3 DUP8 ADD MLOAD SWAP1 POP JUMPDEST PUSH2 0x29C6 DUP6 DUP3 PUSH2 0x2948 JUMP JUMPDEST DUP7 SSTORE POP PUSH2 0x2A2E JUMP JUMPDEST PUSH1 0x1F NOT DUP5 AND PUSH2 0x29DC DUP7 PUSH2 0x2678 JUMP JUMPDEST PUSH1 0x0 JUMPDEST DUP3 DUP2 LT ISZERO PUSH2 0x2A04 JUMPI DUP5 DUP10 ADD MLOAD DUP3 SSTORE PUSH1 0x1 DUP3 ADD SWAP2 POP PUSH1 0x20 DUP6 ADD SWAP5 POP PUSH1 0x20 DUP2 ADD SWAP1 POP PUSH2 0x29DF JUMP JUMPDEST DUP7 DUP4 LT ISZERO PUSH2 0x2A21 JUMPI DUP5 DUP10 ADD MLOAD PUSH2 0x2A1D PUSH1 0x1F DUP10 AND DUP3 PUSH2 0x292A JUMP JUMPDEST DUP4 SSTORE POP JUMPDEST PUSH1 0x1 PUSH1 0x2 DUP9 MUL ADD DUP9 SSTORE POP POP POP JUMPDEST POP POP POP POP POP POP JUMP JUMPDEST PUSH1 0x0 PUSH2 0x100 DUP3 ADD SWAP1 POP DUP2 DUP2 SUB PUSH1 0x0 DUP4 ADD MSTORE PUSH2 0x2A51 DUP2 DUP12 PUSH2 0x22CA JUMP JUMPDEST SWAP1 POP DUP2 DUP2 SUB PUSH1 0x20 DUP4 ADD MSTORE PUSH2 0x2A65 DUP2 DUP11 PUSH2 0x22CA JUMP JUMPDEST SWAP1 POP DUP2 DUP2 SUB PUSH1 0x40 DUP4 ADD MSTORE PUSH2 0x2A79 DUP2 DUP10 PUSH2 0x22CA JUMP JUMPDEST SWAP1 POP DUP2 DUP2 SUB PUSH1 0x60 DUP4 ADD MSTORE PUSH2 0x2A8D DUP2 DUP9 PUSH2 0x22CA JUMP JUMPDEST SWAP1 POP DUP2 DUP2 SUB PUSH1 0x80 DUP4 ADD MSTORE PUSH2 0x2AA1 DUP2 DUP8 PUSH2 0x22CA JUMP JUMPDEST SWAP1 POP DUP2 DUP2 SUB PUSH1 0xA0 DUP4 ADD MSTORE PUSH2 0x2AB5 DUP2 DUP7 PUSH2 0x22CA JUMP JUMPDEST SWAP1 POP DUP2 DUP2 SUB PUSH1 0xC0 DUP4 ADD MSTORE PUSH2 0x2AC9 DUP2 DUP6 PUSH2 0x22CA JUMP JUMPDEST SWAP1 POP PUSH2 0x2AD8 PUSH1 0xE0 DUP4 ADD DUP5 PUSH2 0x22AA JUMP JUMPDEST SWAP10 SWAP9 POP POP POP POP POP POP POP POP POP JUMP JUMPDEST PUSH1 0x0 PUSH2 0x2AF0 DUP3 PUSH2 0x1D46 JUMP JUMPDEST SWAP2 POP PUSH2 0x2AFB DUP4 PUSH2 0x1D46 JUMP JUMPDEST SWAP3 POP DUP3 DUP3 SUB SWAP1 POP DUP2 DUP2 GT ISZERO PUSH2 0x2B13 JUMPI PUSH2 0x2B12 PUSH2 0x2727 JUMP JUMPDEST JUMPDEST SWAP3 SWAP2 POP POP JUMP JUMPDEST PUSH32 0x5472616E73616374696F6E20646F6573206E6F74206578697374000000000000 PUSH1 0x0 DUP3 ADD MSTORE POP JUMP JUMPDEST PUSH1 0x0 PUSH2 0x2B4F PUSH1 0x1A DUP4 PUSH2 0x22B9 JUMP JUMPDEST SWAP2 POP PUSH2 0x2B5A DUP3 PUSH2 0x2B19 JUMP JUMPDEST PUSH1 0x20 DUP3 ADD SWAP1 POP SWAP2 SWAP1 POP JUMP JUMPDEST PUSH1 0x0 PUSH1 0x20 DUP3 ADD SWAP1 POP DUP2 DUP2 SUB PUSH1 0x0 DUP4 ADD MSTORE PUSH2 0x2B7E DUP2 PUSH2 0x2B42 JUMP JUMPDEST SWAP1 POP SWAP2 SWAP1 POP JUMP JUMPDEST PUSH1 0x0 PUSH1 0x40 DUP3 ADD SWAP1 POP DUP2 DUP2 SUB PUSH1 0x0 DUP4 ADD MSTORE PUSH2 0x2B9F DUP2 DUP6 PUSH2 0x22CA JUMP JUMPDEST SWAP1 POP PUSH2 0x2BAE PUSH1 0x20 DUP4 ADD DUP5 PUSH2 0x22AA JUMP JUMPDEST SWAP4 SWAP3 POP POP POP JUMP INVALID LOG2 PUSH5 0x6970667358 0x22 SLT KECCAK256 0xE2 SWAP1 0xA9 SWAP14 0x5C 0xAF ORIGIN 0x5F DUP14 GAS 0xDE PUSH31 0x3174CAC9011D53CC7B83FBB60372C5C30E9AFDFC64736F6C63430008100033 "
				},
				"gasEstimates": {
					"creation": {
						"codeDepositCost": "2248600",
						"executionCost": "2405",
						"totalCost": "2251005"
					},
					"external": {
						"addTransaction(string,string,string,string,string,string,string,uint256)": "infinite",
						"getAllTransaction()": "infinite",
						"getTransaction(uint256)": "infinite",
						"getTransactionByBuyerId(string)": "infinite",
						"getTransactionBySellerId(string)": "infinite",
						"transactionCount()": "2451",
						"transactions(uint256)": "infinite",
						"updatePaymentStatus(uint256,string,uint256)": "infinite"
					}
				},
				"methodIdentifiers": {
					"addTransaction(string,string,string,string,string,string,string,uint256)": "abed9fb4",
					"getAllTransaction()": "add6415d",
					"getTransaction(uint256)": "33ea3dc8",
					"getTransactionByBuyerId(string)": "e55d57df",
					"getTransactionBySellerId(string)": "9311f732",
					"transactionCount()": "b77bf600",
					"transactions(uint256)": "9ace38c2",
					"updatePaymentStatus(uint256,string,uint256)": "ce8481fd"
				}
			},
			"storageLayout": {
				"storage": [
					{
						"astId": 53,
						"contract": "contracts/TransactionContract28April.sol:TransactionContract",
						"label": "transactions",
						"offset": 0,
						"slot": "0",
						"type": "t_mapping(t_uint256,t_struct(Transaction)20_storage)"
					},
					{
						"astId": 55,
						"contract": "contracts/TransactionContract28April.sol:TransactionContract",
						"label": "transactionCount",
						"offset": 0,
						"slot": "1",
						"type": "t_uint256"
					}
				],
				"types": {
					"t_mapping(t_uint256,t_struct(Transaction)20_storage)": {
						"encoding": "mapping",
						"key": "t_uint256",
						"label": "mapping(uint256 => struct TransactionContract.Transaction)",
						"numberOfBytes": "32",
						"value": "t_struct(Transaction)20_storage"
					},
					"t_string_storage": {
						"encoding": "bytes",
						"label": "string",
						"numberOfBytes": "32"
					},
					"t_struct(Transaction)20_storage": {
						"encoding": "inplace",
						"label": "struct TransactionContract.Transaction",
						"members": [
							{
								"astId": 3,
								"contract": "contracts/TransactionContract28April.sol:TransactionContract",
								"label": "transactionId",
								"offset": 0,
								"slot": "0",
								"type": "t_uint256"
							},
							{
								"astId": 5,
								"contract": "contracts/TransactionContract28April.sol:TransactionContract",
								"label": "transactionCode",
								"offset": 0,
								"slot": "1",
								"type": "t_string_storage"
							},
							{
								"astId": 7,
								"contract": "contracts/TransactionContract28April.sol:TransactionContract",
								"label": "from",
								"offset": 0,
								"slot": "2",
								"type": "t_string_storage"
							},
							{
								"astId": 9,
								"contract": "contracts/TransactionContract28April.sol:TransactionContract",
								"label": "fromId",
								"offset": 0,
								"slot": "3",
								"type": "t_string_storage"
							},
							{
								"astId": 11,
								"contract": "contracts/TransactionContract28April.sol:TransactionContract",
								"label": "to",
								"offset": 0,
								"slot": "4",
								"type": "t_string_storage"
							},
							{
								"astId": 13,
								"contract": "contracts/TransactionContract28April.sol:TransactionContract",
								"label": "toId",
								"offset": 0,
								"slot": "5",
								"type": "t_string_storage"
							},
							{
								"astId": 15,
								"contract": "contracts/TransactionContract28April.sol:TransactionContract",
								"label": "orderType",
								"offset": 0,
								"slot": "6",
								"type": "t_string_storage"
							},
							{
								"astId": 17,
								"contract": "contracts/TransactionContract28April.sol:TransactionContract",
								"label": "paymentStatus",
								"offset": 0,
								"slot": "7",
								"type": "t_string_storage"
							},
							{
								"astId": 19,
								"contract": "contracts/TransactionContract28April.sol:TransactionContract",
								"label": "createdAt",
								"offset": 0,
								"slot": "8",
								"type": "t_uint256"
							}
						],
						"numberOfBytes": "288"
					},
					"t_uint256": {
						"encoding": "inplace",
						"label": "uint256",
						"numberOfBytes": "32"
					}
				}
			},
			"userdoc": {
				"kind": "user",
				"methods": {},
				"version": 1
			}
		}
	}
}