{
	"contracts/TransactionDetailContract28April.sol": {
		"TransactionDetailContract": {
			"abi": [
				{
					"anonymous": false,
					"inputs": [
						{
							"indexed": false,
							"internalType": "string",
							"name": "transactionCode",
							"type": "string"
						},
						{
							"indexed": false,
							"internalType": "string",
							"name": "productName",
							"type": "string"
						},
						{
							"indexed": false,
							"internalType": "string",
							"name": "productDescription",
							"type": "string"
						},
						{
							"indexed": false,
							"internalType": "string",
							"name": "tokenOfProduct",
							"type": "string"
						},
						{
							"indexed": false,
							"internalType": "string",
							"name": "productId",
							"type": "string"
						},
						{
							"indexed": false,
							"internalType": "string",
							"name": "price",
							"type": "string"
						},
						{
							"indexed": false,
							"internalType": "uint256",
							"name": "createdAt",
							"type": "uint256"
						}
					],
					"name": "TransactionDetailAdded",
					"type": "event"
				},
				{
					"inputs": [
						{
							"internalType": "string[]",
							"name": "_transactionCode",
							"type": "string[]"
						},
						{
							"internalType": "string[]",
							"name": "_productName",
							"type": "string[]"
						},
						{
							"internalType": "string[]",
							"name": "_productDescription",
							"type": "string[]"
						},
						{
							"internalType": "string[]",
							"name": "_tokenOfProduct",
							"type": "string[]"
						},
						{
							"internalType": "string[]",
							"name": "_productId",
							"type": "string[]"
						},
						{
							"internalType": "string[]",
							"name": "_price",
							"type": "string[]"
						},
						{
							"internalType": "uint256[]",
							"name": "_createdAt",
							"type": "uint256[]"
						}
					],
					"name": "addTransactionDetail",
					"outputs": [],
					"stateMutability": "nonpayable",
					"type": "function"
				},
				{
					"inputs": [],
					"name": "getAllTransactionDetail",
					"outputs": [
						{
							"components": [
								{
									"internalType": "string",
									"name": "transactionCode",
									"type": "string"
								},
								{
									"internalType": "string",
									"name": "productName",
									"type": "string"
								},
								{
									"internalType": "string",
									"name": "productDescription",
									"type": "string"
								},
								{
									"internalType": "string",
									"name": "tokenOfProduct",
									"type": "string"
								},
								{
									"internalType": "string",
									"name": "productId",
									"type": "string"
								},
								{
									"internalType": "string",
									"name": "price",
									"type": "string"
								},
								{
									"internalType": "uint256",
									"name": "createdAt",
									"type": "uint256"
								}
							],
							"internalType": "struct TransactionDetailContract.TransactionDetail[]",
							"name": "",
							"type": "tuple[]"
						}
					],
					"stateMutability": "view",
					"type": "function"
				},
				{
					"inputs": [
						{
							"internalType": "string",
							"name": "_transactionCode",
							"type": "string"
						}
					],
					"name": "getTransactionDetailByTransactionCode",
					"outputs": [
						{
							"components": [
								{
									"internalType": "string",
									"name": "transactionCode",
									"type": "string"
								},
								{
									"internalType": "string",
									"name": "productName",
									"type": "string"
								},
								{
									"internalType": "string",
									"name": "productDescription",
									"type": "string"
								},
								{
									"internalType": "string",
									"name": "tokenOfProduct",
									"type": "string"
								},
								{
									"internalType": "string",
									"name": "productId",
									"type": "string"
								},
								{
									"internalType": "string",
									"name": "price",
									"type": "string"
								},
								{
									"internalType": "uint256",
									"name": "createdAt",
									"type": "uint256"
								}
							],
							"internalType": "struct TransactionDetailContract.TransactionDetail[]",
							"name": "",
							"type": "tuple[]"
						}
					],
					"stateMutability": "view",
					"type": "function"
				},
				{
					"inputs": [],
					"name": "transactionDetailCount",
					"outputs": [
						{
							"internalType": "uint256",
							"name": "",
							"type": "uint256"
						}
					],
					"stateMutability": "view",
					"type": "function"
				},
				{
					"inputs": [
						{
							"internalType": "uint256",
							"name": "",
							"type": "uint256"
						}
					],
					"name": "transactionDetails",
					"outputs": [
						{
							"internalType": "string",
							"name": "transactionCode",
							"type": "string"
						},
						{
							"internalType": "string",
							"name": "productName",
							"type": "string"
						},
						{
							"internalType": "string",
							"name": "productDescription",
							"type": "string"
						},
						{
							"internalType": "string",
							"name": "tokenOfProduct",
							"type": "string"
						},
						{
							"internalType": "string",
							"name": "productId",
							"type": "string"
						},
						{
							"internalType": "string",
							"name": "price",
							"type": "string"
						},
						{
							"internalType": "uint256",
							"name": "createdAt",
							"type": "uint256"
						}
					],
					"stateMutability": "view",
					"type": "function"
				}
			],
			"devdoc": {
				"kind": "dev",
				"methods": {},
				"version": 1
			},
			"evm": {
				"assembly": "    /* \"contracts/TransactionDetailContract28April.sol\":57:3546  contract TransactionDetailContract {... */\n  mstore(0x40, 0x80)\n  callvalue\n  dup1\n  iszero\n  tag_1\n  jumpi\n  0x00\n  dup1\n  revert\ntag_1:\n  pop\n  dataSize(sub_0)\n  dup1\n  dataOffset(sub_0)\n  0x00\n  codecopy\n  0x00\n  return\nstop\n\nsub_0: assembly {\n        /* \"contracts/TransactionDetailContract28April.sol\":57:3546  contract TransactionDetailContract {... */\n      mstore(0x40, 0x80)\n      callvalue\n      dup1\n      iszero\n      tag_1\n      jumpi\n      0x00\n      dup1\n      revert\n    tag_1:\n      pop\n      jumpi(tag_2, lt(calldatasize, 0x04))\n      shr(0xe0, calldataload(0x00))\n      dup1\n      0x0138f38d\n      eq\n      tag_3\n      jumpi\n      dup1\n      0x2ef8750f\n      eq\n      tag_4\n      jumpi\n      dup1\n      0x3f0a54a6\n      eq\n      tag_5\n      jumpi\n      dup1\n      0xa5773610\n      eq\n      tag_6\n      jumpi\n      dup1\n      0xcf810953\n      eq\n      tag_7\n      jumpi\n    tag_2:\n      0x00\n      dup1\n      revert\n        /* \"contracts/TransactionDetailContract28April.sol\":680:2175  function addTransactionDetail(... */\n    tag_3:\n      tag_8\n      0x04\n      dup1\n      calldatasize\n      sub\n      dup2\n      add\n      swap1\n      tag_9\n      swap2\n      swap1\n      tag_10\n      jump\t// in\n    tag_9:\n      tag_11\n      jump\t// in\n    tag_8:\n      stop\n        /* \"contracts/TransactionDetailContract28April.sol\":2566:3544  function getTransactionDetailByTransactionCode(... */\n    tag_4:\n      tag_12\n      0x04\n      dup1\n      calldatasize\n      sub\n      dup2\n      add\n      swap1\n      tag_13\n      swap2\n      swap1\n      tag_14\n      jump\t// in\n    tag_13:\n      tag_15\n      jump\t// in\n    tag_12:\n      mload(0x40)\n      tag_16\n      swap2\n      swap1\n      tag_17\n      jump\t// in\n    tag_16:\n      mload(0x40)\n      dup1\n      swap2\n      sub\n      swap1\n      return\n        /* \"contracts/TransactionDetailContract28April.sol\":573:633  mapping(uint => TransactionDetail) public transactionDetails */\n    tag_5:\n      tag_18\n      0x04\n      dup1\n      calldatasize\n      sub\n      dup2\n      add\n      swap1\n      tag_19\n      swap2\n      swap1\n      tag_20\n      jump\t// in\n    tag_19:\n      tag_21\n      jump\t// in\n    tag_18:\n      mload(0x40)\n      tag_22\n      swap8\n      swap7\n      swap6\n      swap5\n      swap4\n      swap3\n      swap2\n      swap1\n      tag_23\n      jump\t// in\n    tag_22:\n      mload(0x40)\n      dup1\n      swap2\n      sub\n      swap1\n      return\n        /* \"contracts/TransactionDetailContract28April.sol\":2181:2560  function getAllTransactionDetail()... */\n    tag_6:\n      tag_24\n      tag_25\n      jump\t// in\n    tag_24:\n      mload(0x40)\n      tag_26\n      swap2\n      swap1\n      tag_17\n      jump\t// in\n    tag_26:\n      mload(0x40)\n      dup1\n      swap2\n      sub\n      swap1\n      return\n        /* \"contracts/TransactionDetailContract28April.sol\":639:673  uint public transactionDetailCount */\n    tag_7:\n      tag_27\n      tag_28\n      jump\t// in\n    tag_27:\n      mload(0x40)\n      tag_29\n      swap2\n      swap1\n      tag_30\n      jump\t// in\n    tag_29:\n      mload(0x40)\n      dup1\n      swap2\n      sub\n      swap1\n      return\n        /* \"contracts/TransactionDetailContract28April.sol\":680:2175  function addTransactionDetail(... */\n    tag_11:\n        /* \"contracts/TransactionDetailContract28April.sol\":1049:1061  _productName */\n      dup6\n        /* \"contracts/TransactionDetailContract28April.sol\":1049:1068  _productName.length */\n      mload\n        /* \"contracts/TransactionDetailContract28April.sol\":1022:1038  _transactionCode */\n      dup8\n        /* \"contracts/TransactionDetailContract28April.sol\":1022:1045  _transactionCode.length */\n      mload\n        /* \"contracts/TransactionDetailContract28April.sol\":1022:1068  _transactionCode.length == _productName.length */\n      eq\n        /* \"contracts/TransactionDetailContract28April.sol\":1022:1137  _transactionCode.length == _productName.length &&... */\n      dup1\n      iszero\n      tag_32\n      jumpi\n      pop\n        /* \"contracts/TransactionDetailContract28April.sol\":1111:1130  _productDescription */\n      dup5\n        /* \"contracts/TransactionDetailContract28April.sol\":1111:1137  _productDescription.length */\n      mload\n        /* \"contracts/TransactionDetailContract28April.sol\":1088:1100  _productName */\n      dup7\n        /* \"contracts/TransactionDetailContract28April.sol\":1088:1107  _productName.length */\n      mload\n        /* \"contracts/TransactionDetailContract28April.sol\":1088:1137  _productName.length == _productDescription.length */\n      eq\n        /* \"contracts/TransactionDetailContract28April.sol\":1022:1137  _transactionCode.length == _productName.length &&... */\n    tag_32:\n        /* \"contracts/TransactionDetailContract28April.sol\":1022:1209  _transactionCode.length == _productName.length &&... */\n      dup1\n      iszero\n      tag_33\n      jumpi\n      pop\n        /* \"contracts/TransactionDetailContract28April.sol\":1187:1202  _tokenOfProduct */\n      dup4\n        /* \"contracts/TransactionDetailContract28April.sol\":1187:1209  _tokenOfProduct.length */\n      mload\n        /* \"contracts/TransactionDetailContract28April.sol\":1157:1176  _productDescription */\n      dup6\n        /* \"contracts/TransactionDetailContract28April.sol\":1157:1183  _productDescription.length */\n      mload\n        /* \"contracts/TransactionDetailContract28April.sol\":1157:1209  _productDescription.length == _tokenOfProduct.length */\n      eq\n        /* \"contracts/TransactionDetailContract28April.sol\":1022:1209  _transactionCode.length == _productName.length &&... */\n    tag_33:\n        /* \"contracts/TransactionDetailContract28April.sol\":1022:1272  _transactionCode.length == _productName.length &&... */\n      dup1\n      iszero\n      tag_34\n      jumpi\n      pop\n        /* \"contracts/TransactionDetailContract28April.sol\":1255:1265  _productId */\n      dup3\n        /* \"contracts/TransactionDetailContract28April.sol\":1255:1272  _productId.length */\n      mload\n        /* \"contracts/TransactionDetailContract28April.sol\":1229:1244  _tokenOfProduct */\n      dup5\n        /* \"contracts/TransactionDetailContract28April.sol\":1229:1251  _tokenOfProduct.length */\n      mload\n        /* \"contracts/TransactionDetailContract28April.sol\":1229:1272  _tokenOfProduct.length == _productId.length */\n      eq\n        /* \"contracts/TransactionDetailContract28April.sol\":1022:1272  _transactionCode.length == _productName.length &&... */\n    tag_34:\n        /* \"contracts/TransactionDetailContract28April.sol\":1022:1326  _transactionCode.length == _productName.length &&... */\n      dup1\n      iszero\n      tag_35\n      jumpi\n      pop\n        /* \"contracts/TransactionDetailContract28April.sol\":1313:1319  _price */\n      dup2\n        /* \"contracts/TransactionDetailContract28April.sol\":1313:1326  _price.length */\n      mload\n        /* \"contracts/TransactionDetailContract28April.sol\":1292:1302  _productId */\n      dup4\n        /* \"contracts/TransactionDetailContract28April.sol\":1292:1309  _productId.length */\n      mload\n        /* \"contracts/TransactionDetailContract28April.sol\":1292:1326  _productId.length == _price.length */\n      eq\n        /* \"contracts/TransactionDetailContract28April.sol\":1022:1326  _transactionCode.length == _productName.length &&... */\n    tag_35:\n        /* \"contracts/TransactionDetailContract28April.sol\":1022:1380  _transactionCode.length == _productName.length &&... */\n      dup1\n      iszero\n      tag_36\n      jumpi\n      pop\n        /* \"contracts/TransactionDetailContract28April.sol\":1363:1373  _createdAt */\n      dup1\n        /* \"contracts/TransactionDetailContract28April.sol\":1363:1380  _createdAt.length */\n      mload\n        /* \"contracts/TransactionDetailContract28April.sol\":1346:1352  _price */\n      dup3\n        /* \"contracts/TransactionDetailContract28April.sol\":1346:1359  _price.length */\n      mload\n        /* \"contracts/TransactionDetailContract28April.sol\":1346:1380  _price.length == _createdAt.length */\n      eq\n        /* \"contracts/TransactionDetailContract28April.sol\":1022:1380  _transactionCode.length == _productName.length &&... */\n    tag_36:\n        /* \"contracts/TransactionDetailContract28April.sol\":1001:1442  require(... */\n      tag_37\n      jumpi\n      mload(0x40)\n      0x08c379a000000000000000000000000000000000000000000000000000000000\n      dup2\n      mstore\n      0x04\n      add\n      tag_38\n      swap1\n      tag_39\n      jump\t// in\n    tag_38:\n      mload(0x40)\n      dup1\n      swap2\n      sub\n      swap1\n      revert\n    tag_37:\n        /* \"contracts/TransactionDetailContract28April.sol\":1458:1464  uint i */\n      0x00\n        /* \"contracts/TransactionDetailContract28April.sol\":1453:2169  for (uint i = 0; i < _transactionCode.length; i++) {... */\n    tag_40:\n        /* \"contracts/TransactionDetailContract28April.sol\":1474:1490  _transactionCode */\n      dup8\n        /* \"contracts/TransactionDetailContract28April.sol\":1474:1497  _transactionCode.length */\n      mload\n        /* \"contracts/TransactionDetailContract28April.sol\":1470:1471  i */\n      dup2\n        /* \"contracts/TransactionDetailContract28April.sol\":1470:1497  i < _transactionCode.length */\n      lt\n        /* \"contracts/TransactionDetailContract28April.sol\":1453:2169  for (uint i = 0; i < _transactionCode.length; i++) {... */\n      iszero\n      tag_41\n      jumpi\n        /* \"contracts/TransactionDetailContract28April.sol\":1518:1540  transactionDetailCount */\n      0x01\n      0x00\n        /* \"contracts/TransactionDetailContract28April.sol\":1518:1542  transactionDetailCount++ */\n      dup2\n      sload\n      dup1\n      swap3\n      swap2\n      swap1\n      tag_43\n      swap1\n      tag_44\n      jump\t// in\n    tag_43:\n      swap2\n      swap1\n      pop\n      sstore\n      pop\n        /* \"contracts/TransactionDetailContract28April.sol\":1601:1867  TransactionDetail(... */\n      mload(0x40)\n      dup1\n      0xe0\n      add\n      0x40\n      mstore\n      dup1\n        /* \"contracts/TransactionDetailContract28April.sol\":1636:1652  _transactionCode */\n      dup10\n        /* \"contracts/TransactionDetailContract28April.sol\":1653:1654  i */\n      dup4\n        /* \"contracts/TransactionDetailContract28April.sol\":1636:1655  _transactionCode[i] */\n      dup2\n      mload\n      dup2\n      lt\n      tag_45\n      jumpi\n      tag_46\n      tag_47\n      jump\t// in\n    tag_46:\n    tag_45:\n      0x20\n      mul\n      0x20\n      add\n      add\n      mload\n        /* \"contracts/TransactionDetailContract28April.sol\":1601:1867  TransactionDetail(... */\n      dup2\n      mstore\n      0x20\n      add\n        /* \"contracts/TransactionDetailContract28April.sol\":1673:1685  _productName */\n      dup9\n        /* \"contracts/TransactionDetailContract28April.sol\":1686:1687  i */\n      dup4\n        /* \"contracts/TransactionDetailContract28April.sol\":1673:1688  _productName[i] */\n      dup2\n      mload\n      dup2\n      lt\n      tag_48\n      jumpi\n      tag_49\n      tag_47\n      jump\t// in\n    tag_49:\n    tag_48:\n      0x20\n      mul\n      0x20\n      add\n      add\n      mload\n        /* \"contracts/TransactionDetailContract28April.sol\":1601:1867  TransactionDetail(... */\n      dup2\n      mstore\n      0x20\n      add\n        /* \"contracts/TransactionDetailContract28April.sol\":1706:1725  _productDescription */\n      dup8\n        /* \"contracts/TransactionDetailContract28April.sol\":1726:1727  i */\n      dup4\n        /* \"contracts/TransactionDetailContract28April.sol\":1706:1728  _productDescription[i] */\n      dup2\n      mload\n      dup2\n      lt\n      tag_50\n      jumpi\n      tag_51\n      tag_47\n      jump\t// in\n    tag_51:\n    tag_50:\n      0x20\n      mul\n      0x20\n      add\n      add\n      mload\n        /* \"contracts/TransactionDetailContract28April.sol\":1601:1867  TransactionDetail(... */\n      dup2\n      mstore\n      0x20\n      add\n        /* \"contracts/TransactionDetailContract28April.sol\":1746:1761  _tokenOfProduct */\n      dup7\n        /* \"contracts/TransactionDetailContract28April.sol\":1762:1763  i */\n      dup4\n        /* \"contracts/TransactionDetailContract28April.sol\":1746:1764  _tokenOfProduct[i] */\n      dup2\n      mload\n      dup2\n      lt\n      tag_52\n      jumpi\n      tag_53\n      tag_47\n      jump\t// in\n    tag_53:\n    tag_52:\n      0x20\n      mul\n      0x20\n      add\n      add\n      mload\n        /* \"contracts/TransactionDetailContract28April.sol\":1601:1867  TransactionDetail(... */\n      dup2\n      mstore\n      0x20\n      add\n        /* \"contracts/TransactionDetailContract28April.sol\":1782:1792  _productId */\n      dup6\n        /* \"contracts/TransactionDetailContract28April.sol\":1793:1794  i */\n      dup4\n        /* \"contracts/TransactionDetailContract28April.sol\":1782:1795  _productId[i] */\n      dup2\n      mload\n      dup2\n      lt\n      tag_54\n      jumpi\n      tag_55\n      tag_47\n      jump\t// in\n    tag_55:\n    tag_54:\n      0x20\n      mul\n      0x20\n      add\n      add\n      mload\n        /* \"contracts/TransactionDetailContract28April.sol\":1601:1867  TransactionDetail(... */\n      dup2\n      mstore\n      0x20\n      add\n        /* \"contracts/TransactionDetailContract28April.sol\":1813:1819  _price */\n      dup5\n        /* \"contracts/TransactionDetailContract28April.sol\":1820:1821  i */\n      dup4\n        /* \"contracts/TransactionDetailContract28April.sol\":1813:1822  _price[i] */\n      dup2\n      mload\n      dup2\n      lt\n      tag_56\n      jumpi\n      tag_57\n      tag_47\n      jump\t// in\n    tag_57:\n    tag_56:\n      0x20\n      mul\n      0x20\n      add\n      add\n      mload\n        /* \"contracts/TransactionDetailContract28April.sol\":1601:1867  TransactionDetail(... */\n      dup2\n      mstore\n      0x20\n      add\n        /* \"contracts/TransactionDetailContract28April.sol\":1840:1850  _createdAt */\n      dup4\n        /* \"contracts/TransactionDetailContract28April.sol\":1851:1852  i */\n      dup4\n        /* \"contracts/TransactionDetailContract28April.sol\":1840:1853  _createdAt[i] */\n      dup2\n      mload\n      dup2\n      lt\n      tag_58\n      jumpi\n      tag_59\n      tag_47\n      jump\t// in\n    tag_59:\n    tag_58:\n      0x20\n      mul\n      0x20\n      add\n      add\n      mload\n        /* \"contracts/TransactionDetailContract28April.sol\":1601:1867  TransactionDetail(... */\n      dup2\n      mstore\n      pop\n        /* \"contracts/TransactionDetailContract28April.sol\":1556:1574  transactionDetails */\n      0x00\n        /* \"contracts/TransactionDetailContract28April.sol\":1556:1598  transactionDetails[transactionDetailCount] */\n      dup1\n        /* \"contracts/TransactionDetailContract28April.sol\":1575:1597  transactionDetailCount */\n      sload(0x01)\n        /* \"contracts/TransactionDetailContract28April.sol\":1556:1598  transactionDetails[transactionDetailCount] */\n      dup2\n      mstore\n      0x20\n      add\n      swap1\n      dup2\n      mstore\n      0x20\n      add\n      0x00\n      keccak256\n        /* \"contracts/TransactionDetailContract28April.sol\":1556:1867  transactionDetails[transactionDetailCount] = TransactionDetail(... */\n      0x00\n      dup3\n      add\n      mload\n      dup2\n      0x00\n      add\n      swap1\n      dup2\n      tag_60\n      swap2\n      swap1\n      tag_61\n      jump\t// in\n    tag_60:\n      pop\n      0x20\n      dup3\n      add\n      mload\n      dup2\n      0x01\n      add\n      swap1\n      dup2\n      tag_62\n      swap2\n      swap1\n      tag_61\n      jump\t// in\n    tag_62:\n      pop\n      0x40\n      dup3\n      add\n      mload\n      dup2\n      0x02\n      add\n      swap1\n      dup2\n      tag_63\n      swap2\n      swap1\n      tag_61\n      jump\t// in\n    tag_63:\n      pop\n      0x60\n      dup3\n      add\n      mload\n      dup2\n      0x03\n      add\n      swap1\n      dup2\n      tag_64\n      swap2\n      swap1\n      tag_61\n      jump\t// in\n    tag_64:\n      pop\n      0x80\n      dup3\n      add\n      mload\n      dup2\n      0x04\n      add\n      swap1\n      dup2\n      tag_65\n      swap2\n      swap1\n      tag_61\n      jump\t// in\n    tag_65:\n      pop\n      0xa0\n      dup3\n      add\n      mload\n      dup2\n      0x05\n      add\n      swap1\n      dup2\n      tag_66\n      swap2\n      swap1\n      tag_61\n      jump\t// in\n    tag_66:\n      pop\n      0xc0\n      dup3\n      add\n      mload\n      dup2\n      0x06\n      add\n      sstore\n      swap1\n      pop\n      pop\n        /* \"contracts/TransactionDetailContract28April.sol\":1887:2158  TransactionDetailAdded(... */\n      0x4f528c4065463b433ef40b7b305c5e7b22cb8947f69d5f4f8d4205d8b975a09e\n        /* \"contracts/TransactionDetailContract28April.sol\":1927:1943  _transactionCode */\n      dup9\n        /* \"contracts/TransactionDetailContract28April.sol\":1944:1945  i */\n      dup3\n        /* \"contracts/TransactionDetailContract28April.sol\":1927:1946  _transactionCode[i] */\n      dup2\n      mload\n      dup2\n      lt\n      tag_67\n      jumpi\n      tag_68\n      tag_47\n      jump\t// in\n    tag_68:\n    tag_67:\n      0x20\n      mul\n      0x20\n      add\n      add\n      mload\n        /* \"contracts/TransactionDetailContract28April.sol\":1964:1976  _productName */\n      dup9\n        /* \"contracts/TransactionDetailContract28April.sol\":1977:1978  i */\n      dup4\n        /* \"contracts/TransactionDetailContract28April.sol\":1964:1979  _productName[i] */\n      dup2\n      mload\n      dup2\n      lt\n      tag_69\n      jumpi\n      tag_70\n      tag_47\n      jump\t// in\n    tag_70:\n    tag_69:\n      0x20\n      mul\n      0x20\n      add\n      add\n      mload\n        /* \"contracts/TransactionDetailContract28April.sol\":1997:2016  _productDescription */\n      dup9\n        /* \"contracts/TransactionDetailContract28April.sol\":2017:2018  i */\n      dup5\n        /* \"contracts/TransactionDetailContract28April.sol\":1997:2019  _productDescription[i] */\n      dup2\n      mload\n      dup2\n      lt\n      tag_71\n      jumpi\n      tag_72\n      tag_47\n      jump\t// in\n    tag_72:\n    tag_71:\n      0x20\n      mul\n      0x20\n      add\n      add\n      mload\n        /* \"contracts/TransactionDetailContract28April.sol\":2037:2052  _tokenOfProduct */\n      dup9\n        /* \"contracts/TransactionDetailContract28April.sol\":2053:2054  i */\n      dup6\n        /* \"contracts/TransactionDetailContract28April.sol\":2037:2055  _tokenOfProduct[i] */\n      dup2\n      mload\n      dup2\n      lt\n      tag_73\n      jumpi\n      tag_74\n      tag_47\n      jump\t// in\n    tag_74:\n    tag_73:\n      0x20\n      mul\n      0x20\n      add\n      add\n      mload\n        /* \"contracts/TransactionDetailContract28April.sol\":2073:2083  _productId */\n      dup9\n        /* \"contracts/TransactionDetailContract28April.sol\":2084:2085  i */\n      dup7\n        /* \"contracts/TransactionDetailContract28April.sol\":2073:2086  _productId[i] */\n      dup2\n      mload\n      dup2\n      lt\n      tag_75\n      jumpi\n      tag_76\n      tag_47\n      jump\t// in\n    tag_76:\n    tag_75:\n      0x20\n      mul\n      0x20\n      add\n      add\n      mload\n        /* \"contracts/TransactionDetailContract28April.sol\":2104:2110  _price */\n      dup9\n        /* \"contracts/TransactionDetailContract28April.sol\":2111:2112  i */\n      dup8\n        /* \"contracts/TransactionDetailContract28April.sol\":2104:2113  _price[i] */\n      dup2\n      mload\n      dup2\n      lt\n      tag_77\n      jumpi\n      tag_78\n      tag_47\n      jump\t// in\n    tag_78:\n    tag_77:\n      0x20\n      mul\n      0x20\n      add\n      add\n      mload\n        /* \"contracts/TransactionDetailContract28April.sol\":2131:2141  _createdAt */\n      dup9\n        /* \"contracts/TransactionDetailContract28April.sol\":2142:2143  i */\n      dup9\n        /* \"contracts/TransactionDetailContract28April.sol\":2131:2144  _createdAt[i] */\n      dup2\n      mload\n      dup2\n      lt\n      tag_79\n      jumpi\n      tag_80\n      tag_47\n      jump\t// in\n    tag_80:\n    tag_79:\n      0x20\n      mul\n      0x20\n      add\n      add\n      mload\n        /* \"contracts/TransactionDetailContract28April.sol\":1887:2158  TransactionDetailAdded(... */\n      mload(0x40)\n      tag_81\n      swap8\n      swap7\n      swap6\n      swap5\n      swap4\n      swap3\n      swap2\n      swap1\n      tag_23\n      jump\t// in\n    tag_81:\n      mload(0x40)\n      dup1\n      swap2\n      sub\n      swap1\n      log1\n        /* \"contracts/TransactionDetailContract28April.sol\":1499:1502  i++ */\n      dup1\n      dup1\n      tag_82\n      swap1\n      tag_44\n      jump\t// in\n    tag_82:\n      swap2\n      pop\n      pop\n        /* \"contracts/TransactionDetailContract28April.sol\":1453:2169  for (uint i = 0; i < _transactionCode.length; i++) {... */\n      jump(tag_40)\n    tag_41:\n      pop\n        /* \"contracts/TransactionDetailContract28April.sol\":680:2175  function addTransactionDetail(... */\n      pop\n      pop\n      pop\n      pop\n      pop\n      pop\n      pop\n      jump\t// out\n        /* \"contracts/TransactionDetailContract28April.sol\":2566:3544  function getTransactionDetailByTransactionCode(... */\n    tag_15:\n        /* \"contracts/TransactionDetailContract28April.sol\":2680:2706  TransactionDetail[] memory */\n      0x60\n        /* \"contracts/TransactionDetailContract28April.sol\":2718:2728  uint count */\n      0x00\n        /* \"contracts/TransactionDetailContract28April.sol\":2747:2753  uint i */\n      dup1\n        /* \"contracts/TransactionDetailContract28April.sol\":2756:2757  1 */\n      0x01\n        /* \"contracts/TransactionDetailContract28April.sol\":2747:2757  uint i = 1 */\n      swap1\n      pop\n        /* \"contracts/TransactionDetailContract28April.sol\":2742:3046  for (uint i = 1; i <= transactionDetailCount; i++) {... */\n    tag_84:\n        /* \"contracts/TransactionDetailContract28April.sol\":2764:2786  transactionDetailCount */\n      sload(0x01)\n        /* \"contracts/TransactionDetailContract28April.sol\":2759:2760  i */\n      dup2\n        /* \"contracts/TransactionDetailContract28April.sol\":2759:2786  i <= transactionDetailCount */\n      gt\n        /* \"contracts/TransactionDetailContract28April.sol\":2742:3046  for (uint i = 1; i <= transactionDetailCount; i++) {... */\n      tag_85\n      jumpi\n        /* \"contracts/TransactionDetailContract28April.sol\":2963:2979  _transactionCode */\n      dup4\n        /* \"contracts/TransactionDetailContract28April.sol\":2946:2980  abi.encodePacked(_transactionCode) */\n      add(0x20, mload(0x40))\n      tag_87\n      swap2\n      swap1\n      tag_88\n      jump\t// in\n    tag_87:\n      mload(0x40)\n      0x20\n      dup2\n      dup4\n      sub\n      sub\n      dup2\n      mstore\n      swap1\n      0x40\n      mstore\n        /* \"contracts/TransactionDetailContract28April.sol\":2936:2981  keccak256(abi.encodePacked(_transactionCode)) */\n      dup1\n      mload\n      swap1\n      0x20\n      add\n      keccak256\n        /* \"contracts/TransactionDetailContract28April.sol\":2876:2894  transactionDetails */\n      0x00\n        /* \"contracts/TransactionDetailContract28April.sol\":2876:2897  transactionDetails[i] */\n      dup1\n        /* \"contracts/TransactionDetailContract28April.sol\":2895:2896  i */\n      dup4\n        /* \"contracts/TransactionDetailContract28April.sol\":2876:2897  transactionDetails[i] */\n      dup2\n      mstore\n      0x20\n      add\n      swap1\n      dup2\n      mstore\n      0x20\n      add\n      0x00\n      keccak256\n        /* \"contracts/TransactionDetailContract28April.sol\":2876:2913  transactionDetails[i].transactionCode */\n      0x00\n      add\n        /* \"contracts/TransactionDetailContract28April.sol\":2859:2914  abi.encodePacked(transactionDetails[i].transactionCode) */\n      add(0x20, mload(0x40))\n      tag_89\n      swap2\n      swap1\n      tag_90\n      jump\t// in\n    tag_89:\n      mload(0x40)\n      0x20\n      dup2\n      dup4\n      sub\n      sub\n      dup2\n      mstore\n      swap1\n      0x40\n      mstore\n        /* \"contracts/TransactionDetailContract28April.sol\":2828:2932  keccak256(... */\n      dup1\n      mload\n      swap1\n      0x20\n      add\n      keccak256\n        /* \"contracts/TransactionDetailContract28April.sol\":2828:2981  keccak256(... */\n      sub\n        /* \"contracts/TransactionDetailContract28April.sol\":2807:3036  if (... */\n      tag_91\n      jumpi\n        /* \"contracts/TransactionDetailContract28April.sol\":3014:3021  count++ */\n      dup2\n      dup1\n      tag_92\n      swap1\n      tag_44\n      jump\t// in\n    tag_92:\n      swap3\n      pop\n      pop\n        /* \"contracts/TransactionDetailContract28April.sol\":2807:3036  if (... */\n    tag_91:\n        /* \"contracts/TransactionDetailContract28April.sol\":2788:2791  i++ */\n      dup1\n      dup1\n      tag_93\n      swap1\n      tag_44\n      jump\t// in\n    tag_93:\n      swap2\n      pop\n      pop\n        /* \"contracts/TransactionDetailContract28April.sol\":2742:3046  for (uint i = 1; i <= transactionDetailCount; i++) {... */\n      jump(tag_84)\n    tag_85:\n      pop\n        /* \"contracts/TransactionDetailContract28April.sol\":3056:3089  TransactionDetail[] memory result */\n      0x00\n        /* \"contracts/TransactionDetailContract28April.sol\":3116:3121  count */\n      dup2\n        /* \"contracts/TransactionDetailContract28April.sol\":3092:3122  new TransactionDetail[](count) */\n      0xffffffffffffffff\n      dup2\n      gt\n      iszero\n      tag_94\n      jumpi\n      tag_95\n      tag_96\n      jump\t// in\n    tag_95:\n    tag_94:\n      mload(0x40)\n      swap1\n      dup1\n      dup3\n      mstore\n      dup1\n      0x20\n      mul\n      0x20\n      add\n      dup3\n      add\n      0x40\n      mstore\n      dup1\n      iszero\n      tag_97\n      jumpi\n      dup2\n      0x20\n      add\n    tag_98:\n      tag_99\n      tag_100\n      jump\t// in\n    tag_99:\n      dup2\n      mstore\n      0x20\n      add\n      swap1\n      0x01\n      swap1\n      sub\n      swap1\n      dup2\n      tag_98\n      jumpi\n      swap1\n      pop\n    tag_97:\n      pop\n        /* \"contracts/TransactionDetailContract28April.sol\":3056:3122  TransactionDetail[] memory result = new TransactionDetail[](count) */\n      swap1\n      pop\n        /* \"contracts/TransactionDetailContract28April.sol\":3132:3142  uint index */\n      0x00\n        /* \"contracts/TransactionDetailContract28April.sol\":3161:3167  uint i */\n      dup1\n        /* \"contracts/TransactionDetailContract28April.sol\":3170:3171  1 */\n      0x01\n        /* \"contracts/TransactionDetailContract28April.sol\":3161:3171  uint i = 1 */\n      swap1\n      pop\n        /* \"contracts/TransactionDetailContract28April.sol\":3156:3515  for (uint i = 1; i <= transactionDetailCount; i++) {... */\n    tag_101:\n        /* \"contracts/TransactionDetailContract28April.sol\":3178:3200  transactionDetailCount */\n      sload(0x01)\n        /* \"contracts/TransactionDetailContract28April.sol\":3173:3174  i */\n      dup2\n        /* \"contracts/TransactionDetailContract28April.sol\":3173:3200  i <= transactionDetailCount */\n      gt\n        /* \"contracts/TransactionDetailContract28April.sol\":3156:3515  for (uint i = 1; i <= transactionDetailCount; i++) {... */\n      tag_102\n      jumpi\n        /* \"contracts/TransactionDetailContract28April.sol\":3377:3393  _transactionCode */\n      dup6\n        /* \"contracts/TransactionDetailContract28April.sol\":3360:3394  abi.encodePacked(_transactionCode) */\n      add(0x20, mload(0x40))\n      tag_104\n      swap2\n      swap1\n      tag_88\n      jump\t// in\n    tag_104:\n      mload(0x40)\n      0x20\n      dup2\n      dup4\n      sub\n      sub\n      dup2\n      mstore\n      swap1\n      0x40\n      mstore\n        /* \"contracts/TransactionDetailContract28April.sol\":3350:3395  keccak256(abi.encodePacked(_transactionCode)) */\n      dup1\n      mload\n      swap1\n      0x20\n      add\n      keccak256\n        /* \"contracts/TransactionDetailContract28April.sol\":3290:3308  transactionDetails */\n      0x00\n        /* \"contracts/TransactionDetailContract28April.sol\":3290:3311  transactionDetails[i] */\n      dup1\n        /* \"contracts/TransactionDetailContract28April.sol\":3309:3310  i */\n      dup4\n        /* \"contracts/TransactionDetailContract28April.sol\":3290:3311  transactionDetails[i] */\n      dup2\n      mstore\n      0x20\n      add\n      swap1\n      dup2\n      mstore\n      0x20\n      add\n      0x00\n      keccak256\n        /* \"contracts/TransactionDetailContract28April.sol\":3290:3327  transactionDetails[i].transactionCode */\n      0x00\n      add\n        /* \"contracts/TransactionDetailContract28April.sol\":3273:3328  abi.encodePacked(transactionDetails[i].transactionCode) */\n      add(0x20, mload(0x40))\n      tag_105\n      swap2\n      swap1\n      tag_90\n      jump\t// in\n    tag_105:\n      mload(0x40)\n      0x20\n      dup2\n      dup4\n      sub\n      sub\n      dup2\n      mstore\n      swap1\n      0x40\n      mstore\n        /* \"contracts/TransactionDetailContract28April.sol\":3242:3346  keccak256(... */\n      dup1\n      mload\n      swap1\n      0x20\n      add\n      keccak256\n        /* \"contracts/TransactionDetailContract28April.sol\":3242:3395  keccak256(... */\n      sub\n        /* \"contracts/TransactionDetailContract28April.sol\":3221:3505  if (... */\n      tag_106\n      jumpi\n        /* \"contracts/TransactionDetailContract28April.sol\":3444:3462  transactionDetails */\n      0x00\n        /* \"contracts/TransactionDetailContract28April.sol\":3444:3465  transactionDetails[i] */\n      dup1\n        /* \"contracts/TransactionDetailContract28April.sol\":3463:3464  i */\n      dup3\n        /* \"contracts/TransactionDetailContract28April.sol\":3444:3465  transactionDetails[i] */\n      dup2\n      mstore\n      0x20\n      add\n      swap1\n      dup2\n      mstore\n      0x20\n      add\n      0x00\n      keccak256\n        /* \"contracts/TransactionDetailContract28April.sol\":3428:3465  result[index] = transactionDetails[i] */\n      mload(0x40)\n      dup1\n      0xe0\n      add\n      0x40\n      mstore\n      swap1\n      dup2\n      0x00\n      dup3\n      add\n      dup1\n      sload\n      tag_107\n      swap1\n      tag_108\n      jump\t// in\n    tag_107:\n      dup1\n      0x1f\n      add\n      0x20\n      dup1\n      swap2\n      div\n      mul\n      0x20\n      add\n      mload(0x40)\n      swap1\n      dup2\n      add\n      0x40\n      mstore\n      dup1\n      swap3\n      swap2\n      swap1\n      dup2\n      dup2\n      mstore\n      0x20\n      add\n      dup3\n      dup1\n      sload\n      tag_109\n      swap1\n      tag_108\n      jump\t// in\n    tag_109:\n      dup1\n      iszero\n      tag_110\n      jumpi\n      dup1\n      0x1f\n      lt\n      tag_111\n      jumpi\n      0x0100\n      dup1\n      dup4\n      sload\n      div\n      mul\n      dup4\n      mstore\n      swap2\n      0x20\n      add\n      swap2\n      jump(tag_110)\n    tag_111:\n      dup3\n      add\n      swap2\n      swap1\n      0x00\n      mstore\n      keccak256(0x00, 0x20)\n      swap1\n    tag_112:\n      dup2\n      sload\n      dup2\n      mstore\n      swap1\n      0x01\n      add\n      swap1\n      0x20\n      add\n      dup1\n      dup4\n      gt\n      tag_112\n      jumpi\n      dup3\n      swap1\n      sub\n      0x1f\n      and\n      dup3\n      add\n      swap2\n    tag_110:\n      pop\n      pop\n      pop\n      pop\n      pop\n      dup2\n      mstore\n      0x20\n      add\n      0x01\n      dup3\n      add\n      dup1\n      sload\n      tag_113\n      swap1\n      tag_108\n      jump\t// in\n    tag_113:\n      dup1\n      0x1f\n      add\n      0x20\n      dup1\n      swap2\n      div\n      mul\n      0x20\n      add\n      mload(0x40)\n      swap1\n      dup2\n      add\n      0x40\n      mstore\n      dup1\n      swap3\n      swap2\n      swap1\n      dup2\n      dup2\n      mstore\n      0x20\n      add\n      dup3\n      dup1\n      sload\n      tag_114\n      swap1\n      tag_108\n      jump\t// in\n    tag_114:\n      dup1\n      iszero\n      tag_115\n      jumpi\n      dup1\n      0x1f\n      lt\n      tag_116\n      jumpi\n      0x0100\n      dup1\n      dup4\n      sload\n      div\n      mul\n      dup4\n      mstore\n      swap2\n      0x20\n      add\n      swap2\n      jump(tag_115)\n    tag_116:\n      dup3\n      add\n      swap2\n      swap1\n      0x00\n      mstore\n      keccak256(0x00, 0x20)\n      swap1\n    tag_117:\n      dup2\n      sload\n      dup2\n      mstore\n      swap1\n      0x01\n      add\n      swap1\n      0x20\n      add\n      dup1\n      dup4\n      gt\n      tag_117\n      jumpi\n      dup3\n      swap1\n      sub\n      0x1f\n      and\n      dup3\n      add\n      swap2\n    tag_115:\n      pop\n      pop\n      pop\n      pop\n      pop\n      dup2\n      mstore\n      0x20\n      add\n      0x02\n      dup3\n      add\n      dup1\n      sload\n      tag_118\n      swap1\n      tag_108\n      jump\t// in\n    tag_118:\n      dup1\n      0x1f\n      add\n      0x20\n      dup1\n      swap2\n      div\n      mul\n      0x20\n      add\n      mload(0x40)\n      swap1\n      dup2\n      add\n      0x40\n      mstore\n      dup1\n      swap3\n      swap2\n      swap1\n      dup2\n      dup2\n      mstore\n      0x20\n      add\n      dup3\n      dup1\n      sload\n      tag_119\n      swap1\n      tag_108\n      jump\t// in\n    tag_119:\n      dup1\n      iszero\n      tag_120\n      jumpi\n      dup1\n      0x1f\n      lt\n      tag_121\n      jumpi\n      0x0100\n      dup1\n      dup4\n      sload\n      div\n      mul\n      dup4\n      mstore\n      swap2\n      0x20\n      add\n      swap2\n      jump(tag_120)\n    tag_121:\n      dup3\n      add\n      swap2\n      swap1\n      0x00\n      mstore\n      keccak256(0x00, 0x20)\n      swap1\n    tag_122:\n      dup2\n      sload\n      dup2\n      mstore\n      swap1\n      0x01\n      add\n      swap1\n      0x20\n      add\n      dup1\n      dup4\n      gt\n      tag_122\n      jumpi\n      dup3\n      swap1\n      sub\n      0x1f\n      and\n      dup3\n      add\n      swap2\n    tag_120:\n      pop\n      pop\n      pop\n      pop\n      pop\n      dup2\n      mstore\n      0x20\n      add\n      0x03\n      dup3\n      add\n      dup1\n      sload\n      tag_123\n      swap1\n      tag_108\n      jump\t// in\n    tag_123:\n      dup1\n      0x1f\n      add\n      0x20\n      dup1\n      swap2\n      div\n      mul\n      0x20\n      add\n      mload(0x40)\n      swap1\n      dup2\n      add\n      0x40\n      mstore\n      dup1\n      swap3\n      swap2\n      swap1\n      dup2\n      dup2\n      mstore\n      0x20\n      add\n      dup3\n      dup1\n      sload\n      tag_124\n      swap1\n      tag_108\n      jump\t// in\n    tag_124:\n      dup1\n      iszero\n      tag_125\n      jumpi\n      dup1\n      0x1f\n      lt\n      tag_126\n      jumpi\n      0x0100\n      dup1\n      dup4\n      sload\n      div\n      mul\n      dup4\n      mstore\n      swap2\n      0x20\n      add\n      swap2\n      jump(tag_125)\n    tag_126:\n      dup3\n      add\n      swap2\n      swap1\n      0x00\n      mstore\n      keccak256(0x00, 0x20)\n      swap1\n    tag_127:\n      dup2\n      sload\n      dup2\n      mstore\n      swap1\n      0x01\n      add\n      swap1\n      0x20\n      add\n      dup1\n      dup4\n      gt\n      tag_127\n      jumpi\n      dup3\n      swap1\n      sub\n      0x1f\n      and\n      dup3\n      add\n      swap2\n    tag_125:\n      pop\n      pop\n      pop\n      pop\n      pop\n      dup2\n      mstore\n      0x20\n      add\n      0x04\n      dup3\n      add\n      dup1\n      sload\n      tag_128\n      swap1\n      tag_108\n      jump\t// in\n    tag_128:\n      dup1\n      0x1f\n      add\n      0x20\n      dup1\n      swap2\n      div\n      mul\n      0x20\n      add\n      mload(0x40)\n      swap1\n      dup2\n      add\n      0x40\n      mstore\n      dup1\n      swap3\n      swap2\n      swap1\n      dup2\n      dup2\n      mstore\n      0x20\n      add\n      dup3\n      dup1\n      sload\n      tag_129\n      swap1\n      tag_108\n      jump\t// in\n    tag_129:\n      dup1\n      iszero\n      tag_130\n      jumpi\n      dup1\n      0x1f\n      lt\n      tag_131\n      jumpi\n      0x0100\n      dup1\n      dup4\n      sload\n      div\n      mul\n      dup4\n      mstore\n      swap2\n      0x20\n      add\n      swap2\n      jump(tag_130)\n    tag_131:\n      dup3\n      add\n      swap2\n      swap1\n      0x00\n      mstore\n      keccak256(0x00, 0x20)\n      swap1\n    tag_132:\n      dup2\n      sload\n      dup2\n      mstore\n      swap1\n      0x01\n      add\n      swap1\n      0x20\n      add\n      dup1\n      dup4\n      gt\n      tag_132\n      jumpi\n      dup3\n      swap1\n      sub\n      0x1f\n      and\n      dup3\n      add\n      swap2\n    tag_130:\n      pop\n      pop\n      pop\n      pop\n      pop\n      dup2\n      mstore\n      0x20\n      add\n      0x05\n      dup3\n      add\n      dup1\n      sload\n      tag_133\n      swap1\n      tag_108\n      jump\t// in\n    tag_133:\n      dup1\n      0x1f\n      add\n      0x20\n      dup1\n      swap2\n      div\n      mul\n      0x20\n      add\n      mload(0x40)\n      swap1\n      dup2\n      add\n      0x40\n      mstore\n      dup1\n      swap3\n      swap2\n      swap1\n      dup2\n      dup2\n      mstore\n      0x20\n      add\n      dup3\n      dup1\n      sload\n      tag_134\n      swap1\n      tag_108\n      jump\t// in\n    tag_134:\n      dup1\n      iszero\n      tag_135\n      jumpi\n      dup1\n      0x1f\n      lt\n      tag_136\n      jumpi\n      0x0100\n      dup1\n      dup4\n      sload\n      div\n      mul\n      dup4\n      mstore\n      swap2\n      0x20\n      add\n      swap2\n      jump(tag_135)\n    tag_136:\n      dup3\n      add\n      swap2\n      swap1\n      0x00\n      mstore\n      keccak256(0x00, 0x20)\n      swap1\n    tag_137:\n      dup2\n      sload\n      dup2\n      mstore\n      swap1\n      0x01\n      add\n      swap1\n      0x20\n      add\n      dup1\n      dup4\n      gt\n      tag_137\n      jumpi\n      dup3\n      swap1\n      sub\n      0x1f\n      and\n      dup3\n      add\n      swap2\n    tag_135:\n      pop\n      pop\n      pop\n      pop\n      pop\n      dup2\n      mstore\n      0x20\n      add\n      0x06\n      dup3\n      add\n      sload\n      dup2\n      mstore\n      pop\n      pop\n        /* \"contracts/TransactionDetailContract28April.sol\":3428:3434  result */\n      dup4\n        /* \"contracts/TransactionDetailContract28April.sol\":3435:3440  index */\n      dup4\n        /* \"contracts/TransactionDetailContract28April.sol\":3428:3441  result[index] */\n      dup2\n      mload\n      dup2\n      lt\n      tag_138\n      jumpi\n      tag_139\n      tag_47\n      jump\t// in\n    tag_139:\n    tag_138:\n      0x20\n      mul\n      0x20\n      add\n      add\n        /* \"contracts/TransactionDetailContract28April.sol\":3428:3465  result[index] = transactionDetails[i] */\n      dup2\n      swap1\n      mstore\n      pop\n        /* \"contracts/TransactionDetailContract28April.sol\":3483:3490  index++ */\n      dup2\n      dup1\n      tag_140\n      swap1\n      tag_44\n      jump\t// in\n    tag_140:\n      swap3\n      pop\n      pop\n        /* \"contracts/TransactionDetailContract28April.sol\":3221:3505  if (... */\n    tag_106:\n        /* \"contracts/TransactionDetailContract28April.sol\":3202:3205  i++ */\n      dup1\n      dup1\n      tag_141\n      swap1\n      tag_44\n      jump\t// in\n    tag_141:\n      swap2\n      pop\n      pop\n        /* \"contracts/TransactionDetailContract28April.sol\":3156:3515  for (uint i = 1; i <= transactionDetailCount; i++) {... */\n      jump(tag_101)\n    tag_102:\n      pop\n        /* \"contracts/TransactionDetailContract28April.sol\":3531:3537  result */\n      dup2\n        /* \"contracts/TransactionDetailContract28April.sol\":3524:3537  return result */\n      swap4\n      pop\n      pop\n      pop\n      pop\n        /* \"contracts/TransactionDetailContract28April.sol\":2566:3544  function getTransactionDetailByTransactionCode(... */\n      swap2\n      swap1\n      pop\n      jump\t// out\n        /* \"contracts/TransactionDetailContract28April.sol\":573:633  mapping(uint => TransactionDetail) public transactionDetails */\n    tag_21:\n      mstore(0x20, 0x00)\n      dup1\n      0x00\n      mstore\n      keccak256(0x00, 0x40)\n      0x00\n      swap2\n      pop\n      swap1\n      pop\n      dup1\n      0x00\n      add\n      dup1\n      sload\n      tag_142\n      swap1\n      tag_108\n      jump\t// in\n    tag_142:\n      dup1\n      0x1f\n      add\n      0x20\n      dup1\n      swap2\n      div\n      mul\n      0x20\n      add\n      mload(0x40)\n      swap1\n      dup2\n      add\n      0x40\n      mstore\n      dup1\n      swap3\n      swap2\n      swap1\n      dup2\n      dup2\n      mstore\n      0x20\n      add\n      dup3\n      dup1\n      sload\n      tag_143\n      swap1\n      tag_108\n      jump\t// in\n    tag_143:\n      dup1\n      iszero\n      tag_144\n      jumpi\n      dup1\n      0x1f\n      lt\n      tag_145\n      jumpi\n      0x0100\n      dup1\n      dup4\n      sload\n      div\n      mul\n      dup4\n      mstore\n      swap2\n      0x20\n      add\n      swap2\n      jump(tag_144)\n    tag_145:\n      dup3\n      add\n      swap2\n      swap1\n      0x00\n      mstore\n      keccak256(0x00, 0x20)\n      swap1\n    tag_146:\n      dup2\n      sload\n      dup2\n      mstore\n      swap1\n      0x01\n      add\n      swap1\n      0x20\n      add\n      dup1\n      dup4\n      gt\n      tag_146\n      jumpi\n      dup3\n      swap1\n      sub\n      0x1f\n      and\n      dup3\n      add\n      swap2\n    tag_144:\n      pop\n      pop\n      pop\n      pop\n      pop\n      swap1\n      dup1\n      0x01\n      add\n      dup1\n      sload\n      tag_147\n      swap1\n      tag_108\n      jump\t// in\n    tag_147:\n      dup1\n      0x1f\n      add\n      0x20\n      dup1\n      swap2\n      div\n      mul\n      0x20\n      add\n      mload(0x40)\n      swap1\n      dup2\n      add\n      0x40\n      mstore\n      dup1\n      swap3\n      swap2\n      swap1\n      dup2\n      dup2\n      mstore\n      0x20\n      add\n      dup3\n      dup1\n      sload\n      tag_148\n      swap1\n      tag_108\n      jump\t// in\n    tag_148:\n      dup1\n      iszero\n      tag_149\n      jumpi\n      dup1\n      0x1f\n      lt\n      tag_150\n      jumpi\n      0x0100\n      dup1\n      dup4\n      sload\n      div\n      mul\n      dup4\n      mstore\n      swap2\n      0x20\n      add\n      swap2\n      jump(tag_149)\n    tag_150:\n      dup3\n      add\n      swap2\n      swap1\n      0x00\n      mstore\n      keccak256(0x00, 0x20)\n      swap1\n    tag_151:\n      dup2\n      sload\n      dup2\n      mstore\n      swap1\n      0x01\n      add\n      swap1\n      0x20\n      add\n      dup1\n      dup4\n      gt\n      tag_151\n      jumpi\n      dup3\n      swap1\n      sub\n      0x1f\n      and\n      dup3\n      add\n      swap2\n    tag_149:\n      pop\n      pop\n      pop\n      pop\n      pop\n      swap1\n      dup1\n      0x02\n      add\n      dup1\n      sload\n      tag_152\n      swap1\n      tag_108\n      jump\t// in\n    tag_152:\n      dup1\n      0x1f\n      add\n      0x20\n      dup1\n      swap2\n      div\n      mul\n      0x20\n      add\n      mload(0x40)\n      swap1\n      dup2\n      add\n      0x40\n      mstore\n      dup1\n      swap3\n      swap2\n      swap1\n      dup2\n      dup2\n      mstore\n      0x20\n      add\n      dup3\n      dup1\n      sload\n      tag_153\n      swap1\n      tag_108\n      jump\t// in\n    tag_153:\n      dup1\n      iszero\n      tag_154\n      jumpi\n      dup1\n      0x1f\n      lt\n      tag_155\n      jumpi\n      0x0100\n      dup1\n      dup4\n      sload\n      div\n      mul\n      dup4\n      mstore\n      swap2\n      0x20\n      add\n      swap2\n      jump(tag_154)\n    tag_155:\n      dup3\n      add\n      swap2\n      swap1\n      0x00\n      mstore\n      keccak256(0x00, 0x20)\n      swap1\n    tag_156:\n      dup2\n      sload\n      dup2\n      mstore\n      swap1\n      0x01\n      add\n      swap1\n      0x20\n      add\n      dup1\n      dup4\n      gt\n      tag_156\n      jumpi\n      dup3\n      swap1\n      sub\n      0x1f\n      and\n      dup3\n      add\n      swap2\n    tag_154:\n      pop\n      pop\n      pop\n      pop\n      pop\n      swap1\n      dup1\n      0x03\n      add\n      dup1\n      sload\n      tag_157\n      swap1\n      tag_108\n      jump\t// in\n    tag_157:\n      dup1\n      0x1f\n      add\n      0x20\n      dup1\n      swap2\n      div\n      mul\n      0x20\n      add\n      mload(0x40)\n      swap1\n      dup2\n      add\n      0x40\n      mstore\n      dup1\n      swap3\n      swap2\n      swap1\n      dup2\n      dup2\n      mstore\n      0x20\n      add\n      dup3\n      dup1\n      sload\n      tag_158\n      swap1\n      tag_108\n      jump\t// in\n    tag_158:\n      dup1\n      iszero\n      tag_159\n      jumpi\n      dup1\n      0x1f\n      lt\n      tag_160\n      jumpi\n      0x0100\n      dup1\n      dup4\n      sload\n      div\n      mul\n      dup4\n      mstore\n      swap2\n      0x20\n      add\n      swap2\n      jump(tag_159)\n    tag_160:\n      dup3\n      add\n      swap2\n      swap1\n      0x00\n      mstore\n      keccak256(0x00, 0x20)\n      swap1\n    tag_161:\n      dup2\n      sload\n      dup2\n      mstore\n      swap1\n      0x01\n      add\n      swap1\n      0x20\n      add\n      dup1\n      dup4\n      gt\n      tag_161\n      jumpi\n      dup3\n      swap1\n      sub\n      0x1f\n      and\n      dup3\n      add\n      swap2\n    tag_159:\n      pop\n      pop\n      pop\n      pop\n      pop\n      swap1\n      dup1\n      0x04\n      add\n      dup1\n      sload\n      tag_162\n      swap1\n      tag_108\n      jump\t// in\n    tag_162:\n      dup1\n      0x1f\n      add\n      0x20\n      dup1\n      swap2\n      div\n      mul\n      0x20\n      add\n      mload(0x40)\n      swap1\n      dup2\n      add\n      0x40\n      mstore\n      dup1\n      swap3\n      swap2\n      swap1\n      dup2\n      dup2\n      mstore\n      0x20\n      add\n      dup3\n      dup1\n      sload\n      tag_163\n      swap1\n      tag_108\n      jump\t// in\n    tag_163:\n      dup1\n      iszero\n      tag_164\n      jumpi\n      dup1\n      0x1f\n      lt\n      tag_165\n      jumpi\n      0x0100\n      dup1\n      dup4\n      sload\n      div\n      mul\n      dup4\n      mstore\n      swap2\n      0x20\n      add\n      swap2\n      jump(tag_164)\n    tag_165:\n      dup3\n      add\n      swap2\n      swap1\n      0x00\n      mstore\n      keccak256(0x00, 0x20)\n      swap1\n    tag_166:\n      dup2\n      sload\n      dup2\n      mstore\n      swap1\n      0x01\n      add\n      swap1\n      0x20\n      add\n      dup1\n      dup4\n      gt\n      tag_166\n      jumpi\n      dup3\n      swap1\n      sub\n      0x1f\n      and\n      dup3\n      add\n      swap2\n    tag_164:\n      pop\n      pop\n      pop\n      pop\n      pop\n      swap1\n      dup1\n      0x05\n      add\n      dup1\n      sload\n      tag_167\n      swap1\n      tag_108\n      jump\t// in\n    tag_167:\n      dup1\n      0x1f\n      add\n      0x20\n      dup1\n      swap2\n      div\n      mul\n      0x20\n      add\n      mload(0x40)\n      swap1\n      dup2\n      add\n      0x40\n      mstore\n      dup1\n      swap3\n      swap2\n      swap1\n      dup2\n      dup2\n      mstore\n      0x20\n      add\n      dup3\n      dup1\n      sload\n      tag_168\n      swap1\n      tag_108\n      jump\t// in\n    tag_168:\n      dup1\n      iszero\n      tag_169\n      jumpi\n      dup1\n      0x1f\n      lt\n      tag_170\n      jumpi\n      0x0100\n      dup1\n      dup4\n      sload\n      div\n      mul\n      dup4\n      mstore\n      swap2\n      0x20\n      add\n      swap2\n      jump(tag_169)\n    tag_170:\n      dup3\n      add\n      swap2\n      swap1\n      0x00\n      mstore\n      keccak256(0x00, 0x20)\n      swap1\n    tag_171:\n      dup2\n      sload\n      dup2\n      mstore\n      swap1\n      0x01\n      add\n      swap1\n      0x20\n      add\n      dup1\n      dup4\n      gt\n      tag_171\n      jumpi\n      dup3\n      swap1\n      sub\n      0x1f\n      and\n      dup3\n      add\n      swap2\n    tag_169:\n      pop\n      pop\n      pop\n      pop\n      pop\n      swap1\n      dup1\n      0x06\n      add\n      sload\n      swap1\n      pop\n      dup8\n      jump\t// out\n        /* \"contracts/TransactionDetailContract28April.sol\":2181:2560  function getAllTransactionDetail()... */\n    tag_25:\n        /* \"contracts/TransactionDetailContract28April.sol\":2261:2287  TransactionDetail[] memory */\n      0x60\n        /* \"contracts/TransactionDetailContract28April.sol\":2303:2336  TransactionDetail[] memory result */\n      0x00\n        /* \"contracts/TransactionDetailContract28April.sol\":2376:2398  transactionDetailCount */\n      sload(0x01)\n        /* \"contracts/TransactionDetailContract28April.sol\":2339:2408  new TransactionDetail[](... */\n      0xffffffffffffffff\n      dup2\n      gt\n      iszero\n      tag_173\n      jumpi\n      tag_174\n      tag_96\n      jump\t// in\n    tag_174:\n    tag_173:\n      mload(0x40)\n      swap1\n      dup1\n      dup3\n      mstore\n      dup1\n      0x20\n      mul\n      0x20\n      add\n      dup3\n      add\n      0x40\n      mstore\n      dup1\n      iszero\n      tag_175\n      jumpi\n      dup2\n      0x20\n      add\n    tag_176:\n      tag_177\n      tag_100\n      jump\t// in\n    tag_177:\n      dup2\n      mstore\n      0x20\n      add\n      swap1\n      0x01\n      swap1\n      sub\n      swap1\n      dup2\n      tag_176\n      jumpi\n      swap1\n      pop\n    tag_175:\n      pop\n        /* \"contracts/TransactionDetailContract28April.sol\":2303:2408  TransactionDetail[] memory result = new TransactionDetail[](... */\n      swap1\n      pop\n        /* \"contracts/TransactionDetailContract28April.sol\":2423:2429  uint i */\n      0x00\n        /* \"contracts/TransactionDetailContract28April.sol\":2432:2433  1 */\n      0x01\n        /* \"contracts/TransactionDetailContract28April.sol\":2423:2433  uint i = 1 */\n      swap1\n      pop\n        /* \"contracts/TransactionDetailContract28April.sol\":2418:2531  for (uint i = 1; i <= transactionDetailCount; i++) {... */\n    tag_178:\n        /* \"contracts/TransactionDetailContract28April.sol\":2440:2462  transactionDetailCount */\n      sload(0x01)\n        /* \"contracts/TransactionDetailContract28April.sol\":2435:2436  i */\n      dup2\n        /* \"contracts/TransactionDetailContract28April.sol\":2435:2462  i <= transactionDetailCount */\n      gt\n        /* \"contracts/TransactionDetailContract28April.sol\":2418:2531  for (uint i = 1; i <= transactionDetailCount; i++) {... */\n      tag_179\n      jumpi\n        /* \"contracts/TransactionDetailContract28April.sol\":2499:2517  transactionDetails */\n      0x00\n        /* \"contracts/TransactionDetailContract28April.sol\":2499:2520  transactionDetails[i] */\n      dup1\n        /* \"contracts/TransactionDetailContract28April.sol\":2518:2519  i */\n      dup3\n        /* \"contracts/TransactionDetailContract28April.sol\":2499:2520  transactionDetails[i] */\n      dup2\n      mstore\n      0x20\n      add\n      swap1\n      dup2\n      mstore\n      0x20\n      add\n      0x00\n      keccak256\n        /* \"contracts/TransactionDetailContract28April.sol\":2483:2520  result[i - 1] = transactionDetails[i] */\n      mload(0x40)\n      dup1\n      0xe0\n      add\n      0x40\n      mstore\n      swap1\n      dup2\n      0x00\n      dup3\n      add\n      dup1\n      sload\n      tag_181\n      swap1\n      tag_108\n      jump\t// in\n    tag_181:\n      dup1\n      0x1f\n      add\n      0x20\n      dup1\n      swap2\n      div\n      mul\n      0x20\n      add\n      mload(0x40)\n      swap1\n      dup2\n      add\n      0x40\n      mstore\n      dup1\n      swap3\n      swap2\n      swap1\n      dup2\n      dup2\n      mstore\n      0x20\n      add\n      dup3\n      dup1\n      sload\n      tag_182\n      swap1\n      tag_108\n      jump\t// in\n    tag_182:\n      dup1\n      iszero\n      tag_183\n      jumpi\n      dup1\n      0x1f\n      lt\n      tag_184\n      jumpi\n      0x0100\n      dup1\n      dup4\n      sload\n      div\n      mul\n      dup4\n      mstore\n      swap2\n      0x20\n      add\n      swap2\n      jump(tag_183)\n    tag_184:\n      dup3\n      add\n      swap2\n      swap1\n      0x00\n      mstore\n      keccak256(0x00, 0x20)\n      swap1\n    tag_185:\n      dup2\n      sload\n      dup2\n      mstore\n      swap1\n      0x01\n      add\n      swap1\n      0x20\n      add\n      dup1\n      dup4\n      gt\n      tag_185\n      jumpi\n      dup3\n      swap1\n      sub\n      0x1f\n      and\n      dup3\n      add\n      swap2\n    tag_183:\n      pop\n      pop\n      pop\n      pop\n      pop\n      dup2\n      mstore\n      0x20\n      add\n      0x01\n      dup3\n      add\n      dup1\n      sload\n      tag_186\n      swap1\n      tag_108\n      jump\t// in\n    tag_186:\n      dup1\n      0x1f\n      add\n      0x20\n      dup1\n      swap2\n      div\n      mul\n      0x20\n      add\n      mload(0x40)\n      swap1\n      dup2\n      add\n      0x40\n      mstore\n      dup1\n      swap3\n      swap2\n      swap1\n      dup2\n      dup2\n      mstore\n      0x20\n      add\n      dup3\n      dup1\n      sload\n      tag_187\n      swap1\n      tag_108\n      jump\t// in\n    tag_187:\n      dup1\n      iszero\n      tag_188\n      jumpi\n      dup1\n      0x1f\n      lt\n      tag_189\n      jumpi\n      0x0100\n      dup1\n      dup4\n      sload\n      div\n      mul\n      dup4\n      mstore\n      swap2\n      0x20\n      add\n      swap2\n      jump(tag_188)\n    tag_189:\n      dup3\n      add\n      swap2\n      swap1\n      0x00\n      mstore\n      keccak256(0x00, 0x20)\n      swap1\n    tag_190:\n      dup2\n      sload\n      dup2\n      mstore\n      swap1\n      0x01\n      add\n      swap1\n      0x20\n      add\n      dup1\n      dup4\n      gt\n      tag_190\n      jumpi\n      dup3\n      swap1\n      sub\n      0x1f\n      and\n      dup3\n      add\n      swap2\n    tag_188:\n      pop\n      pop\n      pop\n      pop\n      pop\n      dup2\n      mstore\n      0x20\n      add\n      0x02\n      dup3\n      add\n      dup1\n      sload\n      tag_191\n      swap1\n      tag_108\n      jump\t// in\n    tag_191:\n      dup1\n      0x1f\n      add\n      0x20\n      dup1\n      swap2\n      div\n      mul\n      0x20\n      add\n      mload(0x40)\n      swap1\n      dup2\n      add\n      0x40\n      mstore\n      dup1\n      swap3\n      swap2\n      swap1\n      dup2\n      dup2\n      mstore\n      0x20\n      add\n      dup3\n      dup1\n      sload\n      tag_192\n      swap1\n      tag_108\n      jump\t// in\n    tag_192:\n      dup1\n      iszero\n      tag_193\n      jumpi\n      dup1\n      0x1f\n      lt\n      tag_194\n      jumpi\n      0x0100\n      dup1\n      dup4\n      sload\n      div\n      mul\n      dup4\n      mstore\n      swap2\n      0x20\n      add\n      swap2\n      jump(tag_193)\n    tag_194:\n      dup3\n      add\n      swap2\n      swap1\n      0x00\n      mstore\n      keccak256(0x00, 0x20)\n      swap1\n    tag_195:\n      dup2\n      sload\n      dup2\n      mstore\n      swap1\n      0x01\n      add\n      swap1\n      0x20\n      add\n      dup1\n      dup4\n      gt\n      tag_195\n      jumpi\n      dup3\n      swap1\n      sub\n      0x1f\n      and\n      dup3\n      add\n      swap2\n    tag_193:\n      pop\n      pop\n      pop\n      pop\n      pop\n      dup2\n      mstore\n      0x20\n      add\n      0x03\n      dup3\n      add\n      dup1\n      sload\n      tag_196\n      swap1\n      tag_108\n      jump\t// in\n    tag_196:\n      dup1\n      0x1f\n      add\n      0x20\n      dup1\n      swap2\n      div\n      mul\n      0x20\n      add\n      mload(0x40)\n      swap1\n      dup2\n      add\n      0x40\n      mstore\n      dup1\n      swap3\n      swap2\n      swap1\n      dup2\n      dup2\n      mstore\n      0x20\n      add\n      dup3\n      dup1\n      sload\n      tag_197\n      swap1\n      tag_108\n      jump\t// in\n    tag_197:\n      dup1\n      iszero\n      tag_198\n      jumpi\n      dup1\n      0x1f\n      lt\n      tag_199\n      jumpi\n      0x0100\n      dup1\n      dup4\n      sload\n      div\n      mul\n      dup4\n      mstore\n      swap2\n      0x20\n      add\n      swap2\n      jump(tag_198)\n    tag_199:\n      dup3\n      add\n      swap2\n      swap1\n      0x00\n      mstore\n      keccak256(0x00, 0x20)\n      swap1\n    tag_200:\n      dup2\n      sload\n      dup2\n      mstore\n      swap1\n      0x01\n      add\n      swap1\n      0x20\n      add\n      dup1\n      dup4\n      gt\n      tag_200\n      jumpi\n      dup3\n      swap1\n      sub\n      0x1f\n      and\n      dup3\n      add\n      swap2\n    tag_198:\n      pop\n      pop\n      pop\n      pop\n      pop\n      dup2\n      mstore\n      0x20\n      add\n      0x04\n      dup3\n      add\n      dup1\n      sload\n      tag_201\n      swap1\n      tag_108\n      jump\t// in\n    tag_201:\n      dup1\n      0x1f\n      add\n      0x20\n      dup1\n      swap2\n      div\n      mul\n      0x20\n      add\n      mload(0x40)\n      swap1\n      dup2\n      add\n      0x40\n      mstore\n      dup1\n      swap3\n      swap2\n      swap1\n      dup2\n      dup2\n      mstore\n      0x20\n      add\n      dup3\n      dup1\n      sload\n      tag_202\n      swap1\n      tag_108\n      jump\t// in\n    tag_202:\n      dup1\n      iszero\n      tag_203\n      jumpi\n      dup1\n      0x1f\n      lt\n      tag_204\n      jumpi\n      0x0100\n      dup1\n      dup4\n      sload\n      div\n      mul\n      dup4\n      mstore\n      swap2\n      0x20\n      add\n      swap2\n      jump(tag_203)\n    tag_204:\n      dup3\n      add\n      swap2\n      swap1\n      0x00\n      mstore\n      keccak256(0x00, 0x20)\n      swap1\n    tag_205:\n      dup2\n      sload\n      dup2\n      mstore\n      swap1\n      0x01\n      add\n      swap1\n      0x20\n      add\n      dup1\n      dup4\n      gt\n      tag_205\n      jumpi\n      dup3\n      swap1\n      sub\n      0x1f\n      and\n      dup3\n      add\n      swap2\n    tag_203:\n      pop\n      pop\n      pop\n      pop\n      pop\n      dup2\n      mstore\n      0x20\n      add\n      0x05\n      dup3\n      add\n      dup1\n      sload\n      tag_206\n      swap1\n      tag_108\n      jump\t// in\n    tag_206:\n      dup1\n      0x1f\n      add\n      0x20\n      dup1\n      swap2\n      div\n      mul\n      0x20\n      add\n      mload(0x40)\n      swap1\n      dup2\n      add\n      0x40\n      mstore\n      dup1\n      swap3\n      swap2\n      swap1\n      dup2\n      dup2\n      mstore\n      0x20\n      add\n      dup3\n      dup1\n      sload\n      tag_207\n      swap1\n      tag_108\n      jump\t// in\n    tag_207:\n      dup1\n      iszero\n      tag_208\n      jumpi\n      dup1\n      0x1f\n      lt\n      tag_209\n      jumpi\n      0x0100\n      dup1\n      dup4\n      sload\n      div\n      mul\n      dup4\n      mstore\n      swap2\n      0x20\n      add\n      swap2\n      jump(tag_208)\n    tag_209:\n      dup3\n      add\n      swap2\n      swap1\n      0x00\n      mstore\n      keccak256(0x00, 0x20)\n      swap1\n    tag_210:\n      dup2\n      sload\n      dup2\n      mstore\n      swap1\n      0x01\n      add\n      swap1\n      0x20\n      add\n      dup1\n      dup4\n      gt\n      tag_210\n      jumpi\n      dup3\n      swap1\n      sub\n      0x1f\n      and\n      dup3\n      add\n      swap2\n    tag_208:\n      pop\n      pop\n      pop\n      pop\n      pop\n      dup2\n      mstore\n      0x20\n      add\n      0x06\n      dup3\n      add\n      sload\n      dup2\n      mstore\n      pop\n      pop\n        /* \"contracts/TransactionDetailContract28April.sol\":2483:2489  result */\n      dup3\n        /* \"contracts/TransactionDetailContract28April.sol\":2494:2495  1 */\n      0x01\n        /* \"contracts/TransactionDetailContract28April.sol\":2490:2491  i */\n      dup4\n        /* \"contracts/TransactionDetailContract28April.sol\":2490:2495  i - 1 */\n      tag_211\n      swap2\n      swap1\n      tag_212\n      jump\t// in\n    tag_211:\n        /* \"contracts/TransactionDetailContract28April.sol\":2483:2496  result[i - 1] */\n      dup2\n      mload\n      dup2\n      lt\n      tag_213\n      jumpi\n      tag_214\n      tag_47\n      jump\t// in\n    tag_214:\n    tag_213:\n      0x20\n      mul\n      0x20\n      add\n      add\n        /* \"contracts/TransactionDetailContract28April.sol\":2483:2520  result[i - 1] = transactionDetails[i] */\n      dup2\n      swap1\n      mstore\n      pop\n        /* \"contracts/TransactionDetailContract28April.sol\":2464:2467  i++ */\n      dup1\n      dup1\n      tag_215\n      swap1\n      tag_44\n      jump\t// in\n    tag_215:\n      swap2\n      pop\n      pop\n        /* \"contracts/TransactionDetailContract28April.sol\":2418:2531  for (uint i = 1; i <= transactionDetailCount; i++) {... */\n      jump(tag_178)\n    tag_179:\n      pop\n        /* \"contracts/TransactionDetailContract28April.sol\":2547:2553  result */\n      dup1\n        /* \"contracts/TransactionDetailContract28April.sol\":2540:2553  return result */\n      swap2\n      pop\n      pop\n        /* \"contracts/TransactionDetailContract28April.sol\":2181:2560  function getAllTransactionDetail()... */\n      swap1\n      jump\t// out\n        /* \"contracts/TransactionDetailContract28April.sol\":639:673  uint public transactionDetailCount */\n    tag_28:\n      sload(0x01)\n      dup2\n      jump\t// out\n    tag_100:\n      mload(0x40)\n      dup1\n      0xe0\n      add\n      0x40\n      mstore\n      dup1\n      0x60\n      dup2\n      mstore\n      0x20\n      add\n      0x60\n      dup2\n      mstore\n      0x20\n      add\n      0x60\n      dup2\n      mstore\n      0x20\n      add\n      0x60\n      dup2\n      mstore\n      0x20\n      add\n      0x60\n      dup2\n      mstore\n      0x20\n      add\n      0x60\n      dup2\n      mstore\n      0x20\n      add\n      0x00\n      dup2\n      mstore\n      pop\n      swap1\n      jump\t// out\n        /* \"#utility.yul\":7:82   */\n    tag_216:\n        /* \"#utility.yul\":40:46   */\n      0x00\n        /* \"#utility.yul\":73:75   */\n      0x40\n        /* \"#utility.yul\":67:76   */\n      mload\n        /* \"#utility.yul\":57:76   */\n      swap1\n      pop\n        /* \"#utility.yul\":7:82   */\n      swap1\n      jump\t// out\n        /* \"#utility.yul\":88:205   */\n    tag_217:\n        /* \"#utility.yul\":197:198   */\n      0x00\n        /* \"#utility.yul\":194:195   */\n      dup1\n        /* \"#utility.yul\":187:199   */\n      revert\n        /* \"#utility.yul\":211:328   */\n    tag_218:\n        /* \"#utility.yul\":320:321   */\n      0x00\n        /* \"#utility.yul\":317:318   */\n      dup1\n        /* \"#utility.yul\":310:322   */\n      revert\n        /* \"#utility.yul\":334:451   */\n    tag_219:\n        /* \"#utility.yul\":443:444   */\n      0x00\n        /* \"#utility.yul\":440:441   */\n      dup1\n        /* \"#utility.yul\":433:445   */\n      revert\n        /* \"#utility.yul\":457:559   */\n    tag_220:\n        /* \"#utility.yul\":498:504   */\n      0x00\n        /* \"#utility.yul\":549:551   */\n      0x1f\n        /* \"#utility.yul\":545:552   */\n      not\n        /* \"#utility.yul\":540:542   */\n      0x1f\n        /* \"#utility.yul\":533:538   */\n      dup4\n        /* \"#utility.yul\":529:543   */\n      add\n        /* \"#utility.yul\":525:553   */\n      and\n        /* \"#utility.yul\":515:553   */\n      swap1\n      pop\n        /* \"#utility.yul\":457:559   */\n      swap2\n      swap1\n      pop\n      jump\t// out\n        /* \"#utility.yul\":565:745   */\n    tag_96:\n        /* \"#utility.yul\":613:690   */\n      0x4e487b7100000000000000000000000000000000000000000000000000000000\n        /* \"#utility.yul\":610:611   */\n      0x00\n        /* \"#utility.yul\":603:691   */\n      mstore\n        /* \"#utility.yul\":710:714   */\n      0x41\n        /* \"#utility.yul\":707:708   */\n      0x04\n        /* \"#utility.yul\":700:715   */\n      mstore\n        /* \"#utility.yul\":734:738   */\n      0x24\n        /* \"#utility.yul\":731:732   */\n      0x00\n        /* \"#utility.yul\":724:739   */\n      revert\n        /* \"#utility.yul\":751:1032   */\n    tag_221:\n        /* \"#utility.yul\":834:861   */\n      tag_283\n        /* \"#utility.yul\":856:860   */\n      dup3\n        /* \"#utility.yul\":834:861   */\n      tag_220\n      jump\t// in\n    tag_283:\n        /* \"#utility.yul\":826:832   */\n      dup2\n        /* \"#utility.yul\":822:862   */\n      add\n        /* \"#utility.yul\":964:970   */\n      dup2\n        /* \"#utility.yul\":952:962   */\n      dup2\n        /* \"#utility.yul\":949:971   */\n      lt\n        /* \"#utility.yul\":928:946   */\n      0xffffffffffffffff\n        /* \"#utility.yul\":916:926   */\n      dup3\n        /* \"#utility.yul\":913:947   */\n      gt\n        /* \"#utility.yul\":910:972   */\n      or\n        /* \"#utility.yul\":907:995   */\n      iszero\n      tag_284\n      jumpi\n        /* \"#utility.yul\":975:993   */\n      tag_285\n      tag_96\n      jump\t// in\n    tag_285:\n        /* \"#utility.yul\":907:995   */\n    tag_284:\n        /* \"#utility.yul\":1015:1025   */\n      dup1\n        /* \"#utility.yul\":1011:1013   */\n      0x40\n        /* \"#utility.yul\":1004:1026   */\n      mstore\n        /* \"#utility.yul\":794:1032   */\n      pop\n        /* \"#utility.yul\":751:1032   */\n      pop\n      pop\n      jump\t// out\n        /* \"#utility.yul\":1038:1167   */\n    tag_222:\n        /* \"#utility.yul\":1072:1078   */\n      0x00\n        /* \"#utility.yul\":1099:1119   */\n      tag_287\n      tag_216\n      jump\t// in\n    tag_287:\n        /* \"#utility.yul\":1089:1119   */\n      swap1\n      pop\n        /* \"#utility.yul\":1128:1161   */\n      tag_288\n        /* \"#utility.yul\":1156:1160   */\n      dup3\n        /* \"#utility.yul\":1148:1154   */\n      dup3\n        /* \"#utility.yul\":1128:1161   */\n      tag_221\n      jump\t// in\n    tag_288:\n        /* \"#utility.yul\":1038:1167   */\n      swap2\n      swap1\n      pop\n      jump\t// out\n        /* \"#utility.yul\":1173:1494   */\n    tag_223:\n        /* \"#utility.yul\":1260:1264   */\n      0x00\n        /* \"#utility.yul\":1350:1368   */\n      0xffffffffffffffff\n        /* \"#utility.yul\":1342:1348   */\n      dup3\n        /* \"#utility.yul\":1339:1369   */\n      gt\n        /* \"#utility.yul\":1336:1392   */\n      iszero\n      tag_290\n      jumpi\n        /* \"#utility.yul\":1372:1390   */\n      tag_291\n      tag_96\n      jump\t// in\n    tag_291:\n        /* \"#utility.yul\":1336:1392   */\n    tag_290:\n        /* \"#utility.yul\":1422:1426   */\n      0x20\n        /* \"#utility.yul\":1414:1420   */\n      dup3\n        /* \"#utility.yul\":1410:1427   */\n      mul\n        /* \"#utility.yul\":1402:1427   */\n      swap1\n      pop\n        /* \"#utility.yul\":1482:1486   */\n      0x20\n        /* \"#utility.yul\":1476:1480   */\n      dup2\n        /* \"#utility.yul\":1472:1487   */\n      add\n        /* \"#utility.yul\":1464:1487   */\n      swap1\n      pop\n        /* \"#utility.yul\":1173:1494   */\n      swap2\n      swap1\n      pop\n      jump\t// out\n        /* \"#utility.yul\":1500:1617   */\n    tag_224:\n        /* \"#utility.yul\":1609:1610   */\n      0x00\n        /* \"#utility.yul\":1606:1607   */\n      dup1\n        /* \"#utility.yul\":1599:1611   */\n      revert\n        /* \"#utility.yul\":1623:1740   */\n    tag_225:\n        /* \"#utility.yul\":1732:1733   */\n      0x00\n        /* \"#utility.yul\":1729:1730   */\n      dup1\n        /* \"#utility.yul\":1722:1734   */\n      revert\n        /* \"#utility.yul\":1746:2054   */\n    tag_226:\n        /* \"#utility.yul\":1808:1812   */\n      0x00\n        /* \"#utility.yul\":1898:1916   */\n      0xffffffffffffffff\n        /* \"#utility.yul\":1890:1896   */\n      dup3\n        /* \"#utility.yul\":1887:1917   */\n      gt\n        /* \"#utility.yul\":1884:1940   */\n      iszero\n      tag_295\n      jumpi\n        /* \"#utility.yul\":1920:1938   */\n      tag_296\n      tag_96\n      jump\t// in\n    tag_296:\n        /* \"#utility.yul\":1884:1940   */\n    tag_295:\n        /* \"#utility.yul\":1958:1987   */\n      tag_297\n        /* \"#utility.yul\":1980:1986   */\n      dup3\n        /* \"#utility.yul\":1958:1987   */\n      tag_220\n      jump\t// in\n    tag_297:\n        /* \"#utility.yul\":1950:1987   */\n      swap1\n      pop\n        /* \"#utility.yul\":2042:2046   */\n      0x20\n        /* \"#utility.yul\":2036:2040   */\n      dup2\n        /* \"#utility.yul\":2032:2047   */\n      add\n        /* \"#utility.yul\":2024:2047   */\n      swap1\n      pop\n        /* \"#utility.yul\":1746:2054   */\n      swap2\n      swap1\n      pop\n      jump\t// out\n        /* \"#utility.yul\":2060:2206   */\n    tag_227:\n        /* \"#utility.yul\":2157:2163   */\n      dup3\n        /* \"#utility.yul\":2152:2155   */\n      dup2\n        /* \"#utility.yul\":2147:2150   */\n      dup4\n        /* \"#utility.yul\":2134:2164   */\n      calldatacopy\n        /* \"#utility.yul\":2198:2199   */\n      0x00\n        /* \"#utility.yul\":2189:2195   */\n      dup4\n        /* \"#utility.yul\":2184:2187   */\n      dup4\n        /* \"#utility.yul\":2180:2196   */\n      add\n        /* \"#utility.yul\":2173:2200   */\n      mstore\n        /* \"#utility.yul\":2060:2206   */\n      pop\n      pop\n      pop\n      jump\t// out\n        /* \"#utility.yul\":2212:2637   */\n    tag_228:\n        /* \"#utility.yul\":2290:2295   */\n      0x00\n        /* \"#utility.yul\":2315:2381   */\n      tag_300\n        /* \"#utility.yul\":2331:2380   */\n      tag_301\n        /* \"#utility.yul\":2373:2379   */\n      dup5\n        /* \"#utility.yul\":2331:2380   */\n      tag_226\n      jump\t// in\n    tag_301:\n        /* \"#utility.yul\":2315:2381   */\n      tag_222\n      jump\t// in\n    tag_300:\n        /* \"#utility.yul\":2306:2381   */\n      swap1\n      pop\n        /* \"#utility.yul\":2404:2410   */\n      dup3\n        /* \"#utility.yul\":2397:2402   */\n      dup2\n        /* \"#utility.yul\":2390:2411   */\n      mstore\n        /* \"#utility.yul\":2442:2446   */\n      0x20\n        /* \"#utility.yul\":2435:2440   */\n      dup2\n        /* \"#utility.yul\":2431:2447   */\n      add\n        /* \"#utility.yul\":2480:2483   */\n      dup5\n        /* \"#utility.yul\":2471:2477   */\n      dup5\n        /* \"#utility.yul\":2466:2469   */\n      dup5\n        /* \"#utility.yul\":2462:2478   */\n      add\n        /* \"#utility.yul\":2459:2484   */\n      gt\n        /* \"#utility.yul\":2456:2568   */\n      iszero\n      tag_302\n      jumpi\n        /* \"#utility.yul\":2487:2566   */\n      tag_303\n      tag_225\n      jump\t// in\n    tag_303:\n        /* \"#utility.yul\":2456:2568   */\n    tag_302:\n        /* \"#utility.yul\":2577:2631   */\n      tag_304\n        /* \"#utility.yul\":2624:2630   */\n      dup5\n        /* \"#utility.yul\":2619:2622   */\n      dup3\n        /* \"#utility.yul\":2614:2617   */\n      dup6\n        /* \"#utility.yul\":2577:2631   */\n      tag_227\n      jump\t// in\n    tag_304:\n        /* \"#utility.yul\":2296:2637   */\n      pop\n        /* \"#utility.yul\":2212:2637   */\n      swap4\n      swap3\n      pop\n      pop\n      pop\n      jump\t// out\n        /* \"#utility.yul\":2657:2997   */\n    tag_229:\n        /* \"#utility.yul\":2713:2718   */\n      0x00\n        /* \"#utility.yul\":2762:2765   */\n      dup3\n        /* \"#utility.yul\":2755:2759   */\n      0x1f\n        /* \"#utility.yul\":2747:2753   */\n      dup4\n        /* \"#utility.yul\":2743:2760   */\n      add\n        /* \"#utility.yul\":2739:2766   */\n      slt\n        /* \"#utility.yul\":2729:2851   */\n      tag_306\n      jumpi\n        /* \"#utility.yul\":2770:2849   */\n      tag_307\n      tag_219\n      jump\t// in\n    tag_307:\n        /* \"#utility.yul\":2729:2851   */\n    tag_306:\n        /* \"#utility.yul\":2887:2893   */\n      dup2\n        /* \"#utility.yul\":2874:2894   */\n      calldataload\n        /* \"#utility.yul\":2912:2991   */\n      tag_308\n        /* \"#utility.yul\":2987:2990   */\n      dup5\n        /* \"#utility.yul\":2979:2985   */\n      dup3\n        /* \"#utility.yul\":2972:2976   */\n      0x20\n        /* \"#utility.yul\":2964:2970   */\n      dup7\n        /* \"#utility.yul\":2960:2977   */\n      add\n        /* \"#utility.yul\":2912:2991   */\n      tag_228\n      jump\t// in\n    tag_308:\n        /* \"#utility.yul\":2903:2991   */\n      swap2\n      pop\n        /* \"#utility.yul\":2719:2997   */\n      pop\n        /* \"#utility.yul\":2657:2997   */\n      swap3\n      swap2\n      pop\n      pop\n      jump\t// out\n        /* \"#utility.yul\":3019:3964   */\n    tag_230:\n        /* \"#utility.yul\":3125:3130   */\n      0x00\n        /* \"#utility.yul\":3150:3241   */\n      tag_310\n        /* \"#utility.yul\":3166:3240   */\n      tag_311\n        /* \"#utility.yul\":3233:3239   */\n      dup5\n        /* \"#utility.yul\":3166:3240   */\n      tag_223\n      jump\t// in\n    tag_311:\n        /* \"#utility.yul\":3150:3241   */\n      tag_222\n      jump\t// in\n    tag_310:\n        /* \"#utility.yul\":3141:3241   */\n      swap1\n      pop\n        /* \"#utility.yul\":3261:3266   */\n      dup1\n        /* \"#utility.yul\":3290:3296   */\n      dup4\n        /* \"#utility.yul\":3283:3288   */\n      dup3\n        /* \"#utility.yul\":3276:3297   */\n      mstore\n        /* \"#utility.yul\":3324:3328   */\n      0x20\n        /* \"#utility.yul\":3317:3322   */\n      dup3\n        /* \"#utility.yul\":3313:3329   */\n      add\n        /* \"#utility.yul\":3306:3329   */\n      swap1\n      pop\n        /* \"#utility.yul\":3377:3381   */\n      0x20\n        /* \"#utility.yul\":3369:3375   */\n      dup5\n        /* \"#utility.yul\":3365:3382   */\n      mul\n        /* \"#utility.yul\":3357:3363   */\n      dup4\n        /* \"#utility.yul\":3353:3383   */\n      add\n        /* \"#utility.yul\":3406:3409   */\n      dup6\n        /* \"#utility.yul\":3398:3404   */\n      dup2\n        /* \"#utility.yul\":3395:3410   */\n      gt\n        /* \"#utility.yul\":3392:3514   */\n      iszero\n      tag_312\n      jumpi\n        /* \"#utility.yul\":3425:3504   */\n      tag_313\n      tag_224\n      jump\t// in\n    tag_313:\n        /* \"#utility.yul\":3392:3514   */\n    tag_312:\n        /* \"#utility.yul\":3540:3546   */\n      dup4\n        /* \"#utility.yul\":3523:3958   */\n    tag_314:\n        /* \"#utility.yul\":3557:3563   */\n      dup2\n        /* \"#utility.yul\":3552:3555   */\n      dup2\n        /* \"#utility.yul\":3549:3564   */\n      lt\n        /* \"#utility.yul\":3523:3958   */\n      iszero\n      tag_316\n      jumpi\n        /* \"#utility.yul\":3646:3649   */\n      dup1\n        /* \"#utility.yul\":3633:3650   */\n      calldataload\n        /* \"#utility.yul\":3682:3700   */\n      0xffffffffffffffff\n        /* \"#utility.yul\":3669:3680   */\n      dup2\n        /* \"#utility.yul\":3666:3701   */\n      gt\n        /* \"#utility.yul\":3663:3785   */\n      iszero\n      tag_317\n      jumpi\n        /* \"#utility.yul\":3704:3783   */\n      tag_318\n      tag_219\n      jump\t// in\n    tag_318:\n        /* \"#utility.yul\":3663:3785   */\n    tag_317:\n        /* \"#utility.yul\":3828:3839   */\n      dup1\n        /* \"#utility.yul\":3820:3826   */\n      dup7\n        /* \"#utility.yul\":3816:3840   */\n      add\n        /* \"#utility.yul\":3866:3913   */\n      tag_319\n        /* \"#utility.yul\":3909:3912   */\n      dup10\n        /* \"#utility.yul\":3897:3907   */\n      dup3\n        /* \"#utility.yul\":3866:3913   */\n      tag_229\n      jump\t// in\n    tag_319:\n        /* \"#utility.yul\":3861:3864   */\n      dup6\n        /* \"#utility.yul\":3854:3914   */\n      mstore\n        /* \"#utility.yul\":3943:3947   */\n      0x20\n        /* \"#utility.yul\":3938:3941   */\n      dup6\n        /* \"#utility.yul\":3934:3948   */\n      add\n        /* \"#utility.yul\":3927:3948   */\n      swap5\n      pop\n        /* \"#utility.yul\":3599:3958   */\n      pop\n      pop\n        /* \"#utility.yul\":3583:3587   */\n      0x20\n        /* \"#utility.yul\":3578:3581   */\n      dup2\n        /* \"#utility.yul\":3574:3588   */\n      add\n        /* \"#utility.yul\":3567:3588   */\n      swap1\n      pop\n        /* \"#utility.yul\":3523:3958   */\n      jump(tag_314)\n    tag_316:\n        /* \"#utility.yul\":3527:3548   */\n      pop\n        /* \"#utility.yul\":3131:3964   */\n      pop\n      pop\n        /* \"#utility.yul\":3019:3964   */\n      swap4\n      swap3\n      pop\n      pop\n      pop\n      jump\t// out\n        /* \"#utility.yul\":3986:4376   */\n    tag_231:\n        /* \"#utility.yul\":4067:4072   */\n      0x00\n        /* \"#utility.yul\":4116:4119   */\n      dup3\n        /* \"#utility.yul\":4109:4113   */\n      0x1f\n        /* \"#utility.yul\":4101:4107   */\n      dup4\n        /* \"#utility.yul\":4097:4114   */\n      add\n        /* \"#utility.yul\":4093:4120   */\n      slt\n        /* \"#utility.yul\":4083:4205   */\n      tag_321\n      jumpi\n        /* \"#utility.yul\":4124:4203   */\n      tag_322\n      tag_219\n      jump\t// in\n    tag_322:\n        /* \"#utility.yul\":4083:4205   */\n    tag_321:\n        /* \"#utility.yul\":4241:4247   */\n      dup2\n        /* \"#utility.yul\":4228:4248   */\n      calldataload\n        /* \"#utility.yul\":4266:4370   */\n      tag_323\n        /* \"#utility.yul\":4366:4369   */\n      dup5\n        /* \"#utility.yul\":4358:4364   */\n      dup3\n        /* \"#utility.yul\":4351:4355   */\n      0x20\n        /* \"#utility.yul\":4343:4349   */\n      dup7\n        /* \"#utility.yul\":4339:4356   */\n      add\n        /* \"#utility.yul\":4266:4370   */\n      tag_230\n      jump\t// in\n    tag_323:\n        /* \"#utility.yul\":4257:4370   */\n      swap2\n      pop\n        /* \"#utility.yul\":4073:4376   */\n      pop\n        /* \"#utility.yul\":3986:4376   */\n      swap3\n      swap2\n      pop\n      pop\n      jump\t// out\n        /* \"#utility.yul\":4382:4693   */\n    tag_232:\n        /* \"#utility.yul\":4459:4463   */\n      0x00\n        /* \"#utility.yul\":4549:4567   */\n      0xffffffffffffffff\n        /* \"#utility.yul\":4541:4547   */\n      dup3\n        /* \"#utility.yul\":4538:4568   */\n      gt\n        /* \"#utility.yul\":4535:4591   */\n      iszero\n      tag_325\n      jumpi\n        /* \"#utility.yul\":4571:4589   */\n      tag_326\n      tag_96\n      jump\t// in\n    tag_326:\n        /* \"#utility.yul\":4535:4591   */\n    tag_325:\n        /* \"#utility.yul\":4621:4625   */\n      0x20\n        /* \"#utility.yul\":4613:4619   */\n      dup3\n        /* \"#utility.yul\":4609:4626   */\n      mul\n        /* \"#utility.yul\":4601:4626   */\n      swap1\n      pop\n        /* \"#utility.yul\":4681:4685   */\n      0x20\n        /* \"#utility.yul\":4675:4679   */\n      dup2\n        /* \"#utility.yul\":4671:4686   */\n      add\n        /* \"#utility.yul\":4663:4686   */\n      swap1\n      pop\n        /* \"#utility.yul\":4382:4693   */\n      swap2\n      swap1\n      pop\n      jump\t// out\n        /* \"#utility.yul\":4699:4776   */\n    tag_233:\n        /* \"#utility.yul\":4736:4743   */\n      0x00\n        /* \"#utility.yul\":4765:4770   */\n      dup2\n        /* \"#utility.yul\":4754:4770   */\n      swap1\n      pop\n        /* \"#utility.yul\":4699:4776   */\n      swap2\n      swap1\n      pop\n      jump\t// out\n        /* \"#utility.yul\":4782:4904   */\n    tag_234:\n        /* \"#utility.yul\":4855:4879   */\n      tag_329\n        /* \"#utility.yul\":4873:4878   */\n      dup2\n        /* \"#utility.yul\":4855:4879   */\n      tag_233\n      jump\t// in\n    tag_329:\n        /* \"#utility.yul\":4848:4853   */\n      dup2\n        /* \"#utility.yul\":4845:4880   */\n      eq\n        /* \"#utility.yul\":4835:4898   */\n      tag_330\n      jumpi\n        /* \"#utility.yul\":4894:4895   */\n      0x00\n        /* \"#utility.yul\":4891:4892   */\n      dup1\n        /* \"#utility.yul\":4884:4896   */\n      revert\n        /* \"#utility.yul\":4835:4898   */\n    tag_330:\n        /* \"#utility.yul\":4782:4904   */\n      pop\n      jump\t// out\n        /* \"#utility.yul\":4910:5049   */\n    tag_235:\n        /* \"#utility.yul\":4956:4961   */\n      0x00\n        /* \"#utility.yul\":4994:5000   */\n      dup2\n        /* \"#utility.yul\":4981:5001   */\n      calldataload\n        /* \"#utility.yul\":4972:5001   */\n      swap1\n      pop\n        /* \"#utility.yul\":5010:5043   */\n      tag_332\n        /* \"#utility.yul\":5037:5042   */\n      dup2\n        /* \"#utility.yul\":5010:5043   */\n      tag_234\n      jump\t// in\n    tag_332:\n        /* \"#utility.yul\":4910:5049   */\n      swap3\n      swap2\n      pop\n      pop\n      jump\t// out\n        /* \"#utility.yul\":5072:5782   */\n    tag_236:\n        /* \"#utility.yul\":5168:5173   */\n      0x00\n        /* \"#utility.yul\":5193:5274   */\n      tag_334\n        /* \"#utility.yul\":5209:5273   */\n      tag_335\n        /* \"#utility.yul\":5266:5272   */\n      dup5\n        /* \"#utility.yul\":5209:5273   */\n      tag_232\n      jump\t// in\n    tag_335:\n        /* \"#utility.yul\":5193:5274   */\n      tag_222\n      jump\t// in\n    tag_334:\n        /* \"#utility.yul\":5184:5274   */\n      swap1\n      pop\n        /* \"#utility.yul\":5294:5299   */\n      dup1\n        /* \"#utility.yul\":5323:5329   */\n      dup4\n        /* \"#utility.yul\":5316:5321   */\n      dup3\n        /* \"#utility.yul\":5309:5330   */\n      mstore\n        /* \"#utility.yul\":5357:5361   */\n      0x20\n        /* \"#utility.yul\":5350:5355   */\n      dup3\n        /* \"#utility.yul\":5346:5362   */\n      add\n        /* \"#utility.yul\":5339:5362   */\n      swap1\n      pop\n        /* \"#utility.yul\":5410:5414   */\n      0x20\n        /* \"#utility.yul\":5402:5408   */\n      dup5\n        /* \"#utility.yul\":5398:5415   */\n      mul\n        /* \"#utility.yul\":5390:5396   */\n      dup4\n        /* \"#utility.yul\":5386:5416   */\n      add\n        /* \"#utility.yul\":5439:5442   */\n      dup6\n        /* \"#utility.yul\":5431:5437   */\n      dup2\n        /* \"#utility.yul\":5428:5443   */\n      gt\n        /* \"#utility.yul\":5425:5547   */\n      iszero\n      tag_336\n      jumpi\n        /* \"#utility.yul\":5458:5537   */\n      tag_337\n      tag_224\n      jump\t// in\n    tag_337:\n        /* \"#utility.yul\":5425:5547   */\n    tag_336:\n        /* \"#utility.yul\":5573:5579   */\n      dup4\n        /* \"#utility.yul\":5556:5776   */\n    tag_338:\n        /* \"#utility.yul\":5590:5596   */\n      dup2\n        /* \"#utility.yul\":5585:5588   */\n      dup2\n        /* \"#utility.yul\":5582:5597   */\n      lt\n        /* \"#utility.yul\":5556:5776   */\n      iszero\n      tag_340\n      jumpi\n        /* \"#utility.yul\":5665:5668   */\n      dup1\n        /* \"#utility.yul\":5694:5731   */\n      tag_341\n        /* \"#utility.yul\":5727:5730   */\n      dup9\n        /* \"#utility.yul\":5715:5725   */\n      dup3\n        /* \"#utility.yul\":5694:5731   */\n      tag_235\n      jump\t// in\n    tag_341:\n        /* \"#utility.yul\":5689:5692   */\n      dup5\n        /* \"#utility.yul\":5682:5732   */\n      mstore\n        /* \"#utility.yul\":5761:5765   */\n      0x20\n        /* \"#utility.yul\":5756:5759   */\n      dup5\n        /* \"#utility.yul\":5752:5766   */\n      add\n        /* \"#utility.yul\":5745:5766   */\n      swap4\n      pop\n        /* \"#utility.yul\":5632:5776   */\n      pop\n        /* \"#utility.yul\":5616:5620   */\n      0x20\n        /* \"#utility.yul\":5611:5614   */\n      dup2\n        /* \"#utility.yul\":5607:5621   */\n      add\n        /* \"#utility.yul\":5600:5621   */\n      swap1\n      pop\n        /* \"#utility.yul\":5556:5776   */\n      jump(tag_338)\n    tag_340:\n        /* \"#utility.yul\":5560:5581   */\n      pop\n        /* \"#utility.yul\":5174:5782   */\n      pop\n      pop\n        /* \"#utility.yul\":5072:5782   */\n      swap4\n      swap3\n      pop\n      pop\n      pop\n      jump\t// out\n        /* \"#utility.yul\":5805:6175   */\n    tag_237:\n        /* \"#utility.yul\":5876:5881   */\n      0x00\n        /* \"#utility.yul\":5925:5928   */\n      dup3\n        /* \"#utility.yul\":5918:5922   */\n      0x1f\n        /* \"#utility.yul\":5910:5916   */\n      dup4\n        /* \"#utility.yul\":5906:5923   */\n      add\n        /* \"#utility.yul\":5902:5929   */\n      slt\n        /* \"#utility.yul\":5892:6014   */\n      tag_343\n      jumpi\n        /* \"#utility.yul\":5933:6012   */\n      tag_344\n      tag_219\n      jump\t// in\n    tag_344:\n        /* \"#utility.yul\":5892:6014   */\n    tag_343:\n        /* \"#utility.yul\":6050:6056   */\n      dup2\n        /* \"#utility.yul\":6037:6057   */\n      calldataload\n        /* \"#utility.yul\":6075:6169   */\n      tag_345\n        /* \"#utility.yul\":6165:6168   */\n      dup5\n        /* \"#utility.yul\":6157:6163   */\n      dup3\n        /* \"#utility.yul\":6150:6154   */\n      0x20\n        /* \"#utility.yul\":6142:6148   */\n      dup7\n        /* \"#utility.yul\":6138:6155   */\n      add\n        /* \"#utility.yul\":6075:6169   */\n      tag_236\n      jump\t// in\n    tag_345:\n        /* \"#utility.yul\":6066:6169   */\n      swap2\n      pop\n        /* \"#utility.yul\":5882:6175   */\n      pop\n        /* \"#utility.yul\":5805:6175   */\n      swap3\n      swap2\n      pop\n      pop\n      jump\t// out\n        /* \"#utility.yul\":6181:8974   */\n    tag_10:\n        /* \"#utility.yul\":6529:6535   */\n      0x00\n        /* \"#utility.yul\":6537:6543   */\n      dup1\n        /* \"#utility.yul\":6545:6551   */\n      0x00\n        /* \"#utility.yul\":6553:6559   */\n      dup1\n        /* \"#utility.yul\":6561:6567   */\n      0x00\n        /* \"#utility.yul\":6569:6575   */\n      dup1\n        /* \"#utility.yul\":6577:6583   */\n      0x00\n        /* \"#utility.yul\":6626:6629   */\n      0xe0\n        /* \"#utility.yul\":6614:6623   */\n      dup9\n        /* \"#utility.yul\":6605:6612   */\n      dup11\n        /* \"#utility.yul\":6601:6624   */\n      sub\n        /* \"#utility.yul\":6597:6630   */\n      slt\n        /* \"#utility.yul\":6594:6714   */\n      iszero\n      tag_347\n      jumpi\n        /* \"#utility.yul\":6633:6712   */\n      tag_348\n      tag_217\n      jump\t// in\n    tag_348:\n        /* \"#utility.yul\":6594:6714   */\n    tag_347:\n        /* \"#utility.yul\":6781:6782   */\n      0x00\n        /* \"#utility.yul\":6770:6779   */\n      dup9\n        /* \"#utility.yul\":6766:6783   */\n      add\n        /* \"#utility.yul\":6753:6784   */\n      calldataload\n        /* \"#utility.yul\":6811:6829   */\n      0xffffffffffffffff\n        /* \"#utility.yul\":6803:6809   */\n      dup2\n        /* \"#utility.yul\":6800:6830   */\n      gt\n        /* \"#utility.yul\":6797:6914   */\n      iszero\n      tag_349\n      jumpi\n        /* \"#utility.yul\":6833:6912   */\n      tag_350\n      tag_218\n      jump\t// in\n    tag_350:\n        /* \"#utility.yul\":6797:6914   */\n    tag_349:\n        /* \"#utility.yul\":6938:7026   */\n      tag_351\n        /* \"#utility.yul\":7018:7025   */\n      dup11\n        /* \"#utility.yul\":7009:7015   */\n      dup3\n        /* \"#utility.yul\":6998:7007   */\n      dup12\n        /* \"#utility.yul\":6994:7016   */\n      add\n        /* \"#utility.yul\":6938:7026   */\n      tag_231\n      jump\t// in\n    tag_351:\n        /* \"#utility.yul\":6928:7026   */\n      swap8\n      pop\n        /* \"#utility.yul\":6724:7036   */\n      pop\n        /* \"#utility.yul\":7103:7105   */\n      0x20\n        /* \"#utility.yul\":7092:7101   */\n      dup9\n        /* \"#utility.yul\":7088:7106   */\n      add\n        /* \"#utility.yul\":7075:7107   */\n      calldataload\n        /* \"#utility.yul\":7134:7152   */\n      0xffffffffffffffff\n        /* \"#utility.yul\":7126:7132   */\n      dup2\n        /* \"#utility.yul\":7123:7153   */\n      gt\n        /* \"#utility.yul\":7120:7237   */\n      iszero\n      tag_352\n      jumpi\n        /* \"#utility.yul\":7156:7235   */\n      tag_353\n      tag_218\n      jump\t// in\n    tag_353:\n        /* \"#utility.yul\":7120:7237   */\n    tag_352:\n        /* \"#utility.yul\":7261:7349   */\n      tag_354\n        /* \"#utility.yul\":7341:7348   */\n      dup11\n        /* \"#utility.yul\":7332:7338   */\n      dup3\n        /* \"#utility.yul\":7321:7330   */\n      dup12\n        /* \"#utility.yul\":7317:7339   */\n      add\n        /* \"#utility.yul\":7261:7349   */\n      tag_231\n      jump\t// in\n    tag_354:\n        /* \"#utility.yul\":7251:7349   */\n      swap7\n      pop\n        /* \"#utility.yul\":7046:7359   */\n      pop\n        /* \"#utility.yul\":7426:7428   */\n      0x40\n        /* \"#utility.yul\":7415:7424   */\n      dup9\n        /* \"#utility.yul\":7411:7429   */\n      add\n        /* \"#utility.yul\":7398:7430   */\n      calldataload\n        /* \"#utility.yul\":7457:7475   */\n      0xffffffffffffffff\n        /* \"#utility.yul\":7449:7455   */\n      dup2\n        /* \"#utility.yul\":7446:7476   */\n      gt\n        /* \"#utility.yul\":7443:7560   */\n      iszero\n      tag_355\n      jumpi\n        /* \"#utility.yul\":7479:7558   */\n      tag_356\n      tag_218\n      jump\t// in\n    tag_356:\n        /* \"#utility.yul\":7443:7560   */\n    tag_355:\n        /* \"#utility.yul\":7584:7672   */\n      tag_357\n        /* \"#utility.yul\":7664:7671   */\n      dup11\n        /* \"#utility.yul\":7655:7661   */\n      dup3\n        /* \"#utility.yul\":7644:7653   */\n      dup12\n        /* \"#utility.yul\":7640:7662   */\n      add\n        /* \"#utility.yul\":7584:7672   */\n      tag_231\n      jump\t// in\n    tag_357:\n        /* \"#utility.yul\":7574:7672   */\n      swap6\n      pop\n        /* \"#utility.yul\":7369:7682   */\n      pop\n        /* \"#utility.yul\":7749:7751   */\n      0x60\n        /* \"#utility.yul\":7738:7747   */\n      dup9\n        /* \"#utility.yul\":7734:7752   */\n      add\n        /* \"#utility.yul\":7721:7753   */\n      calldataload\n        /* \"#utility.yul\":7780:7798   */\n      0xffffffffffffffff\n        /* \"#utility.yul\":7772:7778   */\n      dup2\n        /* \"#utility.yul\":7769:7799   */\n      gt\n        /* \"#utility.yul\":7766:7883   */\n      iszero\n      tag_358\n      jumpi\n        /* \"#utility.yul\":7802:7881   */\n      tag_359\n      tag_218\n      jump\t// in\n    tag_359:\n        /* \"#utility.yul\":7766:7883   */\n    tag_358:\n        /* \"#utility.yul\":7907:7995   */\n      tag_360\n        /* \"#utility.yul\":7987:7994   */\n      dup11\n        /* \"#utility.yul\":7978:7984   */\n      dup3\n        /* \"#utility.yul\":7967:7976   */\n      dup12\n        /* \"#utility.yul\":7963:7985   */\n      add\n        /* \"#utility.yul\":7907:7995   */\n      tag_231\n      jump\t// in\n    tag_360:\n        /* \"#utility.yul\":7897:7995   */\n      swap5\n      pop\n        /* \"#utility.yul\":7692:8005   */\n      pop\n        /* \"#utility.yul\":8072:8075   */\n      0x80\n        /* \"#utility.yul\":8061:8070   */\n      dup9\n        /* \"#utility.yul\":8057:8076   */\n      add\n        /* \"#utility.yul\":8044:8077   */\n      calldataload\n        /* \"#utility.yul\":8104:8122   */\n      0xffffffffffffffff\n        /* \"#utility.yul\":8096:8102   */\n      dup2\n        /* \"#utility.yul\":8093:8123   */\n      gt\n        /* \"#utility.yul\":8090:8207   */\n      iszero\n      tag_361\n      jumpi\n        /* \"#utility.yul\":8126:8205   */\n      tag_362\n      tag_218\n      jump\t// in\n    tag_362:\n        /* \"#utility.yul\":8090:8207   */\n    tag_361:\n        /* \"#utility.yul\":8231:8319   */\n      tag_363\n        /* \"#utility.yul\":8311:8318   */\n      dup11\n        /* \"#utility.yul\":8302:8308   */\n      dup3\n        /* \"#utility.yul\":8291:8300   */\n      dup12\n        /* \"#utility.yul\":8287:8309   */\n      add\n        /* \"#utility.yul\":8231:8319   */\n      tag_231\n      jump\t// in\n    tag_363:\n        /* \"#utility.yul\":8221:8319   */\n      swap4\n      pop\n        /* \"#utility.yul\":8015:8329   */\n      pop\n        /* \"#utility.yul\":8396:8399   */\n      0xa0\n        /* \"#utility.yul\":8385:8394   */\n      dup9\n        /* \"#utility.yul\":8381:8400   */\n      add\n        /* \"#utility.yul\":8368:8401   */\n      calldataload\n        /* \"#utility.yul\":8428:8446   */\n      0xffffffffffffffff\n        /* \"#utility.yul\":8420:8426   */\n      dup2\n        /* \"#utility.yul\":8417:8447   */\n      gt\n        /* \"#utility.yul\":8414:8531   */\n      iszero\n      tag_364\n      jumpi\n        /* \"#utility.yul\":8450:8529   */\n      tag_365\n      tag_218\n      jump\t// in\n    tag_365:\n        /* \"#utility.yul\":8414:8531   */\n    tag_364:\n        /* \"#utility.yul\":8555:8643   */\n      tag_366\n        /* \"#utility.yul\":8635:8642   */\n      dup11\n        /* \"#utility.yul\":8626:8632   */\n      dup3\n        /* \"#utility.yul\":8615:8624   */\n      dup12\n        /* \"#utility.yul\":8611:8633   */\n      add\n        /* \"#utility.yul\":8555:8643   */\n      tag_231\n      jump\t// in\n    tag_366:\n        /* \"#utility.yul\":8545:8643   */\n      swap3\n      pop\n        /* \"#utility.yul\":8339:8653   */\n      pop\n        /* \"#utility.yul\":8720:8723   */\n      0xc0\n        /* \"#utility.yul\":8709:8718   */\n      dup9\n        /* \"#utility.yul\":8705:8724   */\n      add\n        /* \"#utility.yul\":8692:8725   */\n      calldataload\n        /* \"#utility.yul\":8752:8770   */\n      0xffffffffffffffff\n        /* \"#utility.yul\":8744:8750   */\n      dup2\n        /* \"#utility.yul\":8741:8771   */\n      gt\n        /* \"#utility.yul\":8738:8855   */\n      iszero\n      tag_367\n      jumpi\n        /* \"#utility.yul\":8774:8853   */\n      tag_368\n      tag_218\n      jump\t// in\n    tag_368:\n        /* \"#utility.yul\":8738:8855   */\n    tag_367:\n        /* \"#utility.yul\":8879:8957   */\n      tag_369\n        /* \"#utility.yul\":8949:8956   */\n      dup11\n        /* \"#utility.yul\":8940:8946   */\n      dup3\n        /* \"#utility.yul\":8929:8938   */\n      dup12\n        /* \"#utility.yul\":8925:8947   */\n      add\n        /* \"#utility.yul\":8879:8957   */\n      tag_237\n      jump\t// in\n    tag_369:\n        /* \"#utility.yul\":8869:8957   */\n      swap2\n      pop\n        /* \"#utility.yul\":8663:8967   */\n      pop\n        /* \"#utility.yul\":6181:8974   */\n      swap3\n      swap6\n      swap9\n      swap2\n      swap5\n      swap8\n      pop\n      swap3\n      swap6\n      pop\n      jump\t// out\n        /* \"#utility.yul\":8980:9489   */\n    tag_14:\n        /* \"#utility.yul\":9049:9055   */\n      0x00\n        /* \"#utility.yul\":9098:9100   */\n      0x20\n        /* \"#utility.yul\":9086:9095   */\n      dup3\n        /* \"#utility.yul\":9077:9084   */\n      dup5\n        /* \"#utility.yul\":9073:9096   */\n      sub\n        /* \"#utility.yul\":9069:9101   */\n      slt\n        /* \"#utility.yul\":9066:9185   */\n      iszero\n      tag_371\n      jumpi\n        /* \"#utility.yul\":9104:9183   */\n      tag_372\n      tag_217\n      jump\t// in\n    tag_372:\n        /* \"#utility.yul\":9066:9185   */\n    tag_371:\n        /* \"#utility.yul\":9252:9253   */\n      0x00\n        /* \"#utility.yul\":9241:9250   */\n      dup3\n        /* \"#utility.yul\":9237:9254   */\n      add\n        /* \"#utility.yul\":9224:9255   */\n      calldataload\n        /* \"#utility.yul\":9282:9300   */\n      0xffffffffffffffff\n        /* \"#utility.yul\":9274:9280   */\n      dup2\n        /* \"#utility.yul\":9271:9301   */\n      gt\n        /* \"#utility.yul\":9268:9385   */\n      iszero\n      tag_373\n      jumpi\n        /* \"#utility.yul\":9304:9383   */\n      tag_374\n      tag_218\n      jump\t// in\n    tag_374:\n        /* \"#utility.yul\":9268:9385   */\n    tag_373:\n        /* \"#utility.yul\":9409:9472   */\n      tag_375\n        /* \"#utility.yul\":9464:9471   */\n      dup5\n        /* \"#utility.yul\":9455:9461   */\n      dup3\n        /* \"#utility.yul\":9444:9453   */\n      dup6\n        /* \"#utility.yul\":9440:9462   */\n      add\n        /* \"#utility.yul\":9409:9472   */\n      tag_229\n      jump\t// in\n    tag_375:\n        /* \"#utility.yul\":9399:9472   */\n      swap2\n      pop\n        /* \"#utility.yul\":9195:9482   */\n      pop\n        /* \"#utility.yul\":8980:9489   */\n      swap3\n      swap2\n      pop\n      pop\n      jump\t// out\n        /* \"#utility.yul\":9495:9642   */\n    tag_238:\n        /* \"#utility.yul\":9595:9601   */\n      0x00\n        /* \"#utility.yul\":9629:9634   */\n      dup2\n        /* \"#utility.yul\":9623:9635   */\n      mload\n        /* \"#utility.yul\":9613:9635   */\n      swap1\n      pop\n        /* \"#utility.yul\":9495:9642   */\n      swap2\n      swap1\n      pop\n      jump\t// out\n        /* \"#utility.yul\":9648:9865   */\n    tag_239:\n        /* \"#utility.yul\":9780:9791   */\n      0x00\n        /* \"#utility.yul\":9814:9820   */\n      dup3\n        /* \"#utility.yul\":9809:9812   */\n      dup3\n        /* \"#utility.yul\":9802:9821   */\n      mstore\n        /* \"#utility.yul\":9854:9858   */\n      0x20\n        /* \"#utility.yul\":9849:9852   */\n      dup3\n        /* \"#utility.yul\":9845:9859   */\n      add\n        /* \"#utility.yul\":9830:9859   */\n      swap1\n      pop\n        /* \"#utility.yul\":9648:9865   */\n      swap3\n      swap2\n      pop\n      pop\n      jump\t// out\n        /* \"#utility.yul\":9871:10036   */\n    tag_240:\n        /* \"#utility.yul\":9971:9975   */\n      0x00\n        /* \"#utility.yul\":9994:9997   */\n      dup2\n        /* \"#utility.yul\":9986:9997   */\n      swap1\n      pop\n        /* \"#utility.yul\":10024:10028   */\n      0x20\n        /* \"#utility.yul\":10019:10022   */\n      dup3\n        /* \"#utility.yul\":10015:10029   */\n      add\n        /* \"#utility.yul\":10007:10029   */\n      swap1\n      pop\n        /* \"#utility.yul\":9871:10036   */\n      swap2\n      swap1\n      pop\n      jump\t// out\n        /* \"#utility.yul\":10042:10141   */\n    tag_241:\n        /* \"#utility.yul\":10094:10100   */\n      0x00\n        /* \"#utility.yul\":10128:10133   */\n      dup2\n        /* \"#utility.yul\":10122:10134   */\n      mload\n        /* \"#utility.yul\":10112:10134   */\n      swap1\n      pop\n        /* \"#utility.yul\":10042:10141   */\n      swap2\n      swap1\n      pop\n      jump\t// out\n        /* \"#utility.yul\":10147:10306   */\n    tag_242:\n        /* \"#utility.yul\":10221:10232   */\n      0x00\n        /* \"#utility.yul\":10255:10261   */\n      dup3\n        /* \"#utility.yul\":10250:10253   */\n      dup3\n        /* \"#utility.yul\":10243:10262   */\n      mstore\n        /* \"#utility.yul\":10295:10299   */\n      0x20\n        /* \"#utility.yul\":10290:10293   */\n      dup3\n        /* \"#utility.yul\":10286:10300   */\n      add\n        /* \"#utility.yul\":10271:10300   */\n      swap1\n      pop\n        /* \"#utility.yul\":10147:10306   */\n      swap3\n      swap2\n      pop\n      pop\n      jump\t// out\n        /* \"#utility.yul\":10312:10558   */\n    tag_243:\n        /* \"#utility.yul\":10393:10394   */\n      0x00\n        /* \"#utility.yul\":10403:10516   */\n    tag_382:\n        /* \"#utility.yul\":10417:10423   */\n      dup4\n        /* \"#utility.yul\":10414:10415   */\n      dup2\n        /* \"#utility.yul\":10411:10424   */\n      lt\n        /* \"#utility.yul\":10403:10516   */\n      iszero\n      tag_384\n      jumpi\n        /* \"#utility.yul\":10502:10503   */\n      dup1\n        /* \"#utility.yul\":10497:10500   */\n      dup3\n        /* \"#utility.yul\":10493:10504   */\n      add\n        /* \"#utility.yul\":10487:10505   */\n      mload\n        /* \"#utility.yul\":10483:10484   */\n      dup2\n        /* \"#utility.yul\":10478:10481   */\n      dup5\n        /* \"#utility.yul\":10474:10485   */\n      add\n        /* \"#utility.yul\":10467:10506   */\n      mstore\n        /* \"#utility.yul\":10439:10441   */\n      0x20\n        /* \"#utility.yul\":10436:10437   */\n      dup2\n        /* \"#utility.yul\":10432:10442   */\n      add\n        /* \"#utility.yul\":10427:10442   */\n      swap1\n      pop\n        /* \"#utility.yul\":10403:10516   */\n      jump(tag_382)\n    tag_384:\n        /* \"#utility.yul\":10550:10551   */\n      0x00\n        /* \"#utility.yul\":10541:10547   */\n      dup5\n        /* \"#utility.yul\":10536:10539   */\n      dup5\n        /* \"#utility.yul\":10532:10548   */\n      add\n        /* \"#utility.yul\":10525:10552   */\n      mstore\n        /* \"#utility.yul\":10374:10558   */\n      pop\n        /* \"#utility.yul\":10312:10558   */\n      pop\n      pop\n      pop\n      jump\t// out\n        /* \"#utility.yul\":10564:10921   */\n    tag_244:\n        /* \"#utility.yul\":10642:10645   */\n      0x00\n        /* \"#utility.yul\":10670:10709   */\n      tag_386\n        /* \"#utility.yul\":10703:10708   */\n      dup3\n        /* \"#utility.yul\":10670:10709   */\n      tag_241\n      jump\t// in\n    tag_386:\n        /* \"#utility.yul\":10725:10786   */\n      tag_387\n        /* \"#utility.yul\":10779:10785   */\n      dup2\n        /* \"#utility.yul\":10774:10777   */\n      dup6\n        /* \"#utility.yul\":10725:10786   */\n      tag_242\n      jump\t// in\n    tag_387:\n        /* \"#utility.yul\":10718:10786   */\n      swap4\n      pop\n        /* \"#utility.yul\":10795:10860   */\n      tag_388\n        /* \"#utility.yul\":10853:10859   */\n      dup2\n        /* \"#utility.yul\":10848:10851   */\n      dup6\n        /* \"#utility.yul\":10841:10845   */\n      0x20\n        /* \"#utility.yul\":10834:10839   */\n      dup7\n        /* \"#utility.yul\":10830:10846   */\n      add\n        /* \"#utility.yul\":10795:10860   */\n      tag_243\n      jump\t// in\n    tag_388:\n        /* \"#utility.yul\":10885:10914   */\n      tag_389\n        /* \"#utility.yul\":10907:10913   */\n      dup2\n        /* \"#utility.yul\":10885:10914   */\n      tag_220\n      jump\t// in\n    tag_389:\n        /* \"#utility.yul\":10880:10883   */\n      dup5\n        /* \"#utility.yul\":10876:10915   */\n      add\n        /* \"#utility.yul\":10869:10915   */\n      swap2\n      pop\n        /* \"#utility.yul\":10646:10921   */\n      pop\n        /* \"#utility.yul\":10564:10921   */\n      swap3\n      swap2\n      pop\n      pop\n      jump\t// out\n        /* \"#utility.yul\":10927:11035   */\n    tag_245:\n        /* \"#utility.yul\":11004:11028   */\n      tag_391\n        /* \"#utility.yul\":11022:11027   */\n      dup2\n        /* \"#utility.yul\":11004:11028   */\n      tag_233\n      jump\t// in\n    tag_391:\n        /* \"#utility.yul\":10999:11002   */\n      dup3\n        /* \"#utility.yul\":10992:11029   */\n      mstore\n        /* \"#utility.yul\":10927:11035   */\n      pop\n      pop\n      jump\t// out\n        /* \"#utility.yul\":11153:13043   */\n    tag_246:\n        /* \"#utility.yul\":11278:11281   */\n      0x00\n        /* \"#utility.yul\":11314:11318   */\n      0xe0\n        /* \"#utility.yul\":11309:11312   */\n      dup4\n        /* \"#utility.yul\":11305:11319   */\n      add\n        /* \"#utility.yul\":11412:11416   */\n      0x00\n        /* \"#utility.yul\":11405:11410   */\n      dup4\n        /* \"#utility.yul\":11401:11417   */\n      add\n        /* \"#utility.yul\":11395:11418   */\n      mload\n        /* \"#utility.yul\":11465:11468   */\n      dup5\n        /* \"#utility.yul\":11459:11463   */\n      dup3\n        /* \"#utility.yul\":11455:11469   */\n      sub\n        /* \"#utility.yul\":11448:11452   */\n      0x00\n        /* \"#utility.yul\":11443:11446   */\n      dup7\n        /* \"#utility.yul\":11439:11453   */\n      add\n        /* \"#utility.yul\":11432:11470   */\n      mstore\n        /* \"#utility.yul\":11491:11564   */\n      tag_393\n        /* \"#utility.yul\":11559:11563   */\n      dup3\n        /* \"#utility.yul\":11545:11557   */\n      dup3\n        /* \"#utility.yul\":11491:11564   */\n      tag_244\n      jump\t// in\n    tag_393:\n        /* \"#utility.yul\":11483:11564   */\n      swap2\n      pop\n        /* \"#utility.yul\":11329:11575   */\n      pop\n        /* \"#utility.yul\":11664:11668   */\n      0x20\n        /* \"#utility.yul\":11657:11662   */\n      dup4\n        /* \"#utility.yul\":11653:11669   */\n      add\n        /* \"#utility.yul\":11647:11670   */\n      mload\n        /* \"#utility.yul\":11717:11720   */\n      dup5\n        /* \"#utility.yul\":11711:11715   */\n      dup3\n        /* \"#utility.yul\":11707:11721   */\n      sub\n        /* \"#utility.yul\":11700:11704   */\n      0x20\n        /* \"#utility.yul\":11695:11698   */\n      dup7\n        /* \"#utility.yul\":11691:11705   */\n      add\n        /* \"#utility.yul\":11684:11722   */\n      mstore\n        /* \"#utility.yul\":11743:11816   */\n      tag_394\n        /* \"#utility.yul\":11811:11815   */\n      dup3\n        /* \"#utility.yul\":11797:11809   */\n      dup3\n        /* \"#utility.yul\":11743:11816   */\n      tag_244\n      jump\t// in\n    tag_394:\n        /* \"#utility.yul\":11735:11816   */\n      swap2\n      pop\n        /* \"#utility.yul\":11585:11827   */\n      pop\n        /* \"#utility.yul\":11923:11927   */\n      0x40\n        /* \"#utility.yul\":11916:11921   */\n      dup4\n        /* \"#utility.yul\":11912:11928   */\n      add\n        /* \"#utility.yul\":11906:11929   */\n      mload\n        /* \"#utility.yul\":11976:11979   */\n      dup5\n        /* \"#utility.yul\":11970:11974   */\n      dup3\n        /* \"#utility.yul\":11966:11980   */\n      sub\n        /* \"#utility.yul\":11959:11963   */\n      0x40\n        /* \"#utility.yul\":11954:11957   */\n      dup7\n        /* \"#utility.yul\":11950:11964   */\n      add\n        /* \"#utility.yul\":11943:11981   */\n      mstore\n        /* \"#utility.yul\":12002:12075   */\n      tag_395\n        /* \"#utility.yul\":12070:12074   */\n      dup3\n        /* \"#utility.yul\":12056:12068   */\n      dup3\n        /* \"#utility.yul\":12002:12075   */\n      tag_244\n      jump\t// in\n    tag_395:\n        /* \"#utility.yul\":11994:12075   */\n      swap2\n      pop\n        /* \"#utility.yul\":11837:12086   */\n      pop\n        /* \"#utility.yul\":12178:12182   */\n      0x60\n        /* \"#utility.yul\":12171:12176   */\n      dup4\n        /* \"#utility.yul\":12167:12183   */\n      add\n        /* \"#utility.yul\":12161:12184   */\n      mload\n        /* \"#utility.yul\":12231:12234   */\n      dup5\n        /* \"#utility.yul\":12225:12229   */\n      dup3\n        /* \"#utility.yul\":12221:12235   */\n      sub\n        /* \"#utility.yul\":12214:12218   */\n      0x60\n        /* \"#utility.yul\":12209:12212   */\n      dup7\n        /* \"#utility.yul\":12205:12219   */\n      add\n        /* \"#utility.yul\":12198:12236   */\n      mstore\n        /* \"#utility.yul\":12257:12330   */\n      tag_396\n        /* \"#utility.yul\":12325:12329   */\n      dup3\n        /* \"#utility.yul\":12311:12323   */\n      dup3\n        /* \"#utility.yul\":12257:12330   */\n      tag_244\n      jump\t// in\n    tag_396:\n        /* \"#utility.yul\":12249:12330   */\n      swap2\n      pop\n        /* \"#utility.yul\":12096:12341   */\n      pop\n        /* \"#utility.yul\":12428:12432   */\n      0x80\n        /* \"#utility.yul\":12421:12426   */\n      dup4\n        /* \"#utility.yul\":12417:12433   */\n      add\n        /* \"#utility.yul\":12411:12434   */\n      mload\n        /* \"#utility.yul\":12481:12484   */\n      dup5\n        /* \"#utility.yul\":12475:12479   */\n      dup3\n        /* \"#utility.yul\":12471:12485   */\n      sub\n        /* \"#utility.yul\":12464:12468   */\n      0x80\n        /* \"#utility.yul\":12459:12462   */\n      dup7\n        /* \"#utility.yul\":12455:12469   */\n      add\n        /* \"#utility.yul\":12448:12486   */\n      mstore\n        /* \"#utility.yul\":12507:12580   */\n      tag_397\n        /* \"#utility.yul\":12575:12579   */\n      dup3\n        /* \"#utility.yul\":12561:12573   */\n      dup3\n        /* \"#utility.yul\":12507:12580   */\n      tag_244\n      jump\t// in\n    tag_397:\n        /* \"#utility.yul\":12499:12580   */\n      swap2\n      pop\n        /* \"#utility.yul\":12351:12591   */\n      pop\n        /* \"#utility.yul\":12674:12678   */\n      0xa0\n        /* \"#utility.yul\":12667:12672   */\n      dup4\n        /* \"#utility.yul\":12663:12679   */\n      add\n        /* \"#utility.yul\":12657:12680   */\n      mload\n        /* \"#utility.yul\":12727:12730   */\n      dup5\n        /* \"#utility.yul\":12721:12725   */\n      dup3\n        /* \"#utility.yul\":12717:12731   */\n      sub\n        /* \"#utility.yul\":12710:12714   */\n      0xa0\n        /* \"#utility.yul\":12705:12708   */\n      dup7\n        /* \"#utility.yul\":12701:12715   */\n      add\n        /* \"#utility.yul\":12694:12732   */\n      mstore\n        /* \"#utility.yul\":12753:12826   */\n      tag_398\n        /* \"#utility.yul\":12821:12825   */\n      dup3\n        /* \"#utility.yul\":12807:12819   */\n      dup3\n        /* \"#utility.yul\":12753:12826   */\n      tag_244\n      jump\t// in\n    tag_398:\n        /* \"#utility.yul\":12745:12826   */\n      swap2\n      pop\n        /* \"#utility.yul\":12601:12837   */\n      pop\n        /* \"#utility.yul\":12924:12928   */\n      0xc0\n        /* \"#utility.yul\":12917:12922   */\n      dup4\n        /* \"#utility.yul\":12913:12929   */\n      add\n        /* \"#utility.yul\":12907:12930   */\n      mload\n        /* \"#utility.yul\":12943:13006   */\n      tag_399\n        /* \"#utility.yul\":13000:13004   */\n      0xc0\n        /* \"#utility.yul\":12995:12998   */\n      dup7\n        /* \"#utility.yul\":12991:13005   */\n      add\n        /* \"#utility.yul\":12977:12989   */\n      dup3\n        /* \"#utility.yul\":12943:13006   */\n      tag_245\n      jump\t// in\n    tag_399:\n        /* \"#utility.yul\":12847:13016   */\n      pop\n        /* \"#utility.yul\":13033:13037   */\n      dup1\n        /* \"#utility.yul\":13026:13037   */\n      swap2\n      pop\n        /* \"#utility.yul\":11283:13043   */\n      pop\n        /* \"#utility.yul\":11153:13043   */\n      swap3\n      swap2\n      pop\n      pop\n      jump\t// out\n        /* \"#utility.yul\":13049:13337   */\n    tag_247:\n        /* \"#utility.yul\":13184:13194   */\n      0x00\n        /* \"#utility.yul\":13219:13331   */\n      tag_401\n        /* \"#utility.yul\":13327:13330   */\n      dup4\n        /* \"#utility.yul\":13319:13325   */\n      dup4\n        /* \"#utility.yul\":13219:13331   */\n      tag_246\n      jump\t// in\n    tag_401:\n        /* \"#utility.yul\":13205:13331   */\n      swap1\n      pop\n        /* \"#utility.yul\":13049:13337   */\n      swap3\n      swap2\n      pop\n      pop\n      jump\t// out\n        /* \"#utility.yul\":13343:13489   */\n    tag_248:\n        /* \"#utility.yul\":13446:13450   */\n      0x00\n        /* \"#utility.yul\":13478:13482   */\n      0x20\n        /* \"#utility.yul\":13473:13476   */\n      dup3\n        /* \"#utility.yul\":13469:13483   */\n      add\n        /* \"#utility.yul\":13461:13483   */\n      swap1\n      pop\n        /* \"#utility.yul\":13343:13489   */\n      swap2\n      swap1\n      pop\n      jump\t// out\n        /* \"#utility.yul\":13611:14786   */\n    tag_249:\n        /* \"#utility.yul\":13796:13799   */\n      0x00\n        /* \"#utility.yul\":13825:13912   */\n      tag_404\n        /* \"#utility.yul\":13906:13911   */\n      dup3\n        /* \"#utility.yul\":13825:13912   */\n      tag_238\n      jump\t// in\n    tag_404:\n        /* \"#utility.yul\":13928:14047   */\n      tag_405\n        /* \"#utility.yul\":14040:14046   */\n      dup2\n        /* \"#utility.yul\":14035:14038   */\n      dup6\n        /* \"#utility.yul\":13928:14047   */\n      tag_239\n      jump\t// in\n    tag_405:\n        /* \"#utility.yul\":13921:14047   */\n      swap4\n      pop\n        /* \"#utility.yul\":14073:14076   */\n      dup4\n        /* \"#utility.yul\":14118:14122   */\n      0x20\n        /* \"#utility.yul\":14110:14116   */\n      dup3\n        /* \"#utility.yul\":14106:14123   */\n      mul\n        /* \"#utility.yul\":14101:14104   */\n      dup6\n        /* \"#utility.yul\":14097:14124   */\n      add\n        /* \"#utility.yul\":14148:14237   */\n      tag_406\n        /* \"#utility.yul\":14231:14236   */\n      dup6\n        /* \"#utility.yul\":14148:14237   */\n      tag_240\n      jump\t// in\n    tag_406:\n        /* \"#utility.yul\":14260:14267   */\n      dup1\n        /* \"#utility.yul\":14291:14292   */\n      0x00\n        /* \"#utility.yul\":14276:14741   */\n    tag_407:\n        /* \"#utility.yul\":14301:14307   */\n      dup6\n        /* \"#utility.yul\":14298:14299   */\n      dup2\n        /* \"#utility.yul\":14295:14308   */\n      lt\n        /* \"#utility.yul\":14276:14741   */\n      iszero\n      tag_409\n      jumpi\n        /* \"#utility.yul\":14372:14381   */\n      dup5\n        /* \"#utility.yul\":14366:14370   */\n      dup5\n        /* \"#utility.yul\":14362:14382   */\n      sub\n        /* \"#utility.yul\":14357:14360   */\n      dup10\n        /* \"#utility.yul\":14350:14383   */\n      mstore\n        /* \"#utility.yul\":14423:14429   */\n      dup2\n        /* \"#utility.yul\":14417:14430   */\n      mload\n        /* \"#utility.yul\":14451:14581   */\n      tag_410\n        /* \"#utility.yul\":14576:14580   */\n      dup6\n        /* \"#utility.yul\":14561:14574   */\n      dup3\n        /* \"#utility.yul\":14451:14581   */\n      tag_247\n      jump\t// in\n    tag_410:\n        /* \"#utility.yul\":14443:14581   */\n      swap5\n      pop\n        /* \"#utility.yul\":14604:14697   */\n      tag_411\n        /* \"#utility.yul\":14690:14696   */\n      dup4\n        /* \"#utility.yul\":14604:14697   */\n      tag_248\n      jump\t// in\n    tag_411:\n        /* \"#utility.yul\":14594:14697   */\n      swap3\n      pop\n        /* \"#utility.yul\":14726:14730   */\n      0x20\n        /* \"#utility.yul\":14721:14724   */\n      dup11\n        /* \"#utility.yul\":14717:14731   */\n      add\n        /* \"#utility.yul\":14710:14731   */\n      swap10\n      pop\n        /* \"#utility.yul\":14336:14741   */\n      pop\n        /* \"#utility.yul\":14323:14324   */\n      0x01\n        /* \"#utility.yul\":14320:14321   */\n      dup2\n        /* \"#utility.yul\":14316:14325   */\n      add\n        /* \"#utility.yul\":14311:14325   */\n      swap1\n      pop\n        /* \"#utility.yul\":14276:14741   */\n      jump(tag_407)\n    tag_409:\n        /* \"#utility.yul\":14280:14294   */\n      pop\n        /* \"#utility.yul\":14757:14761   */\n      dup3\n        /* \"#utility.yul\":14750:14761   */\n      swap8\n      pop\n        /* \"#utility.yul\":14777:14780   */\n      dup8\n        /* \"#utility.yul\":14770:14780   */\n      swap6\n      pop\n        /* \"#utility.yul\":13801:14786   */\n      pop\n      pop\n      pop\n      pop\n      pop\n        /* \"#utility.yul\":13611:14786   */\n      swap3\n      swap2\n      pop\n      pop\n      jump\t// out\n        /* \"#utility.yul\":14792:15297   */\n    tag_17:\n        /* \"#utility.yul\":15001:15005   */\n      0x00\n        /* \"#utility.yul\":15039:15041   */\n      0x20\n        /* \"#utility.yul\":15028:15037   */\n      dup3\n        /* \"#utility.yul\":15024:15042   */\n      add\n        /* \"#utility.yul\":15016:15042   */\n      swap1\n      pop\n        /* \"#utility.yul\":15088:15097   */\n      dup2\n        /* \"#utility.yul\":15082:15086   */\n      dup2\n        /* \"#utility.yul\":15078:15098   */\n      sub\n        /* \"#utility.yul\":15074:15075   */\n      0x00\n        /* \"#utility.yul\":15063:15072   */\n      dup4\n        /* \"#utility.yul\":15059:15076   */\n      add\n        /* \"#utility.yul\":15052:15099   */\n      mstore\n        /* \"#utility.yul\":15116:15290   */\n      tag_413\n        /* \"#utility.yul\":15285:15289   */\n      dup2\n        /* \"#utility.yul\":15276:15282   */\n      dup5\n        /* \"#utility.yul\":15116:15290   */\n      tag_249\n      jump\t// in\n    tag_413:\n        /* \"#utility.yul\":15108:15290   */\n      swap1\n      pop\n        /* \"#utility.yul\":14792:15297   */\n      swap3\n      swap2\n      pop\n      pop\n      jump\t// out\n        /* \"#utility.yul\":15303:15632   */\n    tag_20:\n        /* \"#utility.yul\":15362:15368   */\n      0x00\n        /* \"#utility.yul\":15411:15413   */\n      0x20\n        /* \"#utility.yul\":15399:15408   */\n      dup3\n        /* \"#utility.yul\":15390:15397   */\n      dup5\n        /* \"#utility.yul\":15386:15409   */\n      sub\n        /* \"#utility.yul\":15382:15414   */\n      slt\n        /* \"#utility.yul\":15379:15498   */\n      iszero\n      tag_415\n      jumpi\n        /* \"#utility.yul\":15417:15496   */\n      tag_416\n      tag_217\n      jump\t// in\n    tag_416:\n        /* \"#utility.yul\":15379:15498   */\n    tag_415:\n        /* \"#utility.yul\":15537:15538   */\n      0x00\n        /* \"#utility.yul\":15562:15615   */\n      tag_417\n        /* \"#utility.yul\":15607:15614   */\n      dup5\n        /* \"#utility.yul\":15598:15604   */\n      dup3\n        /* \"#utility.yul\":15587:15596   */\n      dup6\n        /* \"#utility.yul\":15583:15605   */\n      add\n        /* \"#utility.yul\":15562:15615   */\n      tag_235\n      jump\t// in\n    tag_417:\n        /* \"#utility.yul\":15552:15615   */\n      swap2\n      pop\n        /* \"#utility.yul\":15508:15625   */\n      pop\n        /* \"#utility.yul\":15303:15632   */\n      swap3\n      swap2\n      pop\n      pop\n      jump\t// out\n        /* \"#utility.yul\":15638:15807   */\n    tag_250:\n        /* \"#utility.yul\":15722:15733   */\n      0x00\n        /* \"#utility.yul\":15756:15762   */\n      dup3\n        /* \"#utility.yul\":15751:15754   */\n      dup3\n        /* \"#utility.yul\":15744:15763   */\n      mstore\n        /* \"#utility.yul\":15796:15800   */\n      0x20\n        /* \"#utility.yul\":15791:15794   */\n      dup3\n        /* \"#utility.yul\":15787:15801   */\n      add\n        /* \"#utility.yul\":15772:15801   */\n      swap1\n      pop\n        /* \"#utility.yul\":15638:15807   */\n      swap3\n      swap2\n      pop\n      pop\n      jump\t// out\n        /* \"#utility.yul\":15813:16190   */\n    tag_251:\n        /* \"#utility.yul\":15901:15904   */\n      0x00\n        /* \"#utility.yul\":15929:15968   */\n      tag_420\n        /* \"#utility.yul\":15962:15967   */\n      dup3\n        /* \"#utility.yul\":15929:15968   */\n      tag_241\n      jump\t// in\n    tag_420:\n        /* \"#utility.yul\":15984:16055   */\n      tag_421\n        /* \"#utility.yul\":16048:16054   */\n      dup2\n        /* \"#utility.yul\":16043:16046   */\n      dup6\n        /* \"#utility.yul\":15984:16055   */\n      tag_250\n      jump\t// in\n    tag_421:\n        /* \"#utility.yul\":15977:16055   */\n      swap4\n      pop\n        /* \"#utility.yul\":16064:16129   */\n      tag_422\n        /* \"#utility.yul\":16122:16128   */\n      dup2\n        /* \"#utility.yul\":16117:16120   */\n      dup6\n        /* \"#utility.yul\":16110:16114   */\n      0x20\n        /* \"#utility.yul\":16103:16108   */\n      dup7\n        /* \"#utility.yul\":16099:16115   */\n      add\n        /* \"#utility.yul\":16064:16129   */\n      tag_243\n      jump\t// in\n    tag_422:\n        /* \"#utility.yul\":16154:16183   */\n      tag_423\n        /* \"#utility.yul\":16176:16182   */\n      dup2\n        /* \"#utility.yul\":16154:16183   */\n      tag_220\n      jump\t// in\n    tag_423:\n        /* \"#utility.yul\":16149:16152   */\n      dup5\n        /* \"#utility.yul\":16145:16184   */\n      add\n        /* \"#utility.yul\":16138:16184   */\n      swap2\n      pop\n        /* \"#utility.yul\":15905:16190   */\n      pop\n        /* \"#utility.yul\":15813:16190   */\n      swap3\n      swap2\n      pop\n      pop\n      jump\t// out\n        /* \"#utility.yul\":16196:16314   */\n    tag_252:\n        /* \"#utility.yul\":16283:16307   */\n      tag_425\n        /* \"#utility.yul\":16301:16306   */\n      dup2\n        /* \"#utility.yul\":16283:16307   */\n      tag_233\n      jump\t// in\n    tag_425:\n        /* \"#utility.yul\":16278:16281   */\n      dup3\n        /* \"#utility.yul\":16271:16308   */\n      mstore\n        /* \"#utility.yul\":16196:16314   */\n      pop\n      pop\n      jump\t// out\n        /* \"#utility.yul\":16320:17752   */\n    tag_23:\n        /* \"#utility.yul\":16701:16705   */\n      0x00\n        /* \"#utility.yul\":16739:16742   */\n      0xe0\n        /* \"#utility.yul\":16728:16737   */\n      dup3\n        /* \"#utility.yul\":16724:16743   */\n      add\n        /* \"#utility.yul\":16716:16743   */\n      swap1\n      pop\n        /* \"#utility.yul\":16789:16798   */\n      dup2\n        /* \"#utility.yul\":16783:16787   */\n      dup2\n        /* \"#utility.yul\":16779:16799   */\n      sub\n        /* \"#utility.yul\":16775:16776   */\n      0x00\n        /* \"#utility.yul\":16764:16773   */\n      dup4\n        /* \"#utility.yul\":16760:16777   */\n      add\n        /* \"#utility.yul\":16753:16800   */\n      mstore\n        /* \"#utility.yul\":16817:16895   */\n      tag_427\n        /* \"#utility.yul\":16890:16894   */\n      dup2\n        /* \"#utility.yul\":16881:16887   */\n      dup11\n        /* \"#utility.yul\":16817:16895   */\n      tag_251\n      jump\t// in\n    tag_427:\n        /* \"#utility.yul\":16809:16895   */\n      swap1\n      pop\n        /* \"#utility.yul\":16942:16951   */\n      dup2\n        /* \"#utility.yul\":16936:16940   */\n      dup2\n        /* \"#utility.yul\":16932:16952   */\n      sub\n        /* \"#utility.yul\":16927:16929   */\n      0x20\n        /* \"#utility.yul\":16916:16925   */\n      dup4\n        /* \"#utility.yul\":16912:16930   */\n      add\n        /* \"#utility.yul\":16905:16953   */\n      mstore\n        /* \"#utility.yul\":16970:17048   */\n      tag_428\n        /* \"#utility.yul\":17043:17047   */\n      dup2\n        /* \"#utility.yul\":17034:17040   */\n      dup10\n        /* \"#utility.yul\":16970:17048   */\n      tag_251\n      jump\t// in\n    tag_428:\n        /* \"#utility.yul\":16962:17048   */\n      swap1\n      pop\n        /* \"#utility.yul\":17095:17104   */\n      dup2\n        /* \"#utility.yul\":17089:17093   */\n      dup2\n        /* \"#utility.yul\":17085:17105   */\n      sub\n        /* \"#utility.yul\":17080:17082   */\n      0x40\n        /* \"#utility.yul\":17069:17078   */\n      dup4\n        /* \"#utility.yul\":17065:17083   */\n      add\n        /* \"#utility.yul\":17058:17106   */\n      mstore\n        /* \"#utility.yul\":17123:17201   */\n      tag_429\n        /* \"#utility.yul\":17196:17200   */\n      dup2\n        /* \"#utility.yul\":17187:17193   */\n      dup9\n        /* \"#utility.yul\":17123:17201   */\n      tag_251\n      jump\t// in\n    tag_429:\n        /* \"#utility.yul\":17115:17201   */\n      swap1\n      pop\n        /* \"#utility.yul\":17248:17257   */\n      dup2\n        /* \"#utility.yul\":17242:17246   */\n      dup2\n        /* \"#utility.yul\":17238:17258   */\n      sub\n        /* \"#utility.yul\":17233:17235   */\n      0x60\n        /* \"#utility.yul\":17222:17231   */\n      dup4\n        /* \"#utility.yul\":17218:17236   */\n      add\n        /* \"#utility.yul\":17211:17259   */\n      mstore\n        /* \"#utility.yul\":17276:17354   */\n      tag_430\n        /* \"#utility.yul\":17349:17353   */\n      dup2\n        /* \"#utility.yul\":17340:17346   */\n      dup8\n        /* \"#utility.yul\":17276:17354   */\n      tag_251\n      jump\t// in\n    tag_430:\n        /* \"#utility.yul\":17268:17354   */\n      swap1\n      pop\n        /* \"#utility.yul\":17402:17411   */\n      dup2\n        /* \"#utility.yul\":17396:17400   */\n      dup2\n        /* \"#utility.yul\":17392:17412   */\n      sub\n        /* \"#utility.yul\":17386:17389   */\n      0x80\n        /* \"#utility.yul\":17375:17384   */\n      dup4\n        /* \"#utility.yul\":17371:17390   */\n      add\n        /* \"#utility.yul\":17364:17413   */\n      mstore\n        /* \"#utility.yul\":17430:17508   */\n      tag_431\n        /* \"#utility.yul\":17503:17507   */\n      dup2\n        /* \"#utility.yul\":17494:17500   */\n      dup7\n        /* \"#utility.yul\":17430:17508   */\n      tag_251\n      jump\t// in\n    tag_431:\n        /* \"#utility.yul\":17422:17508   */\n      swap1\n      pop\n        /* \"#utility.yul\":17556:17565   */\n      dup2\n        /* \"#utility.yul\":17550:17554   */\n      dup2\n        /* \"#utility.yul\":17546:17566   */\n      sub\n        /* \"#utility.yul\":17540:17543   */\n      0xa0\n        /* \"#utility.yul\":17529:17538   */\n      dup4\n        /* \"#utility.yul\":17525:17544   */\n      add\n        /* \"#utility.yul\":17518:17567   */\n      mstore\n        /* \"#utility.yul\":17584:17662   */\n      tag_432\n        /* \"#utility.yul\":17657:17661   */\n      dup2\n        /* \"#utility.yul\":17648:17654   */\n      dup6\n        /* \"#utility.yul\":17584:17662   */\n      tag_251\n      jump\t// in\n    tag_432:\n        /* \"#utility.yul\":17576:17662   */\n      swap1\n      pop\n        /* \"#utility.yul\":17672:17745   */\n      tag_433\n        /* \"#utility.yul\":17740:17743   */\n      0xc0\n        /* \"#utility.yul\":17729:17738   */\n      dup4\n        /* \"#utility.yul\":17725:17744   */\n      add\n        /* \"#utility.yul\":17716:17722   */\n      dup5\n        /* \"#utility.yul\":17672:17745   */\n      tag_252\n      jump\t// in\n    tag_433:\n        /* \"#utility.yul\":16320:17752   */\n      swap9\n      swap8\n      pop\n      pop\n      pop\n      pop\n      pop\n      pop\n      pop\n      pop\n      jump\t// out\n        /* \"#utility.yul\":17758:17980   */\n    tag_30:\n        /* \"#utility.yul\":17851:17855   */\n      0x00\n        /* \"#utility.yul\":17889:17891   */\n      0x20\n        /* \"#utility.yul\":17878:17887   */\n      dup3\n        /* \"#utility.yul\":17874:17892   */\n      add\n        /* \"#utility.yul\":17866:17892   */\n      swap1\n      pop\n        /* \"#utility.yul\":17902:17973   */\n      tag_435\n        /* \"#utility.yul\":17970:17971   */\n      0x00\n        /* \"#utility.yul\":17959:17968   */\n      dup4\n        /* \"#utility.yul\":17955:17972   */\n      add\n        /* \"#utility.yul\":17946:17952   */\n      dup5\n        /* \"#utility.yul\":17902:17973   */\n      tag_252\n      jump\t// in\n    tag_435:\n        /* \"#utility.yul\":17758:17980   */\n      swap3\n      swap2\n      pop\n      pop\n      jump\t// out\n        /* \"#utility.yul\":17986:18209   */\n    tag_253:\n        /* \"#utility.yul\":18126:18160   */\n      0x4c656e67746873206f6620696e7075742061727261797320646f206e6f74206d\n        /* \"#utility.yul\":18122:18123   */\n      0x00\n        /* \"#utility.yul\":18114:18120   */\n      dup3\n        /* \"#utility.yul\":18110:18124   */\n      add\n        /* \"#utility.yul\":18103:18161   */\n      mstore\n        /* \"#utility.yul\":18195:18201   */\n      0x6174636800000000000000000000000000000000000000000000000000000000\n        /* \"#utility.yul\":18190:18192   */\n      0x20\n        /* \"#utility.yul\":18182:18188   */\n      dup3\n        /* \"#utility.yul\":18178:18193   */\n      add\n        /* \"#utility.yul\":18171:18202   */\n      mstore\n        /* \"#utility.yul\":17986:18209   */\n      pop\n      jump\t// out\n        /* \"#utility.yul\":18215:18581   */\n    tag_254:\n        /* \"#utility.yul\":18357:18360   */\n      0x00\n        /* \"#utility.yul\":18378:18445   */\n      tag_438\n        /* \"#utility.yul\":18442:18444   */\n      0x24\n        /* \"#utility.yul\":18437:18440   */\n      dup4\n        /* \"#utility.yul\":18378:18445   */\n      tag_250\n      jump\t// in\n    tag_438:\n        /* \"#utility.yul\":18371:18445   */\n      swap2\n      pop\n        /* \"#utility.yul\":18454:18547   */\n      tag_439\n        /* \"#utility.yul\":18543:18546   */\n      dup3\n        /* \"#utility.yul\":18454:18547   */\n      tag_253\n      jump\t// in\n    tag_439:\n        /* \"#utility.yul\":18572:18574   */\n      0x40\n        /* \"#utility.yul\":18567:18570   */\n      dup3\n        /* \"#utility.yul\":18563:18575   */\n      add\n        /* \"#utility.yul\":18556:18575   */\n      swap1\n      pop\n        /* \"#utility.yul\":18215:18581   */\n      swap2\n      swap1\n      pop\n      jump\t// out\n        /* \"#utility.yul\":18587:19006   */\n    tag_39:\n        /* \"#utility.yul\":18753:18757   */\n      0x00\n        /* \"#utility.yul\":18791:18793   */\n      0x20\n        /* \"#utility.yul\":18780:18789   */\n      dup3\n        /* \"#utility.yul\":18776:18794   */\n      add\n        /* \"#utility.yul\":18768:18794   */\n      swap1\n      pop\n        /* \"#utility.yul\":18840:18849   */\n      dup2\n        /* \"#utility.yul\":18834:18838   */\n      dup2\n        /* \"#utility.yul\":18830:18850   */\n      sub\n        /* \"#utility.yul\":18826:18827   */\n      0x00\n        /* \"#utility.yul\":18815:18824   */\n      dup4\n        /* \"#utility.yul\":18811:18828   */\n      add\n        /* \"#utility.yul\":18804:18851   */\n      mstore\n        /* \"#utility.yul\":18868:18999   */\n      tag_441\n        /* \"#utility.yul\":18994:18998   */\n      dup2\n        /* \"#utility.yul\":18868:18999   */\n      tag_254\n      jump\t// in\n    tag_441:\n        /* \"#utility.yul\":18860:18999   */\n      swap1\n      pop\n        /* \"#utility.yul\":18587:19006   */\n      swap2\n      swap1\n      pop\n      jump\t// out\n        /* \"#utility.yul\":19012:19192   */\n    tag_255:\n        /* \"#utility.yul\":19060:19137   */\n      0x4e487b7100000000000000000000000000000000000000000000000000000000\n        /* \"#utility.yul\":19057:19058   */\n      0x00\n        /* \"#utility.yul\":19050:19138   */\n      mstore\n        /* \"#utility.yul\":19157:19161   */\n      0x11\n        /* \"#utility.yul\":19154:19155   */\n      0x04\n        /* \"#utility.yul\":19147:19162   */\n      mstore\n        /* \"#utility.yul\":19181:19185   */\n      0x24\n        /* \"#utility.yul\":19178:19179   */\n      0x00\n        /* \"#utility.yul\":19171:19186   */\n      revert\n        /* \"#utility.yul\":19198:19431   */\n    tag_44:\n        /* \"#utility.yul\":19237:19240   */\n      0x00\n        /* \"#utility.yul\":19260:19284   */\n      tag_444\n        /* \"#utility.yul\":19278:19283   */\n      dup3\n        /* \"#utility.yul\":19260:19284   */\n      tag_233\n      jump\t// in\n    tag_444:\n        /* \"#utility.yul\":19251:19284   */\n      swap2\n      pop\n        /* \"#utility.yul\":19306:19372   */\n      0xffffffffffffffffffffffffffffffffffffffffffffffffffffffffffffffff\n        /* \"#utility.yul\":19299:19304   */\n      dup3\n        /* \"#utility.yul\":19296:19373   */\n      sub\n        /* \"#utility.yul\":19293:19396   */\n      tag_445\n      jumpi\n        /* \"#utility.yul\":19376:19394   */\n      tag_446\n      tag_255\n      jump\t// in\n    tag_446:\n        /* \"#utility.yul\":19293:19396   */\n    tag_445:\n        /* \"#utility.yul\":19423:19424   */\n      0x01\n        /* \"#utility.yul\":19416:19421   */\n      dup3\n        /* \"#utility.yul\":19412:19425   */\n      add\n        /* \"#utility.yul\":19405:19425   */\n      swap1\n      pop\n        /* \"#utility.yul\":19198:19431   */\n      swap2\n      swap1\n      pop\n      jump\t// out\n        /* \"#utility.yul\":19437:19617   */\n    tag_47:\n        /* \"#utility.yul\":19485:19562   */\n      0x4e487b7100000000000000000000000000000000000000000000000000000000\n        /* \"#utility.yul\":19482:19483   */\n      0x00\n        /* \"#utility.yul\":19475:19563   */\n      mstore\n        /* \"#utility.yul\":19582:19586   */\n      0x32\n        /* \"#utility.yul\":19579:19580   */\n      0x04\n        /* \"#utility.yul\":19572:19587   */\n      mstore\n        /* \"#utility.yul\":19606:19610   */\n      0x24\n        /* \"#utility.yul\":19603:19604   */\n      0x00\n        /* \"#utility.yul\":19596:19611   */\n      revert\n        /* \"#utility.yul\":19623:19803   */\n    tag_256:\n        /* \"#utility.yul\":19671:19748   */\n      0x4e487b7100000000000000000000000000000000000000000000000000000000\n        /* \"#utility.yul\":19668:19669   */\n      0x00\n        /* \"#utility.yul\":19661:19749   */\n      mstore\n        /* \"#utility.yul\":19768:19772   */\n      0x22\n        /* \"#utility.yul\":19765:19766   */\n      0x04\n        /* \"#utility.yul\":19758:19773   */\n      mstore\n        /* \"#utility.yul\":19792:19796   */\n      0x24\n        /* \"#utility.yul\":19789:19790   */\n      0x00\n        /* \"#utility.yul\":19782:19797   */\n      revert\n        /* \"#utility.yul\":19809:20129   */\n    tag_108:\n        /* \"#utility.yul\":19853:19859   */\n      0x00\n        /* \"#utility.yul\":19890:19891   */\n      0x02\n        /* \"#utility.yul\":19884:19888   */\n      dup3\n        /* \"#utility.yul\":19880:19892   */\n      div\n        /* \"#utility.yul\":19870:19892   */\n      swap1\n      pop\n        /* \"#utility.yul\":19937:19938   */\n      0x01\n        /* \"#utility.yul\":19931:19935   */\n      dup3\n        /* \"#utility.yul\":19927:19939   */\n      and\n        /* \"#utility.yul\":19958:19976   */\n      dup1\n        /* \"#utility.yul\":19948:20029   */\n      tag_450\n      jumpi\n        /* \"#utility.yul\":20014:20018   */\n      0x7f\n        /* \"#utility.yul\":20006:20012   */\n      dup3\n        /* \"#utility.yul\":20002:20019   */\n      and\n        /* \"#utility.yul\":19992:20019   */\n      swap2\n      pop\n        /* \"#utility.yul\":19948:20029   */\n    tag_450:\n        /* \"#utility.yul\":20076:20078   */\n      0x20\n        /* \"#utility.yul\":20068:20074   */\n      dup3\n        /* \"#utility.yul\":20065:20079   */\n      lt\n        /* \"#utility.yul\":20045:20063   */\n      dup2\n        /* \"#utility.yul\":20042:20080   */\n      sub\n        /* \"#utility.yul\":20039:20123   */\n      tag_451\n      jumpi\n        /* \"#utility.yul\":20095:20113   */\n      tag_452\n      tag_256\n      jump\t// in\n    tag_452:\n        /* \"#utility.yul\":20039:20123   */\n    tag_451:\n        /* \"#utility.yul\":19860:20129   */\n      pop\n        /* \"#utility.yul\":19809:20129   */\n      swap2\n      swap1\n      pop\n      jump\t// out\n        /* \"#utility.yul\":20135:20276   */\n    tag_257:\n        /* \"#utility.yul\":20184:20188   */\n      0x00\n        /* \"#utility.yul\":20207:20210   */\n      dup2\n        /* \"#utility.yul\":20199:20210   */\n      swap1\n      pop\n        /* \"#utility.yul\":20230:20233   */\n      dup2\n        /* \"#utility.yul\":20227:20228   */\n      0x00\n        /* \"#utility.yul\":20220:20234   */\n      mstore\n        /* \"#utility.yul\":20264:20268   */\n      0x20\n        /* \"#utility.yul\":20261:20262   */\n      0x00\n        /* \"#utility.yul\":20251:20269   */\n      keccak256\n        /* \"#utility.yul\":20243:20269   */\n      swap1\n      pop\n        /* \"#utility.yul\":20135:20276   */\n      swap2\n      swap1\n      pop\n      jump\t// out\n        /* \"#utility.yul\":20282:20375   */\n    tag_258:\n        /* \"#utility.yul\":20319:20325   */\n      0x00\n        /* \"#utility.yul\":20366:20368   */\n      0x20\n        /* \"#utility.yul\":20361:20363   */\n      0x1f\n        /* \"#utility.yul\":20354:20359   */\n      dup4\n        /* \"#utility.yul\":20350:20364   */\n      add\n        /* \"#utility.yul\":20346:20369   */\n      div\n        /* \"#utility.yul\":20336:20369   */\n      swap1\n      pop\n        /* \"#utility.yul\":20282:20375   */\n      swap2\n      swap1\n      pop\n      jump\t// out\n        /* \"#utility.yul\":20381:20488   */\n    tag_259:\n        /* \"#utility.yul\":20425:20433   */\n      0x00\n        /* \"#utility.yul\":20475:20480   */\n      dup3\n        /* \"#utility.yul\":20469:20473   */\n      dup3\n        /* \"#utility.yul\":20465:20481   */\n      shl\n        /* \"#utility.yul\":20444:20481   */\n      swap1\n      pop\n        /* \"#utility.yul\":20381:20488   */\n      swap3\n      swap2\n      pop\n      pop\n      jump\t// out\n        /* \"#utility.yul\":20494:20887   */\n    tag_260:\n        /* \"#utility.yul\":20563:20569   */\n      0x00\n        /* \"#utility.yul\":20613:20614   */\n      0x08\n        /* \"#utility.yul\":20601:20611   */\n      dup4\n        /* \"#utility.yul\":20597:20615   */\n      mul\n        /* \"#utility.yul\":20636:20733   */\n      tag_457\n        /* \"#utility.yul\":20666:20732   */\n      0xffffffffffffffffffffffffffffffffffffffffffffffffffffffffffffffff\n        /* \"#utility.yul\":20655:20664   */\n      dup3\n        /* \"#utility.yul\":20636:20733   */\n      tag_259\n      jump\t// in\n    tag_457:\n        /* \"#utility.yul\":20754:20793   */\n      tag_458\n        /* \"#utility.yul\":20784:20792   */\n      dup7\n        /* \"#utility.yul\":20773:20782   */\n      dup4\n        /* \"#utility.yul\":20754:20793   */\n      tag_259\n      jump\t// in\n    tag_458:\n        /* \"#utility.yul\":20742:20793   */\n      swap6\n      pop\n        /* \"#utility.yul\":20826:20830   */\n      dup1\n        /* \"#utility.yul\":20822:20831   */\n      not\n        /* \"#utility.yul\":20815:20820   */\n      dup5\n        /* \"#utility.yul\":20811:20832   */\n      and\n        /* \"#utility.yul\":20802:20832   */\n      swap4\n      pop\n        /* \"#utility.yul\":20875:20879   */\n      dup1\n        /* \"#utility.yul\":20865:20873   */\n      dup7\n        /* \"#utility.yul\":20861:20880   */\n      and\n        /* \"#utility.yul\":20854:20859   */\n      dup5\n        /* \"#utility.yul\":20851:20881   */\n      or\n        /* \"#utility.yul\":20841:20881   */\n      swap3\n      pop\n        /* \"#utility.yul\":20570:20887   */\n      pop\n      pop\n        /* \"#utility.yul\":20494:20887   */\n      swap4\n      swap3\n      pop\n      pop\n      pop\n      jump\t// out\n        /* \"#utility.yul\":20893:20953   */\n    tag_261:\n        /* \"#utility.yul\":20921:20924   */\n      0x00\n        /* \"#utility.yul\":20942:20947   */\n      dup2\n        /* \"#utility.yul\":20935:20947   */\n      swap1\n      pop\n        /* \"#utility.yul\":20893:20953   */\n      swap2\n      swap1\n      pop\n      jump\t// out\n        /* \"#utility.yul\":20959:21101   */\n    tag_262:\n        /* \"#utility.yul\":21009:21018   */\n      0x00\n        /* \"#utility.yul\":21042:21095   */\n      tag_461\n        /* \"#utility.yul\":21060:21094   */\n      tag_462\n        /* \"#utility.yul\":21069:21093   */\n      tag_463\n        /* \"#utility.yul\":21087:21092   */\n      dup5\n        /* \"#utility.yul\":21069:21093   */\n      tag_233\n      jump\t// in\n    tag_463:\n        /* \"#utility.yul\":21060:21094   */\n      tag_261\n      jump\t// in\n    tag_462:\n        /* \"#utility.yul\":21042:21095   */\n      tag_233\n      jump\t// in\n    tag_461:\n        /* \"#utility.yul\":21029:21095   */\n      swap1\n      pop\n        /* \"#utility.yul\":20959:21101   */\n      swap2\n      swap1\n      pop\n      jump\t// out\n        /* \"#utility.yul\":21107:21182   */\n    tag_263:\n        /* \"#utility.yul\":21150:21153   */\n      0x00\n        /* \"#utility.yul\":21171:21176   */\n      dup2\n        /* \"#utility.yul\":21164:21176   */\n      swap1\n      pop\n        /* \"#utility.yul\":21107:21182   */\n      swap2\n      swap1\n      pop\n      jump\t// out\n        /* \"#utility.yul\":21188:21457   */\n    tag_264:\n        /* \"#utility.yul\":21298:21337   */\n      tag_466\n        /* \"#utility.yul\":21329:21336   */\n      dup4\n        /* \"#utility.yul\":21298:21337   */\n      tag_262\n      jump\t// in\n    tag_466:\n        /* \"#utility.yul\":21359:21450   */\n      tag_467\n        /* \"#utility.yul\":21408:21449   */\n      tag_468\n        /* \"#utility.yul\":21432:21448   */\n      dup3\n        /* \"#utility.yul\":21408:21449   */\n      tag_263\n      jump\t// in\n    tag_468:\n        /* \"#utility.yul\":21400:21406   */\n      dup5\n        /* \"#utility.yul\":21393:21397   */\n      dup5\n        /* \"#utility.yul\":21387:21398   */\n      sload\n        /* \"#utility.yul\":21359:21450   */\n      tag_260\n      jump\t// in\n    tag_467:\n        /* \"#utility.yul\":21353:21357   */\n      dup3\n        /* \"#utility.yul\":21346:21451   */\n      sstore\n        /* \"#utility.yul\":21264:21457   */\n      pop\n        /* \"#utility.yul\":21188:21457   */\n      pop\n      pop\n      pop\n      jump\t// out\n        /* \"#utility.yul\":21463:21536   */\n    tag_265:\n        /* \"#utility.yul\":21508:21511   */\n      0x00\n        /* \"#utility.yul\":21463:21536   */\n      swap1\n      jump\t// out\n        /* \"#utility.yul\":21542:21731   */\n    tag_266:\n        /* \"#utility.yul\":21619:21651   */\n      tag_471\n      tag_265\n      jump\t// in\n    tag_471:\n        /* \"#utility.yul\":21660:21725   */\n      tag_472\n        /* \"#utility.yul\":21718:21724   */\n      dup2\n        /* \"#utility.yul\":21710:21716   */\n      dup5\n        /* \"#utility.yul\":21704:21708   */\n      dup5\n        /* \"#utility.yul\":21660:21725   */\n      tag_264\n      jump\t// in\n    tag_472:\n        /* \"#utility.yul\":21595:21731   */\n      pop\n        /* \"#utility.yul\":21542:21731   */\n      pop\n      pop\n      jump\t// out\n        /* \"#utility.yul\":21737:21923   */\n    tag_267:\n        /* \"#utility.yul\":21797:21917   */\n    tag_474:\n        /* \"#utility.yul\":21814:21817   */\n      dup2\n        /* \"#utility.yul\":21807:21812   */\n      dup2\n        /* \"#utility.yul\":21804:21818   */\n      lt\n        /* \"#utility.yul\":21797:21917   */\n      iszero\n      tag_476\n      jumpi\n        /* \"#utility.yul\":21868:21907   */\n      tag_477\n        /* \"#utility.yul\":21905:21906   */\n      0x00\n        /* \"#utility.yul\":21898:21903   */\n      dup3\n        /* \"#utility.yul\":21868:21907   */\n      tag_266\n      jump\t// in\n    tag_477:\n        /* \"#utility.yul\":21841:21842   */\n      0x01\n        /* \"#utility.yul\":21834:21839   */\n      dup2\n        /* \"#utility.yul\":21830:21843   */\n      add\n        /* \"#utility.yul\":21821:21843   */\n      swap1\n      pop\n        /* \"#utility.yul\":21797:21917   */\n      jump(tag_474)\n    tag_476:\n        /* \"#utility.yul\":21737:21923   */\n      pop\n      pop\n      jump\t// out\n        /* \"#utility.yul\":21929:22472   */\n    tag_268:\n        /* \"#utility.yul\":22030:22032   */\n      0x1f\n        /* \"#utility.yul\":22025:22028   */\n      dup3\n        /* \"#utility.yul\":22022:22033   */\n      gt\n        /* \"#utility.yul\":22019:22465   */\n      iszero\n      tag_479\n      jumpi\n        /* \"#utility.yul\":22064:22102   */\n      tag_480\n        /* \"#utility.yul\":22096:22101   */\n      dup2\n        /* \"#utility.yul\":22064:22102   */\n      tag_257\n      jump\t// in\n    tag_480:\n        /* \"#utility.yul\":22148:22177   */\n      tag_481\n        /* \"#utility.yul\":22166:22176   */\n      dup5\n        /* \"#utility.yul\":22148:22177   */\n      tag_258\n      jump\t// in\n    tag_481:\n        /* \"#utility.yul\":22138:22146   */\n      dup2\n        /* \"#utility.yul\":22134:22178   */\n      add\n        /* \"#utility.yul\":22331:22333   */\n      0x20\n        /* \"#utility.yul\":22319:22329   */\n      dup6\n        /* \"#utility.yul\":22316:22334   */\n      lt\n        /* \"#utility.yul\":22313:22362   */\n      iszero\n      tag_482\n      jumpi\n        /* \"#utility.yul\":22352:22360   */\n      dup2\n        /* \"#utility.yul\":22337:22360   */\n      swap1\n      pop\n        /* \"#utility.yul\":22313:22362   */\n    tag_482:\n        /* \"#utility.yul\":22375:22455   */\n      tag_483\n        /* \"#utility.yul\":22431:22453   */\n      tag_484\n        /* \"#utility.yul\":22449:22452   */\n      dup6\n        /* \"#utility.yul\":22431:22453   */\n      tag_258\n      jump\t// in\n    tag_484:\n        /* \"#utility.yul\":22421:22429   */\n      dup4\n        /* \"#utility.yul\":22417:22454   */\n      add\n        /* \"#utility.yul\":22404:22415   */\n      dup3\n        /* \"#utility.yul\":22375:22455   */\n      tag_267\n      jump\t// in\n    tag_483:\n        /* \"#utility.yul\":22034:22465   */\n      pop\n      pop\n        /* \"#utility.yul\":22019:22465   */\n    tag_479:\n        /* \"#utility.yul\":21929:22472   */\n      pop\n      pop\n      pop\n      jump\t// out\n        /* \"#utility.yul\":22478:22595   */\n    tag_269:\n        /* \"#utility.yul\":22532:22540   */\n      0x00\n        /* \"#utility.yul\":22582:22587   */\n      dup3\n        /* \"#utility.yul\":22576:22580   */\n      dup3\n        /* \"#utility.yul\":22572:22588   */\n      shr\n        /* \"#utility.yul\":22551:22588   */\n      swap1\n      pop\n        /* \"#utility.yul\":22478:22595   */\n      swap3\n      swap2\n      pop\n      pop\n      jump\t// out\n        /* \"#utility.yul\":22601:22770   */\n    tag_270:\n        /* \"#utility.yul\":22645:22651   */\n      0x00\n        /* \"#utility.yul\":22678:22729   */\n      tag_487\n        /* \"#utility.yul\":22726:22727   */\n      0x00\n        /* \"#utility.yul\":22722:22728   */\n      not\n        /* \"#utility.yul\":22714:22719   */\n      dup5\n        /* \"#utility.yul\":22711:22712   */\n      0x08\n        /* \"#utility.yul\":22707:22720   */\n      mul\n        /* \"#utility.yul\":22678:22729   */\n      tag_269\n      jump\t// in\n    tag_487:\n        /* \"#utility.yul\":22674:22730   */\n      not\n        /* \"#utility.yul\":22759:22763   */\n      dup1\n        /* \"#utility.yul\":22753:22757   */\n      dup4\n        /* \"#utility.yul\":22749:22764   */\n      and\n        /* \"#utility.yul\":22739:22764   */\n      swap2\n      pop\n        /* \"#utility.yul\":22652:22770   */\n      pop\n        /* \"#utility.yul\":22601:22770   */\n      swap3\n      swap2\n      pop\n      pop\n      jump\t// out\n        /* \"#utility.yul\":22775:23070   */\n    tag_271:\n        /* \"#utility.yul\":22851:22855   */\n      0x00\n        /* \"#utility.yul\":22997:23026   */\n      tag_489\n        /* \"#utility.yul\":23022:23025   */\n      dup4\n        /* \"#utility.yul\":23016:23020   */\n      dup4\n        /* \"#utility.yul\":22997:23026   */\n      tag_270\n      jump\t// in\n    tag_489:\n        /* \"#utility.yul\":22989:23026   */\n      swap2\n      pop\n        /* \"#utility.yul\":23059:23062   */\n      dup3\n        /* \"#utility.yul\":23056:23057   */\n      0x02\n        /* \"#utility.yul\":23052:23063   */\n      mul\n        /* \"#utility.yul\":23046:23050   */\n      dup3\n        /* \"#utility.yul\":23043:23064   */\n      or\n        /* \"#utility.yul\":23035:23064   */\n      swap1\n      pop\n        /* \"#utility.yul\":22775:23070   */\n      swap3\n      swap2\n      pop\n      pop\n      jump\t// out\n        /* \"#utility.yul\":23075:24470   */\n    tag_61:\n        /* \"#utility.yul\":23192:23229   */\n      tag_491\n        /* \"#utility.yul\":23225:23228   */\n      dup3\n        /* \"#utility.yul\":23192:23229   */\n      tag_241\n      jump\t// in\n    tag_491:\n        /* \"#utility.yul\":23294:23312   */\n      0xffffffffffffffff\n        /* \"#utility.yul\":23286:23292   */\n      dup2\n        /* \"#utility.yul\":23283:23313   */\n      gt\n        /* \"#utility.yul\":23280:23336   */\n      iszero\n      tag_492\n      jumpi\n        /* \"#utility.yul\":23316:23334   */\n      tag_493\n      tag_96\n      jump\t// in\n    tag_493:\n        /* \"#utility.yul\":23280:23336   */\n    tag_492:\n        /* \"#utility.yul\":23360:23398   */\n      tag_494\n        /* \"#utility.yul\":23392:23396   */\n      dup3\n        /* \"#utility.yul\":23386:23397   */\n      sload\n        /* \"#utility.yul\":23360:23398   */\n      tag_108\n      jump\t// in\n    tag_494:\n        /* \"#utility.yul\":23445:23512   */\n      tag_495\n        /* \"#utility.yul\":23505:23511   */\n      dup3\n        /* \"#utility.yul\":23497:23503   */\n      dup3\n        /* \"#utility.yul\":23491:23495   */\n      dup6\n        /* \"#utility.yul\":23445:23512   */\n      tag_268\n      jump\t// in\n    tag_495:\n        /* \"#utility.yul\":23539:23540   */\n      0x00\n        /* \"#utility.yul\":23563:23567   */\n      0x20\n        /* \"#utility.yul\":23550:23567   */\n      swap1\n      pop\n        /* \"#utility.yul\":23595:23597   */\n      0x1f\n        /* \"#utility.yul\":23587:23593   */\n      dup4\n        /* \"#utility.yul\":23584:23598   */\n      gt\n        /* \"#utility.yul\":23612:23613   */\n      0x01\n        /* \"#utility.yul\":23607:24225   */\n      dup2\n      eq\n      tag_497\n      jumpi\n        /* \"#utility.yul\":24269:24270   */\n      0x00\n        /* \"#utility.yul\":24286:24292   */\n      dup5\n        /* \"#utility.yul\":24283:24360   */\n      iszero\n      tag_498\n      jumpi\n        /* \"#utility.yul\":24335:24344   */\n      dup3\n        /* \"#utility.yul\":24330:24333   */\n      dup8\n        /* \"#utility.yul\":24326:24345   */\n      add\n        /* \"#utility.yul\":24320:24346   */\n      mload\n        /* \"#utility.yul\":24311:24346   */\n      swap1\n      pop\n        /* \"#utility.yul\":24283:24360   */\n    tag_498:\n        /* \"#utility.yul\":24386:24453   */\n      tag_499\n        /* \"#utility.yul\":24446:24452   */\n      dup6\n        /* \"#utility.yul\":24439:24444   */\n      dup3\n        /* \"#utility.yul\":24386:24453   */\n      tag_271\n      jump\t// in\n    tag_499:\n        /* \"#utility.yul\":24380:24384   */\n      dup7\n        /* \"#utility.yul\":24373:24454   */\n      sstore\n        /* \"#utility.yul\":24242:24464   */\n      pop\n        /* \"#utility.yul\":23577:24464   */\n      jump(tag_496)\n        /* \"#utility.yul\":23607:24225   */\n    tag_497:\n        /* \"#utility.yul\":23659:23663   */\n      0x1f\n        /* \"#utility.yul\":23655:23664   */\n      not\n        /* \"#utility.yul\":23647:23653   */\n      dup5\n        /* \"#utility.yul\":23643:23665   */\n      and\n        /* \"#utility.yul\":23693:23730   */\n      tag_500\n        /* \"#utility.yul\":23725:23729   */\n      dup7\n        /* \"#utility.yul\":23693:23730   */\n      tag_257\n      jump\t// in\n    tag_500:\n        /* \"#utility.yul\":23752:23753   */\n      0x00\n        /* \"#utility.yul\":23766:23974   */\n    tag_501:\n        /* \"#utility.yul\":23780:23787   */\n      dup3\n        /* \"#utility.yul\":23777:23778   */\n      dup2\n        /* \"#utility.yul\":23774:23788   */\n      lt\n        /* \"#utility.yul\":23766:23974   */\n      iszero\n      tag_503\n      jumpi\n        /* \"#utility.yul\":23859:23868   */\n      dup5\n        /* \"#utility.yul\":23854:23857   */\n      dup10\n        /* \"#utility.yul\":23850:23869   */\n      add\n        /* \"#utility.yul\":23844:23870   */\n      mload\n        /* \"#utility.yul\":23836:23842   */\n      dup3\n        /* \"#utility.yul\":23829:23871   */\n      sstore\n        /* \"#utility.yul\":23910:23911   */\n      0x01\n        /* \"#utility.yul\":23902:23908   */\n      dup3\n        /* \"#utility.yul\":23898:23912   */\n      add\n        /* \"#utility.yul\":23888:23912   */\n      swap2\n      pop\n        /* \"#utility.yul\":23957:23959   */\n      0x20\n        /* \"#utility.yul\":23946:23955   */\n      dup6\n        /* \"#utility.yul\":23942:23960   */\n      add\n        /* \"#utility.yul\":23929:23960   */\n      swap5\n      pop\n        /* \"#utility.yul\":23803:23807   */\n      0x20\n        /* \"#utility.yul\":23800:23801   */\n      dup2\n        /* \"#utility.yul\":23796:23808   */\n      add\n        /* \"#utility.yul\":23791:23808   */\n      swap1\n      pop\n        /* \"#utility.yul\":23766:23974   */\n      jump(tag_501)\n    tag_503:\n        /* \"#utility.yul\":24002:24008   */\n      dup7\n        /* \"#utility.yul\":23993:24000   */\n      dup4\n        /* \"#utility.yul\":23990:24009   */\n      lt\n        /* \"#utility.yul\":23987:24166   */\n      iszero\n      tag_504\n      jumpi\n        /* \"#utility.yul\":24060:24069   */\n      dup5\n        /* \"#utility.yul\":24055:24058   */\n      dup10\n        /* \"#utility.yul\":24051:24070   */\n      add\n        /* \"#utility.yul\":24045:24071   */\n      mload\n        /* \"#utility.yul\":24103:24151   */\n      tag_505\n        /* \"#utility.yul\":24145:24149   */\n      0x1f\n        /* \"#utility.yul\":24137:24143   */\n      dup10\n        /* \"#utility.yul\":24133:24150   */\n      and\n        /* \"#utility.yul\":24122:24131   */\n      dup3\n        /* \"#utility.yul\":24103:24151   */\n      tag_270\n      jump\t// in\n    tag_505:\n        /* \"#utility.yul\":24095:24101   */\n      dup4\n        /* \"#utility.yul\":24088:24152   */\n      sstore\n        /* \"#utility.yul\":24010:24166   */\n      pop\n        /* \"#utility.yul\":23987:24166   */\n    tag_504:\n        /* \"#utility.yul\":24212:24213   */\n      0x01\n        /* \"#utility.yul\":24208:24209   */\n      0x02\n        /* \"#utility.yul\":24200:24206   */\n      dup9\n        /* \"#utility.yul\":24196:24210   */\n      mul\n        /* \"#utility.yul\":24192:24214   */\n      add\n        /* \"#utility.yul\":24186:24190   */\n      dup9\n        /* \"#utility.yul\":24179:24215   */\n      sstore\n        /* \"#utility.yul\":23614:24225   */\n      pop\n      pop\n      pop\n        /* \"#utility.yul\":23577:24464   */\n    tag_496:\n      pop\n        /* \"#utility.yul\":23167:24470   */\n      pop\n      pop\n      pop\n        /* \"#utility.yul\":23075:24470   */\n      pop\n      pop\n      jump\t// out\n        /* \"#utility.yul\":24476:24624   */\n    tag_272:\n        /* \"#utility.yul\":24578:24589   */\n      0x00\n        /* \"#utility.yul\":24615:24618   */\n      dup2\n        /* \"#utility.yul\":24600:24618   */\n      swap1\n      pop\n        /* \"#utility.yul\":24476:24624   */\n      swap3\n      swap2\n      pop\n      pop\n      jump\t// out\n        /* \"#utility.yul\":24630:25020   */\n    tag_273:\n        /* \"#utility.yul\":24736:24739   */\n      0x00\n        /* \"#utility.yul\":24764:24803   */\n      tag_508\n        /* \"#utility.yul\":24797:24802   */\n      dup3\n        /* \"#utility.yul\":24764:24803   */\n      tag_241\n      jump\t// in\n    tag_508:\n        /* \"#utility.yul\":24819:24908   */\n      tag_509\n        /* \"#utility.yul\":24901:24907   */\n      dup2\n        /* \"#utility.yul\":24896:24899   */\n      dup6\n        /* \"#utility.yul\":24819:24908   */\n      tag_272\n      jump\t// in\n    tag_509:\n        /* \"#utility.yul\":24812:24908   */\n      swap4\n      pop\n        /* \"#utility.yul\":24917:24982   */\n      tag_510\n        /* \"#utility.yul\":24975:24981   */\n      dup2\n        /* \"#utility.yul\":24970:24973   */\n      dup6\n        /* \"#utility.yul\":24963:24967   */\n      0x20\n        /* \"#utility.yul\":24956:24961   */\n      dup7\n        /* \"#utility.yul\":24952:24968   */\n      add\n        /* \"#utility.yul\":24917:24982   */\n      tag_243\n      jump\t// in\n    tag_510:\n        /* \"#utility.yul\":25007:25013   */\n      dup1\n        /* \"#utility.yul\":25002:25005   */\n      dup5\n        /* \"#utility.yul\":24998:25014   */\n      add\n        /* \"#utility.yul\":24991:25014   */\n      swap2\n      pop\n        /* \"#utility.yul\":24740:25020   */\n      pop\n        /* \"#utility.yul\":24630:25020   */\n      swap3\n      swap2\n      pop\n      pop\n      jump\t// out\n        /* \"#utility.yul\":25026:25301   */\n    tag_88:\n        /* \"#utility.yul\":25158:25161   */\n      0x00\n        /* \"#utility.yul\":25180:25275   */\n      tag_512\n        /* \"#utility.yul\":25271:25274   */\n      dup3\n        /* \"#utility.yul\":25262:25268   */\n      dup5\n        /* \"#utility.yul\":25180:25275   */\n      tag_273\n      jump\t// in\n    tag_512:\n        /* \"#utility.yul\":25173:25275   */\n      swap2\n      pop\n        /* \"#utility.yul\":25292:25295   */\n      dup2\n        /* \"#utility.yul\":25285:25295   */\n      swap1\n      pop\n        /* \"#utility.yul\":25026:25301   */\n      swap3\n      swap2\n      pop\n      pop\n      jump\t// out\n        /* \"#utility.yul\":25331:26205   */\n    tag_274:\n        /* \"#utility.yul\":25434:25437   */\n      0x00\n        /* \"#utility.yul\":25471:25476   */\n      dup2\n        /* \"#utility.yul\":25465:25477   */\n      sload\n        /* \"#utility.yul\":25500:25536   */\n      tag_514\n        /* \"#utility.yul\":25526:25535   */\n      dup2\n        /* \"#utility.yul\":25500:25536   */\n      tag_108\n      jump\t// in\n    tag_514:\n        /* \"#utility.yul\":25552:25641   */\n      tag_515\n        /* \"#utility.yul\":25634:25640   */\n      dup2\n        /* \"#utility.yul\":25629:25632   */\n      dup7\n        /* \"#utility.yul\":25552:25641   */\n      tag_272\n      jump\t// in\n    tag_515:\n        /* \"#utility.yul\":25545:25641   */\n      swap5\n      pop\n        /* \"#utility.yul\":25672:25673   */\n      0x01\n        /* \"#utility.yul\":25661:25670   */\n      dup3\n        /* \"#utility.yul\":25657:25674   */\n      and\n        /* \"#utility.yul\":25688:25689   */\n      0x00\n        /* \"#utility.yul\":25683:25849   */\n      dup2\n      eq\n      tag_517\n      jumpi\n        /* \"#utility.yul\":25863:25864   */\n      0x01\n        /* \"#utility.yul\":25858:26199   */\n      dup2\n      eq\n      tag_518\n      jumpi\n        /* \"#utility.yul\":25650:26199   */\n      jump(tag_516)\n        /* \"#utility.yul\":25683:25849   */\n    tag_517:\n        /* \"#utility.yul\":25767:25771   */\n      0xff\n        /* \"#utility.yul\":25763:25772   */\n      not\n        /* \"#utility.yul\":25752:25761   */\n      dup4\n        /* \"#utility.yul\":25748:25773   */\n      and\n        /* \"#utility.yul\":25743:25746   */\n      dup7\n        /* \"#utility.yul\":25736:25774   */\n      mstore\n        /* \"#utility.yul\":25829:25835   */\n      dup2\n        /* \"#utility.yul\":25822:25836   */\n      iszero\n        /* \"#utility.yul\":25815:25837   */\n      iszero\n        /* \"#utility.yul\":25807:25813   */\n      dup3\n        /* \"#utility.yul\":25803:25838   */\n      mul\n        /* \"#utility.yul\":25798:25801   */\n      dup7\n        /* \"#utility.yul\":25794:25839   */\n      add\n        /* \"#utility.yul\":25787:25839   */\n      swap4\n      pop\n        /* \"#utility.yul\":25683:25849   */\n      jump(tag_516)\n        /* \"#utility.yul\":25858:26199   */\n    tag_518:\n        /* \"#utility.yul\":25925:25963   */\n      tag_519\n        /* \"#utility.yul\":25957:25962   */\n      dup6\n        /* \"#utility.yul\":25925:25963   */\n      tag_257\n      jump\t// in\n    tag_519:\n        /* \"#utility.yul\":25985:25986   */\n      0x00\n        /* \"#utility.yul\":25999:26153   */\n    tag_520:\n        /* \"#utility.yul\":26013:26019   */\n      dup4\n        /* \"#utility.yul\":26010:26011   */\n      dup2\n        /* \"#utility.yul\":26007:26020   */\n      lt\n        /* \"#utility.yul\":25999:26153   */\n      iszero\n      tag_522\n      jumpi\n        /* \"#utility.yul\":26087:26094   */\n      dup2\n        /* \"#utility.yul\":26081:26095   */\n      sload\n        /* \"#utility.yul\":26077:26078   */\n      dup2\n        /* \"#utility.yul\":26072:26075   */\n      dup10\n        /* \"#utility.yul\":26068:26079   */\n      add\n        /* \"#utility.yul\":26061:26096   */\n      mstore\n        /* \"#utility.yul\":26137:26138   */\n      0x01\n        /* \"#utility.yul\":26128:26135   */\n      dup3\n        /* \"#utility.yul\":26124:26139   */\n      add\n        /* \"#utility.yul\":26113:26139   */\n      swap2\n      pop\n        /* \"#utility.yul\":26035:26039   */\n      0x20\n        /* \"#utility.yul\":26032:26033   */\n      dup2\n        /* \"#utility.yul\":26028:26040   */\n      add\n        /* \"#utility.yul\":26023:26040   */\n      swap1\n      pop\n        /* \"#utility.yul\":25999:26153   */\n      jump(tag_520)\n    tag_522:\n        /* \"#utility.yul\":26182:26188   */\n      dup4\n        /* \"#utility.yul\":26177:26180   */\n      dup9\n        /* \"#utility.yul\":26173:26189   */\n      add\n        /* \"#utility.yul\":26166:26189   */\n      swap6\n      pop\n        /* \"#utility.yul\":25865:26199   */\n      pop\n      pop\n        /* \"#utility.yul\":25650:26199   */\n    tag_516:\n      pop\n        /* \"#utility.yul\":25438:26205   */\n      pop\n      pop\n        /* \"#utility.yul\":25331:26205   */\n      swap3\n      swap2\n      pop\n      pop\n      jump\t// out\n        /* \"#utility.yul\":26211:26480   */\n    tag_90:\n        /* \"#utility.yul\":26340:26343   */\n      0x00\n        /* \"#utility.yul\":26362:26454   */\n      tag_524\n        /* \"#utility.yul\":26450:26453   */\n      dup3\n        /* \"#utility.yul\":26441:26447   */\n      dup5\n        /* \"#utility.yul\":26362:26454   */\n      tag_274\n      jump\t// in\n    tag_524:\n        /* \"#utility.yul\":26355:26454   */\n      swap2\n      pop\n        /* \"#utility.yul\":26471:26474   */\n      dup2\n        /* \"#utility.yul\":26464:26474   */\n      swap1\n      pop\n        /* \"#utility.yul\":26211:26480   */\n      swap3\n      swap2\n      pop\n      pop\n      jump\t// out\n        /* \"#utility.yul\":26486:26680   */\n    tag_212:\n        /* \"#utility.yul\":26526:26530   */\n      0x00\n        /* \"#utility.yul\":26546:26566   */\n      tag_526\n        /* \"#utility.yul\":26564:26565   */\n      dup3\n        /* \"#utility.yul\":26546:26566   */\n      tag_233\n      jump\t// in\n    tag_526:\n        /* \"#utility.yul\":26541:26566   */\n      swap2\n      pop\n        /* \"#utility.yul\":26580:26600   */\n      tag_527\n        /* \"#utility.yul\":26598:26599   */\n      dup4\n        /* \"#utility.yul\":26580:26600   */\n      tag_233\n      jump\t// in\n    tag_527:\n        /* \"#utility.yul\":26575:26600   */\n      swap3\n      pop\n        /* \"#utility.yul\":26624:26625   */\n      dup3\n        /* \"#utility.yul\":26621:26622   */\n      dup3\n        /* \"#utility.yul\":26617:26626   */\n      sub\n        /* \"#utility.yul\":26609:26626   */\n      swap1\n      pop\n        /* \"#utility.yul\":26648:26649   */\n      dup2\n        /* \"#utility.yul\":26642:26646   */\n      dup2\n        /* \"#utility.yul\":26639:26650   */\n      gt\n        /* \"#utility.yul\":26636:26673   */\n      iszero\n      tag_528\n      jumpi\n        /* \"#utility.yul\":26653:26671   */\n      tag_529\n      tag_255\n      jump\t// in\n    tag_529:\n        /* \"#utility.yul\":26636:26673   */\n    tag_528:\n        /* \"#utility.yul\":26486:26680   */\n      swap3\n      swap2\n      pop\n      pop\n      jump\t// out\n\n    auxdata: 0xa264697066735822122080e62811a1da19128b507bbe91728c2ab424eb6ab72004be90025f6edf8ad3b164736f6c63430008100033\n}\n",
				"bytecode": {
					"linkReferences": {},
					"object": "608060405234801561001057600080fd5b50611f6c806100206000396000f3fe608060405234801561001057600080fd5b50600436106100575760003560e01c80630138f38d1461005c5780632ef8750f146100785780633f0a54a6146100a8578063a5773610146100de578063cf810953146100fc575b600080fd5b610076600480360381019061007191906114e5565b61011a565b005b610092600480360381019061008d919061164b565b610467565b60405161009f91906118a3565b60405180910390f35b6100c260048036038101906100bd91906118c5565b6109b3565b6040516100d5979695949392919061194b565b60405180910390f35b6100e6610d25565b6040516100f391906118a3565b60405180910390f35b610104611169565b60405161011191906119e4565b60405180910390f35b8551875114801561012c575084518651145b8015610139575083518551145b8015610146575082518451145b8015610153575081518351145b8015610160575080518251145b61019f576040517f08c379a000000000000000000000000000000000000000000000000000000000815260040161019690611a71565b60405180910390fd5b60005b875181101561045d57600160008154809291906101be90611ac0565b91905055506040518060e001604052808983815181106101e1576101e0611b08565b5b6020026020010151815260200188838151811061020157610200611b08565b5b6020026020010151815260200187838151811061022157610220611b08565b5b6020026020010151815260200186838151811061024157610240611b08565b5b6020026020010151815260200185838151811061026157610260611b08565b5b6020026020010151815260200184838151811061028157610280611b08565b5b602002602001015181526020018383815181106102a1576102a0611b08565b5b6020026020010151815250600080600154815260200190815260200160002060008201518160000190816102d59190611d43565b5060208201518160010190816102eb9190611d43565b5060408201518160020190816103019190611d43565b5060608201518160030190816103179190611d43565b50608082015181600401908161032d9190611d43565b5060a08201518160050190816103439190611d43565b5060c082015181600601559050507f4f528c4065463b433ef40b7b305c5e7b22cb8947f69d5f4f8d4205d8b975a09e88828151811061038557610384611b08565b5b60200260200101518883815181106103a05761039f611b08565b5b60200260200101518884815181106103bb576103ba611b08565b5b60200260200101518885815181106103d6576103d5611b08565b5b60200260200101518886815181106103f1576103f0611b08565b5b602002602001015188878151811061040c5761040b611b08565b5b602002602001015188888151811061042757610426611b08565b5b6020026020010151604051610442979695949392919061194b565b60405180910390a1808061045590611ac0565b9150506101a2565b5050505050505050565b6060600080600190505b6001548111610503578360405160200161048b9190611e51565b604051602081830303815290604052805190602001206000808381526020019081526020016000206000016040516020016104c69190611eeb565b60405160208183030381529060405280519060200120036104f05781806104ec90611ac0565b9250505b80806104fb90611ac0565b915050610471565b5060008167ffffffffffffffff8111156105205761051f6111d6565b5b60405190808252806020026020018201604052801561055957816020015b61054661116f565b81526020019060019003908161053e5790505b509050600080600190505b60015481116109a7578560405160200161057e9190611e51565b604051602081830303815290604052805190602001206000808381526020019081526020016000206000016040516020016105b99190611eeb565b6040516020818303038152906040528051906020012003610994576000808281526020019081526020016000206040518060e001604052908160008201805461060190611b66565b80601f016020809104026020016040519081016040528092919081815260200182805461062d90611b66565b801561067a5780601f1061064f5761010080835404028352916020019161067a565b820191906000526020600020905b81548152906001019060200180831161065d57829003601f168201915b5050505050815260200160018201805461069390611b66565b80601f01602080910402602001604051908101604052809291908181526020018280546106bf90611b66565b801561070c5780601f106106e15761010080835404028352916020019161070c565b820191906000526020600020905b8154815290600101906020018083116106ef57829003601f168201915b5050505050815260200160028201805461072590611b66565b80601f016020809104026020016040519081016040528092919081815260200182805461075190611b66565b801561079e5780601f106107735761010080835404028352916020019161079e565b820191906000526020600020905b81548152906001019060200180831161078157829003601f168201915b505050505081526020016003820180546107b790611b66565b80601f01602080910402602001604051908101604052809291908181526020018280546107e390611b66565b80156108305780601f1061080557610100808354040283529160200191610830565b820191906000526020600020905b81548152906001019060200180831161081357829003601f168201915b5050505050815260200160048201805461084990611b66565b80601f016020809104026020016040519081016040528092919081815260200182805461087590611b66565b80156108c25780601f10610897576101008083540402835291602001916108c2565b820191906000526020600020905b8154815290600101906020018083116108a557829003601f168201915b505050505081526020016005820180546108db90611b66565b80601f016020809104026020016040519081016040528092919081815260200182805461090790611b66565b80156109545780601f1061092957610100808354040283529160200191610954565b820191906000526020600020905b81548152906001019060200180831161093757829003601f168201915b5050505050815260200160068201548152505083838151811061097a57610979611b08565b5b6020026020010181905250818061099090611ac0565b9250505b808061099f90611ac0565b915050610564565b50819350505050919050565b60006020528060005260406000206000915090508060000180546109d690611b66565b80601f0160208091040260200160405190810160405280929190818152602001828054610a0290611b66565b8015610a4f5780601f10610a2457610100808354040283529160200191610a4f565b820191906000526020600020905b815481529060010190602001808311610a3257829003601f168201915b505050505090806001018054610a6490611b66565b80601f0160208091040260200160405190810160405280929190818152602001828054610a9090611b66565b8015610add5780601f10610ab257610100808354040283529160200191610add565b820191906000526020600020905b815481529060010190602001808311610ac057829003601f168201915b505050505090806002018054610af290611b66565b80601f0160208091040260200160405190810160405280929190818152602001828054610b1e90611b66565b8015610b6b5780601f10610b4057610100808354040283529160200191610b6b565b820191906000526020600020905b815481529060010190602001808311610b4e57829003601f168201915b505050505090806003018054610b8090611b66565b80601f0160208091040260200160405190810160405280929190818152602001828054610bac90611b66565b8015610bf95780601f10610bce57610100808354040283529160200191610bf9565b820191906000526020600020905b815481529060010190602001808311610bdc57829003601f168201915b505050505090806004018054610c0e90611b66565b80601f0160208091040260200160405190810160405280929190818152602001828054610c3a90611b66565b8015610c875780601f10610c5c57610100808354040283529160200191610c87565b820191906000526020600020905b815481529060010190602001808311610c6a57829003601f168201915b505050505090806005018054610c9c90611b66565b80601f0160208091040260200160405190810160405280929190818152602001828054610cc890611b66565b8015610d155780601f10610cea57610100808354040283529160200191610d15565b820191906000526020600020905b815481529060010190602001808311610cf857829003601f168201915b5050505050908060060154905087565b6060600060015467ffffffffffffffff811115610d4557610d446111d6565b5b604051908082528060200260200182016040528015610d7e57816020015b610d6b61116f565b815260200190600190039081610d635790505b5090506000600190505b6001548111611161576000808281526020019081526020016000206040518060e0016040529081600082018054610dbe90611b66565b80601f0160208091040260200160405190810160405280929190818152602001828054610dea90611b66565b8015610e375780601f10610e0c57610100808354040283529160200191610e37565b820191906000526020600020905b815481529060010190602001808311610e1a57829003601f168201915b50505050508152602001600182018054610e5090611b66565b80601f0160208091040260200160405190810160405280929190818152602001828054610e7c90611b66565b8015610ec95780601f10610e9e57610100808354040283529160200191610ec9565b820191906000526020600020905b815481529060010190602001808311610eac57829003601f168201915b50505050508152602001600282018054610ee290611b66565b80601f0160208091040260200160405190810160405280929190818152602001828054610f0e90611b66565b8015610f5b5780601f10610f3057610100808354040283529160200191610f5b565b820191906000526020600020905b815481529060010190602001808311610f3e57829003601f168201915b50505050508152602001600382018054610f7490611b66565b80601f0160208091040260200160405190810160405280929190818152602001828054610fa090611b66565b8015610fed5780601f10610fc257610100808354040283529160200191610fed565b820191906000526020600020905b815481529060010190602001808311610fd057829003601f168201915b5050505050815260200160048201805461100690611b66565b80601f016020809104026020016040519081016040528092919081815260200182805461103290611b66565b801561107f5780601f106110545761010080835404028352916020019161107f565b820191906000526020600020905b81548152906001019060200180831161106257829003601f168201915b5050505050815260200160058201805461109890611b66565b80601f01602080910402602001604051908101604052809291908181526020018280546110c490611b66565b80156111115780601f106110e657610100808354040283529160200191611111565b820191906000526020600020905b8154815290600101906020018083116110f457829003601f168201915b50505050508152602001600682015481525050826001836111329190611f02565b8151811061114357611142611b08565b5b6020026020010181905250808061115990611ac0565b915050610d88565b508091505090565b60015481565b6040518060e00160405280606081526020016060815260200160608152602001606081526020016060815260200160608152602001600081525090565b6000604051905090565b600080fd5b600080fd5b600080fd5b6000601f19601f8301169050919050565b7f4e487b7100000000000000000000000000000000000000000000000000000000600052604160045260246000fd5b61120e826111c5565b810181811067ffffffffffffffff8211171561122d5761122c6111d6565b5b80604052505050565b60006112406111ac565b905061124c8282611205565b919050565b600067ffffffffffffffff82111561126c5761126b6111d6565b5b602082029050602081019050919050565b600080fd5b600080fd5b600067ffffffffffffffff8211156112a2576112a16111d6565b5b6112ab826111c5565b9050602081019050919050565b82818337600083830152505050565b60006112da6112d584611287565b611236565b9050828152602081018484840111156112f6576112f5611282565b5b6113018482856112b8565b509392505050565b600082601f83011261131e5761131d6111c0565b5b813561132e8482602086016112c7565b91505092915050565b600061134a61134584611251565b611236565b9050808382526020820190506020840283018581111561136d5761136c61127d565b5b835b818110156113b457803567ffffffffffffffff811115611392576113916111c0565b5b80860161139f8982611309565b8552602085019450505060208101905061136f565b5050509392505050565b600082601f8301126113d3576113d26111c0565b5b81356113e3848260208601611337565b91505092915050565b600067ffffffffffffffff821115611407576114066111d6565b5b602082029050602081019050919050565b6000819050919050565b61142b81611418565b811461143657600080fd5b50565b60008135905061144881611422565b92915050565b600061146161145c846113ec565b611236565b905080838252602082019050602084028301858111156114845761148361127d565b5b835b818110156114ad57806114998882611439565b845260208401935050602081019050611486565b5050509392505050565b600082601f8301126114cc576114cb6111c0565b5b81356114dc84826020860161144e565b91505092915050565b600080600080600080600060e0888a031215611504576115036111b6565b5b600088013567ffffffffffffffff811115611522576115216111bb565b5b61152e8a828b016113be565b975050602088013567ffffffffffffffff81111561154f5761154e6111bb565b5b61155b8a828b016113be565b965050604088013567ffffffffffffffff81111561157c5761157b6111bb565b5b6115888a828b016113be565b955050606088013567ffffffffffffffff8111156115a9576115a86111bb565b5b6115b58a828b016113be565b945050608088013567ffffffffffffffff8111156115d6576115d56111bb565b5b6115e28a828b016113be565b93505060a088013567ffffffffffffffff811115611603576116026111bb565b5b61160f8a828b016113be565b92505060c088013567ffffffffffffffff8111156116305761162f6111bb565b5b61163c8a828b016114b7565b91505092959891949750929550565b600060208284031215611661576116606111b6565b5b600082013567ffffffffffffffff81111561167f5761167e6111bb565b5b61168b84828501611309565b91505092915050565b600081519050919050565b600082825260208201905092915050565b6000819050602082019050919050565b600081519050919050565b600082825260208201905092915050565b60005b838110156116fa5780820151818401526020810190506116df565b60008484015250505050565b6000611711826116c0565b61171b81856116cb565b935061172b8185602086016116dc565b611734816111c5565b840191505092915050565b61174881611418565b82525050565b600060e083016000830151848203600086015261176b8282611706565b915050602083015184820360208601526117858282611706565b9150506040830151848203604086015261179f8282611706565b915050606083015184820360608601526117b98282611706565b915050608083015184820360808601526117d38282611706565b91505060a083015184820360a08601526117ed8282611706565b91505060c083015161180260c086018261173f565b508091505092915050565b6000611819838361174e565b905092915050565b6000602082019050919050565b600061183982611694565b611843818561169f565b935083602082028501611855856116b0565b8060005b858110156118915784840389528151611872858261180d565b945061187d83611821565b925060208a01995050600181019050611859565b50829750879550505050505092915050565b600060208201905081810360008301526118bd818461182e565b905092915050565b6000602082840312156118db576118da6111b6565b5b60006118e984828501611439565b91505092915050565b600082825260208201905092915050565b600061190e826116c0565b61191881856118f2565b93506119288185602086016116dc565b611931816111c5565b840191505092915050565b61194581611418565b82525050565b600060e0820190508181036000830152611965818a611903565b905081810360208301526119798189611903565b9050818103604083015261198d8188611903565b905081810360608301526119a18187611903565b905081810360808301526119b58186611903565b905081810360a08301526119c98185611903565b90506119d860c083018461193c565b98975050505050505050565b60006020820190506119f9600083018461193c565b92915050565b7f4c656e67746873206f6620696e7075742061727261797320646f206e6f74206d60008201527f6174636800000000000000000000000000000000000000000000000000000000602082015250565b6000611a5b6024836118f2565b9150611a66826119ff565b604082019050919050565b60006020820190508181036000830152611a8a81611a4e565b9050919050565b7f4e487b7100000000000000000000000000000000000000000000000000000000600052601160045260246000fd5b6000611acb82611418565b91507fffffffffffffffffffffffffffffffffffffffffffffffffffffffffffffffff8203611afd57611afc611a91565b5b600182019050919050565b7f4e487b7100000000000000000000000000000000000000000000000000000000600052603260045260246000fd5b7f4e487b7100000000000000000000000000000000000000000000000000000000600052602260045260246000fd5b60006002820490506001821680611b7e57607f821691505b602082108103611b9157611b90611b37565b5b50919050565b60008190508160005260206000209050919050565b60006020601f8301049050919050565b600082821b905092915050565b600060088302611bf97fffffffffffffffffffffffffffffffffffffffffffffffffffffffffffffffff82611bbc565b611c038683611bbc565b95508019841693508086168417925050509392505050565b6000819050919050565b6000611c40611c3b611c3684611418565b611c1b565b611418565b9050919050565b6000819050919050565b611c5a83611c25565b611c6e611c6682611c47565b848454611bc9565b825550505050565b600090565b611c83611c76565b611c8e818484611c51565b505050565b5b81811015611cb257611ca7600082611c7b565b600181019050611c94565b5050565b601f821115611cf757611cc881611b97565b611cd184611bac565b81016020851015611ce0578190505b611cf4611cec85611bac565b830182611c93565b50505b505050565b600082821c905092915050565b6000611d1a60001984600802611cfc565b1980831691505092915050565b6000611d338383611d09565b9150826002028217905092915050565b611d4c826116c0565b67ffffffffffffffff811115611d6557611d646111d6565b5b611d6f8254611b66565b611d7a828285611cb6565b600060209050601f831160018114611dad5760008415611d9b578287015190505b611da58582611d27565b865550611e0d565b601f198416611dbb86611b97565b60005b82811015611de357848901518255600182019150602085019450602081019050611dbe565b86831015611e005784890151611dfc601f891682611d09565b8355505b6001600288020188555050505b505050505050565b600081905092915050565b6000611e2b826116c0565b611e358185611e15565b9350611e458185602086016116dc565b80840191505092915050565b6000611e5d8284611e20565b915081905092915050565b60008154611e7581611b66565b611e7f8186611e15565b94506001821660008114611e9a5760018114611eaf57611ee2565b60ff1983168652811515820286019350611ee2565b611eb885611b97565b60005b83811015611eda57815481890152600182019150602081019050611ebb565b838801955050505b50505092915050565b6000611ef78284611e68565b915081905092915050565b6000611f0d82611418565b9150611f1883611418565b9250828203905081811115611f3057611f2f611a91565b5b9291505056fea264697066735822122080e62811a1da19128b507bbe91728c2ab424eb6ab72004be90025f6edf8ad3b164736f6c63430008100033",
					"opcodes": "PUSH1 0x80 PUSH1 0x40 MSTORE CALLVALUE DUP1 ISZERO PUSH2 0x10 JUMPI PUSH1 0x0 DUP1 REVERT JUMPDEST POP PUSH2 0x1F6C DUP1 PUSH2 0x20 PUSH1 0x0 CODECOPY PUSH1 0x0 RETURN INVALID PUSH1 0x80 PUSH1 0x40 MSTORE CALLVALUE DUP1 ISZERO PUSH2 0x10 JUMPI PUSH1 0x0 DUP1 REVERT JUMPDEST POP PUSH1 0x4 CALLDATASIZE LT PUSH2 0x57 JUMPI PUSH1 0x0 CALLDATALOAD PUSH1 0xE0 SHR DUP1 PUSH4 0x138F38D EQ PUSH2 0x5C JUMPI DUP1 PUSH4 0x2EF8750F EQ PUSH2 0x78 JUMPI DUP1 PUSH4 0x3F0A54A6 EQ PUSH2 0xA8 JUMPI DUP1 PUSH4 0xA5773610 EQ PUSH2 0xDE JUMPI DUP1 PUSH4 0xCF810953 EQ PUSH2 0xFC JUMPI JUMPDEST PUSH1 0x0 DUP1 REVERT JUMPDEST PUSH2 0x76 PUSH1 0x4 DUP1 CALLDATASIZE SUB DUP2 ADD SWAP1 PUSH2 0x71 SWAP2 SWAP1 PUSH2 0x14E5 JUMP JUMPDEST PUSH2 0x11A JUMP JUMPDEST STOP JUMPDEST PUSH2 0x92 PUSH1 0x4 DUP1 CALLDATASIZE SUB DUP2 ADD SWAP1 PUSH2 0x8D SWAP2 SWAP1 PUSH2 0x164B JUMP JUMPDEST PUSH2 0x467 JUMP JUMPDEST PUSH1 0x40 MLOAD PUSH2 0x9F SWAP2 SWAP1 PUSH2 0x18A3 JUMP JUMPDEST PUSH1 0x40 MLOAD DUP1 SWAP2 SUB SWAP1 RETURN JUMPDEST PUSH2 0xC2 PUSH1 0x4 DUP1 CALLDATASIZE SUB DUP2 ADD SWAP1 PUSH2 0xBD SWAP2 SWAP1 PUSH2 0x18C5 JUMP JUMPDEST PUSH2 0x9B3 JUMP JUMPDEST PUSH1 0x40 MLOAD PUSH2 0xD5 SWAP8 SWAP7 SWAP6 SWAP5 SWAP4 SWAP3 SWAP2 SWAP1 PUSH2 0x194B JUMP JUMPDEST PUSH1 0x40 MLOAD DUP1 SWAP2 SUB SWAP1 RETURN JUMPDEST PUSH2 0xE6 PUSH2 0xD25 JUMP JUMPDEST PUSH1 0x40 MLOAD PUSH2 0xF3 SWAP2 SWAP1 PUSH2 0x18A3 JUMP JUMPDEST PUSH1 0x40 MLOAD DUP1 SWAP2 SUB SWAP1 RETURN JUMPDEST PUSH2 0x104 PUSH2 0x1169 JUMP JUMPDEST PUSH1 0x40 MLOAD PUSH2 0x111 SWAP2 SWAP1 PUSH2 0x19E4 JUMP JUMPDEST PUSH1 0x40 MLOAD DUP1 SWAP2 SUB SWAP1 RETURN JUMPDEST DUP6 MLOAD DUP8 MLOAD EQ DUP1 ISZERO PUSH2 0x12C JUMPI POP DUP5 MLOAD DUP7 MLOAD EQ JUMPDEST DUP1 ISZERO PUSH2 0x139 JUMPI POP DUP4 MLOAD DUP6 MLOAD EQ JUMPDEST DUP1 ISZERO PUSH2 0x146 JUMPI POP DUP3 MLOAD DUP5 MLOAD EQ JUMPDEST DUP1 ISZERO PUSH2 0x153 JUMPI POP DUP2 MLOAD DUP4 MLOAD EQ JUMPDEST DUP1 ISZERO PUSH2 0x160 JUMPI POP DUP1 MLOAD DUP3 MLOAD EQ JUMPDEST PUSH2 0x19F JUMPI PUSH1 0x40 MLOAD PUSH32 0x8C379A000000000000000000000000000000000000000000000000000000000 DUP2 MSTORE PUSH1 0x4 ADD PUSH2 0x196 SWAP1 PUSH2 0x1A71 JUMP JUMPDEST PUSH1 0x40 MLOAD DUP1 SWAP2 SUB SWAP1 REVERT JUMPDEST PUSH1 0x0 JUMPDEST DUP8 MLOAD DUP2 LT ISZERO PUSH2 0x45D JUMPI PUSH1 0x1 PUSH1 0x0 DUP2 SLOAD DUP1 SWAP3 SWAP2 SWAP1 PUSH2 0x1BE SWAP1 PUSH2 0x1AC0 JUMP JUMPDEST SWAP2 SWAP1 POP SSTORE POP PUSH1 0x40 MLOAD DUP1 PUSH1 0xE0 ADD PUSH1 0x40 MSTORE DUP1 DUP10 DUP4 DUP2 MLOAD DUP2 LT PUSH2 0x1E1 JUMPI PUSH2 0x1E0 PUSH2 0x1B08 JUMP JUMPDEST JUMPDEST PUSH1 0x20 MUL PUSH1 0x20 ADD ADD MLOAD DUP2 MSTORE PUSH1 0x20 ADD DUP9 DUP4 DUP2 MLOAD DUP2 LT PUSH2 0x201 JUMPI PUSH2 0x200 PUSH2 0x1B08 JUMP JUMPDEST JUMPDEST PUSH1 0x20 MUL PUSH1 0x20 ADD ADD MLOAD DUP2 MSTORE PUSH1 0x20 ADD DUP8 DUP4 DUP2 MLOAD DUP2 LT PUSH2 0x221 JUMPI PUSH2 0x220 PUSH2 0x1B08 JUMP JUMPDEST JUMPDEST PUSH1 0x20 MUL PUSH1 0x20 ADD ADD MLOAD DUP2 MSTORE PUSH1 0x20 ADD DUP7 DUP4 DUP2 MLOAD DUP2 LT PUSH2 0x241 JUMPI PUSH2 0x240 PUSH2 0x1B08 JUMP JUMPDEST JUMPDEST PUSH1 0x20 MUL PUSH1 0x20 ADD ADD MLOAD DUP2 MSTORE PUSH1 0x20 ADD DUP6 DUP4 DUP2 MLOAD DUP2 LT PUSH2 0x261 JUMPI PUSH2 0x260 PUSH2 0x1B08 JUMP JUMPDEST JUMPDEST PUSH1 0x20 MUL PUSH1 0x20 ADD ADD MLOAD DUP2 MSTORE PUSH1 0x20 ADD DUP5 DUP4 DUP2 MLOAD DUP2 LT PUSH2 0x281 JUMPI PUSH2 0x280 PUSH2 0x1B08 JUMP JUMPDEST JUMPDEST PUSH1 0x20 MUL PUSH1 0x20 ADD ADD MLOAD DUP2 MSTORE PUSH1 0x20 ADD DUP4 DUP4 DUP2 MLOAD DUP2 LT PUSH2 0x2A1 JUMPI PUSH2 0x2A0 PUSH2 0x1B08 JUMP JUMPDEST JUMPDEST PUSH1 0x20 MUL PUSH1 0x20 ADD ADD MLOAD DUP2 MSTORE POP PUSH1 0x0 DUP1 PUSH1 0x1 SLOAD DUP2 MSTORE PUSH1 0x20 ADD SWAP1 DUP2 MSTORE PUSH1 0x20 ADD PUSH1 0x0 KECCAK256 PUSH1 0x0 DUP3 ADD MLOAD DUP2 PUSH1 0x0 ADD SWAP1 DUP2 PUSH2 0x2D5 SWAP2 SWAP1 PUSH2 0x1D43 JUMP JUMPDEST POP PUSH1 0x20 DUP3 ADD MLOAD DUP2 PUSH1 0x1 ADD SWAP1 DUP2 PUSH2 0x2EB SWAP2 SWAP1 PUSH2 0x1D43 JUMP JUMPDEST POP PUSH1 0x40 DUP3 ADD MLOAD DUP2 PUSH1 0x2 ADD SWAP1 DUP2 PUSH2 0x301 SWAP2 SWAP1 PUSH2 0x1D43 JUMP JUMPDEST POP PUSH1 0x60 DUP3 ADD MLOAD DUP2 PUSH1 0x3 ADD SWAP1 DUP2 PUSH2 0x317 SWAP2 SWAP1 PUSH2 0x1D43 JUMP JUMPDEST POP PUSH1 0x80 DUP3 ADD MLOAD DUP2 PUSH1 0x4 ADD SWAP1 DUP2 PUSH2 0x32D SWAP2 SWAP1 PUSH2 0x1D43 JUMP JUMPDEST POP PUSH1 0xA0 DUP3 ADD MLOAD DUP2 PUSH1 0x5 ADD SWAP1 DUP2 PUSH2 0x343 SWAP2 SWAP1 PUSH2 0x1D43 JUMP JUMPDEST POP PUSH1 0xC0 DUP3 ADD MLOAD DUP2 PUSH1 0x6 ADD SSTORE SWAP1 POP POP PUSH32 0x4F528C4065463B433EF40B7B305C5E7B22CB8947F69D5F4F8D4205D8B975A09E DUP9 DUP3 DUP2 MLOAD DUP2 LT PUSH2 0x385 JUMPI PUSH2 0x384 PUSH2 0x1B08 JUMP JUMPDEST JUMPDEST PUSH1 0x20 MUL PUSH1 0x20 ADD ADD MLOAD DUP9 DUP4 DUP2 MLOAD DUP2 LT PUSH2 0x3A0 JUMPI PUSH2 0x39F PUSH2 0x1B08 JUMP JUMPDEST JUMPDEST PUSH1 0x20 MUL PUSH1 0x20 ADD ADD MLOAD DUP9 DUP5 DUP2 MLOAD DUP2 LT PUSH2 0x3BB JUMPI PUSH2 0x3BA PUSH2 0x1B08 JUMP JUMPDEST JUMPDEST PUSH1 0x20 MUL PUSH1 0x20 ADD ADD MLOAD DUP9 DUP6 DUP2 MLOAD DUP2 LT PUSH2 0x3D6 JUMPI PUSH2 0x3D5 PUSH2 0x1B08 JUMP JUMPDEST JUMPDEST PUSH1 0x20 MUL PUSH1 0x20 ADD ADD MLOAD DUP9 DUP7 DUP2 MLOAD DUP2 LT PUSH2 0x3F1 JUMPI PUSH2 0x3F0 PUSH2 0x1B08 JUMP JUMPDEST JUMPDEST PUSH1 0x20 MUL PUSH1 0x20 ADD ADD MLOAD DUP9 DUP8 DUP2 MLOAD DUP2 LT PUSH2 0x40C JUMPI PUSH2 0x40B PUSH2 0x1B08 JUMP JUMPDEST JUMPDEST PUSH1 0x20 MUL PUSH1 0x20 ADD ADD MLOAD DUP9 DUP9 DUP2 MLOAD DUP2 LT PUSH2 0x427 JUMPI PUSH2 0x426 PUSH2 0x1B08 JUMP JUMPDEST JUMPDEST PUSH1 0x20 MUL PUSH1 0x20 ADD ADD MLOAD PUSH1 0x40 MLOAD PUSH2 0x442 SWAP8 SWAP7 SWAP6 SWAP5 SWAP4 SWAP3 SWAP2 SWAP1 PUSH2 0x194B JUMP JUMPDEST PUSH1 0x40 MLOAD DUP1 SWAP2 SUB SWAP1 LOG1 DUP1 DUP1 PUSH2 0x455 SWAP1 PUSH2 0x1AC0 JUMP JUMPDEST SWAP2 POP POP PUSH2 0x1A2 JUMP JUMPDEST POP POP POP POP POP POP POP POP JUMP JUMPDEST PUSH1 0x60 PUSH1 0x0 DUP1 PUSH1 0x1 SWAP1 POP JUMPDEST PUSH1 0x1 SLOAD DUP2 GT PUSH2 0x503 JUMPI DUP4 PUSH1 0x40 MLOAD PUSH1 0x20 ADD PUSH2 0x48B SWAP2 SWAP1 PUSH2 0x1E51 JUMP JUMPDEST PUSH1 0x40 MLOAD PUSH1 0x20 DUP2 DUP4 SUB SUB DUP2 MSTORE SWAP1 PUSH1 0x40 MSTORE DUP1 MLOAD SWAP1 PUSH1 0x20 ADD KECCAK256 PUSH1 0x0 DUP1 DUP4 DUP2 MSTORE PUSH1 0x20 ADD SWAP1 DUP2 MSTORE PUSH1 0x20 ADD PUSH1 0x0 KECCAK256 PUSH1 0x0 ADD PUSH1 0x40 MLOAD PUSH1 0x20 ADD PUSH2 0x4C6 SWAP2 SWAP1 PUSH2 0x1EEB JUMP JUMPDEST PUSH1 0x40 MLOAD PUSH1 0x20 DUP2 DUP4 SUB SUB DUP2 MSTORE SWAP1 PUSH1 0x40 MSTORE DUP1 MLOAD SWAP1 PUSH1 0x20 ADD KECCAK256 SUB PUSH2 0x4F0 JUMPI DUP2 DUP1 PUSH2 0x4EC SWAP1 PUSH2 0x1AC0 JUMP JUMPDEST SWAP3 POP POP JUMPDEST DUP1 DUP1 PUSH2 0x4FB SWAP1 PUSH2 0x1AC0 JUMP JUMPDEST SWAP2 POP POP PUSH2 0x471 JUMP JUMPDEST POP PUSH1 0x0 DUP2 PUSH8 0xFFFFFFFFFFFFFFFF DUP2 GT ISZERO PUSH2 0x520 JUMPI PUSH2 0x51F PUSH2 0x11D6 JUMP JUMPDEST JUMPDEST PUSH1 0x40 MLOAD SWAP1 DUP1 DUP3 MSTORE DUP1 PUSH1 0x20 MUL PUSH1 0x20 ADD DUP3 ADD PUSH1 0x40 MSTORE DUP1 ISZERO PUSH2 0x559 JUMPI DUP2 PUSH1 0x20 ADD JUMPDEST PUSH2 0x546 PUSH2 0x116F JUMP JUMPDEST DUP2 MSTORE PUSH1 0x20 ADD SWAP1 PUSH1 0x1 SWAP1 SUB SWAP1 DUP2 PUSH2 0x53E JUMPI SWAP1 POP JUMPDEST POP SWAP1 POP PUSH1 0x0 DUP1 PUSH1 0x1 SWAP1 POP JUMPDEST PUSH1 0x1 SLOAD DUP2 GT PUSH2 0x9A7 JUMPI DUP6 PUSH1 0x40 MLOAD PUSH1 0x20 ADD PUSH2 0x57E SWAP2 SWAP1 PUSH2 0x1E51 JUMP JUMPDEST PUSH1 0x40 MLOAD PUSH1 0x20 DUP2 DUP4 SUB SUB DUP2 MSTORE SWAP1 PUSH1 0x40 MSTORE DUP1 MLOAD SWAP1 PUSH1 0x20 ADD KECCAK256 PUSH1 0x0 DUP1 DUP4 DUP2 MSTORE PUSH1 0x20 ADD SWAP1 DUP2 MSTORE PUSH1 0x20 ADD PUSH1 0x0 KECCAK256 PUSH1 0x0 ADD PUSH1 0x40 MLOAD PUSH1 0x20 ADD PUSH2 0x5B9 SWAP2 SWAP1 PUSH2 0x1EEB JUMP JUMPDEST PUSH1 0x40 MLOAD PUSH1 0x20 DUP2 DUP4 SUB SUB DUP2 MSTORE SWAP1 PUSH1 0x40 MSTORE DUP1 MLOAD SWAP1 PUSH1 0x20 ADD KECCAK256 SUB PUSH2 0x994 JUMPI PUSH1 0x0 DUP1 DUP3 DUP2 MSTORE PUSH1 0x20 ADD SWAP1 DUP2 MSTORE PUSH1 0x20 ADD PUSH1 0x0 KECCAK256 PUSH1 0x40 MLOAD DUP1 PUSH1 0xE0 ADD PUSH1 0x40 MSTORE SWAP1 DUP2 PUSH1 0x0 DUP3 ADD DUP1 SLOAD PUSH2 0x601 SWAP1 PUSH2 0x1B66 JUMP JUMPDEST DUP1 PUSH1 0x1F ADD PUSH1 0x20 DUP1 SWAP2 DIV MUL PUSH1 0x20 ADD PUSH1 0x40 MLOAD SWAP1 DUP2 ADD PUSH1 0x40 MSTORE DUP1 SWAP3 SWAP2 SWAP1 DUP2 DUP2 MSTORE PUSH1 0x20 ADD DUP3 DUP1 SLOAD PUSH2 0x62D SWAP1 PUSH2 0x1B66 JUMP JUMPDEST DUP1 ISZERO PUSH2 0x67A JUMPI DUP1 PUSH1 0x1F LT PUSH2 0x64F JUMPI PUSH2 0x100 DUP1 DUP4 SLOAD DIV MUL DUP4 MSTORE SWAP2 PUSH1 0x20 ADD SWAP2 PUSH2 0x67A JUMP JUMPDEST DUP3 ADD SWAP2 SWAP1 PUSH1 0x0 MSTORE PUSH1 0x20 PUSH1 0x0 KECCAK256 SWAP1 JUMPDEST DUP2 SLOAD DUP2 MSTORE SWAP1 PUSH1 0x1 ADD SWAP1 PUSH1 0x20 ADD DUP1 DUP4 GT PUSH2 0x65D JUMPI DUP3 SWAP1 SUB PUSH1 0x1F AND DUP3 ADD SWAP2 JUMPDEST POP POP POP POP POP DUP2 MSTORE PUSH1 0x20 ADD PUSH1 0x1 DUP3 ADD DUP1 SLOAD PUSH2 0x693 SWAP1 PUSH2 0x1B66 JUMP JUMPDEST DUP1 PUSH1 0x1F ADD PUSH1 0x20 DUP1 SWAP2 DIV MUL PUSH1 0x20 ADD PUSH1 0x40 MLOAD SWAP1 DUP2 ADD PUSH1 0x40 MSTORE DUP1 SWAP3 SWAP2 SWAP1 DUP2 DUP2 MSTORE PUSH1 0x20 ADD DUP3 DUP1 SLOAD PUSH2 0x6BF SWAP1 PUSH2 0x1B66 JUMP JUMPDEST DUP1 ISZERO PUSH2 0x70C JUMPI DUP1 PUSH1 0x1F LT PUSH2 0x6E1 JUMPI PUSH2 0x100 DUP1 DUP4 SLOAD DIV MUL DUP4 MSTORE SWAP2 PUSH1 0x20 ADD SWAP2 PUSH2 0x70C JUMP JUMPDEST DUP3 ADD SWAP2 SWAP1 PUSH1 0x0 MSTORE PUSH1 0x20 PUSH1 0x0 KECCAK256 SWAP1 JUMPDEST DUP2 SLOAD DUP2 MSTORE SWAP1 PUSH1 0x1 ADD SWAP1 PUSH1 0x20 ADD DUP1 DUP4 GT PUSH2 0x6EF JUMPI DUP3 SWAP1 SUB PUSH1 0x1F AND DUP3 ADD SWAP2 JUMPDEST POP POP POP POP POP DUP2 MSTORE PUSH1 0x20 ADD PUSH1 0x2 DUP3 ADD DUP1 SLOAD PUSH2 0x725 SWAP1 PUSH2 0x1B66 JUMP JUMPDEST DUP1 PUSH1 0x1F ADD PUSH1 0x20 DUP1 SWAP2 DIV MUL PUSH1 0x20 ADD PUSH1 0x40 MLOAD SWAP1 DUP2 ADD PUSH1 0x40 MSTORE DUP1 SWAP3 SWAP2 SWAP1 DUP2 DUP2 MSTORE PUSH1 0x20 ADD DUP3 DUP1 SLOAD PUSH2 0x751 SWAP1 PUSH2 0x1B66 JUMP JUMPDEST DUP1 ISZERO PUSH2 0x79E JUMPI DUP1 PUSH1 0x1F LT PUSH2 0x773 JUMPI PUSH2 0x100 DUP1 DUP4 SLOAD DIV MUL DUP4 MSTORE SWAP2 PUSH1 0x20 ADD SWAP2 PUSH2 0x79E JUMP JUMPDEST DUP3 ADD SWAP2 SWAP1 PUSH1 0x0 MSTORE PUSH1 0x20 PUSH1 0x0 KECCAK256 SWAP1 JUMPDEST DUP2 SLOAD DUP2 MSTORE SWAP1 PUSH1 0x1 ADD SWAP1 PUSH1 0x20 ADD DUP1 DUP4 GT PUSH2 0x781 JUMPI DUP3 SWAP1 SUB PUSH1 0x1F AND DUP3 ADD SWAP2 JUMPDEST POP POP POP POP POP DUP2 MSTORE PUSH1 0x20 ADD PUSH1 0x3 DUP3 ADD DUP1 SLOAD PUSH2 0x7B7 SWAP1 PUSH2 0x1B66 JUMP JUMPDEST DUP1 PUSH1 0x1F ADD PUSH1 0x20 DUP1 SWAP2 DIV MUL PUSH1 0x20 ADD PUSH1 0x40 MLOAD SWAP1 DUP2 ADD PUSH1 0x40 MSTORE DUP1 SWAP3 SWAP2 SWAP1 DUP2 DUP2 MSTORE PUSH1 0x20 ADD DUP3 DUP1 SLOAD PUSH2 0x7E3 SWAP1 PUSH2 0x1B66 JUMP JUMPDEST DUP1 ISZERO PUSH2 0x830 JUMPI DUP1 PUSH1 0x1F LT PUSH2 0x805 JUMPI PUSH2 0x100 DUP1 DUP4 SLOAD DIV MUL DUP4 MSTORE SWAP2 PUSH1 0x20 ADD SWAP2 PUSH2 0x830 JUMP JUMPDEST DUP3 ADD SWAP2 SWAP1 PUSH1 0x0 MSTORE PUSH1 0x20 PUSH1 0x0 KECCAK256 SWAP1 JUMPDEST DUP2 SLOAD DUP2 MSTORE SWAP1 PUSH1 0x1 ADD SWAP1 PUSH1 0x20 ADD DUP1 DUP4 GT PUSH2 0x813 JUMPI DUP3 SWAP1 SUB PUSH1 0x1F AND DUP3 ADD SWAP2 JUMPDEST POP POP POP POP POP DUP2 MSTORE PUSH1 0x20 ADD PUSH1 0x4 DUP3 ADD DUP1 SLOAD PUSH2 0x849 SWAP1 PUSH2 0x1B66 JUMP JUMPDEST DUP1 PUSH1 0x1F ADD PUSH1 0x20 DUP1 SWAP2 DIV MUL PUSH1 0x20 ADD PUSH1 0x40 MLOAD SWAP1 DUP2 ADD PUSH1 0x40 MSTORE DUP1 SWAP3 SWAP2 SWAP1 DUP2 DUP2 MSTORE PUSH1 0x20 ADD DUP3 DUP1 SLOAD PUSH2 0x875 SWAP1 PUSH2 0x1B66 JUMP JUMPDEST DUP1 ISZERO PUSH2 0x8C2 JUMPI DUP1 PUSH1 0x1F LT PUSH2 0x897 JUMPI PUSH2 0x100 DUP1 DUP4 SLOAD DIV MUL DUP4 MSTORE SWAP2 PUSH1 0x20 ADD SWAP2 PUSH2 0x8C2 JUMP JUMPDEST DUP3 ADD SWAP2 SWAP1 PUSH1 0x0 MSTORE PUSH1 0x20 PUSH1 0x0 KECCAK256 SWAP1 JUMPDEST DUP2 SLOAD DUP2 MSTORE SWAP1 PUSH1 0x1 ADD SWAP1 PUSH1 0x20 ADD DUP1 DUP4 GT PUSH2 0x8A5 JUMPI DUP3 SWAP1 SUB PUSH1 0x1F AND DUP3 ADD SWAP2 JUMPDEST POP POP POP POP POP DUP2 MSTORE PUSH1 0x20 ADD PUSH1 0x5 DUP3 ADD DUP1 SLOAD PUSH2 0x8DB SWAP1 PUSH2 0x1B66 JUMP JUMPDEST DUP1 PUSH1 0x1F ADD PUSH1 0x20 DUP1 SWAP2 DIV MUL PUSH1 0x20 ADD PUSH1 0x40 MLOAD SWAP1 DUP2 ADD PUSH1 0x40 MSTORE DUP1 SWAP3 SWAP2 SWAP1 DUP2 DUP2 MSTORE PUSH1 0x20 ADD DUP3 DUP1 SLOAD PUSH2 0x907 SWAP1 PUSH2 0x1B66 JUMP JUMPDEST DUP1 ISZERO PUSH2 0x954 JUMPI DUP1 PUSH1 0x1F LT PUSH2 0x929 JUMPI PUSH2 0x100 DUP1 DUP4 SLOAD DIV MUL DUP4 MSTORE SWAP2 PUSH1 0x20 ADD SWAP2 PUSH2 0x954 JUMP JUMPDEST DUP3 ADD SWAP2 SWAP1 PUSH1 0x0 MSTORE PUSH1 0x20 PUSH1 0x0 KECCAK256 SWAP1 JUMPDEST DUP2 SLOAD DUP2 MSTORE SWAP1 PUSH1 0x1 ADD SWAP1 PUSH1 0x20 ADD DUP1 DUP4 GT PUSH2 0x937 JUMPI DUP3 SWAP1 SUB PUSH1 0x1F AND DUP3 ADD SWAP2 JUMPDEST POP POP POP POP POP DUP2 MSTORE PUSH1 0x20 ADD PUSH1 0x6 DUP3 ADD SLOAD DUP2 MSTORE POP POP DUP4 DUP4 DUP2 MLOAD DUP2 LT PUSH2 0x97A JUMPI PUSH2 0x979 PUSH2 0x1B08 JUMP JUMPDEST JUMPDEST PUSH1 0x20 MUL PUSH1 0x20 ADD ADD DUP2 SWAP1 MSTORE POP DUP2 DUP1 PUSH2 0x990 SWAP1 PUSH2 0x1AC0 JUMP JUMPDEST SWAP3 POP POP JUMPDEST DUP1 DUP1 PUSH2 0x99F SWAP1 PUSH2 0x1AC0 JUMP JUMPDEST SWAP2 POP POP PUSH2 0x564 JUMP JUMPDEST POP DUP2 SWAP4 POP POP POP POP SWAP2 SWAP1 POP JUMP JUMPDEST PUSH1 0x0 PUSH1 0x20 MSTORE DUP1 PUSH1 0x0 MSTORE PUSH1 0x40 PUSH1 0x0 KECCAK256 PUSH1 0x0 SWAP2 POP SWAP1 POP DUP1 PUSH1 0x0 ADD DUP1 SLOAD PUSH2 0x9D6 SWAP1 PUSH2 0x1B66 JUMP JUMPDEST DUP1 PUSH1 0x1F ADD PUSH1 0x20 DUP1 SWAP2 DIV MUL PUSH1 0x20 ADD PUSH1 0x40 MLOAD SWAP1 DUP2 ADD PUSH1 0x40 MSTORE DUP1 SWAP3 SWAP2 SWAP1 DUP2 DUP2 MSTORE PUSH1 0x20 ADD DUP3 DUP1 SLOAD PUSH2 0xA02 SWAP1 PUSH2 0x1B66 JUMP JUMPDEST DUP1 ISZERO PUSH2 0xA4F JUMPI DUP1 PUSH1 0x1F LT PUSH2 0xA24 JUMPI PUSH2 0x100 DUP1 DUP4 SLOAD DIV MUL DUP4 MSTORE SWAP2 PUSH1 0x20 ADD SWAP2 PUSH2 0xA4F JUMP JUMPDEST DUP3 ADD SWAP2 SWAP1 PUSH1 0x0 MSTORE PUSH1 0x20 PUSH1 0x0 KECCAK256 SWAP1 JUMPDEST DUP2 SLOAD DUP2 MSTORE SWAP1 PUSH1 0x1 ADD SWAP1 PUSH1 0x20 ADD DUP1 DUP4 GT PUSH2 0xA32 JUMPI DUP3 SWAP1 SUB PUSH1 0x1F AND DUP3 ADD SWAP2 JUMPDEST POP POP POP POP POP SWAP1 DUP1 PUSH1 0x1 ADD DUP1 SLOAD PUSH2 0xA64 SWAP1 PUSH2 0x1B66 JUMP JUMPDEST DUP1 PUSH1 0x1F ADD PUSH1 0x20 DUP1 SWAP2 DIV MUL PUSH1 0x20 ADD PUSH1 0x40 MLOAD SWAP1 DUP2 ADD PUSH1 0x40 MSTORE DUP1 SWAP3 SWAP2 SWAP1 DUP2 DUP2 MSTORE PUSH1 0x20 ADD DUP3 DUP1 SLOAD PUSH2 0xA90 SWAP1 PUSH2 0x1B66 JUMP JUMPDEST DUP1 ISZERO PUSH2 0xADD JUMPI DUP1 PUSH1 0x1F LT PUSH2 0xAB2 JUMPI PUSH2 0x100 DUP1 DUP4 SLOAD DIV MUL DUP4 MSTORE SWAP2 PUSH1 0x20 ADD SWAP2 PUSH2 0xADD JUMP JUMPDEST DUP3 ADD SWAP2 SWAP1 PUSH1 0x0 MSTORE PUSH1 0x20 PUSH1 0x0 KECCAK256 SWAP1 JUMPDEST DUP2 SLOAD DUP2 MSTORE SWAP1 PUSH1 0x1 ADD SWAP1 PUSH1 0x20 ADD DUP1 DUP4 GT PUSH2 0xAC0 JUMPI DUP3 SWAP1 SUB PUSH1 0x1F AND DUP3 ADD SWAP2 JUMPDEST POP POP POP POP POP SWAP1 DUP1 PUSH1 0x2 ADD DUP1 SLOAD PUSH2 0xAF2 SWAP1 PUSH2 0x1B66 JUMP JUMPDEST DUP1 PUSH1 0x1F ADD PUSH1 0x20 DUP1 SWAP2 DIV MUL PUSH1 0x20 ADD PUSH1 0x40 MLOAD SWAP1 DUP2 ADD PUSH1 0x40 MSTORE DUP1 SWAP3 SWAP2 SWAP1 DUP2 DUP2 MSTORE PUSH1 0x20 ADD DUP3 DUP1 SLOAD PUSH2 0xB1E SWAP1 PUSH2 0x1B66 JUMP JUMPDEST DUP1 ISZERO PUSH2 0xB6B JUMPI DUP1 PUSH1 0x1F LT PUSH2 0xB40 JUMPI PUSH2 0x100 DUP1 DUP4 SLOAD DIV MUL DUP4 MSTORE SWAP2 PUSH1 0x20 ADD SWAP2 PUSH2 0xB6B JUMP JUMPDEST DUP3 ADD SWAP2 SWAP1 PUSH1 0x0 MSTORE PUSH1 0x20 PUSH1 0x0 KECCAK256 SWAP1 JUMPDEST DUP2 SLOAD DUP2 MSTORE SWAP1 PUSH1 0x1 ADD SWAP1 PUSH1 0x20 ADD DUP1 DUP4 GT PUSH2 0xB4E JUMPI DUP3 SWAP1 SUB PUSH1 0x1F AND DUP3 ADD SWAP2 JUMPDEST POP POP POP POP POP SWAP1 DUP1 PUSH1 0x3 ADD DUP1 SLOAD PUSH2 0xB80 SWAP1 PUSH2 0x1B66 JUMP JUMPDEST DUP1 PUSH1 0x1F ADD PUSH1 0x20 DUP1 SWAP2 DIV MUL PUSH1 0x20 ADD PUSH1 0x40 MLOAD SWAP1 DUP2 ADD PUSH1 0x40 MSTORE DUP1 SWAP3 SWAP2 SWAP1 DUP2 DUP2 MSTORE PUSH1 0x20 ADD DUP3 DUP1 SLOAD PUSH2 0xBAC SWAP1 PUSH2 0x1B66 JUMP JUMPDEST DUP1 ISZERO PUSH2 0xBF9 JUMPI DUP1 PUSH1 0x1F LT PUSH2 0xBCE JUMPI PUSH2 0x100 DUP1 DUP4 SLOAD DIV MUL DUP4 MSTORE SWAP2 PUSH1 0x20 ADD SWAP2 PUSH2 0xBF9 JUMP JUMPDEST DUP3 ADD SWAP2 SWAP1 PUSH1 0x0 MSTORE PUSH1 0x20 PUSH1 0x0 KECCAK256 SWAP1 JUMPDEST DUP2 SLOAD DUP2 MSTORE SWAP1 PUSH1 0x1 ADD SWAP1 PUSH1 0x20 ADD DUP1 DUP4 GT PUSH2 0xBDC JUMPI DUP3 SWAP1 SUB PUSH1 0x1F AND DUP3 ADD SWAP2 JUMPDEST POP POP POP POP POP SWAP1 DUP1 PUSH1 0x4 ADD DUP1 SLOAD PUSH2 0xC0E SWAP1 PUSH2 0x1B66 JUMP JUMPDEST DUP1 PUSH1 0x1F ADD PUSH1 0x20 DUP1 SWAP2 DIV MUL PUSH1 0x20 ADD PUSH1 0x40 MLOAD SWAP1 DUP2 ADD PUSH1 0x40 MSTORE DUP1 SWAP3 SWAP2 SWAP1 DUP2 DUP2 MSTORE PUSH1 0x20 ADD DUP3 DUP1 SLOAD PUSH2 0xC3A SWAP1 PUSH2 0x1B66 JUMP JUMPDEST DUP1 ISZERO PUSH2 0xC87 JUMPI DUP1 PUSH1 0x1F LT PUSH2 0xC5C JUMPI PUSH2 0x100 DUP1 DUP4 SLOAD DIV MUL DUP4 MSTORE SWAP2 PUSH1 0x20 ADD SWAP2 PUSH2 0xC87 JUMP JUMPDEST DUP3 ADD SWAP2 SWAP1 PUSH1 0x0 MSTORE PUSH1 0x20 PUSH1 0x0 KECCAK256 SWAP1 JUMPDEST DUP2 SLOAD DUP2 MSTORE SWAP1 PUSH1 0x1 ADD SWAP1 PUSH1 0x20 ADD DUP1 DUP4 GT PUSH2 0xC6A JUMPI DUP3 SWAP1 SUB PUSH1 0x1F AND DUP3 ADD SWAP2 JUMPDEST POP POP POP POP POP SWAP1 DUP1 PUSH1 0x5 ADD DUP1 SLOAD PUSH2 0xC9C SWAP1 PUSH2 0x1B66 JUMP JUMPDEST DUP1 PUSH1 0x1F ADD PUSH1 0x20 DUP1 SWAP2 DIV MUL PUSH1 0x20 ADD PUSH1 0x40 MLOAD SWAP1 DUP2 ADD PUSH1 0x40 MSTORE DUP1 SWAP3 SWAP2 SWAP1 DUP2 DUP2 MSTORE PUSH1 0x20 ADD DUP3 DUP1 SLOAD PUSH2 0xCC8 SWAP1 PUSH2 0x1B66 JUMP JUMPDEST DUP1 ISZERO PUSH2 0xD15 JUMPI DUP1 PUSH1 0x1F LT PUSH2 0xCEA JUMPI PUSH2 0x100 DUP1 DUP4 SLOAD DIV MUL DUP4 MSTORE SWAP2 PUSH1 0x20 ADD SWAP2 PUSH2 0xD15 JUMP JUMPDEST DUP3 ADD SWAP2 SWAP1 PUSH1 0x0 MSTORE PUSH1 0x20 PUSH1 0x0 KECCAK256 SWAP1 JUMPDEST DUP2 SLOAD DUP2 MSTORE SWAP1 PUSH1 0x1 ADD SWAP1 PUSH1 0x20 ADD DUP1 DUP4 GT PUSH2 0xCF8 JUMPI DUP3 SWAP1 SUB PUSH1 0x1F AND DUP3 ADD SWAP2 JUMPDEST POP POP POP POP POP SWAP1 DUP1 PUSH1 0x6 ADD SLOAD SWAP1 POP DUP8 JUMP JUMPDEST PUSH1 0x60 PUSH1 0x0 PUSH1 0x1 SLOAD PUSH8 0xFFFFFFFFFFFFFFFF DUP2 GT ISZERO PUSH2 0xD45 JUMPI PUSH2 0xD44 PUSH2 0x11D6 JUMP JUMPDEST JUMPDEST PUSH1 0x40 MLOAD SWAP1 DUP1 DUP3 MSTORE DUP1 PUSH1 0x20 MUL PUSH1 0x20 ADD DUP3 ADD PUSH1 0x40 MSTORE DUP1 ISZERO PUSH2 0xD7E JUMPI DUP2 PUSH1 0x20 ADD JUMPDEST PUSH2 0xD6B PUSH2 0x116F JUMP JUMPDEST DUP2 MSTORE PUSH1 0x20 ADD SWAP1 PUSH1 0x1 SWAP1 SUB SWAP1 DUP2 PUSH2 0xD63 JUMPI SWAP1 POP JUMPDEST POP SWAP1 POP PUSH1 0x0 PUSH1 0x1 SWAP1 POP JUMPDEST PUSH1 0x1 SLOAD DUP2 GT PUSH2 0x1161 JUMPI PUSH1 0x0 DUP1 DUP3 DUP2 MSTORE PUSH1 0x20 ADD SWAP1 DUP2 MSTORE PUSH1 0x20 ADD PUSH1 0x0 KECCAK256 PUSH1 0x40 MLOAD DUP1 PUSH1 0xE0 ADD PUSH1 0x40 MSTORE SWAP1 DUP2 PUSH1 0x0 DUP3 ADD DUP1 SLOAD PUSH2 0xDBE SWAP1 PUSH2 0x1B66 JUMP JUMPDEST DUP1 PUSH1 0x1F ADD PUSH1 0x20 DUP1 SWAP2 DIV MUL PUSH1 0x20 ADD PUSH1 0x40 MLOAD SWAP1 DUP2 ADD PUSH1 0x40 MSTORE DUP1 SWAP3 SWAP2 SWAP1 DUP2 DUP2 MSTORE PUSH1 0x20 ADD DUP3 DUP1 SLOAD PUSH2 0xDEA SWAP1 PUSH2 0x1B66 JUMP JUMPDEST DUP1 ISZERO PUSH2 0xE37 JUMPI DUP1 PUSH1 0x1F LT PUSH2 0xE0C JUMPI PUSH2 0x100 DUP1 DUP4 SLOAD DIV MUL DUP4 MSTORE SWAP2 PUSH1 0x20 ADD SWAP2 PUSH2 0xE37 JUMP JUMPDEST DUP3 ADD SWAP2 SWAP1 PUSH1 0x0 MSTORE PUSH1 0x20 PUSH1 0x0 KECCAK256 SWAP1 JUMPDEST DUP2 SLOAD DUP2 MSTORE SWAP1 PUSH1 0x1 ADD SWAP1 PUSH1 0x20 ADD DUP1 DUP4 GT PUSH2 0xE1A JUMPI DUP3 SWAP1 SUB PUSH1 0x1F AND DUP3 ADD SWAP2 JUMPDEST POP POP POP POP POP DUP2 MSTORE PUSH1 0x20 ADD PUSH1 0x1 DUP3 ADD DUP1 SLOAD PUSH2 0xE50 SWAP1 PUSH2 0x1B66 JUMP JUMPDEST DUP1 PUSH1 0x1F ADD PUSH1 0x20 DUP1 SWAP2 DIV MUL PUSH1 0x20 ADD PUSH1 0x40 MLOAD SWAP1 DUP2 ADD PUSH1 0x40 MSTORE DUP1 SWAP3 SWAP2 SWAP1 DUP2 DUP2 MSTORE PUSH1 0x20 ADD DUP3 DUP1 SLOAD PUSH2 0xE7C SWAP1 PUSH2 0x1B66 JUMP JUMPDEST DUP1 ISZERO PUSH2 0xEC9 JUMPI DUP1 PUSH1 0x1F LT PUSH2 0xE9E JUMPI PUSH2 0x100 DUP1 DUP4 SLOAD DIV MUL DUP4 MSTORE SWAP2 PUSH1 0x20 ADD SWAP2 PUSH2 0xEC9 JUMP JUMPDEST DUP3 ADD SWAP2 SWAP1 PUSH1 0x0 MSTORE PUSH1 0x20 PUSH1 0x0 KECCAK256 SWAP1 JUMPDEST DUP2 SLOAD DUP2 MSTORE SWAP1 PUSH1 0x1 ADD SWAP1 PUSH1 0x20 ADD DUP1 DUP4 GT PUSH2 0xEAC JUMPI DUP3 SWAP1 SUB PUSH1 0x1F AND DUP3 ADD SWAP2 JUMPDEST POP POP POP POP POP DUP2 MSTORE PUSH1 0x20 ADD PUSH1 0x2 DUP3 ADD DUP1 SLOAD PUSH2 0xEE2 SWAP1 PUSH2 0x1B66 JUMP JUMPDEST DUP1 PUSH1 0x1F ADD PUSH1 0x20 DUP1 SWAP2 DIV MUL PUSH1 0x20 ADD PUSH1 0x40 MLOAD SWAP1 DUP2 ADD PUSH1 0x40 MSTORE DUP1 SWAP3 SWAP2 SWAP1 DUP2 DUP2 MSTORE PUSH1 0x20 ADD DUP3 DUP1 SLOAD PUSH2 0xF0E SWAP1 PUSH2 0x1B66 JUMP JUMPDEST DUP1 ISZERO PUSH2 0xF5B JUMPI DUP1 PUSH1 0x1F LT PUSH2 0xF30 JUMPI PUSH2 0x100 DUP1 DUP4 SLOAD DIV MUL DUP4 MSTORE SWAP2 PUSH1 0x20 ADD SWAP2 PUSH2 0xF5B JUMP JUMPDEST DUP3 ADD SWAP2 SWAP1 PUSH1 0x0 MSTORE PUSH1 0x20 PUSH1 0x0 KECCAK256 SWAP1 JUMPDEST DUP2 SLOAD DUP2 MSTORE SWAP1 PUSH1 0x1 ADD SWAP1 PUSH1 0x20 ADD DUP1 DUP4 GT PUSH2 0xF3E JUMPI DUP3 SWAP1 SUB PUSH1 0x1F AND DUP3 ADD SWAP2 JUMPDEST POP POP POP POP POP DUP2 MSTORE PUSH1 0x20 ADD PUSH1 0x3 DUP3 ADD DUP1 SLOAD PUSH2 0xF74 SWAP1 PUSH2 0x1B66 JUMP JUMPDEST DUP1 PUSH1 0x1F ADD PUSH1 0x20 DUP1 SWAP2 DIV MUL PUSH1 0x20 ADD PUSH1 0x40 MLOAD SWAP1 DUP2 ADD PUSH1 0x40 MSTORE DUP1 SWAP3 SWAP2 SWAP1 DUP2 DUP2 MSTORE PUSH1 0x20 ADD DUP3 DUP1 SLOAD PUSH2 0xFA0 SWAP1 PUSH2 0x1B66 JUMP JUMPDEST DUP1 ISZERO PUSH2 0xFED JUMPI DUP1 PUSH1 0x1F LT PUSH2 0xFC2 JUMPI PUSH2 0x100 DUP1 DUP4 SLOAD DIV MUL DUP4 MSTORE SWAP2 PUSH1 0x20 ADD SWAP2 PUSH2 0xFED JUMP JUMPDEST DUP3 ADD SWAP2 SWAP1 PUSH1 0x0 MSTORE PUSH1 0x20 PUSH1 0x0 KECCAK256 SWAP1 JUMPDEST DUP2 SLOAD DUP2 MSTORE SWAP1 PUSH1 0x1 ADD SWAP1 PUSH1 0x20 ADD DUP1 DUP4 GT PUSH2 0xFD0 JUMPI DUP3 SWAP1 SUB PUSH1 0x1F AND DUP3 ADD SWAP2 JUMPDEST POP POP POP POP POP DUP2 MSTORE PUSH1 0x20 ADD PUSH1 0x4 DUP3 ADD DUP1 SLOAD PUSH2 0x1006 SWAP1 PUSH2 0x1B66 JUMP JUMPDEST DUP1 PUSH1 0x1F ADD PUSH1 0x20 DUP1 SWAP2 DIV MUL PUSH1 0x20 ADD PUSH1 0x40 MLOAD SWAP1 DUP2 ADD PUSH1 0x40 MSTORE DUP1 SWAP3 SWAP2 SWAP1 DUP2 DUP2 MSTORE PUSH1 0x20 ADD DUP3 DUP1 SLOAD PUSH2 0x1032 SWAP1 PUSH2 0x1B66 JUMP JUMPDEST DUP1 ISZERO PUSH2 0x107F JUMPI DUP1 PUSH1 0x1F LT PUSH2 0x1054 JUMPI PUSH2 0x100 DUP1 DUP4 SLOAD DIV MUL DUP4 MSTORE SWAP2 PUSH1 0x20 ADD SWAP2 PUSH2 0x107F JUMP JUMPDEST DUP3 ADD SWAP2 SWAP1 PUSH1 0x0 MSTORE PUSH1 0x20 PUSH1 0x0 KECCAK256 SWAP1 JUMPDEST DUP2 SLOAD DUP2 MSTORE SWAP1 PUSH1 0x1 ADD SWAP1 PUSH1 0x20 ADD DUP1 DUP4 GT PUSH2 0x1062 JUMPI DUP3 SWAP1 SUB PUSH1 0x1F AND DUP3 ADD SWAP2 JUMPDEST POP POP POP POP POP DUP2 MSTORE PUSH1 0x20 ADD PUSH1 0x5 DUP3 ADD DUP1 SLOAD PUSH2 0x1098 SWAP1 PUSH2 0x1B66 JUMP JUMPDEST DUP1 PUSH1 0x1F ADD PUSH1 0x20 DUP1 SWAP2 DIV MUL PUSH1 0x20 ADD PUSH1 0x40 MLOAD SWAP1 DUP2 ADD PUSH1 0x40 MSTORE DUP1 SWAP3 SWAP2 SWAP1 DUP2 DUP2 MSTORE PUSH1 0x20 ADD DUP3 DUP1 SLOAD PUSH2 0x10C4 SWAP1 PUSH2 0x1B66 JUMP JUMPDEST DUP1 ISZERO PUSH2 0x1111 JUMPI DUP1 PUSH1 0x1F LT PUSH2 0x10E6 JUMPI PUSH2 0x100 DUP1 DUP4 SLOAD DIV MUL DUP4 MSTORE SWAP2 PUSH1 0x20 ADD SWAP2 PUSH2 0x1111 JUMP JUMPDEST DUP3 ADD SWAP2 SWAP1 PUSH1 0x0 MSTORE PUSH1 0x20 PUSH1 0x0 KECCAK256 SWAP1 JUMPDEST DUP2 SLOAD DUP2 MSTORE SWAP1 PUSH1 0x1 ADD SWAP1 PUSH1 0x20 ADD DUP1 DUP4 GT PUSH2 0x10F4 JUMPI DUP3 SWAP1 SUB PUSH1 0x1F AND DUP3 ADD SWAP2 JUMPDEST POP POP POP POP POP DUP2 MSTORE PUSH1 0x20 ADD PUSH1 0x6 DUP3 ADD SLOAD DUP2 MSTORE POP POP DUP3 PUSH1 0x1 DUP4 PUSH2 0x1132 SWAP2 SWAP1 PUSH2 0x1F02 JUMP JUMPDEST DUP2 MLOAD DUP2 LT PUSH2 0x1143 JUMPI PUSH2 0x1142 PUSH2 0x1B08 JUMP JUMPDEST JUMPDEST PUSH1 0x20 MUL PUSH1 0x20 ADD ADD DUP2 SWAP1 MSTORE POP DUP1 DUP1 PUSH2 0x1159 SWAP1 PUSH2 0x1AC0 JUMP JUMPDEST SWAP2 POP POP PUSH2 0xD88 JUMP JUMPDEST POP DUP1 SWAP2 POP POP SWAP1 JUMP JUMPDEST PUSH1 0x1 SLOAD DUP2 JUMP JUMPDEST PUSH1 0x40 MLOAD DUP1 PUSH1 0xE0 ADD PUSH1 0x40 MSTORE DUP1 PUSH1 0x60 DUP2 MSTORE PUSH1 0x20 ADD PUSH1 0x60 DUP2 MSTORE PUSH1 0x20 ADD PUSH1 0x60 DUP2 MSTORE PUSH1 0x20 ADD PUSH1 0x60 DUP2 MSTORE PUSH1 0x20 ADD PUSH1 0x60 DUP2 MSTORE PUSH1 0x20 ADD PUSH1 0x60 DUP2 MSTORE PUSH1 0x20 ADD PUSH1 0x0 DUP2 MSTORE POP SWAP1 JUMP JUMPDEST PUSH1 0x0 PUSH1 0x40 MLOAD SWAP1 POP SWAP1 JUMP JUMPDEST PUSH1 0x0 DUP1 REVERT JUMPDEST PUSH1 0x0 DUP1 REVERT JUMPDEST PUSH1 0x0 DUP1 REVERT JUMPDEST PUSH1 0x0 PUSH1 0x1F NOT PUSH1 0x1F DUP4 ADD AND SWAP1 POP SWAP2 SWAP1 POP JUMP JUMPDEST PUSH32 0x4E487B7100000000000000000000000000000000000000000000000000000000 PUSH1 0x0 MSTORE PUSH1 0x41 PUSH1 0x4 MSTORE PUSH1 0x24 PUSH1 0x0 REVERT JUMPDEST PUSH2 0x120E DUP3 PUSH2 0x11C5 JUMP JUMPDEST DUP2 ADD DUP2 DUP2 LT PUSH8 0xFFFFFFFFFFFFFFFF DUP3 GT OR ISZERO PUSH2 0x122D JUMPI PUSH2 0x122C PUSH2 0x11D6 JUMP JUMPDEST JUMPDEST DUP1 PUSH1 0x40 MSTORE POP POP POP JUMP JUMPDEST PUSH1 0x0 PUSH2 0x1240 PUSH2 0x11AC JUMP JUMPDEST SWAP1 POP PUSH2 0x124C DUP3 DUP3 PUSH2 0x1205 JUMP JUMPDEST SWAP2 SWAP1 POP JUMP JUMPDEST PUSH1 0x0 PUSH8 0xFFFFFFFFFFFFFFFF DUP3 GT ISZERO PUSH2 0x126C JUMPI PUSH2 0x126B PUSH2 0x11D6 JUMP JUMPDEST JUMPDEST PUSH1 0x20 DUP3 MUL SWAP1 POP PUSH1 0x20 DUP2 ADD SWAP1 POP SWAP2 SWAP1 POP JUMP JUMPDEST PUSH1 0x0 DUP1 REVERT JUMPDEST PUSH1 0x0 DUP1 REVERT JUMPDEST PUSH1 0x0 PUSH8 0xFFFFFFFFFFFFFFFF DUP3 GT ISZERO PUSH2 0x12A2 JUMPI PUSH2 0x12A1 PUSH2 0x11D6 JUMP JUMPDEST JUMPDEST PUSH2 0x12AB DUP3 PUSH2 0x11C5 JUMP JUMPDEST SWAP1 POP PUSH1 0x20 DUP2 ADD SWAP1 POP SWAP2 SWAP1 POP JUMP JUMPDEST DUP3 DUP2 DUP4 CALLDATACOPY PUSH1 0x0 DUP4 DUP4 ADD MSTORE POP POP POP JUMP JUMPDEST PUSH1 0x0 PUSH2 0x12DA PUSH2 0x12D5 DUP5 PUSH2 0x1287 JUMP JUMPDEST PUSH2 0x1236 JUMP JUMPDEST SWAP1 POP DUP3 DUP2 MSTORE PUSH1 0x20 DUP2 ADD DUP5 DUP5 DUP5 ADD GT ISZERO PUSH2 0x12F6 JUMPI PUSH2 0x12F5 PUSH2 0x1282 JUMP JUMPDEST JUMPDEST PUSH2 0x1301 DUP5 DUP3 DUP6 PUSH2 0x12B8 JUMP JUMPDEST POP SWAP4 SWAP3 POP POP POP JUMP JUMPDEST PUSH1 0x0 DUP3 PUSH1 0x1F DUP4 ADD SLT PUSH2 0x131E JUMPI PUSH2 0x131D PUSH2 0x11C0 JUMP JUMPDEST JUMPDEST DUP2 CALLDATALOAD PUSH2 0x132E DUP5 DUP3 PUSH1 0x20 DUP7 ADD PUSH2 0x12C7 JUMP JUMPDEST SWAP2 POP POP SWAP3 SWAP2 POP POP JUMP JUMPDEST PUSH1 0x0 PUSH2 0x134A PUSH2 0x1345 DUP5 PUSH2 0x1251 JUMP JUMPDEST PUSH2 0x1236 JUMP JUMPDEST SWAP1 POP DUP1 DUP4 DUP3 MSTORE PUSH1 0x20 DUP3 ADD SWAP1 POP PUSH1 0x20 DUP5 MUL DUP4 ADD DUP6 DUP2 GT ISZERO PUSH2 0x136D JUMPI PUSH2 0x136C PUSH2 0x127D JUMP JUMPDEST JUMPDEST DUP4 JUMPDEST DUP2 DUP2 LT ISZERO PUSH2 0x13B4 JUMPI DUP1 CALLDATALOAD PUSH8 0xFFFFFFFFFFFFFFFF DUP2 GT ISZERO PUSH2 0x1392 JUMPI PUSH2 0x1391 PUSH2 0x11C0 JUMP JUMPDEST JUMPDEST DUP1 DUP7 ADD PUSH2 0x139F DUP10 DUP3 PUSH2 0x1309 JUMP JUMPDEST DUP6 MSTORE PUSH1 0x20 DUP6 ADD SWAP5 POP POP POP PUSH1 0x20 DUP2 ADD SWAP1 POP PUSH2 0x136F JUMP JUMPDEST POP POP POP SWAP4 SWAP3 POP POP POP JUMP JUMPDEST PUSH1 0x0 DUP3 PUSH1 0x1F DUP4 ADD SLT PUSH2 0x13D3 JUMPI PUSH2 0x13D2 PUSH2 0x11C0 JUMP JUMPDEST JUMPDEST DUP2 CALLDATALOAD PUSH2 0x13E3 DUP5 DUP3 PUSH1 0x20 DUP7 ADD PUSH2 0x1337 JUMP JUMPDEST SWAP2 POP POP SWAP3 SWAP2 POP POP JUMP JUMPDEST PUSH1 0x0 PUSH8 0xFFFFFFFFFFFFFFFF DUP3 GT ISZERO PUSH2 0x1407 JUMPI PUSH2 0x1406 PUSH2 0x11D6 JUMP JUMPDEST JUMPDEST PUSH1 0x20 DUP3 MUL SWAP1 POP PUSH1 0x20 DUP2 ADD SWAP1 POP SWAP2 SWAP1 POP JUMP JUMPDEST PUSH1 0x0 DUP2 SWAP1 POP SWAP2 SWAP1 POP JUMP JUMPDEST PUSH2 0x142B DUP2 PUSH2 0x1418 JUMP JUMPDEST DUP2 EQ PUSH2 0x1436 JUMPI PUSH1 0x0 DUP1 REVERT JUMPDEST POP JUMP JUMPDEST PUSH1 0x0 DUP2 CALLDATALOAD SWAP1 POP PUSH2 0x1448 DUP2 PUSH2 0x1422 JUMP JUMPDEST SWAP3 SWAP2 POP POP JUMP JUMPDEST PUSH1 0x0 PUSH2 0x1461 PUSH2 0x145C DUP5 PUSH2 0x13EC JUMP JUMPDEST PUSH2 0x1236 JUMP JUMPDEST SWAP1 POP DUP1 DUP4 DUP3 MSTORE PUSH1 0x20 DUP3 ADD SWAP1 POP PUSH1 0x20 DUP5 MUL DUP4 ADD DUP6 DUP2 GT ISZERO PUSH2 0x1484 JUMPI PUSH2 0x1483 PUSH2 0x127D JUMP JUMPDEST JUMPDEST DUP4 JUMPDEST DUP2 DUP2 LT ISZERO PUSH2 0x14AD JUMPI DUP1 PUSH2 0x1499 DUP9 DUP3 PUSH2 0x1439 JUMP JUMPDEST DUP5 MSTORE PUSH1 0x20 DUP5 ADD SWAP4 POP POP PUSH1 0x20 DUP2 ADD SWAP1 POP PUSH2 0x1486 JUMP JUMPDEST POP POP POP SWAP4 SWAP3 POP POP POP JUMP JUMPDEST PUSH1 0x0 DUP3 PUSH1 0x1F DUP4 ADD SLT PUSH2 0x14CC JUMPI PUSH2 0x14CB PUSH2 0x11C0 JUMP JUMPDEST JUMPDEST DUP2 CALLDATALOAD PUSH2 0x14DC DUP5 DUP3 PUSH1 0x20 DUP7 ADD PUSH2 0x144E JUMP JUMPDEST SWAP2 POP POP SWAP3 SWAP2 POP POP JUMP JUMPDEST PUSH1 0x0 DUP1 PUSH1 0x0 DUP1 PUSH1 0x0 DUP1 PUSH1 0x0 PUSH1 0xE0 DUP9 DUP11 SUB SLT ISZERO PUSH2 0x1504 JUMPI PUSH2 0x1503 PUSH2 0x11B6 JUMP JUMPDEST JUMPDEST PUSH1 0x0 DUP9 ADD CALLDATALOAD PUSH8 0xFFFFFFFFFFFFFFFF DUP2 GT ISZERO PUSH2 0x1522 JUMPI PUSH2 0x1521 PUSH2 0x11BB JUMP JUMPDEST JUMPDEST PUSH2 0x152E DUP11 DUP3 DUP12 ADD PUSH2 0x13BE JUMP JUMPDEST SWAP8 POP POP PUSH1 0x20 DUP9 ADD CALLDATALOAD PUSH8 0xFFFFFFFFFFFFFFFF DUP2 GT ISZERO PUSH2 0x154F JUMPI PUSH2 0x154E PUSH2 0x11BB JUMP JUMPDEST JUMPDEST PUSH2 0x155B DUP11 DUP3 DUP12 ADD PUSH2 0x13BE JUMP JUMPDEST SWAP7 POP POP PUSH1 0x40 DUP9 ADD CALLDATALOAD PUSH8 0xFFFFFFFFFFFFFFFF DUP2 GT ISZERO PUSH2 0x157C JUMPI PUSH2 0x157B PUSH2 0x11BB JUMP JUMPDEST JUMPDEST PUSH2 0x1588 DUP11 DUP3 DUP12 ADD PUSH2 0x13BE JUMP JUMPDEST SWAP6 POP POP PUSH1 0x60 DUP9 ADD CALLDATALOAD PUSH8 0xFFFFFFFFFFFFFFFF DUP2 GT ISZERO PUSH2 0x15A9 JUMPI PUSH2 0x15A8 PUSH2 0x11BB JUMP JUMPDEST JUMPDEST PUSH2 0x15B5 DUP11 DUP3 DUP12 ADD PUSH2 0x13BE JUMP JUMPDEST SWAP5 POP POP PUSH1 0x80 DUP9 ADD CALLDATALOAD PUSH8 0xFFFFFFFFFFFFFFFF DUP2 GT ISZERO PUSH2 0x15D6 JUMPI PUSH2 0x15D5 PUSH2 0x11BB JUMP JUMPDEST JUMPDEST PUSH2 0x15E2 DUP11 DUP3 DUP12 ADD PUSH2 0x13BE JUMP JUMPDEST SWAP4 POP POP PUSH1 0xA0 DUP9 ADD CALLDATALOAD PUSH8 0xFFFFFFFFFFFFFFFF DUP2 GT ISZERO PUSH2 0x1603 JUMPI PUSH2 0x1602 PUSH2 0x11BB JUMP JUMPDEST JUMPDEST PUSH2 0x160F DUP11 DUP3 DUP12 ADD PUSH2 0x13BE JUMP JUMPDEST SWAP3 POP POP PUSH1 0xC0 DUP9 ADD CALLDATALOAD PUSH8 0xFFFFFFFFFFFFFFFF DUP2 GT ISZERO PUSH2 0x1630 JUMPI PUSH2 0x162F PUSH2 0x11BB JUMP JUMPDEST JUMPDEST PUSH2 0x163C DUP11 DUP3 DUP12 ADD PUSH2 0x14B7 JUMP JUMPDEST SWAP2 POP POP SWAP3 SWAP6 SWAP9 SWAP2 SWAP5 SWAP8 POP SWAP3 SWAP6 POP JUMP JUMPDEST PUSH1 0x0 PUSH1 0x20 DUP3 DUP5 SUB SLT ISZERO PUSH2 0x1661 JUMPI PUSH2 0x1660 PUSH2 0x11B6 JUMP JUMPDEST JUMPDEST PUSH1 0x0 DUP3 ADD CALLDATALOAD PUSH8 0xFFFFFFFFFFFFFFFF DUP2 GT ISZERO PUSH2 0x167F JUMPI PUSH2 0x167E PUSH2 0x11BB JUMP JUMPDEST JUMPDEST PUSH2 0x168B DUP5 DUP3 DUP6 ADD PUSH2 0x1309 JUMP JUMPDEST SWAP2 POP POP SWAP3 SWAP2 POP POP JUMP JUMPDEST PUSH1 0x0 DUP2 MLOAD SWAP1 POP SWAP2 SWAP1 POP JUMP JUMPDEST PUSH1 0x0 DUP3 DUP3 MSTORE PUSH1 0x20 DUP3 ADD SWAP1 POP SWAP3 SWAP2 POP POP JUMP JUMPDEST PUSH1 0x0 DUP2 SWAP1 POP PUSH1 0x20 DUP3 ADD SWAP1 POP SWAP2 SWAP1 POP JUMP JUMPDEST PUSH1 0x0 DUP2 MLOAD SWAP1 POP SWAP2 SWAP1 POP JUMP JUMPDEST PUSH1 0x0 DUP3 DUP3 MSTORE PUSH1 0x20 DUP3 ADD SWAP1 POP SWAP3 SWAP2 POP POP JUMP JUMPDEST PUSH1 0x0 JUMPDEST DUP4 DUP2 LT ISZERO PUSH2 0x16FA JUMPI DUP1 DUP3 ADD MLOAD DUP2 DUP5 ADD MSTORE PUSH1 0x20 DUP2 ADD SWAP1 POP PUSH2 0x16DF JUMP JUMPDEST PUSH1 0x0 DUP5 DUP5 ADD MSTORE POP POP POP POP JUMP JUMPDEST PUSH1 0x0 PUSH2 0x1711 DUP3 PUSH2 0x16C0 JUMP JUMPDEST PUSH2 0x171B DUP2 DUP6 PUSH2 0x16CB JUMP JUMPDEST SWAP4 POP PUSH2 0x172B DUP2 DUP6 PUSH1 0x20 DUP7 ADD PUSH2 0x16DC JUMP JUMPDEST PUSH2 0x1734 DUP2 PUSH2 0x11C5 JUMP JUMPDEST DUP5 ADD SWAP2 POP POP SWAP3 SWAP2 POP POP JUMP JUMPDEST PUSH2 0x1748 DUP2 PUSH2 0x1418 JUMP JUMPDEST DUP3 MSTORE POP POP JUMP JUMPDEST PUSH1 0x0 PUSH1 0xE0 DUP4 ADD PUSH1 0x0 DUP4 ADD MLOAD DUP5 DUP3 SUB PUSH1 0x0 DUP7 ADD MSTORE PUSH2 0x176B DUP3 DUP3 PUSH2 0x1706 JUMP JUMPDEST SWAP2 POP POP PUSH1 0x20 DUP4 ADD MLOAD DUP5 DUP3 SUB PUSH1 0x20 DUP7 ADD MSTORE PUSH2 0x1785 DUP3 DUP3 PUSH2 0x1706 JUMP JUMPDEST SWAP2 POP POP PUSH1 0x40 DUP4 ADD MLOAD DUP5 DUP3 SUB PUSH1 0x40 DUP7 ADD MSTORE PUSH2 0x179F DUP3 DUP3 PUSH2 0x1706 JUMP JUMPDEST SWAP2 POP POP PUSH1 0x60 DUP4 ADD MLOAD DUP5 DUP3 SUB PUSH1 0x60 DUP7 ADD MSTORE PUSH2 0x17B9 DUP3 DUP3 PUSH2 0x1706 JUMP JUMPDEST SWAP2 POP POP PUSH1 0x80 DUP4 ADD MLOAD DUP5 DUP3 SUB PUSH1 0x80 DUP7 ADD MSTORE PUSH2 0x17D3 DUP3 DUP3 PUSH2 0x1706 JUMP JUMPDEST SWAP2 POP POP PUSH1 0xA0 DUP4 ADD MLOAD DUP5 DUP3 SUB PUSH1 0xA0 DUP7 ADD MSTORE PUSH2 0x17ED DUP3 DUP3 PUSH2 0x1706 JUMP JUMPDEST SWAP2 POP POP PUSH1 0xC0 DUP4 ADD MLOAD PUSH2 0x1802 PUSH1 0xC0 DUP7 ADD DUP3 PUSH2 0x173F JUMP JUMPDEST POP DUP1 SWAP2 POP POP SWAP3 SWAP2 POP POP JUMP JUMPDEST PUSH1 0x0 PUSH2 0x1819 DUP4 DUP4 PUSH2 0x174E JUMP JUMPDEST SWAP1 POP SWAP3 SWAP2 POP POP JUMP JUMPDEST PUSH1 0x0 PUSH1 0x20 DUP3 ADD SWAP1 POP SWAP2 SWAP1 POP JUMP JUMPDEST PUSH1 0x0 PUSH2 0x1839 DUP3 PUSH2 0x1694 JUMP JUMPDEST PUSH2 0x1843 DUP2 DUP6 PUSH2 0x169F JUMP JUMPDEST SWAP4 POP DUP4 PUSH1 0x20 DUP3 MUL DUP6 ADD PUSH2 0x1855 DUP6 PUSH2 0x16B0 JUMP JUMPDEST DUP1 PUSH1 0x0 JUMPDEST DUP6 DUP2 LT ISZERO PUSH2 0x1891 JUMPI DUP5 DUP5 SUB DUP10 MSTORE DUP2 MLOAD PUSH2 0x1872 DUP6 DUP3 PUSH2 0x180D JUMP JUMPDEST SWAP5 POP PUSH2 0x187D DUP4 PUSH2 0x1821 JUMP JUMPDEST SWAP3 POP PUSH1 0x20 DUP11 ADD SWAP10 POP POP PUSH1 0x1 DUP2 ADD SWAP1 POP PUSH2 0x1859 JUMP JUMPDEST POP DUP3 SWAP8 POP DUP8 SWAP6 POP POP POP POP POP POP SWAP3 SWAP2 POP POP JUMP JUMPDEST PUSH1 0x0 PUSH1 0x20 DUP3 ADD SWAP1 POP DUP2 DUP2 SUB PUSH1 0x0 DUP4 ADD MSTORE PUSH2 0x18BD DUP2 DUP5 PUSH2 0x182E JUMP JUMPDEST SWAP1 POP SWAP3 SWAP2 POP POP JUMP JUMPDEST PUSH1 0x0 PUSH1 0x20 DUP3 DUP5 SUB SLT ISZERO PUSH2 0x18DB JUMPI PUSH2 0x18DA PUSH2 0x11B6 JUMP JUMPDEST JUMPDEST PUSH1 0x0 PUSH2 0x18E9 DUP5 DUP3 DUP6 ADD PUSH2 0x1439 JUMP JUMPDEST SWAP2 POP POP SWAP3 SWAP2 POP POP JUMP JUMPDEST PUSH1 0x0 DUP3 DUP3 MSTORE PUSH1 0x20 DUP3 ADD SWAP1 POP SWAP3 SWAP2 POP POP JUMP JUMPDEST PUSH1 0x0 PUSH2 0x190E DUP3 PUSH2 0x16C0 JUMP JUMPDEST PUSH2 0x1918 DUP2 DUP6 PUSH2 0x18F2 JUMP JUMPDEST SWAP4 POP PUSH2 0x1928 DUP2 DUP6 PUSH1 0x20 DUP7 ADD PUSH2 0x16DC JUMP JUMPDEST PUSH2 0x1931 DUP2 PUSH2 0x11C5 JUMP JUMPDEST DUP5 ADD SWAP2 POP POP SWAP3 SWAP2 POP POP JUMP JUMPDEST PUSH2 0x1945 DUP2 PUSH2 0x1418 JUMP JUMPDEST DUP3 MSTORE POP POP JUMP JUMPDEST PUSH1 0x0 PUSH1 0xE0 DUP3 ADD SWAP1 POP DUP2 DUP2 SUB PUSH1 0x0 DUP4 ADD MSTORE PUSH2 0x1965 DUP2 DUP11 PUSH2 0x1903 JUMP JUMPDEST SWAP1 POP DUP2 DUP2 SUB PUSH1 0x20 DUP4 ADD MSTORE PUSH2 0x1979 DUP2 DUP10 PUSH2 0x1903 JUMP JUMPDEST SWAP1 POP DUP2 DUP2 SUB PUSH1 0x40 DUP4 ADD MSTORE PUSH2 0x198D DUP2 DUP9 PUSH2 0x1903 JUMP JUMPDEST SWAP1 POP DUP2 DUP2 SUB PUSH1 0x60 DUP4 ADD MSTORE PUSH2 0x19A1 DUP2 DUP8 PUSH2 0x1903 JUMP JUMPDEST SWAP1 POP DUP2 DUP2 SUB PUSH1 0x80 DUP4 ADD MSTORE PUSH2 0x19B5 DUP2 DUP7 PUSH2 0x1903 JUMP JUMPDEST SWAP1 POP DUP2 DUP2 SUB PUSH1 0xA0 DUP4 ADD MSTORE PUSH2 0x19C9 DUP2 DUP6 PUSH2 0x1903 JUMP JUMPDEST SWAP1 POP PUSH2 0x19D8 PUSH1 0xC0 DUP4 ADD DUP5 PUSH2 0x193C JUMP JUMPDEST SWAP9 SWAP8 POP POP POP POP POP POP POP POP JUMP JUMPDEST PUSH1 0x0 PUSH1 0x20 DUP3 ADD SWAP1 POP PUSH2 0x19F9 PUSH1 0x0 DUP4 ADD DUP5 PUSH2 0x193C JUMP JUMPDEST SWAP3 SWAP2 POP POP JUMP JUMPDEST PUSH32 0x4C656E67746873206F6620696E7075742061727261797320646F206E6F74206D PUSH1 0x0 DUP3 ADD MSTORE PUSH32 0x6174636800000000000000000000000000000000000000000000000000000000 PUSH1 0x20 DUP3 ADD MSTORE POP JUMP JUMPDEST PUSH1 0x0 PUSH2 0x1A5B PUSH1 0x24 DUP4 PUSH2 0x18F2 JUMP JUMPDEST SWAP2 POP PUSH2 0x1A66 DUP3 PUSH2 0x19FF JUMP JUMPDEST PUSH1 0x40 DUP3 ADD SWAP1 POP SWAP2 SWAP1 POP JUMP JUMPDEST PUSH1 0x0 PUSH1 0x20 DUP3 ADD SWAP1 POP DUP2 DUP2 SUB PUSH1 0x0 DUP4 ADD MSTORE PUSH2 0x1A8A DUP2 PUSH2 0x1A4E JUMP JUMPDEST SWAP1 POP SWAP2 SWAP1 POP JUMP JUMPDEST PUSH32 0x4E487B7100000000000000000000000000000000000000000000000000000000 PUSH1 0x0 MSTORE PUSH1 0x11 PUSH1 0x4 MSTORE PUSH1 0x24 PUSH1 0x0 REVERT JUMPDEST PUSH1 0x0 PUSH2 0x1ACB DUP3 PUSH2 0x1418 JUMP JUMPDEST SWAP2 POP PUSH32 0xFFFFFFFFFFFFFFFFFFFFFFFFFFFFFFFFFFFFFFFFFFFFFFFFFFFFFFFFFFFFFFFF DUP3 SUB PUSH2 0x1AFD JUMPI PUSH2 0x1AFC PUSH2 0x1A91 JUMP JUMPDEST JUMPDEST PUSH1 0x1 DUP3 ADD SWAP1 POP SWAP2 SWAP1 POP JUMP JUMPDEST PUSH32 0x4E487B7100000000000000000000000000000000000000000000000000000000 PUSH1 0x0 MSTORE PUSH1 0x32 PUSH1 0x4 MSTORE PUSH1 0x24 PUSH1 0x0 REVERT JUMPDEST PUSH32 0x4E487B7100000000000000000000000000000000000000000000000000000000 PUSH1 0x0 MSTORE PUSH1 0x22 PUSH1 0x4 MSTORE PUSH1 0x24 PUSH1 0x0 REVERT JUMPDEST PUSH1 0x0 PUSH1 0x2 DUP3 DIV SWAP1 POP PUSH1 0x1 DUP3 AND DUP1 PUSH2 0x1B7E JUMPI PUSH1 0x7F DUP3 AND SWAP2 POP JUMPDEST PUSH1 0x20 DUP3 LT DUP2 SUB PUSH2 0x1B91 JUMPI PUSH2 0x1B90 PUSH2 0x1B37 JUMP JUMPDEST JUMPDEST POP SWAP2 SWAP1 POP JUMP JUMPDEST PUSH1 0x0 DUP2 SWAP1 POP DUP2 PUSH1 0x0 MSTORE PUSH1 0x20 PUSH1 0x0 KECCAK256 SWAP1 POP SWAP2 SWAP1 POP JUMP JUMPDEST PUSH1 0x0 PUSH1 0x20 PUSH1 0x1F DUP4 ADD DIV SWAP1 POP SWAP2 SWAP1 POP JUMP JUMPDEST PUSH1 0x0 DUP3 DUP3 SHL SWAP1 POP SWAP3 SWAP2 POP POP JUMP JUMPDEST PUSH1 0x0 PUSH1 0x8 DUP4 MUL PUSH2 0x1BF9 PUSH32 0xFFFFFFFFFFFFFFFFFFFFFFFFFFFFFFFFFFFFFFFFFFFFFFFFFFFFFFFFFFFFFFFF DUP3 PUSH2 0x1BBC JUMP JUMPDEST PUSH2 0x1C03 DUP7 DUP4 PUSH2 0x1BBC JUMP JUMPDEST SWAP6 POP DUP1 NOT DUP5 AND SWAP4 POP DUP1 DUP7 AND DUP5 OR SWAP3 POP POP POP SWAP4 SWAP3 POP POP POP JUMP JUMPDEST PUSH1 0x0 DUP2 SWAP1 POP SWAP2 SWAP1 POP JUMP JUMPDEST PUSH1 0x0 PUSH2 0x1C40 PUSH2 0x1C3B PUSH2 0x1C36 DUP5 PUSH2 0x1418 JUMP JUMPDEST PUSH2 0x1C1B JUMP JUMPDEST PUSH2 0x1418 JUMP JUMPDEST SWAP1 POP SWAP2 SWAP1 POP JUMP JUMPDEST PUSH1 0x0 DUP2 SWAP1 POP SWAP2 SWAP1 POP JUMP JUMPDEST PUSH2 0x1C5A DUP4 PUSH2 0x1C25 JUMP JUMPDEST PUSH2 0x1C6E PUSH2 0x1C66 DUP3 PUSH2 0x1C47 JUMP JUMPDEST DUP5 DUP5 SLOAD PUSH2 0x1BC9 JUMP JUMPDEST DUP3 SSTORE POP POP POP POP JUMP JUMPDEST PUSH1 0x0 SWAP1 JUMP JUMPDEST PUSH2 0x1C83 PUSH2 0x1C76 JUMP JUMPDEST PUSH2 0x1C8E DUP2 DUP5 DUP5 PUSH2 0x1C51 JUMP JUMPDEST POP POP POP JUMP JUMPDEST JUMPDEST DUP2 DUP2 LT ISZERO PUSH2 0x1CB2 JUMPI PUSH2 0x1CA7 PUSH1 0x0 DUP3 PUSH2 0x1C7B JUMP JUMPDEST PUSH1 0x1 DUP2 ADD SWAP1 POP PUSH2 0x1C94 JUMP JUMPDEST POP POP JUMP JUMPDEST PUSH1 0x1F DUP3 GT ISZERO PUSH2 0x1CF7 JUMPI PUSH2 0x1CC8 DUP2 PUSH2 0x1B97 JUMP JUMPDEST PUSH2 0x1CD1 DUP5 PUSH2 0x1BAC JUMP JUMPDEST DUP2 ADD PUSH1 0x20 DUP6 LT ISZERO PUSH2 0x1CE0 JUMPI DUP2 SWAP1 POP JUMPDEST PUSH2 0x1CF4 PUSH2 0x1CEC DUP6 PUSH2 0x1BAC JUMP JUMPDEST DUP4 ADD DUP3 PUSH2 0x1C93 JUMP JUMPDEST POP POP JUMPDEST POP POP POP JUMP JUMPDEST PUSH1 0x0 DUP3 DUP3 SHR SWAP1 POP SWAP3 SWAP2 POP POP JUMP JUMPDEST PUSH1 0x0 PUSH2 0x1D1A PUSH1 0x0 NOT DUP5 PUSH1 0x8 MUL PUSH2 0x1CFC JUMP JUMPDEST NOT DUP1 DUP4 AND SWAP2 POP POP SWAP3 SWAP2 POP POP JUMP JUMPDEST PUSH1 0x0 PUSH2 0x1D33 DUP4 DUP4 PUSH2 0x1D09 JUMP JUMPDEST SWAP2 POP DUP3 PUSH1 0x2 MUL DUP3 OR SWAP1 POP SWAP3 SWAP2 POP POP JUMP JUMPDEST PUSH2 0x1D4C DUP3 PUSH2 0x16C0 JUMP JUMPDEST PUSH8 0xFFFFFFFFFFFFFFFF DUP2 GT ISZERO PUSH2 0x1D65 JUMPI PUSH2 0x1D64 PUSH2 0x11D6 JUMP JUMPDEST JUMPDEST PUSH2 0x1D6F DUP3 SLOAD PUSH2 0x1B66 JUMP JUMPDEST PUSH2 0x1D7A DUP3 DUP3 DUP6 PUSH2 0x1CB6 JUMP JUMPDEST PUSH1 0x0 PUSH1 0x20 SWAP1 POP PUSH1 0x1F DUP4 GT PUSH1 0x1 DUP2 EQ PUSH2 0x1DAD JUMPI PUSH1 0x0 DUP5 ISZERO PUSH2 0x1D9B JUMPI DUP3 DUP8 ADD MLOAD SWAP1 POP JUMPDEST PUSH2 0x1DA5 DUP6 DUP3 PUSH2 0x1D27 JUMP JUMPDEST DUP7 SSTORE POP PUSH2 0x1E0D JUMP JUMPDEST PUSH1 0x1F NOT DUP5 AND PUSH2 0x1DBB DUP7 PUSH2 0x1B97 JUMP JUMPDEST PUSH1 0x0 JUMPDEST DUP3 DUP2 LT ISZERO PUSH2 0x1DE3 JUMPI DUP5 DUP10 ADD MLOAD DUP3 SSTORE PUSH1 0x1 DUP3 ADD SWAP2 POP PUSH1 0x20 DUP6 ADD SWAP5 POP PUSH1 0x20 DUP2 ADD SWAP1 POP PUSH2 0x1DBE JUMP JUMPDEST DUP7 DUP4 LT ISZERO PUSH2 0x1E00 JUMPI DUP5 DUP10 ADD MLOAD PUSH2 0x1DFC PUSH1 0x1F DUP10 AND DUP3 PUSH2 0x1D09 JUMP JUMPDEST DUP4 SSTORE POP JUMPDEST PUSH1 0x1 PUSH1 0x2 DUP9 MUL ADD DUP9 SSTORE POP POP POP JUMPDEST POP POP POP POP POP POP JUMP JUMPDEST PUSH1 0x0 DUP2 SWAP1 POP SWAP3 SWAP2 POP POP JUMP JUMPDEST PUSH1 0x0 PUSH2 0x1E2B DUP3 PUSH2 0x16C0 JUMP JUMPDEST PUSH2 0x1E35 DUP2 DUP6 PUSH2 0x1E15 JUMP JUMPDEST SWAP4 POP PUSH2 0x1E45 DUP2 DUP6 PUSH1 0x20 DUP7 ADD PUSH2 0x16DC JUMP JUMPDEST DUP1 DUP5 ADD SWAP2 POP POP SWAP3 SWAP2 POP POP JUMP JUMPDEST PUSH1 0x0 PUSH2 0x1E5D DUP3 DUP5 PUSH2 0x1E20 JUMP JUMPDEST SWAP2 POP DUP2 SWAP1 POP SWAP3 SWAP2 POP POP JUMP JUMPDEST PUSH1 0x0 DUP2 SLOAD PUSH2 0x1E75 DUP2 PUSH2 0x1B66 JUMP JUMPDEST PUSH2 0x1E7F DUP2 DUP7 PUSH2 0x1E15 JUMP JUMPDEST SWAP5 POP PUSH1 0x1 DUP3 AND PUSH1 0x0 DUP2 EQ PUSH2 0x1E9A JUMPI PUSH1 0x1 DUP2 EQ PUSH2 0x1EAF JUMPI PUSH2 0x1EE2 JUMP JUMPDEST PUSH1 0xFF NOT DUP4 AND DUP7 MSTORE DUP2 ISZERO ISZERO DUP3 MUL DUP7 ADD SWAP4 POP PUSH2 0x1EE2 JUMP JUMPDEST PUSH2 0x1EB8 DUP6 PUSH2 0x1B97 JUMP JUMPDEST PUSH1 0x0 JUMPDEST DUP4 DUP2 LT ISZERO PUSH2 0x1EDA JUMPI DUP2 SLOAD DUP2 DUP10 ADD MSTORE PUSH1 0x1 DUP3 ADD SWAP2 POP PUSH1 0x20 DUP2 ADD SWAP1 POP PUSH2 0x1EBB JUMP JUMPDEST DUP4 DUP9 ADD SWAP6 POP POP POP JUMPDEST POP POP POP SWAP3 SWAP2 POP POP JUMP JUMPDEST PUSH1 0x0 PUSH2 0x1EF7 DUP3 DUP5 PUSH2 0x1E68 JUMP JUMPDEST SWAP2 POP DUP2 SWAP1 POP SWAP3 SWAP2 POP POP JUMP JUMPDEST PUSH1 0x0 PUSH2 0x1F0D DUP3 PUSH2 0x1418 JUMP JUMPDEST SWAP2 POP PUSH2 0x1F18 DUP4 PUSH2 0x1418 JUMP JUMPDEST SWAP3 POP DUP3 DUP3 SUB SWAP1 POP DUP2 DUP2 GT ISZERO PUSH2 0x1F30 JUMPI PUSH2 0x1F2F PUSH2 0x1A91 JUMP JUMPDEST JUMPDEST SWAP3 SWAP2 POP POP JUMP INVALID LOG2 PUSH5 0x6970667358 0x22 SLT KECCAK256 DUP1 0xE6 0x28 GT LOG1 0xDA NOT SLT DUP12 POP PUSH28 0xBE91728C2AB424EB6AB72004BE90025F6EDF8AD3B164736F6C634300 ADDMOD LT STOP CALLER "
				},
				"gasEstimates": {
					"creation": {
						"codeDepositCost": "1608800",
						"executionCost": "1687",
						"totalCost": "1610487"
					},
					"external": {
						"addTransactionDetail(string[],string[],string[],string[],string[],string[],uint256[])": "infinite",
						"getAllTransactionDetail()": "infinite",
						"getTransactionDetailByTransactionCode(string)": "infinite",
						"transactionDetailCount()": "2495",
						"transactionDetails(uint256)": "infinite"
					}
				},
				"methodIdentifiers": {
					"addTransactionDetail(string[],string[],string[],string[],string[],string[],uint256[])": "0138f38d",
					"getAllTransactionDetail()": "a5773610",
					"getTransactionDetailByTransactionCode(string)": "2ef8750f",
					"transactionDetailCount()": "cf810953",
					"transactionDetails(uint256)": "3f0a54a6"
				}
			},
			"storageLayout": {
				"storage": [
					{
						"astId": 37,
						"contract": "contracts/TransactionDetailContract28April.sol:TransactionDetailContract",
						"label": "transactionDetails",
						"offset": 0,
						"slot": "0",
						"type": "t_mapping(t_uint256,t_struct(TransactionDetail)16_storage)"
					},
					{
						"astId": 39,
						"contract": "contracts/TransactionDetailContract28April.sol:TransactionDetailContract",
						"label": "transactionDetailCount",
						"offset": 0,
						"slot": "1",
						"type": "t_uint256"
					}
				],
				"types": {
					"t_mapping(t_uint256,t_struct(TransactionDetail)16_storage)": {
						"encoding": "mapping",
						"key": "t_uint256",
						"label": "mapping(uint256 => struct TransactionDetailContract.TransactionDetail)",
						"numberOfBytes": "32",
						"value": "t_struct(TransactionDetail)16_storage"
					},
					"t_string_storage": {
						"encoding": "bytes",
						"label": "string",
						"numberOfBytes": "32"
					},
					"t_struct(TransactionDetail)16_storage": {
						"encoding": "inplace",
						"label": "struct TransactionDetailContract.TransactionDetail",
						"members": [
							{
								"astId": 3,
								"contract": "contracts/TransactionDetailContract28April.sol:TransactionDetailContract",
								"label": "transactionCode",
								"offset": 0,
								"slot": "0",
								"type": "t_string_storage"
							},
							{
								"astId": 5,
								"contract": "contracts/TransactionDetailContract28April.sol:TransactionDetailContract",
								"label": "productName",
								"offset": 0,
								"slot": "1",
								"type": "t_string_storage"
							},
							{
								"astId": 7,
								"contract": "contracts/TransactionDetailContract28April.sol:TransactionDetailContract",
								"label": "productDescription",
								"offset": 0,
								"slot": "2",
								"type": "t_string_storage"
							},
							{
								"astId": 9,
								"contract": "contracts/TransactionDetailContract28April.sol:TransactionDetailContract",
								"label": "tokenOfProduct",
								"offset": 0,
								"slot": "3",
								"type": "t_string_storage"
							},
							{
								"astId": 11,
								"contract": "contracts/TransactionDetailContract28April.sol:TransactionDetailContract",
								"label": "productId",
								"offset": 0,
								"slot": "4",
								"type": "t_string_storage"
							},
							{
								"astId": 13,
								"contract": "contracts/TransactionDetailContract28April.sol:TransactionDetailContract",
								"label": "price",
								"offset": 0,
								"slot": "5",
								"type": "t_string_storage"
							},
							{
								"astId": 15,
								"contract": "contracts/TransactionDetailContract28April.sol:TransactionDetailContract",
								"label": "createdAt",
								"offset": 0,
								"slot": "6",
								"type": "t_uint256"
							}
						],
						"numberOfBytes": "224"
					},
					"t_uint256": {
						"encoding": "inplace",
						"label": "uint256",
						"numberOfBytes": "32"
					}
				}
			},
			"userdoc": {
				"kind": "user",
				"methods": {},
				"version": 1
			}
		}
	}
}