{
	"contracts/TransactionContract8Juni.sol": {
		"TransactionContract": {
			"abi": [
				{
					"inputs": [],
					"stateMutability": "nonpayable",
					"type": "constructor"
				},
				{
					"anonymous": false,
					"inputs": [
						{
							"indexed": false,
							"internalType": "string",
							"name": "transactionCode",
							"type": "string"
						},
						{
							"indexed": false,
							"internalType": "string",
							"name": "newPaymentStatus",
							"type": "string"
						}
					],
					"name": "PaymentStatusUpdated",
					"type": "event"
				},
				{
					"anonymous": false,
					"inputs": [
						{
							"indexed": false,
							"internalType": "string",
							"name": "transactionCode",
							"type": "string"
						},
						{
							"indexed": false,
							"internalType": "string",
							"name": "newStatus",
							"type": "string"
						}
					],
					"name": "StatusUpdated",
					"type": "event"
				},
				{
					"anonymous": false,
					"inputs": [
						{
							"indexed": false,
							"internalType": "string",
							"name": "transactionCode",
							"type": "string"
						},
						{
							"indexed": false,
							"internalType": "uint256",
							"name": "campaignId",
							"type": "uint256"
						},
						{
							"indexed": false,
							"internalType": "uint256",
							"name": "fromToUserId",
							"type": "uint256"
						},
						{
							"indexed": false,
							"internalType": "string",
							"name": "orderType",
							"type": "string"
						},
						{
							"indexed": false,
							"internalType": "string",
							"name": "paymentStatus",
							"type": "string"
						},
						{
							"indexed": false,
							"internalType": "string",
							"name": "status",
							"type": "string"
						},
						{
							"indexed": false,
							"internalType": "uint256",
							"name": "quantity",
							"type": "uint256"
						},
						{
							"indexed": false,
							"internalType": "uint256",
							"name": "totalPrice",
							"type": "uint256"
						},
						{
							"indexed": false,
							"internalType": "uint256",
							"name": "createdAt",
							"type": "uint256"
						}
					],
					"name": "TransactionAdded",
					"type": "event"
				},
				{
					"inputs": [
						{
							"internalType": "string",
							"name": "_transactionCode",
							"type": "string"
						},
						{
							"internalType": "uint256",
							"name": "_campaignId",
							"type": "uint256"
						},
						{
							"internalType": "uint256",
							"name": "_fromToUserId",
							"type": "uint256"
						},
						{
							"internalType": "string",
							"name": "_orderType",
							"type": "string"
						},
						{
							"internalType": "string",
							"name": "_paymentStatus",
							"type": "string"
						},
						{
							"internalType": "string",
							"name": "_status",
							"type": "string"
						},
						{
							"internalType": "uint256",
							"name": "_quantity",
							"type": "uint256"
						},
						{
							"internalType": "uint256",
							"name": "_totalPrice",
							"type": "uint256"
						},
						{
							"internalType": "uint256",
							"name": "_createdAt",
							"type": "uint256"
						}
					],
					"name": "addTransaction",
					"outputs": [],
					"stateMutability": "nonpayable",
					"type": "function"
				},
				{
					"inputs": [],
					"name": "getAllTransactions",
					"outputs": [
						{
							"components": [
								{
									"internalType": "string",
									"name": "transactionCode",
									"type": "string"
								},
								{
									"internalType": "uint256",
									"name": "campaignId",
									"type": "uint256"
								},
								{
									"internalType": "uint256",
									"name": "fromToUserId",
									"type": "uint256"
								},
								{
									"internalType": "string",
									"name": "orderType",
									"type": "string"
								},
								{
									"internalType": "string",
									"name": "paymentStatus",
									"type": "string"
								},
								{
									"internalType": "string",
									"name": "status",
									"type": "string"
								},
								{
									"internalType": "uint256",
									"name": "quantity",
									"type": "uint256"
								},
								{
									"internalType": "uint256",
									"name": "totalPrice",
									"type": "uint256"
								},
								{
									"internalType": "uint256",
									"name": "createdAt",
									"type": "uint256"
								}
							],
							"internalType": "struct TransactionContract.Transaction[]",
							"name": "",
							"type": "tuple[]"
						}
					],
					"stateMutability": "view",
					"type": "function"
				},
				{
					"inputs": [
						{
							"internalType": "uint256",
							"name": "_campaignId",
							"type": "uint256"
						}
					],
					"name": "getTransactionByCampaignId",
					"outputs": [
						{
							"components": [
								{
									"internalType": "string",
									"name": "transactionCode",
									"type": "string"
								},
								{
									"internalType": "uint256",
									"name": "campaignId",
									"type": "uint256"
								},
								{
									"internalType": "uint256",
									"name": "fromToUserId",
									"type": "uint256"
								},
								{
									"internalType": "string",
									"name": "orderType",
									"type": "string"
								},
								{
									"internalType": "string",
									"name": "paymentStatus",
									"type": "string"
								},
								{
									"internalType": "string",
									"name": "status",
									"type": "string"
								},
								{
									"internalType": "uint256",
									"name": "quantity",
									"type": "uint256"
								},
								{
									"internalType": "uint256",
									"name": "totalPrice",
									"type": "uint256"
								},
								{
									"internalType": "uint256",
									"name": "createdAt",
									"type": "uint256"
								}
							],
							"internalType": "struct TransactionContract.Transaction[]",
							"name": "",
							"type": "tuple[]"
						}
					],
					"stateMutability": "view",
					"type": "function"
				},
				{
					"inputs": [
						{
							"internalType": "string",
							"name": "_transactionCode",
							"type": "string"
						}
					],
					"name": "getTransactionByCode",
					"outputs": [
						{
							"components": [
								{
									"internalType": "string",
									"name": "transactionCode",
									"type": "string"
								},
								{
									"internalType": "uint256",
									"name": "campaignId",
									"type": "uint256"
								},
								{
									"internalType": "uint256",
									"name": "fromToUserId",
									"type": "uint256"
								},
								{
									"internalType": "string",
									"name": "orderType",
									"type": "string"
								},
								{
									"internalType": "string",
									"name": "paymentStatus",
									"type": "string"
								},
								{
									"internalType": "string",
									"name": "status",
									"type": "string"
								},
								{
									"internalType": "uint256",
									"name": "quantity",
									"type": "uint256"
								},
								{
									"internalType": "uint256",
									"name": "totalPrice",
									"type": "uint256"
								},
								{
									"internalType": "uint256",
									"name": "createdAt",
									"type": "uint256"
								}
							],
							"internalType": "struct TransactionContract.Transaction",
							"name": "",
							"type": "tuple"
						}
					],
					"stateMutability": "view",
					"type": "function"
				},
				{
					"inputs": [
						{
							"internalType": "uint256",
							"name": "_fromToUserId",
							"type": "uint256"
						}
					],
					"name": "getTransactionByFromToUserId",
					"outputs": [
						{
							"components": [
								{
									"internalType": "string",
									"name": "transactionCode",
									"type": "string"
								},
								{
									"internalType": "uint256",
									"name": "campaignId",
									"type": "uint256"
								},
								{
									"internalType": "uint256",
									"name": "fromToUserId",
									"type": "uint256"
								},
								{
									"internalType": "string",
									"name": "orderType",
									"type": "string"
								},
								{
									"internalType": "string",
									"name": "paymentStatus",
									"type": "string"
								},
								{
									"internalType": "string",
									"name": "status",
									"type": "string"
								},
								{
									"internalType": "uint256",
									"name": "quantity",
									"type": "uint256"
								},
								{
									"internalType": "uint256",
									"name": "totalPrice",
									"type": "uint256"
								},
								{
									"internalType": "uint256",
									"name": "createdAt",
									"type": "uint256"
								}
							],
							"internalType": "struct TransactionContract.Transaction[]",
							"name": "",
							"type": "tuple[]"
						}
					],
					"stateMutability": "view",
					"type": "function"
				},
				{
					"inputs": [
						{
							"internalType": "uint256",
							"name": "",
							"type": "uint256"
						}
					],
					"name": "transactionCodes",
					"outputs": [
						{
							"internalType": "string",
							"name": "",
							"type": "string"
						}
					],
					"stateMutability": "view",
					"type": "function"
				},
				{
					"inputs": [
						{
							"internalType": "string",
							"name": "",
							"type": "string"
						}
					],
					"name": "transactions",
					"outputs": [
						{
							"internalType": "string",
							"name": "transactionCode",
							"type": "string"
						},
						{
							"internalType": "uint256",
							"name": "campaignId",
							"type": "uint256"
						},
						{
							"internalType": "uint256",
							"name": "fromToUserId",
							"type": "uint256"
						},
						{
							"internalType": "string",
							"name": "orderType",
							"type": "string"
						},
						{
							"internalType": "string",
							"name": "paymentStatus",
							"type": "string"
						},
						{
							"internalType": "string",
							"name": "status",
							"type": "string"
						},
						{
							"internalType": "uint256",
							"name": "quantity",
							"type": "uint256"
						},
						{
							"internalType": "uint256",
							"name": "totalPrice",
							"type": "uint256"
						},
						{
							"internalType": "uint256",
							"name": "createdAt",
							"type": "uint256"
						}
					],
					"stateMutability": "view",
					"type": "function"
				},
				{
					"inputs": [
						{
							"internalType": "string",
							"name": "_transactionCode",
							"type": "string"
						},
						{
							"internalType": "string",
							"name": "_newPaymentStatus",
							"type": "string"
						}
					],
					"name": "updatePaymentStatus",
					"outputs": [],
					"stateMutability": "nonpayable",
					"type": "function"
				},
				{
					"inputs": [
						{
							"internalType": "string",
							"name": "_transactionCode",
							"type": "string"
						},
						{
							"internalType": "string",
							"name": "_newStatus",
							"type": "string"
						}
					],
					"name": "updateStatus",
					"outputs": [],
					"stateMutability": "nonpayable",
					"type": "function"
				}
			],
			"devdoc": {
				"kind": "dev",
				"methods": {},
				"version": 1
			},
			"evm": {
				"assembly": "    /* \"contracts/TransactionContract8Juni.sol\":56:4962  contract TransactionContract {... */\n  mstore(0x40, 0x80)\n    /* \"contracts/TransactionContract8Juni.sol\":940:989  constructor() {... */\n  callvalue\n  dup1\n  iszero\n  tag_1\n  jumpi\n  0x00\n  dup1\n  revert\ntag_1:\n  pop\n    /* \"contracts/TransactionContract8Juni.sol\":56:4962  contract TransactionContract {... */\n  dataSize(sub_0)\n  dup1\n  dataOffset(sub_0)\n  0x00\n  codecopy\n  0x00\n  return\nstop\n\nsub_0: assembly {\n        /* \"contracts/TransactionContract8Juni.sol\":56:4962  contract TransactionContract {... */\n      mstore(0x40, 0x80)\n      callvalue\n      dup1\n      iszero\n      tag_1\n      jumpi\n      0x00\n      dup1\n      revert\n    tag_1:\n      pop\n      jumpi(tag_2, lt(calldatasize, 0x04))\n      shr(0xe0, calldataload(0x00))\n      dup1\n      0x347047cc\n      gt\n      tag_12\n      jumpi\n      dup1\n      0x347047cc\n      eq\n      tag_7\n      jumpi\n      dup1\n      0x43287e30\n      eq\n      tag_8\n      jumpi\n      dup1\n      0x7ce99c58\n      eq\n      tag_9\n      jumpi\n      dup1\n      0xd339b0ec\n      eq\n      tag_10\n      jumpi\n      dup1\n      0xfff50461\n      eq\n      tag_11\n      jumpi\n      jump(tag_2)\n    tag_12:\n      dup1\n      0x022236f4\n      eq\n      tag_3\n      jumpi\n      dup1\n      0x21a1c63a\n      eq\n      tag_4\n      jumpi\n      dup1\n      0x27506f53\n      eq\n      tag_5\n      jumpi\n      dup1\n      0x2faa0cca\n      eq\n      tag_6\n      jumpi\n    tag_2:\n      0x00\n      dup1\n      revert\n        /* \"contracts/TransactionContract8Juni.sol\":361:411  mapping(string => Transaction) public transactions */\n    tag_3:\n      tag_13\n      0x04\n      dup1\n      calldatasize\n      sub\n      dup2\n      add\n      swap1\n      tag_14\n      swap2\n      swap1\n      tag_15\n      jump\t// in\n    tag_14:\n      tag_16\n      jump\t// in\n    tag_13:\n      mload(0x40)\n      tag_17\n      swap10\n      swap9\n      swap8\n      swap7\n      swap6\n      swap5\n      swap4\n      swap3\n      swap2\n      swap1\n      tag_18\n      jump\t// in\n    tag_17:\n      mload(0x40)\n      dup1\n      swap2\n      sub\n      swap1\n      return\n        /* \"contracts/TransactionContract8Juni.sol\":995:1967  function addTransaction(... */\n    tag_4:\n      tag_19\n      0x04\n      dup1\n      calldatasize\n      sub\n      dup2\n      add\n      swap1\n      tag_20\n      swap2\n      swap1\n      tag_21\n      jump\t// in\n    tag_20:\n      tag_22\n      jump\t// in\n    tag_19:\n      stop\n        /* \"contracts/TransactionContract8Juni.sol\":1973:2337  function getAllTransactions() public view returns (Transaction[] memory) {... */\n    tag_5:\n      tag_23\n      tag_24\n      jump\t// in\n    tag_23:\n      mload(0x40)\n      tag_25\n      swap2\n      swap1\n      tag_26\n      jump\t// in\n    tag_25:\n      mload(0x40)\n      dup1\n      swap2\n      sub\n      swap1\n      return\n        /* \"contracts/TransactionContract8Juni.sol\":3161:3931  function getTransactionByFromToUserId(... */\n    tag_6:\n      tag_27\n      0x04\n      dup1\n      calldatasize\n      sub\n      dup2\n      add\n      swap1\n      tag_28\n      swap2\n      swap1\n      tag_29\n      jump\t// in\n    tag_28:\n      tag_30\n      jump\t// in\n    tag_27:\n      mload(0x40)\n      tag_31\n      swap2\n      swap1\n      tag_26\n      jump\t// in\n    tag_31:\n      mload(0x40)\n      dup1\n      swap2\n      sub\n      swap1\n      return\n        /* \"contracts/TransactionContract8Juni.sol\":2343:2725  function updateStatus(... */\n    tag_7:\n      tag_32\n      0x04\n      dup1\n      calldatasize\n      sub\n      dup2\n      add\n      swap1\n      tag_33\n      swap2\n      swap1\n      tag_34\n      jump\t// in\n    tag_33:\n      tag_35\n      jump\t// in\n    tag_32:\n      stop\n        /* \"contracts/TransactionContract8Juni.sol\":4262:4960  function getTransactionByCampaignId(... */\n    tag_8:\n      tag_36\n      0x04\n      dup1\n      calldatasize\n      sub\n      dup2\n      add\n      swap1\n      tag_37\n      swap2\n      swap1\n      tag_29\n      jump\t// in\n    tag_37:\n      tag_38\n      jump\t// in\n    tag_36:\n      mload(0x40)\n      tag_39\n      swap2\n      swap1\n      tag_26\n      jump\t// in\n    tag_39:\n      mload(0x40)\n      dup1\n      swap2\n      sub\n      swap1\n      return\n        /* \"contracts/TransactionContract8Juni.sol\":438:470  string[] public transactionCodes */\n    tag_9:\n      tag_40\n      0x04\n      dup1\n      calldatasize\n      sub\n      dup2\n      add\n      swap1\n      tag_41\n      swap2\n      swap1\n      tag_29\n      jump\t// in\n    tag_41:\n      tag_42\n      jump\t// in\n    tag_40:\n      mload(0x40)\n      tag_43\n      swap2\n      swap1\n      tag_44\n      jump\t// in\n    tag_43:\n      mload(0x40)\n      dup1\n      swap2\n      sub\n      swap1\n      return\n        /* \"contracts/TransactionContract8Juni.sol\":3937:4256  function getTransactionByCode(... */\n    tag_10:\n      tag_45\n      0x04\n      dup1\n      calldatasize\n      sub\n      dup2\n      add\n      swap1\n      tag_46\n      swap2\n      swap1\n      tag_15\n      jump\t// in\n    tag_46:\n      tag_47\n      jump\t// in\n    tag_45:\n      mload(0x40)\n      tag_48\n      swap2\n      swap1\n      tag_49\n      jump\t// in\n    tag_48:\n      mload(0x40)\n      dup1\n      swap2\n      sub\n      swap1\n      return\n        /* \"contracts/TransactionContract8Juni.sol\":2731:3155  function updatePaymentStatus(... */\n    tag_11:\n      tag_50\n      0x04\n      dup1\n      calldatasize\n      sub\n      dup2\n      add\n      swap1\n      tag_51\n      swap2\n      swap1\n      tag_34\n      jump\t// in\n    tag_51:\n      tag_52\n      jump\t// in\n    tag_50:\n      stop\n        /* \"contracts/TransactionContract8Juni.sol\":361:411  mapping(string => Transaction) public transactions */\n    tag_16:\n      0x00\n      dup2\n      dup1\n      mload\n      0x20\n      dup2\n      add\n      dup3\n      add\n      dup1\n      mload\n      dup5\n      dup3\n      mstore\n      0x20\n      dup4\n      add\n      0x20\n      dup6\n      add\n      keccak256\n      dup2\n      dup4\n      mstore\n      dup1\n      swap6\n      pop\n      pop\n      pop\n      pop\n      pop\n      pop\n      0x00\n      swap2\n      pop\n      swap1\n      pop\n      dup1\n      0x00\n      add\n      dup1\n      sload\n      tag_53\n      swap1\n      tag_54\n      jump\t// in\n    tag_53:\n      dup1\n      0x1f\n      add\n      0x20\n      dup1\n      swap2\n      div\n      mul\n      0x20\n      add\n      mload(0x40)\n      swap1\n      dup2\n      add\n      0x40\n      mstore\n      dup1\n      swap3\n      swap2\n      swap1\n      dup2\n      dup2\n      mstore\n      0x20\n      add\n      dup3\n      dup1\n      sload\n      tag_55\n      swap1\n      tag_54\n      jump\t// in\n    tag_55:\n      dup1\n      iszero\n      tag_56\n      jumpi\n      dup1\n      0x1f\n      lt\n      tag_57\n      jumpi\n      0x0100\n      dup1\n      dup4\n      sload\n      div\n      mul\n      dup4\n      mstore\n      swap2\n      0x20\n      add\n      swap2\n      jump(tag_56)\n    tag_57:\n      dup3\n      add\n      swap2\n      swap1\n      0x00\n      mstore\n      keccak256(0x00, 0x20)\n      swap1\n    tag_58:\n      dup2\n      sload\n      dup2\n      mstore\n      swap1\n      0x01\n      add\n      swap1\n      0x20\n      add\n      dup1\n      dup4\n      gt\n      tag_58\n      jumpi\n      dup3\n      swap1\n      sub\n      0x1f\n      and\n      dup3\n      add\n      swap2\n    tag_56:\n      pop\n      pop\n      pop\n      pop\n      pop\n      swap1\n      dup1\n      0x01\n      add\n      sload\n      swap1\n      dup1\n      0x02\n      add\n      sload\n      swap1\n      dup1\n      0x03\n      add\n      dup1\n      sload\n      tag_59\n      swap1\n      tag_54\n      jump\t// in\n    tag_59:\n      dup1\n      0x1f\n      add\n      0x20\n      dup1\n      swap2\n      div\n      mul\n      0x20\n      add\n      mload(0x40)\n      swap1\n      dup2\n      add\n      0x40\n      mstore\n      dup1\n      swap3\n      swap2\n      swap1\n      dup2\n      dup2\n      mstore\n      0x20\n      add\n      dup3\n      dup1\n      sload\n      tag_60\n      swap1\n      tag_54\n      jump\t// in\n    tag_60:\n      dup1\n      iszero\n      tag_61\n      jumpi\n      dup1\n      0x1f\n      lt\n      tag_62\n      jumpi\n      0x0100\n      dup1\n      dup4\n      sload\n      div\n      mul\n      dup4\n      mstore\n      swap2\n      0x20\n      add\n      swap2\n      jump(tag_61)\n    tag_62:\n      dup3\n      add\n      swap2\n      swap1\n      0x00\n      mstore\n      keccak256(0x00, 0x20)\n      swap1\n    tag_63:\n      dup2\n      sload\n      dup2\n      mstore\n      swap1\n      0x01\n      add\n      swap1\n      0x20\n      add\n      dup1\n      dup4\n      gt\n      tag_63\n      jumpi\n      dup3\n      swap1\n      sub\n      0x1f\n      and\n      dup3\n      add\n      swap2\n    tag_61:\n      pop\n      pop\n      pop\n      pop\n      pop\n      swap1\n      dup1\n      0x04\n      add\n      dup1\n      sload\n      tag_64\n      swap1\n      tag_54\n      jump\t// in\n    tag_64:\n      dup1\n      0x1f\n      add\n      0x20\n      dup1\n      swap2\n      div\n      mul\n      0x20\n      add\n      mload(0x40)\n      swap1\n      dup2\n      add\n      0x40\n      mstore\n      dup1\n      swap3\n      swap2\n      swap1\n      dup2\n      dup2\n      mstore\n      0x20\n      add\n      dup3\n      dup1\n      sload\n      tag_65\n      swap1\n      tag_54\n      jump\t// in\n    tag_65:\n      dup1\n      iszero\n      tag_66\n      jumpi\n      dup1\n      0x1f\n      lt\n      tag_67\n      jumpi\n      0x0100\n      dup1\n      dup4\n      sload\n      div\n      mul\n      dup4\n      mstore\n      swap2\n      0x20\n      add\n      swap2\n      jump(tag_66)\n    tag_67:\n      dup3\n      add\n      swap2\n      swap1\n      0x00\n      mstore\n      keccak256(0x00, 0x20)\n      swap1\n    tag_68:\n      dup2\n      sload\n      dup2\n      mstore\n      swap1\n      0x01\n      add\n      swap1\n      0x20\n      add\n      dup1\n      dup4\n      gt\n      tag_68\n      jumpi\n      dup3\n      swap1\n      sub\n      0x1f\n      and\n      dup3\n      add\n      swap2\n    tag_66:\n      pop\n      pop\n      pop\n      pop\n      pop\n      swap1\n      dup1\n      0x05\n      add\n      dup1\n      sload\n      tag_69\n      swap1\n      tag_54\n      jump\t// in\n    tag_69:\n      dup1\n      0x1f\n      add\n      0x20\n      dup1\n      swap2\n      div\n      mul\n      0x20\n      add\n      mload(0x40)\n      swap1\n      dup2\n      add\n      0x40\n      mstore\n      dup1\n      swap3\n      swap2\n      swap1\n      dup2\n      dup2\n      mstore\n      0x20\n      add\n      dup3\n      dup1\n      sload\n      tag_70\n      swap1\n      tag_54\n      jump\t// in\n    tag_70:\n      dup1\n      iszero\n      tag_71\n      jumpi\n      dup1\n      0x1f\n      lt\n      tag_72\n      jumpi\n      0x0100\n      dup1\n      dup4\n      sload\n      div\n      mul\n      dup4\n      mstore\n      swap2\n      0x20\n      add\n      swap2\n      jump(tag_71)\n    tag_72:\n      dup3\n      add\n      swap2\n      swap1\n      0x00\n      mstore\n      keccak256(0x00, 0x20)\n      swap1\n    tag_73:\n      dup2\n      sload\n      dup2\n      mstore\n      swap1\n      0x01\n      add\n      swap1\n      0x20\n      add\n      dup1\n      dup4\n      gt\n      tag_73\n      jumpi\n      dup3\n      swap1\n      sub\n      0x1f\n      and\n      dup3\n      add\n      swap2\n    tag_71:\n      pop\n      pop\n      pop\n      pop\n      pop\n      swap1\n      dup1\n      0x06\n      add\n      sload\n      swap1\n      dup1\n      0x07\n      add\n      sload\n      swap1\n      dup1\n      0x08\n      add\n      sload\n      swap1\n      pop\n      dup10\n      jump\t// out\n        /* \"contracts/TransactionContract8Juni.sol\":995:1967  function addTransaction(... */\n    tag_22:\n        /* \"contracts/TransactionContract8Juni.sol\":1350:1598  Transaction(... */\n      mload(0x40)\n      dup1\n      0x0120\n      add\n      0x40\n      mstore\n      dup1\n        /* \"contracts/TransactionContract8Juni.sol\":1375:1391  _transactionCode */\n      dup11\n        /* \"contracts/TransactionContract8Juni.sol\":1350:1598  Transaction(... */\n      dup2\n      mstore\n      0x20\n      add\n        /* \"contracts/TransactionContract8Juni.sol\":1405:1416  _campaignId */\n      dup10\n        /* \"contracts/TransactionContract8Juni.sol\":1350:1598  Transaction(... */\n      dup2\n      mstore\n      0x20\n      add\n        /* \"contracts/TransactionContract8Juni.sol\":1430:1443  _fromToUserId */\n      dup9\n        /* \"contracts/TransactionContract8Juni.sol\":1350:1598  Transaction(... */\n      dup2\n      mstore\n      0x20\n      add\n        /* \"contracts/TransactionContract8Juni.sol\":1457:1467  _orderType */\n      dup8\n        /* \"contracts/TransactionContract8Juni.sol\":1350:1598  Transaction(... */\n      dup2\n      mstore\n      0x20\n      add\n        /* \"contracts/TransactionContract8Juni.sol\":1481:1495  _paymentStatus */\n      dup7\n        /* \"contracts/TransactionContract8Juni.sol\":1350:1598  Transaction(... */\n      dup2\n      mstore\n      0x20\n      add\n        /* \"contracts/TransactionContract8Juni.sol\":1509:1516  _status */\n      dup6\n        /* \"contracts/TransactionContract8Juni.sol\":1350:1598  Transaction(... */\n      dup2\n      mstore\n      0x20\n      add\n        /* \"contracts/TransactionContract8Juni.sol\":1530:1539  _quantity */\n      dup5\n        /* \"contracts/TransactionContract8Juni.sol\":1350:1598  Transaction(... */\n      dup2\n      mstore\n      0x20\n      add\n        /* \"contracts/TransactionContract8Juni.sol\":1553:1564  _totalPrice */\n      dup4\n        /* \"contracts/TransactionContract8Juni.sol\":1350:1598  Transaction(... */\n      dup2\n      mstore\n      0x20\n      add\n        /* \"contracts/TransactionContract8Juni.sol\":1578:1588  _createdAt */\n      dup3\n        /* \"contracts/TransactionContract8Juni.sol\":1350:1598  Transaction(... */\n      dup2\n      mstore\n      pop\n        /* \"contracts/TransactionContract8Juni.sol\":1317:1329  transactions */\n      0x00\n        /* \"contracts/TransactionContract8Juni.sol\":1330:1346  _transactionCode */\n      dup11\n        /* \"contracts/TransactionContract8Juni.sol\":1317:1347  transactions[_transactionCode] */\n      mload(0x40)\n      tag_75\n      swap2\n      swap1\n      tag_76\n      jump\t// in\n    tag_75:\n      swap1\n      dup2\n      mstore\n      0x20\n      add\n      mload(0x40)\n      dup1\n      swap2\n      sub\n      swap1\n      keccak256\n        /* \"contracts/TransactionContract8Juni.sol\":1317:1598  transactions[_transactionCode] = Transaction(... */\n      0x00\n      dup3\n      add\n      mload\n      dup2\n      0x00\n      add\n      swap1\n      dup2\n      tag_77\n      swap2\n      swap1\n      tag_78\n      jump\t// in\n    tag_77:\n      pop\n      0x20\n      dup3\n      add\n      mload\n      dup2\n      0x01\n      add\n      sstore\n      0x40\n      dup3\n      add\n      mload\n      dup2\n      0x02\n      add\n      sstore\n      0x60\n      dup3\n      add\n      mload\n      dup2\n      0x03\n      add\n      swap1\n      dup2\n      tag_79\n      swap2\n      swap1\n      tag_78\n      jump\t// in\n    tag_79:\n      pop\n      0x80\n      dup3\n      add\n      mload\n      dup2\n      0x04\n      add\n      swap1\n      dup2\n      tag_80\n      swap2\n      swap1\n      tag_78\n      jump\t// in\n    tag_80:\n      pop\n      0xa0\n      dup3\n      add\n      mload\n      dup2\n      0x05\n      add\n      swap1\n      dup2\n      tag_81\n      swap2\n      swap1\n      tag_78\n      jump\t// in\n    tag_81:\n      pop\n      0xc0\n      dup3\n      add\n      mload\n      dup2\n      0x06\n      add\n      sstore\n      0xe0\n      dup3\n      add\n      mload\n      dup2\n      0x07\n      add\n      sstore\n      0x0100\n      dup3\n      add\n      mload\n      dup2\n      0x08\n      add\n      sstore\n      swap1\n      pop\n      pop\n        /* \"contracts/TransactionContract8Juni.sol\":1609:1625  transactionCodes */\n      0x01\n        /* \"contracts/TransactionContract8Juni.sol\":1631:1647  _transactionCode */\n      dup10\n        /* \"contracts/TransactionContract8Juni.sol\":1609:1648  transactionCodes.push(_transactionCode) */\n      swap1\n      dup1\n      0x01\n      dup2\n      sload\n      add\n      dup1\n      dup3\n      sstore\n      dup1\n      swap2\n      pop\n      pop\n      0x01\n      swap1\n      sub\n      swap1\n      0x00\n      mstore\n      keccak256(0x00, 0x20)\n      add\n      0x00\n      swap1\n      swap2\n      swap1\n      swap2\n      swap1\n      swap2\n      pop\n      swap1\n      dup2\n      tag_83\n      swap2\n      swap1\n      tag_78\n      jump\t// in\n    tag_83:\n      pop\n        /* \"contracts/TransactionContract8Juni.sol\":1707:1960  TransactionAdded(... */\n      0x69667cfc0e3856508eb79afd949ebdcd4cfe6b6391364fcc1270c73e9f4779d9\n        /* \"contracts/TransactionContract8Juni.sol\":1737:1753  _transactionCode */\n      dup10\n        /* \"contracts/TransactionContract8Juni.sol\":1767:1778  _campaignId */\n      dup10\n        /* \"contracts/TransactionContract8Juni.sol\":1792:1805  _fromToUserId */\n      dup10\n        /* \"contracts/TransactionContract8Juni.sol\":1819:1829  _orderType */\n      dup10\n        /* \"contracts/TransactionContract8Juni.sol\":1843:1857  _paymentStatus */\n      dup10\n        /* \"contracts/TransactionContract8Juni.sol\":1871:1878  _status */\n      dup10\n        /* \"contracts/TransactionContract8Juni.sol\":1892:1901  _quantity */\n      dup10\n        /* \"contracts/TransactionContract8Juni.sol\":1915:1926  _totalPrice */\n      dup10\n        /* \"contracts/TransactionContract8Juni.sol\":1940:1950  _createdAt */\n      dup10\n        /* \"contracts/TransactionContract8Juni.sol\":1707:1960  TransactionAdded(... */\n      mload(0x40)\n      tag_84\n      swap10\n      swap9\n      swap8\n      swap7\n      swap6\n      swap5\n      swap4\n      swap3\n      swap2\n      swap1\n      tag_18\n      jump\t// in\n    tag_84:\n      mload(0x40)\n      dup1\n      swap2\n      sub\n      swap1\n      log1\n        /* \"contracts/TransactionContract8Juni.sol\":995:1967  function addTransaction(... */\n      pop\n      pop\n      pop\n      pop\n      pop\n      pop\n      pop\n      pop\n      pop\n      jump\t// out\n        /* \"contracts/TransactionContract8Juni.sol\":1973:2337  function getAllTransactions() public view returns (Transaction[] memory) {... */\n    tag_24:\n        /* \"contracts/TransactionContract8Juni.sol\":2024:2044  Transaction[] memory */\n      0x60\n        /* \"contracts/TransactionContract8Juni.sol\":2056:2092  Transaction[] memory allTransactions */\n      0x00\n        /* \"contracts/TransactionContract8Juni.sol\":2126:2142  transactionCodes */\n      0x01\n        /* \"contracts/TransactionContract8Juni.sol\":2126:2149  transactionCodes.length */\n      dup1\n      sload\n      swap1\n      pop\n        /* \"contracts/TransactionContract8Juni.sol\":2095:2159  new Transaction[](... */\n      0xffffffffffffffff\n      dup2\n      gt\n      iszero\n      tag_86\n      jumpi\n      tag_87\n      tag_88\n      jump\t// in\n    tag_87:\n    tag_86:\n      mload(0x40)\n      swap1\n      dup1\n      dup3\n      mstore\n      dup1\n      0x20\n      mul\n      0x20\n      add\n      dup3\n      add\n      0x40\n      mstore\n      dup1\n      iszero\n      tag_89\n      jumpi\n      dup2\n      0x20\n      add\n    tag_90:\n      tag_91\n      tag_92\n      jump\t// in\n    tag_91:\n      dup2\n      mstore\n      0x20\n      add\n      swap1\n      0x01\n      swap1\n      sub\n      swap1\n      dup2\n      tag_90\n      jumpi\n      swap1\n      pop\n    tag_89:\n      pop\n        /* \"contracts/TransactionContract8Juni.sol\":2056:2159  Transaction[] memory allTransactions = new Transaction[](... */\n      swap1\n      pop\n        /* \"contracts/TransactionContract8Juni.sol\":2174:2180  uint i */\n      0x00\n        /* \"contracts/TransactionContract8Juni.sol\":2169:2299  for (uint i = 0; i < transactionCodes.length; i++) {... */\n    tag_93:\n        /* \"contracts/TransactionContract8Juni.sol\":2190:2206  transactionCodes */\n      0x01\n        /* \"contracts/TransactionContract8Juni.sol\":2190:2213  transactionCodes.length */\n      dup1\n      sload\n      swap1\n      pop\n        /* \"contracts/TransactionContract8Juni.sol\":2186:2187  i */\n      dup2\n        /* \"contracts/TransactionContract8Juni.sol\":2186:2213  i < transactionCodes.length */\n      lt\n        /* \"contracts/TransactionContract8Juni.sol\":2169:2299  for (uint i = 0; i < transactionCodes.length; i++) {... */\n      iszero\n      tag_94\n      jumpi\n        /* \"contracts/TransactionContract8Juni.sol\":2255:2267  transactions */\n      0x00\n        /* \"contracts/TransactionContract8Juni.sol\":2268:2284  transactionCodes */\n      0x01\n        /* \"contracts/TransactionContract8Juni.sol\":2285:2286  i */\n      dup3\n        /* \"contracts/TransactionContract8Juni.sol\":2268:2287  transactionCodes[i] */\n      dup2\n      sload\n      dup2\n      lt\n      tag_96\n      jumpi\n      tag_97\n      tag_98\n      jump\t// in\n    tag_97:\n    tag_96:\n      swap1\n      0x00\n      mstore\n      keccak256(0x00, 0x20)\n      add\n        /* \"contracts/TransactionContract8Juni.sol\":2255:2288  transactions[transactionCodes[i]] */\n      mload(0x40)\n      tag_100\n      swap2\n      swap1\n      tag_101\n      jump\t// in\n    tag_100:\n      swap1\n      dup2\n      mstore\n      0x20\n      add\n      mload(0x40)\n      dup1\n      swap2\n      sub\n      swap1\n      keccak256\n        /* \"contracts/TransactionContract8Juni.sol\":2234:2288  allTransactions[i] = transactions[transactionCodes[i]] */\n      mload(0x40)\n      dup1\n      0x0120\n      add\n      0x40\n      mstore\n      swap1\n      dup2\n      0x00\n      dup3\n      add\n      dup1\n      sload\n      tag_102\n      swap1\n      tag_54\n      jump\t// in\n    tag_102:\n      dup1\n      0x1f\n      add\n      0x20\n      dup1\n      swap2\n      div\n      mul\n      0x20\n      add\n      mload(0x40)\n      swap1\n      dup2\n      add\n      0x40\n      mstore\n      dup1\n      swap3\n      swap2\n      swap1\n      dup2\n      dup2\n      mstore\n      0x20\n      add\n      dup3\n      dup1\n      sload\n      tag_103\n      swap1\n      tag_54\n      jump\t// in\n    tag_103:\n      dup1\n      iszero\n      tag_104\n      jumpi\n      dup1\n      0x1f\n      lt\n      tag_105\n      jumpi\n      0x0100\n      dup1\n      dup4\n      sload\n      div\n      mul\n      dup4\n      mstore\n      swap2\n      0x20\n      add\n      swap2\n      jump(tag_104)\n    tag_105:\n      dup3\n      add\n      swap2\n      swap1\n      0x00\n      mstore\n      keccak256(0x00, 0x20)\n      swap1\n    tag_106:\n      dup2\n      sload\n      dup2\n      mstore\n      swap1\n      0x01\n      add\n      swap1\n      0x20\n      add\n      dup1\n      dup4\n      gt\n      tag_106\n      jumpi\n      dup3\n      swap1\n      sub\n      0x1f\n      and\n      dup3\n      add\n      swap2\n    tag_104:\n      pop\n      pop\n      pop\n      pop\n      pop\n      dup2\n      mstore\n      0x20\n      add\n      0x01\n      dup3\n      add\n      sload\n      dup2\n      mstore\n      0x20\n      add\n      0x02\n      dup3\n      add\n      sload\n      dup2\n      mstore\n      0x20\n      add\n      0x03\n      dup3\n      add\n      dup1\n      sload\n      tag_107\n      swap1\n      tag_54\n      jump\t// in\n    tag_107:\n      dup1\n      0x1f\n      add\n      0x20\n      dup1\n      swap2\n      div\n      mul\n      0x20\n      add\n      mload(0x40)\n      swap1\n      dup2\n      add\n      0x40\n      mstore\n      dup1\n      swap3\n      swap2\n      swap1\n      dup2\n      dup2\n      mstore\n      0x20\n      add\n      dup3\n      dup1\n      sload\n      tag_108\n      swap1\n      tag_54\n      jump\t// in\n    tag_108:\n      dup1\n      iszero\n      tag_109\n      jumpi\n      dup1\n      0x1f\n      lt\n      tag_110\n      jumpi\n      0x0100\n      dup1\n      dup4\n      sload\n      div\n      mul\n      dup4\n      mstore\n      swap2\n      0x20\n      add\n      swap2\n      jump(tag_109)\n    tag_110:\n      dup3\n      add\n      swap2\n      swap1\n      0x00\n      mstore\n      keccak256(0x00, 0x20)\n      swap1\n    tag_111:\n      dup2\n      sload\n      dup2\n      mstore\n      swap1\n      0x01\n      add\n      swap1\n      0x20\n      add\n      dup1\n      dup4\n      gt\n      tag_111\n      jumpi\n      dup3\n      swap1\n      sub\n      0x1f\n      and\n      dup3\n      add\n      swap2\n    tag_109:\n      pop\n      pop\n      pop\n      pop\n      pop\n      dup2\n      mstore\n      0x20\n      add\n      0x04\n      dup3\n      add\n      dup1\n      sload\n      tag_112\n      swap1\n      tag_54\n      jump\t// in\n    tag_112:\n      dup1\n      0x1f\n      add\n      0x20\n      dup1\n      swap2\n      div\n      mul\n      0x20\n      add\n      mload(0x40)\n      swap1\n      dup2\n      add\n      0x40\n      mstore\n      dup1\n      swap3\n      swap2\n      swap1\n      dup2\n      dup2\n      mstore\n      0x20\n      add\n      dup3\n      dup1\n      sload\n      tag_113\n      swap1\n      tag_54\n      jump\t// in\n    tag_113:\n      dup1\n      iszero\n      tag_114\n      jumpi\n      dup1\n      0x1f\n      lt\n      tag_115\n      jumpi\n      0x0100\n      dup1\n      dup4\n      sload\n      div\n      mul\n      dup4\n      mstore\n      swap2\n      0x20\n      add\n      swap2\n      jump(tag_114)\n    tag_115:\n      dup3\n      add\n      swap2\n      swap1\n      0x00\n      mstore\n      keccak256(0x00, 0x20)\n      swap1\n    tag_116:\n      dup2\n      sload\n      dup2\n      mstore\n      swap1\n      0x01\n      add\n      swap1\n      0x20\n      add\n      dup1\n      dup4\n      gt\n      tag_116\n      jumpi\n      dup3\n      swap1\n      sub\n      0x1f\n      and\n      dup3\n      add\n      swap2\n    tag_114:\n      pop\n      pop\n      pop\n      pop\n      pop\n      dup2\n      mstore\n      0x20\n      add\n      0x05\n      dup3\n      add\n      dup1\n      sload\n      tag_117\n      swap1\n      tag_54\n      jump\t// in\n    tag_117:\n      dup1\n      0x1f\n      add\n      0x20\n      dup1\n      swap2\n      div\n      mul\n      0x20\n      add\n      mload(0x40)\n      swap1\n      dup2\n      add\n      0x40\n      mstore\n      dup1\n      swap3\n      swap2\n      swap1\n      dup2\n      dup2\n      mstore\n      0x20\n      add\n      dup3\n      dup1\n      sload\n      tag_118\n      swap1\n      tag_54\n      jump\t// in\n    tag_118:\n      dup1\n      iszero\n      tag_119\n      jumpi\n      dup1\n      0x1f\n      lt\n      tag_120\n      jumpi\n      0x0100\n      dup1\n      dup4\n      sload\n      div\n      mul\n      dup4\n      mstore\n      swap2\n      0x20\n      add\n      swap2\n      jump(tag_119)\n    tag_120:\n      dup3\n      add\n      swap2\n      swap1\n      0x00\n      mstore\n      keccak256(0x00, 0x20)\n      swap1\n    tag_121:\n      dup2\n      sload\n      dup2\n      mstore\n      swap1\n      0x01\n      add\n      swap1\n      0x20\n      add\n      dup1\n      dup4\n      gt\n      tag_121\n      jumpi\n      dup3\n      swap1\n      sub\n      0x1f\n      and\n      dup3\n      add\n      swap2\n    tag_119:\n      pop\n      pop\n      pop\n      pop\n      pop\n      dup2\n      mstore\n      0x20\n      add\n      0x06\n      dup3\n      add\n      sload\n      dup2\n      mstore\n      0x20\n      add\n      0x07\n      dup3\n      add\n      sload\n      dup2\n      mstore\n      0x20\n      add\n      0x08\n      dup3\n      add\n      sload\n      dup2\n      mstore\n      pop\n      pop\n        /* \"contracts/TransactionContract8Juni.sol\":2234:2249  allTransactions */\n      dup3\n        /* \"contracts/TransactionContract8Juni.sol\":2250:2251  i */\n      dup3\n        /* \"contracts/TransactionContract8Juni.sol\":2234:2252  allTransactions[i] */\n      dup2\n      mload\n      dup2\n      lt\n      tag_122\n      jumpi\n      tag_123\n      tag_98\n      jump\t// in\n    tag_123:\n    tag_122:\n      0x20\n      mul\n      0x20\n      add\n      add\n        /* \"contracts/TransactionContract8Juni.sol\":2234:2288  allTransactions[i] = transactions[transactionCodes[i]] */\n      dup2\n      swap1\n      mstore\n      pop\n        /* \"contracts/TransactionContract8Juni.sol\":2215:2218  i++ */\n      dup1\n      dup1\n      tag_124\n      swap1\n      tag_125\n      jump\t// in\n    tag_124:\n      swap2\n      pop\n      pop\n        /* \"contracts/TransactionContract8Juni.sol\":2169:2299  for (uint i = 0; i < transactionCodes.length; i++) {... */\n      jump(tag_93)\n    tag_94:\n      pop\n        /* \"contracts/TransactionContract8Juni.sol\":2315:2330  allTransactions */\n      dup1\n        /* \"contracts/TransactionContract8Juni.sol\":2308:2330  return allTransactions */\n      swap2\n      pop\n      pop\n        /* \"contracts/TransactionContract8Juni.sol\":1973:2337  function getAllTransactions() public view returns (Transaction[] memory) {... */\n      swap1\n      jump\t// out\n        /* \"contracts/TransactionContract8Juni.sol\":3161:3931  function getTransactionByFromToUserId(... */\n    tag_30:\n        /* \"contracts/TransactionContract8Juni.sol\":3254:3274  Transaction[] memory */\n      0x60\n        /* \"contracts/TransactionContract8Juni.sol\":3286:3296  uint count */\n      0x00\n        /* \"contracts/TransactionContract8Juni.sol\":3315:3321  uint i */\n      dup1\n        /* \"contracts/TransactionContract8Juni.sol\":3310:3524  for (uint i = 0; i < transactionCodes.length; i++) {... */\n    tag_127:\n        /* \"contracts/TransactionContract8Juni.sol\":3331:3347  transactionCodes */\n      0x01\n        /* \"contracts/TransactionContract8Juni.sol\":3331:3354  transactionCodes.length */\n      dup1\n      sload\n      swap1\n      pop\n        /* \"contracts/TransactionContract8Juni.sol\":3327:3328  i */\n      dup2\n        /* \"contracts/TransactionContract8Juni.sol\":3327:3354  i < transactionCodes.length */\n      lt\n        /* \"contracts/TransactionContract8Juni.sol\":3310:3524  for (uint i = 0; i < transactionCodes.length; i++) {... */\n      iszero\n      tag_128\n      jumpi\n        /* \"contracts/TransactionContract8Juni.sol\":3446:3459  _fromToUserId */\n      dup4\n        /* \"contracts/TransactionContract8Juni.sol\":3396:3408  transactions */\n      0x00\n        /* \"contracts/TransactionContract8Juni.sol\":3409:3425  transactionCodes */\n      0x01\n        /* \"contracts/TransactionContract8Juni.sol\":3426:3427  i */\n      dup4\n        /* \"contracts/TransactionContract8Juni.sol\":3409:3428  transactionCodes[i] */\n      dup2\n      sload\n      dup2\n      lt\n      tag_130\n      jumpi\n      tag_131\n      tag_98\n      jump\t// in\n    tag_131:\n    tag_130:\n      swap1\n      0x00\n      mstore\n      keccak256(0x00, 0x20)\n      add\n        /* \"contracts/TransactionContract8Juni.sol\":3396:3429  transactions[transactionCodes[i]] */\n      mload(0x40)\n      tag_133\n      swap2\n      swap1\n      tag_101\n      jump\t// in\n    tag_133:\n      swap1\n      dup2\n      mstore\n      0x20\n      add\n      mload(0x40)\n      dup1\n      swap2\n      sub\n      swap1\n      keccak256\n        /* \"contracts/TransactionContract8Juni.sol\":3396:3442  transactions[transactionCodes[i]].fromToUserId */\n      0x02\n      add\n      sload\n        /* \"contracts/TransactionContract8Juni.sol\":3396:3459  transactions[transactionCodes[i]].fromToUserId == _fromToUserId */\n      sub\n        /* \"contracts/TransactionContract8Juni.sol\":3375:3514  if (... */\n      tag_134\n      jumpi\n        /* \"contracts/TransactionContract8Juni.sol\":3492:3499  count++ */\n      dup2\n      dup1\n      tag_135\n      swap1\n      tag_125\n      jump\t// in\n    tag_135:\n      swap3\n      pop\n      pop\n        /* \"contracts/TransactionContract8Juni.sol\":3375:3514  if (... */\n    tag_134:\n        /* \"contracts/TransactionContract8Juni.sol\":3356:3359  i++ */\n      dup1\n      dup1\n      tag_136\n      swap1\n      tag_125\n      jump\t// in\n    tag_136:\n      swap2\n      pop\n      pop\n        /* \"contracts/TransactionContract8Juni.sol\":3310:3524  for (uint i = 0; i < transactionCodes.length; i++) {... */\n      jump(tag_127)\n    tag_128:\n      pop\n        /* \"contracts/TransactionContract8Juni.sol\":3533:3560  Transaction[] memory result */\n      0x00\n        /* \"contracts/TransactionContract8Juni.sol\":3581:3586  count */\n      dup2\n        /* \"contracts/TransactionContract8Juni.sol\":3563:3587  new Transaction[](count) */\n      0xffffffffffffffff\n      dup2\n      gt\n      iszero\n      tag_137\n      jumpi\n      tag_138\n      tag_88\n      jump\t// in\n    tag_138:\n    tag_137:\n      mload(0x40)\n      swap1\n      dup1\n      dup3\n      mstore\n      dup1\n      0x20\n      mul\n      0x20\n      add\n      dup3\n      add\n      0x40\n      mstore\n      dup1\n      iszero\n      tag_139\n      jumpi\n      dup2\n      0x20\n      add\n    tag_140:\n      tag_141\n      tag_92\n      jump\t// in\n    tag_141:\n      dup2\n      mstore\n      0x20\n      add\n      swap1\n      0x01\n      swap1\n      sub\n      swap1\n      dup2\n      tag_140\n      jumpi\n      swap1\n      pop\n    tag_139:\n      pop\n        /* \"contracts/TransactionContract8Juni.sol\":3533:3587  Transaction[] memory result = new Transaction[](count) */\n      swap1\n      pop\n        /* \"contracts/TransactionContract8Juni.sol\":3597:3607  uint index */\n      0x00\n        /* \"contracts/TransactionContract8Juni.sol\":3626:3632  uint i */\n      dup1\n        /* \"contracts/TransactionContract8Juni.sol\":3621:3902  for (uint i = 0; i < transactionCodes.length; i++) {... */\n    tag_142:\n        /* \"contracts/TransactionContract8Juni.sol\":3642:3658  transactionCodes */\n      0x01\n        /* \"contracts/TransactionContract8Juni.sol\":3642:3665  transactionCodes.length */\n      dup1\n      sload\n      swap1\n      pop\n        /* \"contracts/TransactionContract8Juni.sol\":3638:3639  i */\n      dup2\n        /* \"contracts/TransactionContract8Juni.sol\":3638:3665  i < transactionCodes.length */\n      lt\n        /* \"contracts/TransactionContract8Juni.sol\":3621:3902  for (uint i = 0; i < transactionCodes.length; i++) {... */\n      iszero\n      tag_143\n      jumpi\n        /* \"contracts/TransactionContract8Juni.sol\":3757:3770  _fromToUserId */\n      dup6\n        /* \"contracts/TransactionContract8Juni.sol\":3707:3719  transactions */\n      0x00\n        /* \"contracts/TransactionContract8Juni.sol\":3720:3736  transactionCodes */\n      0x01\n        /* \"contracts/TransactionContract8Juni.sol\":3737:3738  i */\n      dup4\n        /* \"contracts/TransactionContract8Juni.sol\":3720:3739  transactionCodes[i] */\n      dup2\n      sload\n      dup2\n      lt\n      tag_145\n      jumpi\n      tag_146\n      tag_98\n      jump\t// in\n    tag_146:\n    tag_145:\n      swap1\n      0x00\n      mstore\n      keccak256(0x00, 0x20)\n      add\n        /* \"contracts/TransactionContract8Juni.sol\":3707:3740  transactions[transactionCodes[i]] */\n      mload(0x40)\n      tag_148\n      swap2\n      swap1\n      tag_101\n      jump\t// in\n    tag_148:\n      swap1\n      dup2\n      mstore\n      0x20\n      add\n      mload(0x40)\n      dup1\n      swap2\n      sub\n      swap1\n      keccak256\n        /* \"contracts/TransactionContract8Juni.sol\":3707:3753  transactions[transactionCodes[i]].fromToUserId */\n      0x02\n      add\n      sload\n        /* \"contracts/TransactionContract8Juni.sol\":3707:3770  transactions[transactionCodes[i]].fromToUserId == _fromToUserId */\n      sub\n        /* \"contracts/TransactionContract8Juni.sol\":3686:3892  if (... */\n      tag_149\n      jumpi\n        /* \"contracts/TransactionContract8Juni.sol\":3819:3831  transactions */\n      0x00\n        /* \"contracts/TransactionContract8Juni.sol\":3832:3848  transactionCodes */\n      0x01\n        /* \"contracts/TransactionContract8Juni.sol\":3849:3850  i */\n      dup3\n        /* \"contracts/TransactionContract8Juni.sol\":3832:3851  transactionCodes[i] */\n      dup2\n      sload\n      dup2\n      lt\n      tag_150\n      jumpi\n      tag_151\n      tag_98\n      jump\t// in\n    tag_151:\n    tag_150:\n      swap1\n      0x00\n      mstore\n      keccak256(0x00, 0x20)\n      add\n        /* \"contracts/TransactionContract8Juni.sol\":3819:3852  transactions[transactionCodes[i]] */\n      mload(0x40)\n      tag_153\n      swap2\n      swap1\n      tag_101\n      jump\t// in\n    tag_153:\n      swap1\n      dup2\n      mstore\n      0x20\n      add\n      mload(0x40)\n      dup1\n      swap2\n      sub\n      swap1\n      keccak256\n        /* \"contracts/TransactionContract8Juni.sol\":3803:3852  result[index] = transactions[transactionCodes[i]] */\n      mload(0x40)\n      dup1\n      0x0120\n      add\n      0x40\n      mstore\n      swap1\n      dup2\n      0x00\n      dup3\n      add\n      dup1\n      sload\n      tag_154\n      swap1\n      tag_54\n      jump\t// in\n    tag_154:\n      dup1\n      0x1f\n      add\n      0x20\n      dup1\n      swap2\n      div\n      mul\n      0x20\n      add\n      mload(0x40)\n      swap1\n      dup2\n      add\n      0x40\n      mstore\n      dup1\n      swap3\n      swap2\n      swap1\n      dup2\n      dup2\n      mstore\n      0x20\n      add\n      dup3\n      dup1\n      sload\n      tag_155\n      swap1\n      tag_54\n      jump\t// in\n    tag_155:\n      dup1\n      iszero\n      tag_156\n      jumpi\n      dup1\n      0x1f\n      lt\n      tag_157\n      jumpi\n      0x0100\n      dup1\n      dup4\n      sload\n      div\n      mul\n      dup4\n      mstore\n      swap2\n      0x20\n      add\n      swap2\n      jump(tag_156)\n    tag_157:\n      dup3\n      add\n      swap2\n      swap1\n      0x00\n      mstore\n      keccak256(0x00, 0x20)\n      swap1\n    tag_158:\n      dup2\n      sload\n      dup2\n      mstore\n      swap1\n      0x01\n      add\n      swap1\n      0x20\n      add\n      dup1\n      dup4\n      gt\n      tag_158\n      jumpi\n      dup3\n      swap1\n      sub\n      0x1f\n      and\n      dup3\n      add\n      swap2\n    tag_156:\n      pop\n      pop\n      pop\n      pop\n      pop\n      dup2\n      mstore\n      0x20\n      add\n      0x01\n      dup3\n      add\n      sload\n      dup2\n      mstore\n      0x20\n      add\n      0x02\n      dup3\n      add\n      sload\n      dup2\n      mstore\n      0x20\n      add\n      0x03\n      dup3\n      add\n      dup1\n      sload\n      tag_159\n      swap1\n      tag_54\n      jump\t// in\n    tag_159:\n      dup1\n      0x1f\n      add\n      0x20\n      dup1\n      swap2\n      div\n      mul\n      0x20\n      add\n      mload(0x40)\n      swap1\n      dup2\n      add\n      0x40\n      mstore\n      dup1\n      swap3\n      swap2\n      swap1\n      dup2\n      dup2\n      mstore\n      0x20\n      add\n      dup3\n      dup1\n      sload\n      tag_160\n      swap1\n      tag_54\n      jump\t// in\n    tag_160:\n      dup1\n      iszero\n      tag_161\n      jumpi\n      dup1\n      0x1f\n      lt\n      tag_162\n      jumpi\n      0x0100\n      dup1\n      dup4\n      sload\n      div\n      mul\n      dup4\n      mstore\n      swap2\n      0x20\n      add\n      swap2\n      jump(tag_161)\n    tag_162:\n      dup3\n      add\n      swap2\n      swap1\n      0x00\n      mstore\n      keccak256(0x00, 0x20)\n      swap1\n    tag_163:\n      dup2\n      sload\n      dup2\n      mstore\n      swap1\n      0x01\n      add\n      swap1\n      0x20\n      add\n      dup1\n      dup4\n      gt\n      tag_163\n      jumpi\n      dup3\n      swap1\n      sub\n      0x1f\n      and\n      dup3\n      add\n      swap2\n    tag_161:\n      pop\n      pop\n      pop\n      pop\n      pop\n      dup2\n      mstore\n      0x20\n      add\n      0x04\n      dup3\n      add\n      dup1\n      sload\n      tag_164\n      swap1\n      tag_54\n      jump\t// in\n    tag_164:\n      dup1\n      0x1f\n      add\n      0x20\n      dup1\n      swap2\n      div\n      mul\n      0x20\n      add\n      mload(0x40)\n      swap1\n      dup2\n      add\n      0x40\n      mstore\n      dup1\n      swap3\n      swap2\n      swap1\n      dup2\n      dup2\n      mstore\n      0x20\n      add\n      dup3\n      dup1\n      sload\n      tag_165\n      swap1\n      tag_54\n      jump\t// in\n    tag_165:\n      dup1\n      iszero\n      tag_166\n      jumpi\n      dup1\n      0x1f\n      lt\n      tag_167\n      jumpi\n      0x0100\n      dup1\n      dup4\n      sload\n      div\n      mul\n      dup4\n      mstore\n      swap2\n      0x20\n      add\n      swap2\n      jump(tag_166)\n    tag_167:\n      dup3\n      add\n      swap2\n      swap1\n      0x00\n      mstore\n      keccak256(0x00, 0x20)\n      swap1\n    tag_168:\n      dup2\n      sload\n      dup2\n      mstore\n      swap1\n      0x01\n      add\n      swap1\n      0x20\n      add\n      dup1\n      dup4\n      gt\n      tag_168\n      jumpi\n      dup3\n      swap1\n      sub\n      0x1f\n      and\n      dup3\n      add\n      swap2\n    tag_166:\n      pop\n      pop\n      pop\n      pop\n      pop\n      dup2\n      mstore\n      0x20\n      add\n      0x05\n      dup3\n      add\n      dup1\n      sload\n      tag_169\n      swap1\n      tag_54\n      jump\t// in\n    tag_169:\n      dup1\n      0x1f\n      add\n      0x20\n      dup1\n      swap2\n      div\n      mul\n      0x20\n      add\n      mload(0x40)\n      swap1\n      dup2\n      add\n      0x40\n      mstore\n      dup1\n      swap3\n      swap2\n      swap1\n      dup2\n      dup2\n      mstore\n      0x20\n      add\n      dup3\n      dup1\n      sload\n      tag_170\n      swap1\n      tag_54\n      jump\t// in\n    tag_170:\n      dup1\n      iszero\n      tag_171\n      jumpi\n      dup1\n      0x1f\n      lt\n      tag_172\n      jumpi\n      0x0100\n      dup1\n      dup4\n      sload\n      div\n      mul\n      dup4\n      mstore\n      swap2\n      0x20\n      add\n      swap2\n      jump(tag_171)\n    tag_172:\n      dup3\n      add\n      swap2\n      swap1\n      0x00\n      mstore\n      keccak256(0x00, 0x20)\n      swap1\n    tag_173:\n      dup2\n      sload\n      dup2\n      mstore\n      swap1\n      0x01\n      add\n      swap1\n      0x20\n      add\n      dup1\n      dup4\n      gt\n      tag_173\n      jumpi\n      dup3\n      swap1\n      sub\n      0x1f\n      and\n      dup3\n      add\n      swap2\n    tag_171:\n      pop\n      pop\n      pop\n      pop\n      pop\n      dup2\n      mstore\n      0x20\n      add\n      0x06\n      dup3\n      add\n      sload\n      dup2\n      mstore\n      0x20\n      add\n      0x07\n      dup3\n      add\n      sload\n      dup2\n      mstore\n      0x20\n      add\n      0x08\n      dup3\n      add\n      sload\n      dup2\n      mstore\n      pop\n      pop\n        /* \"contracts/TransactionContract8Juni.sol\":3803:3809  result */\n      dup4\n        /* \"contracts/TransactionContract8Juni.sol\":3810:3815  index */\n      dup4\n        /* \"contracts/TransactionContract8Juni.sol\":3803:3816  result[index] */\n      dup2\n      mload\n      dup2\n      lt\n      tag_174\n      jumpi\n      tag_175\n      tag_98\n      jump\t// in\n    tag_175:\n    tag_174:\n      0x20\n      mul\n      0x20\n      add\n      add\n        /* \"contracts/TransactionContract8Juni.sol\":3803:3852  result[index] = transactions[transactionCodes[i]] */\n      dup2\n      swap1\n      mstore\n      pop\n        /* \"contracts/TransactionContract8Juni.sol\":3870:3877  index++ */\n      dup2\n      dup1\n      tag_176\n      swap1\n      tag_125\n      jump\t// in\n    tag_176:\n      swap3\n      pop\n      pop\n        /* \"contracts/TransactionContract8Juni.sol\":3686:3892  if (... */\n    tag_149:\n        /* \"contracts/TransactionContract8Juni.sol\":3667:3670  i++ */\n      dup1\n      dup1\n      tag_177\n      swap1\n      tag_125\n      jump\t// in\n    tag_177:\n      swap2\n      pop\n      pop\n        /* \"contracts/TransactionContract8Juni.sol\":3621:3902  for (uint i = 0; i < transactionCodes.length; i++) {... */\n      jump(tag_142)\n    tag_143:\n      pop\n        /* \"contracts/TransactionContract8Juni.sol\":3918:3924  result */\n      dup2\n        /* \"contracts/TransactionContract8Juni.sol\":3911:3924  return result */\n      swap4\n      pop\n      pop\n      pop\n      pop\n        /* \"contracts/TransactionContract8Juni.sol\":3161:3931  function getTransactionByFromToUserId(... */\n      swap2\n      swap1\n      pop\n      jump\t// out\n        /* \"contracts/TransactionContract8Juni.sol\":2343:2725  function updateStatus(... */\n    tag_35:\n        /* \"contracts/TransactionContract8Juni.sol\":2547:2548  0 */\n      0x00\n        /* \"contracts/TransactionContract8Juni.sol\":2489:2501  transactions */\n      dup1\n        /* \"contracts/TransactionContract8Juni.sol\":2502:2518  _transactionCode */\n      dup4\n        /* \"contracts/TransactionContract8Juni.sol\":2489:2519  transactions[_transactionCode] */\n      mload(0x40)\n      tag_179\n      swap2\n      swap1\n      tag_76\n      jump\t// in\n    tag_179:\n      swap1\n      dup2\n      mstore\n      0x20\n      add\n      mload(0x40)\n      dup1\n      swap2\n      sub\n      swap1\n      keccak256\n        /* \"contracts/TransactionContract8Juni.sol\":2489:2535  transactions[_transactionCode].transactionCode */\n      0x00\n      add\n        /* \"contracts/TransactionContract8Juni.sol\":2483:2543  bytes(transactions[_transactionCode].transactionCode).length */\n      dup1\n      sload\n      tag_180\n      swap1\n      tag_54\n      jump\t// in\n    tag_180:\n      swap1\n      pop\n        /* \"contracts/TransactionContract8Juni.sol\":2483:2548  bytes(transactions[_transactionCode].transactionCode).length != 0 */\n      sub\n        /* \"contracts/TransactionContract8Juni.sol\":2462:2600  require(... */\n      tag_181\n      jumpi\n      mload(0x40)\n      0x08c379a000000000000000000000000000000000000000000000000000000000\n      dup2\n      mstore\n      0x04\n      add\n      tag_182\n      swap1\n      tag_183\n      jump\t// in\n    tag_182:\n      mload(0x40)\n      dup1\n      swap2\n      sub\n      swap1\n      revert\n    tag_181:\n        /* \"contracts/TransactionContract8Juni.sol\":2650:2660  _newStatus */\n      dup1\n        /* \"contracts/TransactionContract8Juni.sol\":2610:2622  transactions */\n      0x00\n        /* \"contracts/TransactionContract8Juni.sol\":2623:2639  _transactionCode */\n      dup4\n        /* \"contracts/TransactionContract8Juni.sol\":2610:2640  transactions[_transactionCode] */\n      mload(0x40)\n      tag_184\n      swap2\n      swap1\n      tag_76\n      jump\t// in\n    tag_184:\n      swap1\n      dup2\n      mstore\n      0x20\n      add\n      mload(0x40)\n      dup1\n      swap2\n      sub\n      swap1\n      keccak256\n        /* \"contracts/TransactionContract8Juni.sol\":2610:2647  transactions[_transactionCode].status */\n      0x05\n      add\n        /* \"contracts/TransactionContract8Juni.sol\":2610:2660  transactions[_transactionCode].status = _newStatus */\n      swap1\n      dup2\n      tag_185\n      swap2\n      swap1\n      tag_78\n      jump\t// in\n    tag_185:\n      pop\n        /* \"contracts/TransactionContract8Juni.sol\":2675:2718  StatusUpdated(_transactionCode, _newStatus) */\n      0xb75b1fec1bc9156569ae9f72fb29c6e6727b297e191d358465fff4c09d8f7d26\n        /* \"contracts/TransactionContract8Juni.sol\":2689:2705  _transactionCode */\n      dup3\n        /* \"contracts/TransactionContract8Juni.sol\":2707:2717  _newStatus */\n      dup3\n        /* \"contracts/TransactionContract8Juni.sol\":2675:2718  StatusUpdated(_transactionCode, _newStatus) */\n      mload(0x40)\n      tag_186\n      swap3\n      swap2\n      swap1\n      tag_187\n      jump\t// in\n    tag_186:\n      mload(0x40)\n      dup1\n      swap2\n      sub\n      swap1\n      log1\n        /* \"contracts/TransactionContract8Juni.sol\":2343:2725  function updateStatus(... */\n      pop\n      pop\n      jump\t// out\n        /* \"contracts/TransactionContract8Juni.sol\":4262:4960  function getTransactionByCampaignId(... */\n    tag_38:\n        /* \"contracts/TransactionContract8Juni.sol\":4351:4371  Transaction[] memory */\n      0x60\n        /* \"contracts/TransactionContract8Juni.sol\":4383:4393  uint count */\n      0x00\n        /* \"contracts/TransactionContract8Juni.sol\":4412:4418  uint i */\n      dup1\n        /* \"contracts/TransactionContract8Juni.sol\":4407:4587  for (uint i = 0; i < transactionCodes.length; i++) {... */\n    tag_189:\n        /* \"contracts/TransactionContract8Juni.sol\":4428:4444  transactionCodes */\n      0x01\n        /* \"contracts/TransactionContract8Juni.sol\":4428:4451  transactionCodes.length */\n      dup1\n      sload\n      swap1\n      pop\n        /* \"contracts/TransactionContract8Juni.sol\":4424:4425  i */\n      dup2\n        /* \"contracts/TransactionContract8Juni.sol\":4424:4451  i < transactionCodes.length */\n      lt\n        /* \"contracts/TransactionContract8Juni.sol\":4407:4587  for (uint i = 0; i < transactionCodes.length; i++) {... */\n      iszero\n      tag_190\n      jumpi\n        /* \"contracts/TransactionContract8Juni.sol\":4524:4535  _campaignId */\n      dup4\n        /* \"contracts/TransactionContract8Juni.sol\":4476:4488  transactions */\n      0x00\n        /* \"contracts/TransactionContract8Juni.sol\":4489:4505  transactionCodes */\n      0x01\n        /* \"contracts/TransactionContract8Juni.sol\":4506:4507  i */\n      dup4\n        /* \"contracts/TransactionContract8Juni.sol\":4489:4508  transactionCodes[i] */\n      dup2\n      sload\n      dup2\n      lt\n      tag_192\n      jumpi\n      tag_193\n      tag_98\n      jump\t// in\n    tag_193:\n    tag_192:\n      swap1\n      0x00\n      mstore\n      keccak256(0x00, 0x20)\n      add\n        /* \"contracts/TransactionContract8Juni.sol\":4476:4509  transactions[transactionCodes[i]] */\n      mload(0x40)\n      tag_195\n      swap2\n      swap1\n      tag_101\n      jump\t// in\n    tag_195:\n      swap1\n      dup2\n      mstore\n      0x20\n      add\n      mload(0x40)\n      dup1\n      swap2\n      sub\n      swap1\n      keccak256\n        /* \"contracts/TransactionContract8Juni.sol\":4476:4520  transactions[transactionCodes[i]].campaignId */\n      0x01\n      add\n      sload\n        /* \"contracts/TransactionContract8Juni.sol\":4476:4535  transactions[transactionCodes[i]].campaignId == _campaignId */\n      sub\n        /* \"contracts/TransactionContract8Juni.sol\":4472:4577  if (transactions[transactionCodes[i]].campaignId == _campaignId) {... */\n      tag_196\n      jumpi\n        /* \"contracts/TransactionContract8Juni.sol\":4555:4562  count++ */\n      dup2\n      dup1\n      tag_197\n      swap1\n      tag_125\n      jump\t// in\n    tag_197:\n      swap3\n      pop\n      pop\n        /* \"contracts/TransactionContract8Juni.sol\":4472:4577  if (transactions[transactionCodes[i]].campaignId == _campaignId) {... */\n    tag_196:\n        /* \"contracts/TransactionContract8Juni.sol\":4453:4456  i++ */\n      dup1\n      dup1\n      tag_198\n      swap1\n      tag_125\n      jump\t// in\n    tag_198:\n      swap2\n      pop\n      pop\n        /* \"contracts/TransactionContract8Juni.sol\":4407:4587  for (uint i = 0; i < transactionCodes.length; i++) {... */\n      jump(tag_189)\n    tag_190:\n      pop\n        /* \"contracts/TransactionContract8Juni.sol\":4596:4623  Transaction[] memory result */\n      0x00\n        /* \"contracts/TransactionContract8Juni.sol\":4644:4649  count */\n      dup2\n        /* \"contracts/TransactionContract8Juni.sol\":4626:4650  new Transaction[](count) */\n      0xffffffffffffffff\n      dup2\n      gt\n      iszero\n      tag_199\n      jumpi\n      tag_200\n      tag_88\n      jump\t// in\n    tag_200:\n    tag_199:\n      mload(0x40)\n      swap1\n      dup1\n      dup3\n      mstore\n      dup1\n      0x20\n      mul\n      0x20\n      add\n      dup3\n      add\n      0x40\n      mstore\n      dup1\n      iszero\n      tag_201\n      jumpi\n      dup2\n      0x20\n      add\n    tag_202:\n      tag_203\n      tag_92\n      jump\t// in\n    tag_203:\n      dup2\n      mstore\n      0x20\n      add\n      swap1\n      0x01\n      swap1\n      sub\n      swap1\n      dup2\n      tag_202\n      jumpi\n      swap1\n      pop\n    tag_201:\n      pop\n        /* \"contracts/TransactionContract8Juni.sol\":4596:4650  Transaction[] memory result = new Transaction[](count) */\n      swap1\n      pop\n        /* \"contracts/TransactionContract8Juni.sol\":4660:4670  uint index */\n      0x00\n        /* \"contracts/TransactionContract8Juni.sol\":4689:4695  uint i */\n      dup1\n        /* \"contracts/TransactionContract8Juni.sol\":4684:4931  for (uint i = 0; i < transactionCodes.length; i++) {... */\n    tag_204:\n        /* \"contracts/TransactionContract8Juni.sol\":4705:4721  transactionCodes */\n      0x01\n        /* \"contracts/TransactionContract8Juni.sol\":4705:4728  transactionCodes.length */\n      dup1\n      sload\n      swap1\n      pop\n        /* \"contracts/TransactionContract8Juni.sol\":4701:4702  i */\n      dup2\n        /* \"contracts/TransactionContract8Juni.sol\":4701:4728  i < transactionCodes.length */\n      lt\n        /* \"contracts/TransactionContract8Juni.sol\":4684:4931  for (uint i = 0; i < transactionCodes.length; i++) {... */\n      iszero\n      tag_205\n      jumpi\n        /* \"contracts/TransactionContract8Juni.sol\":4801:4812  _campaignId */\n      dup6\n        /* \"contracts/TransactionContract8Juni.sol\":4753:4765  transactions */\n      0x00\n        /* \"contracts/TransactionContract8Juni.sol\":4766:4782  transactionCodes */\n      0x01\n        /* \"contracts/TransactionContract8Juni.sol\":4783:4784  i */\n      dup4\n        /* \"contracts/TransactionContract8Juni.sol\":4766:4785  transactionCodes[i] */\n      dup2\n      sload\n      dup2\n      lt\n      tag_207\n      jumpi\n      tag_208\n      tag_98\n      jump\t// in\n    tag_208:\n    tag_207:\n      swap1\n      0x00\n      mstore\n      keccak256(0x00, 0x20)\n      add\n        /* \"contracts/TransactionContract8Juni.sol\":4753:4786  transactions[transactionCodes[i]] */\n      mload(0x40)\n      tag_210\n      swap2\n      swap1\n      tag_101\n      jump\t// in\n    tag_210:\n      swap1\n      dup2\n      mstore\n      0x20\n      add\n      mload(0x40)\n      dup1\n      swap2\n      sub\n      swap1\n      keccak256\n        /* \"contracts/TransactionContract8Juni.sol\":4753:4797  transactions[transactionCodes[i]].campaignId */\n      0x01\n      add\n      sload\n        /* \"contracts/TransactionContract8Juni.sol\":4753:4812  transactions[transactionCodes[i]].campaignId == _campaignId */\n      sub\n        /* \"contracts/TransactionContract8Juni.sol\":4749:4921  if (transactions[transactionCodes[i]].campaignId == _campaignId) {... */\n      tag_211\n      jumpi\n        /* \"contracts/TransactionContract8Juni.sol\":4848:4860  transactions */\n      0x00\n        /* \"contracts/TransactionContract8Juni.sol\":4861:4877  transactionCodes */\n      0x01\n        /* \"contracts/TransactionContract8Juni.sol\":4878:4879  i */\n      dup3\n        /* \"contracts/TransactionContract8Juni.sol\":4861:4880  transactionCodes[i] */\n      dup2\n      sload\n      dup2\n      lt\n      tag_212\n      jumpi\n      tag_213\n      tag_98\n      jump\t// in\n    tag_213:\n    tag_212:\n      swap1\n      0x00\n      mstore\n      keccak256(0x00, 0x20)\n      add\n        /* \"contracts/TransactionContract8Juni.sol\":4848:4881  transactions[transactionCodes[i]] */\n      mload(0x40)\n      tag_215\n      swap2\n      swap1\n      tag_101\n      jump\t// in\n    tag_215:\n      swap1\n      dup2\n      mstore\n      0x20\n      add\n      mload(0x40)\n      dup1\n      swap2\n      sub\n      swap1\n      keccak256\n        /* \"contracts/TransactionContract8Juni.sol\":4832:4881  result[index] = transactions[transactionCodes[i]] */\n      mload(0x40)\n      dup1\n      0x0120\n      add\n      0x40\n      mstore\n      swap1\n      dup2\n      0x00\n      dup3\n      add\n      dup1\n      sload\n      tag_216\n      swap1\n      tag_54\n      jump\t// in\n    tag_216:\n      dup1\n      0x1f\n      add\n      0x20\n      dup1\n      swap2\n      div\n      mul\n      0x20\n      add\n      mload(0x40)\n      swap1\n      dup2\n      add\n      0x40\n      mstore\n      dup1\n      swap3\n      swap2\n      swap1\n      dup2\n      dup2\n      mstore\n      0x20\n      add\n      dup3\n      dup1\n      sload\n      tag_217\n      swap1\n      tag_54\n      jump\t// in\n    tag_217:\n      dup1\n      iszero\n      tag_218\n      jumpi\n      dup1\n      0x1f\n      lt\n      tag_219\n      jumpi\n      0x0100\n      dup1\n      dup4\n      sload\n      div\n      mul\n      dup4\n      mstore\n      swap2\n      0x20\n      add\n      swap2\n      jump(tag_218)\n    tag_219:\n      dup3\n      add\n      swap2\n      swap1\n      0x00\n      mstore\n      keccak256(0x00, 0x20)\n      swap1\n    tag_220:\n      dup2\n      sload\n      dup2\n      mstore\n      swap1\n      0x01\n      add\n      swap1\n      0x20\n      add\n      dup1\n      dup4\n      gt\n      tag_220\n      jumpi\n      dup3\n      swap1\n      sub\n      0x1f\n      and\n      dup3\n      add\n      swap2\n    tag_218:\n      pop\n      pop\n      pop\n      pop\n      pop\n      dup2\n      mstore\n      0x20\n      add\n      0x01\n      dup3\n      add\n      sload\n      dup2\n      mstore\n      0x20\n      add\n      0x02\n      dup3\n      add\n      sload\n      dup2\n      mstore\n      0x20\n      add\n      0x03\n      dup3\n      add\n      dup1\n      sload\n      tag_221\n      swap1\n      tag_54\n      jump\t// in\n    tag_221:\n      dup1\n      0x1f\n      add\n      0x20\n      dup1\n      swap2\n      div\n      mul\n      0x20\n      add\n      mload(0x40)\n      swap1\n      dup2\n      add\n      0x40\n      mstore\n      dup1\n      swap3\n      swap2\n      swap1\n      dup2\n      dup2\n      mstore\n      0x20\n      add\n      dup3\n      dup1\n      sload\n      tag_222\n      swap1\n      tag_54\n      jump\t// in\n    tag_222:\n      dup1\n      iszero\n      tag_223\n      jumpi\n      dup1\n      0x1f\n      lt\n      tag_224\n      jumpi\n      0x0100\n      dup1\n      dup4\n      sload\n      div\n      mul\n      dup4\n      mstore\n      swap2\n      0x20\n      add\n      swap2\n      jump(tag_223)\n    tag_224:\n      dup3\n      add\n      swap2\n      swap1\n      0x00\n      mstore\n      keccak256(0x00, 0x20)\n      swap1\n    tag_225:\n      dup2\n      sload\n      dup2\n      mstore\n      swap1\n      0x01\n      add\n      swap1\n      0x20\n      add\n      dup1\n      dup4\n      gt\n      tag_225\n      jumpi\n      dup3\n      swap1\n      sub\n      0x1f\n      and\n      dup3\n      add\n      swap2\n    tag_223:\n      pop\n      pop\n      pop\n      pop\n      pop\n      dup2\n      mstore\n      0x20\n      add\n      0x04\n      dup3\n      add\n      dup1\n      sload\n      tag_226\n      swap1\n      tag_54\n      jump\t// in\n    tag_226:\n      dup1\n      0x1f\n      add\n      0x20\n      dup1\n      swap2\n      div\n      mul\n      0x20\n      add\n      mload(0x40)\n      swap1\n      dup2\n      add\n      0x40\n      mstore\n      dup1\n      swap3\n      swap2\n      swap1\n      dup2\n      dup2\n      mstore\n      0x20\n      add\n      dup3\n      dup1\n      sload\n      tag_227\n      swap1\n      tag_54\n      jump\t// in\n    tag_227:\n      dup1\n      iszero\n      tag_228\n      jumpi\n      dup1\n      0x1f\n      lt\n      tag_229\n      jumpi\n      0x0100\n      dup1\n      dup4\n      sload\n      div\n      mul\n      dup4\n      mstore\n      swap2\n      0x20\n      add\n      swap2\n      jump(tag_228)\n    tag_229:\n      dup3\n      add\n      swap2\n      swap1\n      0x00\n      mstore\n      keccak256(0x00, 0x20)\n      swap1\n    tag_230:\n      dup2\n      sload\n      dup2\n      mstore\n      swap1\n      0x01\n      add\n      swap1\n      0x20\n      add\n      dup1\n      dup4\n      gt\n      tag_230\n      jumpi\n      dup3\n      swap1\n      sub\n      0x1f\n      and\n      dup3\n      add\n      swap2\n    tag_228:\n      pop\n      pop\n      pop\n      pop\n      pop\n      dup2\n      mstore\n      0x20\n      add\n      0x05\n      dup3\n      add\n      dup1\n      sload\n      tag_231\n      swap1\n      tag_54\n      jump\t// in\n    tag_231:\n      dup1\n      0x1f\n      add\n      0x20\n      dup1\n      swap2\n      div\n      mul\n      0x20\n      add\n      mload(0x40)\n      swap1\n      dup2\n      add\n      0x40\n      mstore\n      dup1\n      swap3\n      swap2\n      swap1\n      dup2\n      dup2\n      mstore\n      0x20\n      add\n      dup3\n      dup1\n      sload\n      tag_232\n      swap1\n      tag_54\n      jump\t// in\n    tag_232:\n      dup1\n      iszero\n      tag_233\n      jumpi\n      dup1\n      0x1f\n      lt\n      tag_234\n      jumpi\n      0x0100\n      dup1\n      dup4\n      sload\n      div\n      mul\n      dup4\n      mstore\n      swap2\n      0x20\n      add\n      swap2\n      jump(tag_233)\n    tag_234:\n      dup3\n      add\n      swap2\n      swap1\n      0x00\n      mstore\n      keccak256(0x00, 0x20)\n      swap1\n    tag_235:\n      dup2\n      sload\n      dup2\n      mstore\n      swap1\n      0x01\n      add\n      swap1\n      0x20\n      add\n      dup1\n      dup4\n      gt\n      tag_235\n      jumpi\n      dup3\n      swap1\n      sub\n      0x1f\n      and\n      dup3\n      add\n      swap2\n    tag_233:\n      pop\n      pop\n      pop\n      pop\n      pop\n      dup2\n      mstore\n      0x20\n      add\n      0x06\n      dup3\n      add\n      sload\n      dup2\n      mstore\n      0x20\n      add\n      0x07\n      dup3\n      add\n      sload\n      dup2\n      mstore\n      0x20\n      add\n      0x08\n      dup3\n      add\n      sload\n      dup2\n      mstore\n      pop\n      pop\n        /* \"contracts/TransactionContract8Juni.sol\":4832:4838  result */\n      dup4\n        /* \"contracts/TransactionContract8Juni.sol\":4839:4844  index */\n      dup4\n        /* \"contracts/TransactionContract8Juni.sol\":4832:4845  result[index] */\n      dup2\n      mload\n      dup2\n      lt\n      tag_236\n      jumpi\n      tag_237\n      tag_98\n      jump\t// in\n    tag_237:\n    tag_236:\n      0x20\n      mul\n      0x20\n      add\n      add\n        /* \"contracts/TransactionContract8Juni.sol\":4832:4881  result[index] = transactions[transactionCodes[i]] */\n      dup2\n      swap1\n      mstore\n      pop\n        /* \"contracts/TransactionContract8Juni.sol\":4899:4906  index++ */\n      dup2\n      dup1\n      tag_238\n      swap1\n      tag_125\n      jump\t// in\n    tag_238:\n      swap3\n      pop\n      pop\n        /* \"contracts/TransactionContract8Juni.sol\":4749:4921  if (transactions[transactionCodes[i]].campaignId == _campaignId) {... */\n    tag_211:\n        /* \"contracts/TransactionContract8Juni.sol\":4730:4733  i++ */\n      dup1\n      dup1\n      tag_239\n      swap1\n      tag_125\n      jump\t// in\n    tag_239:\n      swap2\n      pop\n      pop\n        /* \"contracts/TransactionContract8Juni.sol\":4684:4931  for (uint i = 0; i < transactionCodes.length; i++) {... */\n      jump(tag_204)\n    tag_205:\n      pop\n        /* \"contracts/TransactionContract8Juni.sol\":4947:4953  result */\n      dup2\n        /* \"contracts/TransactionContract8Juni.sol\":4940:4953  return result */\n      swap4\n      pop\n      pop\n      pop\n      pop\n        /* \"contracts/TransactionContract8Juni.sol\":4262:4960  function getTransactionByCampaignId(... */\n      swap2\n      swap1\n      pop\n      jump\t// out\n        /* \"contracts/TransactionContract8Juni.sol\":438:470  string[] public transactionCodes */\n    tag_42:\n      0x01\n      dup2\n      dup2\n      sload\n      dup2\n      lt\n      tag_240\n      jumpi\n      0x00\n      dup1\n      revert\n    tag_240:\n      swap1\n      0x00\n      mstore\n      keccak256(0x00, 0x20)\n      add\n      0x00\n      swap2\n      pop\n      swap1\n      pop\n      dup1\n      sload\n      tag_242\n      swap1\n      tag_54\n      jump\t// in\n    tag_242:\n      dup1\n      0x1f\n      add\n      0x20\n      dup1\n      swap2\n      div\n      mul\n      0x20\n      add\n      mload(0x40)\n      swap1\n      dup2\n      add\n      0x40\n      mstore\n      dup1\n      swap3\n      swap2\n      swap1\n      dup2\n      dup2\n      mstore\n      0x20\n      add\n      dup3\n      dup1\n      sload\n      tag_243\n      swap1\n      tag_54\n      jump\t// in\n    tag_243:\n      dup1\n      iszero\n      tag_244\n      jumpi\n      dup1\n      0x1f\n      lt\n      tag_245\n      jumpi\n      0x0100\n      dup1\n      dup4\n      sload\n      div\n      mul\n      dup4\n      mstore\n      swap2\n      0x20\n      add\n      swap2\n      jump(tag_244)\n    tag_245:\n      dup3\n      add\n      swap2\n      swap1\n      0x00\n      mstore\n      keccak256(0x00, 0x20)\n      swap1\n    tag_246:\n      dup2\n      sload\n      dup2\n      mstore\n      swap1\n      0x01\n      add\n      swap1\n      0x20\n      add\n      dup1\n      dup4\n      gt\n      tag_246\n      jumpi\n      dup3\n      swap1\n      sub\n      0x1f\n      and\n      dup3\n      add\n      swap2\n    tag_244:\n      pop\n      pop\n      pop\n      pop\n      pop\n      dup2\n      jump\t// out\n        /* \"contracts/TransactionContract8Juni.sol\":3937:4256  function getTransactionByCode(... */\n    tag_47:\n        /* \"contracts/TransactionContract8Juni.sol\":4034:4052  Transaction memory */\n      tag_247\n      tag_92\n      jump\t// in\n    tag_247:\n        /* \"contracts/TransactionContract8Juni.sol\":4149:4150  0 */\n      0x00\n        /* \"contracts/TransactionContract8Juni.sol\":4091:4103  transactions */\n      dup1\n        /* \"contracts/TransactionContract8Juni.sol\":4104:4120  _transactionCode */\n      dup4\n        /* \"contracts/TransactionContract8Juni.sol\":4091:4121  transactions[_transactionCode] */\n      mload(0x40)\n      tag_249\n      swap2\n      swap1\n      tag_76\n      jump\t// in\n    tag_249:\n      swap1\n      dup2\n      mstore\n      0x20\n      add\n      mload(0x40)\n      dup1\n      swap2\n      sub\n      swap1\n      keccak256\n        /* \"contracts/TransactionContract8Juni.sol\":4091:4137  transactions[_transactionCode].transactionCode */\n      0x00\n      add\n        /* \"contracts/TransactionContract8Juni.sol\":4085:4145  bytes(transactions[_transactionCode].transactionCode).length */\n      dup1\n      sload\n      tag_250\n      swap1\n      tag_54\n      jump\t// in\n    tag_250:\n      swap1\n      pop\n        /* \"contracts/TransactionContract8Juni.sol\":4085:4150  bytes(transactions[_transactionCode].transactionCode).length != 0 */\n      sub\n        /* \"contracts/TransactionContract8Juni.sol\":4064:4202  require(... */\n      tag_251\n      jumpi\n      mload(0x40)\n      0x08c379a000000000000000000000000000000000000000000000000000000000\n      dup2\n      mstore\n      0x04\n      add\n      tag_252\n      swap1\n      tag_183\n      jump\t// in\n    tag_252:\n      mload(0x40)\n      dup1\n      swap2\n      sub\n      swap1\n      revert\n    tag_251:\n        /* \"contracts/TransactionContract8Juni.sol\":4219:4231  transactions */\n      0x00\n        /* \"contracts/TransactionContract8Juni.sol\":4232:4248  _transactionCode */\n      dup3\n        /* \"contracts/TransactionContract8Juni.sol\":4219:4249  transactions[_transactionCode] */\n      mload(0x40)\n      tag_253\n      swap2\n      swap1\n      tag_76\n      jump\t// in\n    tag_253:\n      swap1\n      dup2\n      mstore\n      0x20\n      add\n      mload(0x40)\n      dup1\n      swap2\n      sub\n      swap1\n      keccak256\n        /* \"contracts/TransactionContract8Juni.sol\":4212:4249  return transactions[_transactionCode] */\n      mload(0x40)\n      dup1\n      0x0120\n      add\n      0x40\n      mstore\n      swap1\n      dup2\n      0x00\n      dup3\n      add\n      dup1\n      sload\n      tag_254\n      swap1\n      tag_54\n      jump\t// in\n    tag_254:\n      dup1\n      0x1f\n      add\n      0x20\n      dup1\n      swap2\n      div\n      mul\n      0x20\n      add\n      mload(0x40)\n      swap1\n      dup2\n      add\n      0x40\n      mstore\n      dup1\n      swap3\n      swap2\n      swap1\n      dup2\n      dup2\n      mstore\n      0x20\n      add\n      dup3\n      dup1\n      sload\n      tag_255\n      swap1\n      tag_54\n      jump\t// in\n    tag_255:\n      dup1\n      iszero\n      tag_256\n      jumpi\n      dup1\n      0x1f\n      lt\n      tag_257\n      jumpi\n      0x0100\n      dup1\n      dup4\n      sload\n      div\n      mul\n      dup4\n      mstore\n      swap2\n      0x20\n      add\n      swap2\n      jump(tag_256)\n    tag_257:\n      dup3\n      add\n      swap2\n      swap1\n      0x00\n      mstore\n      keccak256(0x00, 0x20)\n      swap1\n    tag_258:\n      dup2\n      sload\n      dup2\n      mstore\n      swap1\n      0x01\n      add\n      swap1\n      0x20\n      add\n      dup1\n      dup4\n      gt\n      tag_258\n      jumpi\n      dup3\n      swap1\n      sub\n      0x1f\n      and\n      dup3\n      add\n      swap2\n    tag_256:\n      pop\n      pop\n      pop\n      pop\n      pop\n      dup2\n      mstore\n      0x20\n      add\n      0x01\n      dup3\n      add\n      sload\n      dup2\n      mstore\n      0x20\n      add\n      0x02\n      dup3\n      add\n      sload\n      dup2\n      mstore\n      0x20\n      add\n      0x03\n      dup3\n      add\n      dup1\n      sload\n      tag_259\n      swap1\n      tag_54\n      jump\t// in\n    tag_259:\n      dup1\n      0x1f\n      add\n      0x20\n      dup1\n      swap2\n      div\n      mul\n      0x20\n      add\n      mload(0x40)\n      swap1\n      dup2\n      add\n      0x40\n      mstore\n      dup1\n      swap3\n      swap2\n      swap1\n      dup2\n      dup2\n      mstore\n      0x20\n      add\n      dup3\n      dup1\n      sload\n      tag_260\n      swap1\n      tag_54\n      jump\t// in\n    tag_260:\n      dup1\n      iszero\n      tag_261\n      jumpi\n      dup1\n      0x1f\n      lt\n      tag_262\n      jumpi\n      0x0100\n      dup1\n      dup4\n      sload\n      div\n      mul\n      dup4\n      mstore\n      swap2\n      0x20\n      add\n      swap2\n      jump(tag_261)\n    tag_262:\n      dup3\n      add\n      swap2\n      swap1\n      0x00\n      mstore\n      keccak256(0x00, 0x20)\n      swap1\n    tag_263:\n      dup2\n      sload\n      dup2\n      mstore\n      swap1\n      0x01\n      add\n      swap1\n      0x20\n      add\n      dup1\n      dup4\n      gt\n      tag_263\n      jumpi\n      dup3\n      swap1\n      sub\n      0x1f\n      and\n      dup3\n      add\n      swap2\n    tag_261:\n      pop\n      pop\n      pop\n      pop\n      pop\n      dup2\n      mstore\n      0x20\n      add\n      0x04\n      dup3\n      add\n      dup1\n      sload\n      tag_264\n      swap1\n      tag_54\n      jump\t// in\n    tag_264:\n      dup1\n      0x1f\n      add\n      0x20\n      dup1\n      swap2\n      div\n      mul\n      0x20\n      add\n      mload(0x40)\n      swap1\n      dup2\n      add\n      0x40\n      mstore\n      dup1\n      swap3\n      swap2\n      swap1\n      dup2\n      dup2\n      mstore\n      0x20\n      add\n      dup3\n      dup1\n      sload\n      tag_265\n      swap1\n      tag_54\n      jump\t// in\n    tag_265:\n      dup1\n      iszero\n      tag_266\n      jumpi\n      dup1\n      0x1f\n      lt\n      tag_267\n      jumpi\n      0x0100\n      dup1\n      dup4\n      sload\n      div\n      mul\n      dup4\n      mstore\n      swap2\n      0x20\n      add\n      swap2\n      jump(tag_266)\n    tag_267:\n      dup3\n      add\n      swap2\n      swap1\n      0x00\n      mstore\n      keccak256(0x00, 0x20)\n      swap1\n    tag_268:\n      dup2\n      sload\n      dup2\n      mstore\n      swap1\n      0x01\n      add\n      swap1\n      0x20\n      add\n      dup1\n      dup4\n      gt\n      tag_268\n      jumpi\n      dup3\n      swap1\n      sub\n      0x1f\n      and\n      dup3\n      add\n      swap2\n    tag_266:\n      pop\n      pop\n      pop\n      pop\n      pop\n      dup2\n      mstore\n      0x20\n      add\n      0x05\n      dup3\n      add\n      dup1\n      sload\n      tag_269\n      swap1\n      tag_54\n      jump\t// in\n    tag_269:\n      dup1\n      0x1f\n      add\n      0x20\n      dup1\n      swap2\n      div\n      mul\n      0x20\n      add\n      mload(0x40)\n      swap1\n      dup2\n      add\n      0x40\n      mstore\n      dup1\n      swap3\n      swap2\n      swap1\n      dup2\n      dup2\n      mstore\n      0x20\n      add\n      dup3\n      dup1\n      sload\n      tag_270\n      swap1\n      tag_54\n      jump\t// in\n    tag_270:\n      dup1\n      iszero\n      tag_271\n      jumpi\n      dup1\n      0x1f\n      lt\n      tag_272\n      jumpi\n      0x0100\n      dup1\n      dup4\n      sload\n      div\n      mul\n      dup4\n      mstore\n      swap2\n      0x20\n      add\n      swap2\n      jump(tag_271)\n    tag_272:\n      dup3\n      add\n      swap2\n      swap1\n      0x00\n      mstore\n      keccak256(0x00, 0x20)\n      swap1\n    tag_273:\n      dup2\n      sload\n      dup2\n      mstore\n      swap1\n      0x01\n      add\n      swap1\n      0x20\n      add\n      dup1\n      dup4\n      gt\n      tag_273\n      jumpi\n      dup3\n      swap1\n      sub\n      0x1f\n      and\n      dup3\n      add\n      swap2\n    tag_271:\n      pop\n      pop\n      pop\n      pop\n      pop\n      dup2\n      mstore\n      0x20\n      add\n      0x06\n      dup3\n      add\n      sload\n      dup2\n      mstore\n      0x20\n      add\n      0x07\n      dup3\n      add\n      sload\n      dup2\n      mstore\n      0x20\n      add\n      0x08\n      dup3\n      add\n      sload\n      dup2\n      mstore\n      pop\n      pop\n      swap1\n      pop\n        /* \"contracts/TransactionContract8Juni.sol\":3937:4256  function getTransactionByCode(... */\n      swap2\n      swap1\n      pop\n      jump\t// out\n        /* \"contracts/TransactionContract8Juni.sol\":2731:3155  function updatePaymentStatus(... */\n    tag_52:\n        /* \"contracts/TransactionContract8Juni.sol\":2949:2950  0 */\n      0x00\n        /* \"contracts/TransactionContract8Juni.sol\":2891:2903  transactions */\n      dup1\n        /* \"contracts/TransactionContract8Juni.sol\":2904:2920  _transactionCode */\n      dup4\n        /* \"contracts/TransactionContract8Juni.sol\":2891:2921  transactions[_transactionCode] */\n      mload(0x40)\n      tag_275\n      swap2\n      swap1\n      tag_76\n      jump\t// in\n    tag_275:\n      swap1\n      dup2\n      mstore\n      0x20\n      add\n      mload(0x40)\n      dup1\n      swap2\n      sub\n      swap1\n      keccak256\n        /* \"contracts/TransactionContract8Juni.sol\":2891:2937  transactions[_transactionCode].transactionCode */\n      0x00\n      add\n        /* \"contracts/TransactionContract8Juni.sol\":2885:2945  bytes(transactions[_transactionCode].transactionCode).length */\n      dup1\n      sload\n      tag_276\n      swap1\n      tag_54\n      jump\t// in\n    tag_276:\n      swap1\n      pop\n        /* \"contracts/TransactionContract8Juni.sol\":2885:2950  bytes(transactions[_transactionCode].transactionCode).length != 0 */\n      sub\n        /* \"contracts/TransactionContract8Juni.sol\":2864:3002  require(... */\n      tag_277\n      jumpi\n      mload(0x40)\n      0x08c379a000000000000000000000000000000000000000000000000000000000\n      dup2\n      mstore\n      0x04\n      add\n      tag_278\n      swap1\n      tag_183\n      jump\t// in\n    tag_278:\n      mload(0x40)\n      dup1\n      swap2\n      sub\n      swap1\n      revert\n    tag_277:\n        /* \"contracts/TransactionContract8Juni.sol\":3059:3076  _newPaymentStatus */\n      dup1\n        /* \"contracts/TransactionContract8Juni.sol\":3012:3024  transactions */\n      0x00\n        /* \"contracts/TransactionContract8Juni.sol\":3025:3041  _transactionCode */\n      dup4\n        /* \"contracts/TransactionContract8Juni.sol\":3012:3042  transactions[_transactionCode] */\n      mload(0x40)\n      tag_279\n      swap2\n      swap1\n      tag_76\n      jump\t// in\n    tag_279:\n      swap1\n      dup2\n      mstore\n      0x20\n      add\n      mload(0x40)\n      dup1\n      swap2\n      sub\n      swap1\n      keccak256\n        /* \"contracts/TransactionContract8Juni.sol\":3012:3056  transactions[_transactionCode].paymentStatus */\n      0x04\n      add\n        /* \"contracts/TransactionContract8Juni.sol\":3012:3076  transactions[_transactionCode].paymentStatus = _newPaymentStatus */\n      swap1\n      dup2\n      tag_280\n      swap2\n      swap1\n      tag_78\n      jump\t// in\n    tag_280:\n      pop\n        /* \"contracts/TransactionContract8Juni.sol\":3091:3148  PaymentStatusUpdated(_transactionCode, _newPaymentStatus) */\n      0xc61ffb03925558d248fba37b73270b12903d3f0ba5797af8b71a9f8bf0761a98\n        /* \"contracts/TransactionContract8Juni.sol\":3112:3128  _transactionCode */\n      dup3\n        /* \"contracts/TransactionContract8Juni.sol\":3130:3147  _newPaymentStatus */\n      dup3\n        /* \"contracts/TransactionContract8Juni.sol\":3091:3148  PaymentStatusUpdated(_transactionCode, _newPaymentStatus) */\n      mload(0x40)\n      tag_281\n      swap3\n      swap2\n      swap1\n      tag_187\n      jump\t// in\n    tag_281:\n      mload(0x40)\n      dup1\n      swap2\n      sub\n      swap1\n      log1\n        /* \"contracts/TransactionContract8Juni.sol\":2731:3155  function updatePaymentStatus(... */\n      pop\n      pop\n      jump\t// out\n    tag_92:\n      mload(0x40)\n      dup1\n      0x0120\n      add\n      0x40\n      mstore\n      dup1\n      0x60\n      dup2\n      mstore\n      0x20\n      add\n      0x00\n      dup2\n      mstore\n      0x20\n      add\n      0x00\n      dup2\n      mstore\n      0x20\n      add\n      0x60\n      dup2\n      mstore\n      0x20\n      add\n      0x60\n      dup2\n      mstore\n      0x20\n      add\n      0x60\n      dup2\n      mstore\n      0x20\n      add\n      0x00\n      dup2\n      mstore\n      0x20\n      add\n      0x00\n      dup2\n      mstore\n      0x20\n      add\n      0x00\n      dup2\n      mstore\n      pop\n      swap1\n      jump\t// out\n        /* \"#utility.yul\":7:82   */\n    tag_282:\n        /* \"#utility.yul\":40:46   */\n      0x00\n        /* \"#utility.yul\":73:75   */\n      0x40\n        /* \"#utility.yul\":67:76   */\n      mload\n        /* \"#utility.yul\":57:76   */\n      swap1\n      pop\n        /* \"#utility.yul\":7:82   */\n      swap1\n      jump\t// out\n        /* \"#utility.yul\":88:205   */\n    tag_283:\n        /* \"#utility.yul\":197:198   */\n      0x00\n        /* \"#utility.yul\":194:195   */\n      dup1\n        /* \"#utility.yul\":187:199   */\n      revert\n        /* \"#utility.yul\":211:328   */\n    tag_284:\n        /* \"#utility.yul\":320:321   */\n      0x00\n        /* \"#utility.yul\":317:318   */\n      dup1\n        /* \"#utility.yul\":310:322   */\n      revert\n        /* \"#utility.yul\":334:451   */\n    tag_285:\n        /* \"#utility.yul\":443:444   */\n      0x00\n        /* \"#utility.yul\":440:441   */\n      dup1\n        /* \"#utility.yul\":433:445   */\n      revert\n        /* \"#utility.yul\":457:574   */\n    tag_286:\n        /* \"#utility.yul\":566:567   */\n      0x00\n        /* \"#utility.yul\":563:564   */\n      dup1\n        /* \"#utility.yul\":556:568   */\n      revert\n        /* \"#utility.yul\":580:682   */\n    tag_287:\n        /* \"#utility.yul\":621:627   */\n      0x00\n        /* \"#utility.yul\":672:674   */\n      0x1f\n        /* \"#utility.yul\":668:675   */\n      not\n        /* \"#utility.yul\":663:665   */\n      0x1f\n        /* \"#utility.yul\":656:661   */\n      dup4\n        /* \"#utility.yul\":652:666   */\n      add\n        /* \"#utility.yul\":648:676   */\n      and\n        /* \"#utility.yul\":638:676   */\n      swap1\n      pop\n        /* \"#utility.yul\":580:682   */\n      swap2\n      swap1\n      pop\n      jump\t// out\n        /* \"#utility.yul\":688:868   */\n    tag_88:\n        /* \"#utility.yul\":736:813   */\n      0x4e487b7100000000000000000000000000000000000000000000000000000000\n        /* \"#utility.yul\":733:734   */\n      0x00\n        /* \"#utility.yul\":726:814   */\n      mstore\n        /* \"#utility.yul\":833:837   */\n      0x41\n        /* \"#utility.yul\":830:831   */\n      0x04\n        /* \"#utility.yul\":823:838   */\n      mstore\n        /* \"#utility.yul\":857:861   */\n      0x24\n        /* \"#utility.yul\":854:855   */\n      0x00\n        /* \"#utility.yul\":847:862   */\n      revert\n        /* \"#utility.yul\":874:1155   */\n    tag_288:\n        /* \"#utility.yul\":957:984   */\n      tag_344\n        /* \"#utility.yul\":979:983   */\n      dup3\n        /* \"#utility.yul\":957:984   */\n      tag_287\n      jump\t// in\n    tag_344:\n        /* \"#utility.yul\":949:955   */\n      dup2\n        /* \"#utility.yul\":945:985   */\n      add\n        /* \"#utility.yul\":1087:1093   */\n      dup2\n        /* \"#utility.yul\":1075:1085   */\n      dup2\n        /* \"#utility.yul\":1072:1094   */\n      lt\n        /* \"#utility.yul\":1051:1069   */\n      0xffffffffffffffff\n        /* \"#utility.yul\":1039:1049   */\n      dup3\n        /* \"#utility.yul\":1036:1070   */\n      gt\n        /* \"#utility.yul\":1033:1095   */\n      or\n        /* \"#utility.yul\":1030:1118   */\n      iszero\n      tag_345\n      jumpi\n        /* \"#utility.yul\":1098:1116   */\n      tag_346\n      tag_88\n      jump\t// in\n    tag_346:\n        /* \"#utility.yul\":1030:1118   */\n    tag_345:\n        /* \"#utility.yul\":1138:1148   */\n      dup1\n        /* \"#utility.yul\":1134:1136   */\n      0x40\n        /* \"#utility.yul\":1127:1149   */\n      mstore\n        /* \"#utility.yul\":917:1155   */\n      pop\n        /* \"#utility.yul\":874:1155   */\n      pop\n      pop\n      jump\t// out\n        /* \"#utility.yul\":1161:1290   */\n    tag_289:\n        /* \"#utility.yul\":1195:1201   */\n      0x00\n        /* \"#utility.yul\":1222:1242   */\n      tag_348\n      tag_282\n      jump\t// in\n    tag_348:\n        /* \"#utility.yul\":1212:1242   */\n      swap1\n      pop\n        /* \"#utility.yul\":1251:1284   */\n      tag_349\n        /* \"#utility.yul\":1279:1283   */\n      dup3\n        /* \"#utility.yul\":1271:1277   */\n      dup3\n        /* \"#utility.yul\":1251:1284   */\n      tag_288\n      jump\t// in\n    tag_349:\n        /* \"#utility.yul\":1161:1290   */\n      swap2\n      swap1\n      pop\n      jump\t// out\n        /* \"#utility.yul\":1296:1604   */\n    tag_290:\n        /* \"#utility.yul\":1358:1362   */\n      0x00\n        /* \"#utility.yul\":1448:1466   */\n      0xffffffffffffffff\n        /* \"#utility.yul\":1440:1446   */\n      dup3\n        /* \"#utility.yul\":1437:1467   */\n      gt\n        /* \"#utility.yul\":1434:1490   */\n      iszero\n      tag_351\n      jumpi\n        /* \"#utility.yul\":1470:1488   */\n      tag_352\n      tag_88\n      jump\t// in\n    tag_352:\n        /* \"#utility.yul\":1434:1490   */\n    tag_351:\n        /* \"#utility.yul\":1508:1537   */\n      tag_353\n        /* \"#utility.yul\":1530:1536   */\n      dup3\n        /* \"#utility.yul\":1508:1537   */\n      tag_287\n      jump\t// in\n    tag_353:\n        /* \"#utility.yul\":1500:1537   */\n      swap1\n      pop\n        /* \"#utility.yul\":1592:1596   */\n      0x20\n        /* \"#utility.yul\":1586:1590   */\n      dup2\n        /* \"#utility.yul\":1582:1597   */\n      add\n        /* \"#utility.yul\":1574:1597   */\n      swap1\n      pop\n        /* \"#utility.yul\":1296:1604   */\n      swap2\n      swap1\n      pop\n      jump\t// out\n        /* \"#utility.yul\":1610:1756   */\n    tag_291:\n        /* \"#utility.yul\":1707:1713   */\n      dup3\n        /* \"#utility.yul\":1702:1705   */\n      dup2\n        /* \"#utility.yul\":1697:1700   */\n      dup4\n        /* \"#utility.yul\":1684:1714   */\n      calldatacopy\n        /* \"#utility.yul\":1748:1749   */\n      0x00\n        /* \"#utility.yul\":1739:1745   */\n      dup4\n        /* \"#utility.yul\":1734:1737   */\n      dup4\n        /* \"#utility.yul\":1730:1746   */\n      add\n        /* \"#utility.yul\":1723:1750   */\n      mstore\n        /* \"#utility.yul\":1610:1756   */\n      pop\n      pop\n      pop\n      jump\t// out\n        /* \"#utility.yul\":1762:2187   */\n    tag_292:\n        /* \"#utility.yul\":1840:1845   */\n      0x00\n        /* \"#utility.yul\":1865:1931   */\n      tag_356\n        /* \"#utility.yul\":1881:1930   */\n      tag_357\n        /* \"#utility.yul\":1923:1929   */\n      dup5\n        /* \"#utility.yul\":1881:1930   */\n      tag_290\n      jump\t// in\n    tag_357:\n        /* \"#utility.yul\":1865:1931   */\n      tag_289\n      jump\t// in\n    tag_356:\n        /* \"#utility.yul\":1856:1931   */\n      swap1\n      pop\n        /* \"#utility.yul\":1954:1960   */\n      dup3\n        /* \"#utility.yul\":1947:1952   */\n      dup2\n        /* \"#utility.yul\":1940:1961   */\n      mstore\n        /* \"#utility.yul\":1992:1996   */\n      0x20\n        /* \"#utility.yul\":1985:1990   */\n      dup2\n        /* \"#utility.yul\":1981:1997   */\n      add\n        /* \"#utility.yul\":2030:2033   */\n      dup5\n        /* \"#utility.yul\":2021:2027   */\n      dup5\n        /* \"#utility.yul\":2016:2019   */\n      dup5\n        /* \"#utility.yul\":2012:2028   */\n      add\n        /* \"#utility.yul\":2009:2034   */\n      gt\n        /* \"#utility.yul\":2006:2118   */\n      iszero\n      tag_358\n      jumpi\n        /* \"#utility.yul\":2037:2116   */\n      tag_359\n      tag_286\n      jump\t// in\n    tag_359:\n        /* \"#utility.yul\":2006:2118   */\n    tag_358:\n        /* \"#utility.yul\":2127:2181   */\n      tag_360\n        /* \"#utility.yul\":2174:2180   */\n      dup5\n        /* \"#utility.yul\":2169:2172   */\n      dup3\n        /* \"#utility.yul\":2164:2167   */\n      dup6\n        /* \"#utility.yul\":2127:2181   */\n      tag_291\n      jump\t// in\n    tag_360:\n        /* \"#utility.yul\":1846:2187   */\n      pop\n        /* \"#utility.yul\":1762:2187   */\n      swap4\n      swap3\n      pop\n      pop\n      pop\n      jump\t// out\n        /* \"#utility.yul\":2207:2547   */\n    tag_293:\n        /* \"#utility.yul\":2263:2268   */\n      0x00\n        /* \"#utility.yul\":2312:2315   */\n      dup3\n        /* \"#utility.yul\":2305:2309   */\n      0x1f\n        /* \"#utility.yul\":2297:2303   */\n      dup4\n        /* \"#utility.yul\":2293:2310   */\n      add\n        /* \"#utility.yul\":2289:2316   */\n      slt\n        /* \"#utility.yul\":2279:2401   */\n      tag_362\n      jumpi\n        /* \"#utility.yul\":2320:2399   */\n      tag_363\n      tag_285\n      jump\t// in\n    tag_363:\n        /* \"#utility.yul\":2279:2401   */\n    tag_362:\n        /* \"#utility.yul\":2437:2443   */\n      dup2\n        /* \"#utility.yul\":2424:2444   */\n      calldataload\n        /* \"#utility.yul\":2462:2541   */\n      tag_364\n        /* \"#utility.yul\":2537:2540   */\n      dup5\n        /* \"#utility.yul\":2529:2535   */\n      dup3\n        /* \"#utility.yul\":2522:2526   */\n      0x20\n        /* \"#utility.yul\":2514:2520   */\n      dup7\n        /* \"#utility.yul\":2510:2527   */\n      add\n        /* \"#utility.yul\":2462:2541   */\n      tag_292\n      jump\t// in\n    tag_364:\n        /* \"#utility.yul\":2453:2541   */\n      swap2\n      pop\n        /* \"#utility.yul\":2269:2547   */\n      pop\n        /* \"#utility.yul\":2207:2547   */\n      swap3\n      swap2\n      pop\n      pop\n      jump\t// out\n        /* \"#utility.yul\":2553:3062   */\n    tag_15:\n        /* \"#utility.yul\":2622:2628   */\n      0x00\n        /* \"#utility.yul\":2671:2673   */\n      0x20\n        /* \"#utility.yul\":2659:2668   */\n      dup3\n        /* \"#utility.yul\":2650:2657   */\n      dup5\n        /* \"#utility.yul\":2646:2669   */\n      sub\n        /* \"#utility.yul\":2642:2674   */\n      slt\n        /* \"#utility.yul\":2639:2758   */\n      iszero\n      tag_366\n      jumpi\n        /* \"#utility.yul\":2677:2756   */\n      tag_367\n      tag_283\n      jump\t// in\n    tag_367:\n        /* \"#utility.yul\":2639:2758   */\n    tag_366:\n        /* \"#utility.yul\":2825:2826   */\n      0x00\n        /* \"#utility.yul\":2814:2823   */\n      dup3\n        /* \"#utility.yul\":2810:2827   */\n      add\n        /* \"#utility.yul\":2797:2828   */\n      calldataload\n        /* \"#utility.yul\":2855:2873   */\n      0xffffffffffffffff\n        /* \"#utility.yul\":2847:2853   */\n      dup2\n        /* \"#utility.yul\":2844:2874   */\n      gt\n        /* \"#utility.yul\":2841:2958   */\n      iszero\n      tag_368\n      jumpi\n        /* \"#utility.yul\":2877:2956   */\n      tag_369\n      tag_284\n      jump\t// in\n    tag_369:\n        /* \"#utility.yul\":2841:2958   */\n    tag_368:\n        /* \"#utility.yul\":2982:3045   */\n      tag_370\n        /* \"#utility.yul\":3037:3044   */\n      dup5\n        /* \"#utility.yul\":3028:3034   */\n      dup3\n        /* \"#utility.yul\":3017:3026   */\n      dup6\n        /* \"#utility.yul\":3013:3035   */\n      add\n        /* \"#utility.yul\":2982:3045   */\n      tag_293\n      jump\t// in\n    tag_370:\n        /* \"#utility.yul\":2972:3045   */\n      swap2\n      pop\n        /* \"#utility.yul\":2768:3055   */\n      pop\n        /* \"#utility.yul\":2553:3062   */\n      swap3\n      swap2\n      pop\n      pop\n      jump\t// out\n        /* \"#utility.yul\":3068:3167   */\n    tag_294:\n        /* \"#utility.yul\":3120:3126   */\n      0x00\n        /* \"#utility.yul\":3154:3159   */\n      dup2\n        /* \"#utility.yul\":3148:3160   */\n      mload\n        /* \"#utility.yul\":3138:3160   */\n      swap1\n      pop\n        /* \"#utility.yul\":3068:3167   */\n      swap2\n      swap1\n      pop\n      jump\t// out\n        /* \"#utility.yul\":3173:3342   */\n    tag_295:\n        /* \"#utility.yul\":3257:3268   */\n      0x00\n        /* \"#utility.yul\":3291:3297   */\n      dup3\n        /* \"#utility.yul\":3286:3289   */\n      dup3\n        /* \"#utility.yul\":3279:3298   */\n      mstore\n        /* \"#utility.yul\":3331:3335   */\n      0x20\n        /* \"#utility.yul\":3326:3329   */\n      dup3\n        /* \"#utility.yul\":3322:3336   */\n      add\n        /* \"#utility.yul\":3307:3336   */\n      swap1\n      pop\n        /* \"#utility.yul\":3173:3342   */\n      swap3\n      swap2\n      pop\n      pop\n      jump\t// out\n        /* \"#utility.yul\":3348:3594   */\n    tag_296:\n        /* \"#utility.yul\":3429:3430   */\n      0x00\n        /* \"#utility.yul\":3439:3552   */\n    tag_374:\n        /* \"#utility.yul\":3453:3459   */\n      dup4\n        /* \"#utility.yul\":3450:3451   */\n      dup2\n        /* \"#utility.yul\":3447:3460   */\n      lt\n        /* \"#utility.yul\":3439:3552   */\n      iszero\n      tag_376\n      jumpi\n        /* \"#utility.yul\":3538:3539   */\n      dup1\n        /* \"#utility.yul\":3533:3536   */\n      dup3\n        /* \"#utility.yul\":3529:3540   */\n      add\n        /* \"#utility.yul\":3523:3541   */\n      mload\n        /* \"#utility.yul\":3519:3520   */\n      dup2\n        /* \"#utility.yul\":3514:3517   */\n      dup5\n        /* \"#utility.yul\":3510:3521   */\n      add\n        /* \"#utility.yul\":3503:3542   */\n      mstore\n        /* \"#utility.yul\":3475:3477   */\n      0x20\n        /* \"#utility.yul\":3472:3473   */\n      dup2\n        /* \"#utility.yul\":3468:3478   */\n      add\n        /* \"#utility.yul\":3463:3478   */\n      swap1\n      pop\n        /* \"#utility.yul\":3439:3552   */\n      jump(tag_374)\n    tag_376:\n        /* \"#utility.yul\":3586:3587   */\n      0x00\n        /* \"#utility.yul\":3577:3583   */\n      dup5\n        /* \"#utility.yul\":3572:3575   */\n      dup5\n        /* \"#utility.yul\":3568:3584   */\n      add\n        /* \"#utility.yul\":3561:3588   */\n      mstore\n        /* \"#utility.yul\":3410:3594   */\n      pop\n        /* \"#utility.yul\":3348:3594   */\n      pop\n      pop\n      pop\n      jump\t// out\n        /* \"#utility.yul\":3600:3977   */\n    tag_297:\n        /* \"#utility.yul\":3688:3691   */\n      0x00\n        /* \"#utility.yul\":3716:3755   */\n      tag_378\n        /* \"#utility.yul\":3749:3754   */\n      dup3\n        /* \"#utility.yul\":3716:3755   */\n      tag_294\n      jump\t// in\n    tag_378:\n        /* \"#utility.yul\":3771:3842   */\n      tag_379\n        /* \"#utility.yul\":3835:3841   */\n      dup2\n        /* \"#utility.yul\":3830:3833   */\n      dup6\n        /* \"#utility.yul\":3771:3842   */\n      tag_295\n      jump\t// in\n    tag_379:\n        /* \"#utility.yul\":3764:3842   */\n      swap4\n      pop\n        /* \"#utility.yul\":3851:3916   */\n      tag_380\n        /* \"#utility.yul\":3909:3915   */\n      dup2\n        /* \"#utility.yul\":3904:3907   */\n      dup6\n        /* \"#utility.yul\":3897:3901   */\n      0x20\n        /* \"#utility.yul\":3890:3895   */\n      dup7\n        /* \"#utility.yul\":3886:3902   */\n      add\n        /* \"#utility.yul\":3851:3916   */\n      tag_296\n      jump\t// in\n    tag_380:\n        /* \"#utility.yul\":3941:3970   */\n      tag_381\n        /* \"#utility.yul\":3963:3969   */\n      dup2\n        /* \"#utility.yul\":3941:3970   */\n      tag_287\n      jump\t// in\n    tag_381:\n        /* \"#utility.yul\":3936:3939   */\n      dup5\n        /* \"#utility.yul\":3932:3971   */\n      add\n        /* \"#utility.yul\":3925:3971   */\n      swap2\n      pop\n        /* \"#utility.yul\":3692:3977   */\n      pop\n        /* \"#utility.yul\":3600:3977   */\n      swap3\n      swap2\n      pop\n      pop\n      jump\t// out\n        /* \"#utility.yul\":3983:4060   */\n    tag_298:\n        /* \"#utility.yul\":4020:4027   */\n      0x00\n        /* \"#utility.yul\":4049:4054   */\n      dup2\n        /* \"#utility.yul\":4038:4054   */\n      swap1\n      pop\n        /* \"#utility.yul\":3983:4060   */\n      swap2\n      swap1\n      pop\n      jump\t// out\n        /* \"#utility.yul\":4066:4184   */\n    tag_299:\n        /* \"#utility.yul\":4153:4177   */\n      tag_384\n        /* \"#utility.yul\":4171:4176   */\n      dup2\n        /* \"#utility.yul\":4153:4177   */\n      tag_298\n      jump\t// in\n    tag_384:\n        /* \"#utility.yul\":4148:4151   */\n      dup3\n        /* \"#utility.yul\":4141:4178   */\n      mstore\n        /* \"#utility.yul\":4066:4184   */\n      pop\n      pop\n      jump\t// out\n        /* \"#utility.yul\":4190:5662   */\n    tag_18:\n        /* \"#utility.yul\":4587:4591   */\n      0x00\n        /* \"#utility.yul\":4625:4628   */\n      0x0120\n        /* \"#utility.yul\":4614:4623   */\n      dup3\n        /* \"#utility.yul\":4610:4629   */\n      add\n        /* \"#utility.yul\":4602:4629   */\n      swap1\n      pop\n        /* \"#utility.yul\":4675:4684   */\n      dup2\n        /* \"#utility.yul\":4669:4673   */\n      dup2\n        /* \"#utility.yul\":4665:4685   */\n      sub\n        /* \"#utility.yul\":4661:4662   */\n      0x00\n        /* \"#utility.yul\":4650:4659   */\n      dup4\n        /* \"#utility.yul\":4646:4663   */\n      add\n        /* \"#utility.yul\":4639:4686   */\n      mstore\n        /* \"#utility.yul\":4703:4781   */\n      tag_386\n        /* \"#utility.yul\":4776:4780   */\n      dup2\n        /* \"#utility.yul\":4767:4773   */\n      dup13\n        /* \"#utility.yul\":4703:4781   */\n      tag_297\n      jump\t// in\n    tag_386:\n        /* \"#utility.yul\":4695:4781   */\n      swap1\n      pop\n        /* \"#utility.yul\":4791:4863   */\n      tag_387\n        /* \"#utility.yul\":4859:4861   */\n      0x20\n        /* \"#utility.yul\":4848:4857   */\n      dup4\n        /* \"#utility.yul\":4844:4862   */\n      add\n        /* \"#utility.yul\":4835:4841   */\n      dup12\n        /* \"#utility.yul\":4791:4863   */\n      tag_299\n      jump\t// in\n    tag_387:\n        /* \"#utility.yul\":4873:4945   */\n      tag_388\n        /* \"#utility.yul\":4941:4943   */\n      0x40\n        /* \"#utility.yul\":4930:4939   */\n      dup4\n        /* \"#utility.yul\":4926:4944   */\n      add\n        /* \"#utility.yul\":4917:4923   */\n      dup11\n        /* \"#utility.yul\":4873:4945   */\n      tag_299\n      jump\t// in\n    tag_388:\n        /* \"#utility.yul\":4992:5001   */\n      dup2\n        /* \"#utility.yul\":4986:4990   */\n      dup2\n        /* \"#utility.yul\":4982:5002   */\n      sub\n        /* \"#utility.yul\":4977:4979   */\n      0x60\n        /* \"#utility.yul\":4966:4975   */\n      dup4\n        /* \"#utility.yul\":4962:4980   */\n      add\n        /* \"#utility.yul\":4955:5003   */\n      mstore\n        /* \"#utility.yul\":5020:5098   */\n      tag_389\n        /* \"#utility.yul\":5093:5097   */\n      dup2\n        /* \"#utility.yul\":5084:5090   */\n      dup10\n        /* \"#utility.yul\":5020:5098   */\n      tag_297\n      jump\t// in\n    tag_389:\n        /* \"#utility.yul\":5012:5098   */\n      swap1\n      pop\n        /* \"#utility.yul\":5146:5155   */\n      dup2\n        /* \"#utility.yul\":5140:5144   */\n      dup2\n        /* \"#utility.yul\":5136:5156   */\n      sub\n        /* \"#utility.yul\":5130:5133   */\n      0x80\n        /* \"#utility.yul\":5119:5128   */\n      dup4\n        /* \"#utility.yul\":5115:5134   */\n      add\n        /* \"#utility.yul\":5108:5157   */\n      mstore\n        /* \"#utility.yul\":5174:5252   */\n      tag_390\n        /* \"#utility.yul\":5247:5251   */\n      dup2\n        /* \"#utility.yul\":5238:5244   */\n      dup9\n        /* \"#utility.yul\":5174:5252   */\n      tag_297\n      jump\t// in\n    tag_390:\n        /* \"#utility.yul\":5166:5252   */\n      swap1\n      pop\n        /* \"#utility.yul\":5300:5309   */\n      dup2\n        /* \"#utility.yul\":5294:5298   */\n      dup2\n        /* \"#utility.yul\":5290:5310   */\n      sub\n        /* \"#utility.yul\":5284:5287   */\n      0xa0\n        /* \"#utility.yul\":5273:5282   */\n      dup4\n        /* \"#utility.yul\":5269:5288   */\n      add\n        /* \"#utility.yul\":5262:5311   */\n      mstore\n        /* \"#utility.yul\":5328:5406   */\n      tag_391\n        /* \"#utility.yul\":5401:5405   */\n      dup2\n        /* \"#utility.yul\":5392:5398   */\n      dup8\n        /* \"#utility.yul\":5328:5406   */\n      tag_297\n      jump\t// in\n    tag_391:\n        /* \"#utility.yul\":5320:5406   */\n      swap1\n      pop\n        /* \"#utility.yul\":5416:5489   */\n      tag_392\n        /* \"#utility.yul\":5484:5487   */\n      0xc0\n        /* \"#utility.yul\":5473:5482   */\n      dup4\n        /* \"#utility.yul\":5469:5488   */\n      add\n        /* \"#utility.yul\":5460:5466   */\n      dup7\n        /* \"#utility.yul\":5416:5489   */\n      tag_299\n      jump\t// in\n    tag_392:\n        /* \"#utility.yul\":5499:5572   */\n      tag_393\n        /* \"#utility.yul\":5567:5570   */\n      0xe0\n        /* \"#utility.yul\":5556:5565   */\n      dup4\n        /* \"#utility.yul\":5552:5571   */\n      add\n        /* \"#utility.yul\":5543:5549   */\n      dup6\n        /* \"#utility.yul\":5499:5572   */\n      tag_299\n      jump\t// in\n    tag_393:\n        /* \"#utility.yul\":5582:5655   */\n      tag_394\n        /* \"#utility.yul\":5650:5653   */\n      0x0100\n        /* \"#utility.yul\":5639:5648   */\n      dup4\n        /* \"#utility.yul\":5635:5654   */\n      add\n        /* \"#utility.yul\":5626:5632   */\n      dup5\n        /* \"#utility.yul\":5582:5655   */\n      tag_299\n      jump\t// in\n    tag_394:\n        /* \"#utility.yul\":4190:5662   */\n      swap11\n      swap10\n      pop\n      pop\n      pop\n      pop\n      pop\n      pop\n      pop\n      pop\n      pop\n      pop\n      jump\t// out\n        /* \"#utility.yul\":5668:5790   */\n    tag_300:\n        /* \"#utility.yul\":5741:5765   */\n      tag_396\n        /* \"#utility.yul\":5759:5764   */\n      dup2\n        /* \"#utility.yul\":5741:5765   */\n      tag_298\n      jump\t// in\n    tag_396:\n        /* \"#utility.yul\":5734:5739   */\n      dup2\n        /* \"#utility.yul\":5731:5766   */\n      eq\n        /* \"#utility.yul\":5721:5784   */\n      tag_397\n      jumpi\n        /* \"#utility.yul\":5780:5781   */\n      0x00\n        /* \"#utility.yul\":5777:5778   */\n      dup1\n        /* \"#utility.yul\":5770:5782   */\n      revert\n        /* \"#utility.yul\":5721:5784   */\n    tag_397:\n        /* \"#utility.yul\":5668:5790   */\n      pop\n      jump\t// out\n        /* \"#utility.yul\":5796:5935   */\n    tag_301:\n        /* \"#utility.yul\":5842:5847   */\n      0x00\n        /* \"#utility.yul\":5880:5886   */\n      dup2\n        /* \"#utility.yul\":5867:5887   */\n      calldataload\n        /* \"#utility.yul\":5858:5887   */\n      swap1\n      pop\n        /* \"#utility.yul\":5896:5929   */\n      tag_399\n        /* \"#utility.yul\":5923:5928   */\n      dup2\n        /* \"#utility.yul\":5896:5929   */\n      tag_300\n      jump\t// in\n    tag_399:\n        /* \"#utility.yul\":5796:5935   */\n      swap3\n      swap2\n      pop\n      pop\n      jump\t// out\n        /* \"#utility.yul\":5941:8156   */\n    tag_21:\n        /* \"#utility.yul\":6112:6118   */\n      0x00\n        /* \"#utility.yul\":6120:6126   */\n      dup1\n        /* \"#utility.yul\":6128:6134   */\n      0x00\n        /* \"#utility.yul\":6136:6142   */\n      dup1\n        /* \"#utility.yul\":6144:6150   */\n      0x00\n        /* \"#utility.yul\":6152:6158   */\n      dup1\n        /* \"#utility.yul\":6160:6166   */\n      0x00\n        /* \"#utility.yul\":6168:6174   */\n      dup1\n        /* \"#utility.yul\":6176:6182   */\n      0x00\n        /* \"#utility.yul\":6225:6228   */\n      0x0120\n        /* \"#utility.yul\":6213:6222   */\n      dup11\n        /* \"#utility.yul\":6204:6211   */\n      dup13\n        /* \"#utility.yul\":6200:6223   */\n      sub\n        /* \"#utility.yul\":6196:6229   */\n      slt\n        /* \"#utility.yul\":6193:6313   */\n      iszero\n      tag_401\n      jumpi\n        /* \"#utility.yul\":6232:6311   */\n      tag_402\n      tag_283\n      jump\t// in\n    tag_402:\n        /* \"#utility.yul\":6193:6313   */\n    tag_401:\n        /* \"#utility.yul\":6380:6381   */\n      0x00\n        /* \"#utility.yul\":6369:6378   */\n      dup11\n        /* \"#utility.yul\":6365:6382   */\n      add\n        /* \"#utility.yul\":6352:6383   */\n      calldataload\n        /* \"#utility.yul\":6410:6428   */\n      0xffffffffffffffff\n        /* \"#utility.yul\":6402:6408   */\n      dup2\n        /* \"#utility.yul\":6399:6429   */\n      gt\n        /* \"#utility.yul\":6396:6513   */\n      iszero\n      tag_403\n      jumpi\n        /* \"#utility.yul\":6432:6511   */\n      tag_404\n      tag_284\n      jump\t// in\n    tag_404:\n        /* \"#utility.yul\":6396:6513   */\n    tag_403:\n        /* \"#utility.yul\":6537:6600   */\n      tag_405\n        /* \"#utility.yul\":6592:6599   */\n      dup13\n        /* \"#utility.yul\":6583:6589   */\n      dup3\n        /* \"#utility.yul\":6572:6581   */\n      dup14\n        /* \"#utility.yul\":6568:6590   */\n      add\n        /* \"#utility.yul\":6537:6600   */\n      tag_293\n      jump\t// in\n    tag_405:\n        /* \"#utility.yul\":6527:6600   */\n      swap10\n      pop\n        /* \"#utility.yul\":6323:6610   */\n      pop\n        /* \"#utility.yul\":6649:6651   */\n      0x20\n        /* \"#utility.yul\":6675:6728   */\n      tag_406\n        /* \"#utility.yul\":6720:6727   */\n      dup13\n        /* \"#utility.yul\":6711:6717   */\n      dup3\n        /* \"#utility.yul\":6700:6709   */\n      dup14\n        /* \"#utility.yul\":6696:6718   */\n      add\n        /* \"#utility.yul\":6675:6728   */\n      tag_301\n      jump\t// in\n    tag_406:\n        /* \"#utility.yul\":6665:6728   */\n      swap9\n      pop\n        /* \"#utility.yul\":6620:6738   */\n      pop\n        /* \"#utility.yul\":6777:6779   */\n      0x40\n        /* \"#utility.yul\":6803:6856   */\n      tag_407\n        /* \"#utility.yul\":6848:6855   */\n      dup13\n        /* \"#utility.yul\":6839:6845   */\n      dup3\n        /* \"#utility.yul\":6828:6837   */\n      dup14\n        /* \"#utility.yul\":6824:6846   */\n      add\n        /* \"#utility.yul\":6803:6856   */\n      tag_301\n      jump\t// in\n    tag_407:\n        /* \"#utility.yul\":6793:6856   */\n      swap8\n      pop\n        /* \"#utility.yul\":6748:6866   */\n      pop\n        /* \"#utility.yul\":6933:6935   */\n      0x60\n        /* \"#utility.yul\":6922:6931   */\n      dup11\n        /* \"#utility.yul\":6918:6936   */\n      add\n        /* \"#utility.yul\":6905:6937   */\n      calldataload\n        /* \"#utility.yul\":6964:6982   */\n      0xffffffffffffffff\n        /* \"#utility.yul\":6956:6962   */\n      dup2\n        /* \"#utility.yul\":6953:6983   */\n      gt\n        /* \"#utility.yul\":6950:7067   */\n      iszero\n      tag_408\n      jumpi\n        /* \"#utility.yul\":6986:7065   */\n      tag_409\n      tag_284\n      jump\t// in\n    tag_409:\n        /* \"#utility.yul\":6950:7067   */\n    tag_408:\n        /* \"#utility.yul\":7091:7154   */\n      tag_410\n        /* \"#utility.yul\":7146:7153   */\n      dup13\n        /* \"#utility.yul\":7137:7143   */\n      dup3\n        /* \"#utility.yul\":7126:7135   */\n      dup14\n        /* \"#utility.yul\":7122:7144   */\n      add\n        /* \"#utility.yul\":7091:7154   */\n      tag_293\n      jump\t// in\n    tag_410:\n        /* \"#utility.yul\":7081:7154   */\n      swap7\n      pop\n        /* \"#utility.yul\":6876:7164   */\n      pop\n        /* \"#utility.yul\":7231:7234   */\n      0x80\n        /* \"#utility.yul\":7220:7229   */\n      dup11\n        /* \"#utility.yul\":7216:7235   */\n      add\n        /* \"#utility.yul\":7203:7236   */\n      calldataload\n        /* \"#utility.yul\":7263:7281   */\n      0xffffffffffffffff\n        /* \"#utility.yul\":7255:7261   */\n      dup2\n        /* \"#utility.yul\":7252:7282   */\n      gt\n        /* \"#utility.yul\":7249:7366   */\n      iszero\n      tag_411\n      jumpi\n        /* \"#utility.yul\":7285:7364   */\n      tag_412\n      tag_284\n      jump\t// in\n    tag_412:\n        /* \"#utility.yul\":7249:7366   */\n    tag_411:\n        /* \"#utility.yul\":7390:7453   */\n      tag_413\n        /* \"#utility.yul\":7445:7452   */\n      dup13\n        /* \"#utility.yul\":7436:7442   */\n      dup3\n        /* \"#utility.yul\":7425:7434   */\n      dup14\n        /* \"#utility.yul\":7421:7443   */\n      add\n        /* \"#utility.yul\":7390:7453   */\n      tag_293\n      jump\t// in\n    tag_413:\n        /* \"#utility.yul\":7380:7453   */\n      swap6\n      pop\n        /* \"#utility.yul\":7174:7463   */\n      pop\n        /* \"#utility.yul\":7530:7533   */\n      0xa0\n        /* \"#utility.yul\":7519:7528   */\n      dup11\n        /* \"#utility.yul\":7515:7534   */\n      add\n        /* \"#utility.yul\":7502:7535   */\n      calldataload\n        /* \"#utility.yul\":7562:7580   */\n      0xffffffffffffffff\n        /* \"#utility.yul\":7554:7560   */\n      dup2\n        /* \"#utility.yul\":7551:7581   */\n      gt\n        /* \"#utility.yul\":7548:7665   */\n      iszero\n      tag_414\n      jumpi\n        /* \"#utility.yul\":7584:7663   */\n      tag_415\n      tag_284\n      jump\t// in\n    tag_415:\n        /* \"#utility.yul\":7548:7665   */\n    tag_414:\n        /* \"#utility.yul\":7689:7752   */\n      tag_416\n        /* \"#utility.yul\":7744:7751   */\n      dup13\n        /* \"#utility.yul\":7735:7741   */\n      dup3\n        /* \"#utility.yul\":7724:7733   */\n      dup14\n        /* \"#utility.yul\":7720:7742   */\n      add\n        /* \"#utility.yul\":7689:7752   */\n      tag_293\n      jump\t// in\n    tag_416:\n        /* \"#utility.yul\":7679:7752   */\n      swap5\n      pop\n        /* \"#utility.yul\":7473:7762   */\n      pop\n        /* \"#utility.yul\":7801:7804   */\n      0xc0\n        /* \"#utility.yul\":7828:7881   */\n      tag_417\n        /* \"#utility.yul\":7873:7880   */\n      dup13\n        /* \"#utility.yul\":7864:7870   */\n      dup3\n        /* \"#utility.yul\":7853:7862   */\n      dup14\n        /* \"#utility.yul\":7849:7871   */\n      add\n        /* \"#utility.yul\":7828:7881   */\n      tag_301\n      jump\t// in\n    tag_417:\n        /* \"#utility.yul\":7818:7881   */\n      swap4\n      pop\n        /* \"#utility.yul\":7772:7891   */\n      pop\n        /* \"#utility.yul\":7930:7933   */\n      0xe0\n        /* \"#utility.yul\":7957:8010   */\n      tag_418\n        /* \"#utility.yul\":8002:8009   */\n      dup13\n        /* \"#utility.yul\":7993:7999   */\n      dup3\n        /* \"#utility.yul\":7982:7991   */\n      dup14\n        /* \"#utility.yul\":7978:8000   */\n      add\n        /* \"#utility.yul\":7957:8010   */\n      tag_301\n      jump\t// in\n    tag_418:\n        /* \"#utility.yul\":7947:8010   */\n      swap3\n      pop\n        /* \"#utility.yul\":7901:8020   */\n      pop\n        /* \"#utility.yul\":8059:8062   */\n      0x0100\n        /* \"#utility.yul\":8086:8139   */\n      tag_419\n        /* \"#utility.yul\":8131:8138   */\n      dup13\n        /* \"#utility.yul\":8122:8128   */\n      dup3\n        /* \"#utility.yul\":8111:8120   */\n      dup14\n        /* \"#utility.yul\":8107:8129   */\n      add\n        /* \"#utility.yul\":8086:8139   */\n      tag_301\n      jump\t// in\n    tag_419:\n        /* \"#utility.yul\":8076:8139   */\n      swap2\n      pop\n        /* \"#utility.yul\":8030:8149   */\n      pop\n        /* \"#utility.yul\":5941:8156   */\n      swap3\n      swap6\n      swap9\n      pop\n      swap3\n      swap6\n      swap9\n      pop\n      swap3\n      swap6\n      swap9\n      jump\t// out\n        /* \"#utility.yul\":8162:8303   */\n    tag_302:\n        /* \"#utility.yul\":8256:8262   */\n      0x00\n        /* \"#utility.yul\":8290:8295   */\n      dup2\n        /* \"#utility.yul\":8284:8296   */\n      mload\n        /* \"#utility.yul\":8274:8296   */\n      swap1\n      pop\n        /* \"#utility.yul\":8162:8303   */\n      swap2\n      swap1\n      pop\n      jump\t// out\n        /* \"#utility.yul\":8309:8520   */\n    tag_303:\n        /* \"#utility.yul\":8435:8446   */\n      0x00\n        /* \"#utility.yul\":8469:8475   */\n      dup3\n        /* \"#utility.yul\":8464:8467   */\n      dup3\n        /* \"#utility.yul\":8457:8476   */\n      mstore\n        /* \"#utility.yul\":8509:8513   */\n      0x20\n        /* \"#utility.yul\":8504:8507   */\n      dup3\n        /* \"#utility.yul\":8500:8514   */\n      add\n        /* \"#utility.yul\":8485:8514   */\n      swap1\n      pop\n        /* \"#utility.yul\":8309:8520   */\n      swap3\n      swap2\n      pop\n      pop\n      jump\t// out\n        /* \"#utility.yul\":8526:8685   */\n    tag_304:\n        /* \"#utility.yul\":8620:8624   */\n      0x00\n        /* \"#utility.yul\":8643:8646   */\n      dup2\n        /* \"#utility.yul\":8635:8646   */\n      swap1\n      pop\n        /* \"#utility.yul\":8673:8677   */\n      0x20\n        /* \"#utility.yul\":8668:8671   */\n      dup3\n        /* \"#utility.yul\":8664:8678   */\n      add\n        /* \"#utility.yul\":8656:8678   */\n      swap1\n      pop\n        /* \"#utility.yul\":8526:8685   */\n      swap2\n      swap1\n      pop\n      jump\t// out\n        /* \"#utility.yul\":8691:8850   */\n    tag_305:\n        /* \"#utility.yul\":8765:8776   */\n      0x00\n        /* \"#utility.yul\":8799:8805   */\n      dup3\n        /* \"#utility.yul\":8794:8797   */\n      dup3\n        /* \"#utility.yul\":8787:8806   */\n      mstore\n        /* \"#utility.yul\":8839:8843   */\n      0x20\n        /* \"#utility.yul\":8834:8837   */\n      dup3\n        /* \"#utility.yul\":8830:8844   */\n      add\n        /* \"#utility.yul\":8815:8844   */\n      swap1\n      pop\n        /* \"#utility.yul\":8691:8850   */\n      swap3\n      swap2\n      pop\n      pop\n      jump\t// out\n        /* \"#utility.yul\":8856:9213   */\n    tag_306:\n        /* \"#utility.yul\":8934:8937   */\n      0x00\n        /* \"#utility.yul\":8962:9001   */\n      tag_425\n        /* \"#utility.yul\":8995:9000   */\n      dup3\n        /* \"#utility.yul\":8962:9001   */\n      tag_294\n      jump\t// in\n    tag_425:\n        /* \"#utility.yul\":9017:9078   */\n      tag_426\n        /* \"#utility.yul\":9071:9077   */\n      dup2\n        /* \"#utility.yul\":9066:9069   */\n      dup6\n        /* \"#utility.yul\":9017:9078   */\n      tag_305\n      jump\t// in\n    tag_426:\n        /* \"#utility.yul\":9010:9078   */\n      swap4\n      pop\n        /* \"#utility.yul\":9087:9152   */\n      tag_427\n        /* \"#utility.yul\":9145:9151   */\n      dup2\n        /* \"#utility.yul\":9140:9143   */\n      dup6\n        /* \"#utility.yul\":9133:9137   */\n      0x20\n        /* \"#utility.yul\":9126:9131   */\n      dup7\n        /* \"#utility.yul\":9122:9138   */\n      add\n        /* \"#utility.yul\":9087:9152   */\n      tag_296\n      jump\t// in\n    tag_427:\n        /* \"#utility.yul\":9177:9206   */\n      tag_428\n        /* \"#utility.yul\":9199:9205   */\n      dup2\n        /* \"#utility.yul\":9177:9206   */\n      tag_287\n      jump\t// in\n    tag_428:\n        /* \"#utility.yul\":9172:9175   */\n      dup5\n        /* \"#utility.yul\":9168:9207   */\n      add\n        /* \"#utility.yul\":9161:9207   */\n      swap2\n      pop\n        /* \"#utility.yul\":8938:9213   */\n      pop\n        /* \"#utility.yul\":8856:9213   */\n      swap3\n      swap2\n      pop\n      pop\n      jump\t// out\n        /* \"#utility.yul\":9219:9327   */\n    tag_307:\n        /* \"#utility.yul\":9296:9320   */\n      tag_430\n        /* \"#utility.yul\":9314:9319   */\n      dup2\n        /* \"#utility.yul\":9296:9320   */\n      tag_298\n      jump\t// in\n    tag_430:\n        /* \"#utility.yul\":9291:9294   */\n      dup3\n        /* \"#utility.yul\":9284:9321   */\n      mstore\n        /* \"#utility.yul\":9219:9327   */\n      pop\n      pop\n      jump\t// out\n        /* \"#utility.yul\":9421:11514   */\n    tag_308:\n        /* \"#utility.yul\":9534:9537   */\n      0x00\n        /* \"#utility.yul\":9570:9576   */\n      0x0120\n        /* \"#utility.yul\":9565:9568   */\n      dup4\n        /* \"#utility.yul\":9561:9577   */\n      add\n        /* \"#utility.yul\":9670:9674   */\n      0x00\n        /* \"#utility.yul\":9663:9668   */\n      dup4\n        /* \"#utility.yul\":9659:9675   */\n      add\n        /* \"#utility.yul\":9653:9676   */\n      mload\n        /* \"#utility.yul\":9723:9726   */\n      dup5\n        /* \"#utility.yul\":9717:9721   */\n      dup3\n        /* \"#utility.yul\":9713:9727   */\n      sub\n        /* \"#utility.yul\":9706:9710   */\n      0x00\n        /* \"#utility.yul\":9701:9704   */\n      dup7\n        /* \"#utility.yul\":9697:9711   */\n      add\n        /* \"#utility.yul\":9690:9728   */\n      mstore\n        /* \"#utility.yul\":9749:9822   */\n      tag_432\n        /* \"#utility.yul\":9817:9821   */\n      dup3\n        /* \"#utility.yul\":9803:9815   */\n      dup3\n        /* \"#utility.yul\":9749:9822   */\n      tag_306\n      jump\t// in\n    tag_432:\n        /* \"#utility.yul\":9741:9822   */\n      swap2\n      pop\n        /* \"#utility.yul\":9587:9833   */\n      pop\n        /* \"#utility.yul\":9921:9925   */\n      0x20\n        /* \"#utility.yul\":9914:9919   */\n      dup4\n        /* \"#utility.yul\":9910:9926   */\n      add\n        /* \"#utility.yul\":9904:9927   */\n      mload\n        /* \"#utility.yul\":9940:10003   */\n      tag_433\n        /* \"#utility.yul\":9997:10001   */\n      0x20\n        /* \"#utility.yul\":9992:9995   */\n      dup7\n        /* \"#utility.yul\":9988:10002   */\n      add\n        /* \"#utility.yul\":9974:9986   */\n      dup3\n        /* \"#utility.yul\":9940:10003   */\n      tag_307\n      jump\t// in\n    tag_433:\n        /* \"#utility.yul\":9843:10013   */\n      pop\n        /* \"#utility.yul\":10103:10107   */\n      0x40\n        /* \"#utility.yul\":10096:10101   */\n      dup4\n        /* \"#utility.yul\":10092:10108   */\n      add\n        /* \"#utility.yul\":10086:10109   */\n      mload\n        /* \"#utility.yul\":10122:10185   */\n      tag_434\n        /* \"#utility.yul\":10179:10183   */\n      0x40\n        /* \"#utility.yul\":10174:10177   */\n      dup7\n        /* \"#utility.yul\":10170:10184   */\n      add\n        /* \"#utility.yul\":10156:10168   */\n      dup3\n        /* \"#utility.yul\":10122:10185   */\n      tag_307\n      jump\t// in\n    tag_434:\n        /* \"#utility.yul\":10023:10195   */\n      pop\n        /* \"#utility.yul\":10282:10286   */\n      0x60\n        /* \"#utility.yul\":10275:10280   */\n      dup4\n        /* \"#utility.yul\":10271:10287   */\n      add\n        /* \"#utility.yul\":10265:10288   */\n      mload\n        /* \"#utility.yul\":10335:10338   */\n      dup5\n        /* \"#utility.yul\":10329:10333   */\n      dup3\n        /* \"#utility.yul\":10325:10339   */\n      sub\n        /* \"#utility.yul\":10318:10322   */\n      0x60\n        /* \"#utility.yul\":10313:10316   */\n      dup7\n        /* \"#utility.yul\":10309:10323   */\n      add\n        /* \"#utility.yul\":10302:10340   */\n      mstore\n        /* \"#utility.yul\":10361:10434   */\n      tag_435\n        /* \"#utility.yul\":10429:10433   */\n      dup3\n        /* \"#utility.yul\":10415:10427   */\n      dup3\n        /* \"#utility.yul\":10361:10434   */\n      tag_306\n      jump\t// in\n    tag_435:\n        /* \"#utility.yul\":10353:10434   */\n      swap2\n      pop\n        /* \"#utility.yul\":10205:10445   */\n      pop\n        /* \"#utility.yul\":10536:10540   */\n      0x80\n        /* \"#utility.yul\":10529:10534   */\n      dup4\n        /* \"#utility.yul\":10525:10541   */\n      add\n        /* \"#utility.yul\":10519:10542   */\n      mload\n        /* \"#utility.yul\":10589:10592   */\n      dup5\n        /* \"#utility.yul\":10583:10587   */\n      dup3\n        /* \"#utility.yul\":10579:10593   */\n      sub\n        /* \"#utility.yul\":10572:10576   */\n      0x80\n        /* \"#utility.yul\":10567:10570   */\n      dup7\n        /* \"#utility.yul\":10563:10577   */\n      add\n        /* \"#utility.yul\":10556:10594   */\n      mstore\n        /* \"#utility.yul\":10615:10688   */\n      tag_436\n        /* \"#utility.yul\":10683:10687   */\n      dup3\n        /* \"#utility.yul\":10669:10681   */\n      dup3\n        /* \"#utility.yul\":10615:10688   */\n      tag_306\n      jump\t// in\n    tag_436:\n        /* \"#utility.yul\":10607:10688   */\n      swap2\n      pop\n        /* \"#utility.yul\":10455:10699   */\n      pop\n        /* \"#utility.yul\":10783:10787   */\n      0xa0\n        /* \"#utility.yul\":10776:10781   */\n      dup4\n        /* \"#utility.yul\":10772:10788   */\n      add\n        /* \"#utility.yul\":10766:10789   */\n      mload\n        /* \"#utility.yul\":10836:10839   */\n      dup5\n        /* \"#utility.yul\":10830:10834   */\n      dup3\n        /* \"#utility.yul\":10826:10840   */\n      sub\n        /* \"#utility.yul\":10819:10823   */\n      0xa0\n        /* \"#utility.yul\":10814:10817   */\n      dup7\n        /* \"#utility.yul\":10810:10824   */\n      add\n        /* \"#utility.yul\":10803:10841   */\n      mstore\n        /* \"#utility.yul\":10862:10935   */\n      tag_437\n        /* \"#utility.yul\":10930:10934   */\n      dup3\n        /* \"#utility.yul\":10916:10928   */\n      dup3\n        /* \"#utility.yul\":10862:10935   */\n      tag_306\n      jump\t// in\n    tag_437:\n        /* \"#utility.yul\":10854:10935   */\n      swap2\n      pop\n        /* \"#utility.yul\":10709:10946   */\n      pop\n        /* \"#utility.yul\":11032:11036   */\n      0xc0\n        /* \"#utility.yul\":11025:11030   */\n      dup4\n        /* \"#utility.yul\":11021:11037   */\n      add\n        /* \"#utility.yul\":11015:11038   */\n      mload\n        /* \"#utility.yul\":11051:11114   */\n      tag_438\n        /* \"#utility.yul\":11108:11112   */\n      0xc0\n        /* \"#utility.yul\":11103:11106   */\n      dup7\n        /* \"#utility.yul\":11099:11113   */\n      add\n        /* \"#utility.yul\":11085:11097   */\n      dup3\n        /* \"#utility.yul\":11051:11114   */\n      tag_307\n      jump\t// in\n    tag_438:\n        /* \"#utility.yul\":10956:11124   */\n      pop\n        /* \"#utility.yul\":11212:11216   */\n      0xe0\n        /* \"#utility.yul\":11205:11210   */\n      dup4\n        /* \"#utility.yul\":11201:11217   */\n      add\n        /* \"#utility.yul\":11195:11218   */\n      mload\n        /* \"#utility.yul\":11231:11294   */\n      tag_439\n        /* \"#utility.yul\":11288:11292   */\n      0xe0\n        /* \"#utility.yul\":11283:11286   */\n      dup7\n        /* \"#utility.yul\":11279:11293   */\n      add\n        /* \"#utility.yul\":11265:11277   */\n      dup3\n        /* \"#utility.yul\":11231:11294   */\n      tag_307\n      jump\t// in\n    tag_439:\n        /* \"#utility.yul\":11134:11304   */\n      pop\n        /* \"#utility.yul\":11391:11397   */\n      0x0100\n        /* \"#utility.yul\":11384:11389   */\n      dup4\n        /* \"#utility.yul\":11380:11398   */\n      add\n        /* \"#utility.yul\":11374:11399   */\n      mload\n        /* \"#utility.yul\":11412:11477   */\n      tag_440\n        /* \"#utility.yul\":11469:11475   */\n      0x0100\n        /* \"#utility.yul\":11464:11467   */\n      dup7\n        /* \"#utility.yul\":11460:11476   */\n      add\n        /* \"#utility.yul\":11446:11458   */\n      dup3\n        /* \"#utility.yul\":11412:11477   */\n      tag_307\n      jump\t// in\n    tag_440:\n        /* \"#utility.yul\":11314:11487   */\n      pop\n        /* \"#utility.yul\":11504:11508   */\n      dup1\n        /* \"#utility.yul\":11497:11508   */\n      swap2\n      pop\n        /* \"#utility.yul\":9539:11514   */\n      pop\n        /* \"#utility.yul\":9421:11514   */\n      swap3\n      swap2\n      pop\n      pop\n      jump\t// out\n        /* \"#utility.yul\":11520:11784   */\n    tag_309:\n        /* \"#utility.yul\":11643:11653   */\n      0x00\n        /* \"#utility.yul\":11678:11778   */\n      tag_442\n        /* \"#utility.yul\":11774:11777   */\n      dup4\n        /* \"#utility.yul\":11766:11772   */\n      dup4\n        /* \"#utility.yul\":11678:11778   */\n      tag_308\n      jump\t// in\n    tag_442:\n        /* \"#utility.yul\":11664:11778   */\n      swap1\n      pop\n        /* \"#utility.yul\":11520:11784   */\n      swap3\n      swap2\n      pop\n      pop\n      jump\t// out\n        /* \"#utility.yul\":11790:11930   */\n    tag_310:\n        /* \"#utility.yul\":11887:11891   */\n      0x00\n        /* \"#utility.yul\":11919:11923   */\n      0x20\n        /* \"#utility.yul\":11914:11917   */\n      dup3\n        /* \"#utility.yul\":11910:11924   */\n      add\n        /* \"#utility.yul\":11902:11924   */\n      swap1\n      pop\n        /* \"#utility.yul\":11790:11930   */\n      swap2\n      swap1\n      pop\n      jump\t// out\n        /* \"#utility.yul\":12028:13155   */\n    tag_311:\n        /* \"#utility.yul\":12201:12204   */\n      0x00\n        /* \"#utility.yul\":12230:12311   */\n      tag_445\n        /* \"#utility.yul\":12305:12310   */\n      dup3\n        /* \"#utility.yul\":12230:12311   */\n      tag_302\n      jump\t// in\n    tag_445:\n        /* \"#utility.yul\":12327:12440   */\n      tag_446\n        /* \"#utility.yul\":12433:12439   */\n      dup2\n        /* \"#utility.yul\":12428:12431   */\n      dup6\n        /* \"#utility.yul\":12327:12440   */\n      tag_303\n      jump\t// in\n    tag_446:\n        /* \"#utility.yul\":12320:12440   */\n      swap4\n      pop\n        /* \"#utility.yul\":12466:12469   */\n      dup4\n        /* \"#utility.yul\":12511:12515   */\n      0x20\n        /* \"#utility.yul\":12503:12509   */\n      dup3\n        /* \"#utility.yul\":12499:12516   */\n      mul\n        /* \"#utility.yul\":12494:12497   */\n      dup6\n        /* \"#utility.yul\":12490:12517   */\n      add\n        /* \"#utility.yul\":12541:12624   */\n      tag_447\n        /* \"#utility.yul\":12618:12623   */\n      dup6\n        /* \"#utility.yul\":12541:12624   */\n      tag_304\n      jump\t// in\n    tag_447:\n        /* \"#utility.yul\":12647:12654   */\n      dup1\n        /* \"#utility.yul\":12678:12679   */\n      0x00\n        /* \"#utility.yul\":12663:13110   */\n    tag_448:\n        /* \"#utility.yul\":12688:12694   */\n      dup6\n        /* \"#utility.yul\":12685:12686   */\n      dup2\n        /* \"#utility.yul\":12682:12695   */\n      lt\n        /* \"#utility.yul\":12663:13110   */\n      iszero\n      tag_450\n      jumpi\n        /* \"#utility.yul\":12759:12768   */\n      dup5\n        /* \"#utility.yul\":12753:12757   */\n      dup5\n        /* \"#utility.yul\":12749:12769   */\n      sub\n        /* \"#utility.yul\":12744:12747   */\n      dup10\n        /* \"#utility.yul\":12737:12770   */\n      mstore\n        /* \"#utility.yul\":12810:12816   */\n      dup2\n        /* \"#utility.yul\":12804:12817   */\n      mload\n        /* \"#utility.yul\":12838:12956   */\n      tag_451\n        /* \"#utility.yul\":12951:12955   */\n      dup6\n        /* \"#utility.yul\":12936:12949   */\n      dup3\n        /* \"#utility.yul\":12838:12956   */\n      tag_309\n      jump\t// in\n    tag_451:\n        /* \"#utility.yul\":12830:12956   */\n      swap5\n      pop\n        /* \"#utility.yul\":12979:13066   */\n      tag_452\n        /* \"#utility.yul\":13059:13065   */\n      dup4\n        /* \"#utility.yul\":12979:13066   */\n      tag_310\n      jump\t// in\n    tag_452:\n        /* \"#utility.yul\":12969:13066   */\n      swap3\n      pop\n        /* \"#utility.yul\":13095:13099   */\n      0x20\n        /* \"#utility.yul\":13090:13093   */\n      dup11\n        /* \"#utility.yul\":13086:13100   */\n      add\n        /* \"#utility.yul\":13079:13100   */\n      swap10\n      pop\n        /* \"#utility.yul\":12723:13110   */\n      pop\n        /* \"#utility.yul\":12710:12711   */\n      0x01\n        /* \"#utility.yul\":12707:12708   */\n      dup2\n        /* \"#utility.yul\":12703:12712   */\n      add\n        /* \"#utility.yul\":12698:12712   */\n      swap1\n      pop\n        /* \"#utility.yul\":12663:13110   */\n      jump(tag_448)\n    tag_450:\n        /* \"#utility.yul\":12667:12681   */\n      pop\n        /* \"#utility.yul\":13126:13130   */\n      dup3\n        /* \"#utility.yul\":13119:13130   */\n      swap8\n      pop\n        /* \"#utility.yul\":13146:13149   */\n      dup8\n        /* \"#utility.yul\":13139:13149   */\n      swap6\n      pop\n        /* \"#utility.yul\":12206:13155   */\n      pop\n      pop\n      pop\n      pop\n      pop\n        /* \"#utility.yul\":12028:13155   */\n      swap3\n      swap2\n      pop\n      pop\n      jump\t// out\n        /* \"#utility.yul\":13161:13642   */\n    tag_26:\n        /* \"#utility.yul\":13358:13362   */\n      0x00\n        /* \"#utility.yul\":13396:13398   */\n      0x20\n        /* \"#utility.yul\":13385:13394   */\n      dup3\n        /* \"#utility.yul\":13381:13399   */\n      add\n        /* \"#utility.yul\":13373:13399   */\n      swap1\n      pop\n        /* \"#utility.yul\":13445:13454   */\n      dup2\n        /* \"#utility.yul\":13439:13443   */\n      dup2\n        /* \"#utility.yul\":13435:13455   */\n      sub\n        /* \"#utility.yul\":13431:13432   */\n      0x00\n        /* \"#utility.yul\":13420:13429   */\n      dup4\n        /* \"#utility.yul\":13416:13433   */\n      add\n        /* \"#utility.yul\":13409:13456   */\n      mstore\n        /* \"#utility.yul\":13473:13635   */\n      tag_454\n        /* \"#utility.yul\":13630:13634   */\n      dup2\n        /* \"#utility.yul\":13621:13627   */\n      dup5\n        /* \"#utility.yul\":13473:13635   */\n      tag_311\n      jump\t// in\n    tag_454:\n        /* \"#utility.yul\":13465:13635   */\n      swap1\n      pop\n        /* \"#utility.yul\":13161:13642   */\n      swap3\n      swap2\n      pop\n      pop\n      jump\t// out\n        /* \"#utility.yul\":13648:13977   */\n    tag_29:\n        /* \"#utility.yul\":13707:13713   */\n      0x00\n        /* \"#utility.yul\":13756:13758   */\n      0x20\n        /* \"#utility.yul\":13744:13753   */\n      dup3\n        /* \"#utility.yul\":13735:13742   */\n      dup5\n        /* \"#utility.yul\":13731:13754   */\n      sub\n        /* \"#utility.yul\":13727:13759   */\n      slt\n        /* \"#utility.yul\":13724:13843   */\n      iszero\n      tag_456\n      jumpi\n        /* \"#utility.yul\":13762:13841   */\n      tag_457\n      tag_283\n      jump\t// in\n    tag_457:\n        /* \"#utility.yul\":13724:13843   */\n    tag_456:\n        /* \"#utility.yul\":13882:13883   */\n      0x00\n        /* \"#utility.yul\":13907:13960   */\n      tag_458\n        /* \"#utility.yul\":13952:13959   */\n      dup5\n        /* \"#utility.yul\":13943:13949   */\n      dup3\n        /* \"#utility.yul\":13932:13941   */\n      dup6\n        /* \"#utility.yul\":13928:13950   */\n      add\n        /* \"#utility.yul\":13907:13960   */\n      tag_301\n      jump\t// in\n    tag_458:\n        /* \"#utility.yul\":13897:13960   */\n      swap2\n      pop\n        /* \"#utility.yul\":13853:13970   */\n      pop\n        /* \"#utility.yul\":13648:13977   */\n      swap3\n      swap2\n      pop\n      pop\n      jump\t// out\n        /* \"#utility.yul\":13983:14817   */\n    tag_34:\n        /* \"#utility.yul\":14071:14077   */\n      0x00\n        /* \"#utility.yul\":14079:14085   */\n      dup1\n        /* \"#utility.yul\":14128:14130   */\n      0x40\n        /* \"#utility.yul\":14116:14125   */\n      dup4\n        /* \"#utility.yul\":14107:14114   */\n      dup6\n        /* \"#utility.yul\":14103:14126   */\n      sub\n        /* \"#utility.yul\":14099:14131   */\n      slt\n        /* \"#utility.yul\":14096:14215   */\n      iszero\n      tag_460\n      jumpi\n        /* \"#utility.yul\":14134:14213   */\n      tag_461\n      tag_283\n      jump\t// in\n    tag_461:\n        /* \"#utility.yul\":14096:14215   */\n    tag_460:\n        /* \"#utility.yul\":14282:14283   */\n      0x00\n        /* \"#utility.yul\":14271:14280   */\n      dup4\n        /* \"#utility.yul\":14267:14284   */\n      add\n        /* \"#utility.yul\":14254:14285   */\n      calldataload\n        /* \"#utility.yul\":14312:14330   */\n      0xffffffffffffffff\n        /* \"#utility.yul\":14304:14310   */\n      dup2\n        /* \"#utility.yul\":14301:14331   */\n      gt\n        /* \"#utility.yul\":14298:14415   */\n      iszero\n      tag_462\n      jumpi\n        /* \"#utility.yul\":14334:14413   */\n      tag_463\n      tag_284\n      jump\t// in\n    tag_463:\n        /* \"#utility.yul\":14298:14415   */\n    tag_462:\n        /* \"#utility.yul\":14439:14502   */\n      tag_464\n        /* \"#utility.yul\":14494:14501   */\n      dup6\n        /* \"#utility.yul\":14485:14491   */\n      dup3\n        /* \"#utility.yul\":14474:14483   */\n      dup7\n        /* \"#utility.yul\":14470:14492   */\n      add\n        /* \"#utility.yul\":14439:14502   */\n      tag_293\n      jump\t// in\n    tag_464:\n        /* \"#utility.yul\":14429:14502   */\n      swap3\n      pop\n        /* \"#utility.yul\":14225:14512   */\n      pop\n        /* \"#utility.yul\":14579:14581   */\n      0x20\n        /* \"#utility.yul\":14568:14577   */\n      dup4\n        /* \"#utility.yul\":14564:14582   */\n      add\n        /* \"#utility.yul\":14551:14583   */\n      calldataload\n        /* \"#utility.yul\":14610:14628   */\n      0xffffffffffffffff\n        /* \"#utility.yul\":14602:14608   */\n      dup2\n        /* \"#utility.yul\":14599:14629   */\n      gt\n        /* \"#utility.yul\":14596:14713   */\n      iszero\n      tag_465\n      jumpi\n        /* \"#utility.yul\":14632:14711   */\n      tag_466\n      tag_284\n      jump\t// in\n    tag_466:\n        /* \"#utility.yul\":14596:14713   */\n    tag_465:\n        /* \"#utility.yul\":14737:14800   */\n      tag_467\n        /* \"#utility.yul\":14792:14799   */\n      dup6\n        /* \"#utility.yul\":14783:14789   */\n      dup3\n        /* \"#utility.yul\":14772:14781   */\n      dup7\n        /* \"#utility.yul\":14768:14790   */\n      add\n        /* \"#utility.yul\":14737:14800   */\n      tag_293\n      jump\t// in\n    tag_467:\n        /* \"#utility.yul\":14727:14800   */\n      swap2\n      pop\n        /* \"#utility.yul\":14522:14810   */\n      pop\n        /* \"#utility.yul\":13983:14817   */\n      swap3\n      pop\n      swap3\n      swap1\n      pop\n      jump\t// out\n        /* \"#utility.yul\":14823:15136   */\n    tag_44:\n        /* \"#utility.yul\":14936:14940   */\n      0x00\n        /* \"#utility.yul\":14974:14976   */\n      0x20\n        /* \"#utility.yul\":14963:14972   */\n      dup3\n        /* \"#utility.yul\":14959:14977   */\n      add\n        /* \"#utility.yul\":14951:14977   */\n      swap1\n      pop\n        /* \"#utility.yul\":15023:15032   */\n      dup2\n        /* \"#utility.yul\":15017:15021   */\n      dup2\n        /* \"#utility.yul\":15013:15033   */\n      sub\n        /* \"#utility.yul\":15009:15010   */\n      0x00\n        /* \"#utility.yul\":14998:15007   */\n      dup4\n        /* \"#utility.yul\":14994:15011   */\n      add\n        /* \"#utility.yul\":14987:15034   */\n      mstore\n        /* \"#utility.yul\":15051:15129   */\n      tag_469\n        /* \"#utility.yul\":15124:15128   */\n      dup2\n        /* \"#utility.yul\":15115:15121   */\n      dup5\n        /* \"#utility.yul\":15051:15129   */\n      tag_297\n      jump\t// in\n    tag_469:\n        /* \"#utility.yul\":15043:15129   */\n      swap1\n      pop\n        /* \"#utility.yul\":14823:15136   */\n      swap3\n      swap2\n      pop\n      pop\n      jump\t// out\n        /* \"#utility.yul\":15230:17333   */\n    tag_312:\n        /* \"#utility.yul\":15353:15356   */\n      0x00\n        /* \"#utility.yul\":15389:15395   */\n      0x0120\n        /* \"#utility.yul\":15384:15387   */\n      dup4\n        /* \"#utility.yul\":15380:15396   */\n      add\n        /* \"#utility.yul\":15489:15493   */\n      0x00\n        /* \"#utility.yul\":15482:15487   */\n      dup4\n        /* \"#utility.yul\":15478:15494   */\n      add\n        /* \"#utility.yul\":15472:15495   */\n      mload\n        /* \"#utility.yul\":15542:15545   */\n      dup5\n        /* \"#utility.yul\":15536:15540   */\n      dup3\n        /* \"#utility.yul\":15532:15546   */\n      sub\n        /* \"#utility.yul\":15525:15529   */\n      0x00\n        /* \"#utility.yul\":15520:15523   */\n      dup7\n        /* \"#utility.yul\":15516:15530   */\n      add\n        /* \"#utility.yul\":15509:15547   */\n      mstore\n        /* \"#utility.yul\":15568:15641   */\n      tag_471\n        /* \"#utility.yul\":15636:15640   */\n      dup3\n        /* \"#utility.yul\":15622:15634   */\n      dup3\n        /* \"#utility.yul\":15568:15641   */\n      tag_306\n      jump\t// in\n    tag_471:\n        /* \"#utility.yul\":15560:15641   */\n      swap2\n      pop\n        /* \"#utility.yul\":15406:15652   */\n      pop\n        /* \"#utility.yul\":15740:15744   */\n      0x20\n        /* \"#utility.yul\":15733:15738   */\n      dup4\n        /* \"#utility.yul\":15729:15745   */\n      add\n        /* \"#utility.yul\":15723:15746   */\n      mload\n        /* \"#utility.yul\":15759:15822   */\n      tag_472\n        /* \"#utility.yul\":15816:15820   */\n      0x20\n        /* \"#utility.yul\":15811:15814   */\n      dup7\n        /* \"#utility.yul\":15807:15821   */\n      add\n        /* \"#utility.yul\":15793:15805   */\n      dup3\n        /* \"#utility.yul\":15759:15822   */\n      tag_307\n      jump\t// in\n    tag_472:\n        /* \"#utility.yul\":15662:15832   */\n      pop\n        /* \"#utility.yul\":15922:15926   */\n      0x40\n        /* \"#utility.yul\":15915:15920   */\n      dup4\n        /* \"#utility.yul\":15911:15927   */\n      add\n        /* \"#utility.yul\":15905:15928   */\n      mload\n        /* \"#utility.yul\":15941:16004   */\n      tag_473\n        /* \"#utility.yul\":15998:16002   */\n      0x40\n        /* \"#utility.yul\":15993:15996   */\n      dup7\n        /* \"#utility.yul\":15989:16003   */\n      add\n        /* \"#utility.yul\":15975:15987   */\n      dup3\n        /* \"#utility.yul\":15941:16004   */\n      tag_307\n      jump\t// in\n    tag_473:\n        /* \"#utility.yul\":15842:16014   */\n      pop\n        /* \"#utility.yul\":16101:16105   */\n      0x60\n        /* \"#utility.yul\":16094:16099   */\n      dup4\n        /* \"#utility.yul\":16090:16106   */\n      add\n        /* \"#utility.yul\":16084:16107   */\n      mload\n        /* \"#utility.yul\":16154:16157   */\n      dup5\n        /* \"#utility.yul\":16148:16152   */\n      dup3\n        /* \"#utility.yul\":16144:16158   */\n      sub\n        /* \"#utility.yul\":16137:16141   */\n      0x60\n        /* \"#utility.yul\":16132:16135   */\n      dup7\n        /* \"#utility.yul\":16128:16142   */\n      add\n        /* \"#utility.yul\":16121:16159   */\n      mstore\n        /* \"#utility.yul\":16180:16253   */\n      tag_474\n        /* \"#utility.yul\":16248:16252   */\n      dup3\n        /* \"#utility.yul\":16234:16246   */\n      dup3\n        /* \"#utility.yul\":16180:16253   */\n      tag_306\n      jump\t// in\n    tag_474:\n        /* \"#utility.yul\":16172:16253   */\n      swap2\n      pop\n        /* \"#utility.yul\":16024:16264   */\n      pop\n        /* \"#utility.yul\":16355:16359   */\n      0x80\n        /* \"#utility.yul\":16348:16353   */\n      dup4\n        /* \"#utility.yul\":16344:16360   */\n      add\n        /* \"#utility.yul\":16338:16361   */\n      mload\n        /* \"#utility.yul\":16408:16411   */\n      dup5\n        /* \"#utility.yul\":16402:16406   */\n      dup3\n        /* \"#utility.yul\":16398:16412   */\n      sub\n        /* \"#utility.yul\":16391:16395   */\n      0x80\n        /* \"#utility.yul\":16386:16389   */\n      dup7\n        /* \"#utility.yul\":16382:16396   */\n      add\n        /* \"#utility.yul\":16375:16413   */\n      mstore\n        /* \"#utility.yul\":16434:16507   */\n      tag_475\n        /* \"#utility.yul\":16502:16506   */\n      dup3\n        /* \"#utility.yul\":16488:16500   */\n      dup3\n        /* \"#utility.yul\":16434:16507   */\n      tag_306\n      jump\t// in\n    tag_475:\n        /* \"#utility.yul\":16426:16507   */\n      swap2\n      pop\n        /* \"#utility.yul\":16274:16518   */\n      pop\n        /* \"#utility.yul\":16602:16606   */\n      0xa0\n        /* \"#utility.yul\":16595:16600   */\n      dup4\n        /* \"#utility.yul\":16591:16607   */\n      add\n        /* \"#utility.yul\":16585:16608   */\n      mload\n        /* \"#utility.yul\":16655:16658   */\n      dup5\n        /* \"#utility.yul\":16649:16653   */\n      dup3\n        /* \"#utility.yul\":16645:16659   */\n      sub\n        /* \"#utility.yul\":16638:16642   */\n      0xa0\n        /* \"#utility.yul\":16633:16636   */\n      dup7\n        /* \"#utility.yul\":16629:16643   */\n      add\n        /* \"#utility.yul\":16622:16660   */\n      mstore\n        /* \"#utility.yul\":16681:16754   */\n      tag_476\n        /* \"#utility.yul\":16749:16753   */\n      dup3\n        /* \"#utility.yul\":16735:16747   */\n      dup3\n        /* \"#utility.yul\":16681:16754   */\n      tag_306\n      jump\t// in\n    tag_476:\n        /* \"#utility.yul\":16673:16754   */\n      swap2\n      pop\n        /* \"#utility.yul\":16528:16765   */\n      pop\n        /* \"#utility.yul\":16851:16855   */\n      0xc0\n        /* \"#utility.yul\":16844:16849   */\n      dup4\n        /* \"#utility.yul\":16840:16856   */\n      add\n        /* \"#utility.yul\":16834:16857   */\n      mload\n        /* \"#utility.yul\":16870:16933   */\n      tag_477\n        /* \"#utility.yul\":16927:16931   */\n      0xc0\n        /* \"#utility.yul\":16922:16925   */\n      dup7\n        /* \"#utility.yul\":16918:16932   */\n      add\n        /* \"#utility.yul\":16904:16916   */\n      dup3\n        /* \"#utility.yul\":16870:16933   */\n      tag_307\n      jump\t// in\n    tag_477:\n        /* \"#utility.yul\":16775:16943   */\n      pop\n        /* \"#utility.yul\":17031:17035   */\n      0xe0\n        /* \"#utility.yul\":17024:17029   */\n      dup4\n        /* \"#utility.yul\":17020:17036   */\n      add\n        /* \"#utility.yul\":17014:17037   */\n      mload\n        /* \"#utility.yul\":17050:17113   */\n      tag_478\n        /* \"#utility.yul\":17107:17111   */\n      0xe0\n        /* \"#utility.yul\":17102:17105   */\n      dup7\n        /* \"#utility.yul\":17098:17112   */\n      add\n        /* \"#utility.yul\":17084:17096   */\n      dup3\n        /* \"#utility.yul\":17050:17113   */\n      tag_307\n      jump\t// in\n    tag_478:\n        /* \"#utility.yul\":16953:17123   */\n      pop\n        /* \"#utility.yul\":17210:17216   */\n      0x0100\n        /* \"#utility.yul\":17203:17208   */\n      dup4\n        /* \"#utility.yul\":17199:17217   */\n      add\n        /* \"#utility.yul\":17193:17218   */\n      mload\n        /* \"#utility.yul\":17231:17296   */\n      tag_479\n        /* \"#utility.yul\":17288:17294   */\n      0x0100\n        /* \"#utility.yul\":17283:17286   */\n      dup7\n        /* \"#utility.yul\":17279:17295   */\n      add\n        /* \"#utility.yul\":17265:17277   */\n      dup3\n        /* \"#utility.yul\":17231:17296   */\n      tag_307\n      jump\t// in\n    tag_479:\n        /* \"#utility.yul\":17133:17306   */\n      pop\n        /* \"#utility.yul\":17323:17327   */\n      dup1\n        /* \"#utility.yul\":17316:17327   */\n      swap2\n      pop\n        /* \"#utility.yul\":15358:17333   */\n      pop\n        /* \"#utility.yul\":15230:17333   */\n      swap3\n      swap2\n      pop\n      pop\n      jump\t// out\n        /* \"#utility.yul\":17339:17720   */\n    tag_49:\n        /* \"#utility.yul\":17486:17490   */\n      0x00\n        /* \"#utility.yul\":17524:17526   */\n      0x20\n        /* \"#utility.yul\":17513:17522   */\n      dup3\n        /* \"#utility.yul\":17509:17527   */\n      add\n        /* \"#utility.yul\":17501:17527   */\n      swap1\n      pop\n        /* \"#utility.yul\":17573:17582   */\n      dup2\n        /* \"#utility.yul\":17567:17571   */\n      dup2\n        /* \"#utility.yul\":17563:17583   */\n      sub\n        /* \"#utility.yul\":17559:17560   */\n      0x00\n        /* \"#utility.yul\":17548:17557   */\n      dup4\n        /* \"#utility.yul\":17544:17561   */\n      add\n        /* \"#utility.yul\":17537:17584   */\n      mstore\n        /* \"#utility.yul\":17601:17713   */\n      tag_481\n        /* \"#utility.yul\":17708:17712   */\n      dup2\n        /* \"#utility.yul\":17699:17705   */\n      dup5\n        /* \"#utility.yul\":17601:17713   */\n      tag_312\n      jump\t// in\n    tag_481:\n        /* \"#utility.yul\":17593:17713   */\n      swap1\n      pop\n        /* \"#utility.yul\":17339:17720   */\n      swap3\n      swap2\n      pop\n      pop\n      jump\t// out\n        /* \"#utility.yul\":17726:17906   */\n    tag_313:\n        /* \"#utility.yul\":17774:17851   */\n      0x4e487b7100000000000000000000000000000000000000000000000000000000\n        /* \"#utility.yul\":17771:17772   */\n      0x00\n        /* \"#utility.yul\":17764:17852   */\n      mstore\n        /* \"#utility.yul\":17871:17875   */\n      0x22\n        /* \"#utility.yul\":17868:17869   */\n      0x04\n        /* \"#utility.yul\":17861:17876   */\n      mstore\n        /* \"#utility.yul\":17895:17899   */\n      0x24\n        /* \"#utility.yul\":17892:17893   */\n      0x00\n        /* \"#utility.yul\":17885:17900   */\n      revert\n        /* \"#utility.yul\":17912:18232   */\n    tag_54:\n        /* \"#utility.yul\":17956:17962   */\n      0x00\n        /* \"#utility.yul\":17993:17994   */\n      0x02\n        /* \"#utility.yul\":17987:17991   */\n      dup3\n        /* \"#utility.yul\":17983:17995   */\n      div\n        /* \"#utility.yul\":17973:17995   */\n      swap1\n      pop\n        /* \"#utility.yul\":18040:18041   */\n      0x01\n        /* \"#utility.yul\":18034:18038   */\n      dup3\n        /* \"#utility.yul\":18030:18042   */\n      and\n        /* \"#utility.yul\":18061:18079   */\n      dup1\n        /* \"#utility.yul\":18051:18132   */\n      tag_484\n      jumpi\n        /* \"#utility.yul\":18117:18121   */\n      0x7f\n        /* \"#utility.yul\":18109:18115   */\n      dup3\n        /* \"#utility.yul\":18105:18122   */\n      and\n        /* \"#utility.yul\":18095:18122   */\n      swap2\n      pop\n        /* \"#utility.yul\":18051:18132   */\n    tag_484:\n        /* \"#utility.yul\":18179:18181   */\n      0x20\n        /* \"#utility.yul\":18171:18177   */\n      dup3\n        /* \"#utility.yul\":18168:18182   */\n      lt\n        /* \"#utility.yul\":18148:18166   */\n      dup2\n        /* \"#utility.yul\":18145:18183   */\n      sub\n        /* \"#utility.yul\":18142:18226   */\n      tag_485\n      jumpi\n        /* \"#utility.yul\":18198:18216   */\n      tag_486\n      tag_313\n      jump\t// in\n    tag_486:\n        /* \"#utility.yul\":18142:18226   */\n    tag_485:\n        /* \"#utility.yul\":17963:18232   */\n      pop\n        /* \"#utility.yul\":17912:18232   */\n      swap2\n      swap1\n      pop\n      jump\t// out\n        /* \"#utility.yul\":18238:18386   */\n    tag_314:\n        /* \"#utility.yul\":18340:18351   */\n      0x00\n        /* \"#utility.yul\":18377:18380   */\n      dup2\n        /* \"#utility.yul\":18362:18380   */\n      swap1\n      pop\n        /* \"#utility.yul\":18238:18386   */\n      swap3\n      swap2\n      pop\n      pop\n      jump\t// out\n        /* \"#utility.yul\":18392:18782   */\n    tag_315:\n        /* \"#utility.yul\":18498:18501   */\n      0x00\n        /* \"#utility.yul\":18526:18565   */\n      tag_489\n        /* \"#utility.yul\":18559:18564   */\n      dup3\n        /* \"#utility.yul\":18526:18565   */\n      tag_294\n      jump\t// in\n    tag_489:\n        /* \"#utility.yul\":18581:18670   */\n      tag_490\n        /* \"#utility.yul\":18663:18669   */\n      dup2\n        /* \"#utility.yul\":18658:18661   */\n      dup6\n        /* \"#utility.yul\":18581:18670   */\n      tag_314\n      jump\t// in\n    tag_490:\n        /* \"#utility.yul\":18574:18670   */\n      swap4\n      pop\n        /* \"#utility.yul\":18679:18744   */\n      tag_491\n        /* \"#utility.yul\":18737:18743   */\n      dup2\n        /* \"#utility.yul\":18732:18735   */\n      dup6\n        /* \"#utility.yul\":18725:18729   */\n      0x20\n        /* \"#utility.yul\":18718:18723   */\n      dup7\n        /* \"#utility.yul\":18714:18730   */\n      add\n        /* \"#utility.yul\":18679:18744   */\n      tag_296\n      jump\t// in\n    tag_491:\n        /* \"#utility.yul\":18769:18775   */\n      dup1\n        /* \"#utility.yul\":18764:18767   */\n      dup5\n        /* \"#utility.yul\":18760:18776   */\n      add\n        /* \"#utility.yul\":18753:18776   */\n      swap2\n      pop\n        /* \"#utility.yul\":18502:18782   */\n      pop\n        /* \"#utility.yul\":18392:18782   */\n      swap3\n      swap2\n      pop\n      pop\n      jump\t// out\n        /* \"#utility.yul\":18788:19063   */\n    tag_76:\n        /* \"#utility.yul\":18920:18923   */\n      0x00\n        /* \"#utility.yul\":18942:19037   */\n      tag_493\n        /* \"#utility.yul\":19033:19036   */\n      dup3\n        /* \"#utility.yul\":19024:19030   */\n      dup5\n        /* \"#utility.yul\":18942:19037   */\n      tag_315\n      jump\t// in\n    tag_493:\n        /* \"#utility.yul\":18935:19037   */\n      swap2\n      pop\n        /* \"#utility.yul\":19054:19057   */\n      dup2\n        /* \"#utility.yul\":19047:19057   */\n      swap1\n      pop\n        /* \"#utility.yul\":18788:19063   */\n      swap3\n      swap2\n      pop\n      pop\n      jump\t// out\n        /* \"#utility.yul\":19069:19210   */\n    tag_316:\n        /* \"#utility.yul\":19118:19122   */\n      0x00\n        /* \"#utility.yul\":19141:19144   */\n      dup2\n        /* \"#utility.yul\":19133:19144   */\n      swap1\n      pop\n        /* \"#utility.yul\":19164:19167   */\n      dup2\n        /* \"#utility.yul\":19161:19162   */\n      0x00\n        /* \"#utility.yul\":19154:19168   */\n      mstore\n        /* \"#utility.yul\":19198:19202   */\n      0x20\n        /* \"#utility.yul\":19195:19196   */\n      0x00\n        /* \"#utility.yul\":19185:19203   */\n      keccak256\n        /* \"#utility.yul\":19177:19203   */\n      swap1\n      pop\n        /* \"#utility.yul\":19069:19210   */\n      swap2\n      swap1\n      pop\n      jump\t// out\n        /* \"#utility.yul\":19216:19309   */\n    tag_317:\n        /* \"#utility.yul\":19253:19259   */\n      0x00\n        /* \"#utility.yul\":19300:19302   */\n      0x20\n        /* \"#utility.yul\":19295:19297   */\n      0x1f\n        /* \"#utility.yul\":19288:19293   */\n      dup4\n        /* \"#utility.yul\":19284:19298   */\n      add\n        /* \"#utility.yul\":19280:19303   */\n      div\n        /* \"#utility.yul\":19270:19303   */\n      swap1\n      pop\n        /* \"#utility.yul\":19216:19309   */\n      swap2\n      swap1\n      pop\n      jump\t// out\n        /* \"#utility.yul\":19315:19422   */\n    tag_318:\n        /* \"#utility.yul\":19359:19367   */\n      0x00\n        /* \"#utility.yul\":19409:19414   */\n      dup3\n        /* \"#utility.yul\":19403:19407   */\n      dup3\n        /* \"#utility.yul\":19399:19415   */\n      shl\n        /* \"#utility.yul\":19378:19415   */\n      swap1\n      pop\n        /* \"#utility.yul\":19315:19422   */\n      swap3\n      swap2\n      pop\n      pop\n      jump\t// out\n        /* \"#utility.yul\":19428:19821   */\n    tag_319:\n        /* \"#utility.yul\":19497:19503   */\n      0x00\n        /* \"#utility.yul\":19547:19548   */\n      0x08\n        /* \"#utility.yul\":19535:19545   */\n      dup4\n        /* \"#utility.yul\":19531:19549   */\n      mul\n        /* \"#utility.yul\":19570:19667   */\n      tag_498\n        /* \"#utility.yul\":19600:19666   */\n      0xffffffffffffffffffffffffffffffffffffffffffffffffffffffffffffffff\n        /* \"#utility.yul\":19589:19598   */\n      dup3\n        /* \"#utility.yul\":19570:19667   */\n      tag_318\n      jump\t// in\n    tag_498:\n        /* \"#utility.yul\":19688:19727   */\n      tag_499\n        /* \"#utility.yul\":19718:19726   */\n      dup7\n        /* \"#utility.yul\":19707:19716   */\n      dup4\n        /* \"#utility.yul\":19688:19727   */\n      tag_318\n      jump\t// in\n    tag_499:\n        /* \"#utility.yul\":19676:19727   */\n      swap6\n      pop\n        /* \"#utility.yul\":19760:19764   */\n      dup1\n        /* \"#utility.yul\":19756:19765   */\n      not\n        /* \"#utility.yul\":19749:19754   */\n      dup5\n        /* \"#utility.yul\":19745:19766   */\n      and\n        /* \"#utility.yul\":19736:19766   */\n      swap4\n      pop\n        /* \"#utility.yul\":19809:19813   */\n      dup1\n        /* \"#utility.yul\":19799:19807   */\n      dup7\n        /* \"#utility.yul\":19795:19814   */\n      and\n        /* \"#utility.yul\":19788:19793   */\n      dup5\n        /* \"#utility.yul\":19785:19815   */\n      or\n        /* \"#utility.yul\":19775:19815   */\n      swap3\n      pop\n        /* \"#utility.yul\":19504:19821   */\n      pop\n      pop\n        /* \"#utility.yul\":19428:19821   */\n      swap4\n      swap3\n      pop\n      pop\n      pop\n      jump\t// out\n        /* \"#utility.yul\":19827:19887   */\n    tag_320:\n        /* \"#utility.yul\":19855:19858   */\n      0x00\n        /* \"#utility.yul\":19876:19881   */\n      dup2\n        /* \"#utility.yul\":19869:19881   */\n      swap1\n      pop\n        /* \"#utility.yul\":19827:19887   */\n      swap2\n      swap1\n      pop\n      jump\t// out\n        /* \"#utility.yul\":19893:20035   */\n    tag_321:\n        /* \"#utility.yul\":19943:19952   */\n      0x00\n        /* \"#utility.yul\":19976:20029   */\n      tag_502\n        /* \"#utility.yul\":19994:20028   */\n      tag_503\n        /* \"#utility.yul\":20003:20027   */\n      tag_504\n        /* \"#utility.yul\":20021:20026   */\n      dup5\n        /* \"#utility.yul\":20003:20027   */\n      tag_298\n      jump\t// in\n    tag_504:\n        /* \"#utility.yul\":19994:20028   */\n      tag_320\n      jump\t// in\n    tag_503:\n        /* \"#utility.yul\":19976:20029   */\n      tag_298\n      jump\t// in\n    tag_502:\n        /* \"#utility.yul\":19963:20029   */\n      swap1\n      pop\n        /* \"#utility.yul\":19893:20035   */\n      swap2\n      swap1\n      pop\n      jump\t// out\n        /* \"#utility.yul\":20041:20116   */\n    tag_322:\n        /* \"#utility.yul\":20084:20087   */\n      0x00\n        /* \"#utility.yul\":20105:20110   */\n      dup2\n        /* \"#utility.yul\":20098:20110   */\n      swap1\n      pop\n        /* \"#utility.yul\":20041:20116   */\n      swap2\n      swap1\n      pop\n      jump\t// out\n        /* \"#utility.yul\":20122:20391   */\n    tag_323:\n        /* \"#utility.yul\":20232:20271   */\n      tag_507\n        /* \"#utility.yul\":20263:20270   */\n      dup4\n        /* \"#utility.yul\":20232:20271   */\n      tag_321\n      jump\t// in\n    tag_507:\n        /* \"#utility.yul\":20293:20384   */\n      tag_508\n        /* \"#utility.yul\":20342:20383   */\n      tag_509\n        /* \"#utility.yul\":20366:20382   */\n      dup3\n        /* \"#utility.yul\":20342:20383   */\n      tag_322\n      jump\t// in\n    tag_509:\n        /* \"#utility.yul\":20334:20340   */\n      dup5\n        /* \"#utility.yul\":20327:20331   */\n      dup5\n        /* \"#utility.yul\":20321:20332   */\n      sload\n        /* \"#utility.yul\":20293:20384   */\n      tag_319\n      jump\t// in\n    tag_508:\n        /* \"#utility.yul\":20287:20291   */\n      dup3\n        /* \"#utility.yul\":20280:20385   */\n      sstore\n        /* \"#utility.yul\":20198:20391   */\n      pop\n        /* \"#utility.yul\":20122:20391   */\n      pop\n      pop\n      pop\n      jump\t// out\n        /* \"#utility.yul\":20397:20470   */\n    tag_324:\n        /* \"#utility.yul\":20442:20445   */\n      0x00\n        /* \"#utility.yul\":20397:20470   */\n      swap1\n      jump\t// out\n        /* \"#utility.yul\":20476:20665   */\n    tag_325:\n        /* \"#utility.yul\":20553:20585   */\n      tag_512\n      tag_324\n      jump\t// in\n    tag_512:\n        /* \"#utility.yul\":20594:20659   */\n      tag_513\n        /* \"#utility.yul\":20652:20658   */\n      dup2\n        /* \"#utility.yul\":20644:20650   */\n      dup5\n        /* \"#utility.yul\":20638:20642   */\n      dup5\n        /* \"#utility.yul\":20594:20659   */\n      tag_323\n      jump\t// in\n    tag_513:\n        /* \"#utility.yul\":20529:20665   */\n      pop\n        /* \"#utility.yul\":20476:20665   */\n      pop\n      pop\n      jump\t// out\n        /* \"#utility.yul\":20671:20857   */\n    tag_326:\n        /* \"#utility.yul\":20731:20851   */\n    tag_515:\n        /* \"#utility.yul\":20748:20751   */\n      dup2\n        /* \"#utility.yul\":20741:20746   */\n      dup2\n        /* \"#utility.yul\":20738:20752   */\n      lt\n        /* \"#utility.yul\":20731:20851   */\n      iszero\n      tag_517\n      jumpi\n        /* \"#utility.yul\":20802:20841   */\n      tag_518\n        /* \"#utility.yul\":20839:20840   */\n      0x00\n        /* \"#utility.yul\":20832:20837   */\n      dup3\n        /* \"#utility.yul\":20802:20841   */\n      tag_325\n      jump\t// in\n    tag_518:\n        /* \"#utility.yul\":20775:20776   */\n      0x01\n        /* \"#utility.yul\":20768:20773   */\n      dup2\n        /* \"#utility.yul\":20764:20777   */\n      add\n        /* \"#utility.yul\":20755:20777   */\n      swap1\n      pop\n        /* \"#utility.yul\":20731:20851   */\n      jump(tag_515)\n    tag_517:\n        /* \"#utility.yul\":20671:20857   */\n      pop\n      pop\n      jump\t// out\n        /* \"#utility.yul\":20863:21406   */\n    tag_327:\n        /* \"#utility.yul\":20964:20966   */\n      0x1f\n        /* \"#utility.yul\":20959:20962   */\n      dup3\n        /* \"#utility.yul\":20956:20967   */\n      gt\n        /* \"#utility.yul\":20953:21399   */\n      iszero\n      tag_520\n      jumpi\n        /* \"#utility.yul\":20998:21036   */\n      tag_521\n        /* \"#utility.yul\":21030:21035   */\n      dup2\n        /* \"#utility.yul\":20998:21036   */\n      tag_316\n      jump\t// in\n    tag_521:\n        /* \"#utility.yul\":21082:21111   */\n      tag_522\n        /* \"#utility.yul\":21100:21110   */\n      dup5\n        /* \"#utility.yul\":21082:21111   */\n      tag_317\n      jump\t// in\n    tag_522:\n        /* \"#utility.yul\":21072:21080   */\n      dup2\n        /* \"#utility.yul\":21068:21112   */\n      add\n        /* \"#utility.yul\":21265:21267   */\n      0x20\n        /* \"#utility.yul\":21253:21263   */\n      dup6\n        /* \"#utility.yul\":21250:21268   */\n      lt\n        /* \"#utility.yul\":21247:21296   */\n      iszero\n      tag_523\n      jumpi\n        /* \"#utility.yul\":21286:21294   */\n      dup2\n        /* \"#utility.yul\":21271:21294   */\n      swap1\n      pop\n        /* \"#utility.yul\":21247:21296   */\n    tag_523:\n        /* \"#utility.yul\":21309:21389   */\n      tag_524\n        /* \"#utility.yul\":21365:21387   */\n      tag_525\n        /* \"#utility.yul\":21383:21386   */\n      dup6\n        /* \"#utility.yul\":21365:21387   */\n      tag_317\n      jump\t// in\n    tag_525:\n        /* \"#utility.yul\":21355:21363   */\n      dup4\n        /* \"#utility.yul\":21351:21388   */\n      add\n        /* \"#utility.yul\":21338:21349   */\n      dup3\n        /* \"#utility.yul\":21309:21389   */\n      tag_326\n      jump\t// in\n    tag_524:\n        /* \"#utility.yul\":20968:21399   */\n      pop\n      pop\n        /* \"#utility.yul\":20953:21399   */\n    tag_520:\n        /* \"#utility.yul\":20863:21406   */\n      pop\n      pop\n      pop\n      jump\t// out\n        /* \"#utility.yul\":21412:21529   */\n    tag_328:\n        /* \"#utility.yul\":21466:21474   */\n      0x00\n        /* \"#utility.yul\":21516:21521   */\n      dup3\n        /* \"#utility.yul\":21510:21514   */\n      dup3\n        /* \"#utility.yul\":21506:21522   */\n      shr\n        /* \"#utility.yul\":21485:21522   */\n      swap1\n      pop\n        /* \"#utility.yul\":21412:21529   */\n      swap3\n      swap2\n      pop\n      pop\n      jump\t// out\n        /* \"#utility.yul\":21535:21704   */\n    tag_329:\n        /* \"#utility.yul\":21579:21585   */\n      0x00\n        /* \"#utility.yul\":21612:21663   */\n      tag_528\n        /* \"#utility.yul\":21660:21661   */\n      0x00\n        /* \"#utility.yul\":21656:21662   */\n      not\n        /* \"#utility.yul\":21648:21653   */\n      dup5\n        /* \"#utility.yul\":21645:21646   */\n      0x08\n        /* \"#utility.yul\":21641:21654   */\n      mul\n        /* \"#utility.yul\":21612:21663   */\n      tag_328\n      jump\t// in\n    tag_528:\n        /* \"#utility.yul\":21608:21664   */\n      not\n        /* \"#utility.yul\":21693:21697   */\n      dup1\n        /* \"#utility.yul\":21687:21691   */\n      dup4\n        /* \"#utility.yul\":21683:21698   */\n      and\n        /* \"#utility.yul\":21673:21698   */\n      swap2\n      pop\n        /* \"#utility.yul\":21586:21704   */\n      pop\n        /* \"#utility.yul\":21535:21704   */\n      swap3\n      swap2\n      pop\n      pop\n      jump\t// out\n        /* \"#utility.yul\":21709:22004   */\n    tag_330:\n        /* \"#utility.yul\":21785:21789   */\n      0x00\n        /* \"#utility.yul\":21931:21960   */\n      tag_530\n        /* \"#utility.yul\":21956:21959   */\n      dup4\n        /* \"#utility.yul\":21950:21954   */\n      dup4\n        /* \"#utility.yul\":21931:21960   */\n      tag_329\n      jump\t// in\n    tag_530:\n        /* \"#utility.yul\":21923:21960   */\n      swap2\n      pop\n        /* \"#utility.yul\":21993:21996   */\n      dup3\n        /* \"#utility.yul\":21990:21991   */\n      0x02\n        /* \"#utility.yul\":21986:21997   */\n      mul\n        /* \"#utility.yul\":21980:21984   */\n      dup3\n        /* \"#utility.yul\":21977:21998   */\n      or\n        /* \"#utility.yul\":21969:21998   */\n      swap1\n      pop\n        /* \"#utility.yul\":21709:22004   */\n      swap3\n      swap2\n      pop\n      pop\n      jump\t// out\n        /* \"#utility.yul\":22009:23404   */\n    tag_78:\n        /* \"#utility.yul\":22126:22163   */\n      tag_532\n        /* \"#utility.yul\":22159:22162   */\n      dup3\n        /* \"#utility.yul\":22126:22163   */\n      tag_294\n      jump\t// in\n    tag_532:\n        /* \"#utility.yul\":22228:22246   */\n      0xffffffffffffffff\n        /* \"#utility.yul\":22220:22226   */\n      dup2\n        /* \"#utility.yul\":22217:22247   */\n      gt\n        /* \"#utility.yul\":22214:22270   */\n      iszero\n      tag_533\n      jumpi\n        /* \"#utility.yul\":22250:22268   */\n      tag_534\n      tag_88\n      jump\t// in\n    tag_534:\n        /* \"#utility.yul\":22214:22270   */\n    tag_533:\n        /* \"#utility.yul\":22294:22332   */\n      tag_535\n        /* \"#utility.yul\":22326:22330   */\n      dup3\n        /* \"#utility.yul\":22320:22331   */\n      sload\n        /* \"#utility.yul\":22294:22332   */\n      tag_54\n      jump\t// in\n    tag_535:\n        /* \"#utility.yul\":22379:22446   */\n      tag_536\n        /* \"#utility.yul\":22439:22445   */\n      dup3\n        /* \"#utility.yul\":22431:22437   */\n      dup3\n        /* \"#utility.yul\":22425:22429   */\n      dup6\n        /* \"#utility.yul\":22379:22446   */\n      tag_327\n      jump\t// in\n    tag_536:\n        /* \"#utility.yul\":22473:22474   */\n      0x00\n        /* \"#utility.yul\":22497:22501   */\n      0x20\n        /* \"#utility.yul\":22484:22501   */\n      swap1\n      pop\n        /* \"#utility.yul\":22529:22531   */\n      0x1f\n        /* \"#utility.yul\":22521:22527   */\n      dup4\n        /* \"#utility.yul\":22518:22532   */\n      gt\n        /* \"#utility.yul\":22546:22547   */\n      0x01\n        /* \"#utility.yul\":22541:23159   */\n      dup2\n      eq\n      tag_538\n      jumpi\n        /* \"#utility.yul\":23203:23204   */\n      0x00\n        /* \"#utility.yul\":23220:23226   */\n      dup5\n        /* \"#utility.yul\":23217:23294   */\n      iszero\n      tag_539\n      jumpi\n        /* \"#utility.yul\":23269:23278   */\n      dup3\n        /* \"#utility.yul\":23264:23267   */\n      dup8\n        /* \"#utility.yul\":23260:23279   */\n      add\n        /* \"#utility.yul\":23254:23280   */\n      mload\n        /* \"#utility.yul\":23245:23280   */\n      swap1\n      pop\n        /* \"#utility.yul\":23217:23294   */\n    tag_539:\n        /* \"#utility.yul\":23320:23387   */\n      tag_540\n        /* \"#utility.yul\":23380:23386   */\n      dup6\n        /* \"#utility.yul\":23373:23378   */\n      dup3\n        /* \"#utility.yul\":23320:23387   */\n      tag_330\n      jump\t// in\n    tag_540:\n        /* \"#utility.yul\":23314:23318   */\n      dup7\n        /* \"#utility.yul\":23307:23388   */\n      sstore\n        /* \"#utility.yul\":23176:23398   */\n      pop\n        /* \"#utility.yul\":22511:23398   */\n      jump(tag_537)\n        /* \"#utility.yul\":22541:23159   */\n    tag_538:\n        /* \"#utility.yul\":22593:22597   */\n      0x1f\n        /* \"#utility.yul\":22589:22598   */\n      not\n        /* \"#utility.yul\":22581:22587   */\n      dup5\n        /* \"#utility.yul\":22577:22599   */\n      and\n        /* \"#utility.yul\":22627:22664   */\n      tag_541\n        /* \"#utility.yul\":22659:22663   */\n      dup7\n        /* \"#utility.yul\":22627:22664   */\n      tag_316\n      jump\t// in\n    tag_541:\n        /* \"#utility.yul\":22686:22687   */\n      0x00\n        /* \"#utility.yul\":22700:22908   */\n    tag_542:\n        /* \"#utility.yul\":22714:22721   */\n      dup3\n        /* \"#utility.yul\":22711:22712   */\n      dup2\n        /* \"#utility.yul\":22708:22722   */\n      lt\n        /* \"#utility.yul\":22700:22908   */\n      iszero\n      tag_544\n      jumpi\n        /* \"#utility.yul\":22793:22802   */\n      dup5\n        /* \"#utility.yul\":22788:22791   */\n      dup10\n        /* \"#utility.yul\":22784:22803   */\n      add\n        /* \"#utility.yul\":22778:22804   */\n      mload\n        /* \"#utility.yul\":22770:22776   */\n      dup3\n        /* \"#utility.yul\":22763:22805   */\n      sstore\n        /* \"#utility.yul\":22844:22845   */\n      0x01\n        /* \"#utility.yul\":22836:22842   */\n      dup3\n        /* \"#utility.yul\":22832:22846   */\n      add\n        /* \"#utility.yul\":22822:22846   */\n      swap2\n      pop\n        /* \"#utility.yul\":22891:22893   */\n      0x20\n        /* \"#utility.yul\":22880:22889   */\n      dup6\n        /* \"#utility.yul\":22876:22894   */\n      add\n        /* \"#utility.yul\":22863:22894   */\n      swap5\n      pop\n        /* \"#utility.yul\":22737:22741   */\n      0x20\n        /* \"#utility.yul\":22734:22735   */\n      dup2\n        /* \"#utility.yul\":22730:22742   */\n      add\n        /* \"#utility.yul\":22725:22742   */\n      swap1\n      pop\n        /* \"#utility.yul\":22700:22908   */\n      jump(tag_542)\n    tag_544:\n        /* \"#utility.yul\":22936:22942   */\n      dup7\n        /* \"#utility.yul\":22927:22934   */\n      dup4\n        /* \"#utility.yul\":22924:22943   */\n      lt\n        /* \"#utility.yul\":22921:23100   */\n      iszero\n      tag_545\n      jumpi\n        /* \"#utility.yul\":22994:23003   */\n      dup5\n        /* \"#utility.yul\":22989:22992   */\n      dup10\n        /* \"#utility.yul\":22985:23004   */\n      add\n        /* \"#utility.yul\":22979:23005   */\n      mload\n        /* \"#utility.yul\":23037:23085   */\n      tag_546\n        /* \"#utility.yul\":23079:23083   */\n      0x1f\n        /* \"#utility.yul\":23071:23077   */\n      dup10\n        /* \"#utility.yul\":23067:23084   */\n      and\n        /* \"#utility.yul\":23056:23065   */\n      dup3\n        /* \"#utility.yul\":23037:23085   */\n      tag_329\n      jump\t// in\n    tag_546:\n        /* \"#utility.yul\":23029:23035   */\n      dup4\n        /* \"#utility.yul\":23022:23086   */\n      sstore\n        /* \"#utility.yul\":22944:23100   */\n      pop\n        /* \"#utility.yul\":22921:23100   */\n    tag_545:\n        /* \"#utility.yul\":23146:23147   */\n      0x01\n        /* \"#utility.yul\":23142:23143   */\n      0x02\n        /* \"#utility.yul\":23134:23140   */\n      dup9\n        /* \"#utility.yul\":23130:23144   */\n      mul\n        /* \"#utility.yul\":23126:23148   */\n      add\n        /* \"#utility.yul\":23120:23124   */\n      dup9\n        /* \"#utility.yul\":23113:23149   */\n      sstore\n        /* \"#utility.yul\":22548:23159   */\n      pop\n      pop\n      pop\n        /* \"#utility.yul\":22511:23398   */\n    tag_537:\n      pop\n        /* \"#utility.yul\":22101:23404   */\n      pop\n      pop\n      pop\n        /* \"#utility.yul\":22009:23404   */\n      pop\n      pop\n      jump\t// out\n        /* \"#utility.yul\":23410:23590   */\n    tag_98:\n        /* \"#utility.yul\":23458:23535   */\n      0x4e487b7100000000000000000000000000000000000000000000000000000000\n        /* \"#utility.yul\":23455:23456   */\n      0x00\n        /* \"#utility.yul\":23448:23536   */\n      mstore\n        /* \"#utility.yul\":23555:23559   */\n      0x32\n        /* \"#utility.yul\":23552:23553   */\n      0x04\n        /* \"#utility.yul\":23545:23560   */\n      mstore\n        /* \"#utility.yul\":23579:23583   */\n      0x24\n        /* \"#utility.yul\":23576:23577   */\n      0x00\n        /* \"#utility.yul\":23569:23584   */\n      revert\n        /* \"#utility.yul\":23620:24494   */\n    tag_331:\n        /* \"#utility.yul\":23723:23726   */\n      0x00\n        /* \"#utility.yul\":23760:23765   */\n      dup2\n        /* \"#utility.yul\":23754:23766   */\n      sload\n        /* \"#utility.yul\":23789:23825   */\n      tag_549\n        /* \"#utility.yul\":23815:23824   */\n      dup2\n        /* \"#utility.yul\":23789:23825   */\n      tag_54\n      jump\t// in\n    tag_549:\n        /* \"#utility.yul\":23841:23930   */\n      tag_550\n        /* \"#utility.yul\":23923:23929   */\n      dup2\n        /* \"#utility.yul\":23918:23921   */\n      dup7\n        /* \"#utility.yul\":23841:23930   */\n      tag_314\n      jump\t// in\n    tag_550:\n        /* \"#utility.yul\":23834:23930   */\n      swap5\n      pop\n        /* \"#utility.yul\":23961:23962   */\n      0x01\n        /* \"#utility.yul\":23950:23959   */\n      dup3\n        /* \"#utility.yul\":23946:23963   */\n      and\n        /* \"#utility.yul\":23977:23978   */\n      0x00\n        /* \"#utility.yul\":23972:24138   */\n      dup2\n      eq\n      tag_552\n      jumpi\n        /* \"#utility.yul\":24152:24153   */\n      0x01\n        /* \"#utility.yul\":24147:24488   */\n      dup2\n      eq\n      tag_553\n      jumpi\n        /* \"#utility.yul\":23939:24488   */\n      jump(tag_551)\n        /* \"#utility.yul\":23972:24138   */\n    tag_552:\n        /* \"#utility.yul\":24056:24060   */\n      0xff\n        /* \"#utility.yul\":24052:24061   */\n      not\n        /* \"#utility.yul\":24041:24050   */\n      dup4\n        /* \"#utility.yul\":24037:24062   */\n      and\n        /* \"#utility.yul\":24032:24035   */\n      dup7\n        /* \"#utility.yul\":24025:24063   */\n      mstore\n        /* \"#utility.yul\":24118:24124   */\n      dup2\n        /* \"#utility.yul\":24111:24125   */\n      iszero\n        /* \"#utility.yul\":24104:24126   */\n      iszero\n        /* \"#utility.yul\":24096:24102   */\n      dup3\n        /* \"#utility.yul\":24092:24127   */\n      mul\n        /* \"#utility.yul\":24087:24090   */\n      dup7\n        /* \"#utility.yul\":24083:24128   */\n      add\n        /* \"#utility.yul\":24076:24128   */\n      swap4\n      pop\n        /* \"#utility.yul\":23972:24138   */\n      jump(tag_551)\n        /* \"#utility.yul\":24147:24488   */\n    tag_553:\n        /* \"#utility.yul\":24214:24252   */\n      tag_554\n        /* \"#utility.yul\":24246:24251   */\n      dup6\n        /* \"#utility.yul\":24214:24252   */\n      tag_316\n      jump\t// in\n    tag_554:\n        /* \"#utility.yul\":24274:24275   */\n      0x00\n        /* \"#utility.yul\":24288:24442   */\n    tag_555:\n        /* \"#utility.yul\":24302:24308   */\n      dup4\n        /* \"#utility.yul\":24299:24300   */\n      dup2\n        /* \"#utility.yul\":24296:24309   */\n      lt\n        /* \"#utility.yul\":24288:24442   */\n      iszero\n      tag_557\n      jumpi\n        /* \"#utility.yul\":24376:24383   */\n      dup2\n        /* \"#utility.yul\":24370:24384   */\n      sload\n        /* \"#utility.yul\":24366:24367   */\n      dup2\n        /* \"#utility.yul\":24361:24364   */\n      dup10\n        /* \"#utility.yul\":24357:24368   */\n      add\n        /* \"#utility.yul\":24350:24385   */\n      mstore\n        /* \"#utility.yul\":24426:24427   */\n      0x01\n        /* \"#utility.yul\":24417:24424   */\n      dup3\n        /* \"#utility.yul\":24413:24428   */\n      add\n        /* \"#utility.yul\":24402:24428   */\n      swap2\n      pop\n        /* \"#utility.yul\":24324:24328   */\n      0x20\n        /* \"#utility.yul\":24321:24322   */\n      dup2\n        /* \"#utility.yul\":24317:24329   */\n      add\n        /* \"#utility.yul\":24312:24329   */\n      swap1\n      pop\n        /* \"#utility.yul\":24288:24442   */\n      jump(tag_555)\n    tag_557:\n        /* \"#utility.yul\":24471:24477   */\n      dup4\n        /* \"#utility.yul\":24466:24469   */\n      dup9\n        /* \"#utility.yul\":24462:24478   */\n      add\n        /* \"#utility.yul\":24455:24478   */\n      swap6\n      pop\n        /* \"#utility.yul\":24154:24488   */\n      pop\n      pop\n        /* \"#utility.yul\":23939:24488   */\n    tag_551:\n      pop\n        /* \"#utility.yul\":23727:24494   */\n      pop\n      pop\n        /* \"#utility.yul\":23620:24494   */\n      swap3\n      swap2\n      pop\n      pop\n      jump\t// out\n        /* \"#utility.yul\":24500:24769   */\n    tag_101:\n        /* \"#utility.yul\":24629:24632   */\n      0x00\n        /* \"#utility.yul\":24651:24743   */\n      tag_559\n        /* \"#utility.yul\":24739:24742   */\n      dup3\n        /* \"#utility.yul\":24730:24736   */\n      dup5\n        /* \"#utility.yul\":24651:24743   */\n      tag_331\n      jump\t// in\n    tag_559:\n        /* \"#utility.yul\":24644:24743   */\n      swap2\n      pop\n        /* \"#utility.yul\":24760:24763   */\n      dup2\n        /* \"#utility.yul\":24753:24763   */\n      swap1\n      pop\n        /* \"#utility.yul\":24500:24769   */\n      swap3\n      swap2\n      pop\n      pop\n      jump\t// out\n        /* \"#utility.yul\":24775:24955   */\n    tag_332:\n        /* \"#utility.yul\":24823:24900   */\n      0x4e487b7100000000000000000000000000000000000000000000000000000000\n        /* \"#utility.yul\":24820:24821   */\n      0x00\n        /* \"#utility.yul\":24813:24901   */\n      mstore\n        /* \"#utility.yul\":24920:24924   */\n      0x11\n        /* \"#utility.yul\":24917:24918   */\n      0x04\n        /* \"#utility.yul\":24910:24925   */\n      mstore\n        /* \"#utility.yul\":24944:24948   */\n      0x24\n        /* \"#utility.yul\":24941:24942   */\n      0x00\n        /* \"#utility.yul\":24934:24949   */\n      revert\n        /* \"#utility.yul\":24961:25194   */\n    tag_125:\n        /* \"#utility.yul\":25000:25003   */\n      0x00\n        /* \"#utility.yul\":25023:25047   */\n      tag_562\n        /* \"#utility.yul\":25041:25046   */\n      dup3\n        /* \"#utility.yul\":25023:25047   */\n      tag_298\n      jump\t// in\n    tag_562:\n        /* \"#utility.yul\":25014:25047   */\n      swap2\n      pop\n        /* \"#utility.yul\":25069:25135   */\n      0xffffffffffffffffffffffffffffffffffffffffffffffffffffffffffffffff\n        /* \"#utility.yul\":25062:25067   */\n      dup3\n        /* \"#utility.yul\":25059:25136   */\n      sub\n        /* \"#utility.yul\":25056:25159   */\n      tag_563\n      jumpi\n        /* \"#utility.yul\":25139:25157   */\n      tag_564\n      tag_332\n      jump\t// in\n    tag_564:\n        /* \"#utility.yul\":25056:25159   */\n    tag_563:\n        /* \"#utility.yul\":25186:25187   */\n      0x01\n        /* \"#utility.yul\":25179:25184   */\n      dup3\n        /* \"#utility.yul\":25175:25188   */\n      add\n        /* \"#utility.yul\":25168:25188   */\n      swap1\n      pop\n        /* \"#utility.yul\":24961:25194   */\n      swap2\n      swap1\n      pop\n      jump\t// out\n        /* \"#utility.yul\":25200:25376   */\n    tag_333:\n        /* \"#utility.yul\":25340:25368   */\n      0x5472616e73616374696f6e20646f6573206e6f74206578697374000000000000\n        /* \"#utility.yul\":25336:25337   */\n      0x00\n        /* \"#utility.yul\":25328:25334   */\n      dup3\n        /* \"#utility.yul\":25324:25338   */\n      add\n        /* \"#utility.yul\":25317:25369   */\n      mstore\n        /* \"#utility.yul\":25200:25376   */\n      pop\n      jump\t// out\n        /* \"#utility.yul\":25382:25748   */\n    tag_334:\n        /* \"#utility.yul\":25524:25527   */\n      0x00\n        /* \"#utility.yul\":25545:25612   */\n      tag_567\n        /* \"#utility.yul\":25609:25611   */\n      0x1a\n        /* \"#utility.yul\":25604:25607   */\n      dup4\n        /* \"#utility.yul\":25545:25612   */\n      tag_295\n      jump\t// in\n    tag_567:\n        /* \"#utility.yul\":25538:25612   */\n      swap2\n      pop\n        /* \"#utility.yul\":25621:25714   */\n      tag_568\n        /* \"#utility.yul\":25710:25713   */\n      dup3\n        /* \"#utility.yul\":25621:25714   */\n      tag_333\n      jump\t// in\n    tag_568:\n        /* \"#utility.yul\":25739:25741   */\n      0x20\n        /* \"#utility.yul\":25734:25737   */\n      dup3\n        /* \"#utility.yul\":25730:25742   */\n      add\n        /* \"#utility.yul\":25723:25742   */\n      swap1\n      pop\n        /* \"#utility.yul\":25382:25748   */\n      swap2\n      swap1\n      pop\n      jump\t// out\n        /* \"#utility.yul\":25754:26173   */\n    tag_183:\n        /* \"#utility.yul\":25920:25924   */\n      0x00\n        /* \"#utility.yul\":25958:25960   */\n      0x20\n        /* \"#utility.yul\":25947:25956   */\n      dup3\n        /* \"#utility.yul\":25943:25961   */\n      add\n        /* \"#utility.yul\":25935:25961   */\n      swap1\n      pop\n        /* \"#utility.yul\":26007:26016   */\n      dup2\n        /* \"#utility.yul\":26001:26005   */\n      dup2\n        /* \"#utility.yul\":25997:26017   */\n      sub\n        /* \"#utility.yul\":25993:25994   */\n      0x00\n        /* \"#utility.yul\":25982:25991   */\n      dup4\n        /* \"#utility.yul\":25978:25995   */\n      add\n        /* \"#utility.yul\":25971:26018   */\n      mstore\n        /* \"#utility.yul\":26035:26166   */\n      tag_570\n        /* \"#utility.yul\":26161:26165   */\n      dup2\n        /* \"#utility.yul\":26035:26166   */\n      tag_334\n      jump\t// in\n    tag_570:\n        /* \"#utility.yul\":26027:26166   */\n      swap1\n      pop\n        /* \"#utility.yul\":25754:26173   */\n      swap2\n      swap1\n      pop\n      jump\t// out\n        /* \"#utility.yul\":26179:26693   */\n    tag_187:\n        /* \"#utility.yul\":26340:26344   */\n      0x00\n        /* \"#utility.yul\":26378:26380   */\n      0x40\n        /* \"#utility.yul\":26367:26376   */\n      dup3\n        /* \"#utility.yul\":26363:26381   */\n      add\n        /* \"#utility.yul\":26355:26381   */\n      swap1\n      pop\n        /* \"#utility.yul\":26427:26436   */\n      dup2\n        /* \"#utility.yul\":26421:26425   */\n      dup2\n        /* \"#utility.yul\":26417:26437   */\n      sub\n        /* \"#utility.yul\":26413:26414   */\n      0x00\n        /* \"#utility.yul\":26402:26411   */\n      dup4\n        /* \"#utility.yul\":26398:26415   */\n      add\n        /* \"#utility.yul\":26391:26438   */\n      mstore\n        /* \"#utility.yul\":26455:26533   */\n      tag_572\n        /* \"#utility.yul\":26528:26532   */\n      dup2\n        /* \"#utility.yul\":26519:26525   */\n      dup6\n        /* \"#utility.yul\":26455:26533   */\n      tag_297\n      jump\t// in\n    tag_572:\n        /* \"#utility.yul\":26447:26533   */\n      swap1\n      pop\n        /* \"#utility.yul\":26580:26589   */\n      dup2\n        /* \"#utility.yul\":26574:26578   */\n      dup2\n        /* \"#utility.yul\":26570:26590   */\n      sub\n        /* \"#utility.yul\":26565:26567   */\n      0x20\n        /* \"#utility.yul\":26554:26563   */\n      dup4\n        /* \"#utility.yul\":26550:26568   */\n      add\n        /* \"#utility.yul\":26543:26591   */\n      mstore\n        /* \"#utility.yul\":26608:26686   */\n      tag_573\n        /* \"#utility.yul\":26681:26685   */\n      dup2\n        /* \"#utility.yul\":26672:26678   */\n      dup5\n        /* \"#utility.yul\":26608:26686   */\n      tag_297\n      jump\t// in\n    tag_573:\n        /* \"#utility.yul\":26600:26686   */\n      swap1\n      pop\n        /* \"#utility.yul\":26179:26693   */\n      swap4\n      swap3\n      pop\n      pop\n      pop\n      jump\t// out\n\n    auxdata: 0xa2646970667358221220731ce6053d45cf2c061081613e687dc43d887956b72ec8c4c2d45753dde50efc64736f6c63430008100033\n}\n",
				"bytecode": {
					"linkReferences": {},
					"object": "608060405234801561001057600080fd5b5061250c806100206000396000f3fe608060405234801561001057600080fd5b50600436106100935760003560e01c8063347047cc11610066578063347047cc1461013a57806343287e30146101565780637ce99c5814610186578063d339b0ec146101b6578063fff50461146101e657610093565b8063022236f41461009857806321a1c63a146100d057806327506f53146100ec5780632faa0cca1461010a575b600080fd5b6100b260048036038101906100ad91906118f8565b610202565b6040516100c7999897969594939291906119d9565b60405180910390f35b6100ea60048036038101906100e59190611aae565b610486565b005b6100f46105f9565b6040516101019190611ddd565b60405180910390f35b610124600480360381019061011f9190611dff565b610962565b6040516101319190611ddd565b60405180910390f35b610154600480360381019061014f9190611e2c565b610d98565b005b610170600480360381019061016b9190611dff565b610e73565b60405161017d9190611ddd565b60405180910390f35b6101a0600480360381019061019b9190611dff565b6112a9565b6040516101ad9190611ea4565b60405180910390f35b6101d060048036038101906101cb91906118f8565b611355565b6040516101dd9190611fa0565b60405180910390f35b61020060048036038101906101fb9190611e2c565b611677565b005b60008180516020810182018051848252602083016020850120818352809550505050505060009150905080600001805461023b90611ff1565b80601f016020809104026020016040519081016040528092919081815260200182805461026790611ff1565b80156102b45780601f10610289576101008083540402835291602001916102b4565b820191906000526020600020905b81548152906001019060200180831161029757829003601f168201915b5050505050908060010154908060020154908060030180546102d590611ff1565b80601f016020809104026020016040519081016040528092919081815260200182805461030190611ff1565b801561034e5780601f106103235761010080835404028352916020019161034e565b820191906000526020600020905b81548152906001019060200180831161033157829003601f168201915b50505050509080600401805461036390611ff1565b80601f016020809104026020016040519081016040528092919081815260200182805461038f90611ff1565b80156103dc5780601f106103b1576101008083540402835291602001916103dc565b820191906000526020600020905b8154815290600101906020018083116103bf57829003601f168201915b5050505050908060050180546103f190611ff1565b80601f016020809104026020016040519081016040528092919081815260200182805461041d90611ff1565b801561046a5780601f1061043f5761010080835404028352916020019161046a565b820191906000526020600020905b81548152906001019060200180831161044d57829003601f168201915b5050505050908060060154908060070154908060080154905089565b6040518061012001604052808a81526020018981526020018881526020018781526020018681526020018581526020018481526020018381526020018281525060008a6040516104d6919061205e565b908152602001604051809103902060008201518160000190816104f99190612221565b50602082015181600101556040820151816002015560608201518160030190816105239190612221565b5060808201518160040190816105399190612221565b5060a082015181600501908161054f9190612221565b5060c0820151816006015560e0820151816007015561010082015181600801559050506001899080600181540180825580915050600190039060005260206000200160009091909190915090816105a69190612221565b507f69667cfc0e3856508eb79afd949ebdcd4cfe6b6391364fcc1270c73e9f4779d98989898989898989896040516105e6999897969594939291906119d9565b60405180910390a1505050505050505050565b6060600060018054905067ffffffffffffffff81111561061c5761061b6117cd565b5b60405190808252806020026020018201604052801561065557816020015b610642611752565b81526020019060019003908161063a5790505b50905060005b60018054905081101561095a5760006001828154811061067e5761067d6122f3565b5b9060005260206000200160405161069591906123a5565b9081526020016040518091039020604051806101200160405290816000820180546106bf90611ff1565b80601f01602080910402602001604051908101604052809291908181526020018280546106eb90611ff1565b80156107385780601f1061070d57610100808354040283529160200191610738565b820191906000526020600020905b81548152906001019060200180831161071b57829003601f168201915b50505050508152602001600182015481526020016002820154815260200160038201805461076590611ff1565b80601f016020809104026020016040519081016040528092919081815260200182805461079190611ff1565b80156107de5780601f106107b3576101008083540402835291602001916107de565b820191906000526020600020905b8154815290600101906020018083116107c157829003601f168201915b505050505081526020016004820180546107f790611ff1565b80601f016020809104026020016040519081016040528092919081815260200182805461082390611ff1565b80156108705780601f1061084557610100808354040283529160200191610870565b820191906000526020600020905b81548152906001019060200180831161085357829003601f168201915b5050505050815260200160058201805461088990611ff1565b80601f01602080910402602001604051908101604052809291908181526020018280546108b590611ff1565b80156109025780601f106108d757610100808354040283529160200191610902565b820191906000526020600020905b8154815290600101906020018083116108e557829003601f168201915b50505050508152602001600682015481526020016007820154815260200160088201548152505082828151811061093c5761093b6122f3565b5b60200260200101819052508080610952906123eb565b91505061065b565b508091505090565b60606000805b6001805490508110156109dc578360006001838154811061098c5761098b6122f3565b5b906000526020600020016040516109a391906123a5565b908152602001604051809103902060020154036109c95781806109c5906123eb565b9250505b80806109d4906123eb565b915050610968565b5060008167ffffffffffffffff8111156109f9576109f86117cd565b5b604051908082528060200260200182016040528015610a3257816020015b610a1f611752565b815260200190600190039081610a175790505b5090506000805b600180549050811015610d8c5785600060018381548110610a5d57610a5c6122f3565b5b90600052602060002001604051610a7491906123a5565b90815260200160405180910390206002015403610d7957600060018281548110610aa157610aa06122f3565b5b90600052602060002001604051610ab891906123a5565b908152602001604051809103902060405180610120016040529081600082018054610ae290611ff1565b80601f0160208091040260200160405190810160405280929190818152602001828054610b0e90611ff1565b8015610b5b5780601f10610b3057610100808354040283529160200191610b5b565b820191906000526020600020905b815481529060010190602001808311610b3e57829003601f168201915b505050505081526020016001820154815260200160028201548152602001600382018054610b8890611ff1565b80601f0160208091040260200160405190810160405280929190818152602001828054610bb490611ff1565b8015610c015780601f10610bd657610100808354040283529160200191610c01565b820191906000526020600020905b815481529060010190602001808311610be457829003601f168201915b50505050508152602001600482018054610c1a90611ff1565b80601f0160208091040260200160405190810160405280929190818152602001828054610c4690611ff1565b8015610c935780601f10610c6857610100808354040283529160200191610c93565b820191906000526020600020905b815481529060010190602001808311610c7657829003601f168201915b50505050508152602001600582018054610cac90611ff1565b80601f0160208091040260200160405190810160405280929190818152602001828054610cd890611ff1565b8015610d255780601f10610cfa57610100808354040283529160200191610d25565b820191906000526020600020905b815481529060010190602001808311610d0857829003601f168201915b505050505081526020016006820154815260200160078201548152602001600882015481525050838381518110610d5f57610d5e6122f3565b5b60200260200101819052508180610d75906123eb565b9250505b8080610d84906123eb565b915050610a39565b50819350505050919050565b60008083604051610da9919061205e565b90815260200160405180910390206000018054610dc590611ff1565b905003610e07576040517f08c379a0000000000000000000000000000000000000000000000000000000008152600401610dfe9061247f565b60405180910390fd5b80600083604051610e18919061205e565b90815260200160405180910390206005019081610e359190612221565b507fb75b1fec1bc9156569ae9f72fb29c6e6727b297e191d358465fff4c09d8f7d268282604051610e6792919061249f565b60405180910390a15050565b60606000805b600180549050811015610eed5783600060018381548110610e9d57610e9c6122f3565b5b90600052602060002001604051610eb491906123a5565b90815260200160405180910390206001015403610eda578180610ed6906123eb565b9250505b8080610ee5906123eb565b915050610e79565b5060008167ffffffffffffffff811115610f0a57610f096117cd565b5b604051908082528060200260200182016040528015610f4357816020015b610f30611752565b815260200190600190039081610f285790505b5090506000805b60018054905081101561129d5785600060018381548110610f6e57610f6d6122f3565b5b90600052602060002001604051610f8591906123a5565b9081526020016040518091039020600101540361128a57600060018281548110610fb257610fb16122f3565b5b90600052602060002001604051610fc991906123a5565b908152602001604051809103902060405180610120016040529081600082018054610ff390611ff1565b80601f016020809104026020016040519081016040528092919081815260200182805461101f90611ff1565b801561106c5780601f106110415761010080835404028352916020019161106c565b820191906000526020600020905b81548152906001019060200180831161104f57829003601f168201915b50505050508152602001600182015481526020016002820154815260200160038201805461109990611ff1565b80601f01602080910402602001604051908101604052809291908181526020018280546110c590611ff1565b80156111125780601f106110e757610100808354040283529160200191611112565b820191906000526020600020905b8154815290600101906020018083116110f557829003601f168201915b5050505050815260200160048201805461112b90611ff1565b80601f016020809104026020016040519081016040528092919081815260200182805461115790611ff1565b80156111a45780601f10611179576101008083540402835291602001916111a4565b820191906000526020600020905b81548152906001019060200180831161118757829003601f168201915b505050505081526020016005820180546111bd90611ff1565b80601f01602080910402602001604051908101604052809291908181526020018280546111e990611ff1565b80156112365780601f1061120b57610100808354040283529160200191611236565b820191906000526020600020905b81548152906001019060200180831161121957829003601f168201915b5050505050815260200160068201548152602001600782015481526020016008820154815250508383815181106112705761126f6122f3565b5b60200260200101819052508180611286906123eb565b9250505b8080611295906123eb565b915050610f4a565b50819350505050919050565b600181815481106112b957600080fd5b9060005260206000200160009150905080546112d490611ff1565b80601f016020809104026020016040519081016040528092919081815260200182805461130090611ff1565b801561134d5780601f106113225761010080835404028352916020019161134d565b820191906000526020600020905b81548152906001019060200180831161133057829003601f168201915b505050505081565b61135d611752565b6000808360405161136e919061205e565b9081526020016040518091039020600001805461138a90611ff1565b9050036113cc576040517f08c379a00000000000000000000000000000000000000000000000000000000081526004016113c39061247f565b60405180910390fd5b6000826040516113dc919061205e565b90815260200160405180910390206040518061012001604052908160008201805461140690611ff1565b80601f016020809104026020016040519081016040528092919081815260200182805461143290611ff1565b801561147f5780601f106114545761010080835404028352916020019161147f565b820191906000526020600020905b81548152906001019060200180831161146257829003601f168201915b5050505050815260200160018201548152602001600282015481526020016003820180546114ac90611ff1565b80601f01602080910402602001604051908101604052809291908181526020018280546114d890611ff1565b80156115255780601f106114fa57610100808354040283529160200191611525565b820191906000526020600020905b81548152906001019060200180831161150857829003601f168201915b5050505050815260200160048201805461153e90611ff1565b80601f016020809104026020016040519081016040528092919081815260200182805461156a90611ff1565b80156115b75780601f1061158c576101008083540402835291602001916115b7565b820191906000526020600020905b81548152906001019060200180831161159a57829003601f168201915b505050505081526020016005820180546115d090611ff1565b80601f01602080910402602001604051908101604052809291908181526020018280546115fc90611ff1565b80156116495780601f1061161e57610100808354040283529160200191611649565b820191906000526020600020905b81548152906001019060200180831161162c57829003601f168201915b5050505050815260200160068201548152602001600782015481526020016008820154815250509050919050565b60008083604051611688919061205e565b908152602001604051809103902060000180546116a490611ff1565b9050036116e6576040517f08c379a00000000000000000000000000000000000000000000000000000000081526004016116dd9061247f565b60405180910390fd5b806000836040516116f7919061205e565b908152602001604051809103902060040190816117149190612221565b507fc61ffb03925558d248fba37b73270b12903d3f0ba5797af8b71a9f8bf0761a98828260405161174692919061249f565b60405180910390a15050565b6040518061012001604052806060815260200160008152602001600081526020016060815260200160608152602001606081526020016000815260200160008152602001600081525090565b6000604051905090565b600080fd5b600080fd5b600080fd5b600080fd5b6000601f19601f8301169050919050565b7f4e487b7100000000000000000000000000000000000000000000000000000000600052604160045260246000fd5b611805826117bc565b810181811067ffffffffffffffff82111715611824576118236117cd565b5b80604052505050565b600061183761179e565b905061184382826117fc565b919050565b600067ffffffffffffffff821115611863576118626117cd565b5b61186c826117bc565b9050602081019050919050565b82818337600083830152505050565b600061189b61189684611848565b61182d565b9050828152602081018484840111156118b7576118b66117b7565b5b6118c2848285611879565b509392505050565b600082601f8301126118df576118de6117b2565b5b81356118ef848260208601611888565b91505092915050565b60006020828403121561190e5761190d6117a8565b5b600082013567ffffffffffffffff81111561192c5761192b6117ad565b5b611938848285016118ca565b91505092915050565b600081519050919050565b600082825260208201905092915050565b60005b8381101561197b578082015181840152602081019050611960565b60008484015250505050565b600061199282611941565b61199c818561194c565b93506119ac81856020860161195d565b6119b5816117bc565b840191505092915050565b6000819050919050565b6119d3816119c0565b82525050565b60006101208201905081810360008301526119f4818c611987565b9050611a03602083018b6119ca565b611a10604083018a6119ca565b8181036060830152611a228189611987565b90508181036080830152611a368188611987565b905081810360a0830152611a4a8187611987565b9050611a5960c08301866119ca565b611a6660e08301856119ca565b611a746101008301846119ca565b9a9950505050505050505050565b611a8b816119c0565b8114611a9657600080fd5b50565b600081359050611aa881611a82565b92915050565b60008060008060008060008060006101208a8c031215611ad157611ad06117a8565b5b60008a013567ffffffffffffffff811115611aef57611aee6117ad565b5b611afb8c828d016118ca565b9950506020611b0c8c828d01611a99565b9850506040611b1d8c828d01611a99565b97505060608a013567ffffffffffffffff811115611b3e57611b3d6117ad565b5b611b4a8c828d016118ca565b96505060808a013567ffffffffffffffff811115611b6b57611b6a6117ad565b5b611b778c828d016118ca565b95505060a08a013567ffffffffffffffff811115611b9857611b976117ad565b5b611ba48c828d016118ca565b94505060c0611bb58c828d01611a99565b93505060e0611bc68c828d01611a99565b925050610100611bd88c828d01611a99565b9150509295985092959850929598565b600081519050919050565b600082825260208201905092915050565b6000819050602082019050919050565b600082825260208201905092915050565b6000611c3082611941565b611c3a8185611c14565b9350611c4a81856020860161195d565b611c53816117bc565b840191505092915050565b611c67816119c0565b82525050565b6000610120830160008301518482036000860152611c8b8282611c25565b9150506020830151611ca06020860182611c5e565b506040830151611cb36040860182611c5e565b5060608301518482036060860152611ccb8282611c25565b91505060808301518482036080860152611ce58282611c25565b91505060a083015184820360a0860152611cff8282611c25565b91505060c0830151611d1460c0860182611c5e565b5060e0830151611d2760e0860182611c5e565b50610100830151611d3c610100860182611c5e565b508091505092915050565b6000611d538383611c6d565b905092915050565b6000602082019050919050565b6000611d7382611be8565b611d7d8185611bf3565b935083602082028501611d8f85611c04565b8060005b85811015611dcb5784840389528151611dac8582611d47565b9450611db783611d5b565b925060208a01995050600181019050611d93565b50829750879550505050505092915050565b60006020820190508181036000830152611df78184611d68565b905092915050565b600060208284031215611e1557611e146117a8565b5b6000611e2384828501611a99565b91505092915050565b60008060408385031215611e4357611e426117a8565b5b600083013567ffffffffffffffff811115611e6157611e606117ad565b5b611e6d858286016118ca565b925050602083013567ffffffffffffffff811115611e8e57611e8d6117ad565b5b611e9a858286016118ca565b9150509250929050565b60006020820190508181036000830152611ebe8184611987565b905092915050565b6000610120830160008301518482036000860152611ee48282611c25565b9150506020830151611ef96020860182611c5e565b506040830151611f0c6040860182611c5e565b5060608301518482036060860152611f248282611c25565b91505060808301518482036080860152611f3e8282611c25565b91505060a083015184820360a0860152611f588282611c25565b91505060c0830151611f6d60c0860182611c5e565b5060e0830151611f8060e0860182611c5e565b50610100830151611f95610100860182611c5e565b508091505092915050565b60006020820190508181036000830152611fba8184611ec6565b905092915050565b7f4e487b7100000000000000000000000000000000000000000000000000000000600052602260045260246000fd5b6000600282049050600182168061200957607f821691505b60208210810361201c5761201b611fc2565b5b50919050565b600081905092915050565b600061203882611941565b6120428185612022565b935061205281856020860161195d565b80840191505092915050565b600061206a828461202d565b915081905092915050565b60008190508160005260206000209050919050565b60006020601f8301049050919050565b600082821b905092915050565b6000600883026120d77fffffffffffffffffffffffffffffffffffffffffffffffffffffffffffffffff8261209a565b6120e1868361209a565b95508019841693508086168417925050509392505050565b6000819050919050565b600061211e612119612114846119c0565b6120f9565b6119c0565b9050919050565b6000819050919050565b61213883612103565b61214c61214482612125565b8484546120a7565b825550505050565b600090565b612161612154565b61216c81848461212f565b505050565b5b8181101561219057612185600082612159565b600181019050612172565b5050565b601f8211156121d5576121a681612075565b6121af8461208a565b810160208510156121be578190505b6121d26121ca8561208a565b830182612171565b50505b505050565b600082821c905092915050565b60006121f8600019846008026121da565b1980831691505092915050565b600061221183836121e7565b9150826002028217905092915050565b61222a82611941565b67ffffffffffffffff811115612243576122426117cd565b5b61224d8254611ff1565b612258828285612194565b600060209050601f83116001811461228b5760008415612279578287015190505b6122838582612205565b8655506122eb565b601f19841661229986612075565b60005b828110156122c15784890151825560018201915060208501945060208101905061229c565b868310156122de57848901516122da601f8916826121e7565b8355505b6001600288020188555050505b505050505050565b7f4e487b7100000000000000000000000000000000000000000000000000000000600052603260045260246000fd5b6000815461232f81611ff1565b6123398186612022565b9450600182166000811461235457600181146123695761239c565b60ff198316865281151582028601935061239c565b61237285612075565b60005b8381101561239457815481890152600182019150602081019050612375565b838801955050505b50505092915050565b60006123b18284612322565b915081905092915050565b7f4e487b7100000000000000000000000000000000000000000000000000000000600052601160045260246000fd5b60006123f6826119c0565b91507fffffffffffffffffffffffffffffffffffffffffffffffffffffffffffffffff8203612428576124276123bc565b5b600182019050919050565b7f5472616e73616374696f6e20646f6573206e6f74206578697374000000000000600082015250565b6000612469601a8361194c565b915061247482612433565b602082019050919050565b600060208201905081810360008301526124988161245c565b9050919050565b600060408201905081810360008301526124b98185611987565b905081810360208301526124cd8184611987565b9050939250505056fea2646970667358221220731ce6053d45cf2c061081613e687dc43d887956b72ec8c4c2d45753dde50efc64736f6c63430008100033",
					"opcodes": "PUSH1 0x80 PUSH1 0x40 MSTORE CALLVALUE DUP1 ISZERO PUSH2 0x10 JUMPI PUSH1 0x0 DUP1 REVERT JUMPDEST POP PUSH2 0x250C DUP1 PUSH2 0x20 PUSH1 0x0 CODECOPY PUSH1 0x0 RETURN INVALID PUSH1 0x80 PUSH1 0x40 MSTORE CALLVALUE DUP1 ISZERO PUSH2 0x10 JUMPI PUSH1 0x0 DUP1 REVERT JUMPDEST POP PUSH1 0x4 CALLDATASIZE LT PUSH2 0x93 JUMPI PUSH1 0x0 CALLDATALOAD PUSH1 0xE0 SHR DUP1 PUSH4 0x347047CC GT PUSH2 0x66 JUMPI DUP1 PUSH4 0x347047CC EQ PUSH2 0x13A JUMPI DUP1 PUSH4 0x43287E30 EQ PUSH2 0x156 JUMPI DUP1 PUSH4 0x7CE99C58 EQ PUSH2 0x186 JUMPI DUP1 PUSH4 0xD339B0EC EQ PUSH2 0x1B6 JUMPI DUP1 PUSH4 0xFFF50461 EQ PUSH2 0x1E6 JUMPI PUSH2 0x93 JUMP JUMPDEST DUP1 PUSH4 0x22236F4 EQ PUSH2 0x98 JUMPI DUP1 PUSH4 0x21A1C63A EQ PUSH2 0xD0 JUMPI DUP1 PUSH4 0x27506F53 EQ PUSH2 0xEC JUMPI DUP1 PUSH4 0x2FAA0CCA EQ PUSH2 0x10A JUMPI JUMPDEST PUSH1 0x0 DUP1 REVERT JUMPDEST PUSH2 0xB2 PUSH1 0x4 DUP1 CALLDATASIZE SUB DUP2 ADD SWAP1 PUSH2 0xAD SWAP2 SWAP1 PUSH2 0x18F8 JUMP JUMPDEST PUSH2 0x202 JUMP JUMPDEST PUSH1 0x40 MLOAD PUSH2 0xC7 SWAP10 SWAP9 SWAP8 SWAP7 SWAP6 SWAP5 SWAP4 SWAP3 SWAP2 SWAP1 PUSH2 0x19D9 JUMP JUMPDEST PUSH1 0x40 MLOAD DUP1 SWAP2 SUB SWAP1 RETURN JUMPDEST PUSH2 0xEA PUSH1 0x4 DUP1 CALLDATASIZE SUB DUP2 ADD SWAP1 PUSH2 0xE5 SWAP2 SWAP1 PUSH2 0x1AAE JUMP JUMPDEST PUSH2 0x486 JUMP JUMPDEST STOP JUMPDEST PUSH2 0xF4 PUSH2 0x5F9 JUMP JUMPDEST PUSH1 0x40 MLOAD PUSH2 0x101 SWAP2 SWAP1 PUSH2 0x1DDD JUMP JUMPDEST PUSH1 0x40 MLOAD DUP1 SWAP2 SUB SWAP1 RETURN JUMPDEST PUSH2 0x124 PUSH1 0x4 DUP1 CALLDATASIZE SUB DUP2 ADD SWAP1 PUSH2 0x11F SWAP2 SWAP1 PUSH2 0x1DFF JUMP JUMPDEST PUSH2 0x962 JUMP JUMPDEST PUSH1 0x40 MLOAD PUSH2 0x131 SWAP2 SWAP1 PUSH2 0x1DDD JUMP JUMPDEST PUSH1 0x40 MLOAD DUP1 SWAP2 SUB SWAP1 RETURN JUMPDEST PUSH2 0x154 PUSH1 0x4 DUP1 CALLDATASIZE SUB DUP2 ADD SWAP1 PUSH2 0x14F SWAP2 SWAP1 PUSH2 0x1E2C JUMP JUMPDEST PUSH2 0xD98 JUMP JUMPDEST STOP JUMPDEST PUSH2 0x170 PUSH1 0x4 DUP1 CALLDATASIZE SUB DUP2 ADD SWAP1 PUSH2 0x16B SWAP2 SWAP1 PUSH2 0x1DFF JUMP JUMPDEST PUSH2 0xE73 JUMP JUMPDEST PUSH1 0x40 MLOAD PUSH2 0x17D SWAP2 SWAP1 PUSH2 0x1DDD JUMP JUMPDEST PUSH1 0x40 MLOAD DUP1 SWAP2 SUB SWAP1 RETURN JUMPDEST PUSH2 0x1A0 PUSH1 0x4 DUP1 CALLDATASIZE SUB DUP2 ADD SWAP1 PUSH2 0x19B SWAP2 SWAP1 PUSH2 0x1DFF JUMP JUMPDEST PUSH2 0x12A9 JUMP JUMPDEST PUSH1 0x40 MLOAD PUSH2 0x1AD SWAP2 SWAP1 PUSH2 0x1EA4 JUMP JUMPDEST PUSH1 0x40 MLOAD DUP1 SWAP2 SUB SWAP1 RETURN JUMPDEST PUSH2 0x1D0 PUSH1 0x4 DUP1 CALLDATASIZE SUB DUP2 ADD SWAP1 PUSH2 0x1CB SWAP2 SWAP1 PUSH2 0x18F8 JUMP JUMPDEST PUSH2 0x1355 JUMP JUMPDEST PUSH1 0x40 MLOAD PUSH2 0x1DD SWAP2 SWAP1 PUSH2 0x1FA0 JUMP JUMPDEST PUSH1 0x40 MLOAD DUP1 SWAP2 SUB SWAP1 RETURN JUMPDEST PUSH2 0x200 PUSH1 0x4 DUP1 CALLDATASIZE SUB DUP2 ADD SWAP1 PUSH2 0x1FB SWAP2 SWAP1 PUSH2 0x1E2C JUMP JUMPDEST PUSH2 0x1677 JUMP JUMPDEST STOP JUMPDEST PUSH1 0x0 DUP2 DUP1 MLOAD PUSH1 0x20 DUP2 ADD DUP3 ADD DUP1 MLOAD DUP5 DUP3 MSTORE PUSH1 0x20 DUP4 ADD PUSH1 0x20 DUP6 ADD KECCAK256 DUP2 DUP4 MSTORE DUP1 SWAP6 POP POP POP POP POP POP PUSH1 0x0 SWAP2 POP SWAP1 POP DUP1 PUSH1 0x0 ADD DUP1 SLOAD PUSH2 0x23B SWAP1 PUSH2 0x1FF1 JUMP JUMPDEST DUP1 PUSH1 0x1F ADD PUSH1 0x20 DUP1 SWAP2 DIV MUL PUSH1 0x20 ADD PUSH1 0x40 MLOAD SWAP1 DUP2 ADD PUSH1 0x40 MSTORE DUP1 SWAP3 SWAP2 SWAP1 DUP2 DUP2 MSTORE PUSH1 0x20 ADD DUP3 DUP1 SLOAD PUSH2 0x267 SWAP1 PUSH2 0x1FF1 JUMP JUMPDEST DUP1 ISZERO PUSH2 0x2B4 JUMPI DUP1 PUSH1 0x1F LT PUSH2 0x289 JUMPI PUSH2 0x100 DUP1 DUP4 SLOAD DIV MUL DUP4 MSTORE SWAP2 PUSH1 0x20 ADD SWAP2 PUSH2 0x2B4 JUMP JUMPDEST DUP3 ADD SWAP2 SWAP1 PUSH1 0x0 MSTORE PUSH1 0x20 PUSH1 0x0 KECCAK256 SWAP1 JUMPDEST DUP2 SLOAD DUP2 MSTORE SWAP1 PUSH1 0x1 ADD SWAP1 PUSH1 0x20 ADD DUP1 DUP4 GT PUSH2 0x297 JUMPI DUP3 SWAP1 SUB PUSH1 0x1F AND DUP3 ADD SWAP2 JUMPDEST POP POP POP POP POP SWAP1 DUP1 PUSH1 0x1 ADD SLOAD SWAP1 DUP1 PUSH1 0x2 ADD SLOAD SWAP1 DUP1 PUSH1 0x3 ADD DUP1 SLOAD PUSH2 0x2D5 SWAP1 PUSH2 0x1FF1 JUMP JUMPDEST DUP1 PUSH1 0x1F ADD PUSH1 0x20 DUP1 SWAP2 DIV MUL PUSH1 0x20 ADD PUSH1 0x40 MLOAD SWAP1 DUP2 ADD PUSH1 0x40 MSTORE DUP1 SWAP3 SWAP2 SWAP1 DUP2 DUP2 MSTORE PUSH1 0x20 ADD DUP3 DUP1 SLOAD PUSH2 0x301 SWAP1 PUSH2 0x1FF1 JUMP JUMPDEST DUP1 ISZERO PUSH2 0x34E JUMPI DUP1 PUSH1 0x1F LT PUSH2 0x323 JUMPI PUSH2 0x100 DUP1 DUP4 SLOAD DIV MUL DUP4 MSTORE SWAP2 PUSH1 0x20 ADD SWAP2 PUSH2 0x34E JUMP JUMPDEST DUP3 ADD SWAP2 SWAP1 PUSH1 0x0 MSTORE PUSH1 0x20 PUSH1 0x0 KECCAK256 SWAP1 JUMPDEST DUP2 SLOAD DUP2 MSTORE SWAP1 PUSH1 0x1 ADD SWAP1 PUSH1 0x20 ADD DUP1 DUP4 GT PUSH2 0x331 JUMPI DUP3 SWAP1 SUB PUSH1 0x1F AND DUP3 ADD SWAP2 JUMPDEST POP POP POP POP POP SWAP1 DUP1 PUSH1 0x4 ADD DUP1 SLOAD PUSH2 0x363 SWAP1 PUSH2 0x1FF1 JUMP JUMPDEST DUP1 PUSH1 0x1F ADD PUSH1 0x20 DUP1 SWAP2 DIV MUL PUSH1 0x20 ADD PUSH1 0x40 MLOAD SWAP1 DUP2 ADD PUSH1 0x40 MSTORE DUP1 SWAP3 SWAP2 SWAP1 DUP2 DUP2 MSTORE PUSH1 0x20 ADD DUP3 DUP1 SLOAD PUSH2 0x38F SWAP1 PUSH2 0x1FF1 JUMP JUMPDEST DUP1 ISZERO PUSH2 0x3DC JUMPI DUP1 PUSH1 0x1F LT PUSH2 0x3B1 JUMPI PUSH2 0x100 DUP1 DUP4 SLOAD DIV MUL DUP4 MSTORE SWAP2 PUSH1 0x20 ADD SWAP2 PUSH2 0x3DC JUMP JUMPDEST DUP3 ADD SWAP2 SWAP1 PUSH1 0x0 MSTORE PUSH1 0x20 PUSH1 0x0 KECCAK256 SWAP1 JUMPDEST DUP2 SLOAD DUP2 MSTORE SWAP1 PUSH1 0x1 ADD SWAP1 PUSH1 0x20 ADD DUP1 DUP4 GT PUSH2 0x3BF JUMPI DUP3 SWAP1 SUB PUSH1 0x1F AND DUP3 ADD SWAP2 JUMPDEST POP POP POP POP POP SWAP1 DUP1 PUSH1 0x5 ADD DUP1 SLOAD PUSH2 0x3F1 SWAP1 PUSH2 0x1FF1 JUMP JUMPDEST DUP1 PUSH1 0x1F ADD PUSH1 0x20 DUP1 SWAP2 DIV MUL PUSH1 0x20 ADD PUSH1 0x40 MLOAD SWAP1 DUP2 ADD PUSH1 0x40 MSTORE DUP1 SWAP3 SWAP2 SWAP1 DUP2 DUP2 MSTORE PUSH1 0x20 ADD DUP3 DUP1 SLOAD PUSH2 0x41D SWAP1 PUSH2 0x1FF1 JUMP JUMPDEST DUP1 ISZERO PUSH2 0x46A JUMPI DUP1 PUSH1 0x1F LT PUSH2 0x43F JUMPI PUSH2 0x100 DUP1 DUP4 SLOAD DIV MUL DUP4 MSTORE SWAP2 PUSH1 0x20 ADD SWAP2 PUSH2 0x46A JUMP JUMPDEST DUP3 ADD SWAP2 SWAP1 PUSH1 0x0 MSTORE PUSH1 0x20 PUSH1 0x0 KECCAK256 SWAP1 JUMPDEST DUP2 SLOAD DUP2 MSTORE SWAP1 PUSH1 0x1 ADD SWAP1 PUSH1 0x20 ADD DUP1 DUP4 GT PUSH2 0x44D JUMPI DUP3 SWAP1 SUB PUSH1 0x1F AND DUP3 ADD SWAP2 JUMPDEST POP POP POP POP POP SWAP1 DUP1 PUSH1 0x6 ADD SLOAD SWAP1 DUP1 PUSH1 0x7 ADD SLOAD SWAP1 DUP1 PUSH1 0x8 ADD SLOAD SWAP1 POP DUP10 JUMP JUMPDEST PUSH1 0x40 MLOAD DUP1 PUSH2 0x120 ADD PUSH1 0x40 MSTORE DUP1 DUP11 DUP2 MSTORE PUSH1 0x20 ADD DUP10 DUP2 MSTORE PUSH1 0x20 ADD DUP9 DUP2 MSTORE PUSH1 0x20 ADD DUP8 DUP2 MSTORE PUSH1 0x20 ADD DUP7 DUP2 MSTORE PUSH1 0x20 ADD DUP6 DUP2 MSTORE PUSH1 0x20 ADD DUP5 DUP2 MSTORE PUSH1 0x20 ADD DUP4 DUP2 MSTORE PUSH1 0x20 ADD DUP3 DUP2 MSTORE POP PUSH1 0x0 DUP11 PUSH1 0x40 MLOAD PUSH2 0x4D6 SWAP2 SWAP1 PUSH2 0x205E JUMP JUMPDEST SWAP1 DUP2 MSTORE PUSH1 0x20 ADD PUSH1 0x40 MLOAD DUP1 SWAP2 SUB SWAP1 KECCAK256 PUSH1 0x0 DUP3 ADD MLOAD DUP2 PUSH1 0x0 ADD SWAP1 DUP2 PUSH2 0x4F9 SWAP2 SWAP1 PUSH2 0x2221 JUMP JUMPDEST POP PUSH1 0x20 DUP3 ADD MLOAD DUP2 PUSH1 0x1 ADD SSTORE PUSH1 0x40 DUP3 ADD MLOAD DUP2 PUSH1 0x2 ADD SSTORE PUSH1 0x60 DUP3 ADD MLOAD DUP2 PUSH1 0x3 ADD SWAP1 DUP2 PUSH2 0x523 SWAP2 SWAP1 PUSH2 0x2221 JUMP JUMPDEST POP PUSH1 0x80 DUP3 ADD MLOAD DUP2 PUSH1 0x4 ADD SWAP1 DUP2 PUSH2 0x539 SWAP2 SWAP1 PUSH2 0x2221 JUMP JUMPDEST POP PUSH1 0xA0 DUP3 ADD MLOAD DUP2 PUSH1 0x5 ADD SWAP1 DUP2 PUSH2 0x54F SWAP2 SWAP1 PUSH2 0x2221 JUMP JUMPDEST POP PUSH1 0xC0 DUP3 ADD MLOAD DUP2 PUSH1 0x6 ADD SSTORE PUSH1 0xE0 DUP3 ADD MLOAD DUP2 PUSH1 0x7 ADD SSTORE PUSH2 0x100 DUP3 ADD MLOAD DUP2 PUSH1 0x8 ADD SSTORE SWAP1 POP POP PUSH1 0x1 DUP10 SWAP1 DUP1 PUSH1 0x1 DUP2 SLOAD ADD DUP1 DUP3 SSTORE DUP1 SWAP2 POP POP PUSH1 0x1 SWAP1 SUB SWAP1 PUSH1 0x0 MSTORE PUSH1 0x20 PUSH1 0x0 KECCAK256 ADD PUSH1 0x0 SWAP1 SWAP2 SWAP1 SWAP2 SWAP1 SWAP2 POP SWAP1 DUP2 PUSH2 0x5A6 SWAP2 SWAP1 PUSH2 0x2221 JUMP JUMPDEST POP PUSH32 0x69667CFC0E3856508EB79AFD949EBDCD4CFE6B6391364FCC1270C73E9F4779D9 DUP10 DUP10 DUP10 DUP10 DUP10 DUP10 DUP10 DUP10 DUP10 PUSH1 0x40 MLOAD PUSH2 0x5E6 SWAP10 SWAP9 SWAP8 SWAP7 SWAP6 SWAP5 SWAP4 SWAP3 SWAP2 SWAP1 PUSH2 0x19D9 JUMP JUMPDEST PUSH1 0x40 MLOAD DUP1 SWAP2 SUB SWAP1 LOG1 POP POP POP POP POP POP POP POP POP JUMP JUMPDEST PUSH1 0x60 PUSH1 0x0 PUSH1 0x1 DUP1 SLOAD SWAP1 POP PUSH8 0xFFFFFFFFFFFFFFFF DUP2 GT ISZERO PUSH2 0x61C JUMPI PUSH2 0x61B PUSH2 0x17CD JUMP JUMPDEST JUMPDEST PUSH1 0x40 MLOAD SWAP1 DUP1 DUP3 MSTORE DUP1 PUSH1 0x20 MUL PUSH1 0x20 ADD DUP3 ADD PUSH1 0x40 MSTORE DUP1 ISZERO PUSH2 0x655 JUMPI DUP2 PUSH1 0x20 ADD JUMPDEST PUSH2 0x642 PUSH2 0x1752 JUMP JUMPDEST DUP2 MSTORE PUSH1 0x20 ADD SWAP1 PUSH1 0x1 SWAP1 SUB SWAP1 DUP2 PUSH2 0x63A JUMPI SWAP1 POP JUMPDEST POP SWAP1 POP PUSH1 0x0 JUMPDEST PUSH1 0x1 DUP1 SLOAD SWAP1 POP DUP2 LT ISZERO PUSH2 0x95A JUMPI PUSH1 0x0 PUSH1 0x1 DUP3 DUP2 SLOAD DUP2 LT PUSH2 0x67E JUMPI PUSH2 0x67D PUSH2 0x22F3 JUMP JUMPDEST JUMPDEST SWAP1 PUSH1 0x0 MSTORE PUSH1 0x20 PUSH1 0x0 KECCAK256 ADD PUSH1 0x40 MLOAD PUSH2 0x695 SWAP2 SWAP1 PUSH2 0x23A5 JUMP JUMPDEST SWAP1 DUP2 MSTORE PUSH1 0x20 ADD PUSH1 0x40 MLOAD DUP1 SWAP2 SUB SWAP1 KECCAK256 PUSH1 0x40 MLOAD DUP1 PUSH2 0x120 ADD PUSH1 0x40 MSTORE SWAP1 DUP2 PUSH1 0x0 DUP3 ADD DUP1 SLOAD PUSH2 0x6BF SWAP1 PUSH2 0x1FF1 JUMP JUMPDEST DUP1 PUSH1 0x1F ADD PUSH1 0x20 DUP1 SWAP2 DIV MUL PUSH1 0x20 ADD PUSH1 0x40 MLOAD SWAP1 DUP2 ADD PUSH1 0x40 MSTORE DUP1 SWAP3 SWAP2 SWAP1 DUP2 DUP2 MSTORE PUSH1 0x20 ADD DUP3 DUP1 SLOAD PUSH2 0x6EB SWAP1 PUSH2 0x1FF1 JUMP JUMPDEST DUP1 ISZERO PUSH2 0x738 JUMPI DUP1 PUSH1 0x1F LT PUSH2 0x70D JUMPI PUSH2 0x100 DUP1 DUP4 SLOAD DIV MUL DUP4 MSTORE SWAP2 PUSH1 0x20 ADD SWAP2 PUSH2 0x738 JUMP JUMPDEST DUP3 ADD SWAP2 SWAP1 PUSH1 0x0 MSTORE PUSH1 0x20 PUSH1 0x0 KECCAK256 SWAP1 JUMPDEST DUP2 SLOAD DUP2 MSTORE SWAP1 PUSH1 0x1 ADD SWAP1 PUSH1 0x20 ADD DUP1 DUP4 GT PUSH2 0x71B JUMPI DUP3 SWAP1 SUB PUSH1 0x1F AND DUP3 ADD SWAP2 JUMPDEST POP POP POP POP POP DUP2 MSTORE PUSH1 0x20 ADD PUSH1 0x1 DUP3 ADD SLOAD DUP2 MSTORE PUSH1 0x20 ADD PUSH1 0x2 DUP3 ADD SLOAD DUP2 MSTORE PUSH1 0x20 ADD PUSH1 0x3 DUP3 ADD DUP1 SLOAD PUSH2 0x765 SWAP1 PUSH2 0x1FF1 JUMP JUMPDEST DUP1 PUSH1 0x1F ADD PUSH1 0x20 DUP1 SWAP2 DIV MUL PUSH1 0x20 ADD PUSH1 0x40 MLOAD SWAP1 DUP2 ADD PUSH1 0x40 MSTORE DUP1 SWAP3 SWAP2 SWAP1 DUP2 DUP2 MSTORE PUSH1 0x20 ADD DUP3 DUP1 SLOAD PUSH2 0x791 SWAP1 PUSH2 0x1FF1 JUMP JUMPDEST DUP1 ISZERO PUSH2 0x7DE JUMPI DUP1 PUSH1 0x1F LT PUSH2 0x7B3 JUMPI PUSH2 0x100 DUP1 DUP4 SLOAD DIV MUL DUP4 MSTORE SWAP2 PUSH1 0x20 ADD SWAP2 PUSH2 0x7DE JUMP JUMPDEST DUP3 ADD SWAP2 SWAP1 PUSH1 0x0 MSTORE PUSH1 0x20 PUSH1 0x0 KECCAK256 SWAP1 JUMPDEST DUP2 SLOAD DUP2 MSTORE SWAP1 PUSH1 0x1 ADD SWAP1 PUSH1 0x20 ADD DUP1 DUP4 GT PUSH2 0x7C1 JUMPI DUP3 SWAP1 SUB PUSH1 0x1F AND DUP3 ADD SWAP2 JUMPDEST POP POP POP POP POP DUP2 MSTORE PUSH1 0x20 ADD PUSH1 0x4 DUP3 ADD DUP1 SLOAD PUSH2 0x7F7 SWAP1 PUSH2 0x1FF1 JUMP JUMPDEST DUP1 PUSH1 0x1F ADD PUSH1 0x20 DUP1 SWAP2 DIV MUL PUSH1 0x20 ADD PUSH1 0x40 MLOAD SWAP1 DUP2 ADD PUSH1 0x40 MSTORE DUP1 SWAP3 SWAP2 SWAP1 DUP2 DUP2 MSTORE PUSH1 0x20 ADD DUP3 DUP1 SLOAD PUSH2 0x823 SWAP1 PUSH2 0x1FF1 JUMP JUMPDEST DUP1 ISZERO PUSH2 0x870 JUMPI DUP1 PUSH1 0x1F LT PUSH2 0x845 JUMPI PUSH2 0x100 DUP1 DUP4 SLOAD DIV MUL DUP4 MSTORE SWAP2 PUSH1 0x20 ADD SWAP2 PUSH2 0x870 JUMP JUMPDEST DUP3 ADD SWAP2 SWAP1 PUSH1 0x0 MSTORE PUSH1 0x20 PUSH1 0x0 KECCAK256 SWAP1 JUMPDEST DUP2 SLOAD DUP2 MSTORE SWAP1 PUSH1 0x1 ADD SWAP1 PUSH1 0x20 ADD DUP1 DUP4 GT PUSH2 0x853 JUMPI DUP3 SWAP1 SUB PUSH1 0x1F AND DUP3 ADD SWAP2 JUMPDEST POP POP POP POP POP DUP2 MSTORE PUSH1 0x20 ADD PUSH1 0x5 DUP3 ADD DUP1 SLOAD PUSH2 0x889 SWAP1 PUSH2 0x1FF1 JUMP JUMPDEST DUP1 PUSH1 0x1F ADD PUSH1 0x20 DUP1 SWAP2 DIV MUL PUSH1 0x20 ADD PUSH1 0x40 MLOAD SWAP1 DUP2 ADD PUSH1 0x40 MSTORE DUP1 SWAP3 SWAP2 SWAP1 DUP2 DUP2 MSTORE PUSH1 0x20 ADD DUP3 DUP1 SLOAD PUSH2 0x8B5 SWAP1 PUSH2 0x1FF1 JUMP JUMPDEST DUP1 ISZERO PUSH2 0x902 JUMPI DUP1 PUSH1 0x1F LT PUSH2 0x8D7 JUMPI PUSH2 0x100 DUP1 DUP4 SLOAD DIV MUL DUP4 MSTORE SWAP2 PUSH1 0x20 ADD SWAP2 PUSH2 0x902 JUMP JUMPDEST DUP3 ADD SWAP2 SWAP1 PUSH1 0x0 MSTORE PUSH1 0x20 PUSH1 0x0 KECCAK256 SWAP1 JUMPDEST DUP2 SLOAD DUP2 MSTORE SWAP1 PUSH1 0x1 ADD SWAP1 PUSH1 0x20 ADD DUP1 DUP4 GT PUSH2 0x8E5 JUMPI DUP3 SWAP1 SUB PUSH1 0x1F AND DUP3 ADD SWAP2 JUMPDEST POP POP POP POP POP DUP2 MSTORE PUSH1 0x20 ADD PUSH1 0x6 DUP3 ADD SLOAD DUP2 MSTORE PUSH1 0x20 ADD PUSH1 0x7 DUP3 ADD SLOAD DUP2 MSTORE PUSH1 0x20 ADD PUSH1 0x8 DUP3 ADD SLOAD DUP2 MSTORE POP POP DUP3 DUP3 DUP2 MLOAD DUP2 LT PUSH2 0x93C JUMPI PUSH2 0x93B PUSH2 0x22F3 JUMP JUMPDEST JUMPDEST PUSH1 0x20 MUL PUSH1 0x20 ADD ADD DUP2 SWAP1 MSTORE POP DUP1 DUP1 PUSH2 0x952 SWAP1 PUSH2 0x23EB JUMP JUMPDEST SWAP2 POP POP PUSH2 0x65B JUMP JUMPDEST POP DUP1 SWAP2 POP POP SWAP1 JUMP JUMPDEST PUSH1 0x60 PUSH1 0x0 DUP1 JUMPDEST PUSH1 0x1 DUP1 SLOAD SWAP1 POP DUP2 LT ISZERO PUSH2 0x9DC JUMPI DUP4 PUSH1 0x0 PUSH1 0x1 DUP4 DUP2 SLOAD DUP2 LT PUSH2 0x98C JUMPI PUSH2 0x98B PUSH2 0x22F3 JUMP JUMPDEST JUMPDEST SWAP1 PUSH1 0x0 MSTORE PUSH1 0x20 PUSH1 0x0 KECCAK256 ADD PUSH1 0x40 MLOAD PUSH2 0x9A3 SWAP2 SWAP1 PUSH2 0x23A5 JUMP JUMPDEST SWAP1 DUP2 MSTORE PUSH1 0x20 ADD PUSH1 0x40 MLOAD DUP1 SWAP2 SUB SWAP1 KECCAK256 PUSH1 0x2 ADD SLOAD SUB PUSH2 0x9C9 JUMPI DUP2 DUP1 PUSH2 0x9C5 SWAP1 PUSH2 0x23EB JUMP JUMPDEST SWAP3 POP POP JUMPDEST DUP1 DUP1 PUSH2 0x9D4 SWAP1 PUSH2 0x23EB JUMP JUMPDEST SWAP2 POP POP PUSH2 0x968 JUMP JUMPDEST POP PUSH1 0x0 DUP2 PUSH8 0xFFFFFFFFFFFFFFFF DUP2 GT ISZERO PUSH2 0x9F9 JUMPI PUSH2 0x9F8 PUSH2 0x17CD JUMP JUMPDEST JUMPDEST PUSH1 0x40 MLOAD SWAP1 DUP1 DUP3 MSTORE DUP1 PUSH1 0x20 MUL PUSH1 0x20 ADD DUP3 ADD PUSH1 0x40 MSTORE DUP1 ISZERO PUSH2 0xA32 JUMPI DUP2 PUSH1 0x20 ADD JUMPDEST PUSH2 0xA1F PUSH2 0x1752 JUMP JUMPDEST DUP2 MSTORE PUSH1 0x20 ADD SWAP1 PUSH1 0x1 SWAP1 SUB SWAP1 DUP2 PUSH2 0xA17 JUMPI SWAP1 POP JUMPDEST POP SWAP1 POP PUSH1 0x0 DUP1 JUMPDEST PUSH1 0x1 DUP1 SLOAD SWAP1 POP DUP2 LT ISZERO PUSH2 0xD8C JUMPI DUP6 PUSH1 0x0 PUSH1 0x1 DUP4 DUP2 SLOAD DUP2 LT PUSH2 0xA5D JUMPI PUSH2 0xA5C PUSH2 0x22F3 JUMP JUMPDEST JUMPDEST SWAP1 PUSH1 0x0 MSTORE PUSH1 0x20 PUSH1 0x0 KECCAK256 ADD PUSH1 0x40 MLOAD PUSH2 0xA74 SWAP2 SWAP1 PUSH2 0x23A5 JUMP JUMPDEST SWAP1 DUP2 MSTORE PUSH1 0x20 ADD PUSH1 0x40 MLOAD DUP1 SWAP2 SUB SWAP1 KECCAK256 PUSH1 0x2 ADD SLOAD SUB PUSH2 0xD79 JUMPI PUSH1 0x0 PUSH1 0x1 DUP3 DUP2 SLOAD DUP2 LT PUSH2 0xAA1 JUMPI PUSH2 0xAA0 PUSH2 0x22F3 JUMP JUMPDEST JUMPDEST SWAP1 PUSH1 0x0 MSTORE PUSH1 0x20 PUSH1 0x0 KECCAK256 ADD PUSH1 0x40 MLOAD PUSH2 0xAB8 SWAP2 SWAP1 PUSH2 0x23A5 JUMP JUMPDEST SWAP1 DUP2 MSTORE PUSH1 0x20 ADD PUSH1 0x40 MLOAD DUP1 SWAP2 SUB SWAP1 KECCAK256 PUSH1 0x40 MLOAD DUP1 PUSH2 0x120 ADD PUSH1 0x40 MSTORE SWAP1 DUP2 PUSH1 0x0 DUP3 ADD DUP1 SLOAD PUSH2 0xAE2 SWAP1 PUSH2 0x1FF1 JUMP JUMPDEST DUP1 PUSH1 0x1F ADD PUSH1 0x20 DUP1 SWAP2 DIV MUL PUSH1 0x20 ADD PUSH1 0x40 MLOAD SWAP1 DUP2 ADD PUSH1 0x40 MSTORE DUP1 SWAP3 SWAP2 SWAP1 DUP2 DUP2 MSTORE PUSH1 0x20 ADD DUP3 DUP1 SLOAD PUSH2 0xB0E SWAP1 PUSH2 0x1FF1 JUMP JUMPDEST DUP1 ISZERO PUSH2 0xB5B JUMPI DUP1 PUSH1 0x1F LT PUSH2 0xB30 JUMPI PUSH2 0x100 DUP1 DUP4 SLOAD DIV MUL DUP4 MSTORE SWAP2 PUSH1 0x20 ADD SWAP2 PUSH2 0xB5B JUMP JUMPDEST DUP3 ADD SWAP2 SWAP1 PUSH1 0x0 MSTORE PUSH1 0x20 PUSH1 0x0 KECCAK256 SWAP1 JUMPDEST DUP2 SLOAD DUP2 MSTORE SWAP1 PUSH1 0x1 ADD SWAP1 PUSH1 0x20 ADD DUP1 DUP4 GT PUSH2 0xB3E JUMPI DUP3 SWAP1 SUB PUSH1 0x1F AND DUP3 ADD SWAP2 JUMPDEST POP POP POP POP POP DUP2 MSTORE PUSH1 0x20 ADD PUSH1 0x1 DUP3 ADD SLOAD DUP2 MSTORE PUSH1 0x20 ADD PUSH1 0x2 DUP3 ADD SLOAD DUP2 MSTORE PUSH1 0x20 ADD PUSH1 0x3 DUP3 ADD DUP1 SLOAD PUSH2 0xB88 SWAP1 PUSH2 0x1FF1 JUMP JUMPDEST DUP1 PUSH1 0x1F ADD PUSH1 0x20 DUP1 SWAP2 DIV MUL PUSH1 0x20 ADD PUSH1 0x40 MLOAD SWAP1 DUP2 ADD PUSH1 0x40 MSTORE DUP1 SWAP3 SWAP2 SWAP1 DUP2 DUP2 MSTORE PUSH1 0x20 ADD DUP3 DUP1 SLOAD PUSH2 0xBB4 SWAP1 PUSH2 0x1FF1 JUMP JUMPDEST DUP1 ISZERO PUSH2 0xC01 JUMPI DUP1 PUSH1 0x1F LT PUSH2 0xBD6 JUMPI PUSH2 0x100 DUP1 DUP4 SLOAD DIV MUL DUP4 MSTORE SWAP2 PUSH1 0x20 ADD SWAP2 PUSH2 0xC01 JUMP JUMPDEST DUP3 ADD SWAP2 SWAP1 PUSH1 0x0 MSTORE PUSH1 0x20 PUSH1 0x0 KECCAK256 SWAP1 JUMPDEST DUP2 SLOAD DUP2 MSTORE SWAP1 PUSH1 0x1 ADD SWAP1 PUSH1 0x20 ADD DUP1 DUP4 GT PUSH2 0xBE4 JUMPI DUP3 SWAP1 SUB PUSH1 0x1F AND DUP3 ADD SWAP2 JUMPDEST POP POP POP POP POP DUP2 MSTORE PUSH1 0x20 ADD PUSH1 0x4 DUP3 ADD DUP1 SLOAD PUSH2 0xC1A SWAP1 PUSH2 0x1FF1 JUMP JUMPDEST DUP1 PUSH1 0x1F ADD PUSH1 0x20 DUP1 SWAP2 DIV MUL PUSH1 0x20 ADD PUSH1 0x40 MLOAD SWAP1 DUP2 ADD PUSH1 0x40 MSTORE DUP1 SWAP3 SWAP2 SWAP1 DUP2 DUP2 MSTORE PUSH1 0x20 ADD DUP3 DUP1 SLOAD PUSH2 0xC46 SWAP1 PUSH2 0x1FF1 JUMP JUMPDEST DUP1 ISZERO PUSH2 0xC93 JUMPI DUP1 PUSH1 0x1F LT PUSH2 0xC68 JUMPI PUSH2 0x100 DUP1 DUP4 SLOAD DIV MUL DUP4 MSTORE SWAP2 PUSH1 0x20 ADD SWAP2 PUSH2 0xC93 JUMP JUMPDEST DUP3 ADD SWAP2 SWAP1 PUSH1 0x0 MSTORE PUSH1 0x20 PUSH1 0x0 KECCAK256 SWAP1 JUMPDEST DUP2 SLOAD DUP2 MSTORE SWAP1 PUSH1 0x1 ADD SWAP1 PUSH1 0x20 ADD DUP1 DUP4 GT PUSH2 0xC76 JUMPI DUP3 SWAP1 SUB PUSH1 0x1F AND DUP3 ADD SWAP2 JUMPDEST POP POP POP POP POP DUP2 MSTORE PUSH1 0x20 ADD PUSH1 0x5 DUP3 ADD DUP1 SLOAD PUSH2 0xCAC SWAP1 PUSH2 0x1FF1 JUMP JUMPDEST DUP1 PUSH1 0x1F ADD PUSH1 0x20 DUP1 SWAP2 DIV MUL PUSH1 0x20 ADD PUSH1 0x40 MLOAD SWAP1 DUP2 ADD PUSH1 0x40 MSTORE DUP1 SWAP3 SWAP2 SWAP1 DUP2 DUP2 MSTORE PUSH1 0x20 ADD DUP3 DUP1 SLOAD PUSH2 0xCD8 SWAP1 PUSH2 0x1FF1 JUMP JUMPDEST DUP1 ISZERO PUSH2 0xD25 JUMPI DUP1 PUSH1 0x1F LT PUSH2 0xCFA JUMPI PUSH2 0x100 DUP1 DUP4 SLOAD DIV MUL DUP4 MSTORE SWAP2 PUSH1 0x20 ADD SWAP2 PUSH2 0xD25 JUMP JUMPDEST DUP3 ADD SWAP2 SWAP1 PUSH1 0x0 MSTORE PUSH1 0x20 PUSH1 0x0 KECCAK256 SWAP1 JUMPDEST DUP2 SLOAD DUP2 MSTORE SWAP1 PUSH1 0x1 ADD SWAP1 PUSH1 0x20 ADD DUP1 DUP4 GT PUSH2 0xD08 JUMPI DUP3 SWAP1 SUB PUSH1 0x1F AND DUP3 ADD SWAP2 JUMPDEST POP POP POP POP POP DUP2 MSTORE PUSH1 0x20 ADD PUSH1 0x6 DUP3 ADD SLOAD DUP2 MSTORE PUSH1 0x20 ADD PUSH1 0x7 DUP3 ADD SLOAD DUP2 MSTORE PUSH1 0x20 ADD PUSH1 0x8 DUP3 ADD SLOAD DUP2 MSTORE POP POP DUP4 DUP4 DUP2 MLOAD DUP2 LT PUSH2 0xD5F JUMPI PUSH2 0xD5E PUSH2 0x22F3 JUMP JUMPDEST JUMPDEST PUSH1 0x20 MUL PUSH1 0x20 ADD ADD DUP2 SWAP1 MSTORE POP DUP2 DUP1 PUSH2 0xD75 SWAP1 PUSH2 0x23EB JUMP JUMPDEST SWAP3 POP POP JUMPDEST DUP1 DUP1 PUSH2 0xD84 SWAP1 PUSH2 0x23EB JUMP JUMPDEST SWAP2 POP POP PUSH2 0xA39 JUMP JUMPDEST POP DUP2 SWAP4 POP POP POP POP SWAP2 SWAP1 POP JUMP JUMPDEST PUSH1 0x0 DUP1 DUP4 PUSH1 0x40 MLOAD PUSH2 0xDA9 SWAP2 SWAP1 PUSH2 0x205E JUMP JUMPDEST SWAP1 DUP2 MSTORE PUSH1 0x20 ADD PUSH1 0x40 MLOAD DUP1 SWAP2 SUB SWAP1 KECCAK256 PUSH1 0x0 ADD DUP1 SLOAD PUSH2 0xDC5 SWAP1 PUSH2 0x1FF1 JUMP JUMPDEST SWAP1 POP SUB PUSH2 0xE07 JUMPI PUSH1 0x40 MLOAD PUSH32 0x8C379A000000000000000000000000000000000000000000000000000000000 DUP2 MSTORE PUSH1 0x4 ADD PUSH2 0xDFE SWAP1 PUSH2 0x247F JUMP JUMPDEST PUSH1 0x40 MLOAD DUP1 SWAP2 SUB SWAP1 REVERT JUMPDEST DUP1 PUSH1 0x0 DUP4 PUSH1 0x40 MLOAD PUSH2 0xE18 SWAP2 SWAP1 PUSH2 0x205E JUMP JUMPDEST SWAP1 DUP2 MSTORE PUSH1 0x20 ADD PUSH1 0x40 MLOAD DUP1 SWAP2 SUB SWAP1 KECCAK256 PUSH1 0x5 ADD SWAP1 DUP2 PUSH2 0xE35 SWAP2 SWAP1 PUSH2 0x2221 JUMP JUMPDEST POP PUSH32 0xB75B1FEC1BC9156569AE9F72FB29C6E6727B297E191D358465FFF4C09D8F7D26 DUP3 DUP3 PUSH1 0x40 MLOAD PUSH2 0xE67 SWAP3 SWAP2 SWAP1 PUSH2 0x249F JUMP JUMPDEST PUSH1 0x40 MLOAD DUP1 SWAP2 SUB SWAP1 LOG1 POP POP JUMP JUMPDEST PUSH1 0x60 PUSH1 0x0 DUP1 JUMPDEST PUSH1 0x1 DUP1 SLOAD SWAP1 POP DUP2 LT ISZERO PUSH2 0xEED JUMPI DUP4 PUSH1 0x0 PUSH1 0x1 DUP4 DUP2 SLOAD DUP2 LT PUSH2 0xE9D JUMPI PUSH2 0xE9C PUSH2 0x22F3 JUMP JUMPDEST JUMPDEST SWAP1 PUSH1 0x0 MSTORE PUSH1 0x20 PUSH1 0x0 KECCAK256 ADD PUSH1 0x40 MLOAD PUSH2 0xEB4 SWAP2 SWAP1 PUSH2 0x23A5 JUMP JUMPDEST SWAP1 DUP2 MSTORE PUSH1 0x20 ADD PUSH1 0x40 MLOAD DUP1 SWAP2 SUB SWAP1 KECCAK256 PUSH1 0x1 ADD SLOAD SUB PUSH2 0xEDA JUMPI DUP2 DUP1 PUSH2 0xED6 SWAP1 PUSH2 0x23EB JUMP JUMPDEST SWAP3 POP POP JUMPDEST DUP1 DUP1 PUSH2 0xEE5 SWAP1 PUSH2 0x23EB JUMP JUMPDEST SWAP2 POP POP PUSH2 0xE79 JUMP JUMPDEST POP PUSH1 0x0 DUP2 PUSH8 0xFFFFFFFFFFFFFFFF DUP2 GT ISZERO PUSH2 0xF0A JUMPI PUSH2 0xF09 PUSH2 0x17CD JUMP JUMPDEST JUMPDEST PUSH1 0x40 MLOAD SWAP1 DUP1 DUP3 MSTORE DUP1 PUSH1 0x20 MUL PUSH1 0x20 ADD DUP3 ADD PUSH1 0x40 MSTORE DUP1 ISZERO PUSH2 0xF43 JUMPI DUP2 PUSH1 0x20 ADD JUMPDEST PUSH2 0xF30 PUSH2 0x1752 JUMP JUMPDEST DUP2 MSTORE PUSH1 0x20 ADD SWAP1 PUSH1 0x1 SWAP1 SUB SWAP1 DUP2 PUSH2 0xF28 JUMPI SWAP1 POP JUMPDEST POP SWAP1 POP PUSH1 0x0 DUP1 JUMPDEST PUSH1 0x1 DUP1 SLOAD SWAP1 POP DUP2 LT ISZERO PUSH2 0x129D JUMPI DUP6 PUSH1 0x0 PUSH1 0x1 DUP4 DUP2 SLOAD DUP2 LT PUSH2 0xF6E JUMPI PUSH2 0xF6D PUSH2 0x22F3 JUMP JUMPDEST JUMPDEST SWAP1 PUSH1 0x0 MSTORE PUSH1 0x20 PUSH1 0x0 KECCAK256 ADD PUSH1 0x40 MLOAD PUSH2 0xF85 SWAP2 SWAP1 PUSH2 0x23A5 JUMP JUMPDEST SWAP1 DUP2 MSTORE PUSH1 0x20 ADD PUSH1 0x40 MLOAD DUP1 SWAP2 SUB SWAP1 KECCAK256 PUSH1 0x1 ADD SLOAD SUB PUSH2 0x128A JUMPI PUSH1 0x0 PUSH1 0x1 DUP3 DUP2 SLOAD DUP2 LT PUSH2 0xFB2 JUMPI PUSH2 0xFB1 PUSH2 0x22F3 JUMP JUMPDEST JUMPDEST SWAP1 PUSH1 0x0 MSTORE PUSH1 0x20 PUSH1 0x0 KECCAK256 ADD PUSH1 0x40 MLOAD PUSH2 0xFC9 SWAP2 SWAP1 PUSH2 0x23A5 JUMP JUMPDEST SWAP1 DUP2 MSTORE PUSH1 0x20 ADD PUSH1 0x40 MLOAD DUP1 SWAP2 SUB SWAP1 KECCAK256 PUSH1 0x40 MLOAD DUP1 PUSH2 0x120 ADD PUSH1 0x40 MSTORE SWAP1 DUP2 PUSH1 0x0 DUP3 ADD DUP1 SLOAD PUSH2 0xFF3 SWAP1 PUSH2 0x1FF1 JUMP JUMPDEST DUP1 PUSH1 0x1F ADD PUSH1 0x20 DUP1 SWAP2 DIV MUL PUSH1 0x20 ADD PUSH1 0x40 MLOAD SWAP1 DUP2 ADD PUSH1 0x40 MSTORE DUP1 SWAP3 SWAP2 SWAP1 DUP2 DUP2 MSTORE PUSH1 0x20 ADD DUP3 DUP1 SLOAD PUSH2 0x101F SWAP1 PUSH2 0x1FF1 JUMP JUMPDEST DUP1 ISZERO PUSH2 0x106C JUMPI DUP1 PUSH1 0x1F LT PUSH2 0x1041 JUMPI PUSH2 0x100 DUP1 DUP4 SLOAD DIV MUL DUP4 MSTORE SWAP2 PUSH1 0x20 ADD SWAP2 PUSH2 0x106C JUMP JUMPDEST DUP3 ADD SWAP2 SWAP1 PUSH1 0x0 MSTORE PUSH1 0x20 PUSH1 0x0 KECCAK256 SWAP1 JUMPDEST DUP2 SLOAD DUP2 MSTORE SWAP1 PUSH1 0x1 ADD SWAP1 PUSH1 0x20 ADD DUP1 DUP4 GT PUSH2 0x104F JUMPI DUP3 SWAP1 SUB PUSH1 0x1F AND DUP3 ADD SWAP2 JUMPDEST POP POP POP POP POP DUP2 MSTORE PUSH1 0x20 ADD PUSH1 0x1 DUP3 ADD SLOAD DUP2 MSTORE PUSH1 0x20 ADD PUSH1 0x2 DUP3 ADD SLOAD DUP2 MSTORE PUSH1 0x20 ADD PUSH1 0x3 DUP3 ADD DUP1 SLOAD PUSH2 0x1099 SWAP1 PUSH2 0x1FF1 JUMP JUMPDEST DUP1 PUSH1 0x1F ADD PUSH1 0x20 DUP1 SWAP2 DIV MUL PUSH1 0x20 ADD PUSH1 0x40 MLOAD SWAP1 DUP2 ADD PUSH1 0x40 MSTORE DUP1 SWAP3 SWAP2 SWAP1 DUP2 DUP2 MSTORE PUSH1 0x20 ADD DUP3 DUP1 SLOAD PUSH2 0x10C5 SWAP1 PUSH2 0x1FF1 JUMP JUMPDEST DUP1 ISZERO PUSH2 0x1112 JUMPI DUP1 PUSH1 0x1F LT PUSH2 0x10E7 JUMPI PUSH2 0x100 DUP1 DUP4 SLOAD DIV MUL DUP4 MSTORE SWAP2 PUSH1 0x20 ADD SWAP2 PUSH2 0x1112 JUMP JUMPDEST DUP3 ADD SWAP2 SWAP1 PUSH1 0x0 MSTORE PUSH1 0x20 PUSH1 0x0 KECCAK256 SWAP1 JUMPDEST DUP2 SLOAD DUP2 MSTORE SWAP1 PUSH1 0x1 ADD SWAP1 PUSH1 0x20 ADD DUP1 DUP4 GT PUSH2 0x10F5 JUMPI DUP3 SWAP1 SUB PUSH1 0x1F AND DUP3 ADD SWAP2 JUMPDEST POP POP POP POP POP DUP2 MSTORE PUSH1 0x20 ADD PUSH1 0x4 DUP3 ADD DUP1 SLOAD PUSH2 0x112B SWAP1 PUSH2 0x1FF1 JUMP JUMPDEST DUP1 PUSH1 0x1F ADD PUSH1 0x20 DUP1 SWAP2 DIV MUL PUSH1 0x20 ADD PUSH1 0x40 MLOAD SWAP1 DUP2 ADD PUSH1 0x40 MSTORE DUP1 SWAP3 SWAP2 SWAP1 DUP2 DUP2 MSTORE PUSH1 0x20 ADD DUP3 DUP1 SLOAD PUSH2 0x1157 SWAP1 PUSH2 0x1FF1 JUMP JUMPDEST DUP1 ISZERO PUSH2 0x11A4 JUMPI DUP1 PUSH1 0x1F LT PUSH2 0x1179 JUMPI PUSH2 0x100 DUP1 DUP4 SLOAD DIV MUL DUP4 MSTORE SWAP2 PUSH1 0x20 ADD SWAP2 PUSH2 0x11A4 JUMP JUMPDEST DUP3 ADD SWAP2 SWAP1 PUSH1 0x0 MSTORE PUSH1 0x20 PUSH1 0x0 KECCAK256 SWAP1 JUMPDEST DUP2 SLOAD DUP2 MSTORE SWAP1 PUSH1 0x1 ADD SWAP1 PUSH1 0x20 ADD DUP1 DUP4 GT PUSH2 0x1187 JUMPI DUP3 SWAP1 SUB PUSH1 0x1F AND DUP3 ADD SWAP2 JUMPDEST POP POP POP POP POP DUP2 MSTORE PUSH1 0x20 ADD PUSH1 0x5 DUP3 ADD DUP1 SLOAD PUSH2 0x11BD SWAP1 PUSH2 0x1FF1 JUMP JUMPDEST DUP1 PUSH1 0x1F ADD PUSH1 0x20 DUP1 SWAP2 DIV MUL PUSH1 0x20 ADD PUSH1 0x40 MLOAD SWAP1 DUP2 ADD PUSH1 0x40 MSTORE DUP1 SWAP3 SWAP2 SWAP1 DUP2 DUP2 MSTORE PUSH1 0x20 ADD DUP3 DUP1 SLOAD PUSH2 0x11E9 SWAP1 PUSH2 0x1FF1 JUMP JUMPDEST DUP1 ISZERO PUSH2 0x1236 JUMPI DUP1 PUSH1 0x1F LT PUSH2 0x120B JUMPI PUSH2 0x100 DUP1 DUP4 SLOAD DIV MUL DUP4 MSTORE SWAP2 PUSH1 0x20 ADD SWAP2 PUSH2 0x1236 JUMP JUMPDEST DUP3 ADD SWAP2 SWAP1 PUSH1 0x0 MSTORE PUSH1 0x20 PUSH1 0x0 KECCAK256 SWAP1 JUMPDEST DUP2 SLOAD DUP2 MSTORE SWAP1 PUSH1 0x1 ADD SWAP1 PUSH1 0x20 ADD DUP1 DUP4 GT PUSH2 0x1219 JUMPI DUP3 SWAP1 SUB PUSH1 0x1F AND DUP3 ADD SWAP2 JUMPDEST POP POP POP POP POP DUP2 MSTORE PUSH1 0x20 ADD PUSH1 0x6 DUP3 ADD SLOAD DUP2 MSTORE PUSH1 0x20 ADD PUSH1 0x7 DUP3 ADD SLOAD DUP2 MSTORE PUSH1 0x20 ADD PUSH1 0x8 DUP3 ADD SLOAD DUP2 MSTORE POP POP DUP4 DUP4 DUP2 MLOAD DUP2 LT PUSH2 0x1270 JUMPI PUSH2 0x126F PUSH2 0x22F3 JUMP JUMPDEST JUMPDEST PUSH1 0x20 MUL PUSH1 0x20 ADD ADD DUP2 SWAP1 MSTORE POP DUP2 DUP1 PUSH2 0x1286 SWAP1 PUSH2 0x23EB JUMP JUMPDEST SWAP3 POP POP JUMPDEST DUP1 DUP1 PUSH2 0x1295 SWAP1 PUSH2 0x23EB JUMP JUMPDEST SWAP2 POP POP PUSH2 0xF4A JUMP JUMPDEST POP DUP2 SWAP4 POP POP POP POP SWAP2 SWAP1 POP JUMP JUMPDEST PUSH1 0x1 DUP2 DUP2 SLOAD DUP2 LT PUSH2 0x12B9 JUMPI PUSH1 0x0 DUP1 REVERT JUMPDEST SWAP1 PUSH1 0x0 MSTORE PUSH1 0x20 PUSH1 0x0 KECCAK256 ADD PUSH1 0x0 SWAP2 POP SWAP1 POP DUP1 SLOAD PUSH2 0x12D4 SWAP1 PUSH2 0x1FF1 JUMP JUMPDEST DUP1 PUSH1 0x1F ADD PUSH1 0x20 DUP1 SWAP2 DIV MUL PUSH1 0x20 ADD PUSH1 0x40 MLOAD SWAP1 DUP2 ADD PUSH1 0x40 MSTORE DUP1 SWAP3 SWAP2 SWAP1 DUP2 DUP2 MSTORE PUSH1 0x20 ADD DUP3 DUP1 SLOAD PUSH2 0x1300 SWAP1 PUSH2 0x1FF1 JUMP JUMPDEST DUP1 ISZERO PUSH2 0x134D JUMPI DUP1 PUSH1 0x1F LT PUSH2 0x1322 JUMPI PUSH2 0x100 DUP1 DUP4 SLOAD DIV MUL DUP4 MSTORE SWAP2 PUSH1 0x20 ADD SWAP2 PUSH2 0x134D JUMP JUMPDEST DUP3 ADD SWAP2 SWAP1 PUSH1 0x0 MSTORE PUSH1 0x20 PUSH1 0x0 KECCAK256 SWAP1 JUMPDEST DUP2 SLOAD DUP2 MSTORE SWAP1 PUSH1 0x1 ADD SWAP1 PUSH1 0x20 ADD DUP1 DUP4 GT PUSH2 0x1330 JUMPI DUP3 SWAP1 SUB PUSH1 0x1F AND DUP3 ADD SWAP2 JUMPDEST POP POP POP POP POP DUP2 JUMP JUMPDEST PUSH2 0x135D PUSH2 0x1752 JUMP JUMPDEST PUSH1 0x0 DUP1 DUP4 PUSH1 0x40 MLOAD PUSH2 0x136E SWAP2 SWAP1 PUSH2 0x205E JUMP JUMPDEST SWAP1 DUP2 MSTORE PUSH1 0x20 ADD PUSH1 0x40 MLOAD DUP1 SWAP2 SUB SWAP1 KECCAK256 PUSH1 0x0 ADD DUP1 SLOAD PUSH2 0x138A SWAP1 PUSH2 0x1FF1 JUMP JUMPDEST SWAP1 POP SUB PUSH2 0x13CC JUMPI PUSH1 0x40 MLOAD PUSH32 0x8C379A000000000000000000000000000000000000000000000000000000000 DUP2 MSTORE PUSH1 0x4 ADD PUSH2 0x13C3 SWAP1 PUSH2 0x247F JUMP JUMPDEST PUSH1 0x40 MLOAD DUP1 SWAP2 SUB SWAP1 REVERT JUMPDEST PUSH1 0x0 DUP3 PUSH1 0x40 MLOAD PUSH2 0x13DC SWAP2 SWAP1 PUSH2 0x205E JUMP JUMPDEST SWAP1 DUP2 MSTORE PUSH1 0x20 ADD PUSH1 0x40 MLOAD DUP1 SWAP2 SUB SWAP1 KECCAK256 PUSH1 0x40 MLOAD DUP1 PUSH2 0x120 ADD PUSH1 0x40 MSTORE SWAP1 DUP2 PUSH1 0x0 DUP3 ADD DUP1 SLOAD PUSH2 0x1406 SWAP1 PUSH2 0x1FF1 JUMP JUMPDEST DUP1 PUSH1 0x1F ADD PUSH1 0x20 DUP1 SWAP2 DIV MUL PUSH1 0x20 ADD PUSH1 0x40 MLOAD SWAP1 DUP2 ADD PUSH1 0x40 MSTORE DUP1 SWAP3 SWAP2 SWAP1 DUP2 DUP2 MSTORE PUSH1 0x20 ADD DUP3 DUP1 SLOAD PUSH2 0x1432 SWAP1 PUSH2 0x1FF1 JUMP JUMPDEST DUP1 ISZERO PUSH2 0x147F JUMPI DUP1 PUSH1 0x1F LT PUSH2 0x1454 JUMPI PUSH2 0x100 DUP1 DUP4 SLOAD DIV MUL DUP4 MSTORE SWAP2 PUSH1 0x20 ADD SWAP2 PUSH2 0x147F JUMP JUMPDEST DUP3 ADD SWAP2 SWAP1 PUSH1 0x0 MSTORE PUSH1 0x20 PUSH1 0x0 KECCAK256 SWAP1 JUMPDEST DUP2 SLOAD DUP2 MSTORE SWAP1 PUSH1 0x1 ADD SWAP1 PUSH1 0x20 ADD DUP1 DUP4 GT PUSH2 0x1462 JUMPI DUP3 SWAP1 SUB PUSH1 0x1F AND DUP3 ADD SWAP2 JUMPDEST POP POP POP POP POP DUP2 MSTORE PUSH1 0x20 ADD PUSH1 0x1 DUP3 ADD SLOAD DUP2 MSTORE PUSH1 0x20 ADD PUSH1 0x2 DUP3 ADD SLOAD DUP2 MSTORE PUSH1 0x20 ADD PUSH1 0x3 DUP3 ADD DUP1 SLOAD PUSH2 0x14AC SWAP1 PUSH2 0x1FF1 JUMP JUMPDEST DUP1 PUSH1 0x1F ADD PUSH1 0x20 DUP1 SWAP2 DIV MUL PUSH1 0x20 ADD PUSH1 0x40 MLOAD SWAP1 DUP2 ADD PUSH1 0x40 MSTORE DUP1 SWAP3 SWAP2 SWAP1 DUP2 DUP2 MSTORE PUSH1 0x20 ADD DUP3 DUP1 SLOAD PUSH2 0x14D8 SWAP1 PUSH2 0x1FF1 JUMP JUMPDEST DUP1 ISZERO PUSH2 0x1525 JUMPI DUP1 PUSH1 0x1F LT PUSH2 0x14FA JUMPI PUSH2 0x100 DUP1 DUP4 SLOAD DIV MUL DUP4 MSTORE SWAP2 PUSH1 0x20 ADD SWAP2 PUSH2 0x1525 JUMP JUMPDEST DUP3 ADD SWAP2 SWAP1 PUSH1 0x0 MSTORE PUSH1 0x20 PUSH1 0x0 KECCAK256 SWAP1 JUMPDEST DUP2 SLOAD DUP2 MSTORE SWAP1 PUSH1 0x1 ADD SWAP1 PUSH1 0x20 ADD DUP1 DUP4 GT PUSH2 0x1508 JUMPI DUP3 SWAP1 SUB PUSH1 0x1F AND DUP3 ADD SWAP2 JUMPDEST POP POP POP POP POP DUP2 MSTORE PUSH1 0x20 ADD PUSH1 0x4 DUP3 ADD DUP1 SLOAD PUSH2 0x153E SWAP1 PUSH2 0x1FF1 JUMP JUMPDEST DUP1 PUSH1 0x1F ADD PUSH1 0x20 DUP1 SWAP2 DIV MUL PUSH1 0x20 ADD PUSH1 0x40 MLOAD SWAP1 DUP2 ADD PUSH1 0x40 MSTORE DUP1 SWAP3 SWAP2 SWAP1 DUP2 DUP2 MSTORE PUSH1 0x20 ADD DUP3 DUP1 SLOAD PUSH2 0x156A SWAP1 PUSH2 0x1FF1 JUMP JUMPDEST DUP1 ISZERO PUSH2 0x15B7 JUMPI DUP1 PUSH1 0x1F LT PUSH2 0x158C JUMPI PUSH2 0x100 DUP1 DUP4 SLOAD DIV MUL DUP4 MSTORE SWAP2 PUSH1 0x20 ADD SWAP2 PUSH2 0x15B7 JUMP JUMPDEST DUP3 ADD SWAP2 SWAP1 PUSH1 0x0 MSTORE PUSH1 0x20 PUSH1 0x0 KECCAK256 SWAP1 JUMPDEST DUP2 SLOAD DUP2 MSTORE SWAP1 PUSH1 0x1 ADD SWAP1 PUSH1 0x20 ADD DUP1 DUP4 GT PUSH2 0x159A JUMPI DUP3 SWAP1 SUB PUSH1 0x1F AND DUP3 ADD SWAP2 JUMPDEST POP POP POP POP POP DUP2 MSTORE PUSH1 0x20 ADD PUSH1 0x5 DUP3 ADD DUP1 SLOAD PUSH2 0x15D0 SWAP1 PUSH2 0x1FF1 JUMP JUMPDEST DUP1 PUSH1 0x1F ADD PUSH1 0x20 DUP1 SWAP2 DIV MUL PUSH1 0x20 ADD PUSH1 0x40 MLOAD SWAP1 DUP2 ADD PUSH1 0x40 MSTORE DUP1 SWAP3 SWAP2 SWAP1 DUP2 DUP2 MSTORE PUSH1 0x20 ADD DUP3 DUP1 SLOAD PUSH2 0x15FC SWAP1 PUSH2 0x1FF1 JUMP JUMPDEST DUP1 ISZERO PUSH2 0x1649 JUMPI DUP1 PUSH1 0x1F LT PUSH2 0x161E JUMPI PUSH2 0x100 DUP1 DUP4 SLOAD DIV MUL DUP4 MSTORE SWAP2 PUSH1 0x20 ADD SWAP2 PUSH2 0x1649 JUMP JUMPDEST DUP3 ADD SWAP2 SWAP1 PUSH1 0x0 MSTORE PUSH1 0x20 PUSH1 0x0 KECCAK256 SWAP1 JUMPDEST DUP2 SLOAD DUP2 MSTORE SWAP1 PUSH1 0x1 ADD SWAP1 PUSH1 0x20 ADD DUP1 DUP4 GT PUSH2 0x162C JUMPI DUP3 SWAP1 SUB PUSH1 0x1F AND DUP3 ADD SWAP2 JUMPDEST POP POP POP POP POP DUP2 MSTORE PUSH1 0x20 ADD PUSH1 0x6 DUP3 ADD SLOAD DUP2 MSTORE PUSH1 0x20 ADD PUSH1 0x7 DUP3 ADD SLOAD DUP2 MSTORE PUSH1 0x20 ADD PUSH1 0x8 DUP3 ADD SLOAD DUP2 MSTORE POP POP SWAP1 POP SWAP2 SWAP1 POP JUMP JUMPDEST PUSH1 0x0 DUP1 DUP4 PUSH1 0x40 MLOAD PUSH2 0x1688 SWAP2 SWAP1 PUSH2 0x205E JUMP JUMPDEST SWAP1 DUP2 MSTORE PUSH1 0x20 ADD PUSH1 0x40 MLOAD DUP1 SWAP2 SUB SWAP1 KECCAK256 PUSH1 0x0 ADD DUP1 SLOAD PUSH2 0x16A4 SWAP1 PUSH2 0x1FF1 JUMP JUMPDEST SWAP1 POP SUB PUSH2 0x16E6 JUMPI PUSH1 0x40 MLOAD PUSH32 0x8C379A000000000000000000000000000000000000000000000000000000000 DUP2 MSTORE PUSH1 0x4 ADD PUSH2 0x16DD SWAP1 PUSH2 0x247F JUMP JUMPDEST PUSH1 0x40 MLOAD DUP1 SWAP2 SUB SWAP1 REVERT JUMPDEST DUP1 PUSH1 0x0 DUP4 PUSH1 0x40 MLOAD PUSH2 0x16F7 SWAP2 SWAP1 PUSH2 0x205E JUMP JUMPDEST SWAP1 DUP2 MSTORE PUSH1 0x20 ADD PUSH1 0x40 MLOAD DUP1 SWAP2 SUB SWAP1 KECCAK256 PUSH1 0x4 ADD SWAP1 DUP2 PUSH2 0x1714 SWAP2 SWAP1 PUSH2 0x2221 JUMP JUMPDEST POP PUSH32 0xC61FFB03925558D248FBA37B73270B12903D3F0BA5797AF8B71A9F8BF0761A98 DUP3 DUP3 PUSH1 0x40 MLOAD PUSH2 0x1746 SWAP3 SWAP2 SWAP1 PUSH2 0x249F JUMP JUMPDEST PUSH1 0x40 MLOAD DUP1 SWAP2 SUB SWAP1 LOG1 POP POP JUMP JUMPDEST PUSH1 0x40 MLOAD DUP1 PUSH2 0x120 ADD PUSH1 0x40 MSTORE DUP1 PUSH1 0x60 DUP2 MSTORE PUSH1 0x20 ADD PUSH1 0x0 DUP2 MSTORE PUSH1 0x20 ADD PUSH1 0x0 DUP2 MSTORE PUSH1 0x20 ADD PUSH1 0x60 DUP2 MSTORE PUSH1 0x20 ADD PUSH1 0x60 DUP2 MSTORE PUSH1 0x20 ADD PUSH1 0x60 DUP2 MSTORE PUSH1 0x20 ADD PUSH1 0x0 DUP2 MSTORE PUSH1 0x20 ADD PUSH1 0x0 DUP2 MSTORE PUSH1 0x20 ADD PUSH1 0x0 DUP2 MSTORE POP SWAP1 JUMP JUMPDEST PUSH1 0x0 PUSH1 0x40 MLOAD SWAP1 POP SWAP1 JUMP JUMPDEST PUSH1 0x0 DUP1 REVERT JUMPDEST PUSH1 0x0 DUP1 REVERT JUMPDEST PUSH1 0x0 DUP1 REVERT JUMPDEST PUSH1 0x0 DUP1 REVERT JUMPDEST PUSH1 0x0 PUSH1 0x1F NOT PUSH1 0x1F DUP4 ADD AND SWAP1 POP SWAP2 SWAP1 POP JUMP JUMPDEST PUSH32 0x4E487B7100000000000000000000000000000000000000000000000000000000 PUSH1 0x0 MSTORE PUSH1 0x41 PUSH1 0x4 MSTORE PUSH1 0x24 PUSH1 0x0 REVERT JUMPDEST PUSH2 0x1805 DUP3 PUSH2 0x17BC JUMP JUMPDEST DUP2 ADD DUP2 DUP2 LT PUSH8 0xFFFFFFFFFFFFFFFF DUP3 GT OR ISZERO PUSH2 0x1824 JUMPI PUSH2 0x1823 PUSH2 0x17CD JUMP JUMPDEST JUMPDEST DUP1 PUSH1 0x40 MSTORE POP POP POP JUMP JUMPDEST PUSH1 0x0 PUSH2 0x1837 PUSH2 0x179E JUMP JUMPDEST SWAP1 POP PUSH2 0x1843 DUP3 DUP3 PUSH2 0x17FC JUMP JUMPDEST SWAP2 SWAP1 POP JUMP JUMPDEST PUSH1 0x0 PUSH8 0xFFFFFFFFFFFFFFFF DUP3 GT ISZERO PUSH2 0x1863 JUMPI PUSH2 0x1862 PUSH2 0x17CD JUMP JUMPDEST JUMPDEST PUSH2 0x186C DUP3 PUSH2 0x17BC JUMP JUMPDEST SWAP1 POP PUSH1 0x20 DUP2 ADD SWAP1 POP SWAP2 SWAP1 POP JUMP JUMPDEST DUP3 DUP2 DUP4 CALLDATACOPY PUSH1 0x0 DUP4 DUP4 ADD MSTORE POP POP POP JUMP JUMPDEST PUSH1 0x0 PUSH2 0x189B PUSH2 0x1896 DUP5 PUSH2 0x1848 JUMP JUMPDEST PUSH2 0x182D JUMP JUMPDEST SWAP1 POP DUP3 DUP2 MSTORE PUSH1 0x20 DUP2 ADD DUP5 DUP5 DUP5 ADD GT ISZERO PUSH2 0x18B7 JUMPI PUSH2 0x18B6 PUSH2 0x17B7 JUMP JUMPDEST JUMPDEST PUSH2 0x18C2 DUP5 DUP3 DUP6 PUSH2 0x1879 JUMP JUMPDEST POP SWAP4 SWAP3 POP POP POP JUMP JUMPDEST PUSH1 0x0 DUP3 PUSH1 0x1F DUP4 ADD SLT PUSH2 0x18DF JUMPI PUSH2 0x18DE PUSH2 0x17B2 JUMP JUMPDEST JUMPDEST DUP2 CALLDATALOAD PUSH2 0x18EF DUP5 DUP3 PUSH1 0x20 DUP7 ADD PUSH2 0x1888 JUMP JUMPDEST SWAP2 POP POP SWAP3 SWAP2 POP POP JUMP JUMPDEST PUSH1 0x0 PUSH1 0x20 DUP3 DUP5 SUB SLT ISZERO PUSH2 0x190E JUMPI PUSH2 0x190D PUSH2 0x17A8 JUMP JUMPDEST JUMPDEST PUSH1 0x0 DUP3 ADD CALLDATALOAD PUSH8 0xFFFFFFFFFFFFFFFF DUP2 GT ISZERO PUSH2 0x192C JUMPI PUSH2 0x192B PUSH2 0x17AD JUMP JUMPDEST JUMPDEST PUSH2 0x1938 DUP5 DUP3 DUP6 ADD PUSH2 0x18CA JUMP JUMPDEST SWAP2 POP POP SWAP3 SWAP2 POP POP JUMP JUMPDEST PUSH1 0x0 DUP2 MLOAD SWAP1 POP SWAP2 SWAP1 POP JUMP JUMPDEST PUSH1 0x0 DUP3 DUP3 MSTORE PUSH1 0x20 DUP3 ADD SWAP1 POP SWAP3 SWAP2 POP POP JUMP JUMPDEST PUSH1 0x0 JUMPDEST DUP4 DUP2 LT ISZERO PUSH2 0x197B JUMPI DUP1 DUP3 ADD MLOAD DUP2 DUP5 ADD MSTORE PUSH1 0x20 DUP2 ADD SWAP1 POP PUSH2 0x1960 JUMP JUMPDEST PUSH1 0x0 DUP5 DUP5 ADD MSTORE POP POP POP POP JUMP JUMPDEST PUSH1 0x0 PUSH2 0x1992 DUP3 PUSH2 0x1941 JUMP JUMPDEST PUSH2 0x199C DUP2 DUP6 PUSH2 0x194C JUMP JUMPDEST SWAP4 POP PUSH2 0x19AC DUP2 DUP6 PUSH1 0x20 DUP7 ADD PUSH2 0x195D JUMP JUMPDEST PUSH2 0x19B5 DUP2 PUSH2 0x17BC JUMP JUMPDEST DUP5 ADD SWAP2 POP POP SWAP3 SWAP2 POP POP JUMP JUMPDEST PUSH1 0x0 DUP2 SWAP1 POP SWAP2 SWAP1 POP JUMP JUMPDEST PUSH2 0x19D3 DUP2 PUSH2 0x19C0 JUMP JUMPDEST DUP3 MSTORE POP POP JUMP JUMPDEST PUSH1 0x0 PUSH2 0x120 DUP3 ADD SWAP1 POP DUP2 DUP2 SUB PUSH1 0x0 DUP4 ADD MSTORE PUSH2 0x19F4 DUP2 DUP13 PUSH2 0x1987 JUMP JUMPDEST SWAP1 POP PUSH2 0x1A03 PUSH1 0x20 DUP4 ADD DUP12 PUSH2 0x19CA JUMP JUMPDEST PUSH2 0x1A10 PUSH1 0x40 DUP4 ADD DUP11 PUSH2 0x19CA JUMP JUMPDEST DUP2 DUP2 SUB PUSH1 0x60 DUP4 ADD MSTORE PUSH2 0x1A22 DUP2 DUP10 PUSH2 0x1987 JUMP JUMPDEST SWAP1 POP DUP2 DUP2 SUB PUSH1 0x80 DUP4 ADD MSTORE PUSH2 0x1A36 DUP2 DUP9 PUSH2 0x1987 JUMP JUMPDEST SWAP1 POP DUP2 DUP2 SUB PUSH1 0xA0 DUP4 ADD MSTORE PUSH2 0x1A4A DUP2 DUP8 PUSH2 0x1987 JUMP JUMPDEST SWAP1 POP PUSH2 0x1A59 PUSH1 0xC0 DUP4 ADD DUP7 PUSH2 0x19CA JUMP JUMPDEST PUSH2 0x1A66 PUSH1 0xE0 DUP4 ADD DUP6 PUSH2 0x19CA JUMP JUMPDEST PUSH2 0x1A74 PUSH2 0x100 DUP4 ADD DUP5 PUSH2 0x19CA JUMP JUMPDEST SWAP11 SWAP10 POP POP POP POP POP POP POP POP POP POP JUMP JUMPDEST PUSH2 0x1A8B DUP2 PUSH2 0x19C0 JUMP JUMPDEST DUP2 EQ PUSH2 0x1A96 JUMPI PUSH1 0x0 DUP1 REVERT JUMPDEST POP JUMP JUMPDEST PUSH1 0x0 DUP2 CALLDATALOAD SWAP1 POP PUSH2 0x1AA8 DUP2 PUSH2 0x1A82 JUMP JUMPDEST SWAP3 SWAP2 POP POP JUMP JUMPDEST PUSH1 0x0 DUP1 PUSH1 0x0 DUP1 PUSH1 0x0 DUP1 PUSH1 0x0 DUP1 PUSH1 0x0 PUSH2 0x120 DUP11 DUP13 SUB SLT ISZERO PUSH2 0x1AD1 JUMPI PUSH2 0x1AD0 PUSH2 0x17A8 JUMP JUMPDEST JUMPDEST PUSH1 0x0 DUP11 ADD CALLDATALOAD PUSH8 0xFFFFFFFFFFFFFFFF DUP2 GT ISZERO PUSH2 0x1AEF JUMPI PUSH2 0x1AEE PUSH2 0x17AD JUMP JUMPDEST JUMPDEST PUSH2 0x1AFB DUP13 DUP3 DUP14 ADD PUSH2 0x18CA JUMP JUMPDEST SWAP10 POP POP PUSH1 0x20 PUSH2 0x1B0C DUP13 DUP3 DUP14 ADD PUSH2 0x1A99 JUMP JUMPDEST SWAP9 POP POP PUSH1 0x40 PUSH2 0x1B1D DUP13 DUP3 DUP14 ADD PUSH2 0x1A99 JUMP JUMPDEST SWAP8 POP POP PUSH1 0x60 DUP11 ADD CALLDATALOAD PUSH8 0xFFFFFFFFFFFFFFFF DUP2 GT ISZERO PUSH2 0x1B3E JUMPI PUSH2 0x1B3D PUSH2 0x17AD JUMP JUMPDEST JUMPDEST PUSH2 0x1B4A DUP13 DUP3 DUP14 ADD PUSH2 0x18CA JUMP JUMPDEST SWAP7 POP POP PUSH1 0x80 DUP11 ADD CALLDATALOAD PUSH8 0xFFFFFFFFFFFFFFFF DUP2 GT ISZERO PUSH2 0x1B6B JUMPI PUSH2 0x1B6A PUSH2 0x17AD JUMP JUMPDEST JUMPDEST PUSH2 0x1B77 DUP13 DUP3 DUP14 ADD PUSH2 0x18CA JUMP JUMPDEST SWAP6 POP POP PUSH1 0xA0 DUP11 ADD CALLDATALOAD PUSH8 0xFFFFFFFFFFFFFFFF DUP2 GT ISZERO PUSH2 0x1B98 JUMPI PUSH2 0x1B97 PUSH2 0x17AD JUMP JUMPDEST JUMPDEST PUSH2 0x1BA4 DUP13 DUP3 DUP14 ADD PUSH2 0x18CA JUMP JUMPDEST SWAP5 POP POP PUSH1 0xC0 PUSH2 0x1BB5 DUP13 DUP3 DUP14 ADD PUSH2 0x1A99 JUMP JUMPDEST SWAP4 POP POP PUSH1 0xE0 PUSH2 0x1BC6 DUP13 DUP3 DUP14 ADD PUSH2 0x1A99 JUMP JUMPDEST SWAP3 POP POP PUSH2 0x100 PUSH2 0x1BD8 DUP13 DUP3 DUP14 ADD PUSH2 0x1A99 JUMP JUMPDEST SWAP2 POP POP SWAP3 SWAP6 SWAP9 POP SWAP3 SWAP6 SWAP9 POP SWAP3 SWAP6 SWAP9 JUMP JUMPDEST PUSH1 0x0 DUP2 MLOAD SWAP1 POP SWAP2 SWAP1 POP JUMP JUMPDEST PUSH1 0x0 DUP3 DUP3 MSTORE PUSH1 0x20 DUP3 ADD SWAP1 POP SWAP3 SWAP2 POP POP JUMP JUMPDEST PUSH1 0x0 DUP2 SWAP1 POP PUSH1 0x20 DUP3 ADD SWAP1 POP SWAP2 SWAP1 POP JUMP JUMPDEST PUSH1 0x0 DUP3 DUP3 MSTORE PUSH1 0x20 DUP3 ADD SWAP1 POP SWAP3 SWAP2 POP POP JUMP JUMPDEST PUSH1 0x0 PUSH2 0x1C30 DUP3 PUSH2 0x1941 JUMP JUMPDEST PUSH2 0x1C3A DUP2 DUP6 PUSH2 0x1C14 JUMP JUMPDEST SWAP4 POP PUSH2 0x1C4A DUP2 DUP6 PUSH1 0x20 DUP7 ADD PUSH2 0x195D JUMP JUMPDEST PUSH2 0x1C53 DUP2 PUSH2 0x17BC JUMP JUMPDEST DUP5 ADD SWAP2 POP POP SWAP3 SWAP2 POP POP JUMP JUMPDEST PUSH2 0x1C67 DUP2 PUSH2 0x19C0 JUMP JUMPDEST DUP3 MSTORE POP POP JUMP JUMPDEST PUSH1 0x0 PUSH2 0x120 DUP4 ADD PUSH1 0x0 DUP4 ADD MLOAD DUP5 DUP3 SUB PUSH1 0x0 DUP7 ADD MSTORE PUSH2 0x1C8B DUP3 DUP3 PUSH2 0x1C25 JUMP JUMPDEST SWAP2 POP POP PUSH1 0x20 DUP4 ADD MLOAD PUSH2 0x1CA0 PUSH1 0x20 DUP7 ADD DUP3 PUSH2 0x1C5E JUMP JUMPDEST POP PUSH1 0x40 DUP4 ADD MLOAD PUSH2 0x1CB3 PUSH1 0x40 DUP7 ADD DUP3 PUSH2 0x1C5E JUMP JUMPDEST POP PUSH1 0x60 DUP4 ADD MLOAD DUP5 DUP3 SUB PUSH1 0x60 DUP7 ADD MSTORE PUSH2 0x1CCB DUP3 DUP3 PUSH2 0x1C25 JUMP JUMPDEST SWAP2 POP POP PUSH1 0x80 DUP4 ADD MLOAD DUP5 DUP3 SUB PUSH1 0x80 DUP7 ADD MSTORE PUSH2 0x1CE5 DUP3 DUP3 PUSH2 0x1C25 JUMP JUMPDEST SWAP2 POP POP PUSH1 0xA0 DUP4 ADD MLOAD DUP5 DUP3 SUB PUSH1 0xA0 DUP7 ADD MSTORE PUSH2 0x1CFF DUP3 DUP3 PUSH2 0x1C25 JUMP JUMPDEST SWAP2 POP POP PUSH1 0xC0 DUP4 ADD MLOAD PUSH2 0x1D14 PUSH1 0xC0 DUP7 ADD DUP3 PUSH2 0x1C5E JUMP JUMPDEST POP PUSH1 0xE0 DUP4 ADD MLOAD PUSH2 0x1D27 PUSH1 0xE0 DUP7 ADD DUP3 PUSH2 0x1C5E JUMP JUMPDEST POP PUSH2 0x100 DUP4 ADD MLOAD PUSH2 0x1D3C PUSH2 0x100 DUP7 ADD DUP3 PUSH2 0x1C5E JUMP JUMPDEST POP DUP1 SWAP2 POP POP SWAP3 SWAP2 POP POP JUMP JUMPDEST PUSH1 0x0 PUSH2 0x1D53 DUP4 DUP4 PUSH2 0x1C6D JUMP JUMPDEST SWAP1 POP SWAP3 SWAP2 POP POP JUMP JUMPDEST PUSH1 0x0 PUSH1 0x20 DUP3 ADD SWAP1 POP SWAP2 SWAP1 POP JUMP JUMPDEST PUSH1 0x0 PUSH2 0x1D73 DUP3 PUSH2 0x1BE8 JUMP JUMPDEST PUSH2 0x1D7D DUP2 DUP6 PUSH2 0x1BF3 JUMP JUMPDEST SWAP4 POP DUP4 PUSH1 0x20 DUP3 MUL DUP6 ADD PUSH2 0x1D8F DUP6 PUSH2 0x1C04 JUMP JUMPDEST DUP1 PUSH1 0x0 JUMPDEST DUP6 DUP2 LT ISZERO PUSH2 0x1DCB JUMPI DUP5 DUP5 SUB DUP10 MSTORE DUP2 MLOAD PUSH2 0x1DAC DUP6 DUP3 PUSH2 0x1D47 JUMP JUMPDEST SWAP5 POP PUSH2 0x1DB7 DUP4 PUSH2 0x1D5B JUMP JUMPDEST SWAP3 POP PUSH1 0x20 DUP11 ADD SWAP10 POP POP PUSH1 0x1 DUP2 ADD SWAP1 POP PUSH2 0x1D93 JUMP JUMPDEST POP DUP3 SWAP8 POP DUP8 SWAP6 POP POP POP POP POP POP SWAP3 SWAP2 POP POP JUMP JUMPDEST PUSH1 0x0 PUSH1 0x20 DUP3 ADD SWAP1 POP DUP2 DUP2 SUB PUSH1 0x0 DUP4 ADD MSTORE PUSH2 0x1DF7 DUP2 DUP5 PUSH2 0x1D68 JUMP JUMPDEST SWAP1 POP SWAP3 SWAP2 POP POP JUMP JUMPDEST PUSH1 0x0 PUSH1 0x20 DUP3 DUP5 SUB SLT ISZERO PUSH2 0x1E15 JUMPI PUSH2 0x1E14 PUSH2 0x17A8 JUMP JUMPDEST JUMPDEST PUSH1 0x0 PUSH2 0x1E23 DUP5 DUP3 DUP6 ADD PUSH2 0x1A99 JUMP JUMPDEST SWAP2 POP POP SWAP3 SWAP2 POP POP JUMP JUMPDEST PUSH1 0x0 DUP1 PUSH1 0x40 DUP4 DUP6 SUB SLT ISZERO PUSH2 0x1E43 JUMPI PUSH2 0x1E42 PUSH2 0x17A8 JUMP JUMPDEST JUMPDEST PUSH1 0x0 DUP4 ADD CALLDATALOAD PUSH8 0xFFFFFFFFFFFFFFFF DUP2 GT ISZERO PUSH2 0x1E61 JUMPI PUSH2 0x1E60 PUSH2 0x17AD JUMP JUMPDEST JUMPDEST PUSH2 0x1E6D DUP6 DUP3 DUP7 ADD PUSH2 0x18CA JUMP JUMPDEST SWAP3 POP POP PUSH1 0x20 DUP4 ADD CALLDATALOAD PUSH8 0xFFFFFFFFFFFFFFFF DUP2 GT ISZERO PUSH2 0x1E8E JUMPI PUSH2 0x1E8D PUSH2 0x17AD JUMP JUMPDEST JUMPDEST PUSH2 0x1E9A DUP6 DUP3 DUP7 ADD PUSH2 0x18CA JUMP JUMPDEST SWAP2 POP POP SWAP3 POP SWAP3 SWAP1 POP JUMP JUMPDEST PUSH1 0x0 PUSH1 0x20 DUP3 ADD SWAP1 POP DUP2 DUP2 SUB PUSH1 0x0 DUP4 ADD MSTORE PUSH2 0x1EBE DUP2 DUP5 PUSH2 0x1987 JUMP JUMPDEST SWAP1 POP SWAP3 SWAP2 POP POP JUMP JUMPDEST PUSH1 0x0 PUSH2 0x120 DUP4 ADD PUSH1 0x0 DUP4 ADD MLOAD DUP5 DUP3 SUB PUSH1 0x0 DUP7 ADD MSTORE PUSH2 0x1EE4 DUP3 DUP3 PUSH2 0x1C25 JUMP JUMPDEST SWAP2 POP POP PUSH1 0x20 DUP4 ADD MLOAD PUSH2 0x1EF9 PUSH1 0x20 DUP7 ADD DUP3 PUSH2 0x1C5E JUMP JUMPDEST POP PUSH1 0x40 DUP4 ADD MLOAD PUSH2 0x1F0C PUSH1 0x40 DUP7 ADD DUP3 PUSH2 0x1C5E JUMP JUMPDEST POP PUSH1 0x60 DUP4 ADD MLOAD DUP5 DUP3 SUB PUSH1 0x60 DUP7 ADD MSTORE PUSH2 0x1F24 DUP3 DUP3 PUSH2 0x1C25 JUMP JUMPDEST SWAP2 POP POP PUSH1 0x80 DUP4 ADD MLOAD DUP5 DUP3 SUB PUSH1 0x80 DUP7 ADD MSTORE PUSH2 0x1F3E DUP3 DUP3 PUSH2 0x1C25 JUMP JUMPDEST SWAP2 POP POP PUSH1 0xA0 DUP4 ADD MLOAD DUP5 DUP3 SUB PUSH1 0xA0 DUP7 ADD MSTORE PUSH2 0x1F58 DUP3 DUP3 PUSH2 0x1C25 JUMP JUMPDEST SWAP2 POP POP PUSH1 0xC0 DUP4 ADD MLOAD PUSH2 0x1F6D PUSH1 0xC0 DUP7 ADD DUP3 PUSH2 0x1C5E JUMP JUMPDEST POP PUSH1 0xE0 DUP4 ADD MLOAD PUSH2 0x1F80 PUSH1 0xE0 DUP7 ADD DUP3 PUSH2 0x1C5E JUMP JUMPDEST POP PUSH2 0x100 DUP4 ADD MLOAD PUSH2 0x1F95 PUSH2 0x100 DUP7 ADD DUP3 PUSH2 0x1C5E JUMP JUMPDEST POP DUP1 SWAP2 POP POP SWAP3 SWAP2 POP POP JUMP JUMPDEST PUSH1 0x0 PUSH1 0x20 DUP3 ADD SWAP1 POP DUP2 DUP2 SUB PUSH1 0x0 DUP4 ADD MSTORE PUSH2 0x1FBA DUP2 DUP5 PUSH2 0x1EC6 JUMP JUMPDEST SWAP1 POP SWAP3 SWAP2 POP POP JUMP JUMPDEST PUSH32 0x4E487B7100000000000000000000000000000000000000000000000000000000 PUSH1 0x0 MSTORE PUSH1 0x22 PUSH1 0x4 MSTORE PUSH1 0x24 PUSH1 0x0 REVERT JUMPDEST PUSH1 0x0 PUSH1 0x2 DUP3 DIV SWAP1 POP PUSH1 0x1 DUP3 AND DUP1 PUSH2 0x2009 JUMPI PUSH1 0x7F DUP3 AND SWAP2 POP JUMPDEST PUSH1 0x20 DUP3 LT DUP2 SUB PUSH2 0x201C JUMPI PUSH2 0x201B PUSH2 0x1FC2 JUMP JUMPDEST JUMPDEST POP SWAP2 SWAP1 POP JUMP JUMPDEST PUSH1 0x0 DUP2 SWAP1 POP SWAP3 SWAP2 POP POP JUMP JUMPDEST PUSH1 0x0 PUSH2 0x2038 DUP3 PUSH2 0x1941 JUMP JUMPDEST PUSH2 0x2042 DUP2 DUP6 PUSH2 0x2022 JUMP JUMPDEST SWAP4 POP PUSH2 0x2052 DUP2 DUP6 PUSH1 0x20 DUP7 ADD PUSH2 0x195D JUMP JUMPDEST DUP1 DUP5 ADD SWAP2 POP POP SWAP3 SWAP2 POP POP JUMP JUMPDEST PUSH1 0x0 PUSH2 0x206A DUP3 DUP5 PUSH2 0x202D JUMP JUMPDEST SWAP2 POP DUP2 SWAP1 POP SWAP3 SWAP2 POP POP JUMP JUMPDEST PUSH1 0x0 DUP2 SWAP1 POP DUP2 PUSH1 0x0 MSTORE PUSH1 0x20 PUSH1 0x0 KECCAK256 SWAP1 POP SWAP2 SWAP1 POP JUMP JUMPDEST PUSH1 0x0 PUSH1 0x20 PUSH1 0x1F DUP4 ADD DIV SWAP1 POP SWAP2 SWAP1 POP JUMP JUMPDEST PUSH1 0x0 DUP3 DUP3 SHL SWAP1 POP SWAP3 SWAP2 POP POP JUMP JUMPDEST PUSH1 0x0 PUSH1 0x8 DUP4 MUL PUSH2 0x20D7 PUSH32 0xFFFFFFFFFFFFFFFFFFFFFFFFFFFFFFFFFFFFFFFFFFFFFFFFFFFFFFFFFFFFFFFF DUP3 PUSH2 0x209A JUMP JUMPDEST PUSH2 0x20E1 DUP7 DUP4 PUSH2 0x209A JUMP JUMPDEST SWAP6 POP DUP1 NOT DUP5 AND SWAP4 POP DUP1 DUP7 AND DUP5 OR SWAP3 POP POP POP SWAP4 SWAP3 POP POP POP JUMP JUMPDEST PUSH1 0x0 DUP2 SWAP1 POP SWAP2 SWAP1 POP JUMP JUMPDEST PUSH1 0x0 PUSH2 0x211E PUSH2 0x2119 PUSH2 0x2114 DUP5 PUSH2 0x19C0 JUMP JUMPDEST PUSH2 0x20F9 JUMP JUMPDEST PUSH2 0x19C0 JUMP JUMPDEST SWAP1 POP SWAP2 SWAP1 POP JUMP JUMPDEST PUSH1 0x0 DUP2 SWAP1 POP SWAP2 SWAP1 POP JUMP JUMPDEST PUSH2 0x2138 DUP4 PUSH2 0x2103 JUMP JUMPDEST PUSH2 0x214C PUSH2 0x2144 DUP3 PUSH2 0x2125 JUMP JUMPDEST DUP5 DUP5 SLOAD PUSH2 0x20A7 JUMP JUMPDEST DUP3 SSTORE POP POP POP POP JUMP JUMPDEST PUSH1 0x0 SWAP1 JUMP JUMPDEST PUSH2 0x2161 PUSH2 0x2154 JUMP JUMPDEST PUSH2 0x216C DUP2 DUP5 DUP5 PUSH2 0x212F JUMP JUMPDEST POP POP POP JUMP JUMPDEST JUMPDEST DUP2 DUP2 LT ISZERO PUSH2 0x2190 JUMPI PUSH2 0x2185 PUSH1 0x0 DUP3 PUSH2 0x2159 JUMP JUMPDEST PUSH1 0x1 DUP2 ADD SWAP1 POP PUSH2 0x2172 JUMP JUMPDEST POP POP JUMP JUMPDEST PUSH1 0x1F DUP3 GT ISZERO PUSH2 0x21D5 JUMPI PUSH2 0x21A6 DUP2 PUSH2 0x2075 JUMP JUMPDEST PUSH2 0x21AF DUP5 PUSH2 0x208A JUMP JUMPDEST DUP2 ADD PUSH1 0x20 DUP6 LT ISZERO PUSH2 0x21BE JUMPI DUP2 SWAP1 POP JUMPDEST PUSH2 0x21D2 PUSH2 0x21CA DUP6 PUSH2 0x208A JUMP JUMPDEST DUP4 ADD DUP3 PUSH2 0x2171 JUMP JUMPDEST POP POP JUMPDEST POP POP POP JUMP JUMPDEST PUSH1 0x0 DUP3 DUP3 SHR SWAP1 POP SWAP3 SWAP2 POP POP JUMP JUMPDEST PUSH1 0x0 PUSH2 0x21F8 PUSH1 0x0 NOT DUP5 PUSH1 0x8 MUL PUSH2 0x21DA JUMP JUMPDEST NOT DUP1 DUP4 AND SWAP2 POP POP SWAP3 SWAP2 POP POP JUMP JUMPDEST PUSH1 0x0 PUSH2 0x2211 DUP4 DUP4 PUSH2 0x21E7 JUMP JUMPDEST SWAP2 POP DUP3 PUSH1 0x2 MUL DUP3 OR SWAP1 POP SWAP3 SWAP2 POP POP JUMP JUMPDEST PUSH2 0x222A DUP3 PUSH2 0x1941 JUMP JUMPDEST PUSH8 0xFFFFFFFFFFFFFFFF DUP2 GT ISZERO PUSH2 0x2243 JUMPI PUSH2 0x2242 PUSH2 0x17CD JUMP JUMPDEST JUMPDEST PUSH2 0x224D DUP3 SLOAD PUSH2 0x1FF1 JUMP JUMPDEST PUSH2 0x2258 DUP3 DUP3 DUP6 PUSH2 0x2194 JUMP JUMPDEST PUSH1 0x0 PUSH1 0x20 SWAP1 POP PUSH1 0x1F DUP4 GT PUSH1 0x1 DUP2 EQ PUSH2 0x228B JUMPI PUSH1 0x0 DUP5 ISZERO PUSH2 0x2279 JUMPI DUP3 DUP8 ADD MLOAD SWAP1 POP JUMPDEST PUSH2 0x2283 DUP6 DUP3 PUSH2 0x2205 JUMP JUMPDEST DUP7 SSTORE POP PUSH2 0x22EB JUMP JUMPDEST PUSH1 0x1F NOT DUP5 AND PUSH2 0x2299 DUP7 PUSH2 0x2075 JUMP JUMPDEST PUSH1 0x0 JUMPDEST DUP3 DUP2 LT ISZERO PUSH2 0x22C1 JUMPI DUP5 DUP10 ADD MLOAD DUP3 SSTORE PUSH1 0x1 DUP3 ADD SWAP2 POP PUSH1 0x20 DUP6 ADD SWAP5 POP PUSH1 0x20 DUP2 ADD SWAP1 POP PUSH2 0x229C JUMP JUMPDEST DUP7 DUP4 LT ISZERO PUSH2 0x22DE JUMPI DUP5 DUP10 ADD MLOAD PUSH2 0x22DA PUSH1 0x1F DUP10 AND DUP3 PUSH2 0x21E7 JUMP JUMPDEST DUP4 SSTORE POP JUMPDEST PUSH1 0x1 PUSH1 0x2 DUP9 MUL ADD DUP9 SSTORE POP POP POP JUMPDEST POP POP POP POP POP POP JUMP JUMPDEST PUSH32 0x4E487B7100000000000000000000000000000000000000000000000000000000 PUSH1 0x0 MSTORE PUSH1 0x32 PUSH1 0x4 MSTORE PUSH1 0x24 PUSH1 0x0 REVERT JUMPDEST PUSH1 0x0 DUP2 SLOAD PUSH2 0x232F DUP2 PUSH2 0x1FF1 JUMP JUMPDEST PUSH2 0x2339 DUP2 DUP7 PUSH2 0x2022 JUMP JUMPDEST SWAP5 POP PUSH1 0x1 DUP3 AND PUSH1 0x0 DUP2 EQ PUSH2 0x2354 JUMPI PUSH1 0x1 DUP2 EQ PUSH2 0x2369 JUMPI PUSH2 0x239C JUMP JUMPDEST PUSH1 0xFF NOT DUP4 AND DUP7 MSTORE DUP2 ISZERO ISZERO DUP3 MUL DUP7 ADD SWAP4 POP PUSH2 0x239C JUMP JUMPDEST PUSH2 0x2372 DUP6 PUSH2 0x2075 JUMP JUMPDEST PUSH1 0x0 JUMPDEST DUP4 DUP2 LT ISZERO PUSH2 0x2394 JUMPI DUP2 SLOAD DUP2 DUP10 ADD MSTORE PUSH1 0x1 DUP3 ADD SWAP2 POP PUSH1 0x20 DUP2 ADD SWAP1 POP PUSH2 0x2375 JUMP JUMPDEST DUP4 DUP9 ADD SWAP6 POP POP POP JUMPDEST POP POP POP SWAP3 SWAP2 POP POP JUMP JUMPDEST PUSH1 0x0 PUSH2 0x23B1 DUP3 DUP5 PUSH2 0x2322 JUMP JUMPDEST SWAP2 POP DUP2 SWAP1 POP SWAP3 SWAP2 POP POP JUMP JUMPDEST PUSH32 0x4E487B7100000000000000000000000000000000000000000000000000000000 PUSH1 0x0 MSTORE PUSH1 0x11 PUSH1 0x4 MSTORE PUSH1 0x24 PUSH1 0x0 REVERT JUMPDEST PUSH1 0x0 PUSH2 0x23F6 DUP3 PUSH2 0x19C0 JUMP JUMPDEST SWAP2 POP PUSH32 0xFFFFFFFFFFFFFFFFFFFFFFFFFFFFFFFFFFFFFFFFFFFFFFFFFFFFFFFFFFFFFFFF DUP3 SUB PUSH2 0x2428 JUMPI PUSH2 0x2427 PUSH2 0x23BC JUMP JUMPDEST JUMPDEST PUSH1 0x1 DUP3 ADD SWAP1 POP SWAP2 SWAP1 POP JUMP JUMPDEST PUSH32 0x5472616E73616374696F6E20646F6573206E6F74206578697374000000000000 PUSH1 0x0 DUP3 ADD MSTORE POP JUMP JUMPDEST PUSH1 0x0 PUSH2 0x2469 PUSH1 0x1A DUP4 PUSH2 0x194C JUMP JUMPDEST SWAP2 POP PUSH2 0x2474 DUP3 PUSH2 0x2433 JUMP JUMPDEST PUSH1 0x20 DUP3 ADD SWAP1 POP SWAP2 SWAP1 POP JUMP JUMPDEST PUSH1 0x0 PUSH1 0x20 DUP3 ADD SWAP1 POP DUP2 DUP2 SUB PUSH1 0x0 DUP4 ADD MSTORE PUSH2 0x2498 DUP2 PUSH2 0x245C JUMP JUMPDEST SWAP1 POP SWAP2 SWAP1 POP JUMP JUMPDEST PUSH1 0x0 PUSH1 0x40 DUP3 ADD SWAP1 POP DUP2 DUP2 SUB PUSH1 0x0 DUP4 ADD MSTORE PUSH2 0x24B9 DUP2 DUP6 PUSH2 0x1987 JUMP JUMPDEST SWAP1 POP DUP2 DUP2 SUB PUSH1 0x20 DUP4 ADD MSTORE PUSH2 0x24CD DUP2 DUP5 PUSH2 0x1987 JUMP JUMPDEST SWAP1 POP SWAP4 SWAP3 POP POP POP JUMP INVALID LOG2 PUSH5 0x6970667358 0x22 SLT KECCAK256 PUSH20 0x1CE6053D45CF2C061081613E687DC43D887956B7 0x2E 0xC8 0xC4 0xC2 0xD4 JUMPI MSTORE8 0xDD 0xE5 0xE 0xFC PUSH5 0x736F6C6343 STOP ADDMOD LT STOP CALLER "
				},
				"gasEstimates": {
					"creation": {
						"codeDepositCost": "1896800",
						"executionCost": "2005",
						"totalCost": "1898805"
					},
					"external": {
						"addTransaction(string,uint256,uint256,string,string,string,uint256,uint256,uint256)": "infinite",
						"getAllTransactions()": "infinite",
						"getTransactionByCampaignId(uint256)": "infinite",
						"getTransactionByCode(string)": "infinite",
						"getTransactionByFromToUserId(uint256)": "infinite",
						"transactionCodes(uint256)": "infinite",
						"transactions(string)": "infinite",
						"updatePaymentStatus(string,string)": "infinite",
						"updateStatus(string,string)": "infinite"
					}
				},
				"methodIdentifiers": {
					"addTransaction(string,uint256,uint256,string,string,string,uint256,uint256,uint256)": "21a1c63a",
					"getAllTransactions()": "27506f53",
					"getTransactionByCampaignId(uint256)": "43287e30",
					"getTransactionByCode(string)": "d339b0ec",
					"getTransactionByFromToUserId(uint256)": "2faa0cca",
					"transactionCodes(uint256)": "7ce99c58",
					"transactions(string)": "022236f4",
					"updatePaymentStatus(string,string)": "fff50461",
					"updateStatus(string,string)": "347047cc"
				}
			},
			"storageLayout": {
				"storage": [
					{
						"astId": 25,
						"contract": "contracts/TransactionContract8Juni.sol:TransactionContract",
						"label": "transactions",
						"offset": 0,
						"slot": "0",
						"type": "t_mapping(t_string_memory_ptr,t_struct(Transaction)20_storage)"
					},
					{
						"astId": 28,
						"contract": "contracts/TransactionContract8Juni.sol:TransactionContract",
						"label": "transactionCodes",
						"offset": 0,
						"slot": "1",
						"type": "t_array(t_string_storage)dyn_storage"
					}
				],
				"types": {
					"t_array(t_string_storage)dyn_storage": {
						"base": "t_string_storage",
						"encoding": "dynamic_array",
						"label": "string[]",
						"numberOfBytes": "32"
					},
					"t_mapping(t_string_memory_ptr,t_struct(Transaction)20_storage)": {
						"encoding": "mapping",
						"key": "t_string_memory_ptr",
						"label": "mapping(string => struct TransactionContract.Transaction)",
						"numberOfBytes": "32",
						"value": "t_struct(Transaction)20_storage"
					},
					"t_string_memory_ptr": {
						"encoding": "bytes",
						"label": "string",
						"numberOfBytes": "32"
					},
					"t_string_storage": {
						"encoding": "bytes",
						"label": "string",
						"numberOfBytes": "32"
					},
					"t_struct(Transaction)20_storage": {
						"encoding": "inplace",
						"label": "struct TransactionContract.Transaction",
						"members": [
							{
								"astId": 3,
								"contract": "contracts/TransactionContract8Juni.sol:TransactionContract",
								"label": "transactionCode",
								"offset": 0,
								"slot": "0",
								"type": "t_string_storage"
							},
							{
								"astId": 5,
								"contract": "contracts/TransactionContract8Juni.sol:TransactionContract",
								"label": "campaignId",
								"offset": 0,
								"slot": "1",
								"type": "t_uint256"
							},
							{
								"astId": 7,
								"contract": "contracts/TransactionContract8Juni.sol:TransactionContract",
								"label": "fromToUserId",
								"offset": 0,
								"slot": "2",
								"type": "t_uint256"
							},
							{
								"astId": 9,
								"contract": "contracts/TransactionContract8Juni.sol:TransactionContract",
								"label": "orderType",
								"offset": 0,
								"slot": "3",
								"type": "t_string_storage"
							},
							{
								"astId": 11,
								"contract": "contracts/TransactionContract8Juni.sol:TransactionContract",
								"label": "paymentStatus",
								"offset": 0,
								"slot": "4",
								"type": "t_string_storage"
							},
							{
								"astId": 13,
								"contract": "contracts/TransactionContract8Juni.sol:TransactionContract",
								"label": "status",
								"offset": 0,
								"slot": "5",
								"type": "t_string_storage"
							},
							{
								"astId": 15,
								"contract": "contracts/TransactionContract8Juni.sol:TransactionContract",
								"label": "quantity",
								"offset": 0,
								"slot": "6",
								"type": "t_uint256"
							},
							{
								"astId": 17,
								"contract": "contracts/TransactionContract8Juni.sol:TransactionContract",
								"label": "totalPrice",
								"offset": 0,
								"slot": "7",
								"type": "t_uint256"
							},
							{
								"astId": 19,
								"contract": "contracts/TransactionContract8Juni.sol:TransactionContract",
								"label": "createdAt",
								"offset": 0,
								"slot": "8",
								"type": "t_uint256"
							}
						],
						"numberOfBytes": "288"
					},
					"t_uint256": {
						"encoding": "inplace",
						"label": "uint256",
						"numberOfBytes": "32"
					}
				}
			},
			"userdoc": {
				"kind": "user",
				"methods": {},
				"version": 1
			}
		}
	}
}