{
	"contracts/TransactionTransactionDetailContract.sol": {
		"TransactionContract": {
			"abi": [
				{
					"inputs": [
						{
							"internalType": "string",
							"name": "_transactionCode",
							"type": "string"
						},
						{
							"internalType": "string",
							"name": "_buyer",
							"type": "string"
						},
						{
							"internalType": "string",
							"name": "_buyerId",
							"type": "string"
						},
						{
							"internalType": "string",
							"name": "_sellerCompany",
							"type": "string"
						},
						{
							"internalType": "string",
							"name": "_sellerId",
							"type": "string"
						},
						{
							"internalType": "uint256",
							"name": "_sumOfProduct",
							"type": "uint256"
						},
						{
							"internalType": "string",
							"name": "_totalPrice",
							"type": "string"
						},
						{
							"internalType": "string",
							"name": "_paymentStatus",
							"type": "string"
						},
						{
							"internalType": "uint256",
							"name": "_createdAt",
							"type": "uint256"
						}
					],
					"name": "addTransaction",
					"outputs": [],
					"stateMutability": "nonpayable",
					"type": "function"
				},
				{
					"inputs": [],
					"name": "getAllTransaction",
					"outputs": [
						{
							"components": [
								{
									"internalType": "uint256",
									"name": "transactionId",
									"type": "uint256"
								},
								{
									"internalType": "string",
									"name": "transactionCode",
									"type": "string"
								},
								{
									"internalType": "string",
									"name": "buyer",
									"type": "string"
								},
								{
									"internalType": "string",
									"name": "buyerId",
									"type": "string"
								},
								{
									"internalType": "string",
									"name": "sellerCompany",
									"type": "string"
								},
								{
									"internalType": "string",
									"name": "sellerId",
									"type": "string"
								},
								{
									"internalType": "uint256",
									"name": "sumOfProduct",
									"type": "uint256"
								},
								{
									"internalType": "string",
									"name": "totalPrice",
									"type": "string"
								},
								{
									"internalType": "string",
									"name": "paymentStatus",
									"type": "string"
								},
								{
									"internalType": "uint256",
									"name": "createdAt",
									"type": "uint256"
								}
							],
							"internalType": "struct TransactionContract.Transaction[]",
							"name": "",
							"type": "tuple[]"
						}
					],
					"stateMutability": "view",
					"type": "function"
				},
				{
					"inputs": [
						{
							"internalType": "uint256",
							"name": "_transactionId",
							"type": "uint256"
						}
					],
					"name": "getTransaction",
					"outputs": [
						{
							"components": [
								{
									"internalType": "uint256",
									"name": "transactionId",
									"type": "uint256"
								},
								{
									"internalType": "string",
									"name": "transactionCode",
									"type": "string"
								},
								{
									"internalType": "string",
									"name": "buyer",
									"type": "string"
								},
								{
									"internalType": "string",
									"name": "buyerId",
									"type": "string"
								},
								{
									"internalType": "string",
									"name": "sellerCompany",
									"type": "string"
								},
								{
									"internalType": "string",
									"name": "sellerId",
									"type": "string"
								},
								{
									"internalType": "uint256",
									"name": "sumOfProduct",
									"type": "uint256"
								},
								{
									"internalType": "string",
									"name": "totalPrice",
									"type": "string"
								},
								{
									"internalType": "string",
									"name": "paymentStatus",
									"type": "string"
								},
								{
									"internalType": "uint256",
									"name": "createdAt",
									"type": "uint256"
								}
							],
							"internalType": "struct TransactionContract.Transaction",
							"name": "",
							"type": "tuple"
						}
					],
					"stateMutability": "view",
					"type": "function"
				},
				{
					"inputs": [
						{
							"internalType": "string",
							"name": "_buyerId",
							"type": "string"
						}
					],
					"name": "getTransactionByBuyerId",
					"outputs": [
						{
							"components": [
								{
									"internalType": "uint256",
									"name": "transactionId",
									"type": "uint256"
								},
								{
									"internalType": "string",
									"name": "transactionCode",
									"type": "string"
								},
								{
									"internalType": "string",
									"name": "buyer",
									"type": "string"
								},
								{
									"internalType": "string",
									"name": "buyerId",
									"type": "string"
								},
								{
									"internalType": "string",
									"name": "sellerCompany",
									"type": "string"
								},
								{
									"internalType": "string",
									"name": "sellerId",
									"type": "string"
								},
								{
									"internalType": "uint256",
									"name": "sumOfProduct",
									"type": "uint256"
								},
								{
									"internalType": "string",
									"name": "totalPrice",
									"type": "string"
								},
								{
									"internalType": "string",
									"name": "paymentStatus",
									"type": "string"
								},
								{
									"internalType": "uint256",
									"name": "createdAt",
									"type": "uint256"
								}
							],
							"internalType": "struct TransactionContract.Transaction[]",
							"name": "",
							"type": "tuple[]"
						}
					],
					"stateMutability": "view",
					"type": "function"
				},
				{
					"inputs": [
						{
							"internalType": "string",
							"name": "_sellerId",
							"type": "string"
						}
					],
					"name": "getTransactionBySellerId",
					"outputs": [
						{
							"components": [
								{
									"internalType": "uint256",
									"name": "transactionId",
									"type": "uint256"
								},
								{
									"internalType": "string",
									"name": "transactionCode",
									"type": "string"
								},
								{
									"internalType": "string",
									"name": "buyer",
									"type": "string"
								},
								{
									"internalType": "string",
									"name": "buyerId",
									"type": "string"
								},
								{
									"internalType": "string",
									"name": "sellerCompany",
									"type": "string"
								},
								{
									"internalType": "string",
									"name": "sellerId",
									"type": "string"
								},
								{
									"internalType": "uint256",
									"name": "sumOfProduct",
									"type": "uint256"
								},
								{
									"internalType": "string",
									"name": "totalPrice",
									"type": "string"
								},
								{
									"internalType": "string",
									"name": "paymentStatus",
									"type": "string"
								},
								{
									"internalType": "uint256",
									"name": "createdAt",
									"type": "uint256"
								}
							],
							"internalType": "struct TransactionContract.Transaction[]",
							"name": "",
							"type": "tuple[]"
						}
					],
					"stateMutability": "view",
					"type": "function"
				},
				{
					"inputs": [],
					"name": "transactionCount",
					"outputs": [
						{
							"internalType": "uint256",
							"name": "",
							"type": "uint256"
						}
					],
					"stateMutability": "view",
					"type": "function"
				},
				{
					"inputs": [
						{
							"internalType": "uint256",
							"name": "",
							"type": "uint256"
						}
					],
					"name": "transactions",
					"outputs": [
						{
							"internalType": "uint256",
							"name": "transactionId",
							"type": "uint256"
						},
						{
							"internalType": "string",
							"name": "transactionCode",
							"type": "string"
						},
						{
							"internalType": "string",
							"name": "buyer",
							"type": "string"
						},
						{
							"internalType": "string",
							"name": "buyerId",
							"type": "string"
						},
						{
							"internalType": "string",
							"name": "sellerCompany",
							"type": "string"
						},
						{
							"internalType": "string",
							"name": "sellerId",
							"type": "string"
						},
						{
							"internalType": "uint256",
							"name": "sumOfProduct",
							"type": "uint256"
						},
						{
							"internalType": "string",
							"name": "totalPrice",
							"type": "string"
						},
						{
							"internalType": "string",
							"name": "paymentStatus",
							"type": "string"
						},
						{
							"internalType": "uint256",
							"name": "createdAt",
							"type": "uint256"
						}
					],
					"stateMutability": "view",
					"type": "function"
				},
				{
					"inputs": [
						{
							"internalType": "uint256",
							"name": "_transactionId",
							"type": "uint256"
						},
						{
							"internalType": "string",
							"name": "_paymentStatus",
							"type": "string"
						},
						{
							"internalType": "uint256",
							"name": "_createdAt",
							"type": "uint256"
						}
					],
					"name": "updatePaymentStatus",
					"outputs": [],
					"stateMutability": "nonpayable",
					"type": "function"
				}
			],
			"devdoc": {
				"kind": "dev",
				"methods": {},
				"version": 1
			},
			"evm": {
				"assembly": "    /* \"contracts/TransactionTransactionDetailContract.sol\":57:4076  contract TransactionContract {... */\n  mstore(0x40, 0x80)\n  callvalue\n  dup1\n  iszero\n  tag_1\n  jumpi\n  0x00\n  dup1\n  revert\ntag_1:\n  pop\n  dataSize(sub_0)\n  dup1\n  dataOffset(sub_0)\n  0x00\n  codecopy\n  0x00\n  return\nstop\n\nsub_0: assembly {\n        /* \"contracts/TransactionTransactionDetailContract.sol\":57:4076  contract TransactionContract {... */\n      mstore(0x40, 0x80)\n      callvalue\n      dup1\n      iszero\n      tag_1\n      jumpi\n      0x00\n      dup1\n      revert\n    tag_1:\n      pop\n      jumpi(tag_2, lt(calldatasize, 0x04))\n      shr(0xe0, calldataload(0x00))\n      dup1\n      0xb77bf600\n      gt\n      tag_11\n      jumpi\n      dup1\n      0xb77bf600\n      eq\n      tag_7\n      jumpi\n      dup1\n      0xce8481fd\n      eq\n      tag_8\n      jumpi\n      dup1\n      0xe55d57df\n      eq\n      tag_9\n      jumpi\n      dup1\n      0xeb559a1e\n      eq\n      tag_10\n      jumpi\n      jump(tag_2)\n    tag_11:\n      dup1\n      0x33ea3dc8\n      eq\n      tag_3\n      jumpi\n      dup1\n      0x9311f732\n      eq\n      tag_4\n      jumpi\n      dup1\n      0x9ace38c2\n      eq\n      tag_5\n      jumpi\n      dup1\n      0xadd6415d\n      eq\n      tag_6\n      jumpi\n    tag_2:\n      0x00\n      dup1\n      revert\n        /* \"contracts/TransactionTransactionDetailContract.sol\":1180:1332  function getTransaction(... */\n    tag_3:\n      tag_12\n      0x04\n      dup1\n      calldatasize\n      sub\n      dup2\n      add\n      swap1\n      tag_13\n      swap2\n      swap1\n      tag_14\n      jump\t// in\n    tag_13:\n      tag_15\n      jump\t// in\n    tag_12:\n      mload(0x40)\n      tag_16\n      swap2\n      swap1\n      tag_17\n      jump\t// in\n    tag_16:\n      mload(0x40)\n      dup1\n      swap2\n      sub\n      swap1\n      return\n        /* \"contracts/TransactionTransactionDetailContract.sol\":3228:4074  function getTransactionBySellerId(... */\n    tag_4:\n      tag_18\n      0x04\n      dup1\n      calldatasize\n      sub\n      dup2\n      add\n      swap1\n      tag_19\n      swap2\n      swap1\n      tag_20\n      jump\t// in\n    tag_19:\n      tag_21\n      jump\t// in\n    tag_18:\n      mload(0x40)\n      tag_22\n      swap2\n      swap1\n      tag_23\n      jump\t// in\n    tag_22:\n      mload(0x40)\n      dup1\n      swap2\n      sub\n      swap1\n      return\n        /* \"contracts/TransactionTransactionDetailContract.sol\":393:441  mapping(uint => Transaction) public transactions */\n    tag_5:\n      tag_24\n      0x04\n      dup1\n      calldatasize\n      sub\n      dup2\n      add\n      swap1\n      tag_25\n      swap2\n      swap1\n      tag_14\n      jump\t// in\n    tag_25:\n      tag_26\n      jump\t// in\n    tag_24:\n      mload(0x40)\n      tag_27\n      swap11\n      swap10\n      swap9\n      swap8\n      swap7\n      swap6\n      swap5\n      swap4\n      swap3\n      swap2\n      swap1\n      tag_28\n      jump\t// in\n    tag_27:\n      mload(0x40)\n      dup1\n      swap2\n      sub\n      swap1\n      return\n        /* \"contracts/TransactionTransactionDetailContract.sol\":2046:2376  function getAllTransaction() public view returns (Transaction[] memory) {... */\n    tag_6:\n      tag_29\n      tag_30\n      jump\t// in\n    tag_29:\n      mload(0x40)\n      tag_31\n      swap2\n      swap1\n      tag_23\n      jump\t// in\n    tag_31:\n      mload(0x40)\n      dup1\n      swap2\n      sub\n      swap1\n      return\n        /* \"contracts/TransactionTransactionDetailContract.sol\":447:475  uint public transactionCount */\n    tag_7:\n      tag_32\n      tag_33\n      jump\t// in\n    tag_32:\n      mload(0x40)\n      tag_34\n      swap2\n      swap1\n      tag_35\n      jump\t// in\n    tag_34:\n      mload(0x40)\n      dup1\n      swap2\n      sub\n      swap1\n      return\n        /* \"contracts/TransactionTransactionDetailContract.sol\":1338:2040  function updatePaymentStatus(... */\n    tag_8:\n      tag_36\n      0x04\n      dup1\n      calldatasize\n      sub\n      dup2\n      add\n      swap1\n      tag_37\n      swap2\n      swap1\n      tag_38\n      jump\t// in\n    tag_37:\n      tag_39\n      jump\t// in\n    tag_36:\n      stop\n        /* \"contracts/TransactionTransactionDetailContract.sol\":2382:3222  function getTransactionByBuyerId(... */\n    tag_9:\n      tag_40\n      0x04\n      dup1\n      calldatasize\n      sub\n      dup2\n      add\n      swap1\n      tag_41\n      swap2\n      swap1\n      tag_20\n      jump\t// in\n    tag_41:\n      tag_42\n      jump\t// in\n    tag_40:\n      mload(0x40)\n      tag_43\n      swap2\n      swap1\n      tag_23\n      jump\t// in\n    tag_43:\n      mload(0x40)\n      dup1\n      swap2\n      sub\n      swap1\n      return\n        /* \"contracts/TransactionTransactionDetailContract.sol\":482:1174  function addTransaction(... */\n    tag_10:\n      tag_44\n      0x04\n      dup1\n      calldatasize\n      sub\n      dup2\n      add\n      swap1\n      tag_45\n      swap2\n      swap1\n      tag_46\n      jump\t// in\n    tag_45:\n      tag_47\n      jump\t// in\n    tag_44:\n      stop\n        /* \"contracts/TransactionTransactionDetailContract.sol\":1180:1332  function getTransaction(... */\n    tag_15:\n        /* \"contracts/TransactionTransactionDetailContract.sol\":1260:1278  Transaction memory */\n      tag_48\n      tag_49\n      jump\t// in\n    tag_48:\n        /* \"contracts/TransactionTransactionDetailContract.sol\":1297:1309  transactions */\n      0x00\n        /* \"contracts/TransactionTransactionDetailContract.sol\":1297:1325  transactions[_transactionId] */\n      dup1\n        /* \"contracts/TransactionTransactionDetailContract.sol\":1310:1324  _transactionId */\n      dup4\n        /* \"contracts/TransactionTransactionDetailContract.sol\":1297:1325  transactions[_transactionId] */\n      dup2\n      mstore\n      0x20\n      add\n      swap1\n      dup2\n      mstore\n      0x20\n      add\n      0x00\n      keccak256\n        /* \"contracts/TransactionTransactionDetailContract.sol\":1290:1325  return transactions[_transactionId] */\n      mload(0x40)\n      dup1\n      0x0140\n      add\n      0x40\n      mstore\n      swap1\n      dup2\n      0x00\n      dup3\n      add\n      sload\n      dup2\n      mstore\n      0x20\n      add\n      0x01\n      dup3\n      add\n      dup1\n      sload\n      tag_51\n      swap1\n      tag_52\n      jump\t// in\n    tag_51:\n      dup1\n      0x1f\n      add\n      0x20\n      dup1\n      swap2\n      div\n      mul\n      0x20\n      add\n      mload(0x40)\n      swap1\n      dup2\n      add\n      0x40\n      mstore\n      dup1\n      swap3\n      swap2\n      swap1\n      dup2\n      dup2\n      mstore\n      0x20\n      add\n      dup3\n      dup1\n      sload\n      tag_53\n      swap1\n      tag_52\n      jump\t// in\n    tag_53:\n      dup1\n      iszero\n      tag_54\n      jumpi\n      dup1\n      0x1f\n      lt\n      tag_55\n      jumpi\n      0x0100\n      dup1\n      dup4\n      sload\n      div\n      mul\n      dup4\n      mstore\n      swap2\n      0x20\n      add\n      swap2\n      jump(tag_54)\n    tag_55:\n      dup3\n      add\n      swap2\n      swap1\n      0x00\n      mstore\n      keccak256(0x00, 0x20)\n      swap1\n    tag_56:\n      dup2\n      sload\n      dup2\n      mstore\n      swap1\n      0x01\n      add\n      swap1\n      0x20\n      add\n      dup1\n      dup4\n      gt\n      tag_56\n      jumpi\n      dup3\n      swap1\n      sub\n      0x1f\n      and\n      dup3\n      add\n      swap2\n    tag_54:\n      pop\n      pop\n      pop\n      pop\n      pop\n      dup2\n      mstore\n      0x20\n      add\n      0x02\n      dup3\n      add\n      dup1\n      sload\n      tag_57\n      swap1\n      tag_52\n      jump\t// in\n    tag_57:\n      dup1\n      0x1f\n      add\n      0x20\n      dup1\n      swap2\n      div\n      mul\n      0x20\n      add\n      mload(0x40)\n      swap1\n      dup2\n      add\n      0x40\n      mstore\n      dup1\n      swap3\n      swap2\n      swap1\n      dup2\n      dup2\n      mstore\n      0x20\n      add\n      dup3\n      dup1\n      sload\n      tag_58\n      swap1\n      tag_52\n      jump\t// in\n    tag_58:\n      dup1\n      iszero\n      tag_59\n      jumpi\n      dup1\n      0x1f\n      lt\n      tag_60\n      jumpi\n      0x0100\n      dup1\n      dup4\n      sload\n      div\n      mul\n      dup4\n      mstore\n      swap2\n      0x20\n      add\n      swap2\n      jump(tag_59)\n    tag_60:\n      dup3\n      add\n      swap2\n      swap1\n      0x00\n      mstore\n      keccak256(0x00, 0x20)\n      swap1\n    tag_61:\n      dup2\n      sload\n      dup2\n      mstore\n      swap1\n      0x01\n      add\n      swap1\n      0x20\n      add\n      dup1\n      dup4\n      gt\n      tag_61\n      jumpi\n      dup3\n      swap1\n      sub\n      0x1f\n      and\n      dup3\n      add\n      swap2\n    tag_59:\n      pop\n      pop\n      pop\n      pop\n      pop\n      dup2\n      mstore\n      0x20\n      add\n      0x03\n      dup3\n      add\n      dup1\n      sload\n      tag_62\n      swap1\n      tag_52\n      jump\t// in\n    tag_62:\n      dup1\n      0x1f\n      add\n      0x20\n      dup1\n      swap2\n      div\n      mul\n      0x20\n      add\n      mload(0x40)\n      swap1\n      dup2\n      add\n      0x40\n      mstore\n      dup1\n      swap3\n      swap2\n      swap1\n      dup2\n      dup2\n      mstore\n      0x20\n      add\n      dup3\n      dup1\n      sload\n      tag_63\n      swap1\n      tag_52\n      jump\t// in\n    tag_63:\n      dup1\n      iszero\n      tag_64\n      jumpi\n      dup1\n      0x1f\n      lt\n      tag_65\n      jumpi\n      0x0100\n      dup1\n      dup4\n      sload\n      div\n      mul\n      dup4\n      mstore\n      swap2\n      0x20\n      add\n      swap2\n      jump(tag_64)\n    tag_65:\n      dup3\n      add\n      swap2\n      swap1\n      0x00\n      mstore\n      keccak256(0x00, 0x20)\n      swap1\n    tag_66:\n      dup2\n      sload\n      dup2\n      mstore\n      swap1\n      0x01\n      add\n      swap1\n      0x20\n      add\n      dup1\n      dup4\n      gt\n      tag_66\n      jumpi\n      dup3\n      swap1\n      sub\n      0x1f\n      and\n      dup3\n      add\n      swap2\n    tag_64:\n      pop\n      pop\n      pop\n      pop\n      pop\n      dup2\n      mstore\n      0x20\n      add\n      0x04\n      dup3\n      add\n      dup1\n      sload\n      tag_67\n      swap1\n      tag_52\n      jump\t// in\n    tag_67:\n      dup1\n      0x1f\n      add\n      0x20\n      dup1\n      swap2\n      div\n      mul\n      0x20\n      add\n      mload(0x40)\n      swap1\n      dup2\n      add\n      0x40\n      mstore\n      dup1\n      swap3\n      swap2\n      swap1\n      dup2\n      dup2\n      mstore\n      0x20\n      add\n      dup3\n      dup1\n      sload\n      tag_68\n      swap1\n      tag_52\n      jump\t// in\n    tag_68:\n      dup1\n      iszero\n      tag_69\n      jumpi\n      dup1\n      0x1f\n      lt\n      tag_70\n      jumpi\n      0x0100\n      dup1\n      dup4\n      sload\n      div\n      mul\n      dup4\n      mstore\n      swap2\n      0x20\n      add\n      swap2\n      jump(tag_69)\n    tag_70:\n      dup3\n      add\n      swap2\n      swap1\n      0x00\n      mstore\n      keccak256(0x00, 0x20)\n      swap1\n    tag_71:\n      dup2\n      sload\n      dup2\n      mstore\n      swap1\n      0x01\n      add\n      swap1\n      0x20\n      add\n      dup1\n      dup4\n      gt\n      tag_71\n      jumpi\n      dup3\n      swap1\n      sub\n      0x1f\n      and\n      dup3\n      add\n      swap2\n    tag_69:\n      pop\n      pop\n      pop\n      pop\n      pop\n      dup2\n      mstore\n      0x20\n      add\n      0x05\n      dup3\n      add\n      dup1\n      sload\n      tag_72\n      swap1\n      tag_52\n      jump\t// in\n    tag_72:\n      dup1\n      0x1f\n      add\n      0x20\n      dup1\n      swap2\n      div\n      mul\n      0x20\n      add\n      mload(0x40)\n      swap1\n      dup2\n      add\n      0x40\n      mstore\n      dup1\n      swap3\n      swap2\n      swap1\n      dup2\n      dup2\n      mstore\n      0x20\n      add\n      dup3\n      dup1\n      sload\n      tag_73\n      swap1\n      tag_52\n      jump\t// in\n    tag_73:\n      dup1\n      iszero\n      tag_74\n      jumpi\n      dup1\n      0x1f\n      lt\n      tag_75\n      jumpi\n      0x0100\n      dup1\n      dup4\n      sload\n      div\n      mul\n      dup4\n      mstore\n      swap2\n      0x20\n      add\n      swap2\n      jump(tag_74)\n    tag_75:\n      dup3\n      add\n      swap2\n      swap1\n      0x00\n      mstore\n      keccak256(0x00, 0x20)\n      swap1\n    tag_76:\n      dup2\n      sload\n      dup2\n      mstore\n      swap1\n      0x01\n      add\n      swap1\n      0x20\n      add\n      dup1\n      dup4\n      gt\n      tag_76\n      jumpi\n      dup3\n      swap1\n      sub\n      0x1f\n      and\n      dup3\n      add\n      swap2\n    tag_74:\n      pop\n      pop\n      pop\n      pop\n      pop\n      dup2\n      mstore\n      0x20\n      add\n      0x06\n      dup3\n      add\n      sload\n      dup2\n      mstore\n      0x20\n      add\n      0x07\n      dup3\n      add\n      dup1\n      sload\n      tag_77\n      swap1\n      tag_52\n      jump\t// in\n    tag_77:\n      dup1\n      0x1f\n      add\n      0x20\n      dup1\n      swap2\n      div\n      mul\n      0x20\n      add\n      mload(0x40)\n      swap1\n      dup2\n      add\n      0x40\n      mstore\n      dup1\n      swap3\n      swap2\n      swap1\n      dup2\n      dup2\n      mstore\n      0x20\n      add\n      dup3\n      dup1\n      sload\n      tag_78\n      swap1\n      tag_52\n      jump\t// in\n    tag_78:\n      dup1\n      iszero\n      tag_79\n      jumpi\n      dup1\n      0x1f\n      lt\n      tag_80\n      jumpi\n      0x0100\n      dup1\n      dup4\n      sload\n      div\n      mul\n      dup4\n      mstore\n      swap2\n      0x20\n      add\n      swap2\n      jump(tag_79)\n    tag_80:\n      dup3\n      add\n      swap2\n      swap1\n      0x00\n      mstore\n      keccak256(0x00, 0x20)\n      swap1\n    tag_81:\n      dup2\n      sload\n      dup2\n      mstore\n      swap1\n      0x01\n      add\n      swap1\n      0x20\n      add\n      dup1\n      dup4\n      gt\n      tag_81\n      jumpi\n      dup3\n      swap1\n      sub\n      0x1f\n      and\n      dup3\n      add\n      swap2\n    tag_79:\n      pop\n      pop\n      pop\n      pop\n      pop\n      dup2\n      mstore\n      0x20\n      add\n      0x08\n      dup3\n      add\n      dup1\n      sload\n      tag_82\n      swap1\n      tag_52\n      jump\t// in\n    tag_82:\n      dup1\n      0x1f\n      add\n      0x20\n      dup1\n      swap2\n      div\n      mul\n      0x20\n      add\n      mload(0x40)\n      swap1\n      dup2\n      add\n      0x40\n      mstore\n      dup1\n      swap3\n      swap2\n      swap1\n      dup2\n      dup2\n      mstore\n      0x20\n      add\n      dup3\n      dup1\n      sload\n      tag_83\n      swap1\n      tag_52\n      jump\t// in\n    tag_83:\n      dup1\n      iszero\n      tag_84\n      jumpi\n      dup1\n      0x1f\n      lt\n      tag_85\n      jumpi\n      0x0100\n      dup1\n      dup4\n      sload\n      div\n      mul\n      dup4\n      mstore\n      swap2\n      0x20\n      add\n      swap2\n      jump(tag_84)\n    tag_85:\n      dup3\n      add\n      swap2\n      swap1\n      0x00\n      mstore\n      keccak256(0x00, 0x20)\n      swap1\n    tag_86:\n      dup2\n      sload\n      dup2\n      mstore\n      swap1\n      0x01\n      add\n      swap1\n      0x20\n      add\n      dup1\n      dup4\n      gt\n      tag_86\n      jumpi\n      dup3\n      swap1\n      sub\n      0x1f\n      and\n      dup3\n      add\n      swap2\n    tag_84:\n      pop\n      pop\n      pop\n      pop\n      pop\n      dup2\n      mstore\n      0x20\n      add\n      0x09\n      dup3\n      add\n      sload\n      dup2\n      mstore\n      pop\n      pop\n      swap1\n      pop\n        /* \"contracts/TransactionTransactionDetailContract.sol\":1180:1332  function getTransaction(... */\n      swap2\n      swap1\n      pop\n      jump\t// out\n        /* \"contracts/TransactionTransactionDetailContract.sol\":3228:4074  function getTransactionBySellerId(... */\n    tag_21:\n        /* \"contracts/TransactionTransactionDetailContract.sol\":3322:3342  Transaction[] memory */\n      0x60\n        /* \"contracts/TransactionTransactionDetailContract.sol\":3354:3364  uint count */\n      0x00\n        /* \"contracts/TransactionTransactionDetailContract.sol\":3383:3389  uint i */\n      dup1\n        /* \"contracts/TransactionTransactionDetailContract.sol\":3392:3393  1 */\n      0x01\n        /* \"contracts/TransactionTransactionDetailContract.sol\":3383:3393  uint i = 1 */\n      swap1\n      pop\n        /* \"contracts/TransactionTransactionDetailContract.sol\":3378:3634  for (uint i = 1; i <= transactionCount; i++) {... */\n    tag_88:\n        /* \"contracts/TransactionTransactionDetailContract.sol\":3400:3416  transactionCount */\n      sload(0x01)\n        /* \"contracts/TransactionTransactionDetailContract.sol\":3395:3396  i */\n      dup2\n        /* \"contracts/TransactionTransactionDetailContract.sol\":3395:3416  i <= transactionCount */\n      gt\n        /* \"contracts/TransactionTransactionDetailContract.sol\":3378:3634  for (uint i = 1; i <= transactionCount; i++) {... */\n      tag_89\n      jumpi\n        /* \"contracts/TransactionTransactionDetailContract.sol\":3558:3567  _sellerId */\n      dup4\n        /* \"contracts/TransactionTransactionDetailContract.sol\":3541:3568  abi.encodePacked(_sellerId) */\n      add(0x20, mload(0x40))\n      tag_91\n      swap2\n      swap1\n      tag_92\n      jump\t// in\n    tag_91:\n      mload(0x40)\n      0x20\n      dup2\n      dup4\n      sub\n      sub\n      dup2\n      mstore\n      swap1\n      0x40\n      mstore\n        /* \"contracts/TransactionTransactionDetailContract.sol\":3531:3569  keccak256(abi.encodePacked(_sellerId)) */\n      dup1\n      mload\n      swap1\n      0x20\n      add\n      keccak256\n        /* \"contracts/TransactionTransactionDetailContract.sol\":3485:3497  transactions */\n      0x00\n        /* \"contracts/TransactionTransactionDetailContract.sol\":3485:3500  transactions[i] */\n      dup1\n        /* \"contracts/TransactionTransactionDetailContract.sol\":3498:3499  i */\n      dup4\n        /* \"contracts/TransactionTransactionDetailContract.sol\":3485:3500  transactions[i] */\n      dup2\n      mstore\n      0x20\n      add\n      swap1\n      dup2\n      mstore\n      0x20\n      add\n      0x00\n      keccak256\n        /* \"contracts/TransactionTransactionDetailContract.sol\":3485:3509  transactions[i].sellerId */\n      0x05\n      add\n        /* \"contracts/TransactionTransactionDetailContract.sol\":3468:3510  abi.encodePacked(transactions[i].sellerId) */\n      add(0x20, mload(0x40))\n      tag_93\n      swap2\n      swap1\n      tag_94\n      jump\t// in\n    tag_93:\n      mload(0x40)\n      0x20\n      dup2\n      dup4\n      sub\n      sub\n      dup2\n      mstore\n      swap1\n      0x40\n      mstore\n        /* \"contracts/TransactionTransactionDetailContract.sol\":3458:3511  keccak256(abi.encodePacked(transactions[i].sellerId)) */\n      dup1\n      mload\n      swap1\n      0x20\n      add\n      keccak256\n        /* \"contracts/TransactionTransactionDetailContract.sol\":3458:3569  keccak256(abi.encodePacked(transactions[i].sellerId)) ==... */\n      sub\n        /* \"contracts/TransactionTransactionDetailContract.sol\":3437:3624  if (... */\n      tag_95\n      jumpi\n        /* \"contracts/TransactionTransactionDetailContract.sol\":3602:3609  count++ */\n      dup2\n      dup1\n      tag_96\n      swap1\n      tag_97\n      jump\t// in\n    tag_96:\n      swap3\n      pop\n      pop\n        /* \"contracts/TransactionTransactionDetailContract.sol\":3437:3624  if (... */\n    tag_95:\n        /* \"contracts/TransactionTransactionDetailContract.sol\":3418:3421  i++ */\n      dup1\n      dup1\n      tag_98\n      swap1\n      tag_97\n      jump\t// in\n    tag_98:\n      swap2\n      pop\n      pop\n        /* \"contracts/TransactionTransactionDetailContract.sol\":3378:3634  for (uint i = 1; i <= transactionCount; i++) {... */\n      jump(tag_88)\n    tag_89:\n      pop\n        /* \"contracts/TransactionTransactionDetailContract.sol\":3643:3677  Transaction[] memory _transactions */\n      0x00\n        /* \"contracts/TransactionTransactionDetailContract.sol\":3698:3703  count */\n      dup2\n        /* \"contracts/TransactionTransactionDetailContract.sol\":3680:3704  new Transaction[](count) */\n      0xffffffffffffffff\n      dup2\n      gt\n      iszero\n      tag_99\n      jumpi\n      tag_100\n      tag_101\n      jump\t// in\n    tag_100:\n    tag_99:\n      mload(0x40)\n      swap1\n      dup1\n      dup3\n      mstore\n      dup1\n      0x20\n      mul\n      0x20\n      add\n      dup3\n      add\n      0x40\n      mstore\n      dup1\n      iszero\n      tag_102\n      jumpi\n      dup2\n      0x20\n      add\n    tag_103:\n      tag_104\n      tag_49\n      jump\t// in\n    tag_104:\n      dup2\n      mstore\n      0x20\n      add\n      swap1\n      0x01\n      swap1\n      sub\n      swap1\n      dup2\n      tag_103\n      jumpi\n      swap1\n      pop\n    tag_102:\n      pop\n        /* \"contracts/TransactionTransactionDetailContract.sol\":3643:3704  Transaction[] memory _transactions = new Transaction[](count) */\n      swap1\n      pop\n        /* \"contracts/TransactionTransactionDetailContract.sol\":3714:3720  uint j */\n      0x00\n        /* \"contracts/TransactionTransactionDetailContract.sol\":3739:3745  uint i */\n      dup1\n        /* \"contracts/TransactionTransactionDetailContract.sol\":3748:3749  1 */\n      0x01\n        /* \"contracts/TransactionTransactionDetailContract.sol\":3739:3749  uint i = 1 */\n      swap1\n      pop\n        /* \"contracts/TransactionTransactionDetailContract.sol\":3734:4038  for (uint i = 1; i <= transactionCount; i++) {... */\n    tag_105:\n        /* \"contracts/TransactionTransactionDetailContract.sol\":3756:3772  transactionCount */\n      sload(0x01)\n        /* \"contracts/TransactionTransactionDetailContract.sol\":3751:3752  i */\n      dup2\n        /* \"contracts/TransactionTransactionDetailContract.sol\":3751:3772  i <= transactionCount */\n      gt\n        /* \"contracts/TransactionTransactionDetailContract.sol\":3734:4038  for (uint i = 1; i <= transactionCount; i++) {... */\n      tag_106\n      jumpi\n        /* \"contracts/TransactionTransactionDetailContract.sol\":3914:3923  _sellerId */\n      dup6\n        /* \"contracts/TransactionTransactionDetailContract.sol\":3897:3924  abi.encodePacked(_sellerId) */\n      add(0x20, mload(0x40))\n      tag_108\n      swap2\n      swap1\n      tag_92\n      jump\t// in\n    tag_108:\n      mload(0x40)\n      0x20\n      dup2\n      dup4\n      sub\n      sub\n      dup2\n      mstore\n      swap1\n      0x40\n      mstore\n        /* \"contracts/TransactionTransactionDetailContract.sol\":3887:3925  keccak256(abi.encodePacked(_sellerId)) */\n      dup1\n      mload\n      swap1\n      0x20\n      add\n      keccak256\n        /* \"contracts/TransactionTransactionDetailContract.sol\":3841:3853  transactions */\n      0x00\n        /* \"contracts/TransactionTransactionDetailContract.sol\":3841:3856  transactions[i] */\n      dup1\n        /* \"contracts/TransactionTransactionDetailContract.sol\":3854:3855  i */\n      dup4\n        /* \"contracts/TransactionTransactionDetailContract.sol\":3841:3856  transactions[i] */\n      dup2\n      mstore\n      0x20\n      add\n      swap1\n      dup2\n      mstore\n      0x20\n      add\n      0x00\n      keccak256\n        /* \"contracts/TransactionTransactionDetailContract.sol\":3841:3865  transactions[i].sellerId */\n      0x05\n      add\n        /* \"contracts/TransactionTransactionDetailContract.sol\":3824:3866  abi.encodePacked(transactions[i].sellerId) */\n      add(0x20, mload(0x40))\n      tag_109\n      swap2\n      swap1\n      tag_94\n      jump\t// in\n    tag_109:\n      mload(0x40)\n      0x20\n      dup2\n      dup4\n      sub\n      sub\n      dup2\n      mstore\n      swap1\n      0x40\n      mstore\n        /* \"contracts/TransactionTransactionDetailContract.sol\":3814:3867  keccak256(abi.encodePacked(transactions[i].sellerId)) */\n      dup1\n      mload\n      swap1\n      0x20\n      add\n      keccak256\n        /* \"contracts/TransactionTransactionDetailContract.sol\":3814:3925  keccak256(abi.encodePacked(transactions[i].sellerId)) ==... */\n      sub\n        /* \"contracts/TransactionTransactionDetailContract.sol\":3793:4028  if (... */\n      tag_110\n      jumpi\n        /* \"contracts/TransactionTransactionDetailContract.sol\":3977:3989  transactions */\n      0x00\n        /* \"contracts/TransactionTransactionDetailContract.sol\":3977:3992  transactions[i] */\n      dup1\n        /* \"contracts/TransactionTransactionDetailContract.sol\":3990:3991  i */\n      dup3\n        /* \"contracts/TransactionTransactionDetailContract.sol\":3977:3992  transactions[i] */\n      dup2\n      mstore\n      0x20\n      add\n      swap1\n      dup2\n      mstore\n      0x20\n      add\n      0x00\n      keccak256\n        /* \"contracts/TransactionTransactionDetailContract.sol\":3958:3992  _transactions[j] = transactions[i] */\n      mload(0x40)\n      dup1\n      0x0140\n      add\n      0x40\n      mstore\n      swap1\n      dup2\n      0x00\n      dup3\n      add\n      sload\n      dup2\n      mstore\n      0x20\n      add\n      0x01\n      dup3\n      add\n      dup1\n      sload\n      tag_111\n      swap1\n      tag_52\n      jump\t// in\n    tag_111:\n      dup1\n      0x1f\n      add\n      0x20\n      dup1\n      swap2\n      div\n      mul\n      0x20\n      add\n      mload(0x40)\n      swap1\n      dup2\n      add\n      0x40\n      mstore\n      dup1\n      swap3\n      swap2\n      swap1\n      dup2\n      dup2\n      mstore\n      0x20\n      add\n      dup3\n      dup1\n      sload\n      tag_112\n      swap1\n      tag_52\n      jump\t// in\n    tag_112:\n      dup1\n      iszero\n      tag_113\n      jumpi\n      dup1\n      0x1f\n      lt\n      tag_114\n      jumpi\n      0x0100\n      dup1\n      dup4\n      sload\n      div\n      mul\n      dup4\n      mstore\n      swap2\n      0x20\n      add\n      swap2\n      jump(tag_113)\n    tag_114:\n      dup3\n      add\n      swap2\n      swap1\n      0x00\n      mstore\n      keccak256(0x00, 0x20)\n      swap1\n    tag_115:\n      dup2\n      sload\n      dup2\n      mstore\n      swap1\n      0x01\n      add\n      swap1\n      0x20\n      add\n      dup1\n      dup4\n      gt\n      tag_115\n      jumpi\n      dup3\n      swap1\n      sub\n      0x1f\n      and\n      dup3\n      add\n      swap2\n    tag_113:\n      pop\n      pop\n      pop\n      pop\n      pop\n      dup2\n      mstore\n      0x20\n      add\n      0x02\n      dup3\n      add\n      dup1\n      sload\n      tag_116\n      swap1\n      tag_52\n      jump\t// in\n    tag_116:\n      dup1\n      0x1f\n      add\n      0x20\n      dup1\n      swap2\n      div\n      mul\n      0x20\n      add\n      mload(0x40)\n      swap1\n      dup2\n      add\n      0x40\n      mstore\n      dup1\n      swap3\n      swap2\n      swap1\n      dup2\n      dup2\n      mstore\n      0x20\n      add\n      dup3\n      dup1\n      sload\n      tag_117\n      swap1\n      tag_52\n      jump\t// in\n    tag_117:\n      dup1\n      iszero\n      tag_118\n      jumpi\n      dup1\n      0x1f\n      lt\n      tag_119\n      jumpi\n      0x0100\n      dup1\n      dup4\n      sload\n      div\n      mul\n      dup4\n      mstore\n      swap2\n      0x20\n      add\n      swap2\n      jump(tag_118)\n    tag_119:\n      dup3\n      add\n      swap2\n      swap1\n      0x00\n      mstore\n      keccak256(0x00, 0x20)\n      swap1\n    tag_120:\n      dup2\n      sload\n      dup2\n      mstore\n      swap1\n      0x01\n      add\n      swap1\n      0x20\n      add\n      dup1\n      dup4\n      gt\n      tag_120\n      jumpi\n      dup3\n      swap1\n      sub\n      0x1f\n      and\n      dup3\n      add\n      swap2\n    tag_118:\n      pop\n      pop\n      pop\n      pop\n      pop\n      dup2\n      mstore\n      0x20\n      add\n      0x03\n      dup3\n      add\n      dup1\n      sload\n      tag_121\n      swap1\n      tag_52\n      jump\t// in\n    tag_121:\n      dup1\n      0x1f\n      add\n      0x20\n      dup1\n      swap2\n      div\n      mul\n      0x20\n      add\n      mload(0x40)\n      swap1\n      dup2\n      add\n      0x40\n      mstore\n      dup1\n      swap3\n      swap2\n      swap1\n      dup2\n      dup2\n      mstore\n      0x20\n      add\n      dup3\n      dup1\n      sload\n      tag_122\n      swap1\n      tag_52\n      jump\t// in\n    tag_122:\n      dup1\n      iszero\n      tag_123\n      jumpi\n      dup1\n      0x1f\n      lt\n      tag_124\n      jumpi\n      0x0100\n      dup1\n      dup4\n      sload\n      div\n      mul\n      dup4\n      mstore\n      swap2\n      0x20\n      add\n      swap2\n      jump(tag_123)\n    tag_124:\n      dup3\n      add\n      swap2\n      swap1\n      0x00\n      mstore\n      keccak256(0x00, 0x20)\n      swap1\n    tag_125:\n      dup2\n      sload\n      dup2\n      mstore\n      swap1\n      0x01\n      add\n      swap1\n      0x20\n      add\n      dup1\n      dup4\n      gt\n      tag_125\n      jumpi\n      dup3\n      swap1\n      sub\n      0x1f\n      and\n      dup3\n      add\n      swap2\n    tag_123:\n      pop\n      pop\n      pop\n      pop\n      pop\n      dup2\n      mstore\n      0x20\n      add\n      0x04\n      dup3\n      add\n      dup1\n      sload\n      tag_126\n      swap1\n      tag_52\n      jump\t// in\n    tag_126:\n      dup1\n      0x1f\n      add\n      0x20\n      dup1\n      swap2\n      div\n      mul\n      0x20\n      add\n      mload(0x40)\n      swap1\n      dup2\n      add\n      0x40\n      mstore\n      dup1\n      swap3\n      swap2\n      swap1\n      dup2\n      dup2\n      mstore\n      0x20\n      add\n      dup3\n      dup1\n      sload\n      tag_127\n      swap1\n      tag_52\n      jump\t// in\n    tag_127:\n      dup1\n      iszero\n      tag_128\n      jumpi\n      dup1\n      0x1f\n      lt\n      tag_129\n      jumpi\n      0x0100\n      dup1\n      dup4\n      sload\n      div\n      mul\n      dup4\n      mstore\n      swap2\n      0x20\n      add\n      swap2\n      jump(tag_128)\n    tag_129:\n      dup3\n      add\n      swap2\n      swap1\n      0x00\n      mstore\n      keccak256(0x00, 0x20)\n      swap1\n    tag_130:\n      dup2\n      sload\n      dup2\n      mstore\n      swap1\n      0x01\n      add\n      swap1\n      0x20\n      add\n      dup1\n      dup4\n      gt\n      tag_130\n      jumpi\n      dup3\n      swap1\n      sub\n      0x1f\n      and\n      dup3\n      add\n      swap2\n    tag_128:\n      pop\n      pop\n      pop\n      pop\n      pop\n      dup2\n      mstore\n      0x20\n      add\n      0x05\n      dup3\n      add\n      dup1\n      sload\n      tag_131\n      swap1\n      tag_52\n      jump\t// in\n    tag_131:\n      dup1\n      0x1f\n      add\n      0x20\n      dup1\n      swap2\n      div\n      mul\n      0x20\n      add\n      mload(0x40)\n      swap1\n      dup2\n      add\n      0x40\n      mstore\n      dup1\n      swap3\n      swap2\n      swap1\n      dup2\n      dup2\n      mstore\n      0x20\n      add\n      dup3\n      dup1\n      sload\n      tag_132\n      swap1\n      tag_52\n      jump\t// in\n    tag_132:\n      dup1\n      iszero\n      tag_133\n      jumpi\n      dup1\n      0x1f\n      lt\n      tag_134\n      jumpi\n      0x0100\n      dup1\n      dup4\n      sload\n      div\n      mul\n      dup4\n      mstore\n      swap2\n      0x20\n      add\n      swap2\n      jump(tag_133)\n    tag_134:\n      dup3\n      add\n      swap2\n      swap1\n      0x00\n      mstore\n      keccak256(0x00, 0x20)\n      swap1\n    tag_135:\n      dup2\n      sload\n      dup2\n      mstore\n      swap1\n      0x01\n      add\n      swap1\n      0x20\n      add\n      dup1\n      dup4\n      gt\n      tag_135\n      jumpi\n      dup3\n      swap1\n      sub\n      0x1f\n      and\n      dup3\n      add\n      swap2\n    tag_133:\n      pop\n      pop\n      pop\n      pop\n      pop\n      dup2\n      mstore\n      0x20\n      add\n      0x06\n      dup3\n      add\n      sload\n      dup2\n      mstore\n      0x20\n      add\n      0x07\n      dup3\n      add\n      dup1\n      sload\n      tag_136\n      swap1\n      tag_52\n      jump\t// in\n    tag_136:\n      dup1\n      0x1f\n      add\n      0x20\n      dup1\n      swap2\n      div\n      mul\n      0x20\n      add\n      mload(0x40)\n      swap1\n      dup2\n      add\n      0x40\n      mstore\n      dup1\n      swap3\n      swap2\n      swap1\n      dup2\n      dup2\n      mstore\n      0x20\n      add\n      dup3\n      dup1\n      sload\n      tag_137\n      swap1\n      tag_52\n      jump\t// in\n    tag_137:\n      dup1\n      iszero\n      tag_138\n      jumpi\n      dup1\n      0x1f\n      lt\n      tag_139\n      jumpi\n      0x0100\n      dup1\n      dup4\n      sload\n      div\n      mul\n      dup4\n      mstore\n      swap2\n      0x20\n      add\n      swap2\n      jump(tag_138)\n    tag_139:\n      dup3\n      add\n      swap2\n      swap1\n      0x00\n      mstore\n      keccak256(0x00, 0x20)\n      swap1\n    tag_140:\n      dup2\n      sload\n      dup2\n      mstore\n      swap1\n      0x01\n      add\n      swap1\n      0x20\n      add\n      dup1\n      dup4\n      gt\n      tag_140\n      jumpi\n      dup3\n      swap1\n      sub\n      0x1f\n      and\n      dup3\n      add\n      swap2\n    tag_138:\n      pop\n      pop\n      pop\n      pop\n      pop\n      dup2\n      mstore\n      0x20\n      add\n      0x08\n      dup3\n      add\n      dup1\n      sload\n      tag_141\n      swap1\n      tag_52\n      jump\t// in\n    tag_141:\n      dup1\n      0x1f\n      add\n      0x20\n      dup1\n      swap2\n      div\n      mul\n      0x20\n      add\n      mload(0x40)\n      swap1\n      dup2\n      add\n      0x40\n      mstore\n      dup1\n      swap3\n      swap2\n      swap1\n      dup2\n      dup2\n      mstore\n      0x20\n      add\n      dup3\n      dup1\n      sload\n      tag_142\n      swap1\n      tag_52\n      jump\t// in\n    tag_142:\n      dup1\n      iszero\n      tag_143\n      jumpi\n      dup1\n      0x1f\n      lt\n      tag_144\n      jumpi\n      0x0100\n      dup1\n      dup4\n      sload\n      div\n      mul\n      dup4\n      mstore\n      swap2\n      0x20\n      add\n      swap2\n      jump(tag_143)\n    tag_144:\n      dup3\n      add\n      swap2\n      swap1\n      0x00\n      mstore\n      keccak256(0x00, 0x20)\n      swap1\n    tag_145:\n      dup2\n      sload\n      dup2\n      mstore\n      swap1\n      0x01\n      add\n      swap1\n      0x20\n      add\n      dup1\n      dup4\n      gt\n      tag_145\n      jumpi\n      dup3\n      swap1\n      sub\n      0x1f\n      and\n      dup3\n      add\n      swap2\n    tag_143:\n      pop\n      pop\n      pop\n      pop\n      pop\n      dup2\n      mstore\n      0x20\n      add\n      0x09\n      dup3\n      add\n      sload\n      dup2\n      mstore\n      pop\n      pop\n        /* \"contracts/TransactionTransactionDetailContract.sol\":3958:3971  _transactions */\n      dup4\n        /* \"contracts/TransactionTransactionDetailContract.sol\":3972:3973  j */\n      dup4\n        /* \"contracts/TransactionTransactionDetailContract.sol\":3958:3974  _transactions[j] */\n      dup2\n      mload\n      dup2\n      lt\n      tag_146\n      jumpi\n      tag_147\n      tag_148\n      jump\t// in\n    tag_147:\n    tag_146:\n      0x20\n      mul\n      0x20\n      add\n      add\n        /* \"contracts/TransactionTransactionDetailContract.sol\":3958:3992  _transactions[j] = transactions[i] */\n      dup2\n      swap1\n      mstore\n      pop\n        /* \"contracts/TransactionTransactionDetailContract.sol\":4010:4013  j++ */\n      dup2\n      dup1\n      tag_149\n      swap1\n      tag_97\n      jump\t// in\n    tag_149:\n      swap3\n      pop\n      pop\n        /* \"contracts/TransactionTransactionDetailContract.sol\":3793:4028  if (... */\n    tag_110:\n        /* \"contracts/TransactionTransactionDetailContract.sol\":3774:3777  i++ */\n      dup1\n      dup1\n      tag_150\n      swap1\n      tag_97\n      jump\t// in\n    tag_150:\n      swap2\n      pop\n      pop\n        /* \"contracts/TransactionTransactionDetailContract.sol\":3734:4038  for (uint i = 1; i <= transactionCount; i++) {... */\n      jump(tag_105)\n    tag_106:\n      pop\n        /* \"contracts/TransactionTransactionDetailContract.sol\":4054:4067  _transactions */\n      dup2\n        /* \"contracts/TransactionTransactionDetailContract.sol\":4047:4067  return _transactions */\n      swap4\n      pop\n      pop\n      pop\n      pop\n        /* \"contracts/TransactionTransactionDetailContract.sol\":3228:4074  function getTransactionBySellerId(... */\n      swap2\n      swap1\n      pop\n      jump\t// out\n        /* \"contracts/TransactionTransactionDetailContract.sol\":393:441  mapping(uint => Transaction) public transactions */\n    tag_26:\n      mstore(0x20, 0x00)\n      dup1\n      0x00\n      mstore\n      keccak256(0x00, 0x40)\n      0x00\n      swap2\n      pop\n      swap1\n      pop\n      dup1\n      0x00\n      add\n      sload\n      swap1\n      dup1\n      0x01\n      add\n      dup1\n      sload\n      tag_151\n      swap1\n      tag_52\n      jump\t// in\n    tag_151:\n      dup1\n      0x1f\n      add\n      0x20\n      dup1\n      swap2\n      div\n      mul\n      0x20\n      add\n      mload(0x40)\n      swap1\n      dup2\n      add\n      0x40\n      mstore\n      dup1\n      swap3\n      swap2\n      swap1\n      dup2\n      dup2\n      mstore\n      0x20\n      add\n      dup3\n      dup1\n      sload\n      tag_152\n      swap1\n      tag_52\n      jump\t// in\n    tag_152:\n      dup1\n      iszero\n      tag_153\n      jumpi\n      dup1\n      0x1f\n      lt\n      tag_154\n      jumpi\n      0x0100\n      dup1\n      dup4\n      sload\n      div\n      mul\n      dup4\n      mstore\n      swap2\n      0x20\n      add\n      swap2\n      jump(tag_153)\n    tag_154:\n      dup3\n      add\n      swap2\n      swap1\n      0x00\n      mstore\n      keccak256(0x00, 0x20)\n      swap1\n    tag_155:\n      dup2\n      sload\n      dup2\n      mstore\n      swap1\n      0x01\n      add\n      swap1\n      0x20\n      add\n      dup1\n      dup4\n      gt\n      tag_155\n      jumpi\n      dup3\n      swap1\n      sub\n      0x1f\n      and\n      dup3\n      add\n      swap2\n    tag_153:\n      pop\n      pop\n      pop\n      pop\n      pop\n      swap1\n      dup1\n      0x02\n      add\n      dup1\n      sload\n      tag_156\n      swap1\n      tag_52\n      jump\t// in\n    tag_156:\n      dup1\n      0x1f\n      add\n      0x20\n      dup1\n      swap2\n      div\n      mul\n      0x20\n      add\n      mload(0x40)\n      swap1\n      dup2\n      add\n      0x40\n      mstore\n      dup1\n      swap3\n      swap2\n      swap1\n      dup2\n      dup2\n      mstore\n      0x20\n      add\n      dup3\n      dup1\n      sload\n      tag_157\n      swap1\n      tag_52\n      jump\t// in\n    tag_157:\n      dup1\n      iszero\n      tag_158\n      jumpi\n      dup1\n      0x1f\n      lt\n      tag_159\n      jumpi\n      0x0100\n      dup1\n      dup4\n      sload\n      div\n      mul\n      dup4\n      mstore\n      swap2\n      0x20\n      add\n      swap2\n      jump(tag_158)\n    tag_159:\n      dup3\n      add\n      swap2\n      swap1\n      0x00\n      mstore\n      keccak256(0x00, 0x20)\n      swap1\n    tag_160:\n      dup2\n      sload\n      dup2\n      mstore\n      swap1\n      0x01\n      add\n      swap1\n      0x20\n      add\n      dup1\n      dup4\n      gt\n      tag_160\n      jumpi\n      dup3\n      swap1\n      sub\n      0x1f\n      and\n      dup3\n      add\n      swap2\n    tag_158:\n      pop\n      pop\n      pop\n      pop\n      pop\n      swap1\n      dup1\n      0x03\n      add\n      dup1\n      sload\n      tag_161\n      swap1\n      tag_52\n      jump\t// in\n    tag_161:\n      dup1\n      0x1f\n      add\n      0x20\n      dup1\n      swap2\n      div\n      mul\n      0x20\n      add\n      mload(0x40)\n      swap1\n      dup2\n      add\n      0x40\n      mstore\n      dup1\n      swap3\n      swap2\n      swap1\n      dup2\n      dup2\n      mstore\n      0x20\n      add\n      dup3\n      dup1\n      sload\n      tag_162\n      swap1\n      tag_52\n      jump\t// in\n    tag_162:\n      dup1\n      iszero\n      tag_163\n      jumpi\n      dup1\n      0x1f\n      lt\n      tag_164\n      jumpi\n      0x0100\n      dup1\n      dup4\n      sload\n      div\n      mul\n      dup4\n      mstore\n      swap2\n      0x20\n      add\n      swap2\n      jump(tag_163)\n    tag_164:\n      dup3\n      add\n      swap2\n      swap1\n      0x00\n      mstore\n      keccak256(0x00, 0x20)\n      swap1\n    tag_165:\n      dup2\n      sload\n      dup2\n      mstore\n      swap1\n      0x01\n      add\n      swap1\n      0x20\n      add\n      dup1\n      dup4\n      gt\n      tag_165\n      jumpi\n      dup3\n      swap1\n      sub\n      0x1f\n      and\n      dup3\n      add\n      swap2\n    tag_163:\n      pop\n      pop\n      pop\n      pop\n      pop\n      swap1\n      dup1\n      0x04\n      add\n      dup1\n      sload\n      tag_166\n      swap1\n      tag_52\n      jump\t// in\n    tag_166:\n      dup1\n      0x1f\n      add\n      0x20\n      dup1\n      swap2\n      div\n      mul\n      0x20\n      add\n      mload(0x40)\n      swap1\n      dup2\n      add\n      0x40\n      mstore\n      dup1\n      swap3\n      swap2\n      swap1\n      dup2\n      dup2\n      mstore\n      0x20\n      add\n      dup3\n      dup1\n      sload\n      tag_167\n      swap1\n      tag_52\n      jump\t// in\n    tag_167:\n      dup1\n      iszero\n      tag_168\n      jumpi\n      dup1\n      0x1f\n      lt\n      tag_169\n      jumpi\n      0x0100\n      dup1\n      dup4\n      sload\n      div\n      mul\n      dup4\n      mstore\n      swap2\n      0x20\n      add\n      swap2\n      jump(tag_168)\n    tag_169:\n      dup3\n      add\n      swap2\n      swap1\n      0x00\n      mstore\n      keccak256(0x00, 0x20)\n      swap1\n    tag_170:\n      dup2\n      sload\n      dup2\n      mstore\n      swap1\n      0x01\n      add\n      swap1\n      0x20\n      add\n      dup1\n      dup4\n      gt\n      tag_170\n      jumpi\n      dup3\n      swap1\n      sub\n      0x1f\n      and\n      dup3\n      add\n      swap2\n    tag_168:\n      pop\n      pop\n      pop\n      pop\n      pop\n      swap1\n      dup1\n      0x05\n      add\n      dup1\n      sload\n      tag_171\n      swap1\n      tag_52\n      jump\t// in\n    tag_171:\n      dup1\n      0x1f\n      add\n      0x20\n      dup1\n      swap2\n      div\n      mul\n      0x20\n      add\n      mload(0x40)\n      swap1\n      dup2\n      add\n      0x40\n      mstore\n      dup1\n      swap3\n      swap2\n      swap1\n      dup2\n      dup2\n      mstore\n      0x20\n      add\n      dup3\n      dup1\n      sload\n      tag_172\n      swap1\n      tag_52\n      jump\t// in\n    tag_172:\n      dup1\n      iszero\n      tag_173\n      jumpi\n      dup1\n      0x1f\n      lt\n      tag_174\n      jumpi\n      0x0100\n      dup1\n      dup4\n      sload\n      div\n      mul\n      dup4\n      mstore\n      swap2\n      0x20\n      add\n      swap2\n      jump(tag_173)\n    tag_174:\n      dup3\n      add\n      swap2\n      swap1\n      0x00\n      mstore\n      keccak256(0x00, 0x20)\n      swap1\n    tag_175:\n      dup2\n      sload\n      dup2\n      mstore\n      swap1\n      0x01\n      add\n      swap1\n      0x20\n      add\n      dup1\n      dup4\n      gt\n      tag_175\n      jumpi\n      dup3\n      swap1\n      sub\n      0x1f\n      and\n      dup3\n      add\n      swap2\n    tag_173:\n      pop\n      pop\n      pop\n      pop\n      pop\n      swap1\n      dup1\n      0x06\n      add\n      sload\n      swap1\n      dup1\n      0x07\n      add\n      dup1\n      sload\n      tag_176\n      swap1\n      tag_52\n      jump\t// in\n    tag_176:\n      dup1\n      0x1f\n      add\n      0x20\n      dup1\n      swap2\n      div\n      mul\n      0x20\n      add\n      mload(0x40)\n      swap1\n      dup2\n      add\n      0x40\n      mstore\n      dup1\n      swap3\n      swap2\n      swap1\n      dup2\n      dup2\n      mstore\n      0x20\n      add\n      dup3\n      dup1\n      sload\n      tag_177\n      swap1\n      tag_52\n      jump\t// in\n    tag_177:\n      dup1\n      iszero\n      tag_178\n      jumpi\n      dup1\n      0x1f\n      lt\n      tag_179\n      jumpi\n      0x0100\n      dup1\n      dup4\n      sload\n      div\n      mul\n      dup4\n      mstore\n      swap2\n      0x20\n      add\n      swap2\n      jump(tag_178)\n    tag_179:\n      dup3\n      add\n      swap2\n      swap1\n      0x00\n      mstore\n      keccak256(0x00, 0x20)\n      swap1\n    tag_180:\n      dup2\n      sload\n      dup2\n      mstore\n      swap1\n      0x01\n      add\n      swap1\n      0x20\n      add\n      dup1\n      dup4\n      gt\n      tag_180\n      jumpi\n      dup3\n      swap1\n      sub\n      0x1f\n      and\n      dup3\n      add\n      swap2\n    tag_178:\n      pop\n      pop\n      pop\n      pop\n      pop\n      swap1\n      dup1\n      0x08\n      add\n      dup1\n      sload\n      tag_181\n      swap1\n      tag_52\n      jump\t// in\n    tag_181:\n      dup1\n      0x1f\n      add\n      0x20\n      dup1\n      swap2\n      div\n      mul\n      0x20\n      add\n      mload(0x40)\n      swap1\n      dup2\n      add\n      0x40\n      mstore\n      dup1\n      swap3\n      swap2\n      swap1\n      dup2\n      dup2\n      mstore\n      0x20\n      add\n      dup3\n      dup1\n      sload\n      tag_182\n      swap1\n      tag_52\n      jump\t// in\n    tag_182:\n      dup1\n      iszero\n      tag_183\n      jumpi\n      dup1\n      0x1f\n      lt\n      tag_184\n      jumpi\n      0x0100\n      dup1\n      dup4\n      sload\n      div\n      mul\n      dup4\n      mstore\n      swap2\n      0x20\n      add\n      swap2\n      jump(tag_183)\n    tag_184:\n      dup3\n      add\n      swap2\n      swap1\n      0x00\n      mstore\n      keccak256(0x00, 0x20)\n      swap1\n    tag_185:\n      dup2\n      sload\n      dup2\n      mstore\n      swap1\n      0x01\n      add\n      swap1\n      0x20\n      add\n      dup1\n      dup4\n      gt\n      tag_185\n      jumpi\n      dup3\n      swap1\n      sub\n      0x1f\n      and\n      dup3\n      add\n      swap2\n    tag_183:\n      pop\n      pop\n      pop\n      pop\n      pop\n      swap1\n      dup1\n      0x09\n      add\n      sload\n      swap1\n      pop\n      dup11\n      jump\t// out\n        /* \"contracts/TransactionTransactionDetailContract.sol\":2046:2376  function getAllTransaction() public view returns (Transaction[] memory) {... */\n    tag_30:\n        /* \"contracts/TransactionTransactionDetailContract.sol\":2096:2116  Transaction[] memory */\n      0x60\n        /* \"contracts/TransactionTransactionDetailContract.sol\":2128:2162  Transaction[] memory _transactions */\n      0x00\n        /* \"contracts/TransactionTransactionDetailContract.sol\":2196:2212  transactionCount */\n      sload(0x01)\n        /* \"contracts/TransactionTransactionDetailContract.sol\":2165:2222  new Transaction[](... */\n      0xffffffffffffffff\n      dup2\n      gt\n      iszero\n      tag_187\n      jumpi\n      tag_188\n      tag_101\n      jump\t// in\n    tag_188:\n    tag_187:\n      mload(0x40)\n      swap1\n      dup1\n      dup3\n      mstore\n      dup1\n      0x20\n      mul\n      0x20\n      add\n      dup3\n      add\n      0x40\n      mstore\n      dup1\n      iszero\n      tag_189\n      jumpi\n      dup2\n      0x20\n      add\n    tag_190:\n      tag_191\n      tag_49\n      jump\t// in\n    tag_191:\n      dup2\n      mstore\n      0x20\n      add\n      swap1\n      0x01\n      swap1\n      sub\n      swap1\n      dup2\n      tag_190\n      jumpi\n      swap1\n      pop\n    tag_189:\n      pop\n        /* \"contracts/TransactionTransactionDetailContract.sol\":2128:2222  Transaction[] memory _transactions = new Transaction[](... */\n      swap1\n      pop\n        /* \"contracts/TransactionTransactionDetailContract.sol\":2237:2243  uint i */\n      0x00\n        /* \"contracts/TransactionTransactionDetailContract.sol\":2246:2247  1 */\n      0x01\n        /* \"contracts/TransactionTransactionDetailContract.sol\":2237:2247  uint i = 1 */\n      swap1\n      pop\n        /* \"contracts/TransactionTransactionDetailContract.sol\":2232:2340  for (uint i = 1; i <= transactionCount; i++) {... */\n    tag_192:\n        /* \"contracts/TransactionTransactionDetailContract.sol\":2254:2270  transactionCount */\n      sload(0x01)\n        /* \"contracts/TransactionTransactionDetailContract.sol\":2249:2250  i */\n      dup2\n        /* \"contracts/TransactionTransactionDetailContract.sol\":2249:2270  i <= transactionCount */\n      gt\n        /* \"contracts/TransactionTransactionDetailContract.sol\":2232:2340  for (uint i = 1; i <= transactionCount; i++) {... */\n      tag_193\n      jumpi\n        /* \"contracts/TransactionTransactionDetailContract.sol\":2314:2326  transactions */\n      0x00\n        /* \"contracts/TransactionTransactionDetailContract.sol\":2314:2329  transactions[i] */\n      dup1\n        /* \"contracts/TransactionTransactionDetailContract.sol\":2327:2328  i */\n      dup3\n        /* \"contracts/TransactionTransactionDetailContract.sol\":2314:2329  transactions[i] */\n      dup2\n      mstore\n      0x20\n      add\n      swap1\n      dup2\n      mstore\n      0x20\n      add\n      0x00\n      keccak256\n        /* \"contracts/TransactionTransactionDetailContract.sol\":2291:2329  _transactions[i - 1] = transactions[i] */\n      mload(0x40)\n      dup1\n      0x0140\n      add\n      0x40\n      mstore\n      swap1\n      dup2\n      0x00\n      dup3\n      add\n      sload\n      dup2\n      mstore\n      0x20\n      add\n      0x01\n      dup3\n      add\n      dup1\n      sload\n      tag_195\n      swap1\n      tag_52\n      jump\t// in\n    tag_195:\n      dup1\n      0x1f\n      add\n      0x20\n      dup1\n      swap2\n      div\n      mul\n      0x20\n      add\n      mload(0x40)\n      swap1\n      dup2\n      add\n      0x40\n      mstore\n      dup1\n      swap3\n      swap2\n      swap1\n      dup2\n      dup2\n      mstore\n      0x20\n      add\n      dup3\n      dup1\n      sload\n      tag_196\n      swap1\n      tag_52\n      jump\t// in\n    tag_196:\n      dup1\n      iszero\n      tag_197\n      jumpi\n      dup1\n      0x1f\n      lt\n      tag_198\n      jumpi\n      0x0100\n      dup1\n      dup4\n      sload\n      div\n      mul\n      dup4\n      mstore\n      swap2\n      0x20\n      add\n      swap2\n      jump(tag_197)\n    tag_198:\n      dup3\n      add\n      swap2\n      swap1\n      0x00\n      mstore\n      keccak256(0x00, 0x20)\n      swap1\n    tag_199:\n      dup2\n      sload\n      dup2\n      mstore\n      swap1\n      0x01\n      add\n      swap1\n      0x20\n      add\n      dup1\n      dup4\n      gt\n      tag_199\n      jumpi\n      dup3\n      swap1\n      sub\n      0x1f\n      and\n      dup3\n      add\n      swap2\n    tag_197:\n      pop\n      pop\n      pop\n      pop\n      pop\n      dup2\n      mstore\n      0x20\n      add\n      0x02\n      dup3\n      add\n      dup1\n      sload\n      tag_200\n      swap1\n      tag_52\n      jump\t// in\n    tag_200:\n      dup1\n      0x1f\n      add\n      0x20\n      dup1\n      swap2\n      div\n      mul\n      0x20\n      add\n      mload(0x40)\n      swap1\n      dup2\n      add\n      0x40\n      mstore\n      dup1\n      swap3\n      swap2\n      swap1\n      dup2\n      dup2\n      mstore\n      0x20\n      add\n      dup3\n      dup1\n      sload\n      tag_201\n      swap1\n      tag_52\n      jump\t// in\n    tag_201:\n      dup1\n      iszero\n      tag_202\n      jumpi\n      dup1\n      0x1f\n      lt\n      tag_203\n      jumpi\n      0x0100\n      dup1\n      dup4\n      sload\n      div\n      mul\n      dup4\n      mstore\n      swap2\n      0x20\n      add\n      swap2\n      jump(tag_202)\n    tag_203:\n      dup3\n      add\n      swap2\n      swap1\n      0x00\n      mstore\n      keccak256(0x00, 0x20)\n      swap1\n    tag_204:\n      dup2\n      sload\n      dup2\n      mstore\n      swap1\n      0x01\n      add\n      swap1\n      0x20\n      add\n      dup1\n      dup4\n      gt\n      tag_204\n      jumpi\n      dup3\n      swap1\n      sub\n      0x1f\n      and\n      dup3\n      add\n      swap2\n    tag_202:\n      pop\n      pop\n      pop\n      pop\n      pop\n      dup2\n      mstore\n      0x20\n      add\n      0x03\n      dup3\n      add\n      dup1\n      sload\n      tag_205\n      swap1\n      tag_52\n      jump\t// in\n    tag_205:\n      dup1\n      0x1f\n      add\n      0x20\n      dup1\n      swap2\n      div\n      mul\n      0x20\n      add\n      mload(0x40)\n      swap1\n      dup2\n      add\n      0x40\n      mstore\n      dup1\n      swap3\n      swap2\n      swap1\n      dup2\n      dup2\n      mstore\n      0x20\n      add\n      dup3\n      dup1\n      sload\n      tag_206\n      swap1\n      tag_52\n      jump\t// in\n    tag_206:\n      dup1\n      iszero\n      tag_207\n      jumpi\n      dup1\n      0x1f\n      lt\n      tag_208\n      jumpi\n      0x0100\n      dup1\n      dup4\n      sload\n      div\n      mul\n      dup4\n      mstore\n      swap2\n      0x20\n      add\n      swap2\n      jump(tag_207)\n    tag_208:\n      dup3\n      add\n      swap2\n      swap1\n      0x00\n      mstore\n      keccak256(0x00, 0x20)\n      swap1\n    tag_209:\n      dup2\n      sload\n      dup2\n      mstore\n      swap1\n      0x01\n      add\n      swap1\n      0x20\n      add\n      dup1\n      dup4\n      gt\n      tag_209\n      jumpi\n      dup3\n      swap1\n      sub\n      0x1f\n      and\n      dup3\n      add\n      swap2\n    tag_207:\n      pop\n      pop\n      pop\n      pop\n      pop\n      dup2\n      mstore\n      0x20\n      add\n      0x04\n      dup3\n      add\n      dup1\n      sload\n      tag_210\n      swap1\n      tag_52\n      jump\t// in\n    tag_210:\n      dup1\n      0x1f\n      add\n      0x20\n      dup1\n      swap2\n      div\n      mul\n      0x20\n      add\n      mload(0x40)\n      swap1\n      dup2\n      add\n      0x40\n      mstore\n      dup1\n      swap3\n      swap2\n      swap1\n      dup2\n      dup2\n      mstore\n      0x20\n      add\n      dup3\n      dup1\n      sload\n      tag_211\n      swap1\n      tag_52\n      jump\t// in\n    tag_211:\n      dup1\n      iszero\n      tag_212\n      jumpi\n      dup1\n      0x1f\n      lt\n      tag_213\n      jumpi\n      0x0100\n      dup1\n      dup4\n      sload\n      div\n      mul\n      dup4\n      mstore\n      swap2\n      0x20\n      add\n      swap2\n      jump(tag_212)\n    tag_213:\n      dup3\n      add\n      swap2\n      swap1\n      0x00\n      mstore\n      keccak256(0x00, 0x20)\n      swap1\n    tag_214:\n      dup2\n      sload\n      dup2\n      mstore\n      swap1\n      0x01\n      add\n      swap1\n      0x20\n      add\n      dup1\n      dup4\n      gt\n      tag_214\n      jumpi\n      dup3\n      swap1\n      sub\n      0x1f\n      and\n      dup3\n      add\n      swap2\n    tag_212:\n      pop\n      pop\n      pop\n      pop\n      pop\n      dup2\n      mstore\n      0x20\n      add\n      0x05\n      dup3\n      add\n      dup1\n      sload\n      tag_215\n      swap1\n      tag_52\n      jump\t// in\n    tag_215:\n      dup1\n      0x1f\n      add\n      0x20\n      dup1\n      swap2\n      div\n      mul\n      0x20\n      add\n      mload(0x40)\n      swap1\n      dup2\n      add\n      0x40\n      mstore\n      dup1\n      swap3\n      swap2\n      swap1\n      dup2\n      dup2\n      mstore\n      0x20\n      add\n      dup3\n      dup1\n      sload\n      tag_216\n      swap1\n      tag_52\n      jump\t// in\n    tag_216:\n      dup1\n      iszero\n      tag_217\n      jumpi\n      dup1\n      0x1f\n      lt\n      tag_218\n      jumpi\n      0x0100\n      dup1\n      dup4\n      sload\n      div\n      mul\n      dup4\n      mstore\n      swap2\n      0x20\n      add\n      swap2\n      jump(tag_217)\n    tag_218:\n      dup3\n      add\n      swap2\n      swap1\n      0x00\n      mstore\n      keccak256(0x00, 0x20)\n      swap1\n    tag_219:\n      dup2\n      sload\n      dup2\n      mstore\n      swap1\n      0x01\n      add\n      swap1\n      0x20\n      add\n      dup1\n      dup4\n      gt\n      tag_219\n      jumpi\n      dup3\n      swap1\n      sub\n      0x1f\n      and\n      dup3\n      add\n      swap2\n    tag_217:\n      pop\n      pop\n      pop\n      pop\n      pop\n      dup2\n      mstore\n      0x20\n      add\n      0x06\n      dup3\n      add\n      sload\n      dup2\n      mstore\n      0x20\n      add\n      0x07\n      dup3\n      add\n      dup1\n      sload\n      tag_220\n      swap1\n      tag_52\n      jump\t// in\n    tag_220:\n      dup1\n      0x1f\n      add\n      0x20\n      dup1\n      swap2\n      div\n      mul\n      0x20\n      add\n      mload(0x40)\n      swap1\n      dup2\n      add\n      0x40\n      mstore\n      dup1\n      swap3\n      swap2\n      swap1\n      dup2\n      dup2\n      mstore\n      0x20\n      add\n      dup3\n      dup1\n      sload\n      tag_221\n      swap1\n      tag_52\n      jump\t// in\n    tag_221:\n      dup1\n      iszero\n      tag_222\n      jumpi\n      dup1\n      0x1f\n      lt\n      tag_223\n      jumpi\n      0x0100\n      dup1\n      dup4\n      sload\n      div\n      mul\n      dup4\n      mstore\n      swap2\n      0x20\n      add\n      swap2\n      jump(tag_222)\n    tag_223:\n      dup3\n      add\n      swap2\n      swap1\n      0x00\n      mstore\n      keccak256(0x00, 0x20)\n      swap1\n    tag_224:\n      dup2\n      sload\n      dup2\n      mstore\n      swap1\n      0x01\n      add\n      swap1\n      0x20\n      add\n      dup1\n      dup4\n      gt\n      tag_224\n      jumpi\n      dup3\n      swap1\n      sub\n      0x1f\n      and\n      dup3\n      add\n      swap2\n    tag_222:\n      pop\n      pop\n      pop\n      pop\n      pop\n      dup2\n      mstore\n      0x20\n      add\n      0x08\n      dup3\n      add\n      dup1\n      sload\n      tag_225\n      swap1\n      tag_52\n      jump\t// in\n    tag_225:\n      dup1\n      0x1f\n      add\n      0x20\n      dup1\n      swap2\n      div\n      mul\n      0x20\n      add\n      mload(0x40)\n      swap1\n      dup2\n      add\n      0x40\n      mstore\n      dup1\n      swap3\n      swap2\n      swap1\n      dup2\n      dup2\n      mstore\n      0x20\n      add\n      dup3\n      dup1\n      sload\n      tag_226\n      swap1\n      tag_52\n      jump\t// in\n    tag_226:\n      dup1\n      iszero\n      tag_227\n      jumpi\n      dup1\n      0x1f\n      lt\n      tag_228\n      jumpi\n      0x0100\n      dup1\n      dup4\n      sload\n      div\n      mul\n      dup4\n      mstore\n      swap2\n      0x20\n      add\n      swap2\n      jump(tag_227)\n    tag_228:\n      dup3\n      add\n      swap2\n      swap1\n      0x00\n      mstore\n      keccak256(0x00, 0x20)\n      swap1\n    tag_229:\n      dup2\n      sload\n      dup2\n      mstore\n      swap1\n      0x01\n      add\n      swap1\n      0x20\n      add\n      dup1\n      dup4\n      gt\n      tag_229\n      jumpi\n      dup3\n      swap1\n      sub\n      0x1f\n      and\n      dup3\n      add\n      swap2\n    tag_227:\n      pop\n      pop\n      pop\n      pop\n      pop\n      dup2\n      mstore\n      0x20\n      add\n      0x09\n      dup3\n      add\n      sload\n      dup2\n      mstore\n      pop\n      pop\n        /* \"contracts/TransactionTransactionDetailContract.sol\":2291:2304  _transactions */\n      dup3\n        /* \"contracts/TransactionTransactionDetailContract.sol\":2309:2310  1 */\n      0x01\n        /* \"contracts/TransactionTransactionDetailContract.sol\":2305:2306  i */\n      dup4\n        /* \"contracts/TransactionTransactionDetailContract.sol\":2305:2310  i - 1 */\n      tag_230\n      swap2\n      swap1\n      tag_231\n      jump\t// in\n    tag_230:\n        /* \"contracts/TransactionTransactionDetailContract.sol\":2291:2311  _transactions[i - 1] */\n      dup2\n      mload\n      dup2\n      lt\n      tag_232\n      jumpi\n      tag_233\n      tag_148\n      jump\t// in\n    tag_233:\n    tag_232:\n      0x20\n      mul\n      0x20\n      add\n      add\n        /* \"contracts/TransactionTransactionDetailContract.sol\":2291:2329  _transactions[i - 1] = transactions[i] */\n      dup2\n      swap1\n      mstore\n      pop\n        /* \"contracts/TransactionTransactionDetailContract.sol\":2272:2275  i++ */\n      dup1\n      dup1\n      tag_234\n      swap1\n      tag_97\n      jump\t// in\n    tag_234:\n      swap2\n      pop\n      pop\n        /* \"contracts/TransactionTransactionDetailContract.sol\":2232:2340  for (uint i = 1; i <= transactionCount; i++) {... */\n      jump(tag_192)\n    tag_193:\n      pop\n        /* \"contracts/TransactionTransactionDetailContract.sol\":2356:2369  _transactions */\n      dup1\n        /* \"contracts/TransactionTransactionDetailContract.sol\":2349:2369  return _transactions */\n      swap2\n      pop\n      pop\n        /* \"contracts/TransactionTransactionDetailContract.sol\":2046:2376  function getAllTransaction() public view returns (Transaction[] memory) {... */\n      swap1\n      jump\t// out\n        /* \"contracts/TransactionTransactionDetailContract.sol\":447:475  uint public transactionCount */\n    tag_33:\n      sload(0x01)\n      dup2\n      jump\t// out\n        /* \"contracts/TransactionTransactionDetailContract.sol\":1338:2040  function updatePaymentStatus(... */\n    tag_39:\n        /* \"contracts/TransactionTransactionDetailContract.sol\":1482:1520  Transaction memory originalTransaction */\n      0x00\n        /* \"contracts/TransactionTransactionDetailContract.sol\":1523:1535  transactions */\n      dup1\n        /* \"contracts/TransactionTransactionDetailContract.sol\":1523:1551  transactions[_transactionId] */\n      0x00\n        /* \"contracts/TransactionTransactionDetailContract.sol\":1536:1550  _transactionId */\n      dup6\n        /* \"contracts/TransactionTransactionDetailContract.sol\":1523:1551  transactions[_transactionId] */\n      dup2\n      mstore\n      0x20\n      add\n      swap1\n      dup2\n      mstore\n      0x20\n      add\n      0x00\n      keccak256\n        /* \"contracts/TransactionTransactionDetailContract.sol\":1482:1551  Transaction memory originalTransaction = transactions[_transactionId] */\n      mload(0x40)\n      dup1\n      0x0140\n      add\n      0x40\n      mstore\n      swap1\n      dup2\n      0x00\n      dup3\n      add\n      sload\n      dup2\n      mstore\n      0x20\n      add\n      0x01\n      dup3\n      add\n      dup1\n      sload\n      tag_236\n      swap1\n      tag_52\n      jump\t// in\n    tag_236:\n      dup1\n      0x1f\n      add\n      0x20\n      dup1\n      swap2\n      div\n      mul\n      0x20\n      add\n      mload(0x40)\n      swap1\n      dup2\n      add\n      0x40\n      mstore\n      dup1\n      swap3\n      swap2\n      swap1\n      dup2\n      dup2\n      mstore\n      0x20\n      add\n      dup3\n      dup1\n      sload\n      tag_237\n      swap1\n      tag_52\n      jump\t// in\n    tag_237:\n      dup1\n      iszero\n      tag_238\n      jumpi\n      dup1\n      0x1f\n      lt\n      tag_239\n      jumpi\n      0x0100\n      dup1\n      dup4\n      sload\n      div\n      mul\n      dup4\n      mstore\n      swap2\n      0x20\n      add\n      swap2\n      jump(tag_238)\n    tag_239:\n      dup3\n      add\n      swap2\n      swap1\n      0x00\n      mstore\n      keccak256(0x00, 0x20)\n      swap1\n    tag_240:\n      dup2\n      sload\n      dup2\n      mstore\n      swap1\n      0x01\n      add\n      swap1\n      0x20\n      add\n      dup1\n      dup4\n      gt\n      tag_240\n      jumpi\n      dup3\n      swap1\n      sub\n      0x1f\n      and\n      dup3\n      add\n      swap2\n    tag_238:\n      pop\n      pop\n      pop\n      pop\n      pop\n      dup2\n      mstore\n      0x20\n      add\n      0x02\n      dup3\n      add\n      dup1\n      sload\n      tag_241\n      swap1\n      tag_52\n      jump\t// in\n    tag_241:\n      dup1\n      0x1f\n      add\n      0x20\n      dup1\n      swap2\n      div\n      mul\n      0x20\n      add\n      mload(0x40)\n      swap1\n      dup2\n      add\n      0x40\n      mstore\n      dup1\n      swap3\n      swap2\n      swap1\n      dup2\n      dup2\n      mstore\n      0x20\n      add\n      dup3\n      dup1\n      sload\n      tag_242\n      swap1\n      tag_52\n      jump\t// in\n    tag_242:\n      dup1\n      iszero\n      tag_243\n      jumpi\n      dup1\n      0x1f\n      lt\n      tag_244\n      jumpi\n      0x0100\n      dup1\n      dup4\n      sload\n      div\n      mul\n      dup4\n      mstore\n      swap2\n      0x20\n      add\n      swap2\n      jump(tag_243)\n    tag_244:\n      dup3\n      add\n      swap2\n      swap1\n      0x00\n      mstore\n      keccak256(0x00, 0x20)\n      swap1\n    tag_245:\n      dup2\n      sload\n      dup2\n      mstore\n      swap1\n      0x01\n      add\n      swap1\n      0x20\n      add\n      dup1\n      dup4\n      gt\n      tag_245\n      jumpi\n      dup3\n      swap1\n      sub\n      0x1f\n      and\n      dup3\n      add\n      swap2\n    tag_243:\n      pop\n      pop\n      pop\n      pop\n      pop\n      dup2\n      mstore\n      0x20\n      add\n      0x03\n      dup3\n      add\n      dup1\n      sload\n      tag_246\n      swap1\n      tag_52\n      jump\t// in\n    tag_246:\n      dup1\n      0x1f\n      add\n      0x20\n      dup1\n      swap2\n      div\n      mul\n      0x20\n      add\n      mload(0x40)\n      swap1\n      dup2\n      add\n      0x40\n      mstore\n      dup1\n      swap3\n      swap2\n      swap1\n      dup2\n      dup2\n      mstore\n      0x20\n      add\n      dup3\n      dup1\n      sload\n      tag_247\n      swap1\n      tag_52\n      jump\t// in\n    tag_247:\n      dup1\n      iszero\n      tag_248\n      jumpi\n      dup1\n      0x1f\n      lt\n      tag_249\n      jumpi\n      0x0100\n      dup1\n      dup4\n      sload\n      div\n      mul\n      dup4\n      mstore\n      swap2\n      0x20\n      add\n      swap2\n      jump(tag_248)\n    tag_249:\n      dup3\n      add\n      swap2\n      swap1\n      0x00\n      mstore\n      keccak256(0x00, 0x20)\n      swap1\n    tag_250:\n      dup2\n      sload\n      dup2\n      mstore\n      swap1\n      0x01\n      add\n      swap1\n      0x20\n      add\n      dup1\n      dup4\n      gt\n      tag_250\n      jumpi\n      dup3\n      swap1\n      sub\n      0x1f\n      and\n      dup3\n      add\n      swap2\n    tag_248:\n      pop\n      pop\n      pop\n      pop\n      pop\n      dup2\n      mstore\n      0x20\n      add\n      0x04\n      dup3\n      add\n      dup1\n      sload\n      tag_251\n      swap1\n      tag_52\n      jump\t// in\n    tag_251:\n      dup1\n      0x1f\n      add\n      0x20\n      dup1\n      swap2\n      div\n      mul\n      0x20\n      add\n      mload(0x40)\n      swap1\n      dup2\n      add\n      0x40\n      mstore\n      dup1\n      swap3\n      swap2\n      swap1\n      dup2\n      dup2\n      mstore\n      0x20\n      add\n      dup3\n      dup1\n      sload\n      tag_252\n      swap1\n      tag_52\n      jump\t// in\n    tag_252:\n      dup1\n      iszero\n      tag_253\n      jumpi\n      dup1\n      0x1f\n      lt\n      tag_254\n      jumpi\n      0x0100\n      dup1\n      dup4\n      sload\n      div\n      mul\n      dup4\n      mstore\n      swap2\n      0x20\n      add\n      swap2\n      jump(tag_253)\n    tag_254:\n      dup3\n      add\n      swap2\n      swap1\n      0x00\n      mstore\n      keccak256(0x00, 0x20)\n      swap1\n    tag_255:\n      dup2\n      sload\n      dup2\n      mstore\n      swap1\n      0x01\n      add\n      swap1\n      0x20\n      add\n      dup1\n      dup4\n      gt\n      tag_255\n      jumpi\n      dup3\n      swap1\n      sub\n      0x1f\n      and\n      dup3\n      add\n      swap2\n    tag_253:\n      pop\n      pop\n      pop\n      pop\n      pop\n      dup2\n      mstore\n      0x20\n      add\n      0x05\n      dup3\n      add\n      dup1\n      sload\n      tag_256\n      swap1\n      tag_52\n      jump\t// in\n    tag_256:\n      dup1\n      0x1f\n      add\n      0x20\n      dup1\n      swap2\n      div\n      mul\n      0x20\n      add\n      mload(0x40)\n      swap1\n      dup2\n      add\n      0x40\n      mstore\n      dup1\n      swap3\n      swap2\n      swap1\n      dup2\n      dup2\n      mstore\n      0x20\n      add\n      dup3\n      dup1\n      sload\n      tag_257\n      swap1\n      tag_52\n      jump\t// in\n    tag_257:\n      dup1\n      iszero\n      tag_258\n      jumpi\n      dup1\n      0x1f\n      lt\n      tag_259\n      jumpi\n      0x0100\n      dup1\n      dup4\n      sload\n      div\n      mul\n      dup4\n      mstore\n      swap2\n      0x20\n      add\n      swap2\n      jump(tag_258)\n    tag_259:\n      dup3\n      add\n      swap2\n      swap1\n      0x00\n      mstore\n      keccak256(0x00, 0x20)\n      swap1\n    tag_260:\n      dup2\n      sload\n      dup2\n      mstore\n      swap1\n      0x01\n      add\n      swap1\n      0x20\n      add\n      dup1\n      dup4\n      gt\n      tag_260\n      jumpi\n      dup3\n      swap1\n      sub\n      0x1f\n      and\n      dup3\n      add\n      swap2\n    tag_258:\n      pop\n      pop\n      pop\n      pop\n      pop\n      dup2\n      mstore\n      0x20\n      add\n      0x06\n      dup3\n      add\n      sload\n      dup2\n      mstore\n      0x20\n      add\n      0x07\n      dup3\n      add\n      dup1\n      sload\n      tag_261\n      swap1\n      tag_52\n      jump\t// in\n    tag_261:\n      dup1\n      0x1f\n      add\n      0x20\n      dup1\n      swap2\n      div\n      mul\n      0x20\n      add\n      mload(0x40)\n      swap1\n      dup2\n      add\n      0x40\n      mstore\n      dup1\n      swap3\n      swap2\n      swap1\n      dup2\n      dup2\n      mstore\n      0x20\n      add\n      dup3\n      dup1\n      sload\n      tag_262\n      swap1\n      tag_52\n      jump\t// in\n    tag_262:\n      dup1\n      iszero\n      tag_263\n      jumpi\n      dup1\n      0x1f\n      lt\n      tag_264\n      jumpi\n      0x0100\n      dup1\n      dup4\n      sload\n      div\n      mul\n      dup4\n      mstore\n      swap2\n      0x20\n      add\n      swap2\n      jump(tag_263)\n    tag_264:\n      dup3\n      add\n      swap2\n      swap1\n      0x00\n      mstore\n      keccak256(0x00, 0x20)\n      swap1\n    tag_265:\n      dup2\n      sload\n      dup2\n      mstore\n      swap1\n      0x01\n      add\n      swap1\n      0x20\n      add\n      dup1\n      dup4\n      gt\n      tag_265\n      jumpi\n      dup3\n      swap1\n      sub\n      0x1f\n      and\n      dup3\n      add\n      swap2\n    tag_263:\n      pop\n      pop\n      pop\n      pop\n      pop\n      dup2\n      mstore\n      0x20\n      add\n      0x08\n      dup3\n      add\n      dup1\n      sload\n      tag_266\n      swap1\n      tag_52\n      jump\t// in\n    tag_266:\n      dup1\n      0x1f\n      add\n      0x20\n      dup1\n      swap2\n      div\n      mul\n      0x20\n      add\n      mload(0x40)\n      swap1\n      dup2\n      add\n      0x40\n      mstore\n      dup1\n      swap3\n      swap2\n      swap1\n      dup2\n      dup2\n      mstore\n      0x20\n      add\n      dup3\n      dup1\n      sload\n      tag_267\n      swap1\n      tag_52\n      jump\t// in\n    tag_267:\n      dup1\n      iszero\n      tag_268\n      jumpi\n      dup1\n      0x1f\n      lt\n      tag_269\n      jumpi\n      0x0100\n      dup1\n      dup4\n      sload\n      div\n      mul\n      dup4\n      mstore\n      swap2\n      0x20\n      add\n      swap2\n      jump(tag_268)\n    tag_269:\n      dup3\n      add\n      swap2\n      swap1\n      0x00\n      mstore\n      keccak256(0x00, 0x20)\n      swap1\n    tag_270:\n      dup2\n      sload\n      dup2\n      mstore\n      swap1\n      0x01\n      add\n      swap1\n      0x20\n      add\n      dup1\n      dup4\n      gt\n      tag_270\n      jumpi\n      dup3\n      swap1\n      sub\n      0x1f\n      and\n      dup3\n      add\n      swap2\n    tag_268:\n      pop\n      pop\n      pop\n      pop\n      pop\n      dup2\n      mstore\n      0x20\n      add\n      0x09\n      dup3\n      add\n      sload\n      dup2\n      mstore\n      pop\n      pop\n      swap1\n      pop\n        /* \"contracts/TransactionTransactionDetailContract.sol\":1561:1577  transactionCount */\n      0x01\n      0x00\n        /* \"contracts/TransactionTransactionDetailContract.sol\":1561:1579  transactionCount++ */\n      dup2\n      sload\n      dup1\n      swap3\n      swap2\n      swap1\n      tag_271\n      swap1\n      tag_97\n      jump\t// in\n    tag_271:\n      swap2\n      swap1\n      pop\n      sstore\n      pop\n        /* \"contracts/TransactionTransactionDetailContract.sol\":1622:2033  Transaction(... */\n      mload(0x40)\n      dup1\n      0x0140\n      add\n      0x40\n      mstore\n      dup1\n        /* \"contracts/TransactionTransactionDetailContract.sol\":1647:1663  transactionCount */\n      sload(0x01)\n        /* \"contracts/TransactionTransactionDetailContract.sol\":1622:2033  Transaction(... */\n      dup2\n      mstore\n      0x20\n      add\n        /* \"contracts/TransactionTransactionDetailContract.sol\":1677:1696  originalTransaction */\n      dup3\n        /* \"contracts/TransactionTransactionDetailContract.sol\":1677:1712  originalTransaction.transactionCode */\n      0x20\n      add\n      mload\n        /* \"contracts/TransactionTransactionDetailContract.sol\":1622:2033  Transaction(... */\n      dup2\n      mstore\n      0x20\n      add\n        /* \"contracts/TransactionTransactionDetailContract.sol\":1726:1745  originalTransaction */\n      dup3\n        /* \"contracts/TransactionTransactionDetailContract.sol\":1726:1751  originalTransaction.buyer */\n      0x40\n      add\n      mload\n        /* \"contracts/TransactionTransactionDetailContract.sol\":1622:2033  Transaction(... */\n      dup2\n      mstore\n      0x20\n      add\n        /* \"contracts/TransactionTransactionDetailContract.sol\":1765:1784  originalTransaction */\n      dup3\n        /* \"contracts/TransactionTransactionDetailContract.sol\":1765:1792  originalTransaction.buyerId */\n      0x60\n      add\n      mload\n        /* \"contracts/TransactionTransactionDetailContract.sol\":1622:2033  Transaction(... */\n      dup2\n      mstore\n      0x20\n      add\n        /* \"contracts/TransactionTransactionDetailContract.sol\":1806:1825  originalTransaction */\n      dup3\n        /* \"contracts/TransactionTransactionDetailContract.sol\":1806:1839  originalTransaction.sellerCompany */\n      0x80\n      add\n      mload\n        /* \"contracts/TransactionTransactionDetailContract.sol\":1622:2033  Transaction(... */\n      dup2\n      mstore\n      0x20\n      add\n        /* \"contracts/TransactionTransactionDetailContract.sol\":1853:1872  originalTransaction */\n      dup3\n        /* \"contracts/TransactionTransactionDetailContract.sol\":1853:1881  originalTransaction.sellerId */\n      0xa0\n      add\n      mload\n        /* \"contracts/TransactionTransactionDetailContract.sol\":1622:2033  Transaction(... */\n      dup2\n      mstore\n      0x20\n      add\n        /* \"contracts/TransactionTransactionDetailContract.sol\":1895:1914  originalTransaction */\n      dup3\n        /* \"contracts/TransactionTransactionDetailContract.sol\":1895:1927  originalTransaction.sumOfProduct */\n      0xc0\n      add\n      mload\n        /* \"contracts/TransactionTransactionDetailContract.sol\":1622:2033  Transaction(... */\n      dup2\n      mstore\n      0x20\n      add\n        /* \"contracts/TransactionTransactionDetailContract.sol\":1941:1960  originalTransaction */\n      dup3\n        /* \"contracts/TransactionTransactionDetailContract.sol\":1941:1971  originalTransaction.totalPrice */\n      0xe0\n      add\n      mload\n        /* \"contracts/TransactionTransactionDetailContract.sol\":1622:2033  Transaction(... */\n      dup2\n      mstore\n      0x20\n      add\n        /* \"contracts/TransactionTransactionDetailContract.sol\":1985:1999  _paymentStatus */\n      dup5\n        /* \"contracts/TransactionTransactionDetailContract.sol\":1622:2033  Transaction(... */\n      dup2\n      mstore\n      0x20\n      add\n        /* \"contracts/TransactionTransactionDetailContract.sol\":2013:2023  _createdAt */\n      dup4\n        /* \"contracts/TransactionTransactionDetailContract.sol\":1622:2033  Transaction(... */\n      dup2\n      mstore\n      pop\n        /* \"contracts/TransactionTransactionDetailContract.sol\":1589:1601  transactions */\n      0x00\n        /* \"contracts/TransactionTransactionDetailContract.sol\":1589:1619  transactions[transactionCount] */\n      dup1\n        /* \"contracts/TransactionTransactionDetailContract.sol\":1602:1618  transactionCount */\n      sload(0x01)\n        /* \"contracts/TransactionTransactionDetailContract.sol\":1589:1619  transactions[transactionCount] */\n      dup2\n      mstore\n      0x20\n      add\n      swap1\n      dup2\n      mstore\n      0x20\n      add\n      0x00\n      keccak256\n        /* \"contracts/TransactionTransactionDetailContract.sol\":1589:2033  transactions[transactionCount] = Transaction(... */\n      0x00\n      dup3\n      add\n      mload\n      dup2\n      0x00\n      add\n      sstore\n      0x20\n      dup3\n      add\n      mload\n      dup2\n      0x01\n      add\n      swap1\n      dup2\n      tag_272\n      swap2\n      swap1\n      tag_273\n      jump\t// in\n    tag_272:\n      pop\n      0x40\n      dup3\n      add\n      mload\n      dup2\n      0x02\n      add\n      swap1\n      dup2\n      tag_274\n      swap2\n      swap1\n      tag_273\n      jump\t// in\n    tag_274:\n      pop\n      0x60\n      dup3\n      add\n      mload\n      dup2\n      0x03\n      add\n      swap1\n      dup2\n      tag_275\n      swap2\n      swap1\n      tag_273\n      jump\t// in\n    tag_275:\n      pop\n      0x80\n      dup3\n      add\n      mload\n      dup2\n      0x04\n      add\n      swap1\n      dup2\n      tag_276\n      swap2\n      swap1\n      tag_273\n      jump\t// in\n    tag_276:\n      pop\n      0xa0\n      dup3\n      add\n      mload\n      dup2\n      0x05\n      add\n      swap1\n      dup2\n      tag_277\n      swap2\n      swap1\n      tag_273\n      jump\t// in\n    tag_277:\n      pop\n      0xc0\n      dup3\n      add\n      mload\n      dup2\n      0x06\n      add\n      sstore\n      0xe0\n      dup3\n      add\n      mload\n      dup2\n      0x07\n      add\n      swap1\n      dup2\n      tag_278\n      swap2\n      swap1\n      tag_273\n      jump\t// in\n    tag_278:\n      pop\n      0x0100\n      dup3\n      add\n      mload\n      dup2\n      0x08\n      add\n      swap1\n      dup2\n      tag_279\n      swap2\n      swap1\n      tag_273\n      jump\t// in\n    tag_279:\n      pop\n      0x0120\n      dup3\n      add\n      mload\n      dup2\n      0x09\n      add\n      sstore\n      swap1\n      pop\n      pop\n        /* \"contracts/TransactionTransactionDetailContract.sol\":1472:2040  {... */\n      pop\n        /* \"contracts/TransactionTransactionDetailContract.sol\":1338:2040  function updatePaymentStatus(... */\n      pop\n      pop\n      pop\n      jump\t// out\n        /* \"contracts/TransactionTransactionDetailContract.sol\":2382:3222  function getTransactionByBuyerId(... */\n    tag_42:\n        /* \"contracts/TransactionTransactionDetailContract.sol\":2474:2494  Transaction[] memory */\n      0x60\n        /* \"contracts/TransactionTransactionDetailContract.sol\":2506:2516  uint count */\n      0x00\n        /* \"contracts/TransactionTransactionDetailContract.sol\":2535:2541  uint i */\n      dup1\n        /* \"contracts/TransactionTransactionDetailContract.sol\":2544:2545  1 */\n      0x01\n        /* \"contracts/TransactionTransactionDetailContract.sol\":2535:2545  uint i = 1 */\n      swap1\n      pop\n        /* \"contracts/TransactionTransactionDetailContract.sol\":2530:2784  for (uint i = 1; i <= transactionCount; i++) {... */\n    tag_281:\n        /* \"contracts/TransactionTransactionDetailContract.sol\":2552:2568  transactionCount */\n      sload(0x01)\n        /* \"contracts/TransactionTransactionDetailContract.sol\":2547:2548  i */\n      dup2\n        /* \"contracts/TransactionTransactionDetailContract.sol\":2547:2568  i <= transactionCount */\n      gt\n        /* \"contracts/TransactionTransactionDetailContract.sol\":2530:2784  for (uint i = 1; i <= transactionCount; i++) {... */\n      tag_282\n      jumpi\n        /* \"contracts/TransactionTransactionDetailContract.sol\":2709:2717  _buyerId */\n      dup4\n        /* \"contracts/TransactionTransactionDetailContract.sol\":2692:2718  abi.encodePacked(_buyerId) */\n      add(0x20, mload(0x40))\n      tag_284\n      swap2\n      swap1\n      tag_92\n      jump\t// in\n    tag_284:\n      mload(0x40)\n      0x20\n      dup2\n      dup4\n      sub\n      sub\n      dup2\n      mstore\n      swap1\n      0x40\n      mstore\n        /* \"contracts/TransactionTransactionDetailContract.sol\":2682:2719  keccak256(abi.encodePacked(_buyerId)) */\n      dup1\n      mload\n      swap1\n      0x20\n      add\n      keccak256\n        /* \"contracts/TransactionTransactionDetailContract.sol\":2637:2649  transactions */\n      0x00\n        /* \"contracts/TransactionTransactionDetailContract.sol\":2637:2652  transactions[i] */\n      dup1\n        /* \"contracts/TransactionTransactionDetailContract.sol\":2650:2651  i */\n      dup4\n        /* \"contracts/TransactionTransactionDetailContract.sol\":2637:2652  transactions[i] */\n      dup2\n      mstore\n      0x20\n      add\n      swap1\n      dup2\n      mstore\n      0x20\n      add\n      0x00\n      keccak256\n        /* \"contracts/TransactionTransactionDetailContract.sol\":2637:2660  transactions[i].buyerId */\n      0x03\n      add\n        /* \"contracts/TransactionTransactionDetailContract.sol\":2620:2661  abi.encodePacked(transactions[i].buyerId) */\n      add(0x20, mload(0x40))\n      tag_285\n      swap2\n      swap1\n      tag_94\n      jump\t// in\n    tag_285:\n      mload(0x40)\n      0x20\n      dup2\n      dup4\n      sub\n      sub\n      dup2\n      mstore\n      swap1\n      0x40\n      mstore\n        /* \"contracts/TransactionTransactionDetailContract.sol\":2610:2662  keccak256(abi.encodePacked(transactions[i].buyerId)) */\n      dup1\n      mload\n      swap1\n      0x20\n      add\n      keccak256\n        /* \"contracts/TransactionTransactionDetailContract.sol\":2610:2719  keccak256(abi.encodePacked(transactions[i].buyerId)) ==... */\n      sub\n        /* \"contracts/TransactionTransactionDetailContract.sol\":2589:2774  if (... */\n      tag_286\n      jumpi\n        /* \"contracts/TransactionTransactionDetailContract.sol\":2752:2759  count++ */\n      dup2\n      dup1\n      tag_287\n      swap1\n      tag_97\n      jump\t// in\n    tag_287:\n      swap3\n      pop\n      pop\n        /* \"contracts/TransactionTransactionDetailContract.sol\":2589:2774  if (... */\n    tag_286:\n        /* \"contracts/TransactionTransactionDetailContract.sol\":2570:2573  i++ */\n      dup1\n      dup1\n      tag_288\n      swap1\n      tag_97\n      jump\t// in\n    tag_288:\n      swap2\n      pop\n      pop\n        /* \"contracts/TransactionTransactionDetailContract.sol\":2530:2784  for (uint i = 1; i <= transactionCount; i++) {... */\n      jump(tag_281)\n    tag_282:\n      pop\n        /* \"contracts/TransactionTransactionDetailContract.sol\":2793:2827  Transaction[] memory _transactions */\n      0x00\n        /* \"contracts/TransactionTransactionDetailContract.sol\":2848:2853  count */\n      dup2\n        /* \"contracts/TransactionTransactionDetailContract.sol\":2830:2854  new Transaction[](count) */\n      0xffffffffffffffff\n      dup2\n      gt\n      iszero\n      tag_289\n      jumpi\n      tag_290\n      tag_101\n      jump\t// in\n    tag_290:\n    tag_289:\n      mload(0x40)\n      swap1\n      dup1\n      dup3\n      mstore\n      dup1\n      0x20\n      mul\n      0x20\n      add\n      dup3\n      add\n      0x40\n      mstore\n      dup1\n      iszero\n      tag_291\n      jumpi\n      dup2\n      0x20\n      add\n    tag_292:\n      tag_293\n      tag_49\n      jump\t// in\n    tag_293:\n      dup2\n      mstore\n      0x20\n      add\n      swap1\n      0x01\n      swap1\n      sub\n      swap1\n      dup2\n      tag_292\n      jumpi\n      swap1\n      pop\n    tag_291:\n      pop\n        /* \"contracts/TransactionTransactionDetailContract.sol\":2793:2854  Transaction[] memory _transactions = new Transaction[](count) */\n      swap1\n      pop\n        /* \"contracts/TransactionTransactionDetailContract.sol\":2864:2870  uint j */\n      0x00\n        /* \"contracts/TransactionTransactionDetailContract.sol\":2889:2895  uint i */\n      dup1\n        /* \"contracts/TransactionTransactionDetailContract.sol\":2898:2899  1 */\n      0x01\n        /* \"contracts/TransactionTransactionDetailContract.sol\":2889:2899  uint i = 1 */\n      swap1\n      pop\n        /* \"contracts/TransactionTransactionDetailContract.sol\":2884:3186  for (uint i = 1; i <= transactionCount; i++) {... */\n    tag_294:\n        /* \"contracts/TransactionTransactionDetailContract.sol\":2906:2922  transactionCount */\n      sload(0x01)\n        /* \"contracts/TransactionTransactionDetailContract.sol\":2901:2902  i */\n      dup2\n        /* \"contracts/TransactionTransactionDetailContract.sol\":2901:2922  i <= transactionCount */\n      gt\n        /* \"contracts/TransactionTransactionDetailContract.sol\":2884:3186  for (uint i = 1; i <= transactionCount; i++) {... */\n      tag_295\n      jumpi\n        /* \"contracts/TransactionTransactionDetailContract.sol\":3063:3071  _buyerId */\n      dup6\n        /* \"contracts/TransactionTransactionDetailContract.sol\":3046:3072  abi.encodePacked(_buyerId) */\n      add(0x20, mload(0x40))\n      tag_297\n      swap2\n      swap1\n      tag_92\n      jump\t// in\n    tag_297:\n      mload(0x40)\n      0x20\n      dup2\n      dup4\n      sub\n      sub\n      dup2\n      mstore\n      swap1\n      0x40\n      mstore\n        /* \"contracts/TransactionTransactionDetailContract.sol\":3036:3073  keccak256(abi.encodePacked(_buyerId)) */\n      dup1\n      mload\n      swap1\n      0x20\n      add\n      keccak256\n        /* \"contracts/TransactionTransactionDetailContract.sol\":2991:3003  transactions */\n      0x00\n        /* \"contracts/TransactionTransactionDetailContract.sol\":2991:3006  transactions[i] */\n      dup1\n        /* \"contracts/TransactionTransactionDetailContract.sol\":3004:3005  i */\n      dup4\n        /* \"contracts/TransactionTransactionDetailContract.sol\":2991:3006  transactions[i] */\n      dup2\n      mstore\n      0x20\n      add\n      swap1\n      dup2\n      mstore\n      0x20\n      add\n      0x00\n      keccak256\n        /* \"contracts/TransactionTransactionDetailContract.sol\":2991:3014  transactions[i].buyerId */\n      0x03\n      add\n        /* \"contracts/TransactionTransactionDetailContract.sol\":2974:3015  abi.encodePacked(transactions[i].buyerId) */\n      add(0x20, mload(0x40))\n      tag_298\n      swap2\n      swap1\n      tag_94\n      jump\t// in\n    tag_298:\n      mload(0x40)\n      0x20\n      dup2\n      dup4\n      sub\n      sub\n      dup2\n      mstore\n      swap1\n      0x40\n      mstore\n        /* \"contracts/TransactionTransactionDetailContract.sol\":2964:3016  keccak256(abi.encodePacked(transactions[i].buyerId)) */\n      dup1\n      mload\n      swap1\n      0x20\n      add\n      keccak256\n        /* \"contracts/TransactionTransactionDetailContract.sol\":2964:3073  keccak256(abi.encodePacked(transactions[i].buyerId)) ==... */\n      sub\n        /* \"contracts/TransactionTransactionDetailContract.sol\":2943:3176  if (... */\n      tag_299\n      jumpi\n        /* \"contracts/TransactionTransactionDetailContract.sol\":3125:3137  transactions */\n      0x00\n        /* \"contracts/TransactionTransactionDetailContract.sol\":3125:3140  transactions[i] */\n      dup1\n        /* \"contracts/TransactionTransactionDetailContract.sol\":3138:3139  i */\n      dup3\n        /* \"contracts/TransactionTransactionDetailContract.sol\":3125:3140  transactions[i] */\n      dup2\n      mstore\n      0x20\n      add\n      swap1\n      dup2\n      mstore\n      0x20\n      add\n      0x00\n      keccak256\n        /* \"contracts/TransactionTransactionDetailContract.sol\":3106:3140  _transactions[j] = transactions[i] */\n      mload(0x40)\n      dup1\n      0x0140\n      add\n      0x40\n      mstore\n      swap1\n      dup2\n      0x00\n      dup3\n      add\n      sload\n      dup2\n      mstore\n      0x20\n      add\n      0x01\n      dup3\n      add\n      dup1\n      sload\n      tag_300\n      swap1\n      tag_52\n      jump\t// in\n    tag_300:\n      dup1\n      0x1f\n      add\n      0x20\n      dup1\n      swap2\n      div\n      mul\n      0x20\n      add\n      mload(0x40)\n      swap1\n      dup2\n      add\n      0x40\n      mstore\n      dup1\n      swap3\n      swap2\n      swap1\n      dup2\n      dup2\n      mstore\n      0x20\n      add\n      dup3\n      dup1\n      sload\n      tag_301\n      swap1\n      tag_52\n      jump\t// in\n    tag_301:\n      dup1\n      iszero\n      tag_302\n      jumpi\n      dup1\n      0x1f\n      lt\n      tag_303\n      jumpi\n      0x0100\n      dup1\n      dup4\n      sload\n      div\n      mul\n      dup4\n      mstore\n      swap2\n      0x20\n      add\n      swap2\n      jump(tag_302)\n    tag_303:\n      dup3\n      add\n      swap2\n      swap1\n      0x00\n      mstore\n      keccak256(0x00, 0x20)\n      swap1\n    tag_304:\n      dup2\n      sload\n      dup2\n      mstore\n      swap1\n      0x01\n      add\n      swap1\n      0x20\n      add\n      dup1\n      dup4\n      gt\n      tag_304\n      jumpi\n      dup3\n      swap1\n      sub\n      0x1f\n      and\n      dup3\n      add\n      swap2\n    tag_302:\n      pop\n      pop\n      pop\n      pop\n      pop\n      dup2\n      mstore\n      0x20\n      add\n      0x02\n      dup3\n      add\n      dup1\n      sload\n      tag_305\n      swap1\n      tag_52\n      jump\t// in\n    tag_305:\n      dup1\n      0x1f\n      add\n      0x20\n      dup1\n      swap2\n      div\n      mul\n      0x20\n      add\n      mload(0x40)\n      swap1\n      dup2\n      add\n      0x40\n      mstore\n      dup1\n      swap3\n      swap2\n      swap1\n      dup2\n      dup2\n      mstore\n      0x20\n      add\n      dup3\n      dup1\n      sload\n      tag_306\n      swap1\n      tag_52\n      jump\t// in\n    tag_306:\n      dup1\n      iszero\n      tag_307\n      jumpi\n      dup1\n      0x1f\n      lt\n      tag_308\n      jumpi\n      0x0100\n      dup1\n      dup4\n      sload\n      div\n      mul\n      dup4\n      mstore\n      swap2\n      0x20\n      add\n      swap2\n      jump(tag_307)\n    tag_308:\n      dup3\n      add\n      swap2\n      swap1\n      0x00\n      mstore\n      keccak256(0x00, 0x20)\n      swap1\n    tag_309:\n      dup2\n      sload\n      dup2\n      mstore\n      swap1\n      0x01\n      add\n      swap1\n      0x20\n      add\n      dup1\n      dup4\n      gt\n      tag_309\n      jumpi\n      dup3\n      swap1\n      sub\n      0x1f\n      and\n      dup3\n      add\n      swap2\n    tag_307:\n      pop\n      pop\n      pop\n      pop\n      pop\n      dup2\n      mstore\n      0x20\n      add\n      0x03\n      dup3\n      add\n      dup1\n      sload\n      tag_310\n      swap1\n      tag_52\n      jump\t// in\n    tag_310:\n      dup1\n      0x1f\n      add\n      0x20\n      dup1\n      swap2\n      div\n      mul\n      0x20\n      add\n      mload(0x40)\n      swap1\n      dup2\n      add\n      0x40\n      mstore\n      dup1\n      swap3\n      swap2\n      swap1\n      dup2\n      dup2\n      mstore\n      0x20\n      add\n      dup3\n      dup1\n      sload\n      tag_311\n      swap1\n      tag_52\n      jump\t// in\n    tag_311:\n      dup1\n      iszero\n      tag_312\n      jumpi\n      dup1\n      0x1f\n      lt\n      tag_313\n      jumpi\n      0x0100\n      dup1\n      dup4\n      sload\n      div\n      mul\n      dup4\n      mstore\n      swap2\n      0x20\n      add\n      swap2\n      jump(tag_312)\n    tag_313:\n      dup3\n      add\n      swap2\n      swap1\n      0x00\n      mstore\n      keccak256(0x00, 0x20)\n      swap1\n    tag_314:\n      dup2\n      sload\n      dup2\n      mstore\n      swap1\n      0x01\n      add\n      swap1\n      0x20\n      add\n      dup1\n      dup4\n      gt\n      tag_314\n      jumpi\n      dup3\n      swap1\n      sub\n      0x1f\n      and\n      dup3\n      add\n      swap2\n    tag_312:\n      pop\n      pop\n      pop\n      pop\n      pop\n      dup2\n      mstore\n      0x20\n      add\n      0x04\n      dup3\n      add\n      dup1\n      sload\n      tag_315\n      swap1\n      tag_52\n      jump\t// in\n    tag_315:\n      dup1\n      0x1f\n      add\n      0x20\n      dup1\n      swap2\n      div\n      mul\n      0x20\n      add\n      mload(0x40)\n      swap1\n      dup2\n      add\n      0x40\n      mstore\n      dup1\n      swap3\n      swap2\n      swap1\n      dup2\n      dup2\n      mstore\n      0x20\n      add\n      dup3\n      dup1\n      sload\n      tag_316\n      swap1\n      tag_52\n      jump\t// in\n    tag_316:\n      dup1\n      iszero\n      tag_317\n      jumpi\n      dup1\n      0x1f\n      lt\n      tag_318\n      jumpi\n      0x0100\n      dup1\n      dup4\n      sload\n      div\n      mul\n      dup4\n      mstore\n      swap2\n      0x20\n      add\n      swap2\n      jump(tag_317)\n    tag_318:\n      dup3\n      add\n      swap2\n      swap1\n      0x00\n      mstore\n      keccak256(0x00, 0x20)\n      swap1\n    tag_319:\n      dup2\n      sload\n      dup2\n      mstore\n      swap1\n      0x01\n      add\n      swap1\n      0x20\n      add\n      dup1\n      dup4\n      gt\n      tag_319\n      jumpi\n      dup3\n      swap1\n      sub\n      0x1f\n      and\n      dup3\n      add\n      swap2\n    tag_317:\n      pop\n      pop\n      pop\n      pop\n      pop\n      dup2\n      mstore\n      0x20\n      add\n      0x05\n      dup3\n      add\n      dup1\n      sload\n      tag_320\n      swap1\n      tag_52\n      jump\t// in\n    tag_320:\n      dup1\n      0x1f\n      add\n      0x20\n      dup1\n      swap2\n      div\n      mul\n      0x20\n      add\n      mload(0x40)\n      swap1\n      dup2\n      add\n      0x40\n      mstore\n      dup1\n      swap3\n      swap2\n      swap1\n      dup2\n      dup2\n      mstore\n      0x20\n      add\n      dup3\n      dup1\n      sload\n      tag_321\n      swap1\n      tag_52\n      jump\t// in\n    tag_321:\n      dup1\n      iszero\n      tag_322\n      jumpi\n      dup1\n      0x1f\n      lt\n      tag_323\n      jumpi\n      0x0100\n      dup1\n      dup4\n      sload\n      div\n      mul\n      dup4\n      mstore\n      swap2\n      0x20\n      add\n      swap2\n      jump(tag_322)\n    tag_323:\n      dup3\n      add\n      swap2\n      swap1\n      0x00\n      mstore\n      keccak256(0x00, 0x20)\n      swap1\n    tag_324:\n      dup2\n      sload\n      dup2\n      mstore\n      swap1\n      0x01\n      add\n      swap1\n      0x20\n      add\n      dup1\n      dup4\n      gt\n      tag_324\n      jumpi\n      dup3\n      swap1\n      sub\n      0x1f\n      and\n      dup3\n      add\n      swap2\n    tag_322:\n      pop\n      pop\n      pop\n      pop\n      pop\n      dup2\n      mstore\n      0x20\n      add\n      0x06\n      dup3\n      add\n      sload\n      dup2\n      mstore\n      0x20\n      add\n      0x07\n      dup3\n      add\n      dup1\n      sload\n      tag_325\n      swap1\n      tag_52\n      jump\t// in\n    tag_325:\n      dup1\n      0x1f\n      add\n      0x20\n      dup1\n      swap2\n      div\n      mul\n      0x20\n      add\n      mload(0x40)\n      swap1\n      dup2\n      add\n      0x40\n      mstore\n      dup1\n      swap3\n      swap2\n      swap1\n      dup2\n      dup2\n      mstore\n      0x20\n      add\n      dup3\n      dup1\n      sload\n      tag_326\n      swap1\n      tag_52\n      jump\t// in\n    tag_326:\n      dup1\n      iszero\n      tag_327\n      jumpi\n      dup1\n      0x1f\n      lt\n      tag_328\n      jumpi\n      0x0100\n      dup1\n      dup4\n      sload\n      div\n      mul\n      dup4\n      mstore\n      swap2\n      0x20\n      add\n      swap2\n      jump(tag_327)\n    tag_328:\n      dup3\n      add\n      swap2\n      swap1\n      0x00\n      mstore\n      keccak256(0x00, 0x20)\n      swap1\n    tag_329:\n      dup2\n      sload\n      dup2\n      mstore\n      swap1\n      0x01\n      add\n      swap1\n      0x20\n      add\n      dup1\n      dup4\n      gt\n      tag_329\n      jumpi\n      dup3\n      swap1\n      sub\n      0x1f\n      and\n      dup3\n      add\n      swap2\n    tag_327:\n      pop\n      pop\n      pop\n      pop\n      pop\n      dup2\n      mstore\n      0x20\n      add\n      0x08\n      dup3\n      add\n      dup1\n      sload\n      tag_330\n      swap1\n      tag_52\n      jump\t// in\n    tag_330:\n      dup1\n      0x1f\n      add\n      0x20\n      dup1\n      swap2\n      div\n      mul\n      0x20\n      add\n      mload(0x40)\n      swap1\n      dup2\n      add\n      0x40\n      mstore\n      dup1\n      swap3\n      swap2\n      swap1\n      dup2\n      dup2\n      mstore\n      0x20\n      add\n      dup3\n      dup1\n      sload\n      tag_331\n      swap1\n      tag_52\n      jump\t// in\n    tag_331:\n      dup1\n      iszero\n      tag_332\n      jumpi\n      dup1\n      0x1f\n      lt\n      tag_333\n      jumpi\n      0x0100\n      dup1\n      dup4\n      sload\n      div\n      mul\n      dup4\n      mstore\n      swap2\n      0x20\n      add\n      swap2\n      jump(tag_332)\n    tag_333:\n      dup3\n      add\n      swap2\n      swap1\n      0x00\n      mstore\n      keccak256(0x00, 0x20)\n      swap1\n    tag_334:\n      dup2\n      sload\n      dup2\n      mstore\n      swap1\n      0x01\n      add\n      swap1\n      0x20\n      add\n      dup1\n      dup4\n      gt\n      tag_334\n      jumpi\n      dup3\n      swap1\n      sub\n      0x1f\n      and\n      dup3\n      add\n      swap2\n    tag_332:\n      pop\n      pop\n      pop\n      pop\n      pop\n      dup2\n      mstore\n      0x20\n      add\n      0x09\n      dup3\n      add\n      sload\n      dup2\n      mstore\n      pop\n      pop\n        /* \"contracts/TransactionTransactionDetailContract.sol\":3106:3119  _transactions */\n      dup4\n        /* \"contracts/TransactionTransactionDetailContract.sol\":3120:3121  j */\n      dup4\n        /* \"contracts/TransactionTransactionDetailContract.sol\":3106:3122  _transactions[j] */\n      dup2\n      mload\n      dup2\n      lt\n      tag_335\n      jumpi\n      tag_336\n      tag_148\n      jump\t// in\n    tag_336:\n    tag_335:\n      0x20\n      mul\n      0x20\n      add\n      add\n        /* \"contracts/TransactionTransactionDetailContract.sol\":3106:3140  _transactions[j] = transactions[i] */\n      dup2\n      swap1\n      mstore\n      pop\n        /* \"contracts/TransactionTransactionDetailContract.sol\":3158:3161  j++ */\n      dup2\n      dup1\n      tag_337\n      swap1\n      tag_97\n      jump\t// in\n    tag_337:\n      swap3\n      pop\n      pop\n        /* \"contracts/TransactionTransactionDetailContract.sol\":2943:3176  if (... */\n    tag_299:\n        /* \"contracts/TransactionTransactionDetailContract.sol\":2924:2927  i++ */\n      dup1\n      dup1\n      tag_338\n      swap1\n      tag_97\n      jump\t// in\n    tag_338:\n      swap2\n      pop\n      pop\n        /* \"contracts/TransactionTransactionDetailContract.sol\":2884:3186  for (uint i = 1; i <= transactionCount; i++) {... */\n      jump(tag_294)\n    tag_295:\n      pop\n        /* \"contracts/TransactionTransactionDetailContract.sol\":3202:3215  _transactions */\n      dup2\n        /* \"contracts/TransactionTransactionDetailContract.sol\":3195:3215  return _transactions */\n      swap4\n      pop\n      pop\n      pop\n      pop\n        /* \"contracts/TransactionTransactionDetailContract.sol\":2382:3222  function getTransactionByBuyerId(... */\n      swap2\n      swap1\n      pop\n      jump\t// out\n        /* \"contracts/TransactionTransactionDetailContract.sol\":482:1174  function addTransaction(... */\n    tag_47:\n        /* \"contracts/TransactionTransactionDetailContract.sol\":828:844  transactionCount */\n      0x01\n      0x00\n        /* \"contracts/TransactionTransactionDetailContract.sol\":828:846  transactionCount++ */\n      dup2\n      sload\n      dup1\n      swap3\n      swap2\n      swap1\n      tag_340\n      swap1\n      tag_97\n      jump\t// in\n    tag_340:\n      swap2\n      swap1\n      pop\n      sstore\n      pop\n        /* \"contracts/TransactionTransactionDetailContract.sol\":889:1167  Transaction(... */\n      mload(0x40)\n      dup1\n      0x0140\n      add\n      0x40\n      mstore\n      dup1\n        /* \"contracts/TransactionTransactionDetailContract.sol\":914:930  transactionCount */\n      sload(0x01)\n        /* \"contracts/TransactionTransactionDetailContract.sol\":889:1167  Transaction(... */\n      dup2\n      mstore\n      0x20\n      add\n        /* \"contracts/TransactionTransactionDetailContract.sol\":944:960  _transactionCode */\n      dup11\n        /* \"contracts/TransactionTransactionDetailContract.sol\":889:1167  Transaction(... */\n      dup2\n      mstore\n      0x20\n      add\n        /* \"contracts/TransactionTransactionDetailContract.sol\":974:980  _buyer */\n      dup10\n        /* \"contracts/TransactionTransactionDetailContract.sol\":889:1167  Transaction(... */\n      dup2\n      mstore\n      0x20\n      add\n        /* \"contracts/TransactionTransactionDetailContract.sol\":994:1002  _buyerId */\n      dup9\n        /* \"contracts/TransactionTransactionDetailContract.sol\":889:1167  Transaction(... */\n      dup2\n      mstore\n      0x20\n      add\n        /* \"contracts/TransactionTransactionDetailContract.sol\":1016:1030  _sellerCompany */\n      dup8\n        /* \"contracts/TransactionTransactionDetailContract.sol\":889:1167  Transaction(... */\n      dup2\n      mstore\n      0x20\n      add\n        /* \"contracts/TransactionTransactionDetailContract.sol\":1044:1053  _sellerId */\n      dup7\n        /* \"contracts/TransactionTransactionDetailContract.sol\":889:1167  Transaction(... */\n      dup2\n      mstore\n      0x20\n      add\n        /* \"contracts/TransactionTransactionDetailContract.sol\":1067:1080  _sumOfProduct */\n      dup6\n        /* \"contracts/TransactionTransactionDetailContract.sol\":889:1167  Transaction(... */\n      dup2\n      mstore\n      0x20\n      add\n        /* \"contracts/TransactionTransactionDetailContract.sol\":1094:1105  _totalPrice */\n      dup5\n        /* \"contracts/TransactionTransactionDetailContract.sol\":889:1167  Transaction(... */\n      dup2\n      mstore\n      0x20\n      add\n        /* \"contracts/TransactionTransactionDetailContract.sol\":1119:1133  _paymentStatus */\n      dup4\n        /* \"contracts/TransactionTransactionDetailContract.sol\":889:1167  Transaction(... */\n      dup2\n      mstore\n      0x20\n      add\n        /* \"contracts/TransactionTransactionDetailContract.sol\":1147:1157  _createdAt */\n      dup3\n        /* \"contracts/TransactionTransactionDetailContract.sol\":889:1167  Transaction(... */\n      dup2\n      mstore\n      pop\n        /* \"contracts/TransactionTransactionDetailContract.sol\":856:868  transactions */\n      0x00\n        /* \"contracts/TransactionTransactionDetailContract.sol\":856:886  transactions[transactionCount] */\n      dup1\n        /* \"contracts/TransactionTransactionDetailContract.sol\":869:885  transactionCount */\n      sload(0x01)\n        /* \"contracts/TransactionTransactionDetailContract.sol\":856:886  transactions[transactionCount] */\n      dup2\n      mstore\n      0x20\n      add\n      swap1\n      dup2\n      mstore\n      0x20\n      add\n      0x00\n      keccak256\n        /* \"contracts/TransactionTransactionDetailContract.sol\":856:1167  transactions[transactionCount] = Transaction(... */\n      0x00\n      dup3\n      add\n      mload\n      dup2\n      0x00\n      add\n      sstore\n      0x20\n      dup3\n      add\n      mload\n      dup2\n      0x01\n      add\n      swap1\n      dup2\n      tag_341\n      swap2\n      swap1\n      tag_273\n      jump\t// in\n    tag_341:\n      pop\n      0x40\n      dup3\n      add\n      mload\n      dup2\n      0x02\n      add\n      swap1\n      dup2\n      tag_342\n      swap2\n      swap1\n      tag_273\n      jump\t// in\n    tag_342:\n      pop\n      0x60\n      dup3\n      add\n      mload\n      dup2\n      0x03\n      add\n      swap1\n      dup2\n      tag_343\n      swap2\n      swap1\n      tag_273\n      jump\t// in\n    tag_343:\n      pop\n      0x80\n      dup3\n      add\n      mload\n      dup2\n      0x04\n      add\n      swap1\n      dup2\n      tag_344\n      swap2\n      swap1\n      tag_273\n      jump\t// in\n    tag_344:\n      pop\n      0xa0\n      dup3\n      add\n      mload\n      dup2\n      0x05\n      add\n      swap1\n      dup2\n      tag_345\n      swap2\n      swap1\n      tag_273\n      jump\t// in\n    tag_345:\n      pop\n      0xc0\n      dup3\n      add\n      mload\n      dup2\n      0x06\n      add\n      sstore\n      0xe0\n      dup3\n      add\n      mload\n      dup2\n      0x07\n      add\n      swap1\n      dup2\n      tag_346\n      swap2\n      swap1\n      tag_273\n      jump\t// in\n    tag_346:\n      pop\n      0x0100\n      dup3\n      add\n      mload\n      dup2\n      0x08\n      add\n      swap1\n      dup2\n      tag_347\n      swap2\n      swap1\n      tag_273\n      jump\t// in\n    tag_347:\n      pop\n      0x0120\n      dup3\n      add\n      mload\n      dup2\n      0x09\n      add\n      sstore\n      swap1\n      pop\n      pop\n        /* \"contracts/TransactionTransactionDetailContract.sol\":482:1174  function addTransaction(... */\n      pop\n      pop\n      pop\n      pop\n      pop\n      pop\n      pop\n      pop\n      pop\n      jump\t// out\n    tag_49:\n      mload(0x40)\n      dup1\n      0x0140\n      add\n      0x40\n      mstore\n      dup1\n      0x00\n      dup2\n      mstore\n      0x20\n      add\n      0x60\n      dup2\n      mstore\n      0x20\n      add\n      0x60\n      dup2\n      mstore\n      0x20\n      add\n      0x60\n      dup2\n      mstore\n      0x20\n      add\n      0x60\n      dup2\n      mstore\n      0x20\n      add\n      0x60\n      dup2\n      mstore\n      0x20\n      add\n      0x00\n      dup2\n      mstore\n      0x20\n      add\n      0x60\n      dup2\n      mstore\n      0x20\n      add\n      0x60\n      dup2\n      mstore\n      0x20\n      add\n      0x00\n      dup2\n      mstore\n      pop\n      swap1\n      jump\t// out\n        /* \"#utility.yul\":7:82   */\n    tag_348:\n        /* \"#utility.yul\":40:46   */\n      0x00\n        /* \"#utility.yul\":73:75   */\n      0x40\n        /* \"#utility.yul\":67:76   */\n      mload\n        /* \"#utility.yul\":57:76   */\n      swap1\n      pop\n        /* \"#utility.yul\":7:82   */\n      swap1\n      jump\t// out\n        /* \"#utility.yul\":88:205   */\n    tag_349:\n        /* \"#utility.yul\":197:198   */\n      0x00\n        /* \"#utility.yul\":194:195   */\n      dup1\n        /* \"#utility.yul\":187:199   */\n      revert\n        /* \"#utility.yul\":211:328   */\n    tag_350:\n        /* \"#utility.yul\":320:321   */\n      0x00\n        /* \"#utility.yul\":317:318   */\n      dup1\n        /* \"#utility.yul\":310:322   */\n      revert\n        /* \"#utility.yul\":334:411   */\n    tag_351:\n        /* \"#utility.yul\":371:378   */\n      0x00\n        /* \"#utility.yul\":400:405   */\n      dup2\n        /* \"#utility.yul\":389:405   */\n      swap1\n      pop\n        /* \"#utility.yul\":334:411   */\n      swap2\n      swap1\n      pop\n      jump\t// out\n        /* \"#utility.yul\":417:539   */\n    tag_352:\n        /* \"#utility.yul\":490:514   */\n      tag_405\n        /* \"#utility.yul\":508:513   */\n      dup2\n        /* \"#utility.yul\":490:514   */\n      tag_351\n      jump\t// in\n    tag_405:\n        /* \"#utility.yul\":483:488   */\n      dup2\n        /* \"#utility.yul\":480:515   */\n      eq\n        /* \"#utility.yul\":470:533   */\n      tag_406\n      jumpi\n        /* \"#utility.yul\":529:530   */\n      0x00\n        /* \"#utility.yul\":526:527   */\n      dup1\n        /* \"#utility.yul\":519:531   */\n      revert\n        /* \"#utility.yul\":470:533   */\n    tag_406:\n        /* \"#utility.yul\":417:539   */\n      pop\n      jump\t// out\n        /* \"#utility.yul\":545:684   */\n    tag_353:\n        /* \"#utility.yul\":591:596   */\n      0x00\n        /* \"#utility.yul\":629:635   */\n      dup2\n        /* \"#utility.yul\":616:636   */\n      calldataload\n        /* \"#utility.yul\":607:636   */\n      swap1\n      pop\n        /* \"#utility.yul\":645:678   */\n      tag_408\n        /* \"#utility.yul\":672:677   */\n      dup2\n        /* \"#utility.yul\":645:678   */\n      tag_352\n      jump\t// in\n    tag_408:\n        /* \"#utility.yul\":545:684   */\n      swap3\n      swap2\n      pop\n      pop\n      jump\t// out\n        /* \"#utility.yul\":690:1019   */\n    tag_14:\n        /* \"#utility.yul\":749:755   */\n      0x00\n        /* \"#utility.yul\":798:800   */\n      0x20\n        /* \"#utility.yul\":786:795   */\n      dup3\n        /* \"#utility.yul\":777:784   */\n      dup5\n        /* \"#utility.yul\":773:796   */\n      sub\n        /* \"#utility.yul\":769:801   */\n      slt\n        /* \"#utility.yul\":766:885   */\n      iszero\n      tag_410\n      jumpi\n        /* \"#utility.yul\":804:883   */\n      tag_411\n      tag_349\n      jump\t// in\n    tag_411:\n        /* \"#utility.yul\":766:885   */\n    tag_410:\n        /* \"#utility.yul\":924:925   */\n      0x00\n        /* \"#utility.yul\":949:1002   */\n      tag_412\n        /* \"#utility.yul\":994:1001   */\n      dup5\n        /* \"#utility.yul\":985:991   */\n      dup3\n        /* \"#utility.yul\":974:983   */\n      dup6\n        /* \"#utility.yul\":970:992   */\n      add\n        /* \"#utility.yul\":949:1002   */\n      tag_353\n      jump\t// in\n    tag_412:\n        /* \"#utility.yul\":939:1002   */\n      swap2\n      pop\n        /* \"#utility.yul\":895:1012   */\n      pop\n        /* \"#utility.yul\":690:1019   */\n      swap3\n      swap2\n      pop\n      pop\n      jump\t// out\n        /* \"#utility.yul\":1025:1133   */\n    tag_354:\n        /* \"#utility.yul\":1102:1126   */\n      tag_414\n        /* \"#utility.yul\":1120:1125   */\n      dup2\n        /* \"#utility.yul\":1102:1126   */\n      tag_351\n      jump\t// in\n    tag_414:\n        /* \"#utility.yul\":1097:1100   */\n      dup3\n        /* \"#utility.yul\":1090:1127   */\n      mstore\n        /* \"#utility.yul\":1025:1133   */\n      pop\n      pop\n      jump\t// out\n        /* \"#utility.yul\":1139:1238   */\n    tag_355:\n        /* \"#utility.yul\":1191:1197   */\n      0x00\n        /* \"#utility.yul\":1225:1230   */\n      dup2\n        /* \"#utility.yul\":1219:1231   */\n      mload\n        /* \"#utility.yul\":1209:1231   */\n      swap1\n      pop\n        /* \"#utility.yul\":1139:1238   */\n      swap2\n      swap1\n      pop\n      jump\t// out\n        /* \"#utility.yul\":1244:1403   */\n    tag_356:\n        /* \"#utility.yul\":1318:1329   */\n      0x00\n        /* \"#utility.yul\":1352:1358   */\n      dup3\n        /* \"#utility.yul\":1347:1350   */\n      dup3\n        /* \"#utility.yul\":1340:1359   */\n      mstore\n        /* \"#utility.yul\":1392:1396   */\n      0x20\n        /* \"#utility.yul\":1387:1390   */\n      dup3\n        /* \"#utility.yul\":1383:1397   */\n      add\n        /* \"#utility.yul\":1368:1397   */\n      swap1\n      pop\n        /* \"#utility.yul\":1244:1403   */\n      swap3\n      swap2\n      pop\n      pop\n      jump\t// out\n        /* \"#utility.yul\":1409:1655   */\n    tag_357:\n        /* \"#utility.yul\":1490:1491   */\n      0x00\n        /* \"#utility.yul\":1500:1613   */\n    tag_418:\n        /* \"#utility.yul\":1514:1520   */\n      dup4\n        /* \"#utility.yul\":1511:1512   */\n      dup2\n        /* \"#utility.yul\":1508:1521   */\n      lt\n        /* \"#utility.yul\":1500:1613   */\n      iszero\n      tag_420\n      jumpi\n        /* \"#utility.yul\":1599:1600   */\n      dup1\n        /* \"#utility.yul\":1594:1597   */\n      dup3\n        /* \"#utility.yul\":1590:1601   */\n      add\n        /* \"#utility.yul\":1584:1602   */\n      mload\n        /* \"#utility.yul\":1580:1581   */\n      dup2\n        /* \"#utility.yul\":1575:1578   */\n      dup5\n        /* \"#utility.yul\":1571:1582   */\n      add\n        /* \"#utility.yul\":1564:1603   */\n      mstore\n        /* \"#utility.yul\":1536:1538   */\n      0x20\n        /* \"#utility.yul\":1533:1534   */\n      dup2\n        /* \"#utility.yul\":1529:1539   */\n      add\n        /* \"#utility.yul\":1524:1539   */\n      swap1\n      pop\n        /* \"#utility.yul\":1500:1613   */\n      jump(tag_418)\n    tag_420:\n        /* \"#utility.yul\":1647:1648   */\n      0x00\n        /* \"#utility.yul\":1638:1644   */\n      dup5\n        /* \"#utility.yul\":1633:1636   */\n      dup5\n        /* \"#utility.yul\":1629:1645   */\n      add\n        /* \"#utility.yul\":1622:1649   */\n      mstore\n        /* \"#utility.yul\":1471:1655   */\n      pop\n        /* \"#utility.yul\":1409:1655   */\n      pop\n      pop\n      pop\n      jump\t// out\n        /* \"#utility.yul\":1661:1763   */\n    tag_358:\n        /* \"#utility.yul\":1702:1708   */\n      0x00\n        /* \"#utility.yul\":1753:1755   */\n      0x1f\n        /* \"#utility.yul\":1749:1756   */\n      not\n        /* \"#utility.yul\":1744:1746   */\n      0x1f\n        /* \"#utility.yul\":1737:1742   */\n      dup4\n        /* \"#utility.yul\":1733:1747   */\n      add\n        /* \"#utility.yul\":1729:1757   */\n      and\n        /* \"#utility.yul\":1719:1757   */\n      swap1\n      pop\n        /* \"#utility.yul\":1661:1763   */\n      swap2\n      swap1\n      pop\n      jump\t// out\n        /* \"#utility.yul\":1769:2126   */\n    tag_359:\n        /* \"#utility.yul\":1847:1850   */\n      0x00\n        /* \"#utility.yul\":1875:1914   */\n      tag_423\n        /* \"#utility.yul\":1908:1913   */\n      dup3\n        /* \"#utility.yul\":1875:1914   */\n      tag_355\n      jump\t// in\n    tag_423:\n        /* \"#utility.yul\":1930:1991   */\n      tag_424\n        /* \"#utility.yul\":1984:1990   */\n      dup2\n        /* \"#utility.yul\":1979:1982   */\n      dup6\n        /* \"#utility.yul\":1930:1991   */\n      tag_356\n      jump\t// in\n    tag_424:\n        /* \"#utility.yul\":1923:1991   */\n      swap4\n      pop\n        /* \"#utility.yul\":2000:2065   */\n      tag_425\n        /* \"#utility.yul\":2058:2064   */\n      dup2\n        /* \"#utility.yul\":2053:2056   */\n      dup6\n        /* \"#utility.yul\":2046:2050   */\n      0x20\n        /* \"#utility.yul\":2039:2044   */\n      dup7\n        /* \"#utility.yul\":2035:2051   */\n      add\n        /* \"#utility.yul\":2000:2065   */\n      tag_357\n      jump\t// in\n    tag_425:\n        /* \"#utility.yul\":2090:2119   */\n      tag_426\n        /* \"#utility.yul\":2112:2118   */\n      dup2\n        /* \"#utility.yul\":2090:2119   */\n      tag_358\n      jump\t// in\n    tag_426:\n        /* \"#utility.yul\":2085:2088   */\n      dup5\n        /* \"#utility.yul\":2081:2120   */\n      add\n        /* \"#utility.yul\":2074:2120   */\n      swap2\n      pop\n        /* \"#utility.yul\":1851:2126   */\n      pop\n        /* \"#utility.yul\":1769:2126   */\n      swap3\n      swap2\n      pop\n      pop\n      jump\t// out\n        /* \"#utility.yul\":2220:4723   */\n    tag_360:\n        /* \"#utility.yul\":2343:2346   */\n      0x00\n        /* \"#utility.yul\":2379:2385   */\n      0x0140\n        /* \"#utility.yul\":2374:2377   */\n      dup4\n        /* \"#utility.yul\":2370:2386   */\n      add\n        /* \"#utility.yul\":2477:2481   */\n      0x00\n        /* \"#utility.yul\":2470:2475   */\n      dup4\n        /* \"#utility.yul\":2466:2482   */\n      add\n        /* \"#utility.yul\":2460:2483   */\n      mload\n        /* \"#utility.yul\":2496:2559   */\n      tag_428\n        /* \"#utility.yul\":2553:2557   */\n      0x00\n        /* \"#utility.yul\":2548:2551   */\n      dup7\n        /* \"#utility.yul\":2544:2558   */\n      add\n        /* \"#utility.yul\":2530:2542   */\n      dup3\n        /* \"#utility.yul\":2496:2559   */\n      tag_354\n      jump\t// in\n    tag_428:\n        /* \"#utility.yul\":2396:2569   */\n      pop\n        /* \"#utility.yul\":2662:2666   */\n      0x20\n        /* \"#utility.yul\":2655:2660   */\n      dup4\n        /* \"#utility.yul\":2651:2667   */\n      add\n        /* \"#utility.yul\":2645:2668   */\n      mload\n        /* \"#utility.yul\":2715:2718   */\n      dup5\n        /* \"#utility.yul\":2709:2713   */\n      dup3\n        /* \"#utility.yul\":2705:2719   */\n      sub\n        /* \"#utility.yul\":2698:2702   */\n      0x20\n        /* \"#utility.yul\":2693:2696   */\n      dup7\n        /* \"#utility.yul\":2689:2703   */\n      add\n        /* \"#utility.yul\":2682:2720   */\n      mstore\n        /* \"#utility.yul\":2741:2814   */\n      tag_429\n        /* \"#utility.yul\":2809:2813   */\n      dup3\n        /* \"#utility.yul\":2795:2807   */\n      dup3\n        /* \"#utility.yul\":2741:2814   */\n      tag_359\n      jump\t// in\n    tag_429:\n        /* \"#utility.yul\":2733:2814   */\n      swap2\n      pop\n        /* \"#utility.yul\":2579:2825   */\n      pop\n        /* \"#utility.yul\":2908:2912   */\n      0x40\n        /* \"#utility.yul\":2901:2906   */\n      dup4\n        /* \"#utility.yul\":2897:2913   */\n      add\n        /* \"#utility.yul\":2891:2914   */\n      mload\n        /* \"#utility.yul\":2961:2964   */\n      dup5\n        /* \"#utility.yul\":2955:2959   */\n      dup3\n        /* \"#utility.yul\":2951:2965   */\n      sub\n        /* \"#utility.yul\":2944:2948   */\n      0x40\n        /* \"#utility.yul\":2939:2942   */\n      dup7\n        /* \"#utility.yul\":2935:2949   */\n      add\n        /* \"#utility.yul\":2928:2966   */\n      mstore\n        /* \"#utility.yul\":2987:3060   */\n      tag_430\n        /* \"#utility.yul\":3055:3059   */\n      dup3\n        /* \"#utility.yul\":3041:3053   */\n      dup3\n        /* \"#utility.yul\":2987:3060   */\n      tag_359\n      jump\t// in\n    tag_430:\n        /* \"#utility.yul\":2979:3060   */\n      swap2\n      pop\n        /* \"#utility.yul\":2835:3071   */\n      pop\n        /* \"#utility.yul\":3156:3160   */\n      0x60\n        /* \"#utility.yul\":3149:3154   */\n      dup4\n        /* \"#utility.yul\":3145:3161   */\n      add\n        /* \"#utility.yul\":3139:3162   */\n      mload\n        /* \"#utility.yul\":3209:3212   */\n      dup5\n        /* \"#utility.yul\":3203:3207   */\n      dup3\n        /* \"#utility.yul\":3199:3213   */\n      sub\n        /* \"#utility.yul\":3192:3196   */\n      0x60\n        /* \"#utility.yul\":3187:3190   */\n      dup7\n        /* \"#utility.yul\":3183:3197   */\n      add\n        /* \"#utility.yul\":3176:3214   */\n      mstore\n        /* \"#utility.yul\":3235:3308   */\n      tag_431\n        /* \"#utility.yul\":3303:3307   */\n      dup3\n        /* \"#utility.yul\":3289:3301   */\n      dup3\n        /* \"#utility.yul\":3235:3308   */\n      tag_359\n      jump\t// in\n    tag_431:\n        /* \"#utility.yul\":3227:3308   */\n      swap2\n      pop\n        /* \"#utility.yul\":3081:3319   */\n      pop\n        /* \"#utility.yul\":3410:3414   */\n      0x80\n        /* \"#utility.yul\":3403:3408   */\n      dup4\n        /* \"#utility.yul\":3399:3415   */\n      add\n        /* \"#utility.yul\":3393:3416   */\n      mload\n        /* \"#utility.yul\":3463:3466   */\n      dup5\n        /* \"#utility.yul\":3457:3461   */\n      dup3\n        /* \"#utility.yul\":3453:3467   */\n      sub\n        /* \"#utility.yul\":3446:3450   */\n      0x80\n        /* \"#utility.yul\":3441:3444   */\n      dup7\n        /* \"#utility.yul\":3437:3451   */\n      add\n        /* \"#utility.yul\":3430:3468   */\n      mstore\n        /* \"#utility.yul\":3489:3562   */\n      tag_432\n        /* \"#utility.yul\":3557:3561   */\n      dup3\n        /* \"#utility.yul\":3543:3555   */\n      dup3\n        /* \"#utility.yul\":3489:3562   */\n      tag_359\n      jump\t// in\n    tag_432:\n        /* \"#utility.yul\":3481:3562   */\n      swap2\n      pop\n        /* \"#utility.yul\":3329:3573   */\n      pop\n        /* \"#utility.yul\":3659:3663   */\n      0xa0\n        /* \"#utility.yul\":3652:3657   */\n      dup4\n        /* \"#utility.yul\":3648:3664   */\n      add\n        /* \"#utility.yul\":3642:3665   */\n      mload\n        /* \"#utility.yul\":3712:3715   */\n      dup5\n        /* \"#utility.yul\":3706:3710   */\n      dup3\n        /* \"#utility.yul\":3702:3716   */\n      sub\n        /* \"#utility.yul\":3695:3699   */\n      0xa0\n        /* \"#utility.yul\":3690:3693   */\n      dup7\n        /* \"#utility.yul\":3686:3700   */\n      add\n        /* \"#utility.yul\":3679:3717   */\n      mstore\n        /* \"#utility.yul\":3738:3811   */\n      tag_433\n        /* \"#utility.yul\":3806:3810   */\n      dup3\n        /* \"#utility.yul\":3792:3804   */\n      dup3\n        /* \"#utility.yul\":3738:3811   */\n      tag_359\n      jump\t// in\n    tag_433:\n        /* \"#utility.yul\":3730:3811   */\n      swap2\n      pop\n        /* \"#utility.yul\":3583:3822   */\n      pop\n        /* \"#utility.yul\":3912:3916   */\n      0xc0\n        /* \"#utility.yul\":3905:3910   */\n      dup4\n        /* \"#utility.yul\":3901:3917   */\n      add\n        /* \"#utility.yul\":3895:3918   */\n      mload\n        /* \"#utility.yul\":3931:3994   */\n      tag_434\n        /* \"#utility.yul\":3988:3992   */\n      0xc0\n        /* \"#utility.yul\":3983:3986   */\n      dup7\n        /* \"#utility.yul\":3979:3993   */\n      add\n        /* \"#utility.yul\":3965:3977   */\n      dup3\n        /* \"#utility.yul\":3931:3994   */\n      tag_354\n      jump\t// in\n    tag_434:\n        /* \"#utility.yul\":3832:4004   */\n      pop\n        /* \"#utility.yul\":4092:4096   */\n      0xe0\n        /* \"#utility.yul\":4085:4090   */\n      dup4\n        /* \"#utility.yul\":4081:4097   */\n      add\n        /* \"#utility.yul\":4075:4098   */\n      mload\n        /* \"#utility.yul\":4145:4148   */\n      dup5\n        /* \"#utility.yul\":4139:4143   */\n      dup3\n        /* \"#utility.yul\":4135:4149   */\n      sub\n        /* \"#utility.yul\":4128:4132   */\n      0xe0\n        /* \"#utility.yul\":4123:4126   */\n      dup7\n        /* \"#utility.yul\":4119:4133   */\n      add\n        /* \"#utility.yul\":4112:4150   */\n      mstore\n        /* \"#utility.yul\":4171:4244   */\n      tag_435\n        /* \"#utility.yul\":4239:4243   */\n      dup3\n        /* \"#utility.yul\":4225:4237   */\n      dup3\n        /* \"#utility.yul\":4171:4244   */\n      tag_359\n      jump\t// in\n    tag_435:\n        /* \"#utility.yul\":4163:4244   */\n      swap2\n      pop\n        /* \"#utility.yul\":4014:4255   */\n      pop\n        /* \"#utility.yul\":4346:4352   */\n      0x0100\n        /* \"#utility.yul\":4339:4344   */\n      dup4\n        /* \"#utility.yul\":4335:4353   */\n      add\n        /* \"#utility.yul\":4329:4354   */\n      mload\n        /* \"#utility.yul\":4403:4406   */\n      dup5\n        /* \"#utility.yul\":4397:4401   */\n      dup3\n        /* \"#utility.yul\":4393:4407   */\n      sub\n        /* \"#utility.yul\":4384:4390   */\n      0x0100\n        /* \"#utility.yul\":4379:4382   */\n      dup7\n        /* \"#utility.yul\":4375:4391   */\n      add\n        /* \"#utility.yul\":4368:4408   */\n      mstore\n        /* \"#utility.yul\":4429:4502   */\n      tag_436\n        /* \"#utility.yul\":4497:4501   */\n      dup3\n        /* \"#utility.yul\":4483:4495   */\n      dup3\n        /* \"#utility.yul\":4429:4502   */\n      tag_359\n      jump\t// in\n    tag_436:\n        /* \"#utility.yul\":4421:4502   */\n      swap2\n      pop\n        /* \"#utility.yul\":4265:4513   */\n      pop\n        /* \"#utility.yul\":4600:4606   */\n      0x0120\n        /* \"#utility.yul\":4593:4598   */\n      dup4\n        /* \"#utility.yul\":4589:4607   */\n      add\n        /* \"#utility.yul\":4583:4608   */\n      mload\n        /* \"#utility.yul\":4621:4686   */\n      tag_437\n        /* \"#utility.yul\":4678:4684   */\n      0x0120\n        /* \"#utility.yul\":4673:4676   */\n      dup7\n        /* \"#utility.yul\":4669:4685   */\n      add\n        /* \"#utility.yul\":4655:4667   */\n      dup3\n        /* \"#utility.yul\":4621:4686   */\n      tag_354\n      jump\t// in\n    tag_437:\n        /* \"#utility.yul\":4523:4696   */\n      pop\n        /* \"#utility.yul\":4713:4717   */\n      dup1\n        /* \"#utility.yul\":4706:4717   */\n      swap2\n      pop\n        /* \"#utility.yul\":2348:4723   */\n      pop\n        /* \"#utility.yul\":2220:4723   */\n      swap3\n      swap2\n      pop\n      pop\n      jump\t// out\n        /* \"#utility.yul\":4729:5110   */\n    tag_17:\n        /* \"#utility.yul\":4876:4880   */\n      0x00\n        /* \"#utility.yul\":4914:4916   */\n      0x20\n        /* \"#utility.yul\":4903:4912   */\n      dup3\n        /* \"#utility.yul\":4899:4917   */\n      add\n        /* \"#utility.yul\":4891:4917   */\n      swap1\n      pop\n        /* \"#utility.yul\":4963:4972   */\n      dup2\n        /* \"#utility.yul\":4957:4961   */\n      dup2\n        /* \"#utility.yul\":4953:4973   */\n      sub\n        /* \"#utility.yul\":4949:4950   */\n      0x00\n        /* \"#utility.yul\":4938:4947   */\n      dup4\n        /* \"#utility.yul\":4934:4951   */\n      add\n        /* \"#utility.yul\":4927:4974   */\n      mstore\n        /* \"#utility.yul\":4991:5103   */\n      tag_439\n        /* \"#utility.yul\":5098:5102   */\n      dup2\n        /* \"#utility.yul\":5089:5095   */\n      dup5\n        /* \"#utility.yul\":4991:5103   */\n      tag_360\n      jump\t// in\n    tag_439:\n        /* \"#utility.yul\":4983:5103   */\n      swap1\n      pop\n        /* \"#utility.yul\":4729:5110   */\n      swap3\n      swap2\n      pop\n      pop\n      jump\t// out\n        /* \"#utility.yul\":5116:5233   */\n    tag_361:\n        /* \"#utility.yul\":5225:5226   */\n      0x00\n        /* \"#utility.yul\":5222:5223   */\n      dup1\n        /* \"#utility.yul\":5215:5227   */\n      revert\n        /* \"#utility.yul\":5239:5356   */\n    tag_362:\n        /* \"#utility.yul\":5348:5349   */\n      0x00\n        /* \"#utility.yul\":5345:5346   */\n      dup1\n        /* \"#utility.yul\":5338:5350   */\n      revert\n        /* \"#utility.yul\":5362:5542   */\n    tag_101:\n        /* \"#utility.yul\":5410:5487   */\n      0x4e487b7100000000000000000000000000000000000000000000000000000000\n        /* \"#utility.yul\":5407:5408   */\n      0x00\n        /* \"#utility.yul\":5400:5488   */\n      mstore\n        /* \"#utility.yul\":5507:5511   */\n      0x41\n        /* \"#utility.yul\":5504:5505   */\n      0x04\n        /* \"#utility.yul\":5497:5512   */\n      mstore\n        /* \"#utility.yul\":5531:5535   */\n      0x24\n        /* \"#utility.yul\":5528:5529   */\n      0x00\n        /* \"#utility.yul\":5521:5536   */\n      revert\n        /* \"#utility.yul\":5548:5829   */\n    tag_363:\n        /* \"#utility.yul\":5631:5658   */\n      tag_444\n        /* \"#utility.yul\":5653:5657   */\n      dup3\n        /* \"#utility.yul\":5631:5658   */\n      tag_358\n      jump\t// in\n    tag_444:\n        /* \"#utility.yul\":5623:5629   */\n      dup2\n        /* \"#utility.yul\":5619:5659   */\n      add\n        /* \"#utility.yul\":5761:5767   */\n      dup2\n        /* \"#utility.yul\":5749:5759   */\n      dup2\n        /* \"#utility.yul\":5746:5768   */\n      lt\n        /* \"#utility.yul\":5725:5743   */\n      0xffffffffffffffff\n        /* \"#utility.yul\":5713:5723   */\n      dup3\n        /* \"#utility.yul\":5710:5744   */\n      gt\n        /* \"#utility.yul\":5707:5769   */\n      or\n        /* \"#utility.yul\":5704:5792   */\n      iszero\n      tag_445\n      jumpi\n        /* \"#utility.yul\":5772:5790   */\n      tag_446\n      tag_101\n      jump\t// in\n    tag_446:\n        /* \"#utility.yul\":5704:5792   */\n    tag_445:\n        /* \"#utility.yul\":5812:5822   */\n      dup1\n        /* \"#utility.yul\":5808:5810   */\n      0x40\n        /* \"#utility.yul\":5801:5823   */\n      mstore\n        /* \"#utility.yul\":5591:5829   */\n      pop\n        /* \"#utility.yul\":5548:5829   */\n      pop\n      pop\n      jump\t// out\n        /* \"#utility.yul\":5835:5964   */\n    tag_364:\n        /* \"#utility.yul\":5869:5875   */\n      0x00\n        /* \"#utility.yul\":5896:5916   */\n      tag_448\n      tag_348\n      jump\t// in\n    tag_448:\n        /* \"#utility.yul\":5886:5916   */\n      swap1\n      pop\n        /* \"#utility.yul\":5925:5958   */\n      tag_449\n        /* \"#utility.yul\":5953:5957   */\n      dup3\n        /* \"#utility.yul\":5945:5951   */\n      dup3\n        /* \"#utility.yul\":5925:5958   */\n      tag_363\n      jump\t// in\n    tag_449:\n        /* \"#utility.yul\":5835:5964   */\n      swap2\n      swap1\n      pop\n      jump\t// out\n        /* \"#utility.yul\":5970:6278   */\n    tag_365:\n        /* \"#utility.yul\":6032:6036   */\n      0x00\n        /* \"#utility.yul\":6122:6140   */\n      0xffffffffffffffff\n        /* \"#utility.yul\":6114:6120   */\n      dup3\n        /* \"#utility.yul\":6111:6141   */\n      gt\n        /* \"#utility.yul\":6108:6164   */\n      iszero\n      tag_451\n      jumpi\n        /* \"#utility.yul\":6144:6162   */\n      tag_452\n      tag_101\n      jump\t// in\n    tag_452:\n        /* \"#utility.yul\":6108:6164   */\n    tag_451:\n        /* \"#utility.yul\":6182:6211   */\n      tag_453\n        /* \"#utility.yul\":6204:6210   */\n      dup3\n        /* \"#utility.yul\":6182:6211   */\n      tag_358\n      jump\t// in\n    tag_453:\n        /* \"#utility.yul\":6174:6211   */\n      swap1\n      pop\n        /* \"#utility.yul\":6266:6270   */\n      0x20\n        /* \"#utility.yul\":6260:6264   */\n      dup2\n        /* \"#utility.yul\":6256:6271   */\n      add\n        /* \"#utility.yul\":6248:6271   */\n      swap1\n      pop\n        /* \"#utility.yul\":5970:6278   */\n      swap2\n      swap1\n      pop\n      jump\t// out\n        /* \"#utility.yul\":6284:6430   */\n    tag_366:\n        /* \"#utility.yul\":6381:6387   */\n      dup3\n        /* \"#utility.yul\":6376:6379   */\n      dup2\n        /* \"#utility.yul\":6371:6374   */\n      dup4\n        /* \"#utility.yul\":6358:6388   */\n      calldatacopy\n        /* \"#utility.yul\":6422:6423   */\n      0x00\n        /* \"#utility.yul\":6413:6419   */\n      dup4\n        /* \"#utility.yul\":6408:6411   */\n      dup4\n        /* \"#utility.yul\":6404:6420   */\n      add\n        /* \"#utility.yul\":6397:6424   */\n      mstore\n        /* \"#utility.yul\":6284:6430   */\n      pop\n      pop\n      pop\n      jump\t// out\n        /* \"#utility.yul\":6436:6861   */\n    tag_367:\n        /* \"#utility.yul\":6514:6519   */\n      0x00\n        /* \"#utility.yul\":6539:6605   */\n      tag_456\n        /* \"#utility.yul\":6555:6604   */\n      tag_457\n        /* \"#utility.yul\":6597:6603   */\n      dup5\n        /* \"#utility.yul\":6555:6604   */\n      tag_365\n      jump\t// in\n    tag_457:\n        /* \"#utility.yul\":6539:6605   */\n      tag_364\n      jump\t// in\n    tag_456:\n        /* \"#utility.yul\":6530:6605   */\n      swap1\n      pop\n        /* \"#utility.yul\":6628:6634   */\n      dup3\n        /* \"#utility.yul\":6621:6626   */\n      dup2\n        /* \"#utility.yul\":6614:6635   */\n      mstore\n        /* \"#utility.yul\":6666:6670   */\n      0x20\n        /* \"#utility.yul\":6659:6664   */\n      dup2\n        /* \"#utility.yul\":6655:6671   */\n      add\n        /* \"#utility.yul\":6704:6707   */\n      dup5\n        /* \"#utility.yul\":6695:6701   */\n      dup5\n        /* \"#utility.yul\":6690:6693   */\n      dup5\n        /* \"#utility.yul\":6686:6702   */\n      add\n        /* \"#utility.yul\":6683:6708   */\n      gt\n        /* \"#utility.yul\":6680:6792   */\n      iszero\n      tag_458\n      jumpi\n        /* \"#utility.yul\":6711:6790   */\n      tag_459\n      tag_362\n      jump\t// in\n    tag_459:\n        /* \"#utility.yul\":6680:6792   */\n    tag_458:\n        /* \"#utility.yul\":6801:6855   */\n      tag_460\n        /* \"#utility.yul\":6848:6854   */\n      dup5\n        /* \"#utility.yul\":6843:6846   */\n      dup3\n        /* \"#utility.yul\":6838:6841   */\n      dup6\n        /* \"#utility.yul\":6801:6855   */\n      tag_366\n      jump\t// in\n    tag_460:\n        /* \"#utility.yul\":6520:6861   */\n      pop\n        /* \"#utility.yul\":6436:6861   */\n      swap4\n      swap3\n      pop\n      pop\n      pop\n      jump\t// out\n        /* \"#utility.yul\":6881:7221   */\n    tag_368:\n        /* \"#utility.yul\":6937:6942   */\n      0x00\n        /* \"#utility.yul\":6986:6989   */\n      dup3\n        /* \"#utility.yul\":6979:6983   */\n      0x1f\n        /* \"#utility.yul\":6971:6977   */\n      dup4\n        /* \"#utility.yul\":6967:6984   */\n      add\n        /* \"#utility.yul\":6963:6990   */\n      slt\n        /* \"#utility.yul\":6953:7075   */\n      tag_462\n      jumpi\n        /* \"#utility.yul\":6994:7073   */\n      tag_463\n      tag_361\n      jump\t// in\n    tag_463:\n        /* \"#utility.yul\":6953:7075   */\n    tag_462:\n        /* \"#utility.yul\":7111:7117   */\n      dup2\n        /* \"#utility.yul\":7098:7118   */\n      calldataload\n        /* \"#utility.yul\":7136:7215   */\n      tag_464\n        /* \"#utility.yul\":7211:7214   */\n      dup5\n        /* \"#utility.yul\":7203:7209   */\n      dup3\n        /* \"#utility.yul\":7196:7200   */\n      0x20\n        /* \"#utility.yul\":7188:7194   */\n      dup7\n        /* \"#utility.yul\":7184:7201   */\n      add\n        /* \"#utility.yul\":7136:7215   */\n      tag_367\n      jump\t// in\n    tag_464:\n        /* \"#utility.yul\":7127:7215   */\n      swap2\n      pop\n        /* \"#utility.yul\":6943:7221   */\n      pop\n        /* \"#utility.yul\":6881:7221   */\n      swap3\n      swap2\n      pop\n      pop\n      jump\t// out\n        /* \"#utility.yul\":7227:7736   */\n    tag_20:\n        /* \"#utility.yul\":7296:7302   */\n      0x00\n        /* \"#utility.yul\":7345:7347   */\n      0x20\n        /* \"#utility.yul\":7333:7342   */\n      dup3\n        /* \"#utility.yul\":7324:7331   */\n      dup5\n        /* \"#utility.yul\":7320:7343   */\n      sub\n        /* \"#utility.yul\":7316:7348   */\n      slt\n        /* \"#utility.yul\":7313:7432   */\n      iszero\n      tag_466\n      jumpi\n        /* \"#utility.yul\":7351:7430   */\n      tag_467\n      tag_349\n      jump\t// in\n    tag_467:\n        /* \"#utility.yul\":7313:7432   */\n    tag_466:\n        /* \"#utility.yul\":7499:7500   */\n      0x00\n        /* \"#utility.yul\":7488:7497   */\n      dup3\n        /* \"#utility.yul\":7484:7501   */\n      add\n        /* \"#utility.yul\":7471:7502   */\n      calldataload\n        /* \"#utility.yul\":7529:7547   */\n      0xffffffffffffffff\n        /* \"#utility.yul\":7521:7527   */\n      dup2\n        /* \"#utility.yul\":7518:7548   */\n      gt\n        /* \"#utility.yul\":7515:7632   */\n      iszero\n      tag_468\n      jumpi\n        /* \"#utility.yul\":7551:7630   */\n      tag_469\n      tag_350\n      jump\t// in\n    tag_469:\n        /* \"#utility.yul\":7515:7632   */\n    tag_468:\n        /* \"#utility.yul\":7656:7719   */\n      tag_470\n        /* \"#utility.yul\":7711:7718   */\n      dup5\n        /* \"#utility.yul\":7702:7708   */\n      dup3\n        /* \"#utility.yul\":7691:7700   */\n      dup6\n        /* \"#utility.yul\":7687:7709   */\n      add\n        /* \"#utility.yul\":7656:7719   */\n      tag_368\n      jump\t// in\n    tag_470:\n        /* \"#utility.yul\":7646:7719   */\n      swap2\n      pop\n        /* \"#utility.yul\":7442:7729   */\n      pop\n        /* \"#utility.yul\":7227:7736   */\n      swap3\n      swap2\n      pop\n      pop\n      jump\t// out\n        /* \"#utility.yul\":7742:7883   */\n    tag_369:\n        /* \"#utility.yul\":7836:7842   */\n      0x00\n        /* \"#utility.yul\":7870:7875   */\n      dup2\n        /* \"#utility.yul\":7864:7876   */\n      mload\n        /* \"#utility.yul\":7854:7876   */\n      swap1\n      pop\n        /* \"#utility.yul\":7742:7883   */\n      swap2\n      swap1\n      pop\n      jump\t// out\n        /* \"#utility.yul\":7889:8100   */\n    tag_370:\n        /* \"#utility.yul\":8015:8026   */\n      0x00\n        /* \"#utility.yul\":8049:8055   */\n      dup3\n        /* \"#utility.yul\":8044:8047   */\n      dup3\n        /* \"#utility.yul\":8037:8056   */\n      mstore\n        /* \"#utility.yul\":8089:8093   */\n      0x20\n        /* \"#utility.yul\":8084:8087   */\n      dup3\n        /* \"#utility.yul\":8080:8094   */\n      add\n        /* \"#utility.yul\":8065:8094   */\n      swap1\n      pop\n        /* \"#utility.yul\":7889:8100   */\n      swap3\n      swap2\n      pop\n      pop\n      jump\t// out\n        /* \"#utility.yul\":8106:8265   */\n    tag_371:\n        /* \"#utility.yul\":8200:8204   */\n      0x00\n        /* \"#utility.yul\":8223:8226   */\n      dup2\n        /* \"#utility.yul\":8215:8226   */\n      swap1\n      pop\n        /* \"#utility.yul\":8253:8257   */\n      0x20\n        /* \"#utility.yul\":8248:8251   */\n      dup3\n        /* \"#utility.yul\":8244:8258   */\n      add\n        /* \"#utility.yul\":8236:8258   */\n      swap1\n      pop\n        /* \"#utility.yul\":8106:8265   */\n      swap2\n      swap1\n      pop\n      jump\t// out\n        /* \"#utility.yul\":8359:10852   */\n    tag_372:\n        /* \"#utility.yul\":8472:8475   */\n      0x00\n        /* \"#utility.yul\":8508:8514   */\n      0x0140\n        /* \"#utility.yul\":8503:8506   */\n      dup4\n        /* \"#utility.yul\":8499:8515   */\n      add\n        /* \"#utility.yul\":8606:8610   */\n      0x00\n        /* \"#utility.yul\":8599:8604   */\n      dup4\n        /* \"#utility.yul\":8595:8611   */\n      add\n        /* \"#utility.yul\":8589:8612   */\n      mload\n        /* \"#utility.yul\":8625:8688   */\n      tag_475\n        /* \"#utility.yul\":8682:8686   */\n      0x00\n        /* \"#utility.yul\":8677:8680   */\n      dup7\n        /* \"#utility.yul\":8673:8687   */\n      add\n        /* \"#utility.yul\":8659:8671   */\n      dup3\n        /* \"#utility.yul\":8625:8688   */\n      tag_354\n      jump\t// in\n    tag_475:\n        /* \"#utility.yul\":8525:8698   */\n      pop\n        /* \"#utility.yul\":8791:8795   */\n      0x20\n        /* \"#utility.yul\":8784:8789   */\n      dup4\n        /* \"#utility.yul\":8780:8796   */\n      add\n        /* \"#utility.yul\":8774:8797   */\n      mload\n        /* \"#utility.yul\":8844:8847   */\n      dup5\n        /* \"#utility.yul\":8838:8842   */\n      dup3\n        /* \"#utility.yul\":8834:8848   */\n      sub\n        /* \"#utility.yul\":8827:8831   */\n      0x20\n        /* \"#utility.yul\":8822:8825   */\n      dup7\n        /* \"#utility.yul\":8818:8832   */\n      add\n        /* \"#utility.yul\":8811:8849   */\n      mstore\n        /* \"#utility.yul\":8870:8943   */\n      tag_476\n        /* \"#utility.yul\":8938:8942   */\n      dup3\n        /* \"#utility.yul\":8924:8936   */\n      dup3\n        /* \"#utility.yul\":8870:8943   */\n      tag_359\n      jump\t// in\n    tag_476:\n        /* \"#utility.yul\":8862:8943   */\n      swap2\n      pop\n        /* \"#utility.yul\":8708:8954   */\n      pop\n        /* \"#utility.yul\":9037:9041   */\n      0x40\n        /* \"#utility.yul\":9030:9035   */\n      dup4\n        /* \"#utility.yul\":9026:9042   */\n      add\n        /* \"#utility.yul\":9020:9043   */\n      mload\n        /* \"#utility.yul\":9090:9093   */\n      dup5\n        /* \"#utility.yul\":9084:9088   */\n      dup3\n        /* \"#utility.yul\":9080:9094   */\n      sub\n        /* \"#utility.yul\":9073:9077   */\n      0x40\n        /* \"#utility.yul\":9068:9071   */\n      dup7\n        /* \"#utility.yul\":9064:9078   */\n      add\n        /* \"#utility.yul\":9057:9095   */\n      mstore\n        /* \"#utility.yul\":9116:9189   */\n      tag_477\n        /* \"#utility.yul\":9184:9188   */\n      dup3\n        /* \"#utility.yul\":9170:9182   */\n      dup3\n        /* \"#utility.yul\":9116:9189   */\n      tag_359\n      jump\t// in\n    tag_477:\n        /* \"#utility.yul\":9108:9189   */\n      swap2\n      pop\n        /* \"#utility.yul\":8964:9200   */\n      pop\n        /* \"#utility.yul\":9285:9289   */\n      0x60\n        /* \"#utility.yul\":9278:9283   */\n      dup4\n        /* \"#utility.yul\":9274:9290   */\n      add\n        /* \"#utility.yul\":9268:9291   */\n      mload\n        /* \"#utility.yul\":9338:9341   */\n      dup5\n        /* \"#utility.yul\":9332:9336   */\n      dup3\n        /* \"#utility.yul\":9328:9342   */\n      sub\n        /* \"#utility.yul\":9321:9325   */\n      0x60\n        /* \"#utility.yul\":9316:9319   */\n      dup7\n        /* \"#utility.yul\":9312:9326   */\n      add\n        /* \"#utility.yul\":9305:9343   */\n      mstore\n        /* \"#utility.yul\":9364:9437   */\n      tag_478\n        /* \"#utility.yul\":9432:9436   */\n      dup3\n        /* \"#utility.yul\":9418:9430   */\n      dup3\n        /* \"#utility.yul\":9364:9437   */\n      tag_359\n      jump\t// in\n    tag_478:\n        /* \"#utility.yul\":9356:9437   */\n      swap2\n      pop\n        /* \"#utility.yul\":9210:9448   */\n      pop\n        /* \"#utility.yul\":9539:9543   */\n      0x80\n        /* \"#utility.yul\":9532:9537   */\n      dup4\n        /* \"#utility.yul\":9528:9544   */\n      add\n        /* \"#utility.yul\":9522:9545   */\n      mload\n        /* \"#utility.yul\":9592:9595   */\n      dup5\n        /* \"#utility.yul\":9586:9590   */\n      dup3\n        /* \"#utility.yul\":9582:9596   */\n      sub\n        /* \"#utility.yul\":9575:9579   */\n      0x80\n        /* \"#utility.yul\":9570:9573   */\n      dup7\n        /* \"#utility.yul\":9566:9580   */\n      add\n        /* \"#utility.yul\":9559:9597   */\n      mstore\n        /* \"#utility.yul\":9618:9691   */\n      tag_479\n        /* \"#utility.yul\":9686:9690   */\n      dup3\n        /* \"#utility.yul\":9672:9684   */\n      dup3\n        /* \"#utility.yul\":9618:9691   */\n      tag_359\n      jump\t// in\n    tag_479:\n        /* \"#utility.yul\":9610:9691   */\n      swap2\n      pop\n        /* \"#utility.yul\":9458:9702   */\n      pop\n        /* \"#utility.yul\":9788:9792   */\n      0xa0\n        /* \"#utility.yul\":9781:9786   */\n      dup4\n        /* \"#utility.yul\":9777:9793   */\n      add\n        /* \"#utility.yul\":9771:9794   */\n      mload\n        /* \"#utility.yul\":9841:9844   */\n      dup5\n        /* \"#utility.yul\":9835:9839   */\n      dup3\n        /* \"#utility.yul\":9831:9845   */\n      sub\n        /* \"#utility.yul\":9824:9828   */\n      0xa0\n        /* \"#utility.yul\":9819:9822   */\n      dup7\n        /* \"#utility.yul\":9815:9829   */\n      add\n        /* \"#utility.yul\":9808:9846   */\n      mstore\n        /* \"#utility.yul\":9867:9940   */\n      tag_480\n        /* \"#utility.yul\":9935:9939   */\n      dup3\n        /* \"#utility.yul\":9921:9933   */\n      dup3\n        /* \"#utility.yul\":9867:9940   */\n      tag_359\n      jump\t// in\n    tag_480:\n        /* \"#utility.yul\":9859:9940   */\n      swap2\n      pop\n        /* \"#utility.yul\":9712:9951   */\n      pop\n        /* \"#utility.yul\":10041:10045   */\n      0xc0\n        /* \"#utility.yul\":10034:10039   */\n      dup4\n        /* \"#utility.yul\":10030:10046   */\n      add\n        /* \"#utility.yul\":10024:10047   */\n      mload\n        /* \"#utility.yul\":10060:10123   */\n      tag_481\n        /* \"#utility.yul\":10117:10121   */\n      0xc0\n        /* \"#utility.yul\":10112:10115   */\n      dup7\n        /* \"#utility.yul\":10108:10122   */\n      add\n        /* \"#utility.yul\":10094:10106   */\n      dup3\n        /* \"#utility.yul\":10060:10123   */\n      tag_354\n      jump\t// in\n    tag_481:\n        /* \"#utility.yul\":9961:10133   */\n      pop\n        /* \"#utility.yul\":10221:10225   */\n      0xe0\n        /* \"#utility.yul\":10214:10219   */\n      dup4\n        /* \"#utility.yul\":10210:10226   */\n      add\n        /* \"#utility.yul\":10204:10227   */\n      mload\n        /* \"#utility.yul\":10274:10277   */\n      dup5\n        /* \"#utility.yul\":10268:10272   */\n      dup3\n        /* \"#utility.yul\":10264:10278   */\n      sub\n        /* \"#utility.yul\":10257:10261   */\n      0xe0\n        /* \"#utility.yul\":10252:10255   */\n      dup7\n        /* \"#utility.yul\":10248:10262   */\n      add\n        /* \"#utility.yul\":10241:10279   */\n      mstore\n        /* \"#utility.yul\":10300:10373   */\n      tag_482\n        /* \"#utility.yul\":10368:10372   */\n      dup3\n        /* \"#utility.yul\":10354:10366   */\n      dup3\n        /* \"#utility.yul\":10300:10373   */\n      tag_359\n      jump\t// in\n    tag_482:\n        /* \"#utility.yul\":10292:10373   */\n      swap2\n      pop\n        /* \"#utility.yul\":10143:10384   */\n      pop\n        /* \"#utility.yul\":10475:10481   */\n      0x0100\n        /* \"#utility.yul\":10468:10473   */\n      dup4\n        /* \"#utility.yul\":10464:10482   */\n      add\n        /* \"#utility.yul\":10458:10483   */\n      mload\n        /* \"#utility.yul\":10532:10535   */\n      dup5\n        /* \"#utility.yul\":10526:10530   */\n      dup3\n        /* \"#utility.yul\":10522:10536   */\n      sub\n        /* \"#utility.yul\":10513:10519   */\n      0x0100\n        /* \"#utility.yul\":10508:10511   */\n      dup7\n        /* \"#utility.yul\":10504:10520   */\n      add\n        /* \"#utility.yul\":10497:10537   */\n      mstore\n        /* \"#utility.yul\":10558:10631   */\n      tag_483\n        /* \"#utility.yul\":10626:10630   */\n      dup3\n        /* \"#utility.yul\":10612:10624   */\n      dup3\n        /* \"#utility.yul\":10558:10631   */\n      tag_359\n      jump\t// in\n    tag_483:\n        /* \"#utility.yul\":10550:10631   */\n      swap2\n      pop\n        /* \"#utility.yul\":10394:10642   */\n      pop\n        /* \"#utility.yul\":10729:10735   */\n      0x0120\n        /* \"#utility.yul\":10722:10727   */\n      dup4\n        /* \"#utility.yul\":10718:10736   */\n      add\n        /* \"#utility.yul\":10712:10737   */\n      mload\n        /* \"#utility.yul\":10750:10815   */\n      tag_484\n        /* \"#utility.yul\":10807:10813   */\n      0x0120\n        /* \"#utility.yul\":10802:10805   */\n      dup7\n        /* \"#utility.yul\":10798:10814   */\n      add\n        /* \"#utility.yul\":10784:10796   */\n      dup3\n        /* \"#utility.yul\":10750:10815   */\n      tag_354\n      jump\t// in\n    tag_484:\n        /* \"#utility.yul\":10652:10825   */\n      pop\n        /* \"#utility.yul\":10842:10846   */\n      dup1\n        /* \"#utility.yul\":10835:10846   */\n      swap2\n      pop\n        /* \"#utility.yul\":8477:10852   */\n      pop\n        /* \"#utility.yul\":8359:10852   */\n      swap3\n      swap2\n      pop\n      pop\n      jump\t// out\n        /* \"#utility.yul\":10858:11122   */\n    tag_373:\n        /* \"#utility.yul\":10981:10991   */\n      0x00\n        /* \"#utility.yul\":11016:11116   */\n      tag_486\n        /* \"#utility.yul\":11112:11115   */\n      dup4\n        /* \"#utility.yul\":11104:11110   */\n      dup4\n        /* \"#utility.yul\":11016:11116   */\n      tag_372\n      jump\t// in\n    tag_486:\n        /* \"#utility.yul\":11002:11116   */\n      swap1\n      pop\n        /* \"#utility.yul\":10858:11122   */\n      swap3\n      swap2\n      pop\n      pop\n      jump\t// out\n        /* \"#utility.yul\":11128:11268   */\n    tag_374:\n        /* \"#utility.yul\":11225:11229   */\n      0x00\n        /* \"#utility.yul\":11257:11261   */\n      0x20\n        /* \"#utility.yul\":11252:11255   */\n      dup3\n        /* \"#utility.yul\":11248:11262   */\n      add\n        /* \"#utility.yul\":11240:11262   */\n      swap1\n      pop\n        /* \"#utility.yul\":11128:11268   */\n      swap2\n      swap1\n      pop\n      jump\t// out\n        /* \"#utility.yul\":11366:12493   */\n    tag_375:\n        /* \"#utility.yul\":11539:11542   */\n      0x00\n        /* \"#utility.yul\":11568:11649   */\n      tag_489\n        /* \"#utility.yul\":11643:11648   */\n      dup3\n        /* \"#utility.yul\":11568:11649   */\n      tag_369\n      jump\t// in\n    tag_489:\n        /* \"#utility.yul\":11665:11778   */\n      tag_490\n        /* \"#utility.yul\":11771:11777   */\n      dup2\n        /* \"#utility.yul\":11766:11769   */\n      dup6\n        /* \"#utility.yul\":11665:11778   */\n      tag_370\n      jump\t// in\n    tag_490:\n        /* \"#utility.yul\":11658:11778   */\n      swap4\n      pop\n        /* \"#utility.yul\":11804:11807   */\n      dup4\n        /* \"#utility.yul\":11849:11853   */\n      0x20\n        /* \"#utility.yul\":11841:11847   */\n      dup3\n        /* \"#utility.yul\":11837:11854   */\n      mul\n        /* \"#utility.yul\":11832:11835   */\n      dup6\n        /* \"#utility.yul\":11828:11855   */\n      add\n        /* \"#utility.yul\":11879:11962   */\n      tag_491\n        /* \"#utility.yul\":11956:11961   */\n      dup6\n        /* \"#utility.yul\":11879:11962   */\n      tag_371\n      jump\t// in\n    tag_491:\n        /* \"#utility.yul\":11985:11992   */\n      dup1\n        /* \"#utility.yul\":12016:12017   */\n      0x00\n        /* \"#utility.yul\":12001:12448   */\n    tag_492:\n        /* \"#utility.yul\":12026:12032   */\n      dup6\n        /* \"#utility.yul\":12023:12024   */\n      dup2\n        /* \"#utility.yul\":12020:12033   */\n      lt\n        /* \"#utility.yul\":12001:12448   */\n      iszero\n      tag_494\n      jumpi\n        /* \"#utility.yul\":12097:12106   */\n      dup5\n        /* \"#utility.yul\":12091:12095   */\n      dup5\n        /* \"#utility.yul\":12087:12107   */\n      sub\n        /* \"#utility.yul\":12082:12085   */\n      dup10\n        /* \"#utility.yul\":12075:12108   */\n      mstore\n        /* \"#utility.yul\":12148:12154   */\n      dup2\n        /* \"#utility.yul\":12142:12155   */\n      mload\n        /* \"#utility.yul\":12176:12294   */\n      tag_495\n        /* \"#utility.yul\":12289:12293   */\n      dup6\n        /* \"#utility.yul\":12274:12287   */\n      dup3\n        /* \"#utility.yul\":12176:12294   */\n      tag_373\n      jump\t// in\n    tag_495:\n        /* \"#utility.yul\":12168:12294   */\n      swap5\n      pop\n        /* \"#utility.yul\":12317:12404   */\n      tag_496\n        /* \"#utility.yul\":12397:12403   */\n      dup4\n        /* \"#utility.yul\":12317:12404   */\n      tag_374\n      jump\t// in\n    tag_496:\n        /* \"#utility.yul\":12307:12404   */\n      swap3\n      pop\n        /* \"#utility.yul\":12433:12437   */\n      0x20\n        /* \"#utility.yul\":12428:12431   */\n      dup11\n        /* \"#utility.yul\":12424:12438   */\n      add\n        /* \"#utility.yul\":12417:12438   */\n      swap10\n      pop\n        /* \"#utility.yul\":12061:12448   */\n      pop\n        /* \"#utility.yul\":12048:12049   */\n      0x01\n        /* \"#utility.yul\":12045:12046   */\n      dup2\n        /* \"#utility.yul\":12041:12050   */\n      add\n        /* \"#utility.yul\":12036:12050   */\n      swap1\n      pop\n        /* \"#utility.yul\":12001:12448   */\n      jump(tag_492)\n    tag_494:\n        /* \"#utility.yul\":12005:12019   */\n      pop\n        /* \"#utility.yul\":12464:12468   */\n      dup3\n        /* \"#utility.yul\":12457:12468   */\n      swap8\n      pop\n        /* \"#utility.yul\":12484:12487   */\n      dup8\n        /* \"#utility.yul\":12477:12487   */\n      swap6\n      pop\n        /* \"#utility.yul\":11544:12493   */\n      pop\n      pop\n      pop\n      pop\n      pop\n        /* \"#utility.yul\":11366:12493   */\n      swap3\n      swap2\n      pop\n      pop\n      jump\t// out\n        /* \"#utility.yul\":12499:12980   */\n    tag_23:\n        /* \"#utility.yul\":12696:12700   */\n      0x00\n        /* \"#utility.yul\":12734:12736   */\n      0x20\n        /* \"#utility.yul\":12723:12732   */\n      dup3\n        /* \"#utility.yul\":12719:12737   */\n      add\n        /* \"#utility.yul\":12711:12737   */\n      swap1\n      pop\n        /* \"#utility.yul\":12783:12792   */\n      dup2\n        /* \"#utility.yul\":12777:12781   */\n      dup2\n        /* \"#utility.yul\":12773:12793   */\n      sub\n        /* \"#utility.yul\":12769:12770   */\n      0x00\n        /* \"#utility.yul\":12758:12767   */\n      dup4\n        /* \"#utility.yul\":12754:12771   */\n      add\n        /* \"#utility.yul\":12747:12794   */\n      mstore\n        /* \"#utility.yul\":12811:12973   */\n      tag_498\n        /* \"#utility.yul\":12968:12972   */\n      dup2\n        /* \"#utility.yul\":12959:12965   */\n      dup5\n        /* \"#utility.yul\":12811:12973   */\n      tag_375\n      jump\t// in\n    tag_498:\n        /* \"#utility.yul\":12803:12973   */\n      swap1\n      pop\n        /* \"#utility.yul\":12499:12980   */\n      swap3\n      swap2\n      pop\n      pop\n      jump\t// out\n        /* \"#utility.yul\":12986:13104   */\n    tag_376:\n        /* \"#utility.yul\":13073:13097   */\n      tag_500\n        /* \"#utility.yul\":13091:13096   */\n      dup2\n        /* \"#utility.yul\":13073:13097   */\n      tag_351\n      jump\t// in\n    tag_500:\n        /* \"#utility.yul\":13068:13071   */\n      dup3\n        /* \"#utility.yul\":13061:13098   */\n      mstore\n        /* \"#utility.yul\":12986:13104   */\n      pop\n      pop\n      jump\t// out\n        /* \"#utility.yul\":13110:13279   */\n    tag_377:\n        /* \"#utility.yul\":13194:13205   */\n      0x00\n        /* \"#utility.yul\":13228:13234   */\n      dup3\n        /* \"#utility.yul\":13223:13226   */\n      dup3\n        /* \"#utility.yul\":13216:13235   */\n      mstore\n        /* \"#utility.yul\":13268:13272   */\n      0x20\n        /* \"#utility.yul\":13263:13266   */\n      dup3\n        /* \"#utility.yul\":13259:13273   */\n      add\n        /* \"#utility.yul\":13244:13273   */\n      swap1\n      pop\n        /* \"#utility.yul\":13110:13279   */\n      swap3\n      swap2\n      pop\n      pop\n      jump\t// out\n        /* \"#utility.yul\":13285:13662   */\n    tag_378:\n        /* \"#utility.yul\":13373:13376   */\n      0x00\n        /* \"#utility.yul\":13401:13440   */\n      tag_503\n        /* \"#utility.yul\":13434:13439   */\n      dup3\n        /* \"#utility.yul\":13401:13440   */\n      tag_355\n      jump\t// in\n    tag_503:\n        /* \"#utility.yul\":13456:13527   */\n      tag_504\n        /* \"#utility.yul\":13520:13526   */\n      dup2\n        /* \"#utility.yul\":13515:13518   */\n      dup6\n        /* \"#utility.yul\":13456:13527   */\n      tag_377\n      jump\t// in\n    tag_504:\n        /* \"#utility.yul\":13449:13527   */\n      swap4\n      pop\n        /* \"#utility.yul\":13536:13601   */\n      tag_505\n        /* \"#utility.yul\":13594:13600   */\n      dup2\n        /* \"#utility.yul\":13589:13592   */\n      dup6\n        /* \"#utility.yul\":13582:13586   */\n      0x20\n        /* \"#utility.yul\":13575:13580   */\n      dup7\n        /* \"#utility.yul\":13571:13587   */\n      add\n        /* \"#utility.yul\":13536:13601   */\n      tag_357\n      jump\t// in\n    tag_505:\n        /* \"#utility.yul\":13626:13655   */\n      tag_506\n        /* \"#utility.yul\":13648:13654   */\n      dup2\n        /* \"#utility.yul\":13626:13655   */\n      tag_358\n      jump\t// in\n    tag_506:\n        /* \"#utility.yul\":13621:13624   */\n      dup5\n        /* \"#utility.yul\":13617:13656   */\n      add\n        /* \"#utility.yul\":13610:13656   */\n      swap2\n      pop\n        /* \"#utility.yul\":13377:13662   */\n      pop\n        /* \"#utility.yul\":13285:13662   */\n      swap3\n      swap2\n      pop\n      pop\n      jump\t// out\n        /* \"#utility.yul\":13668:15524   */\n    tag_28:\n        /* \"#utility.yul\":14153:14157   */\n      0x00\n        /* \"#utility.yul\":14191:14194   */\n      0x0140\n        /* \"#utility.yul\":14180:14189   */\n      dup3\n        /* \"#utility.yul\":14176:14195   */\n      add\n        /* \"#utility.yul\":14168:14195   */\n      swap1\n      pop\n        /* \"#utility.yul\":14205:14276   */\n      tag_508\n        /* \"#utility.yul\":14273:14274   */\n      0x00\n        /* \"#utility.yul\":14262:14271   */\n      dup4\n        /* \"#utility.yul\":14258:14275   */\n      add\n        /* \"#utility.yul\":14249:14255   */\n      dup14\n        /* \"#utility.yul\":14205:14276   */\n      tag_376\n      jump\t// in\n    tag_508:\n        /* \"#utility.yul\":14323:14332   */\n      dup2\n        /* \"#utility.yul\":14317:14321   */\n      dup2\n        /* \"#utility.yul\":14313:14333   */\n      sub\n        /* \"#utility.yul\":14308:14310   */\n      0x20\n        /* \"#utility.yul\":14297:14306   */\n      dup4\n        /* \"#utility.yul\":14293:14311   */\n      add\n        /* \"#utility.yul\":14286:14334   */\n      mstore\n        /* \"#utility.yul\":14351:14429   */\n      tag_509\n        /* \"#utility.yul\":14424:14428   */\n      dup2\n        /* \"#utility.yul\":14415:14421   */\n      dup13\n        /* \"#utility.yul\":14351:14429   */\n      tag_378\n      jump\t// in\n    tag_509:\n        /* \"#utility.yul\":14343:14429   */\n      swap1\n      pop\n        /* \"#utility.yul\":14476:14485   */\n      dup2\n        /* \"#utility.yul\":14470:14474   */\n      dup2\n        /* \"#utility.yul\":14466:14486   */\n      sub\n        /* \"#utility.yul\":14461:14463   */\n      0x40\n        /* \"#utility.yul\":14450:14459   */\n      dup4\n        /* \"#utility.yul\":14446:14464   */\n      add\n        /* \"#utility.yul\":14439:14487   */\n      mstore\n        /* \"#utility.yul\":14504:14582   */\n      tag_510\n        /* \"#utility.yul\":14577:14581   */\n      dup2\n        /* \"#utility.yul\":14568:14574   */\n      dup12\n        /* \"#utility.yul\":14504:14582   */\n      tag_378\n      jump\t// in\n    tag_510:\n        /* \"#utility.yul\":14496:14582   */\n      swap1\n      pop\n        /* \"#utility.yul\":14629:14638   */\n      dup2\n        /* \"#utility.yul\":14623:14627   */\n      dup2\n        /* \"#utility.yul\":14619:14639   */\n      sub\n        /* \"#utility.yul\":14614:14616   */\n      0x60\n        /* \"#utility.yul\":14603:14612   */\n      dup4\n        /* \"#utility.yul\":14599:14617   */\n      add\n        /* \"#utility.yul\":14592:14640   */\n      mstore\n        /* \"#utility.yul\":14657:14735   */\n      tag_511\n        /* \"#utility.yul\":14730:14734   */\n      dup2\n        /* \"#utility.yul\":14721:14727   */\n      dup11\n        /* \"#utility.yul\":14657:14735   */\n      tag_378\n      jump\t// in\n    tag_511:\n        /* \"#utility.yul\":14649:14735   */\n      swap1\n      pop\n        /* \"#utility.yul\":14783:14792   */\n      dup2\n        /* \"#utility.yul\":14777:14781   */\n      dup2\n        /* \"#utility.yul\":14773:14793   */\n      sub\n        /* \"#utility.yul\":14767:14770   */\n      0x80\n        /* \"#utility.yul\":14756:14765   */\n      dup4\n        /* \"#utility.yul\":14752:14771   */\n      add\n        /* \"#utility.yul\":14745:14794   */\n      mstore\n        /* \"#utility.yul\":14811:14889   */\n      tag_512\n        /* \"#utility.yul\":14884:14888   */\n      dup2\n        /* \"#utility.yul\":14875:14881   */\n      dup10\n        /* \"#utility.yul\":14811:14889   */\n      tag_378\n      jump\t// in\n    tag_512:\n        /* \"#utility.yul\":14803:14889   */\n      swap1\n      pop\n        /* \"#utility.yul\":14937:14946   */\n      dup2\n        /* \"#utility.yul\":14931:14935   */\n      dup2\n        /* \"#utility.yul\":14927:14947   */\n      sub\n        /* \"#utility.yul\":14921:14924   */\n      0xa0\n        /* \"#utility.yul\":14910:14919   */\n      dup4\n        /* \"#utility.yul\":14906:14925   */\n      add\n        /* \"#utility.yul\":14899:14948   */\n      mstore\n        /* \"#utility.yul\":14965:15043   */\n      tag_513\n        /* \"#utility.yul\":15038:15042   */\n      dup2\n        /* \"#utility.yul\":15029:15035   */\n      dup9\n        /* \"#utility.yul\":14965:15043   */\n      tag_378\n      jump\t// in\n    tag_513:\n        /* \"#utility.yul\":14957:15043   */\n      swap1\n      pop\n        /* \"#utility.yul\":15053:15126   */\n      tag_514\n        /* \"#utility.yul\":15121:15124   */\n      0xc0\n        /* \"#utility.yul\":15110:15119   */\n      dup4\n        /* \"#utility.yul\":15106:15125   */\n      add\n        /* \"#utility.yul\":15097:15103   */\n      dup8\n        /* \"#utility.yul\":15053:15126   */\n      tag_376\n      jump\t// in\n    tag_514:\n        /* \"#utility.yul\":15174:15183   */\n      dup2\n        /* \"#utility.yul\":15168:15172   */\n      dup2\n        /* \"#utility.yul\":15164:15184   */\n      sub\n        /* \"#utility.yul\":15158:15161   */\n      0xe0\n        /* \"#utility.yul\":15147:15156   */\n      dup4\n        /* \"#utility.yul\":15143:15162   */\n      add\n        /* \"#utility.yul\":15136:15185   */\n      mstore\n        /* \"#utility.yul\":15202:15280   */\n      tag_515\n        /* \"#utility.yul\":15275:15279   */\n      dup2\n        /* \"#utility.yul\":15266:15272   */\n      dup7\n        /* \"#utility.yul\":15202:15280   */\n      tag_378\n      jump\t// in\n    tag_515:\n        /* \"#utility.yul\":15194:15280   */\n      swap1\n      pop\n        /* \"#utility.yul\":15328:15337   */\n      dup2\n        /* \"#utility.yul\":15322:15326   */\n      dup2\n        /* \"#utility.yul\":15318:15338   */\n      sub\n        /* \"#utility.yul\":15312:15315   */\n      0x0100\n        /* \"#utility.yul\":15301:15310   */\n      dup4\n        /* \"#utility.yul\":15297:15316   */\n      add\n        /* \"#utility.yul\":15290:15339   */\n      mstore\n        /* \"#utility.yul\":15356:15434   */\n      tag_516\n        /* \"#utility.yul\":15429:15433   */\n      dup2\n        /* \"#utility.yul\":15420:15426   */\n      dup6\n        /* \"#utility.yul\":15356:15434   */\n      tag_378\n      jump\t// in\n    tag_516:\n        /* \"#utility.yul\":15348:15434   */\n      swap1\n      pop\n        /* \"#utility.yul\":15444:15517   */\n      tag_517\n        /* \"#utility.yul\":15512:15515   */\n      0x0120\n        /* \"#utility.yul\":15501:15510   */\n      dup4\n        /* \"#utility.yul\":15497:15516   */\n      add\n        /* \"#utility.yul\":15488:15494   */\n      dup5\n        /* \"#utility.yul\":15444:15517   */\n      tag_376\n      jump\t// in\n    tag_517:\n        /* \"#utility.yul\":13668:15524   */\n      swap12\n      swap11\n      pop\n      pop\n      pop\n      pop\n      pop\n      pop\n      pop\n      pop\n      pop\n      pop\n      pop\n      jump\t// out\n        /* \"#utility.yul\":15530:15752   */\n    tag_35:\n        /* \"#utility.yul\":15623:15627   */\n      0x00\n        /* \"#utility.yul\":15661:15663   */\n      0x20\n        /* \"#utility.yul\":15650:15659   */\n      dup3\n        /* \"#utility.yul\":15646:15664   */\n      add\n        /* \"#utility.yul\":15638:15664   */\n      swap1\n      pop\n        /* \"#utility.yul\":15674:15745   */\n      tag_519\n        /* \"#utility.yul\":15742:15743   */\n      0x00\n        /* \"#utility.yul\":15731:15740   */\n      dup4\n        /* \"#utility.yul\":15727:15744   */\n      add\n        /* \"#utility.yul\":15718:15724   */\n      dup5\n        /* \"#utility.yul\":15674:15745   */\n      tag_376\n      jump\t// in\n    tag_519:\n        /* \"#utility.yul\":15530:15752   */\n      swap3\n      swap2\n      pop\n      pop\n      jump\t// out\n        /* \"#utility.yul\":15758:16557   */\n    tag_38:\n        /* \"#utility.yul\":15845:15851   */\n      0x00\n        /* \"#utility.yul\":15853:15859   */\n      dup1\n        /* \"#utility.yul\":15861:15867   */\n      0x00\n        /* \"#utility.yul\":15910:15912   */\n      0x60\n        /* \"#utility.yul\":15898:15907   */\n      dup5\n        /* \"#utility.yul\":15889:15896   */\n      dup7\n        /* \"#utility.yul\":15885:15908   */\n      sub\n        /* \"#utility.yul\":15881:15913   */\n      slt\n        /* \"#utility.yul\":15878:15997   */\n      iszero\n      tag_521\n      jumpi\n        /* \"#utility.yul\":15916:15995   */\n      tag_522\n      tag_349\n      jump\t// in\n    tag_522:\n        /* \"#utility.yul\":15878:15997   */\n    tag_521:\n        /* \"#utility.yul\":16036:16037   */\n      0x00\n        /* \"#utility.yul\":16061:16114   */\n      tag_523\n        /* \"#utility.yul\":16106:16113   */\n      dup7\n        /* \"#utility.yul\":16097:16103   */\n      dup3\n        /* \"#utility.yul\":16086:16095   */\n      dup8\n        /* \"#utility.yul\":16082:16104   */\n      add\n        /* \"#utility.yul\":16061:16114   */\n      tag_353\n      jump\t// in\n    tag_523:\n        /* \"#utility.yul\":16051:16114   */\n      swap4\n      pop\n        /* \"#utility.yul\":16007:16124   */\n      pop\n        /* \"#utility.yul\":16191:16193   */\n      0x20\n        /* \"#utility.yul\":16180:16189   */\n      dup5\n        /* \"#utility.yul\":16176:16194   */\n      add\n        /* \"#utility.yul\":16163:16195   */\n      calldataload\n        /* \"#utility.yul\":16222:16240   */\n      0xffffffffffffffff\n        /* \"#utility.yul\":16214:16220   */\n      dup2\n        /* \"#utility.yul\":16211:16241   */\n      gt\n        /* \"#utility.yul\":16208:16325   */\n      iszero\n      tag_524\n      jumpi\n        /* \"#utility.yul\":16244:16323   */\n      tag_525\n      tag_350\n      jump\t// in\n    tag_525:\n        /* \"#utility.yul\":16208:16325   */\n    tag_524:\n        /* \"#utility.yul\":16349:16412   */\n      tag_526\n        /* \"#utility.yul\":16404:16411   */\n      dup7\n        /* \"#utility.yul\":16395:16401   */\n      dup3\n        /* \"#utility.yul\":16384:16393   */\n      dup8\n        /* \"#utility.yul\":16380:16402   */\n      add\n        /* \"#utility.yul\":16349:16412   */\n      tag_368\n      jump\t// in\n    tag_526:\n        /* \"#utility.yul\":16339:16412   */\n      swap3\n      pop\n        /* \"#utility.yul\":16134:16422   */\n      pop\n        /* \"#utility.yul\":16461:16463   */\n      0x40\n        /* \"#utility.yul\":16487:16540   */\n      tag_527\n        /* \"#utility.yul\":16532:16539   */\n      dup7\n        /* \"#utility.yul\":16523:16529   */\n      dup3\n        /* \"#utility.yul\":16512:16521   */\n      dup8\n        /* \"#utility.yul\":16508:16530   */\n      add\n        /* \"#utility.yul\":16487:16540   */\n      tag_353\n      jump\t// in\n    tag_527:\n        /* \"#utility.yul\":16477:16540   */\n      swap2\n      pop\n        /* \"#utility.yul\":16432:16550   */\n      pop\n        /* \"#utility.yul\":15758:16557   */\n      swap3\n      pop\n      swap3\n      pop\n      swap3\n      jump\t// out\n        /* \"#utility.yul\":16563:19318   */\n    tag_46:\n        /* \"#utility.yul\":16764:16770   */\n      0x00\n        /* \"#utility.yul\":16772:16778   */\n      dup1\n        /* \"#utility.yul\":16780:16786   */\n      0x00\n        /* \"#utility.yul\":16788:16794   */\n      dup1\n        /* \"#utility.yul\":16796:16802   */\n      0x00\n        /* \"#utility.yul\":16804:16810   */\n      dup1\n        /* \"#utility.yul\":16812:16818   */\n      0x00\n        /* \"#utility.yul\":16820:16826   */\n      dup1\n        /* \"#utility.yul\":16828:16834   */\n      0x00\n        /* \"#utility.yul\":16877:16880   */\n      0x0120\n        /* \"#utility.yul\":16865:16874   */\n      dup11\n        /* \"#utility.yul\":16856:16863   */\n      dup13\n        /* \"#utility.yul\":16852:16875   */\n      sub\n        /* \"#utility.yul\":16848:16881   */\n      slt\n        /* \"#utility.yul\":16845:16965   */\n      iszero\n      tag_529\n      jumpi\n        /* \"#utility.yul\":16884:16963   */\n      tag_530\n      tag_349\n      jump\t// in\n    tag_530:\n        /* \"#utility.yul\":16845:16965   */\n    tag_529:\n        /* \"#utility.yul\":17032:17033   */\n      0x00\n        /* \"#utility.yul\":17021:17030   */\n      dup11\n        /* \"#utility.yul\":17017:17034   */\n      add\n        /* \"#utility.yul\":17004:17035   */\n      calldataload\n        /* \"#utility.yul\":17062:17080   */\n      0xffffffffffffffff\n        /* \"#utility.yul\":17054:17060   */\n      dup2\n        /* \"#utility.yul\":17051:17081   */\n      gt\n        /* \"#utility.yul\":17048:17165   */\n      iszero\n      tag_531\n      jumpi\n        /* \"#utility.yul\":17084:17163   */\n      tag_532\n      tag_350\n      jump\t// in\n    tag_532:\n        /* \"#utility.yul\":17048:17165   */\n    tag_531:\n        /* \"#utility.yul\":17189:17252   */\n      tag_533\n        /* \"#utility.yul\":17244:17251   */\n      dup13\n        /* \"#utility.yul\":17235:17241   */\n      dup3\n        /* \"#utility.yul\":17224:17233   */\n      dup14\n        /* \"#utility.yul\":17220:17242   */\n      add\n        /* \"#utility.yul\":17189:17252   */\n      tag_368\n      jump\t// in\n    tag_533:\n        /* \"#utility.yul\":17179:17252   */\n      swap10\n      pop\n        /* \"#utility.yul\":16975:17262   */\n      pop\n        /* \"#utility.yul\":17329:17331   */\n      0x20\n        /* \"#utility.yul\":17318:17327   */\n      dup11\n        /* \"#utility.yul\":17314:17332   */\n      add\n        /* \"#utility.yul\":17301:17333   */\n      calldataload\n        /* \"#utility.yul\":17360:17378   */\n      0xffffffffffffffff\n        /* \"#utility.yul\":17352:17358   */\n      dup2\n        /* \"#utility.yul\":17349:17379   */\n      gt\n        /* \"#utility.yul\":17346:17463   */\n      iszero\n      tag_534\n      jumpi\n        /* \"#utility.yul\":17382:17461   */\n      tag_535\n      tag_350\n      jump\t// in\n    tag_535:\n        /* \"#utility.yul\":17346:17463   */\n    tag_534:\n        /* \"#utility.yul\":17487:17550   */\n      tag_536\n        /* \"#utility.yul\":17542:17549   */\n      dup13\n        /* \"#utility.yul\":17533:17539   */\n      dup3\n        /* \"#utility.yul\":17522:17531   */\n      dup14\n        /* \"#utility.yul\":17518:17540   */\n      add\n        /* \"#utility.yul\":17487:17550   */\n      tag_368\n      jump\t// in\n    tag_536:\n        /* \"#utility.yul\":17477:17550   */\n      swap9\n      pop\n        /* \"#utility.yul\":17272:17560   */\n      pop\n        /* \"#utility.yul\":17627:17629   */\n      0x40\n        /* \"#utility.yul\":17616:17625   */\n      dup11\n        /* \"#utility.yul\":17612:17630   */\n      add\n        /* \"#utility.yul\":17599:17631   */\n      calldataload\n        /* \"#utility.yul\":17658:17676   */\n      0xffffffffffffffff\n        /* \"#utility.yul\":17650:17656   */\n      dup2\n        /* \"#utility.yul\":17647:17677   */\n      gt\n        /* \"#utility.yul\":17644:17761   */\n      iszero\n      tag_537\n      jumpi\n        /* \"#utility.yul\":17680:17759   */\n      tag_538\n      tag_350\n      jump\t// in\n    tag_538:\n        /* \"#utility.yul\":17644:17761   */\n    tag_537:\n        /* \"#utility.yul\":17785:17848   */\n      tag_539\n        /* \"#utility.yul\":17840:17847   */\n      dup13\n        /* \"#utility.yul\":17831:17837   */\n      dup3\n        /* \"#utility.yul\":17820:17829   */\n      dup14\n        /* \"#utility.yul\":17816:17838   */\n      add\n        /* \"#utility.yul\":17785:17848   */\n      tag_368\n      jump\t// in\n    tag_539:\n        /* \"#utility.yul\":17775:17848   */\n      swap8\n      pop\n        /* \"#utility.yul\":17570:17858   */\n      pop\n        /* \"#utility.yul\":17925:17927   */\n      0x60\n        /* \"#utility.yul\":17914:17923   */\n      dup11\n        /* \"#utility.yul\":17910:17928   */\n      add\n        /* \"#utility.yul\":17897:17929   */\n      calldataload\n        /* \"#utility.yul\":17956:17974   */\n      0xffffffffffffffff\n        /* \"#utility.yul\":17948:17954   */\n      dup2\n        /* \"#utility.yul\":17945:17975   */\n      gt\n        /* \"#utility.yul\":17942:18059   */\n      iszero\n      tag_540\n      jumpi\n        /* \"#utility.yul\":17978:18057   */\n      tag_541\n      tag_350\n      jump\t// in\n    tag_541:\n        /* \"#utility.yul\":17942:18059   */\n    tag_540:\n        /* \"#utility.yul\":18083:18146   */\n      tag_542\n        /* \"#utility.yul\":18138:18145   */\n      dup13\n        /* \"#utility.yul\":18129:18135   */\n      dup3\n        /* \"#utility.yul\":18118:18127   */\n      dup14\n        /* \"#utility.yul\":18114:18136   */\n      add\n        /* \"#utility.yul\":18083:18146   */\n      tag_368\n      jump\t// in\n    tag_542:\n        /* \"#utility.yul\":18073:18146   */\n      swap7\n      pop\n        /* \"#utility.yul\":17868:18156   */\n      pop\n        /* \"#utility.yul\":18223:18226   */\n      0x80\n        /* \"#utility.yul\":18212:18221   */\n      dup11\n        /* \"#utility.yul\":18208:18227   */\n      add\n        /* \"#utility.yul\":18195:18228   */\n      calldataload\n        /* \"#utility.yul\":18255:18273   */\n      0xffffffffffffffff\n        /* \"#utility.yul\":18247:18253   */\n      dup2\n        /* \"#utility.yul\":18244:18274   */\n      gt\n        /* \"#utility.yul\":18241:18358   */\n      iszero\n      tag_543\n      jumpi\n        /* \"#utility.yul\":18277:18356   */\n      tag_544\n      tag_350\n      jump\t// in\n    tag_544:\n        /* \"#utility.yul\":18241:18358   */\n    tag_543:\n        /* \"#utility.yul\":18382:18445   */\n      tag_545\n        /* \"#utility.yul\":18437:18444   */\n      dup13\n        /* \"#utility.yul\":18428:18434   */\n      dup3\n        /* \"#utility.yul\":18417:18426   */\n      dup14\n        /* \"#utility.yul\":18413:18435   */\n      add\n        /* \"#utility.yul\":18382:18445   */\n      tag_368\n      jump\t// in\n    tag_545:\n        /* \"#utility.yul\":18372:18445   */\n      swap6\n      pop\n        /* \"#utility.yul\":18166:18455   */\n      pop\n        /* \"#utility.yul\":18494:18497   */\n      0xa0\n        /* \"#utility.yul\":18521:18574   */\n      tag_546\n        /* \"#utility.yul\":18566:18573   */\n      dup13\n        /* \"#utility.yul\":18557:18563   */\n      dup3\n        /* \"#utility.yul\":18546:18555   */\n      dup14\n        /* \"#utility.yul\":18542:18564   */\n      add\n        /* \"#utility.yul\":18521:18574   */\n      tag_353\n      jump\t// in\n    tag_546:\n        /* \"#utility.yul\":18511:18574   */\n      swap5\n      pop\n        /* \"#utility.yul\":18465:18584   */\n      pop\n        /* \"#utility.yul\":18651:18654   */\n      0xc0\n        /* \"#utility.yul\":18640:18649   */\n      dup11\n        /* \"#utility.yul\":18636:18655   */\n      add\n        /* \"#utility.yul\":18623:18656   */\n      calldataload\n        /* \"#utility.yul\":18683:18701   */\n      0xffffffffffffffff\n        /* \"#utility.yul\":18675:18681   */\n      dup2\n        /* \"#utility.yul\":18672:18702   */\n      gt\n        /* \"#utility.yul\":18669:18786   */\n      iszero\n      tag_547\n      jumpi\n        /* \"#utility.yul\":18705:18784   */\n      tag_548\n      tag_350\n      jump\t// in\n    tag_548:\n        /* \"#utility.yul\":18669:18786   */\n    tag_547:\n        /* \"#utility.yul\":18810:18873   */\n      tag_549\n        /* \"#utility.yul\":18865:18872   */\n      dup13\n        /* \"#utility.yul\":18856:18862   */\n      dup3\n        /* \"#utility.yul\":18845:18854   */\n      dup14\n        /* \"#utility.yul\":18841:18863   */\n      add\n        /* \"#utility.yul\":18810:18873   */\n      tag_368\n      jump\t// in\n    tag_549:\n        /* \"#utility.yul\":18800:18873   */\n      swap4\n      pop\n        /* \"#utility.yul\":18594:18883   */\n      pop\n        /* \"#utility.yul\":18950:18953   */\n      0xe0\n        /* \"#utility.yul\":18939:18948   */\n      dup11\n        /* \"#utility.yul\":18935:18954   */\n      add\n        /* \"#utility.yul\":18922:18955   */\n      calldataload\n        /* \"#utility.yul\":18982:19000   */\n      0xffffffffffffffff\n        /* \"#utility.yul\":18974:18980   */\n      dup2\n        /* \"#utility.yul\":18971:19001   */\n      gt\n        /* \"#utility.yul\":18968:19085   */\n      iszero\n      tag_550\n      jumpi\n        /* \"#utility.yul\":19004:19083   */\n      tag_551\n      tag_350\n      jump\t// in\n    tag_551:\n        /* \"#utility.yul\":18968:19085   */\n    tag_550:\n        /* \"#utility.yul\":19109:19172   */\n      tag_552\n        /* \"#utility.yul\":19164:19171   */\n      dup13\n        /* \"#utility.yul\":19155:19161   */\n      dup3\n        /* \"#utility.yul\":19144:19153   */\n      dup14\n        /* \"#utility.yul\":19140:19162   */\n      add\n        /* \"#utility.yul\":19109:19172   */\n      tag_368\n      jump\t// in\n    tag_552:\n        /* \"#utility.yul\":19099:19172   */\n      swap3\n      pop\n        /* \"#utility.yul\":18893:19182   */\n      pop\n        /* \"#utility.yul\":19221:19224   */\n      0x0100\n        /* \"#utility.yul\":19248:19301   */\n      tag_553\n        /* \"#utility.yul\":19293:19300   */\n      dup13\n        /* \"#utility.yul\":19284:19290   */\n      dup3\n        /* \"#utility.yul\":19273:19282   */\n      dup14\n        /* \"#utility.yul\":19269:19291   */\n      add\n        /* \"#utility.yul\":19248:19301   */\n      tag_353\n      jump\t// in\n    tag_553:\n        /* \"#utility.yul\":19238:19301   */\n      swap2\n      pop\n        /* \"#utility.yul\":19192:19311   */\n      pop\n        /* \"#utility.yul\":16563:19318   */\n      swap3\n      swap6\n      swap9\n      pop\n      swap3\n      swap6\n      swap9\n      pop\n      swap3\n      swap6\n      swap9\n      jump\t// out\n        /* \"#utility.yul\":19324:19504   */\n    tag_379:\n        /* \"#utility.yul\":19372:19449   */\n      0x4e487b7100000000000000000000000000000000000000000000000000000000\n        /* \"#utility.yul\":19369:19370   */\n      0x00\n        /* \"#utility.yul\":19362:19450   */\n      mstore\n        /* \"#utility.yul\":19469:19473   */\n      0x22\n        /* \"#utility.yul\":19466:19467   */\n      0x04\n        /* \"#utility.yul\":19459:19474   */\n      mstore\n        /* \"#utility.yul\":19493:19497   */\n      0x24\n        /* \"#utility.yul\":19490:19491   */\n      0x00\n        /* \"#utility.yul\":19483:19498   */\n      revert\n        /* \"#utility.yul\":19510:19830   */\n    tag_52:\n        /* \"#utility.yul\":19554:19560   */\n      0x00\n        /* \"#utility.yul\":19591:19592   */\n      0x02\n        /* \"#utility.yul\":19585:19589   */\n      dup3\n        /* \"#utility.yul\":19581:19593   */\n      div\n        /* \"#utility.yul\":19571:19593   */\n      swap1\n      pop\n        /* \"#utility.yul\":19638:19639   */\n      0x01\n        /* \"#utility.yul\":19632:19636   */\n      dup3\n        /* \"#utility.yul\":19628:19640   */\n      and\n        /* \"#utility.yul\":19659:19677   */\n      dup1\n        /* \"#utility.yul\":19649:19730   */\n      tag_556\n      jumpi\n        /* \"#utility.yul\":19715:19719   */\n      0x7f\n        /* \"#utility.yul\":19707:19713   */\n      dup3\n        /* \"#utility.yul\":19703:19720   */\n      and\n        /* \"#utility.yul\":19693:19720   */\n      swap2\n      pop\n        /* \"#utility.yul\":19649:19730   */\n    tag_556:\n        /* \"#utility.yul\":19777:19779   */\n      0x20\n        /* \"#utility.yul\":19769:19775   */\n      dup3\n        /* \"#utility.yul\":19766:19780   */\n      lt\n        /* \"#utility.yul\":19746:19764   */\n      dup2\n        /* \"#utility.yul\":19743:19781   */\n      sub\n        /* \"#utility.yul\":19740:19824   */\n      tag_557\n      jumpi\n        /* \"#utility.yul\":19796:19814   */\n      tag_558\n      tag_379\n      jump\t// in\n    tag_558:\n        /* \"#utility.yul\":19740:19824   */\n    tag_557:\n        /* \"#utility.yul\":19561:19830   */\n      pop\n        /* \"#utility.yul\":19510:19830   */\n      swap2\n      swap1\n      pop\n      jump\t// out\n        /* \"#utility.yul\":19836:19984   */\n    tag_380:\n        /* \"#utility.yul\":19938:19949   */\n      0x00\n        /* \"#utility.yul\":19975:19978   */\n      dup2\n        /* \"#utility.yul\":19960:19978   */\n      swap1\n      pop\n        /* \"#utility.yul\":19836:19984   */\n      swap3\n      swap2\n      pop\n      pop\n      jump\t// out\n        /* \"#utility.yul\":19990:20380   */\n    tag_381:\n        /* \"#utility.yul\":20096:20099   */\n      0x00\n        /* \"#utility.yul\":20124:20163   */\n      tag_561\n        /* \"#utility.yul\":20157:20162   */\n      dup3\n        /* \"#utility.yul\":20124:20163   */\n      tag_355\n      jump\t// in\n    tag_561:\n        /* \"#utility.yul\":20179:20268   */\n      tag_562\n        /* \"#utility.yul\":20261:20267   */\n      dup2\n        /* \"#utility.yul\":20256:20259   */\n      dup6\n        /* \"#utility.yul\":20179:20268   */\n      tag_380\n      jump\t// in\n    tag_562:\n        /* \"#utility.yul\":20172:20268   */\n      swap4\n      pop\n        /* \"#utility.yul\":20277:20342   */\n      tag_563\n        /* \"#utility.yul\":20335:20341   */\n      dup2\n        /* \"#utility.yul\":20330:20333   */\n      dup6\n        /* \"#utility.yul\":20323:20327   */\n      0x20\n        /* \"#utility.yul\":20316:20321   */\n      dup7\n        /* \"#utility.yul\":20312:20328   */\n      add\n        /* \"#utility.yul\":20277:20342   */\n      tag_357\n      jump\t// in\n    tag_563:\n        /* \"#utility.yul\":20367:20373   */\n      dup1\n        /* \"#utility.yul\":20362:20365   */\n      dup5\n        /* \"#utility.yul\":20358:20374   */\n      add\n        /* \"#utility.yul\":20351:20374   */\n      swap2\n      pop\n        /* \"#utility.yul\":20100:20380   */\n      pop\n        /* \"#utility.yul\":19990:20380   */\n      swap3\n      swap2\n      pop\n      pop\n      jump\t// out\n        /* \"#utility.yul\":20386:20661   */\n    tag_92:\n        /* \"#utility.yul\":20518:20521   */\n      0x00\n        /* \"#utility.yul\":20540:20635   */\n      tag_565\n        /* \"#utility.yul\":20631:20634   */\n      dup3\n        /* \"#utility.yul\":20622:20628   */\n      dup5\n        /* \"#utility.yul\":20540:20635   */\n      tag_381\n      jump\t// in\n    tag_565:\n        /* \"#utility.yul\":20533:20635   */\n      swap2\n      pop\n        /* \"#utility.yul\":20652:20655   */\n      dup2\n        /* \"#utility.yul\":20645:20655   */\n      swap1\n      pop\n        /* \"#utility.yul\":20386:20661   */\n      swap3\n      swap2\n      pop\n      pop\n      jump\t// out\n        /* \"#utility.yul\":20667:20808   */\n    tag_382:\n        /* \"#utility.yul\":20716:20720   */\n      0x00\n        /* \"#utility.yul\":20739:20742   */\n      dup2\n        /* \"#utility.yul\":20731:20742   */\n      swap1\n      pop\n        /* \"#utility.yul\":20762:20765   */\n      dup2\n        /* \"#utility.yul\":20759:20760   */\n      0x00\n        /* \"#utility.yul\":20752:20766   */\n      mstore\n        /* \"#utility.yul\":20796:20800   */\n      0x20\n        /* \"#utility.yul\":20793:20794   */\n      0x00\n        /* \"#utility.yul\":20783:20801   */\n      keccak256\n        /* \"#utility.yul\":20775:20801   */\n      swap1\n      pop\n        /* \"#utility.yul\":20667:20808   */\n      swap2\n      swap1\n      pop\n      jump\t// out\n        /* \"#utility.yul\":20838:21712   */\n    tag_383:\n        /* \"#utility.yul\":20941:20944   */\n      0x00\n        /* \"#utility.yul\":20978:20983   */\n      dup2\n        /* \"#utility.yul\":20972:20984   */\n      sload\n        /* \"#utility.yul\":21007:21043   */\n      tag_568\n        /* \"#utility.yul\":21033:21042   */\n      dup2\n        /* \"#utility.yul\":21007:21043   */\n      tag_52\n      jump\t// in\n    tag_568:\n        /* \"#utility.yul\":21059:21148   */\n      tag_569\n        /* \"#utility.yul\":21141:21147   */\n      dup2\n        /* \"#utility.yul\":21136:21139   */\n      dup7\n        /* \"#utility.yul\":21059:21148   */\n      tag_380\n      jump\t// in\n    tag_569:\n        /* \"#utility.yul\":21052:21148   */\n      swap5\n      pop\n        /* \"#utility.yul\":21179:21180   */\n      0x01\n        /* \"#utility.yul\":21168:21177   */\n      dup3\n        /* \"#utility.yul\":21164:21181   */\n      and\n        /* \"#utility.yul\":21195:21196   */\n      0x00\n        /* \"#utility.yul\":21190:21356   */\n      dup2\n      eq\n      tag_571\n      jumpi\n        /* \"#utility.yul\":21370:21371   */\n      0x01\n        /* \"#utility.yul\":21365:21706   */\n      dup2\n      eq\n      tag_572\n      jumpi\n        /* \"#utility.yul\":21157:21706   */\n      jump(tag_570)\n        /* \"#utility.yul\":21190:21356   */\n    tag_571:\n        /* \"#utility.yul\":21274:21278   */\n      0xff\n        /* \"#utility.yul\":21270:21279   */\n      not\n        /* \"#utility.yul\":21259:21268   */\n      dup4\n        /* \"#utility.yul\":21255:21280   */\n      and\n        /* \"#utility.yul\":21250:21253   */\n      dup7\n        /* \"#utility.yul\":21243:21281   */\n      mstore\n        /* \"#utility.yul\":21336:21342   */\n      dup2\n        /* \"#utility.yul\":21329:21343   */\n      iszero\n        /* \"#utility.yul\":21322:21344   */\n      iszero\n        /* \"#utility.yul\":21314:21320   */\n      dup3\n        /* \"#utility.yul\":21310:21345   */\n      mul\n        /* \"#utility.yul\":21305:21308   */\n      dup7\n        /* \"#utility.yul\":21301:21346   */\n      add\n        /* \"#utility.yul\":21294:21346   */\n      swap4\n      pop\n        /* \"#utility.yul\":21190:21356   */\n      jump(tag_570)\n        /* \"#utility.yul\":21365:21706   */\n    tag_572:\n        /* \"#utility.yul\":21432:21470   */\n      tag_573\n        /* \"#utility.yul\":21464:21469   */\n      dup6\n        /* \"#utility.yul\":21432:21470   */\n      tag_382\n      jump\t// in\n    tag_573:\n        /* \"#utility.yul\":21492:21493   */\n      0x00\n        /* \"#utility.yul\":21506:21660   */\n    tag_574:\n        /* \"#utility.yul\":21520:21526   */\n      dup4\n        /* \"#utility.yul\":21517:21518   */\n      dup2\n        /* \"#utility.yul\":21514:21527   */\n      lt\n        /* \"#utility.yul\":21506:21660   */\n      iszero\n      tag_576\n      jumpi\n        /* \"#utility.yul\":21594:21601   */\n      dup2\n        /* \"#utility.yul\":21588:21602   */\n      sload\n        /* \"#utility.yul\":21584:21585   */\n      dup2\n        /* \"#utility.yul\":21579:21582   */\n      dup10\n        /* \"#utility.yul\":21575:21586   */\n      add\n        /* \"#utility.yul\":21568:21603   */\n      mstore\n        /* \"#utility.yul\":21644:21645   */\n      0x01\n        /* \"#utility.yul\":21635:21642   */\n      dup3\n        /* \"#utility.yul\":21631:21646   */\n      add\n        /* \"#utility.yul\":21620:21646   */\n      swap2\n      pop\n        /* \"#utility.yul\":21542:21546   */\n      0x20\n        /* \"#utility.yul\":21539:21540   */\n      dup2\n        /* \"#utility.yul\":21535:21547   */\n      add\n        /* \"#utility.yul\":21530:21547   */\n      swap1\n      pop\n        /* \"#utility.yul\":21506:21660   */\n      jump(tag_574)\n    tag_576:\n        /* \"#utility.yul\":21689:21695   */\n      dup4\n        /* \"#utility.yul\":21684:21687   */\n      dup9\n        /* \"#utility.yul\":21680:21696   */\n      add\n        /* \"#utility.yul\":21673:21696   */\n      swap6\n      pop\n        /* \"#utility.yul\":21372:21706   */\n      pop\n      pop\n        /* \"#utility.yul\":21157:21706   */\n    tag_570:\n      pop\n        /* \"#utility.yul\":20945:21712   */\n      pop\n      pop\n        /* \"#utility.yul\":20838:21712   */\n      swap3\n      swap2\n      pop\n      pop\n      jump\t// out\n        /* \"#utility.yul\":21718:21987   */\n    tag_94:\n        /* \"#utility.yul\":21847:21850   */\n      0x00\n        /* \"#utility.yul\":21869:21961   */\n      tag_578\n        /* \"#utility.yul\":21957:21960   */\n      dup3\n        /* \"#utility.yul\":21948:21954   */\n      dup5\n        /* \"#utility.yul\":21869:21961   */\n      tag_383\n      jump\t// in\n    tag_578:\n        /* \"#utility.yul\":21862:21961   */\n      swap2\n      pop\n        /* \"#utility.yul\":21978:21981   */\n      dup2\n        /* \"#utility.yul\":21971:21981   */\n      swap1\n      pop\n        /* \"#utility.yul\":21718:21987   */\n      swap3\n      swap2\n      pop\n      pop\n      jump\t// out\n        /* \"#utility.yul\":21993:22173   */\n    tag_384:\n        /* \"#utility.yul\":22041:22118   */\n      0x4e487b7100000000000000000000000000000000000000000000000000000000\n        /* \"#utility.yul\":22038:22039   */\n      0x00\n        /* \"#utility.yul\":22031:22119   */\n      mstore\n        /* \"#utility.yul\":22138:22142   */\n      0x11\n        /* \"#utility.yul\":22135:22136   */\n      0x04\n        /* \"#utility.yul\":22128:22143   */\n      mstore\n        /* \"#utility.yul\":22162:22166   */\n      0x24\n        /* \"#utility.yul\":22159:22160   */\n      0x00\n        /* \"#utility.yul\":22152:22167   */\n      revert\n        /* \"#utility.yul\":22179:22412   */\n    tag_97:\n        /* \"#utility.yul\":22218:22221   */\n      0x00\n        /* \"#utility.yul\":22241:22265   */\n      tag_581\n        /* \"#utility.yul\":22259:22264   */\n      dup3\n        /* \"#utility.yul\":22241:22265   */\n      tag_351\n      jump\t// in\n    tag_581:\n        /* \"#utility.yul\":22232:22265   */\n      swap2\n      pop\n        /* \"#utility.yul\":22287:22353   */\n      0xffffffffffffffffffffffffffffffffffffffffffffffffffffffffffffffff\n        /* \"#utility.yul\":22280:22285   */\n      dup3\n        /* \"#utility.yul\":22277:22354   */\n      sub\n        /* \"#utility.yul\":22274:22377   */\n      tag_582\n      jumpi\n        /* \"#utility.yul\":22357:22375   */\n      tag_583\n      tag_384\n      jump\t// in\n    tag_583:\n        /* \"#utility.yul\":22274:22377   */\n    tag_582:\n        /* \"#utility.yul\":22404:22405   */\n      0x01\n        /* \"#utility.yul\":22397:22402   */\n      dup3\n        /* \"#utility.yul\":22393:22406   */\n      add\n        /* \"#utility.yul\":22386:22406   */\n      swap1\n      pop\n        /* \"#utility.yul\":22179:22412   */\n      swap2\n      swap1\n      pop\n      jump\t// out\n        /* \"#utility.yul\":22418:22598   */\n    tag_148:\n        /* \"#utility.yul\":22466:22543   */\n      0x4e487b7100000000000000000000000000000000000000000000000000000000\n        /* \"#utility.yul\":22463:22464   */\n      0x00\n        /* \"#utility.yul\":22456:22544   */\n      mstore\n        /* \"#utility.yul\":22563:22567   */\n      0x32\n        /* \"#utility.yul\":22560:22561   */\n      0x04\n        /* \"#utility.yul\":22553:22568   */\n      mstore\n        /* \"#utility.yul\":22587:22591   */\n      0x24\n        /* \"#utility.yul\":22584:22585   */\n      0x00\n        /* \"#utility.yul\":22577:22592   */\n      revert\n        /* \"#utility.yul\":22604:22798   */\n    tag_231:\n        /* \"#utility.yul\":22644:22648   */\n      0x00\n        /* \"#utility.yul\":22664:22684   */\n      tag_586\n        /* \"#utility.yul\":22682:22683   */\n      dup3\n        /* \"#utility.yul\":22664:22684   */\n      tag_351\n      jump\t// in\n    tag_586:\n        /* \"#utility.yul\":22659:22684   */\n      swap2\n      pop\n        /* \"#utility.yul\":22698:22718   */\n      tag_587\n        /* \"#utility.yul\":22716:22717   */\n      dup4\n        /* \"#utility.yul\":22698:22718   */\n      tag_351\n      jump\t// in\n    tag_587:\n        /* \"#utility.yul\":22693:22718   */\n      swap3\n      pop\n        /* \"#utility.yul\":22742:22743   */\n      dup3\n        /* \"#utility.yul\":22739:22740   */\n      dup3\n        /* \"#utility.yul\":22735:22744   */\n      sub\n        /* \"#utility.yul\":22727:22744   */\n      swap1\n      pop\n        /* \"#utility.yul\":22766:22767   */\n      dup2\n        /* \"#utility.yul\":22760:22764   */\n      dup2\n        /* \"#utility.yul\":22757:22768   */\n      gt\n        /* \"#utility.yul\":22754:22791   */\n      iszero\n      tag_588\n      jumpi\n        /* \"#utility.yul\":22771:22789   */\n      tag_589\n      tag_384\n      jump\t// in\n    tag_589:\n        /* \"#utility.yul\":22754:22791   */\n    tag_588:\n        /* \"#utility.yul\":22604:22798   */\n      swap3\n      swap2\n      pop\n      pop\n      jump\t// out\n        /* \"#utility.yul\":22804:22897   */\n    tag_385:\n        /* \"#utility.yul\":22841:22847   */\n      0x00\n        /* \"#utility.yul\":22888:22890   */\n      0x20\n        /* \"#utility.yul\":22883:22885   */\n      0x1f\n        /* \"#utility.yul\":22876:22881   */\n      dup4\n        /* \"#utility.yul\":22872:22886   */\n      add\n        /* \"#utility.yul\":22868:22891   */\n      div\n        /* \"#utility.yul\":22858:22891   */\n      swap1\n      pop\n        /* \"#utility.yul\":22804:22897   */\n      swap2\n      swap1\n      pop\n      jump\t// out\n        /* \"#utility.yul\":22903:23010   */\n    tag_386:\n        /* \"#utility.yul\":22947:22955   */\n      0x00\n        /* \"#utility.yul\":22997:23002   */\n      dup3\n        /* \"#utility.yul\":22991:22995   */\n      dup3\n        /* \"#utility.yul\":22987:23003   */\n      shl\n        /* \"#utility.yul\":22966:23003   */\n      swap1\n      pop\n        /* \"#utility.yul\":22903:23010   */\n      swap3\n      swap2\n      pop\n      pop\n      jump\t// out\n        /* \"#utility.yul\":23016:23409   */\n    tag_387:\n        /* \"#utility.yul\":23085:23091   */\n      0x00\n        /* \"#utility.yul\":23135:23136   */\n      0x08\n        /* \"#utility.yul\":23123:23133   */\n      dup4\n        /* \"#utility.yul\":23119:23137   */\n      mul\n        /* \"#utility.yul\":23158:23255   */\n      tag_593\n        /* \"#utility.yul\":23188:23254   */\n      0xffffffffffffffffffffffffffffffffffffffffffffffffffffffffffffffff\n        /* \"#utility.yul\":23177:23186   */\n      dup3\n        /* \"#utility.yul\":23158:23255   */\n      tag_386\n      jump\t// in\n    tag_593:\n        /* \"#utility.yul\":23276:23315   */\n      tag_594\n        /* \"#utility.yul\":23306:23314   */\n      dup7\n        /* \"#utility.yul\":23295:23304   */\n      dup4\n        /* \"#utility.yul\":23276:23315   */\n      tag_386\n      jump\t// in\n    tag_594:\n        /* \"#utility.yul\":23264:23315   */\n      swap6\n      pop\n        /* \"#utility.yul\":23348:23352   */\n      dup1\n        /* \"#utility.yul\":23344:23353   */\n      not\n        /* \"#utility.yul\":23337:23342   */\n      dup5\n        /* \"#utility.yul\":23333:23354   */\n      and\n        /* \"#utility.yul\":23324:23354   */\n      swap4\n      pop\n        /* \"#utility.yul\":23397:23401   */\n      dup1\n        /* \"#utility.yul\":23387:23395   */\n      dup7\n        /* \"#utility.yul\":23383:23402   */\n      and\n        /* \"#utility.yul\":23376:23381   */\n      dup5\n        /* \"#utility.yul\":23373:23403   */\n      or\n        /* \"#utility.yul\":23363:23403   */\n      swap3\n      pop\n        /* \"#utility.yul\":23092:23409   */\n      pop\n      pop\n        /* \"#utility.yul\":23016:23409   */\n      swap4\n      swap3\n      pop\n      pop\n      pop\n      jump\t// out\n        /* \"#utility.yul\":23415:23475   */\n    tag_388:\n        /* \"#utility.yul\":23443:23446   */\n      0x00\n        /* \"#utility.yul\":23464:23469   */\n      dup2\n        /* \"#utility.yul\":23457:23469   */\n      swap1\n      pop\n        /* \"#utility.yul\":23415:23475   */\n      swap2\n      swap1\n      pop\n      jump\t// out\n        /* \"#utility.yul\":23481:23623   */\n    tag_389:\n        /* \"#utility.yul\":23531:23540   */\n      0x00\n        /* \"#utility.yul\":23564:23617   */\n      tag_597\n        /* \"#utility.yul\":23582:23616   */\n      tag_598\n        /* \"#utility.yul\":23591:23615   */\n      tag_599\n        /* \"#utility.yul\":23609:23614   */\n      dup5\n        /* \"#utility.yul\":23591:23615   */\n      tag_351\n      jump\t// in\n    tag_599:\n        /* \"#utility.yul\":23582:23616   */\n      tag_388\n      jump\t// in\n    tag_598:\n        /* \"#utility.yul\":23564:23617   */\n      tag_351\n      jump\t// in\n    tag_597:\n        /* \"#utility.yul\":23551:23617   */\n      swap1\n      pop\n        /* \"#utility.yul\":23481:23623   */\n      swap2\n      swap1\n      pop\n      jump\t// out\n        /* \"#utility.yul\":23629:23704   */\n    tag_390:\n        /* \"#utility.yul\":23672:23675   */\n      0x00\n        /* \"#utility.yul\":23693:23698   */\n      dup2\n        /* \"#utility.yul\":23686:23698   */\n      swap1\n      pop\n        /* \"#utility.yul\":23629:23704   */\n      swap2\n      swap1\n      pop\n      jump\t// out\n        /* \"#utility.yul\":23710:23979   */\n    tag_391:\n        /* \"#utility.yul\":23820:23859   */\n      tag_602\n        /* \"#utility.yul\":23851:23858   */\n      dup4\n        /* \"#utility.yul\":23820:23859   */\n      tag_389\n      jump\t// in\n    tag_602:\n        /* \"#utility.yul\":23881:23972   */\n      tag_603\n        /* \"#utility.yul\":23930:23971   */\n      tag_604\n        /* \"#utility.yul\":23954:23970   */\n      dup3\n        /* \"#utility.yul\":23930:23971   */\n      tag_390\n      jump\t// in\n    tag_604:\n        /* \"#utility.yul\":23922:23928   */\n      dup5\n        /* \"#utility.yul\":23915:23919   */\n      dup5\n        /* \"#utility.yul\":23909:23920   */\n      sload\n        /* \"#utility.yul\":23881:23972   */\n      tag_387\n      jump\t// in\n    tag_603:\n        /* \"#utility.yul\":23875:23879   */\n      dup3\n        /* \"#utility.yul\":23868:23973   */\n      sstore\n        /* \"#utility.yul\":23786:23979   */\n      pop\n        /* \"#utility.yul\":23710:23979   */\n      pop\n      pop\n      pop\n      jump\t// out\n        /* \"#utility.yul\":23985:24058   */\n    tag_392:\n        /* \"#utility.yul\":24030:24033   */\n      0x00\n        /* \"#utility.yul\":23985:24058   */\n      swap1\n      jump\t// out\n        /* \"#utility.yul\":24064:24253   */\n    tag_393:\n        /* \"#utility.yul\":24141:24173   */\n      tag_607\n      tag_392\n      jump\t// in\n    tag_607:\n        /* \"#utility.yul\":24182:24247   */\n      tag_608\n        /* \"#utility.yul\":24240:24246   */\n      dup2\n        /* \"#utility.yul\":24232:24238   */\n      dup5\n        /* \"#utility.yul\":24226:24230   */\n      dup5\n        /* \"#utility.yul\":24182:24247   */\n      tag_391\n      jump\t// in\n    tag_608:\n        /* \"#utility.yul\":24117:24253   */\n      pop\n        /* \"#utility.yul\":24064:24253   */\n      pop\n      pop\n      jump\t// out\n        /* \"#utility.yul\":24259:24445   */\n    tag_394:\n        /* \"#utility.yul\":24319:24439   */\n    tag_610:\n        /* \"#utility.yul\":24336:24339   */\n      dup2\n        /* \"#utility.yul\":24329:24334   */\n      dup2\n        /* \"#utility.yul\":24326:24340   */\n      lt\n        /* \"#utility.yul\":24319:24439   */\n      iszero\n      tag_612\n      jumpi\n        /* \"#utility.yul\":24390:24429   */\n      tag_613\n        /* \"#utility.yul\":24427:24428   */\n      0x00\n        /* \"#utility.yul\":24420:24425   */\n      dup3\n        /* \"#utility.yul\":24390:24429   */\n      tag_393\n      jump\t// in\n    tag_613:\n        /* \"#utility.yul\":24363:24364   */\n      0x01\n        /* \"#utility.yul\":24356:24361   */\n      dup2\n        /* \"#utility.yul\":24352:24365   */\n      add\n        /* \"#utility.yul\":24343:24365   */\n      swap1\n      pop\n        /* \"#utility.yul\":24319:24439   */\n      jump(tag_610)\n    tag_612:\n        /* \"#utility.yul\":24259:24445   */\n      pop\n      pop\n      jump\t// out\n        /* \"#utility.yul\":24451:24994   */\n    tag_395:\n        /* \"#utility.yul\":24552:24554   */\n      0x1f\n        /* \"#utility.yul\":24547:24550   */\n      dup3\n        /* \"#utility.yul\":24544:24555   */\n      gt\n        /* \"#utility.yul\":24541:24987   */\n      iszero\n      tag_615\n      jumpi\n        /* \"#utility.yul\":24586:24624   */\n      tag_616\n        /* \"#utility.yul\":24618:24623   */\n      dup2\n        /* \"#utility.yul\":24586:24624   */\n      tag_382\n      jump\t// in\n    tag_616:\n        /* \"#utility.yul\":24670:24699   */\n      tag_617\n        /* \"#utility.yul\":24688:24698   */\n      dup5\n        /* \"#utility.yul\":24670:24699   */\n      tag_385\n      jump\t// in\n    tag_617:\n        /* \"#utility.yul\":24660:24668   */\n      dup2\n        /* \"#utility.yul\":24656:24700   */\n      add\n        /* \"#utility.yul\":24853:24855   */\n      0x20\n        /* \"#utility.yul\":24841:24851   */\n      dup6\n        /* \"#utility.yul\":24838:24856   */\n      lt\n        /* \"#utility.yul\":24835:24884   */\n      iszero\n      tag_618\n      jumpi\n        /* \"#utility.yul\":24874:24882   */\n      dup2\n        /* \"#utility.yul\":24859:24882   */\n      swap1\n      pop\n        /* \"#utility.yul\":24835:24884   */\n    tag_618:\n        /* \"#utility.yul\":24897:24977   */\n      tag_619\n        /* \"#utility.yul\":24953:24975   */\n      tag_620\n        /* \"#utility.yul\":24971:24974   */\n      dup6\n        /* \"#utility.yul\":24953:24975   */\n      tag_385\n      jump\t// in\n    tag_620:\n        /* \"#utility.yul\":24943:24951   */\n      dup4\n        /* \"#utility.yul\":24939:24976   */\n      add\n        /* \"#utility.yul\":24926:24937   */\n      dup3\n        /* \"#utility.yul\":24897:24977   */\n      tag_394\n      jump\t// in\n    tag_619:\n        /* \"#utility.yul\":24556:24987   */\n      pop\n      pop\n        /* \"#utility.yul\":24541:24987   */\n    tag_615:\n        /* \"#utility.yul\":24451:24994   */\n      pop\n      pop\n      pop\n      jump\t// out\n        /* \"#utility.yul\":25000:25117   */\n    tag_396:\n        /* \"#utility.yul\":25054:25062   */\n      0x00\n        /* \"#utility.yul\":25104:25109   */\n      dup3\n        /* \"#utility.yul\":25098:25102   */\n      dup3\n        /* \"#utility.yul\":25094:25110   */\n      shr\n        /* \"#utility.yul\":25073:25110   */\n      swap1\n      pop\n        /* \"#utility.yul\":25000:25117   */\n      swap3\n      swap2\n      pop\n      pop\n      jump\t// out\n        /* \"#utility.yul\":25123:25292   */\n    tag_397:\n        /* \"#utility.yul\":25167:25173   */\n      0x00\n        /* \"#utility.yul\":25200:25251   */\n      tag_623\n        /* \"#utility.yul\":25248:25249   */\n      0x00\n        /* \"#utility.yul\":25244:25250   */\n      not\n        /* \"#utility.yul\":25236:25241   */\n      dup5\n        /* \"#utility.yul\":25233:25234   */\n      0x08\n        /* \"#utility.yul\":25229:25242   */\n      mul\n        /* \"#utility.yul\":25200:25251   */\n      tag_396\n      jump\t// in\n    tag_623:\n        /* \"#utility.yul\":25196:25252   */\n      not\n        /* \"#utility.yul\":25281:25285   */\n      dup1\n        /* \"#utility.yul\":25275:25279   */\n      dup4\n        /* \"#utility.yul\":25271:25286   */\n      and\n        /* \"#utility.yul\":25261:25286   */\n      swap2\n      pop\n        /* \"#utility.yul\":25174:25292   */\n      pop\n        /* \"#utility.yul\":25123:25292   */\n      swap3\n      swap2\n      pop\n      pop\n      jump\t// out\n        /* \"#utility.yul\":25297:25592   */\n    tag_398:\n        /* \"#utility.yul\":25373:25377   */\n      0x00\n        /* \"#utility.yul\":25519:25548   */\n      tag_625\n        /* \"#utility.yul\":25544:25547   */\n      dup4\n        /* \"#utility.yul\":25538:25542   */\n      dup4\n        /* \"#utility.yul\":25519:25548   */\n      tag_397\n      jump\t// in\n    tag_625:\n        /* \"#utility.yul\":25511:25548   */\n      swap2\n      pop\n        /* \"#utility.yul\":25581:25584   */\n      dup3\n        /* \"#utility.yul\":25578:25579   */\n      0x02\n        /* \"#utility.yul\":25574:25585   */\n      mul\n        /* \"#utility.yul\":25568:25572   */\n      dup3\n        /* \"#utility.yul\":25565:25586   */\n      or\n        /* \"#utility.yul\":25557:25586   */\n      swap1\n      pop\n        /* \"#utility.yul\":25297:25592   */\n      swap3\n      swap2\n      pop\n      pop\n      jump\t// out\n        /* \"#utility.yul\":25597:26992   */\n    tag_273:\n        /* \"#utility.yul\":25714:25751   */\n      tag_627\n        /* \"#utility.yul\":25747:25750   */\n      dup3\n        /* \"#utility.yul\":25714:25751   */\n      tag_355\n      jump\t// in\n    tag_627:\n        /* \"#utility.yul\":25816:25834   */\n      0xffffffffffffffff\n        /* \"#utility.yul\":25808:25814   */\n      dup2\n        /* \"#utility.yul\":25805:25835   */\n      gt\n        /* \"#utility.yul\":25802:25858   */\n      iszero\n      tag_628\n      jumpi\n        /* \"#utility.yul\":25838:25856   */\n      tag_629\n      tag_101\n      jump\t// in\n    tag_629:\n        /* \"#utility.yul\":25802:25858   */\n    tag_628:\n        /* \"#utility.yul\":25882:25920   */\n      tag_630\n        /* \"#utility.yul\":25914:25918   */\n      dup3\n        /* \"#utility.yul\":25908:25919   */\n      sload\n        /* \"#utility.yul\":25882:25920   */\n      tag_52\n      jump\t// in\n    tag_630:\n        /* \"#utility.yul\":25967:26034   */\n      tag_631\n        /* \"#utility.yul\":26027:26033   */\n      dup3\n        /* \"#utility.yul\":26019:26025   */\n      dup3\n        /* \"#utility.yul\":26013:26017   */\n      dup6\n        /* \"#utility.yul\":25967:26034   */\n      tag_395\n      jump\t// in\n    tag_631:\n        /* \"#utility.yul\":26061:26062   */\n      0x00\n        /* \"#utility.yul\":26085:26089   */\n      0x20\n        /* \"#utility.yul\":26072:26089   */\n      swap1\n      pop\n        /* \"#utility.yul\":26117:26119   */\n      0x1f\n        /* \"#utility.yul\":26109:26115   */\n      dup4\n        /* \"#utility.yul\":26106:26120   */\n      gt\n        /* \"#utility.yul\":26134:26135   */\n      0x01\n        /* \"#utility.yul\":26129:26747   */\n      dup2\n      eq\n      tag_633\n      jumpi\n        /* \"#utility.yul\":26791:26792   */\n      0x00\n        /* \"#utility.yul\":26808:26814   */\n      dup5\n        /* \"#utility.yul\":26805:26882   */\n      iszero\n      tag_634\n      jumpi\n        /* \"#utility.yul\":26857:26866   */\n      dup3\n        /* \"#utility.yul\":26852:26855   */\n      dup8\n        /* \"#utility.yul\":26848:26867   */\n      add\n        /* \"#utility.yul\":26842:26868   */\n      mload\n        /* \"#utility.yul\":26833:26868   */\n      swap1\n      pop\n        /* \"#utility.yul\":26805:26882   */\n    tag_634:\n        /* \"#utility.yul\":26908:26975   */\n      tag_635\n        /* \"#utility.yul\":26968:26974   */\n      dup6\n        /* \"#utility.yul\":26961:26966   */\n      dup3\n        /* \"#utility.yul\":26908:26975   */\n      tag_398\n      jump\t// in\n    tag_635:\n        /* \"#utility.yul\":26902:26906   */\n      dup7\n        /* \"#utility.yul\":26895:26976   */\n      sstore\n        /* \"#utility.yul\":26764:26986   */\n      pop\n        /* \"#utility.yul\":26099:26986   */\n      jump(tag_632)\n        /* \"#utility.yul\":26129:26747   */\n    tag_633:\n        /* \"#utility.yul\":26181:26185   */\n      0x1f\n        /* \"#utility.yul\":26177:26186   */\n      not\n        /* \"#utility.yul\":26169:26175   */\n      dup5\n        /* \"#utility.yul\":26165:26187   */\n      and\n        /* \"#utility.yul\":26215:26252   */\n      tag_636\n        /* \"#utility.yul\":26247:26251   */\n      dup7\n        /* \"#utility.yul\":26215:26252   */\n      tag_382\n      jump\t// in\n    tag_636:\n        /* \"#utility.yul\":26274:26275   */\n      0x00\n        /* \"#utility.yul\":26288:26496   */\n    tag_637:\n        /* \"#utility.yul\":26302:26309   */\n      dup3\n        /* \"#utility.yul\":26299:26300   */\n      dup2\n        /* \"#utility.yul\":26296:26310   */\n      lt\n        /* \"#utility.yul\":26288:26496   */\n      iszero\n      tag_639\n      jumpi\n        /* \"#utility.yul\":26381:26390   */\n      dup5\n        /* \"#utility.yul\":26376:26379   */\n      dup10\n        /* \"#utility.yul\":26372:26391   */\n      add\n        /* \"#utility.yul\":26366:26392   */\n      mload\n        /* \"#utility.yul\":26358:26364   */\n      dup3\n        /* \"#utility.yul\":26351:26393   */\n      sstore\n        /* \"#utility.yul\":26432:26433   */\n      0x01\n        /* \"#utility.yul\":26424:26430   */\n      dup3\n        /* \"#utility.yul\":26420:26434   */\n      add\n        /* \"#utility.yul\":26410:26434   */\n      swap2\n      pop\n        /* \"#utility.yul\":26479:26481   */\n      0x20\n        /* \"#utility.yul\":26468:26477   */\n      dup6\n        /* \"#utility.yul\":26464:26482   */\n      add\n        /* \"#utility.yul\":26451:26482   */\n      swap5\n      pop\n        /* \"#utility.yul\":26325:26329   */\n      0x20\n        /* \"#utility.yul\":26322:26323   */\n      dup2\n        /* \"#utility.yul\":26318:26330   */\n      add\n        /* \"#utility.yul\":26313:26330   */\n      swap1\n      pop\n        /* \"#utility.yul\":26288:26496   */\n      jump(tag_637)\n    tag_639:\n        /* \"#utility.yul\":26524:26530   */\n      dup7\n        /* \"#utility.yul\":26515:26522   */\n      dup4\n        /* \"#utility.yul\":26512:26531   */\n      lt\n        /* \"#utility.yul\":26509:26688   */\n      iszero\n      tag_640\n      jumpi\n        /* \"#utility.yul\":26582:26591   */\n      dup5\n        /* \"#utility.yul\":26577:26580   */\n      dup10\n        /* \"#utility.yul\":26573:26592   */\n      add\n        /* \"#utility.yul\":26567:26593   */\n      mload\n        /* \"#utility.yul\":26625:26673   */\n      tag_641\n        /* \"#utility.yul\":26667:26671   */\n      0x1f\n        /* \"#utility.yul\":26659:26665   */\n      dup10\n        /* \"#utility.yul\":26655:26672   */\n      and\n        /* \"#utility.yul\":26644:26653   */\n      dup3\n        /* \"#utility.yul\":26625:26673   */\n      tag_397\n      jump\t// in\n    tag_641:\n        /* \"#utility.yul\":26617:26623   */\n      dup4\n        /* \"#utility.yul\":26610:26674   */\n      sstore\n        /* \"#utility.yul\":26532:26688   */\n      pop\n        /* \"#utility.yul\":26509:26688   */\n    tag_640:\n        /* \"#utility.yul\":26734:26735   */\n      0x01\n        /* \"#utility.yul\":26730:26731   */\n      0x02\n        /* \"#utility.yul\":26722:26728   */\n      dup9\n        /* \"#utility.yul\":26718:26732   */\n      mul\n        /* \"#utility.yul\":26714:26736   */\n      add\n        /* \"#utility.yul\":26708:26712   */\n      dup9\n        /* \"#utility.yul\":26701:26737   */\n      sstore\n        /* \"#utility.yul\":26136:26747   */\n      pop\n      pop\n      pop\n        /* \"#utility.yul\":26099:26986   */\n    tag_632:\n      pop\n        /* \"#utility.yul\":25689:26992   */\n      pop\n      pop\n      pop\n        /* \"#utility.yul\":25597:26992   */\n      pop\n      pop\n      jump\t// out\n\n    auxdata: 0xa2646970667358221220e1f34d874b1154a31984973a66ffa506a5b9d4d794188fc0a7e2cb4ac7e5461664736f6c63430008100033\n}\n",
				"bytecode": {
					"linkReferences": {},
					"object": "608060405234801561001057600080fd5b50612fd1806100206000396000f3fe608060405234801561001057600080fd5b50600436106100885760003560e01c8063b77bf6001161005b578063b77bf60014610144578063ce8481fd14610162578063e55d57df1461017e578063eb559a1e146101ae57610088565b806333ea3dc81461008d5780639311f732146100bd5780639ace38c2146100ed578063add6415d14610126575b600080fd5b6100a760048036038101906100a29190612260565b6101ca565b6040516100b49190612430565b60405180910390f35b6100d760048036038101906100d29190612587565b610613565b6040516100e49190612796565b60405180910390f35b61010760048036038101906101029190612260565b610c06565b60405161011d9a99989796959493929190612811565b60405180910390f35b61012e611012565b60405161013b9190612796565b60405180910390f35b61014c6114fd565b60405161015991906128de565b60405180910390f35b61017c600480360381019061017791906128f9565b611503565b005b61019860048036038101906101939190612587565b611a94565b6040516101a59190612796565b60405180910390f35b6101c860048036038101906101c39190612968565b612087565b005b6101d26121c3565b600080838152602001908152602001600020604051806101400160405290816000820154815260200160018201805461020a90612b25565b80601f016020809104026020016040519081016040528092919081815260200182805461023690612b25565b80156102835780601f1061025857610100808354040283529160200191610283565b820191906000526020600020905b81548152906001019060200180831161026657829003601f168201915b5050505050815260200160028201805461029c90612b25565b80601f01602080910402602001604051908101604052809291908181526020018280546102c890612b25565b80156103155780601f106102ea57610100808354040283529160200191610315565b820191906000526020600020905b8154815290600101906020018083116102f857829003601f168201915b5050505050815260200160038201805461032e90612b25565b80601f016020809104026020016040519081016040528092919081815260200182805461035a90612b25565b80156103a75780601f1061037c576101008083540402835291602001916103a7565b820191906000526020600020905b81548152906001019060200180831161038a57829003601f168201915b505050505081526020016004820180546103c090612b25565b80601f01602080910402602001604051908101604052809291908181526020018280546103ec90612b25565b80156104395780601f1061040e57610100808354040283529160200191610439565b820191906000526020600020905b81548152906001019060200180831161041c57829003601f168201915b5050505050815260200160058201805461045290612b25565b80601f016020809104026020016040519081016040528092919081815260200182805461047e90612b25565b80156104cb5780601f106104a0576101008083540402835291602001916104cb565b820191906000526020600020905b8154815290600101906020018083116104ae57829003601f168201915b50505050508152602001600682015481526020016007820180546104ee90612b25565b80601f016020809104026020016040519081016040528092919081815260200182805461051a90612b25565b80156105675780601f1061053c57610100808354040283529160200191610567565b820191906000526020600020905b81548152906001019060200180831161054a57829003601f168201915b5050505050815260200160088201805461058090612b25565b80601f01602080910402602001604051908101604052809291908181526020018280546105ac90612b25565b80156105f95780601f106105ce576101008083540402835291602001916105f9565b820191906000526020600020905b8154815290600101906020018083116105dc57829003601f168201915b505050505081526020016009820154815250509050919050565b6060600080600190505b60015481116106af57836040516020016106379190612b92565b604051602081830303815290604052805190602001206000808381526020019081526020016000206005016040516020016106729190612c41565b604051602081830303815290604052805190602001200361069c57818061069890612c87565b9250505b80806106a790612c87565b91505061061d565b5060008167ffffffffffffffff8111156106cc576106cb61245c565b5b60405190808252806020026020018201604052801561070557816020015b6106f26121c3565b8152602001906001900390816106ea5790505b509050600080600190505b6001548111610bfa578560405160200161072a9190612b92565b604051602081830303815290604052805190602001206000808381526020019081526020016000206005016040516020016107659190612c41565b6040516020818303038152906040528051906020012003610be75760008082815260200190815260200160002060405180610140016040529081600082015481526020016001820180546107b890612b25565b80601f01602080910402602001604051908101604052809291908181526020018280546107e490612b25565b80156108315780601f1061080657610100808354040283529160200191610831565b820191906000526020600020905b81548152906001019060200180831161081457829003601f168201915b5050505050815260200160028201805461084a90612b25565b80601f016020809104026020016040519081016040528092919081815260200182805461087690612b25565b80156108c35780601f10610898576101008083540402835291602001916108c3565b820191906000526020600020905b8154815290600101906020018083116108a657829003601f168201915b505050505081526020016003820180546108dc90612b25565b80601f016020809104026020016040519081016040528092919081815260200182805461090890612b25565b80156109555780601f1061092a57610100808354040283529160200191610955565b820191906000526020600020905b81548152906001019060200180831161093857829003601f168201915b5050505050815260200160048201805461096e90612b25565b80601f016020809104026020016040519081016040528092919081815260200182805461099a90612b25565b80156109e75780601f106109bc576101008083540402835291602001916109e7565b820191906000526020600020905b8154815290600101906020018083116109ca57829003601f168201915b50505050508152602001600582018054610a0090612b25565b80601f0160208091040260200160405190810160405280929190818152602001828054610a2c90612b25565b8015610a795780601f10610a4e57610100808354040283529160200191610a79565b820191906000526020600020905b815481529060010190602001808311610a5c57829003601f168201915b5050505050815260200160068201548152602001600782018054610a9c90612b25565b80601f0160208091040260200160405190810160405280929190818152602001828054610ac890612b25565b8015610b155780601f10610aea57610100808354040283529160200191610b15565b820191906000526020600020905b815481529060010190602001808311610af857829003601f168201915b50505050508152602001600882018054610b2e90612b25565b80601f0160208091040260200160405190810160405280929190818152602001828054610b5a90612b25565b8015610ba75780601f10610b7c57610100808354040283529160200191610ba7565b820191906000526020600020905b815481529060010190602001808311610b8a57829003601f168201915b50505050508152602001600982015481525050838381518110610bcd57610bcc612ccf565b5b60200260200101819052508180610be390612c87565b9250505b8080610bf290612c87565b915050610710565b50819350505050919050565b6000602052806000526040600020600091509050806000015490806001018054610c2f90612b25565b80601f0160208091040260200160405190810160405280929190818152602001828054610c5b90612b25565b8015610ca85780601f10610c7d57610100808354040283529160200191610ca8565b820191906000526020600020905b815481529060010190602001808311610c8b57829003601f168201915b505050505090806002018054610cbd90612b25565b80601f0160208091040260200160405190810160405280929190818152602001828054610ce990612b25565b8015610d365780601f10610d0b57610100808354040283529160200191610d36565b820191906000526020600020905b815481529060010190602001808311610d1957829003601f168201915b505050505090806003018054610d4b90612b25565b80601f0160208091040260200160405190810160405280929190818152602001828054610d7790612b25565b8015610dc45780601f10610d9957610100808354040283529160200191610dc4565b820191906000526020600020905b815481529060010190602001808311610da757829003601f168201915b505050505090806004018054610dd990612b25565b80601f0160208091040260200160405190810160405280929190818152602001828054610e0590612b25565b8015610e525780601f10610e2757610100808354040283529160200191610e52565b820191906000526020600020905b815481529060010190602001808311610e3557829003601f168201915b505050505090806005018054610e6790612b25565b80601f0160208091040260200160405190810160405280929190818152602001828054610e9390612b25565b8015610ee05780601f10610eb557610100808354040283529160200191610ee0565b820191906000526020600020905b815481529060010190602001808311610ec357829003601f168201915b505050505090806006015490806007018054610efb90612b25565b80601f0160208091040260200160405190810160405280929190818152602001828054610f2790612b25565b8015610f745780601f10610f4957610100808354040283529160200191610f74565b820191906000526020600020905b815481529060010190602001808311610f5757829003601f168201915b505050505090806008018054610f8990612b25565b80601f0160208091040260200160405190810160405280929190818152602001828054610fb590612b25565b80156110025780601f10610fd757610100808354040283529160200191611002565b820191906000526020600020905b815481529060010190602001808311610fe557829003601f168201915b505050505090806009015490508a565b6060600060015467ffffffffffffffff8111156110325761103161245c565b5b60405190808252806020026020018201604052801561106b57816020015b6110586121c3565b8152602001906001900390816110505790505b5090506000600190505b60015481116114f55760008082815260200190815260200160002060405180610140016040529081600082015481526020016001820180546110b690612b25565b80601f01602080910402602001604051908101604052809291908181526020018280546110e290612b25565b801561112f5780601f106111045761010080835404028352916020019161112f565b820191906000526020600020905b81548152906001019060200180831161111257829003601f168201915b5050505050815260200160028201805461114890612b25565b80601f016020809104026020016040519081016040528092919081815260200182805461117490612b25565b80156111c15780601f10611196576101008083540402835291602001916111c1565b820191906000526020600020905b8154815290600101906020018083116111a457829003601f168201915b505050505081526020016003820180546111da90612b25565b80601f016020809104026020016040519081016040528092919081815260200182805461120690612b25565b80156112535780601f1061122857610100808354040283529160200191611253565b820191906000526020600020905b81548152906001019060200180831161123657829003601f168201915b5050505050815260200160048201805461126c90612b25565b80601f016020809104026020016040519081016040528092919081815260200182805461129890612b25565b80156112e55780601f106112ba576101008083540402835291602001916112e5565b820191906000526020600020905b8154815290600101906020018083116112c857829003601f168201915b505050505081526020016005820180546112fe90612b25565b80601f016020809104026020016040519081016040528092919081815260200182805461132a90612b25565b80156113775780601f1061134c57610100808354040283529160200191611377565b820191906000526020600020905b81548152906001019060200180831161135a57829003601f168201915b505050505081526020016006820154815260200160078201805461139a90612b25565b80601f01602080910402602001604051908101604052809291908181526020018280546113c690612b25565b80156114135780601f106113e857610100808354040283529160200191611413565b820191906000526020600020905b8154815290600101906020018083116113f657829003601f168201915b5050505050815260200160088201805461142c90612b25565b80601f016020809104026020016040519081016040528092919081815260200182805461145890612b25565b80156114a55780601f1061147a576101008083540402835291602001916114a5565b820191906000526020600020905b81548152906001019060200180831161148857829003601f168201915b50505050508152602001600982015481525050826001836114c69190612cfe565b815181106114d7576114d6612ccf565b5b602002602001018190525080806114ed90612c87565b915050611075565b508091505090565b60015481565b6000806000858152602001908152602001600020604051806101400160405290816000820154815260200160018201805461153d90612b25565b80601f016020809104026020016040519081016040528092919081815260200182805461156990612b25565b80156115b65780601f1061158b576101008083540402835291602001916115b6565b820191906000526020600020905b81548152906001019060200180831161159957829003601f168201915b505050505081526020016002820180546115cf90612b25565b80601f01602080910402602001604051908101604052809291908181526020018280546115fb90612b25565b80156116485780601f1061161d57610100808354040283529160200191611648565b820191906000526020600020905b81548152906001019060200180831161162b57829003601f168201915b5050505050815260200160038201805461166190612b25565b80601f016020809104026020016040519081016040528092919081815260200182805461168d90612b25565b80156116da5780601f106116af576101008083540402835291602001916116da565b820191906000526020600020905b8154815290600101906020018083116116bd57829003601f168201915b505050505081526020016004820180546116f390612b25565b80601f016020809104026020016040519081016040528092919081815260200182805461171f90612b25565b801561176c5780601f106117415761010080835404028352916020019161176c565b820191906000526020600020905b81548152906001019060200180831161174f57829003601f168201915b5050505050815260200160058201805461178590612b25565b80601f01602080910402602001604051908101604052809291908181526020018280546117b190612b25565b80156117fe5780601f106117d3576101008083540402835291602001916117fe565b820191906000526020600020905b8154815290600101906020018083116117e157829003601f168201915b505050505081526020016006820154815260200160078201805461182190612b25565b80601f016020809104026020016040519081016040528092919081815260200182805461184d90612b25565b801561189a5780601f1061186f5761010080835404028352916020019161189a565b820191906000526020600020905b81548152906001019060200180831161187d57829003601f168201915b505050505081526020016008820180546118b390612b25565b80601f01602080910402602001604051908101604052809291908181526020018280546118df90612b25565b801561192c5780601f106119015761010080835404028352916020019161192c565b820191906000526020600020905b81548152906001019060200180831161190f57829003601f168201915b5050505050815260200160098201548152505090506001600081548092919061195490612c87565b91905055506040518061014001604052806001548152602001826020015181526020018260400151815260200182606001518152602001826080015181526020018260a0015181526020018260c0015181526020018260e0015181526020018481526020018381525060008060015481526020019081526020016000206000820151816000015560208201518160010190816119f09190612ec9565b506040820151816002019081611a069190612ec9565b506060820151816003019081611a1c9190612ec9565b506080820151816004019081611a329190612ec9565b5060a0820151816005019081611a489190612ec9565b5060c0820151816006015560e0820151816007019081611a689190612ec9565b50610100820151816008019081611a7f9190612ec9565b50610120820151816009015590505050505050565b6060600080600190505b6001548111611b305783604051602001611ab89190612b92565b60405160208183030381529060405280519060200120600080838152602001908152602001600020600301604051602001611af39190612c41565b6040516020818303038152906040528051906020012003611b1d578180611b1990612c87565b9250505b8080611b2890612c87565b915050611a9e565b5060008167ffffffffffffffff811115611b4d57611b4c61245c565b5b604051908082528060200260200182016040528015611b8657816020015b611b736121c3565b815260200190600190039081611b6b5790505b509050600080600190505b600154811161207b5785604051602001611bab9190612b92565b60405160208183030381529060405280519060200120600080838152602001908152602001600020600301604051602001611be69190612c41565b6040516020818303038152906040528051906020012003612068576000808281526020019081526020016000206040518061014001604052908160008201548152602001600182018054611c3990612b25565b80601f0160208091040260200160405190810160405280929190818152602001828054611c6590612b25565b8015611cb25780601f10611c8757610100808354040283529160200191611cb2565b820191906000526020600020905b815481529060010190602001808311611c9557829003601f168201915b50505050508152602001600282018054611ccb90612b25565b80601f0160208091040260200160405190810160405280929190818152602001828054611cf790612b25565b8015611d445780601f10611d1957610100808354040283529160200191611d44565b820191906000526020600020905b815481529060010190602001808311611d2757829003601f168201915b50505050508152602001600382018054611d5d90612b25565b80601f0160208091040260200160405190810160405280929190818152602001828054611d8990612b25565b8015611dd65780601f10611dab57610100808354040283529160200191611dd6565b820191906000526020600020905b815481529060010190602001808311611db957829003601f168201915b50505050508152602001600482018054611def90612b25565b80601f0160208091040260200160405190810160405280929190818152602001828054611e1b90612b25565b8015611e685780601f10611e3d57610100808354040283529160200191611e68565b820191906000526020600020905b815481529060010190602001808311611e4b57829003601f168201915b50505050508152602001600582018054611e8190612b25565b80601f0160208091040260200160405190810160405280929190818152602001828054611ead90612b25565b8015611efa5780601f10611ecf57610100808354040283529160200191611efa565b820191906000526020600020905b815481529060010190602001808311611edd57829003601f168201915b5050505050815260200160068201548152602001600782018054611f1d90612b25565b80601f0160208091040260200160405190810160405280929190818152602001828054611f4990612b25565b8015611f965780601f10611f6b57610100808354040283529160200191611f96565b820191906000526020600020905b815481529060010190602001808311611f7957829003601f168201915b50505050508152602001600882018054611faf90612b25565b80601f0160208091040260200160405190810160405280929190818152602001828054611fdb90612b25565b80156120285780601f10611ffd57610100808354040283529160200191612028565b820191906000526020600020905b81548152906001019060200180831161200b57829003601f168201915b5050505050815260200160098201548152505083838151811061204e5761204d612ccf565b5b6020026020010181905250818061206490612c87565b9250505b808061207390612c87565b915050611b91565b50819350505050919050565b6001600081548092919061209a90612c87565b919050555060405180610140016040528060015481526020018a815260200189815260200188815260200187815260200186815260200185815260200184815260200183815260200182815250600080600154815260200190815260200160002060008201518160000155602082015181600101908161211a9190612ec9565b5060408201518160020190816121309190612ec9565b5060608201518160030190816121469190612ec9565b50608082015181600401908161215c9190612ec9565b5060a08201518160050190816121729190612ec9565b5060c0820151816006015560e08201518160070190816121929190612ec9565b506101008201518160080190816121a99190612ec9565b506101208201518160090155905050505050505050505050565b604051806101400160405280600081526020016060815260200160608152602001606081526020016060815260200160608152602001600081526020016060815260200160608152602001600081525090565b6000604051905090565b600080fd5b600080fd5b6000819050919050565b61223d8161222a565b811461224857600080fd5b50565b60008135905061225a81612234565b92915050565b60006020828403121561227657612275612220565b5b60006122848482850161224b565b91505092915050565b6122968161222a565b82525050565b600081519050919050565b600082825260208201905092915050565b60005b838110156122d65780820151818401526020810190506122bb565b60008484015250505050565b6000601f19601f8301169050919050565b60006122fe8261229c565b61230881856122a7565b93506123188185602086016122b8565b612321816122e2565b840191505092915050565b600061014083016000830151612345600086018261228d565b506020830151848203602086015261235d82826122f3565b9150506040830151848203604086015261237782826122f3565b9150506060830151848203606086015261239182826122f3565b915050608083015184820360808601526123ab82826122f3565b91505060a083015184820360a08601526123c582826122f3565b91505060c08301516123da60c086018261228d565b5060e083015184820360e08601526123f282826122f3565b91505061010083015184820361010086015261240e82826122f3565b91505061012083015161242561012086018261228d565b508091505092915050565b6000602082019050818103600083015261244a818461232c565b905092915050565b600080fd5b600080fd5b7f4e487b7100000000000000000000000000000000000000000000000000000000600052604160045260246000fd5b612494826122e2565b810181811067ffffffffffffffff821117156124b3576124b261245c565b5b80604052505050565b60006124c6612216565b90506124d2828261248b565b919050565b600067ffffffffffffffff8211156124f2576124f161245c565b5b6124fb826122e2565b9050602081019050919050565b82818337600083830152505050565b600061252a612525846124d7565b6124bc565b90508281526020810184848401111561254657612545612457565b5b612551848285612508565b509392505050565b600082601f83011261256e5761256d612452565b5b813561257e848260208601612517565b91505092915050565b60006020828403121561259d5761259c612220565b5b600082013567ffffffffffffffff8111156125bb576125ba612225565b5b6125c784828501612559565b91505092915050565b600081519050919050565b600082825260208201905092915050565b6000819050602082019050919050565b600061014083016000830151612615600086018261228d565b506020830151848203602086015261262d82826122f3565b9150506040830151848203604086015261264782826122f3565b9150506060830151848203606086015261266182826122f3565b9150506080830151848203608086015261267b82826122f3565b91505060a083015184820360a086015261269582826122f3565b91505060c08301516126aa60c086018261228d565b5060e083015184820360e08601526126c282826122f3565b9150506101008301518482036101008601526126de82826122f3565b9150506101208301516126f561012086018261228d565b508091505092915050565b600061270c83836125fc565b905092915050565b6000602082019050919050565b600061272c826125d0565b61273681856125db565b935083602082028501612748856125ec565b8060005b8581101561278457848403895281516127658582612700565b945061277083612714565b925060208a0199505060018101905061274c565b50829750879550505050505092915050565b600060208201905081810360008301526127b08184612721565b905092915050565b6127c18161222a565b82525050565b600082825260208201905092915050565b60006127e38261229c565b6127ed81856127c7565b93506127fd8185602086016122b8565b612806816122e2565b840191505092915050565b600061014082019050612827600083018d6127b8565b8181036020830152612839818c6127d8565b9050818103604083015261284d818b6127d8565b90508181036060830152612861818a6127d8565b9050818103608083015261287581896127d8565b905081810360a083015261288981886127d8565b905061289860c08301876127b8565b81810360e08301526128aa81866127d8565b90508181036101008301526128bf81856127d8565b90506128cf6101208301846127b8565b9b9a5050505050505050505050565b60006020820190506128f360008301846127b8565b92915050565b60008060006060848603121561291257612911612220565b5b60006129208682870161224b565b935050602084013567ffffffffffffffff81111561294157612940612225565b5b61294d86828701612559565b925050604061295e8682870161224b565b9150509250925092565b60008060008060008060008060006101208a8c03121561298b5761298a612220565b5b60008a013567ffffffffffffffff8111156129a9576129a8612225565b5b6129b58c828d01612559565b99505060208a013567ffffffffffffffff8111156129d6576129d5612225565b5b6129e28c828d01612559565b98505060408a013567ffffffffffffffff811115612a0357612a02612225565b5b612a0f8c828d01612559565b97505060608a013567ffffffffffffffff811115612a3057612a2f612225565b5b612a3c8c828d01612559565b96505060808a013567ffffffffffffffff811115612a5d57612a5c612225565b5b612a698c828d01612559565b95505060a0612a7a8c828d0161224b565b94505060c08a013567ffffffffffffffff811115612a9b57612a9a612225565b5b612aa78c828d01612559565b93505060e08a013567ffffffffffffffff811115612ac857612ac7612225565b5b612ad48c828d01612559565b925050610100612ae68c828d0161224b565b9150509295985092959850929598565b7f4e487b7100000000000000000000000000000000000000000000000000000000600052602260045260246000fd5b60006002820490506001821680612b3d57607f821691505b602082108103612b5057612b4f612af6565b5b50919050565b600081905092915050565b6000612b6c8261229c565b612b768185612b56565b9350612b868185602086016122b8565b80840191505092915050565b6000612b9e8284612b61565b915081905092915050565b60008190508160005260206000209050919050565b60008154612bcb81612b25565b612bd58186612b56565b94506001821660008114612bf05760018114612c0557612c38565b60ff1983168652811515820286019350612c38565b612c0e85612ba9565b60005b83811015612c3057815481890152600182019150602081019050612c11565b838801955050505b50505092915050565b6000612c4d8284612bbe565b915081905092915050565b7f4e487b7100000000000000000000000000000000000000000000000000000000600052601160045260246000fd5b6000612c928261222a565b91507fffffffffffffffffffffffffffffffffffffffffffffffffffffffffffffffff8203612cc457612cc3612c58565b5b600182019050919050565b7f4e487b7100000000000000000000000000000000000000000000000000000000600052603260045260246000fd5b6000612d098261222a565b9150612d148361222a565b9250828203905081811115612d2c57612d2b612c58565b5b92915050565b60006020601f8301049050919050565b600082821b905092915050565b600060088302612d7f7fffffffffffffffffffffffffffffffffffffffffffffffffffffffffffffffff82612d42565b612d898683612d42565b95508019841693508086168417925050509392505050565b6000819050919050565b6000612dc6612dc1612dbc8461222a565b612da1565b61222a565b9050919050565b6000819050919050565b612de083612dab565b612df4612dec82612dcd565b848454612d4f565b825550505050565b600090565b612e09612dfc565b612e14818484612dd7565b505050565b5b81811015612e3857612e2d600082612e01565b600181019050612e1a565b5050565b601f821115612e7d57612e4e81612ba9565b612e5784612d32565b81016020851015612e66578190505b612e7a612e7285612d32565b830182612e19565b50505b505050565b600082821c905092915050565b6000612ea060001984600802612e82565b1980831691505092915050565b6000612eb98383612e8f565b9150826002028217905092915050565b612ed28261229c565b67ffffffffffffffff811115612eeb57612eea61245c565b5b612ef58254612b25565b612f00828285612e3c565b600060209050601f831160018114612f335760008415612f21578287015190505b612f2b8582612ead565b865550612f93565b601f198416612f4186612ba9565b60005b82811015612f6957848901518255600182019150602085019450602081019050612f44565b86831015612f865784890151612f82601f891682612e8f565b8355505b6001600288020188555050505b50505050505056fea2646970667358221220e1f34d874b1154a31984973a66ffa506a5b9d4d794188fc0a7e2cb4ac7e5461664736f6c63430008100033",
					"opcodes": "PUSH1 0x80 PUSH1 0x40 MSTORE CALLVALUE DUP1 ISZERO PUSH2 0x10 JUMPI PUSH1 0x0 DUP1 REVERT JUMPDEST POP PUSH2 0x2FD1 DUP1 PUSH2 0x20 PUSH1 0x0 CODECOPY PUSH1 0x0 RETURN INVALID PUSH1 0x80 PUSH1 0x40 MSTORE CALLVALUE DUP1 ISZERO PUSH2 0x10 JUMPI PUSH1 0x0 DUP1 REVERT JUMPDEST POP PUSH1 0x4 CALLDATASIZE LT PUSH2 0x88 JUMPI PUSH1 0x0 CALLDATALOAD PUSH1 0xE0 SHR DUP1 PUSH4 0xB77BF600 GT PUSH2 0x5B JUMPI DUP1 PUSH4 0xB77BF600 EQ PUSH2 0x144 JUMPI DUP1 PUSH4 0xCE8481FD EQ PUSH2 0x162 JUMPI DUP1 PUSH4 0xE55D57DF EQ PUSH2 0x17E JUMPI DUP1 PUSH4 0xEB559A1E EQ PUSH2 0x1AE JUMPI PUSH2 0x88 JUMP JUMPDEST DUP1 PUSH4 0x33EA3DC8 EQ PUSH2 0x8D JUMPI DUP1 PUSH4 0x9311F732 EQ PUSH2 0xBD JUMPI DUP1 PUSH4 0x9ACE38C2 EQ PUSH2 0xED JUMPI DUP1 PUSH4 0xADD6415D EQ PUSH2 0x126 JUMPI JUMPDEST PUSH1 0x0 DUP1 REVERT JUMPDEST PUSH2 0xA7 PUSH1 0x4 DUP1 CALLDATASIZE SUB DUP2 ADD SWAP1 PUSH2 0xA2 SWAP2 SWAP1 PUSH2 0x2260 JUMP JUMPDEST PUSH2 0x1CA JUMP JUMPDEST PUSH1 0x40 MLOAD PUSH2 0xB4 SWAP2 SWAP1 PUSH2 0x2430 JUMP JUMPDEST PUSH1 0x40 MLOAD DUP1 SWAP2 SUB SWAP1 RETURN JUMPDEST PUSH2 0xD7 PUSH1 0x4 DUP1 CALLDATASIZE SUB DUP2 ADD SWAP1 PUSH2 0xD2 SWAP2 SWAP1 PUSH2 0x2587 JUMP JUMPDEST PUSH2 0x613 JUMP JUMPDEST PUSH1 0x40 MLOAD PUSH2 0xE4 SWAP2 SWAP1 PUSH2 0x2796 JUMP JUMPDEST PUSH1 0x40 MLOAD DUP1 SWAP2 SUB SWAP1 RETURN JUMPDEST PUSH2 0x107 PUSH1 0x4 DUP1 CALLDATASIZE SUB DUP2 ADD SWAP1 PUSH2 0x102 SWAP2 SWAP1 PUSH2 0x2260 JUMP JUMPDEST PUSH2 0xC06 JUMP JUMPDEST PUSH1 0x40 MLOAD PUSH2 0x11D SWAP11 SWAP10 SWAP9 SWAP8 SWAP7 SWAP6 SWAP5 SWAP4 SWAP3 SWAP2 SWAP1 PUSH2 0x2811 JUMP JUMPDEST PUSH1 0x40 MLOAD DUP1 SWAP2 SUB SWAP1 RETURN JUMPDEST PUSH2 0x12E PUSH2 0x1012 JUMP JUMPDEST PUSH1 0x40 MLOAD PUSH2 0x13B SWAP2 SWAP1 PUSH2 0x2796 JUMP JUMPDEST PUSH1 0x40 MLOAD DUP1 SWAP2 SUB SWAP1 RETURN JUMPDEST PUSH2 0x14C PUSH2 0x14FD JUMP JUMPDEST PUSH1 0x40 MLOAD PUSH2 0x159 SWAP2 SWAP1 PUSH2 0x28DE JUMP JUMPDEST PUSH1 0x40 MLOAD DUP1 SWAP2 SUB SWAP1 RETURN JUMPDEST PUSH2 0x17C PUSH1 0x4 DUP1 CALLDATASIZE SUB DUP2 ADD SWAP1 PUSH2 0x177 SWAP2 SWAP1 PUSH2 0x28F9 JUMP JUMPDEST PUSH2 0x1503 JUMP JUMPDEST STOP JUMPDEST PUSH2 0x198 PUSH1 0x4 DUP1 CALLDATASIZE SUB DUP2 ADD SWAP1 PUSH2 0x193 SWAP2 SWAP1 PUSH2 0x2587 JUMP JUMPDEST PUSH2 0x1A94 JUMP JUMPDEST PUSH1 0x40 MLOAD PUSH2 0x1A5 SWAP2 SWAP1 PUSH2 0x2796 JUMP JUMPDEST PUSH1 0x40 MLOAD DUP1 SWAP2 SUB SWAP1 RETURN JUMPDEST PUSH2 0x1C8 PUSH1 0x4 DUP1 CALLDATASIZE SUB DUP2 ADD SWAP1 PUSH2 0x1C3 SWAP2 SWAP1 PUSH2 0x2968 JUMP JUMPDEST PUSH2 0x2087 JUMP JUMPDEST STOP JUMPDEST PUSH2 0x1D2 PUSH2 0x21C3 JUMP JUMPDEST PUSH1 0x0 DUP1 DUP4 DUP2 MSTORE PUSH1 0x20 ADD SWAP1 DUP2 MSTORE PUSH1 0x20 ADD PUSH1 0x0 KECCAK256 PUSH1 0x40 MLOAD DUP1 PUSH2 0x140 ADD PUSH1 0x40 MSTORE SWAP1 DUP2 PUSH1 0x0 DUP3 ADD SLOAD DUP2 MSTORE PUSH1 0x20 ADD PUSH1 0x1 DUP3 ADD DUP1 SLOAD PUSH2 0x20A SWAP1 PUSH2 0x2B25 JUMP JUMPDEST DUP1 PUSH1 0x1F ADD PUSH1 0x20 DUP1 SWAP2 DIV MUL PUSH1 0x20 ADD PUSH1 0x40 MLOAD SWAP1 DUP2 ADD PUSH1 0x40 MSTORE DUP1 SWAP3 SWAP2 SWAP1 DUP2 DUP2 MSTORE PUSH1 0x20 ADD DUP3 DUP1 SLOAD PUSH2 0x236 SWAP1 PUSH2 0x2B25 JUMP JUMPDEST DUP1 ISZERO PUSH2 0x283 JUMPI DUP1 PUSH1 0x1F LT PUSH2 0x258 JUMPI PUSH2 0x100 DUP1 DUP4 SLOAD DIV MUL DUP4 MSTORE SWAP2 PUSH1 0x20 ADD SWAP2 PUSH2 0x283 JUMP JUMPDEST DUP3 ADD SWAP2 SWAP1 PUSH1 0x0 MSTORE PUSH1 0x20 PUSH1 0x0 KECCAK256 SWAP1 JUMPDEST DUP2 SLOAD DUP2 MSTORE SWAP1 PUSH1 0x1 ADD SWAP1 PUSH1 0x20 ADD DUP1 DUP4 GT PUSH2 0x266 JUMPI DUP3 SWAP1 SUB PUSH1 0x1F AND DUP3 ADD SWAP2 JUMPDEST POP POP POP POP POP DUP2 MSTORE PUSH1 0x20 ADD PUSH1 0x2 DUP3 ADD DUP1 SLOAD PUSH2 0x29C SWAP1 PUSH2 0x2B25 JUMP JUMPDEST DUP1 PUSH1 0x1F ADD PUSH1 0x20 DUP1 SWAP2 DIV MUL PUSH1 0x20 ADD PUSH1 0x40 MLOAD SWAP1 DUP2 ADD PUSH1 0x40 MSTORE DUP1 SWAP3 SWAP2 SWAP1 DUP2 DUP2 MSTORE PUSH1 0x20 ADD DUP3 DUP1 SLOAD PUSH2 0x2C8 SWAP1 PUSH2 0x2B25 JUMP JUMPDEST DUP1 ISZERO PUSH2 0x315 JUMPI DUP1 PUSH1 0x1F LT PUSH2 0x2EA JUMPI PUSH2 0x100 DUP1 DUP4 SLOAD DIV MUL DUP4 MSTORE SWAP2 PUSH1 0x20 ADD SWAP2 PUSH2 0x315 JUMP JUMPDEST DUP3 ADD SWAP2 SWAP1 PUSH1 0x0 MSTORE PUSH1 0x20 PUSH1 0x0 KECCAK256 SWAP1 JUMPDEST DUP2 SLOAD DUP2 MSTORE SWAP1 PUSH1 0x1 ADD SWAP1 PUSH1 0x20 ADD DUP1 DUP4 GT PUSH2 0x2F8 JUMPI DUP3 SWAP1 SUB PUSH1 0x1F AND DUP3 ADD SWAP2 JUMPDEST POP POP POP POP POP DUP2 MSTORE PUSH1 0x20 ADD PUSH1 0x3 DUP3 ADD DUP1 SLOAD PUSH2 0x32E SWAP1 PUSH2 0x2B25 JUMP JUMPDEST DUP1 PUSH1 0x1F ADD PUSH1 0x20 DUP1 SWAP2 DIV MUL PUSH1 0x20 ADD PUSH1 0x40 MLOAD SWAP1 DUP2 ADD PUSH1 0x40 MSTORE DUP1 SWAP3 SWAP2 SWAP1 DUP2 DUP2 MSTORE PUSH1 0x20 ADD DUP3 DUP1 SLOAD PUSH2 0x35A SWAP1 PUSH2 0x2B25 JUMP JUMPDEST DUP1 ISZERO PUSH2 0x3A7 JUMPI DUP1 PUSH1 0x1F LT PUSH2 0x37C JUMPI PUSH2 0x100 DUP1 DUP4 SLOAD DIV MUL DUP4 MSTORE SWAP2 PUSH1 0x20 ADD SWAP2 PUSH2 0x3A7 JUMP JUMPDEST DUP3 ADD SWAP2 SWAP1 PUSH1 0x0 MSTORE PUSH1 0x20 PUSH1 0x0 KECCAK256 SWAP1 JUMPDEST DUP2 SLOAD DUP2 MSTORE SWAP1 PUSH1 0x1 ADD SWAP1 PUSH1 0x20 ADD DUP1 DUP4 GT PUSH2 0x38A JUMPI DUP3 SWAP1 SUB PUSH1 0x1F AND DUP3 ADD SWAP2 JUMPDEST POP POP POP POP POP DUP2 MSTORE PUSH1 0x20 ADD PUSH1 0x4 DUP3 ADD DUP1 SLOAD PUSH2 0x3C0 SWAP1 PUSH2 0x2B25 JUMP JUMPDEST DUP1 PUSH1 0x1F ADD PUSH1 0x20 DUP1 SWAP2 DIV MUL PUSH1 0x20 ADD PUSH1 0x40 MLOAD SWAP1 DUP2 ADD PUSH1 0x40 MSTORE DUP1 SWAP3 SWAP2 SWAP1 DUP2 DUP2 MSTORE PUSH1 0x20 ADD DUP3 DUP1 SLOAD PUSH2 0x3EC SWAP1 PUSH2 0x2B25 JUMP JUMPDEST DUP1 ISZERO PUSH2 0x439 JUMPI DUP1 PUSH1 0x1F LT PUSH2 0x40E JUMPI PUSH2 0x100 DUP1 DUP4 SLOAD DIV MUL DUP4 MSTORE SWAP2 PUSH1 0x20 ADD SWAP2 PUSH2 0x439 JUMP JUMPDEST DUP3 ADD SWAP2 SWAP1 PUSH1 0x0 MSTORE PUSH1 0x20 PUSH1 0x0 KECCAK256 SWAP1 JUMPDEST DUP2 SLOAD DUP2 MSTORE SWAP1 PUSH1 0x1 ADD SWAP1 PUSH1 0x20 ADD DUP1 DUP4 GT PUSH2 0x41C JUMPI DUP3 SWAP1 SUB PUSH1 0x1F AND DUP3 ADD SWAP2 JUMPDEST POP POP POP POP POP DUP2 MSTORE PUSH1 0x20 ADD PUSH1 0x5 DUP3 ADD DUP1 SLOAD PUSH2 0x452 SWAP1 PUSH2 0x2B25 JUMP JUMPDEST DUP1 PUSH1 0x1F ADD PUSH1 0x20 DUP1 SWAP2 DIV MUL PUSH1 0x20 ADD PUSH1 0x40 MLOAD SWAP1 DUP2 ADD PUSH1 0x40 MSTORE DUP1 SWAP3 SWAP2 SWAP1 DUP2 DUP2 MSTORE PUSH1 0x20 ADD DUP3 DUP1 SLOAD PUSH2 0x47E SWAP1 PUSH2 0x2B25 JUMP JUMPDEST DUP1 ISZERO PUSH2 0x4CB JUMPI DUP1 PUSH1 0x1F LT PUSH2 0x4A0 JUMPI PUSH2 0x100 DUP1 DUP4 SLOAD DIV MUL DUP4 MSTORE SWAP2 PUSH1 0x20 ADD SWAP2 PUSH2 0x4CB JUMP JUMPDEST DUP3 ADD SWAP2 SWAP1 PUSH1 0x0 MSTORE PUSH1 0x20 PUSH1 0x0 KECCAK256 SWAP1 JUMPDEST DUP2 SLOAD DUP2 MSTORE SWAP1 PUSH1 0x1 ADD SWAP1 PUSH1 0x20 ADD DUP1 DUP4 GT PUSH2 0x4AE JUMPI DUP3 SWAP1 SUB PUSH1 0x1F AND DUP3 ADD SWAP2 JUMPDEST POP POP POP POP POP DUP2 MSTORE PUSH1 0x20 ADD PUSH1 0x6 DUP3 ADD SLOAD DUP2 MSTORE PUSH1 0x20 ADD PUSH1 0x7 DUP3 ADD DUP1 SLOAD PUSH2 0x4EE SWAP1 PUSH2 0x2B25 JUMP JUMPDEST DUP1 PUSH1 0x1F ADD PUSH1 0x20 DUP1 SWAP2 DIV MUL PUSH1 0x20 ADD PUSH1 0x40 MLOAD SWAP1 DUP2 ADD PUSH1 0x40 MSTORE DUP1 SWAP3 SWAP2 SWAP1 DUP2 DUP2 MSTORE PUSH1 0x20 ADD DUP3 DUP1 SLOAD PUSH2 0x51A SWAP1 PUSH2 0x2B25 JUMP JUMPDEST DUP1 ISZERO PUSH2 0x567 JUMPI DUP1 PUSH1 0x1F LT PUSH2 0x53C JUMPI PUSH2 0x100 DUP1 DUP4 SLOAD DIV MUL DUP4 MSTORE SWAP2 PUSH1 0x20 ADD SWAP2 PUSH2 0x567 JUMP JUMPDEST DUP3 ADD SWAP2 SWAP1 PUSH1 0x0 MSTORE PUSH1 0x20 PUSH1 0x0 KECCAK256 SWAP1 JUMPDEST DUP2 SLOAD DUP2 MSTORE SWAP1 PUSH1 0x1 ADD SWAP1 PUSH1 0x20 ADD DUP1 DUP4 GT PUSH2 0x54A JUMPI DUP3 SWAP1 SUB PUSH1 0x1F AND DUP3 ADD SWAP2 JUMPDEST POP POP POP POP POP DUP2 MSTORE PUSH1 0x20 ADD PUSH1 0x8 DUP3 ADD DUP1 SLOAD PUSH2 0x580 SWAP1 PUSH2 0x2B25 JUMP JUMPDEST DUP1 PUSH1 0x1F ADD PUSH1 0x20 DUP1 SWAP2 DIV MUL PUSH1 0x20 ADD PUSH1 0x40 MLOAD SWAP1 DUP2 ADD PUSH1 0x40 MSTORE DUP1 SWAP3 SWAP2 SWAP1 DUP2 DUP2 MSTORE PUSH1 0x20 ADD DUP3 DUP1 SLOAD PUSH2 0x5AC SWAP1 PUSH2 0x2B25 JUMP JUMPDEST DUP1 ISZERO PUSH2 0x5F9 JUMPI DUP1 PUSH1 0x1F LT PUSH2 0x5CE JUMPI PUSH2 0x100 DUP1 DUP4 SLOAD DIV MUL DUP4 MSTORE SWAP2 PUSH1 0x20 ADD SWAP2 PUSH2 0x5F9 JUMP JUMPDEST DUP3 ADD SWAP2 SWAP1 PUSH1 0x0 MSTORE PUSH1 0x20 PUSH1 0x0 KECCAK256 SWAP1 JUMPDEST DUP2 SLOAD DUP2 MSTORE SWAP1 PUSH1 0x1 ADD SWAP1 PUSH1 0x20 ADD DUP1 DUP4 GT PUSH2 0x5DC JUMPI DUP3 SWAP1 SUB PUSH1 0x1F AND DUP3 ADD SWAP2 JUMPDEST POP POP POP POP POP DUP2 MSTORE PUSH1 0x20 ADD PUSH1 0x9 DUP3 ADD SLOAD DUP2 MSTORE POP POP SWAP1 POP SWAP2 SWAP1 POP JUMP JUMPDEST PUSH1 0x60 PUSH1 0x0 DUP1 PUSH1 0x1 SWAP1 POP JUMPDEST PUSH1 0x1 SLOAD DUP2 GT PUSH2 0x6AF JUMPI DUP4 PUSH1 0x40 MLOAD PUSH1 0x20 ADD PUSH2 0x637 SWAP2 SWAP1 PUSH2 0x2B92 JUMP JUMPDEST PUSH1 0x40 MLOAD PUSH1 0x20 DUP2 DUP4 SUB SUB DUP2 MSTORE SWAP1 PUSH1 0x40 MSTORE DUP1 MLOAD SWAP1 PUSH1 0x20 ADD KECCAK256 PUSH1 0x0 DUP1 DUP4 DUP2 MSTORE PUSH1 0x20 ADD SWAP1 DUP2 MSTORE PUSH1 0x20 ADD PUSH1 0x0 KECCAK256 PUSH1 0x5 ADD PUSH1 0x40 MLOAD PUSH1 0x20 ADD PUSH2 0x672 SWAP2 SWAP1 PUSH2 0x2C41 JUMP JUMPDEST PUSH1 0x40 MLOAD PUSH1 0x20 DUP2 DUP4 SUB SUB DUP2 MSTORE SWAP1 PUSH1 0x40 MSTORE DUP1 MLOAD SWAP1 PUSH1 0x20 ADD KECCAK256 SUB PUSH2 0x69C JUMPI DUP2 DUP1 PUSH2 0x698 SWAP1 PUSH2 0x2C87 JUMP JUMPDEST SWAP3 POP POP JUMPDEST DUP1 DUP1 PUSH2 0x6A7 SWAP1 PUSH2 0x2C87 JUMP JUMPDEST SWAP2 POP POP PUSH2 0x61D JUMP JUMPDEST POP PUSH1 0x0 DUP2 PUSH8 0xFFFFFFFFFFFFFFFF DUP2 GT ISZERO PUSH2 0x6CC JUMPI PUSH2 0x6CB PUSH2 0x245C JUMP JUMPDEST JUMPDEST PUSH1 0x40 MLOAD SWAP1 DUP1 DUP3 MSTORE DUP1 PUSH1 0x20 MUL PUSH1 0x20 ADD DUP3 ADD PUSH1 0x40 MSTORE DUP1 ISZERO PUSH2 0x705 JUMPI DUP2 PUSH1 0x20 ADD JUMPDEST PUSH2 0x6F2 PUSH2 0x21C3 JUMP JUMPDEST DUP2 MSTORE PUSH1 0x20 ADD SWAP1 PUSH1 0x1 SWAP1 SUB SWAP1 DUP2 PUSH2 0x6EA JUMPI SWAP1 POP JUMPDEST POP SWAP1 POP PUSH1 0x0 DUP1 PUSH1 0x1 SWAP1 POP JUMPDEST PUSH1 0x1 SLOAD DUP2 GT PUSH2 0xBFA JUMPI DUP6 PUSH1 0x40 MLOAD PUSH1 0x20 ADD PUSH2 0x72A SWAP2 SWAP1 PUSH2 0x2B92 JUMP JUMPDEST PUSH1 0x40 MLOAD PUSH1 0x20 DUP2 DUP4 SUB SUB DUP2 MSTORE SWAP1 PUSH1 0x40 MSTORE DUP1 MLOAD SWAP1 PUSH1 0x20 ADD KECCAK256 PUSH1 0x0 DUP1 DUP4 DUP2 MSTORE PUSH1 0x20 ADD SWAP1 DUP2 MSTORE PUSH1 0x20 ADD PUSH1 0x0 KECCAK256 PUSH1 0x5 ADD PUSH1 0x40 MLOAD PUSH1 0x20 ADD PUSH2 0x765 SWAP2 SWAP1 PUSH2 0x2C41 JUMP JUMPDEST PUSH1 0x40 MLOAD PUSH1 0x20 DUP2 DUP4 SUB SUB DUP2 MSTORE SWAP1 PUSH1 0x40 MSTORE DUP1 MLOAD SWAP1 PUSH1 0x20 ADD KECCAK256 SUB PUSH2 0xBE7 JUMPI PUSH1 0x0 DUP1 DUP3 DUP2 MSTORE PUSH1 0x20 ADD SWAP1 DUP2 MSTORE PUSH1 0x20 ADD PUSH1 0x0 KECCAK256 PUSH1 0x40 MLOAD DUP1 PUSH2 0x140 ADD PUSH1 0x40 MSTORE SWAP1 DUP2 PUSH1 0x0 DUP3 ADD SLOAD DUP2 MSTORE PUSH1 0x20 ADD PUSH1 0x1 DUP3 ADD DUP1 SLOAD PUSH2 0x7B8 SWAP1 PUSH2 0x2B25 JUMP JUMPDEST DUP1 PUSH1 0x1F ADD PUSH1 0x20 DUP1 SWAP2 DIV MUL PUSH1 0x20 ADD PUSH1 0x40 MLOAD SWAP1 DUP2 ADD PUSH1 0x40 MSTORE DUP1 SWAP3 SWAP2 SWAP1 DUP2 DUP2 MSTORE PUSH1 0x20 ADD DUP3 DUP1 SLOAD PUSH2 0x7E4 SWAP1 PUSH2 0x2B25 JUMP JUMPDEST DUP1 ISZERO PUSH2 0x831 JUMPI DUP1 PUSH1 0x1F LT PUSH2 0x806 JUMPI PUSH2 0x100 DUP1 DUP4 SLOAD DIV MUL DUP4 MSTORE SWAP2 PUSH1 0x20 ADD SWAP2 PUSH2 0x831 JUMP JUMPDEST DUP3 ADD SWAP2 SWAP1 PUSH1 0x0 MSTORE PUSH1 0x20 PUSH1 0x0 KECCAK256 SWAP1 JUMPDEST DUP2 SLOAD DUP2 MSTORE SWAP1 PUSH1 0x1 ADD SWAP1 PUSH1 0x20 ADD DUP1 DUP4 GT PUSH2 0x814 JUMPI DUP3 SWAP1 SUB PUSH1 0x1F AND DUP3 ADD SWAP2 JUMPDEST POP POP POP POP POP DUP2 MSTORE PUSH1 0x20 ADD PUSH1 0x2 DUP3 ADD DUP1 SLOAD PUSH2 0x84A SWAP1 PUSH2 0x2B25 JUMP JUMPDEST DUP1 PUSH1 0x1F ADD PUSH1 0x20 DUP1 SWAP2 DIV MUL PUSH1 0x20 ADD PUSH1 0x40 MLOAD SWAP1 DUP2 ADD PUSH1 0x40 MSTORE DUP1 SWAP3 SWAP2 SWAP1 DUP2 DUP2 MSTORE PUSH1 0x20 ADD DUP3 DUP1 SLOAD PUSH2 0x876 SWAP1 PUSH2 0x2B25 JUMP JUMPDEST DUP1 ISZERO PUSH2 0x8C3 JUMPI DUP1 PUSH1 0x1F LT PUSH2 0x898 JUMPI PUSH2 0x100 DUP1 DUP4 SLOAD DIV MUL DUP4 MSTORE SWAP2 PUSH1 0x20 ADD SWAP2 PUSH2 0x8C3 JUMP JUMPDEST DUP3 ADD SWAP2 SWAP1 PUSH1 0x0 MSTORE PUSH1 0x20 PUSH1 0x0 KECCAK256 SWAP1 JUMPDEST DUP2 SLOAD DUP2 MSTORE SWAP1 PUSH1 0x1 ADD SWAP1 PUSH1 0x20 ADD DUP1 DUP4 GT PUSH2 0x8A6 JUMPI DUP3 SWAP1 SUB PUSH1 0x1F AND DUP3 ADD SWAP2 JUMPDEST POP POP POP POP POP DUP2 MSTORE PUSH1 0x20 ADD PUSH1 0x3 DUP3 ADD DUP1 SLOAD PUSH2 0x8DC SWAP1 PUSH2 0x2B25 JUMP JUMPDEST DUP1 PUSH1 0x1F ADD PUSH1 0x20 DUP1 SWAP2 DIV MUL PUSH1 0x20 ADD PUSH1 0x40 MLOAD SWAP1 DUP2 ADD PUSH1 0x40 MSTORE DUP1 SWAP3 SWAP2 SWAP1 DUP2 DUP2 MSTORE PUSH1 0x20 ADD DUP3 DUP1 SLOAD PUSH2 0x908 SWAP1 PUSH2 0x2B25 JUMP JUMPDEST DUP1 ISZERO PUSH2 0x955 JUMPI DUP1 PUSH1 0x1F LT PUSH2 0x92A JUMPI PUSH2 0x100 DUP1 DUP4 SLOAD DIV MUL DUP4 MSTORE SWAP2 PUSH1 0x20 ADD SWAP2 PUSH2 0x955 JUMP JUMPDEST DUP3 ADD SWAP2 SWAP1 PUSH1 0x0 MSTORE PUSH1 0x20 PUSH1 0x0 KECCAK256 SWAP1 JUMPDEST DUP2 SLOAD DUP2 MSTORE SWAP1 PUSH1 0x1 ADD SWAP1 PUSH1 0x20 ADD DUP1 DUP4 GT PUSH2 0x938 JUMPI DUP3 SWAP1 SUB PUSH1 0x1F AND DUP3 ADD SWAP2 JUMPDEST POP POP POP POP POP DUP2 MSTORE PUSH1 0x20 ADD PUSH1 0x4 DUP3 ADD DUP1 SLOAD PUSH2 0x96E SWAP1 PUSH2 0x2B25 JUMP JUMPDEST DUP1 PUSH1 0x1F ADD PUSH1 0x20 DUP1 SWAP2 DIV MUL PUSH1 0x20 ADD PUSH1 0x40 MLOAD SWAP1 DUP2 ADD PUSH1 0x40 MSTORE DUP1 SWAP3 SWAP2 SWAP1 DUP2 DUP2 MSTORE PUSH1 0x20 ADD DUP3 DUP1 SLOAD PUSH2 0x99A SWAP1 PUSH2 0x2B25 JUMP JUMPDEST DUP1 ISZERO PUSH2 0x9E7 JUMPI DUP1 PUSH1 0x1F LT PUSH2 0x9BC JUMPI PUSH2 0x100 DUP1 DUP4 SLOAD DIV MUL DUP4 MSTORE SWAP2 PUSH1 0x20 ADD SWAP2 PUSH2 0x9E7 JUMP JUMPDEST DUP3 ADD SWAP2 SWAP1 PUSH1 0x0 MSTORE PUSH1 0x20 PUSH1 0x0 KECCAK256 SWAP1 JUMPDEST DUP2 SLOAD DUP2 MSTORE SWAP1 PUSH1 0x1 ADD SWAP1 PUSH1 0x20 ADD DUP1 DUP4 GT PUSH2 0x9CA JUMPI DUP3 SWAP1 SUB PUSH1 0x1F AND DUP3 ADD SWAP2 JUMPDEST POP POP POP POP POP DUP2 MSTORE PUSH1 0x20 ADD PUSH1 0x5 DUP3 ADD DUP1 SLOAD PUSH2 0xA00 SWAP1 PUSH2 0x2B25 JUMP JUMPDEST DUP1 PUSH1 0x1F ADD PUSH1 0x20 DUP1 SWAP2 DIV MUL PUSH1 0x20 ADD PUSH1 0x40 MLOAD SWAP1 DUP2 ADD PUSH1 0x40 MSTORE DUP1 SWAP3 SWAP2 SWAP1 DUP2 DUP2 MSTORE PUSH1 0x20 ADD DUP3 DUP1 SLOAD PUSH2 0xA2C SWAP1 PUSH2 0x2B25 JUMP JUMPDEST DUP1 ISZERO PUSH2 0xA79 JUMPI DUP1 PUSH1 0x1F LT PUSH2 0xA4E JUMPI PUSH2 0x100 DUP1 DUP4 SLOAD DIV MUL DUP4 MSTORE SWAP2 PUSH1 0x20 ADD SWAP2 PUSH2 0xA79 JUMP JUMPDEST DUP3 ADD SWAP2 SWAP1 PUSH1 0x0 MSTORE PUSH1 0x20 PUSH1 0x0 KECCAK256 SWAP1 JUMPDEST DUP2 SLOAD DUP2 MSTORE SWAP1 PUSH1 0x1 ADD SWAP1 PUSH1 0x20 ADD DUP1 DUP4 GT PUSH2 0xA5C JUMPI DUP3 SWAP1 SUB PUSH1 0x1F AND DUP3 ADD SWAP2 JUMPDEST POP POP POP POP POP DUP2 MSTORE PUSH1 0x20 ADD PUSH1 0x6 DUP3 ADD SLOAD DUP2 MSTORE PUSH1 0x20 ADD PUSH1 0x7 DUP3 ADD DUP1 SLOAD PUSH2 0xA9C SWAP1 PUSH2 0x2B25 JUMP JUMPDEST DUP1 PUSH1 0x1F ADD PUSH1 0x20 DUP1 SWAP2 DIV MUL PUSH1 0x20 ADD PUSH1 0x40 MLOAD SWAP1 DUP2 ADD PUSH1 0x40 MSTORE DUP1 SWAP3 SWAP2 SWAP1 DUP2 DUP2 MSTORE PUSH1 0x20 ADD DUP3 DUP1 SLOAD PUSH2 0xAC8 SWAP1 PUSH2 0x2B25 JUMP JUMPDEST DUP1 ISZERO PUSH2 0xB15 JUMPI DUP1 PUSH1 0x1F LT PUSH2 0xAEA JUMPI PUSH2 0x100 DUP1 DUP4 SLOAD DIV MUL DUP4 MSTORE SWAP2 PUSH1 0x20 ADD SWAP2 PUSH2 0xB15 JUMP JUMPDEST DUP3 ADD SWAP2 SWAP1 PUSH1 0x0 MSTORE PUSH1 0x20 PUSH1 0x0 KECCAK256 SWAP1 JUMPDEST DUP2 SLOAD DUP2 MSTORE SWAP1 PUSH1 0x1 ADD SWAP1 PUSH1 0x20 ADD DUP1 DUP4 GT PUSH2 0xAF8 JUMPI DUP3 SWAP1 SUB PUSH1 0x1F AND DUP3 ADD SWAP2 JUMPDEST POP POP POP POP POP DUP2 MSTORE PUSH1 0x20 ADD PUSH1 0x8 DUP3 ADD DUP1 SLOAD PUSH2 0xB2E SWAP1 PUSH2 0x2B25 JUMP JUMPDEST DUP1 PUSH1 0x1F ADD PUSH1 0x20 DUP1 SWAP2 DIV MUL PUSH1 0x20 ADD PUSH1 0x40 MLOAD SWAP1 DUP2 ADD PUSH1 0x40 MSTORE DUP1 SWAP3 SWAP2 SWAP1 DUP2 DUP2 MSTORE PUSH1 0x20 ADD DUP3 DUP1 SLOAD PUSH2 0xB5A SWAP1 PUSH2 0x2B25 JUMP JUMPDEST DUP1 ISZERO PUSH2 0xBA7 JUMPI DUP1 PUSH1 0x1F LT PUSH2 0xB7C JUMPI PUSH2 0x100 DUP1 DUP4 SLOAD DIV MUL DUP4 MSTORE SWAP2 PUSH1 0x20 ADD SWAP2 PUSH2 0xBA7 JUMP JUMPDEST DUP3 ADD SWAP2 SWAP1 PUSH1 0x0 MSTORE PUSH1 0x20 PUSH1 0x0 KECCAK256 SWAP1 JUMPDEST DUP2 SLOAD DUP2 MSTORE SWAP1 PUSH1 0x1 ADD SWAP1 PUSH1 0x20 ADD DUP1 DUP4 GT PUSH2 0xB8A JUMPI DUP3 SWAP1 SUB PUSH1 0x1F AND DUP3 ADD SWAP2 JUMPDEST POP POP POP POP POP DUP2 MSTORE PUSH1 0x20 ADD PUSH1 0x9 DUP3 ADD SLOAD DUP2 MSTORE POP POP DUP4 DUP4 DUP2 MLOAD DUP2 LT PUSH2 0xBCD JUMPI PUSH2 0xBCC PUSH2 0x2CCF JUMP JUMPDEST JUMPDEST PUSH1 0x20 MUL PUSH1 0x20 ADD ADD DUP2 SWAP1 MSTORE POP DUP2 DUP1 PUSH2 0xBE3 SWAP1 PUSH2 0x2C87 JUMP JUMPDEST SWAP3 POP POP JUMPDEST DUP1 DUP1 PUSH2 0xBF2 SWAP1 PUSH2 0x2C87 JUMP JUMPDEST SWAP2 POP POP PUSH2 0x710 JUMP JUMPDEST POP DUP2 SWAP4 POP POP POP POP SWAP2 SWAP1 POP JUMP JUMPDEST PUSH1 0x0 PUSH1 0x20 MSTORE DUP1 PUSH1 0x0 MSTORE PUSH1 0x40 PUSH1 0x0 KECCAK256 PUSH1 0x0 SWAP2 POP SWAP1 POP DUP1 PUSH1 0x0 ADD SLOAD SWAP1 DUP1 PUSH1 0x1 ADD DUP1 SLOAD PUSH2 0xC2F SWAP1 PUSH2 0x2B25 JUMP JUMPDEST DUP1 PUSH1 0x1F ADD PUSH1 0x20 DUP1 SWAP2 DIV MUL PUSH1 0x20 ADD PUSH1 0x40 MLOAD SWAP1 DUP2 ADD PUSH1 0x40 MSTORE DUP1 SWAP3 SWAP2 SWAP1 DUP2 DUP2 MSTORE PUSH1 0x20 ADD DUP3 DUP1 SLOAD PUSH2 0xC5B SWAP1 PUSH2 0x2B25 JUMP JUMPDEST DUP1 ISZERO PUSH2 0xCA8 JUMPI DUP1 PUSH1 0x1F LT PUSH2 0xC7D JUMPI PUSH2 0x100 DUP1 DUP4 SLOAD DIV MUL DUP4 MSTORE SWAP2 PUSH1 0x20 ADD SWAP2 PUSH2 0xCA8 JUMP JUMPDEST DUP3 ADD SWAP2 SWAP1 PUSH1 0x0 MSTORE PUSH1 0x20 PUSH1 0x0 KECCAK256 SWAP1 JUMPDEST DUP2 SLOAD DUP2 MSTORE SWAP1 PUSH1 0x1 ADD SWAP1 PUSH1 0x20 ADD DUP1 DUP4 GT PUSH2 0xC8B JUMPI DUP3 SWAP1 SUB PUSH1 0x1F AND DUP3 ADD SWAP2 JUMPDEST POP POP POP POP POP SWAP1 DUP1 PUSH1 0x2 ADD DUP1 SLOAD PUSH2 0xCBD SWAP1 PUSH2 0x2B25 JUMP JUMPDEST DUP1 PUSH1 0x1F ADD PUSH1 0x20 DUP1 SWAP2 DIV MUL PUSH1 0x20 ADD PUSH1 0x40 MLOAD SWAP1 DUP2 ADD PUSH1 0x40 MSTORE DUP1 SWAP3 SWAP2 SWAP1 DUP2 DUP2 MSTORE PUSH1 0x20 ADD DUP3 DUP1 SLOAD PUSH2 0xCE9 SWAP1 PUSH2 0x2B25 JUMP JUMPDEST DUP1 ISZERO PUSH2 0xD36 JUMPI DUP1 PUSH1 0x1F LT PUSH2 0xD0B JUMPI PUSH2 0x100 DUP1 DUP4 SLOAD DIV MUL DUP4 MSTORE SWAP2 PUSH1 0x20 ADD SWAP2 PUSH2 0xD36 JUMP JUMPDEST DUP3 ADD SWAP2 SWAP1 PUSH1 0x0 MSTORE PUSH1 0x20 PUSH1 0x0 KECCAK256 SWAP1 JUMPDEST DUP2 SLOAD DUP2 MSTORE SWAP1 PUSH1 0x1 ADD SWAP1 PUSH1 0x20 ADD DUP1 DUP4 GT PUSH2 0xD19 JUMPI DUP3 SWAP1 SUB PUSH1 0x1F AND DUP3 ADD SWAP2 JUMPDEST POP POP POP POP POP SWAP1 DUP1 PUSH1 0x3 ADD DUP1 SLOAD PUSH2 0xD4B SWAP1 PUSH2 0x2B25 JUMP JUMPDEST DUP1 PUSH1 0x1F ADD PUSH1 0x20 DUP1 SWAP2 DIV MUL PUSH1 0x20 ADD PUSH1 0x40 MLOAD SWAP1 DUP2 ADD PUSH1 0x40 MSTORE DUP1 SWAP3 SWAP2 SWAP1 DUP2 DUP2 MSTORE PUSH1 0x20 ADD DUP3 DUP1 SLOAD PUSH2 0xD77 SWAP1 PUSH2 0x2B25 JUMP JUMPDEST DUP1 ISZERO PUSH2 0xDC4 JUMPI DUP1 PUSH1 0x1F LT PUSH2 0xD99 JUMPI PUSH2 0x100 DUP1 DUP4 SLOAD DIV MUL DUP4 MSTORE SWAP2 PUSH1 0x20 ADD SWAP2 PUSH2 0xDC4 JUMP JUMPDEST DUP3 ADD SWAP2 SWAP1 PUSH1 0x0 MSTORE PUSH1 0x20 PUSH1 0x0 KECCAK256 SWAP1 JUMPDEST DUP2 SLOAD DUP2 MSTORE SWAP1 PUSH1 0x1 ADD SWAP1 PUSH1 0x20 ADD DUP1 DUP4 GT PUSH2 0xDA7 JUMPI DUP3 SWAP1 SUB PUSH1 0x1F AND DUP3 ADD SWAP2 JUMPDEST POP POP POP POP POP SWAP1 DUP1 PUSH1 0x4 ADD DUP1 SLOAD PUSH2 0xDD9 SWAP1 PUSH2 0x2B25 JUMP JUMPDEST DUP1 PUSH1 0x1F ADD PUSH1 0x20 DUP1 SWAP2 DIV MUL PUSH1 0x20 ADD PUSH1 0x40 MLOAD SWAP1 DUP2 ADD PUSH1 0x40 MSTORE DUP1 SWAP3 SWAP2 SWAP1 DUP2 DUP2 MSTORE PUSH1 0x20 ADD DUP3 DUP1 SLOAD PUSH2 0xE05 SWAP1 PUSH2 0x2B25 JUMP JUMPDEST DUP1 ISZERO PUSH2 0xE52 JUMPI DUP1 PUSH1 0x1F LT PUSH2 0xE27 JUMPI PUSH2 0x100 DUP1 DUP4 SLOAD DIV MUL DUP4 MSTORE SWAP2 PUSH1 0x20 ADD SWAP2 PUSH2 0xE52 JUMP JUMPDEST DUP3 ADD SWAP2 SWAP1 PUSH1 0x0 MSTORE PUSH1 0x20 PUSH1 0x0 KECCAK256 SWAP1 JUMPDEST DUP2 SLOAD DUP2 MSTORE SWAP1 PUSH1 0x1 ADD SWAP1 PUSH1 0x20 ADD DUP1 DUP4 GT PUSH2 0xE35 JUMPI DUP3 SWAP1 SUB PUSH1 0x1F AND DUP3 ADD SWAP2 JUMPDEST POP POP POP POP POP SWAP1 DUP1 PUSH1 0x5 ADD DUP1 SLOAD PUSH2 0xE67 SWAP1 PUSH2 0x2B25 JUMP JUMPDEST DUP1 PUSH1 0x1F ADD PUSH1 0x20 DUP1 SWAP2 DIV MUL PUSH1 0x20 ADD PUSH1 0x40 MLOAD SWAP1 DUP2 ADD PUSH1 0x40 MSTORE DUP1 SWAP3 SWAP2 SWAP1 DUP2 DUP2 MSTORE PUSH1 0x20 ADD DUP3 DUP1 SLOAD PUSH2 0xE93 SWAP1 PUSH2 0x2B25 JUMP JUMPDEST DUP1 ISZERO PUSH2 0xEE0 JUMPI DUP1 PUSH1 0x1F LT PUSH2 0xEB5 JUMPI PUSH2 0x100 DUP1 DUP4 SLOAD DIV MUL DUP4 MSTORE SWAP2 PUSH1 0x20 ADD SWAP2 PUSH2 0xEE0 JUMP JUMPDEST DUP3 ADD SWAP2 SWAP1 PUSH1 0x0 MSTORE PUSH1 0x20 PUSH1 0x0 KECCAK256 SWAP1 JUMPDEST DUP2 SLOAD DUP2 MSTORE SWAP1 PUSH1 0x1 ADD SWAP1 PUSH1 0x20 ADD DUP1 DUP4 GT PUSH2 0xEC3 JUMPI DUP3 SWAP1 SUB PUSH1 0x1F AND DUP3 ADD SWAP2 JUMPDEST POP POP POP POP POP SWAP1 DUP1 PUSH1 0x6 ADD SLOAD SWAP1 DUP1 PUSH1 0x7 ADD DUP1 SLOAD PUSH2 0xEFB SWAP1 PUSH2 0x2B25 JUMP JUMPDEST DUP1 PUSH1 0x1F ADD PUSH1 0x20 DUP1 SWAP2 DIV MUL PUSH1 0x20 ADD PUSH1 0x40 MLOAD SWAP1 DUP2 ADD PUSH1 0x40 MSTORE DUP1 SWAP3 SWAP2 SWAP1 DUP2 DUP2 MSTORE PUSH1 0x20 ADD DUP3 DUP1 SLOAD PUSH2 0xF27 SWAP1 PUSH2 0x2B25 JUMP JUMPDEST DUP1 ISZERO PUSH2 0xF74 JUMPI DUP1 PUSH1 0x1F LT PUSH2 0xF49 JUMPI PUSH2 0x100 DUP1 DUP4 SLOAD DIV MUL DUP4 MSTORE SWAP2 PUSH1 0x20 ADD SWAP2 PUSH2 0xF74 JUMP JUMPDEST DUP3 ADD SWAP2 SWAP1 PUSH1 0x0 MSTORE PUSH1 0x20 PUSH1 0x0 KECCAK256 SWAP1 JUMPDEST DUP2 SLOAD DUP2 MSTORE SWAP1 PUSH1 0x1 ADD SWAP1 PUSH1 0x20 ADD DUP1 DUP4 GT PUSH2 0xF57 JUMPI DUP3 SWAP1 SUB PUSH1 0x1F AND DUP3 ADD SWAP2 JUMPDEST POP POP POP POP POP SWAP1 DUP1 PUSH1 0x8 ADD DUP1 SLOAD PUSH2 0xF89 SWAP1 PUSH2 0x2B25 JUMP JUMPDEST DUP1 PUSH1 0x1F ADD PUSH1 0x20 DUP1 SWAP2 DIV MUL PUSH1 0x20 ADD PUSH1 0x40 MLOAD SWAP1 DUP2 ADD PUSH1 0x40 MSTORE DUP1 SWAP3 SWAP2 SWAP1 DUP2 DUP2 MSTORE PUSH1 0x20 ADD DUP3 DUP1 SLOAD PUSH2 0xFB5 SWAP1 PUSH2 0x2B25 JUMP JUMPDEST DUP1 ISZERO PUSH2 0x1002 JUMPI DUP1 PUSH1 0x1F LT PUSH2 0xFD7 JUMPI PUSH2 0x100 DUP1 DUP4 SLOAD DIV MUL DUP4 MSTORE SWAP2 PUSH1 0x20 ADD SWAP2 PUSH2 0x1002 JUMP JUMPDEST DUP3 ADD SWAP2 SWAP1 PUSH1 0x0 MSTORE PUSH1 0x20 PUSH1 0x0 KECCAK256 SWAP1 JUMPDEST DUP2 SLOAD DUP2 MSTORE SWAP1 PUSH1 0x1 ADD SWAP1 PUSH1 0x20 ADD DUP1 DUP4 GT PUSH2 0xFE5 JUMPI DUP3 SWAP1 SUB PUSH1 0x1F AND DUP3 ADD SWAP2 JUMPDEST POP POP POP POP POP SWAP1 DUP1 PUSH1 0x9 ADD SLOAD SWAP1 POP DUP11 JUMP JUMPDEST PUSH1 0x60 PUSH1 0x0 PUSH1 0x1 SLOAD PUSH8 0xFFFFFFFFFFFFFFFF DUP2 GT ISZERO PUSH2 0x1032 JUMPI PUSH2 0x1031 PUSH2 0x245C JUMP JUMPDEST JUMPDEST PUSH1 0x40 MLOAD SWAP1 DUP1 DUP3 MSTORE DUP1 PUSH1 0x20 MUL PUSH1 0x20 ADD DUP3 ADD PUSH1 0x40 MSTORE DUP1 ISZERO PUSH2 0x106B JUMPI DUP2 PUSH1 0x20 ADD JUMPDEST PUSH2 0x1058 PUSH2 0x21C3 JUMP JUMPDEST DUP2 MSTORE PUSH1 0x20 ADD SWAP1 PUSH1 0x1 SWAP1 SUB SWAP1 DUP2 PUSH2 0x1050 JUMPI SWAP1 POP JUMPDEST POP SWAP1 POP PUSH1 0x0 PUSH1 0x1 SWAP1 POP JUMPDEST PUSH1 0x1 SLOAD DUP2 GT PUSH2 0x14F5 JUMPI PUSH1 0x0 DUP1 DUP3 DUP2 MSTORE PUSH1 0x20 ADD SWAP1 DUP2 MSTORE PUSH1 0x20 ADD PUSH1 0x0 KECCAK256 PUSH1 0x40 MLOAD DUP1 PUSH2 0x140 ADD PUSH1 0x40 MSTORE SWAP1 DUP2 PUSH1 0x0 DUP3 ADD SLOAD DUP2 MSTORE PUSH1 0x20 ADD PUSH1 0x1 DUP3 ADD DUP1 SLOAD PUSH2 0x10B6 SWAP1 PUSH2 0x2B25 JUMP JUMPDEST DUP1 PUSH1 0x1F ADD PUSH1 0x20 DUP1 SWAP2 DIV MUL PUSH1 0x20 ADD PUSH1 0x40 MLOAD SWAP1 DUP2 ADD PUSH1 0x40 MSTORE DUP1 SWAP3 SWAP2 SWAP1 DUP2 DUP2 MSTORE PUSH1 0x20 ADD DUP3 DUP1 SLOAD PUSH2 0x10E2 SWAP1 PUSH2 0x2B25 JUMP JUMPDEST DUP1 ISZERO PUSH2 0x112F JUMPI DUP1 PUSH1 0x1F LT PUSH2 0x1104 JUMPI PUSH2 0x100 DUP1 DUP4 SLOAD DIV MUL DUP4 MSTORE SWAP2 PUSH1 0x20 ADD SWAP2 PUSH2 0x112F JUMP JUMPDEST DUP3 ADD SWAP2 SWAP1 PUSH1 0x0 MSTORE PUSH1 0x20 PUSH1 0x0 KECCAK256 SWAP1 JUMPDEST DUP2 SLOAD DUP2 MSTORE SWAP1 PUSH1 0x1 ADD SWAP1 PUSH1 0x20 ADD DUP1 DUP4 GT PUSH2 0x1112 JUMPI DUP3 SWAP1 SUB PUSH1 0x1F AND DUP3 ADD SWAP2 JUMPDEST POP POP POP POP POP DUP2 MSTORE PUSH1 0x20 ADD PUSH1 0x2 DUP3 ADD DUP1 SLOAD PUSH2 0x1148 SWAP1 PUSH2 0x2B25 JUMP JUMPDEST DUP1 PUSH1 0x1F ADD PUSH1 0x20 DUP1 SWAP2 DIV MUL PUSH1 0x20 ADD PUSH1 0x40 MLOAD SWAP1 DUP2 ADD PUSH1 0x40 MSTORE DUP1 SWAP3 SWAP2 SWAP1 DUP2 DUP2 MSTORE PUSH1 0x20 ADD DUP3 DUP1 SLOAD PUSH2 0x1174 SWAP1 PUSH2 0x2B25 JUMP JUMPDEST DUP1 ISZERO PUSH2 0x11C1 JUMPI DUP1 PUSH1 0x1F LT PUSH2 0x1196 JUMPI PUSH2 0x100 DUP1 DUP4 SLOAD DIV MUL DUP4 MSTORE SWAP2 PUSH1 0x20 ADD SWAP2 PUSH2 0x11C1 JUMP JUMPDEST DUP3 ADD SWAP2 SWAP1 PUSH1 0x0 MSTORE PUSH1 0x20 PUSH1 0x0 KECCAK256 SWAP1 JUMPDEST DUP2 SLOAD DUP2 MSTORE SWAP1 PUSH1 0x1 ADD SWAP1 PUSH1 0x20 ADD DUP1 DUP4 GT PUSH2 0x11A4 JUMPI DUP3 SWAP1 SUB PUSH1 0x1F AND DUP3 ADD SWAP2 JUMPDEST POP POP POP POP POP DUP2 MSTORE PUSH1 0x20 ADD PUSH1 0x3 DUP3 ADD DUP1 SLOAD PUSH2 0x11DA SWAP1 PUSH2 0x2B25 JUMP JUMPDEST DUP1 PUSH1 0x1F ADD PUSH1 0x20 DUP1 SWAP2 DIV MUL PUSH1 0x20 ADD PUSH1 0x40 MLOAD SWAP1 DUP2 ADD PUSH1 0x40 MSTORE DUP1 SWAP3 SWAP2 SWAP1 DUP2 DUP2 MSTORE PUSH1 0x20 ADD DUP3 DUP1 SLOAD PUSH2 0x1206 SWAP1 PUSH2 0x2B25 JUMP JUMPDEST DUP1 ISZERO PUSH2 0x1253 JUMPI DUP1 PUSH1 0x1F LT PUSH2 0x1228 JUMPI PUSH2 0x100 DUP1 DUP4 SLOAD DIV MUL DUP4 MSTORE SWAP2 PUSH1 0x20 ADD SWAP2 PUSH2 0x1253 JUMP JUMPDEST DUP3 ADD SWAP2 SWAP1 PUSH1 0x0 MSTORE PUSH1 0x20 PUSH1 0x0 KECCAK256 SWAP1 JUMPDEST DUP2 SLOAD DUP2 MSTORE SWAP1 PUSH1 0x1 ADD SWAP1 PUSH1 0x20 ADD DUP1 DUP4 GT PUSH2 0x1236 JUMPI DUP3 SWAP1 SUB PUSH1 0x1F AND DUP3 ADD SWAP2 JUMPDEST POP POP POP POP POP DUP2 MSTORE PUSH1 0x20 ADD PUSH1 0x4 DUP3 ADD DUP1 SLOAD PUSH2 0x126C SWAP1 PUSH2 0x2B25 JUMP JUMPDEST DUP1 PUSH1 0x1F ADD PUSH1 0x20 DUP1 SWAP2 DIV MUL PUSH1 0x20 ADD PUSH1 0x40 MLOAD SWAP1 DUP2 ADD PUSH1 0x40 MSTORE DUP1 SWAP3 SWAP2 SWAP1 DUP2 DUP2 MSTORE PUSH1 0x20 ADD DUP3 DUP1 SLOAD PUSH2 0x1298 SWAP1 PUSH2 0x2B25 JUMP JUMPDEST DUP1 ISZERO PUSH2 0x12E5 JUMPI DUP1 PUSH1 0x1F LT PUSH2 0x12BA JUMPI PUSH2 0x100 DUP1 DUP4 SLOAD DIV MUL DUP4 MSTORE SWAP2 PUSH1 0x20 ADD SWAP2 PUSH2 0x12E5 JUMP JUMPDEST DUP3 ADD SWAP2 SWAP1 PUSH1 0x0 MSTORE PUSH1 0x20 PUSH1 0x0 KECCAK256 SWAP1 JUMPDEST DUP2 SLOAD DUP2 MSTORE SWAP1 PUSH1 0x1 ADD SWAP1 PUSH1 0x20 ADD DUP1 DUP4 GT PUSH2 0x12C8 JUMPI DUP3 SWAP1 SUB PUSH1 0x1F AND DUP3 ADD SWAP2 JUMPDEST POP POP POP POP POP DUP2 MSTORE PUSH1 0x20 ADD PUSH1 0x5 DUP3 ADD DUP1 SLOAD PUSH2 0x12FE SWAP1 PUSH2 0x2B25 JUMP JUMPDEST DUP1 PUSH1 0x1F ADD PUSH1 0x20 DUP1 SWAP2 DIV MUL PUSH1 0x20 ADD PUSH1 0x40 MLOAD SWAP1 DUP2 ADD PUSH1 0x40 MSTORE DUP1 SWAP3 SWAP2 SWAP1 DUP2 DUP2 MSTORE PUSH1 0x20 ADD DUP3 DUP1 SLOAD PUSH2 0x132A SWAP1 PUSH2 0x2B25 JUMP JUMPDEST DUP1 ISZERO PUSH2 0x1377 JUMPI DUP1 PUSH1 0x1F LT PUSH2 0x134C JUMPI PUSH2 0x100 DUP1 DUP4 SLOAD DIV MUL DUP4 MSTORE SWAP2 PUSH1 0x20 ADD SWAP2 PUSH2 0x1377 JUMP JUMPDEST DUP3 ADD SWAP2 SWAP1 PUSH1 0x0 MSTORE PUSH1 0x20 PUSH1 0x0 KECCAK256 SWAP1 JUMPDEST DUP2 SLOAD DUP2 MSTORE SWAP1 PUSH1 0x1 ADD SWAP1 PUSH1 0x20 ADD DUP1 DUP4 GT PUSH2 0x135A JUMPI DUP3 SWAP1 SUB PUSH1 0x1F AND DUP3 ADD SWAP2 JUMPDEST POP POP POP POP POP DUP2 MSTORE PUSH1 0x20 ADD PUSH1 0x6 DUP3 ADD SLOAD DUP2 MSTORE PUSH1 0x20 ADD PUSH1 0x7 DUP3 ADD DUP1 SLOAD PUSH2 0x139A SWAP1 PUSH2 0x2B25 JUMP JUMPDEST DUP1 PUSH1 0x1F ADD PUSH1 0x20 DUP1 SWAP2 DIV MUL PUSH1 0x20 ADD PUSH1 0x40 MLOAD SWAP1 DUP2 ADD PUSH1 0x40 MSTORE DUP1 SWAP3 SWAP2 SWAP1 DUP2 DUP2 MSTORE PUSH1 0x20 ADD DUP3 DUP1 SLOAD PUSH2 0x13C6 SWAP1 PUSH2 0x2B25 JUMP JUMPDEST DUP1 ISZERO PUSH2 0x1413 JUMPI DUP1 PUSH1 0x1F LT PUSH2 0x13E8 JUMPI PUSH2 0x100 DUP1 DUP4 SLOAD DIV MUL DUP4 MSTORE SWAP2 PUSH1 0x20 ADD SWAP2 PUSH2 0x1413 JUMP JUMPDEST DUP3 ADD SWAP2 SWAP1 PUSH1 0x0 MSTORE PUSH1 0x20 PUSH1 0x0 KECCAK256 SWAP1 JUMPDEST DUP2 SLOAD DUP2 MSTORE SWAP1 PUSH1 0x1 ADD SWAP1 PUSH1 0x20 ADD DUP1 DUP4 GT PUSH2 0x13F6 JUMPI DUP3 SWAP1 SUB PUSH1 0x1F AND DUP3 ADD SWAP2 JUMPDEST POP POP POP POP POP DUP2 MSTORE PUSH1 0x20 ADD PUSH1 0x8 DUP3 ADD DUP1 SLOAD PUSH2 0x142C SWAP1 PUSH2 0x2B25 JUMP JUMPDEST DUP1 PUSH1 0x1F ADD PUSH1 0x20 DUP1 SWAP2 DIV MUL PUSH1 0x20 ADD PUSH1 0x40 MLOAD SWAP1 DUP2 ADD PUSH1 0x40 MSTORE DUP1 SWAP3 SWAP2 SWAP1 DUP2 DUP2 MSTORE PUSH1 0x20 ADD DUP3 DUP1 SLOAD PUSH2 0x1458 SWAP1 PUSH2 0x2B25 JUMP JUMPDEST DUP1 ISZERO PUSH2 0x14A5 JUMPI DUP1 PUSH1 0x1F LT PUSH2 0x147A JUMPI PUSH2 0x100 DUP1 DUP4 SLOAD DIV MUL DUP4 MSTORE SWAP2 PUSH1 0x20 ADD SWAP2 PUSH2 0x14A5 JUMP JUMPDEST DUP3 ADD SWAP2 SWAP1 PUSH1 0x0 MSTORE PUSH1 0x20 PUSH1 0x0 KECCAK256 SWAP1 JUMPDEST DUP2 SLOAD DUP2 MSTORE SWAP1 PUSH1 0x1 ADD SWAP1 PUSH1 0x20 ADD DUP1 DUP4 GT PUSH2 0x1488 JUMPI DUP3 SWAP1 SUB PUSH1 0x1F AND DUP3 ADD SWAP2 JUMPDEST POP POP POP POP POP DUP2 MSTORE PUSH1 0x20 ADD PUSH1 0x9 DUP3 ADD SLOAD DUP2 MSTORE POP POP DUP3 PUSH1 0x1 DUP4 PUSH2 0x14C6 SWAP2 SWAP1 PUSH2 0x2CFE JUMP JUMPDEST DUP2 MLOAD DUP2 LT PUSH2 0x14D7 JUMPI PUSH2 0x14D6 PUSH2 0x2CCF JUMP JUMPDEST JUMPDEST PUSH1 0x20 MUL PUSH1 0x20 ADD ADD DUP2 SWAP1 MSTORE POP DUP1 DUP1 PUSH2 0x14ED SWAP1 PUSH2 0x2C87 JUMP JUMPDEST SWAP2 POP POP PUSH2 0x1075 JUMP JUMPDEST POP DUP1 SWAP2 POP POP SWAP1 JUMP JUMPDEST PUSH1 0x1 SLOAD DUP2 JUMP JUMPDEST PUSH1 0x0 DUP1 PUSH1 0x0 DUP6 DUP2 MSTORE PUSH1 0x20 ADD SWAP1 DUP2 MSTORE PUSH1 0x20 ADD PUSH1 0x0 KECCAK256 PUSH1 0x40 MLOAD DUP1 PUSH2 0x140 ADD PUSH1 0x40 MSTORE SWAP1 DUP2 PUSH1 0x0 DUP3 ADD SLOAD DUP2 MSTORE PUSH1 0x20 ADD PUSH1 0x1 DUP3 ADD DUP1 SLOAD PUSH2 0x153D SWAP1 PUSH2 0x2B25 JUMP JUMPDEST DUP1 PUSH1 0x1F ADD PUSH1 0x20 DUP1 SWAP2 DIV MUL PUSH1 0x20 ADD PUSH1 0x40 MLOAD SWAP1 DUP2 ADD PUSH1 0x40 MSTORE DUP1 SWAP3 SWAP2 SWAP1 DUP2 DUP2 MSTORE PUSH1 0x20 ADD DUP3 DUP1 SLOAD PUSH2 0x1569 SWAP1 PUSH2 0x2B25 JUMP JUMPDEST DUP1 ISZERO PUSH2 0x15B6 JUMPI DUP1 PUSH1 0x1F LT PUSH2 0x158B JUMPI PUSH2 0x100 DUP1 DUP4 SLOAD DIV MUL DUP4 MSTORE SWAP2 PUSH1 0x20 ADD SWAP2 PUSH2 0x15B6 JUMP JUMPDEST DUP3 ADD SWAP2 SWAP1 PUSH1 0x0 MSTORE PUSH1 0x20 PUSH1 0x0 KECCAK256 SWAP1 JUMPDEST DUP2 SLOAD DUP2 MSTORE SWAP1 PUSH1 0x1 ADD SWAP1 PUSH1 0x20 ADD DUP1 DUP4 GT PUSH2 0x1599 JUMPI DUP3 SWAP1 SUB PUSH1 0x1F AND DUP3 ADD SWAP2 JUMPDEST POP POP POP POP POP DUP2 MSTORE PUSH1 0x20 ADD PUSH1 0x2 DUP3 ADD DUP1 SLOAD PUSH2 0x15CF SWAP1 PUSH2 0x2B25 JUMP JUMPDEST DUP1 PUSH1 0x1F ADD PUSH1 0x20 DUP1 SWAP2 DIV MUL PUSH1 0x20 ADD PUSH1 0x40 MLOAD SWAP1 DUP2 ADD PUSH1 0x40 MSTORE DUP1 SWAP3 SWAP2 SWAP1 DUP2 DUP2 MSTORE PUSH1 0x20 ADD DUP3 DUP1 SLOAD PUSH2 0x15FB SWAP1 PUSH2 0x2B25 JUMP JUMPDEST DUP1 ISZERO PUSH2 0x1648 JUMPI DUP1 PUSH1 0x1F LT PUSH2 0x161D JUMPI PUSH2 0x100 DUP1 DUP4 SLOAD DIV MUL DUP4 MSTORE SWAP2 PUSH1 0x20 ADD SWAP2 PUSH2 0x1648 JUMP JUMPDEST DUP3 ADD SWAP2 SWAP1 PUSH1 0x0 MSTORE PUSH1 0x20 PUSH1 0x0 KECCAK256 SWAP1 JUMPDEST DUP2 SLOAD DUP2 MSTORE SWAP1 PUSH1 0x1 ADD SWAP1 PUSH1 0x20 ADD DUP1 DUP4 GT PUSH2 0x162B JUMPI DUP3 SWAP1 SUB PUSH1 0x1F AND DUP3 ADD SWAP2 JUMPDEST POP POP POP POP POP DUP2 MSTORE PUSH1 0x20 ADD PUSH1 0x3 DUP3 ADD DUP1 SLOAD PUSH2 0x1661 SWAP1 PUSH2 0x2B25 JUMP JUMPDEST DUP1 PUSH1 0x1F ADD PUSH1 0x20 DUP1 SWAP2 DIV MUL PUSH1 0x20 ADD PUSH1 0x40 MLOAD SWAP1 DUP2 ADD PUSH1 0x40 MSTORE DUP1 SWAP3 SWAP2 SWAP1 DUP2 DUP2 MSTORE PUSH1 0x20 ADD DUP3 DUP1 SLOAD PUSH2 0x168D SWAP1 PUSH2 0x2B25 JUMP JUMPDEST DUP1 ISZERO PUSH2 0x16DA JUMPI DUP1 PUSH1 0x1F LT PUSH2 0x16AF JUMPI PUSH2 0x100 DUP1 DUP4 SLOAD DIV MUL DUP4 MSTORE SWAP2 PUSH1 0x20 ADD SWAP2 PUSH2 0x16DA JUMP JUMPDEST DUP3 ADD SWAP2 SWAP1 PUSH1 0x0 MSTORE PUSH1 0x20 PUSH1 0x0 KECCAK256 SWAP1 JUMPDEST DUP2 SLOAD DUP2 MSTORE SWAP1 PUSH1 0x1 ADD SWAP1 PUSH1 0x20 ADD DUP1 DUP4 GT PUSH2 0x16BD JUMPI DUP3 SWAP1 SUB PUSH1 0x1F AND DUP3 ADD SWAP2 JUMPDEST POP POP POP POP POP DUP2 MSTORE PUSH1 0x20 ADD PUSH1 0x4 DUP3 ADD DUP1 SLOAD PUSH2 0x16F3 SWAP1 PUSH2 0x2B25 JUMP JUMPDEST DUP1 PUSH1 0x1F ADD PUSH1 0x20 DUP1 SWAP2 DIV MUL PUSH1 0x20 ADD PUSH1 0x40 MLOAD SWAP1 DUP2 ADD PUSH1 0x40 MSTORE DUP1 SWAP3 SWAP2 SWAP1 DUP2 DUP2 MSTORE PUSH1 0x20 ADD DUP3 DUP1 SLOAD PUSH2 0x171F SWAP1 PUSH2 0x2B25 JUMP JUMPDEST DUP1 ISZERO PUSH2 0x176C JUMPI DUP1 PUSH1 0x1F LT PUSH2 0x1741 JUMPI PUSH2 0x100 DUP1 DUP4 SLOAD DIV MUL DUP4 MSTORE SWAP2 PUSH1 0x20 ADD SWAP2 PUSH2 0x176C JUMP JUMPDEST DUP3 ADD SWAP2 SWAP1 PUSH1 0x0 MSTORE PUSH1 0x20 PUSH1 0x0 KECCAK256 SWAP1 JUMPDEST DUP2 SLOAD DUP2 MSTORE SWAP1 PUSH1 0x1 ADD SWAP1 PUSH1 0x20 ADD DUP1 DUP4 GT PUSH2 0x174F JUMPI DUP3 SWAP1 SUB PUSH1 0x1F AND DUP3 ADD SWAP2 JUMPDEST POP POP POP POP POP DUP2 MSTORE PUSH1 0x20 ADD PUSH1 0x5 DUP3 ADD DUP1 SLOAD PUSH2 0x1785 SWAP1 PUSH2 0x2B25 JUMP JUMPDEST DUP1 PUSH1 0x1F ADD PUSH1 0x20 DUP1 SWAP2 DIV MUL PUSH1 0x20 ADD PUSH1 0x40 MLOAD SWAP1 DUP2 ADD PUSH1 0x40 MSTORE DUP1 SWAP3 SWAP2 SWAP1 DUP2 DUP2 MSTORE PUSH1 0x20 ADD DUP3 DUP1 SLOAD PUSH2 0x17B1 SWAP1 PUSH2 0x2B25 JUMP JUMPDEST DUP1 ISZERO PUSH2 0x17FE JUMPI DUP1 PUSH1 0x1F LT PUSH2 0x17D3 JUMPI PUSH2 0x100 DUP1 DUP4 SLOAD DIV MUL DUP4 MSTORE SWAP2 PUSH1 0x20 ADD SWAP2 PUSH2 0x17FE JUMP JUMPDEST DUP3 ADD SWAP2 SWAP1 PUSH1 0x0 MSTORE PUSH1 0x20 PUSH1 0x0 KECCAK256 SWAP1 JUMPDEST DUP2 SLOAD DUP2 MSTORE SWAP1 PUSH1 0x1 ADD SWAP1 PUSH1 0x20 ADD DUP1 DUP4 GT PUSH2 0x17E1 JUMPI DUP3 SWAP1 SUB PUSH1 0x1F AND DUP3 ADD SWAP2 JUMPDEST POP POP POP POP POP DUP2 MSTORE PUSH1 0x20 ADD PUSH1 0x6 DUP3 ADD SLOAD DUP2 MSTORE PUSH1 0x20 ADD PUSH1 0x7 DUP3 ADD DUP1 SLOAD PUSH2 0x1821 SWAP1 PUSH2 0x2B25 JUMP JUMPDEST DUP1 PUSH1 0x1F ADD PUSH1 0x20 DUP1 SWAP2 DIV MUL PUSH1 0x20 ADD PUSH1 0x40 MLOAD SWAP1 DUP2 ADD PUSH1 0x40 MSTORE DUP1 SWAP3 SWAP2 SWAP1 DUP2 DUP2 MSTORE PUSH1 0x20 ADD DUP3 DUP1 SLOAD PUSH2 0x184D SWAP1 PUSH2 0x2B25 JUMP JUMPDEST DUP1 ISZERO PUSH2 0x189A JUMPI DUP1 PUSH1 0x1F LT PUSH2 0x186F JUMPI PUSH2 0x100 DUP1 DUP4 SLOAD DIV MUL DUP4 MSTORE SWAP2 PUSH1 0x20 ADD SWAP2 PUSH2 0x189A JUMP JUMPDEST DUP3 ADD SWAP2 SWAP1 PUSH1 0x0 MSTORE PUSH1 0x20 PUSH1 0x0 KECCAK256 SWAP1 JUMPDEST DUP2 SLOAD DUP2 MSTORE SWAP1 PUSH1 0x1 ADD SWAP1 PUSH1 0x20 ADD DUP1 DUP4 GT PUSH2 0x187D JUMPI DUP3 SWAP1 SUB PUSH1 0x1F AND DUP3 ADD SWAP2 JUMPDEST POP POP POP POP POP DUP2 MSTORE PUSH1 0x20 ADD PUSH1 0x8 DUP3 ADD DUP1 SLOAD PUSH2 0x18B3 SWAP1 PUSH2 0x2B25 JUMP JUMPDEST DUP1 PUSH1 0x1F ADD PUSH1 0x20 DUP1 SWAP2 DIV MUL PUSH1 0x20 ADD PUSH1 0x40 MLOAD SWAP1 DUP2 ADD PUSH1 0x40 MSTORE DUP1 SWAP3 SWAP2 SWAP1 DUP2 DUP2 MSTORE PUSH1 0x20 ADD DUP3 DUP1 SLOAD PUSH2 0x18DF SWAP1 PUSH2 0x2B25 JUMP JUMPDEST DUP1 ISZERO PUSH2 0x192C JUMPI DUP1 PUSH1 0x1F LT PUSH2 0x1901 JUMPI PUSH2 0x100 DUP1 DUP4 SLOAD DIV MUL DUP4 MSTORE SWAP2 PUSH1 0x20 ADD SWAP2 PUSH2 0x192C JUMP JUMPDEST DUP3 ADD SWAP2 SWAP1 PUSH1 0x0 MSTORE PUSH1 0x20 PUSH1 0x0 KECCAK256 SWAP1 JUMPDEST DUP2 SLOAD DUP2 MSTORE SWAP1 PUSH1 0x1 ADD SWAP1 PUSH1 0x20 ADD DUP1 DUP4 GT PUSH2 0x190F JUMPI DUP3 SWAP1 SUB PUSH1 0x1F AND DUP3 ADD SWAP2 JUMPDEST POP POP POP POP POP DUP2 MSTORE PUSH1 0x20 ADD PUSH1 0x9 DUP3 ADD SLOAD DUP2 MSTORE POP POP SWAP1 POP PUSH1 0x1 PUSH1 0x0 DUP2 SLOAD DUP1 SWAP3 SWAP2 SWAP1 PUSH2 0x1954 SWAP1 PUSH2 0x2C87 JUMP JUMPDEST SWAP2 SWAP1 POP SSTORE POP PUSH1 0x40 MLOAD DUP1 PUSH2 0x140 ADD PUSH1 0x40 MSTORE DUP1 PUSH1 0x1 SLOAD DUP2 MSTORE PUSH1 0x20 ADD DUP3 PUSH1 0x20 ADD MLOAD DUP2 MSTORE PUSH1 0x20 ADD DUP3 PUSH1 0x40 ADD MLOAD DUP2 MSTORE PUSH1 0x20 ADD DUP3 PUSH1 0x60 ADD MLOAD DUP2 MSTORE PUSH1 0x20 ADD DUP3 PUSH1 0x80 ADD MLOAD DUP2 MSTORE PUSH1 0x20 ADD DUP3 PUSH1 0xA0 ADD MLOAD DUP2 MSTORE PUSH1 0x20 ADD DUP3 PUSH1 0xC0 ADD MLOAD DUP2 MSTORE PUSH1 0x20 ADD DUP3 PUSH1 0xE0 ADD MLOAD DUP2 MSTORE PUSH1 0x20 ADD DUP5 DUP2 MSTORE PUSH1 0x20 ADD DUP4 DUP2 MSTORE POP PUSH1 0x0 DUP1 PUSH1 0x1 SLOAD DUP2 MSTORE PUSH1 0x20 ADD SWAP1 DUP2 MSTORE PUSH1 0x20 ADD PUSH1 0x0 KECCAK256 PUSH1 0x0 DUP3 ADD MLOAD DUP2 PUSH1 0x0 ADD SSTORE PUSH1 0x20 DUP3 ADD MLOAD DUP2 PUSH1 0x1 ADD SWAP1 DUP2 PUSH2 0x19F0 SWAP2 SWAP1 PUSH2 0x2EC9 JUMP JUMPDEST POP PUSH1 0x40 DUP3 ADD MLOAD DUP2 PUSH1 0x2 ADD SWAP1 DUP2 PUSH2 0x1A06 SWAP2 SWAP1 PUSH2 0x2EC9 JUMP JUMPDEST POP PUSH1 0x60 DUP3 ADD MLOAD DUP2 PUSH1 0x3 ADD SWAP1 DUP2 PUSH2 0x1A1C SWAP2 SWAP1 PUSH2 0x2EC9 JUMP JUMPDEST POP PUSH1 0x80 DUP3 ADD MLOAD DUP2 PUSH1 0x4 ADD SWAP1 DUP2 PUSH2 0x1A32 SWAP2 SWAP1 PUSH2 0x2EC9 JUMP JUMPDEST POP PUSH1 0xA0 DUP3 ADD MLOAD DUP2 PUSH1 0x5 ADD SWAP1 DUP2 PUSH2 0x1A48 SWAP2 SWAP1 PUSH2 0x2EC9 JUMP JUMPDEST POP PUSH1 0xC0 DUP3 ADD MLOAD DUP2 PUSH1 0x6 ADD SSTORE PUSH1 0xE0 DUP3 ADD MLOAD DUP2 PUSH1 0x7 ADD SWAP1 DUP2 PUSH2 0x1A68 SWAP2 SWAP1 PUSH2 0x2EC9 JUMP JUMPDEST POP PUSH2 0x100 DUP3 ADD MLOAD DUP2 PUSH1 0x8 ADD SWAP1 DUP2 PUSH2 0x1A7F SWAP2 SWAP1 PUSH2 0x2EC9 JUMP JUMPDEST POP PUSH2 0x120 DUP3 ADD MLOAD DUP2 PUSH1 0x9 ADD SSTORE SWAP1 POP POP POP POP POP POP JUMP JUMPDEST PUSH1 0x60 PUSH1 0x0 DUP1 PUSH1 0x1 SWAP1 POP JUMPDEST PUSH1 0x1 SLOAD DUP2 GT PUSH2 0x1B30 JUMPI DUP4 PUSH1 0x40 MLOAD PUSH1 0x20 ADD PUSH2 0x1AB8 SWAP2 SWAP1 PUSH2 0x2B92 JUMP JUMPDEST PUSH1 0x40 MLOAD PUSH1 0x20 DUP2 DUP4 SUB SUB DUP2 MSTORE SWAP1 PUSH1 0x40 MSTORE DUP1 MLOAD SWAP1 PUSH1 0x20 ADD KECCAK256 PUSH1 0x0 DUP1 DUP4 DUP2 MSTORE PUSH1 0x20 ADD SWAP1 DUP2 MSTORE PUSH1 0x20 ADD PUSH1 0x0 KECCAK256 PUSH1 0x3 ADD PUSH1 0x40 MLOAD PUSH1 0x20 ADD PUSH2 0x1AF3 SWAP2 SWAP1 PUSH2 0x2C41 JUMP JUMPDEST PUSH1 0x40 MLOAD PUSH1 0x20 DUP2 DUP4 SUB SUB DUP2 MSTORE SWAP1 PUSH1 0x40 MSTORE DUP1 MLOAD SWAP1 PUSH1 0x20 ADD KECCAK256 SUB PUSH2 0x1B1D JUMPI DUP2 DUP1 PUSH2 0x1B19 SWAP1 PUSH2 0x2C87 JUMP JUMPDEST SWAP3 POP POP JUMPDEST DUP1 DUP1 PUSH2 0x1B28 SWAP1 PUSH2 0x2C87 JUMP JUMPDEST SWAP2 POP POP PUSH2 0x1A9E JUMP JUMPDEST POP PUSH1 0x0 DUP2 PUSH8 0xFFFFFFFFFFFFFFFF DUP2 GT ISZERO PUSH2 0x1B4D JUMPI PUSH2 0x1B4C PUSH2 0x245C JUMP JUMPDEST JUMPDEST PUSH1 0x40 MLOAD SWAP1 DUP1 DUP3 MSTORE DUP1 PUSH1 0x20 MUL PUSH1 0x20 ADD DUP3 ADD PUSH1 0x40 MSTORE DUP1 ISZERO PUSH2 0x1B86 JUMPI DUP2 PUSH1 0x20 ADD JUMPDEST PUSH2 0x1B73 PUSH2 0x21C3 JUMP JUMPDEST DUP2 MSTORE PUSH1 0x20 ADD SWAP1 PUSH1 0x1 SWAP1 SUB SWAP1 DUP2 PUSH2 0x1B6B JUMPI SWAP1 POP JUMPDEST POP SWAP1 POP PUSH1 0x0 DUP1 PUSH1 0x1 SWAP1 POP JUMPDEST PUSH1 0x1 SLOAD DUP2 GT PUSH2 0x207B JUMPI DUP6 PUSH1 0x40 MLOAD PUSH1 0x20 ADD PUSH2 0x1BAB SWAP2 SWAP1 PUSH2 0x2B92 JUMP JUMPDEST PUSH1 0x40 MLOAD PUSH1 0x20 DUP2 DUP4 SUB SUB DUP2 MSTORE SWAP1 PUSH1 0x40 MSTORE DUP1 MLOAD SWAP1 PUSH1 0x20 ADD KECCAK256 PUSH1 0x0 DUP1 DUP4 DUP2 MSTORE PUSH1 0x20 ADD SWAP1 DUP2 MSTORE PUSH1 0x20 ADD PUSH1 0x0 KECCAK256 PUSH1 0x3 ADD PUSH1 0x40 MLOAD PUSH1 0x20 ADD PUSH2 0x1BE6 SWAP2 SWAP1 PUSH2 0x2C41 JUMP JUMPDEST PUSH1 0x40 MLOAD PUSH1 0x20 DUP2 DUP4 SUB SUB DUP2 MSTORE SWAP1 PUSH1 0x40 MSTORE DUP1 MLOAD SWAP1 PUSH1 0x20 ADD KECCAK256 SUB PUSH2 0x2068 JUMPI PUSH1 0x0 DUP1 DUP3 DUP2 MSTORE PUSH1 0x20 ADD SWAP1 DUP2 MSTORE PUSH1 0x20 ADD PUSH1 0x0 KECCAK256 PUSH1 0x40 MLOAD DUP1 PUSH2 0x140 ADD PUSH1 0x40 MSTORE SWAP1 DUP2 PUSH1 0x0 DUP3 ADD SLOAD DUP2 MSTORE PUSH1 0x20 ADD PUSH1 0x1 DUP3 ADD DUP1 SLOAD PUSH2 0x1C39 SWAP1 PUSH2 0x2B25 JUMP JUMPDEST DUP1 PUSH1 0x1F ADD PUSH1 0x20 DUP1 SWAP2 DIV MUL PUSH1 0x20 ADD PUSH1 0x40 MLOAD SWAP1 DUP2 ADD PUSH1 0x40 MSTORE DUP1 SWAP3 SWAP2 SWAP1 DUP2 DUP2 MSTORE PUSH1 0x20 ADD DUP3 DUP1 SLOAD PUSH2 0x1C65 SWAP1 PUSH2 0x2B25 JUMP JUMPDEST DUP1 ISZERO PUSH2 0x1CB2 JUMPI DUP1 PUSH1 0x1F LT PUSH2 0x1C87 JUMPI PUSH2 0x100 DUP1 DUP4 SLOAD DIV MUL DUP4 MSTORE SWAP2 PUSH1 0x20 ADD SWAP2 PUSH2 0x1CB2 JUMP JUMPDEST DUP3 ADD SWAP2 SWAP1 PUSH1 0x0 MSTORE PUSH1 0x20 PUSH1 0x0 KECCAK256 SWAP1 JUMPDEST DUP2 SLOAD DUP2 MSTORE SWAP1 PUSH1 0x1 ADD SWAP1 PUSH1 0x20 ADD DUP1 DUP4 GT PUSH2 0x1C95 JUMPI DUP3 SWAP1 SUB PUSH1 0x1F AND DUP3 ADD SWAP2 JUMPDEST POP POP POP POP POP DUP2 MSTORE PUSH1 0x20 ADD PUSH1 0x2 DUP3 ADD DUP1 SLOAD PUSH2 0x1CCB SWAP1 PUSH2 0x2B25 JUMP JUMPDEST DUP1 PUSH1 0x1F ADD PUSH1 0x20 DUP1 SWAP2 DIV MUL PUSH1 0x20 ADD PUSH1 0x40 MLOAD SWAP1 DUP2 ADD PUSH1 0x40 MSTORE DUP1 SWAP3 SWAP2 SWAP1 DUP2 DUP2 MSTORE PUSH1 0x20 ADD DUP3 DUP1 SLOAD PUSH2 0x1CF7 SWAP1 PUSH2 0x2B25 JUMP JUMPDEST DUP1 ISZERO PUSH2 0x1D44 JUMPI DUP1 PUSH1 0x1F LT PUSH2 0x1D19 JUMPI PUSH2 0x100 DUP1 DUP4 SLOAD DIV MUL DUP4 MSTORE SWAP2 PUSH1 0x20 ADD SWAP2 PUSH2 0x1D44 JUMP JUMPDEST DUP3 ADD SWAP2 SWAP1 PUSH1 0x0 MSTORE PUSH1 0x20 PUSH1 0x0 KECCAK256 SWAP1 JUMPDEST DUP2 SLOAD DUP2 MSTORE SWAP1 PUSH1 0x1 ADD SWAP1 PUSH1 0x20 ADD DUP1 DUP4 GT PUSH2 0x1D27 JUMPI DUP3 SWAP1 SUB PUSH1 0x1F AND DUP3 ADD SWAP2 JUMPDEST POP POP POP POP POP DUP2 MSTORE PUSH1 0x20 ADD PUSH1 0x3 DUP3 ADD DUP1 SLOAD PUSH2 0x1D5D SWAP1 PUSH2 0x2B25 JUMP JUMPDEST DUP1 PUSH1 0x1F ADD PUSH1 0x20 DUP1 SWAP2 DIV MUL PUSH1 0x20 ADD PUSH1 0x40 MLOAD SWAP1 DUP2 ADD PUSH1 0x40 MSTORE DUP1 SWAP3 SWAP2 SWAP1 DUP2 DUP2 MSTORE PUSH1 0x20 ADD DUP3 DUP1 SLOAD PUSH2 0x1D89 SWAP1 PUSH2 0x2B25 JUMP JUMPDEST DUP1 ISZERO PUSH2 0x1DD6 JUMPI DUP1 PUSH1 0x1F LT PUSH2 0x1DAB JUMPI PUSH2 0x100 DUP1 DUP4 SLOAD DIV MUL DUP4 MSTORE SWAP2 PUSH1 0x20 ADD SWAP2 PUSH2 0x1DD6 JUMP JUMPDEST DUP3 ADD SWAP2 SWAP1 PUSH1 0x0 MSTORE PUSH1 0x20 PUSH1 0x0 KECCAK256 SWAP1 JUMPDEST DUP2 SLOAD DUP2 MSTORE SWAP1 PUSH1 0x1 ADD SWAP1 PUSH1 0x20 ADD DUP1 DUP4 GT PUSH2 0x1DB9 JUMPI DUP3 SWAP1 SUB PUSH1 0x1F AND DUP3 ADD SWAP2 JUMPDEST POP POP POP POP POP DUP2 MSTORE PUSH1 0x20 ADD PUSH1 0x4 DUP3 ADD DUP1 SLOAD PUSH2 0x1DEF SWAP1 PUSH2 0x2B25 JUMP JUMPDEST DUP1 PUSH1 0x1F ADD PUSH1 0x20 DUP1 SWAP2 DIV MUL PUSH1 0x20 ADD PUSH1 0x40 MLOAD SWAP1 DUP2 ADD PUSH1 0x40 MSTORE DUP1 SWAP3 SWAP2 SWAP1 DUP2 DUP2 MSTORE PUSH1 0x20 ADD DUP3 DUP1 SLOAD PUSH2 0x1E1B SWAP1 PUSH2 0x2B25 JUMP JUMPDEST DUP1 ISZERO PUSH2 0x1E68 JUMPI DUP1 PUSH1 0x1F LT PUSH2 0x1E3D JUMPI PUSH2 0x100 DUP1 DUP4 SLOAD DIV MUL DUP4 MSTORE SWAP2 PUSH1 0x20 ADD SWAP2 PUSH2 0x1E68 JUMP JUMPDEST DUP3 ADD SWAP2 SWAP1 PUSH1 0x0 MSTORE PUSH1 0x20 PUSH1 0x0 KECCAK256 SWAP1 JUMPDEST DUP2 SLOAD DUP2 MSTORE SWAP1 PUSH1 0x1 ADD SWAP1 PUSH1 0x20 ADD DUP1 DUP4 GT PUSH2 0x1E4B JUMPI DUP3 SWAP1 SUB PUSH1 0x1F AND DUP3 ADD SWAP2 JUMPDEST POP POP POP POP POP DUP2 MSTORE PUSH1 0x20 ADD PUSH1 0x5 DUP3 ADD DUP1 SLOAD PUSH2 0x1E81 SWAP1 PUSH2 0x2B25 JUMP JUMPDEST DUP1 PUSH1 0x1F ADD PUSH1 0x20 DUP1 SWAP2 DIV MUL PUSH1 0x20 ADD PUSH1 0x40 MLOAD SWAP1 DUP2 ADD PUSH1 0x40 MSTORE DUP1 SWAP3 SWAP2 SWAP1 DUP2 DUP2 MSTORE PUSH1 0x20 ADD DUP3 DUP1 SLOAD PUSH2 0x1EAD SWAP1 PUSH2 0x2B25 JUMP JUMPDEST DUP1 ISZERO PUSH2 0x1EFA JUMPI DUP1 PUSH1 0x1F LT PUSH2 0x1ECF JUMPI PUSH2 0x100 DUP1 DUP4 SLOAD DIV MUL DUP4 MSTORE SWAP2 PUSH1 0x20 ADD SWAP2 PUSH2 0x1EFA JUMP JUMPDEST DUP3 ADD SWAP2 SWAP1 PUSH1 0x0 MSTORE PUSH1 0x20 PUSH1 0x0 KECCAK256 SWAP1 JUMPDEST DUP2 SLOAD DUP2 MSTORE SWAP1 PUSH1 0x1 ADD SWAP1 PUSH1 0x20 ADD DUP1 DUP4 GT PUSH2 0x1EDD JUMPI DUP3 SWAP1 SUB PUSH1 0x1F AND DUP3 ADD SWAP2 JUMPDEST POP POP POP POP POP DUP2 MSTORE PUSH1 0x20 ADD PUSH1 0x6 DUP3 ADD SLOAD DUP2 MSTORE PUSH1 0x20 ADD PUSH1 0x7 DUP3 ADD DUP1 SLOAD PUSH2 0x1F1D SWAP1 PUSH2 0x2B25 JUMP JUMPDEST DUP1 PUSH1 0x1F ADD PUSH1 0x20 DUP1 SWAP2 DIV MUL PUSH1 0x20 ADD PUSH1 0x40 MLOAD SWAP1 DUP2 ADD PUSH1 0x40 MSTORE DUP1 SWAP3 SWAP2 SWAP1 DUP2 DUP2 MSTORE PUSH1 0x20 ADD DUP3 DUP1 SLOAD PUSH2 0x1F49 SWAP1 PUSH2 0x2B25 JUMP JUMPDEST DUP1 ISZERO PUSH2 0x1F96 JUMPI DUP1 PUSH1 0x1F LT PUSH2 0x1F6B JUMPI PUSH2 0x100 DUP1 DUP4 SLOAD DIV MUL DUP4 MSTORE SWAP2 PUSH1 0x20 ADD SWAP2 PUSH2 0x1F96 JUMP JUMPDEST DUP3 ADD SWAP2 SWAP1 PUSH1 0x0 MSTORE PUSH1 0x20 PUSH1 0x0 KECCAK256 SWAP1 JUMPDEST DUP2 SLOAD DUP2 MSTORE SWAP1 PUSH1 0x1 ADD SWAP1 PUSH1 0x20 ADD DUP1 DUP4 GT PUSH2 0x1F79 JUMPI DUP3 SWAP1 SUB PUSH1 0x1F AND DUP3 ADD SWAP2 JUMPDEST POP POP POP POP POP DUP2 MSTORE PUSH1 0x20 ADD PUSH1 0x8 DUP3 ADD DUP1 SLOAD PUSH2 0x1FAF SWAP1 PUSH2 0x2B25 JUMP JUMPDEST DUP1 PUSH1 0x1F ADD PUSH1 0x20 DUP1 SWAP2 DIV MUL PUSH1 0x20 ADD PUSH1 0x40 MLOAD SWAP1 DUP2 ADD PUSH1 0x40 MSTORE DUP1 SWAP3 SWAP2 SWAP1 DUP2 DUP2 MSTORE PUSH1 0x20 ADD DUP3 DUP1 SLOAD PUSH2 0x1FDB SWAP1 PUSH2 0x2B25 JUMP JUMPDEST DUP1 ISZERO PUSH2 0x2028 JUMPI DUP1 PUSH1 0x1F LT PUSH2 0x1FFD JUMPI PUSH2 0x100 DUP1 DUP4 SLOAD DIV MUL DUP4 MSTORE SWAP2 PUSH1 0x20 ADD SWAP2 PUSH2 0x2028 JUMP JUMPDEST DUP3 ADD SWAP2 SWAP1 PUSH1 0x0 MSTORE PUSH1 0x20 PUSH1 0x0 KECCAK256 SWAP1 JUMPDEST DUP2 SLOAD DUP2 MSTORE SWAP1 PUSH1 0x1 ADD SWAP1 PUSH1 0x20 ADD DUP1 DUP4 GT PUSH2 0x200B JUMPI DUP3 SWAP1 SUB PUSH1 0x1F AND DUP3 ADD SWAP2 JUMPDEST POP POP POP POP POP DUP2 MSTORE PUSH1 0x20 ADD PUSH1 0x9 DUP3 ADD SLOAD DUP2 MSTORE POP POP DUP4 DUP4 DUP2 MLOAD DUP2 LT PUSH2 0x204E JUMPI PUSH2 0x204D PUSH2 0x2CCF JUMP JUMPDEST JUMPDEST PUSH1 0x20 MUL PUSH1 0x20 ADD ADD DUP2 SWAP1 MSTORE POP DUP2 DUP1 PUSH2 0x2064 SWAP1 PUSH2 0x2C87 JUMP JUMPDEST SWAP3 POP POP JUMPDEST DUP1 DUP1 PUSH2 0x2073 SWAP1 PUSH2 0x2C87 JUMP JUMPDEST SWAP2 POP POP PUSH2 0x1B91 JUMP JUMPDEST POP DUP2 SWAP4 POP POP POP POP SWAP2 SWAP1 POP JUMP JUMPDEST PUSH1 0x1 PUSH1 0x0 DUP2 SLOAD DUP1 SWAP3 SWAP2 SWAP1 PUSH2 0x209A SWAP1 PUSH2 0x2C87 JUMP JUMPDEST SWAP2 SWAP1 POP SSTORE POP PUSH1 0x40 MLOAD DUP1 PUSH2 0x140 ADD PUSH1 0x40 MSTORE DUP1 PUSH1 0x1 SLOAD DUP2 MSTORE PUSH1 0x20 ADD DUP11 DUP2 MSTORE PUSH1 0x20 ADD DUP10 DUP2 MSTORE PUSH1 0x20 ADD DUP9 DUP2 MSTORE PUSH1 0x20 ADD DUP8 DUP2 MSTORE PUSH1 0x20 ADD DUP7 DUP2 MSTORE PUSH1 0x20 ADD DUP6 DUP2 MSTORE PUSH1 0x20 ADD DUP5 DUP2 MSTORE PUSH1 0x20 ADD DUP4 DUP2 MSTORE PUSH1 0x20 ADD DUP3 DUP2 MSTORE POP PUSH1 0x0 DUP1 PUSH1 0x1 SLOAD DUP2 MSTORE PUSH1 0x20 ADD SWAP1 DUP2 MSTORE PUSH1 0x20 ADD PUSH1 0x0 KECCAK256 PUSH1 0x0 DUP3 ADD MLOAD DUP2 PUSH1 0x0 ADD SSTORE PUSH1 0x20 DUP3 ADD MLOAD DUP2 PUSH1 0x1 ADD SWAP1 DUP2 PUSH2 0x211A SWAP2 SWAP1 PUSH2 0x2EC9 JUMP JUMPDEST POP PUSH1 0x40 DUP3 ADD MLOAD DUP2 PUSH1 0x2 ADD SWAP1 DUP2 PUSH2 0x2130 SWAP2 SWAP1 PUSH2 0x2EC9 JUMP JUMPDEST POP PUSH1 0x60 DUP3 ADD MLOAD DUP2 PUSH1 0x3 ADD SWAP1 DUP2 PUSH2 0x2146 SWAP2 SWAP1 PUSH2 0x2EC9 JUMP JUMPDEST POP PUSH1 0x80 DUP3 ADD MLOAD DUP2 PUSH1 0x4 ADD SWAP1 DUP2 PUSH2 0x215C SWAP2 SWAP1 PUSH2 0x2EC9 JUMP JUMPDEST POP PUSH1 0xA0 DUP3 ADD MLOAD DUP2 PUSH1 0x5 ADD SWAP1 DUP2 PUSH2 0x2172 SWAP2 SWAP1 PUSH2 0x2EC9 JUMP JUMPDEST POP PUSH1 0xC0 DUP3 ADD MLOAD DUP2 PUSH1 0x6 ADD SSTORE PUSH1 0xE0 DUP3 ADD MLOAD DUP2 PUSH1 0x7 ADD SWAP1 DUP2 PUSH2 0x2192 SWAP2 SWAP1 PUSH2 0x2EC9 JUMP JUMPDEST POP PUSH2 0x100 DUP3 ADD MLOAD DUP2 PUSH1 0x8 ADD SWAP1 DUP2 PUSH2 0x21A9 SWAP2 SWAP1 PUSH2 0x2EC9 JUMP JUMPDEST POP PUSH2 0x120 DUP3 ADD MLOAD DUP2 PUSH1 0x9 ADD SSTORE SWAP1 POP POP POP POP POP POP POP POP POP POP POP JUMP JUMPDEST PUSH1 0x40 MLOAD DUP1 PUSH2 0x140 ADD PUSH1 0x40 MSTORE DUP1 PUSH1 0x0 DUP2 MSTORE PUSH1 0x20 ADD PUSH1 0x60 DUP2 MSTORE PUSH1 0x20 ADD PUSH1 0x60 DUP2 MSTORE PUSH1 0x20 ADD PUSH1 0x60 DUP2 MSTORE PUSH1 0x20 ADD PUSH1 0x60 DUP2 MSTORE PUSH1 0x20 ADD PUSH1 0x60 DUP2 MSTORE PUSH1 0x20 ADD PUSH1 0x0 DUP2 MSTORE PUSH1 0x20 ADD PUSH1 0x60 DUP2 MSTORE PUSH1 0x20 ADD PUSH1 0x60 DUP2 MSTORE PUSH1 0x20 ADD PUSH1 0x0 DUP2 MSTORE POP SWAP1 JUMP JUMPDEST PUSH1 0x0 PUSH1 0x40 MLOAD SWAP1 POP SWAP1 JUMP JUMPDEST PUSH1 0x0 DUP1 REVERT JUMPDEST PUSH1 0x0 DUP1 REVERT JUMPDEST PUSH1 0x0 DUP2 SWAP1 POP SWAP2 SWAP1 POP JUMP JUMPDEST PUSH2 0x223D DUP2 PUSH2 0x222A JUMP JUMPDEST DUP2 EQ PUSH2 0x2248 JUMPI PUSH1 0x0 DUP1 REVERT JUMPDEST POP JUMP JUMPDEST PUSH1 0x0 DUP2 CALLDATALOAD SWAP1 POP PUSH2 0x225A DUP2 PUSH2 0x2234 JUMP JUMPDEST SWAP3 SWAP2 POP POP JUMP JUMPDEST PUSH1 0x0 PUSH1 0x20 DUP3 DUP5 SUB SLT ISZERO PUSH2 0x2276 JUMPI PUSH2 0x2275 PUSH2 0x2220 JUMP JUMPDEST JUMPDEST PUSH1 0x0 PUSH2 0x2284 DUP5 DUP3 DUP6 ADD PUSH2 0x224B JUMP JUMPDEST SWAP2 POP POP SWAP3 SWAP2 POP POP JUMP JUMPDEST PUSH2 0x2296 DUP2 PUSH2 0x222A JUMP JUMPDEST DUP3 MSTORE POP POP JUMP JUMPDEST PUSH1 0x0 DUP2 MLOAD SWAP1 POP SWAP2 SWAP1 POP JUMP JUMPDEST PUSH1 0x0 DUP3 DUP3 MSTORE PUSH1 0x20 DUP3 ADD SWAP1 POP SWAP3 SWAP2 POP POP JUMP JUMPDEST PUSH1 0x0 JUMPDEST DUP4 DUP2 LT ISZERO PUSH2 0x22D6 JUMPI DUP1 DUP3 ADD MLOAD DUP2 DUP5 ADD MSTORE PUSH1 0x20 DUP2 ADD SWAP1 POP PUSH2 0x22BB JUMP JUMPDEST PUSH1 0x0 DUP5 DUP5 ADD MSTORE POP POP POP POP JUMP JUMPDEST PUSH1 0x0 PUSH1 0x1F NOT PUSH1 0x1F DUP4 ADD AND SWAP1 POP SWAP2 SWAP1 POP JUMP JUMPDEST PUSH1 0x0 PUSH2 0x22FE DUP3 PUSH2 0x229C JUMP JUMPDEST PUSH2 0x2308 DUP2 DUP6 PUSH2 0x22A7 JUMP JUMPDEST SWAP4 POP PUSH2 0x2318 DUP2 DUP6 PUSH1 0x20 DUP7 ADD PUSH2 0x22B8 JUMP JUMPDEST PUSH2 0x2321 DUP2 PUSH2 0x22E2 JUMP JUMPDEST DUP5 ADD SWAP2 POP POP SWAP3 SWAP2 POP POP JUMP JUMPDEST PUSH1 0x0 PUSH2 0x140 DUP4 ADD PUSH1 0x0 DUP4 ADD MLOAD PUSH2 0x2345 PUSH1 0x0 DUP7 ADD DUP3 PUSH2 0x228D JUMP JUMPDEST POP PUSH1 0x20 DUP4 ADD MLOAD DUP5 DUP3 SUB PUSH1 0x20 DUP7 ADD MSTORE PUSH2 0x235D DUP3 DUP3 PUSH2 0x22F3 JUMP JUMPDEST SWAP2 POP POP PUSH1 0x40 DUP4 ADD MLOAD DUP5 DUP3 SUB PUSH1 0x40 DUP7 ADD MSTORE PUSH2 0x2377 DUP3 DUP3 PUSH2 0x22F3 JUMP JUMPDEST SWAP2 POP POP PUSH1 0x60 DUP4 ADD MLOAD DUP5 DUP3 SUB PUSH1 0x60 DUP7 ADD MSTORE PUSH2 0x2391 DUP3 DUP3 PUSH2 0x22F3 JUMP JUMPDEST SWAP2 POP POP PUSH1 0x80 DUP4 ADD MLOAD DUP5 DUP3 SUB PUSH1 0x80 DUP7 ADD MSTORE PUSH2 0x23AB DUP3 DUP3 PUSH2 0x22F3 JUMP JUMPDEST SWAP2 POP POP PUSH1 0xA0 DUP4 ADD MLOAD DUP5 DUP3 SUB PUSH1 0xA0 DUP7 ADD MSTORE PUSH2 0x23C5 DUP3 DUP3 PUSH2 0x22F3 JUMP JUMPDEST SWAP2 POP POP PUSH1 0xC0 DUP4 ADD MLOAD PUSH2 0x23DA PUSH1 0xC0 DUP7 ADD DUP3 PUSH2 0x228D JUMP JUMPDEST POP PUSH1 0xE0 DUP4 ADD MLOAD DUP5 DUP3 SUB PUSH1 0xE0 DUP7 ADD MSTORE PUSH2 0x23F2 DUP3 DUP3 PUSH2 0x22F3 JUMP JUMPDEST SWAP2 POP POP PUSH2 0x100 DUP4 ADD MLOAD DUP5 DUP3 SUB PUSH2 0x100 DUP7 ADD MSTORE PUSH2 0x240E DUP3 DUP3 PUSH2 0x22F3 JUMP JUMPDEST SWAP2 POP POP PUSH2 0x120 DUP4 ADD MLOAD PUSH2 0x2425 PUSH2 0x120 DUP7 ADD DUP3 PUSH2 0x228D JUMP JUMPDEST POP DUP1 SWAP2 POP POP SWAP3 SWAP2 POP POP JUMP JUMPDEST PUSH1 0x0 PUSH1 0x20 DUP3 ADD SWAP1 POP DUP2 DUP2 SUB PUSH1 0x0 DUP4 ADD MSTORE PUSH2 0x244A DUP2 DUP5 PUSH2 0x232C JUMP JUMPDEST SWAP1 POP SWAP3 SWAP2 POP POP JUMP JUMPDEST PUSH1 0x0 DUP1 REVERT JUMPDEST PUSH1 0x0 DUP1 REVERT JUMPDEST PUSH32 0x4E487B7100000000000000000000000000000000000000000000000000000000 PUSH1 0x0 MSTORE PUSH1 0x41 PUSH1 0x4 MSTORE PUSH1 0x24 PUSH1 0x0 REVERT JUMPDEST PUSH2 0x2494 DUP3 PUSH2 0x22E2 JUMP JUMPDEST DUP2 ADD DUP2 DUP2 LT PUSH8 0xFFFFFFFFFFFFFFFF DUP3 GT OR ISZERO PUSH2 0x24B3 JUMPI PUSH2 0x24B2 PUSH2 0x245C JUMP JUMPDEST JUMPDEST DUP1 PUSH1 0x40 MSTORE POP POP POP JUMP JUMPDEST PUSH1 0x0 PUSH2 0x24C6 PUSH2 0x2216 JUMP JUMPDEST SWAP1 POP PUSH2 0x24D2 DUP3 DUP3 PUSH2 0x248B JUMP JUMPDEST SWAP2 SWAP1 POP JUMP JUMPDEST PUSH1 0x0 PUSH8 0xFFFFFFFFFFFFFFFF DUP3 GT ISZERO PUSH2 0x24F2 JUMPI PUSH2 0x24F1 PUSH2 0x245C JUMP JUMPDEST JUMPDEST PUSH2 0x24FB DUP3 PUSH2 0x22E2 JUMP JUMPDEST SWAP1 POP PUSH1 0x20 DUP2 ADD SWAP1 POP SWAP2 SWAP1 POP JUMP JUMPDEST DUP3 DUP2 DUP4 CALLDATACOPY PUSH1 0x0 DUP4 DUP4 ADD MSTORE POP POP POP JUMP JUMPDEST PUSH1 0x0 PUSH2 0x252A PUSH2 0x2525 DUP5 PUSH2 0x24D7 JUMP JUMPDEST PUSH2 0x24BC JUMP JUMPDEST SWAP1 POP DUP3 DUP2 MSTORE PUSH1 0x20 DUP2 ADD DUP5 DUP5 DUP5 ADD GT ISZERO PUSH2 0x2546 JUMPI PUSH2 0x2545 PUSH2 0x2457 JUMP JUMPDEST JUMPDEST PUSH2 0x2551 DUP5 DUP3 DUP6 PUSH2 0x2508 JUMP JUMPDEST POP SWAP4 SWAP3 POP POP POP JUMP JUMPDEST PUSH1 0x0 DUP3 PUSH1 0x1F DUP4 ADD SLT PUSH2 0x256E JUMPI PUSH2 0x256D PUSH2 0x2452 JUMP JUMPDEST JUMPDEST DUP2 CALLDATALOAD PUSH2 0x257E DUP5 DUP3 PUSH1 0x20 DUP7 ADD PUSH2 0x2517 JUMP JUMPDEST SWAP2 POP POP SWAP3 SWAP2 POP POP JUMP JUMPDEST PUSH1 0x0 PUSH1 0x20 DUP3 DUP5 SUB SLT ISZERO PUSH2 0x259D JUMPI PUSH2 0x259C PUSH2 0x2220 JUMP JUMPDEST JUMPDEST PUSH1 0x0 DUP3 ADD CALLDATALOAD PUSH8 0xFFFFFFFFFFFFFFFF DUP2 GT ISZERO PUSH2 0x25BB JUMPI PUSH2 0x25BA PUSH2 0x2225 JUMP JUMPDEST JUMPDEST PUSH2 0x25C7 DUP5 DUP3 DUP6 ADD PUSH2 0x2559 JUMP JUMPDEST SWAP2 POP POP SWAP3 SWAP2 POP POP JUMP JUMPDEST PUSH1 0x0 DUP2 MLOAD SWAP1 POP SWAP2 SWAP1 POP JUMP JUMPDEST PUSH1 0x0 DUP3 DUP3 MSTORE PUSH1 0x20 DUP3 ADD SWAP1 POP SWAP3 SWAP2 POP POP JUMP JUMPDEST PUSH1 0x0 DUP2 SWAP1 POP PUSH1 0x20 DUP3 ADD SWAP1 POP SWAP2 SWAP1 POP JUMP JUMPDEST PUSH1 0x0 PUSH2 0x140 DUP4 ADD PUSH1 0x0 DUP4 ADD MLOAD PUSH2 0x2615 PUSH1 0x0 DUP7 ADD DUP3 PUSH2 0x228D JUMP JUMPDEST POP PUSH1 0x20 DUP4 ADD MLOAD DUP5 DUP3 SUB PUSH1 0x20 DUP7 ADD MSTORE PUSH2 0x262D DUP3 DUP3 PUSH2 0x22F3 JUMP JUMPDEST SWAP2 POP POP PUSH1 0x40 DUP4 ADD MLOAD DUP5 DUP3 SUB PUSH1 0x40 DUP7 ADD MSTORE PUSH2 0x2647 DUP3 DUP3 PUSH2 0x22F3 JUMP JUMPDEST SWAP2 POP POP PUSH1 0x60 DUP4 ADD MLOAD DUP5 DUP3 SUB PUSH1 0x60 DUP7 ADD MSTORE PUSH2 0x2661 DUP3 DUP3 PUSH2 0x22F3 JUMP JUMPDEST SWAP2 POP POP PUSH1 0x80 DUP4 ADD MLOAD DUP5 DUP3 SUB PUSH1 0x80 DUP7 ADD MSTORE PUSH2 0x267B DUP3 DUP3 PUSH2 0x22F3 JUMP JUMPDEST SWAP2 POP POP PUSH1 0xA0 DUP4 ADD MLOAD DUP5 DUP3 SUB PUSH1 0xA0 DUP7 ADD MSTORE PUSH2 0x2695 DUP3 DUP3 PUSH2 0x22F3 JUMP JUMPDEST SWAP2 POP POP PUSH1 0xC0 DUP4 ADD MLOAD PUSH2 0x26AA PUSH1 0xC0 DUP7 ADD DUP3 PUSH2 0x228D JUMP JUMPDEST POP PUSH1 0xE0 DUP4 ADD MLOAD DUP5 DUP3 SUB PUSH1 0xE0 DUP7 ADD MSTORE PUSH2 0x26C2 DUP3 DUP3 PUSH2 0x22F3 JUMP JUMPDEST SWAP2 POP POP PUSH2 0x100 DUP4 ADD MLOAD DUP5 DUP3 SUB PUSH2 0x100 DUP7 ADD MSTORE PUSH2 0x26DE DUP3 DUP3 PUSH2 0x22F3 JUMP JUMPDEST SWAP2 POP POP PUSH2 0x120 DUP4 ADD MLOAD PUSH2 0x26F5 PUSH2 0x120 DUP7 ADD DUP3 PUSH2 0x228D JUMP JUMPDEST POP DUP1 SWAP2 POP POP SWAP3 SWAP2 POP POP JUMP JUMPDEST PUSH1 0x0 PUSH2 0x270C DUP4 DUP4 PUSH2 0x25FC JUMP JUMPDEST SWAP1 POP SWAP3 SWAP2 POP POP JUMP JUMPDEST PUSH1 0x0 PUSH1 0x20 DUP3 ADD SWAP1 POP SWAP2 SWAP1 POP JUMP JUMPDEST PUSH1 0x0 PUSH2 0x272C DUP3 PUSH2 0x25D0 JUMP JUMPDEST PUSH2 0x2736 DUP2 DUP6 PUSH2 0x25DB JUMP JUMPDEST SWAP4 POP DUP4 PUSH1 0x20 DUP3 MUL DUP6 ADD PUSH2 0x2748 DUP6 PUSH2 0x25EC JUMP JUMPDEST DUP1 PUSH1 0x0 JUMPDEST DUP6 DUP2 LT ISZERO PUSH2 0x2784 JUMPI DUP5 DUP5 SUB DUP10 MSTORE DUP2 MLOAD PUSH2 0x2765 DUP6 DUP3 PUSH2 0x2700 JUMP JUMPDEST SWAP5 POP PUSH2 0x2770 DUP4 PUSH2 0x2714 JUMP JUMPDEST SWAP3 POP PUSH1 0x20 DUP11 ADD SWAP10 POP POP PUSH1 0x1 DUP2 ADD SWAP1 POP PUSH2 0x274C JUMP JUMPDEST POP DUP3 SWAP8 POP DUP8 SWAP6 POP POP POP POP POP POP SWAP3 SWAP2 POP POP JUMP JUMPDEST PUSH1 0x0 PUSH1 0x20 DUP3 ADD SWAP1 POP DUP2 DUP2 SUB PUSH1 0x0 DUP4 ADD MSTORE PUSH2 0x27B0 DUP2 DUP5 PUSH2 0x2721 JUMP JUMPDEST SWAP1 POP SWAP3 SWAP2 POP POP JUMP JUMPDEST PUSH2 0x27C1 DUP2 PUSH2 0x222A JUMP JUMPDEST DUP3 MSTORE POP POP JUMP JUMPDEST PUSH1 0x0 DUP3 DUP3 MSTORE PUSH1 0x20 DUP3 ADD SWAP1 POP SWAP3 SWAP2 POP POP JUMP JUMPDEST PUSH1 0x0 PUSH2 0x27E3 DUP3 PUSH2 0x229C JUMP JUMPDEST PUSH2 0x27ED DUP2 DUP6 PUSH2 0x27C7 JUMP JUMPDEST SWAP4 POP PUSH2 0x27FD DUP2 DUP6 PUSH1 0x20 DUP7 ADD PUSH2 0x22B8 JUMP JUMPDEST PUSH2 0x2806 DUP2 PUSH2 0x22E2 JUMP JUMPDEST DUP5 ADD SWAP2 POP POP SWAP3 SWAP2 POP POP JUMP JUMPDEST PUSH1 0x0 PUSH2 0x140 DUP3 ADD SWAP1 POP PUSH2 0x2827 PUSH1 0x0 DUP4 ADD DUP14 PUSH2 0x27B8 JUMP JUMPDEST DUP2 DUP2 SUB PUSH1 0x20 DUP4 ADD MSTORE PUSH2 0x2839 DUP2 DUP13 PUSH2 0x27D8 JUMP JUMPDEST SWAP1 POP DUP2 DUP2 SUB PUSH1 0x40 DUP4 ADD MSTORE PUSH2 0x284D DUP2 DUP12 PUSH2 0x27D8 JUMP JUMPDEST SWAP1 POP DUP2 DUP2 SUB PUSH1 0x60 DUP4 ADD MSTORE PUSH2 0x2861 DUP2 DUP11 PUSH2 0x27D8 JUMP JUMPDEST SWAP1 POP DUP2 DUP2 SUB PUSH1 0x80 DUP4 ADD MSTORE PUSH2 0x2875 DUP2 DUP10 PUSH2 0x27D8 JUMP JUMPDEST SWAP1 POP DUP2 DUP2 SUB PUSH1 0xA0 DUP4 ADD MSTORE PUSH2 0x2889 DUP2 DUP9 PUSH2 0x27D8 JUMP JUMPDEST SWAP1 POP PUSH2 0x2898 PUSH1 0xC0 DUP4 ADD DUP8 PUSH2 0x27B8 JUMP JUMPDEST DUP2 DUP2 SUB PUSH1 0xE0 DUP4 ADD MSTORE PUSH2 0x28AA DUP2 DUP7 PUSH2 0x27D8 JUMP JUMPDEST SWAP1 POP DUP2 DUP2 SUB PUSH2 0x100 DUP4 ADD MSTORE PUSH2 0x28BF DUP2 DUP6 PUSH2 0x27D8 JUMP JUMPDEST SWAP1 POP PUSH2 0x28CF PUSH2 0x120 DUP4 ADD DUP5 PUSH2 0x27B8 JUMP JUMPDEST SWAP12 SWAP11 POP POP POP POP POP POP POP POP POP POP POP JUMP JUMPDEST PUSH1 0x0 PUSH1 0x20 DUP3 ADD SWAP1 POP PUSH2 0x28F3 PUSH1 0x0 DUP4 ADD DUP5 PUSH2 0x27B8 JUMP JUMPDEST SWAP3 SWAP2 POP POP JUMP JUMPDEST PUSH1 0x0 DUP1 PUSH1 0x0 PUSH1 0x60 DUP5 DUP7 SUB SLT ISZERO PUSH2 0x2912 JUMPI PUSH2 0x2911 PUSH2 0x2220 JUMP JUMPDEST JUMPDEST PUSH1 0x0 PUSH2 0x2920 DUP7 DUP3 DUP8 ADD PUSH2 0x224B JUMP JUMPDEST SWAP4 POP POP PUSH1 0x20 DUP5 ADD CALLDATALOAD PUSH8 0xFFFFFFFFFFFFFFFF DUP2 GT ISZERO PUSH2 0x2941 JUMPI PUSH2 0x2940 PUSH2 0x2225 JUMP JUMPDEST JUMPDEST PUSH2 0x294D DUP7 DUP3 DUP8 ADD PUSH2 0x2559 JUMP JUMPDEST SWAP3 POP POP PUSH1 0x40 PUSH2 0x295E DUP7 DUP3 DUP8 ADD PUSH2 0x224B JUMP JUMPDEST SWAP2 POP POP SWAP3 POP SWAP3 POP SWAP3 JUMP JUMPDEST PUSH1 0x0 DUP1 PUSH1 0x0 DUP1 PUSH1 0x0 DUP1 PUSH1 0x0 DUP1 PUSH1 0x0 PUSH2 0x120 DUP11 DUP13 SUB SLT ISZERO PUSH2 0x298B JUMPI PUSH2 0x298A PUSH2 0x2220 JUMP JUMPDEST JUMPDEST PUSH1 0x0 DUP11 ADD CALLDATALOAD PUSH8 0xFFFFFFFFFFFFFFFF DUP2 GT ISZERO PUSH2 0x29A9 JUMPI PUSH2 0x29A8 PUSH2 0x2225 JUMP JUMPDEST JUMPDEST PUSH2 0x29B5 DUP13 DUP3 DUP14 ADD PUSH2 0x2559 JUMP JUMPDEST SWAP10 POP POP PUSH1 0x20 DUP11 ADD CALLDATALOAD PUSH8 0xFFFFFFFFFFFFFFFF DUP2 GT ISZERO PUSH2 0x29D6 JUMPI PUSH2 0x29D5 PUSH2 0x2225 JUMP JUMPDEST JUMPDEST PUSH2 0x29E2 DUP13 DUP3 DUP14 ADD PUSH2 0x2559 JUMP JUMPDEST SWAP9 POP POP PUSH1 0x40 DUP11 ADD CALLDATALOAD PUSH8 0xFFFFFFFFFFFFFFFF DUP2 GT ISZERO PUSH2 0x2A03 JUMPI PUSH2 0x2A02 PUSH2 0x2225 JUMP JUMPDEST JUMPDEST PUSH2 0x2A0F DUP13 DUP3 DUP14 ADD PUSH2 0x2559 JUMP JUMPDEST SWAP8 POP POP PUSH1 0x60 DUP11 ADD CALLDATALOAD PUSH8 0xFFFFFFFFFFFFFFFF DUP2 GT ISZERO PUSH2 0x2A30 JUMPI PUSH2 0x2A2F PUSH2 0x2225 JUMP JUMPDEST JUMPDEST PUSH2 0x2A3C DUP13 DUP3 DUP14 ADD PUSH2 0x2559 JUMP JUMPDEST SWAP7 POP POP PUSH1 0x80 DUP11 ADD CALLDATALOAD PUSH8 0xFFFFFFFFFFFFFFFF DUP2 GT ISZERO PUSH2 0x2A5D JUMPI PUSH2 0x2A5C PUSH2 0x2225 JUMP JUMPDEST JUMPDEST PUSH2 0x2A69 DUP13 DUP3 DUP14 ADD PUSH2 0x2559 JUMP JUMPDEST SWAP6 POP POP PUSH1 0xA0 PUSH2 0x2A7A DUP13 DUP3 DUP14 ADD PUSH2 0x224B JUMP JUMPDEST SWAP5 POP POP PUSH1 0xC0 DUP11 ADD CALLDATALOAD PUSH8 0xFFFFFFFFFFFFFFFF DUP2 GT ISZERO PUSH2 0x2A9B JUMPI PUSH2 0x2A9A PUSH2 0x2225 JUMP JUMPDEST JUMPDEST PUSH2 0x2AA7 DUP13 DUP3 DUP14 ADD PUSH2 0x2559 JUMP JUMPDEST SWAP4 POP POP PUSH1 0xE0 DUP11 ADD CALLDATALOAD PUSH8 0xFFFFFFFFFFFFFFFF DUP2 GT ISZERO PUSH2 0x2AC8 JUMPI PUSH2 0x2AC7 PUSH2 0x2225 JUMP JUMPDEST JUMPDEST PUSH2 0x2AD4 DUP13 DUP3 DUP14 ADD PUSH2 0x2559 JUMP JUMPDEST SWAP3 POP POP PUSH2 0x100 PUSH2 0x2AE6 DUP13 DUP3 DUP14 ADD PUSH2 0x224B JUMP JUMPDEST SWAP2 POP POP SWAP3 SWAP6 SWAP9 POP SWAP3 SWAP6 SWAP9 POP SWAP3 SWAP6 SWAP9 JUMP JUMPDEST PUSH32 0x4E487B7100000000000000000000000000000000000000000000000000000000 PUSH1 0x0 MSTORE PUSH1 0x22 PUSH1 0x4 MSTORE PUSH1 0x24 PUSH1 0x0 REVERT JUMPDEST PUSH1 0x0 PUSH1 0x2 DUP3 DIV SWAP1 POP PUSH1 0x1 DUP3 AND DUP1 PUSH2 0x2B3D JUMPI PUSH1 0x7F DUP3 AND SWAP2 POP JUMPDEST PUSH1 0x20 DUP3 LT DUP2 SUB PUSH2 0x2B50 JUMPI PUSH2 0x2B4F PUSH2 0x2AF6 JUMP JUMPDEST JUMPDEST POP SWAP2 SWAP1 POP JUMP JUMPDEST PUSH1 0x0 DUP2 SWAP1 POP SWAP3 SWAP2 POP POP JUMP JUMPDEST PUSH1 0x0 PUSH2 0x2B6C DUP3 PUSH2 0x229C JUMP JUMPDEST PUSH2 0x2B76 DUP2 DUP6 PUSH2 0x2B56 JUMP JUMPDEST SWAP4 POP PUSH2 0x2B86 DUP2 DUP6 PUSH1 0x20 DUP7 ADD PUSH2 0x22B8 JUMP JUMPDEST DUP1 DUP5 ADD SWAP2 POP POP SWAP3 SWAP2 POP POP JUMP JUMPDEST PUSH1 0x0 PUSH2 0x2B9E DUP3 DUP5 PUSH2 0x2B61 JUMP JUMPDEST SWAP2 POP DUP2 SWAP1 POP SWAP3 SWAP2 POP POP JUMP JUMPDEST PUSH1 0x0 DUP2 SWAP1 POP DUP2 PUSH1 0x0 MSTORE PUSH1 0x20 PUSH1 0x0 KECCAK256 SWAP1 POP SWAP2 SWAP1 POP JUMP JUMPDEST PUSH1 0x0 DUP2 SLOAD PUSH2 0x2BCB DUP2 PUSH2 0x2B25 JUMP JUMPDEST PUSH2 0x2BD5 DUP2 DUP7 PUSH2 0x2B56 JUMP JUMPDEST SWAP5 POP PUSH1 0x1 DUP3 AND PUSH1 0x0 DUP2 EQ PUSH2 0x2BF0 JUMPI PUSH1 0x1 DUP2 EQ PUSH2 0x2C05 JUMPI PUSH2 0x2C38 JUMP JUMPDEST PUSH1 0xFF NOT DUP4 AND DUP7 MSTORE DUP2 ISZERO ISZERO DUP3 MUL DUP7 ADD SWAP4 POP PUSH2 0x2C38 JUMP JUMPDEST PUSH2 0x2C0E DUP6 PUSH2 0x2BA9 JUMP JUMPDEST PUSH1 0x0 JUMPDEST DUP4 DUP2 LT ISZERO PUSH2 0x2C30 JUMPI DUP2 SLOAD DUP2 DUP10 ADD MSTORE PUSH1 0x1 DUP3 ADD SWAP2 POP PUSH1 0x20 DUP2 ADD SWAP1 POP PUSH2 0x2C11 JUMP JUMPDEST DUP4 DUP9 ADD SWAP6 POP POP POP JUMPDEST POP POP POP SWAP3 SWAP2 POP POP JUMP JUMPDEST PUSH1 0x0 PUSH2 0x2C4D DUP3 DUP5 PUSH2 0x2BBE JUMP JUMPDEST SWAP2 POP DUP2 SWAP1 POP SWAP3 SWAP2 POP POP JUMP JUMPDEST PUSH32 0x4E487B7100000000000000000000000000000000000000000000000000000000 PUSH1 0x0 MSTORE PUSH1 0x11 PUSH1 0x4 MSTORE PUSH1 0x24 PUSH1 0x0 REVERT JUMPDEST PUSH1 0x0 PUSH2 0x2C92 DUP3 PUSH2 0x222A JUMP JUMPDEST SWAP2 POP PUSH32 0xFFFFFFFFFFFFFFFFFFFFFFFFFFFFFFFFFFFFFFFFFFFFFFFFFFFFFFFFFFFFFFFF DUP3 SUB PUSH2 0x2CC4 JUMPI PUSH2 0x2CC3 PUSH2 0x2C58 JUMP JUMPDEST JUMPDEST PUSH1 0x1 DUP3 ADD SWAP1 POP SWAP2 SWAP1 POP JUMP JUMPDEST PUSH32 0x4E487B7100000000000000000000000000000000000000000000000000000000 PUSH1 0x0 MSTORE PUSH1 0x32 PUSH1 0x4 MSTORE PUSH1 0x24 PUSH1 0x0 REVERT JUMPDEST PUSH1 0x0 PUSH2 0x2D09 DUP3 PUSH2 0x222A JUMP JUMPDEST SWAP2 POP PUSH2 0x2D14 DUP4 PUSH2 0x222A JUMP JUMPDEST SWAP3 POP DUP3 DUP3 SUB SWAP1 POP DUP2 DUP2 GT ISZERO PUSH2 0x2D2C JUMPI PUSH2 0x2D2B PUSH2 0x2C58 JUMP JUMPDEST JUMPDEST SWAP3 SWAP2 POP POP JUMP JUMPDEST PUSH1 0x0 PUSH1 0x20 PUSH1 0x1F DUP4 ADD DIV SWAP1 POP SWAP2 SWAP1 POP JUMP JUMPDEST PUSH1 0x0 DUP3 DUP3 SHL SWAP1 POP SWAP3 SWAP2 POP POP JUMP JUMPDEST PUSH1 0x0 PUSH1 0x8 DUP4 MUL PUSH2 0x2D7F PUSH32 0xFFFFFFFFFFFFFFFFFFFFFFFFFFFFFFFFFFFFFFFFFFFFFFFFFFFFFFFFFFFFFFFF DUP3 PUSH2 0x2D42 JUMP JUMPDEST PUSH2 0x2D89 DUP7 DUP4 PUSH2 0x2D42 JUMP JUMPDEST SWAP6 POP DUP1 NOT DUP5 AND SWAP4 POP DUP1 DUP7 AND DUP5 OR SWAP3 POP POP POP SWAP4 SWAP3 POP POP POP JUMP JUMPDEST PUSH1 0x0 DUP2 SWAP1 POP SWAP2 SWAP1 POP JUMP JUMPDEST PUSH1 0x0 PUSH2 0x2DC6 PUSH2 0x2DC1 PUSH2 0x2DBC DUP5 PUSH2 0x222A JUMP JUMPDEST PUSH2 0x2DA1 JUMP JUMPDEST PUSH2 0x222A JUMP JUMPDEST SWAP1 POP SWAP2 SWAP1 POP JUMP JUMPDEST PUSH1 0x0 DUP2 SWAP1 POP SWAP2 SWAP1 POP JUMP JUMPDEST PUSH2 0x2DE0 DUP4 PUSH2 0x2DAB JUMP JUMPDEST PUSH2 0x2DF4 PUSH2 0x2DEC DUP3 PUSH2 0x2DCD JUMP JUMPDEST DUP5 DUP5 SLOAD PUSH2 0x2D4F JUMP JUMPDEST DUP3 SSTORE POP POP POP POP JUMP JUMPDEST PUSH1 0x0 SWAP1 JUMP JUMPDEST PUSH2 0x2E09 PUSH2 0x2DFC JUMP JUMPDEST PUSH2 0x2E14 DUP2 DUP5 DUP5 PUSH2 0x2DD7 JUMP JUMPDEST POP POP POP JUMP JUMPDEST JUMPDEST DUP2 DUP2 LT ISZERO PUSH2 0x2E38 JUMPI PUSH2 0x2E2D PUSH1 0x0 DUP3 PUSH2 0x2E01 JUMP JUMPDEST PUSH1 0x1 DUP2 ADD SWAP1 POP PUSH2 0x2E1A JUMP JUMPDEST POP POP JUMP JUMPDEST PUSH1 0x1F DUP3 GT ISZERO PUSH2 0x2E7D JUMPI PUSH2 0x2E4E DUP2 PUSH2 0x2BA9 JUMP JUMPDEST PUSH2 0x2E57 DUP5 PUSH2 0x2D32 JUMP JUMPDEST DUP2 ADD PUSH1 0x20 DUP6 LT ISZERO PUSH2 0x2E66 JUMPI DUP2 SWAP1 POP JUMPDEST PUSH2 0x2E7A PUSH2 0x2E72 DUP6 PUSH2 0x2D32 JUMP JUMPDEST DUP4 ADD DUP3 PUSH2 0x2E19 JUMP JUMPDEST POP POP JUMPDEST POP POP POP JUMP JUMPDEST PUSH1 0x0 DUP3 DUP3 SHR SWAP1 POP SWAP3 SWAP2 POP POP JUMP JUMPDEST PUSH1 0x0 PUSH2 0x2EA0 PUSH1 0x0 NOT DUP5 PUSH1 0x8 MUL PUSH2 0x2E82 JUMP JUMPDEST NOT DUP1 DUP4 AND SWAP2 POP POP SWAP3 SWAP2 POP POP JUMP JUMPDEST PUSH1 0x0 PUSH2 0x2EB9 DUP4 DUP4 PUSH2 0x2E8F JUMP JUMPDEST SWAP2 POP DUP3 PUSH1 0x2 MUL DUP3 OR SWAP1 POP SWAP3 SWAP2 POP POP JUMP JUMPDEST PUSH2 0x2ED2 DUP3 PUSH2 0x229C JUMP JUMPDEST PUSH8 0xFFFFFFFFFFFFFFFF DUP2 GT ISZERO PUSH2 0x2EEB JUMPI PUSH2 0x2EEA PUSH2 0x245C JUMP JUMPDEST JUMPDEST PUSH2 0x2EF5 DUP3 SLOAD PUSH2 0x2B25 JUMP JUMPDEST PUSH2 0x2F00 DUP3 DUP3 DUP6 PUSH2 0x2E3C JUMP JUMPDEST PUSH1 0x0 PUSH1 0x20 SWAP1 POP PUSH1 0x1F DUP4 GT PUSH1 0x1 DUP2 EQ PUSH2 0x2F33 JUMPI PUSH1 0x0 DUP5 ISZERO PUSH2 0x2F21 JUMPI DUP3 DUP8 ADD MLOAD SWAP1 POP JUMPDEST PUSH2 0x2F2B DUP6 DUP3 PUSH2 0x2EAD JUMP JUMPDEST DUP7 SSTORE POP PUSH2 0x2F93 JUMP JUMPDEST PUSH1 0x1F NOT DUP5 AND PUSH2 0x2F41 DUP7 PUSH2 0x2BA9 JUMP JUMPDEST PUSH1 0x0 JUMPDEST DUP3 DUP2 LT ISZERO PUSH2 0x2F69 JUMPI DUP5 DUP10 ADD MLOAD DUP3 SSTORE PUSH1 0x1 DUP3 ADD SWAP2 POP PUSH1 0x20 DUP6 ADD SWAP5 POP PUSH1 0x20 DUP2 ADD SWAP1 POP PUSH2 0x2F44 JUMP JUMPDEST DUP7 DUP4 LT ISZERO PUSH2 0x2F86 JUMPI DUP5 DUP10 ADD MLOAD PUSH2 0x2F82 PUSH1 0x1F DUP10 AND DUP3 PUSH2 0x2E8F JUMP JUMPDEST DUP4 SSTORE POP JUMPDEST PUSH1 0x1 PUSH1 0x2 DUP9 MUL ADD DUP9 SSTORE POP POP POP JUMPDEST POP POP POP POP POP POP JUMP INVALID LOG2 PUSH5 0x6970667358 0x22 SLT KECCAK256 0xE1 RETURN 0x4D DUP8 0x4B GT SLOAD LOG3 NOT DUP5 SWAP8 GASPRICE PUSH7 0xFFA506A5B9D4D7 SWAP5 XOR DUP16 0xC0 0xA7 0xE2 0xCB 0x4A 0xC7 0xE5 CHAINID AND PUSH5 0x736F6C6343 STOP ADDMOD LT STOP CALLER "
				},
				"gasEstimates": {
					"creation": {
						"codeDepositCost": "2448200",
						"executionCost": "2635",
						"totalCost": "2450835"
					},
					"external": {
						"addTransaction(string,string,string,string,string,uint256,string,string,uint256)": "infinite",
						"getAllTransaction()": "infinite",
						"getTransaction(uint256)": "infinite",
						"getTransactionByBuyerId(string)": "infinite",
						"getTransactionBySellerId(string)": "infinite",
						"transactionCount()": "2429",
						"transactions(uint256)": "infinite",
						"updatePaymentStatus(uint256,string,uint256)": "infinite"
					}
				},
				"methodIdentifiers": {
					"addTransaction(string,string,string,string,string,uint256,string,string,uint256)": "eb559a1e",
					"getAllTransaction()": "add6415d",
					"getTransaction(uint256)": "33ea3dc8",
					"getTransactionByBuyerId(string)": "e55d57df",
					"getTransactionBySellerId(string)": "9311f732",
					"transactionCount()": "b77bf600",
					"transactions(uint256)": "9ace38c2",
					"updatePaymentStatus(uint256,string,uint256)": "ce8481fd"
				}
			},
			"storageLayout": {
				"storage": [
					{
						"astId": 27,
						"contract": "contracts/TransactionTransactionDetailContract.sol:TransactionContract",
						"label": "transactions",
						"offset": 0,
						"slot": "0",
						"type": "t_mapping(t_uint256,t_struct(Transaction)22_storage)"
					},
					{
						"astId": 29,
						"contract": "contracts/TransactionTransactionDetailContract.sol:TransactionContract",
						"label": "transactionCount",
						"offset": 0,
						"slot": "1",
						"type": "t_uint256"
					}
				],
				"types": {
					"t_mapping(t_uint256,t_struct(Transaction)22_storage)": {
						"encoding": "mapping",
						"key": "t_uint256",
						"label": "mapping(uint256 => struct TransactionContract.Transaction)",
						"numberOfBytes": "32",
						"value": "t_struct(Transaction)22_storage"
					},
					"t_string_storage": {
						"encoding": "bytes",
						"label": "string",
						"numberOfBytes": "32"
					},
					"t_struct(Transaction)22_storage": {
						"encoding": "inplace",
						"label": "struct TransactionContract.Transaction",
						"members": [
							{
								"astId": 3,
								"contract": "contracts/TransactionTransactionDetailContract.sol:TransactionContract",
								"label": "transactionId",
								"offset": 0,
								"slot": "0",
								"type": "t_uint256"
							},
							{
								"astId": 5,
								"contract": "contracts/TransactionTransactionDetailContract.sol:TransactionContract",
								"label": "transactionCode",
								"offset": 0,
								"slot": "1",
								"type": "t_string_storage"
							},
							{
								"astId": 7,
								"contract": "contracts/TransactionTransactionDetailContract.sol:TransactionContract",
								"label": "buyer",
								"offset": 0,
								"slot": "2",
								"type": "t_string_storage"
							},
							{
								"astId": 9,
								"contract": "contracts/TransactionTransactionDetailContract.sol:TransactionContract",
								"label": "buyerId",
								"offset": 0,
								"slot": "3",
								"type": "t_string_storage"
							},
							{
								"astId": 11,
								"contract": "contracts/TransactionTransactionDetailContract.sol:TransactionContract",
								"label": "sellerCompany",
								"offset": 0,
								"slot": "4",
								"type": "t_string_storage"
							},
							{
								"astId": 13,
								"contract": "contracts/TransactionTransactionDetailContract.sol:TransactionContract",
								"label": "sellerId",
								"offset": 0,
								"slot": "5",
								"type": "t_string_storage"
							},
							{
								"astId": 15,
								"contract": "contracts/TransactionTransactionDetailContract.sol:TransactionContract",
								"label": "sumOfProduct",
								"offset": 0,
								"slot": "6",
								"type": "t_uint256"
							},
							{
								"astId": 17,
								"contract": "contracts/TransactionTransactionDetailContract.sol:TransactionContract",
								"label": "totalPrice",
								"offset": 0,
								"slot": "7",
								"type": "t_string_storage"
							},
							{
								"astId": 19,
								"contract": "contracts/TransactionTransactionDetailContract.sol:TransactionContract",
								"label": "paymentStatus",
								"offset": 0,
								"slot": "8",
								"type": "t_string_storage"
							},
							{
								"astId": 21,
								"contract": "contracts/TransactionTransactionDetailContract.sol:TransactionContract",
								"label": "createdAt",
								"offset": 0,
								"slot": "9",
								"type": "t_uint256"
							}
						],
						"numberOfBytes": "320"
					},
					"t_uint256": {
						"encoding": "inplace",
						"label": "uint256",
						"numberOfBytes": "32"
					}
				}
			},
			"userdoc": {
				"kind": "user",
				"methods": {},
				"version": 1
			}
		}
	}
}