{
	"contracts/TransactionContract14Juni.sol": {
		"TransactionContract": {
			"abi": [
				{
					"inputs": [],
					"stateMutability": "nonpayable",
					"type": "constructor"
				},
				{
					"anonymous": false,
					"inputs": [
						{
							"indexed": false,
							"internalType": "string",
							"name": "transactionCode",
							"type": "string"
						},
						{
							"indexed": false,
							"internalType": "string",
							"name": "newPaymentProof",
							"type": "string"
						}
					],
					"name": "PaymentProofUpdated",
					"type": "event"
				},
				{
					"anonymous": false,
					"inputs": [
						{
							"indexed": false,
							"internalType": "string",
							"name": "transactionCode",
							"type": "string"
						},
						{
							"indexed": false,
							"internalType": "string",
							"name": "newPaymentStatus",
							"type": "string"
						}
					],
					"name": "PaymentStatusUpdated",
					"type": "event"
				},
				{
					"anonymous": false,
					"inputs": [
						{
							"indexed": false,
							"internalType": "string",
							"name": "transactionCode",
							"type": "string"
						},
						{
							"indexed": false,
							"internalType": "string",
							"name": "newStatus",
							"type": "string"
						}
					],
					"name": "StatusUpdated",
					"type": "event"
				},
				{
					"anonymous": false,
					"inputs": [
						{
							"indexed": false,
							"internalType": "string",
							"name": "transactionCode",
							"type": "string"
						},
						{
							"indexed": false,
							"internalType": "string",
							"name": "campaignId",
							"type": "string"
						},
						{
							"indexed": false,
							"internalType": "string",
							"name": "fromToUserId",
							"type": "string"
						},
						{
							"indexed": false,
							"internalType": "string",
							"name": "orderType",
							"type": "string"
						},
						{
							"indexed": false,
							"internalType": "string",
							"name": "paymentStatus",
							"type": "string"
						},
						{
							"indexed": false,
							"internalType": "string",
							"name": "status",
							"type": "string"
						},
						{
							"indexed": false,
							"internalType": "uint256",
							"name": "quantity",
							"type": "uint256"
						},
						{
							"indexed": false,
							"internalType": "uint256",
							"name": "totalPrice",
							"type": "uint256"
						},
						{
							"indexed": false,
							"internalType": "string",
							"name": "paymentMethodDetailId",
							"type": "string"
						},
						{
							"indexed": false,
							"internalType": "string",
							"name": "paymentProof",
							"type": "string"
						},
						{
							"indexed": false,
							"internalType": "uint256",
							"name": "createdAt",
							"type": "uint256"
						}
					],
					"name": "TransactionAdded",
					"type": "event"
				},
				{
					"inputs": [
						{
							"internalType": "string",
							"name": "_transactionCode",
							"type": "string"
						},
						{
							"internalType": "string",
							"name": "_campaignId",
							"type": "string"
						},
						{
							"internalType": "string",
							"name": "_fromToUserId",
							"type": "string"
						},
						{
							"internalType": "string",
							"name": "_orderType",
							"type": "string"
						},
						{
							"internalType": "string",
							"name": "_paymentStatus",
							"type": "string"
						},
						{
							"internalType": "string",
							"name": "_status",
							"type": "string"
						},
						{
							"internalType": "uint256",
							"name": "_quantity",
							"type": "uint256"
						},
						{
							"internalType": "uint256",
							"name": "_totalPrice",
							"type": "uint256"
						},
						{
							"internalType": "string",
							"name": "_paymentMethodDetailId",
							"type": "string"
						},
						{
							"internalType": "uint256",
							"name": "_createdAt",
							"type": "uint256"
						}
					],
					"name": "addTransaction",
					"outputs": [],
					"stateMutability": "nonpayable",
					"type": "function"
				},
				{
					"inputs": [],
					"name": "getAllTransactions",
					"outputs": [
						{
							"components": [
								{
									"internalType": "string",
									"name": "transactionCode",
									"type": "string"
								},
								{
									"internalType": "string",
									"name": "campaignId",
									"type": "string"
								},
								{
									"internalType": "string",
									"name": "fromToUserId",
									"type": "string"
								},
								{
									"internalType": "string",
									"name": "orderType",
									"type": "string"
								},
								{
									"internalType": "string",
									"name": "paymentStatus",
									"type": "string"
								},
								{
									"internalType": "string",
									"name": "status",
									"type": "string"
								},
								{
									"internalType": "uint256",
									"name": "quantity",
									"type": "uint256"
								},
								{
									"internalType": "uint256",
									"name": "totalPrice",
									"type": "uint256"
								},
								{
									"internalType": "string",
									"name": "paymentMethodDetailId",
									"type": "string"
								},
								{
									"internalType": "string",
									"name": "paymentProof",
									"type": "string"
								},
								{
									"internalType": "uint256",
									"name": "createdAt",
									"type": "uint256"
								}
							],
							"internalType": "struct TransactionContract.Transaction[]",
							"name": "",
							"type": "tuple[]"
						}
					],
					"stateMutability": "view",
					"type": "function"
				},
				{
					"inputs": [
						{
							"internalType": "string",
							"name": "_campaignId",
							"type": "string"
						}
					],
					"name": "getTransactionByCampaignId",
					"outputs": [
						{
							"components": [
								{
									"internalType": "string",
									"name": "transactionCode",
									"type": "string"
								},
								{
									"internalType": "string",
									"name": "campaignId",
									"type": "string"
								},
								{
									"internalType": "string",
									"name": "fromToUserId",
									"type": "string"
								},
								{
									"internalType": "string",
									"name": "orderType",
									"type": "string"
								},
								{
									"internalType": "string",
									"name": "paymentStatus",
									"type": "string"
								},
								{
									"internalType": "string",
									"name": "status",
									"type": "string"
								},
								{
									"internalType": "uint256",
									"name": "quantity",
									"type": "uint256"
								},
								{
									"internalType": "uint256",
									"name": "totalPrice",
									"type": "uint256"
								},
								{
									"internalType": "string",
									"name": "paymentMethodDetailId",
									"type": "string"
								},
								{
									"internalType": "string",
									"name": "paymentProof",
									"type": "string"
								},
								{
									"internalType": "uint256",
									"name": "createdAt",
									"type": "uint256"
								}
							],
							"internalType": "struct TransactionContract.Transaction[]",
							"name": "",
							"type": "tuple[]"
						}
					],
					"stateMutability": "view",
					"type": "function"
				},
				{
					"inputs": [
						{
							"internalType": "string",
							"name": "_transactionCode",
							"type": "string"
						}
					],
					"name": "getTransactionByCode",
					"outputs": [
						{
							"components": [
								{
									"internalType": "string",
									"name": "transactionCode",
									"type": "string"
								},
								{
									"internalType": "string",
									"name": "campaignId",
									"type": "string"
								},
								{
									"internalType": "string",
									"name": "fromToUserId",
									"type": "string"
								},
								{
									"internalType": "string",
									"name": "orderType",
									"type": "string"
								},
								{
									"internalType": "string",
									"name": "paymentStatus",
									"type": "string"
								},
								{
									"internalType": "string",
									"name": "status",
									"type": "string"
								},
								{
									"internalType": "uint256",
									"name": "quantity",
									"type": "uint256"
								},
								{
									"internalType": "uint256",
									"name": "totalPrice",
									"type": "uint256"
								},
								{
									"internalType": "string",
									"name": "paymentMethodDetailId",
									"type": "string"
								},
								{
									"internalType": "string",
									"name": "paymentProof",
									"type": "string"
								},
								{
									"internalType": "uint256",
									"name": "createdAt",
									"type": "uint256"
								}
							],
							"internalType": "struct TransactionContract.Transaction",
							"name": "",
							"type": "tuple"
						}
					],
					"stateMutability": "view",
					"type": "function"
				},
				{
					"inputs": [
						{
							"internalType": "string",
							"name": "_fromToUserId",
							"type": "string"
						}
					],
					"name": "getTransactionByFromToUserId",
					"outputs": [
						{
							"components": [
								{
									"internalType": "string",
									"name": "transactionCode",
									"type": "string"
								},
								{
									"internalType": "string",
									"name": "campaignId",
									"type": "string"
								},
								{
									"internalType": "string",
									"name": "fromToUserId",
									"type": "string"
								},
								{
									"internalType": "string",
									"name": "orderType",
									"type": "string"
								},
								{
									"internalType": "string",
									"name": "paymentStatus",
									"type": "string"
								},
								{
									"internalType": "string",
									"name": "status",
									"type": "string"
								},
								{
									"internalType": "uint256",
									"name": "quantity",
									"type": "uint256"
								},
								{
									"internalType": "uint256",
									"name": "totalPrice",
									"type": "uint256"
								},
								{
									"internalType": "string",
									"name": "paymentMethodDetailId",
									"type": "string"
								},
								{
									"internalType": "string",
									"name": "paymentProof",
									"type": "string"
								},
								{
									"internalType": "uint256",
									"name": "createdAt",
									"type": "uint256"
								}
							],
							"internalType": "struct TransactionContract.Transaction[]",
							"name": "",
							"type": "tuple[]"
						}
					],
					"stateMutability": "view",
					"type": "function"
				},
				{
					"inputs": [
						{
							"internalType": "uint256",
							"name": "",
							"type": "uint256"
						}
					],
					"name": "transactionCodes",
					"outputs": [
						{
							"internalType": "string",
							"name": "",
							"type": "string"
						}
					],
					"stateMutability": "view",
					"type": "function"
				},
				{
					"inputs": [
						{
							"internalType": "string",
							"name": "",
							"type": "string"
						}
					],
					"name": "transactions",
					"outputs": [
						{
							"internalType": "string",
							"name": "transactionCode",
							"type": "string"
						},
						{
							"internalType": "string",
							"name": "campaignId",
							"type": "string"
						},
						{
							"internalType": "string",
							"name": "fromToUserId",
							"type": "string"
						},
						{
							"internalType": "string",
							"name": "orderType",
							"type": "string"
						},
						{
							"internalType": "string",
							"name": "paymentStatus",
							"type": "string"
						},
						{
							"internalType": "string",
							"name": "status",
							"type": "string"
						},
						{
							"internalType": "uint256",
							"name": "quantity",
							"type": "uint256"
						},
						{
							"internalType": "uint256",
							"name": "totalPrice",
							"type": "uint256"
						},
						{
							"internalType": "string",
							"name": "paymentMethodDetailId",
							"type": "string"
						},
						{
							"internalType": "string",
							"name": "paymentProof",
							"type": "string"
						},
						{
							"internalType": "uint256",
							"name": "createdAt",
							"type": "uint256"
						}
					],
					"stateMutability": "view",
					"type": "function"
				},
				{
					"inputs": [
						{
							"internalType": "string",
							"name": "_transactionCode",
							"type": "string"
						},
						{
							"internalType": "string",
							"name": "_newPaymentProof",
							"type": "string"
						}
					],
					"name": "updatePaymentProof",
					"outputs": [],
					"stateMutability": "nonpayable",
					"type": "function"
				},
				{
					"inputs": [
						{
							"internalType": "string",
							"name": "_transactionCode",
							"type": "string"
						},
						{
							"internalType": "string",
							"name": "_newPaymentStatus",
							"type": "string"
						}
					],
					"name": "updatePaymentStatus",
					"outputs": [],
					"stateMutability": "nonpayable",
					"type": "function"
				},
				{
					"inputs": [
						{
							"internalType": "string",
							"name": "_transactionCode",
							"type": "string"
						},
						{
							"internalType": "string",
							"name": "_newStatus",
							"type": "string"
						}
					],
					"name": "updateStatus",
					"outputs": [],
					"stateMutability": "nonpayable",
					"type": "function"
				}
			],
			"devdoc": {
				"kind": "dev",
				"methods": {},
				"version": 1
			},
			"evm": {
				"assembly": "    /* \"contracts/TransactionContract14Juni.sol\":57:6325  contract TransactionContract {... */\n  mstore(0x40, 0x80)\n    /* \"contracts/TransactionContract14Juni.sol\":1234:1283  constructor() {... */\n  callvalue\n  dup1\n  iszero\n  tag_1\n  jumpi\n  0x00\n  dup1\n  revert\ntag_1:\n  pop\n    /* \"contracts/TransactionContract14Juni.sol\":57:6325  contract TransactionContract {... */\n  dataSize(sub_0)\n  dup1\n  dataOffset(sub_0)\n  0x00\n  codecopy\n  0x00\n  return\nstop\n\nsub_0: assembly {\n        /* \"contracts/TransactionContract14Juni.sol\":57:6325  contract TransactionContract {... */\n      mstore(0x40, 0x80)\n      callvalue\n      dup1\n      iszero\n      tag_1\n      jumpi\n      0x00\n      dup1\n      revert\n    tag_1:\n      pop\n      jumpi(tag_2, lt(calldatasize, 0x04))\n      shr(0xe0, calldataload(0x00))\n      dup1\n      0x7ee9ed47\n      gt\n      tag_13\n      jumpi\n      dup1\n      0x7ee9ed47\n      eq\n      tag_8\n      jumpi\n      dup1\n      0x814cb8eb\n      eq\n      tag_9\n      jumpi\n      dup1\n      0x9db897dd\n      eq\n      tag_10\n      jumpi\n      dup1\n      0xd339b0ec\n      eq\n      tag_11\n      jumpi\n      dup1\n      0xfff50461\n      eq\n      tag_12\n      jumpi\n      jump(tag_2)\n    tag_13:\n      dup1\n      0x022236f4\n      eq\n      tag_3\n      jumpi\n      dup1\n      0x27506f53\n      eq\n      tag_4\n      jumpi\n      dup1\n      0x2b47300d\n      eq\n      tag_5\n      jumpi\n      dup1\n      0x347047cc\n      eq\n      tag_6\n      jumpi\n      dup1\n      0x7ce99c58\n      eq\n      tag_7\n      jumpi\n    tag_2:\n      0x00\n      dup1\n      revert\n        /* \"contracts/TransactionContract14Juni.sol\":465:515  mapping(string => Transaction) public transactions */\n    tag_3:\n      tag_14\n      0x04\n      dup1\n      calldatasize\n      sub\n      dup2\n      add\n      swap1\n      tag_15\n      swap2\n      swap1\n      tag_16\n      jump\t// in\n    tag_15:\n      tag_17\n      jump\t// in\n    tag_14:\n      mload(0x40)\n      tag_18\n      swap12\n      swap11\n      swap10\n      swap9\n      swap8\n      swap7\n      swap6\n      swap5\n      swap4\n      swap3\n      swap2\n      swap1\n      tag_19\n      jump\t// in\n    tag_18:\n      mload(0x40)\n      dup1\n      swap2\n      sub\n      swap1\n      return\n        /* \"contracts/TransactionContract14Juni.sol\":2443:2807  function getAllTransactions() public view returns (Transaction[] memory) {... */\n    tag_4:\n      tag_20\n      tag_21\n      jump\t// in\n    tag_20:\n      mload(0x40)\n      tag_22\n      swap2\n      swap1\n      tag_23\n      jump\t// in\n    tag_22:\n      mload(0x40)\n      dup1\n      swap2\n      sub\n      swap1\n      return\n        /* \"contracts/TransactionContract14Juni.sol\":3631:4208  function updatePaymentProof(... */\n    tag_5:\n      tag_24\n      0x04\n      dup1\n      calldatasize\n      sub\n      dup2\n      add\n      swap1\n      tag_25\n      swap2\n      swap1\n      tag_26\n      jump\t// in\n    tag_25:\n      tag_27\n      jump\t// in\n    tag_24:\n      stop\n        /* \"contracts/TransactionContract14Juni.sol\":2813:3195  function updateStatus(... */\n    tag_6:\n      tag_28\n      0x04\n      dup1\n      calldatasize\n      sub\n      dup2\n      add\n      swap1\n      tag_29\n      swap2\n      swap1\n      tag_26\n      jump\t// in\n    tag_29:\n      tag_30\n      jump\t// in\n    tag_28:\n      stop\n        /* \"contracts/TransactionContract14Juni.sol\":542:574  string[] public transactionCodes */\n    tag_7:\n      tag_31\n      0x04\n      dup1\n      calldatasize\n      sub\n      dup2\n      add\n      swap1\n      tag_32\n      swap2\n      swap1\n      tag_33\n      jump\t// in\n    tag_32:\n      tag_34\n      jump\t// in\n    tag_31:\n      mload(0x40)\n      tag_35\n      swap2\n      swap1\n      tag_36\n      jump\t// in\n    tag_35:\n      mload(0x40)\n      dup1\n      swap2\n      sub\n      swap1\n      return\n        /* \"contracts/TransactionContract14Juni.sol\":4214:5109  function getTransactionByFromToUserId(... */\n    tag_8:\n      tag_37\n      0x04\n      dup1\n      calldatasize\n      sub\n      dup2\n      add\n      swap1\n      tag_38\n      swap2\n      swap1\n      tag_16\n      jump\t// in\n    tag_38:\n      tag_39\n      jump\t// in\n    tag_37:\n      mload(0x40)\n      tag_40\n      swap2\n      swap1\n      tag_23\n      jump\t// in\n    tag_40:\n      mload(0x40)\n      dup1\n      swap2\n      sub\n      swap1\n      return\n        /* \"contracts/TransactionContract14Juni.sol\":1289:2437  function addTransaction(... */\n    tag_9:\n      tag_41\n      0x04\n      dup1\n      calldatasize\n      sub\n      dup2\n      add\n      swap1\n      tag_42\n      swap2\n      swap1\n      tag_43\n      jump\t// in\n    tag_42:\n      tag_44\n      jump\t// in\n    tag_41:\n      stop\n        /* \"contracts/TransactionContract14Juni.sol\":5440:6323  function getTransactionByCampaignId(... */\n    tag_10:\n      tag_45\n      0x04\n      dup1\n      calldatasize\n      sub\n      dup2\n      add\n      swap1\n      tag_46\n      swap2\n      swap1\n      tag_16\n      jump\t// in\n    tag_46:\n      tag_47\n      jump\t// in\n    tag_45:\n      mload(0x40)\n      tag_48\n      swap2\n      swap1\n      tag_23\n      jump\t// in\n    tag_48:\n      mload(0x40)\n      dup1\n      swap2\n      sub\n      swap1\n      return\n        /* \"contracts/TransactionContract14Juni.sol\":5115:5434  function getTransactionByCode(... */\n    tag_11:\n      tag_49\n      0x04\n      dup1\n      calldatasize\n      sub\n      dup2\n      add\n      swap1\n      tag_50\n      swap2\n      swap1\n      tag_16\n      jump\t// in\n    tag_50:\n      tag_51\n      jump\t// in\n    tag_49:\n      mload(0x40)\n      tag_52\n      swap2\n      swap1\n      tag_53\n      jump\t// in\n    tag_52:\n      mload(0x40)\n      dup1\n      swap2\n      sub\n      swap1\n      return\n        /* \"contracts/TransactionContract14Juni.sol\":3201:3625  function updatePaymentStatus(... */\n    tag_12:\n      tag_54\n      0x04\n      dup1\n      calldatasize\n      sub\n      dup2\n      add\n      swap1\n      tag_55\n      swap2\n      swap1\n      tag_26\n      jump\t// in\n    tag_55:\n      tag_56\n      jump\t// in\n    tag_54:\n      stop\n        /* \"contracts/TransactionContract14Juni.sol\":465:515  mapping(string => Transaction) public transactions */\n    tag_17:\n      0x00\n      dup2\n      dup1\n      mload\n      0x20\n      dup2\n      add\n      dup3\n      add\n      dup1\n      mload\n      dup5\n      dup3\n      mstore\n      0x20\n      dup4\n      add\n      0x20\n      dup6\n      add\n      keccak256\n      dup2\n      dup4\n      mstore\n      dup1\n      swap6\n      pop\n      pop\n      pop\n      pop\n      pop\n      pop\n      0x00\n      swap2\n      pop\n      swap1\n      pop\n      dup1\n      0x00\n      add\n      dup1\n      sload\n      tag_57\n      swap1\n      tag_58\n      jump\t// in\n    tag_57:\n      dup1\n      0x1f\n      add\n      0x20\n      dup1\n      swap2\n      div\n      mul\n      0x20\n      add\n      mload(0x40)\n      swap1\n      dup2\n      add\n      0x40\n      mstore\n      dup1\n      swap3\n      swap2\n      swap1\n      dup2\n      dup2\n      mstore\n      0x20\n      add\n      dup3\n      dup1\n      sload\n      tag_59\n      swap1\n      tag_58\n      jump\t// in\n    tag_59:\n      dup1\n      iszero\n      tag_60\n      jumpi\n      dup1\n      0x1f\n      lt\n      tag_61\n      jumpi\n      0x0100\n      dup1\n      dup4\n      sload\n      div\n      mul\n      dup4\n      mstore\n      swap2\n      0x20\n      add\n      swap2\n      jump(tag_60)\n    tag_61:\n      dup3\n      add\n      swap2\n      swap1\n      0x00\n      mstore\n      keccak256(0x00, 0x20)\n      swap1\n    tag_62:\n      dup2\n      sload\n      dup2\n      mstore\n      swap1\n      0x01\n      add\n      swap1\n      0x20\n      add\n      dup1\n      dup4\n      gt\n      tag_62\n      jumpi\n      dup3\n      swap1\n      sub\n      0x1f\n      and\n      dup3\n      add\n      swap2\n    tag_60:\n      pop\n      pop\n      pop\n      pop\n      pop\n      swap1\n      dup1\n      0x01\n      add\n      dup1\n      sload\n      tag_63\n      swap1\n      tag_58\n      jump\t// in\n    tag_63:\n      dup1\n      0x1f\n      add\n      0x20\n      dup1\n      swap2\n      div\n      mul\n      0x20\n      add\n      mload(0x40)\n      swap1\n      dup2\n      add\n      0x40\n      mstore\n      dup1\n      swap3\n      swap2\n      swap1\n      dup2\n      dup2\n      mstore\n      0x20\n      add\n      dup3\n      dup1\n      sload\n      tag_64\n      swap1\n      tag_58\n      jump\t// in\n    tag_64:\n      dup1\n      iszero\n      tag_65\n      jumpi\n      dup1\n      0x1f\n      lt\n      tag_66\n      jumpi\n      0x0100\n      dup1\n      dup4\n      sload\n      div\n      mul\n      dup4\n      mstore\n      swap2\n      0x20\n      add\n      swap2\n      jump(tag_65)\n    tag_66:\n      dup3\n      add\n      swap2\n      swap1\n      0x00\n      mstore\n      keccak256(0x00, 0x20)\n      swap1\n    tag_67:\n      dup2\n      sload\n      dup2\n      mstore\n      swap1\n      0x01\n      add\n      swap1\n      0x20\n      add\n      dup1\n      dup4\n      gt\n      tag_67\n      jumpi\n      dup3\n      swap1\n      sub\n      0x1f\n      and\n      dup3\n      add\n      swap2\n    tag_65:\n      pop\n      pop\n      pop\n      pop\n      pop\n      swap1\n      dup1\n      0x02\n      add\n      dup1\n      sload\n      tag_68\n      swap1\n      tag_58\n      jump\t// in\n    tag_68:\n      dup1\n      0x1f\n      add\n      0x20\n      dup1\n      swap2\n      div\n      mul\n      0x20\n      add\n      mload(0x40)\n      swap1\n      dup2\n      add\n      0x40\n      mstore\n      dup1\n      swap3\n      swap2\n      swap1\n      dup2\n      dup2\n      mstore\n      0x20\n      add\n      dup3\n      dup1\n      sload\n      tag_69\n      swap1\n      tag_58\n      jump\t// in\n    tag_69:\n      dup1\n      iszero\n      tag_70\n      jumpi\n      dup1\n      0x1f\n      lt\n      tag_71\n      jumpi\n      0x0100\n      dup1\n      dup4\n      sload\n      div\n      mul\n      dup4\n      mstore\n      swap2\n      0x20\n      add\n      swap2\n      jump(tag_70)\n    tag_71:\n      dup3\n      add\n      swap2\n      swap1\n      0x00\n      mstore\n      keccak256(0x00, 0x20)\n      swap1\n    tag_72:\n      dup2\n      sload\n      dup2\n      mstore\n      swap1\n      0x01\n      add\n      swap1\n      0x20\n      add\n      dup1\n      dup4\n      gt\n      tag_72\n      jumpi\n      dup3\n      swap1\n      sub\n      0x1f\n      and\n      dup3\n      add\n      swap2\n    tag_70:\n      pop\n      pop\n      pop\n      pop\n      pop\n      swap1\n      dup1\n      0x03\n      add\n      dup1\n      sload\n      tag_73\n      swap1\n      tag_58\n      jump\t// in\n    tag_73:\n      dup1\n      0x1f\n      add\n      0x20\n      dup1\n      swap2\n      div\n      mul\n      0x20\n      add\n      mload(0x40)\n      swap1\n      dup2\n      add\n      0x40\n      mstore\n      dup1\n      swap3\n      swap2\n      swap1\n      dup2\n      dup2\n      mstore\n      0x20\n      add\n      dup3\n      dup1\n      sload\n      tag_74\n      swap1\n      tag_58\n      jump\t// in\n    tag_74:\n      dup1\n      iszero\n      tag_75\n      jumpi\n      dup1\n      0x1f\n      lt\n      tag_76\n      jumpi\n      0x0100\n      dup1\n      dup4\n      sload\n      div\n      mul\n      dup4\n      mstore\n      swap2\n      0x20\n      add\n      swap2\n      jump(tag_75)\n    tag_76:\n      dup3\n      add\n      swap2\n      swap1\n      0x00\n      mstore\n      keccak256(0x00, 0x20)\n      swap1\n    tag_77:\n      dup2\n      sload\n      dup2\n      mstore\n      swap1\n      0x01\n      add\n      swap1\n      0x20\n      add\n      dup1\n      dup4\n      gt\n      tag_77\n      jumpi\n      dup3\n      swap1\n      sub\n      0x1f\n      and\n      dup3\n      add\n      swap2\n    tag_75:\n      pop\n      pop\n      pop\n      pop\n      pop\n      swap1\n      dup1\n      0x04\n      add\n      dup1\n      sload\n      tag_78\n      swap1\n      tag_58\n      jump\t// in\n    tag_78:\n      dup1\n      0x1f\n      add\n      0x20\n      dup1\n      swap2\n      div\n      mul\n      0x20\n      add\n      mload(0x40)\n      swap1\n      dup2\n      add\n      0x40\n      mstore\n      dup1\n      swap3\n      swap2\n      swap1\n      dup2\n      dup2\n      mstore\n      0x20\n      add\n      dup3\n      dup1\n      sload\n      tag_79\n      swap1\n      tag_58\n      jump\t// in\n    tag_79:\n      dup1\n      iszero\n      tag_80\n      jumpi\n      dup1\n      0x1f\n      lt\n      tag_81\n      jumpi\n      0x0100\n      dup1\n      dup4\n      sload\n      div\n      mul\n      dup4\n      mstore\n      swap2\n      0x20\n      add\n      swap2\n      jump(tag_80)\n    tag_81:\n      dup3\n      add\n      swap2\n      swap1\n      0x00\n      mstore\n      keccak256(0x00, 0x20)\n      swap1\n    tag_82:\n      dup2\n      sload\n      dup2\n      mstore\n      swap1\n      0x01\n      add\n      swap1\n      0x20\n      add\n      dup1\n      dup4\n      gt\n      tag_82\n      jumpi\n      dup3\n      swap1\n      sub\n      0x1f\n      and\n      dup3\n      add\n      swap2\n    tag_80:\n      pop\n      pop\n      pop\n      pop\n      pop\n      swap1\n      dup1\n      0x05\n      add\n      dup1\n      sload\n      tag_83\n      swap1\n      tag_58\n      jump\t// in\n    tag_83:\n      dup1\n      0x1f\n      add\n      0x20\n      dup1\n      swap2\n      div\n      mul\n      0x20\n      add\n      mload(0x40)\n      swap1\n      dup2\n      add\n      0x40\n      mstore\n      dup1\n      swap3\n      swap2\n      swap1\n      dup2\n      dup2\n      mstore\n      0x20\n      add\n      dup3\n      dup1\n      sload\n      tag_84\n      swap1\n      tag_58\n      jump\t// in\n    tag_84:\n      dup1\n      iszero\n      tag_85\n      jumpi\n      dup1\n      0x1f\n      lt\n      tag_86\n      jumpi\n      0x0100\n      dup1\n      dup4\n      sload\n      div\n      mul\n      dup4\n      mstore\n      swap2\n      0x20\n      add\n      swap2\n      jump(tag_85)\n    tag_86:\n      dup3\n      add\n      swap2\n      swap1\n      0x00\n      mstore\n      keccak256(0x00, 0x20)\n      swap1\n    tag_87:\n      dup2\n      sload\n      dup2\n      mstore\n      swap1\n      0x01\n      add\n      swap1\n      0x20\n      add\n      dup1\n      dup4\n      gt\n      tag_87\n      jumpi\n      dup3\n      swap1\n      sub\n      0x1f\n      and\n      dup3\n      add\n      swap2\n    tag_85:\n      pop\n      pop\n      pop\n      pop\n      pop\n      swap1\n      dup1\n      0x06\n      add\n      sload\n      swap1\n      dup1\n      0x07\n      add\n      sload\n      swap1\n      dup1\n      0x08\n      add\n      dup1\n      sload\n      tag_88\n      swap1\n      tag_58\n      jump\t// in\n    tag_88:\n      dup1\n      0x1f\n      add\n      0x20\n      dup1\n      swap2\n      div\n      mul\n      0x20\n      add\n      mload(0x40)\n      swap1\n      dup2\n      add\n      0x40\n      mstore\n      dup1\n      swap3\n      swap2\n      swap1\n      dup2\n      dup2\n      mstore\n      0x20\n      add\n      dup3\n      dup1\n      sload\n      tag_89\n      swap1\n      tag_58\n      jump\t// in\n    tag_89:\n      dup1\n      iszero\n      tag_90\n      jumpi\n      dup1\n      0x1f\n      lt\n      tag_91\n      jumpi\n      0x0100\n      dup1\n      dup4\n      sload\n      div\n      mul\n      dup4\n      mstore\n      swap2\n      0x20\n      add\n      swap2\n      jump(tag_90)\n    tag_91:\n      dup3\n      add\n      swap2\n      swap1\n      0x00\n      mstore\n      keccak256(0x00, 0x20)\n      swap1\n    tag_92:\n      dup2\n      sload\n      dup2\n      mstore\n      swap1\n      0x01\n      add\n      swap1\n      0x20\n      add\n      dup1\n      dup4\n      gt\n      tag_92\n      jumpi\n      dup3\n      swap1\n      sub\n      0x1f\n      and\n      dup3\n      add\n      swap2\n    tag_90:\n      pop\n      pop\n      pop\n      pop\n      pop\n      swap1\n      dup1\n      0x09\n      add\n      dup1\n      sload\n      tag_93\n      swap1\n      tag_58\n      jump\t// in\n    tag_93:\n      dup1\n      0x1f\n      add\n      0x20\n      dup1\n      swap2\n      div\n      mul\n      0x20\n      add\n      mload(0x40)\n      swap1\n      dup2\n      add\n      0x40\n      mstore\n      dup1\n      swap3\n      swap2\n      swap1\n      dup2\n      dup2\n      mstore\n      0x20\n      add\n      dup3\n      dup1\n      sload\n      tag_94\n      swap1\n      tag_58\n      jump\t// in\n    tag_94:\n      dup1\n      iszero\n      tag_95\n      jumpi\n      dup1\n      0x1f\n      lt\n      tag_96\n      jumpi\n      0x0100\n      dup1\n      dup4\n      sload\n      div\n      mul\n      dup4\n      mstore\n      swap2\n      0x20\n      add\n      swap2\n      jump(tag_95)\n    tag_96:\n      dup3\n      add\n      swap2\n      swap1\n      0x00\n      mstore\n      keccak256(0x00, 0x20)\n      swap1\n    tag_97:\n      dup2\n      sload\n      dup2\n      mstore\n      swap1\n      0x01\n      add\n      swap1\n      0x20\n      add\n      dup1\n      dup4\n      gt\n      tag_97\n      jumpi\n      dup3\n      swap1\n      sub\n      0x1f\n      and\n      dup3\n      add\n      swap2\n    tag_95:\n      pop\n      pop\n      pop\n      pop\n      pop\n      swap1\n      dup1\n      0x0a\n      add\n      sload\n      swap1\n      pop\n      dup12\n      jump\t// out\n        /* \"contracts/TransactionContract14Juni.sol\":2443:2807  function getAllTransactions() public view returns (Transaction[] memory) {... */\n    tag_21:\n        /* \"contracts/TransactionContract14Juni.sol\":2494:2514  Transaction[] memory */\n      0x60\n        /* \"contracts/TransactionContract14Juni.sol\":2526:2562  Transaction[] memory allTransactions */\n      0x00\n        /* \"contracts/TransactionContract14Juni.sol\":2596:2612  transactionCodes */\n      0x01\n        /* \"contracts/TransactionContract14Juni.sol\":2596:2619  transactionCodes.length */\n      dup1\n      sload\n      swap1\n      pop\n        /* \"contracts/TransactionContract14Juni.sol\":2565:2629  new Transaction[](... */\n      0xffffffffffffffff\n      dup2\n      gt\n      iszero\n      tag_99\n      jumpi\n      tag_100\n      tag_101\n      jump\t// in\n    tag_100:\n    tag_99:\n      mload(0x40)\n      swap1\n      dup1\n      dup3\n      mstore\n      dup1\n      0x20\n      mul\n      0x20\n      add\n      dup3\n      add\n      0x40\n      mstore\n      dup1\n      iszero\n      tag_102\n      jumpi\n      dup2\n      0x20\n      add\n    tag_103:\n      tag_104\n      tag_105\n      jump\t// in\n    tag_104:\n      dup2\n      mstore\n      0x20\n      add\n      swap1\n      0x01\n      swap1\n      sub\n      swap1\n      dup2\n      tag_103\n      jumpi\n      swap1\n      pop\n    tag_102:\n      pop\n        /* \"contracts/TransactionContract14Juni.sol\":2526:2629  Transaction[] memory allTransactions = new Transaction[](... */\n      swap1\n      pop\n        /* \"contracts/TransactionContract14Juni.sol\":2644:2650  uint i */\n      0x00\n        /* \"contracts/TransactionContract14Juni.sol\":2639:2769  for (uint i = 0; i < transactionCodes.length; i++) {... */\n    tag_106:\n        /* \"contracts/TransactionContract14Juni.sol\":2660:2676  transactionCodes */\n      0x01\n        /* \"contracts/TransactionContract14Juni.sol\":2660:2683  transactionCodes.length */\n      dup1\n      sload\n      swap1\n      pop\n        /* \"contracts/TransactionContract14Juni.sol\":2656:2657  i */\n      dup2\n        /* \"contracts/TransactionContract14Juni.sol\":2656:2683  i < transactionCodes.length */\n      lt\n        /* \"contracts/TransactionContract14Juni.sol\":2639:2769  for (uint i = 0; i < transactionCodes.length; i++) {... */\n      iszero\n      tag_107\n      jumpi\n        /* \"contracts/TransactionContract14Juni.sol\":2725:2737  transactions */\n      0x00\n        /* \"contracts/TransactionContract14Juni.sol\":2738:2754  transactionCodes */\n      0x01\n        /* \"contracts/TransactionContract14Juni.sol\":2755:2756  i */\n      dup3\n        /* \"contracts/TransactionContract14Juni.sol\":2738:2757  transactionCodes[i] */\n      dup2\n      sload\n      dup2\n      lt\n      tag_109\n      jumpi\n      tag_110\n      tag_111\n      jump\t// in\n    tag_110:\n    tag_109:\n      swap1\n      0x00\n      mstore\n      keccak256(0x00, 0x20)\n      add\n        /* \"contracts/TransactionContract14Juni.sol\":2725:2758  transactions[transactionCodes[i]] */\n      mload(0x40)\n      tag_113\n      swap2\n      swap1\n      tag_114\n      jump\t// in\n    tag_113:\n      swap1\n      dup2\n      mstore\n      0x20\n      add\n      mload(0x40)\n      dup1\n      swap2\n      sub\n      swap1\n      keccak256\n        /* \"contracts/TransactionContract14Juni.sol\":2704:2758  allTransactions[i] = transactions[transactionCodes[i]] */\n      mload(0x40)\n      dup1\n      0x0160\n      add\n      0x40\n      mstore\n      swap1\n      dup2\n      0x00\n      dup3\n      add\n      dup1\n      sload\n      tag_115\n      swap1\n      tag_58\n      jump\t// in\n    tag_115:\n      dup1\n      0x1f\n      add\n      0x20\n      dup1\n      swap2\n      div\n      mul\n      0x20\n      add\n      mload(0x40)\n      swap1\n      dup2\n      add\n      0x40\n      mstore\n      dup1\n      swap3\n      swap2\n      swap1\n      dup2\n      dup2\n      mstore\n      0x20\n      add\n      dup3\n      dup1\n      sload\n      tag_116\n      swap1\n      tag_58\n      jump\t// in\n    tag_116:\n      dup1\n      iszero\n      tag_117\n      jumpi\n      dup1\n      0x1f\n      lt\n      tag_118\n      jumpi\n      0x0100\n      dup1\n      dup4\n      sload\n      div\n      mul\n      dup4\n      mstore\n      swap2\n      0x20\n      add\n      swap2\n      jump(tag_117)\n    tag_118:\n      dup3\n      add\n      swap2\n      swap1\n      0x00\n      mstore\n      keccak256(0x00, 0x20)\n      swap1\n    tag_119:\n      dup2\n      sload\n      dup2\n      mstore\n      swap1\n      0x01\n      add\n      swap1\n      0x20\n      add\n      dup1\n      dup4\n      gt\n      tag_119\n      jumpi\n      dup3\n      swap1\n      sub\n      0x1f\n      and\n      dup3\n      add\n      swap2\n    tag_117:\n      pop\n      pop\n      pop\n      pop\n      pop\n      dup2\n      mstore\n      0x20\n      add\n      0x01\n      dup3\n      add\n      dup1\n      sload\n      tag_120\n      swap1\n      tag_58\n      jump\t// in\n    tag_120:\n      dup1\n      0x1f\n      add\n      0x20\n      dup1\n      swap2\n      div\n      mul\n      0x20\n      add\n      mload(0x40)\n      swap1\n      dup2\n      add\n      0x40\n      mstore\n      dup1\n      swap3\n      swap2\n      swap1\n      dup2\n      dup2\n      mstore\n      0x20\n      add\n      dup3\n      dup1\n      sload\n      tag_121\n      swap1\n      tag_58\n      jump\t// in\n    tag_121:\n      dup1\n      iszero\n      tag_122\n      jumpi\n      dup1\n      0x1f\n      lt\n      tag_123\n      jumpi\n      0x0100\n      dup1\n      dup4\n      sload\n      div\n      mul\n      dup4\n      mstore\n      swap2\n      0x20\n      add\n      swap2\n      jump(tag_122)\n    tag_123:\n      dup3\n      add\n      swap2\n      swap1\n      0x00\n      mstore\n      keccak256(0x00, 0x20)\n      swap1\n    tag_124:\n      dup2\n      sload\n      dup2\n      mstore\n      swap1\n      0x01\n      add\n      swap1\n      0x20\n      add\n      dup1\n      dup4\n      gt\n      tag_124\n      jumpi\n      dup3\n      swap1\n      sub\n      0x1f\n      and\n      dup3\n      add\n      swap2\n    tag_122:\n      pop\n      pop\n      pop\n      pop\n      pop\n      dup2\n      mstore\n      0x20\n      add\n      0x02\n      dup3\n      add\n      dup1\n      sload\n      tag_125\n      swap1\n      tag_58\n      jump\t// in\n    tag_125:\n      dup1\n      0x1f\n      add\n      0x20\n      dup1\n      swap2\n      div\n      mul\n      0x20\n      add\n      mload(0x40)\n      swap1\n      dup2\n      add\n      0x40\n      mstore\n      dup1\n      swap3\n      swap2\n      swap1\n      dup2\n      dup2\n      mstore\n      0x20\n      add\n      dup3\n      dup1\n      sload\n      tag_126\n      swap1\n      tag_58\n      jump\t// in\n    tag_126:\n      dup1\n      iszero\n      tag_127\n      jumpi\n      dup1\n      0x1f\n      lt\n      tag_128\n      jumpi\n      0x0100\n      dup1\n      dup4\n      sload\n      div\n      mul\n      dup4\n      mstore\n      swap2\n      0x20\n      add\n      swap2\n      jump(tag_127)\n    tag_128:\n      dup3\n      add\n      swap2\n      swap1\n      0x00\n      mstore\n      keccak256(0x00, 0x20)\n      swap1\n    tag_129:\n      dup2\n      sload\n      dup2\n      mstore\n      swap1\n      0x01\n      add\n      swap1\n      0x20\n      add\n      dup1\n      dup4\n      gt\n      tag_129\n      jumpi\n      dup3\n      swap1\n      sub\n      0x1f\n      and\n      dup3\n      add\n      swap2\n    tag_127:\n      pop\n      pop\n      pop\n      pop\n      pop\n      dup2\n      mstore\n      0x20\n      add\n      0x03\n      dup3\n      add\n      dup1\n      sload\n      tag_130\n      swap1\n      tag_58\n      jump\t// in\n    tag_130:\n      dup1\n      0x1f\n      add\n      0x20\n      dup1\n      swap2\n      div\n      mul\n      0x20\n      add\n      mload(0x40)\n      swap1\n      dup2\n      add\n      0x40\n      mstore\n      dup1\n      swap3\n      swap2\n      swap1\n      dup2\n      dup2\n      mstore\n      0x20\n      add\n      dup3\n      dup1\n      sload\n      tag_131\n      swap1\n      tag_58\n      jump\t// in\n    tag_131:\n      dup1\n      iszero\n      tag_132\n      jumpi\n      dup1\n      0x1f\n      lt\n      tag_133\n      jumpi\n      0x0100\n      dup1\n      dup4\n      sload\n      div\n      mul\n      dup4\n      mstore\n      swap2\n      0x20\n      add\n      swap2\n      jump(tag_132)\n    tag_133:\n      dup3\n      add\n      swap2\n      swap1\n      0x00\n      mstore\n      keccak256(0x00, 0x20)\n      swap1\n    tag_134:\n      dup2\n      sload\n      dup2\n      mstore\n      swap1\n      0x01\n      add\n      swap1\n      0x20\n      add\n      dup1\n      dup4\n      gt\n      tag_134\n      jumpi\n      dup3\n      swap1\n      sub\n      0x1f\n      and\n      dup3\n      add\n      swap2\n    tag_132:\n      pop\n      pop\n      pop\n      pop\n      pop\n      dup2\n      mstore\n      0x20\n      add\n      0x04\n      dup3\n      add\n      dup1\n      sload\n      tag_135\n      swap1\n      tag_58\n      jump\t// in\n    tag_135:\n      dup1\n      0x1f\n      add\n      0x20\n      dup1\n      swap2\n      div\n      mul\n      0x20\n      add\n      mload(0x40)\n      swap1\n      dup2\n      add\n      0x40\n      mstore\n      dup1\n      swap3\n      swap2\n      swap1\n      dup2\n      dup2\n      mstore\n      0x20\n      add\n      dup3\n      dup1\n      sload\n      tag_136\n      swap1\n      tag_58\n      jump\t// in\n    tag_136:\n      dup1\n      iszero\n      tag_137\n      jumpi\n      dup1\n      0x1f\n      lt\n      tag_138\n      jumpi\n      0x0100\n      dup1\n      dup4\n      sload\n      div\n      mul\n      dup4\n      mstore\n      swap2\n      0x20\n      add\n      swap2\n      jump(tag_137)\n    tag_138:\n      dup3\n      add\n      swap2\n      swap1\n      0x00\n      mstore\n      keccak256(0x00, 0x20)\n      swap1\n    tag_139:\n      dup2\n      sload\n      dup2\n      mstore\n      swap1\n      0x01\n      add\n      swap1\n      0x20\n      add\n      dup1\n      dup4\n      gt\n      tag_139\n      jumpi\n      dup3\n      swap1\n      sub\n      0x1f\n      and\n      dup3\n      add\n      swap2\n    tag_137:\n      pop\n      pop\n      pop\n      pop\n      pop\n      dup2\n      mstore\n      0x20\n      add\n      0x05\n      dup3\n      add\n      dup1\n      sload\n      tag_140\n      swap1\n      tag_58\n      jump\t// in\n    tag_140:\n      dup1\n      0x1f\n      add\n      0x20\n      dup1\n      swap2\n      div\n      mul\n      0x20\n      add\n      mload(0x40)\n      swap1\n      dup2\n      add\n      0x40\n      mstore\n      dup1\n      swap3\n      swap2\n      swap1\n      dup2\n      dup2\n      mstore\n      0x20\n      add\n      dup3\n      dup1\n      sload\n      tag_141\n      swap1\n      tag_58\n      jump\t// in\n    tag_141:\n      dup1\n      iszero\n      tag_142\n      jumpi\n      dup1\n      0x1f\n      lt\n      tag_143\n      jumpi\n      0x0100\n      dup1\n      dup4\n      sload\n      div\n      mul\n      dup4\n      mstore\n      swap2\n      0x20\n      add\n      swap2\n      jump(tag_142)\n    tag_143:\n      dup3\n      add\n      swap2\n      swap1\n      0x00\n      mstore\n      keccak256(0x00, 0x20)\n      swap1\n    tag_144:\n      dup2\n      sload\n      dup2\n      mstore\n      swap1\n      0x01\n      add\n      swap1\n      0x20\n      add\n      dup1\n      dup4\n      gt\n      tag_144\n      jumpi\n      dup3\n      swap1\n      sub\n      0x1f\n      and\n      dup3\n      add\n      swap2\n    tag_142:\n      pop\n      pop\n      pop\n      pop\n      pop\n      dup2\n      mstore\n      0x20\n      add\n      0x06\n      dup3\n      add\n      sload\n      dup2\n      mstore\n      0x20\n      add\n      0x07\n      dup3\n      add\n      sload\n      dup2\n      mstore\n      0x20\n      add\n      0x08\n      dup3\n      add\n      dup1\n      sload\n      tag_145\n      swap1\n      tag_58\n      jump\t// in\n    tag_145:\n      dup1\n      0x1f\n      add\n      0x20\n      dup1\n      swap2\n      div\n      mul\n      0x20\n      add\n      mload(0x40)\n      swap1\n      dup2\n      add\n      0x40\n      mstore\n      dup1\n      swap3\n      swap2\n      swap1\n      dup2\n      dup2\n      mstore\n      0x20\n      add\n      dup3\n      dup1\n      sload\n      tag_146\n      swap1\n      tag_58\n      jump\t// in\n    tag_146:\n      dup1\n      iszero\n      tag_147\n      jumpi\n      dup1\n      0x1f\n      lt\n      tag_148\n      jumpi\n      0x0100\n      dup1\n      dup4\n      sload\n      div\n      mul\n      dup4\n      mstore\n      swap2\n      0x20\n      add\n      swap2\n      jump(tag_147)\n    tag_148:\n      dup3\n      add\n      swap2\n      swap1\n      0x00\n      mstore\n      keccak256(0x00, 0x20)\n      swap1\n    tag_149:\n      dup2\n      sload\n      dup2\n      mstore\n      swap1\n      0x01\n      add\n      swap1\n      0x20\n      add\n      dup1\n      dup4\n      gt\n      tag_149\n      jumpi\n      dup3\n      swap1\n      sub\n      0x1f\n      and\n      dup3\n      add\n      swap2\n    tag_147:\n      pop\n      pop\n      pop\n      pop\n      pop\n      dup2\n      mstore\n      0x20\n      add\n      0x09\n      dup3\n      add\n      dup1\n      sload\n      tag_150\n      swap1\n      tag_58\n      jump\t// in\n    tag_150:\n      dup1\n      0x1f\n      add\n      0x20\n      dup1\n      swap2\n      div\n      mul\n      0x20\n      add\n      mload(0x40)\n      swap1\n      dup2\n      add\n      0x40\n      mstore\n      dup1\n      swap3\n      swap2\n      swap1\n      dup2\n      dup2\n      mstore\n      0x20\n      add\n      dup3\n      dup1\n      sload\n      tag_151\n      swap1\n      tag_58\n      jump\t// in\n    tag_151:\n      dup1\n      iszero\n      tag_152\n      jumpi\n      dup1\n      0x1f\n      lt\n      tag_153\n      jumpi\n      0x0100\n      dup1\n      dup4\n      sload\n      div\n      mul\n      dup4\n      mstore\n      swap2\n      0x20\n      add\n      swap2\n      jump(tag_152)\n    tag_153:\n      dup3\n      add\n      swap2\n      swap1\n      0x00\n      mstore\n      keccak256(0x00, 0x20)\n      swap1\n    tag_154:\n      dup2\n      sload\n      dup2\n      mstore\n      swap1\n      0x01\n      add\n      swap1\n      0x20\n      add\n      dup1\n      dup4\n      gt\n      tag_154\n      jumpi\n      dup3\n      swap1\n      sub\n      0x1f\n      and\n      dup3\n      add\n      swap2\n    tag_152:\n      pop\n      pop\n      pop\n      pop\n      pop\n      dup2\n      mstore\n      0x20\n      add\n      0x0a\n      dup3\n      add\n      sload\n      dup2\n      mstore\n      pop\n      pop\n        /* \"contracts/TransactionContract14Juni.sol\":2704:2719  allTransactions */\n      dup3\n        /* \"contracts/TransactionContract14Juni.sol\":2720:2721  i */\n      dup3\n        /* \"contracts/TransactionContract14Juni.sol\":2704:2722  allTransactions[i] */\n      dup2\n      mload\n      dup2\n      lt\n      tag_155\n      jumpi\n      tag_156\n      tag_111\n      jump\t// in\n    tag_156:\n    tag_155:\n      0x20\n      mul\n      0x20\n      add\n      add\n        /* \"contracts/TransactionContract14Juni.sol\":2704:2758  allTransactions[i] = transactions[transactionCodes[i]] */\n      dup2\n      swap1\n      mstore\n      pop\n        /* \"contracts/TransactionContract14Juni.sol\":2685:2688  i++ */\n      dup1\n      dup1\n      tag_157\n      swap1\n      tag_158\n      jump\t// in\n    tag_157:\n      swap2\n      pop\n      pop\n        /* \"contracts/TransactionContract14Juni.sol\":2639:2769  for (uint i = 0; i < transactionCodes.length; i++) {... */\n      jump(tag_106)\n    tag_107:\n      pop\n        /* \"contracts/TransactionContract14Juni.sol\":2785:2800  allTransactions */\n      dup1\n        /* \"contracts/TransactionContract14Juni.sol\":2778:2800  return allTransactions */\n      swap2\n      pop\n      pop\n        /* \"contracts/TransactionContract14Juni.sol\":2443:2807  function getAllTransactions() public view returns (Transaction[] memory) {... */\n      swap1\n      jump\t// out\n        /* \"contracts/TransactionContract14Juni.sol\":3631:4208  function updatePaymentProof(... */\n    tag_27:\n        /* \"contracts/TransactionContract14Juni.sol\":3847:3848  0 */\n      0x00\n        /* \"contracts/TransactionContract14Juni.sol\":3789:3801  transactions */\n      dup1\n        /* \"contracts/TransactionContract14Juni.sol\":3802:3818  _transactionCode */\n      dup4\n        /* \"contracts/TransactionContract14Juni.sol\":3789:3819  transactions[_transactionCode] */\n      mload(0x40)\n      tag_160\n      swap2\n      swap1\n      tag_161\n      jump\t// in\n    tag_160:\n      swap1\n      dup2\n      mstore\n      0x20\n      add\n      mload(0x40)\n      dup1\n      swap2\n      sub\n      swap1\n      keccak256\n        /* \"contracts/TransactionContract14Juni.sol\":3789:3835  transactions[_transactionCode].transactionCode */\n      0x00\n      add\n        /* \"contracts/TransactionContract14Juni.sol\":3783:3843  bytes(transactions[_transactionCode].transactionCode).length */\n      dup1\n      sload\n      tag_162\n      swap1\n      tag_58\n      jump\t// in\n    tag_162:\n      swap1\n      pop\n        /* \"contracts/TransactionContract14Juni.sol\":3783:3848  bytes(transactions[_transactionCode].transactionCode).length != 0 */\n      sub\n        /* \"contracts/TransactionContract14Juni.sol\":3762:3900  require(... */\n      tag_163\n      jumpi\n      mload(0x40)\n      0x08c379a000000000000000000000000000000000000000000000000000000000\n      dup2\n      mstore\n      0x04\n      add\n      tag_164\n      swap1\n      tag_165\n      jump\t// in\n    tag_164:\n      mload(0x40)\n      dup1\n      swap2\n      sub\n      swap1\n      revert\n    tag_163:\n        /* \"contracts/TransactionContract14Juni.sol\":3956:3972  _newPaymentProof */\n      dup1\n        /* \"contracts/TransactionContract14Juni.sol\":3910:3922  transactions */\n      0x00\n        /* \"contracts/TransactionContract14Juni.sol\":3923:3939  _transactionCode */\n      dup4\n        /* \"contracts/TransactionContract14Juni.sol\":3910:3940  transactions[_transactionCode] */\n      mload(0x40)\n      tag_166\n      swap2\n      swap1\n      tag_161\n      jump\t// in\n    tag_166:\n      swap1\n      dup2\n      mstore\n      0x20\n      add\n      mload(0x40)\n      dup1\n      swap2\n      sub\n      swap1\n      keccak256\n        /* \"contracts/TransactionContract14Juni.sol\":3910:3953  transactions[_transactionCode].paymentProof */\n      0x09\n      add\n        /* \"contracts/TransactionContract14Juni.sol\":3910:3972  transactions[_transactionCode].paymentProof = _newPaymentProof */\n      swap1\n      dup2\n      tag_167\n      swap2\n      swap1\n      tag_168\n      jump\t// in\n    tag_167:\n      pop\n        /* \"contracts/TransactionContract14Juni.sol\":3982:4035  transactions[_transactionCode].paymentStatus = \"paid\" */\n      mload(0x40)\n      dup1\n      0x40\n      add\n      0x40\n      mstore\n      dup1\n      0x04\n      dup2\n      mstore\n      0x20\n      add\n      0x7061696400000000000000000000000000000000000000000000000000000000\n      dup2\n      mstore\n      pop\n        /* \"contracts/TransactionContract14Juni.sol\":3982:3994  transactions */\n      0x00\n        /* \"contracts/TransactionContract14Juni.sol\":3995:4011  _transactionCode */\n      dup4\n        /* \"contracts/TransactionContract14Juni.sol\":3982:4012  transactions[_transactionCode] */\n      mload(0x40)\n      tag_169\n      swap2\n      swap1\n      tag_161\n      jump\t// in\n    tag_169:\n      swap1\n      dup2\n      mstore\n      0x20\n      add\n      mload(0x40)\n      dup1\n      swap2\n      sub\n      swap1\n      keccak256\n        /* \"contracts/TransactionContract14Juni.sol\":3982:4026  transactions[_transactionCode].paymentStatus */\n      0x04\n      add\n        /* \"contracts/TransactionContract14Juni.sol\":3982:4035  transactions[_transactionCode].paymentStatus = \"paid\" */\n      swap1\n      dup2\n      tag_170\n      swap2\n      swap1\n      tag_168\n      jump\t// in\n    tag_170:\n      pop\n        /* \"contracts/TransactionContract14Juni.sol\":4085:4140  PaymentProofUpdated(_transactionCode, _newPaymentProof) */\n      0x186c2b6377d1e8f7a4f2acb5a42183967f7d748c4c6e91d623ed00da8f01417d\n        /* \"contracts/TransactionContract14Juni.sol\":4105:4121  _transactionCode */\n      dup3\n        /* \"contracts/TransactionContract14Juni.sol\":4123:4139  _newPaymentProof */\n      dup3\n        /* \"contracts/TransactionContract14Juni.sol\":4085:4140  PaymentProofUpdated(_transactionCode, _newPaymentProof) */\n      mload(0x40)\n      tag_171\n      swap3\n      swap2\n      swap1\n      tag_172\n      jump\t// in\n    tag_171:\n      mload(0x40)\n      dup1\n      swap2\n      sub\n      swap1\n      log1\n        /* \"contracts/TransactionContract14Juni.sol\":4155:4201  PaymentStatusUpdated(_transactionCode, \"paid\") */\n      0xc61ffb03925558d248fba37b73270b12903d3f0ba5797af8b71a9f8bf0761a98\n        /* \"contracts/TransactionContract14Juni.sol\":4176:4192  _transactionCode */\n      dup3\n        /* \"contracts/TransactionContract14Juni.sol\":4155:4201  PaymentStatusUpdated(_transactionCode, \"paid\") */\n      mload(0x40)\n      tag_173\n      swap2\n      swap1\n      tag_174\n      jump\t// in\n    tag_173:\n      mload(0x40)\n      dup1\n      swap2\n      sub\n      swap1\n      log1\n        /* \"contracts/TransactionContract14Juni.sol\":3631:4208  function updatePaymentProof(... */\n      pop\n      pop\n      jump\t// out\n        /* \"contracts/TransactionContract14Juni.sol\":2813:3195  function updateStatus(... */\n    tag_30:\n        /* \"contracts/TransactionContract14Juni.sol\":3017:3018  0 */\n      0x00\n        /* \"contracts/TransactionContract14Juni.sol\":2959:2971  transactions */\n      dup1\n        /* \"contracts/TransactionContract14Juni.sol\":2972:2988  _transactionCode */\n      dup4\n        /* \"contracts/TransactionContract14Juni.sol\":2959:2989  transactions[_transactionCode] */\n      mload(0x40)\n      tag_176\n      swap2\n      swap1\n      tag_161\n      jump\t// in\n    tag_176:\n      swap1\n      dup2\n      mstore\n      0x20\n      add\n      mload(0x40)\n      dup1\n      swap2\n      sub\n      swap1\n      keccak256\n        /* \"contracts/TransactionContract14Juni.sol\":2959:3005  transactions[_transactionCode].transactionCode */\n      0x00\n      add\n        /* \"contracts/TransactionContract14Juni.sol\":2953:3013  bytes(transactions[_transactionCode].transactionCode).length */\n      dup1\n      sload\n      tag_177\n      swap1\n      tag_58\n      jump\t// in\n    tag_177:\n      swap1\n      pop\n        /* \"contracts/TransactionContract14Juni.sol\":2953:3018  bytes(transactions[_transactionCode].transactionCode).length != 0 */\n      sub\n        /* \"contracts/TransactionContract14Juni.sol\":2932:3070  require(... */\n      tag_178\n      jumpi\n      mload(0x40)\n      0x08c379a000000000000000000000000000000000000000000000000000000000\n      dup2\n      mstore\n      0x04\n      add\n      tag_179\n      swap1\n      tag_165\n      jump\t// in\n    tag_179:\n      mload(0x40)\n      dup1\n      swap2\n      sub\n      swap1\n      revert\n    tag_178:\n        /* \"contracts/TransactionContract14Juni.sol\":3120:3130  _newStatus */\n      dup1\n        /* \"contracts/TransactionContract14Juni.sol\":3080:3092  transactions */\n      0x00\n        /* \"contracts/TransactionContract14Juni.sol\":3093:3109  _transactionCode */\n      dup4\n        /* \"contracts/TransactionContract14Juni.sol\":3080:3110  transactions[_transactionCode] */\n      mload(0x40)\n      tag_180\n      swap2\n      swap1\n      tag_161\n      jump\t// in\n    tag_180:\n      swap1\n      dup2\n      mstore\n      0x20\n      add\n      mload(0x40)\n      dup1\n      swap2\n      sub\n      swap1\n      keccak256\n        /* \"contracts/TransactionContract14Juni.sol\":3080:3117  transactions[_transactionCode].status */\n      0x05\n      add\n        /* \"contracts/TransactionContract14Juni.sol\":3080:3130  transactions[_transactionCode].status = _newStatus */\n      swap1\n      dup2\n      tag_181\n      swap2\n      swap1\n      tag_168\n      jump\t// in\n    tag_181:\n      pop\n        /* \"contracts/TransactionContract14Juni.sol\":3145:3188  StatusUpdated(_transactionCode, _newStatus) */\n      0xb75b1fec1bc9156569ae9f72fb29c6e6727b297e191d358465fff4c09d8f7d26\n        /* \"contracts/TransactionContract14Juni.sol\":3159:3175  _transactionCode */\n      dup3\n        /* \"contracts/TransactionContract14Juni.sol\":3177:3187  _newStatus */\n      dup3\n        /* \"contracts/TransactionContract14Juni.sol\":3145:3188  StatusUpdated(_transactionCode, _newStatus) */\n      mload(0x40)\n      tag_182\n      swap3\n      swap2\n      swap1\n      tag_172\n      jump\t// in\n    tag_182:\n      mload(0x40)\n      dup1\n      swap2\n      sub\n      swap1\n      log1\n        /* \"contracts/TransactionContract14Juni.sol\":2813:3195  function updateStatus(... */\n      pop\n      pop\n      jump\t// out\n        /* \"contracts/TransactionContract14Juni.sol\":542:574  string[] public transactionCodes */\n    tag_34:\n      0x01\n      dup2\n      dup2\n      sload\n      dup2\n      lt\n      tag_183\n      jumpi\n      0x00\n      dup1\n      revert\n    tag_183:\n      swap1\n      0x00\n      mstore\n      keccak256(0x00, 0x20)\n      add\n      0x00\n      swap2\n      pop\n      swap1\n      pop\n      dup1\n      sload\n      tag_185\n      swap1\n      tag_58\n      jump\t// in\n    tag_185:\n      dup1\n      0x1f\n      add\n      0x20\n      dup1\n      swap2\n      div\n      mul\n      0x20\n      add\n      mload(0x40)\n      swap1\n      dup2\n      add\n      0x40\n      mstore\n      dup1\n      swap3\n      swap2\n      swap1\n      dup2\n      dup2\n      mstore\n      0x20\n      add\n      dup3\n      dup1\n      sload\n      tag_186\n      swap1\n      tag_58\n      jump\t// in\n    tag_186:\n      dup1\n      iszero\n      tag_187\n      jumpi\n      dup1\n      0x1f\n      lt\n      tag_188\n      jumpi\n      0x0100\n      dup1\n      dup4\n      sload\n      div\n      mul\n      dup4\n      mstore\n      swap2\n      0x20\n      add\n      swap2\n      jump(tag_187)\n    tag_188:\n      dup3\n      add\n      swap2\n      swap1\n      0x00\n      mstore\n      keccak256(0x00, 0x20)\n      swap1\n    tag_189:\n      dup2\n      sload\n      dup2\n      mstore\n      swap1\n      0x01\n      add\n      swap1\n      0x20\n      add\n      dup1\n      dup4\n      gt\n      tag_189\n      jumpi\n      dup3\n      swap1\n      sub\n      0x1f\n      and\n      dup3\n      add\n      swap2\n    tag_187:\n      pop\n      pop\n      pop\n      pop\n      pop\n      dup2\n      jump\t// out\n        /* \"contracts/TransactionContract14Juni.sol\":4214:5109  function getTransactionByFromToUserId(... */\n    tag_39:\n        /* \"contracts/TransactionContract14Juni.sol\":4316:4336  Transaction[] memory */\n      0x60\n        /* \"contracts/TransactionContract14Juni.sol\":4348:4358  uint count */\n      0x00\n        /* \"contracts/TransactionContract14Juni.sol\":4377:4383  uint i */\n      dup1\n        /* \"contracts/TransactionContract14Juni.sol\":4372:4644  for (uint i = 0; i < transactionCodes.length; i++) {... */\n    tag_191:\n        /* \"contracts/TransactionContract14Juni.sol\":4393:4409  transactionCodes */\n      0x01\n        /* \"contracts/TransactionContract14Juni.sol\":4393:4416  transactionCodes.length */\n      dup1\n      sload\n      swap1\n      pop\n        /* \"contracts/TransactionContract14Juni.sol\":4389:4390  i */\n      dup2\n        /* \"contracts/TransactionContract14Juni.sol\":4389:4416  i < transactionCodes.length */\n      lt\n        /* \"contracts/TransactionContract14Juni.sol\":4372:4644  for (uint i = 0; i < transactionCodes.length; i++) {... */\n      iszero\n      tag_192\n      jumpi\n        /* \"contracts/TransactionContract14Juni.sol\":4564:4577  _fromToUserId */\n      dup4\n        /* \"contracts/TransactionContract14Juni.sol\":4547:4578  abi.encodePacked(_fromToUserId) */\n      add(0x20, mload(0x40))\n      tag_194\n      swap2\n      swap1\n      tag_161\n      jump\t// in\n    tag_194:\n      mload(0x40)\n      0x20\n      dup2\n      dup4\n      sub\n      sub\n      dup2\n      mstore\n      swap1\n      0x40\n      mstore\n        /* \"contracts/TransactionContract14Juni.sol\":4537:4579  keccak256(abi.encodePacked(_fromToUserId)) */\n      dup1\n      mload\n      swap1\n      0x20\n      add\n      keccak256\n        /* \"contracts/TransactionContract14Juni.sol\":4485:4497  transactions */\n      0x00\n        /* \"contracts/TransactionContract14Juni.sol\":4498:4514  transactionCodes */\n      0x01\n        /* \"contracts/TransactionContract14Juni.sol\":4515:4516  i */\n      dup4\n        /* \"contracts/TransactionContract14Juni.sol\":4498:4517  transactionCodes[i] */\n      dup2\n      sload\n      dup2\n      lt\n      tag_195\n      jumpi\n      tag_196\n      tag_111\n      jump\t// in\n    tag_196:\n    tag_195:\n      swap1\n      0x00\n      mstore\n      keccak256(0x00, 0x20)\n      add\n        /* \"contracts/TransactionContract14Juni.sol\":4485:4518  transactions[transactionCodes[i]] */\n      mload(0x40)\n      tag_198\n      swap2\n      swap1\n      tag_114\n      jump\t// in\n    tag_198:\n      swap1\n      dup2\n      mstore\n      0x20\n      add\n      mload(0x40)\n      dup1\n      swap2\n      sub\n      swap1\n      keccak256\n        /* \"contracts/TransactionContract14Juni.sol\":4485:4531  transactions[transactionCodes[i]].fromToUserId */\n      0x02\n      add\n        /* \"contracts/TransactionContract14Juni.sol\":4468:4532  abi.encodePacked(transactions[transactionCodes[i]].fromToUserId) */\n      add(0x20, mload(0x40))\n      tag_199\n      swap2\n      swap1\n      tag_114\n      jump\t// in\n    tag_199:\n      mload(0x40)\n      0x20\n      dup2\n      dup4\n      sub\n      sub\n      dup2\n      mstore\n      swap1\n      0x40\n      mstore\n        /* \"contracts/TransactionContract14Juni.sol\":4458:4533  keccak256(abi.encodePacked(transactions[transactionCodes[i]].fromToUserId)) */\n      dup1\n      mload\n      swap1\n      0x20\n      add\n      keccak256\n        /* \"contracts/TransactionContract14Juni.sol\":4458:4579  keccak256(abi.encodePacked(transactions[transactionCodes[i]].fromToUserId)) == keccak256(abi.encodePacked(_fromToUserId)) */\n      sub\n        /* \"contracts/TransactionContract14Juni.sol\":4437:4634  if (... */\n      tag_200\n      jumpi\n        /* \"contracts/TransactionContract14Juni.sol\":4612:4619  count++ */\n      dup2\n      dup1\n      tag_201\n      swap1\n      tag_158\n      jump\t// in\n    tag_201:\n      swap3\n      pop\n      pop\n        /* \"contracts/TransactionContract14Juni.sol\":4437:4634  if (... */\n    tag_200:\n        /* \"contracts/TransactionContract14Juni.sol\":4418:4421  i++ */\n      dup1\n      dup1\n      tag_202\n      swap1\n      tag_158\n      jump\t// in\n    tag_202:\n      swap2\n      pop\n      pop\n        /* \"contracts/TransactionContract14Juni.sol\":4372:4644  for (uint i = 0; i < transactionCodes.length; i++) {... */\n      jump(tag_191)\n    tag_192:\n      pop\n        /* \"contracts/TransactionContract14Juni.sol\":4653:4680  Transaction[] memory result */\n      0x00\n        /* \"contracts/TransactionContract14Juni.sol\":4701:4706  count */\n      dup2\n        /* \"contracts/TransactionContract14Juni.sol\":4683:4707  new Transaction[](count) */\n      0xffffffffffffffff\n      dup2\n      gt\n      iszero\n      tag_203\n      jumpi\n      tag_204\n      tag_101\n      jump\t// in\n    tag_204:\n    tag_203:\n      mload(0x40)\n      swap1\n      dup1\n      dup3\n      mstore\n      dup1\n      0x20\n      mul\n      0x20\n      add\n      dup3\n      add\n      0x40\n      mstore\n      dup1\n      iszero\n      tag_205\n      jumpi\n      dup2\n      0x20\n      add\n    tag_206:\n      tag_207\n      tag_105\n      jump\t// in\n    tag_207:\n      dup2\n      mstore\n      0x20\n      add\n      swap1\n      0x01\n      swap1\n      sub\n      swap1\n      dup2\n      tag_206\n      jumpi\n      swap1\n      pop\n    tag_205:\n      pop\n        /* \"contracts/TransactionContract14Juni.sol\":4653:4707  Transaction[] memory result = new Transaction[](count) */\n      swap1\n      pop\n        /* \"contracts/TransactionContract14Juni.sol\":4717:4727  uint index */\n      0x00\n        /* \"contracts/TransactionContract14Juni.sol\":4746:4752  uint i */\n      dup1\n        /* \"contracts/TransactionContract14Juni.sol\":4741:5080  for (uint i = 0; i < transactionCodes.length; i++) {... */\n    tag_208:\n        /* \"contracts/TransactionContract14Juni.sol\":4762:4778  transactionCodes */\n      0x01\n        /* \"contracts/TransactionContract14Juni.sol\":4762:4785  transactionCodes.length */\n      dup1\n      sload\n      swap1\n      pop\n        /* \"contracts/TransactionContract14Juni.sol\":4758:4759  i */\n      dup2\n        /* \"contracts/TransactionContract14Juni.sol\":4758:4785  i < transactionCodes.length */\n      lt\n        /* \"contracts/TransactionContract14Juni.sol\":4741:5080  for (uint i = 0; i < transactionCodes.length; i++) {... */\n      iszero\n      tag_209\n      jumpi\n        /* \"contracts/TransactionContract14Juni.sol\":4933:4946  _fromToUserId */\n      dup6\n        /* \"contracts/TransactionContract14Juni.sol\":4916:4947  abi.encodePacked(_fromToUserId) */\n      add(0x20, mload(0x40))\n      tag_211\n      swap2\n      swap1\n      tag_161\n      jump\t// in\n    tag_211:\n      mload(0x40)\n      0x20\n      dup2\n      dup4\n      sub\n      sub\n      dup2\n      mstore\n      swap1\n      0x40\n      mstore\n        /* \"contracts/TransactionContract14Juni.sol\":4906:4948  keccak256(abi.encodePacked(_fromToUserId)) */\n      dup1\n      mload\n      swap1\n      0x20\n      add\n      keccak256\n        /* \"contracts/TransactionContract14Juni.sol\":4854:4866  transactions */\n      0x00\n        /* \"contracts/TransactionContract14Juni.sol\":4867:4883  transactionCodes */\n      0x01\n        /* \"contracts/TransactionContract14Juni.sol\":4884:4885  i */\n      dup4\n        /* \"contracts/TransactionContract14Juni.sol\":4867:4886  transactionCodes[i] */\n      dup2\n      sload\n      dup2\n      lt\n      tag_212\n      jumpi\n      tag_213\n      tag_111\n      jump\t// in\n    tag_213:\n    tag_212:\n      swap1\n      0x00\n      mstore\n      keccak256(0x00, 0x20)\n      add\n        /* \"contracts/TransactionContract14Juni.sol\":4854:4887  transactions[transactionCodes[i]] */\n      mload(0x40)\n      tag_215\n      swap2\n      swap1\n      tag_114\n      jump\t// in\n    tag_215:\n      swap1\n      dup2\n      mstore\n      0x20\n      add\n      mload(0x40)\n      dup1\n      swap2\n      sub\n      swap1\n      keccak256\n        /* \"contracts/TransactionContract14Juni.sol\":4854:4900  transactions[transactionCodes[i]].fromToUserId */\n      0x02\n      add\n        /* \"contracts/TransactionContract14Juni.sol\":4837:4901  abi.encodePacked(transactions[transactionCodes[i]].fromToUserId) */\n      add(0x20, mload(0x40))\n      tag_216\n      swap2\n      swap1\n      tag_114\n      jump\t// in\n    tag_216:\n      mload(0x40)\n      0x20\n      dup2\n      dup4\n      sub\n      sub\n      dup2\n      mstore\n      swap1\n      0x40\n      mstore\n        /* \"contracts/TransactionContract14Juni.sol\":4827:4902  keccak256(abi.encodePacked(transactions[transactionCodes[i]].fromToUserId)) */\n      dup1\n      mload\n      swap1\n      0x20\n      add\n      keccak256\n        /* \"contracts/TransactionContract14Juni.sol\":4827:4948  keccak256(abi.encodePacked(transactions[transactionCodes[i]].fromToUserId)) == keccak256(abi.encodePacked(_fromToUserId)) */\n      sub\n        /* \"contracts/TransactionContract14Juni.sol\":4806:5070  if (... */\n      tag_217\n      jumpi\n        /* \"contracts/TransactionContract14Juni.sol\":4997:5009  transactions */\n      0x00\n        /* \"contracts/TransactionContract14Juni.sol\":5010:5026  transactionCodes */\n      0x01\n        /* \"contracts/TransactionContract14Juni.sol\":5027:5028  i */\n      dup3\n        /* \"contracts/TransactionContract14Juni.sol\":5010:5029  transactionCodes[i] */\n      dup2\n      sload\n      dup2\n      lt\n      tag_218\n      jumpi\n      tag_219\n      tag_111\n      jump\t// in\n    tag_219:\n    tag_218:\n      swap1\n      0x00\n      mstore\n      keccak256(0x00, 0x20)\n      add\n        /* \"contracts/TransactionContract14Juni.sol\":4997:5030  transactions[transactionCodes[i]] */\n      mload(0x40)\n      tag_221\n      swap2\n      swap1\n      tag_114\n      jump\t// in\n    tag_221:\n      swap1\n      dup2\n      mstore\n      0x20\n      add\n      mload(0x40)\n      dup1\n      swap2\n      sub\n      swap1\n      keccak256\n        /* \"contracts/TransactionContract14Juni.sol\":4981:5030  result[index] = transactions[transactionCodes[i]] */\n      mload(0x40)\n      dup1\n      0x0160\n      add\n      0x40\n      mstore\n      swap1\n      dup2\n      0x00\n      dup3\n      add\n      dup1\n      sload\n      tag_222\n      swap1\n      tag_58\n      jump\t// in\n    tag_222:\n      dup1\n      0x1f\n      add\n      0x20\n      dup1\n      swap2\n      div\n      mul\n      0x20\n      add\n      mload(0x40)\n      swap1\n      dup2\n      add\n      0x40\n      mstore\n      dup1\n      swap3\n      swap2\n      swap1\n      dup2\n      dup2\n      mstore\n      0x20\n      add\n      dup3\n      dup1\n      sload\n      tag_223\n      swap1\n      tag_58\n      jump\t// in\n    tag_223:\n      dup1\n      iszero\n      tag_224\n      jumpi\n      dup1\n      0x1f\n      lt\n      tag_225\n      jumpi\n      0x0100\n      dup1\n      dup4\n      sload\n      div\n      mul\n      dup4\n      mstore\n      swap2\n      0x20\n      add\n      swap2\n      jump(tag_224)\n    tag_225:\n      dup3\n      add\n      swap2\n      swap1\n      0x00\n      mstore\n      keccak256(0x00, 0x20)\n      swap1\n    tag_226:\n      dup2\n      sload\n      dup2\n      mstore\n      swap1\n      0x01\n      add\n      swap1\n      0x20\n      add\n      dup1\n      dup4\n      gt\n      tag_226\n      jumpi\n      dup3\n      swap1\n      sub\n      0x1f\n      and\n      dup3\n      add\n      swap2\n    tag_224:\n      pop\n      pop\n      pop\n      pop\n      pop\n      dup2\n      mstore\n      0x20\n      add\n      0x01\n      dup3\n      add\n      dup1\n      sload\n      tag_227\n      swap1\n      tag_58\n      jump\t// in\n    tag_227:\n      dup1\n      0x1f\n      add\n      0x20\n      dup1\n      swap2\n      div\n      mul\n      0x20\n      add\n      mload(0x40)\n      swap1\n      dup2\n      add\n      0x40\n      mstore\n      dup1\n      swap3\n      swap2\n      swap1\n      dup2\n      dup2\n      mstore\n      0x20\n      add\n      dup3\n      dup1\n      sload\n      tag_228\n      swap1\n      tag_58\n      jump\t// in\n    tag_228:\n      dup1\n      iszero\n      tag_229\n      jumpi\n      dup1\n      0x1f\n      lt\n      tag_230\n      jumpi\n      0x0100\n      dup1\n      dup4\n      sload\n      div\n      mul\n      dup4\n      mstore\n      swap2\n      0x20\n      add\n      swap2\n      jump(tag_229)\n    tag_230:\n      dup3\n      add\n      swap2\n      swap1\n      0x00\n      mstore\n      keccak256(0x00, 0x20)\n      swap1\n    tag_231:\n      dup2\n      sload\n      dup2\n      mstore\n      swap1\n      0x01\n      add\n      swap1\n      0x20\n      add\n      dup1\n      dup4\n      gt\n      tag_231\n      jumpi\n      dup3\n      swap1\n      sub\n      0x1f\n      and\n      dup3\n      add\n      swap2\n    tag_229:\n      pop\n      pop\n      pop\n      pop\n      pop\n      dup2\n      mstore\n      0x20\n      add\n      0x02\n      dup3\n      add\n      dup1\n      sload\n      tag_232\n      swap1\n      tag_58\n      jump\t// in\n    tag_232:\n      dup1\n      0x1f\n      add\n      0x20\n      dup1\n      swap2\n      div\n      mul\n      0x20\n      add\n      mload(0x40)\n      swap1\n      dup2\n      add\n      0x40\n      mstore\n      dup1\n      swap3\n      swap2\n      swap1\n      dup2\n      dup2\n      mstore\n      0x20\n      add\n      dup3\n      dup1\n      sload\n      tag_233\n      swap1\n      tag_58\n      jump\t// in\n    tag_233:\n      dup1\n      iszero\n      tag_234\n      jumpi\n      dup1\n      0x1f\n      lt\n      tag_235\n      jumpi\n      0x0100\n      dup1\n      dup4\n      sload\n      div\n      mul\n      dup4\n      mstore\n      swap2\n      0x20\n      add\n      swap2\n      jump(tag_234)\n    tag_235:\n      dup3\n      add\n      swap2\n      swap1\n      0x00\n      mstore\n      keccak256(0x00, 0x20)\n      swap1\n    tag_236:\n      dup2\n      sload\n      dup2\n      mstore\n      swap1\n      0x01\n      add\n      swap1\n      0x20\n      add\n      dup1\n      dup4\n      gt\n      tag_236\n      jumpi\n      dup3\n      swap1\n      sub\n      0x1f\n      and\n      dup3\n      add\n      swap2\n    tag_234:\n      pop\n      pop\n      pop\n      pop\n      pop\n      dup2\n      mstore\n      0x20\n      add\n      0x03\n      dup3\n      add\n      dup1\n      sload\n      tag_237\n      swap1\n      tag_58\n      jump\t// in\n    tag_237:\n      dup1\n      0x1f\n      add\n      0x20\n      dup1\n      swap2\n      div\n      mul\n      0x20\n      add\n      mload(0x40)\n      swap1\n      dup2\n      add\n      0x40\n      mstore\n      dup1\n      swap3\n      swap2\n      swap1\n      dup2\n      dup2\n      mstore\n      0x20\n      add\n      dup3\n      dup1\n      sload\n      tag_238\n      swap1\n      tag_58\n      jump\t// in\n    tag_238:\n      dup1\n      iszero\n      tag_239\n      jumpi\n      dup1\n      0x1f\n      lt\n      tag_240\n      jumpi\n      0x0100\n      dup1\n      dup4\n      sload\n      div\n      mul\n      dup4\n      mstore\n      swap2\n      0x20\n      add\n      swap2\n      jump(tag_239)\n    tag_240:\n      dup3\n      add\n      swap2\n      swap1\n      0x00\n      mstore\n      keccak256(0x00, 0x20)\n      swap1\n    tag_241:\n      dup2\n      sload\n      dup2\n      mstore\n      swap1\n      0x01\n      add\n      swap1\n      0x20\n      add\n      dup1\n      dup4\n      gt\n      tag_241\n      jumpi\n      dup3\n      swap1\n      sub\n      0x1f\n      and\n      dup3\n      add\n      swap2\n    tag_239:\n      pop\n      pop\n      pop\n      pop\n      pop\n      dup2\n      mstore\n      0x20\n      add\n      0x04\n      dup3\n      add\n      dup1\n      sload\n      tag_242\n      swap1\n      tag_58\n      jump\t// in\n    tag_242:\n      dup1\n      0x1f\n      add\n      0x20\n      dup1\n      swap2\n      div\n      mul\n      0x20\n      add\n      mload(0x40)\n      swap1\n      dup2\n      add\n      0x40\n      mstore\n      dup1\n      swap3\n      swap2\n      swap1\n      dup2\n      dup2\n      mstore\n      0x20\n      add\n      dup3\n      dup1\n      sload\n      tag_243\n      swap1\n      tag_58\n      jump\t// in\n    tag_243:\n      dup1\n      iszero\n      tag_244\n      jumpi\n      dup1\n      0x1f\n      lt\n      tag_245\n      jumpi\n      0x0100\n      dup1\n      dup4\n      sload\n      div\n      mul\n      dup4\n      mstore\n      swap2\n      0x20\n      add\n      swap2\n      jump(tag_244)\n    tag_245:\n      dup3\n      add\n      swap2\n      swap1\n      0x00\n      mstore\n      keccak256(0x00, 0x20)\n      swap1\n    tag_246:\n      dup2\n      sload\n      dup2\n      mstore\n      swap1\n      0x01\n      add\n      swap1\n      0x20\n      add\n      dup1\n      dup4\n      gt\n      tag_246\n      jumpi\n      dup3\n      swap1\n      sub\n      0x1f\n      and\n      dup3\n      add\n      swap2\n    tag_244:\n      pop\n      pop\n      pop\n      pop\n      pop\n      dup2\n      mstore\n      0x20\n      add\n      0x05\n      dup3\n      add\n      dup1\n      sload\n      tag_247\n      swap1\n      tag_58\n      jump\t// in\n    tag_247:\n      dup1\n      0x1f\n      add\n      0x20\n      dup1\n      swap2\n      div\n      mul\n      0x20\n      add\n      mload(0x40)\n      swap1\n      dup2\n      add\n      0x40\n      mstore\n      dup1\n      swap3\n      swap2\n      swap1\n      dup2\n      dup2\n      mstore\n      0x20\n      add\n      dup3\n      dup1\n      sload\n      tag_248\n      swap1\n      tag_58\n      jump\t// in\n    tag_248:\n      dup1\n      iszero\n      tag_249\n      jumpi\n      dup1\n      0x1f\n      lt\n      tag_250\n      jumpi\n      0x0100\n      dup1\n      dup4\n      sload\n      div\n      mul\n      dup4\n      mstore\n      swap2\n      0x20\n      add\n      swap2\n      jump(tag_249)\n    tag_250:\n      dup3\n      add\n      swap2\n      swap1\n      0x00\n      mstore\n      keccak256(0x00, 0x20)\n      swap1\n    tag_251:\n      dup2\n      sload\n      dup2\n      mstore\n      swap1\n      0x01\n      add\n      swap1\n      0x20\n      add\n      dup1\n      dup4\n      gt\n      tag_251\n      jumpi\n      dup3\n      swap1\n      sub\n      0x1f\n      and\n      dup3\n      add\n      swap2\n    tag_249:\n      pop\n      pop\n      pop\n      pop\n      pop\n      dup2\n      mstore\n      0x20\n      add\n      0x06\n      dup3\n      add\n      sload\n      dup2\n      mstore\n      0x20\n      add\n      0x07\n      dup3\n      add\n      sload\n      dup2\n      mstore\n      0x20\n      add\n      0x08\n      dup3\n      add\n      dup1\n      sload\n      tag_252\n      swap1\n      tag_58\n      jump\t// in\n    tag_252:\n      dup1\n      0x1f\n      add\n      0x20\n      dup1\n      swap2\n      div\n      mul\n      0x20\n      add\n      mload(0x40)\n      swap1\n      dup2\n      add\n      0x40\n      mstore\n      dup1\n      swap3\n      swap2\n      swap1\n      dup2\n      dup2\n      mstore\n      0x20\n      add\n      dup3\n      dup1\n      sload\n      tag_253\n      swap1\n      tag_58\n      jump\t// in\n    tag_253:\n      dup1\n      iszero\n      tag_254\n      jumpi\n      dup1\n      0x1f\n      lt\n      tag_255\n      jumpi\n      0x0100\n      dup1\n      dup4\n      sload\n      div\n      mul\n      dup4\n      mstore\n      swap2\n      0x20\n      add\n      swap2\n      jump(tag_254)\n    tag_255:\n      dup3\n      add\n      swap2\n      swap1\n      0x00\n      mstore\n      keccak256(0x00, 0x20)\n      swap1\n    tag_256:\n      dup2\n      sload\n      dup2\n      mstore\n      swap1\n      0x01\n      add\n      swap1\n      0x20\n      add\n      dup1\n      dup4\n      gt\n      tag_256\n      jumpi\n      dup3\n      swap1\n      sub\n      0x1f\n      and\n      dup3\n      add\n      swap2\n    tag_254:\n      pop\n      pop\n      pop\n      pop\n      pop\n      dup2\n      mstore\n      0x20\n      add\n      0x09\n      dup3\n      add\n      dup1\n      sload\n      tag_257\n      swap1\n      tag_58\n      jump\t// in\n    tag_257:\n      dup1\n      0x1f\n      add\n      0x20\n      dup1\n      swap2\n      div\n      mul\n      0x20\n      add\n      mload(0x40)\n      swap1\n      dup2\n      add\n      0x40\n      mstore\n      dup1\n      swap3\n      swap2\n      swap1\n      dup2\n      dup2\n      mstore\n      0x20\n      add\n      dup3\n      dup1\n      sload\n      tag_258\n      swap1\n      tag_58\n      jump\t// in\n    tag_258:\n      dup1\n      iszero\n      tag_259\n      jumpi\n      dup1\n      0x1f\n      lt\n      tag_260\n      jumpi\n      0x0100\n      dup1\n      dup4\n      sload\n      div\n      mul\n      dup4\n      mstore\n      swap2\n      0x20\n      add\n      swap2\n      jump(tag_259)\n    tag_260:\n      dup3\n      add\n      swap2\n      swap1\n      0x00\n      mstore\n      keccak256(0x00, 0x20)\n      swap1\n    tag_261:\n      dup2\n      sload\n      dup2\n      mstore\n      swap1\n      0x01\n      add\n      swap1\n      0x20\n      add\n      dup1\n      dup4\n      gt\n      tag_261\n      jumpi\n      dup3\n      swap1\n      sub\n      0x1f\n      and\n      dup3\n      add\n      swap2\n    tag_259:\n      pop\n      pop\n      pop\n      pop\n      pop\n      dup2\n      mstore\n      0x20\n      add\n      0x0a\n      dup3\n      add\n      sload\n      dup2\n      mstore\n      pop\n      pop\n        /* \"contracts/TransactionContract14Juni.sol\":4981:4987  result */\n      dup4\n        /* \"contracts/TransactionContract14Juni.sol\":4988:4993  index */\n      dup4\n        /* \"contracts/TransactionContract14Juni.sol\":4981:4994  result[index] */\n      dup2\n      mload\n      dup2\n      lt\n      tag_262\n      jumpi\n      tag_263\n      tag_111\n      jump\t// in\n    tag_263:\n    tag_262:\n      0x20\n      mul\n      0x20\n      add\n      add\n        /* \"contracts/TransactionContract14Juni.sol\":4981:5030  result[index] = transactions[transactionCodes[i]] */\n      dup2\n      swap1\n      mstore\n      pop\n        /* \"contracts/TransactionContract14Juni.sol\":5048:5055  index++ */\n      dup2\n      dup1\n      tag_264\n      swap1\n      tag_158\n      jump\t// in\n    tag_264:\n      swap3\n      pop\n      pop\n        /* \"contracts/TransactionContract14Juni.sol\":4806:5070  if (... */\n    tag_217:\n        /* \"contracts/TransactionContract14Juni.sol\":4787:4790  i++ */\n      dup1\n      dup1\n      tag_265\n      swap1\n      tag_158\n      jump\t// in\n    tag_265:\n      swap2\n      pop\n      pop\n        /* \"contracts/TransactionContract14Juni.sol\":4741:5080  for (uint i = 0; i < transactionCodes.length; i++) {... */\n      jump(tag_208)\n    tag_209:\n      pop\n        /* \"contracts/TransactionContract14Juni.sol\":5096:5102  result */\n      dup2\n        /* \"contracts/TransactionContract14Juni.sol\":5089:5102  return result */\n      swap4\n      pop\n      pop\n      pop\n      pop\n        /* \"contracts/TransactionContract14Juni.sol\":4214:5109  function getTransactionByFromToUserId(... */\n      swap2\n      swap1\n      pop\n      jump\t// out\n        /* \"contracts/TransactionContract14Juni.sol\":1289:2437  function addTransaction(... */\n    tag_44:\n        /* \"contracts/TransactionContract14Juni.sol\":1708:2012  Transaction(... */\n      mload(0x40)\n      dup1\n      0x0160\n      add\n      0x40\n      mstore\n      dup1\n        /* \"contracts/TransactionContract14Juni.sol\":1733:1749  _transactionCode */\n      dup12\n        /* \"contracts/TransactionContract14Juni.sol\":1708:2012  Transaction(... */\n      dup2\n      mstore\n      0x20\n      add\n        /* \"contracts/TransactionContract14Juni.sol\":1763:1774  _campaignId */\n      dup11\n        /* \"contracts/TransactionContract14Juni.sol\":1708:2012  Transaction(... */\n      dup2\n      mstore\n      0x20\n      add\n        /* \"contracts/TransactionContract14Juni.sol\":1788:1801  _fromToUserId */\n      dup10\n        /* \"contracts/TransactionContract14Juni.sol\":1708:2012  Transaction(... */\n      dup2\n      mstore\n      0x20\n      add\n        /* \"contracts/TransactionContract14Juni.sol\":1815:1825  _orderType */\n      dup9\n        /* \"contracts/TransactionContract14Juni.sol\":1708:2012  Transaction(... */\n      dup2\n      mstore\n      0x20\n      add\n        /* \"contracts/TransactionContract14Juni.sol\":1839:1853  _paymentStatus */\n      dup8\n        /* \"contracts/TransactionContract14Juni.sol\":1708:2012  Transaction(... */\n      dup2\n      mstore\n      0x20\n      add\n        /* \"contracts/TransactionContract14Juni.sol\":1867:1874  _status */\n      dup7\n        /* \"contracts/TransactionContract14Juni.sol\":1708:2012  Transaction(... */\n      dup2\n      mstore\n      0x20\n      add\n        /* \"contracts/TransactionContract14Juni.sol\":1888:1897  _quantity */\n      dup6\n        /* \"contracts/TransactionContract14Juni.sol\":1708:2012  Transaction(... */\n      dup2\n      mstore\n      0x20\n      add\n        /* \"contracts/TransactionContract14Juni.sol\":1911:1922  _totalPrice */\n      dup5\n        /* \"contracts/TransactionContract14Juni.sol\":1708:2012  Transaction(... */\n      dup2\n      mstore\n      0x20\n      add\n        /* \"contracts/TransactionContract14Juni.sol\":1936:1958  _paymentMethodDetailId */\n      dup4\n        /* \"contracts/TransactionContract14Juni.sol\":1708:2012  Transaction(... */\n      dup2\n      mstore\n      0x20\n      add\n      mload(0x40)\n      dup1\n      0x40\n      add\n      0x40\n      mstore\n      dup1\n      0x04\n      dup2\n      mstore\n      0x20\n      add\n      0x6e756c6c00000000000000000000000000000000000000000000000000000000\n      dup2\n      mstore\n      pop\n      dup2\n      mstore\n      0x20\n      add\n        /* \"contracts/TransactionContract14Juni.sol\":1992:2002  _createdAt */\n      dup3\n        /* \"contracts/TransactionContract14Juni.sol\":1708:2012  Transaction(... */\n      dup2\n      mstore\n      pop\n        /* \"contracts/TransactionContract14Juni.sol\":1675:1687  transactions */\n      0x00\n        /* \"contracts/TransactionContract14Juni.sol\":1688:1704  _transactionCode */\n      dup12\n        /* \"contracts/TransactionContract14Juni.sol\":1675:1705  transactions[_transactionCode] */\n      mload(0x40)\n      tag_267\n      swap2\n      swap1\n      tag_161\n      jump\t// in\n    tag_267:\n      swap1\n      dup2\n      mstore\n      0x20\n      add\n      mload(0x40)\n      dup1\n      swap2\n      sub\n      swap1\n      keccak256\n        /* \"contracts/TransactionContract14Juni.sol\":1675:2012  transactions[_transactionCode] = Transaction(... */\n      0x00\n      dup3\n      add\n      mload\n      dup2\n      0x00\n      add\n      swap1\n      dup2\n      tag_268\n      swap2\n      swap1\n      tag_168\n      jump\t// in\n    tag_268:\n      pop\n      0x20\n      dup3\n      add\n      mload\n      dup2\n      0x01\n      add\n      swap1\n      dup2\n      tag_269\n      swap2\n      swap1\n      tag_168\n      jump\t// in\n    tag_269:\n      pop\n      0x40\n      dup3\n      add\n      mload\n      dup2\n      0x02\n      add\n      swap1\n      dup2\n      tag_270\n      swap2\n      swap1\n      tag_168\n      jump\t// in\n    tag_270:\n      pop\n      0x60\n      dup3\n      add\n      mload\n      dup2\n      0x03\n      add\n      swap1\n      dup2\n      tag_271\n      swap2\n      swap1\n      tag_168\n      jump\t// in\n    tag_271:\n      pop\n      0x80\n      dup3\n      add\n      mload\n      dup2\n      0x04\n      add\n      swap1\n      dup2\n      tag_272\n      swap2\n      swap1\n      tag_168\n      jump\t// in\n    tag_272:\n      pop\n      0xa0\n      dup3\n      add\n      mload\n      dup2\n      0x05\n      add\n      swap1\n      dup2\n      tag_273\n      swap2\n      swap1\n      tag_168\n      jump\t// in\n    tag_273:\n      pop\n      0xc0\n      dup3\n      add\n      mload\n      dup2\n      0x06\n      add\n      sstore\n      0xe0\n      dup3\n      add\n      mload\n      dup2\n      0x07\n      add\n      sstore\n      0x0100\n      dup3\n      add\n      mload\n      dup2\n      0x08\n      add\n      swap1\n      dup2\n      tag_274\n      swap2\n      swap1\n      tag_168\n      jump\t// in\n    tag_274:\n      pop\n      0x0120\n      dup3\n      add\n      mload\n      dup2\n      0x09\n      add\n      swap1\n      dup2\n      tag_275\n      swap2\n      swap1\n      tag_168\n      jump\t// in\n    tag_275:\n      pop\n      0x0140\n      dup3\n      add\n      mload\n      dup2\n      0x0a\n      add\n      sstore\n      swap1\n      pop\n      pop\n        /* \"contracts/TransactionContract14Juni.sol\":2023:2039  transactionCodes */\n      0x01\n        /* \"contracts/TransactionContract14Juni.sol\":2045:2061  _transactionCode */\n      dup11\n        /* \"contracts/TransactionContract14Juni.sol\":2023:2062  transactionCodes.push(_transactionCode) */\n      swap1\n      dup1\n      0x01\n      dup2\n      sload\n      add\n      dup1\n      dup3\n      sstore\n      dup1\n      swap2\n      pop\n      pop\n      0x01\n      swap1\n      sub\n      swap1\n      0x00\n      mstore\n      keccak256(0x00, 0x20)\n      add\n      0x00\n      swap1\n      swap2\n      swap1\n      swap2\n      swap1\n      swap2\n      pop\n      swap1\n      dup2\n      tag_277\n      swap2\n      swap1\n      tag_168\n      jump\t// in\n    tag_277:\n      pop\n        /* \"contracts/TransactionContract14Juni.sol\":2121:2430  TransactionAdded(... */\n      0x5cd3880a2112a5001c77c80fc5f3cc78f5e578532f8fac0609615fc2b10e4727\n        /* \"contracts/TransactionContract14Juni.sol\":2151:2167  _transactionCode */\n      dup11\n        /* \"contracts/TransactionContract14Juni.sol\":2181:2192  _campaignId */\n      dup11\n        /* \"contracts/TransactionContract14Juni.sol\":2206:2219  _fromToUserId */\n      dup11\n        /* \"contracts/TransactionContract14Juni.sol\":2233:2243  _orderType */\n      dup11\n        /* \"contracts/TransactionContract14Juni.sol\":2257:2271  _paymentStatus */\n      dup11\n        /* \"contracts/TransactionContract14Juni.sol\":2285:2292  _status */\n      dup11\n        /* \"contracts/TransactionContract14Juni.sol\":2306:2315  _quantity */\n      dup11\n        /* \"contracts/TransactionContract14Juni.sol\":2329:2340  _totalPrice */\n      dup11\n        /* \"contracts/TransactionContract14Juni.sol\":2354:2376  _paymentMethodDetailId */\n      dup11\n        /* \"contracts/TransactionContract14Juni.sol\":2410:2420  _createdAt */\n      dup11\n        /* \"contracts/TransactionContract14Juni.sol\":2121:2430  TransactionAdded(... */\n      mload(0x40)\n      tag_278\n      swap11\n      swap10\n      swap9\n      swap8\n      swap7\n      swap6\n      swap5\n      swap4\n      swap3\n      swap2\n      swap1\n      tag_279\n      jump\t// in\n    tag_278:\n      mload(0x40)\n      dup1\n      swap2\n      sub\n      swap1\n      log1\n        /* \"contracts/TransactionContract14Juni.sol\":1289:2437  function addTransaction(... */\n      pop\n      pop\n      pop\n      pop\n      pop\n      pop\n      pop\n      pop\n      pop\n      pop\n      jump\t// out\n        /* \"contracts/TransactionContract14Juni.sol\":5440:6323  function getTransactionByCampaignId(... */\n    tag_47:\n        /* \"contracts/TransactionContract14Juni.sol\":5538:5558  Transaction[] memory */\n      0x60\n        /* \"contracts/TransactionContract14Juni.sol\":5570:5580  uint count */\n      0x00\n        /* \"contracts/TransactionContract14Juni.sol\":5599:5605  uint i */\n      dup1\n        /* \"contracts/TransactionContract14Juni.sol\":5594:5862  for (uint i = 0; i < transactionCodes.length; i++) {... */\n    tag_281:\n        /* \"contracts/TransactionContract14Juni.sol\":5615:5631  transactionCodes */\n      0x01\n        /* \"contracts/TransactionContract14Juni.sol\":5615:5638  transactionCodes.length */\n      dup1\n      sload\n      swap1\n      pop\n        /* \"contracts/TransactionContract14Juni.sol\":5611:5612  i */\n      dup2\n        /* \"contracts/TransactionContract14Juni.sol\":5611:5638  i < transactionCodes.length */\n      lt\n        /* \"contracts/TransactionContract14Juni.sol\":5594:5862  for (uint i = 0; i < transactionCodes.length; i++) {... */\n      iszero\n      tag_282\n      jumpi\n        /* \"contracts/TransactionContract14Juni.sol\":5784:5795  _campaignId */\n      dup4\n        /* \"contracts/TransactionContract14Juni.sol\":5767:5796  abi.encodePacked(_campaignId) */\n      add(0x20, mload(0x40))\n      tag_284\n      swap2\n      swap1\n      tag_161\n      jump\t// in\n    tag_284:\n      mload(0x40)\n      0x20\n      dup2\n      dup4\n      sub\n      sub\n      dup2\n      mstore\n      swap1\n      0x40\n      mstore\n        /* \"contracts/TransactionContract14Juni.sol\":5757:5797  keccak256(abi.encodePacked(_campaignId)) */\n      dup1\n      mload\n      swap1\n      0x20\n      add\n      keccak256\n        /* \"contracts/TransactionContract14Juni.sol\":5707:5719  transactions */\n      0x00\n        /* \"contracts/TransactionContract14Juni.sol\":5720:5736  transactionCodes */\n      0x01\n        /* \"contracts/TransactionContract14Juni.sol\":5737:5738  i */\n      dup4\n        /* \"contracts/TransactionContract14Juni.sol\":5720:5739  transactionCodes[i] */\n      dup2\n      sload\n      dup2\n      lt\n      tag_285\n      jumpi\n      tag_286\n      tag_111\n      jump\t// in\n    tag_286:\n    tag_285:\n      swap1\n      0x00\n      mstore\n      keccak256(0x00, 0x20)\n      add\n        /* \"contracts/TransactionContract14Juni.sol\":5707:5740  transactions[transactionCodes[i]] */\n      mload(0x40)\n      tag_288\n      swap2\n      swap1\n      tag_114\n      jump\t// in\n    tag_288:\n      swap1\n      dup2\n      mstore\n      0x20\n      add\n      mload(0x40)\n      dup1\n      swap2\n      sub\n      swap1\n      keccak256\n        /* \"contracts/TransactionContract14Juni.sol\":5707:5751  transactions[transactionCodes[i]].campaignId */\n      0x01\n      add\n        /* \"contracts/TransactionContract14Juni.sol\":5690:5752  abi.encodePacked(transactions[transactionCodes[i]].campaignId) */\n      add(0x20, mload(0x40))\n      tag_289\n      swap2\n      swap1\n      tag_114\n      jump\t// in\n    tag_289:\n      mload(0x40)\n      0x20\n      dup2\n      dup4\n      sub\n      sub\n      dup2\n      mstore\n      swap1\n      0x40\n      mstore\n        /* \"contracts/TransactionContract14Juni.sol\":5680:5753  keccak256(abi.encodePacked(transactions[transactionCodes[i]].campaignId)) */\n      dup1\n      mload\n      swap1\n      0x20\n      add\n      keccak256\n        /* \"contracts/TransactionContract14Juni.sol\":5680:5797  keccak256(abi.encodePacked(transactions[transactionCodes[i]].campaignId)) == keccak256(abi.encodePacked(_campaignId)) */\n      sub\n        /* \"contracts/TransactionContract14Juni.sol\":5659:5852  if (... */\n      tag_290\n      jumpi\n        /* \"contracts/TransactionContract14Juni.sol\":5830:5837  count++ */\n      dup2\n      dup1\n      tag_291\n      swap1\n      tag_158\n      jump\t// in\n    tag_291:\n      swap3\n      pop\n      pop\n        /* \"contracts/TransactionContract14Juni.sol\":5659:5852  if (... */\n    tag_290:\n        /* \"contracts/TransactionContract14Juni.sol\":5640:5643  i++ */\n      dup1\n      dup1\n      tag_292\n      swap1\n      tag_158\n      jump\t// in\n    tag_292:\n      swap2\n      pop\n      pop\n        /* \"contracts/TransactionContract14Juni.sol\":5594:5862  for (uint i = 0; i < transactionCodes.length; i++) {... */\n      jump(tag_281)\n    tag_282:\n      pop\n        /* \"contracts/TransactionContract14Juni.sol\":5871:5898  Transaction[] memory result */\n      0x00\n        /* \"contracts/TransactionContract14Juni.sol\":5919:5924  count */\n      dup2\n        /* \"contracts/TransactionContract14Juni.sol\":5901:5925  new Transaction[](count) */\n      0xffffffffffffffff\n      dup2\n      gt\n      iszero\n      tag_293\n      jumpi\n      tag_294\n      tag_101\n      jump\t// in\n    tag_294:\n    tag_293:\n      mload(0x40)\n      swap1\n      dup1\n      dup3\n      mstore\n      dup1\n      0x20\n      mul\n      0x20\n      add\n      dup3\n      add\n      0x40\n      mstore\n      dup1\n      iszero\n      tag_295\n      jumpi\n      dup2\n      0x20\n      add\n    tag_296:\n      tag_297\n      tag_105\n      jump\t// in\n    tag_297:\n      dup2\n      mstore\n      0x20\n      add\n      swap1\n      0x01\n      swap1\n      sub\n      swap1\n      dup2\n      tag_296\n      jumpi\n      swap1\n      pop\n    tag_295:\n      pop\n        /* \"contracts/TransactionContract14Juni.sol\":5871:5925  Transaction[] memory result = new Transaction[](count) */\n      swap1\n      pop\n        /* \"contracts/TransactionContract14Juni.sol\":5935:5945  uint index */\n      0x00\n        /* \"contracts/TransactionContract14Juni.sol\":5964:5970  uint i */\n      dup1\n        /* \"contracts/TransactionContract14Juni.sol\":5959:6294  for (uint i = 0; i < transactionCodes.length; i++) {... */\n    tag_298:\n        /* \"contracts/TransactionContract14Juni.sol\":5980:5996  transactionCodes */\n      0x01\n        /* \"contracts/TransactionContract14Juni.sol\":5980:6003  transactionCodes.length */\n      dup1\n      sload\n      swap1\n      pop\n        /* \"contracts/TransactionContract14Juni.sol\":5976:5977  i */\n      dup2\n        /* \"contracts/TransactionContract14Juni.sol\":5976:6003  i < transactionCodes.length */\n      lt\n        /* \"contracts/TransactionContract14Juni.sol\":5959:6294  for (uint i = 0; i < transactionCodes.length; i++) {... */\n      iszero\n      tag_299\n      jumpi\n        /* \"contracts/TransactionContract14Juni.sol\":6149:6160  _campaignId */\n      dup6\n        /* \"contracts/TransactionContract14Juni.sol\":6132:6161  abi.encodePacked(_campaignId) */\n      add(0x20, mload(0x40))\n      tag_301\n      swap2\n      swap1\n      tag_161\n      jump\t// in\n    tag_301:\n      mload(0x40)\n      0x20\n      dup2\n      dup4\n      sub\n      sub\n      dup2\n      mstore\n      swap1\n      0x40\n      mstore\n        /* \"contracts/TransactionContract14Juni.sol\":6122:6162  keccak256(abi.encodePacked(_campaignId)) */\n      dup1\n      mload\n      swap1\n      0x20\n      add\n      keccak256\n        /* \"contracts/TransactionContract14Juni.sol\":6072:6084  transactions */\n      0x00\n        /* \"contracts/TransactionContract14Juni.sol\":6085:6101  transactionCodes */\n      0x01\n        /* \"contracts/TransactionContract14Juni.sol\":6102:6103  i */\n      dup4\n        /* \"contracts/TransactionContract14Juni.sol\":6085:6104  transactionCodes[i] */\n      dup2\n      sload\n      dup2\n      lt\n      tag_302\n      jumpi\n      tag_303\n      tag_111\n      jump\t// in\n    tag_303:\n    tag_302:\n      swap1\n      0x00\n      mstore\n      keccak256(0x00, 0x20)\n      add\n        /* \"contracts/TransactionContract14Juni.sol\":6072:6105  transactions[transactionCodes[i]] */\n      mload(0x40)\n      tag_305\n      swap2\n      swap1\n      tag_114\n      jump\t// in\n    tag_305:\n      swap1\n      dup2\n      mstore\n      0x20\n      add\n      mload(0x40)\n      dup1\n      swap2\n      sub\n      swap1\n      keccak256\n        /* \"contracts/TransactionContract14Juni.sol\":6072:6116  transactions[transactionCodes[i]].campaignId */\n      0x01\n      add\n        /* \"contracts/TransactionContract14Juni.sol\":6055:6117  abi.encodePacked(transactions[transactionCodes[i]].campaignId) */\n      add(0x20, mload(0x40))\n      tag_306\n      swap2\n      swap1\n      tag_114\n      jump\t// in\n    tag_306:\n      mload(0x40)\n      0x20\n      dup2\n      dup4\n      sub\n      sub\n      dup2\n      mstore\n      swap1\n      0x40\n      mstore\n        /* \"contracts/TransactionContract14Juni.sol\":6045:6118  keccak256(abi.encodePacked(transactions[transactionCodes[i]].campaignId)) */\n      dup1\n      mload\n      swap1\n      0x20\n      add\n      keccak256\n        /* \"contracts/TransactionContract14Juni.sol\":6045:6162  keccak256(abi.encodePacked(transactions[transactionCodes[i]].campaignId)) == keccak256(abi.encodePacked(_campaignId)) */\n      sub\n        /* \"contracts/TransactionContract14Juni.sol\":6024:6284  if (... */\n      tag_307\n      jumpi\n        /* \"contracts/TransactionContract14Juni.sol\":6211:6223  transactions */\n      0x00\n        /* \"contracts/TransactionContract14Juni.sol\":6224:6240  transactionCodes */\n      0x01\n        /* \"contracts/TransactionContract14Juni.sol\":6241:6242  i */\n      dup3\n        /* \"contracts/TransactionContract14Juni.sol\":6224:6243  transactionCodes[i] */\n      dup2\n      sload\n      dup2\n      lt\n      tag_308\n      jumpi\n      tag_309\n      tag_111\n      jump\t// in\n    tag_309:\n    tag_308:\n      swap1\n      0x00\n      mstore\n      keccak256(0x00, 0x20)\n      add\n        /* \"contracts/TransactionContract14Juni.sol\":6211:6244  transactions[transactionCodes[i]] */\n      mload(0x40)\n      tag_311\n      swap2\n      swap1\n      tag_114\n      jump\t// in\n    tag_311:\n      swap1\n      dup2\n      mstore\n      0x20\n      add\n      mload(0x40)\n      dup1\n      swap2\n      sub\n      swap1\n      keccak256\n        /* \"contracts/TransactionContract14Juni.sol\":6195:6244  result[index] = transactions[transactionCodes[i]] */\n      mload(0x40)\n      dup1\n      0x0160\n      add\n      0x40\n      mstore\n      swap1\n      dup2\n      0x00\n      dup3\n      add\n      dup1\n      sload\n      tag_312\n      swap1\n      tag_58\n      jump\t// in\n    tag_312:\n      dup1\n      0x1f\n      add\n      0x20\n      dup1\n      swap2\n      div\n      mul\n      0x20\n      add\n      mload(0x40)\n      swap1\n      dup2\n      add\n      0x40\n      mstore\n      dup1\n      swap3\n      swap2\n      swap1\n      dup2\n      dup2\n      mstore\n      0x20\n      add\n      dup3\n      dup1\n      sload\n      tag_313\n      swap1\n      tag_58\n      jump\t// in\n    tag_313:\n      dup1\n      iszero\n      tag_314\n      jumpi\n      dup1\n      0x1f\n      lt\n      tag_315\n      jumpi\n      0x0100\n      dup1\n      dup4\n      sload\n      div\n      mul\n      dup4\n      mstore\n      swap2\n      0x20\n      add\n      swap2\n      jump(tag_314)\n    tag_315:\n      dup3\n      add\n      swap2\n      swap1\n      0x00\n      mstore\n      keccak256(0x00, 0x20)\n      swap1\n    tag_316:\n      dup2\n      sload\n      dup2\n      mstore\n      swap1\n      0x01\n      add\n      swap1\n      0x20\n      add\n      dup1\n      dup4\n      gt\n      tag_316\n      jumpi\n      dup3\n      swap1\n      sub\n      0x1f\n      and\n      dup3\n      add\n      swap2\n    tag_314:\n      pop\n      pop\n      pop\n      pop\n      pop\n      dup2\n      mstore\n      0x20\n      add\n      0x01\n      dup3\n      add\n      dup1\n      sload\n      tag_317\n      swap1\n      tag_58\n      jump\t// in\n    tag_317:\n      dup1\n      0x1f\n      add\n      0x20\n      dup1\n      swap2\n      div\n      mul\n      0x20\n      add\n      mload(0x40)\n      swap1\n      dup2\n      add\n      0x40\n      mstore\n      dup1\n      swap3\n      swap2\n      swap1\n      dup2\n      dup2\n      mstore\n      0x20\n      add\n      dup3\n      dup1\n      sload\n      tag_318\n      swap1\n      tag_58\n      jump\t// in\n    tag_318:\n      dup1\n      iszero\n      tag_319\n      jumpi\n      dup1\n      0x1f\n      lt\n      tag_320\n      jumpi\n      0x0100\n      dup1\n      dup4\n      sload\n      div\n      mul\n      dup4\n      mstore\n      swap2\n      0x20\n      add\n      swap2\n      jump(tag_319)\n    tag_320:\n      dup3\n      add\n      swap2\n      swap1\n      0x00\n      mstore\n      keccak256(0x00, 0x20)\n      swap1\n    tag_321:\n      dup2\n      sload\n      dup2\n      mstore\n      swap1\n      0x01\n      add\n      swap1\n      0x20\n      add\n      dup1\n      dup4\n      gt\n      tag_321\n      jumpi\n      dup3\n      swap1\n      sub\n      0x1f\n      and\n      dup3\n      add\n      swap2\n    tag_319:\n      pop\n      pop\n      pop\n      pop\n      pop\n      dup2\n      mstore\n      0x20\n      add\n      0x02\n      dup3\n      add\n      dup1\n      sload\n      tag_322\n      swap1\n      tag_58\n      jump\t// in\n    tag_322:\n      dup1\n      0x1f\n      add\n      0x20\n      dup1\n      swap2\n      div\n      mul\n      0x20\n      add\n      mload(0x40)\n      swap1\n      dup2\n      add\n      0x40\n      mstore\n      dup1\n      swap3\n      swap2\n      swap1\n      dup2\n      dup2\n      mstore\n      0x20\n      add\n      dup3\n      dup1\n      sload\n      tag_323\n      swap1\n      tag_58\n      jump\t// in\n    tag_323:\n      dup1\n      iszero\n      tag_324\n      jumpi\n      dup1\n      0x1f\n      lt\n      tag_325\n      jumpi\n      0x0100\n      dup1\n      dup4\n      sload\n      div\n      mul\n      dup4\n      mstore\n      swap2\n      0x20\n      add\n      swap2\n      jump(tag_324)\n    tag_325:\n      dup3\n      add\n      swap2\n      swap1\n      0x00\n      mstore\n      keccak256(0x00, 0x20)\n      swap1\n    tag_326:\n      dup2\n      sload\n      dup2\n      mstore\n      swap1\n      0x01\n      add\n      swap1\n      0x20\n      add\n      dup1\n      dup4\n      gt\n      tag_326\n      jumpi\n      dup3\n      swap1\n      sub\n      0x1f\n      and\n      dup3\n      add\n      swap2\n    tag_324:\n      pop\n      pop\n      pop\n      pop\n      pop\n      dup2\n      mstore\n      0x20\n      add\n      0x03\n      dup3\n      add\n      dup1\n      sload\n      tag_327\n      swap1\n      tag_58\n      jump\t// in\n    tag_327:\n      dup1\n      0x1f\n      add\n      0x20\n      dup1\n      swap2\n      div\n      mul\n      0x20\n      add\n      mload(0x40)\n      swap1\n      dup2\n      add\n      0x40\n      mstore\n      dup1\n      swap3\n      swap2\n      swap1\n      dup2\n      dup2\n      mstore\n      0x20\n      add\n      dup3\n      dup1\n      sload\n      tag_328\n      swap1\n      tag_58\n      jump\t// in\n    tag_328:\n      dup1\n      iszero\n      tag_329\n      jumpi\n      dup1\n      0x1f\n      lt\n      tag_330\n      jumpi\n      0x0100\n      dup1\n      dup4\n      sload\n      div\n      mul\n      dup4\n      mstore\n      swap2\n      0x20\n      add\n      swap2\n      jump(tag_329)\n    tag_330:\n      dup3\n      add\n      swap2\n      swap1\n      0x00\n      mstore\n      keccak256(0x00, 0x20)\n      swap1\n    tag_331:\n      dup2\n      sload\n      dup2\n      mstore\n      swap1\n      0x01\n      add\n      swap1\n      0x20\n      add\n      dup1\n      dup4\n      gt\n      tag_331\n      jumpi\n      dup3\n      swap1\n      sub\n      0x1f\n      and\n      dup3\n      add\n      swap2\n    tag_329:\n      pop\n      pop\n      pop\n      pop\n      pop\n      dup2\n      mstore\n      0x20\n      add\n      0x04\n      dup3\n      add\n      dup1\n      sload\n      tag_332\n      swap1\n      tag_58\n      jump\t// in\n    tag_332:\n      dup1\n      0x1f\n      add\n      0x20\n      dup1\n      swap2\n      div\n      mul\n      0x20\n      add\n      mload(0x40)\n      swap1\n      dup2\n      add\n      0x40\n      mstore\n      dup1\n      swap3\n      swap2\n      swap1\n      dup2\n      dup2\n      mstore\n      0x20\n      add\n      dup3\n      dup1\n      sload\n      tag_333\n      swap1\n      tag_58\n      jump\t// in\n    tag_333:\n      dup1\n      iszero\n      tag_334\n      jumpi\n      dup1\n      0x1f\n      lt\n      tag_335\n      jumpi\n      0x0100\n      dup1\n      dup4\n      sload\n      div\n      mul\n      dup4\n      mstore\n      swap2\n      0x20\n      add\n      swap2\n      jump(tag_334)\n    tag_335:\n      dup3\n      add\n      swap2\n      swap1\n      0x00\n      mstore\n      keccak256(0x00, 0x20)\n      swap1\n    tag_336:\n      dup2\n      sload\n      dup2\n      mstore\n      swap1\n      0x01\n      add\n      swap1\n      0x20\n      add\n      dup1\n      dup4\n      gt\n      tag_336\n      jumpi\n      dup3\n      swap1\n      sub\n      0x1f\n      and\n      dup3\n      add\n      swap2\n    tag_334:\n      pop\n      pop\n      pop\n      pop\n      pop\n      dup2\n      mstore\n      0x20\n      add\n      0x05\n      dup3\n      add\n      dup1\n      sload\n      tag_337\n      swap1\n      tag_58\n      jump\t// in\n    tag_337:\n      dup1\n      0x1f\n      add\n      0x20\n      dup1\n      swap2\n      div\n      mul\n      0x20\n      add\n      mload(0x40)\n      swap1\n      dup2\n      add\n      0x40\n      mstore\n      dup1\n      swap3\n      swap2\n      swap1\n      dup2\n      dup2\n      mstore\n      0x20\n      add\n      dup3\n      dup1\n      sload\n      tag_338\n      swap1\n      tag_58\n      jump\t// in\n    tag_338:\n      dup1\n      iszero\n      tag_339\n      jumpi\n      dup1\n      0x1f\n      lt\n      tag_340\n      jumpi\n      0x0100\n      dup1\n      dup4\n      sload\n      div\n      mul\n      dup4\n      mstore\n      swap2\n      0x20\n      add\n      swap2\n      jump(tag_339)\n    tag_340:\n      dup3\n      add\n      swap2\n      swap1\n      0x00\n      mstore\n      keccak256(0x00, 0x20)\n      swap1\n    tag_341:\n      dup2\n      sload\n      dup2\n      mstore\n      swap1\n      0x01\n      add\n      swap1\n      0x20\n      add\n      dup1\n      dup4\n      gt\n      tag_341\n      jumpi\n      dup3\n      swap1\n      sub\n      0x1f\n      and\n      dup3\n      add\n      swap2\n    tag_339:\n      pop\n      pop\n      pop\n      pop\n      pop\n      dup2\n      mstore\n      0x20\n      add\n      0x06\n      dup3\n      add\n      sload\n      dup2\n      mstore\n      0x20\n      add\n      0x07\n      dup3\n      add\n      sload\n      dup2\n      mstore\n      0x20\n      add\n      0x08\n      dup3\n      add\n      dup1\n      sload\n      tag_342\n      swap1\n      tag_58\n      jump\t// in\n    tag_342:\n      dup1\n      0x1f\n      add\n      0x20\n      dup1\n      swap2\n      div\n      mul\n      0x20\n      add\n      mload(0x40)\n      swap1\n      dup2\n      add\n      0x40\n      mstore\n      dup1\n      swap3\n      swap2\n      swap1\n      dup2\n      dup2\n      mstore\n      0x20\n      add\n      dup3\n      dup1\n      sload\n      tag_343\n      swap1\n      tag_58\n      jump\t// in\n    tag_343:\n      dup1\n      iszero\n      tag_344\n      jumpi\n      dup1\n      0x1f\n      lt\n      tag_345\n      jumpi\n      0x0100\n      dup1\n      dup4\n      sload\n      div\n      mul\n      dup4\n      mstore\n      swap2\n      0x20\n      add\n      swap2\n      jump(tag_344)\n    tag_345:\n      dup3\n      add\n      swap2\n      swap1\n      0x00\n      mstore\n      keccak256(0x00, 0x20)\n      swap1\n    tag_346:\n      dup2\n      sload\n      dup2\n      mstore\n      swap1\n      0x01\n      add\n      swap1\n      0x20\n      add\n      dup1\n      dup4\n      gt\n      tag_346\n      jumpi\n      dup3\n      swap1\n      sub\n      0x1f\n      and\n      dup3\n      add\n      swap2\n    tag_344:\n      pop\n      pop\n      pop\n      pop\n      pop\n      dup2\n      mstore\n      0x20\n      add\n      0x09\n      dup3\n      add\n      dup1\n      sload\n      tag_347\n      swap1\n      tag_58\n      jump\t// in\n    tag_347:\n      dup1\n      0x1f\n      add\n      0x20\n      dup1\n      swap2\n      div\n      mul\n      0x20\n      add\n      mload(0x40)\n      swap1\n      dup2\n      add\n      0x40\n      mstore\n      dup1\n      swap3\n      swap2\n      swap1\n      dup2\n      dup2\n      mstore\n      0x20\n      add\n      dup3\n      dup1\n      sload\n      tag_348\n      swap1\n      tag_58\n      jump\t// in\n    tag_348:\n      dup1\n      iszero\n      tag_349\n      jumpi\n      dup1\n      0x1f\n      lt\n      tag_350\n      jumpi\n      0x0100\n      dup1\n      dup4\n      sload\n      div\n      mul\n      dup4\n      mstore\n      swap2\n      0x20\n      add\n      swap2\n      jump(tag_349)\n    tag_350:\n      dup3\n      add\n      swap2\n      swap1\n      0x00\n      mstore\n      keccak256(0x00, 0x20)\n      swap1\n    tag_351:\n      dup2\n      sload\n      dup2\n      mstore\n      swap1\n      0x01\n      add\n      swap1\n      0x20\n      add\n      dup1\n      dup4\n      gt\n      tag_351\n      jumpi\n      dup3\n      swap1\n      sub\n      0x1f\n      and\n      dup3\n      add\n      swap2\n    tag_349:\n      pop\n      pop\n      pop\n      pop\n      pop\n      dup2\n      mstore\n      0x20\n      add\n      0x0a\n      dup3\n      add\n      sload\n      dup2\n      mstore\n      pop\n      pop\n        /* \"contracts/TransactionContract14Juni.sol\":6195:6201  result */\n      dup4\n        /* \"contracts/TransactionContract14Juni.sol\":6202:6207  index */\n      dup4\n        /* \"contracts/TransactionContract14Juni.sol\":6195:6208  result[index] */\n      dup2\n      mload\n      dup2\n      lt\n      tag_352\n      jumpi\n      tag_353\n      tag_111\n      jump\t// in\n    tag_353:\n    tag_352:\n      0x20\n      mul\n      0x20\n      add\n      add\n        /* \"contracts/TransactionContract14Juni.sol\":6195:6244  result[index] = transactions[transactionCodes[i]] */\n      dup2\n      swap1\n      mstore\n      pop\n        /* \"contracts/TransactionContract14Juni.sol\":6262:6269  index++ */\n      dup2\n      dup1\n      tag_354\n      swap1\n      tag_158\n      jump\t// in\n    tag_354:\n      swap3\n      pop\n      pop\n        /* \"contracts/TransactionContract14Juni.sol\":6024:6284  if (... */\n    tag_307:\n        /* \"contracts/TransactionContract14Juni.sol\":6005:6008  i++ */\n      dup1\n      dup1\n      tag_355\n      swap1\n      tag_158\n      jump\t// in\n    tag_355:\n      swap2\n      pop\n      pop\n        /* \"contracts/TransactionContract14Juni.sol\":5959:6294  for (uint i = 0; i < transactionCodes.length; i++) {... */\n      jump(tag_298)\n    tag_299:\n      pop\n        /* \"contracts/TransactionContract14Juni.sol\":6310:6316  result */\n      dup2\n        /* \"contracts/TransactionContract14Juni.sol\":6303:6316  return result */\n      swap4\n      pop\n      pop\n      pop\n      pop\n        /* \"contracts/TransactionContract14Juni.sol\":5440:6323  function getTransactionByCampaignId(... */\n      swap2\n      swap1\n      pop\n      jump\t// out\n        /* \"contracts/TransactionContract14Juni.sol\":5115:5434  function getTransactionByCode(... */\n    tag_51:\n        /* \"contracts/TransactionContract14Juni.sol\":5212:5230  Transaction memory */\n      tag_356\n      tag_105\n      jump\t// in\n    tag_356:\n        /* \"contracts/TransactionContract14Juni.sol\":5327:5328  0 */\n      0x00\n        /* \"contracts/TransactionContract14Juni.sol\":5269:5281  transactions */\n      dup1\n        /* \"contracts/TransactionContract14Juni.sol\":5282:5298  _transactionCode */\n      dup4\n        /* \"contracts/TransactionContract14Juni.sol\":5269:5299  transactions[_transactionCode] */\n      mload(0x40)\n      tag_358\n      swap2\n      swap1\n      tag_161\n      jump\t// in\n    tag_358:\n      swap1\n      dup2\n      mstore\n      0x20\n      add\n      mload(0x40)\n      dup1\n      swap2\n      sub\n      swap1\n      keccak256\n        /* \"contracts/TransactionContract14Juni.sol\":5269:5315  transactions[_transactionCode].transactionCode */\n      0x00\n      add\n        /* \"contracts/TransactionContract14Juni.sol\":5263:5323  bytes(transactions[_transactionCode].transactionCode).length */\n      dup1\n      sload\n      tag_359\n      swap1\n      tag_58\n      jump\t// in\n    tag_359:\n      swap1\n      pop\n        /* \"contracts/TransactionContract14Juni.sol\":5263:5328  bytes(transactions[_transactionCode].transactionCode).length != 0 */\n      sub\n        /* \"contracts/TransactionContract14Juni.sol\":5242:5380  require(... */\n      tag_360\n      jumpi\n      mload(0x40)\n      0x08c379a000000000000000000000000000000000000000000000000000000000\n      dup2\n      mstore\n      0x04\n      add\n      tag_361\n      swap1\n      tag_165\n      jump\t// in\n    tag_361:\n      mload(0x40)\n      dup1\n      swap2\n      sub\n      swap1\n      revert\n    tag_360:\n        /* \"contracts/TransactionContract14Juni.sol\":5397:5409  transactions */\n      0x00\n        /* \"contracts/TransactionContract14Juni.sol\":5410:5426  _transactionCode */\n      dup3\n        /* \"contracts/TransactionContract14Juni.sol\":5397:5427  transactions[_transactionCode] */\n      mload(0x40)\n      tag_362\n      swap2\n      swap1\n      tag_161\n      jump\t// in\n    tag_362:\n      swap1\n      dup2\n      mstore\n      0x20\n      add\n      mload(0x40)\n      dup1\n      swap2\n      sub\n      swap1\n      keccak256\n        /* \"contracts/TransactionContract14Juni.sol\":5390:5427  return transactions[_transactionCode] */\n      mload(0x40)\n      dup1\n      0x0160\n      add\n      0x40\n      mstore\n      swap1\n      dup2\n      0x00\n      dup3\n      add\n      dup1\n      sload\n      tag_363\n      swap1\n      tag_58\n      jump\t// in\n    tag_363:\n      dup1\n      0x1f\n      add\n      0x20\n      dup1\n      swap2\n      div\n      mul\n      0x20\n      add\n      mload(0x40)\n      swap1\n      dup2\n      add\n      0x40\n      mstore\n      dup1\n      swap3\n      swap2\n      swap1\n      dup2\n      dup2\n      mstore\n      0x20\n      add\n      dup3\n      dup1\n      sload\n      tag_364\n      swap1\n      tag_58\n      jump\t// in\n    tag_364:\n      dup1\n      iszero\n      tag_365\n      jumpi\n      dup1\n      0x1f\n      lt\n      tag_366\n      jumpi\n      0x0100\n      dup1\n      dup4\n      sload\n      div\n      mul\n      dup4\n      mstore\n      swap2\n      0x20\n      add\n      swap2\n      jump(tag_365)\n    tag_366:\n      dup3\n      add\n      swap2\n      swap1\n      0x00\n      mstore\n      keccak256(0x00, 0x20)\n      swap1\n    tag_367:\n      dup2\n      sload\n      dup2\n      mstore\n      swap1\n      0x01\n      add\n      swap1\n      0x20\n      add\n      dup1\n      dup4\n      gt\n      tag_367\n      jumpi\n      dup3\n      swap1\n      sub\n      0x1f\n      and\n      dup3\n      add\n      swap2\n    tag_365:\n      pop\n      pop\n      pop\n      pop\n      pop\n      dup2\n      mstore\n      0x20\n      add\n      0x01\n      dup3\n      add\n      dup1\n      sload\n      tag_368\n      swap1\n      tag_58\n      jump\t// in\n    tag_368:\n      dup1\n      0x1f\n      add\n      0x20\n      dup1\n      swap2\n      div\n      mul\n      0x20\n      add\n      mload(0x40)\n      swap1\n      dup2\n      add\n      0x40\n      mstore\n      dup1\n      swap3\n      swap2\n      swap1\n      dup2\n      dup2\n      mstore\n      0x20\n      add\n      dup3\n      dup1\n      sload\n      tag_369\n      swap1\n      tag_58\n      jump\t// in\n    tag_369:\n      dup1\n      iszero\n      tag_370\n      jumpi\n      dup1\n      0x1f\n      lt\n      tag_371\n      jumpi\n      0x0100\n      dup1\n      dup4\n      sload\n      div\n      mul\n      dup4\n      mstore\n      swap2\n      0x20\n      add\n      swap2\n      jump(tag_370)\n    tag_371:\n      dup3\n      add\n      swap2\n      swap1\n      0x00\n      mstore\n      keccak256(0x00, 0x20)\n      swap1\n    tag_372:\n      dup2\n      sload\n      dup2\n      mstore\n      swap1\n      0x01\n      add\n      swap1\n      0x20\n      add\n      dup1\n      dup4\n      gt\n      tag_372\n      jumpi\n      dup3\n      swap1\n      sub\n      0x1f\n      and\n      dup3\n      add\n      swap2\n    tag_370:\n      pop\n      pop\n      pop\n      pop\n      pop\n      dup2\n      mstore\n      0x20\n      add\n      0x02\n      dup3\n      add\n      dup1\n      sload\n      tag_373\n      swap1\n      tag_58\n      jump\t// in\n    tag_373:\n      dup1\n      0x1f\n      add\n      0x20\n      dup1\n      swap2\n      div\n      mul\n      0x20\n      add\n      mload(0x40)\n      swap1\n      dup2\n      add\n      0x40\n      mstore\n      dup1\n      swap3\n      swap2\n      swap1\n      dup2\n      dup2\n      mstore\n      0x20\n      add\n      dup3\n      dup1\n      sload\n      tag_374\n      swap1\n      tag_58\n      jump\t// in\n    tag_374:\n      dup1\n      iszero\n      tag_375\n      jumpi\n      dup1\n      0x1f\n      lt\n      tag_376\n      jumpi\n      0x0100\n      dup1\n      dup4\n      sload\n      div\n      mul\n      dup4\n      mstore\n      swap2\n      0x20\n      add\n      swap2\n      jump(tag_375)\n    tag_376:\n      dup3\n      add\n      swap2\n      swap1\n      0x00\n      mstore\n      keccak256(0x00, 0x20)\n      swap1\n    tag_377:\n      dup2\n      sload\n      dup2\n      mstore\n      swap1\n      0x01\n      add\n      swap1\n      0x20\n      add\n      dup1\n      dup4\n      gt\n      tag_377\n      jumpi\n      dup3\n      swap1\n      sub\n      0x1f\n      and\n      dup3\n      add\n      swap2\n    tag_375:\n      pop\n      pop\n      pop\n      pop\n      pop\n      dup2\n      mstore\n      0x20\n      add\n      0x03\n      dup3\n      add\n      dup1\n      sload\n      tag_378\n      swap1\n      tag_58\n      jump\t// in\n    tag_378:\n      dup1\n      0x1f\n      add\n      0x20\n      dup1\n      swap2\n      div\n      mul\n      0x20\n      add\n      mload(0x40)\n      swap1\n      dup2\n      add\n      0x40\n      mstore\n      dup1\n      swap3\n      swap2\n      swap1\n      dup2\n      dup2\n      mstore\n      0x20\n      add\n      dup3\n      dup1\n      sload\n      tag_379\n      swap1\n      tag_58\n      jump\t// in\n    tag_379:\n      dup1\n      iszero\n      tag_380\n      jumpi\n      dup1\n      0x1f\n      lt\n      tag_381\n      jumpi\n      0x0100\n      dup1\n      dup4\n      sload\n      div\n      mul\n      dup4\n      mstore\n      swap2\n      0x20\n      add\n      swap2\n      jump(tag_380)\n    tag_381:\n      dup3\n      add\n      swap2\n      swap1\n      0x00\n      mstore\n      keccak256(0x00, 0x20)\n      swap1\n    tag_382:\n      dup2\n      sload\n      dup2\n      mstore\n      swap1\n      0x01\n      add\n      swap1\n      0x20\n      add\n      dup1\n      dup4\n      gt\n      tag_382\n      jumpi\n      dup3\n      swap1\n      sub\n      0x1f\n      and\n      dup3\n      add\n      swap2\n    tag_380:\n      pop\n      pop\n      pop\n      pop\n      pop\n      dup2\n      mstore\n      0x20\n      add\n      0x04\n      dup3\n      add\n      dup1\n      sload\n      tag_383\n      swap1\n      tag_58\n      jump\t// in\n    tag_383:\n      dup1\n      0x1f\n      add\n      0x20\n      dup1\n      swap2\n      div\n      mul\n      0x20\n      add\n      mload(0x40)\n      swap1\n      dup2\n      add\n      0x40\n      mstore\n      dup1\n      swap3\n      swap2\n      swap1\n      dup2\n      dup2\n      mstore\n      0x20\n      add\n      dup3\n      dup1\n      sload\n      tag_384\n      swap1\n      tag_58\n      jump\t// in\n    tag_384:\n      dup1\n      iszero\n      tag_385\n      jumpi\n      dup1\n      0x1f\n      lt\n      tag_386\n      jumpi\n      0x0100\n      dup1\n      dup4\n      sload\n      div\n      mul\n      dup4\n      mstore\n      swap2\n      0x20\n      add\n      swap2\n      jump(tag_385)\n    tag_386:\n      dup3\n      add\n      swap2\n      swap1\n      0x00\n      mstore\n      keccak256(0x00, 0x20)\n      swap1\n    tag_387:\n      dup2\n      sload\n      dup2\n      mstore\n      swap1\n      0x01\n      add\n      swap1\n      0x20\n      add\n      dup1\n      dup4\n      gt\n      tag_387\n      jumpi\n      dup3\n      swap1\n      sub\n      0x1f\n      and\n      dup3\n      add\n      swap2\n    tag_385:\n      pop\n      pop\n      pop\n      pop\n      pop\n      dup2\n      mstore\n      0x20\n      add\n      0x05\n      dup3\n      add\n      dup1\n      sload\n      tag_388\n      swap1\n      tag_58\n      jump\t// in\n    tag_388:\n      dup1\n      0x1f\n      add\n      0x20\n      dup1\n      swap2\n      div\n      mul\n      0x20\n      add\n      mload(0x40)\n      swap1\n      dup2\n      add\n      0x40\n      mstore\n      dup1\n      swap3\n      swap2\n      swap1\n      dup2\n      dup2\n      mstore\n      0x20\n      add\n      dup3\n      dup1\n      sload\n      tag_389\n      swap1\n      tag_58\n      jump\t// in\n    tag_389:\n      dup1\n      iszero\n      tag_390\n      jumpi\n      dup1\n      0x1f\n      lt\n      tag_391\n      jumpi\n      0x0100\n      dup1\n      dup4\n      sload\n      div\n      mul\n      dup4\n      mstore\n      swap2\n      0x20\n      add\n      swap2\n      jump(tag_390)\n    tag_391:\n      dup3\n      add\n      swap2\n      swap1\n      0x00\n      mstore\n      keccak256(0x00, 0x20)\n      swap1\n    tag_392:\n      dup2\n      sload\n      dup2\n      mstore\n      swap1\n      0x01\n      add\n      swap1\n      0x20\n      add\n      dup1\n      dup4\n      gt\n      tag_392\n      jumpi\n      dup3\n      swap1\n      sub\n      0x1f\n      and\n      dup3\n      add\n      swap2\n    tag_390:\n      pop\n      pop\n      pop\n      pop\n      pop\n      dup2\n      mstore\n      0x20\n      add\n      0x06\n      dup3\n      add\n      sload\n      dup2\n      mstore\n      0x20\n      add\n      0x07\n      dup3\n      add\n      sload\n      dup2\n      mstore\n      0x20\n      add\n      0x08\n      dup3\n      add\n      dup1\n      sload\n      tag_393\n      swap1\n      tag_58\n      jump\t// in\n    tag_393:\n      dup1\n      0x1f\n      add\n      0x20\n      dup1\n      swap2\n      div\n      mul\n      0x20\n      add\n      mload(0x40)\n      swap1\n      dup2\n      add\n      0x40\n      mstore\n      dup1\n      swap3\n      swap2\n      swap1\n      dup2\n      dup2\n      mstore\n      0x20\n      add\n      dup3\n      dup1\n      sload\n      tag_394\n      swap1\n      tag_58\n      jump\t// in\n    tag_394:\n      dup1\n      iszero\n      tag_395\n      jumpi\n      dup1\n      0x1f\n      lt\n      tag_396\n      jumpi\n      0x0100\n      dup1\n      dup4\n      sload\n      div\n      mul\n      dup4\n      mstore\n      swap2\n      0x20\n      add\n      swap2\n      jump(tag_395)\n    tag_396:\n      dup3\n      add\n      swap2\n      swap1\n      0x00\n      mstore\n      keccak256(0x00, 0x20)\n      swap1\n    tag_397:\n      dup2\n      sload\n      dup2\n      mstore\n      swap1\n      0x01\n      add\n      swap1\n      0x20\n      add\n      dup1\n      dup4\n      gt\n      tag_397\n      jumpi\n      dup3\n      swap1\n      sub\n      0x1f\n      and\n      dup3\n      add\n      swap2\n    tag_395:\n      pop\n      pop\n      pop\n      pop\n      pop\n      dup2\n      mstore\n      0x20\n      add\n      0x09\n      dup3\n      add\n      dup1\n      sload\n      tag_398\n      swap1\n      tag_58\n      jump\t// in\n    tag_398:\n      dup1\n      0x1f\n      add\n      0x20\n      dup1\n      swap2\n      div\n      mul\n      0x20\n      add\n      mload(0x40)\n      swap1\n      dup2\n      add\n      0x40\n      mstore\n      dup1\n      swap3\n      swap2\n      swap1\n      dup2\n      dup2\n      mstore\n      0x20\n      add\n      dup3\n      dup1\n      sload\n      tag_399\n      swap1\n      tag_58\n      jump\t// in\n    tag_399:\n      dup1\n      iszero\n      tag_400\n      jumpi\n      dup1\n      0x1f\n      lt\n      tag_401\n      jumpi\n      0x0100\n      dup1\n      dup4\n      sload\n      div\n      mul\n      dup4\n      mstore\n      swap2\n      0x20\n      add\n      swap2\n      jump(tag_400)\n    tag_401:\n      dup3\n      add\n      swap2\n      swap1\n      0x00\n      mstore\n      keccak256(0x00, 0x20)\n      swap1\n    tag_402:\n      dup2\n      sload\n      dup2\n      mstore\n      swap1\n      0x01\n      add\n      swap1\n      0x20\n      add\n      dup1\n      dup4\n      gt\n      tag_402\n      jumpi\n      dup3\n      swap1\n      sub\n      0x1f\n      and\n      dup3\n      add\n      swap2\n    tag_400:\n      pop\n      pop\n      pop\n      pop\n      pop\n      dup2\n      mstore\n      0x20\n      add\n      0x0a\n      dup3\n      add\n      sload\n      dup2\n      mstore\n      pop\n      pop\n      swap1\n      pop\n        /* \"contracts/TransactionContract14Juni.sol\":5115:5434  function getTransactionByCode(... */\n      swap2\n      swap1\n      pop\n      jump\t// out\n        /* \"contracts/TransactionContract14Juni.sol\":3201:3625  function updatePaymentStatus(... */\n    tag_56:\n        /* \"contracts/TransactionContract14Juni.sol\":3419:3420  0 */\n      0x00\n        /* \"contracts/TransactionContract14Juni.sol\":3361:3373  transactions */\n      dup1\n        /* \"contracts/TransactionContract14Juni.sol\":3374:3390  _transactionCode */\n      dup4\n        /* \"contracts/TransactionContract14Juni.sol\":3361:3391  transactions[_transactionCode] */\n      mload(0x40)\n      tag_404\n      swap2\n      swap1\n      tag_161\n      jump\t// in\n    tag_404:\n      swap1\n      dup2\n      mstore\n      0x20\n      add\n      mload(0x40)\n      dup1\n      swap2\n      sub\n      swap1\n      keccak256\n        /* \"contracts/TransactionContract14Juni.sol\":3361:3407  transactions[_transactionCode].transactionCode */\n      0x00\n      add\n        /* \"contracts/TransactionContract14Juni.sol\":3355:3415  bytes(transactions[_transactionCode].transactionCode).length */\n      dup1\n      sload\n      tag_405\n      swap1\n      tag_58\n      jump\t// in\n    tag_405:\n      swap1\n      pop\n        /* \"contracts/TransactionContract14Juni.sol\":3355:3420  bytes(transactions[_transactionCode].transactionCode).length != 0 */\n      sub\n        /* \"contracts/TransactionContract14Juni.sol\":3334:3472  require(... */\n      tag_406\n      jumpi\n      mload(0x40)\n      0x08c379a000000000000000000000000000000000000000000000000000000000\n      dup2\n      mstore\n      0x04\n      add\n      tag_407\n      swap1\n      tag_165\n      jump\t// in\n    tag_407:\n      mload(0x40)\n      dup1\n      swap2\n      sub\n      swap1\n      revert\n    tag_406:\n        /* \"contracts/TransactionContract14Juni.sol\":3529:3546  _newPaymentStatus */\n      dup1\n        /* \"contracts/TransactionContract14Juni.sol\":3482:3494  transactions */\n      0x00\n        /* \"contracts/TransactionContract14Juni.sol\":3495:3511  _transactionCode */\n      dup4\n        /* \"contracts/TransactionContract14Juni.sol\":3482:3512  transactions[_transactionCode] */\n      mload(0x40)\n      tag_408\n      swap2\n      swap1\n      tag_161\n      jump\t// in\n    tag_408:\n      swap1\n      dup2\n      mstore\n      0x20\n      add\n      mload(0x40)\n      dup1\n      swap2\n      sub\n      swap1\n      keccak256\n        /* \"contracts/TransactionContract14Juni.sol\":3482:3526  transactions[_transactionCode].paymentStatus */\n      0x04\n      add\n        /* \"contracts/TransactionContract14Juni.sol\":3482:3546  transactions[_transactionCode].paymentStatus = _newPaymentStatus */\n      swap1\n      dup2\n      tag_409\n      swap2\n      swap1\n      tag_168\n      jump\t// in\n    tag_409:\n      pop\n        /* \"contracts/TransactionContract14Juni.sol\":3561:3618  PaymentStatusUpdated(_transactionCode, _newPaymentStatus) */\n      0xc61ffb03925558d248fba37b73270b12903d3f0ba5797af8b71a9f8bf0761a98\n        /* \"contracts/TransactionContract14Juni.sol\":3582:3598  _transactionCode */\n      dup3\n        /* \"contracts/TransactionContract14Juni.sol\":3600:3617  _newPaymentStatus */\n      dup3\n        /* \"contracts/TransactionContract14Juni.sol\":3561:3618  PaymentStatusUpdated(_transactionCode, _newPaymentStatus) */\n      mload(0x40)\n      tag_410\n      swap3\n      swap2\n      swap1\n      tag_172\n      jump\t// in\n    tag_410:\n      mload(0x40)\n      dup1\n      swap2\n      sub\n      swap1\n      log1\n        /* \"contracts/TransactionContract14Juni.sol\":3201:3625  function updatePaymentStatus(... */\n      pop\n      pop\n      jump\t// out\n    tag_105:\n      mload(0x40)\n      dup1\n      0x0160\n      add\n      0x40\n      mstore\n      dup1\n      0x60\n      dup2\n      mstore\n      0x20\n      add\n      0x60\n      dup2\n      mstore\n      0x20\n      add\n      0x60\n      dup2\n      mstore\n      0x20\n      add\n      0x60\n      dup2\n      mstore\n      0x20\n      add\n      0x60\n      dup2\n      mstore\n      0x20\n      add\n      0x60\n      dup2\n      mstore\n      0x20\n      add\n      0x00\n      dup2\n      mstore\n      0x20\n      add\n      0x00\n      dup2\n      mstore\n      0x20\n      add\n      0x60\n      dup2\n      mstore\n      0x20\n      add\n      0x60\n      dup2\n      mstore\n      0x20\n      add\n      0x00\n      dup2\n      mstore\n      pop\n      swap1\n      jump\t// out\n        /* \"#utility.yul\":7:82   */\n    tag_411:\n        /* \"#utility.yul\":40:46   */\n      0x00\n        /* \"#utility.yul\":73:75   */\n      0x40\n        /* \"#utility.yul\":67:76   */\n      mload\n        /* \"#utility.yul\":57:76   */\n      swap1\n      pop\n        /* \"#utility.yul\":7:82   */\n      swap1\n      jump\t// out\n        /* \"#utility.yul\":88:205   */\n    tag_412:\n        /* \"#utility.yul\":197:198   */\n      0x00\n        /* \"#utility.yul\":194:195   */\n      dup1\n        /* \"#utility.yul\":187:199   */\n      revert\n        /* \"#utility.yul\":211:328   */\n    tag_413:\n        /* \"#utility.yul\":320:321   */\n      0x00\n        /* \"#utility.yul\":317:318   */\n      dup1\n        /* \"#utility.yul\":310:322   */\n      revert\n        /* \"#utility.yul\":334:451   */\n    tag_414:\n        /* \"#utility.yul\":443:444   */\n      0x00\n        /* \"#utility.yul\":440:441   */\n      dup1\n        /* \"#utility.yul\":433:445   */\n      revert\n        /* \"#utility.yul\":457:574   */\n    tag_415:\n        /* \"#utility.yul\":566:567   */\n      0x00\n        /* \"#utility.yul\":563:564   */\n      dup1\n        /* \"#utility.yul\":556:568   */\n      revert\n        /* \"#utility.yul\":580:682   */\n    tag_416:\n        /* \"#utility.yul\":621:627   */\n      0x00\n        /* \"#utility.yul\":672:674   */\n      0x1f\n        /* \"#utility.yul\":668:675   */\n      not\n        /* \"#utility.yul\":663:665   */\n      0x1f\n        /* \"#utility.yul\":656:661   */\n      dup4\n        /* \"#utility.yul\":652:666   */\n      add\n        /* \"#utility.yul\":648:676   */\n      and\n        /* \"#utility.yul\":638:676   */\n      swap1\n      pop\n        /* \"#utility.yul\":580:682   */\n      swap2\n      swap1\n      pop\n      jump\t// out\n        /* \"#utility.yul\":688:868   */\n    tag_101:\n        /* \"#utility.yul\":736:813   */\n      0x4e487b7100000000000000000000000000000000000000000000000000000000\n        /* \"#utility.yul\":733:734   */\n      0x00\n        /* \"#utility.yul\":726:814   */\n      mstore\n        /* \"#utility.yul\":833:837   */\n      0x41\n        /* \"#utility.yul\":830:831   */\n      0x04\n        /* \"#utility.yul\":823:838   */\n      mstore\n        /* \"#utility.yul\":857:861   */\n      0x24\n        /* \"#utility.yul\":854:855   */\n      0x00\n        /* \"#utility.yul\":847:862   */\n      revert\n        /* \"#utility.yul\":874:1155   */\n    tag_417:\n        /* \"#utility.yul\":957:984   */\n      tag_477\n        /* \"#utility.yul\":979:983   */\n      dup3\n        /* \"#utility.yul\":957:984   */\n      tag_416\n      jump\t// in\n    tag_477:\n        /* \"#utility.yul\":949:955   */\n      dup2\n        /* \"#utility.yul\":945:985   */\n      add\n        /* \"#utility.yul\":1087:1093   */\n      dup2\n        /* \"#utility.yul\":1075:1085   */\n      dup2\n        /* \"#utility.yul\":1072:1094   */\n      lt\n        /* \"#utility.yul\":1051:1069   */\n      0xffffffffffffffff\n        /* \"#utility.yul\":1039:1049   */\n      dup3\n        /* \"#utility.yul\":1036:1070   */\n      gt\n        /* \"#utility.yul\":1033:1095   */\n      or\n        /* \"#utility.yul\":1030:1118   */\n      iszero\n      tag_478\n      jumpi\n        /* \"#utility.yul\":1098:1116   */\n      tag_479\n      tag_101\n      jump\t// in\n    tag_479:\n        /* \"#utility.yul\":1030:1118   */\n    tag_478:\n        /* \"#utility.yul\":1138:1148   */\n      dup1\n        /* \"#utility.yul\":1134:1136   */\n      0x40\n        /* \"#utility.yul\":1127:1149   */\n      mstore\n        /* \"#utility.yul\":917:1155   */\n      pop\n        /* \"#utility.yul\":874:1155   */\n      pop\n      pop\n      jump\t// out\n        /* \"#utility.yul\":1161:1290   */\n    tag_418:\n        /* \"#utility.yul\":1195:1201   */\n      0x00\n        /* \"#utility.yul\":1222:1242   */\n      tag_481\n      tag_411\n      jump\t// in\n    tag_481:\n        /* \"#utility.yul\":1212:1242   */\n      swap1\n      pop\n        /* \"#utility.yul\":1251:1284   */\n      tag_482\n        /* \"#utility.yul\":1279:1283   */\n      dup3\n        /* \"#utility.yul\":1271:1277   */\n      dup3\n        /* \"#utility.yul\":1251:1284   */\n      tag_417\n      jump\t// in\n    tag_482:\n        /* \"#utility.yul\":1161:1290   */\n      swap2\n      swap1\n      pop\n      jump\t// out\n        /* \"#utility.yul\":1296:1604   */\n    tag_419:\n        /* \"#utility.yul\":1358:1362   */\n      0x00\n        /* \"#utility.yul\":1448:1466   */\n      0xffffffffffffffff\n        /* \"#utility.yul\":1440:1446   */\n      dup3\n        /* \"#utility.yul\":1437:1467   */\n      gt\n        /* \"#utility.yul\":1434:1490   */\n      iszero\n      tag_484\n      jumpi\n        /* \"#utility.yul\":1470:1488   */\n      tag_485\n      tag_101\n      jump\t// in\n    tag_485:\n        /* \"#utility.yul\":1434:1490   */\n    tag_484:\n        /* \"#utility.yul\":1508:1537   */\n      tag_486\n        /* \"#utility.yul\":1530:1536   */\n      dup3\n        /* \"#utility.yul\":1508:1537   */\n      tag_416\n      jump\t// in\n    tag_486:\n        /* \"#utility.yul\":1500:1537   */\n      swap1\n      pop\n        /* \"#utility.yul\":1592:1596   */\n      0x20\n        /* \"#utility.yul\":1586:1590   */\n      dup2\n        /* \"#utility.yul\":1582:1597   */\n      add\n        /* \"#utility.yul\":1574:1597   */\n      swap1\n      pop\n        /* \"#utility.yul\":1296:1604   */\n      swap2\n      swap1\n      pop\n      jump\t// out\n        /* \"#utility.yul\":1610:1756   */\n    tag_420:\n        /* \"#utility.yul\":1707:1713   */\n      dup3\n        /* \"#utility.yul\":1702:1705   */\n      dup2\n        /* \"#utility.yul\":1697:1700   */\n      dup4\n        /* \"#utility.yul\":1684:1714   */\n      calldatacopy\n        /* \"#utility.yul\":1748:1749   */\n      0x00\n        /* \"#utility.yul\":1739:1745   */\n      dup4\n        /* \"#utility.yul\":1734:1737   */\n      dup4\n        /* \"#utility.yul\":1730:1746   */\n      add\n        /* \"#utility.yul\":1723:1750   */\n      mstore\n        /* \"#utility.yul\":1610:1756   */\n      pop\n      pop\n      pop\n      jump\t// out\n        /* \"#utility.yul\":1762:2187   */\n    tag_421:\n        /* \"#utility.yul\":1840:1845   */\n      0x00\n        /* \"#utility.yul\":1865:1931   */\n      tag_489\n        /* \"#utility.yul\":1881:1930   */\n      tag_490\n        /* \"#utility.yul\":1923:1929   */\n      dup5\n        /* \"#utility.yul\":1881:1930   */\n      tag_419\n      jump\t// in\n    tag_490:\n        /* \"#utility.yul\":1865:1931   */\n      tag_418\n      jump\t// in\n    tag_489:\n        /* \"#utility.yul\":1856:1931   */\n      swap1\n      pop\n        /* \"#utility.yul\":1954:1960   */\n      dup3\n        /* \"#utility.yul\":1947:1952   */\n      dup2\n        /* \"#utility.yul\":1940:1961   */\n      mstore\n        /* \"#utility.yul\":1992:1996   */\n      0x20\n        /* \"#utility.yul\":1985:1990   */\n      dup2\n        /* \"#utility.yul\":1981:1997   */\n      add\n        /* \"#utility.yul\":2030:2033   */\n      dup5\n        /* \"#utility.yul\":2021:2027   */\n      dup5\n        /* \"#utility.yul\":2016:2019   */\n      dup5\n        /* \"#utility.yul\":2012:2028   */\n      add\n        /* \"#utility.yul\":2009:2034   */\n      gt\n        /* \"#utility.yul\":2006:2118   */\n      iszero\n      tag_491\n      jumpi\n        /* \"#utility.yul\":2037:2116   */\n      tag_492\n      tag_415\n      jump\t// in\n    tag_492:\n        /* \"#utility.yul\":2006:2118   */\n    tag_491:\n        /* \"#utility.yul\":2127:2181   */\n      tag_493\n        /* \"#utility.yul\":2174:2180   */\n      dup5\n        /* \"#utility.yul\":2169:2172   */\n      dup3\n        /* \"#utility.yul\":2164:2167   */\n      dup6\n        /* \"#utility.yul\":2127:2181   */\n      tag_420\n      jump\t// in\n    tag_493:\n        /* \"#utility.yul\":1846:2187   */\n      pop\n        /* \"#utility.yul\":1762:2187   */\n      swap4\n      swap3\n      pop\n      pop\n      pop\n      jump\t// out\n        /* \"#utility.yul\":2207:2547   */\n    tag_422:\n        /* \"#utility.yul\":2263:2268   */\n      0x00\n        /* \"#utility.yul\":2312:2315   */\n      dup3\n        /* \"#utility.yul\":2305:2309   */\n      0x1f\n        /* \"#utility.yul\":2297:2303   */\n      dup4\n        /* \"#utility.yul\":2293:2310   */\n      add\n        /* \"#utility.yul\":2289:2316   */\n      slt\n        /* \"#utility.yul\":2279:2401   */\n      tag_495\n      jumpi\n        /* \"#utility.yul\":2320:2399   */\n      tag_496\n      tag_414\n      jump\t// in\n    tag_496:\n        /* \"#utility.yul\":2279:2401   */\n    tag_495:\n        /* \"#utility.yul\":2437:2443   */\n      dup2\n        /* \"#utility.yul\":2424:2444   */\n      calldataload\n        /* \"#utility.yul\":2462:2541   */\n      tag_497\n        /* \"#utility.yul\":2537:2540   */\n      dup5\n        /* \"#utility.yul\":2529:2535   */\n      dup3\n        /* \"#utility.yul\":2522:2526   */\n      0x20\n        /* \"#utility.yul\":2514:2520   */\n      dup7\n        /* \"#utility.yul\":2510:2527   */\n      add\n        /* \"#utility.yul\":2462:2541   */\n      tag_421\n      jump\t// in\n    tag_497:\n        /* \"#utility.yul\":2453:2541   */\n      swap2\n      pop\n        /* \"#utility.yul\":2269:2547   */\n      pop\n        /* \"#utility.yul\":2207:2547   */\n      swap3\n      swap2\n      pop\n      pop\n      jump\t// out\n        /* \"#utility.yul\":2553:3062   */\n    tag_16:\n        /* \"#utility.yul\":2622:2628   */\n      0x00\n        /* \"#utility.yul\":2671:2673   */\n      0x20\n        /* \"#utility.yul\":2659:2668   */\n      dup3\n        /* \"#utility.yul\":2650:2657   */\n      dup5\n        /* \"#utility.yul\":2646:2669   */\n      sub\n        /* \"#utility.yul\":2642:2674   */\n      slt\n        /* \"#utility.yul\":2639:2758   */\n      iszero\n      tag_499\n      jumpi\n        /* \"#utility.yul\":2677:2756   */\n      tag_500\n      tag_412\n      jump\t// in\n    tag_500:\n        /* \"#utility.yul\":2639:2758   */\n    tag_499:\n        /* \"#utility.yul\":2825:2826   */\n      0x00\n        /* \"#utility.yul\":2814:2823   */\n      dup3\n        /* \"#utility.yul\":2810:2827   */\n      add\n        /* \"#utility.yul\":2797:2828   */\n      calldataload\n        /* \"#utility.yul\":2855:2873   */\n      0xffffffffffffffff\n        /* \"#utility.yul\":2847:2853   */\n      dup2\n        /* \"#utility.yul\":2844:2874   */\n      gt\n        /* \"#utility.yul\":2841:2958   */\n      iszero\n      tag_501\n      jumpi\n        /* \"#utility.yul\":2877:2956   */\n      tag_502\n      tag_413\n      jump\t// in\n    tag_502:\n        /* \"#utility.yul\":2841:2958   */\n    tag_501:\n        /* \"#utility.yul\":2982:3045   */\n      tag_503\n        /* \"#utility.yul\":3037:3044   */\n      dup5\n        /* \"#utility.yul\":3028:3034   */\n      dup3\n        /* \"#utility.yul\":3017:3026   */\n      dup6\n        /* \"#utility.yul\":3013:3035   */\n      add\n        /* \"#utility.yul\":2982:3045   */\n      tag_422\n      jump\t// in\n    tag_503:\n        /* \"#utility.yul\":2972:3045   */\n      swap2\n      pop\n        /* \"#utility.yul\":2768:3055   */\n      pop\n        /* \"#utility.yul\":2553:3062   */\n      swap3\n      swap2\n      pop\n      pop\n      jump\t// out\n        /* \"#utility.yul\":3068:3167   */\n    tag_423:\n        /* \"#utility.yul\":3120:3126   */\n      0x00\n        /* \"#utility.yul\":3154:3159   */\n      dup2\n        /* \"#utility.yul\":3148:3160   */\n      mload\n        /* \"#utility.yul\":3138:3160   */\n      swap1\n      pop\n        /* \"#utility.yul\":3068:3167   */\n      swap2\n      swap1\n      pop\n      jump\t// out\n        /* \"#utility.yul\":3173:3342   */\n    tag_424:\n        /* \"#utility.yul\":3257:3268   */\n      0x00\n        /* \"#utility.yul\":3291:3297   */\n      dup3\n        /* \"#utility.yul\":3286:3289   */\n      dup3\n        /* \"#utility.yul\":3279:3298   */\n      mstore\n        /* \"#utility.yul\":3331:3335   */\n      0x20\n        /* \"#utility.yul\":3326:3329   */\n      dup3\n        /* \"#utility.yul\":3322:3336   */\n      add\n        /* \"#utility.yul\":3307:3336   */\n      swap1\n      pop\n        /* \"#utility.yul\":3173:3342   */\n      swap3\n      swap2\n      pop\n      pop\n      jump\t// out\n        /* \"#utility.yul\":3348:3594   */\n    tag_425:\n        /* \"#utility.yul\":3429:3430   */\n      0x00\n        /* \"#utility.yul\":3439:3552   */\n    tag_507:\n        /* \"#utility.yul\":3453:3459   */\n      dup4\n        /* \"#utility.yul\":3450:3451   */\n      dup2\n        /* \"#utility.yul\":3447:3460   */\n      lt\n        /* \"#utility.yul\":3439:3552   */\n      iszero\n      tag_509\n      jumpi\n        /* \"#utility.yul\":3538:3539   */\n      dup1\n        /* \"#utility.yul\":3533:3536   */\n      dup3\n        /* \"#utility.yul\":3529:3540   */\n      add\n        /* \"#utility.yul\":3523:3541   */\n      mload\n        /* \"#utility.yul\":3519:3520   */\n      dup2\n        /* \"#utility.yul\":3514:3517   */\n      dup5\n        /* \"#utility.yul\":3510:3521   */\n      add\n        /* \"#utility.yul\":3503:3542   */\n      mstore\n        /* \"#utility.yul\":3475:3477   */\n      0x20\n        /* \"#utility.yul\":3472:3473   */\n      dup2\n        /* \"#utility.yul\":3468:3478   */\n      add\n        /* \"#utility.yul\":3463:3478   */\n      swap1\n      pop\n        /* \"#utility.yul\":3439:3552   */\n      jump(tag_507)\n    tag_509:\n        /* \"#utility.yul\":3586:3587   */\n      0x00\n        /* \"#utility.yul\":3577:3583   */\n      dup5\n        /* \"#utility.yul\":3572:3575   */\n      dup5\n        /* \"#utility.yul\":3568:3584   */\n      add\n        /* \"#utility.yul\":3561:3588   */\n      mstore\n        /* \"#utility.yul\":3410:3594   */\n      pop\n        /* \"#utility.yul\":3348:3594   */\n      pop\n      pop\n      pop\n      jump\t// out\n        /* \"#utility.yul\":3600:3977   */\n    tag_426:\n        /* \"#utility.yul\":3688:3691   */\n      0x00\n        /* \"#utility.yul\":3716:3755   */\n      tag_511\n        /* \"#utility.yul\":3749:3754   */\n      dup3\n        /* \"#utility.yul\":3716:3755   */\n      tag_423\n      jump\t// in\n    tag_511:\n        /* \"#utility.yul\":3771:3842   */\n      tag_512\n        /* \"#utility.yul\":3835:3841   */\n      dup2\n        /* \"#utility.yul\":3830:3833   */\n      dup6\n        /* \"#utility.yul\":3771:3842   */\n      tag_424\n      jump\t// in\n    tag_512:\n        /* \"#utility.yul\":3764:3842   */\n      swap4\n      pop\n        /* \"#utility.yul\":3851:3916   */\n      tag_513\n        /* \"#utility.yul\":3909:3915   */\n      dup2\n        /* \"#utility.yul\":3904:3907   */\n      dup6\n        /* \"#utility.yul\":3897:3901   */\n      0x20\n        /* \"#utility.yul\":3890:3895   */\n      dup7\n        /* \"#utility.yul\":3886:3902   */\n      add\n        /* \"#utility.yul\":3851:3916   */\n      tag_425\n      jump\t// in\n    tag_513:\n        /* \"#utility.yul\":3941:3970   */\n      tag_514\n        /* \"#utility.yul\":3963:3969   */\n      dup2\n        /* \"#utility.yul\":3941:3970   */\n      tag_416\n      jump\t// in\n    tag_514:\n        /* \"#utility.yul\":3936:3939   */\n      dup5\n        /* \"#utility.yul\":3932:3971   */\n      add\n        /* \"#utility.yul\":3925:3971   */\n      swap2\n      pop\n        /* \"#utility.yul\":3692:3977   */\n      pop\n        /* \"#utility.yul\":3600:3977   */\n      swap3\n      swap2\n      pop\n      pop\n      jump\t// out\n        /* \"#utility.yul\":3983:4060   */\n    tag_427:\n        /* \"#utility.yul\":4020:4027   */\n      0x00\n        /* \"#utility.yul\":4049:4054   */\n      dup2\n        /* \"#utility.yul\":4038:4054   */\n      swap1\n      pop\n        /* \"#utility.yul\":3983:4060   */\n      swap2\n      swap1\n      pop\n      jump\t// out\n        /* \"#utility.yul\":4066:4184   */\n    tag_428:\n        /* \"#utility.yul\":4153:4177   */\n      tag_517\n        /* \"#utility.yul\":4171:4176   */\n      dup2\n        /* \"#utility.yul\":4153:4177   */\n      tag_427\n      jump\t// in\n    tag_517:\n        /* \"#utility.yul\":4148:4151   */\n      dup3\n        /* \"#utility.yul\":4141:4178   */\n      mstore\n        /* \"#utility.yul\":4066:4184   */\n      pop\n      pop\n      jump\t// out\n        /* \"#utility.yul\":4190:6250   */\n    tag_19:\n        /* \"#utility.yul\":4724:4728   */\n      0x00\n        /* \"#utility.yul\":4762:4765   */\n      0x0160\n        /* \"#utility.yul\":4751:4760   */\n      dup3\n        /* \"#utility.yul\":4747:4766   */\n      add\n        /* \"#utility.yul\":4739:4766   */\n      swap1\n      pop\n        /* \"#utility.yul\":4812:4821   */\n      dup2\n        /* \"#utility.yul\":4806:4810   */\n      dup2\n        /* \"#utility.yul\":4802:4822   */\n      sub\n        /* \"#utility.yul\":4798:4799   */\n      0x00\n        /* \"#utility.yul\":4787:4796   */\n      dup4\n        /* \"#utility.yul\":4783:4800   */\n      add\n        /* \"#utility.yul\":4776:4823   */\n      mstore\n        /* \"#utility.yul\":4840:4918   */\n      tag_519\n        /* \"#utility.yul\":4913:4917   */\n      dup2\n        /* \"#utility.yul\":4904:4910   */\n      dup15\n        /* \"#utility.yul\":4840:4918   */\n      tag_426\n      jump\t// in\n    tag_519:\n        /* \"#utility.yul\":4832:4918   */\n      swap1\n      pop\n        /* \"#utility.yul\":4965:4974   */\n      dup2\n        /* \"#utility.yul\":4959:4963   */\n      dup2\n        /* \"#utility.yul\":4955:4975   */\n      sub\n        /* \"#utility.yul\":4950:4952   */\n      0x20\n        /* \"#utility.yul\":4939:4948   */\n      dup4\n        /* \"#utility.yul\":4935:4953   */\n      add\n        /* \"#utility.yul\":4928:4976   */\n      mstore\n        /* \"#utility.yul\":4993:5071   */\n      tag_520\n        /* \"#utility.yul\":5066:5070   */\n      dup2\n        /* \"#utility.yul\":5057:5063   */\n      dup14\n        /* \"#utility.yul\":4993:5071   */\n      tag_426\n      jump\t// in\n    tag_520:\n        /* \"#utility.yul\":4985:5071   */\n      swap1\n      pop\n        /* \"#utility.yul\":5118:5127   */\n      dup2\n        /* \"#utility.yul\":5112:5116   */\n      dup2\n        /* \"#utility.yul\":5108:5128   */\n      sub\n        /* \"#utility.yul\":5103:5105   */\n      0x40\n        /* \"#utility.yul\":5092:5101   */\n      dup4\n        /* \"#utility.yul\":5088:5106   */\n      add\n        /* \"#utility.yul\":5081:5129   */\n      mstore\n        /* \"#utility.yul\":5146:5224   */\n      tag_521\n        /* \"#utility.yul\":5219:5223   */\n      dup2\n        /* \"#utility.yul\":5210:5216   */\n      dup13\n        /* \"#utility.yul\":5146:5224   */\n      tag_426\n      jump\t// in\n    tag_521:\n        /* \"#utility.yul\":5138:5224   */\n      swap1\n      pop\n        /* \"#utility.yul\":5271:5280   */\n      dup2\n        /* \"#utility.yul\":5265:5269   */\n      dup2\n        /* \"#utility.yul\":5261:5281   */\n      sub\n        /* \"#utility.yul\":5256:5258   */\n      0x60\n        /* \"#utility.yul\":5245:5254   */\n      dup4\n        /* \"#utility.yul\":5241:5259   */\n      add\n        /* \"#utility.yul\":5234:5282   */\n      mstore\n        /* \"#utility.yul\":5299:5377   */\n      tag_522\n        /* \"#utility.yul\":5372:5376   */\n      dup2\n        /* \"#utility.yul\":5363:5369   */\n      dup12\n        /* \"#utility.yul\":5299:5377   */\n      tag_426\n      jump\t// in\n    tag_522:\n        /* \"#utility.yul\":5291:5377   */\n      swap1\n      pop\n        /* \"#utility.yul\":5425:5434   */\n      dup2\n        /* \"#utility.yul\":5419:5423   */\n      dup2\n        /* \"#utility.yul\":5415:5435   */\n      sub\n        /* \"#utility.yul\":5409:5412   */\n      0x80\n        /* \"#utility.yul\":5398:5407   */\n      dup4\n        /* \"#utility.yul\":5394:5413   */\n      add\n        /* \"#utility.yul\":5387:5436   */\n      mstore\n        /* \"#utility.yul\":5453:5531   */\n      tag_523\n        /* \"#utility.yul\":5526:5530   */\n      dup2\n        /* \"#utility.yul\":5517:5523   */\n      dup11\n        /* \"#utility.yul\":5453:5531   */\n      tag_426\n      jump\t// in\n    tag_523:\n        /* \"#utility.yul\":5445:5531   */\n      swap1\n      pop\n        /* \"#utility.yul\":5579:5588   */\n      dup2\n        /* \"#utility.yul\":5573:5577   */\n      dup2\n        /* \"#utility.yul\":5569:5589   */\n      sub\n        /* \"#utility.yul\":5563:5566   */\n      0xa0\n        /* \"#utility.yul\":5552:5561   */\n      dup4\n        /* \"#utility.yul\":5548:5567   */\n      add\n        /* \"#utility.yul\":5541:5590   */\n      mstore\n        /* \"#utility.yul\":5607:5685   */\n      tag_524\n        /* \"#utility.yul\":5680:5684   */\n      dup2\n        /* \"#utility.yul\":5671:5677   */\n      dup10\n        /* \"#utility.yul\":5607:5685   */\n      tag_426\n      jump\t// in\n    tag_524:\n        /* \"#utility.yul\":5599:5685   */\n      swap1\n      pop\n        /* \"#utility.yul\":5695:5768   */\n      tag_525\n        /* \"#utility.yul\":5763:5766   */\n      0xc0\n        /* \"#utility.yul\":5752:5761   */\n      dup4\n        /* \"#utility.yul\":5748:5767   */\n      add\n        /* \"#utility.yul\":5739:5745   */\n      dup9\n        /* \"#utility.yul\":5695:5768   */\n      tag_428\n      jump\t// in\n    tag_525:\n        /* \"#utility.yul\":5778:5851   */\n      tag_526\n        /* \"#utility.yul\":5846:5849   */\n      0xe0\n        /* \"#utility.yul\":5835:5844   */\n      dup4\n        /* \"#utility.yul\":5831:5850   */\n      add\n        /* \"#utility.yul\":5822:5828   */\n      dup8\n        /* \"#utility.yul\":5778:5851   */\n      tag_428\n      jump\t// in\n    tag_526:\n        /* \"#utility.yul\":5899:5908   */\n      dup2\n        /* \"#utility.yul\":5893:5897   */\n      dup2\n        /* \"#utility.yul\":5889:5909   */\n      sub\n        /* \"#utility.yul\":5883:5886   */\n      0x0100\n        /* \"#utility.yul\":5872:5881   */\n      dup4\n        /* \"#utility.yul\":5868:5887   */\n      add\n        /* \"#utility.yul\":5861:5910   */\n      mstore\n        /* \"#utility.yul\":5927:6005   */\n      tag_527\n        /* \"#utility.yul\":6000:6004   */\n      dup2\n        /* \"#utility.yul\":5991:5997   */\n      dup7\n        /* \"#utility.yul\":5927:6005   */\n      tag_426\n      jump\t// in\n    tag_527:\n        /* \"#utility.yul\":5919:6005   */\n      swap1\n      pop\n        /* \"#utility.yul\":6053:6062   */\n      dup2\n        /* \"#utility.yul\":6047:6051   */\n      dup2\n        /* \"#utility.yul\":6043:6063   */\n      sub\n        /* \"#utility.yul\":6037:6040   */\n      0x0120\n        /* \"#utility.yul\":6026:6035   */\n      dup4\n        /* \"#utility.yul\":6022:6041   */\n      add\n        /* \"#utility.yul\":6015:6064   */\n      mstore\n        /* \"#utility.yul\":6081:6159   */\n      tag_528\n        /* \"#utility.yul\":6154:6158   */\n      dup2\n        /* \"#utility.yul\":6145:6151   */\n      dup6\n        /* \"#utility.yul\":6081:6159   */\n      tag_426\n      jump\t// in\n    tag_528:\n        /* \"#utility.yul\":6073:6159   */\n      swap1\n      pop\n        /* \"#utility.yul\":6169:6243   */\n      tag_529\n        /* \"#utility.yul\":6238:6241   */\n      0x0140\n        /* \"#utility.yul\":6227:6236   */\n      dup4\n        /* \"#utility.yul\":6223:6242   */\n      add\n        /* \"#utility.yul\":6213:6220   */\n      dup5\n        /* \"#utility.yul\":6169:6243   */\n      tag_428\n      jump\t// in\n    tag_529:\n        /* \"#utility.yul\":4190:6250   */\n      swap13\n      swap12\n      pop\n      pop\n      pop\n      pop\n      pop\n      pop\n      pop\n      pop\n      pop\n      pop\n      pop\n      pop\n      jump\t// out\n        /* \"#utility.yul\":6256:6397   */\n    tag_429:\n        /* \"#utility.yul\":6350:6356   */\n      0x00\n        /* \"#utility.yul\":6384:6389   */\n      dup2\n        /* \"#utility.yul\":6378:6390   */\n      mload\n        /* \"#utility.yul\":6368:6390   */\n      swap1\n      pop\n        /* \"#utility.yul\":6256:6397   */\n      swap2\n      swap1\n      pop\n      jump\t// out\n        /* \"#utility.yul\":6403:6614   */\n    tag_430:\n        /* \"#utility.yul\":6529:6540   */\n      0x00\n        /* \"#utility.yul\":6563:6569   */\n      dup3\n        /* \"#utility.yul\":6558:6561   */\n      dup3\n        /* \"#utility.yul\":6551:6570   */\n      mstore\n        /* \"#utility.yul\":6603:6607   */\n      0x20\n        /* \"#utility.yul\":6598:6601   */\n      dup3\n        /* \"#utility.yul\":6594:6608   */\n      add\n        /* \"#utility.yul\":6579:6608   */\n      swap1\n      pop\n        /* \"#utility.yul\":6403:6614   */\n      swap3\n      swap2\n      pop\n      pop\n      jump\t// out\n        /* \"#utility.yul\":6620:6779   */\n    tag_431:\n        /* \"#utility.yul\":6714:6718   */\n      0x00\n        /* \"#utility.yul\":6737:6740   */\n      dup2\n        /* \"#utility.yul\":6729:6740   */\n      swap1\n      pop\n        /* \"#utility.yul\":6767:6771   */\n      0x20\n        /* \"#utility.yul\":6762:6765   */\n      dup3\n        /* \"#utility.yul\":6758:6772   */\n      add\n        /* \"#utility.yul\":6750:6772   */\n      swap1\n      pop\n        /* \"#utility.yul\":6620:6779   */\n      swap2\n      swap1\n      pop\n      jump\t// out\n        /* \"#utility.yul\":6785:6944   */\n    tag_432:\n        /* \"#utility.yul\":6859:6870   */\n      0x00\n        /* \"#utility.yul\":6893:6899   */\n      dup3\n        /* \"#utility.yul\":6888:6891   */\n      dup3\n        /* \"#utility.yul\":6881:6900   */\n      mstore\n        /* \"#utility.yul\":6933:6937   */\n      0x20\n        /* \"#utility.yul\":6928:6931   */\n      dup3\n        /* \"#utility.yul\":6924:6938   */\n      add\n        /* \"#utility.yul\":6909:6938   */\n      swap1\n      pop\n        /* \"#utility.yul\":6785:6944   */\n      swap3\n      swap2\n      pop\n      pop\n      jump\t// out\n        /* \"#utility.yul\":6950:7307   */\n    tag_433:\n        /* \"#utility.yul\":7028:7031   */\n      0x00\n        /* \"#utility.yul\":7056:7095   */\n      tag_535\n        /* \"#utility.yul\":7089:7094   */\n      dup3\n        /* \"#utility.yul\":7056:7095   */\n      tag_423\n      jump\t// in\n    tag_535:\n        /* \"#utility.yul\":7111:7172   */\n      tag_536\n        /* \"#utility.yul\":7165:7171   */\n      dup2\n        /* \"#utility.yul\":7160:7163   */\n      dup6\n        /* \"#utility.yul\":7111:7172   */\n      tag_432\n      jump\t// in\n    tag_536:\n        /* \"#utility.yul\":7104:7172   */\n      swap4\n      pop\n        /* \"#utility.yul\":7181:7246   */\n      tag_537\n        /* \"#utility.yul\":7239:7245   */\n      dup2\n        /* \"#utility.yul\":7234:7237   */\n      dup6\n        /* \"#utility.yul\":7227:7231   */\n      0x20\n        /* \"#utility.yul\":7220:7225   */\n      dup7\n        /* \"#utility.yul\":7216:7232   */\n      add\n        /* \"#utility.yul\":7181:7246   */\n      tag_425\n      jump\t// in\n    tag_537:\n        /* \"#utility.yul\":7271:7300   */\n      tag_538\n        /* \"#utility.yul\":7293:7299   */\n      dup2\n        /* \"#utility.yul\":7271:7300   */\n      tag_416\n      jump\t// in\n    tag_538:\n        /* \"#utility.yul\":7266:7269   */\n      dup5\n        /* \"#utility.yul\":7262:7301   */\n      add\n        /* \"#utility.yul\":7255:7301   */\n      swap2\n      pop\n        /* \"#utility.yul\":7032:7307   */\n      pop\n        /* \"#utility.yul\":6950:7307   */\n      swap3\n      swap2\n      pop\n      pop\n      jump\t// out\n        /* \"#utility.yul\":7313:7421   */\n    tag_434:\n        /* \"#utility.yul\":7390:7414   */\n      tag_540\n        /* \"#utility.yul\":7408:7413   */\n      dup2\n        /* \"#utility.yul\":7390:7414   */\n      tag_427\n      jump\t// in\n    tag_540:\n        /* \"#utility.yul\":7385:7388   */\n      dup3\n        /* \"#utility.yul\":7378:7415   */\n      mstore\n        /* \"#utility.yul\":7313:7421   */\n      pop\n      pop\n      jump\t// out\n        /* \"#utility.yul\":7515:10273   */\n    tag_435:\n        /* \"#utility.yul\":7628:7631   */\n      0x00\n        /* \"#utility.yul\":7664:7670   */\n      0x0160\n        /* \"#utility.yul\":7659:7662   */\n      dup4\n        /* \"#utility.yul\":7655:7671   */\n      add\n        /* \"#utility.yul\":7764:7768   */\n      0x00\n        /* \"#utility.yul\":7757:7762   */\n      dup4\n        /* \"#utility.yul\":7753:7769   */\n      add\n        /* \"#utility.yul\":7747:7770   */\n      mload\n        /* \"#utility.yul\":7817:7820   */\n      dup5\n        /* \"#utility.yul\":7811:7815   */\n      dup3\n        /* \"#utility.yul\":7807:7821   */\n      sub\n        /* \"#utility.yul\":7800:7804   */\n      0x00\n        /* \"#utility.yul\":7795:7798   */\n      dup7\n        /* \"#utility.yul\":7791:7805   */\n      add\n        /* \"#utility.yul\":7784:7822   */\n      mstore\n        /* \"#utility.yul\":7843:7916   */\n      tag_542\n        /* \"#utility.yul\":7911:7915   */\n      dup3\n        /* \"#utility.yul\":7897:7909   */\n      dup3\n        /* \"#utility.yul\":7843:7916   */\n      tag_433\n      jump\t// in\n    tag_542:\n        /* \"#utility.yul\":7835:7916   */\n      swap2\n      pop\n        /* \"#utility.yul\":7681:7927   */\n      pop\n        /* \"#utility.yul\":8015:8019   */\n      0x20\n        /* \"#utility.yul\":8008:8013   */\n      dup4\n        /* \"#utility.yul\":8004:8020   */\n      add\n        /* \"#utility.yul\":7998:8021   */\n      mload\n        /* \"#utility.yul\":8068:8071   */\n      dup5\n        /* \"#utility.yul\":8062:8066   */\n      dup3\n        /* \"#utility.yul\":8058:8072   */\n      sub\n        /* \"#utility.yul\":8051:8055   */\n      0x20\n        /* \"#utility.yul\":8046:8049   */\n      dup7\n        /* \"#utility.yul\":8042:8056   */\n      add\n        /* \"#utility.yul\":8035:8073   */\n      mstore\n        /* \"#utility.yul\":8094:8167   */\n      tag_543\n        /* \"#utility.yul\":8162:8166   */\n      dup3\n        /* \"#utility.yul\":8148:8160   */\n      dup3\n        /* \"#utility.yul\":8094:8167   */\n      tag_433\n      jump\t// in\n    tag_543:\n        /* \"#utility.yul\":8086:8167   */\n      swap2\n      pop\n        /* \"#utility.yul\":7937:8178   */\n      pop\n        /* \"#utility.yul\":8268:8272   */\n      0x40\n        /* \"#utility.yul\":8261:8266   */\n      dup4\n        /* \"#utility.yul\":8257:8273   */\n      add\n        /* \"#utility.yul\":8251:8274   */\n      mload\n        /* \"#utility.yul\":8321:8324   */\n      dup5\n        /* \"#utility.yul\":8315:8319   */\n      dup3\n        /* \"#utility.yul\":8311:8325   */\n      sub\n        /* \"#utility.yul\":8304:8308   */\n      0x40\n        /* \"#utility.yul\":8299:8302   */\n      dup7\n        /* \"#utility.yul\":8295:8309   */\n      add\n        /* \"#utility.yul\":8288:8326   */\n      mstore\n        /* \"#utility.yul\":8347:8420   */\n      tag_544\n        /* \"#utility.yul\":8415:8419   */\n      dup3\n        /* \"#utility.yul\":8401:8413   */\n      dup3\n        /* \"#utility.yul\":8347:8420   */\n      tag_433\n      jump\t// in\n    tag_544:\n        /* \"#utility.yul\":8339:8420   */\n      swap2\n      pop\n        /* \"#utility.yul\":8188:8431   */\n      pop\n        /* \"#utility.yul\":8518:8522   */\n      0x60\n        /* \"#utility.yul\":8511:8516   */\n      dup4\n        /* \"#utility.yul\":8507:8523   */\n      add\n        /* \"#utility.yul\":8501:8524   */\n      mload\n        /* \"#utility.yul\":8571:8574   */\n      dup5\n        /* \"#utility.yul\":8565:8569   */\n      dup3\n        /* \"#utility.yul\":8561:8575   */\n      sub\n        /* \"#utility.yul\":8554:8558   */\n      0x60\n        /* \"#utility.yul\":8549:8552   */\n      dup7\n        /* \"#utility.yul\":8545:8559   */\n      add\n        /* \"#utility.yul\":8538:8576   */\n      mstore\n        /* \"#utility.yul\":8597:8670   */\n      tag_545\n        /* \"#utility.yul\":8665:8669   */\n      dup3\n        /* \"#utility.yul\":8651:8663   */\n      dup3\n        /* \"#utility.yul\":8597:8670   */\n      tag_433\n      jump\t// in\n    tag_545:\n        /* \"#utility.yul\":8589:8670   */\n      swap2\n      pop\n        /* \"#utility.yul\":8441:8681   */\n      pop\n        /* \"#utility.yul\":8772:8776   */\n      0x80\n        /* \"#utility.yul\":8765:8770   */\n      dup4\n        /* \"#utility.yul\":8761:8777   */\n      add\n        /* \"#utility.yul\":8755:8778   */\n      mload\n        /* \"#utility.yul\":8825:8828   */\n      dup5\n        /* \"#utility.yul\":8819:8823   */\n      dup3\n        /* \"#utility.yul\":8815:8829   */\n      sub\n        /* \"#utility.yul\":8808:8812   */\n      0x80\n        /* \"#utility.yul\":8803:8806   */\n      dup7\n        /* \"#utility.yul\":8799:8813   */\n      add\n        /* \"#utility.yul\":8792:8830   */\n      mstore\n        /* \"#utility.yul\":8851:8924   */\n      tag_546\n        /* \"#utility.yul\":8919:8923   */\n      dup3\n        /* \"#utility.yul\":8905:8917   */\n      dup3\n        /* \"#utility.yul\":8851:8924   */\n      tag_433\n      jump\t// in\n    tag_546:\n        /* \"#utility.yul\":8843:8924   */\n      swap2\n      pop\n        /* \"#utility.yul\":8691:8935   */\n      pop\n        /* \"#utility.yul\":9019:9023   */\n      0xa0\n        /* \"#utility.yul\":9012:9017   */\n      dup4\n        /* \"#utility.yul\":9008:9024   */\n      add\n        /* \"#utility.yul\":9002:9025   */\n      mload\n        /* \"#utility.yul\":9072:9075   */\n      dup5\n        /* \"#utility.yul\":9066:9070   */\n      dup3\n        /* \"#utility.yul\":9062:9076   */\n      sub\n        /* \"#utility.yul\":9055:9059   */\n      0xa0\n        /* \"#utility.yul\":9050:9053   */\n      dup7\n        /* \"#utility.yul\":9046:9060   */\n      add\n        /* \"#utility.yul\":9039:9077   */\n      mstore\n        /* \"#utility.yul\":9098:9171   */\n      tag_547\n        /* \"#utility.yul\":9166:9170   */\n      dup3\n        /* \"#utility.yul\":9152:9164   */\n      dup3\n        /* \"#utility.yul\":9098:9171   */\n      tag_433\n      jump\t// in\n    tag_547:\n        /* \"#utility.yul\":9090:9171   */\n      swap2\n      pop\n        /* \"#utility.yul\":8945:9182   */\n      pop\n        /* \"#utility.yul\":9268:9272   */\n      0xc0\n        /* \"#utility.yul\":9261:9266   */\n      dup4\n        /* \"#utility.yul\":9257:9273   */\n      add\n        /* \"#utility.yul\":9251:9274   */\n      mload\n        /* \"#utility.yul\":9287:9350   */\n      tag_548\n        /* \"#utility.yul\":9344:9348   */\n      0xc0\n        /* \"#utility.yul\":9339:9342   */\n      dup7\n        /* \"#utility.yul\":9335:9349   */\n      add\n        /* \"#utility.yul\":9321:9333   */\n      dup3\n        /* \"#utility.yul\":9287:9350   */\n      tag_434\n      jump\t// in\n    tag_548:\n        /* \"#utility.yul\":9192:9360   */\n      pop\n        /* \"#utility.yul\":9448:9452   */\n      0xe0\n        /* \"#utility.yul\":9441:9446   */\n      dup4\n        /* \"#utility.yul\":9437:9453   */\n      add\n        /* \"#utility.yul\":9431:9454   */\n      mload\n        /* \"#utility.yul\":9467:9530   */\n      tag_549\n        /* \"#utility.yul\":9524:9528   */\n      0xe0\n        /* \"#utility.yul\":9519:9522   */\n      dup7\n        /* \"#utility.yul\":9515:9529   */\n      add\n        /* \"#utility.yul\":9501:9513   */\n      dup3\n        /* \"#utility.yul\":9467:9530   */\n      tag_434\n      jump\t// in\n    tag_549:\n        /* \"#utility.yul\":9370:9540   */\n      pop\n        /* \"#utility.yul\":9639:9645   */\n      0x0100\n        /* \"#utility.yul\":9632:9637   */\n      dup4\n        /* \"#utility.yul\":9628:9646   */\n      add\n        /* \"#utility.yul\":9622:9647   */\n      mload\n        /* \"#utility.yul\":9696:9699   */\n      dup5\n        /* \"#utility.yul\":9690:9694   */\n      dup3\n        /* \"#utility.yul\":9686:9700   */\n      sub\n        /* \"#utility.yul\":9677:9683   */\n      0x0100\n        /* \"#utility.yul\":9672:9675   */\n      dup7\n        /* \"#utility.yul\":9668:9684   */\n      add\n        /* \"#utility.yul\":9661:9701   */\n      mstore\n        /* \"#utility.yul\":9722:9795   */\n      tag_550\n        /* \"#utility.yul\":9790:9794   */\n      dup3\n        /* \"#utility.yul\":9776:9788   */\n      dup3\n        /* \"#utility.yul\":9722:9795   */\n      tag_433\n      jump\t// in\n    tag_550:\n        /* \"#utility.yul\":9714:9795   */\n      swap2\n      pop\n        /* \"#utility.yul\":9550:9806   */\n      pop\n        /* \"#utility.yul\":9896:9902   */\n      0x0120\n        /* \"#utility.yul\":9889:9894   */\n      dup4\n        /* \"#utility.yul\":9885:9903   */\n      add\n        /* \"#utility.yul\":9879:9904   */\n      mload\n        /* \"#utility.yul\":9953:9956   */\n      dup5\n        /* \"#utility.yul\":9947:9951   */\n      dup3\n        /* \"#utility.yul\":9943:9957   */\n      sub\n        /* \"#utility.yul\":9934:9940   */\n      0x0120\n        /* \"#utility.yul\":9929:9932   */\n      dup7\n        /* \"#utility.yul\":9925:9941   */\n      add\n        /* \"#utility.yul\":9918:9958   */\n      mstore\n        /* \"#utility.yul\":9979:10052   */\n      tag_551\n        /* \"#utility.yul\":10047:10051   */\n      dup3\n        /* \"#utility.yul\":10033:10045   */\n      dup3\n        /* \"#utility.yul\":9979:10052   */\n      tag_433\n      jump\t// in\n    tag_551:\n        /* \"#utility.yul\":9971:10052   */\n      swap2\n      pop\n        /* \"#utility.yul\":9816:10063   */\n      pop\n        /* \"#utility.yul\":10150:10156   */\n      0x0140\n        /* \"#utility.yul\":10143:10148   */\n      dup4\n        /* \"#utility.yul\":10139:10157   */\n      add\n        /* \"#utility.yul\":10133:10158   */\n      mload\n        /* \"#utility.yul\":10171:10236   */\n      tag_552\n        /* \"#utility.yul\":10228:10234   */\n      0x0140\n        /* \"#utility.yul\":10223:10226   */\n      dup7\n        /* \"#utility.yul\":10219:10235   */\n      add\n        /* \"#utility.yul\":10205:10217   */\n      dup3\n        /* \"#utility.yul\":10171:10236   */\n      tag_434\n      jump\t// in\n    tag_552:\n        /* \"#utility.yul\":10073:10246   */\n      pop\n        /* \"#utility.yul\":10263:10267   */\n      dup1\n        /* \"#utility.yul\":10256:10267   */\n      swap2\n      pop\n        /* \"#utility.yul\":7633:10273   */\n      pop\n        /* \"#utility.yul\":7515:10273   */\n      swap3\n      swap2\n      pop\n      pop\n      jump\t// out\n        /* \"#utility.yul\":10279:10543   */\n    tag_436:\n        /* \"#utility.yul\":10402:10412   */\n      0x00\n        /* \"#utility.yul\":10437:10537   */\n      tag_554\n        /* \"#utility.yul\":10533:10536   */\n      dup4\n        /* \"#utility.yul\":10525:10531   */\n      dup4\n        /* \"#utility.yul\":10437:10537   */\n      tag_435\n      jump\t// in\n    tag_554:\n        /* \"#utility.yul\":10423:10537   */\n      swap1\n      pop\n        /* \"#utility.yul\":10279:10543   */\n      swap3\n      swap2\n      pop\n      pop\n      jump\t// out\n        /* \"#utility.yul\":10549:10689   */\n    tag_437:\n        /* \"#utility.yul\":10646:10650   */\n      0x00\n        /* \"#utility.yul\":10678:10682   */\n      0x20\n        /* \"#utility.yul\":10673:10676   */\n      dup3\n        /* \"#utility.yul\":10669:10683   */\n      add\n        /* \"#utility.yul\":10661:10683   */\n      swap1\n      pop\n        /* \"#utility.yul\":10549:10689   */\n      swap2\n      swap1\n      pop\n      jump\t// out\n        /* \"#utility.yul\":10787:11914   */\n    tag_438:\n        /* \"#utility.yul\":10960:10963   */\n      0x00\n        /* \"#utility.yul\":10989:11070   */\n      tag_557\n        /* \"#utility.yul\":11064:11069   */\n      dup3\n        /* \"#utility.yul\":10989:11070   */\n      tag_429\n      jump\t// in\n    tag_557:\n        /* \"#utility.yul\":11086:11199   */\n      tag_558\n        /* \"#utility.yul\":11192:11198   */\n      dup2\n        /* \"#utility.yul\":11187:11190   */\n      dup6\n        /* \"#utility.yul\":11086:11199   */\n      tag_430\n      jump\t// in\n    tag_558:\n        /* \"#utility.yul\":11079:11199   */\n      swap4\n      pop\n        /* \"#utility.yul\":11225:11228   */\n      dup4\n        /* \"#utility.yul\":11270:11274   */\n      0x20\n        /* \"#utility.yul\":11262:11268   */\n      dup3\n        /* \"#utility.yul\":11258:11275   */\n      mul\n        /* \"#utility.yul\":11253:11256   */\n      dup6\n        /* \"#utility.yul\":11249:11276   */\n      add\n        /* \"#utility.yul\":11300:11383   */\n      tag_559\n        /* \"#utility.yul\":11377:11382   */\n      dup6\n        /* \"#utility.yul\":11300:11383   */\n      tag_431\n      jump\t// in\n    tag_559:\n        /* \"#utility.yul\":11406:11413   */\n      dup1\n        /* \"#utility.yul\":11437:11438   */\n      0x00\n        /* \"#utility.yul\":11422:11869   */\n    tag_560:\n        /* \"#utility.yul\":11447:11453   */\n      dup6\n        /* \"#utility.yul\":11444:11445   */\n      dup2\n        /* \"#utility.yul\":11441:11454   */\n      lt\n        /* \"#utility.yul\":11422:11869   */\n      iszero\n      tag_562\n      jumpi\n        /* \"#utility.yul\":11518:11527   */\n      dup5\n        /* \"#utility.yul\":11512:11516   */\n      dup5\n        /* \"#utility.yul\":11508:11528   */\n      sub\n        /* \"#utility.yul\":11503:11506   */\n      dup10\n        /* \"#utility.yul\":11496:11529   */\n      mstore\n        /* \"#utility.yul\":11569:11575   */\n      dup2\n        /* \"#utility.yul\":11563:11576   */\n      mload\n        /* \"#utility.yul\":11597:11715   */\n      tag_563\n        /* \"#utility.yul\":11710:11714   */\n      dup6\n        /* \"#utility.yul\":11695:11708   */\n      dup3\n        /* \"#utility.yul\":11597:11715   */\n      tag_436\n      jump\t// in\n    tag_563:\n        /* \"#utility.yul\":11589:11715   */\n      swap5\n      pop\n        /* \"#utility.yul\":11738:11825   */\n      tag_564\n        /* \"#utility.yul\":11818:11824   */\n      dup4\n        /* \"#utility.yul\":11738:11825   */\n      tag_437\n      jump\t// in\n    tag_564:\n        /* \"#utility.yul\":11728:11825   */\n      swap3\n      pop\n        /* \"#utility.yul\":11854:11858   */\n      0x20\n        /* \"#utility.yul\":11849:11852   */\n      dup11\n        /* \"#utility.yul\":11845:11859   */\n      add\n        /* \"#utility.yul\":11838:11859   */\n      swap10\n      pop\n        /* \"#utility.yul\":11482:11869   */\n      pop\n        /* \"#utility.yul\":11469:11470   */\n      0x01\n        /* \"#utility.yul\":11466:11467   */\n      dup2\n        /* \"#utility.yul\":11462:11471   */\n      add\n        /* \"#utility.yul\":11457:11471   */\n      swap1\n      pop\n        /* \"#utility.yul\":11422:11869   */\n      jump(tag_560)\n    tag_562:\n        /* \"#utility.yul\":11426:11440   */\n      pop\n        /* \"#utility.yul\":11885:11889   */\n      dup3\n        /* \"#utility.yul\":11878:11889   */\n      swap8\n      pop\n        /* \"#utility.yul\":11905:11908   */\n      dup8\n        /* \"#utility.yul\":11898:11908   */\n      swap6\n      pop\n        /* \"#utility.yul\":10965:11914   */\n      pop\n      pop\n      pop\n      pop\n      pop\n        /* \"#utility.yul\":10787:11914   */\n      swap3\n      swap2\n      pop\n      pop\n      jump\t// out\n        /* \"#utility.yul\":11920:12401   */\n    tag_23:\n        /* \"#utility.yul\":12117:12121   */\n      0x00\n        /* \"#utility.yul\":12155:12157   */\n      0x20\n        /* \"#utility.yul\":12144:12153   */\n      dup3\n        /* \"#utility.yul\":12140:12158   */\n      add\n        /* \"#utility.yul\":12132:12158   */\n      swap1\n      pop\n        /* \"#utility.yul\":12204:12213   */\n      dup2\n        /* \"#utility.yul\":12198:12202   */\n      dup2\n        /* \"#utility.yul\":12194:12214   */\n      sub\n        /* \"#utility.yul\":12190:12191   */\n      0x00\n        /* \"#utility.yul\":12179:12188   */\n      dup4\n        /* \"#utility.yul\":12175:12192   */\n      add\n        /* \"#utility.yul\":12168:12215   */\n      mstore\n        /* \"#utility.yul\":12232:12394   */\n      tag_566\n        /* \"#utility.yul\":12389:12393   */\n      dup2\n        /* \"#utility.yul\":12380:12386   */\n      dup5\n        /* \"#utility.yul\":12232:12394   */\n      tag_438\n      jump\t// in\n    tag_566:\n        /* \"#utility.yul\":12224:12394   */\n      swap1\n      pop\n        /* \"#utility.yul\":11920:12401   */\n      swap3\n      swap2\n      pop\n      pop\n      jump\t// out\n        /* \"#utility.yul\":12407:13241   */\n    tag_26:\n        /* \"#utility.yul\":12495:12501   */\n      0x00\n        /* \"#utility.yul\":12503:12509   */\n      dup1\n        /* \"#utility.yul\":12552:12554   */\n      0x40\n        /* \"#utility.yul\":12540:12549   */\n      dup4\n        /* \"#utility.yul\":12531:12538   */\n      dup6\n        /* \"#utility.yul\":12527:12550   */\n      sub\n        /* \"#utility.yul\":12523:12555   */\n      slt\n        /* \"#utility.yul\":12520:12639   */\n      iszero\n      tag_568\n      jumpi\n        /* \"#utility.yul\":12558:12637   */\n      tag_569\n      tag_412\n      jump\t// in\n    tag_569:\n        /* \"#utility.yul\":12520:12639   */\n    tag_568:\n        /* \"#utility.yul\":12706:12707   */\n      0x00\n        /* \"#utility.yul\":12695:12704   */\n      dup4\n        /* \"#utility.yul\":12691:12708   */\n      add\n        /* \"#utility.yul\":12678:12709   */\n      calldataload\n        /* \"#utility.yul\":12736:12754   */\n      0xffffffffffffffff\n        /* \"#utility.yul\":12728:12734   */\n      dup2\n        /* \"#utility.yul\":12725:12755   */\n      gt\n        /* \"#utility.yul\":12722:12839   */\n      iszero\n      tag_570\n      jumpi\n        /* \"#utility.yul\":12758:12837   */\n      tag_571\n      tag_413\n      jump\t// in\n    tag_571:\n        /* \"#utility.yul\":12722:12839   */\n    tag_570:\n        /* \"#utility.yul\":12863:12926   */\n      tag_572\n        /* \"#utility.yul\":12918:12925   */\n      dup6\n        /* \"#utility.yul\":12909:12915   */\n      dup3\n        /* \"#utility.yul\":12898:12907   */\n      dup7\n        /* \"#utility.yul\":12894:12916   */\n      add\n        /* \"#utility.yul\":12863:12926   */\n      tag_422\n      jump\t// in\n    tag_572:\n        /* \"#utility.yul\":12853:12926   */\n      swap3\n      pop\n        /* \"#utility.yul\":12649:12936   */\n      pop\n        /* \"#utility.yul\":13003:13005   */\n      0x20\n        /* \"#utility.yul\":12992:13001   */\n      dup4\n        /* \"#utility.yul\":12988:13006   */\n      add\n        /* \"#utility.yul\":12975:13007   */\n      calldataload\n        /* \"#utility.yul\":13034:13052   */\n      0xffffffffffffffff\n        /* \"#utility.yul\":13026:13032   */\n      dup2\n        /* \"#utility.yul\":13023:13053   */\n      gt\n        /* \"#utility.yul\":13020:13137   */\n      iszero\n      tag_573\n      jumpi\n        /* \"#utility.yul\":13056:13135   */\n      tag_574\n      tag_413\n      jump\t// in\n    tag_574:\n        /* \"#utility.yul\":13020:13137   */\n    tag_573:\n        /* \"#utility.yul\":13161:13224   */\n      tag_575\n        /* \"#utility.yul\":13216:13223   */\n      dup6\n        /* \"#utility.yul\":13207:13213   */\n      dup3\n        /* \"#utility.yul\":13196:13205   */\n      dup7\n        /* \"#utility.yul\":13192:13214   */\n      add\n        /* \"#utility.yul\":13161:13224   */\n      tag_422\n      jump\t// in\n    tag_575:\n        /* \"#utility.yul\":13151:13224   */\n      swap2\n      pop\n        /* \"#utility.yul\":12946:13234   */\n      pop\n        /* \"#utility.yul\":12407:13241   */\n      swap3\n      pop\n      swap3\n      swap1\n      pop\n      jump\t// out\n        /* \"#utility.yul\":13247:13369   */\n    tag_439:\n        /* \"#utility.yul\":13320:13344   */\n      tag_577\n        /* \"#utility.yul\":13338:13343   */\n      dup2\n        /* \"#utility.yul\":13320:13344   */\n      tag_427\n      jump\t// in\n    tag_577:\n        /* \"#utility.yul\":13313:13318   */\n      dup2\n        /* \"#utility.yul\":13310:13345   */\n      eq\n        /* \"#utility.yul\":13300:13363   */\n      tag_578\n      jumpi\n        /* \"#utility.yul\":13359:13360   */\n      0x00\n        /* \"#utility.yul\":13356:13357   */\n      dup1\n        /* \"#utility.yul\":13349:13361   */\n      revert\n        /* \"#utility.yul\":13300:13363   */\n    tag_578:\n        /* \"#utility.yul\":13247:13369   */\n      pop\n      jump\t// out\n        /* \"#utility.yul\":13375:13514   */\n    tag_440:\n        /* \"#utility.yul\":13421:13426   */\n      0x00\n        /* \"#utility.yul\":13459:13465   */\n      dup2\n        /* \"#utility.yul\":13446:13466   */\n      calldataload\n        /* \"#utility.yul\":13437:13466   */\n      swap1\n      pop\n        /* \"#utility.yul\":13475:13508   */\n      tag_580\n        /* \"#utility.yul\":13502:13507   */\n      dup2\n        /* \"#utility.yul\":13475:13508   */\n      tag_439\n      jump\t// in\n    tag_580:\n        /* \"#utility.yul\":13375:13514   */\n      swap3\n      swap2\n      pop\n      pop\n      jump\t// out\n        /* \"#utility.yul\":13520:13849   */\n    tag_33:\n        /* \"#utility.yul\":13579:13585   */\n      0x00\n        /* \"#utility.yul\":13628:13630   */\n      0x20\n        /* \"#utility.yul\":13616:13625   */\n      dup3\n        /* \"#utility.yul\":13607:13614   */\n      dup5\n        /* \"#utility.yul\":13603:13626   */\n      sub\n        /* \"#utility.yul\":13599:13631   */\n      slt\n        /* \"#utility.yul\":13596:13715   */\n      iszero\n      tag_582\n      jumpi\n        /* \"#utility.yul\":13634:13713   */\n      tag_583\n      tag_412\n      jump\t// in\n    tag_583:\n        /* \"#utility.yul\":13596:13715   */\n    tag_582:\n        /* \"#utility.yul\":13754:13755   */\n      0x00\n        /* \"#utility.yul\":13779:13832   */\n      tag_584\n        /* \"#utility.yul\":13824:13831   */\n      dup5\n        /* \"#utility.yul\":13815:13821   */\n      dup3\n        /* \"#utility.yul\":13804:13813   */\n      dup6\n        /* \"#utility.yul\":13800:13822   */\n      add\n        /* \"#utility.yul\":13779:13832   */\n      tag_440\n      jump\t// in\n    tag_584:\n        /* \"#utility.yul\":13769:13832   */\n      swap2\n      pop\n        /* \"#utility.yul\":13725:13842   */\n      pop\n        /* \"#utility.yul\":13520:13849   */\n      swap3\n      swap2\n      pop\n      pop\n      jump\t// out\n        /* \"#utility.yul\":13855:14168   */\n    tag_36:\n        /* \"#utility.yul\":13968:13972   */\n      0x00\n        /* \"#utility.yul\":14006:14008   */\n      0x20\n        /* \"#utility.yul\":13995:14004   */\n      dup3\n        /* \"#utility.yul\":13991:14009   */\n      add\n        /* \"#utility.yul\":13983:14009   */\n      swap1\n      pop\n        /* \"#utility.yul\":14055:14064   */\n      dup2\n        /* \"#utility.yul\":14049:14053   */\n      dup2\n        /* \"#utility.yul\":14045:14065   */\n      sub\n        /* \"#utility.yul\":14041:14042   */\n      0x00\n        /* \"#utility.yul\":14030:14039   */\n      dup4\n        /* \"#utility.yul\":14026:14043   */\n      add\n        /* \"#utility.yul\":14019:14066   */\n      mstore\n        /* \"#utility.yul\":14083:14161   */\n      tag_586\n        /* \"#utility.yul\":14156:14160   */\n      dup2\n        /* \"#utility.yul\":14147:14153   */\n      dup5\n        /* \"#utility.yul\":14083:14161   */\n      tag_426\n      jump\t// in\n    tag_586:\n        /* \"#utility.yul\":14075:14161   */\n      swap1\n      pop\n        /* \"#utility.yul\":13855:14168   */\n      swap3\n      swap2\n      pop\n      pop\n      jump\t// out\n        /* \"#utility.yul\":14174:17075   */\n    tag_43:\n        /* \"#utility.yul\":14384:14390   */\n      0x00\n        /* \"#utility.yul\":14392:14398   */\n      dup1\n        /* \"#utility.yul\":14400:14406   */\n      0x00\n        /* \"#utility.yul\":14408:14414   */\n      dup1\n        /* \"#utility.yul\":14416:14422   */\n      0x00\n        /* \"#utility.yul\":14424:14430   */\n      dup1\n        /* \"#utility.yul\":14432:14438   */\n      0x00\n        /* \"#utility.yul\":14440:14446   */\n      dup1\n        /* \"#utility.yul\":14448:14454   */\n      0x00\n        /* \"#utility.yul\":14456:14462   */\n      dup1\n        /* \"#utility.yul\":14505:14508   */\n      0x0140\n        /* \"#utility.yul\":14493:14502   */\n      dup12\n        /* \"#utility.yul\":14484:14491   */\n      dup14\n        /* \"#utility.yul\":14480:14503   */\n      sub\n        /* \"#utility.yul\":14476:14509   */\n      slt\n        /* \"#utility.yul\":14473:14593   */\n      iszero\n      tag_588\n      jumpi\n        /* \"#utility.yul\":14512:14591   */\n      tag_589\n      tag_412\n      jump\t// in\n    tag_589:\n        /* \"#utility.yul\":14473:14593   */\n    tag_588:\n        /* \"#utility.yul\":14660:14661   */\n      0x00\n        /* \"#utility.yul\":14649:14658   */\n      dup12\n        /* \"#utility.yul\":14645:14662   */\n      add\n        /* \"#utility.yul\":14632:14663   */\n      calldataload\n        /* \"#utility.yul\":14690:14708   */\n      0xffffffffffffffff\n        /* \"#utility.yul\":14682:14688   */\n      dup2\n        /* \"#utility.yul\":14679:14709   */\n      gt\n        /* \"#utility.yul\":14676:14793   */\n      iszero\n      tag_590\n      jumpi\n        /* \"#utility.yul\":14712:14791   */\n      tag_591\n      tag_413\n      jump\t// in\n    tag_591:\n        /* \"#utility.yul\":14676:14793   */\n    tag_590:\n        /* \"#utility.yul\":14817:14880   */\n      tag_592\n        /* \"#utility.yul\":14872:14879   */\n      dup14\n        /* \"#utility.yul\":14863:14869   */\n      dup3\n        /* \"#utility.yul\":14852:14861   */\n      dup15\n        /* \"#utility.yul\":14848:14870   */\n      add\n        /* \"#utility.yul\":14817:14880   */\n      tag_422\n      jump\t// in\n    tag_592:\n        /* \"#utility.yul\":14807:14880   */\n      swap11\n      pop\n        /* \"#utility.yul\":14603:14890   */\n      pop\n        /* \"#utility.yul\":14957:14959   */\n      0x20\n        /* \"#utility.yul\":14946:14955   */\n      dup12\n        /* \"#utility.yul\":14942:14960   */\n      add\n        /* \"#utility.yul\":14929:14961   */\n      calldataload\n        /* \"#utility.yul\":14988:15006   */\n      0xffffffffffffffff\n        /* \"#utility.yul\":14980:14986   */\n      dup2\n        /* \"#utility.yul\":14977:15007   */\n      gt\n        /* \"#utility.yul\":14974:15091   */\n      iszero\n      tag_593\n      jumpi\n        /* \"#utility.yul\":15010:15089   */\n      tag_594\n      tag_413\n      jump\t// in\n    tag_594:\n        /* \"#utility.yul\":14974:15091   */\n    tag_593:\n        /* \"#utility.yul\":15115:15178   */\n      tag_595\n        /* \"#utility.yul\":15170:15177   */\n      dup14\n        /* \"#utility.yul\":15161:15167   */\n      dup3\n        /* \"#utility.yul\":15150:15159   */\n      dup15\n        /* \"#utility.yul\":15146:15168   */\n      add\n        /* \"#utility.yul\":15115:15178   */\n      tag_422\n      jump\t// in\n    tag_595:\n        /* \"#utility.yul\":15105:15178   */\n      swap10\n      pop\n        /* \"#utility.yul\":14900:15188   */\n      pop\n        /* \"#utility.yul\":15255:15257   */\n      0x40\n        /* \"#utility.yul\":15244:15253   */\n      dup12\n        /* \"#utility.yul\":15240:15258   */\n      add\n        /* \"#utility.yul\":15227:15259   */\n      calldataload\n        /* \"#utility.yul\":15286:15304   */\n      0xffffffffffffffff\n        /* \"#utility.yul\":15278:15284   */\n      dup2\n        /* \"#utility.yul\":15275:15305   */\n      gt\n        /* \"#utility.yul\":15272:15389   */\n      iszero\n      tag_596\n      jumpi\n        /* \"#utility.yul\":15308:15387   */\n      tag_597\n      tag_413\n      jump\t// in\n    tag_597:\n        /* \"#utility.yul\":15272:15389   */\n    tag_596:\n        /* \"#utility.yul\":15413:15476   */\n      tag_598\n        /* \"#utility.yul\":15468:15475   */\n      dup14\n        /* \"#utility.yul\":15459:15465   */\n      dup3\n        /* \"#utility.yul\":15448:15457   */\n      dup15\n        /* \"#utility.yul\":15444:15466   */\n      add\n        /* \"#utility.yul\":15413:15476   */\n      tag_422\n      jump\t// in\n    tag_598:\n        /* \"#utility.yul\":15403:15476   */\n      swap9\n      pop\n        /* \"#utility.yul\":15198:15486   */\n      pop\n        /* \"#utility.yul\":15553:15555   */\n      0x60\n        /* \"#utility.yul\":15542:15551   */\n      dup12\n        /* \"#utility.yul\":15538:15556   */\n      add\n        /* \"#utility.yul\":15525:15557   */\n      calldataload\n        /* \"#utility.yul\":15584:15602   */\n      0xffffffffffffffff\n        /* \"#utility.yul\":15576:15582   */\n      dup2\n        /* \"#utility.yul\":15573:15603   */\n      gt\n        /* \"#utility.yul\":15570:15687   */\n      iszero\n      tag_599\n      jumpi\n        /* \"#utility.yul\":15606:15685   */\n      tag_600\n      tag_413\n      jump\t// in\n    tag_600:\n        /* \"#utility.yul\":15570:15687   */\n    tag_599:\n        /* \"#utility.yul\":15711:15774   */\n      tag_601\n        /* \"#utility.yul\":15766:15773   */\n      dup14\n        /* \"#utility.yul\":15757:15763   */\n      dup3\n        /* \"#utility.yul\":15746:15755   */\n      dup15\n        /* \"#utility.yul\":15742:15764   */\n      add\n        /* \"#utility.yul\":15711:15774   */\n      tag_422\n      jump\t// in\n    tag_601:\n        /* \"#utility.yul\":15701:15774   */\n      swap8\n      pop\n        /* \"#utility.yul\":15496:15784   */\n      pop\n        /* \"#utility.yul\":15851:15854   */\n      0x80\n        /* \"#utility.yul\":15840:15849   */\n      dup12\n        /* \"#utility.yul\":15836:15855   */\n      add\n        /* \"#utility.yul\":15823:15856   */\n      calldataload\n        /* \"#utility.yul\":15883:15901   */\n      0xffffffffffffffff\n        /* \"#utility.yul\":15875:15881   */\n      dup2\n        /* \"#utility.yul\":15872:15902   */\n      gt\n        /* \"#utility.yul\":15869:15986   */\n      iszero\n      tag_602\n      jumpi\n        /* \"#utility.yul\":15905:15984   */\n      tag_603\n      tag_413\n      jump\t// in\n    tag_603:\n        /* \"#utility.yul\":15869:15986   */\n    tag_602:\n        /* \"#utility.yul\":16010:16073   */\n      tag_604\n        /* \"#utility.yul\":16065:16072   */\n      dup14\n        /* \"#utility.yul\":16056:16062   */\n      dup3\n        /* \"#utility.yul\":16045:16054   */\n      dup15\n        /* \"#utility.yul\":16041:16063   */\n      add\n        /* \"#utility.yul\":16010:16073   */\n      tag_422\n      jump\t// in\n    tag_604:\n        /* \"#utility.yul\":16000:16073   */\n      swap7\n      pop\n        /* \"#utility.yul\":15794:16083   */\n      pop\n        /* \"#utility.yul\":16150:16153   */\n      0xa0\n        /* \"#utility.yul\":16139:16148   */\n      dup12\n        /* \"#utility.yul\":16135:16154   */\n      add\n        /* \"#utility.yul\":16122:16155   */\n      calldataload\n        /* \"#utility.yul\":16182:16200   */\n      0xffffffffffffffff\n        /* \"#utility.yul\":16174:16180   */\n      dup2\n        /* \"#utility.yul\":16171:16201   */\n      gt\n        /* \"#utility.yul\":16168:16285   */\n      iszero\n      tag_605\n      jumpi\n        /* \"#utility.yul\":16204:16283   */\n      tag_606\n      tag_413\n      jump\t// in\n    tag_606:\n        /* \"#utility.yul\":16168:16285   */\n    tag_605:\n        /* \"#utility.yul\":16309:16372   */\n      tag_607\n        /* \"#utility.yul\":16364:16371   */\n      dup14\n        /* \"#utility.yul\":16355:16361   */\n      dup3\n        /* \"#utility.yul\":16344:16353   */\n      dup15\n        /* \"#utility.yul\":16340:16362   */\n      add\n        /* \"#utility.yul\":16309:16372   */\n      tag_422\n      jump\t// in\n    tag_607:\n        /* \"#utility.yul\":16299:16372   */\n      swap6\n      pop\n        /* \"#utility.yul\":16093:16382   */\n      pop\n        /* \"#utility.yul\":16421:16424   */\n      0xc0\n        /* \"#utility.yul\":16448:16501   */\n      tag_608\n        /* \"#utility.yul\":16493:16500   */\n      dup14\n        /* \"#utility.yul\":16484:16490   */\n      dup3\n        /* \"#utility.yul\":16473:16482   */\n      dup15\n        /* \"#utility.yul\":16469:16491   */\n      add\n        /* \"#utility.yul\":16448:16501   */\n      tag_440\n      jump\t// in\n    tag_608:\n        /* \"#utility.yul\":16438:16501   */\n      swap5\n      pop\n        /* \"#utility.yul\":16392:16511   */\n      pop\n        /* \"#utility.yul\":16550:16553   */\n      0xe0\n        /* \"#utility.yul\":16577:16630   */\n      tag_609\n        /* \"#utility.yul\":16622:16629   */\n      dup14\n        /* \"#utility.yul\":16613:16619   */\n      dup3\n        /* \"#utility.yul\":16602:16611   */\n      dup15\n        /* \"#utility.yul\":16598:16620   */\n      add\n        /* \"#utility.yul\":16577:16630   */\n      tag_440\n      jump\t// in\n    tag_609:\n        /* \"#utility.yul\":16567:16630   */\n      swap4\n      pop\n        /* \"#utility.yul\":16521:16640   */\n      pop\n        /* \"#utility.yul\":16707:16710   */\n      0x0100\n        /* \"#utility.yul\":16696:16705   */\n      dup12\n        /* \"#utility.yul\":16692:16711   */\n      add\n        /* \"#utility.yul\":16679:16712   */\n      calldataload\n        /* \"#utility.yul\":16739:16757   */\n      0xffffffffffffffff\n        /* \"#utility.yul\":16731:16737   */\n      dup2\n        /* \"#utility.yul\":16728:16758   */\n      gt\n        /* \"#utility.yul\":16725:16842   */\n      iszero\n      tag_610\n      jumpi\n        /* \"#utility.yul\":16761:16840   */\n      tag_611\n      tag_413\n      jump\t// in\n    tag_611:\n        /* \"#utility.yul\":16725:16842   */\n    tag_610:\n        /* \"#utility.yul\":16866:16929   */\n      tag_612\n        /* \"#utility.yul\":16921:16928   */\n      dup14\n        /* \"#utility.yul\":16912:16918   */\n      dup3\n        /* \"#utility.yul\":16901:16910   */\n      dup15\n        /* \"#utility.yul\":16897:16919   */\n      add\n        /* \"#utility.yul\":16866:16929   */\n      tag_422\n      jump\t// in\n    tag_612:\n        /* \"#utility.yul\":16856:16929   */\n      swap3\n      pop\n        /* \"#utility.yul\":16650:16939   */\n      pop\n        /* \"#utility.yul\":16978:16981   */\n      0x0120\n        /* \"#utility.yul\":17005:17058   */\n      tag_613\n        /* \"#utility.yul\":17050:17057   */\n      dup14\n        /* \"#utility.yul\":17041:17047   */\n      dup3\n        /* \"#utility.yul\":17030:17039   */\n      dup15\n        /* \"#utility.yul\":17026:17048   */\n      add\n        /* \"#utility.yul\":17005:17058   */\n      tag_440\n      jump\t// in\n    tag_613:\n        /* \"#utility.yul\":16995:17058   */\n      swap2\n      pop\n        /* \"#utility.yul\":16949:17068   */\n      pop\n        /* \"#utility.yul\":14174:17075   */\n      swap3\n      swap6\n      swap9\n      swap12\n      swap2\n      swap5\n      swap8\n      swap11\n      pop\n      swap3\n      swap6\n      swap9\n      pop\n      jump\t// out\n        /* \"#utility.yul\":17169:19937   */\n    tag_441:\n        /* \"#utility.yul\":17292:17295   */\n      0x00\n        /* \"#utility.yul\":17328:17334   */\n      0x0160\n        /* \"#utility.yul\":17323:17326   */\n      dup4\n        /* \"#utility.yul\":17319:17335   */\n      add\n        /* \"#utility.yul\":17428:17432   */\n      0x00\n        /* \"#utility.yul\":17421:17426   */\n      dup4\n        /* \"#utility.yul\":17417:17433   */\n      add\n        /* \"#utility.yul\":17411:17434   */\n      mload\n        /* \"#utility.yul\":17481:17484   */\n      dup5\n        /* \"#utility.yul\":17475:17479   */\n      dup3\n        /* \"#utility.yul\":17471:17485   */\n      sub\n        /* \"#utility.yul\":17464:17468   */\n      0x00\n        /* \"#utility.yul\":17459:17462   */\n      dup7\n        /* \"#utility.yul\":17455:17469   */\n      add\n        /* \"#utility.yul\":17448:17486   */\n      mstore\n        /* \"#utility.yul\":17507:17580   */\n      tag_615\n        /* \"#utility.yul\":17575:17579   */\n      dup3\n        /* \"#utility.yul\":17561:17573   */\n      dup3\n        /* \"#utility.yul\":17507:17580   */\n      tag_433\n      jump\t// in\n    tag_615:\n        /* \"#utility.yul\":17499:17580   */\n      swap2\n      pop\n        /* \"#utility.yul\":17345:17591   */\n      pop\n        /* \"#utility.yul\":17679:17683   */\n      0x20\n        /* \"#utility.yul\":17672:17677   */\n      dup4\n        /* \"#utility.yul\":17668:17684   */\n      add\n        /* \"#utility.yul\":17662:17685   */\n      mload\n        /* \"#utility.yul\":17732:17735   */\n      dup5\n        /* \"#utility.yul\":17726:17730   */\n      dup3\n        /* \"#utility.yul\":17722:17736   */\n      sub\n        /* \"#utility.yul\":17715:17719   */\n      0x20\n        /* \"#utility.yul\":17710:17713   */\n      dup7\n        /* \"#utility.yul\":17706:17720   */\n      add\n        /* \"#utility.yul\":17699:17737   */\n      mstore\n        /* \"#utility.yul\":17758:17831   */\n      tag_616\n        /* \"#utility.yul\":17826:17830   */\n      dup3\n        /* \"#utility.yul\":17812:17824   */\n      dup3\n        /* \"#utility.yul\":17758:17831   */\n      tag_433\n      jump\t// in\n    tag_616:\n        /* \"#utility.yul\":17750:17831   */\n      swap2\n      pop\n        /* \"#utility.yul\":17601:17842   */\n      pop\n        /* \"#utility.yul\":17932:17936   */\n      0x40\n        /* \"#utility.yul\":17925:17930   */\n      dup4\n        /* \"#utility.yul\":17921:17937   */\n      add\n        /* \"#utility.yul\":17915:17938   */\n      mload\n        /* \"#utility.yul\":17985:17988   */\n      dup5\n        /* \"#utility.yul\":17979:17983   */\n      dup3\n        /* \"#utility.yul\":17975:17989   */\n      sub\n        /* \"#utility.yul\":17968:17972   */\n      0x40\n        /* \"#utility.yul\":17963:17966   */\n      dup7\n        /* \"#utility.yul\":17959:17973   */\n      add\n        /* \"#utility.yul\":17952:17990   */\n      mstore\n        /* \"#utility.yul\":18011:18084   */\n      tag_617\n        /* \"#utility.yul\":18079:18083   */\n      dup3\n        /* \"#utility.yul\":18065:18077   */\n      dup3\n        /* \"#utility.yul\":18011:18084   */\n      tag_433\n      jump\t// in\n    tag_617:\n        /* \"#utility.yul\":18003:18084   */\n      swap2\n      pop\n        /* \"#utility.yul\":17852:18095   */\n      pop\n        /* \"#utility.yul\":18182:18186   */\n      0x60\n        /* \"#utility.yul\":18175:18180   */\n      dup4\n        /* \"#utility.yul\":18171:18187   */\n      add\n        /* \"#utility.yul\":18165:18188   */\n      mload\n        /* \"#utility.yul\":18235:18238   */\n      dup5\n        /* \"#utility.yul\":18229:18233   */\n      dup3\n        /* \"#utility.yul\":18225:18239   */\n      sub\n        /* \"#utility.yul\":18218:18222   */\n      0x60\n        /* \"#utility.yul\":18213:18216   */\n      dup7\n        /* \"#utility.yul\":18209:18223   */\n      add\n        /* \"#utility.yul\":18202:18240   */\n      mstore\n        /* \"#utility.yul\":18261:18334   */\n      tag_618\n        /* \"#utility.yul\":18329:18333   */\n      dup3\n        /* \"#utility.yul\":18315:18327   */\n      dup3\n        /* \"#utility.yul\":18261:18334   */\n      tag_433\n      jump\t// in\n    tag_618:\n        /* \"#utility.yul\":18253:18334   */\n      swap2\n      pop\n        /* \"#utility.yul\":18105:18345   */\n      pop\n        /* \"#utility.yul\":18436:18440   */\n      0x80\n        /* \"#utility.yul\":18429:18434   */\n      dup4\n        /* \"#utility.yul\":18425:18441   */\n      add\n        /* \"#utility.yul\":18419:18442   */\n      mload\n        /* \"#utility.yul\":18489:18492   */\n      dup5\n        /* \"#utility.yul\":18483:18487   */\n      dup3\n        /* \"#utility.yul\":18479:18493   */\n      sub\n        /* \"#utility.yul\":18472:18476   */\n      0x80\n        /* \"#utility.yul\":18467:18470   */\n      dup7\n        /* \"#utility.yul\":18463:18477   */\n      add\n        /* \"#utility.yul\":18456:18494   */\n      mstore\n        /* \"#utility.yul\":18515:18588   */\n      tag_619\n        /* \"#utility.yul\":18583:18587   */\n      dup3\n        /* \"#utility.yul\":18569:18581   */\n      dup3\n        /* \"#utility.yul\":18515:18588   */\n      tag_433\n      jump\t// in\n    tag_619:\n        /* \"#utility.yul\":18507:18588   */\n      swap2\n      pop\n        /* \"#utility.yul\":18355:18599   */\n      pop\n        /* \"#utility.yul\":18683:18687   */\n      0xa0\n        /* \"#utility.yul\":18676:18681   */\n      dup4\n        /* \"#utility.yul\":18672:18688   */\n      add\n        /* \"#utility.yul\":18666:18689   */\n      mload\n        /* \"#utility.yul\":18736:18739   */\n      dup5\n        /* \"#utility.yul\":18730:18734   */\n      dup3\n        /* \"#utility.yul\":18726:18740   */\n      sub\n        /* \"#utility.yul\":18719:18723   */\n      0xa0\n        /* \"#utility.yul\":18714:18717   */\n      dup7\n        /* \"#utility.yul\":18710:18724   */\n      add\n        /* \"#utility.yul\":18703:18741   */\n      mstore\n        /* \"#utility.yul\":18762:18835   */\n      tag_620\n        /* \"#utility.yul\":18830:18834   */\n      dup3\n        /* \"#utility.yul\":18816:18828   */\n      dup3\n        /* \"#utility.yul\":18762:18835   */\n      tag_433\n      jump\t// in\n    tag_620:\n        /* \"#utility.yul\":18754:18835   */\n      swap2\n      pop\n        /* \"#utility.yul\":18609:18846   */\n      pop\n        /* \"#utility.yul\":18932:18936   */\n      0xc0\n        /* \"#utility.yul\":18925:18930   */\n      dup4\n        /* \"#utility.yul\":18921:18937   */\n      add\n        /* \"#utility.yul\":18915:18938   */\n      mload\n        /* \"#utility.yul\":18951:19014   */\n      tag_621\n        /* \"#utility.yul\":19008:19012   */\n      0xc0\n        /* \"#utility.yul\":19003:19006   */\n      dup7\n        /* \"#utility.yul\":18999:19013   */\n      add\n        /* \"#utility.yul\":18985:18997   */\n      dup3\n        /* \"#utility.yul\":18951:19014   */\n      tag_434\n      jump\t// in\n    tag_621:\n        /* \"#utility.yul\":18856:19024   */\n      pop\n        /* \"#utility.yul\":19112:19116   */\n      0xe0\n        /* \"#utility.yul\":19105:19110   */\n      dup4\n        /* \"#utility.yul\":19101:19117   */\n      add\n        /* \"#utility.yul\":19095:19118   */\n      mload\n        /* \"#utility.yul\":19131:19194   */\n      tag_622\n        /* \"#utility.yul\":19188:19192   */\n      0xe0\n        /* \"#utility.yul\":19183:19186   */\n      dup7\n        /* \"#utility.yul\":19179:19193   */\n      add\n        /* \"#utility.yul\":19165:19177   */\n      dup3\n        /* \"#utility.yul\":19131:19194   */\n      tag_434\n      jump\t// in\n    tag_622:\n        /* \"#utility.yul\":19034:19204   */\n      pop\n        /* \"#utility.yul\":19303:19309   */\n      0x0100\n        /* \"#utility.yul\":19296:19301   */\n      dup4\n        /* \"#utility.yul\":19292:19310   */\n      add\n        /* \"#utility.yul\":19286:19311   */\n      mload\n        /* \"#utility.yul\":19360:19363   */\n      dup5\n        /* \"#utility.yul\":19354:19358   */\n      dup3\n        /* \"#utility.yul\":19350:19364   */\n      sub\n        /* \"#utility.yul\":19341:19347   */\n      0x0100\n        /* \"#utility.yul\":19336:19339   */\n      dup7\n        /* \"#utility.yul\":19332:19348   */\n      add\n        /* \"#utility.yul\":19325:19365   */\n      mstore\n        /* \"#utility.yul\":19386:19459   */\n      tag_623\n        /* \"#utility.yul\":19454:19458   */\n      dup3\n        /* \"#utility.yul\":19440:19452   */\n      dup3\n        /* \"#utility.yul\":19386:19459   */\n      tag_433\n      jump\t// in\n    tag_623:\n        /* \"#utility.yul\":19378:19459   */\n      swap2\n      pop\n        /* \"#utility.yul\":19214:19470   */\n      pop\n        /* \"#utility.yul\":19560:19566   */\n      0x0120\n        /* \"#utility.yul\":19553:19558   */\n      dup4\n        /* \"#utility.yul\":19549:19567   */\n      add\n        /* \"#utility.yul\":19543:19568   */\n      mload\n        /* \"#utility.yul\":19617:19620   */\n      dup5\n        /* \"#utility.yul\":19611:19615   */\n      dup3\n        /* \"#utility.yul\":19607:19621   */\n      sub\n        /* \"#utility.yul\":19598:19604   */\n      0x0120\n        /* \"#utility.yul\":19593:19596   */\n      dup7\n        /* \"#utility.yul\":19589:19605   */\n      add\n        /* \"#utility.yul\":19582:19622   */\n      mstore\n        /* \"#utility.yul\":19643:19716   */\n      tag_624\n        /* \"#utility.yul\":19711:19715   */\n      dup3\n        /* \"#utility.yul\":19697:19709   */\n      dup3\n        /* \"#utility.yul\":19643:19716   */\n      tag_433\n      jump\t// in\n    tag_624:\n        /* \"#utility.yul\":19635:19716   */\n      swap2\n      pop\n        /* \"#utility.yul\":19480:19727   */\n      pop\n        /* \"#utility.yul\":19814:19820   */\n      0x0140\n        /* \"#utility.yul\":19807:19812   */\n      dup4\n        /* \"#utility.yul\":19803:19821   */\n      add\n        /* \"#utility.yul\":19797:19822   */\n      mload\n        /* \"#utility.yul\":19835:19900   */\n      tag_625\n        /* \"#utility.yul\":19892:19898   */\n      0x0140\n        /* \"#utility.yul\":19887:19890   */\n      dup7\n        /* \"#utility.yul\":19883:19899   */\n      add\n        /* \"#utility.yul\":19869:19881   */\n      dup3\n        /* \"#utility.yul\":19835:19900   */\n      tag_434\n      jump\t// in\n    tag_625:\n        /* \"#utility.yul\":19737:19910   */\n      pop\n        /* \"#utility.yul\":19927:19931   */\n      dup1\n        /* \"#utility.yul\":19920:19931   */\n      swap2\n      pop\n        /* \"#utility.yul\":17297:19937   */\n      pop\n        /* \"#utility.yul\":17169:19937   */\n      swap3\n      swap2\n      pop\n      pop\n      jump\t// out\n        /* \"#utility.yul\":19943:20324   */\n    tag_53:\n        /* \"#utility.yul\":20090:20094   */\n      0x00\n        /* \"#utility.yul\":20128:20130   */\n      0x20\n        /* \"#utility.yul\":20117:20126   */\n      dup3\n        /* \"#utility.yul\":20113:20131   */\n      add\n        /* \"#utility.yul\":20105:20131   */\n      swap1\n      pop\n        /* \"#utility.yul\":20177:20186   */\n      dup2\n        /* \"#utility.yul\":20171:20175   */\n      dup2\n        /* \"#utility.yul\":20167:20187   */\n      sub\n        /* \"#utility.yul\":20163:20164   */\n      0x00\n        /* \"#utility.yul\":20152:20161   */\n      dup4\n        /* \"#utility.yul\":20148:20165   */\n      add\n        /* \"#utility.yul\":20141:20188   */\n      mstore\n        /* \"#utility.yul\":20205:20317   */\n      tag_627\n        /* \"#utility.yul\":20312:20316   */\n      dup2\n        /* \"#utility.yul\":20303:20309   */\n      dup5\n        /* \"#utility.yul\":20205:20317   */\n      tag_441\n      jump\t// in\n    tag_627:\n        /* \"#utility.yul\":20197:20317   */\n      swap1\n      pop\n        /* \"#utility.yul\":19943:20324   */\n      swap3\n      swap2\n      pop\n      pop\n      jump\t// out\n        /* \"#utility.yul\":20330:20510   */\n    tag_442:\n        /* \"#utility.yul\":20378:20455   */\n      0x4e487b7100000000000000000000000000000000000000000000000000000000\n        /* \"#utility.yul\":20375:20376   */\n      0x00\n        /* \"#utility.yul\":20368:20456   */\n      mstore\n        /* \"#utility.yul\":20475:20479   */\n      0x22\n        /* \"#utility.yul\":20472:20473   */\n      0x04\n        /* \"#utility.yul\":20465:20480   */\n      mstore\n        /* \"#utility.yul\":20499:20503   */\n      0x24\n        /* \"#utility.yul\":20496:20497   */\n      0x00\n        /* \"#utility.yul\":20489:20504   */\n      revert\n        /* \"#utility.yul\":20516:20836   */\n    tag_58:\n        /* \"#utility.yul\":20560:20566   */\n      0x00\n        /* \"#utility.yul\":20597:20598   */\n      0x02\n        /* \"#utility.yul\":20591:20595   */\n      dup3\n        /* \"#utility.yul\":20587:20599   */\n      div\n        /* \"#utility.yul\":20577:20599   */\n      swap1\n      pop\n        /* \"#utility.yul\":20644:20645   */\n      0x01\n        /* \"#utility.yul\":20638:20642   */\n      dup3\n        /* \"#utility.yul\":20634:20646   */\n      and\n        /* \"#utility.yul\":20665:20683   */\n      dup1\n        /* \"#utility.yul\":20655:20736   */\n      tag_630\n      jumpi\n        /* \"#utility.yul\":20721:20725   */\n      0x7f\n        /* \"#utility.yul\":20713:20719   */\n      dup3\n        /* \"#utility.yul\":20709:20726   */\n      and\n        /* \"#utility.yul\":20699:20726   */\n      swap2\n      pop\n        /* \"#utility.yul\":20655:20736   */\n    tag_630:\n        /* \"#utility.yul\":20783:20785   */\n      0x20\n        /* \"#utility.yul\":20775:20781   */\n      dup3\n        /* \"#utility.yul\":20772:20786   */\n      lt\n        /* \"#utility.yul\":20752:20770   */\n      dup2\n        /* \"#utility.yul\":20749:20787   */\n      sub\n        /* \"#utility.yul\":20746:20830   */\n      tag_631\n      jumpi\n        /* \"#utility.yul\":20802:20820   */\n      tag_632\n      tag_442\n      jump\t// in\n    tag_632:\n        /* \"#utility.yul\":20746:20830   */\n    tag_631:\n        /* \"#utility.yul\":20567:20836   */\n      pop\n        /* \"#utility.yul\":20516:20836   */\n      swap2\n      swap1\n      pop\n      jump\t// out\n        /* \"#utility.yul\":20842:21022   */\n    tag_111:\n        /* \"#utility.yul\":20890:20967   */\n      0x4e487b7100000000000000000000000000000000000000000000000000000000\n        /* \"#utility.yul\":20887:20888   */\n      0x00\n        /* \"#utility.yul\":20880:20968   */\n      mstore\n        /* \"#utility.yul\":20987:20991   */\n      0x32\n        /* \"#utility.yul\":20984:20985   */\n      0x04\n        /* \"#utility.yul\":20977:20992   */\n      mstore\n        /* \"#utility.yul\":21011:21015   */\n      0x24\n        /* \"#utility.yul\":21008:21009   */\n      0x00\n        /* \"#utility.yul\":21001:21016   */\n      revert\n        /* \"#utility.yul\":21028:21176   */\n    tag_443:\n        /* \"#utility.yul\":21130:21141   */\n      0x00\n        /* \"#utility.yul\":21167:21170   */\n      dup2\n        /* \"#utility.yul\":21152:21170   */\n      swap1\n      pop\n        /* \"#utility.yul\":21028:21176   */\n      swap3\n      swap2\n      pop\n      pop\n      jump\t// out\n        /* \"#utility.yul\":21182:21323   */\n    tag_444:\n        /* \"#utility.yul\":21231:21235   */\n      0x00\n        /* \"#utility.yul\":21254:21257   */\n      dup2\n        /* \"#utility.yul\":21246:21257   */\n      swap1\n      pop\n        /* \"#utility.yul\":21277:21280   */\n      dup2\n        /* \"#utility.yul\":21274:21275   */\n      0x00\n        /* \"#utility.yul\":21267:21281   */\n      mstore\n        /* \"#utility.yul\":21311:21315   */\n      0x20\n        /* \"#utility.yul\":21308:21309   */\n      0x00\n        /* \"#utility.yul\":21298:21316   */\n      keccak256\n        /* \"#utility.yul\":21290:21316   */\n      swap1\n      pop\n        /* \"#utility.yul\":21182:21323   */\n      swap2\n      swap1\n      pop\n      jump\t// out\n        /* \"#utility.yul\":21353:22227   */\n    tag_445:\n        /* \"#utility.yul\":21456:21459   */\n      0x00\n        /* \"#utility.yul\":21493:21498   */\n      dup2\n        /* \"#utility.yul\":21487:21499   */\n      sload\n        /* \"#utility.yul\":21522:21558   */\n      tag_637\n        /* \"#utility.yul\":21548:21557   */\n      dup2\n        /* \"#utility.yul\":21522:21558   */\n      tag_58\n      jump\t// in\n    tag_637:\n        /* \"#utility.yul\":21574:21663   */\n      tag_638\n        /* \"#utility.yul\":21656:21662   */\n      dup2\n        /* \"#utility.yul\":21651:21654   */\n      dup7\n        /* \"#utility.yul\":21574:21663   */\n      tag_443\n      jump\t// in\n    tag_638:\n        /* \"#utility.yul\":21567:21663   */\n      swap5\n      pop\n        /* \"#utility.yul\":21694:21695   */\n      0x01\n        /* \"#utility.yul\":21683:21692   */\n      dup3\n        /* \"#utility.yul\":21679:21696   */\n      and\n        /* \"#utility.yul\":21710:21711   */\n      0x00\n        /* \"#utility.yul\":21705:21871   */\n      dup2\n      eq\n      tag_640\n      jumpi\n        /* \"#utility.yul\":21885:21886   */\n      0x01\n        /* \"#utility.yul\":21880:22221   */\n      dup2\n      eq\n      tag_641\n      jumpi\n        /* \"#utility.yul\":21672:22221   */\n      jump(tag_639)\n        /* \"#utility.yul\":21705:21871   */\n    tag_640:\n        /* \"#utility.yul\":21789:21793   */\n      0xff\n        /* \"#utility.yul\":21785:21794   */\n      not\n        /* \"#utility.yul\":21774:21783   */\n      dup4\n        /* \"#utility.yul\":21770:21795   */\n      and\n        /* \"#utility.yul\":21765:21768   */\n      dup7\n        /* \"#utility.yul\":21758:21796   */\n      mstore\n        /* \"#utility.yul\":21851:21857   */\n      dup2\n        /* \"#utility.yul\":21844:21858   */\n      iszero\n        /* \"#utility.yul\":21837:21859   */\n      iszero\n        /* \"#utility.yul\":21829:21835   */\n      dup3\n        /* \"#utility.yul\":21825:21860   */\n      mul\n        /* \"#utility.yul\":21820:21823   */\n      dup7\n        /* \"#utility.yul\":21816:21861   */\n      add\n        /* \"#utility.yul\":21809:21861   */\n      swap4\n      pop\n        /* \"#utility.yul\":21705:21871   */\n      jump(tag_639)\n        /* \"#utility.yul\":21880:22221   */\n    tag_641:\n        /* \"#utility.yul\":21947:21985   */\n      tag_642\n        /* \"#utility.yul\":21979:21984   */\n      dup6\n        /* \"#utility.yul\":21947:21985   */\n      tag_444\n      jump\t// in\n    tag_642:\n        /* \"#utility.yul\":22007:22008   */\n      0x00\n        /* \"#utility.yul\":22021:22175   */\n    tag_643:\n        /* \"#utility.yul\":22035:22041   */\n      dup4\n        /* \"#utility.yul\":22032:22033   */\n      dup2\n        /* \"#utility.yul\":22029:22042   */\n      lt\n        /* \"#utility.yul\":22021:22175   */\n      iszero\n      tag_645\n      jumpi\n        /* \"#utility.yul\":22109:22116   */\n      dup2\n        /* \"#utility.yul\":22103:22117   */\n      sload\n        /* \"#utility.yul\":22099:22100   */\n      dup2\n        /* \"#utility.yul\":22094:22097   */\n      dup10\n        /* \"#utility.yul\":22090:22101   */\n      add\n        /* \"#utility.yul\":22083:22118   */\n      mstore\n        /* \"#utility.yul\":22159:22160   */\n      0x01\n        /* \"#utility.yul\":22150:22157   */\n      dup3\n        /* \"#utility.yul\":22146:22161   */\n      add\n        /* \"#utility.yul\":22135:22161   */\n      swap2\n      pop\n        /* \"#utility.yul\":22057:22061   */\n      0x20\n        /* \"#utility.yul\":22054:22055   */\n      dup2\n        /* \"#utility.yul\":22050:22062   */\n      add\n        /* \"#utility.yul\":22045:22062   */\n      swap1\n      pop\n        /* \"#utility.yul\":22021:22175   */\n      jump(tag_643)\n    tag_645:\n        /* \"#utility.yul\":22204:22210   */\n      dup4\n        /* \"#utility.yul\":22199:22202   */\n      dup9\n        /* \"#utility.yul\":22195:22211   */\n      add\n        /* \"#utility.yul\":22188:22211   */\n      swap6\n      pop\n        /* \"#utility.yul\":21887:22221   */\n      pop\n      pop\n        /* \"#utility.yul\":21672:22221   */\n    tag_639:\n      pop\n        /* \"#utility.yul\":21460:22227   */\n      pop\n      pop\n        /* \"#utility.yul\":21353:22227   */\n      swap3\n      swap2\n      pop\n      pop\n      jump\t// out\n        /* \"#utility.yul\":22233:22502   */\n    tag_114:\n        /* \"#utility.yul\":22362:22365   */\n      0x00\n        /* \"#utility.yul\":22384:22476   */\n      tag_647\n        /* \"#utility.yul\":22472:22475   */\n      dup3\n        /* \"#utility.yul\":22463:22469   */\n      dup5\n        /* \"#utility.yul\":22384:22476   */\n      tag_445\n      jump\t// in\n    tag_647:\n        /* \"#utility.yul\":22377:22476   */\n      swap2\n      pop\n        /* \"#utility.yul\":22493:22496   */\n      dup2\n        /* \"#utility.yul\":22486:22496   */\n      swap1\n      pop\n        /* \"#utility.yul\":22233:22502   */\n      swap3\n      swap2\n      pop\n      pop\n      jump\t// out\n        /* \"#utility.yul\":22508:22688   */\n    tag_446:\n        /* \"#utility.yul\":22556:22633   */\n      0x4e487b7100000000000000000000000000000000000000000000000000000000\n        /* \"#utility.yul\":22553:22554   */\n      0x00\n        /* \"#utility.yul\":22546:22634   */\n      mstore\n        /* \"#utility.yul\":22653:22657   */\n      0x11\n        /* \"#utility.yul\":22650:22651   */\n      0x04\n        /* \"#utility.yul\":22643:22658   */\n      mstore\n        /* \"#utility.yul\":22677:22681   */\n      0x24\n        /* \"#utility.yul\":22674:22675   */\n      0x00\n        /* \"#utility.yul\":22667:22682   */\n      revert\n        /* \"#utility.yul\":22694:22927   */\n    tag_158:\n        /* \"#utility.yul\":22733:22736   */\n      0x00\n        /* \"#utility.yul\":22756:22780   */\n      tag_650\n        /* \"#utility.yul\":22774:22779   */\n      dup3\n        /* \"#utility.yul\":22756:22780   */\n      tag_427\n      jump\t// in\n    tag_650:\n        /* \"#utility.yul\":22747:22780   */\n      swap2\n      pop\n        /* \"#utility.yul\":22802:22868   */\n      0xffffffffffffffffffffffffffffffffffffffffffffffffffffffffffffffff\n        /* \"#utility.yul\":22795:22800   */\n      dup3\n        /* \"#utility.yul\":22792:22869   */\n      sub\n        /* \"#utility.yul\":22789:22892   */\n      tag_651\n      jumpi\n        /* \"#utility.yul\":22872:22890   */\n      tag_652\n      tag_446\n      jump\t// in\n    tag_652:\n        /* \"#utility.yul\":22789:22892   */\n    tag_651:\n        /* \"#utility.yul\":22919:22920   */\n      0x01\n        /* \"#utility.yul\":22912:22917   */\n      dup3\n        /* \"#utility.yul\":22908:22921   */\n      add\n        /* \"#utility.yul\":22901:22921   */\n      swap1\n      pop\n        /* \"#utility.yul\":22694:22927   */\n      swap2\n      swap1\n      pop\n      jump\t// out\n        /* \"#utility.yul\":22933:23323   */\n    tag_447:\n        /* \"#utility.yul\":23039:23042   */\n      0x00\n        /* \"#utility.yul\":23067:23106   */\n      tag_654\n        /* \"#utility.yul\":23100:23105   */\n      dup3\n        /* \"#utility.yul\":23067:23106   */\n      tag_423\n      jump\t// in\n    tag_654:\n        /* \"#utility.yul\":23122:23211   */\n      tag_655\n        /* \"#utility.yul\":23204:23210   */\n      dup2\n        /* \"#utility.yul\":23199:23202   */\n      dup6\n        /* \"#utility.yul\":23122:23211   */\n      tag_443\n      jump\t// in\n    tag_655:\n        /* \"#utility.yul\":23115:23211   */\n      swap4\n      pop\n        /* \"#utility.yul\":23220:23285   */\n      tag_656\n        /* \"#utility.yul\":23278:23284   */\n      dup2\n        /* \"#utility.yul\":23273:23276   */\n      dup6\n        /* \"#utility.yul\":23266:23270   */\n      0x20\n        /* \"#utility.yul\":23259:23264   */\n      dup7\n        /* \"#utility.yul\":23255:23271   */\n      add\n        /* \"#utility.yul\":23220:23285   */\n      tag_425\n      jump\t// in\n    tag_656:\n        /* \"#utility.yul\":23310:23316   */\n      dup1\n        /* \"#utility.yul\":23305:23308   */\n      dup5\n        /* \"#utility.yul\":23301:23317   */\n      add\n        /* \"#utility.yul\":23294:23317   */\n      swap2\n      pop\n        /* \"#utility.yul\":23043:23323   */\n      pop\n        /* \"#utility.yul\":22933:23323   */\n      swap3\n      swap2\n      pop\n      pop\n      jump\t// out\n        /* \"#utility.yul\":23329:23604   */\n    tag_161:\n        /* \"#utility.yul\":23461:23464   */\n      0x00\n        /* \"#utility.yul\":23483:23578   */\n      tag_658\n        /* \"#utility.yul\":23574:23577   */\n      dup3\n        /* \"#utility.yul\":23565:23571   */\n      dup5\n        /* \"#utility.yul\":23483:23578   */\n      tag_447\n      jump\t// in\n    tag_658:\n        /* \"#utility.yul\":23476:23578   */\n      swap2\n      pop\n        /* \"#utility.yul\":23595:23598   */\n      dup2\n        /* \"#utility.yul\":23588:23598   */\n      swap1\n      pop\n        /* \"#utility.yul\":23329:23604   */\n      swap3\n      swap2\n      pop\n      pop\n      jump\t// out\n        /* \"#utility.yul\":23610:23786   */\n    tag_448:\n        /* \"#utility.yul\":23750:23778   */\n      0x5472616e73616374696f6e20646f6573206e6f74206578697374000000000000\n        /* \"#utility.yul\":23746:23747   */\n      0x00\n        /* \"#utility.yul\":23738:23744   */\n      dup3\n        /* \"#utility.yul\":23734:23748   */\n      add\n        /* \"#utility.yul\":23727:23779   */\n      mstore\n        /* \"#utility.yul\":23610:23786   */\n      pop\n      jump\t// out\n        /* \"#utility.yul\":23792:24158   */\n    tag_449:\n        /* \"#utility.yul\":23934:23937   */\n      0x00\n        /* \"#utility.yul\":23955:24022   */\n      tag_661\n        /* \"#utility.yul\":24019:24021   */\n      0x1a\n        /* \"#utility.yul\":24014:24017   */\n      dup4\n        /* \"#utility.yul\":23955:24022   */\n      tag_424\n      jump\t// in\n    tag_661:\n        /* \"#utility.yul\":23948:24022   */\n      swap2\n      pop\n        /* \"#utility.yul\":24031:24124   */\n      tag_662\n        /* \"#utility.yul\":24120:24123   */\n      dup3\n        /* \"#utility.yul\":24031:24124   */\n      tag_448\n      jump\t// in\n    tag_662:\n        /* \"#utility.yul\":24149:24151   */\n      0x20\n        /* \"#utility.yul\":24144:24147   */\n      dup3\n        /* \"#utility.yul\":24140:24152   */\n      add\n        /* \"#utility.yul\":24133:24152   */\n      swap1\n      pop\n        /* \"#utility.yul\":23792:24158   */\n      swap2\n      swap1\n      pop\n      jump\t// out\n        /* \"#utility.yul\":24164:24583   */\n    tag_165:\n        /* \"#utility.yul\":24330:24334   */\n      0x00\n        /* \"#utility.yul\":24368:24370   */\n      0x20\n        /* \"#utility.yul\":24357:24366   */\n      dup3\n        /* \"#utility.yul\":24353:24371   */\n      add\n        /* \"#utility.yul\":24345:24371   */\n      swap1\n      pop\n        /* \"#utility.yul\":24417:24426   */\n      dup2\n        /* \"#utility.yul\":24411:24415   */\n      dup2\n        /* \"#utility.yul\":24407:24427   */\n      sub\n        /* \"#utility.yul\":24403:24404   */\n      0x00\n        /* \"#utility.yul\":24392:24401   */\n      dup4\n        /* \"#utility.yul\":24388:24405   */\n      add\n        /* \"#utility.yul\":24381:24428   */\n      mstore\n        /* \"#utility.yul\":24445:24576   */\n      tag_664\n        /* \"#utility.yul\":24571:24575   */\n      dup2\n        /* \"#utility.yul\":24445:24576   */\n      tag_449\n      jump\t// in\n    tag_664:\n        /* \"#utility.yul\":24437:24576   */\n      swap1\n      pop\n        /* \"#utility.yul\":24164:24583   */\n      swap2\n      swap1\n      pop\n      jump\t// out\n        /* \"#utility.yul\":24589:24682   */\n    tag_450:\n        /* \"#utility.yul\":24626:24632   */\n      0x00\n        /* \"#utility.yul\":24673:24675   */\n      0x20\n        /* \"#utility.yul\":24668:24670   */\n      0x1f\n        /* \"#utility.yul\":24661:24666   */\n      dup4\n        /* \"#utility.yul\":24657:24671   */\n      add\n        /* \"#utility.yul\":24653:24676   */\n      div\n        /* \"#utility.yul\":24643:24676   */\n      swap1\n      pop\n        /* \"#utility.yul\":24589:24682   */\n      swap2\n      swap1\n      pop\n      jump\t// out\n        /* \"#utility.yul\":24688:24795   */\n    tag_451:\n        /* \"#utility.yul\":24732:24740   */\n      0x00\n        /* \"#utility.yul\":24782:24787   */\n      dup3\n        /* \"#utility.yul\":24776:24780   */\n      dup3\n        /* \"#utility.yul\":24772:24788   */\n      shl\n        /* \"#utility.yul\":24751:24788   */\n      swap1\n      pop\n        /* \"#utility.yul\":24688:24795   */\n      swap3\n      swap2\n      pop\n      pop\n      jump\t// out\n        /* \"#utility.yul\":24801:25194   */\n    tag_452:\n        /* \"#utility.yul\":24870:24876   */\n      0x00\n        /* \"#utility.yul\":24920:24921   */\n      0x08\n        /* \"#utility.yul\":24908:24918   */\n      dup4\n        /* \"#utility.yul\":24904:24922   */\n      mul\n        /* \"#utility.yul\":24943:25040   */\n      tag_668\n        /* \"#utility.yul\":24973:25039   */\n      0xffffffffffffffffffffffffffffffffffffffffffffffffffffffffffffffff\n        /* \"#utility.yul\":24962:24971   */\n      dup3\n        /* \"#utility.yul\":24943:25040   */\n      tag_451\n      jump\t// in\n    tag_668:\n        /* \"#utility.yul\":25061:25100   */\n      tag_669\n        /* \"#utility.yul\":25091:25099   */\n      dup7\n        /* \"#utility.yul\":25080:25089   */\n      dup4\n        /* \"#utility.yul\":25061:25100   */\n      tag_451\n      jump\t// in\n    tag_669:\n        /* \"#utility.yul\":25049:25100   */\n      swap6\n      pop\n        /* \"#utility.yul\":25133:25137   */\n      dup1\n        /* \"#utility.yul\":25129:25138   */\n      not\n        /* \"#utility.yul\":25122:25127   */\n      dup5\n        /* \"#utility.yul\":25118:25139   */\n      and\n        /* \"#utility.yul\":25109:25139   */\n      swap4\n      pop\n        /* \"#utility.yul\":25182:25186   */\n      dup1\n        /* \"#utility.yul\":25172:25180   */\n      dup7\n        /* \"#utility.yul\":25168:25187   */\n      and\n        /* \"#utility.yul\":25161:25166   */\n      dup5\n        /* \"#utility.yul\":25158:25188   */\n      or\n        /* \"#utility.yul\":25148:25188   */\n      swap3\n      pop\n        /* \"#utility.yul\":24877:25194   */\n      pop\n      pop\n        /* \"#utility.yul\":24801:25194   */\n      swap4\n      swap3\n      pop\n      pop\n      pop\n      jump\t// out\n        /* \"#utility.yul\":25200:25260   */\n    tag_453:\n        /* \"#utility.yul\":25228:25231   */\n      0x00\n        /* \"#utility.yul\":25249:25254   */\n      dup2\n        /* \"#utility.yul\":25242:25254   */\n      swap1\n      pop\n        /* \"#utility.yul\":25200:25260   */\n      swap2\n      swap1\n      pop\n      jump\t// out\n        /* \"#utility.yul\":25266:25408   */\n    tag_454:\n        /* \"#utility.yul\":25316:25325   */\n      0x00\n        /* \"#utility.yul\":25349:25402   */\n      tag_672\n        /* \"#utility.yul\":25367:25401   */\n      tag_673\n        /* \"#utility.yul\":25376:25400   */\n      tag_674\n        /* \"#utility.yul\":25394:25399   */\n      dup5\n        /* \"#utility.yul\":25376:25400   */\n      tag_427\n      jump\t// in\n    tag_674:\n        /* \"#utility.yul\":25367:25401   */\n      tag_453\n      jump\t// in\n    tag_673:\n        /* \"#utility.yul\":25349:25402   */\n      tag_427\n      jump\t// in\n    tag_672:\n        /* \"#utility.yul\":25336:25402   */\n      swap1\n      pop\n        /* \"#utility.yul\":25266:25408   */\n      swap2\n      swap1\n      pop\n      jump\t// out\n        /* \"#utility.yul\":25414:25489   */\n    tag_455:\n        /* \"#utility.yul\":25457:25460   */\n      0x00\n        /* \"#utility.yul\":25478:25483   */\n      dup2\n        /* \"#utility.yul\":25471:25483   */\n      swap1\n      pop\n        /* \"#utility.yul\":25414:25489   */\n      swap2\n      swap1\n      pop\n      jump\t// out\n        /* \"#utility.yul\":25495:25764   */\n    tag_456:\n        /* \"#utility.yul\":25605:25644   */\n      tag_677\n        /* \"#utility.yul\":25636:25643   */\n      dup4\n        /* \"#utility.yul\":25605:25644   */\n      tag_454\n      jump\t// in\n    tag_677:\n        /* \"#utility.yul\":25666:25757   */\n      tag_678\n        /* \"#utility.yul\":25715:25756   */\n      tag_679\n        /* \"#utility.yul\":25739:25755   */\n      dup3\n        /* \"#utility.yul\":25715:25756   */\n      tag_455\n      jump\t// in\n    tag_679:\n        /* \"#utility.yul\":25707:25713   */\n      dup5\n        /* \"#utility.yul\":25700:25704   */\n      dup5\n        /* \"#utility.yul\":25694:25705   */\n      sload\n        /* \"#utility.yul\":25666:25757   */\n      tag_452\n      jump\t// in\n    tag_678:\n        /* \"#utility.yul\":25660:25664   */\n      dup3\n        /* \"#utility.yul\":25653:25758   */\n      sstore\n        /* \"#utility.yul\":25571:25764   */\n      pop\n        /* \"#utility.yul\":25495:25764   */\n      pop\n      pop\n      pop\n      jump\t// out\n        /* \"#utility.yul\":25770:25843   */\n    tag_457:\n        /* \"#utility.yul\":25815:25818   */\n      0x00\n        /* \"#utility.yul\":25770:25843   */\n      swap1\n      jump\t// out\n        /* \"#utility.yul\":25849:26038   */\n    tag_458:\n        /* \"#utility.yul\":25926:25958   */\n      tag_682\n      tag_457\n      jump\t// in\n    tag_682:\n        /* \"#utility.yul\":25967:26032   */\n      tag_683\n        /* \"#utility.yul\":26025:26031   */\n      dup2\n        /* \"#utility.yul\":26017:26023   */\n      dup5\n        /* \"#utility.yul\":26011:26015   */\n      dup5\n        /* \"#utility.yul\":25967:26032   */\n      tag_456\n      jump\t// in\n    tag_683:\n        /* \"#utility.yul\":25902:26038   */\n      pop\n        /* \"#utility.yul\":25849:26038   */\n      pop\n      pop\n      jump\t// out\n        /* \"#utility.yul\":26044:26230   */\n    tag_459:\n        /* \"#utility.yul\":26104:26224   */\n    tag_685:\n        /* \"#utility.yul\":26121:26124   */\n      dup2\n        /* \"#utility.yul\":26114:26119   */\n      dup2\n        /* \"#utility.yul\":26111:26125   */\n      lt\n        /* \"#utility.yul\":26104:26224   */\n      iszero\n      tag_687\n      jumpi\n        /* \"#utility.yul\":26175:26214   */\n      tag_688\n        /* \"#utility.yul\":26212:26213   */\n      0x00\n        /* \"#utility.yul\":26205:26210   */\n      dup3\n        /* \"#utility.yul\":26175:26214   */\n      tag_458\n      jump\t// in\n    tag_688:\n        /* \"#utility.yul\":26148:26149   */\n      0x01\n        /* \"#utility.yul\":26141:26146   */\n      dup2\n        /* \"#utility.yul\":26137:26150   */\n      add\n        /* \"#utility.yul\":26128:26150   */\n      swap1\n      pop\n        /* \"#utility.yul\":26104:26224   */\n      jump(tag_685)\n    tag_687:\n        /* \"#utility.yul\":26044:26230   */\n      pop\n      pop\n      jump\t// out\n        /* \"#utility.yul\":26236:26779   */\n    tag_460:\n        /* \"#utility.yul\":26337:26339   */\n      0x1f\n        /* \"#utility.yul\":26332:26335   */\n      dup3\n        /* \"#utility.yul\":26329:26340   */\n      gt\n        /* \"#utility.yul\":26326:26772   */\n      iszero\n      tag_690\n      jumpi\n        /* \"#utility.yul\":26371:26409   */\n      tag_691\n        /* \"#utility.yul\":26403:26408   */\n      dup2\n        /* \"#utility.yul\":26371:26409   */\n      tag_444\n      jump\t// in\n    tag_691:\n        /* \"#utility.yul\":26455:26484   */\n      tag_692\n        /* \"#utility.yul\":26473:26483   */\n      dup5\n        /* \"#utility.yul\":26455:26484   */\n      tag_450\n      jump\t// in\n    tag_692:\n        /* \"#utility.yul\":26445:26453   */\n      dup2\n        /* \"#utility.yul\":26441:26485   */\n      add\n        /* \"#utility.yul\":26638:26640   */\n      0x20\n        /* \"#utility.yul\":26626:26636   */\n      dup6\n        /* \"#utility.yul\":26623:26641   */\n      lt\n        /* \"#utility.yul\":26620:26669   */\n      iszero\n      tag_693\n      jumpi\n        /* \"#utility.yul\":26659:26667   */\n      dup2\n        /* \"#utility.yul\":26644:26667   */\n      swap1\n      pop\n        /* \"#utility.yul\":26620:26669   */\n    tag_693:\n        /* \"#utility.yul\":26682:26762   */\n      tag_694\n        /* \"#utility.yul\":26738:26760   */\n      tag_695\n        /* \"#utility.yul\":26756:26759   */\n      dup6\n        /* \"#utility.yul\":26738:26760   */\n      tag_450\n      jump\t// in\n    tag_695:\n        /* \"#utility.yul\":26728:26736   */\n      dup4\n        /* \"#utility.yul\":26724:26761   */\n      add\n        /* \"#utility.yul\":26711:26722   */\n      dup3\n        /* \"#utility.yul\":26682:26762   */\n      tag_459\n      jump\t// in\n    tag_694:\n        /* \"#utility.yul\":26341:26772   */\n      pop\n      pop\n        /* \"#utility.yul\":26326:26772   */\n    tag_690:\n        /* \"#utility.yul\":26236:26779   */\n      pop\n      pop\n      pop\n      jump\t// out\n        /* \"#utility.yul\":26785:26902   */\n    tag_461:\n        /* \"#utility.yul\":26839:26847   */\n      0x00\n        /* \"#utility.yul\":26889:26894   */\n      dup3\n        /* \"#utility.yul\":26883:26887   */\n      dup3\n        /* \"#utility.yul\":26879:26895   */\n      shr\n        /* \"#utility.yul\":26858:26895   */\n      swap1\n      pop\n        /* \"#utility.yul\":26785:26902   */\n      swap3\n      swap2\n      pop\n      pop\n      jump\t// out\n        /* \"#utility.yul\":26908:27077   */\n    tag_462:\n        /* \"#utility.yul\":26952:26958   */\n      0x00\n        /* \"#utility.yul\":26985:27036   */\n      tag_698\n        /* \"#utility.yul\":27033:27034   */\n      0x00\n        /* \"#utility.yul\":27029:27035   */\n      not\n        /* \"#utility.yul\":27021:27026   */\n      dup5\n        /* \"#utility.yul\":27018:27019   */\n      0x08\n        /* \"#utility.yul\":27014:27027   */\n      mul\n        /* \"#utility.yul\":26985:27036   */\n      tag_461\n      jump\t// in\n    tag_698:\n        /* \"#utility.yul\":26981:27037   */\n      not\n        /* \"#utility.yul\":27066:27070   */\n      dup1\n        /* \"#utility.yul\":27060:27064   */\n      dup4\n        /* \"#utility.yul\":27056:27071   */\n      and\n        /* \"#utility.yul\":27046:27071   */\n      swap2\n      pop\n        /* \"#utility.yul\":26959:27077   */\n      pop\n        /* \"#utility.yul\":26908:27077   */\n      swap3\n      swap2\n      pop\n      pop\n      jump\t// out\n        /* \"#utility.yul\":27082:27377   */\n    tag_463:\n        /* \"#utility.yul\":27158:27162   */\n      0x00\n        /* \"#utility.yul\":27304:27333   */\n      tag_700\n        /* \"#utility.yul\":27329:27332   */\n      dup4\n        /* \"#utility.yul\":27323:27327   */\n      dup4\n        /* \"#utility.yul\":27304:27333   */\n      tag_462\n      jump\t// in\n    tag_700:\n        /* \"#utility.yul\":27296:27333   */\n      swap2\n      pop\n        /* \"#utility.yul\":27366:27369   */\n      dup3\n        /* \"#utility.yul\":27363:27364   */\n      0x02\n        /* \"#utility.yul\":27359:27370   */\n      mul\n        /* \"#utility.yul\":27353:27357   */\n      dup3\n        /* \"#utility.yul\":27350:27371   */\n      or\n        /* \"#utility.yul\":27342:27371   */\n      swap1\n      pop\n        /* \"#utility.yul\":27082:27377   */\n      swap3\n      swap2\n      pop\n      pop\n      jump\t// out\n        /* \"#utility.yul\":27382:28777   */\n    tag_168:\n        /* \"#utility.yul\":27499:27536   */\n      tag_702\n        /* \"#utility.yul\":27532:27535   */\n      dup3\n        /* \"#utility.yul\":27499:27536   */\n      tag_423\n      jump\t// in\n    tag_702:\n        /* \"#utility.yul\":27601:27619   */\n      0xffffffffffffffff\n        /* \"#utility.yul\":27593:27599   */\n      dup2\n        /* \"#utility.yul\":27590:27620   */\n      gt\n        /* \"#utility.yul\":27587:27643   */\n      iszero\n      tag_703\n      jumpi\n        /* \"#utility.yul\":27623:27641   */\n      tag_704\n      tag_101\n      jump\t// in\n    tag_704:\n        /* \"#utility.yul\":27587:27643   */\n    tag_703:\n        /* \"#utility.yul\":27667:27705   */\n      tag_705\n        /* \"#utility.yul\":27699:27703   */\n      dup3\n        /* \"#utility.yul\":27693:27704   */\n      sload\n        /* \"#utility.yul\":27667:27705   */\n      tag_58\n      jump\t// in\n    tag_705:\n        /* \"#utility.yul\":27752:27819   */\n      tag_706\n        /* \"#utility.yul\":27812:27818   */\n      dup3\n        /* \"#utility.yul\":27804:27810   */\n      dup3\n        /* \"#utility.yul\":27798:27802   */\n      dup6\n        /* \"#utility.yul\":27752:27819   */\n      tag_460\n      jump\t// in\n    tag_706:\n        /* \"#utility.yul\":27846:27847   */\n      0x00\n        /* \"#utility.yul\":27870:27874   */\n      0x20\n        /* \"#utility.yul\":27857:27874   */\n      swap1\n      pop\n        /* \"#utility.yul\":27902:27904   */\n      0x1f\n        /* \"#utility.yul\":27894:27900   */\n      dup4\n        /* \"#utility.yul\":27891:27905   */\n      gt\n        /* \"#utility.yul\":27919:27920   */\n      0x01\n        /* \"#utility.yul\":27914:28532   */\n      dup2\n      eq\n      tag_708\n      jumpi\n        /* \"#utility.yul\":28576:28577   */\n      0x00\n        /* \"#utility.yul\":28593:28599   */\n      dup5\n        /* \"#utility.yul\":28590:28667   */\n      iszero\n      tag_709\n      jumpi\n        /* \"#utility.yul\":28642:28651   */\n      dup3\n        /* \"#utility.yul\":28637:28640   */\n      dup8\n        /* \"#utility.yul\":28633:28652   */\n      add\n        /* \"#utility.yul\":28627:28653   */\n      mload\n        /* \"#utility.yul\":28618:28653   */\n      swap1\n      pop\n        /* \"#utility.yul\":28590:28667   */\n    tag_709:\n        /* \"#utility.yul\":28693:28760   */\n      tag_710\n        /* \"#utility.yul\":28753:28759   */\n      dup6\n        /* \"#utility.yul\":28746:28751   */\n      dup3\n        /* \"#utility.yul\":28693:28760   */\n      tag_463\n      jump\t// in\n    tag_710:\n        /* \"#utility.yul\":28687:28691   */\n      dup7\n        /* \"#utility.yul\":28680:28761   */\n      sstore\n        /* \"#utility.yul\":28549:28771   */\n      pop\n        /* \"#utility.yul\":27884:28771   */\n      jump(tag_707)\n        /* \"#utility.yul\":27914:28532   */\n    tag_708:\n        /* \"#utility.yul\":27966:27970   */\n      0x1f\n        /* \"#utility.yul\":27962:27971   */\n      not\n        /* \"#utility.yul\":27954:27960   */\n      dup5\n        /* \"#utility.yul\":27950:27972   */\n      and\n        /* \"#utility.yul\":28000:28037   */\n      tag_711\n        /* \"#utility.yul\":28032:28036   */\n      dup7\n        /* \"#utility.yul\":28000:28037   */\n      tag_444\n      jump\t// in\n    tag_711:\n        /* \"#utility.yul\":28059:28060   */\n      0x00\n        /* \"#utility.yul\":28073:28281   */\n    tag_712:\n        /* \"#utility.yul\":28087:28094   */\n      dup3\n        /* \"#utility.yul\":28084:28085   */\n      dup2\n        /* \"#utility.yul\":28081:28095   */\n      lt\n        /* \"#utility.yul\":28073:28281   */\n      iszero\n      tag_714\n      jumpi\n        /* \"#utility.yul\":28166:28175   */\n      dup5\n        /* \"#utility.yul\":28161:28164   */\n      dup10\n        /* \"#utility.yul\":28157:28176   */\n      add\n        /* \"#utility.yul\":28151:28177   */\n      mload\n        /* \"#utility.yul\":28143:28149   */\n      dup3\n        /* \"#utility.yul\":28136:28178   */\n      sstore\n        /* \"#utility.yul\":28217:28218   */\n      0x01\n        /* \"#utility.yul\":28209:28215   */\n      dup3\n        /* \"#utility.yul\":28205:28219   */\n      add\n        /* \"#utility.yul\":28195:28219   */\n      swap2\n      pop\n        /* \"#utility.yul\":28264:28266   */\n      0x20\n        /* \"#utility.yul\":28253:28262   */\n      dup6\n        /* \"#utility.yul\":28249:28267   */\n      add\n        /* \"#utility.yul\":28236:28267   */\n      swap5\n      pop\n        /* \"#utility.yul\":28110:28114   */\n      0x20\n        /* \"#utility.yul\":28107:28108   */\n      dup2\n        /* \"#utility.yul\":28103:28115   */\n      add\n        /* \"#utility.yul\":28098:28115   */\n      swap1\n      pop\n        /* \"#utility.yul\":28073:28281   */\n      jump(tag_712)\n    tag_714:\n        /* \"#utility.yul\":28309:28315   */\n      dup7\n        /* \"#utility.yul\":28300:28307   */\n      dup4\n        /* \"#utility.yul\":28297:28316   */\n      lt\n        /* \"#utility.yul\":28294:28473   */\n      iszero\n      tag_715\n      jumpi\n        /* \"#utility.yul\":28367:28376   */\n      dup5\n        /* \"#utility.yul\":28362:28365   */\n      dup10\n        /* \"#utility.yul\":28358:28377   */\n      add\n        /* \"#utility.yul\":28352:28378   */\n      mload\n        /* \"#utility.yul\":28410:28458   */\n      tag_716\n        /* \"#utility.yul\":28452:28456   */\n      0x1f\n        /* \"#utility.yul\":28444:28450   */\n      dup10\n        /* \"#utility.yul\":28440:28457   */\n      and\n        /* \"#utility.yul\":28429:28438   */\n      dup3\n        /* \"#utility.yul\":28410:28458   */\n      tag_462\n      jump\t// in\n    tag_716:\n        /* \"#utility.yul\":28402:28408   */\n      dup4\n        /* \"#utility.yul\":28395:28459   */\n      sstore\n        /* \"#utility.yul\":28317:28473   */\n      pop\n        /* \"#utility.yul\":28294:28473   */\n    tag_715:\n        /* \"#utility.yul\":28519:28520   */\n      0x01\n        /* \"#utility.yul\":28515:28516   */\n      0x02\n        /* \"#utility.yul\":28507:28513   */\n      dup9\n        /* \"#utility.yul\":28503:28517   */\n      mul\n        /* \"#utility.yul\":28499:28521   */\n      add\n        /* \"#utility.yul\":28493:28497   */\n      dup9\n        /* \"#utility.yul\":28486:28522   */\n      sstore\n        /* \"#utility.yul\":27921:28532   */\n      pop\n      pop\n      pop\n        /* \"#utility.yul\":27884:28771   */\n    tag_707:\n      pop\n        /* \"#utility.yul\":27474:28777   */\n      pop\n      pop\n      pop\n        /* \"#utility.yul\":27382:28777   */\n      pop\n      pop\n      jump\t// out\n        /* \"#utility.yul\":28783:29297   */\n    tag_172:\n        /* \"#utility.yul\":28944:28948   */\n      0x00\n        /* \"#utility.yul\":28982:28984   */\n      0x40\n        /* \"#utility.yul\":28971:28980   */\n      dup3\n        /* \"#utility.yul\":28967:28985   */\n      add\n        /* \"#utility.yul\":28959:28985   */\n      swap1\n      pop\n        /* \"#utility.yul\":29031:29040   */\n      dup2\n        /* \"#utility.yul\":29025:29029   */\n      dup2\n        /* \"#utility.yul\":29021:29041   */\n      sub\n        /* \"#utility.yul\":29017:29018   */\n      0x00\n        /* \"#utility.yul\":29006:29015   */\n      dup4\n        /* \"#utility.yul\":29002:29019   */\n      add\n        /* \"#utility.yul\":28995:29042   */\n      mstore\n        /* \"#utility.yul\":29059:29137   */\n      tag_718\n        /* \"#utility.yul\":29132:29136   */\n      dup2\n        /* \"#utility.yul\":29123:29129   */\n      dup6\n        /* \"#utility.yul\":29059:29137   */\n      tag_426\n      jump\t// in\n    tag_718:\n        /* \"#utility.yul\":29051:29137   */\n      swap1\n      pop\n        /* \"#utility.yul\":29184:29193   */\n      dup2\n        /* \"#utility.yul\":29178:29182   */\n      dup2\n        /* \"#utility.yul\":29174:29194   */\n      sub\n        /* \"#utility.yul\":29169:29171   */\n      0x20\n        /* \"#utility.yul\":29158:29167   */\n      dup4\n        /* \"#utility.yul\":29154:29172   */\n      add\n        /* \"#utility.yul\":29147:29195   */\n      mstore\n        /* \"#utility.yul\":29212:29290   */\n      tag_719\n        /* \"#utility.yul\":29285:29289   */\n      dup2\n        /* \"#utility.yul\":29276:29282   */\n      dup5\n        /* \"#utility.yul\":29212:29290   */\n      tag_426\n      jump\t// in\n    tag_719:\n        /* \"#utility.yul\":29204:29290   */\n      swap1\n      pop\n        /* \"#utility.yul\":28783:29297   */\n      swap4\n      swap3\n      pop\n      pop\n      pop\n      jump\t// out\n        /* \"#utility.yul\":29303:29457   */\n    tag_464:\n        /* \"#utility.yul\":29443:29449   */\n      0x7061696400000000000000000000000000000000000000000000000000000000\n        /* \"#utility.yul\":29439:29440   */\n      0x00\n        /* \"#utility.yul\":29431:29437   */\n      dup3\n        /* \"#utility.yul\":29427:29441   */\n      add\n        /* \"#utility.yul\":29420:29450   */\n      mstore\n        /* \"#utility.yul\":29303:29457   */\n      pop\n      jump\t// out\n        /* \"#utility.yul\":29463:29828   */\n    tag_465:\n        /* \"#utility.yul\":29605:29608   */\n      0x00\n        /* \"#utility.yul\":29626:29692   */\n      tag_722\n        /* \"#utility.yul\":29690:29691   */\n      0x04\n        /* \"#utility.yul\":29685:29688   */\n      dup4\n        /* \"#utility.yul\":29626:29692   */\n      tag_424\n      jump\t// in\n    tag_722:\n        /* \"#utility.yul\":29619:29692   */\n      swap2\n      pop\n        /* \"#utility.yul\":29701:29794   */\n      tag_723\n        /* \"#utility.yul\":29790:29793   */\n      dup3\n        /* \"#utility.yul\":29701:29794   */\n      tag_464\n      jump\t// in\n    tag_723:\n        /* \"#utility.yul\":29819:29821   */\n      0x20\n        /* \"#utility.yul\":29814:29817   */\n      dup3\n        /* \"#utility.yul\":29810:29822   */\n      add\n        /* \"#utility.yul\":29803:29822   */\n      swap1\n      pop\n        /* \"#utility.yul\":29463:29828   */\n      swap2\n      swap1\n      pop\n      jump\t// out\n        /* \"#utility.yul\":29834:30454   */\n    tag_174:\n        /* \"#utility.yul\":30048:30052   */\n      0x00\n        /* \"#utility.yul\":30086:30088   */\n      0x40\n        /* \"#utility.yul\":30075:30084   */\n      dup3\n        /* \"#utility.yul\":30071:30089   */\n      add\n        /* \"#utility.yul\":30063:30089   */\n      swap1\n      pop\n        /* \"#utility.yul\":30135:30144   */\n      dup2\n        /* \"#utility.yul\":30129:30133   */\n      dup2\n        /* \"#utility.yul\":30125:30145   */\n      sub\n        /* \"#utility.yul\":30121:30122   */\n      0x00\n        /* \"#utility.yul\":30110:30119   */\n      dup4\n        /* \"#utility.yul\":30106:30123   */\n      add\n        /* \"#utility.yul\":30099:30146   */\n      mstore\n        /* \"#utility.yul\":30163:30241   */\n      tag_725\n        /* \"#utility.yul\":30236:30240   */\n      dup2\n        /* \"#utility.yul\":30227:30233   */\n      dup5\n        /* \"#utility.yul\":30163:30241   */\n      tag_426\n      jump\t// in\n    tag_725:\n        /* \"#utility.yul\":30155:30241   */\n      swap1\n      pop\n        /* \"#utility.yul\":30288:30297   */\n      dup2\n        /* \"#utility.yul\":30282:30286   */\n      dup2\n        /* \"#utility.yul\":30278:30298   */\n      sub\n        /* \"#utility.yul\":30273:30275   */\n      0x20\n        /* \"#utility.yul\":30262:30271   */\n      dup4\n        /* \"#utility.yul\":30258:30276   */\n      add\n        /* \"#utility.yul\":30251:30299   */\n      mstore\n        /* \"#utility.yul\":30316:30447   */\n      tag_726\n        /* \"#utility.yul\":30442:30446   */\n      dup2\n        /* \"#utility.yul\":30316:30447   */\n      tag_465\n      jump\t// in\n    tag_726:\n        /* \"#utility.yul\":30308:30447   */\n      swap1\n      pop\n        /* \"#utility.yul\":29834:30454   */\n      swap3\n      swap2\n      pop\n      pop\n      jump\t// out\n        /* \"#utility.yul\":30460:30614   */\n    tag_466:\n        /* \"#utility.yul\":30600:30606   */\n      0x6e756c6c00000000000000000000000000000000000000000000000000000000\n        /* \"#utility.yul\":30596:30597   */\n      0x00\n        /* \"#utility.yul\":30588:30594   */\n      dup3\n        /* \"#utility.yul\":30584:30598   */\n      add\n        /* \"#utility.yul\":30577:30607   */\n      mstore\n        /* \"#utility.yul\":30460:30614   */\n      pop\n      jump\t// out\n        /* \"#utility.yul\":30620:30985   */\n    tag_467:\n        /* \"#utility.yul\":30762:30765   */\n      0x00\n        /* \"#utility.yul\":30783:30849   */\n      tag_729\n        /* \"#utility.yul\":30847:30848   */\n      0x04\n        /* \"#utility.yul\":30842:30845   */\n      dup4\n        /* \"#utility.yul\":30783:30849   */\n      tag_424\n      jump\t// in\n    tag_729:\n        /* \"#utility.yul\":30776:30849   */\n      swap2\n      pop\n        /* \"#utility.yul\":30858:30951   */\n      tag_730\n        /* \"#utility.yul\":30947:30950   */\n      dup3\n        /* \"#utility.yul\":30858:30951   */\n      tag_466\n      jump\t// in\n    tag_730:\n        /* \"#utility.yul\":30976:30978   */\n      0x20\n        /* \"#utility.yul\":30971:30974   */\n      dup3\n        /* \"#utility.yul\":30967:30979   */\n      add\n        /* \"#utility.yul\":30960:30979   */\n      swap1\n      pop\n        /* \"#utility.yul\":30620:30985   */\n      swap2\n      swap1\n      pop\n      jump\t// out\n        /* \"#utility.yul\":30991:33155   */\n    tag_279:\n        /* \"#utility.yul\":31577:31581   */\n      0x00\n        /* \"#utility.yul\":31615:31618   */\n      0x0160\n        /* \"#utility.yul\":31604:31613   */\n      dup3\n        /* \"#utility.yul\":31600:31619   */\n      add\n        /* \"#utility.yul\":31592:31619   */\n      swap1\n      pop\n        /* \"#utility.yul\":31665:31674   */\n      dup2\n        /* \"#utility.yul\":31659:31663   */\n      dup2\n        /* \"#utility.yul\":31655:31675   */\n      sub\n        /* \"#utility.yul\":31651:31652   */\n      0x00\n        /* \"#utility.yul\":31640:31649   */\n      dup4\n        /* \"#utility.yul\":31636:31653   */\n      add\n        /* \"#utility.yul\":31629:31676   */\n      mstore\n        /* \"#utility.yul\":31693:31771   */\n      tag_732\n        /* \"#utility.yul\":31766:31770   */\n      dup2\n        /* \"#utility.yul\":31757:31763   */\n      dup14\n        /* \"#utility.yul\":31693:31771   */\n      tag_426\n      jump\t// in\n    tag_732:\n        /* \"#utility.yul\":31685:31771   */\n      swap1\n      pop\n        /* \"#utility.yul\":31818:31827   */\n      dup2\n        /* \"#utility.yul\":31812:31816   */\n      dup2\n        /* \"#utility.yul\":31808:31828   */\n      sub\n        /* \"#utility.yul\":31803:31805   */\n      0x20\n        /* \"#utility.yul\":31792:31801   */\n      dup4\n        /* \"#utility.yul\":31788:31806   */\n      add\n        /* \"#utility.yul\":31781:31829   */\n      mstore\n        /* \"#utility.yul\":31846:31924   */\n      tag_733\n        /* \"#utility.yul\":31919:31923   */\n      dup2\n        /* \"#utility.yul\":31910:31916   */\n      dup13\n        /* \"#utility.yul\":31846:31924   */\n      tag_426\n      jump\t// in\n    tag_733:\n        /* \"#utility.yul\":31838:31924   */\n      swap1\n      pop\n        /* \"#utility.yul\":31971:31980   */\n      dup2\n        /* \"#utility.yul\":31965:31969   */\n      dup2\n        /* \"#utility.yul\":31961:31981   */\n      sub\n        /* \"#utility.yul\":31956:31958   */\n      0x40\n        /* \"#utility.yul\":31945:31954   */\n      dup4\n        /* \"#utility.yul\":31941:31959   */\n      add\n        /* \"#utility.yul\":31934:31982   */\n      mstore\n        /* \"#utility.yul\":31999:32077   */\n      tag_734\n        /* \"#utility.yul\":32072:32076   */\n      dup2\n        /* \"#utility.yul\":32063:32069   */\n      dup12\n        /* \"#utility.yul\":31999:32077   */\n      tag_426\n      jump\t// in\n    tag_734:\n        /* \"#utility.yul\":31991:32077   */\n      swap1\n      pop\n        /* \"#utility.yul\":32124:32133   */\n      dup2\n        /* \"#utility.yul\":32118:32122   */\n      dup2\n        /* \"#utility.yul\":32114:32134   */\n      sub\n        /* \"#utility.yul\":32109:32111   */\n      0x60\n        /* \"#utility.yul\":32098:32107   */\n      dup4\n        /* \"#utility.yul\":32094:32112   */\n      add\n        /* \"#utility.yul\":32087:32135   */\n      mstore\n        /* \"#utility.yul\":32152:32230   */\n      tag_735\n        /* \"#utility.yul\":32225:32229   */\n      dup2\n        /* \"#utility.yul\":32216:32222   */\n      dup11\n        /* \"#utility.yul\":32152:32230   */\n      tag_426\n      jump\t// in\n    tag_735:\n        /* \"#utility.yul\":32144:32230   */\n      swap1\n      pop\n        /* \"#utility.yul\":32278:32287   */\n      dup2\n        /* \"#utility.yul\":32272:32276   */\n      dup2\n        /* \"#utility.yul\":32268:32288   */\n      sub\n        /* \"#utility.yul\":32262:32265   */\n      0x80\n        /* \"#utility.yul\":32251:32260   */\n      dup4\n        /* \"#utility.yul\":32247:32266   */\n      add\n        /* \"#utility.yul\":32240:32289   */\n      mstore\n        /* \"#utility.yul\":32306:32384   */\n      tag_736\n        /* \"#utility.yul\":32379:32383   */\n      dup2\n        /* \"#utility.yul\":32370:32376   */\n      dup10\n        /* \"#utility.yul\":32306:32384   */\n      tag_426\n      jump\t// in\n    tag_736:\n        /* \"#utility.yul\":32298:32384   */\n      swap1\n      pop\n        /* \"#utility.yul\":32432:32441   */\n      dup2\n        /* \"#utility.yul\":32426:32430   */\n      dup2\n        /* \"#utility.yul\":32422:32442   */\n      sub\n        /* \"#utility.yul\":32416:32419   */\n      0xa0\n        /* \"#utility.yul\":32405:32414   */\n      dup4\n        /* \"#utility.yul\":32401:32420   */\n      add\n        /* \"#utility.yul\":32394:32443   */\n      mstore\n        /* \"#utility.yul\":32460:32538   */\n      tag_737\n        /* \"#utility.yul\":32533:32537   */\n      dup2\n        /* \"#utility.yul\":32524:32530   */\n      dup9\n        /* \"#utility.yul\":32460:32538   */\n      tag_426\n      jump\t// in\n    tag_737:\n        /* \"#utility.yul\":32452:32538   */\n      swap1\n      pop\n        /* \"#utility.yul\":32548:32621   */\n      tag_738\n        /* \"#utility.yul\":32616:32619   */\n      0xc0\n        /* \"#utility.yul\":32605:32614   */\n      dup4\n        /* \"#utility.yul\":32601:32620   */\n      add\n        /* \"#utility.yul\":32592:32598   */\n      dup8\n        /* \"#utility.yul\":32548:32621   */\n      tag_428\n      jump\t// in\n    tag_738:\n        /* \"#utility.yul\":32631:32704   */\n      tag_739\n        /* \"#utility.yul\":32699:32702   */\n      0xe0\n        /* \"#utility.yul\":32688:32697   */\n      dup4\n        /* \"#utility.yul\":32684:32703   */\n      add\n        /* \"#utility.yul\":32675:32681   */\n      dup7\n        /* \"#utility.yul\":32631:32704   */\n      tag_428\n      jump\t// in\n    tag_739:\n        /* \"#utility.yul\":32752:32761   */\n      dup2\n        /* \"#utility.yul\":32746:32750   */\n      dup2\n        /* \"#utility.yul\":32742:32762   */\n      sub\n        /* \"#utility.yul\":32736:32739   */\n      0x0100\n        /* \"#utility.yul\":32725:32734   */\n      dup4\n        /* \"#utility.yul\":32721:32740   */\n      add\n        /* \"#utility.yul\":32714:32763   */\n      mstore\n        /* \"#utility.yul\":32780:32858   */\n      tag_740\n        /* \"#utility.yul\":32853:32857   */\n      dup2\n        /* \"#utility.yul\":32844:32850   */\n      dup6\n        /* \"#utility.yul\":32780:32858   */\n      tag_426\n      jump\t// in\n    tag_740:\n        /* \"#utility.yul\":32772:32858   */\n      swap1\n      pop\n        /* \"#utility.yul\":32906:32915   */\n      dup2\n        /* \"#utility.yul\":32900:32904   */\n      dup2\n        /* \"#utility.yul\":32896:32916   */\n      sub\n        /* \"#utility.yul\":32890:32893   */\n      0x0120\n        /* \"#utility.yul\":32879:32888   */\n      dup4\n        /* \"#utility.yul\":32875:32894   */\n      add\n        /* \"#utility.yul\":32868:32917   */\n      mstore\n        /* \"#utility.yul\":32934:33065   */\n      tag_741\n        /* \"#utility.yul\":33060:33064   */\n      dup2\n        /* \"#utility.yul\":32934:33065   */\n      tag_467\n      jump\t// in\n    tag_741:\n        /* \"#utility.yul\":32926:33065   */\n      swap1\n      pop\n        /* \"#utility.yul\":33075:33148   */\n      tag_742\n        /* \"#utility.yul\":33143:33146   */\n      0x0140\n        /* \"#utility.yul\":33132:33141   */\n      dup4\n        /* \"#utility.yul\":33128:33147   */\n      add\n        /* \"#utility.yul\":33119:33125   */\n      dup5\n        /* \"#utility.yul\":33075:33148   */\n      tag_428\n      jump\t// in\n    tag_742:\n        /* \"#utility.yul\":30991:33155   */\n      swap12\n      swap11\n      pop\n      pop\n      pop\n      pop\n      pop\n      pop\n      pop\n      pop\n      pop\n      pop\n      pop\n      jump\t// out\n\n    auxdata: 0xa2646970667358221220b2c83775d9e228f5917db447a22afe2cca3794be806aa48180eb28eeb847ff3064736f6c63430008100033\n}\n",
				"bytecode": {
					"linkReferences": {},
					"object": "608060405234801561001057600080fd5b50613648806100206000396000f3fe608060405234801561001057600080fd5b506004361061009e5760003560e01c80637ee9ed47116100665780637ee9ed4714610163578063814cb8eb146101935780639db897dd146101af578063d339b0ec146101df578063fff504611461020f5761009e565b8063022236f4146100a357806327506f53146100dd5780632b47300d146100fb578063347047cc146101175780637ce99c5814610133575b600080fd5b6100bd60048036038101906100b89190612757565b61022b565b6040516100d49b9a99989796959493929190612838565b60405180910390f35b6100e56106db565b6040516100f29190612b56565b60405180910390f35b61011560048036038101906101109190612b78565b610c78565b005b610131600480360381019061012c9190612b78565b610dee565b005b61014d60048036038101906101489190612c1c565b610ec9565b60405161015a9190612c49565b60405180910390f35b61017d60048036038101906101789190612757565b610f75565b60405161018a9190612b56565b60405180910390f35b6101ad60048036038101906101a89190612c6b565b611675565b005b6101c960048036038101906101c49190612757565b611872565b6040516101d69190612b56565b60405180910390f35b6101f960048036038101906101f49190612757565b611f72565b6040516102069190612f2e565b60405180910390f35b61022960048036038101906102249190612b78565b6124c8565b005b60008180516020810182018051848252602083016020850120818352809550505050505060009150905080600001805461026490612f7f565b80601f016020809104026020016040519081016040528092919081815260200182805461029090612f7f565b80156102dd5780601f106102b2576101008083540402835291602001916102dd565b820191906000526020600020905b8154815290600101906020018083116102c057829003601f168201915b5050505050908060010180546102f290612f7f565b80601f016020809104026020016040519081016040528092919081815260200182805461031e90612f7f565b801561036b5780601f106103405761010080835404028352916020019161036b565b820191906000526020600020905b81548152906001019060200180831161034e57829003601f168201915b50505050509080600201805461038090612f7f565b80601f01602080910402602001604051908101604052809291908181526020018280546103ac90612f7f565b80156103f95780601f106103ce576101008083540402835291602001916103f9565b820191906000526020600020905b8154815290600101906020018083116103dc57829003601f168201915b50505050509080600301805461040e90612f7f565b80601f016020809104026020016040519081016040528092919081815260200182805461043a90612f7f565b80156104875780601f1061045c57610100808354040283529160200191610487565b820191906000526020600020905b81548152906001019060200180831161046a57829003601f168201915b50505050509080600401805461049c90612f7f565b80601f01602080910402602001604051908101604052809291908181526020018280546104c890612f7f565b80156105155780601f106104ea57610100808354040283529160200191610515565b820191906000526020600020905b8154815290600101906020018083116104f857829003601f168201915b50505050509080600501805461052a90612f7f565b80601f016020809104026020016040519081016040528092919081815260200182805461055690612f7f565b80156105a35780601f10610578576101008083540402835291602001916105a3565b820191906000526020600020905b81548152906001019060200180831161058657829003601f168201915b5050505050908060060154908060070154908060080180546105c490612f7f565b80601f01602080910402602001604051908101604052809291908181526020018280546105f090612f7f565b801561063d5780601f106106125761010080835404028352916020019161063d565b820191906000526020600020905b81548152906001019060200180831161062057829003601f168201915b50505050509080600901805461065290612f7f565b80601f016020809104026020016040519081016040528092919081815260200182805461067e90612f7f565b80156106cb5780601f106106a0576101008083540402835291602001916106cb565b820191906000526020600020905b8154815290600101906020018083116106ae57829003601f168201915b50505050509080600a015490508b565b6060600060018054905067ffffffffffffffff8111156106fe576106fd61262c565b5b60405190808252806020026020018201604052801561073757816020015b6107246125a3565b81526020019060019003908161071c5790505b50905060005b600180549050811015610c70576000600182815481106107605761075f612fb0565b5b906000526020600020016040516107779190613082565b9081526020016040518091039020604051806101600160405290816000820180546107a190612f7f565b80601f01602080910402602001604051908101604052809291908181526020018280546107cd90612f7f565b801561081a5780601f106107ef5761010080835404028352916020019161081a565b820191906000526020600020905b8154815290600101906020018083116107fd57829003601f168201915b5050505050815260200160018201805461083390612f7f565b80601f016020809104026020016040519081016040528092919081815260200182805461085f90612f7f565b80156108ac5780601f10610881576101008083540402835291602001916108ac565b820191906000526020600020905b81548152906001019060200180831161088f57829003601f168201915b505050505081526020016002820180546108c590612f7f565b80601f01602080910402602001604051908101604052809291908181526020018280546108f190612f7f565b801561093e5780601f106109135761010080835404028352916020019161093e565b820191906000526020600020905b81548152906001019060200180831161092157829003601f168201915b5050505050815260200160038201805461095790612f7f565b80601f016020809104026020016040519081016040528092919081815260200182805461098390612f7f565b80156109d05780601f106109a5576101008083540402835291602001916109d0565b820191906000526020600020905b8154815290600101906020018083116109b357829003601f168201915b505050505081526020016004820180546109e990612f7f565b80601f0160208091040260200160405190810160405280929190818152602001828054610a1590612f7f565b8015610a625780601f10610a3757610100808354040283529160200191610a62565b820191906000526020600020905b815481529060010190602001808311610a4557829003601f168201915b50505050508152602001600582018054610a7b90612f7f565b80601f0160208091040260200160405190810160405280929190818152602001828054610aa790612f7f565b8015610af45780601f10610ac957610100808354040283529160200191610af4565b820191906000526020600020905b815481529060010190602001808311610ad757829003601f168201915b505050505081526020016006820154815260200160078201548152602001600882018054610b2190612f7f565b80601f0160208091040260200160405190810160405280929190818152602001828054610b4d90612f7f565b8015610b9a5780601f10610b6f57610100808354040283529160200191610b9a565b820191906000526020600020905b815481529060010190602001808311610b7d57829003601f168201915b50505050508152602001600982018054610bb390612f7f565b80601f0160208091040260200160405190810160405280929190818152602001828054610bdf90612f7f565b8015610c2c5780601f10610c0157610100808354040283529160200191610c2c565b820191906000526020600020905b815481529060010190602001808311610c0f57829003601f168201915b50505050508152602001600a82015481525050828281518110610c5257610c51612fb0565b5b60200260200101819052508080610c68906130c8565b91505061073d565b508091505090565b60008083604051610c899190613141565b90815260200160405180910390206000018054610ca590612f7f565b905003610ce7576040517f08c379a0000000000000000000000000000000000000000000000000000000008152600401610cde906131a4565b60405180910390fd5b80600083604051610cf89190613141565b90815260200160405180910390206009019081610d15919061335b565b506040518060400160405280600481526020017f7061696400000000000000000000000000000000000000000000000000000000815250600083604051610d5c9190613141565b90815260200160405180910390206004019081610d79919061335b565b507f186c2b6377d1e8f7a4f2acb5a42183967f7d748c4c6e91d623ed00da8f01417d8282604051610dab92919061342d565b60405180910390a17fc61ffb03925558d248fba37b73270b12903d3f0ba5797af8b71a9f8bf0761a9882604051610de291906134b0565b60405180910390a15050565b60008083604051610dff9190613141565b90815260200160405180910390206000018054610e1b90612f7f565b905003610e5d576040517f08c379a0000000000000000000000000000000000000000000000000000000008152600401610e54906131a4565b60405180910390fd5b80600083604051610e6e9190613141565b90815260200160405180910390206005019081610e8b919061335b565b507fb75b1fec1bc9156569ae9f72fb29c6e6727b297e191d358465fff4c09d8f7d268282604051610ebd92919061342d565b60405180910390a15050565b60018181548110610ed957600080fd5b906000526020600020016000915090508054610ef490612f7f565b80601f0160208091040260200160405190810160405280929190818152602001828054610f2090612f7f565b8015610f6d5780601f10610f4257610100808354040283529160200191610f6d565b820191906000526020600020905b815481529060010190602001808311610f5057829003601f168201915b505050505081565b60606000805b60018054905081101561103a5783604051602001610f999190613141565b60405160208183030381529060405280519060200120600060018381548110610fc557610fc4612fb0565b5b90600052602060002001604051610fdc9190613082565b9081526020016040518091039020600201604051602001610ffd9190613082565b6040516020818303038152906040528051906020012003611027578180611023906130c8565b9250505b8080611032906130c8565b915050610f7b565b5060008167ffffffffffffffff8111156110575761105661262c565b5b60405190808252806020026020018201604052801561109057816020015b61107d6125a3565b8152602001906001900390816110755790505b5090506000805b60018054905081101561166957856040516020016110b59190613141565b604051602081830303815290604052805190602001206000600183815481106110e1576110e0612fb0565b5b906000526020600020016040516110f89190613082565b90815260200160405180910390206002016040516020016111199190613082565b60405160208183030381529060405280519060200120036116565760006001828154811061114a57611149612fb0565b5b906000526020600020016040516111619190613082565b90815260200160405180910390206040518061016001604052908160008201805461118b90612f7f565b80601f01602080910402602001604051908101604052809291908181526020018280546111b790612f7f565b80156112045780601f106111d957610100808354040283529160200191611204565b820191906000526020600020905b8154815290600101906020018083116111e757829003601f168201915b5050505050815260200160018201805461121d90612f7f565b80601f016020809104026020016040519081016040528092919081815260200182805461124990612f7f565b80156112965780601f1061126b57610100808354040283529160200191611296565b820191906000526020600020905b81548152906001019060200180831161127957829003601f168201915b505050505081526020016002820180546112af90612f7f565b80601f01602080910402602001604051908101604052809291908181526020018280546112db90612f7f565b80156113285780601f106112fd57610100808354040283529160200191611328565b820191906000526020600020905b81548152906001019060200180831161130b57829003601f168201915b5050505050815260200160038201805461134190612f7f565b80601f016020809104026020016040519081016040528092919081815260200182805461136d90612f7f565b80156113ba5780601f1061138f576101008083540402835291602001916113ba565b820191906000526020600020905b81548152906001019060200180831161139d57829003601f168201915b505050505081526020016004820180546113d390612f7f565b80601f01602080910402602001604051908101604052809291908181526020018280546113ff90612f7f565b801561144c5780601f106114215761010080835404028352916020019161144c565b820191906000526020600020905b81548152906001019060200180831161142f57829003601f168201915b5050505050815260200160058201805461146590612f7f565b80601f016020809104026020016040519081016040528092919081815260200182805461149190612f7f565b80156114de5780601f106114b3576101008083540402835291602001916114de565b820191906000526020600020905b8154815290600101906020018083116114c157829003601f168201915b50505050508152602001600682015481526020016007820154815260200160088201805461150b90612f7f565b80601f016020809104026020016040519081016040528092919081815260200182805461153790612f7f565b80156115845780601f1061155957610100808354040283529160200191611584565b820191906000526020600020905b81548152906001019060200180831161156757829003601f168201915b5050505050815260200160098201805461159d90612f7f565b80601f01602080910402602001604051908101604052809291908181526020018280546115c990612f7f565b80156116165780601f106115eb57610100808354040283529160200191611616565b820191906000526020600020905b8154815290600101906020018083116115f957829003601f168201915b50505050508152602001600a8201548152505083838151811061163c5761163b612fb0565b5b60200260200101819052508180611652906130c8565b9250505b8080611661906130c8565b915050611097565b50819350505050919050565b6040518061016001604052808b81526020018a81526020018981526020018881526020018781526020018681526020018581526020018481526020018381526020016040518060400160405280600481526020017f6e756c6c0000000000000000000000000000000000000000000000000000000081525081526020018281525060008b6040516117069190613141565b90815260200160405180910390206000820151816000019081611729919061335b565b50602082015181600101908161173f919061335b565b506040820151816002019081611755919061335b565b50606082015181600301908161176b919061335b565b506080820151816004019081611781919061335b565b5060a0820151816005019081611797919061335b565b5060c0820151816006015560e082015181600701556101008201518160080190816117c2919061335b565b506101208201518160090190816117d9919061335b565b5061014082015181600a015590505060018a90806001815401808255809150506001900390600052602060002001600090919091909150908161181c919061335b565b507f5cd3880a2112a5001c77c80fc5f3cc78f5e578532f8fac0609615fc2b10e47278a8a8a8a8a8a8a8a8a8a60405161185e9a99989796959493929190613531565b60405180910390a150505050505050505050565b60606000805b60018054905081101561193757836040516020016118969190613141565b604051602081830303815290604052805190602001206000600183815481106118c2576118c1612fb0565b5b906000526020600020016040516118d99190613082565b90815260200160405180910390206001016040516020016118fa9190613082565b6040516020818303038152906040528051906020012003611924578180611920906130c8565b9250505b808061192f906130c8565b915050611878565b5060008167ffffffffffffffff8111156119545761195361262c565b5b60405190808252806020026020018201604052801561198d57816020015b61197a6125a3565b8152602001906001900390816119725790505b5090506000805b600180549050811015611f6657856040516020016119b29190613141565b604051602081830303815290604052805190602001206000600183815481106119de576119dd612fb0565b5b906000526020600020016040516119f59190613082565b9081526020016040518091039020600101604051602001611a169190613082565b6040516020818303038152906040528051906020012003611f5357600060018281548110611a4757611a46612fb0565b5b90600052602060002001604051611a5e9190613082565b908152602001604051809103902060405180610160016040529081600082018054611a8890612f7f565b80601f0160208091040260200160405190810160405280929190818152602001828054611ab490612f7f565b8015611b015780601f10611ad657610100808354040283529160200191611b01565b820191906000526020600020905b815481529060010190602001808311611ae457829003601f168201915b50505050508152602001600182018054611b1a90612f7f565b80601f0160208091040260200160405190810160405280929190818152602001828054611b4690612f7f565b8015611b935780601f10611b6857610100808354040283529160200191611b93565b820191906000526020600020905b815481529060010190602001808311611b7657829003601f168201915b50505050508152602001600282018054611bac90612f7f565b80601f0160208091040260200160405190810160405280929190818152602001828054611bd890612f7f565b8015611c255780601f10611bfa57610100808354040283529160200191611c25565b820191906000526020600020905b815481529060010190602001808311611c0857829003601f168201915b50505050508152602001600382018054611c3e90612f7f565b80601f0160208091040260200160405190810160405280929190818152602001828054611c6a90612f7f565b8015611cb75780601f10611c8c57610100808354040283529160200191611cb7565b820191906000526020600020905b815481529060010190602001808311611c9a57829003601f168201915b50505050508152602001600482018054611cd090612f7f565b80601f0160208091040260200160405190810160405280929190818152602001828054611cfc90612f7f565b8015611d495780601f10611d1e57610100808354040283529160200191611d49565b820191906000526020600020905b815481529060010190602001808311611d2c57829003601f168201915b50505050508152602001600582018054611d6290612f7f565b80601f0160208091040260200160405190810160405280929190818152602001828054611d8e90612f7f565b8015611ddb5780601f10611db057610100808354040283529160200191611ddb565b820191906000526020600020905b815481529060010190602001808311611dbe57829003601f168201915b505050505081526020016006820154815260200160078201548152602001600882018054611e0890612f7f565b80601f0160208091040260200160405190810160405280929190818152602001828054611e3490612f7f565b8015611e815780601f10611e5657610100808354040283529160200191611e81565b820191906000526020600020905b815481529060010190602001808311611e6457829003601f168201915b50505050508152602001600982018054611e9a90612f7f565b80601f0160208091040260200160405190810160405280929190818152602001828054611ec690612f7f565b8015611f135780601f10611ee857610100808354040283529160200191611f13565b820191906000526020600020905b815481529060010190602001808311611ef657829003601f168201915b50505050508152602001600a82015481525050838381518110611f3957611f38612fb0565b5b60200260200101819052508180611f4f906130c8565b9250505b8080611f5e906130c8565b915050611994565b50819350505050919050565b611f7a6125a3565b60008083604051611f8b9190613141565b90815260200160405180910390206000018054611fa790612f7f565b905003611fe9576040517f08c379a0000000000000000000000000000000000000000000000000000000008152600401611fe0906131a4565b60405180910390fd5b600082604051611ff99190613141565b90815260200160405180910390206040518061016001604052908160008201805461202390612f7f565b80601f016020809104026020016040519081016040528092919081815260200182805461204f90612f7f565b801561209c5780601f106120715761010080835404028352916020019161209c565b820191906000526020600020905b81548152906001019060200180831161207f57829003601f168201915b505050505081526020016001820180546120b590612f7f565b80601f01602080910402602001604051908101604052809291908181526020018280546120e190612f7f565b801561212e5780601f106121035761010080835404028352916020019161212e565b820191906000526020600020905b81548152906001019060200180831161211157829003601f168201915b5050505050815260200160028201805461214790612f7f565b80601f016020809104026020016040519081016040528092919081815260200182805461217390612f7f565b80156121c05780601f10612195576101008083540402835291602001916121c0565b820191906000526020600020905b8154815290600101906020018083116121a357829003601f168201915b505050505081526020016003820180546121d990612f7f565b80601f016020809104026020016040519081016040528092919081815260200182805461220590612f7f565b80156122525780601f1061222757610100808354040283529160200191612252565b820191906000526020600020905b81548152906001019060200180831161223557829003601f168201915b5050505050815260200160048201805461226b90612f7f565b80601f016020809104026020016040519081016040528092919081815260200182805461229790612f7f565b80156122e45780601f106122b9576101008083540402835291602001916122e4565b820191906000526020600020905b8154815290600101906020018083116122c757829003601f168201915b505050505081526020016005820180546122fd90612f7f565b80601f016020809104026020016040519081016040528092919081815260200182805461232990612f7f565b80156123765780601f1061234b57610100808354040283529160200191612376565b820191906000526020600020905b81548152906001019060200180831161235957829003601f168201915b5050505050815260200160068201548152602001600782015481526020016008820180546123a390612f7f565b80601f01602080910402602001604051908101604052809291908181526020018280546123cf90612f7f565b801561241c5780601f106123f15761010080835404028352916020019161241c565b820191906000526020600020905b8154815290600101906020018083116123ff57829003601f168201915b5050505050815260200160098201805461243590612f7f565b80601f016020809104026020016040519081016040528092919081815260200182805461246190612f7f565b80156124ae5780601f10612483576101008083540402835291602001916124ae565b820191906000526020600020905b81548152906001019060200180831161249157829003601f168201915b50505050508152602001600a820154815250509050919050565b600080836040516124d99190613141565b908152602001604051809103902060000180546124f590612f7f565b905003612537576040517f08c379a000000000000000000000000000000000000000000000000000000000815260040161252e906131a4565b60405180910390fd5b806000836040516125489190613141565b90815260200160405180910390206004019081612565919061335b565b507fc61ffb03925558d248fba37b73270b12903d3f0ba5797af8b71a9f8bf0761a98828260405161259792919061342d565b60405180910390a15050565b60405180610160016040528060608152602001606081526020016060815260200160608152602001606081526020016060815260200160008152602001600081526020016060815260200160608152602001600081525090565b6000604051905090565b600080fd5b600080fd5b600080fd5b600080fd5b6000601f19601f8301169050919050565b7f4e487b7100000000000000000000000000000000000000000000000000000000600052604160045260246000fd5b6126648261261b565b810181811067ffffffffffffffff821117156126835761268261262c565b5b80604052505050565b60006126966125fd565b90506126a2828261265b565b919050565b600067ffffffffffffffff8211156126c2576126c161262c565b5b6126cb8261261b565b9050602081019050919050565b82818337600083830152505050565b60006126fa6126f5846126a7565b61268c565b90508281526020810184848401111561271657612715612616565b5b6127218482856126d8565b509392505050565b600082601f83011261273e5761273d612611565b5b813561274e8482602086016126e7565b91505092915050565b60006020828403121561276d5761276c612607565b5b600082013567ffffffffffffffff81111561278b5761278a61260c565b5b61279784828501612729565b91505092915050565b600081519050919050565b600082825260208201905092915050565b60005b838110156127da5780820151818401526020810190506127bf565b60008484015250505050565b60006127f1826127a0565b6127fb81856127ab565b935061280b8185602086016127bc565b6128148161261b565b840191505092915050565b6000819050919050565b6128328161281f565b82525050565b6000610160820190508181036000830152612853818e6127e6565b90508181036020830152612867818d6127e6565b9050818103604083015261287b818c6127e6565b9050818103606083015261288f818b6127e6565b905081810360808301526128a3818a6127e6565b905081810360a08301526128b781896127e6565b90506128c660c0830188612829565b6128d360e0830187612829565b8181036101008301526128e681866127e6565b90508181036101208301526128fb81856127e6565b905061290b610140830184612829565b9c9b505050505050505050505050565b600081519050919050565b600082825260208201905092915050565b6000819050602082019050919050565b600082825260208201905092915050565b6000612963826127a0565b61296d8185612947565b935061297d8185602086016127bc565b6129868161261b565b840191505092915050565b61299a8161281f565b82525050565b60006101608301600083015184820360008601526129be8282612958565b915050602083015184820360208601526129d88282612958565b915050604083015184820360408601526129f28282612958565b91505060608301518482036060860152612a0c8282612958565b91505060808301518482036080860152612a268282612958565b91505060a083015184820360a0860152612a408282612958565b91505060c0830151612a5560c0860182612991565b5060e0830151612a6860e0860182612991565b50610100830151848203610100860152612a828282612958565b915050610120830151848203610120860152612a9e8282612958565b915050610140830151612ab5610140860182612991565b508091505092915050565b6000612acc83836129a0565b905092915050565b6000602082019050919050565b6000612aec8261291b565b612af68185612926565b935083602082028501612b0885612937565b8060005b85811015612b445784840389528151612b258582612ac0565b9450612b3083612ad4565b925060208a01995050600181019050612b0c565b50829750879550505050505092915050565b60006020820190508181036000830152612b708184612ae1565b905092915050565b60008060408385031215612b8f57612b8e612607565b5b600083013567ffffffffffffffff811115612bad57612bac61260c565b5b612bb985828601612729565b925050602083013567ffffffffffffffff811115612bda57612bd961260c565b5b612be685828601612729565b9150509250929050565b612bf98161281f565b8114612c0457600080fd5b50565b600081359050612c1681612bf0565b92915050565b600060208284031215612c3257612c31612607565b5b6000612c4084828501612c07565b91505092915050565b60006020820190508181036000830152612c6381846127e6565b905092915050565b6000806000806000806000806000806101408b8d031215612c8f57612c8e612607565b5b60008b013567ffffffffffffffff811115612cad57612cac61260c565b5b612cb98d828e01612729565b9a505060208b013567ffffffffffffffff811115612cda57612cd961260c565b5b612ce68d828e01612729565b99505060408b013567ffffffffffffffff811115612d0757612d0661260c565b5b612d138d828e01612729565b98505060608b013567ffffffffffffffff811115612d3457612d3361260c565b5b612d408d828e01612729565b97505060808b013567ffffffffffffffff811115612d6157612d6061260c565b5b612d6d8d828e01612729565b96505060a08b013567ffffffffffffffff811115612d8e57612d8d61260c565b5b612d9a8d828e01612729565b95505060c0612dab8d828e01612c07565b94505060e0612dbc8d828e01612c07565b9350506101008b013567ffffffffffffffff811115612dde57612ddd61260c565b5b612dea8d828e01612729565b925050610120612dfc8d828e01612c07565b9150509295989b9194979a5092959850565b6000610160830160008301518482036000860152612e2c8282612958565b91505060208301518482036020860152612e468282612958565b91505060408301518482036040860152612e608282612958565b91505060608301518482036060860152612e7a8282612958565b91505060808301518482036080860152612e948282612958565b91505060a083015184820360a0860152612eae8282612958565b91505060c0830151612ec360c0860182612991565b5060e0830151612ed660e0860182612991565b50610100830151848203610100860152612ef08282612958565b915050610120830151848203610120860152612f0c8282612958565b915050610140830151612f23610140860182612991565b508091505092915050565b60006020820190508181036000830152612f488184612e0e565b905092915050565b7f4e487b7100000000000000000000000000000000000000000000000000000000600052602260045260246000fd5b60006002820490506001821680612f9757607f821691505b602082108103612faa57612fa9612f50565b5b50919050565b7f4e487b7100000000000000000000000000000000000000000000000000000000600052603260045260246000fd5b600081905092915050565b60008190508160005260206000209050919050565b6000815461300c81612f7f565b6130168186612fdf565b94506001821660008114613031576001811461304657613079565b60ff1983168652811515820286019350613079565b61304f85612fea565b60005b8381101561307157815481890152600182019150602081019050613052565b838801955050505b50505092915050565b600061308e8284612fff565b915081905092915050565b7f4e487b7100000000000000000000000000000000000000000000000000000000600052601160045260246000fd5b60006130d38261281f565b91507fffffffffffffffffffffffffffffffffffffffffffffffffffffffffffffffff820361310557613104613099565b5b600182019050919050565b600061311b826127a0565b6131258185612fdf565b93506131358185602086016127bc565b80840191505092915050565b600061314d8284613110565b915081905092915050565b7f5472616e73616374696f6e20646f6573206e6f74206578697374000000000000600082015250565b600061318e601a836127ab565b915061319982613158565b602082019050919050565b600060208201905081810360008301526131bd81613181565b9050919050565b60006020601f8301049050919050565b600082821b905092915050565b6000600883026132117fffffffffffffffffffffffffffffffffffffffffffffffffffffffffffffffff826131d4565b61321b86836131d4565b95508019841693508086168417925050509392505050565b6000819050919050565b600061325861325361324e8461281f565b613233565b61281f565b9050919050565b6000819050919050565b6132728361323d565b61328661327e8261325f565b8484546131e1565b825550505050565b600090565b61329b61328e565b6132a6818484613269565b505050565b5b818110156132ca576132bf600082613293565b6001810190506132ac565b5050565b601f82111561330f576132e081612fea565b6132e9846131c4565b810160208510156132f8578190505b61330c613304856131c4565b8301826132ab565b50505b505050565b600082821c905092915050565b600061333260001984600802613314565b1980831691505092915050565b600061334b8383613321565b9150826002028217905092915050565b613364826127a0565b67ffffffffffffffff81111561337d5761337c61262c565b5b6133878254612f7f565b6133928282856132ce565b600060209050601f8311600181146133c557600084156133b3578287015190505b6133bd858261333f565b865550613425565b601f1984166133d386612fea565b60005b828110156133fb578489015182556001820191506020850194506020810190506133d6565b868310156134185784890151613414601f891682613321565b8355505b6001600288020188555050505b505050505050565b6000604082019050818103600083015261344781856127e6565b9050818103602083015261345b81846127e6565b90509392505050565b7f7061696400000000000000000000000000000000000000000000000000000000600082015250565b600061349a6004836127ab565b91506134a582613464565b602082019050919050565b600060408201905081810360008301526134ca81846127e6565b905081810360208301526134dd8161348d565b905092915050565b7f6e756c6c00000000000000000000000000000000000000000000000000000000600082015250565b600061351b6004836127ab565b9150613526826134e5565b602082019050919050565b600061016082019050818103600083015261354c818d6127e6565b90508181036020830152613560818c6127e6565b90508181036040830152613574818b6127e6565b90508181036060830152613588818a6127e6565b9050818103608083015261359c81896127e6565b905081810360a08301526135b081886127e6565b90506135bf60c0830187612829565b6135cc60e0830186612829565b8181036101008301526135df81856127e6565b90508181036101208301526135f38161350e565b9050613603610140830184612829565b9b9a505050505050505050505056fea2646970667358221220b2c83775d9e228f5917db447a22afe2cca3794be806aa48180eb28eeb847ff3064736f6c63430008100033",
					"opcodes": "PUSH1 0x80 PUSH1 0x40 MSTORE CALLVALUE DUP1 ISZERO PUSH2 0x10 JUMPI PUSH1 0x0 DUP1 REVERT JUMPDEST POP PUSH2 0x3648 DUP1 PUSH2 0x20 PUSH1 0x0 CODECOPY PUSH1 0x0 RETURN INVALID PUSH1 0x80 PUSH1 0x40 MSTORE CALLVALUE DUP1 ISZERO PUSH2 0x10 JUMPI PUSH1 0x0 DUP1 REVERT JUMPDEST POP PUSH1 0x4 CALLDATASIZE LT PUSH2 0x9E JUMPI PUSH1 0x0 CALLDATALOAD PUSH1 0xE0 SHR DUP1 PUSH4 0x7EE9ED47 GT PUSH2 0x66 JUMPI DUP1 PUSH4 0x7EE9ED47 EQ PUSH2 0x163 JUMPI DUP1 PUSH4 0x814CB8EB EQ PUSH2 0x193 JUMPI DUP1 PUSH4 0x9DB897DD EQ PUSH2 0x1AF JUMPI DUP1 PUSH4 0xD339B0EC EQ PUSH2 0x1DF JUMPI DUP1 PUSH4 0xFFF50461 EQ PUSH2 0x20F JUMPI PUSH2 0x9E JUMP JUMPDEST DUP1 PUSH4 0x22236F4 EQ PUSH2 0xA3 JUMPI DUP1 PUSH4 0x27506F53 EQ PUSH2 0xDD JUMPI DUP1 PUSH4 0x2B47300D EQ PUSH2 0xFB JUMPI DUP1 PUSH4 0x347047CC EQ PUSH2 0x117 JUMPI DUP1 PUSH4 0x7CE99C58 EQ PUSH2 0x133 JUMPI JUMPDEST PUSH1 0x0 DUP1 REVERT JUMPDEST PUSH2 0xBD PUSH1 0x4 DUP1 CALLDATASIZE SUB DUP2 ADD SWAP1 PUSH2 0xB8 SWAP2 SWAP1 PUSH2 0x2757 JUMP JUMPDEST PUSH2 0x22B JUMP JUMPDEST PUSH1 0x40 MLOAD PUSH2 0xD4 SWAP12 SWAP11 SWAP10 SWAP9 SWAP8 SWAP7 SWAP6 SWAP5 SWAP4 SWAP3 SWAP2 SWAP1 PUSH2 0x2838 JUMP JUMPDEST PUSH1 0x40 MLOAD DUP1 SWAP2 SUB SWAP1 RETURN JUMPDEST PUSH2 0xE5 PUSH2 0x6DB JUMP JUMPDEST PUSH1 0x40 MLOAD PUSH2 0xF2 SWAP2 SWAP1 PUSH2 0x2B56 JUMP JUMPDEST PUSH1 0x40 MLOAD DUP1 SWAP2 SUB SWAP1 RETURN JUMPDEST PUSH2 0x115 PUSH1 0x4 DUP1 CALLDATASIZE SUB DUP2 ADD SWAP1 PUSH2 0x110 SWAP2 SWAP1 PUSH2 0x2B78 JUMP JUMPDEST PUSH2 0xC78 JUMP JUMPDEST STOP JUMPDEST PUSH2 0x131 PUSH1 0x4 DUP1 CALLDATASIZE SUB DUP2 ADD SWAP1 PUSH2 0x12C SWAP2 SWAP1 PUSH2 0x2B78 JUMP JUMPDEST PUSH2 0xDEE JUMP JUMPDEST STOP JUMPDEST PUSH2 0x14D PUSH1 0x4 DUP1 CALLDATASIZE SUB DUP2 ADD SWAP1 PUSH2 0x148 SWAP2 SWAP1 PUSH2 0x2C1C JUMP JUMPDEST PUSH2 0xEC9 JUMP JUMPDEST PUSH1 0x40 MLOAD PUSH2 0x15A SWAP2 SWAP1 PUSH2 0x2C49 JUMP JUMPDEST PUSH1 0x40 MLOAD DUP1 SWAP2 SUB SWAP1 RETURN JUMPDEST PUSH2 0x17D PUSH1 0x4 DUP1 CALLDATASIZE SUB DUP2 ADD SWAP1 PUSH2 0x178 SWAP2 SWAP1 PUSH2 0x2757 JUMP JUMPDEST PUSH2 0xF75 JUMP JUMPDEST PUSH1 0x40 MLOAD PUSH2 0x18A SWAP2 SWAP1 PUSH2 0x2B56 JUMP JUMPDEST PUSH1 0x40 MLOAD DUP1 SWAP2 SUB SWAP1 RETURN JUMPDEST PUSH2 0x1AD PUSH1 0x4 DUP1 CALLDATASIZE SUB DUP2 ADD SWAP1 PUSH2 0x1A8 SWAP2 SWAP1 PUSH2 0x2C6B JUMP JUMPDEST PUSH2 0x1675 JUMP JUMPDEST STOP JUMPDEST PUSH2 0x1C9 PUSH1 0x4 DUP1 CALLDATASIZE SUB DUP2 ADD SWAP1 PUSH2 0x1C4 SWAP2 SWAP1 PUSH2 0x2757 JUMP JUMPDEST PUSH2 0x1872 JUMP JUMPDEST PUSH1 0x40 MLOAD PUSH2 0x1D6 SWAP2 SWAP1 PUSH2 0x2B56 JUMP JUMPDEST PUSH1 0x40 MLOAD DUP1 SWAP2 SUB SWAP1 RETURN JUMPDEST PUSH2 0x1F9 PUSH1 0x4 DUP1 CALLDATASIZE SUB DUP2 ADD SWAP1 PUSH2 0x1F4 SWAP2 SWAP1 PUSH2 0x2757 JUMP JUMPDEST PUSH2 0x1F72 JUMP JUMPDEST PUSH1 0x40 MLOAD PUSH2 0x206 SWAP2 SWAP1 PUSH2 0x2F2E JUMP JUMPDEST PUSH1 0x40 MLOAD DUP1 SWAP2 SUB SWAP1 RETURN JUMPDEST PUSH2 0x229 PUSH1 0x4 DUP1 CALLDATASIZE SUB DUP2 ADD SWAP1 PUSH2 0x224 SWAP2 SWAP1 PUSH2 0x2B78 JUMP JUMPDEST PUSH2 0x24C8 JUMP JUMPDEST STOP JUMPDEST PUSH1 0x0 DUP2 DUP1 MLOAD PUSH1 0x20 DUP2 ADD DUP3 ADD DUP1 MLOAD DUP5 DUP3 MSTORE PUSH1 0x20 DUP4 ADD PUSH1 0x20 DUP6 ADD KECCAK256 DUP2 DUP4 MSTORE DUP1 SWAP6 POP POP POP POP POP POP PUSH1 0x0 SWAP2 POP SWAP1 POP DUP1 PUSH1 0x0 ADD DUP1 SLOAD PUSH2 0x264 SWAP1 PUSH2 0x2F7F JUMP JUMPDEST DUP1 PUSH1 0x1F ADD PUSH1 0x20 DUP1 SWAP2 DIV MUL PUSH1 0x20 ADD PUSH1 0x40 MLOAD SWAP1 DUP2 ADD PUSH1 0x40 MSTORE DUP1 SWAP3 SWAP2 SWAP1 DUP2 DUP2 MSTORE PUSH1 0x20 ADD DUP3 DUP1 SLOAD PUSH2 0x290 SWAP1 PUSH2 0x2F7F JUMP JUMPDEST DUP1 ISZERO PUSH2 0x2DD JUMPI DUP1 PUSH1 0x1F LT PUSH2 0x2B2 JUMPI PUSH2 0x100 DUP1 DUP4 SLOAD DIV MUL DUP4 MSTORE SWAP2 PUSH1 0x20 ADD SWAP2 PUSH2 0x2DD JUMP JUMPDEST DUP3 ADD SWAP2 SWAP1 PUSH1 0x0 MSTORE PUSH1 0x20 PUSH1 0x0 KECCAK256 SWAP1 JUMPDEST DUP2 SLOAD DUP2 MSTORE SWAP1 PUSH1 0x1 ADD SWAP1 PUSH1 0x20 ADD DUP1 DUP4 GT PUSH2 0x2C0 JUMPI DUP3 SWAP1 SUB PUSH1 0x1F AND DUP3 ADD SWAP2 JUMPDEST POP POP POP POP POP SWAP1 DUP1 PUSH1 0x1 ADD DUP1 SLOAD PUSH2 0x2F2 SWAP1 PUSH2 0x2F7F JUMP JUMPDEST DUP1 PUSH1 0x1F ADD PUSH1 0x20 DUP1 SWAP2 DIV MUL PUSH1 0x20 ADD PUSH1 0x40 MLOAD SWAP1 DUP2 ADD PUSH1 0x40 MSTORE DUP1 SWAP3 SWAP2 SWAP1 DUP2 DUP2 MSTORE PUSH1 0x20 ADD DUP3 DUP1 SLOAD PUSH2 0x31E SWAP1 PUSH2 0x2F7F JUMP JUMPDEST DUP1 ISZERO PUSH2 0x36B JUMPI DUP1 PUSH1 0x1F LT PUSH2 0x340 JUMPI PUSH2 0x100 DUP1 DUP4 SLOAD DIV MUL DUP4 MSTORE SWAP2 PUSH1 0x20 ADD SWAP2 PUSH2 0x36B JUMP JUMPDEST DUP3 ADD SWAP2 SWAP1 PUSH1 0x0 MSTORE PUSH1 0x20 PUSH1 0x0 KECCAK256 SWAP1 JUMPDEST DUP2 SLOAD DUP2 MSTORE SWAP1 PUSH1 0x1 ADD SWAP1 PUSH1 0x20 ADD DUP1 DUP4 GT PUSH2 0x34E JUMPI DUP3 SWAP1 SUB PUSH1 0x1F AND DUP3 ADD SWAP2 JUMPDEST POP POP POP POP POP SWAP1 DUP1 PUSH1 0x2 ADD DUP1 SLOAD PUSH2 0x380 SWAP1 PUSH2 0x2F7F JUMP JUMPDEST DUP1 PUSH1 0x1F ADD PUSH1 0x20 DUP1 SWAP2 DIV MUL PUSH1 0x20 ADD PUSH1 0x40 MLOAD SWAP1 DUP2 ADD PUSH1 0x40 MSTORE DUP1 SWAP3 SWAP2 SWAP1 DUP2 DUP2 MSTORE PUSH1 0x20 ADD DUP3 DUP1 SLOAD PUSH2 0x3AC SWAP1 PUSH2 0x2F7F JUMP JUMPDEST DUP1 ISZERO PUSH2 0x3F9 JUMPI DUP1 PUSH1 0x1F LT PUSH2 0x3CE JUMPI PUSH2 0x100 DUP1 DUP4 SLOAD DIV MUL DUP4 MSTORE SWAP2 PUSH1 0x20 ADD SWAP2 PUSH2 0x3F9 JUMP JUMPDEST DUP3 ADD SWAP2 SWAP1 PUSH1 0x0 MSTORE PUSH1 0x20 PUSH1 0x0 KECCAK256 SWAP1 JUMPDEST DUP2 SLOAD DUP2 MSTORE SWAP1 PUSH1 0x1 ADD SWAP1 PUSH1 0x20 ADD DUP1 DUP4 GT PUSH2 0x3DC JUMPI DUP3 SWAP1 SUB PUSH1 0x1F AND DUP3 ADD SWAP2 JUMPDEST POP POP POP POP POP SWAP1 DUP1 PUSH1 0x3 ADD DUP1 SLOAD PUSH2 0x40E SWAP1 PUSH2 0x2F7F JUMP JUMPDEST DUP1 PUSH1 0x1F ADD PUSH1 0x20 DUP1 SWAP2 DIV MUL PUSH1 0x20 ADD PUSH1 0x40 MLOAD SWAP1 DUP2 ADD PUSH1 0x40 MSTORE DUP1 SWAP3 SWAP2 SWAP1 DUP2 DUP2 MSTORE PUSH1 0x20 ADD DUP3 DUP1 SLOAD PUSH2 0x43A SWAP1 PUSH2 0x2F7F JUMP JUMPDEST DUP1 ISZERO PUSH2 0x487 JUMPI DUP1 PUSH1 0x1F LT PUSH2 0x45C JUMPI PUSH2 0x100 DUP1 DUP4 SLOAD DIV MUL DUP4 MSTORE SWAP2 PUSH1 0x20 ADD SWAP2 PUSH2 0x487 JUMP JUMPDEST DUP3 ADD SWAP2 SWAP1 PUSH1 0x0 MSTORE PUSH1 0x20 PUSH1 0x0 KECCAK256 SWAP1 JUMPDEST DUP2 SLOAD DUP2 MSTORE SWAP1 PUSH1 0x1 ADD SWAP1 PUSH1 0x20 ADD DUP1 DUP4 GT PUSH2 0x46A JUMPI DUP3 SWAP1 SUB PUSH1 0x1F AND DUP3 ADD SWAP2 JUMPDEST POP POP POP POP POP SWAP1 DUP1 PUSH1 0x4 ADD DUP1 SLOAD PUSH2 0x49C SWAP1 PUSH2 0x2F7F JUMP JUMPDEST DUP1 PUSH1 0x1F ADD PUSH1 0x20 DUP1 SWAP2 DIV MUL PUSH1 0x20 ADD PUSH1 0x40 MLOAD SWAP1 DUP2 ADD PUSH1 0x40 MSTORE DUP1 SWAP3 SWAP2 SWAP1 DUP2 DUP2 MSTORE PUSH1 0x20 ADD DUP3 DUP1 SLOAD PUSH2 0x4C8 SWAP1 PUSH2 0x2F7F JUMP JUMPDEST DUP1 ISZERO PUSH2 0x515 JUMPI DUP1 PUSH1 0x1F LT PUSH2 0x4EA JUMPI PUSH2 0x100 DUP1 DUP4 SLOAD DIV MUL DUP4 MSTORE SWAP2 PUSH1 0x20 ADD SWAP2 PUSH2 0x515 JUMP JUMPDEST DUP3 ADD SWAP2 SWAP1 PUSH1 0x0 MSTORE PUSH1 0x20 PUSH1 0x0 KECCAK256 SWAP1 JUMPDEST DUP2 SLOAD DUP2 MSTORE SWAP1 PUSH1 0x1 ADD SWAP1 PUSH1 0x20 ADD DUP1 DUP4 GT PUSH2 0x4F8 JUMPI DUP3 SWAP1 SUB PUSH1 0x1F AND DUP3 ADD SWAP2 JUMPDEST POP POP POP POP POP SWAP1 DUP1 PUSH1 0x5 ADD DUP1 SLOAD PUSH2 0x52A SWAP1 PUSH2 0x2F7F JUMP JUMPDEST DUP1 PUSH1 0x1F ADD PUSH1 0x20 DUP1 SWAP2 DIV MUL PUSH1 0x20 ADD PUSH1 0x40 MLOAD SWAP1 DUP2 ADD PUSH1 0x40 MSTORE DUP1 SWAP3 SWAP2 SWAP1 DUP2 DUP2 MSTORE PUSH1 0x20 ADD DUP3 DUP1 SLOAD PUSH2 0x556 SWAP1 PUSH2 0x2F7F JUMP JUMPDEST DUP1 ISZERO PUSH2 0x5A3 JUMPI DUP1 PUSH1 0x1F LT PUSH2 0x578 JUMPI PUSH2 0x100 DUP1 DUP4 SLOAD DIV MUL DUP4 MSTORE SWAP2 PUSH1 0x20 ADD SWAP2 PUSH2 0x5A3 JUMP JUMPDEST DUP3 ADD SWAP2 SWAP1 PUSH1 0x0 MSTORE PUSH1 0x20 PUSH1 0x0 KECCAK256 SWAP1 JUMPDEST DUP2 SLOAD DUP2 MSTORE SWAP1 PUSH1 0x1 ADD SWAP1 PUSH1 0x20 ADD DUP1 DUP4 GT PUSH2 0x586 JUMPI DUP3 SWAP1 SUB PUSH1 0x1F AND DUP3 ADD SWAP2 JUMPDEST POP POP POP POP POP SWAP1 DUP1 PUSH1 0x6 ADD SLOAD SWAP1 DUP1 PUSH1 0x7 ADD SLOAD SWAP1 DUP1 PUSH1 0x8 ADD DUP1 SLOAD PUSH2 0x5C4 SWAP1 PUSH2 0x2F7F JUMP JUMPDEST DUP1 PUSH1 0x1F ADD PUSH1 0x20 DUP1 SWAP2 DIV MUL PUSH1 0x20 ADD PUSH1 0x40 MLOAD SWAP1 DUP2 ADD PUSH1 0x40 MSTORE DUP1 SWAP3 SWAP2 SWAP1 DUP2 DUP2 MSTORE PUSH1 0x20 ADD DUP3 DUP1 SLOAD PUSH2 0x5F0 SWAP1 PUSH2 0x2F7F JUMP JUMPDEST DUP1 ISZERO PUSH2 0x63D JUMPI DUP1 PUSH1 0x1F LT PUSH2 0x612 JUMPI PUSH2 0x100 DUP1 DUP4 SLOAD DIV MUL DUP4 MSTORE SWAP2 PUSH1 0x20 ADD SWAP2 PUSH2 0x63D JUMP JUMPDEST DUP3 ADD SWAP2 SWAP1 PUSH1 0x0 MSTORE PUSH1 0x20 PUSH1 0x0 KECCAK256 SWAP1 JUMPDEST DUP2 SLOAD DUP2 MSTORE SWAP1 PUSH1 0x1 ADD SWAP1 PUSH1 0x20 ADD DUP1 DUP4 GT PUSH2 0x620 JUMPI DUP3 SWAP1 SUB PUSH1 0x1F AND DUP3 ADD SWAP2 JUMPDEST POP POP POP POP POP SWAP1 DUP1 PUSH1 0x9 ADD DUP1 SLOAD PUSH2 0x652 SWAP1 PUSH2 0x2F7F JUMP JUMPDEST DUP1 PUSH1 0x1F ADD PUSH1 0x20 DUP1 SWAP2 DIV MUL PUSH1 0x20 ADD PUSH1 0x40 MLOAD SWAP1 DUP2 ADD PUSH1 0x40 MSTORE DUP1 SWAP3 SWAP2 SWAP1 DUP2 DUP2 MSTORE PUSH1 0x20 ADD DUP3 DUP1 SLOAD PUSH2 0x67E SWAP1 PUSH2 0x2F7F JUMP JUMPDEST DUP1 ISZERO PUSH2 0x6CB JUMPI DUP1 PUSH1 0x1F LT PUSH2 0x6A0 JUMPI PUSH2 0x100 DUP1 DUP4 SLOAD DIV MUL DUP4 MSTORE SWAP2 PUSH1 0x20 ADD SWAP2 PUSH2 0x6CB JUMP JUMPDEST DUP3 ADD SWAP2 SWAP1 PUSH1 0x0 MSTORE PUSH1 0x20 PUSH1 0x0 KECCAK256 SWAP1 JUMPDEST DUP2 SLOAD DUP2 MSTORE SWAP1 PUSH1 0x1 ADD SWAP1 PUSH1 0x20 ADD DUP1 DUP4 GT PUSH2 0x6AE JUMPI DUP3 SWAP1 SUB PUSH1 0x1F AND DUP3 ADD SWAP2 JUMPDEST POP POP POP POP POP SWAP1 DUP1 PUSH1 0xA ADD SLOAD SWAP1 POP DUP12 JUMP JUMPDEST PUSH1 0x60 PUSH1 0x0 PUSH1 0x1 DUP1 SLOAD SWAP1 POP PUSH8 0xFFFFFFFFFFFFFFFF DUP2 GT ISZERO PUSH2 0x6FE JUMPI PUSH2 0x6FD PUSH2 0x262C JUMP JUMPDEST JUMPDEST PUSH1 0x40 MLOAD SWAP1 DUP1 DUP3 MSTORE DUP1 PUSH1 0x20 MUL PUSH1 0x20 ADD DUP3 ADD PUSH1 0x40 MSTORE DUP1 ISZERO PUSH2 0x737 JUMPI DUP2 PUSH1 0x20 ADD JUMPDEST PUSH2 0x724 PUSH2 0x25A3 JUMP JUMPDEST DUP2 MSTORE PUSH1 0x20 ADD SWAP1 PUSH1 0x1 SWAP1 SUB SWAP1 DUP2 PUSH2 0x71C JUMPI SWAP1 POP JUMPDEST POP SWAP1 POP PUSH1 0x0 JUMPDEST PUSH1 0x1 DUP1 SLOAD SWAP1 POP DUP2 LT ISZERO PUSH2 0xC70 JUMPI PUSH1 0x0 PUSH1 0x1 DUP3 DUP2 SLOAD DUP2 LT PUSH2 0x760 JUMPI PUSH2 0x75F PUSH2 0x2FB0 JUMP JUMPDEST JUMPDEST SWAP1 PUSH1 0x0 MSTORE PUSH1 0x20 PUSH1 0x0 KECCAK256 ADD PUSH1 0x40 MLOAD PUSH2 0x777 SWAP2 SWAP1 PUSH2 0x3082 JUMP JUMPDEST SWAP1 DUP2 MSTORE PUSH1 0x20 ADD PUSH1 0x40 MLOAD DUP1 SWAP2 SUB SWAP1 KECCAK256 PUSH1 0x40 MLOAD DUP1 PUSH2 0x160 ADD PUSH1 0x40 MSTORE SWAP1 DUP2 PUSH1 0x0 DUP3 ADD DUP1 SLOAD PUSH2 0x7A1 SWAP1 PUSH2 0x2F7F JUMP JUMPDEST DUP1 PUSH1 0x1F ADD PUSH1 0x20 DUP1 SWAP2 DIV MUL PUSH1 0x20 ADD PUSH1 0x40 MLOAD SWAP1 DUP2 ADD PUSH1 0x40 MSTORE DUP1 SWAP3 SWAP2 SWAP1 DUP2 DUP2 MSTORE PUSH1 0x20 ADD DUP3 DUP1 SLOAD PUSH2 0x7CD SWAP1 PUSH2 0x2F7F JUMP JUMPDEST DUP1 ISZERO PUSH2 0x81A JUMPI DUP1 PUSH1 0x1F LT PUSH2 0x7EF JUMPI PUSH2 0x100 DUP1 DUP4 SLOAD DIV MUL DUP4 MSTORE SWAP2 PUSH1 0x20 ADD SWAP2 PUSH2 0x81A JUMP JUMPDEST DUP3 ADD SWAP2 SWAP1 PUSH1 0x0 MSTORE PUSH1 0x20 PUSH1 0x0 KECCAK256 SWAP1 JUMPDEST DUP2 SLOAD DUP2 MSTORE SWAP1 PUSH1 0x1 ADD SWAP1 PUSH1 0x20 ADD DUP1 DUP4 GT PUSH2 0x7FD JUMPI DUP3 SWAP1 SUB PUSH1 0x1F AND DUP3 ADD SWAP2 JUMPDEST POP POP POP POP POP DUP2 MSTORE PUSH1 0x20 ADD PUSH1 0x1 DUP3 ADD DUP1 SLOAD PUSH2 0x833 SWAP1 PUSH2 0x2F7F JUMP JUMPDEST DUP1 PUSH1 0x1F ADD PUSH1 0x20 DUP1 SWAP2 DIV MUL PUSH1 0x20 ADD PUSH1 0x40 MLOAD SWAP1 DUP2 ADD PUSH1 0x40 MSTORE DUP1 SWAP3 SWAP2 SWAP1 DUP2 DUP2 MSTORE PUSH1 0x20 ADD DUP3 DUP1 SLOAD PUSH2 0x85F SWAP1 PUSH2 0x2F7F JUMP JUMPDEST DUP1 ISZERO PUSH2 0x8AC JUMPI DUP1 PUSH1 0x1F LT PUSH2 0x881 JUMPI PUSH2 0x100 DUP1 DUP4 SLOAD DIV MUL DUP4 MSTORE SWAP2 PUSH1 0x20 ADD SWAP2 PUSH2 0x8AC JUMP JUMPDEST DUP3 ADD SWAP2 SWAP1 PUSH1 0x0 MSTORE PUSH1 0x20 PUSH1 0x0 KECCAK256 SWAP1 JUMPDEST DUP2 SLOAD DUP2 MSTORE SWAP1 PUSH1 0x1 ADD SWAP1 PUSH1 0x20 ADD DUP1 DUP4 GT PUSH2 0x88F JUMPI DUP3 SWAP1 SUB PUSH1 0x1F AND DUP3 ADD SWAP2 JUMPDEST POP POP POP POP POP DUP2 MSTORE PUSH1 0x20 ADD PUSH1 0x2 DUP3 ADD DUP1 SLOAD PUSH2 0x8C5 SWAP1 PUSH2 0x2F7F JUMP JUMPDEST DUP1 PUSH1 0x1F ADD PUSH1 0x20 DUP1 SWAP2 DIV MUL PUSH1 0x20 ADD PUSH1 0x40 MLOAD SWAP1 DUP2 ADD PUSH1 0x40 MSTORE DUP1 SWAP3 SWAP2 SWAP1 DUP2 DUP2 MSTORE PUSH1 0x20 ADD DUP3 DUP1 SLOAD PUSH2 0x8F1 SWAP1 PUSH2 0x2F7F JUMP JUMPDEST DUP1 ISZERO PUSH2 0x93E JUMPI DUP1 PUSH1 0x1F LT PUSH2 0x913 JUMPI PUSH2 0x100 DUP1 DUP4 SLOAD DIV MUL DUP4 MSTORE SWAP2 PUSH1 0x20 ADD SWAP2 PUSH2 0x93E JUMP JUMPDEST DUP3 ADD SWAP2 SWAP1 PUSH1 0x0 MSTORE PUSH1 0x20 PUSH1 0x0 KECCAK256 SWAP1 JUMPDEST DUP2 SLOAD DUP2 MSTORE SWAP1 PUSH1 0x1 ADD SWAP1 PUSH1 0x20 ADD DUP1 DUP4 GT PUSH2 0x921 JUMPI DUP3 SWAP1 SUB PUSH1 0x1F AND DUP3 ADD SWAP2 JUMPDEST POP POP POP POP POP DUP2 MSTORE PUSH1 0x20 ADD PUSH1 0x3 DUP3 ADD DUP1 SLOAD PUSH2 0x957 SWAP1 PUSH2 0x2F7F JUMP JUMPDEST DUP1 PUSH1 0x1F ADD PUSH1 0x20 DUP1 SWAP2 DIV MUL PUSH1 0x20 ADD PUSH1 0x40 MLOAD SWAP1 DUP2 ADD PUSH1 0x40 MSTORE DUP1 SWAP3 SWAP2 SWAP1 DUP2 DUP2 MSTORE PUSH1 0x20 ADD DUP3 DUP1 SLOAD PUSH2 0x983 SWAP1 PUSH2 0x2F7F JUMP JUMPDEST DUP1 ISZERO PUSH2 0x9D0 JUMPI DUP1 PUSH1 0x1F LT PUSH2 0x9A5 JUMPI PUSH2 0x100 DUP1 DUP4 SLOAD DIV MUL DUP4 MSTORE SWAP2 PUSH1 0x20 ADD SWAP2 PUSH2 0x9D0 JUMP JUMPDEST DUP3 ADD SWAP2 SWAP1 PUSH1 0x0 MSTORE PUSH1 0x20 PUSH1 0x0 KECCAK256 SWAP1 JUMPDEST DUP2 SLOAD DUP2 MSTORE SWAP1 PUSH1 0x1 ADD SWAP1 PUSH1 0x20 ADD DUP1 DUP4 GT PUSH2 0x9B3 JUMPI DUP3 SWAP1 SUB PUSH1 0x1F AND DUP3 ADD SWAP2 JUMPDEST POP POP POP POP POP DUP2 MSTORE PUSH1 0x20 ADD PUSH1 0x4 DUP3 ADD DUP1 SLOAD PUSH2 0x9E9 SWAP1 PUSH2 0x2F7F JUMP JUMPDEST DUP1 PUSH1 0x1F ADD PUSH1 0x20 DUP1 SWAP2 DIV MUL PUSH1 0x20 ADD PUSH1 0x40 MLOAD SWAP1 DUP2 ADD PUSH1 0x40 MSTORE DUP1 SWAP3 SWAP2 SWAP1 DUP2 DUP2 MSTORE PUSH1 0x20 ADD DUP3 DUP1 SLOAD PUSH2 0xA15 SWAP1 PUSH2 0x2F7F JUMP JUMPDEST DUP1 ISZERO PUSH2 0xA62 JUMPI DUP1 PUSH1 0x1F LT PUSH2 0xA37 JUMPI PUSH2 0x100 DUP1 DUP4 SLOAD DIV MUL DUP4 MSTORE SWAP2 PUSH1 0x20 ADD SWAP2 PUSH2 0xA62 JUMP JUMPDEST DUP3 ADD SWAP2 SWAP1 PUSH1 0x0 MSTORE PUSH1 0x20 PUSH1 0x0 KECCAK256 SWAP1 JUMPDEST DUP2 SLOAD DUP2 MSTORE SWAP1 PUSH1 0x1 ADD SWAP1 PUSH1 0x20 ADD DUP1 DUP4 GT PUSH2 0xA45 JUMPI DUP3 SWAP1 SUB PUSH1 0x1F AND DUP3 ADD SWAP2 JUMPDEST POP POP POP POP POP DUP2 MSTORE PUSH1 0x20 ADD PUSH1 0x5 DUP3 ADD DUP1 SLOAD PUSH2 0xA7B SWAP1 PUSH2 0x2F7F JUMP JUMPDEST DUP1 PUSH1 0x1F ADD PUSH1 0x20 DUP1 SWAP2 DIV MUL PUSH1 0x20 ADD PUSH1 0x40 MLOAD SWAP1 DUP2 ADD PUSH1 0x40 MSTORE DUP1 SWAP3 SWAP2 SWAP1 DUP2 DUP2 MSTORE PUSH1 0x20 ADD DUP3 DUP1 SLOAD PUSH2 0xAA7 SWAP1 PUSH2 0x2F7F JUMP JUMPDEST DUP1 ISZERO PUSH2 0xAF4 JUMPI DUP1 PUSH1 0x1F LT PUSH2 0xAC9 JUMPI PUSH2 0x100 DUP1 DUP4 SLOAD DIV MUL DUP4 MSTORE SWAP2 PUSH1 0x20 ADD SWAP2 PUSH2 0xAF4 JUMP JUMPDEST DUP3 ADD SWAP2 SWAP1 PUSH1 0x0 MSTORE PUSH1 0x20 PUSH1 0x0 KECCAK256 SWAP1 JUMPDEST DUP2 SLOAD DUP2 MSTORE SWAP1 PUSH1 0x1 ADD SWAP1 PUSH1 0x20 ADD DUP1 DUP4 GT PUSH2 0xAD7 JUMPI DUP3 SWAP1 SUB PUSH1 0x1F AND DUP3 ADD SWAP2 JUMPDEST POP POP POP POP POP DUP2 MSTORE PUSH1 0x20 ADD PUSH1 0x6 DUP3 ADD SLOAD DUP2 MSTORE PUSH1 0x20 ADD PUSH1 0x7 DUP3 ADD SLOAD DUP2 MSTORE PUSH1 0x20 ADD PUSH1 0x8 DUP3 ADD DUP1 SLOAD PUSH2 0xB21 SWAP1 PUSH2 0x2F7F JUMP JUMPDEST DUP1 PUSH1 0x1F ADD PUSH1 0x20 DUP1 SWAP2 DIV MUL PUSH1 0x20 ADD PUSH1 0x40 MLOAD SWAP1 DUP2 ADD PUSH1 0x40 MSTORE DUP1 SWAP3 SWAP2 SWAP1 DUP2 DUP2 MSTORE PUSH1 0x20 ADD DUP3 DUP1 SLOAD PUSH2 0xB4D SWAP1 PUSH2 0x2F7F JUMP JUMPDEST DUP1 ISZERO PUSH2 0xB9A JUMPI DUP1 PUSH1 0x1F LT PUSH2 0xB6F JUMPI PUSH2 0x100 DUP1 DUP4 SLOAD DIV MUL DUP4 MSTORE SWAP2 PUSH1 0x20 ADD SWAP2 PUSH2 0xB9A JUMP JUMPDEST DUP3 ADD SWAP2 SWAP1 PUSH1 0x0 MSTORE PUSH1 0x20 PUSH1 0x0 KECCAK256 SWAP1 JUMPDEST DUP2 SLOAD DUP2 MSTORE SWAP1 PUSH1 0x1 ADD SWAP1 PUSH1 0x20 ADD DUP1 DUP4 GT PUSH2 0xB7D JUMPI DUP3 SWAP1 SUB PUSH1 0x1F AND DUP3 ADD SWAP2 JUMPDEST POP POP POP POP POP DUP2 MSTORE PUSH1 0x20 ADD PUSH1 0x9 DUP3 ADD DUP1 SLOAD PUSH2 0xBB3 SWAP1 PUSH2 0x2F7F JUMP JUMPDEST DUP1 PUSH1 0x1F ADD PUSH1 0x20 DUP1 SWAP2 DIV MUL PUSH1 0x20 ADD PUSH1 0x40 MLOAD SWAP1 DUP2 ADD PUSH1 0x40 MSTORE DUP1 SWAP3 SWAP2 SWAP1 DUP2 DUP2 MSTORE PUSH1 0x20 ADD DUP3 DUP1 SLOAD PUSH2 0xBDF SWAP1 PUSH2 0x2F7F JUMP JUMPDEST DUP1 ISZERO PUSH2 0xC2C JUMPI DUP1 PUSH1 0x1F LT PUSH2 0xC01 JUMPI PUSH2 0x100 DUP1 DUP4 SLOAD DIV MUL DUP4 MSTORE SWAP2 PUSH1 0x20 ADD SWAP2 PUSH2 0xC2C JUMP JUMPDEST DUP3 ADD SWAP2 SWAP1 PUSH1 0x0 MSTORE PUSH1 0x20 PUSH1 0x0 KECCAK256 SWAP1 JUMPDEST DUP2 SLOAD DUP2 MSTORE SWAP1 PUSH1 0x1 ADD SWAP1 PUSH1 0x20 ADD DUP1 DUP4 GT PUSH2 0xC0F JUMPI DUP3 SWAP1 SUB PUSH1 0x1F AND DUP3 ADD SWAP2 JUMPDEST POP POP POP POP POP DUP2 MSTORE PUSH1 0x20 ADD PUSH1 0xA DUP3 ADD SLOAD DUP2 MSTORE POP POP DUP3 DUP3 DUP2 MLOAD DUP2 LT PUSH2 0xC52 JUMPI PUSH2 0xC51 PUSH2 0x2FB0 JUMP JUMPDEST JUMPDEST PUSH1 0x20 MUL PUSH1 0x20 ADD ADD DUP2 SWAP1 MSTORE POP DUP1 DUP1 PUSH2 0xC68 SWAP1 PUSH2 0x30C8 JUMP JUMPDEST SWAP2 POP POP PUSH2 0x73D JUMP JUMPDEST POP DUP1 SWAP2 POP POP SWAP1 JUMP JUMPDEST PUSH1 0x0 DUP1 DUP4 PUSH1 0x40 MLOAD PUSH2 0xC89 SWAP2 SWAP1 PUSH2 0x3141 JUMP JUMPDEST SWAP1 DUP2 MSTORE PUSH1 0x20 ADD PUSH1 0x40 MLOAD DUP1 SWAP2 SUB SWAP1 KECCAK256 PUSH1 0x0 ADD DUP1 SLOAD PUSH2 0xCA5 SWAP1 PUSH2 0x2F7F JUMP JUMPDEST SWAP1 POP SUB PUSH2 0xCE7 JUMPI PUSH1 0x40 MLOAD PUSH32 0x8C379A000000000000000000000000000000000000000000000000000000000 DUP2 MSTORE PUSH1 0x4 ADD PUSH2 0xCDE SWAP1 PUSH2 0x31A4 JUMP JUMPDEST PUSH1 0x40 MLOAD DUP1 SWAP2 SUB SWAP1 REVERT JUMPDEST DUP1 PUSH1 0x0 DUP4 PUSH1 0x40 MLOAD PUSH2 0xCF8 SWAP2 SWAP1 PUSH2 0x3141 JUMP JUMPDEST SWAP1 DUP2 MSTORE PUSH1 0x20 ADD PUSH1 0x40 MLOAD DUP1 SWAP2 SUB SWAP1 KECCAK256 PUSH1 0x9 ADD SWAP1 DUP2 PUSH2 0xD15 SWAP2 SWAP1 PUSH2 0x335B JUMP JUMPDEST POP PUSH1 0x40 MLOAD DUP1 PUSH1 0x40 ADD PUSH1 0x40 MSTORE DUP1 PUSH1 0x4 DUP2 MSTORE PUSH1 0x20 ADD PUSH32 0x7061696400000000000000000000000000000000000000000000000000000000 DUP2 MSTORE POP PUSH1 0x0 DUP4 PUSH1 0x40 MLOAD PUSH2 0xD5C SWAP2 SWAP1 PUSH2 0x3141 JUMP JUMPDEST SWAP1 DUP2 MSTORE PUSH1 0x20 ADD PUSH1 0x40 MLOAD DUP1 SWAP2 SUB SWAP1 KECCAK256 PUSH1 0x4 ADD SWAP1 DUP2 PUSH2 0xD79 SWAP2 SWAP1 PUSH2 0x335B JUMP JUMPDEST POP PUSH32 0x186C2B6377D1E8F7A4F2ACB5A42183967F7D748C4C6E91D623ED00DA8F01417D DUP3 DUP3 PUSH1 0x40 MLOAD PUSH2 0xDAB SWAP3 SWAP2 SWAP1 PUSH2 0x342D JUMP JUMPDEST PUSH1 0x40 MLOAD DUP1 SWAP2 SUB SWAP1 LOG1 PUSH32 0xC61FFB03925558D248FBA37B73270B12903D3F0BA5797AF8B71A9F8BF0761A98 DUP3 PUSH1 0x40 MLOAD PUSH2 0xDE2 SWAP2 SWAP1 PUSH2 0x34B0 JUMP JUMPDEST PUSH1 0x40 MLOAD DUP1 SWAP2 SUB SWAP1 LOG1 POP POP JUMP JUMPDEST PUSH1 0x0 DUP1 DUP4 PUSH1 0x40 MLOAD PUSH2 0xDFF SWAP2 SWAP1 PUSH2 0x3141 JUMP JUMPDEST SWAP1 DUP2 MSTORE PUSH1 0x20 ADD PUSH1 0x40 MLOAD DUP1 SWAP2 SUB SWAP1 KECCAK256 PUSH1 0x0 ADD DUP1 SLOAD PUSH2 0xE1B SWAP1 PUSH2 0x2F7F JUMP JUMPDEST SWAP1 POP SUB PUSH2 0xE5D JUMPI PUSH1 0x40 MLOAD PUSH32 0x8C379A000000000000000000000000000000000000000000000000000000000 DUP2 MSTORE PUSH1 0x4 ADD PUSH2 0xE54 SWAP1 PUSH2 0x31A4 JUMP JUMPDEST PUSH1 0x40 MLOAD DUP1 SWAP2 SUB SWAP1 REVERT JUMPDEST DUP1 PUSH1 0x0 DUP4 PUSH1 0x40 MLOAD PUSH2 0xE6E SWAP2 SWAP1 PUSH2 0x3141 JUMP JUMPDEST SWAP1 DUP2 MSTORE PUSH1 0x20 ADD PUSH1 0x40 MLOAD DUP1 SWAP2 SUB SWAP1 KECCAK256 PUSH1 0x5 ADD SWAP1 DUP2 PUSH2 0xE8B SWAP2 SWAP1 PUSH2 0x335B JUMP JUMPDEST POP PUSH32 0xB75B1FEC1BC9156569AE9F72FB29C6E6727B297E191D358465FFF4C09D8F7D26 DUP3 DUP3 PUSH1 0x40 MLOAD PUSH2 0xEBD SWAP3 SWAP2 SWAP1 PUSH2 0x342D JUMP JUMPDEST PUSH1 0x40 MLOAD DUP1 SWAP2 SUB SWAP1 LOG1 POP POP JUMP JUMPDEST PUSH1 0x1 DUP2 DUP2 SLOAD DUP2 LT PUSH2 0xED9 JUMPI PUSH1 0x0 DUP1 REVERT JUMPDEST SWAP1 PUSH1 0x0 MSTORE PUSH1 0x20 PUSH1 0x0 KECCAK256 ADD PUSH1 0x0 SWAP2 POP SWAP1 POP DUP1 SLOAD PUSH2 0xEF4 SWAP1 PUSH2 0x2F7F JUMP JUMPDEST DUP1 PUSH1 0x1F ADD PUSH1 0x20 DUP1 SWAP2 DIV MUL PUSH1 0x20 ADD PUSH1 0x40 MLOAD SWAP1 DUP2 ADD PUSH1 0x40 MSTORE DUP1 SWAP3 SWAP2 SWAP1 DUP2 DUP2 MSTORE PUSH1 0x20 ADD DUP3 DUP1 SLOAD PUSH2 0xF20 SWAP1 PUSH2 0x2F7F JUMP JUMPDEST DUP1 ISZERO PUSH2 0xF6D JUMPI DUP1 PUSH1 0x1F LT PUSH2 0xF42 JUMPI PUSH2 0x100 DUP1 DUP4 SLOAD DIV MUL DUP4 MSTORE SWAP2 PUSH1 0x20 ADD SWAP2 PUSH2 0xF6D JUMP JUMPDEST DUP3 ADD SWAP2 SWAP1 PUSH1 0x0 MSTORE PUSH1 0x20 PUSH1 0x0 KECCAK256 SWAP1 JUMPDEST DUP2 SLOAD DUP2 MSTORE SWAP1 PUSH1 0x1 ADD SWAP1 PUSH1 0x20 ADD DUP1 DUP4 GT PUSH2 0xF50 JUMPI DUP3 SWAP1 SUB PUSH1 0x1F AND DUP3 ADD SWAP2 JUMPDEST POP POP POP POP POP DUP2 JUMP JUMPDEST PUSH1 0x60 PUSH1 0x0 DUP1 JUMPDEST PUSH1 0x1 DUP1 SLOAD SWAP1 POP DUP2 LT ISZERO PUSH2 0x103A JUMPI DUP4 PUSH1 0x40 MLOAD PUSH1 0x20 ADD PUSH2 0xF99 SWAP2 SWAP1 PUSH2 0x3141 JUMP JUMPDEST PUSH1 0x40 MLOAD PUSH1 0x20 DUP2 DUP4 SUB SUB DUP2 MSTORE SWAP1 PUSH1 0x40 MSTORE DUP1 MLOAD SWAP1 PUSH1 0x20 ADD KECCAK256 PUSH1 0x0 PUSH1 0x1 DUP4 DUP2 SLOAD DUP2 LT PUSH2 0xFC5 JUMPI PUSH2 0xFC4 PUSH2 0x2FB0 JUMP JUMPDEST JUMPDEST SWAP1 PUSH1 0x0 MSTORE PUSH1 0x20 PUSH1 0x0 KECCAK256 ADD PUSH1 0x40 MLOAD PUSH2 0xFDC SWAP2 SWAP1 PUSH2 0x3082 JUMP JUMPDEST SWAP1 DUP2 MSTORE PUSH1 0x20 ADD PUSH1 0x40 MLOAD DUP1 SWAP2 SUB SWAP1 KECCAK256 PUSH1 0x2 ADD PUSH1 0x40 MLOAD PUSH1 0x20 ADD PUSH2 0xFFD SWAP2 SWAP1 PUSH2 0x3082 JUMP JUMPDEST PUSH1 0x40 MLOAD PUSH1 0x20 DUP2 DUP4 SUB SUB DUP2 MSTORE SWAP1 PUSH1 0x40 MSTORE DUP1 MLOAD SWAP1 PUSH1 0x20 ADD KECCAK256 SUB PUSH2 0x1027 JUMPI DUP2 DUP1 PUSH2 0x1023 SWAP1 PUSH2 0x30C8 JUMP JUMPDEST SWAP3 POP POP JUMPDEST DUP1 DUP1 PUSH2 0x1032 SWAP1 PUSH2 0x30C8 JUMP JUMPDEST SWAP2 POP POP PUSH2 0xF7B JUMP JUMPDEST POP PUSH1 0x0 DUP2 PUSH8 0xFFFFFFFFFFFFFFFF DUP2 GT ISZERO PUSH2 0x1057 JUMPI PUSH2 0x1056 PUSH2 0x262C JUMP JUMPDEST JUMPDEST PUSH1 0x40 MLOAD SWAP1 DUP1 DUP3 MSTORE DUP1 PUSH1 0x20 MUL PUSH1 0x20 ADD DUP3 ADD PUSH1 0x40 MSTORE DUP1 ISZERO PUSH2 0x1090 JUMPI DUP2 PUSH1 0x20 ADD JUMPDEST PUSH2 0x107D PUSH2 0x25A3 JUMP JUMPDEST DUP2 MSTORE PUSH1 0x20 ADD SWAP1 PUSH1 0x1 SWAP1 SUB SWAP1 DUP2 PUSH2 0x1075 JUMPI SWAP1 POP JUMPDEST POP SWAP1 POP PUSH1 0x0 DUP1 JUMPDEST PUSH1 0x1 DUP1 SLOAD SWAP1 POP DUP2 LT ISZERO PUSH2 0x1669 JUMPI DUP6 PUSH1 0x40 MLOAD PUSH1 0x20 ADD PUSH2 0x10B5 SWAP2 SWAP1 PUSH2 0x3141 JUMP JUMPDEST PUSH1 0x40 MLOAD PUSH1 0x20 DUP2 DUP4 SUB SUB DUP2 MSTORE SWAP1 PUSH1 0x40 MSTORE DUP1 MLOAD SWAP1 PUSH1 0x20 ADD KECCAK256 PUSH1 0x0 PUSH1 0x1 DUP4 DUP2 SLOAD DUP2 LT PUSH2 0x10E1 JUMPI PUSH2 0x10E0 PUSH2 0x2FB0 JUMP JUMPDEST JUMPDEST SWAP1 PUSH1 0x0 MSTORE PUSH1 0x20 PUSH1 0x0 KECCAK256 ADD PUSH1 0x40 MLOAD PUSH2 0x10F8 SWAP2 SWAP1 PUSH2 0x3082 JUMP JUMPDEST SWAP1 DUP2 MSTORE PUSH1 0x20 ADD PUSH1 0x40 MLOAD DUP1 SWAP2 SUB SWAP1 KECCAK256 PUSH1 0x2 ADD PUSH1 0x40 MLOAD PUSH1 0x20 ADD PUSH2 0x1119 SWAP2 SWAP1 PUSH2 0x3082 JUMP JUMPDEST PUSH1 0x40 MLOAD PUSH1 0x20 DUP2 DUP4 SUB SUB DUP2 MSTORE SWAP1 PUSH1 0x40 MSTORE DUP1 MLOAD SWAP1 PUSH1 0x20 ADD KECCAK256 SUB PUSH2 0x1656 JUMPI PUSH1 0x0 PUSH1 0x1 DUP3 DUP2 SLOAD DUP2 LT PUSH2 0x114A JUMPI PUSH2 0x1149 PUSH2 0x2FB0 JUMP JUMPDEST JUMPDEST SWAP1 PUSH1 0x0 MSTORE PUSH1 0x20 PUSH1 0x0 KECCAK256 ADD PUSH1 0x40 MLOAD PUSH2 0x1161 SWAP2 SWAP1 PUSH2 0x3082 JUMP JUMPDEST SWAP1 DUP2 MSTORE PUSH1 0x20 ADD PUSH1 0x40 MLOAD DUP1 SWAP2 SUB SWAP1 KECCAK256 PUSH1 0x40 MLOAD DUP1 PUSH2 0x160 ADD PUSH1 0x40 MSTORE SWAP1 DUP2 PUSH1 0x0 DUP3 ADD DUP1 SLOAD PUSH2 0x118B SWAP1 PUSH2 0x2F7F JUMP JUMPDEST DUP1 PUSH1 0x1F ADD PUSH1 0x20 DUP1 SWAP2 DIV MUL PUSH1 0x20 ADD PUSH1 0x40 MLOAD SWAP1 DUP2 ADD PUSH1 0x40 MSTORE DUP1 SWAP3 SWAP2 SWAP1 DUP2 DUP2 MSTORE PUSH1 0x20 ADD DUP3 DUP1 SLOAD PUSH2 0x11B7 SWAP1 PUSH2 0x2F7F JUMP JUMPDEST DUP1 ISZERO PUSH2 0x1204 JUMPI DUP1 PUSH1 0x1F LT PUSH2 0x11D9 JUMPI PUSH2 0x100 DUP1 DUP4 SLOAD DIV MUL DUP4 MSTORE SWAP2 PUSH1 0x20 ADD SWAP2 PUSH2 0x1204 JUMP JUMPDEST DUP3 ADD SWAP2 SWAP1 PUSH1 0x0 MSTORE PUSH1 0x20 PUSH1 0x0 KECCAK256 SWAP1 JUMPDEST DUP2 SLOAD DUP2 MSTORE SWAP1 PUSH1 0x1 ADD SWAP1 PUSH1 0x20 ADD DUP1 DUP4 GT PUSH2 0x11E7 JUMPI DUP3 SWAP1 SUB PUSH1 0x1F AND DUP3 ADD SWAP2 JUMPDEST POP POP POP POP POP DUP2 MSTORE PUSH1 0x20 ADD PUSH1 0x1 DUP3 ADD DUP1 SLOAD PUSH2 0x121D SWAP1 PUSH2 0x2F7F JUMP JUMPDEST DUP1 PUSH1 0x1F ADD PUSH1 0x20 DUP1 SWAP2 DIV MUL PUSH1 0x20 ADD PUSH1 0x40 MLOAD SWAP1 DUP2 ADD PUSH1 0x40 MSTORE DUP1 SWAP3 SWAP2 SWAP1 DUP2 DUP2 MSTORE PUSH1 0x20 ADD DUP3 DUP1 SLOAD PUSH2 0x1249 SWAP1 PUSH2 0x2F7F JUMP JUMPDEST DUP1 ISZERO PUSH2 0x1296 JUMPI DUP1 PUSH1 0x1F LT PUSH2 0x126B JUMPI PUSH2 0x100 DUP1 DUP4 SLOAD DIV MUL DUP4 MSTORE SWAP2 PUSH1 0x20 ADD SWAP2 PUSH2 0x1296 JUMP JUMPDEST DUP3 ADD SWAP2 SWAP1 PUSH1 0x0 MSTORE PUSH1 0x20 PUSH1 0x0 KECCAK256 SWAP1 JUMPDEST DUP2 SLOAD DUP2 MSTORE SWAP1 PUSH1 0x1 ADD SWAP1 PUSH1 0x20 ADD DUP1 DUP4 GT PUSH2 0x1279 JUMPI DUP3 SWAP1 SUB PUSH1 0x1F AND DUP3 ADD SWAP2 JUMPDEST POP POP POP POP POP DUP2 MSTORE PUSH1 0x20 ADD PUSH1 0x2 DUP3 ADD DUP1 SLOAD PUSH2 0x12AF SWAP1 PUSH2 0x2F7F JUMP JUMPDEST DUP1 PUSH1 0x1F ADD PUSH1 0x20 DUP1 SWAP2 DIV MUL PUSH1 0x20 ADD PUSH1 0x40 MLOAD SWAP1 DUP2 ADD PUSH1 0x40 MSTORE DUP1 SWAP3 SWAP2 SWAP1 DUP2 DUP2 MSTORE PUSH1 0x20 ADD DUP3 DUP1 SLOAD PUSH2 0x12DB SWAP1 PUSH2 0x2F7F JUMP JUMPDEST DUP1 ISZERO PUSH2 0x1328 JUMPI DUP1 PUSH1 0x1F LT PUSH2 0x12FD JUMPI PUSH2 0x100 DUP1 DUP4 SLOAD DIV MUL DUP4 MSTORE SWAP2 PUSH1 0x20 ADD SWAP2 PUSH2 0x1328 JUMP JUMPDEST DUP3 ADD SWAP2 SWAP1 PUSH1 0x0 MSTORE PUSH1 0x20 PUSH1 0x0 KECCAK256 SWAP1 JUMPDEST DUP2 SLOAD DUP2 MSTORE SWAP1 PUSH1 0x1 ADD SWAP1 PUSH1 0x20 ADD DUP1 DUP4 GT PUSH2 0x130B JUMPI DUP3 SWAP1 SUB PUSH1 0x1F AND DUP3 ADD SWAP2 JUMPDEST POP POP POP POP POP DUP2 MSTORE PUSH1 0x20 ADD PUSH1 0x3 DUP3 ADD DUP1 SLOAD PUSH2 0x1341 SWAP1 PUSH2 0x2F7F JUMP JUMPDEST DUP1 PUSH1 0x1F ADD PUSH1 0x20 DUP1 SWAP2 DIV MUL PUSH1 0x20 ADD PUSH1 0x40 MLOAD SWAP1 DUP2 ADD PUSH1 0x40 MSTORE DUP1 SWAP3 SWAP2 SWAP1 DUP2 DUP2 MSTORE PUSH1 0x20 ADD DUP3 DUP1 SLOAD PUSH2 0x136D SWAP1 PUSH2 0x2F7F JUMP JUMPDEST DUP1 ISZERO PUSH2 0x13BA JUMPI DUP1 PUSH1 0x1F LT PUSH2 0x138F JUMPI PUSH2 0x100 DUP1 DUP4 SLOAD DIV MUL DUP4 MSTORE SWAP2 PUSH1 0x20 ADD SWAP2 PUSH2 0x13BA JUMP JUMPDEST DUP3 ADD SWAP2 SWAP1 PUSH1 0x0 MSTORE PUSH1 0x20 PUSH1 0x0 KECCAK256 SWAP1 JUMPDEST DUP2 SLOAD DUP2 MSTORE SWAP1 PUSH1 0x1 ADD SWAP1 PUSH1 0x20 ADD DUP1 DUP4 GT PUSH2 0x139D JUMPI DUP3 SWAP1 SUB PUSH1 0x1F AND DUP3 ADD SWAP2 JUMPDEST POP POP POP POP POP DUP2 MSTORE PUSH1 0x20 ADD PUSH1 0x4 DUP3 ADD DUP1 SLOAD PUSH2 0x13D3 SWAP1 PUSH2 0x2F7F JUMP JUMPDEST DUP1 PUSH1 0x1F ADD PUSH1 0x20 DUP1 SWAP2 DIV MUL PUSH1 0x20 ADD PUSH1 0x40 MLOAD SWAP1 DUP2 ADD PUSH1 0x40 MSTORE DUP1 SWAP3 SWAP2 SWAP1 DUP2 DUP2 MSTORE PUSH1 0x20 ADD DUP3 DUP1 SLOAD PUSH2 0x13FF SWAP1 PUSH2 0x2F7F JUMP JUMPDEST DUP1 ISZERO PUSH2 0x144C JUMPI DUP1 PUSH1 0x1F LT PUSH2 0x1421 JUMPI PUSH2 0x100 DUP1 DUP4 SLOAD DIV MUL DUP4 MSTORE SWAP2 PUSH1 0x20 ADD SWAP2 PUSH2 0x144C JUMP JUMPDEST DUP3 ADD SWAP2 SWAP1 PUSH1 0x0 MSTORE PUSH1 0x20 PUSH1 0x0 KECCAK256 SWAP1 JUMPDEST DUP2 SLOAD DUP2 MSTORE SWAP1 PUSH1 0x1 ADD SWAP1 PUSH1 0x20 ADD DUP1 DUP4 GT PUSH2 0x142F JUMPI DUP3 SWAP1 SUB PUSH1 0x1F AND DUP3 ADD SWAP2 JUMPDEST POP POP POP POP POP DUP2 MSTORE PUSH1 0x20 ADD PUSH1 0x5 DUP3 ADD DUP1 SLOAD PUSH2 0x1465 SWAP1 PUSH2 0x2F7F JUMP JUMPDEST DUP1 PUSH1 0x1F ADD PUSH1 0x20 DUP1 SWAP2 DIV MUL PUSH1 0x20 ADD PUSH1 0x40 MLOAD SWAP1 DUP2 ADD PUSH1 0x40 MSTORE DUP1 SWAP3 SWAP2 SWAP1 DUP2 DUP2 MSTORE PUSH1 0x20 ADD DUP3 DUP1 SLOAD PUSH2 0x1491 SWAP1 PUSH2 0x2F7F JUMP JUMPDEST DUP1 ISZERO PUSH2 0x14DE JUMPI DUP1 PUSH1 0x1F LT PUSH2 0x14B3 JUMPI PUSH2 0x100 DUP1 DUP4 SLOAD DIV MUL DUP4 MSTORE SWAP2 PUSH1 0x20 ADD SWAP2 PUSH2 0x14DE JUMP JUMPDEST DUP3 ADD SWAP2 SWAP1 PUSH1 0x0 MSTORE PUSH1 0x20 PUSH1 0x0 KECCAK256 SWAP1 JUMPDEST DUP2 SLOAD DUP2 MSTORE SWAP1 PUSH1 0x1 ADD SWAP1 PUSH1 0x20 ADD DUP1 DUP4 GT PUSH2 0x14C1 JUMPI DUP3 SWAP1 SUB PUSH1 0x1F AND DUP3 ADD SWAP2 JUMPDEST POP POP POP POP POP DUP2 MSTORE PUSH1 0x20 ADD PUSH1 0x6 DUP3 ADD SLOAD DUP2 MSTORE PUSH1 0x20 ADD PUSH1 0x7 DUP3 ADD SLOAD DUP2 MSTORE PUSH1 0x20 ADD PUSH1 0x8 DUP3 ADD DUP1 SLOAD PUSH2 0x150B SWAP1 PUSH2 0x2F7F JUMP JUMPDEST DUP1 PUSH1 0x1F ADD PUSH1 0x20 DUP1 SWAP2 DIV MUL PUSH1 0x20 ADD PUSH1 0x40 MLOAD SWAP1 DUP2 ADD PUSH1 0x40 MSTORE DUP1 SWAP3 SWAP2 SWAP1 DUP2 DUP2 MSTORE PUSH1 0x20 ADD DUP3 DUP1 SLOAD PUSH2 0x1537 SWAP1 PUSH2 0x2F7F JUMP JUMPDEST DUP1 ISZERO PUSH2 0x1584 JUMPI DUP1 PUSH1 0x1F LT PUSH2 0x1559 JUMPI PUSH2 0x100 DUP1 DUP4 SLOAD DIV MUL DUP4 MSTORE SWAP2 PUSH1 0x20 ADD SWAP2 PUSH2 0x1584 JUMP JUMPDEST DUP3 ADD SWAP2 SWAP1 PUSH1 0x0 MSTORE PUSH1 0x20 PUSH1 0x0 KECCAK256 SWAP1 JUMPDEST DUP2 SLOAD DUP2 MSTORE SWAP1 PUSH1 0x1 ADD SWAP1 PUSH1 0x20 ADD DUP1 DUP4 GT PUSH2 0x1567 JUMPI DUP3 SWAP1 SUB PUSH1 0x1F AND DUP3 ADD SWAP2 JUMPDEST POP POP POP POP POP DUP2 MSTORE PUSH1 0x20 ADD PUSH1 0x9 DUP3 ADD DUP1 SLOAD PUSH2 0x159D SWAP1 PUSH2 0x2F7F JUMP JUMPDEST DUP1 PUSH1 0x1F ADD PUSH1 0x20 DUP1 SWAP2 DIV MUL PUSH1 0x20 ADD PUSH1 0x40 MLOAD SWAP1 DUP2 ADD PUSH1 0x40 MSTORE DUP1 SWAP3 SWAP2 SWAP1 DUP2 DUP2 MSTORE PUSH1 0x20 ADD DUP3 DUP1 SLOAD PUSH2 0x15C9 SWAP1 PUSH2 0x2F7F JUMP JUMPDEST DUP1 ISZERO PUSH2 0x1616 JUMPI DUP1 PUSH1 0x1F LT PUSH2 0x15EB JUMPI PUSH2 0x100 DUP1 DUP4 SLOAD DIV MUL DUP4 MSTORE SWAP2 PUSH1 0x20 ADD SWAP2 PUSH2 0x1616 JUMP JUMPDEST DUP3 ADD SWAP2 SWAP1 PUSH1 0x0 MSTORE PUSH1 0x20 PUSH1 0x0 KECCAK256 SWAP1 JUMPDEST DUP2 SLOAD DUP2 MSTORE SWAP1 PUSH1 0x1 ADD SWAP1 PUSH1 0x20 ADD DUP1 DUP4 GT PUSH2 0x15F9 JUMPI DUP3 SWAP1 SUB PUSH1 0x1F AND DUP3 ADD SWAP2 JUMPDEST POP POP POP POP POP DUP2 MSTORE PUSH1 0x20 ADD PUSH1 0xA DUP3 ADD SLOAD DUP2 MSTORE POP POP DUP4 DUP4 DUP2 MLOAD DUP2 LT PUSH2 0x163C JUMPI PUSH2 0x163B PUSH2 0x2FB0 JUMP JUMPDEST JUMPDEST PUSH1 0x20 MUL PUSH1 0x20 ADD ADD DUP2 SWAP1 MSTORE POP DUP2 DUP1 PUSH2 0x1652 SWAP1 PUSH2 0x30C8 JUMP JUMPDEST SWAP3 POP POP JUMPDEST DUP1 DUP1 PUSH2 0x1661 SWAP1 PUSH2 0x30C8 JUMP JUMPDEST SWAP2 POP POP PUSH2 0x1097 JUMP JUMPDEST POP DUP2 SWAP4 POP POP POP POP SWAP2 SWAP1 POP JUMP JUMPDEST PUSH1 0x40 MLOAD DUP1 PUSH2 0x160 ADD PUSH1 0x40 MSTORE DUP1 DUP12 DUP2 MSTORE PUSH1 0x20 ADD DUP11 DUP2 MSTORE PUSH1 0x20 ADD DUP10 DUP2 MSTORE PUSH1 0x20 ADD DUP9 DUP2 MSTORE PUSH1 0x20 ADD DUP8 DUP2 MSTORE PUSH1 0x20 ADD DUP7 DUP2 MSTORE PUSH1 0x20 ADD DUP6 DUP2 MSTORE PUSH1 0x20 ADD DUP5 DUP2 MSTORE PUSH1 0x20 ADD DUP4 DUP2 MSTORE PUSH1 0x20 ADD PUSH1 0x40 MLOAD DUP1 PUSH1 0x40 ADD PUSH1 0x40 MSTORE DUP1 PUSH1 0x4 DUP2 MSTORE PUSH1 0x20 ADD PUSH32 0x6E756C6C00000000000000000000000000000000000000000000000000000000 DUP2 MSTORE POP DUP2 MSTORE PUSH1 0x20 ADD DUP3 DUP2 MSTORE POP PUSH1 0x0 DUP12 PUSH1 0x40 MLOAD PUSH2 0x1706 SWAP2 SWAP1 PUSH2 0x3141 JUMP JUMPDEST SWAP1 DUP2 MSTORE PUSH1 0x20 ADD PUSH1 0x40 MLOAD DUP1 SWAP2 SUB SWAP1 KECCAK256 PUSH1 0x0 DUP3 ADD MLOAD DUP2 PUSH1 0x0 ADD SWAP1 DUP2 PUSH2 0x1729 SWAP2 SWAP1 PUSH2 0x335B JUMP JUMPDEST POP PUSH1 0x20 DUP3 ADD MLOAD DUP2 PUSH1 0x1 ADD SWAP1 DUP2 PUSH2 0x173F SWAP2 SWAP1 PUSH2 0x335B JUMP JUMPDEST POP PUSH1 0x40 DUP3 ADD MLOAD DUP2 PUSH1 0x2 ADD SWAP1 DUP2 PUSH2 0x1755 SWAP2 SWAP1 PUSH2 0x335B JUMP JUMPDEST POP PUSH1 0x60 DUP3 ADD MLOAD DUP2 PUSH1 0x3 ADD SWAP1 DUP2 PUSH2 0x176B SWAP2 SWAP1 PUSH2 0x335B JUMP JUMPDEST POP PUSH1 0x80 DUP3 ADD MLOAD DUP2 PUSH1 0x4 ADD SWAP1 DUP2 PUSH2 0x1781 SWAP2 SWAP1 PUSH2 0x335B JUMP JUMPDEST POP PUSH1 0xA0 DUP3 ADD MLOAD DUP2 PUSH1 0x5 ADD SWAP1 DUP2 PUSH2 0x1797 SWAP2 SWAP1 PUSH2 0x335B JUMP JUMPDEST POP PUSH1 0xC0 DUP3 ADD MLOAD DUP2 PUSH1 0x6 ADD SSTORE PUSH1 0xE0 DUP3 ADD MLOAD DUP2 PUSH1 0x7 ADD SSTORE PUSH2 0x100 DUP3 ADD MLOAD DUP2 PUSH1 0x8 ADD SWAP1 DUP2 PUSH2 0x17C2 SWAP2 SWAP1 PUSH2 0x335B JUMP JUMPDEST POP PUSH2 0x120 DUP3 ADD MLOAD DUP2 PUSH1 0x9 ADD SWAP1 DUP2 PUSH2 0x17D9 SWAP2 SWAP1 PUSH2 0x335B JUMP JUMPDEST POP PUSH2 0x140 DUP3 ADD MLOAD DUP2 PUSH1 0xA ADD SSTORE SWAP1 POP POP PUSH1 0x1 DUP11 SWAP1 DUP1 PUSH1 0x1 DUP2 SLOAD ADD DUP1 DUP3 SSTORE DUP1 SWAP2 POP POP PUSH1 0x1 SWAP1 SUB SWAP1 PUSH1 0x0 MSTORE PUSH1 0x20 PUSH1 0x0 KECCAK256 ADD PUSH1 0x0 SWAP1 SWAP2 SWAP1 SWAP2 SWAP1 SWAP2 POP SWAP1 DUP2 PUSH2 0x181C SWAP2 SWAP1 PUSH2 0x335B JUMP JUMPDEST POP PUSH32 0x5CD3880A2112A5001C77C80FC5F3CC78F5E578532F8FAC0609615FC2B10E4727 DUP11 DUP11 DUP11 DUP11 DUP11 DUP11 DUP11 DUP11 DUP11 DUP11 PUSH1 0x40 MLOAD PUSH2 0x185E SWAP11 SWAP10 SWAP9 SWAP8 SWAP7 SWAP6 SWAP5 SWAP4 SWAP3 SWAP2 SWAP1 PUSH2 0x3531 JUMP JUMPDEST PUSH1 0x40 MLOAD DUP1 SWAP2 SUB SWAP1 LOG1 POP POP POP POP POP POP POP POP POP POP JUMP JUMPDEST PUSH1 0x60 PUSH1 0x0 DUP1 JUMPDEST PUSH1 0x1 DUP1 SLOAD SWAP1 POP DUP2 LT ISZERO PUSH2 0x1937 JUMPI DUP4 PUSH1 0x40 MLOAD PUSH1 0x20 ADD PUSH2 0x1896 SWAP2 SWAP1 PUSH2 0x3141 JUMP JUMPDEST PUSH1 0x40 MLOAD PUSH1 0x20 DUP2 DUP4 SUB SUB DUP2 MSTORE SWAP1 PUSH1 0x40 MSTORE DUP1 MLOAD SWAP1 PUSH1 0x20 ADD KECCAK256 PUSH1 0x0 PUSH1 0x1 DUP4 DUP2 SLOAD DUP2 LT PUSH2 0x18C2 JUMPI PUSH2 0x18C1 PUSH2 0x2FB0 JUMP JUMPDEST JUMPDEST SWAP1 PUSH1 0x0 MSTORE PUSH1 0x20 PUSH1 0x0 KECCAK256 ADD PUSH1 0x40 MLOAD PUSH2 0x18D9 SWAP2 SWAP1 PUSH2 0x3082 JUMP JUMPDEST SWAP1 DUP2 MSTORE PUSH1 0x20 ADD PUSH1 0x40 MLOAD DUP1 SWAP2 SUB SWAP1 KECCAK256 PUSH1 0x1 ADD PUSH1 0x40 MLOAD PUSH1 0x20 ADD PUSH2 0x18FA SWAP2 SWAP1 PUSH2 0x3082 JUMP JUMPDEST PUSH1 0x40 MLOAD PUSH1 0x20 DUP2 DUP4 SUB SUB DUP2 MSTORE SWAP1 PUSH1 0x40 MSTORE DUP1 MLOAD SWAP1 PUSH1 0x20 ADD KECCAK256 SUB PUSH2 0x1924 JUMPI DUP2 DUP1 PUSH2 0x1920 SWAP1 PUSH2 0x30C8 JUMP JUMPDEST SWAP3 POP POP JUMPDEST DUP1 DUP1 PUSH2 0x192F SWAP1 PUSH2 0x30C8 JUMP JUMPDEST SWAP2 POP POP PUSH2 0x1878 JUMP JUMPDEST POP PUSH1 0x0 DUP2 PUSH8 0xFFFFFFFFFFFFFFFF DUP2 GT ISZERO PUSH2 0x1954 JUMPI PUSH2 0x1953 PUSH2 0x262C JUMP JUMPDEST JUMPDEST PUSH1 0x40 MLOAD SWAP1 DUP1 DUP3 MSTORE DUP1 PUSH1 0x20 MUL PUSH1 0x20 ADD DUP3 ADD PUSH1 0x40 MSTORE DUP1 ISZERO PUSH2 0x198D JUMPI DUP2 PUSH1 0x20 ADD JUMPDEST PUSH2 0x197A PUSH2 0x25A3 JUMP JUMPDEST DUP2 MSTORE PUSH1 0x20 ADD SWAP1 PUSH1 0x1 SWAP1 SUB SWAP1 DUP2 PUSH2 0x1972 JUMPI SWAP1 POP JUMPDEST POP SWAP1 POP PUSH1 0x0 DUP1 JUMPDEST PUSH1 0x1 DUP1 SLOAD SWAP1 POP DUP2 LT ISZERO PUSH2 0x1F66 JUMPI DUP6 PUSH1 0x40 MLOAD PUSH1 0x20 ADD PUSH2 0x19B2 SWAP2 SWAP1 PUSH2 0x3141 JUMP JUMPDEST PUSH1 0x40 MLOAD PUSH1 0x20 DUP2 DUP4 SUB SUB DUP2 MSTORE SWAP1 PUSH1 0x40 MSTORE DUP1 MLOAD SWAP1 PUSH1 0x20 ADD KECCAK256 PUSH1 0x0 PUSH1 0x1 DUP4 DUP2 SLOAD DUP2 LT PUSH2 0x19DE JUMPI PUSH2 0x19DD PUSH2 0x2FB0 JUMP JUMPDEST JUMPDEST SWAP1 PUSH1 0x0 MSTORE PUSH1 0x20 PUSH1 0x0 KECCAK256 ADD PUSH1 0x40 MLOAD PUSH2 0x19F5 SWAP2 SWAP1 PUSH2 0x3082 JUMP JUMPDEST SWAP1 DUP2 MSTORE PUSH1 0x20 ADD PUSH1 0x40 MLOAD DUP1 SWAP2 SUB SWAP1 KECCAK256 PUSH1 0x1 ADD PUSH1 0x40 MLOAD PUSH1 0x20 ADD PUSH2 0x1A16 SWAP2 SWAP1 PUSH2 0x3082 JUMP JUMPDEST PUSH1 0x40 MLOAD PUSH1 0x20 DUP2 DUP4 SUB SUB DUP2 MSTORE SWAP1 PUSH1 0x40 MSTORE DUP1 MLOAD SWAP1 PUSH1 0x20 ADD KECCAK256 SUB PUSH2 0x1F53 JUMPI PUSH1 0x0 PUSH1 0x1 DUP3 DUP2 SLOAD DUP2 LT PUSH2 0x1A47 JUMPI PUSH2 0x1A46 PUSH2 0x2FB0 JUMP JUMPDEST JUMPDEST SWAP1 PUSH1 0x0 MSTORE PUSH1 0x20 PUSH1 0x0 KECCAK256 ADD PUSH1 0x40 MLOAD PUSH2 0x1A5E SWAP2 SWAP1 PUSH2 0x3082 JUMP JUMPDEST SWAP1 DUP2 MSTORE PUSH1 0x20 ADD PUSH1 0x40 MLOAD DUP1 SWAP2 SUB SWAP1 KECCAK256 PUSH1 0x40 MLOAD DUP1 PUSH2 0x160 ADD PUSH1 0x40 MSTORE SWAP1 DUP2 PUSH1 0x0 DUP3 ADD DUP1 SLOAD PUSH2 0x1A88 SWAP1 PUSH2 0x2F7F JUMP JUMPDEST DUP1 PUSH1 0x1F ADD PUSH1 0x20 DUP1 SWAP2 DIV MUL PUSH1 0x20 ADD PUSH1 0x40 MLOAD SWAP1 DUP2 ADD PUSH1 0x40 MSTORE DUP1 SWAP3 SWAP2 SWAP1 DUP2 DUP2 MSTORE PUSH1 0x20 ADD DUP3 DUP1 SLOAD PUSH2 0x1AB4 SWAP1 PUSH2 0x2F7F JUMP JUMPDEST DUP1 ISZERO PUSH2 0x1B01 JUMPI DUP1 PUSH1 0x1F LT PUSH2 0x1AD6 JUMPI PUSH2 0x100 DUP1 DUP4 SLOAD DIV MUL DUP4 MSTORE SWAP2 PUSH1 0x20 ADD SWAP2 PUSH2 0x1B01 JUMP JUMPDEST DUP3 ADD SWAP2 SWAP1 PUSH1 0x0 MSTORE PUSH1 0x20 PUSH1 0x0 KECCAK256 SWAP1 JUMPDEST DUP2 SLOAD DUP2 MSTORE SWAP1 PUSH1 0x1 ADD SWAP1 PUSH1 0x20 ADD DUP1 DUP4 GT PUSH2 0x1AE4 JUMPI DUP3 SWAP1 SUB PUSH1 0x1F AND DUP3 ADD SWAP2 JUMPDEST POP POP POP POP POP DUP2 MSTORE PUSH1 0x20 ADD PUSH1 0x1 DUP3 ADD DUP1 SLOAD PUSH2 0x1B1A SWAP1 PUSH2 0x2F7F JUMP JUMPDEST DUP1 PUSH1 0x1F ADD PUSH1 0x20 DUP1 SWAP2 DIV MUL PUSH1 0x20 ADD PUSH1 0x40 MLOAD SWAP1 DUP2 ADD PUSH1 0x40 MSTORE DUP1 SWAP3 SWAP2 SWAP1 DUP2 DUP2 MSTORE PUSH1 0x20 ADD DUP3 DUP1 SLOAD PUSH2 0x1B46 SWAP1 PUSH2 0x2F7F JUMP JUMPDEST DUP1 ISZERO PUSH2 0x1B93 JUMPI DUP1 PUSH1 0x1F LT PUSH2 0x1B68 JUMPI PUSH2 0x100 DUP1 DUP4 SLOAD DIV MUL DUP4 MSTORE SWAP2 PUSH1 0x20 ADD SWAP2 PUSH2 0x1B93 JUMP JUMPDEST DUP3 ADD SWAP2 SWAP1 PUSH1 0x0 MSTORE PUSH1 0x20 PUSH1 0x0 KECCAK256 SWAP1 JUMPDEST DUP2 SLOAD DUP2 MSTORE SWAP1 PUSH1 0x1 ADD SWAP1 PUSH1 0x20 ADD DUP1 DUP4 GT PUSH2 0x1B76 JUMPI DUP3 SWAP1 SUB PUSH1 0x1F AND DUP3 ADD SWAP2 JUMPDEST POP POP POP POP POP DUP2 MSTORE PUSH1 0x20 ADD PUSH1 0x2 DUP3 ADD DUP1 SLOAD PUSH2 0x1BAC SWAP1 PUSH2 0x2F7F JUMP JUMPDEST DUP1 PUSH1 0x1F ADD PUSH1 0x20 DUP1 SWAP2 DIV MUL PUSH1 0x20 ADD PUSH1 0x40 MLOAD SWAP1 DUP2 ADD PUSH1 0x40 MSTORE DUP1 SWAP3 SWAP2 SWAP1 DUP2 DUP2 MSTORE PUSH1 0x20 ADD DUP3 DUP1 SLOAD PUSH2 0x1BD8 SWAP1 PUSH2 0x2F7F JUMP JUMPDEST DUP1 ISZERO PUSH2 0x1C25 JUMPI DUP1 PUSH1 0x1F LT PUSH2 0x1BFA JUMPI PUSH2 0x100 DUP1 DUP4 SLOAD DIV MUL DUP4 MSTORE SWAP2 PUSH1 0x20 ADD SWAP2 PUSH2 0x1C25 JUMP JUMPDEST DUP3 ADD SWAP2 SWAP1 PUSH1 0x0 MSTORE PUSH1 0x20 PUSH1 0x0 KECCAK256 SWAP1 JUMPDEST DUP2 SLOAD DUP2 MSTORE SWAP1 PUSH1 0x1 ADD SWAP1 PUSH1 0x20 ADD DUP1 DUP4 GT PUSH2 0x1C08 JUMPI DUP3 SWAP1 SUB PUSH1 0x1F AND DUP3 ADD SWAP2 JUMPDEST POP POP POP POP POP DUP2 MSTORE PUSH1 0x20 ADD PUSH1 0x3 DUP3 ADD DUP1 SLOAD PUSH2 0x1C3E SWAP1 PUSH2 0x2F7F JUMP JUMPDEST DUP1 PUSH1 0x1F ADD PUSH1 0x20 DUP1 SWAP2 DIV MUL PUSH1 0x20 ADD PUSH1 0x40 MLOAD SWAP1 DUP2 ADD PUSH1 0x40 MSTORE DUP1 SWAP3 SWAP2 SWAP1 DUP2 DUP2 MSTORE PUSH1 0x20 ADD DUP3 DUP1 SLOAD PUSH2 0x1C6A SWAP1 PUSH2 0x2F7F JUMP JUMPDEST DUP1 ISZERO PUSH2 0x1CB7 JUMPI DUP1 PUSH1 0x1F LT PUSH2 0x1C8C JUMPI PUSH2 0x100 DUP1 DUP4 SLOAD DIV MUL DUP4 MSTORE SWAP2 PUSH1 0x20 ADD SWAP2 PUSH2 0x1CB7 JUMP JUMPDEST DUP3 ADD SWAP2 SWAP1 PUSH1 0x0 MSTORE PUSH1 0x20 PUSH1 0x0 KECCAK256 SWAP1 JUMPDEST DUP2 SLOAD DUP2 MSTORE SWAP1 PUSH1 0x1 ADD SWAP1 PUSH1 0x20 ADD DUP1 DUP4 GT PUSH2 0x1C9A JUMPI DUP3 SWAP1 SUB PUSH1 0x1F AND DUP3 ADD SWAP2 JUMPDEST POP POP POP POP POP DUP2 MSTORE PUSH1 0x20 ADD PUSH1 0x4 DUP3 ADD DUP1 SLOAD PUSH2 0x1CD0 SWAP1 PUSH2 0x2F7F JUMP JUMPDEST DUP1 PUSH1 0x1F ADD PUSH1 0x20 DUP1 SWAP2 DIV MUL PUSH1 0x20 ADD PUSH1 0x40 MLOAD SWAP1 DUP2 ADD PUSH1 0x40 MSTORE DUP1 SWAP3 SWAP2 SWAP1 DUP2 DUP2 MSTORE PUSH1 0x20 ADD DUP3 DUP1 SLOAD PUSH2 0x1CFC SWAP1 PUSH2 0x2F7F JUMP JUMPDEST DUP1 ISZERO PUSH2 0x1D49 JUMPI DUP1 PUSH1 0x1F LT PUSH2 0x1D1E JUMPI PUSH2 0x100 DUP1 DUP4 SLOAD DIV MUL DUP4 MSTORE SWAP2 PUSH1 0x20 ADD SWAP2 PUSH2 0x1D49 JUMP JUMPDEST DUP3 ADD SWAP2 SWAP1 PUSH1 0x0 MSTORE PUSH1 0x20 PUSH1 0x0 KECCAK256 SWAP1 JUMPDEST DUP2 SLOAD DUP2 MSTORE SWAP1 PUSH1 0x1 ADD SWAP1 PUSH1 0x20 ADD DUP1 DUP4 GT PUSH2 0x1D2C JUMPI DUP3 SWAP1 SUB PUSH1 0x1F AND DUP3 ADD SWAP2 JUMPDEST POP POP POP POP POP DUP2 MSTORE PUSH1 0x20 ADD PUSH1 0x5 DUP3 ADD DUP1 SLOAD PUSH2 0x1D62 SWAP1 PUSH2 0x2F7F JUMP JUMPDEST DUP1 PUSH1 0x1F ADD PUSH1 0x20 DUP1 SWAP2 DIV MUL PUSH1 0x20 ADD PUSH1 0x40 MLOAD SWAP1 DUP2 ADD PUSH1 0x40 MSTORE DUP1 SWAP3 SWAP2 SWAP1 DUP2 DUP2 MSTORE PUSH1 0x20 ADD DUP3 DUP1 SLOAD PUSH2 0x1D8E SWAP1 PUSH2 0x2F7F JUMP JUMPDEST DUP1 ISZERO PUSH2 0x1DDB JUMPI DUP1 PUSH1 0x1F LT PUSH2 0x1DB0 JUMPI PUSH2 0x100 DUP1 DUP4 SLOAD DIV MUL DUP4 MSTORE SWAP2 PUSH1 0x20 ADD SWAP2 PUSH2 0x1DDB JUMP JUMPDEST DUP3 ADD SWAP2 SWAP1 PUSH1 0x0 MSTORE PUSH1 0x20 PUSH1 0x0 KECCAK256 SWAP1 JUMPDEST DUP2 SLOAD DUP2 MSTORE SWAP1 PUSH1 0x1 ADD SWAP1 PUSH1 0x20 ADD DUP1 DUP4 GT PUSH2 0x1DBE JUMPI DUP3 SWAP1 SUB PUSH1 0x1F AND DUP3 ADD SWAP2 JUMPDEST POP POP POP POP POP DUP2 MSTORE PUSH1 0x20 ADD PUSH1 0x6 DUP3 ADD SLOAD DUP2 MSTORE PUSH1 0x20 ADD PUSH1 0x7 DUP3 ADD SLOAD DUP2 MSTORE PUSH1 0x20 ADD PUSH1 0x8 DUP3 ADD DUP1 SLOAD PUSH2 0x1E08 SWAP1 PUSH2 0x2F7F JUMP JUMPDEST DUP1 PUSH1 0x1F ADD PUSH1 0x20 DUP1 SWAP2 DIV MUL PUSH1 0x20 ADD PUSH1 0x40 MLOAD SWAP1 DUP2 ADD PUSH1 0x40 MSTORE DUP1 SWAP3 SWAP2 SWAP1 DUP2 DUP2 MSTORE PUSH1 0x20 ADD DUP3 DUP1 SLOAD PUSH2 0x1E34 SWAP1 PUSH2 0x2F7F JUMP JUMPDEST DUP1 ISZERO PUSH2 0x1E81 JUMPI DUP1 PUSH1 0x1F LT PUSH2 0x1E56 JUMPI PUSH2 0x100 DUP1 DUP4 SLOAD DIV MUL DUP4 MSTORE SWAP2 PUSH1 0x20 ADD SWAP2 PUSH2 0x1E81 JUMP JUMPDEST DUP3 ADD SWAP2 SWAP1 PUSH1 0x0 MSTORE PUSH1 0x20 PUSH1 0x0 KECCAK256 SWAP1 JUMPDEST DUP2 SLOAD DUP2 MSTORE SWAP1 PUSH1 0x1 ADD SWAP1 PUSH1 0x20 ADD DUP1 DUP4 GT PUSH2 0x1E64 JUMPI DUP3 SWAP1 SUB PUSH1 0x1F AND DUP3 ADD SWAP2 JUMPDEST POP POP POP POP POP DUP2 MSTORE PUSH1 0x20 ADD PUSH1 0x9 DUP3 ADD DUP1 SLOAD PUSH2 0x1E9A SWAP1 PUSH2 0x2F7F JUMP JUMPDEST DUP1 PUSH1 0x1F ADD PUSH1 0x20 DUP1 SWAP2 DIV MUL PUSH1 0x20 ADD PUSH1 0x40 MLOAD SWAP1 DUP2 ADD PUSH1 0x40 MSTORE DUP1 SWAP3 SWAP2 SWAP1 DUP2 DUP2 MSTORE PUSH1 0x20 ADD DUP3 DUP1 SLOAD PUSH2 0x1EC6 SWAP1 PUSH2 0x2F7F JUMP JUMPDEST DUP1 ISZERO PUSH2 0x1F13 JUMPI DUP1 PUSH1 0x1F LT PUSH2 0x1EE8 JUMPI PUSH2 0x100 DUP1 DUP4 SLOAD DIV MUL DUP4 MSTORE SWAP2 PUSH1 0x20 ADD SWAP2 PUSH2 0x1F13 JUMP JUMPDEST DUP3 ADD SWAP2 SWAP1 PUSH1 0x0 MSTORE PUSH1 0x20 PUSH1 0x0 KECCAK256 SWAP1 JUMPDEST DUP2 SLOAD DUP2 MSTORE SWAP1 PUSH1 0x1 ADD SWAP1 PUSH1 0x20 ADD DUP1 DUP4 GT PUSH2 0x1EF6 JUMPI DUP3 SWAP1 SUB PUSH1 0x1F AND DUP3 ADD SWAP2 JUMPDEST POP POP POP POP POP DUP2 MSTORE PUSH1 0x20 ADD PUSH1 0xA DUP3 ADD SLOAD DUP2 MSTORE POP POP DUP4 DUP4 DUP2 MLOAD DUP2 LT PUSH2 0x1F39 JUMPI PUSH2 0x1F38 PUSH2 0x2FB0 JUMP JUMPDEST JUMPDEST PUSH1 0x20 MUL PUSH1 0x20 ADD ADD DUP2 SWAP1 MSTORE POP DUP2 DUP1 PUSH2 0x1F4F SWAP1 PUSH2 0x30C8 JUMP JUMPDEST SWAP3 POP POP JUMPDEST DUP1 DUP1 PUSH2 0x1F5E SWAP1 PUSH2 0x30C8 JUMP JUMPDEST SWAP2 POP POP PUSH2 0x1994 JUMP JUMPDEST POP DUP2 SWAP4 POP POP POP POP SWAP2 SWAP1 POP JUMP JUMPDEST PUSH2 0x1F7A PUSH2 0x25A3 JUMP JUMPDEST PUSH1 0x0 DUP1 DUP4 PUSH1 0x40 MLOAD PUSH2 0x1F8B SWAP2 SWAP1 PUSH2 0x3141 JUMP JUMPDEST SWAP1 DUP2 MSTORE PUSH1 0x20 ADD PUSH1 0x40 MLOAD DUP1 SWAP2 SUB SWAP1 KECCAK256 PUSH1 0x0 ADD DUP1 SLOAD PUSH2 0x1FA7 SWAP1 PUSH2 0x2F7F JUMP JUMPDEST SWAP1 POP SUB PUSH2 0x1FE9 JUMPI PUSH1 0x40 MLOAD PUSH32 0x8C379A000000000000000000000000000000000000000000000000000000000 DUP2 MSTORE PUSH1 0x4 ADD PUSH2 0x1FE0 SWAP1 PUSH2 0x31A4 JUMP JUMPDEST PUSH1 0x40 MLOAD DUP1 SWAP2 SUB SWAP1 REVERT JUMPDEST PUSH1 0x0 DUP3 PUSH1 0x40 MLOAD PUSH2 0x1FF9 SWAP2 SWAP1 PUSH2 0x3141 JUMP JUMPDEST SWAP1 DUP2 MSTORE PUSH1 0x20 ADD PUSH1 0x40 MLOAD DUP1 SWAP2 SUB SWAP1 KECCAK256 PUSH1 0x40 MLOAD DUP1 PUSH2 0x160 ADD PUSH1 0x40 MSTORE SWAP1 DUP2 PUSH1 0x0 DUP3 ADD DUP1 SLOAD PUSH2 0x2023 SWAP1 PUSH2 0x2F7F JUMP JUMPDEST DUP1 PUSH1 0x1F ADD PUSH1 0x20 DUP1 SWAP2 DIV MUL PUSH1 0x20 ADD PUSH1 0x40 MLOAD SWAP1 DUP2 ADD PUSH1 0x40 MSTORE DUP1 SWAP3 SWAP2 SWAP1 DUP2 DUP2 MSTORE PUSH1 0x20 ADD DUP3 DUP1 SLOAD PUSH2 0x204F SWAP1 PUSH2 0x2F7F JUMP JUMPDEST DUP1 ISZERO PUSH2 0x209C JUMPI DUP1 PUSH1 0x1F LT PUSH2 0x2071 JUMPI PUSH2 0x100 DUP1 DUP4 SLOAD DIV MUL DUP4 MSTORE SWAP2 PUSH1 0x20 ADD SWAP2 PUSH2 0x209C JUMP JUMPDEST DUP3 ADD SWAP2 SWAP1 PUSH1 0x0 MSTORE PUSH1 0x20 PUSH1 0x0 KECCAK256 SWAP1 JUMPDEST DUP2 SLOAD DUP2 MSTORE SWAP1 PUSH1 0x1 ADD SWAP1 PUSH1 0x20 ADD DUP1 DUP4 GT PUSH2 0x207F JUMPI DUP3 SWAP1 SUB PUSH1 0x1F AND DUP3 ADD SWAP2 JUMPDEST POP POP POP POP POP DUP2 MSTORE PUSH1 0x20 ADD PUSH1 0x1 DUP3 ADD DUP1 SLOAD PUSH2 0x20B5 SWAP1 PUSH2 0x2F7F JUMP JUMPDEST DUP1 PUSH1 0x1F ADD PUSH1 0x20 DUP1 SWAP2 DIV MUL PUSH1 0x20 ADD PUSH1 0x40 MLOAD SWAP1 DUP2 ADD PUSH1 0x40 MSTORE DUP1 SWAP3 SWAP2 SWAP1 DUP2 DUP2 MSTORE PUSH1 0x20 ADD DUP3 DUP1 SLOAD PUSH2 0x20E1 SWAP1 PUSH2 0x2F7F JUMP JUMPDEST DUP1 ISZERO PUSH2 0x212E JUMPI DUP1 PUSH1 0x1F LT PUSH2 0x2103 JUMPI PUSH2 0x100 DUP1 DUP4 SLOAD DIV MUL DUP4 MSTORE SWAP2 PUSH1 0x20 ADD SWAP2 PUSH2 0x212E JUMP JUMPDEST DUP3 ADD SWAP2 SWAP1 PUSH1 0x0 MSTORE PUSH1 0x20 PUSH1 0x0 KECCAK256 SWAP1 JUMPDEST DUP2 SLOAD DUP2 MSTORE SWAP1 PUSH1 0x1 ADD SWAP1 PUSH1 0x20 ADD DUP1 DUP4 GT PUSH2 0x2111 JUMPI DUP3 SWAP1 SUB PUSH1 0x1F AND DUP3 ADD SWAP2 JUMPDEST POP POP POP POP POP DUP2 MSTORE PUSH1 0x20 ADD PUSH1 0x2 DUP3 ADD DUP1 SLOAD PUSH2 0x2147 SWAP1 PUSH2 0x2F7F JUMP JUMPDEST DUP1 PUSH1 0x1F ADD PUSH1 0x20 DUP1 SWAP2 DIV MUL PUSH1 0x20 ADD PUSH1 0x40 MLOAD SWAP1 DUP2 ADD PUSH1 0x40 MSTORE DUP1 SWAP3 SWAP2 SWAP1 DUP2 DUP2 MSTORE PUSH1 0x20 ADD DUP3 DUP1 SLOAD PUSH2 0x2173 SWAP1 PUSH2 0x2F7F JUMP JUMPDEST DUP1 ISZERO PUSH2 0x21C0 JUMPI DUP1 PUSH1 0x1F LT PUSH2 0x2195 JUMPI PUSH2 0x100 DUP1 DUP4 SLOAD DIV MUL DUP4 MSTORE SWAP2 PUSH1 0x20 ADD SWAP2 PUSH2 0x21C0 JUMP JUMPDEST DUP3 ADD SWAP2 SWAP1 PUSH1 0x0 MSTORE PUSH1 0x20 PUSH1 0x0 KECCAK256 SWAP1 JUMPDEST DUP2 SLOAD DUP2 MSTORE SWAP1 PUSH1 0x1 ADD SWAP1 PUSH1 0x20 ADD DUP1 DUP4 GT PUSH2 0x21A3 JUMPI DUP3 SWAP1 SUB PUSH1 0x1F AND DUP3 ADD SWAP2 JUMPDEST POP POP POP POP POP DUP2 MSTORE PUSH1 0x20 ADD PUSH1 0x3 DUP3 ADD DUP1 SLOAD PUSH2 0x21D9 SWAP1 PUSH2 0x2F7F JUMP JUMPDEST DUP1 PUSH1 0x1F ADD PUSH1 0x20 DUP1 SWAP2 DIV MUL PUSH1 0x20 ADD PUSH1 0x40 MLOAD SWAP1 DUP2 ADD PUSH1 0x40 MSTORE DUP1 SWAP3 SWAP2 SWAP1 DUP2 DUP2 MSTORE PUSH1 0x20 ADD DUP3 DUP1 SLOAD PUSH2 0x2205 SWAP1 PUSH2 0x2F7F JUMP JUMPDEST DUP1 ISZERO PUSH2 0x2252 JUMPI DUP1 PUSH1 0x1F LT PUSH2 0x2227 JUMPI PUSH2 0x100 DUP1 DUP4 SLOAD DIV MUL DUP4 MSTORE SWAP2 PUSH1 0x20 ADD SWAP2 PUSH2 0x2252 JUMP JUMPDEST DUP3 ADD SWAP2 SWAP1 PUSH1 0x0 MSTORE PUSH1 0x20 PUSH1 0x0 KECCAK256 SWAP1 JUMPDEST DUP2 SLOAD DUP2 MSTORE SWAP1 PUSH1 0x1 ADD SWAP1 PUSH1 0x20 ADD DUP1 DUP4 GT PUSH2 0x2235 JUMPI DUP3 SWAP1 SUB PUSH1 0x1F AND DUP3 ADD SWAP2 JUMPDEST POP POP POP POP POP DUP2 MSTORE PUSH1 0x20 ADD PUSH1 0x4 DUP3 ADD DUP1 SLOAD PUSH2 0x226B SWAP1 PUSH2 0x2F7F JUMP JUMPDEST DUP1 PUSH1 0x1F ADD PUSH1 0x20 DUP1 SWAP2 DIV MUL PUSH1 0x20 ADD PUSH1 0x40 MLOAD SWAP1 DUP2 ADD PUSH1 0x40 MSTORE DUP1 SWAP3 SWAP2 SWAP1 DUP2 DUP2 MSTORE PUSH1 0x20 ADD DUP3 DUP1 SLOAD PUSH2 0x2297 SWAP1 PUSH2 0x2F7F JUMP JUMPDEST DUP1 ISZERO PUSH2 0x22E4 JUMPI DUP1 PUSH1 0x1F LT PUSH2 0x22B9 JUMPI PUSH2 0x100 DUP1 DUP4 SLOAD DIV MUL DUP4 MSTORE SWAP2 PUSH1 0x20 ADD SWAP2 PUSH2 0x22E4 JUMP JUMPDEST DUP3 ADD SWAP2 SWAP1 PUSH1 0x0 MSTORE PUSH1 0x20 PUSH1 0x0 KECCAK256 SWAP1 JUMPDEST DUP2 SLOAD DUP2 MSTORE SWAP1 PUSH1 0x1 ADD SWAP1 PUSH1 0x20 ADD DUP1 DUP4 GT PUSH2 0x22C7 JUMPI DUP3 SWAP1 SUB PUSH1 0x1F AND DUP3 ADD SWAP2 JUMPDEST POP POP POP POP POP DUP2 MSTORE PUSH1 0x20 ADD PUSH1 0x5 DUP3 ADD DUP1 SLOAD PUSH2 0x22FD SWAP1 PUSH2 0x2F7F JUMP JUMPDEST DUP1 PUSH1 0x1F ADD PUSH1 0x20 DUP1 SWAP2 DIV MUL PUSH1 0x20 ADD PUSH1 0x40 MLOAD SWAP1 DUP2 ADD PUSH1 0x40 MSTORE DUP1 SWAP3 SWAP2 SWAP1 DUP2 DUP2 MSTORE PUSH1 0x20 ADD DUP3 DUP1 SLOAD PUSH2 0x2329 SWAP1 PUSH2 0x2F7F JUMP JUMPDEST DUP1 ISZERO PUSH2 0x2376 JUMPI DUP1 PUSH1 0x1F LT PUSH2 0x234B JUMPI PUSH2 0x100 DUP1 DUP4 SLOAD DIV MUL DUP4 MSTORE SWAP2 PUSH1 0x20 ADD SWAP2 PUSH2 0x2376 JUMP JUMPDEST DUP3 ADD SWAP2 SWAP1 PUSH1 0x0 MSTORE PUSH1 0x20 PUSH1 0x0 KECCAK256 SWAP1 JUMPDEST DUP2 SLOAD DUP2 MSTORE SWAP1 PUSH1 0x1 ADD SWAP1 PUSH1 0x20 ADD DUP1 DUP4 GT PUSH2 0x2359 JUMPI DUP3 SWAP1 SUB PUSH1 0x1F AND DUP3 ADD SWAP2 JUMPDEST POP POP POP POP POP DUP2 MSTORE PUSH1 0x20 ADD PUSH1 0x6 DUP3 ADD SLOAD DUP2 MSTORE PUSH1 0x20 ADD PUSH1 0x7 DUP3 ADD SLOAD DUP2 MSTORE PUSH1 0x20 ADD PUSH1 0x8 DUP3 ADD DUP1 SLOAD PUSH2 0x23A3 SWAP1 PUSH2 0x2F7F JUMP JUMPDEST DUP1 PUSH1 0x1F ADD PUSH1 0x20 DUP1 SWAP2 DIV MUL PUSH1 0x20 ADD PUSH1 0x40 MLOAD SWAP1 DUP2 ADD PUSH1 0x40 MSTORE DUP1 SWAP3 SWAP2 SWAP1 DUP2 DUP2 MSTORE PUSH1 0x20 ADD DUP3 DUP1 SLOAD PUSH2 0x23CF SWAP1 PUSH2 0x2F7F JUMP JUMPDEST DUP1 ISZERO PUSH2 0x241C JUMPI DUP1 PUSH1 0x1F LT PUSH2 0x23F1 JUMPI PUSH2 0x100 DUP1 DUP4 SLOAD DIV MUL DUP4 MSTORE SWAP2 PUSH1 0x20 ADD SWAP2 PUSH2 0x241C JUMP JUMPDEST DUP3 ADD SWAP2 SWAP1 PUSH1 0x0 MSTORE PUSH1 0x20 PUSH1 0x0 KECCAK256 SWAP1 JUMPDEST DUP2 SLOAD DUP2 MSTORE SWAP1 PUSH1 0x1 ADD SWAP1 PUSH1 0x20 ADD DUP1 DUP4 GT PUSH2 0x23FF JUMPI DUP3 SWAP1 SUB PUSH1 0x1F AND DUP3 ADD SWAP2 JUMPDEST POP POP POP POP POP DUP2 MSTORE PUSH1 0x20 ADD PUSH1 0x9 DUP3 ADD DUP1 SLOAD PUSH2 0x2435 SWAP1 PUSH2 0x2F7F JUMP JUMPDEST DUP1 PUSH1 0x1F ADD PUSH1 0x20 DUP1 SWAP2 DIV MUL PUSH1 0x20 ADD PUSH1 0x40 MLOAD SWAP1 DUP2 ADD PUSH1 0x40 MSTORE DUP1 SWAP3 SWAP2 SWAP1 DUP2 DUP2 MSTORE PUSH1 0x20 ADD DUP3 DUP1 SLOAD PUSH2 0x2461 SWAP1 PUSH2 0x2F7F JUMP JUMPDEST DUP1 ISZERO PUSH2 0x24AE JUMPI DUP1 PUSH1 0x1F LT PUSH2 0x2483 JUMPI PUSH2 0x100 DUP1 DUP4 SLOAD DIV MUL DUP4 MSTORE SWAP2 PUSH1 0x20 ADD SWAP2 PUSH2 0x24AE JUMP JUMPDEST DUP3 ADD SWAP2 SWAP1 PUSH1 0x0 MSTORE PUSH1 0x20 PUSH1 0x0 KECCAK256 SWAP1 JUMPDEST DUP2 SLOAD DUP2 MSTORE SWAP1 PUSH1 0x1 ADD SWAP1 PUSH1 0x20 ADD DUP1 DUP4 GT PUSH2 0x2491 JUMPI DUP3 SWAP1 SUB PUSH1 0x1F AND DUP3 ADD SWAP2 JUMPDEST POP POP POP POP POP DUP2 MSTORE PUSH1 0x20 ADD PUSH1 0xA DUP3 ADD SLOAD DUP2 MSTORE POP POP SWAP1 POP SWAP2 SWAP1 POP JUMP JUMPDEST PUSH1 0x0 DUP1 DUP4 PUSH1 0x40 MLOAD PUSH2 0x24D9 SWAP2 SWAP1 PUSH2 0x3141 JUMP JUMPDEST SWAP1 DUP2 MSTORE PUSH1 0x20 ADD PUSH1 0x40 MLOAD DUP1 SWAP2 SUB SWAP1 KECCAK256 PUSH1 0x0 ADD DUP1 SLOAD PUSH2 0x24F5 SWAP1 PUSH2 0x2F7F JUMP JUMPDEST SWAP1 POP SUB PUSH2 0x2537 JUMPI PUSH1 0x40 MLOAD PUSH32 0x8C379A000000000000000000000000000000000000000000000000000000000 DUP2 MSTORE PUSH1 0x4 ADD PUSH2 0x252E SWAP1 PUSH2 0x31A4 JUMP JUMPDEST PUSH1 0x40 MLOAD DUP1 SWAP2 SUB SWAP1 REVERT JUMPDEST DUP1 PUSH1 0x0 DUP4 PUSH1 0x40 MLOAD PUSH2 0x2548 SWAP2 SWAP1 PUSH2 0x3141 JUMP JUMPDEST SWAP1 DUP2 MSTORE PUSH1 0x20 ADD PUSH1 0x40 MLOAD DUP1 SWAP2 SUB SWAP1 KECCAK256 PUSH1 0x4 ADD SWAP1 DUP2 PUSH2 0x2565 SWAP2 SWAP1 PUSH2 0x335B JUMP JUMPDEST POP PUSH32 0xC61FFB03925558D248FBA37B73270B12903D3F0BA5797AF8B71A9F8BF0761A98 DUP3 DUP3 PUSH1 0x40 MLOAD PUSH2 0x2597 SWAP3 SWAP2 SWAP1 PUSH2 0x342D JUMP JUMPDEST PUSH1 0x40 MLOAD DUP1 SWAP2 SUB SWAP1 LOG1 POP POP JUMP JUMPDEST PUSH1 0x40 MLOAD DUP1 PUSH2 0x160 ADD PUSH1 0x40 MSTORE DUP1 PUSH1 0x60 DUP2 MSTORE PUSH1 0x20 ADD PUSH1 0x60 DUP2 MSTORE PUSH1 0x20 ADD PUSH1 0x60 DUP2 MSTORE PUSH1 0x20 ADD PUSH1 0x60 DUP2 MSTORE PUSH1 0x20 ADD PUSH1 0x60 DUP2 MSTORE PUSH1 0x20 ADD PUSH1 0x60 DUP2 MSTORE PUSH1 0x20 ADD PUSH1 0x0 DUP2 MSTORE PUSH1 0x20 ADD PUSH1 0x0 DUP2 MSTORE PUSH1 0x20 ADD PUSH1 0x60 DUP2 MSTORE PUSH1 0x20 ADD PUSH1 0x60 DUP2 MSTORE PUSH1 0x20 ADD PUSH1 0x0 DUP2 MSTORE POP SWAP1 JUMP JUMPDEST PUSH1 0x0 PUSH1 0x40 MLOAD SWAP1 POP SWAP1 JUMP JUMPDEST PUSH1 0x0 DUP1 REVERT JUMPDEST PUSH1 0x0 DUP1 REVERT JUMPDEST PUSH1 0x0 DUP1 REVERT JUMPDEST PUSH1 0x0 DUP1 REVERT JUMPDEST PUSH1 0x0 PUSH1 0x1F NOT PUSH1 0x1F DUP4 ADD AND SWAP1 POP SWAP2 SWAP1 POP JUMP JUMPDEST PUSH32 0x4E487B7100000000000000000000000000000000000000000000000000000000 PUSH1 0x0 MSTORE PUSH1 0x41 PUSH1 0x4 MSTORE PUSH1 0x24 PUSH1 0x0 REVERT JUMPDEST PUSH2 0x2664 DUP3 PUSH2 0x261B JUMP JUMPDEST DUP2 ADD DUP2 DUP2 LT PUSH8 0xFFFFFFFFFFFFFFFF DUP3 GT OR ISZERO PUSH2 0x2683 JUMPI PUSH2 0x2682 PUSH2 0x262C JUMP JUMPDEST JUMPDEST DUP1 PUSH1 0x40 MSTORE POP POP POP JUMP JUMPDEST PUSH1 0x0 PUSH2 0x2696 PUSH2 0x25FD JUMP JUMPDEST SWAP1 POP PUSH2 0x26A2 DUP3 DUP3 PUSH2 0x265B JUMP JUMPDEST SWAP2 SWAP1 POP JUMP JUMPDEST PUSH1 0x0 PUSH8 0xFFFFFFFFFFFFFFFF DUP3 GT ISZERO PUSH2 0x26C2 JUMPI PUSH2 0x26C1 PUSH2 0x262C JUMP JUMPDEST JUMPDEST PUSH2 0x26CB DUP3 PUSH2 0x261B JUMP JUMPDEST SWAP1 POP PUSH1 0x20 DUP2 ADD SWAP1 POP SWAP2 SWAP1 POP JUMP JUMPDEST DUP3 DUP2 DUP4 CALLDATACOPY PUSH1 0x0 DUP4 DUP4 ADD MSTORE POP POP POP JUMP JUMPDEST PUSH1 0x0 PUSH2 0x26FA PUSH2 0x26F5 DUP5 PUSH2 0x26A7 JUMP JUMPDEST PUSH2 0x268C JUMP JUMPDEST SWAP1 POP DUP3 DUP2 MSTORE PUSH1 0x20 DUP2 ADD DUP5 DUP5 DUP5 ADD GT ISZERO PUSH2 0x2716 JUMPI PUSH2 0x2715 PUSH2 0x2616 JUMP JUMPDEST JUMPDEST PUSH2 0x2721 DUP5 DUP3 DUP6 PUSH2 0x26D8 JUMP JUMPDEST POP SWAP4 SWAP3 POP POP POP JUMP JUMPDEST PUSH1 0x0 DUP3 PUSH1 0x1F DUP4 ADD SLT PUSH2 0x273E JUMPI PUSH2 0x273D PUSH2 0x2611 JUMP JUMPDEST JUMPDEST DUP2 CALLDATALOAD PUSH2 0x274E DUP5 DUP3 PUSH1 0x20 DUP7 ADD PUSH2 0x26E7 JUMP JUMPDEST SWAP2 POP POP SWAP3 SWAP2 POP POP JUMP JUMPDEST PUSH1 0x0 PUSH1 0x20 DUP3 DUP5 SUB SLT ISZERO PUSH2 0x276D JUMPI PUSH2 0x276C PUSH2 0x2607 JUMP JUMPDEST JUMPDEST PUSH1 0x0 DUP3 ADD CALLDATALOAD PUSH8 0xFFFFFFFFFFFFFFFF DUP2 GT ISZERO PUSH2 0x278B JUMPI PUSH2 0x278A PUSH2 0x260C JUMP JUMPDEST JUMPDEST PUSH2 0x2797 DUP5 DUP3 DUP6 ADD PUSH2 0x2729 JUMP JUMPDEST SWAP2 POP POP SWAP3 SWAP2 POP POP JUMP JUMPDEST PUSH1 0x0 DUP2 MLOAD SWAP1 POP SWAP2 SWAP1 POP JUMP JUMPDEST PUSH1 0x0 DUP3 DUP3 MSTORE PUSH1 0x20 DUP3 ADD SWAP1 POP SWAP3 SWAP2 POP POP JUMP JUMPDEST PUSH1 0x0 JUMPDEST DUP4 DUP2 LT ISZERO PUSH2 0x27DA JUMPI DUP1 DUP3 ADD MLOAD DUP2 DUP5 ADD MSTORE PUSH1 0x20 DUP2 ADD SWAP1 POP PUSH2 0x27BF JUMP JUMPDEST PUSH1 0x0 DUP5 DUP5 ADD MSTORE POP POP POP POP JUMP JUMPDEST PUSH1 0x0 PUSH2 0x27F1 DUP3 PUSH2 0x27A0 JUMP JUMPDEST PUSH2 0x27FB DUP2 DUP6 PUSH2 0x27AB JUMP JUMPDEST SWAP4 POP PUSH2 0x280B DUP2 DUP6 PUSH1 0x20 DUP7 ADD PUSH2 0x27BC JUMP JUMPDEST PUSH2 0x2814 DUP2 PUSH2 0x261B JUMP JUMPDEST DUP5 ADD SWAP2 POP POP SWAP3 SWAP2 POP POP JUMP JUMPDEST PUSH1 0x0 DUP2 SWAP1 POP SWAP2 SWAP1 POP JUMP JUMPDEST PUSH2 0x2832 DUP2 PUSH2 0x281F JUMP JUMPDEST DUP3 MSTORE POP POP JUMP JUMPDEST PUSH1 0x0 PUSH2 0x160 DUP3 ADD SWAP1 POP DUP2 DUP2 SUB PUSH1 0x0 DUP4 ADD MSTORE PUSH2 0x2853 DUP2 DUP15 PUSH2 0x27E6 JUMP JUMPDEST SWAP1 POP DUP2 DUP2 SUB PUSH1 0x20 DUP4 ADD MSTORE PUSH2 0x2867 DUP2 DUP14 PUSH2 0x27E6 JUMP JUMPDEST SWAP1 POP DUP2 DUP2 SUB PUSH1 0x40 DUP4 ADD MSTORE PUSH2 0x287B DUP2 DUP13 PUSH2 0x27E6 JUMP JUMPDEST SWAP1 POP DUP2 DUP2 SUB PUSH1 0x60 DUP4 ADD MSTORE PUSH2 0x288F DUP2 DUP12 PUSH2 0x27E6 JUMP JUMPDEST SWAP1 POP DUP2 DUP2 SUB PUSH1 0x80 DUP4 ADD MSTORE PUSH2 0x28A3 DUP2 DUP11 PUSH2 0x27E6 JUMP JUMPDEST SWAP1 POP DUP2 DUP2 SUB PUSH1 0xA0 DUP4 ADD MSTORE PUSH2 0x28B7 DUP2 DUP10 PUSH2 0x27E6 JUMP JUMPDEST SWAP1 POP PUSH2 0x28C6 PUSH1 0xC0 DUP4 ADD DUP9 PUSH2 0x2829 JUMP JUMPDEST PUSH2 0x28D3 PUSH1 0xE0 DUP4 ADD DUP8 PUSH2 0x2829 JUMP JUMPDEST DUP2 DUP2 SUB PUSH2 0x100 DUP4 ADD MSTORE PUSH2 0x28E6 DUP2 DUP7 PUSH2 0x27E6 JUMP JUMPDEST SWAP1 POP DUP2 DUP2 SUB PUSH2 0x120 DUP4 ADD MSTORE PUSH2 0x28FB DUP2 DUP6 PUSH2 0x27E6 JUMP JUMPDEST SWAP1 POP PUSH2 0x290B PUSH2 0x140 DUP4 ADD DUP5 PUSH2 0x2829 JUMP JUMPDEST SWAP13 SWAP12 POP POP POP POP POP POP POP POP POP POP POP POP JUMP JUMPDEST PUSH1 0x0 DUP2 MLOAD SWAP1 POP SWAP2 SWAP1 POP JUMP JUMPDEST PUSH1 0x0 DUP3 DUP3 MSTORE PUSH1 0x20 DUP3 ADD SWAP1 POP SWAP3 SWAP2 POP POP JUMP JUMPDEST PUSH1 0x0 DUP2 SWAP1 POP PUSH1 0x20 DUP3 ADD SWAP1 POP SWAP2 SWAP1 POP JUMP JUMPDEST PUSH1 0x0 DUP3 DUP3 MSTORE PUSH1 0x20 DUP3 ADD SWAP1 POP SWAP3 SWAP2 POP POP JUMP JUMPDEST PUSH1 0x0 PUSH2 0x2963 DUP3 PUSH2 0x27A0 JUMP JUMPDEST PUSH2 0x296D DUP2 DUP6 PUSH2 0x2947 JUMP JUMPDEST SWAP4 POP PUSH2 0x297D DUP2 DUP6 PUSH1 0x20 DUP7 ADD PUSH2 0x27BC JUMP JUMPDEST PUSH2 0x2986 DUP2 PUSH2 0x261B JUMP JUMPDEST DUP5 ADD SWAP2 POP POP SWAP3 SWAP2 POP POP JUMP JUMPDEST PUSH2 0x299A DUP2 PUSH2 0x281F JUMP JUMPDEST DUP3 MSTORE POP POP JUMP JUMPDEST PUSH1 0x0 PUSH2 0x160 DUP4 ADD PUSH1 0x0 DUP4 ADD MLOAD DUP5 DUP3 SUB PUSH1 0x0 DUP7 ADD MSTORE PUSH2 0x29BE DUP3 DUP3 PUSH2 0x2958 JUMP JUMPDEST SWAP2 POP POP PUSH1 0x20 DUP4 ADD MLOAD DUP5 DUP3 SUB PUSH1 0x20 DUP7 ADD MSTORE PUSH2 0x29D8 DUP3 DUP3 PUSH2 0x2958 JUMP JUMPDEST SWAP2 POP POP PUSH1 0x40 DUP4 ADD MLOAD DUP5 DUP3 SUB PUSH1 0x40 DUP7 ADD MSTORE PUSH2 0x29F2 DUP3 DUP3 PUSH2 0x2958 JUMP JUMPDEST SWAP2 POP POP PUSH1 0x60 DUP4 ADD MLOAD DUP5 DUP3 SUB PUSH1 0x60 DUP7 ADD MSTORE PUSH2 0x2A0C DUP3 DUP3 PUSH2 0x2958 JUMP JUMPDEST SWAP2 POP POP PUSH1 0x80 DUP4 ADD MLOAD DUP5 DUP3 SUB PUSH1 0x80 DUP7 ADD MSTORE PUSH2 0x2A26 DUP3 DUP3 PUSH2 0x2958 JUMP JUMPDEST SWAP2 POP POP PUSH1 0xA0 DUP4 ADD MLOAD DUP5 DUP3 SUB PUSH1 0xA0 DUP7 ADD MSTORE PUSH2 0x2A40 DUP3 DUP3 PUSH2 0x2958 JUMP JUMPDEST SWAP2 POP POP PUSH1 0xC0 DUP4 ADD MLOAD PUSH2 0x2A55 PUSH1 0xC0 DUP7 ADD DUP3 PUSH2 0x2991 JUMP JUMPDEST POP PUSH1 0xE0 DUP4 ADD MLOAD PUSH2 0x2A68 PUSH1 0xE0 DUP7 ADD DUP3 PUSH2 0x2991 JUMP JUMPDEST POP PUSH2 0x100 DUP4 ADD MLOAD DUP5 DUP3 SUB PUSH2 0x100 DUP7 ADD MSTORE PUSH2 0x2A82 DUP3 DUP3 PUSH2 0x2958 JUMP JUMPDEST SWAP2 POP POP PUSH2 0x120 DUP4 ADD MLOAD DUP5 DUP3 SUB PUSH2 0x120 DUP7 ADD MSTORE PUSH2 0x2A9E DUP3 DUP3 PUSH2 0x2958 JUMP JUMPDEST SWAP2 POP POP PUSH2 0x140 DUP4 ADD MLOAD PUSH2 0x2AB5 PUSH2 0x140 DUP7 ADD DUP3 PUSH2 0x2991 JUMP JUMPDEST POP DUP1 SWAP2 POP POP SWAP3 SWAP2 POP POP JUMP JUMPDEST PUSH1 0x0 PUSH2 0x2ACC DUP4 DUP4 PUSH2 0x29A0 JUMP JUMPDEST SWAP1 POP SWAP3 SWAP2 POP POP JUMP JUMPDEST PUSH1 0x0 PUSH1 0x20 DUP3 ADD SWAP1 POP SWAP2 SWAP1 POP JUMP JUMPDEST PUSH1 0x0 PUSH2 0x2AEC DUP3 PUSH2 0x291B JUMP JUMPDEST PUSH2 0x2AF6 DUP2 DUP6 PUSH2 0x2926 JUMP JUMPDEST SWAP4 POP DUP4 PUSH1 0x20 DUP3 MUL DUP6 ADD PUSH2 0x2B08 DUP6 PUSH2 0x2937 JUMP JUMPDEST DUP1 PUSH1 0x0 JUMPDEST DUP6 DUP2 LT ISZERO PUSH2 0x2B44 JUMPI DUP5 DUP5 SUB DUP10 MSTORE DUP2 MLOAD PUSH2 0x2B25 DUP6 DUP3 PUSH2 0x2AC0 JUMP JUMPDEST SWAP5 POP PUSH2 0x2B30 DUP4 PUSH2 0x2AD4 JUMP JUMPDEST SWAP3 POP PUSH1 0x20 DUP11 ADD SWAP10 POP POP PUSH1 0x1 DUP2 ADD SWAP1 POP PUSH2 0x2B0C JUMP JUMPDEST POP DUP3 SWAP8 POP DUP8 SWAP6 POP POP POP POP POP POP SWAP3 SWAP2 POP POP JUMP JUMPDEST PUSH1 0x0 PUSH1 0x20 DUP3 ADD SWAP1 POP DUP2 DUP2 SUB PUSH1 0x0 DUP4 ADD MSTORE PUSH2 0x2B70 DUP2 DUP5 PUSH2 0x2AE1 JUMP JUMPDEST SWAP1 POP SWAP3 SWAP2 POP POP JUMP JUMPDEST PUSH1 0x0 DUP1 PUSH1 0x40 DUP4 DUP6 SUB SLT ISZERO PUSH2 0x2B8F JUMPI PUSH2 0x2B8E PUSH2 0x2607 JUMP JUMPDEST JUMPDEST PUSH1 0x0 DUP4 ADD CALLDATALOAD PUSH8 0xFFFFFFFFFFFFFFFF DUP2 GT ISZERO PUSH2 0x2BAD JUMPI PUSH2 0x2BAC PUSH2 0x260C JUMP JUMPDEST JUMPDEST PUSH2 0x2BB9 DUP6 DUP3 DUP7 ADD PUSH2 0x2729 JUMP JUMPDEST SWAP3 POP POP PUSH1 0x20 DUP4 ADD CALLDATALOAD PUSH8 0xFFFFFFFFFFFFFFFF DUP2 GT ISZERO PUSH2 0x2BDA JUMPI PUSH2 0x2BD9 PUSH2 0x260C JUMP JUMPDEST JUMPDEST PUSH2 0x2BE6 DUP6 DUP3 DUP7 ADD PUSH2 0x2729 JUMP JUMPDEST SWAP2 POP POP SWAP3 POP SWAP3 SWAP1 POP JUMP JUMPDEST PUSH2 0x2BF9 DUP2 PUSH2 0x281F JUMP JUMPDEST DUP2 EQ PUSH2 0x2C04 JUMPI PUSH1 0x0 DUP1 REVERT JUMPDEST POP JUMP JUMPDEST PUSH1 0x0 DUP2 CALLDATALOAD SWAP1 POP PUSH2 0x2C16 DUP2 PUSH2 0x2BF0 JUMP JUMPDEST SWAP3 SWAP2 POP POP JUMP JUMPDEST PUSH1 0x0 PUSH1 0x20 DUP3 DUP5 SUB SLT ISZERO PUSH2 0x2C32 JUMPI PUSH2 0x2C31 PUSH2 0x2607 JUMP JUMPDEST JUMPDEST PUSH1 0x0 PUSH2 0x2C40 DUP5 DUP3 DUP6 ADD PUSH2 0x2C07 JUMP JUMPDEST SWAP2 POP POP SWAP3 SWAP2 POP POP JUMP JUMPDEST PUSH1 0x0 PUSH1 0x20 DUP3 ADD SWAP1 POP DUP2 DUP2 SUB PUSH1 0x0 DUP4 ADD MSTORE PUSH2 0x2C63 DUP2 DUP5 PUSH2 0x27E6 JUMP JUMPDEST SWAP1 POP SWAP3 SWAP2 POP POP JUMP JUMPDEST PUSH1 0x0 DUP1 PUSH1 0x0 DUP1 PUSH1 0x0 DUP1 PUSH1 0x0 DUP1 PUSH1 0x0 DUP1 PUSH2 0x140 DUP12 DUP14 SUB SLT ISZERO PUSH2 0x2C8F JUMPI PUSH2 0x2C8E PUSH2 0x2607 JUMP JUMPDEST JUMPDEST PUSH1 0x0 DUP12 ADD CALLDATALOAD PUSH8 0xFFFFFFFFFFFFFFFF DUP2 GT ISZERO PUSH2 0x2CAD JUMPI PUSH2 0x2CAC PUSH2 0x260C JUMP JUMPDEST JUMPDEST PUSH2 0x2CB9 DUP14 DUP3 DUP15 ADD PUSH2 0x2729 JUMP JUMPDEST SWAP11 POP POP PUSH1 0x20 DUP12 ADD CALLDATALOAD PUSH8 0xFFFFFFFFFFFFFFFF DUP2 GT ISZERO PUSH2 0x2CDA JUMPI PUSH2 0x2CD9 PUSH2 0x260C JUMP JUMPDEST JUMPDEST PUSH2 0x2CE6 DUP14 DUP3 DUP15 ADD PUSH2 0x2729 JUMP JUMPDEST SWAP10 POP POP PUSH1 0x40 DUP12 ADD CALLDATALOAD PUSH8 0xFFFFFFFFFFFFFFFF DUP2 GT ISZERO PUSH2 0x2D07 JUMPI PUSH2 0x2D06 PUSH2 0x260C JUMP JUMPDEST JUMPDEST PUSH2 0x2D13 DUP14 DUP3 DUP15 ADD PUSH2 0x2729 JUMP JUMPDEST SWAP9 POP POP PUSH1 0x60 DUP12 ADD CALLDATALOAD PUSH8 0xFFFFFFFFFFFFFFFF DUP2 GT ISZERO PUSH2 0x2D34 JUMPI PUSH2 0x2D33 PUSH2 0x260C JUMP JUMPDEST JUMPDEST PUSH2 0x2D40 DUP14 DUP3 DUP15 ADD PUSH2 0x2729 JUMP JUMPDEST SWAP8 POP POP PUSH1 0x80 DUP12 ADD CALLDATALOAD PUSH8 0xFFFFFFFFFFFFFFFF DUP2 GT ISZERO PUSH2 0x2D61 JUMPI PUSH2 0x2D60 PUSH2 0x260C JUMP JUMPDEST JUMPDEST PUSH2 0x2D6D DUP14 DUP3 DUP15 ADD PUSH2 0x2729 JUMP JUMPDEST SWAP7 POP POP PUSH1 0xA0 DUP12 ADD CALLDATALOAD PUSH8 0xFFFFFFFFFFFFFFFF DUP2 GT ISZERO PUSH2 0x2D8E JUMPI PUSH2 0x2D8D PUSH2 0x260C JUMP JUMPDEST JUMPDEST PUSH2 0x2D9A DUP14 DUP3 DUP15 ADD PUSH2 0x2729 JUMP JUMPDEST SWAP6 POP POP PUSH1 0xC0 PUSH2 0x2DAB DUP14 DUP3 DUP15 ADD PUSH2 0x2C07 JUMP JUMPDEST SWAP5 POP POP PUSH1 0xE0 PUSH2 0x2DBC DUP14 DUP3 DUP15 ADD PUSH2 0x2C07 JUMP JUMPDEST SWAP4 POP POP PUSH2 0x100 DUP12 ADD CALLDATALOAD PUSH8 0xFFFFFFFFFFFFFFFF DUP2 GT ISZERO PUSH2 0x2DDE JUMPI PUSH2 0x2DDD PUSH2 0x260C JUMP JUMPDEST JUMPDEST PUSH2 0x2DEA DUP14 DUP3 DUP15 ADD PUSH2 0x2729 JUMP JUMPDEST SWAP3 POP POP PUSH2 0x120 PUSH2 0x2DFC DUP14 DUP3 DUP15 ADD PUSH2 0x2C07 JUMP JUMPDEST SWAP2 POP POP SWAP3 SWAP6 SWAP9 SWAP12 SWAP2 SWAP5 SWAP8 SWAP11 POP SWAP3 SWAP6 SWAP9 POP JUMP JUMPDEST PUSH1 0x0 PUSH2 0x160 DUP4 ADD PUSH1 0x0 DUP4 ADD MLOAD DUP5 DUP3 SUB PUSH1 0x0 DUP7 ADD MSTORE PUSH2 0x2E2C DUP3 DUP3 PUSH2 0x2958 JUMP JUMPDEST SWAP2 POP POP PUSH1 0x20 DUP4 ADD MLOAD DUP5 DUP3 SUB PUSH1 0x20 DUP7 ADD MSTORE PUSH2 0x2E46 DUP3 DUP3 PUSH2 0x2958 JUMP JUMPDEST SWAP2 POP POP PUSH1 0x40 DUP4 ADD MLOAD DUP5 DUP3 SUB PUSH1 0x40 DUP7 ADD MSTORE PUSH2 0x2E60 DUP3 DUP3 PUSH2 0x2958 JUMP JUMPDEST SWAP2 POP POP PUSH1 0x60 DUP4 ADD MLOAD DUP5 DUP3 SUB PUSH1 0x60 DUP7 ADD MSTORE PUSH2 0x2E7A DUP3 DUP3 PUSH2 0x2958 JUMP JUMPDEST SWAP2 POP POP PUSH1 0x80 DUP4 ADD MLOAD DUP5 DUP3 SUB PUSH1 0x80 DUP7 ADD MSTORE PUSH2 0x2E94 DUP3 DUP3 PUSH2 0x2958 JUMP JUMPDEST SWAP2 POP POP PUSH1 0xA0 DUP4 ADD MLOAD DUP5 DUP3 SUB PUSH1 0xA0 DUP7 ADD MSTORE PUSH2 0x2EAE DUP3 DUP3 PUSH2 0x2958 JUMP JUMPDEST SWAP2 POP POP PUSH1 0xC0 DUP4 ADD MLOAD PUSH2 0x2EC3 PUSH1 0xC0 DUP7 ADD DUP3 PUSH2 0x2991 JUMP JUMPDEST POP PUSH1 0xE0 DUP4 ADD MLOAD PUSH2 0x2ED6 PUSH1 0xE0 DUP7 ADD DUP3 PUSH2 0x2991 JUMP JUMPDEST POP PUSH2 0x100 DUP4 ADD MLOAD DUP5 DUP3 SUB PUSH2 0x100 DUP7 ADD MSTORE PUSH2 0x2EF0 DUP3 DUP3 PUSH2 0x2958 JUMP JUMPDEST SWAP2 POP POP PUSH2 0x120 DUP4 ADD MLOAD DUP5 DUP3 SUB PUSH2 0x120 DUP7 ADD MSTORE PUSH2 0x2F0C DUP3 DUP3 PUSH2 0x2958 JUMP JUMPDEST SWAP2 POP POP PUSH2 0x140 DUP4 ADD MLOAD PUSH2 0x2F23 PUSH2 0x140 DUP7 ADD DUP3 PUSH2 0x2991 JUMP JUMPDEST POP DUP1 SWAP2 POP POP SWAP3 SWAP2 POP POP JUMP JUMPDEST PUSH1 0x0 PUSH1 0x20 DUP3 ADD SWAP1 POP DUP2 DUP2 SUB PUSH1 0x0 DUP4 ADD MSTORE PUSH2 0x2F48 DUP2 DUP5 PUSH2 0x2E0E JUMP JUMPDEST SWAP1 POP SWAP3 SWAP2 POP POP JUMP JUMPDEST PUSH32 0x4E487B7100000000000000000000000000000000000000000000000000000000 PUSH1 0x0 MSTORE PUSH1 0x22 PUSH1 0x4 MSTORE PUSH1 0x24 PUSH1 0x0 REVERT JUMPDEST PUSH1 0x0 PUSH1 0x2 DUP3 DIV SWAP1 POP PUSH1 0x1 DUP3 AND DUP1 PUSH2 0x2F97 JUMPI PUSH1 0x7F DUP3 AND SWAP2 POP JUMPDEST PUSH1 0x20 DUP3 LT DUP2 SUB PUSH2 0x2FAA JUMPI PUSH2 0x2FA9 PUSH2 0x2F50 JUMP JUMPDEST JUMPDEST POP SWAP2 SWAP1 POP JUMP JUMPDEST PUSH32 0x4E487B7100000000000000000000000000000000000000000000000000000000 PUSH1 0x0 MSTORE PUSH1 0x32 PUSH1 0x4 MSTORE PUSH1 0x24 PUSH1 0x0 REVERT JUMPDEST PUSH1 0x0 DUP2 SWAP1 POP SWAP3 SWAP2 POP POP JUMP JUMPDEST PUSH1 0x0 DUP2 SWAP1 POP DUP2 PUSH1 0x0 MSTORE PUSH1 0x20 PUSH1 0x0 KECCAK256 SWAP1 POP SWAP2 SWAP1 POP JUMP JUMPDEST PUSH1 0x0 DUP2 SLOAD PUSH2 0x300C DUP2 PUSH2 0x2F7F JUMP JUMPDEST PUSH2 0x3016 DUP2 DUP7 PUSH2 0x2FDF JUMP JUMPDEST SWAP5 POP PUSH1 0x1 DUP3 AND PUSH1 0x0 DUP2 EQ PUSH2 0x3031 JUMPI PUSH1 0x1 DUP2 EQ PUSH2 0x3046 JUMPI PUSH2 0x3079 JUMP JUMPDEST PUSH1 0xFF NOT DUP4 AND DUP7 MSTORE DUP2 ISZERO ISZERO DUP3 MUL DUP7 ADD SWAP4 POP PUSH2 0x3079 JUMP JUMPDEST PUSH2 0x304F DUP6 PUSH2 0x2FEA JUMP JUMPDEST PUSH1 0x0 JUMPDEST DUP4 DUP2 LT ISZERO PUSH2 0x3071 JUMPI DUP2 SLOAD DUP2 DUP10 ADD MSTORE PUSH1 0x1 DUP3 ADD SWAP2 POP PUSH1 0x20 DUP2 ADD SWAP1 POP PUSH2 0x3052 JUMP JUMPDEST DUP4 DUP9 ADD SWAP6 POP POP POP JUMPDEST POP POP POP SWAP3 SWAP2 POP POP JUMP JUMPDEST PUSH1 0x0 PUSH2 0x308E DUP3 DUP5 PUSH2 0x2FFF JUMP JUMPDEST SWAP2 POP DUP2 SWAP1 POP SWAP3 SWAP2 POP POP JUMP JUMPDEST PUSH32 0x4E487B7100000000000000000000000000000000000000000000000000000000 PUSH1 0x0 MSTORE PUSH1 0x11 PUSH1 0x4 MSTORE PUSH1 0x24 PUSH1 0x0 REVERT JUMPDEST PUSH1 0x0 PUSH2 0x30D3 DUP3 PUSH2 0x281F JUMP JUMPDEST SWAP2 POP PUSH32 0xFFFFFFFFFFFFFFFFFFFFFFFFFFFFFFFFFFFFFFFFFFFFFFFFFFFFFFFFFFFFFFFF DUP3 SUB PUSH2 0x3105 JUMPI PUSH2 0x3104 PUSH2 0x3099 JUMP JUMPDEST JUMPDEST PUSH1 0x1 DUP3 ADD SWAP1 POP SWAP2 SWAP1 POP JUMP JUMPDEST PUSH1 0x0 PUSH2 0x311B DUP3 PUSH2 0x27A0 JUMP JUMPDEST PUSH2 0x3125 DUP2 DUP6 PUSH2 0x2FDF JUMP JUMPDEST SWAP4 POP PUSH2 0x3135 DUP2 DUP6 PUSH1 0x20 DUP7 ADD PUSH2 0x27BC JUMP JUMPDEST DUP1 DUP5 ADD SWAP2 POP POP SWAP3 SWAP2 POP POP JUMP JUMPDEST PUSH1 0x0 PUSH2 0x314D DUP3 DUP5 PUSH2 0x3110 JUMP JUMPDEST SWAP2 POP DUP2 SWAP1 POP SWAP3 SWAP2 POP POP JUMP JUMPDEST PUSH32 0x5472616E73616374696F6E20646F6573206E6F74206578697374000000000000 PUSH1 0x0 DUP3 ADD MSTORE POP JUMP JUMPDEST PUSH1 0x0 PUSH2 0x318E PUSH1 0x1A DUP4 PUSH2 0x27AB JUMP JUMPDEST SWAP2 POP PUSH2 0x3199 DUP3 PUSH2 0x3158 JUMP JUMPDEST PUSH1 0x20 DUP3 ADD SWAP1 POP SWAP2 SWAP1 POP JUMP JUMPDEST PUSH1 0x0 PUSH1 0x20 DUP3 ADD SWAP1 POP DUP2 DUP2 SUB PUSH1 0x0 DUP4 ADD MSTORE PUSH2 0x31BD DUP2 PUSH2 0x3181 JUMP JUMPDEST SWAP1 POP SWAP2 SWAP1 POP JUMP JUMPDEST PUSH1 0x0 PUSH1 0x20 PUSH1 0x1F DUP4 ADD DIV SWAP1 POP SWAP2 SWAP1 POP JUMP JUMPDEST PUSH1 0x0 DUP3 DUP3 SHL SWAP1 POP SWAP3 SWAP2 POP POP JUMP JUMPDEST PUSH1 0x0 PUSH1 0x8 DUP4 MUL PUSH2 0x3211 PUSH32 0xFFFFFFFFFFFFFFFFFFFFFFFFFFFFFFFFFFFFFFFFFFFFFFFFFFFFFFFFFFFFFFFF DUP3 PUSH2 0x31D4 JUMP JUMPDEST PUSH2 0x321B DUP7 DUP4 PUSH2 0x31D4 JUMP JUMPDEST SWAP6 POP DUP1 NOT DUP5 AND SWAP4 POP DUP1 DUP7 AND DUP5 OR SWAP3 POP POP POP SWAP4 SWAP3 POP POP POP JUMP JUMPDEST PUSH1 0x0 DUP2 SWAP1 POP SWAP2 SWAP1 POP JUMP JUMPDEST PUSH1 0x0 PUSH2 0x3258 PUSH2 0x3253 PUSH2 0x324E DUP5 PUSH2 0x281F JUMP JUMPDEST PUSH2 0x3233 JUMP JUMPDEST PUSH2 0x281F JUMP JUMPDEST SWAP1 POP SWAP2 SWAP1 POP JUMP JUMPDEST PUSH1 0x0 DUP2 SWAP1 POP SWAP2 SWAP1 POP JUMP JUMPDEST PUSH2 0x3272 DUP4 PUSH2 0x323D JUMP JUMPDEST PUSH2 0x3286 PUSH2 0x327E DUP3 PUSH2 0x325F JUMP JUMPDEST DUP5 DUP5 SLOAD PUSH2 0x31E1 JUMP JUMPDEST DUP3 SSTORE POP POP POP POP JUMP JUMPDEST PUSH1 0x0 SWAP1 JUMP JUMPDEST PUSH2 0x329B PUSH2 0x328E JUMP JUMPDEST PUSH2 0x32A6 DUP2 DUP5 DUP5 PUSH2 0x3269 JUMP JUMPDEST POP POP POP JUMP JUMPDEST JUMPDEST DUP2 DUP2 LT ISZERO PUSH2 0x32CA JUMPI PUSH2 0x32BF PUSH1 0x0 DUP3 PUSH2 0x3293 JUMP JUMPDEST PUSH1 0x1 DUP2 ADD SWAP1 POP PUSH2 0x32AC JUMP JUMPDEST POP POP JUMP JUMPDEST PUSH1 0x1F DUP3 GT ISZERO PUSH2 0x330F JUMPI PUSH2 0x32E0 DUP2 PUSH2 0x2FEA JUMP JUMPDEST PUSH2 0x32E9 DUP5 PUSH2 0x31C4 JUMP JUMPDEST DUP2 ADD PUSH1 0x20 DUP6 LT ISZERO PUSH2 0x32F8 JUMPI DUP2 SWAP1 POP JUMPDEST PUSH2 0x330C PUSH2 0x3304 DUP6 PUSH2 0x31C4 JUMP JUMPDEST DUP4 ADD DUP3 PUSH2 0x32AB JUMP JUMPDEST POP POP JUMPDEST POP POP POP JUMP JUMPDEST PUSH1 0x0 DUP3 DUP3 SHR SWAP1 POP SWAP3 SWAP2 POP POP JUMP JUMPDEST PUSH1 0x0 PUSH2 0x3332 PUSH1 0x0 NOT DUP5 PUSH1 0x8 MUL PUSH2 0x3314 JUMP JUMPDEST NOT DUP1 DUP4 AND SWAP2 POP POP SWAP3 SWAP2 POP POP JUMP JUMPDEST PUSH1 0x0 PUSH2 0x334B DUP4 DUP4 PUSH2 0x3321 JUMP JUMPDEST SWAP2 POP DUP3 PUSH1 0x2 MUL DUP3 OR SWAP1 POP SWAP3 SWAP2 POP POP JUMP JUMPDEST PUSH2 0x3364 DUP3 PUSH2 0x27A0 JUMP JUMPDEST PUSH8 0xFFFFFFFFFFFFFFFF DUP2 GT ISZERO PUSH2 0x337D JUMPI PUSH2 0x337C PUSH2 0x262C JUMP JUMPDEST JUMPDEST PUSH2 0x3387 DUP3 SLOAD PUSH2 0x2F7F JUMP JUMPDEST PUSH2 0x3392 DUP3 DUP3 DUP6 PUSH2 0x32CE JUMP JUMPDEST PUSH1 0x0 PUSH1 0x20 SWAP1 POP PUSH1 0x1F DUP4 GT PUSH1 0x1 DUP2 EQ PUSH2 0x33C5 JUMPI PUSH1 0x0 DUP5 ISZERO PUSH2 0x33B3 JUMPI DUP3 DUP8 ADD MLOAD SWAP1 POP JUMPDEST PUSH2 0x33BD DUP6 DUP3 PUSH2 0x333F JUMP JUMPDEST DUP7 SSTORE POP PUSH2 0x3425 JUMP JUMPDEST PUSH1 0x1F NOT DUP5 AND PUSH2 0x33D3 DUP7 PUSH2 0x2FEA JUMP JUMPDEST PUSH1 0x0 JUMPDEST DUP3 DUP2 LT ISZERO PUSH2 0x33FB JUMPI DUP5 DUP10 ADD MLOAD DUP3 SSTORE PUSH1 0x1 DUP3 ADD SWAP2 POP PUSH1 0x20 DUP6 ADD SWAP5 POP PUSH1 0x20 DUP2 ADD SWAP1 POP PUSH2 0x33D6 JUMP JUMPDEST DUP7 DUP4 LT ISZERO PUSH2 0x3418 JUMPI DUP5 DUP10 ADD MLOAD PUSH2 0x3414 PUSH1 0x1F DUP10 AND DUP3 PUSH2 0x3321 JUMP JUMPDEST DUP4 SSTORE POP JUMPDEST PUSH1 0x1 PUSH1 0x2 DUP9 MUL ADD DUP9 SSTORE POP POP POP JUMPDEST POP POP POP POP POP POP JUMP JUMPDEST PUSH1 0x0 PUSH1 0x40 DUP3 ADD SWAP1 POP DUP2 DUP2 SUB PUSH1 0x0 DUP4 ADD MSTORE PUSH2 0x3447 DUP2 DUP6 PUSH2 0x27E6 JUMP JUMPDEST SWAP1 POP DUP2 DUP2 SUB PUSH1 0x20 DUP4 ADD MSTORE PUSH2 0x345B DUP2 DUP5 PUSH2 0x27E6 JUMP JUMPDEST SWAP1 POP SWAP4 SWAP3 POP POP POP JUMP JUMPDEST PUSH32 0x7061696400000000000000000000000000000000000000000000000000000000 PUSH1 0x0 DUP3 ADD MSTORE POP JUMP JUMPDEST PUSH1 0x0 PUSH2 0x349A PUSH1 0x4 DUP4 PUSH2 0x27AB JUMP JUMPDEST SWAP2 POP PUSH2 0x34A5 DUP3 PUSH2 0x3464 JUMP JUMPDEST PUSH1 0x20 DUP3 ADD SWAP1 POP SWAP2 SWAP1 POP JUMP JUMPDEST PUSH1 0x0 PUSH1 0x40 DUP3 ADD SWAP1 POP DUP2 DUP2 SUB PUSH1 0x0 DUP4 ADD MSTORE PUSH2 0x34CA DUP2 DUP5 PUSH2 0x27E6 JUMP JUMPDEST SWAP1 POP DUP2 DUP2 SUB PUSH1 0x20 DUP4 ADD MSTORE PUSH2 0x34DD DUP2 PUSH2 0x348D JUMP JUMPDEST SWAP1 POP SWAP3 SWAP2 POP POP JUMP JUMPDEST PUSH32 0x6E756C6C00000000000000000000000000000000000000000000000000000000 PUSH1 0x0 DUP3 ADD MSTORE POP JUMP JUMPDEST PUSH1 0x0 PUSH2 0x351B PUSH1 0x4 DUP4 PUSH2 0x27AB JUMP JUMPDEST SWAP2 POP PUSH2 0x3526 DUP3 PUSH2 0x34E5 JUMP JUMPDEST PUSH1 0x20 DUP3 ADD SWAP1 POP SWAP2 SWAP1 POP JUMP JUMPDEST PUSH1 0x0 PUSH2 0x160 DUP3 ADD SWAP1 POP DUP2 DUP2 SUB PUSH1 0x0 DUP4 ADD MSTORE PUSH2 0x354C DUP2 DUP14 PUSH2 0x27E6 JUMP JUMPDEST SWAP1 POP DUP2 DUP2 SUB PUSH1 0x20 DUP4 ADD MSTORE PUSH2 0x3560 DUP2 DUP13 PUSH2 0x27E6 JUMP JUMPDEST SWAP1 POP DUP2 DUP2 SUB PUSH1 0x40 DUP4 ADD MSTORE PUSH2 0x3574 DUP2 DUP12 PUSH2 0x27E6 JUMP JUMPDEST SWAP1 POP DUP2 DUP2 SUB PUSH1 0x60 DUP4 ADD MSTORE PUSH2 0x3588 DUP2 DUP11 PUSH2 0x27E6 JUMP JUMPDEST SWAP1 POP DUP2 DUP2 SUB PUSH1 0x80 DUP4 ADD MSTORE PUSH2 0x359C DUP2 DUP10 PUSH2 0x27E6 JUMP JUMPDEST SWAP1 POP DUP2 DUP2 SUB PUSH1 0xA0 DUP4 ADD MSTORE PUSH2 0x35B0 DUP2 DUP9 PUSH2 0x27E6 JUMP JUMPDEST SWAP1 POP PUSH2 0x35BF PUSH1 0xC0 DUP4 ADD DUP8 PUSH2 0x2829 JUMP JUMPDEST PUSH2 0x35CC PUSH1 0xE0 DUP4 ADD DUP7 PUSH2 0x2829 JUMP JUMPDEST DUP2 DUP2 SUB PUSH2 0x100 DUP4 ADD MSTORE PUSH2 0x35DF DUP2 DUP6 PUSH2 0x27E6 JUMP JUMPDEST SWAP1 POP DUP2 DUP2 SUB PUSH2 0x120 DUP4 ADD MSTORE PUSH2 0x35F3 DUP2 PUSH2 0x350E JUMP JUMPDEST SWAP1 POP PUSH2 0x3603 PUSH2 0x140 DUP4 ADD DUP5 PUSH2 0x2829 JUMP JUMPDEST SWAP12 SWAP11 POP POP POP POP POP POP POP POP POP POP POP JUMP INVALID LOG2 PUSH5 0x6970667358 0x22 SLT KECCAK256 0xB2 0xC8 CALLDATACOPY PUSH22 0xD9E228F5917DB447A22AFE2CCA3794BE806AA48180EB 0x28 0xEE 0xB8 SELFBALANCE SELFDESTRUCT ADDRESS PUSH5 0x736F6C6343 STOP ADDMOD LT STOP CALLER "
				},
				"gasEstimates": {
					"creation": {
						"codeDepositCost": "2779200",
						"executionCost": "3030",
						"totalCost": "2782230"
					},
					"external": {
						"addTransaction(string,string,string,string,string,string,uint256,uint256,string,uint256)": "infinite",
						"getAllTransactions()": "infinite",
						"getTransactionByCampaignId(string)": "infinite",
						"getTransactionByCode(string)": "infinite",
						"getTransactionByFromToUserId(string)": "infinite",
						"transactionCodes(uint256)": "infinite",
						"transactions(string)": "infinite",
						"updatePaymentProof(string,string)": "infinite",
						"updatePaymentStatus(string,string)": "infinite",
						"updateStatus(string,string)": "infinite"
					}
				},
				"methodIdentifiers": {
					"addTransaction(string,string,string,string,string,string,uint256,uint256,string,uint256)": "814cb8eb",
					"getAllTransactions()": "27506f53",
					"getTransactionByCampaignId(string)": "9db897dd",
					"getTransactionByCode(string)": "d339b0ec",
					"getTransactionByFromToUserId(string)": "7ee9ed47",
					"transactionCodes(uint256)": "7ce99c58",
					"transactions(string)": "022236f4",
					"updatePaymentProof(string,string)": "2b47300d",
					"updatePaymentStatus(string,string)": "fff50461",
					"updateStatus(string,string)": "347047cc"
				}
			},
			"storageLayout": {
				"storage": [
					{
						"astId": 29,
						"contract": "contracts/TransactionContract14Juni.sol:TransactionContract",
						"label": "transactions",
						"offset": 0,
						"slot": "0",
						"type": "t_mapping(t_string_memory_ptr,t_struct(Transaction)24_storage)"
					},
					{
						"astId": 32,
						"contract": "contracts/TransactionContract14Juni.sol:TransactionContract",
						"label": "transactionCodes",
						"offset": 0,
						"slot": "1",
						"type": "t_array(t_string_storage)dyn_storage"
					}
				],
				"types": {
					"t_array(t_string_storage)dyn_storage": {
						"base": "t_string_storage",
						"encoding": "dynamic_array",
						"label": "string[]",
						"numberOfBytes": "32"
					},
					"t_mapping(t_string_memory_ptr,t_struct(Transaction)24_storage)": {
						"encoding": "mapping",
						"key": "t_string_memory_ptr",
						"label": "mapping(string => struct TransactionContract.Transaction)",
						"numberOfBytes": "32",
						"value": "t_struct(Transaction)24_storage"
					},
					"t_string_memory_ptr": {
						"encoding": "bytes",
						"label": "string",
						"numberOfBytes": "32"
					},
					"t_string_storage": {
						"encoding": "bytes",
						"label": "string",
						"numberOfBytes": "32"
					},
					"t_struct(Transaction)24_storage": {
						"encoding": "inplace",
						"label": "struct TransactionContract.Transaction",
						"members": [
							{
								"astId": 3,
								"contract": "contracts/TransactionContract14Juni.sol:TransactionContract",
								"label": "transactionCode",
								"offset": 0,
								"slot": "0",
								"type": "t_string_storage"
							},
							{
								"astId": 5,
								"contract": "contracts/TransactionContract14Juni.sol:TransactionContract",
								"label": "campaignId",
								"offset": 0,
								"slot": "1",
								"type": "t_string_storage"
							},
							{
								"astId": 7,
								"contract": "contracts/TransactionContract14Juni.sol:TransactionContract",
								"label": "fromToUserId",
								"offset": 0,
								"slot": "2",
								"type": "t_string_storage"
							},
							{
								"astId": 9,
								"contract": "contracts/TransactionContract14Juni.sol:TransactionContract",
								"label": "orderType",
								"offset": 0,
								"slot": "3",
								"type": "t_string_storage"
							},
							{
								"astId": 11,
								"contract": "contracts/TransactionContract14Juni.sol:TransactionContract",
								"label": "paymentStatus",
								"offset": 0,
								"slot": "4",
								"type": "t_string_storage"
							},
							{
								"astId": 13,
								"contract": "contracts/TransactionContract14Juni.sol:TransactionContract",
								"label": "status",
								"offset": 0,
								"slot": "5",
								"type": "t_string_storage"
							},
							{
								"astId": 15,
								"contract": "contracts/TransactionContract14Juni.sol:TransactionContract",
								"label": "quantity",
								"offset": 0,
								"slot": "6",
								"type": "t_uint256"
							},
							{
								"astId": 17,
								"contract": "contracts/TransactionContract14Juni.sol:TransactionContract",
								"label": "totalPrice",
								"offset": 0,
								"slot": "7",
								"type": "t_uint256"
							},
							{
								"astId": 19,
								"contract": "contracts/TransactionContract14Juni.sol:TransactionContract",
								"label": "paymentMethodDetailId",
								"offset": 0,
								"slot": "8",
								"type": "t_string_storage"
							},
							{
								"astId": 21,
								"contract": "contracts/TransactionContract14Juni.sol:TransactionContract",
								"label": "paymentProof",
								"offset": 0,
								"slot": "9",
								"type": "t_string_storage"
							},
							{
								"astId": 23,
								"contract": "contracts/TransactionContract14Juni.sol:TransactionContract",
								"label": "createdAt",
								"offset": 0,
								"slot": "10",
								"type": "t_uint256"
							}
						],
						"numberOfBytes": "352"
					},
					"t_uint256": {
						"encoding": "inplace",
						"label": "uint256",
						"numberOfBytes": "32"
					}
				}
			},
			"userdoc": {
				"kind": "user",
				"methods": {},
				"version": 1
			}
		}
	}
}