{
	"contracts/TransactionContract8Juni.sol": {
		"TransactionContract": {
			"abi": [
				{
					"inputs": [],
					"stateMutability": "nonpayable",
					"type": "constructor"
				},
				{
					"anonymous": false,
					"inputs": [
						{
							"indexed": false,
							"internalType": "string",
							"name": "transactionCode",
							"type": "string"
						},
						{
							"indexed": false,
							"internalType": "string",
							"name": "newPaymentStatus",
							"type": "string"
						}
					],
					"name": "PaymentStatusUpdated",
					"type": "event"
				},
				{
					"anonymous": false,
					"inputs": [
						{
							"indexed": false,
							"internalType": "string",
							"name": "transactionCode",
							"type": "string"
						},
						{
							"indexed": false,
							"internalType": "string",
							"name": "newStatus",
							"type": "string"
						}
					],
					"name": "StatusUpdated",
					"type": "event"
				},
				{
					"anonymous": false,
					"inputs": [
						{
							"indexed": false,
							"internalType": "string",
							"name": "transactionCode",
							"type": "string"
						},
						{
							"indexed": false,
							"internalType": "uint256",
							"name": "campaignId",
							"type": "uint256"
						},
						{
							"indexed": false,
							"internalType": "uint256",
							"name": "fromToUserId",
							"type": "uint256"
						},
						{
							"indexed": false,
							"internalType": "string",
							"name": "orderType",
							"type": "string"
						},
						{
							"indexed": false,
							"internalType": "string",
							"name": "paymentStatus",
							"type": "string"
						},
						{
							"indexed": false,
							"internalType": "string",
							"name": "status",
							"type": "string"
						},
						{
							"indexed": false,
							"internalType": "uint256",
							"name": "quantity",
							"type": "uint256"
						},
						{
							"indexed": false,
							"internalType": "uint256",
							"name": "totalPrice",
							"type": "uint256"
						},
						{
							"indexed": false,
							"internalType": "uint256",
							"name": "createdAt",
							"type": "uint256"
						}
					],
					"name": "TransactionAdded",
					"type": "event"
				},
				{
					"inputs": [
						{
							"internalType": "string",
							"name": "_transactionCode",
							"type": "string"
						},
						{
							"internalType": "uint256",
							"name": "_campaignId",
							"type": "uint256"
						},
						{
							"internalType": "uint256",
							"name": "_fromToUserId",
							"type": "uint256"
						},
						{
							"internalType": "string",
							"name": "_orderType",
							"type": "string"
						},
						{
							"internalType": "string",
							"name": "_paymentStatus",
							"type": "string"
						},
						{
							"internalType": "string",
							"name": "_status",
							"type": "string"
						},
						{
							"internalType": "uint256",
							"name": "_quantity",
							"type": "uint256"
						},
						{
							"internalType": "uint256",
							"name": "_totalPrice",
							"type": "uint256"
						},
						{
							"internalType": "uint256",
							"name": "_createdAt",
							"type": "uint256"
						}
					],
					"name": "addTransaction",
					"outputs": [],
					"stateMutability": "nonpayable",
					"type": "function"
				},
				{
					"inputs": [],
					"name": "getAllTransactions",
					"outputs": [
						{
							"components": [
								{
									"internalType": "string",
									"name": "transactionCode",
									"type": "string"
								},
								{
									"internalType": "uint256",
									"name": "campaignId",
									"type": "uint256"
								},
								{
									"internalType": "uint256",
									"name": "fromToUserId",
									"type": "uint256"
								},
								{
									"internalType": "string",
									"name": "orderType",
									"type": "string"
								},
								{
									"internalType": "string",
									"name": "paymentStatus",
									"type": "string"
								},
								{
									"internalType": "string",
									"name": "status",
									"type": "string"
								},
								{
									"internalType": "uint256",
									"name": "quantity",
									"type": "uint256"
								},
								{
									"internalType": "uint256",
									"name": "totalPrice",
									"type": "uint256"
								},
								{
									"internalType": "uint256",
									"name": "createdAt",
									"type": "uint256"
								}
							],
							"internalType": "struct TransactionContract.Transaction[]",
							"name": "",
							"type": "tuple[]"
						}
					],
					"stateMutability": "view",
					"type": "function"
				},
				{
					"inputs": [
						{
							"internalType": "string",
							"name": "_transactionCode",
							"type": "string"
						}
					],
					"name": "getTransactionByCode",
					"outputs": [
						{
							"components": [
								{
									"internalType": "string",
									"name": "transactionCode",
									"type": "string"
								},
								{
									"internalType": "uint256",
									"name": "campaignId",
									"type": "uint256"
								},
								{
									"internalType": "uint256",
									"name": "fromToUserId",
									"type": "uint256"
								},
								{
									"internalType": "string",
									"name": "orderType",
									"type": "string"
								},
								{
									"internalType": "string",
									"name": "paymentStatus",
									"type": "string"
								},
								{
									"internalType": "string",
									"name": "status",
									"type": "string"
								},
								{
									"internalType": "uint256",
									"name": "quantity",
									"type": "uint256"
								},
								{
									"internalType": "uint256",
									"name": "totalPrice",
									"type": "uint256"
								},
								{
									"internalType": "uint256",
									"name": "createdAt",
									"type": "uint256"
								}
							],
							"internalType": "struct TransactionContract.Transaction",
							"name": "",
							"type": "tuple"
						}
					],
					"stateMutability": "view",
					"type": "function"
				},
				{
					"inputs": [
						{
							"internalType": "uint256",
							"name": "_fromToUserId",
							"type": "uint256"
						}
					],
					"name": "getTransactionByFromToUserId",
					"outputs": [
						{
							"components": [
								{
									"internalType": "string",
									"name": "transactionCode",
									"type": "string"
								},
								{
									"internalType": "uint256",
									"name": "campaignId",
									"type": "uint256"
								},
								{
									"internalType": "uint256",
									"name": "fromToUserId",
									"type": "uint256"
								},
								{
									"internalType": "string",
									"name": "orderType",
									"type": "string"
								},
								{
									"internalType": "string",
									"name": "paymentStatus",
									"type": "string"
								},
								{
									"internalType": "string",
									"name": "status",
									"type": "string"
								},
								{
									"internalType": "uint256",
									"name": "quantity",
									"type": "uint256"
								},
								{
									"internalType": "uint256",
									"name": "totalPrice",
									"type": "uint256"
								},
								{
									"internalType": "uint256",
									"name": "createdAt",
									"type": "uint256"
								}
							],
							"internalType": "struct TransactionContract.Transaction[]",
							"name": "",
							"type": "tuple[]"
						}
					],
					"stateMutability": "view",
					"type": "function"
				},
				{
					"inputs": [
						{
							"internalType": "uint256",
							"name": "",
							"type": "uint256"
						}
					],
					"name": "transactionCodes",
					"outputs": [
						{
							"internalType": "string",
							"name": "",
							"type": "string"
						}
					],
					"stateMutability": "view",
					"type": "function"
				},
				{
					"inputs": [
						{
							"internalType": "string",
							"name": "",
							"type": "string"
						}
					],
					"name": "transactions",
					"outputs": [
						{
							"internalType": "string",
							"name": "transactionCode",
							"type": "string"
						},
						{
							"internalType": "uint256",
							"name": "campaignId",
							"type": "uint256"
						},
						{
							"internalType": "uint256",
							"name": "fromToUserId",
							"type": "uint256"
						},
						{
							"internalType": "string",
							"name": "orderType",
							"type": "string"
						},
						{
							"internalType": "string",
							"name": "paymentStatus",
							"type": "string"
						},
						{
							"internalType": "string",
							"name": "status",
							"type": "string"
						},
						{
							"internalType": "uint256",
							"name": "quantity",
							"type": "uint256"
						},
						{
							"internalType": "uint256",
							"name": "totalPrice",
							"type": "uint256"
						},
						{
							"internalType": "uint256",
							"name": "createdAt",
							"type": "uint256"
						}
					],
					"stateMutability": "view",
					"type": "function"
				},
				{
					"inputs": [
						{
							"internalType": "string",
							"name": "_transactionCode",
							"type": "string"
						},
						{
							"internalType": "string",
							"name": "_newPaymentStatus",
							"type": "string"
						}
					],
					"name": "updatePaymentStatus",
					"outputs": [],
					"stateMutability": "nonpayable",
					"type": "function"
				},
				{
					"inputs": [
						{
							"internalType": "string",
							"name": "_transactionCode",
							"type": "string"
						},
						{
							"internalType": "string",
							"name": "_newStatus",
							"type": "string"
						}
					],
					"name": "updateStatus",
					"outputs": [],
					"stateMutability": "nonpayable",
					"type": "function"
				}
			],
			"devdoc": {
				"kind": "dev",
				"methods": {},
				"version": 1
			},
			"evm": {
				"assembly": "    /* \"contracts/TransactionContract8Juni.sol\":56:4046  contract TransactionContract {... */\n  mstore(0x40, 0x80)\n    /* \"contracts/TransactionContract8Juni.sol\":984:1033  constructor() {... */\n  callvalue\n  dup1\n  iszero\n  tag_1\n  jumpi\n  0x00\n  dup1\n  revert\ntag_1:\n  pop\n    /* \"contracts/TransactionContract8Juni.sol\":56:4046  contract TransactionContract {... */\n  dataSize(sub_0)\n  dup1\n  dataOffset(sub_0)\n  0x00\n  codecopy\n  0x00\n  return\nstop\n\nsub_0: assembly {\n        /* \"contracts/TransactionContract8Juni.sol\":56:4046  contract TransactionContract {... */\n      mstore(0x40, 0x80)\n      callvalue\n      dup1\n      iszero\n      tag_1\n      jumpi\n      0x00\n      dup1\n      revert\n    tag_1:\n      pop\n      jumpi(tag_2, lt(calldatasize, 0x04))\n      shr(0xe0, calldataload(0x00))\n      dup1\n      0x347047cc\n      gt\n      tag_11\n      jumpi\n      dup1\n      0x347047cc\n      eq\n      tag_7\n      jumpi\n      dup1\n      0x7ce99c58\n      eq\n      tag_8\n      jumpi\n      dup1\n      0xd339b0ec\n      eq\n      tag_9\n      jumpi\n      dup1\n      0xfff50461\n      eq\n      tag_10\n      jumpi\n      jump(tag_2)\n    tag_11:\n      dup1\n      0x022236f4\n      eq\n      tag_3\n      jumpi\n      dup1\n      0x21a1c63a\n      eq\n      tag_4\n      jumpi\n      dup1\n      0x27506f53\n      eq\n      tag_5\n      jumpi\n      dup1\n      0x2faa0cca\n      eq\n      tag_6\n      jumpi\n    tag_2:\n      0x00\n      dup1\n      revert\n        /* \"contracts/TransactionContract8Juni.sol\":361:411  mapping(string => Transaction) public transactions */\n    tag_3:\n      tag_12\n      0x04\n      dup1\n      calldatasize\n      sub\n      dup2\n      add\n      swap1\n      tag_13\n      swap2\n      swap1\n      tag_14\n      jump\t// in\n    tag_13:\n      tag_15\n      jump\t// in\n    tag_12:\n      mload(0x40)\n      tag_16\n      swap10\n      swap9\n      swap8\n      swap7\n      swap6\n      swap5\n      swap4\n      swap3\n      swap2\n      swap1\n      tag_17\n      jump\t// in\n    tag_16:\n      mload(0x40)\n      dup1\n      swap2\n      sub\n      swap1\n      return\n        /* \"contracts/TransactionContract8Juni.sol\":1039:2011  function addTransaction(... */\n    tag_4:\n      tag_18\n      0x04\n      dup1\n      calldatasize\n      sub\n      dup2\n      add\n      swap1\n      tag_19\n      swap2\n      swap1\n      tag_20\n      jump\t// in\n    tag_19:\n      tag_21\n      jump\t// in\n    tag_18:\n      stop\n        /* \"contracts/TransactionContract8Juni.sol\":2017:2359  function getAllTransactions() public view returns (Transaction[] memory) {... */\n    tag_5:\n      tag_22\n      tag_23\n      jump\t// in\n    tag_22:\n      mload(0x40)\n      tag_24\n      swap2\n      swap1\n      tag_25\n      jump\t// in\n    tag_24:\n      mload(0x40)\n      dup1\n      swap2\n      sub\n      swap1\n      return\n        /* \"contracts/TransactionContract8Juni.sol\":3071:3767  function getTransactionByFromToUserId(uint _fromToUserId) public view returns (Transaction[] memory) {... */\n    tag_6:\n      tag_26\n      0x04\n      dup1\n      calldatasize\n      sub\n      dup2\n      add\n      swap1\n      tag_27\n      swap2\n      swap1\n      tag_28\n      jump\t// in\n    tag_27:\n      tag_29\n      jump\t// in\n    tag_26:\n      mload(0x40)\n      tag_30\n      swap2\n      swap1\n      tag_25\n      jump\t// in\n    tag_30:\n      mload(0x40)\n      dup1\n      swap2\n      sub\n      swap1\n      return\n        /* \"contracts/TransactionContract8Juni.sol\":2365:2691  function updateStatus(string memory _transactionCode, string memory _newStatus) public {... */\n    tag_7:\n      tag_31\n      0x04\n      dup1\n      calldatasize\n      sub\n      dup2\n      add\n      swap1\n      tag_32\n      swap2\n      swap1\n      tag_33\n      jump\t// in\n    tag_32:\n      tag_34\n      jump\t// in\n    tag_31:\n      stop\n        /* \"contracts/TransactionContract8Juni.sol\":438:470  string[] public transactionCodes */\n    tag_8:\n      tag_35\n      0x04\n      dup1\n      calldatasize\n      sub\n      dup2\n      add\n      swap1\n      tag_36\n      swap2\n      swap1\n      tag_28\n      jump\t// in\n    tag_36:\n      tag_37\n      jump\t// in\n    tag_35:\n      mload(0x40)\n      tag_38\n      swap2\n      swap1\n      tag_39\n      jump\t// in\n    tag_38:\n      mload(0x40)\n      dup1\n      swap2\n      sub\n      swap1\n      return\n        /* \"contracts/TransactionContract8Juni.sol\":3773:4044  function getTransactionByCode(string memory _transactionCode) public view returns (Transaction memory) {... */\n    tag_9:\n      tag_40\n      0x04\n      dup1\n      calldatasize\n      sub\n      dup2\n      add\n      swap1\n      tag_41\n      swap2\n      swap1\n      tag_14\n      jump\t// in\n    tag_41:\n      tag_42\n      jump\t// in\n    tag_40:\n      mload(0x40)\n      tag_43\n      swap2\n      swap1\n      tag_44\n      jump\t// in\n    tag_43:\n      mload(0x40)\n      dup1\n      swap2\n      sub\n      swap1\n      return\n        /* \"contracts/TransactionContract8Juni.sol\":2697:3065  function updatePaymentStatus(string memory _transactionCode, string memory _newPaymentStatus) public {... */\n    tag_10:\n      tag_45\n      0x04\n      dup1\n      calldatasize\n      sub\n      dup2\n      add\n      swap1\n      tag_46\n      swap2\n      swap1\n      tag_33\n      jump\t// in\n    tag_46:\n      tag_47\n      jump\t// in\n    tag_45:\n      stop\n        /* \"contracts/TransactionContract8Juni.sol\":361:411  mapping(string => Transaction) public transactions */\n    tag_15:\n      0x00\n      dup2\n      dup1\n      mload\n      0x20\n      dup2\n      add\n      dup3\n      add\n      dup1\n      mload\n      dup5\n      dup3\n      mstore\n      0x20\n      dup4\n      add\n      0x20\n      dup6\n      add\n      keccak256\n      dup2\n      dup4\n      mstore\n      dup1\n      swap6\n      pop\n      pop\n      pop\n      pop\n      pop\n      pop\n      0x00\n      swap2\n      pop\n      swap1\n      pop\n      dup1\n      0x00\n      add\n      dup1\n      sload\n      tag_48\n      swap1\n      tag_49\n      jump\t// in\n    tag_48:\n      dup1\n      0x1f\n      add\n      0x20\n      dup1\n      swap2\n      div\n      mul\n      0x20\n      add\n      mload(0x40)\n      swap1\n      dup2\n      add\n      0x40\n      mstore\n      dup1\n      swap3\n      swap2\n      swap1\n      dup2\n      dup2\n      mstore\n      0x20\n      add\n      dup3\n      dup1\n      sload\n      tag_50\n      swap1\n      tag_49\n      jump\t// in\n    tag_50:\n      dup1\n      iszero\n      tag_51\n      jumpi\n      dup1\n      0x1f\n      lt\n      tag_52\n      jumpi\n      0x0100\n      dup1\n      dup4\n      sload\n      div\n      mul\n      dup4\n      mstore\n      swap2\n      0x20\n      add\n      swap2\n      jump(tag_51)\n    tag_52:\n      dup3\n      add\n      swap2\n      swap1\n      0x00\n      mstore\n      keccak256(0x00, 0x20)\n      swap1\n    tag_53:\n      dup2\n      sload\n      dup2\n      mstore\n      swap1\n      0x01\n      add\n      swap1\n      0x20\n      add\n      dup1\n      dup4\n      gt\n      tag_53\n      jumpi\n      dup3\n      swap1\n      sub\n      0x1f\n      and\n      dup3\n      add\n      swap2\n    tag_51:\n      pop\n      pop\n      pop\n      pop\n      pop\n      swap1\n      dup1\n      0x01\n      add\n      sload\n      swap1\n      dup1\n      0x02\n      add\n      sload\n      swap1\n      dup1\n      0x03\n      add\n      dup1\n      sload\n      tag_54\n      swap1\n      tag_49\n      jump\t// in\n    tag_54:\n      dup1\n      0x1f\n      add\n      0x20\n      dup1\n      swap2\n      div\n      mul\n      0x20\n      add\n      mload(0x40)\n      swap1\n      dup2\n      add\n      0x40\n      mstore\n      dup1\n      swap3\n      swap2\n      swap1\n      dup2\n      dup2\n      mstore\n      0x20\n      add\n      dup3\n      dup1\n      sload\n      tag_55\n      swap1\n      tag_49\n      jump\t// in\n    tag_55:\n      dup1\n      iszero\n      tag_56\n      jumpi\n      dup1\n      0x1f\n      lt\n      tag_57\n      jumpi\n      0x0100\n      dup1\n      dup4\n      sload\n      div\n      mul\n      dup4\n      mstore\n      swap2\n      0x20\n      add\n      swap2\n      jump(tag_56)\n    tag_57:\n      dup3\n      add\n      swap2\n      swap1\n      0x00\n      mstore\n      keccak256(0x00, 0x20)\n      swap1\n    tag_58:\n      dup2\n      sload\n      dup2\n      mstore\n      swap1\n      0x01\n      add\n      swap1\n      0x20\n      add\n      dup1\n      dup4\n      gt\n      tag_58\n      jumpi\n      dup3\n      swap1\n      sub\n      0x1f\n      and\n      dup3\n      add\n      swap2\n    tag_56:\n      pop\n      pop\n      pop\n      pop\n      pop\n      swap1\n      dup1\n      0x04\n      add\n      dup1\n      sload\n      tag_59\n      swap1\n      tag_49\n      jump\t// in\n    tag_59:\n      dup1\n      0x1f\n      add\n      0x20\n      dup1\n      swap2\n      div\n      mul\n      0x20\n      add\n      mload(0x40)\n      swap1\n      dup2\n      add\n      0x40\n      mstore\n      dup1\n      swap3\n      swap2\n      swap1\n      dup2\n      dup2\n      mstore\n      0x20\n      add\n      dup3\n      dup1\n      sload\n      tag_60\n      swap1\n      tag_49\n      jump\t// in\n    tag_60:\n      dup1\n      iszero\n      tag_61\n      jumpi\n      dup1\n      0x1f\n      lt\n      tag_62\n      jumpi\n      0x0100\n      dup1\n      dup4\n      sload\n      div\n      mul\n      dup4\n      mstore\n      swap2\n      0x20\n      add\n      swap2\n      jump(tag_61)\n    tag_62:\n      dup3\n      add\n      swap2\n      swap1\n      0x00\n      mstore\n      keccak256(0x00, 0x20)\n      swap1\n    tag_63:\n      dup2\n      sload\n      dup2\n      mstore\n      swap1\n      0x01\n      add\n      swap1\n      0x20\n      add\n      dup1\n      dup4\n      gt\n      tag_63\n      jumpi\n      dup3\n      swap1\n      sub\n      0x1f\n      and\n      dup3\n      add\n      swap2\n    tag_61:\n      pop\n      pop\n      pop\n      pop\n      pop\n      swap1\n      dup1\n      0x05\n      add\n      dup1\n      sload\n      tag_64\n      swap1\n      tag_49\n      jump\t// in\n    tag_64:\n      dup1\n      0x1f\n      add\n      0x20\n      dup1\n      swap2\n      div\n      mul\n      0x20\n      add\n      mload(0x40)\n      swap1\n      dup2\n      add\n      0x40\n      mstore\n      dup1\n      swap3\n      swap2\n      swap1\n      dup2\n      dup2\n      mstore\n      0x20\n      add\n      dup3\n      dup1\n      sload\n      tag_65\n      swap1\n      tag_49\n      jump\t// in\n    tag_65:\n      dup1\n      iszero\n      tag_66\n      jumpi\n      dup1\n      0x1f\n      lt\n      tag_67\n      jumpi\n      0x0100\n      dup1\n      dup4\n      sload\n      div\n      mul\n      dup4\n      mstore\n      swap2\n      0x20\n      add\n      swap2\n      jump(tag_66)\n    tag_67:\n      dup3\n      add\n      swap2\n      swap1\n      0x00\n      mstore\n      keccak256(0x00, 0x20)\n      swap1\n    tag_68:\n      dup2\n      sload\n      dup2\n      mstore\n      swap1\n      0x01\n      add\n      swap1\n      0x20\n      add\n      dup1\n      dup4\n      gt\n      tag_68\n      jumpi\n      dup3\n      swap1\n      sub\n      0x1f\n      and\n      dup3\n      add\n      swap2\n    tag_66:\n      pop\n      pop\n      pop\n      pop\n      pop\n      swap1\n      dup1\n      0x06\n      add\n      sload\n      swap1\n      dup1\n      0x07\n      add\n      sload\n      swap1\n      dup1\n      0x08\n      add\n      sload\n      swap1\n      pop\n      dup10\n      jump\t// out\n        /* \"contracts/TransactionContract8Juni.sol\":1039:2011  function addTransaction(... */\n    tag_21:\n        /* \"contracts/TransactionContract8Juni.sol\":1394:1642  Transaction(... */\n      mload(0x40)\n      dup1\n      0x0120\n      add\n      0x40\n      mstore\n      dup1\n        /* \"contracts/TransactionContract8Juni.sol\":1419:1435  _transactionCode */\n      dup11\n        /* \"contracts/TransactionContract8Juni.sol\":1394:1642  Transaction(... */\n      dup2\n      mstore\n      0x20\n      add\n        /* \"contracts/TransactionContract8Juni.sol\":1449:1460  _campaignId */\n      dup10\n        /* \"contracts/TransactionContract8Juni.sol\":1394:1642  Transaction(... */\n      dup2\n      mstore\n      0x20\n      add\n        /* \"contracts/TransactionContract8Juni.sol\":1474:1487  _fromToUserId */\n      dup9\n        /* \"contracts/TransactionContract8Juni.sol\":1394:1642  Transaction(... */\n      dup2\n      mstore\n      0x20\n      add\n        /* \"contracts/TransactionContract8Juni.sol\":1501:1511  _orderType */\n      dup8\n        /* \"contracts/TransactionContract8Juni.sol\":1394:1642  Transaction(... */\n      dup2\n      mstore\n      0x20\n      add\n        /* \"contracts/TransactionContract8Juni.sol\":1525:1539  _paymentStatus */\n      dup7\n        /* \"contracts/TransactionContract8Juni.sol\":1394:1642  Transaction(... */\n      dup2\n      mstore\n      0x20\n      add\n        /* \"contracts/TransactionContract8Juni.sol\":1553:1560  _status */\n      dup6\n        /* \"contracts/TransactionContract8Juni.sol\":1394:1642  Transaction(... */\n      dup2\n      mstore\n      0x20\n      add\n        /* \"contracts/TransactionContract8Juni.sol\":1574:1583  _quantity */\n      dup5\n        /* \"contracts/TransactionContract8Juni.sol\":1394:1642  Transaction(... */\n      dup2\n      mstore\n      0x20\n      add\n        /* \"contracts/TransactionContract8Juni.sol\":1597:1608  _totalPrice */\n      dup4\n        /* \"contracts/TransactionContract8Juni.sol\":1394:1642  Transaction(... */\n      dup2\n      mstore\n      0x20\n      add\n        /* \"contracts/TransactionContract8Juni.sol\":1622:1632  _createdAt */\n      dup3\n        /* \"contracts/TransactionContract8Juni.sol\":1394:1642  Transaction(... */\n      dup2\n      mstore\n      pop\n        /* \"contracts/TransactionContract8Juni.sol\":1361:1373  transactions */\n      0x00\n        /* \"contracts/TransactionContract8Juni.sol\":1374:1390  _transactionCode */\n      dup11\n        /* \"contracts/TransactionContract8Juni.sol\":1361:1391  transactions[_transactionCode] */\n      mload(0x40)\n      tag_70\n      swap2\n      swap1\n      tag_71\n      jump\t// in\n    tag_70:\n      swap1\n      dup2\n      mstore\n      0x20\n      add\n      mload(0x40)\n      dup1\n      swap2\n      sub\n      swap1\n      keccak256\n        /* \"contracts/TransactionContract8Juni.sol\":1361:1642  transactions[_transactionCode] = Transaction(... */\n      0x00\n      dup3\n      add\n      mload\n      dup2\n      0x00\n      add\n      swap1\n      dup2\n      tag_72\n      swap2\n      swap1\n      tag_73\n      jump\t// in\n    tag_72:\n      pop\n      0x20\n      dup3\n      add\n      mload\n      dup2\n      0x01\n      add\n      sstore\n      0x40\n      dup3\n      add\n      mload\n      dup2\n      0x02\n      add\n      sstore\n      0x60\n      dup3\n      add\n      mload\n      dup2\n      0x03\n      add\n      swap1\n      dup2\n      tag_74\n      swap2\n      swap1\n      tag_73\n      jump\t// in\n    tag_74:\n      pop\n      0x80\n      dup3\n      add\n      mload\n      dup2\n      0x04\n      add\n      swap1\n      dup2\n      tag_75\n      swap2\n      swap1\n      tag_73\n      jump\t// in\n    tag_75:\n      pop\n      0xa0\n      dup3\n      add\n      mload\n      dup2\n      0x05\n      add\n      swap1\n      dup2\n      tag_76\n      swap2\n      swap1\n      tag_73\n      jump\t// in\n    tag_76:\n      pop\n      0xc0\n      dup3\n      add\n      mload\n      dup2\n      0x06\n      add\n      sstore\n      0xe0\n      dup3\n      add\n      mload\n      dup2\n      0x07\n      add\n      sstore\n      0x0100\n      dup3\n      add\n      mload\n      dup2\n      0x08\n      add\n      sstore\n      swap1\n      pop\n      pop\n        /* \"contracts/TransactionContract8Juni.sol\":1653:1669  transactionCodes */\n      0x01\n        /* \"contracts/TransactionContract8Juni.sol\":1675:1691  _transactionCode */\n      dup10\n        /* \"contracts/TransactionContract8Juni.sol\":1653:1692  transactionCodes.push(_transactionCode) */\n      swap1\n      dup1\n      0x01\n      dup2\n      sload\n      add\n      dup1\n      dup3\n      sstore\n      dup1\n      swap2\n      pop\n      pop\n      0x01\n      swap1\n      sub\n      swap1\n      0x00\n      mstore\n      keccak256(0x00, 0x20)\n      add\n      0x00\n      swap1\n      swap2\n      swap1\n      swap2\n      swap1\n      swap2\n      pop\n      swap1\n      dup2\n      tag_78\n      swap2\n      swap1\n      tag_73\n      jump\t// in\n    tag_78:\n      pop\n        /* \"contracts/TransactionContract8Juni.sol\":1751:2004  TransactionAdded(... */\n      0x69667cfc0e3856508eb79afd949ebdcd4cfe6b6391364fcc1270c73e9f4779d9\n        /* \"contracts/TransactionContract8Juni.sol\":1781:1797  _transactionCode */\n      dup10\n        /* \"contracts/TransactionContract8Juni.sol\":1811:1822  _campaignId */\n      dup10\n        /* \"contracts/TransactionContract8Juni.sol\":1836:1849  _fromToUserId */\n      dup10\n        /* \"contracts/TransactionContract8Juni.sol\":1863:1873  _orderType */\n      dup10\n        /* \"contracts/TransactionContract8Juni.sol\":1887:1901  _paymentStatus */\n      dup10\n        /* \"contracts/TransactionContract8Juni.sol\":1915:1922  _status */\n      dup10\n        /* \"contracts/TransactionContract8Juni.sol\":1936:1945  _quantity */\n      dup10\n        /* \"contracts/TransactionContract8Juni.sol\":1959:1970  _totalPrice */\n      dup10\n        /* \"contracts/TransactionContract8Juni.sol\":1984:1994  _createdAt */\n      dup10\n        /* \"contracts/TransactionContract8Juni.sol\":1751:2004  TransactionAdded(... */\n      mload(0x40)\n      tag_79\n      swap10\n      swap9\n      swap8\n      swap7\n      swap6\n      swap5\n      swap4\n      swap3\n      swap2\n      swap1\n      tag_17\n      jump\t// in\n    tag_79:\n      mload(0x40)\n      dup1\n      swap2\n      sub\n      swap1\n      log1\n        /* \"contracts/TransactionContract8Juni.sol\":1039:2011  function addTransaction(... */\n      pop\n      pop\n      pop\n      pop\n      pop\n      pop\n      pop\n      pop\n      pop\n      jump\t// out\n        /* \"contracts/TransactionContract8Juni.sol\":2017:2359  function getAllTransactions() public view returns (Transaction[] memory) {... */\n    tag_23:\n        /* \"contracts/TransactionContract8Juni.sol\":2068:2088  Transaction[] memory */\n      0x60\n        /* \"contracts/TransactionContract8Juni.sol\":2100:2136  Transaction[] memory allTransactions */\n      0x00\n        /* \"contracts/TransactionContract8Juni.sol\":2157:2173  transactionCodes */\n      0x01\n        /* \"contracts/TransactionContract8Juni.sol\":2157:2180  transactionCodes.length */\n      dup1\n      sload\n      swap1\n      pop\n        /* \"contracts/TransactionContract8Juni.sol\":2139:2181  new Transaction[](transactionCodes.length) */\n      0xffffffffffffffff\n      dup2\n      gt\n      iszero\n      tag_81\n      jumpi\n      tag_82\n      tag_83\n      jump\t// in\n    tag_82:\n    tag_81:\n      mload(0x40)\n      swap1\n      dup1\n      dup3\n      mstore\n      dup1\n      0x20\n      mul\n      0x20\n      add\n      dup3\n      add\n      0x40\n      mstore\n      dup1\n      iszero\n      tag_84\n      jumpi\n      dup2\n      0x20\n      add\n    tag_85:\n      tag_86\n      tag_87\n      jump\t// in\n    tag_86:\n      dup2\n      mstore\n      0x20\n      add\n      swap1\n      0x01\n      swap1\n      sub\n      swap1\n      dup2\n      tag_85\n      jumpi\n      swap1\n      pop\n    tag_84:\n      pop\n        /* \"contracts/TransactionContract8Juni.sol\":2100:2181  Transaction[] memory allTransactions = new Transaction[](transactionCodes.length) */\n      swap1\n      pop\n        /* \"contracts/TransactionContract8Juni.sol\":2196:2202  uint i */\n      0x00\n        /* \"contracts/TransactionContract8Juni.sol\":2191:2321  for (uint i = 0; i < transactionCodes.length; i++) {... */\n    tag_88:\n        /* \"contracts/TransactionContract8Juni.sol\":2212:2228  transactionCodes */\n      0x01\n        /* \"contracts/TransactionContract8Juni.sol\":2212:2235  transactionCodes.length */\n      dup1\n      sload\n      swap1\n      pop\n        /* \"contracts/TransactionContract8Juni.sol\":2208:2209  i */\n      dup2\n        /* \"contracts/TransactionContract8Juni.sol\":2208:2235  i < transactionCodes.length */\n      lt\n        /* \"contracts/TransactionContract8Juni.sol\":2191:2321  for (uint i = 0; i < transactionCodes.length; i++) {... */\n      iszero\n      tag_89\n      jumpi\n        /* \"contracts/TransactionContract8Juni.sol\":2277:2289  transactions */\n      0x00\n        /* \"contracts/TransactionContract8Juni.sol\":2290:2306  transactionCodes */\n      0x01\n        /* \"contracts/TransactionContract8Juni.sol\":2307:2308  i */\n      dup3\n        /* \"contracts/TransactionContract8Juni.sol\":2290:2309  transactionCodes[i] */\n      dup2\n      sload\n      dup2\n      lt\n      tag_91\n      jumpi\n      tag_92\n      tag_93\n      jump\t// in\n    tag_92:\n    tag_91:\n      swap1\n      0x00\n      mstore\n      keccak256(0x00, 0x20)\n      add\n        /* \"contracts/TransactionContract8Juni.sol\":2277:2310  transactions[transactionCodes[i]] */\n      mload(0x40)\n      tag_95\n      swap2\n      swap1\n      tag_96\n      jump\t// in\n    tag_95:\n      swap1\n      dup2\n      mstore\n      0x20\n      add\n      mload(0x40)\n      dup1\n      swap2\n      sub\n      swap1\n      keccak256\n        /* \"contracts/TransactionContract8Juni.sol\":2256:2310  allTransactions[i] = transactions[transactionCodes[i]] */\n      mload(0x40)\n      dup1\n      0x0120\n      add\n      0x40\n      mstore\n      swap1\n      dup2\n      0x00\n      dup3\n      add\n      dup1\n      sload\n      tag_97\n      swap1\n      tag_49\n      jump\t// in\n    tag_97:\n      dup1\n      0x1f\n      add\n      0x20\n      dup1\n      swap2\n      div\n      mul\n      0x20\n      add\n      mload(0x40)\n      swap1\n      dup2\n      add\n      0x40\n      mstore\n      dup1\n      swap3\n      swap2\n      swap1\n      dup2\n      dup2\n      mstore\n      0x20\n      add\n      dup3\n      dup1\n      sload\n      tag_98\n      swap1\n      tag_49\n      jump\t// in\n    tag_98:\n      dup1\n      iszero\n      tag_99\n      jumpi\n      dup1\n      0x1f\n      lt\n      tag_100\n      jumpi\n      0x0100\n      dup1\n      dup4\n      sload\n      div\n      mul\n      dup4\n      mstore\n      swap2\n      0x20\n      add\n      swap2\n      jump(tag_99)\n    tag_100:\n      dup3\n      add\n      swap2\n      swap1\n      0x00\n      mstore\n      keccak256(0x00, 0x20)\n      swap1\n    tag_101:\n      dup2\n      sload\n      dup2\n      mstore\n      swap1\n      0x01\n      add\n      swap1\n      0x20\n      add\n      dup1\n      dup4\n      gt\n      tag_101\n      jumpi\n      dup3\n      swap1\n      sub\n      0x1f\n      and\n      dup3\n      add\n      swap2\n    tag_99:\n      pop\n      pop\n      pop\n      pop\n      pop\n      dup2\n      mstore\n      0x20\n      add\n      0x01\n      dup3\n      add\n      sload\n      dup2\n      mstore\n      0x20\n      add\n      0x02\n      dup3\n      add\n      sload\n      dup2\n      mstore\n      0x20\n      add\n      0x03\n      dup3\n      add\n      dup1\n      sload\n      tag_102\n      swap1\n      tag_49\n      jump\t// in\n    tag_102:\n      dup1\n      0x1f\n      add\n      0x20\n      dup1\n      swap2\n      div\n      mul\n      0x20\n      add\n      mload(0x40)\n      swap1\n      dup2\n      add\n      0x40\n      mstore\n      dup1\n      swap3\n      swap2\n      swap1\n      dup2\n      dup2\n      mstore\n      0x20\n      add\n      dup3\n      dup1\n      sload\n      tag_103\n      swap1\n      tag_49\n      jump\t// in\n    tag_103:\n      dup1\n      iszero\n      tag_104\n      jumpi\n      dup1\n      0x1f\n      lt\n      tag_105\n      jumpi\n      0x0100\n      dup1\n      dup4\n      sload\n      div\n      mul\n      dup4\n      mstore\n      swap2\n      0x20\n      add\n      swap2\n      jump(tag_104)\n    tag_105:\n      dup3\n      add\n      swap2\n      swap1\n      0x00\n      mstore\n      keccak256(0x00, 0x20)\n      swap1\n    tag_106:\n      dup2\n      sload\n      dup2\n      mstore\n      swap1\n      0x01\n      add\n      swap1\n      0x20\n      add\n      dup1\n      dup4\n      gt\n      tag_106\n      jumpi\n      dup3\n      swap1\n      sub\n      0x1f\n      and\n      dup3\n      add\n      swap2\n    tag_104:\n      pop\n      pop\n      pop\n      pop\n      pop\n      dup2\n      mstore\n      0x20\n      add\n      0x04\n      dup3\n      add\n      dup1\n      sload\n      tag_107\n      swap1\n      tag_49\n      jump\t// in\n    tag_107:\n      dup1\n      0x1f\n      add\n      0x20\n      dup1\n      swap2\n      div\n      mul\n      0x20\n      add\n      mload(0x40)\n      swap1\n      dup2\n      add\n      0x40\n      mstore\n      dup1\n      swap3\n      swap2\n      swap1\n      dup2\n      dup2\n      mstore\n      0x20\n      add\n      dup3\n      dup1\n      sload\n      tag_108\n      swap1\n      tag_49\n      jump\t// in\n    tag_108:\n      dup1\n      iszero\n      tag_109\n      jumpi\n      dup1\n      0x1f\n      lt\n      tag_110\n      jumpi\n      0x0100\n      dup1\n      dup4\n      sload\n      div\n      mul\n      dup4\n      mstore\n      swap2\n      0x20\n      add\n      swap2\n      jump(tag_109)\n    tag_110:\n      dup3\n      add\n      swap2\n      swap1\n      0x00\n      mstore\n      keccak256(0x00, 0x20)\n      swap1\n    tag_111:\n      dup2\n      sload\n      dup2\n      mstore\n      swap1\n      0x01\n      add\n      swap1\n      0x20\n      add\n      dup1\n      dup4\n      gt\n      tag_111\n      jumpi\n      dup3\n      swap1\n      sub\n      0x1f\n      and\n      dup3\n      add\n      swap2\n    tag_109:\n      pop\n      pop\n      pop\n      pop\n      pop\n      dup2\n      mstore\n      0x20\n      add\n      0x05\n      dup3\n      add\n      dup1\n      sload\n      tag_112\n      swap1\n      tag_49\n      jump\t// in\n    tag_112:\n      dup1\n      0x1f\n      add\n      0x20\n      dup1\n      swap2\n      div\n      mul\n      0x20\n      add\n      mload(0x40)\n      swap1\n      dup2\n      add\n      0x40\n      mstore\n      dup1\n      swap3\n      swap2\n      swap1\n      dup2\n      dup2\n      mstore\n      0x20\n      add\n      dup3\n      dup1\n      sload\n      tag_113\n      swap1\n      tag_49\n      jump\t// in\n    tag_113:\n      dup1\n      iszero\n      tag_114\n      jumpi\n      dup1\n      0x1f\n      lt\n      tag_115\n      jumpi\n      0x0100\n      dup1\n      dup4\n      sload\n      div\n      mul\n      dup4\n      mstore\n      swap2\n      0x20\n      add\n      swap2\n      jump(tag_114)\n    tag_115:\n      dup3\n      add\n      swap2\n      swap1\n      0x00\n      mstore\n      keccak256(0x00, 0x20)\n      swap1\n    tag_116:\n      dup2\n      sload\n      dup2\n      mstore\n      swap1\n      0x01\n      add\n      swap1\n      0x20\n      add\n      dup1\n      dup4\n      gt\n      tag_116\n      jumpi\n      dup3\n      swap1\n      sub\n      0x1f\n      and\n      dup3\n      add\n      swap2\n    tag_114:\n      pop\n      pop\n      pop\n      pop\n      pop\n      dup2\n      mstore\n      0x20\n      add\n      0x06\n      dup3\n      add\n      sload\n      dup2\n      mstore\n      0x20\n      add\n      0x07\n      dup3\n      add\n      sload\n      dup2\n      mstore\n      0x20\n      add\n      0x08\n      dup3\n      add\n      sload\n      dup2\n      mstore\n      pop\n      pop\n        /* \"contracts/TransactionContract8Juni.sol\":2256:2271  allTransactions */\n      dup3\n        /* \"contracts/TransactionContract8Juni.sol\":2272:2273  i */\n      dup3\n        /* \"contracts/TransactionContract8Juni.sol\":2256:2274  allTransactions[i] */\n      dup2\n      mload\n      dup2\n      lt\n      tag_117\n      jumpi\n      tag_118\n      tag_93\n      jump\t// in\n    tag_118:\n    tag_117:\n      0x20\n      mul\n      0x20\n      add\n      add\n        /* \"contracts/TransactionContract8Juni.sol\":2256:2310  allTransactions[i] = transactions[transactionCodes[i]] */\n      dup2\n      swap1\n      mstore\n      pop\n        /* \"contracts/TransactionContract8Juni.sol\":2237:2240  i++ */\n      dup1\n      dup1\n      tag_119\n      swap1\n      tag_120\n      jump\t// in\n    tag_119:\n      swap2\n      pop\n      pop\n        /* \"contracts/TransactionContract8Juni.sol\":2191:2321  for (uint i = 0; i < transactionCodes.length; i++) {... */\n      jump(tag_88)\n    tag_89:\n      pop\n        /* \"contracts/TransactionContract8Juni.sol\":2337:2352  allTransactions */\n      dup1\n        /* \"contracts/TransactionContract8Juni.sol\":2330:2352  return allTransactions */\n      swap2\n      pop\n      pop\n        /* \"contracts/TransactionContract8Juni.sol\":2017:2359  function getAllTransactions() public view returns (Transaction[] memory) {... */\n      swap1\n      jump\t// out\n        /* \"contracts/TransactionContract8Juni.sol\":3071:3767  function getTransactionByFromToUserId(uint _fromToUserId) public view returns (Transaction[] memory) {... */\n    tag_29:\n        /* \"contracts/TransactionContract8Juni.sol\":3150:3170  Transaction[] memory */\n      0x60\n        /* \"contracts/TransactionContract8Juni.sol\":3182:3192  uint count */\n      0x00\n        /* \"contracts/TransactionContract8Juni.sol\":3211:3217  uint i */\n      dup1\n        /* \"contracts/TransactionContract8Juni.sol\":3206:3390  for (uint i = 0; i < transactionCodes.length; i++) {... */\n    tag_122:\n        /* \"contracts/TransactionContract8Juni.sol\":3227:3243  transactionCodes */\n      0x01\n        /* \"contracts/TransactionContract8Juni.sol\":3227:3250  transactionCodes.length */\n      dup1\n      sload\n      swap1\n      pop\n        /* \"contracts/TransactionContract8Juni.sol\":3223:3224  i */\n      dup2\n        /* \"contracts/TransactionContract8Juni.sol\":3223:3250  i < transactionCodes.length */\n      lt\n        /* \"contracts/TransactionContract8Juni.sol\":3206:3390  for (uint i = 0; i < transactionCodes.length; i++) {... */\n      iszero\n      tag_123\n      jumpi\n        /* \"contracts/TransactionContract8Juni.sol\":3325:3338  _fromToUserId */\n      dup4\n        /* \"contracts/TransactionContract8Juni.sol\":3275:3287  transactions */\n      0x00\n        /* \"contracts/TransactionContract8Juni.sol\":3288:3304  transactionCodes */\n      0x01\n        /* \"contracts/TransactionContract8Juni.sol\":3305:3306  i */\n      dup4\n        /* \"contracts/TransactionContract8Juni.sol\":3288:3307  transactionCodes[i] */\n      dup2\n      sload\n      dup2\n      lt\n      tag_125\n      jumpi\n      tag_126\n      tag_93\n      jump\t// in\n    tag_126:\n    tag_125:\n      swap1\n      0x00\n      mstore\n      keccak256(0x00, 0x20)\n      add\n        /* \"contracts/TransactionContract8Juni.sol\":3275:3308  transactions[transactionCodes[i]] */\n      mload(0x40)\n      tag_128\n      swap2\n      swap1\n      tag_96\n      jump\t// in\n    tag_128:\n      swap1\n      dup2\n      mstore\n      0x20\n      add\n      mload(0x40)\n      dup1\n      swap2\n      sub\n      swap1\n      keccak256\n        /* \"contracts/TransactionContract8Juni.sol\":3275:3321  transactions[transactionCodes[i]].fromToUserId */\n      0x02\n      add\n      sload\n        /* \"contracts/TransactionContract8Juni.sol\":3275:3338  transactions[transactionCodes[i]].fromToUserId == _fromToUserId */\n      sub\n        /* \"contracts/TransactionContract8Juni.sol\":3271:3380  if (transactions[transactionCodes[i]].fromToUserId == _fromToUserId) {... */\n      tag_129\n      jumpi\n        /* \"contracts/TransactionContract8Juni.sol\":3358:3365  count++ */\n      dup2\n      dup1\n      tag_130\n      swap1\n      tag_120\n      jump\t// in\n    tag_130:\n      swap3\n      pop\n      pop\n        /* \"contracts/TransactionContract8Juni.sol\":3271:3380  if (transactions[transactionCodes[i]].fromToUserId == _fromToUserId) {... */\n    tag_129:\n        /* \"contracts/TransactionContract8Juni.sol\":3252:3255  i++ */\n      dup1\n      dup1\n      tag_131\n      swap1\n      tag_120\n      jump\t// in\n    tag_131:\n      swap2\n      pop\n      pop\n        /* \"contracts/TransactionContract8Juni.sol\":3206:3390  for (uint i = 0; i < transactionCodes.length; i++) {... */\n      jump(tag_122)\n    tag_123:\n      pop\n        /* \"contracts/TransactionContract8Juni.sol\":3399:3426  Transaction[] memory result */\n      0x00\n        /* \"contracts/TransactionContract8Juni.sol\":3447:3452  count */\n      dup2\n        /* \"contracts/TransactionContract8Juni.sol\":3429:3453  new Transaction[](count) */\n      0xffffffffffffffff\n      dup2\n      gt\n      iszero\n      tag_132\n      jumpi\n      tag_133\n      tag_83\n      jump\t// in\n    tag_133:\n    tag_132:\n      mload(0x40)\n      swap1\n      dup1\n      dup3\n      mstore\n      dup1\n      0x20\n      mul\n      0x20\n      add\n      dup3\n      add\n      0x40\n      mstore\n      dup1\n      iszero\n      tag_134\n      jumpi\n      dup2\n      0x20\n      add\n    tag_135:\n      tag_136\n      tag_87\n      jump\t// in\n    tag_136:\n      dup2\n      mstore\n      0x20\n      add\n      swap1\n      0x01\n      swap1\n      sub\n      swap1\n      dup2\n      tag_135\n      jumpi\n      swap1\n      pop\n    tag_134:\n      pop\n        /* \"contracts/TransactionContract8Juni.sol\":3399:3453  Transaction[] memory result = new Transaction[](count) */\n      swap1\n      pop\n        /* \"contracts/TransactionContract8Juni.sol\":3463:3473  uint index */\n      0x00\n        /* \"contracts/TransactionContract8Juni.sol\":3492:3498  uint i */\n      dup1\n        /* \"contracts/TransactionContract8Juni.sol\":3487:3738  for (uint i = 0; i < transactionCodes.length; i++) {... */\n    tag_137:\n        /* \"contracts/TransactionContract8Juni.sol\":3508:3524  transactionCodes */\n      0x01\n        /* \"contracts/TransactionContract8Juni.sol\":3508:3531  transactionCodes.length */\n      dup1\n      sload\n      swap1\n      pop\n        /* \"contracts/TransactionContract8Juni.sol\":3504:3505  i */\n      dup2\n        /* \"contracts/TransactionContract8Juni.sol\":3504:3531  i < transactionCodes.length */\n      lt\n        /* \"contracts/TransactionContract8Juni.sol\":3487:3738  for (uint i = 0; i < transactionCodes.length; i++) {... */\n      iszero\n      tag_138\n      jumpi\n        /* \"contracts/TransactionContract8Juni.sol\":3606:3619  _fromToUserId */\n      dup6\n        /* \"contracts/TransactionContract8Juni.sol\":3556:3568  transactions */\n      0x00\n        /* \"contracts/TransactionContract8Juni.sol\":3569:3585  transactionCodes */\n      0x01\n        /* \"contracts/TransactionContract8Juni.sol\":3586:3587  i */\n      dup4\n        /* \"contracts/TransactionContract8Juni.sol\":3569:3588  transactionCodes[i] */\n      dup2\n      sload\n      dup2\n      lt\n      tag_140\n      jumpi\n      tag_141\n      tag_93\n      jump\t// in\n    tag_141:\n    tag_140:\n      swap1\n      0x00\n      mstore\n      keccak256(0x00, 0x20)\n      add\n        /* \"contracts/TransactionContract8Juni.sol\":3556:3589  transactions[transactionCodes[i]] */\n      mload(0x40)\n      tag_143\n      swap2\n      swap1\n      tag_96\n      jump\t// in\n    tag_143:\n      swap1\n      dup2\n      mstore\n      0x20\n      add\n      mload(0x40)\n      dup1\n      swap2\n      sub\n      swap1\n      keccak256\n        /* \"contracts/TransactionContract8Juni.sol\":3556:3602  transactions[transactionCodes[i]].fromToUserId */\n      0x02\n      add\n      sload\n        /* \"contracts/TransactionContract8Juni.sol\":3556:3619  transactions[transactionCodes[i]].fromToUserId == _fromToUserId */\n      sub\n        /* \"contracts/TransactionContract8Juni.sol\":3552:3728  if (transactions[transactionCodes[i]].fromToUserId == _fromToUserId) {... */\n      tag_144\n      jumpi\n        /* \"contracts/TransactionContract8Juni.sol\":3655:3667  transactions */\n      0x00\n        /* \"contracts/TransactionContract8Juni.sol\":3668:3684  transactionCodes */\n      0x01\n        /* \"contracts/TransactionContract8Juni.sol\":3685:3686  i */\n      dup3\n        /* \"contracts/TransactionContract8Juni.sol\":3668:3687  transactionCodes[i] */\n      dup2\n      sload\n      dup2\n      lt\n      tag_145\n      jumpi\n      tag_146\n      tag_93\n      jump\t// in\n    tag_146:\n    tag_145:\n      swap1\n      0x00\n      mstore\n      keccak256(0x00, 0x20)\n      add\n        /* \"contracts/TransactionContract8Juni.sol\":3655:3688  transactions[transactionCodes[i]] */\n      mload(0x40)\n      tag_148\n      swap2\n      swap1\n      tag_96\n      jump\t// in\n    tag_148:\n      swap1\n      dup2\n      mstore\n      0x20\n      add\n      mload(0x40)\n      dup1\n      swap2\n      sub\n      swap1\n      keccak256\n        /* \"contracts/TransactionContract8Juni.sol\":3639:3688  result[index] = transactions[transactionCodes[i]] */\n      mload(0x40)\n      dup1\n      0x0120\n      add\n      0x40\n      mstore\n      swap1\n      dup2\n      0x00\n      dup3\n      add\n      dup1\n      sload\n      tag_149\n      swap1\n      tag_49\n      jump\t// in\n    tag_149:\n      dup1\n      0x1f\n      add\n      0x20\n      dup1\n      swap2\n      div\n      mul\n      0x20\n      add\n      mload(0x40)\n      swap1\n      dup2\n      add\n      0x40\n      mstore\n      dup1\n      swap3\n      swap2\n      swap1\n      dup2\n      dup2\n      mstore\n      0x20\n      add\n      dup3\n      dup1\n      sload\n      tag_150\n      swap1\n      tag_49\n      jump\t// in\n    tag_150:\n      dup1\n      iszero\n      tag_151\n      jumpi\n      dup1\n      0x1f\n      lt\n      tag_152\n      jumpi\n      0x0100\n      dup1\n      dup4\n      sload\n      div\n      mul\n      dup4\n      mstore\n      swap2\n      0x20\n      add\n      swap2\n      jump(tag_151)\n    tag_152:\n      dup3\n      add\n      swap2\n      swap1\n      0x00\n      mstore\n      keccak256(0x00, 0x20)\n      swap1\n    tag_153:\n      dup2\n      sload\n      dup2\n      mstore\n      swap1\n      0x01\n      add\n      swap1\n      0x20\n      add\n      dup1\n      dup4\n      gt\n      tag_153\n      jumpi\n      dup3\n      swap1\n      sub\n      0x1f\n      and\n      dup3\n      add\n      swap2\n    tag_151:\n      pop\n      pop\n      pop\n      pop\n      pop\n      dup2\n      mstore\n      0x20\n      add\n      0x01\n      dup3\n      add\n      sload\n      dup2\n      mstore\n      0x20\n      add\n      0x02\n      dup3\n      add\n      sload\n      dup2\n      mstore\n      0x20\n      add\n      0x03\n      dup3\n      add\n      dup1\n      sload\n      tag_154\n      swap1\n      tag_49\n      jump\t// in\n    tag_154:\n      dup1\n      0x1f\n      add\n      0x20\n      dup1\n      swap2\n      div\n      mul\n      0x20\n      add\n      mload(0x40)\n      swap1\n      dup2\n      add\n      0x40\n      mstore\n      dup1\n      swap3\n      swap2\n      swap1\n      dup2\n      dup2\n      mstore\n      0x20\n      add\n      dup3\n      dup1\n      sload\n      tag_155\n      swap1\n      tag_49\n      jump\t// in\n    tag_155:\n      dup1\n      iszero\n      tag_156\n      jumpi\n      dup1\n      0x1f\n      lt\n      tag_157\n      jumpi\n      0x0100\n      dup1\n      dup4\n      sload\n      div\n      mul\n      dup4\n      mstore\n      swap2\n      0x20\n      add\n      swap2\n      jump(tag_156)\n    tag_157:\n      dup3\n      add\n      swap2\n      swap1\n      0x00\n      mstore\n      keccak256(0x00, 0x20)\n      swap1\n    tag_158:\n      dup2\n      sload\n      dup2\n      mstore\n      swap1\n      0x01\n      add\n      swap1\n      0x20\n      add\n      dup1\n      dup4\n      gt\n      tag_158\n      jumpi\n      dup3\n      swap1\n      sub\n      0x1f\n      and\n      dup3\n      add\n      swap2\n    tag_156:\n      pop\n      pop\n      pop\n      pop\n      pop\n      dup2\n      mstore\n      0x20\n      add\n      0x04\n      dup3\n      add\n      dup1\n      sload\n      tag_159\n      swap1\n      tag_49\n      jump\t// in\n    tag_159:\n      dup1\n      0x1f\n      add\n      0x20\n      dup1\n      swap2\n      div\n      mul\n      0x20\n      add\n      mload(0x40)\n      swap1\n      dup2\n      add\n      0x40\n      mstore\n      dup1\n      swap3\n      swap2\n      swap1\n      dup2\n      dup2\n      mstore\n      0x20\n      add\n      dup3\n      dup1\n      sload\n      tag_160\n      swap1\n      tag_49\n      jump\t// in\n    tag_160:\n      dup1\n      iszero\n      tag_161\n      jumpi\n      dup1\n      0x1f\n      lt\n      tag_162\n      jumpi\n      0x0100\n      dup1\n      dup4\n      sload\n      div\n      mul\n      dup4\n      mstore\n      swap2\n      0x20\n      add\n      swap2\n      jump(tag_161)\n    tag_162:\n      dup3\n      add\n      swap2\n      swap1\n      0x00\n      mstore\n      keccak256(0x00, 0x20)\n      swap1\n    tag_163:\n      dup2\n      sload\n      dup2\n      mstore\n      swap1\n      0x01\n      add\n      swap1\n      0x20\n      add\n      dup1\n      dup4\n      gt\n      tag_163\n      jumpi\n      dup3\n      swap1\n      sub\n      0x1f\n      and\n      dup3\n      add\n      swap2\n    tag_161:\n      pop\n      pop\n      pop\n      pop\n      pop\n      dup2\n      mstore\n      0x20\n      add\n      0x05\n      dup3\n      add\n      dup1\n      sload\n      tag_164\n      swap1\n      tag_49\n      jump\t// in\n    tag_164:\n      dup1\n      0x1f\n      add\n      0x20\n      dup1\n      swap2\n      div\n      mul\n      0x20\n      add\n      mload(0x40)\n      swap1\n      dup2\n      add\n      0x40\n      mstore\n      dup1\n      swap3\n      swap2\n      swap1\n      dup2\n      dup2\n      mstore\n      0x20\n      add\n      dup3\n      dup1\n      sload\n      tag_165\n      swap1\n      tag_49\n      jump\t// in\n    tag_165:\n      dup1\n      iszero\n      tag_166\n      jumpi\n      dup1\n      0x1f\n      lt\n      tag_167\n      jumpi\n      0x0100\n      dup1\n      dup4\n      sload\n      div\n      mul\n      dup4\n      mstore\n      swap2\n      0x20\n      add\n      swap2\n      jump(tag_166)\n    tag_167:\n      dup3\n      add\n      swap2\n      swap1\n      0x00\n      mstore\n      keccak256(0x00, 0x20)\n      swap1\n    tag_168:\n      dup2\n      sload\n      dup2\n      mstore\n      swap1\n      0x01\n      add\n      swap1\n      0x20\n      add\n      dup1\n      dup4\n      gt\n      tag_168\n      jumpi\n      dup3\n      swap1\n      sub\n      0x1f\n      and\n      dup3\n      add\n      swap2\n    tag_166:\n      pop\n      pop\n      pop\n      pop\n      pop\n      dup2\n      mstore\n      0x20\n      add\n      0x06\n      dup3\n      add\n      sload\n      dup2\n      mstore\n      0x20\n      add\n      0x07\n      dup3\n      add\n      sload\n      dup2\n      mstore\n      0x20\n      add\n      0x08\n      dup3\n      add\n      sload\n      dup2\n      mstore\n      pop\n      pop\n        /* \"contracts/TransactionContract8Juni.sol\":3639:3645  result */\n      dup4\n        /* \"contracts/TransactionContract8Juni.sol\":3646:3651  index */\n      dup4\n        /* \"contracts/TransactionContract8Juni.sol\":3639:3652  result[index] */\n      dup2\n      mload\n      dup2\n      lt\n      tag_169\n      jumpi\n      tag_170\n      tag_93\n      jump\t// in\n    tag_170:\n    tag_169:\n      0x20\n      mul\n      0x20\n      add\n      add\n        /* \"contracts/TransactionContract8Juni.sol\":3639:3688  result[index] = transactions[transactionCodes[i]] */\n      dup2\n      swap1\n      mstore\n      pop\n        /* \"contracts/TransactionContract8Juni.sol\":3706:3713  index++ */\n      dup2\n      dup1\n      tag_171\n      swap1\n      tag_120\n      jump\t// in\n    tag_171:\n      swap3\n      pop\n      pop\n        /* \"contracts/TransactionContract8Juni.sol\":3552:3728  if (transactions[transactionCodes[i]].fromToUserId == _fromToUserId) {... */\n    tag_144:\n        /* \"contracts/TransactionContract8Juni.sol\":3533:3536  i++ */\n      dup1\n      dup1\n      tag_172\n      swap1\n      tag_120\n      jump\t// in\n    tag_172:\n      swap2\n      pop\n      pop\n        /* \"contracts/TransactionContract8Juni.sol\":3487:3738  for (uint i = 0; i < transactionCodes.length; i++) {... */\n      jump(tag_137)\n    tag_138:\n      pop\n        /* \"contracts/TransactionContract8Juni.sol\":3754:3760  result */\n      dup2\n        /* \"contracts/TransactionContract8Juni.sol\":3747:3760  return result */\n      swap4\n      pop\n      pop\n      pop\n      pop\n        /* \"contracts/TransactionContract8Juni.sol\":3071:3767  function getTransactionByFromToUserId(uint _fromToUserId) public view returns (Transaction[] memory) {... */\n      swap2\n      swap1\n      pop\n      jump\t// out\n        /* \"contracts/TransactionContract8Juni.sol\":2365:2691  function updateStatus(string memory _transactionCode, string memory _newStatus) public {... */\n    tag_34:\n        /* \"contracts/TransactionContract8Juni.sol\":2534:2535  0 */\n      0x00\n        /* \"contracts/TransactionContract8Juni.sol\":2476:2488  transactions */\n      dup1\n        /* \"contracts/TransactionContract8Juni.sol\":2489:2505  _transactionCode */\n      dup4\n        /* \"contracts/TransactionContract8Juni.sol\":2476:2506  transactions[_transactionCode] */\n      mload(0x40)\n      tag_174\n      swap2\n      swap1\n      tag_71\n      jump\t// in\n    tag_174:\n      swap1\n      dup2\n      mstore\n      0x20\n      add\n      mload(0x40)\n      dup1\n      swap2\n      sub\n      swap1\n      keccak256\n        /* \"contracts/TransactionContract8Juni.sol\":2476:2522  transactions[_transactionCode].transactionCode */\n      0x00\n      add\n        /* \"contracts/TransactionContract8Juni.sol\":2470:2530  bytes(transactions[_transactionCode].transactionCode).length */\n      dup1\n      sload\n      tag_175\n      swap1\n      tag_49\n      jump\t// in\n    tag_175:\n      swap1\n      pop\n        /* \"contracts/TransactionContract8Juni.sol\":2470:2535  bytes(transactions[_transactionCode].transactionCode).length != 0 */\n      sub\n        /* \"contracts/TransactionContract8Juni.sol\":2462:2566  require(bytes(transactions[_transactionCode].transactionCode).length != 0, \"Transaction does not exist\") */\n      tag_176\n      jumpi\n      mload(0x40)\n      0x08c379a000000000000000000000000000000000000000000000000000000000\n      dup2\n      mstore\n      0x04\n      add\n      tag_177\n      swap1\n      tag_178\n      jump\t// in\n    tag_177:\n      mload(0x40)\n      dup1\n      swap2\n      sub\n      swap1\n      revert\n    tag_176:\n        /* \"contracts/TransactionContract8Juni.sol\":2616:2626  _newStatus */\n      dup1\n        /* \"contracts/TransactionContract8Juni.sol\":2576:2588  transactions */\n      0x00\n        /* \"contracts/TransactionContract8Juni.sol\":2589:2605  _transactionCode */\n      dup4\n        /* \"contracts/TransactionContract8Juni.sol\":2576:2606  transactions[_transactionCode] */\n      mload(0x40)\n      tag_179\n      swap2\n      swap1\n      tag_71\n      jump\t// in\n    tag_179:\n      swap1\n      dup2\n      mstore\n      0x20\n      add\n      mload(0x40)\n      dup1\n      swap2\n      sub\n      swap1\n      keccak256\n        /* \"contracts/TransactionContract8Juni.sol\":2576:2613  transactions[_transactionCode].status */\n      0x05\n      add\n        /* \"contracts/TransactionContract8Juni.sol\":2576:2626  transactions[_transactionCode].status = _newStatus */\n      swap1\n      dup2\n      tag_180\n      swap2\n      swap1\n      tag_73\n      jump\t// in\n    tag_180:\n      pop\n        /* \"contracts/TransactionContract8Juni.sol\":2641:2684  StatusUpdated(_transactionCode, _newStatus) */\n      0xb75b1fec1bc9156569ae9f72fb29c6e6727b297e191d358465fff4c09d8f7d26\n        /* \"contracts/TransactionContract8Juni.sol\":2655:2671  _transactionCode */\n      dup3\n        /* \"contracts/TransactionContract8Juni.sol\":2673:2683  _newStatus */\n      dup3\n        /* \"contracts/TransactionContract8Juni.sol\":2641:2684  StatusUpdated(_transactionCode, _newStatus) */\n      mload(0x40)\n      tag_181\n      swap3\n      swap2\n      swap1\n      tag_182\n      jump\t// in\n    tag_181:\n      mload(0x40)\n      dup1\n      swap2\n      sub\n      swap1\n      log1\n        /* \"contracts/TransactionContract8Juni.sol\":2365:2691  function updateStatus(string memory _transactionCode, string memory _newStatus) public {... */\n      pop\n      pop\n      jump\t// out\n        /* \"contracts/TransactionContract8Juni.sol\":438:470  string[] public transactionCodes */\n    tag_37:\n      0x01\n      dup2\n      dup2\n      sload\n      dup2\n      lt\n      tag_183\n      jumpi\n      0x00\n      dup1\n      revert\n    tag_183:\n      swap1\n      0x00\n      mstore\n      keccak256(0x00, 0x20)\n      add\n      0x00\n      swap2\n      pop\n      swap1\n      pop\n      dup1\n      sload\n      tag_185\n      swap1\n      tag_49\n      jump\t// in\n    tag_185:\n      dup1\n      0x1f\n      add\n      0x20\n      dup1\n      swap2\n      div\n      mul\n      0x20\n      add\n      mload(0x40)\n      swap1\n      dup2\n      add\n      0x40\n      mstore\n      dup1\n      swap3\n      swap2\n      swap1\n      dup2\n      dup2\n      mstore\n      0x20\n      add\n      dup3\n      dup1\n      sload\n      tag_186\n      swap1\n      tag_49\n      jump\t// in\n    tag_186:\n      dup1\n      iszero\n      tag_187\n      jumpi\n      dup1\n      0x1f\n      lt\n      tag_188\n      jumpi\n      0x0100\n      dup1\n      dup4\n      sload\n      div\n      mul\n      dup4\n      mstore\n      swap2\n      0x20\n      add\n      swap2\n      jump(tag_187)\n    tag_188:\n      dup3\n      add\n      swap2\n      swap1\n      0x00\n      mstore\n      keccak256(0x00, 0x20)\n      swap1\n    tag_189:\n      dup2\n      sload\n      dup2\n      mstore\n      swap1\n      0x01\n      add\n      swap1\n      0x20\n      add\n      dup1\n      dup4\n      gt\n      tag_189\n      jumpi\n      dup3\n      swap1\n      sub\n      0x1f\n      and\n      dup3\n      add\n      swap2\n    tag_187:\n      pop\n      pop\n      pop\n      pop\n      pop\n      dup2\n      jump\t// out\n        /* \"contracts/TransactionContract8Juni.sol\":3773:4044  function getTransactionByCode(string memory _transactionCode) public view returns (Transaction memory) {... */\n    tag_42:\n        /* \"contracts/TransactionContract8Juni.sol\":3856:3874  Transaction memory */\n      tag_190\n      tag_87\n      jump\t// in\n    tag_190:\n        /* \"contracts/TransactionContract8Juni.sol\":3958:3959  0 */\n      0x00\n        /* \"contracts/TransactionContract8Juni.sol\":3900:3912  transactions */\n      dup1\n        /* \"contracts/TransactionContract8Juni.sol\":3913:3929  _transactionCode */\n      dup4\n        /* \"contracts/TransactionContract8Juni.sol\":3900:3930  transactions[_transactionCode] */\n      mload(0x40)\n      tag_192\n      swap2\n      swap1\n      tag_71\n      jump\t// in\n    tag_192:\n      swap1\n      dup2\n      mstore\n      0x20\n      add\n      mload(0x40)\n      dup1\n      swap2\n      sub\n      swap1\n      keccak256\n        /* \"contracts/TransactionContract8Juni.sol\":3900:3946  transactions[_transactionCode].transactionCode */\n      0x00\n      add\n        /* \"contracts/TransactionContract8Juni.sol\":3894:3954  bytes(transactions[_transactionCode].transactionCode).length */\n      dup1\n      sload\n      tag_193\n      swap1\n      tag_49\n      jump\t// in\n    tag_193:\n      swap1\n      pop\n        /* \"contracts/TransactionContract8Juni.sol\":3894:3959  bytes(transactions[_transactionCode].transactionCode).length != 0 */\n      sub\n        /* \"contracts/TransactionContract8Juni.sol\":3886:3990  require(bytes(transactions[_transactionCode].transactionCode).length != 0, \"Transaction does not exist\") */\n      tag_194\n      jumpi\n      mload(0x40)\n      0x08c379a000000000000000000000000000000000000000000000000000000000\n      dup2\n      mstore\n      0x04\n      add\n      tag_195\n      swap1\n      tag_178\n      jump\t// in\n    tag_195:\n      mload(0x40)\n      dup1\n      swap2\n      sub\n      swap1\n      revert\n    tag_194:\n        /* \"contracts/TransactionContract8Juni.sol\":4007:4019  transactions */\n      0x00\n        /* \"contracts/TransactionContract8Juni.sol\":4020:4036  _transactionCode */\n      dup3\n        /* \"contracts/TransactionContract8Juni.sol\":4007:4037  transactions[_transactionCode] */\n      mload(0x40)\n      tag_196\n      swap2\n      swap1\n      tag_71\n      jump\t// in\n    tag_196:\n      swap1\n      dup2\n      mstore\n      0x20\n      add\n      mload(0x40)\n      dup1\n      swap2\n      sub\n      swap1\n      keccak256\n        /* \"contracts/TransactionContract8Juni.sol\":4000:4037  return transactions[_transactionCode] */\n      mload(0x40)\n      dup1\n      0x0120\n      add\n      0x40\n      mstore\n      swap1\n      dup2\n      0x00\n      dup3\n      add\n      dup1\n      sload\n      tag_197\n      swap1\n      tag_49\n      jump\t// in\n    tag_197:\n      dup1\n      0x1f\n      add\n      0x20\n      dup1\n      swap2\n      div\n      mul\n      0x20\n      add\n      mload(0x40)\n      swap1\n      dup2\n      add\n      0x40\n      mstore\n      dup1\n      swap3\n      swap2\n      swap1\n      dup2\n      dup2\n      mstore\n      0x20\n      add\n      dup3\n      dup1\n      sload\n      tag_198\n      swap1\n      tag_49\n      jump\t// in\n    tag_198:\n      dup1\n      iszero\n      tag_199\n      jumpi\n      dup1\n      0x1f\n      lt\n      tag_200\n      jumpi\n      0x0100\n      dup1\n      dup4\n      sload\n      div\n      mul\n      dup4\n      mstore\n      swap2\n      0x20\n      add\n      swap2\n      jump(tag_199)\n    tag_200:\n      dup3\n      add\n      swap2\n      swap1\n      0x00\n      mstore\n      keccak256(0x00, 0x20)\n      swap1\n    tag_201:\n      dup2\n      sload\n      dup2\n      mstore\n      swap1\n      0x01\n      add\n      swap1\n      0x20\n      add\n      dup1\n      dup4\n      gt\n      tag_201\n      jumpi\n      dup3\n      swap1\n      sub\n      0x1f\n      and\n      dup3\n      add\n      swap2\n    tag_199:\n      pop\n      pop\n      pop\n      pop\n      pop\n      dup2\n      mstore\n      0x20\n      add\n      0x01\n      dup3\n      add\n      sload\n      dup2\n      mstore\n      0x20\n      add\n      0x02\n      dup3\n      add\n      sload\n      dup2\n      mstore\n      0x20\n      add\n      0x03\n      dup3\n      add\n      dup1\n      sload\n      tag_202\n      swap1\n      tag_49\n      jump\t// in\n    tag_202:\n      dup1\n      0x1f\n      add\n      0x20\n      dup1\n      swap2\n      div\n      mul\n      0x20\n      add\n      mload(0x40)\n      swap1\n      dup2\n      add\n      0x40\n      mstore\n      dup1\n      swap3\n      swap2\n      swap1\n      dup2\n      dup2\n      mstore\n      0x20\n      add\n      dup3\n      dup1\n      sload\n      tag_203\n      swap1\n      tag_49\n      jump\t// in\n    tag_203:\n      dup1\n      iszero\n      tag_204\n      jumpi\n      dup1\n      0x1f\n      lt\n      tag_205\n      jumpi\n      0x0100\n      dup1\n      dup4\n      sload\n      div\n      mul\n      dup4\n      mstore\n      swap2\n      0x20\n      add\n      swap2\n      jump(tag_204)\n    tag_205:\n      dup3\n      add\n      swap2\n      swap1\n      0x00\n      mstore\n      keccak256(0x00, 0x20)\n      swap1\n    tag_206:\n      dup2\n      sload\n      dup2\n      mstore\n      swap1\n      0x01\n      add\n      swap1\n      0x20\n      add\n      dup1\n      dup4\n      gt\n      tag_206\n      jumpi\n      dup3\n      swap1\n      sub\n      0x1f\n      and\n      dup3\n      add\n      swap2\n    tag_204:\n      pop\n      pop\n      pop\n      pop\n      pop\n      dup2\n      mstore\n      0x20\n      add\n      0x04\n      dup3\n      add\n      dup1\n      sload\n      tag_207\n      swap1\n      tag_49\n      jump\t// in\n    tag_207:\n      dup1\n      0x1f\n      add\n      0x20\n      dup1\n      swap2\n      div\n      mul\n      0x20\n      add\n      mload(0x40)\n      swap1\n      dup2\n      add\n      0x40\n      mstore\n      dup1\n      swap3\n      swap2\n      swap1\n      dup2\n      dup2\n      mstore\n      0x20\n      add\n      dup3\n      dup1\n      sload\n      tag_208\n      swap1\n      tag_49\n      jump\t// in\n    tag_208:\n      dup1\n      iszero\n      tag_209\n      jumpi\n      dup1\n      0x1f\n      lt\n      tag_210\n      jumpi\n      0x0100\n      dup1\n      dup4\n      sload\n      div\n      mul\n      dup4\n      mstore\n      swap2\n      0x20\n      add\n      swap2\n      jump(tag_209)\n    tag_210:\n      dup3\n      add\n      swap2\n      swap1\n      0x00\n      mstore\n      keccak256(0x00, 0x20)\n      swap1\n    tag_211:\n      dup2\n      sload\n      dup2\n      mstore\n      swap1\n      0x01\n      add\n      swap1\n      0x20\n      add\n      dup1\n      dup4\n      gt\n      tag_211\n      jumpi\n      dup3\n      swap1\n      sub\n      0x1f\n      and\n      dup3\n      add\n      swap2\n    tag_209:\n      pop\n      pop\n      pop\n      pop\n      pop\n      dup2\n      mstore\n      0x20\n      add\n      0x05\n      dup3\n      add\n      dup1\n      sload\n      tag_212\n      swap1\n      tag_49\n      jump\t// in\n    tag_212:\n      dup1\n      0x1f\n      add\n      0x20\n      dup1\n      swap2\n      div\n      mul\n      0x20\n      add\n      mload(0x40)\n      swap1\n      dup2\n      add\n      0x40\n      mstore\n      dup1\n      swap3\n      swap2\n      swap1\n      dup2\n      dup2\n      mstore\n      0x20\n      add\n      dup3\n      dup1\n      sload\n      tag_213\n      swap1\n      tag_49\n      jump\t// in\n    tag_213:\n      dup1\n      iszero\n      tag_214\n      jumpi\n      dup1\n      0x1f\n      lt\n      tag_215\n      jumpi\n      0x0100\n      dup1\n      dup4\n      sload\n      div\n      mul\n      dup4\n      mstore\n      swap2\n      0x20\n      add\n      swap2\n      jump(tag_214)\n    tag_215:\n      dup3\n      add\n      swap2\n      swap1\n      0x00\n      mstore\n      keccak256(0x00, 0x20)\n      swap1\n    tag_216:\n      dup2\n      sload\n      dup2\n      mstore\n      swap1\n      0x01\n      add\n      swap1\n      0x20\n      add\n      dup1\n      dup4\n      gt\n      tag_216\n      jumpi\n      dup3\n      swap1\n      sub\n      0x1f\n      and\n      dup3\n      add\n      swap2\n    tag_214:\n      pop\n      pop\n      pop\n      pop\n      pop\n      dup2\n      mstore\n      0x20\n      add\n      0x06\n      dup3\n      add\n      sload\n      dup2\n      mstore\n      0x20\n      add\n      0x07\n      dup3\n      add\n      sload\n      dup2\n      mstore\n      0x20\n      add\n      0x08\n      dup3\n      add\n      sload\n      dup2\n      mstore\n      pop\n      pop\n      swap1\n      pop\n        /* \"contracts/TransactionContract8Juni.sol\":3773:4044  function getTransactionByCode(string memory _transactionCode) public view returns (Transaction memory) {... */\n      swap2\n      swap1\n      pop\n      jump\t// out\n        /* \"contracts/TransactionContract8Juni.sol\":2697:3065  function updatePaymentStatus(string memory _transactionCode, string memory _newPaymentStatus) public {... */\n    tag_47:\n        /* \"contracts/TransactionContract8Juni.sol\":2880:2881  0 */\n      0x00\n        /* \"contracts/TransactionContract8Juni.sol\":2822:2834  transactions */\n      dup1\n        /* \"contracts/TransactionContract8Juni.sol\":2835:2851  _transactionCode */\n      dup4\n        /* \"contracts/TransactionContract8Juni.sol\":2822:2852  transactions[_transactionCode] */\n      mload(0x40)\n      tag_218\n      swap2\n      swap1\n      tag_71\n      jump\t// in\n    tag_218:\n      swap1\n      dup2\n      mstore\n      0x20\n      add\n      mload(0x40)\n      dup1\n      swap2\n      sub\n      swap1\n      keccak256\n        /* \"contracts/TransactionContract8Juni.sol\":2822:2868  transactions[_transactionCode].transactionCode */\n      0x00\n      add\n        /* \"contracts/TransactionContract8Juni.sol\":2816:2876  bytes(transactions[_transactionCode].transactionCode).length */\n      dup1\n      sload\n      tag_219\n      swap1\n      tag_49\n      jump\t// in\n    tag_219:\n      swap1\n      pop\n        /* \"contracts/TransactionContract8Juni.sol\":2816:2881  bytes(transactions[_transactionCode].transactionCode).length != 0 */\n      sub\n        /* \"contracts/TransactionContract8Juni.sol\":2808:2912  require(bytes(transactions[_transactionCode].transactionCode).length != 0, \"Transaction does not exist\") */\n      tag_220\n      jumpi\n      mload(0x40)\n      0x08c379a000000000000000000000000000000000000000000000000000000000\n      dup2\n      mstore\n      0x04\n      add\n      tag_221\n      swap1\n      tag_178\n      jump\t// in\n    tag_221:\n      mload(0x40)\n      dup1\n      swap2\n      sub\n      swap1\n      revert\n    tag_220:\n        /* \"contracts/TransactionContract8Juni.sol\":2969:2986  _newPaymentStatus */\n      dup1\n        /* \"contracts/TransactionContract8Juni.sol\":2922:2934  transactions */\n      0x00\n        /* \"contracts/TransactionContract8Juni.sol\":2935:2951  _transactionCode */\n      dup4\n        /* \"contracts/TransactionContract8Juni.sol\":2922:2952  transactions[_transactionCode] */\n      mload(0x40)\n      tag_222\n      swap2\n      swap1\n      tag_71\n      jump\t// in\n    tag_222:\n      swap1\n      dup2\n      mstore\n      0x20\n      add\n      mload(0x40)\n      dup1\n      swap2\n      sub\n      swap1\n      keccak256\n        /* \"contracts/TransactionContract8Juni.sol\":2922:2966  transactions[_transactionCode].paymentStatus */\n      0x04\n      add\n        /* \"contracts/TransactionContract8Juni.sol\":2922:2986  transactions[_transactionCode].paymentStatus = _newPaymentStatus */\n      swap1\n      dup2\n      tag_223\n      swap2\n      swap1\n      tag_73\n      jump\t// in\n    tag_223:\n      pop\n        /* \"contracts/TransactionContract8Juni.sol\":3001:3058  PaymentStatusUpdated(_transactionCode, _newPaymentStatus) */\n      0xc61ffb03925558d248fba37b73270b12903d3f0ba5797af8b71a9f8bf0761a98\n        /* \"contracts/TransactionContract8Juni.sol\":3022:3038  _transactionCode */\n      dup3\n        /* \"contracts/TransactionContract8Juni.sol\":3040:3057  _newPaymentStatus */\n      dup3\n        /* \"contracts/TransactionContract8Juni.sol\":3001:3058  PaymentStatusUpdated(_transactionCode, _newPaymentStatus) */\n      mload(0x40)\n      tag_224\n      swap3\n      swap2\n      swap1\n      tag_182\n      jump\t// in\n    tag_224:\n      mload(0x40)\n      dup1\n      swap2\n      sub\n      swap1\n      log1\n        /* \"contracts/TransactionContract8Juni.sol\":2697:3065  function updatePaymentStatus(string memory _transactionCode, string memory _newPaymentStatus) public {... */\n      pop\n      pop\n      jump\t// out\n    tag_87:\n      mload(0x40)\n      dup1\n      0x0120\n      add\n      0x40\n      mstore\n      dup1\n      0x60\n      dup2\n      mstore\n      0x20\n      add\n      0x00\n      dup2\n      mstore\n      0x20\n      add\n      0x00\n      dup2\n      mstore\n      0x20\n      add\n      0x60\n      dup2\n      mstore\n      0x20\n      add\n      0x60\n      dup2\n      mstore\n      0x20\n      add\n      0x60\n      dup2\n      mstore\n      0x20\n      add\n      0x00\n      dup2\n      mstore\n      0x20\n      add\n      0x00\n      dup2\n      mstore\n      0x20\n      add\n      0x00\n      dup2\n      mstore\n      pop\n      swap1\n      jump\t// out\n        /* \"#utility.yul\":7:82   */\n    tag_225:\n        /* \"#utility.yul\":40:46   */\n      0x00\n        /* \"#utility.yul\":73:75   */\n      0x40\n        /* \"#utility.yul\":67:76   */\n      mload\n        /* \"#utility.yul\":57:76   */\n      swap1\n      pop\n        /* \"#utility.yul\":7:82   */\n      swap1\n      jump\t// out\n        /* \"#utility.yul\":88:205   */\n    tag_226:\n        /* \"#utility.yul\":197:198   */\n      0x00\n        /* \"#utility.yul\":194:195   */\n      dup1\n        /* \"#utility.yul\":187:199   */\n      revert\n        /* \"#utility.yul\":211:328   */\n    tag_227:\n        /* \"#utility.yul\":320:321   */\n      0x00\n        /* \"#utility.yul\":317:318   */\n      dup1\n        /* \"#utility.yul\":310:322   */\n      revert\n        /* \"#utility.yul\":334:451   */\n    tag_228:\n        /* \"#utility.yul\":443:444   */\n      0x00\n        /* \"#utility.yul\":440:441   */\n      dup1\n        /* \"#utility.yul\":433:445   */\n      revert\n        /* \"#utility.yul\":457:574   */\n    tag_229:\n        /* \"#utility.yul\":566:567   */\n      0x00\n        /* \"#utility.yul\":563:564   */\n      dup1\n        /* \"#utility.yul\":556:568   */\n      revert\n        /* \"#utility.yul\":580:682   */\n    tag_230:\n        /* \"#utility.yul\":621:627   */\n      0x00\n        /* \"#utility.yul\":672:674   */\n      0x1f\n        /* \"#utility.yul\":668:675   */\n      not\n        /* \"#utility.yul\":663:665   */\n      0x1f\n        /* \"#utility.yul\":656:661   */\n      dup4\n        /* \"#utility.yul\":652:666   */\n      add\n        /* \"#utility.yul\":648:676   */\n      and\n        /* \"#utility.yul\":638:676   */\n      swap1\n      pop\n        /* \"#utility.yul\":580:682   */\n      swap2\n      swap1\n      pop\n      jump\t// out\n        /* \"#utility.yul\":688:868   */\n    tag_83:\n        /* \"#utility.yul\":736:813   */\n      0x4e487b7100000000000000000000000000000000000000000000000000000000\n        /* \"#utility.yul\":733:734   */\n      0x00\n        /* \"#utility.yul\":726:814   */\n      mstore\n        /* \"#utility.yul\":833:837   */\n      0x41\n        /* \"#utility.yul\":830:831   */\n      0x04\n        /* \"#utility.yul\":823:838   */\n      mstore\n        /* \"#utility.yul\":857:861   */\n      0x24\n        /* \"#utility.yul\":854:855   */\n      0x00\n        /* \"#utility.yul\":847:862   */\n      revert\n        /* \"#utility.yul\":874:1155   */\n    tag_231:\n        /* \"#utility.yul\":957:984   */\n      tag_287\n        /* \"#utility.yul\":979:983   */\n      dup3\n        /* \"#utility.yul\":957:984   */\n      tag_230\n      jump\t// in\n    tag_287:\n        /* \"#utility.yul\":949:955   */\n      dup2\n        /* \"#utility.yul\":945:985   */\n      add\n        /* \"#utility.yul\":1087:1093   */\n      dup2\n        /* \"#utility.yul\":1075:1085   */\n      dup2\n        /* \"#utility.yul\":1072:1094   */\n      lt\n        /* \"#utility.yul\":1051:1069   */\n      0xffffffffffffffff\n        /* \"#utility.yul\":1039:1049   */\n      dup3\n        /* \"#utility.yul\":1036:1070   */\n      gt\n        /* \"#utility.yul\":1033:1095   */\n      or\n        /* \"#utility.yul\":1030:1118   */\n      iszero\n      tag_288\n      jumpi\n        /* \"#utility.yul\":1098:1116   */\n      tag_289\n      tag_83\n      jump\t// in\n    tag_289:\n        /* \"#utility.yul\":1030:1118   */\n    tag_288:\n        /* \"#utility.yul\":1138:1148   */\n      dup1\n        /* \"#utility.yul\":1134:1136   */\n      0x40\n        /* \"#utility.yul\":1127:1149   */\n      mstore\n        /* \"#utility.yul\":917:1155   */\n      pop\n        /* \"#utility.yul\":874:1155   */\n      pop\n      pop\n      jump\t// out\n        /* \"#utility.yul\":1161:1290   */\n    tag_232:\n        /* \"#utility.yul\":1195:1201   */\n      0x00\n        /* \"#utility.yul\":1222:1242   */\n      tag_291\n      tag_225\n      jump\t// in\n    tag_291:\n        /* \"#utility.yul\":1212:1242   */\n      swap1\n      pop\n        /* \"#utility.yul\":1251:1284   */\n      tag_292\n        /* \"#utility.yul\":1279:1283   */\n      dup3\n        /* \"#utility.yul\":1271:1277   */\n      dup3\n        /* \"#utility.yul\":1251:1284   */\n      tag_231\n      jump\t// in\n    tag_292:\n        /* \"#utility.yul\":1161:1290   */\n      swap2\n      swap1\n      pop\n      jump\t// out\n        /* \"#utility.yul\":1296:1604   */\n    tag_233:\n        /* \"#utility.yul\":1358:1362   */\n      0x00\n        /* \"#utility.yul\":1448:1466   */\n      0xffffffffffffffff\n        /* \"#utility.yul\":1440:1446   */\n      dup3\n        /* \"#utility.yul\":1437:1467   */\n      gt\n        /* \"#utility.yul\":1434:1490   */\n      iszero\n      tag_294\n      jumpi\n        /* \"#utility.yul\":1470:1488   */\n      tag_295\n      tag_83\n      jump\t// in\n    tag_295:\n        /* \"#utility.yul\":1434:1490   */\n    tag_294:\n        /* \"#utility.yul\":1508:1537   */\n      tag_296\n        /* \"#utility.yul\":1530:1536   */\n      dup3\n        /* \"#utility.yul\":1508:1537   */\n      tag_230\n      jump\t// in\n    tag_296:\n        /* \"#utility.yul\":1500:1537   */\n      swap1\n      pop\n        /* \"#utility.yul\":1592:1596   */\n      0x20\n        /* \"#utility.yul\":1586:1590   */\n      dup2\n        /* \"#utility.yul\":1582:1597   */\n      add\n        /* \"#utility.yul\":1574:1597   */\n      swap1\n      pop\n        /* \"#utility.yul\":1296:1604   */\n      swap2\n      swap1\n      pop\n      jump\t// out\n        /* \"#utility.yul\":1610:1756   */\n    tag_234:\n        /* \"#utility.yul\":1707:1713   */\n      dup3\n        /* \"#utility.yul\":1702:1705   */\n      dup2\n        /* \"#utility.yul\":1697:1700   */\n      dup4\n        /* \"#utility.yul\":1684:1714   */\n      calldatacopy\n        /* \"#utility.yul\":1748:1749   */\n      0x00\n        /* \"#utility.yul\":1739:1745   */\n      dup4\n        /* \"#utility.yul\":1734:1737   */\n      dup4\n        /* \"#utility.yul\":1730:1746   */\n      add\n        /* \"#utility.yul\":1723:1750   */\n      mstore\n        /* \"#utility.yul\":1610:1756   */\n      pop\n      pop\n      pop\n      jump\t// out\n        /* \"#utility.yul\":1762:2187   */\n    tag_235:\n        /* \"#utility.yul\":1840:1845   */\n      0x00\n        /* \"#utility.yul\":1865:1931   */\n      tag_299\n        /* \"#utility.yul\":1881:1930   */\n      tag_300\n        /* \"#utility.yul\":1923:1929   */\n      dup5\n        /* \"#utility.yul\":1881:1930   */\n      tag_233\n      jump\t// in\n    tag_300:\n        /* \"#utility.yul\":1865:1931   */\n      tag_232\n      jump\t// in\n    tag_299:\n        /* \"#utility.yul\":1856:1931   */\n      swap1\n      pop\n        /* \"#utility.yul\":1954:1960   */\n      dup3\n        /* \"#utility.yul\":1947:1952   */\n      dup2\n        /* \"#utility.yul\":1940:1961   */\n      mstore\n        /* \"#utility.yul\":1992:1996   */\n      0x20\n        /* \"#utility.yul\":1985:1990   */\n      dup2\n        /* \"#utility.yul\":1981:1997   */\n      add\n        /* \"#utility.yul\":2030:2033   */\n      dup5\n        /* \"#utility.yul\":2021:2027   */\n      dup5\n        /* \"#utility.yul\":2016:2019   */\n      dup5\n        /* \"#utility.yul\":2012:2028   */\n      add\n        /* \"#utility.yul\":2009:2034   */\n      gt\n        /* \"#utility.yul\":2006:2118   */\n      iszero\n      tag_301\n      jumpi\n        /* \"#utility.yul\":2037:2116   */\n      tag_302\n      tag_229\n      jump\t// in\n    tag_302:\n        /* \"#utility.yul\":2006:2118   */\n    tag_301:\n        /* \"#utility.yul\":2127:2181   */\n      tag_303\n        /* \"#utility.yul\":2174:2180   */\n      dup5\n        /* \"#utility.yul\":2169:2172   */\n      dup3\n        /* \"#utility.yul\":2164:2167   */\n      dup6\n        /* \"#utility.yul\":2127:2181   */\n      tag_234\n      jump\t// in\n    tag_303:\n        /* \"#utility.yul\":1846:2187   */\n      pop\n        /* \"#utility.yul\":1762:2187   */\n      swap4\n      swap3\n      pop\n      pop\n      pop\n      jump\t// out\n        /* \"#utility.yul\":2207:2547   */\n    tag_236:\n        /* \"#utility.yul\":2263:2268   */\n      0x00\n        /* \"#utility.yul\":2312:2315   */\n      dup3\n        /* \"#utility.yul\":2305:2309   */\n      0x1f\n        /* \"#utility.yul\":2297:2303   */\n      dup4\n        /* \"#utility.yul\":2293:2310   */\n      add\n        /* \"#utility.yul\":2289:2316   */\n      slt\n        /* \"#utility.yul\":2279:2401   */\n      tag_305\n      jumpi\n        /* \"#utility.yul\":2320:2399   */\n      tag_306\n      tag_228\n      jump\t// in\n    tag_306:\n        /* \"#utility.yul\":2279:2401   */\n    tag_305:\n        /* \"#utility.yul\":2437:2443   */\n      dup2\n        /* \"#utility.yul\":2424:2444   */\n      calldataload\n        /* \"#utility.yul\":2462:2541   */\n      tag_307\n        /* \"#utility.yul\":2537:2540   */\n      dup5\n        /* \"#utility.yul\":2529:2535   */\n      dup3\n        /* \"#utility.yul\":2522:2526   */\n      0x20\n        /* \"#utility.yul\":2514:2520   */\n      dup7\n        /* \"#utility.yul\":2510:2527   */\n      add\n        /* \"#utility.yul\":2462:2541   */\n      tag_235\n      jump\t// in\n    tag_307:\n        /* \"#utility.yul\":2453:2541   */\n      swap2\n      pop\n        /* \"#utility.yul\":2269:2547   */\n      pop\n        /* \"#utility.yul\":2207:2547   */\n      swap3\n      swap2\n      pop\n      pop\n      jump\t// out\n        /* \"#utility.yul\":2553:3062   */\n    tag_14:\n        /* \"#utility.yul\":2622:2628   */\n      0x00\n        /* \"#utility.yul\":2671:2673   */\n      0x20\n        /* \"#utility.yul\":2659:2668   */\n      dup3\n        /* \"#utility.yul\":2650:2657   */\n      dup5\n        /* \"#utility.yul\":2646:2669   */\n      sub\n        /* \"#utility.yul\":2642:2674   */\n      slt\n        /* \"#utility.yul\":2639:2758   */\n      iszero\n      tag_309\n      jumpi\n        /* \"#utility.yul\":2677:2756   */\n      tag_310\n      tag_226\n      jump\t// in\n    tag_310:\n        /* \"#utility.yul\":2639:2758   */\n    tag_309:\n        /* \"#utility.yul\":2825:2826   */\n      0x00\n        /* \"#utility.yul\":2814:2823   */\n      dup3\n        /* \"#utility.yul\":2810:2827   */\n      add\n        /* \"#utility.yul\":2797:2828   */\n      calldataload\n        /* \"#utility.yul\":2855:2873   */\n      0xffffffffffffffff\n        /* \"#utility.yul\":2847:2853   */\n      dup2\n        /* \"#utility.yul\":2844:2874   */\n      gt\n        /* \"#utility.yul\":2841:2958   */\n      iszero\n      tag_311\n      jumpi\n        /* \"#utility.yul\":2877:2956   */\n      tag_312\n      tag_227\n      jump\t// in\n    tag_312:\n        /* \"#utility.yul\":2841:2958   */\n    tag_311:\n        /* \"#utility.yul\":2982:3045   */\n      tag_313\n        /* \"#utility.yul\":3037:3044   */\n      dup5\n        /* \"#utility.yul\":3028:3034   */\n      dup3\n        /* \"#utility.yul\":3017:3026   */\n      dup6\n        /* \"#utility.yul\":3013:3035   */\n      add\n        /* \"#utility.yul\":2982:3045   */\n      tag_236\n      jump\t// in\n    tag_313:\n        /* \"#utility.yul\":2972:3045   */\n      swap2\n      pop\n        /* \"#utility.yul\":2768:3055   */\n      pop\n        /* \"#utility.yul\":2553:3062   */\n      swap3\n      swap2\n      pop\n      pop\n      jump\t// out\n        /* \"#utility.yul\":3068:3167   */\n    tag_237:\n        /* \"#utility.yul\":3120:3126   */\n      0x00\n        /* \"#utility.yul\":3154:3159   */\n      dup2\n        /* \"#utility.yul\":3148:3160   */\n      mload\n        /* \"#utility.yul\":3138:3160   */\n      swap1\n      pop\n        /* \"#utility.yul\":3068:3167   */\n      swap2\n      swap1\n      pop\n      jump\t// out\n        /* \"#utility.yul\":3173:3342   */\n    tag_238:\n        /* \"#utility.yul\":3257:3268   */\n      0x00\n        /* \"#utility.yul\":3291:3297   */\n      dup3\n        /* \"#utility.yul\":3286:3289   */\n      dup3\n        /* \"#utility.yul\":3279:3298   */\n      mstore\n        /* \"#utility.yul\":3331:3335   */\n      0x20\n        /* \"#utility.yul\":3326:3329   */\n      dup3\n        /* \"#utility.yul\":3322:3336   */\n      add\n        /* \"#utility.yul\":3307:3336   */\n      swap1\n      pop\n        /* \"#utility.yul\":3173:3342   */\n      swap3\n      swap2\n      pop\n      pop\n      jump\t// out\n        /* \"#utility.yul\":3348:3594   */\n    tag_239:\n        /* \"#utility.yul\":3429:3430   */\n      0x00\n        /* \"#utility.yul\":3439:3552   */\n    tag_317:\n        /* \"#utility.yul\":3453:3459   */\n      dup4\n        /* \"#utility.yul\":3450:3451   */\n      dup2\n        /* \"#utility.yul\":3447:3460   */\n      lt\n        /* \"#utility.yul\":3439:3552   */\n      iszero\n      tag_319\n      jumpi\n        /* \"#utility.yul\":3538:3539   */\n      dup1\n        /* \"#utility.yul\":3533:3536   */\n      dup3\n        /* \"#utility.yul\":3529:3540   */\n      add\n        /* \"#utility.yul\":3523:3541   */\n      mload\n        /* \"#utility.yul\":3519:3520   */\n      dup2\n        /* \"#utility.yul\":3514:3517   */\n      dup5\n        /* \"#utility.yul\":3510:3521   */\n      add\n        /* \"#utility.yul\":3503:3542   */\n      mstore\n        /* \"#utility.yul\":3475:3477   */\n      0x20\n        /* \"#utility.yul\":3472:3473   */\n      dup2\n        /* \"#utility.yul\":3468:3478   */\n      add\n        /* \"#utility.yul\":3463:3478   */\n      swap1\n      pop\n        /* \"#utility.yul\":3439:3552   */\n      jump(tag_317)\n    tag_319:\n        /* \"#utility.yul\":3586:3587   */\n      0x00\n        /* \"#utility.yul\":3577:3583   */\n      dup5\n        /* \"#utility.yul\":3572:3575   */\n      dup5\n        /* \"#utility.yul\":3568:3584   */\n      add\n        /* \"#utility.yul\":3561:3588   */\n      mstore\n        /* \"#utility.yul\":3410:3594   */\n      pop\n        /* \"#utility.yul\":3348:3594   */\n      pop\n      pop\n      pop\n      jump\t// out\n        /* \"#utility.yul\":3600:3977   */\n    tag_240:\n        /* \"#utility.yul\":3688:3691   */\n      0x00\n        /* \"#utility.yul\":3716:3755   */\n      tag_321\n        /* \"#utility.yul\":3749:3754   */\n      dup3\n        /* \"#utility.yul\":3716:3755   */\n      tag_237\n      jump\t// in\n    tag_321:\n        /* \"#utility.yul\":3771:3842   */\n      tag_322\n        /* \"#utility.yul\":3835:3841   */\n      dup2\n        /* \"#utility.yul\":3830:3833   */\n      dup6\n        /* \"#utility.yul\":3771:3842   */\n      tag_238\n      jump\t// in\n    tag_322:\n        /* \"#utility.yul\":3764:3842   */\n      swap4\n      pop\n        /* \"#utility.yul\":3851:3916   */\n      tag_323\n        /* \"#utility.yul\":3909:3915   */\n      dup2\n        /* \"#utility.yul\":3904:3907   */\n      dup6\n        /* \"#utility.yul\":3897:3901   */\n      0x20\n        /* \"#utility.yul\":3890:3895   */\n      dup7\n        /* \"#utility.yul\":3886:3902   */\n      add\n        /* \"#utility.yul\":3851:3916   */\n      tag_239\n      jump\t// in\n    tag_323:\n        /* \"#utility.yul\":3941:3970   */\n      tag_324\n        /* \"#utility.yul\":3963:3969   */\n      dup2\n        /* \"#utility.yul\":3941:3970   */\n      tag_230\n      jump\t// in\n    tag_324:\n        /* \"#utility.yul\":3936:3939   */\n      dup5\n        /* \"#utility.yul\":3932:3971   */\n      add\n        /* \"#utility.yul\":3925:3971   */\n      swap2\n      pop\n        /* \"#utility.yul\":3692:3977   */\n      pop\n        /* \"#utility.yul\":3600:3977   */\n      swap3\n      swap2\n      pop\n      pop\n      jump\t// out\n        /* \"#utility.yul\":3983:4060   */\n    tag_241:\n        /* \"#utility.yul\":4020:4027   */\n      0x00\n        /* \"#utility.yul\":4049:4054   */\n      dup2\n        /* \"#utility.yul\":4038:4054   */\n      swap1\n      pop\n        /* \"#utility.yul\":3983:4060   */\n      swap2\n      swap1\n      pop\n      jump\t// out\n        /* \"#utility.yul\":4066:4184   */\n    tag_242:\n        /* \"#utility.yul\":4153:4177   */\n      tag_327\n        /* \"#utility.yul\":4171:4176   */\n      dup2\n        /* \"#utility.yul\":4153:4177   */\n      tag_241\n      jump\t// in\n    tag_327:\n        /* \"#utility.yul\":4148:4151   */\n      dup3\n        /* \"#utility.yul\":4141:4178   */\n      mstore\n        /* \"#utility.yul\":4066:4184   */\n      pop\n      pop\n      jump\t// out\n        /* \"#utility.yul\":4190:5662   */\n    tag_17:\n        /* \"#utility.yul\":4587:4591   */\n      0x00\n        /* \"#utility.yul\":4625:4628   */\n      0x0120\n        /* \"#utility.yul\":4614:4623   */\n      dup3\n        /* \"#utility.yul\":4610:4629   */\n      add\n        /* \"#utility.yul\":4602:4629   */\n      swap1\n      pop\n        /* \"#utility.yul\":4675:4684   */\n      dup2\n        /* \"#utility.yul\":4669:4673   */\n      dup2\n        /* \"#utility.yul\":4665:4685   */\n      sub\n        /* \"#utility.yul\":4661:4662   */\n      0x00\n        /* \"#utility.yul\":4650:4659   */\n      dup4\n        /* \"#utility.yul\":4646:4663   */\n      add\n        /* \"#utility.yul\":4639:4686   */\n      mstore\n        /* \"#utility.yul\":4703:4781   */\n      tag_329\n        /* \"#utility.yul\":4776:4780   */\n      dup2\n        /* \"#utility.yul\":4767:4773   */\n      dup13\n        /* \"#utility.yul\":4703:4781   */\n      tag_240\n      jump\t// in\n    tag_329:\n        /* \"#utility.yul\":4695:4781   */\n      swap1\n      pop\n        /* \"#utility.yul\":4791:4863   */\n      tag_330\n        /* \"#utility.yul\":4859:4861   */\n      0x20\n        /* \"#utility.yul\":4848:4857   */\n      dup4\n        /* \"#utility.yul\":4844:4862   */\n      add\n        /* \"#utility.yul\":4835:4841   */\n      dup12\n        /* \"#utility.yul\":4791:4863   */\n      tag_242\n      jump\t// in\n    tag_330:\n        /* \"#utility.yul\":4873:4945   */\n      tag_331\n        /* \"#utility.yul\":4941:4943   */\n      0x40\n        /* \"#utility.yul\":4930:4939   */\n      dup4\n        /* \"#utility.yul\":4926:4944   */\n      add\n        /* \"#utility.yul\":4917:4923   */\n      dup11\n        /* \"#utility.yul\":4873:4945   */\n      tag_242\n      jump\t// in\n    tag_331:\n        /* \"#utility.yul\":4992:5001   */\n      dup2\n        /* \"#utility.yul\":4986:4990   */\n      dup2\n        /* \"#utility.yul\":4982:5002   */\n      sub\n        /* \"#utility.yul\":4977:4979   */\n      0x60\n        /* \"#utility.yul\":4966:4975   */\n      dup4\n        /* \"#utility.yul\":4962:4980   */\n      add\n        /* \"#utility.yul\":4955:5003   */\n      mstore\n        /* \"#utility.yul\":5020:5098   */\n      tag_332\n        /* \"#utility.yul\":5093:5097   */\n      dup2\n        /* \"#utility.yul\":5084:5090   */\n      dup10\n        /* \"#utility.yul\":5020:5098   */\n      tag_240\n      jump\t// in\n    tag_332:\n        /* \"#utility.yul\":5012:5098   */\n      swap1\n      pop\n        /* \"#utility.yul\":5146:5155   */\n      dup2\n        /* \"#utility.yul\":5140:5144   */\n      dup2\n        /* \"#utility.yul\":5136:5156   */\n      sub\n        /* \"#utility.yul\":5130:5133   */\n      0x80\n        /* \"#utility.yul\":5119:5128   */\n      dup4\n        /* \"#utility.yul\":5115:5134   */\n      add\n        /* \"#utility.yul\":5108:5157   */\n      mstore\n        /* \"#utility.yul\":5174:5252   */\n      tag_333\n        /* \"#utility.yul\":5247:5251   */\n      dup2\n        /* \"#utility.yul\":5238:5244   */\n      dup9\n        /* \"#utility.yul\":5174:5252   */\n      tag_240\n      jump\t// in\n    tag_333:\n        /* \"#utility.yul\":5166:5252   */\n      swap1\n      pop\n        /* \"#utility.yul\":5300:5309   */\n      dup2\n        /* \"#utility.yul\":5294:5298   */\n      dup2\n        /* \"#utility.yul\":5290:5310   */\n      sub\n        /* \"#utility.yul\":5284:5287   */\n      0xa0\n        /* \"#utility.yul\":5273:5282   */\n      dup4\n        /* \"#utility.yul\":5269:5288   */\n      add\n        /* \"#utility.yul\":5262:5311   */\n      mstore\n        /* \"#utility.yul\":5328:5406   */\n      tag_334\n        /* \"#utility.yul\":5401:5405   */\n      dup2\n        /* \"#utility.yul\":5392:5398   */\n      dup8\n        /* \"#utility.yul\":5328:5406   */\n      tag_240\n      jump\t// in\n    tag_334:\n        /* \"#utility.yul\":5320:5406   */\n      swap1\n      pop\n        /* \"#utility.yul\":5416:5489   */\n      tag_335\n        /* \"#utility.yul\":5484:5487   */\n      0xc0\n        /* \"#utility.yul\":5473:5482   */\n      dup4\n        /* \"#utility.yul\":5469:5488   */\n      add\n        /* \"#utility.yul\":5460:5466   */\n      dup7\n        /* \"#utility.yul\":5416:5489   */\n      tag_242\n      jump\t// in\n    tag_335:\n        /* \"#utility.yul\":5499:5572   */\n      tag_336\n        /* \"#utility.yul\":5567:5570   */\n      0xe0\n        /* \"#utility.yul\":5556:5565   */\n      dup4\n        /* \"#utility.yul\":5552:5571   */\n      add\n        /* \"#utility.yul\":5543:5549   */\n      dup6\n        /* \"#utility.yul\":5499:5572   */\n      tag_242\n      jump\t// in\n    tag_336:\n        /* \"#utility.yul\":5582:5655   */\n      tag_337\n        /* \"#utility.yul\":5650:5653   */\n      0x0100\n        /* \"#utility.yul\":5639:5648   */\n      dup4\n        /* \"#utility.yul\":5635:5654   */\n      add\n        /* \"#utility.yul\":5626:5632   */\n      dup5\n        /* \"#utility.yul\":5582:5655   */\n      tag_242\n      jump\t// in\n    tag_337:\n        /* \"#utility.yul\":4190:5662   */\n      swap11\n      swap10\n      pop\n      pop\n      pop\n      pop\n      pop\n      pop\n      pop\n      pop\n      pop\n      pop\n      jump\t// out\n        /* \"#utility.yul\":5668:5790   */\n    tag_243:\n        /* \"#utility.yul\":5741:5765   */\n      tag_339\n        /* \"#utility.yul\":5759:5764   */\n      dup2\n        /* \"#utility.yul\":5741:5765   */\n      tag_241\n      jump\t// in\n    tag_339:\n        /* \"#utility.yul\":5734:5739   */\n      dup2\n        /* \"#utility.yul\":5731:5766   */\n      eq\n        /* \"#utility.yul\":5721:5784   */\n      tag_340\n      jumpi\n        /* \"#utility.yul\":5780:5781   */\n      0x00\n        /* \"#utility.yul\":5777:5778   */\n      dup1\n        /* \"#utility.yul\":5770:5782   */\n      revert\n        /* \"#utility.yul\":5721:5784   */\n    tag_340:\n        /* \"#utility.yul\":5668:5790   */\n      pop\n      jump\t// out\n        /* \"#utility.yul\":5796:5935   */\n    tag_244:\n        /* \"#utility.yul\":5842:5847   */\n      0x00\n        /* \"#utility.yul\":5880:5886   */\n      dup2\n        /* \"#utility.yul\":5867:5887   */\n      calldataload\n        /* \"#utility.yul\":5858:5887   */\n      swap1\n      pop\n        /* \"#utility.yul\":5896:5929   */\n      tag_342\n        /* \"#utility.yul\":5923:5928   */\n      dup2\n        /* \"#utility.yul\":5896:5929   */\n      tag_243\n      jump\t// in\n    tag_342:\n        /* \"#utility.yul\":5796:5935   */\n      swap3\n      swap2\n      pop\n      pop\n      jump\t// out\n        /* \"#utility.yul\":5941:8156   */\n    tag_20:\n        /* \"#utility.yul\":6112:6118   */\n      0x00\n        /* \"#utility.yul\":6120:6126   */\n      dup1\n        /* \"#utility.yul\":6128:6134   */\n      0x00\n        /* \"#utility.yul\":6136:6142   */\n      dup1\n        /* \"#utility.yul\":6144:6150   */\n      0x00\n        /* \"#utility.yul\":6152:6158   */\n      dup1\n        /* \"#utility.yul\":6160:6166   */\n      0x00\n        /* \"#utility.yul\":6168:6174   */\n      dup1\n        /* \"#utility.yul\":6176:6182   */\n      0x00\n        /* \"#utility.yul\":6225:6228   */\n      0x0120\n        /* \"#utility.yul\":6213:6222   */\n      dup11\n        /* \"#utility.yul\":6204:6211   */\n      dup13\n        /* \"#utility.yul\":6200:6223   */\n      sub\n        /* \"#utility.yul\":6196:6229   */\n      slt\n        /* \"#utility.yul\":6193:6313   */\n      iszero\n      tag_344\n      jumpi\n        /* \"#utility.yul\":6232:6311   */\n      tag_345\n      tag_226\n      jump\t// in\n    tag_345:\n        /* \"#utility.yul\":6193:6313   */\n    tag_344:\n        /* \"#utility.yul\":6380:6381   */\n      0x00\n        /* \"#utility.yul\":6369:6378   */\n      dup11\n        /* \"#utility.yul\":6365:6382   */\n      add\n        /* \"#utility.yul\":6352:6383   */\n      calldataload\n        /* \"#utility.yul\":6410:6428   */\n      0xffffffffffffffff\n        /* \"#utility.yul\":6402:6408   */\n      dup2\n        /* \"#utility.yul\":6399:6429   */\n      gt\n        /* \"#utility.yul\":6396:6513   */\n      iszero\n      tag_346\n      jumpi\n        /* \"#utility.yul\":6432:6511   */\n      tag_347\n      tag_227\n      jump\t// in\n    tag_347:\n        /* \"#utility.yul\":6396:6513   */\n    tag_346:\n        /* \"#utility.yul\":6537:6600   */\n      tag_348\n        /* \"#utility.yul\":6592:6599   */\n      dup13\n        /* \"#utility.yul\":6583:6589   */\n      dup3\n        /* \"#utility.yul\":6572:6581   */\n      dup14\n        /* \"#utility.yul\":6568:6590   */\n      add\n        /* \"#utility.yul\":6537:6600   */\n      tag_236\n      jump\t// in\n    tag_348:\n        /* \"#utility.yul\":6527:6600   */\n      swap10\n      pop\n        /* \"#utility.yul\":6323:6610   */\n      pop\n        /* \"#utility.yul\":6649:6651   */\n      0x20\n        /* \"#utility.yul\":6675:6728   */\n      tag_349\n        /* \"#utility.yul\":6720:6727   */\n      dup13\n        /* \"#utility.yul\":6711:6717   */\n      dup3\n        /* \"#utility.yul\":6700:6709   */\n      dup14\n        /* \"#utility.yul\":6696:6718   */\n      add\n        /* \"#utility.yul\":6675:6728   */\n      tag_244\n      jump\t// in\n    tag_349:\n        /* \"#utility.yul\":6665:6728   */\n      swap9\n      pop\n        /* \"#utility.yul\":6620:6738   */\n      pop\n        /* \"#utility.yul\":6777:6779   */\n      0x40\n        /* \"#utility.yul\":6803:6856   */\n      tag_350\n        /* \"#utility.yul\":6848:6855   */\n      dup13\n        /* \"#utility.yul\":6839:6845   */\n      dup3\n        /* \"#utility.yul\":6828:6837   */\n      dup14\n        /* \"#utility.yul\":6824:6846   */\n      add\n        /* \"#utility.yul\":6803:6856   */\n      tag_244\n      jump\t// in\n    tag_350:\n        /* \"#utility.yul\":6793:6856   */\n      swap8\n      pop\n        /* \"#utility.yul\":6748:6866   */\n      pop\n        /* \"#utility.yul\":6933:6935   */\n      0x60\n        /* \"#utility.yul\":6922:6931   */\n      dup11\n        /* \"#utility.yul\":6918:6936   */\n      add\n        /* \"#utility.yul\":6905:6937   */\n      calldataload\n        /* \"#utility.yul\":6964:6982   */\n      0xffffffffffffffff\n        /* \"#utility.yul\":6956:6962   */\n      dup2\n        /* \"#utility.yul\":6953:6983   */\n      gt\n        /* \"#utility.yul\":6950:7067   */\n      iszero\n      tag_351\n      jumpi\n        /* \"#utility.yul\":6986:7065   */\n      tag_352\n      tag_227\n      jump\t// in\n    tag_352:\n        /* \"#utility.yul\":6950:7067   */\n    tag_351:\n        /* \"#utility.yul\":7091:7154   */\n      tag_353\n        /* \"#utility.yul\":7146:7153   */\n      dup13\n        /* \"#utility.yul\":7137:7143   */\n      dup3\n        /* \"#utility.yul\":7126:7135   */\n      dup14\n        /* \"#utility.yul\":7122:7144   */\n      add\n        /* \"#utility.yul\":7091:7154   */\n      tag_236\n      jump\t// in\n    tag_353:\n        /* \"#utility.yul\":7081:7154   */\n      swap7\n      pop\n        /* \"#utility.yul\":6876:7164   */\n      pop\n        /* \"#utility.yul\":7231:7234   */\n      0x80\n        /* \"#utility.yul\":7220:7229   */\n      dup11\n        /* \"#utility.yul\":7216:7235   */\n      add\n        /* \"#utility.yul\":7203:7236   */\n      calldataload\n        /* \"#utility.yul\":7263:7281   */\n      0xffffffffffffffff\n        /* \"#utility.yul\":7255:7261   */\n      dup2\n        /* \"#utility.yul\":7252:7282   */\n      gt\n        /* \"#utility.yul\":7249:7366   */\n      iszero\n      tag_354\n      jumpi\n        /* \"#utility.yul\":7285:7364   */\n      tag_355\n      tag_227\n      jump\t// in\n    tag_355:\n        /* \"#utility.yul\":7249:7366   */\n    tag_354:\n        /* \"#utility.yul\":7390:7453   */\n      tag_356\n        /* \"#utility.yul\":7445:7452   */\n      dup13\n        /* \"#utility.yul\":7436:7442   */\n      dup3\n        /* \"#utility.yul\":7425:7434   */\n      dup14\n        /* \"#utility.yul\":7421:7443   */\n      add\n        /* \"#utility.yul\":7390:7453   */\n      tag_236\n      jump\t// in\n    tag_356:\n        /* \"#utility.yul\":7380:7453   */\n      swap6\n      pop\n        /* \"#utility.yul\":7174:7463   */\n      pop\n        /* \"#utility.yul\":7530:7533   */\n      0xa0\n        /* \"#utility.yul\":7519:7528   */\n      dup11\n        /* \"#utility.yul\":7515:7534   */\n      add\n        /* \"#utility.yul\":7502:7535   */\n      calldataload\n        /* \"#utility.yul\":7562:7580   */\n      0xffffffffffffffff\n        /* \"#utility.yul\":7554:7560   */\n      dup2\n        /* \"#utility.yul\":7551:7581   */\n      gt\n        /* \"#utility.yul\":7548:7665   */\n      iszero\n      tag_357\n      jumpi\n        /* \"#utility.yul\":7584:7663   */\n      tag_358\n      tag_227\n      jump\t// in\n    tag_358:\n        /* \"#utility.yul\":7548:7665   */\n    tag_357:\n        /* \"#utility.yul\":7689:7752   */\n      tag_359\n        /* \"#utility.yul\":7744:7751   */\n      dup13\n        /* \"#utility.yul\":7735:7741   */\n      dup3\n        /* \"#utility.yul\":7724:7733   */\n      dup14\n        /* \"#utility.yul\":7720:7742   */\n      add\n        /* \"#utility.yul\":7689:7752   */\n      tag_236\n      jump\t// in\n    tag_359:\n        /* \"#utility.yul\":7679:7752   */\n      swap5\n      pop\n        /* \"#utility.yul\":7473:7762   */\n      pop\n        /* \"#utility.yul\":7801:7804   */\n      0xc0\n        /* \"#utility.yul\":7828:7881   */\n      tag_360\n        /* \"#utility.yul\":7873:7880   */\n      dup13\n        /* \"#utility.yul\":7864:7870   */\n      dup3\n        /* \"#utility.yul\":7853:7862   */\n      dup14\n        /* \"#utility.yul\":7849:7871   */\n      add\n        /* \"#utility.yul\":7828:7881   */\n      tag_244\n      jump\t// in\n    tag_360:\n        /* \"#utility.yul\":7818:7881   */\n      swap4\n      pop\n        /* \"#utility.yul\":7772:7891   */\n      pop\n        /* \"#utility.yul\":7930:7933   */\n      0xe0\n        /* \"#utility.yul\":7957:8010   */\n      tag_361\n        /* \"#utility.yul\":8002:8009   */\n      dup13\n        /* \"#utility.yul\":7993:7999   */\n      dup3\n        /* \"#utility.yul\":7982:7991   */\n      dup14\n        /* \"#utility.yul\":7978:8000   */\n      add\n        /* \"#utility.yul\":7957:8010   */\n      tag_244\n      jump\t// in\n    tag_361:\n        /* \"#utility.yul\":7947:8010   */\n      swap3\n      pop\n        /* \"#utility.yul\":7901:8020   */\n      pop\n        /* \"#utility.yul\":8059:8062   */\n      0x0100\n        /* \"#utility.yul\":8086:8139   */\n      tag_362\n        /* \"#utility.yul\":8131:8138   */\n      dup13\n        /* \"#utility.yul\":8122:8128   */\n      dup3\n        /* \"#utility.yul\":8111:8120   */\n      dup14\n        /* \"#utility.yul\":8107:8129   */\n      add\n        /* \"#utility.yul\":8086:8139   */\n      tag_244\n      jump\t// in\n    tag_362:\n        /* \"#utility.yul\":8076:8139   */\n      swap2\n      pop\n        /* \"#utility.yul\":8030:8149   */\n      pop\n        /* \"#utility.yul\":5941:8156   */\n      swap3\n      swap6\n      swap9\n      pop\n      swap3\n      swap6\n      swap9\n      pop\n      swap3\n      swap6\n      swap9\n      jump\t// out\n        /* \"#utility.yul\":8162:8303   */\n    tag_245:\n        /* \"#utility.yul\":8256:8262   */\n      0x00\n        /* \"#utility.yul\":8290:8295   */\n      dup2\n        /* \"#utility.yul\":8284:8296   */\n      mload\n        /* \"#utility.yul\":8274:8296   */\n      swap1\n      pop\n        /* \"#utility.yul\":8162:8303   */\n      swap2\n      swap1\n      pop\n      jump\t// out\n        /* \"#utility.yul\":8309:8520   */\n    tag_246:\n        /* \"#utility.yul\":8435:8446   */\n      0x00\n        /* \"#utility.yul\":8469:8475   */\n      dup3\n        /* \"#utility.yul\":8464:8467   */\n      dup3\n        /* \"#utility.yul\":8457:8476   */\n      mstore\n        /* \"#utility.yul\":8509:8513   */\n      0x20\n        /* \"#utility.yul\":8504:8507   */\n      dup3\n        /* \"#utility.yul\":8500:8514   */\n      add\n        /* \"#utility.yul\":8485:8514   */\n      swap1\n      pop\n        /* \"#utility.yul\":8309:8520   */\n      swap3\n      swap2\n      pop\n      pop\n      jump\t// out\n        /* \"#utility.yul\":8526:8685   */\n    tag_247:\n        /* \"#utility.yul\":8620:8624   */\n      0x00\n        /* \"#utility.yul\":8643:8646   */\n      dup2\n        /* \"#utility.yul\":8635:8646   */\n      swap1\n      pop\n        /* \"#utility.yul\":8673:8677   */\n      0x20\n        /* \"#utility.yul\":8668:8671   */\n      dup3\n        /* \"#utility.yul\":8664:8678   */\n      add\n        /* \"#utility.yul\":8656:8678   */\n      swap1\n      pop\n        /* \"#utility.yul\":8526:8685   */\n      swap2\n      swap1\n      pop\n      jump\t// out\n        /* \"#utility.yul\":8691:8850   */\n    tag_248:\n        /* \"#utility.yul\":8765:8776   */\n      0x00\n        /* \"#utility.yul\":8799:8805   */\n      dup3\n        /* \"#utility.yul\":8794:8797   */\n      dup3\n        /* \"#utility.yul\":8787:8806   */\n      mstore\n        /* \"#utility.yul\":8839:8843   */\n      0x20\n        /* \"#utility.yul\":8834:8837   */\n      dup3\n        /* \"#utility.yul\":8830:8844   */\n      add\n        /* \"#utility.yul\":8815:8844   */\n      swap1\n      pop\n        /* \"#utility.yul\":8691:8850   */\n      swap3\n      swap2\n      pop\n      pop\n      jump\t// out\n        /* \"#utility.yul\":8856:9213   */\n    tag_249:\n        /* \"#utility.yul\":8934:8937   */\n      0x00\n        /* \"#utility.yul\":8962:9001   */\n      tag_368\n        /* \"#utility.yul\":8995:9000   */\n      dup3\n        /* \"#utility.yul\":8962:9001   */\n      tag_237\n      jump\t// in\n    tag_368:\n        /* \"#utility.yul\":9017:9078   */\n      tag_369\n        /* \"#utility.yul\":9071:9077   */\n      dup2\n        /* \"#utility.yul\":9066:9069   */\n      dup6\n        /* \"#utility.yul\":9017:9078   */\n      tag_248\n      jump\t// in\n    tag_369:\n        /* \"#utility.yul\":9010:9078   */\n      swap4\n      pop\n        /* \"#utility.yul\":9087:9152   */\n      tag_370\n        /* \"#utility.yul\":9145:9151   */\n      dup2\n        /* \"#utility.yul\":9140:9143   */\n      dup6\n        /* \"#utility.yul\":9133:9137   */\n      0x20\n        /* \"#utility.yul\":9126:9131   */\n      dup7\n        /* \"#utility.yul\":9122:9138   */\n      add\n        /* \"#utility.yul\":9087:9152   */\n      tag_239\n      jump\t// in\n    tag_370:\n        /* \"#utility.yul\":9177:9206   */\n      tag_371\n        /* \"#utility.yul\":9199:9205   */\n      dup2\n        /* \"#utility.yul\":9177:9206   */\n      tag_230\n      jump\t// in\n    tag_371:\n        /* \"#utility.yul\":9172:9175   */\n      dup5\n        /* \"#utility.yul\":9168:9207   */\n      add\n        /* \"#utility.yul\":9161:9207   */\n      swap2\n      pop\n        /* \"#utility.yul\":8938:9213   */\n      pop\n        /* \"#utility.yul\":8856:9213   */\n      swap3\n      swap2\n      pop\n      pop\n      jump\t// out\n        /* \"#utility.yul\":9219:9327   */\n    tag_250:\n        /* \"#utility.yul\":9296:9320   */\n      tag_373\n        /* \"#utility.yul\":9314:9319   */\n      dup2\n        /* \"#utility.yul\":9296:9320   */\n      tag_241\n      jump\t// in\n    tag_373:\n        /* \"#utility.yul\":9291:9294   */\n      dup3\n        /* \"#utility.yul\":9284:9321   */\n      mstore\n        /* \"#utility.yul\":9219:9327   */\n      pop\n      pop\n      jump\t// out\n        /* \"#utility.yul\":9421:11514   */\n    tag_251:\n        /* \"#utility.yul\":9534:9537   */\n      0x00\n        /* \"#utility.yul\":9570:9576   */\n      0x0120\n        /* \"#utility.yul\":9565:9568   */\n      dup4\n        /* \"#utility.yul\":9561:9577   */\n      add\n        /* \"#utility.yul\":9670:9674   */\n      0x00\n        /* \"#utility.yul\":9663:9668   */\n      dup4\n        /* \"#utility.yul\":9659:9675   */\n      add\n        /* \"#utility.yul\":9653:9676   */\n      mload\n        /* \"#utility.yul\":9723:9726   */\n      dup5\n        /* \"#utility.yul\":9717:9721   */\n      dup3\n        /* \"#utility.yul\":9713:9727   */\n      sub\n        /* \"#utility.yul\":9706:9710   */\n      0x00\n        /* \"#utility.yul\":9701:9704   */\n      dup7\n        /* \"#utility.yul\":9697:9711   */\n      add\n        /* \"#utility.yul\":9690:9728   */\n      mstore\n        /* \"#utility.yul\":9749:9822   */\n      tag_375\n        /* \"#utility.yul\":9817:9821   */\n      dup3\n        /* \"#utility.yul\":9803:9815   */\n      dup3\n        /* \"#utility.yul\":9749:9822   */\n      tag_249\n      jump\t// in\n    tag_375:\n        /* \"#utility.yul\":9741:9822   */\n      swap2\n      pop\n        /* \"#utility.yul\":9587:9833   */\n      pop\n        /* \"#utility.yul\":9921:9925   */\n      0x20\n        /* \"#utility.yul\":9914:9919   */\n      dup4\n        /* \"#utility.yul\":9910:9926   */\n      add\n        /* \"#utility.yul\":9904:9927   */\n      mload\n        /* \"#utility.yul\":9940:10003   */\n      tag_376\n        /* \"#utility.yul\":9997:10001   */\n      0x20\n        /* \"#utility.yul\":9992:9995   */\n      dup7\n        /* \"#utility.yul\":9988:10002   */\n      add\n        /* \"#utility.yul\":9974:9986   */\n      dup3\n        /* \"#utility.yul\":9940:10003   */\n      tag_250\n      jump\t// in\n    tag_376:\n        /* \"#utility.yul\":9843:10013   */\n      pop\n        /* \"#utility.yul\":10103:10107   */\n      0x40\n        /* \"#utility.yul\":10096:10101   */\n      dup4\n        /* \"#utility.yul\":10092:10108   */\n      add\n        /* \"#utility.yul\":10086:10109   */\n      mload\n        /* \"#utility.yul\":10122:10185   */\n      tag_377\n        /* \"#utility.yul\":10179:10183   */\n      0x40\n        /* \"#utility.yul\":10174:10177   */\n      dup7\n        /* \"#utility.yul\":10170:10184   */\n      add\n        /* \"#utility.yul\":10156:10168   */\n      dup3\n        /* \"#utility.yul\":10122:10185   */\n      tag_250\n      jump\t// in\n    tag_377:\n        /* \"#utility.yul\":10023:10195   */\n      pop\n        /* \"#utility.yul\":10282:10286   */\n      0x60\n        /* \"#utility.yul\":10275:10280   */\n      dup4\n        /* \"#utility.yul\":10271:10287   */\n      add\n        /* \"#utility.yul\":10265:10288   */\n      mload\n        /* \"#utility.yul\":10335:10338   */\n      dup5\n        /* \"#utility.yul\":10329:10333   */\n      dup3\n        /* \"#utility.yul\":10325:10339   */\n      sub\n        /* \"#utility.yul\":10318:10322   */\n      0x60\n        /* \"#utility.yul\":10313:10316   */\n      dup7\n        /* \"#utility.yul\":10309:10323   */\n      add\n        /* \"#utility.yul\":10302:10340   */\n      mstore\n        /* \"#utility.yul\":10361:10434   */\n      tag_378\n        /* \"#utility.yul\":10429:10433   */\n      dup3\n        /* \"#utility.yul\":10415:10427   */\n      dup3\n        /* \"#utility.yul\":10361:10434   */\n      tag_249\n      jump\t// in\n    tag_378:\n        /* \"#utility.yul\":10353:10434   */\n      swap2\n      pop\n        /* \"#utility.yul\":10205:10445   */\n      pop\n        /* \"#utility.yul\":10536:10540   */\n      0x80\n        /* \"#utility.yul\":10529:10534   */\n      dup4\n        /* \"#utility.yul\":10525:10541   */\n      add\n        /* \"#utility.yul\":10519:10542   */\n      mload\n        /* \"#utility.yul\":10589:10592   */\n      dup5\n        /* \"#utility.yul\":10583:10587   */\n      dup3\n        /* \"#utility.yul\":10579:10593   */\n      sub\n        /* \"#utility.yul\":10572:10576   */\n      0x80\n        /* \"#utility.yul\":10567:10570   */\n      dup7\n        /* \"#utility.yul\":10563:10577   */\n      add\n        /* \"#utility.yul\":10556:10594   */\n      mstore\n        /* \"#utility.yul\":10615:10688   */\n      tag_379\n        /* \"#utility.yul\":10683:10687   */\n      dup3\n        /* \"#utility.yul\":10669:10681   */\n      dup3\n        /* \"#utility.yul\":10615:10688   */\n      tag_249\n      jump\t// in\n    tag_379:\n        /* \"#utility.yul\":10607:10688   */\n      swap2\n      pop\n        /* \"#utility.yul\":10455:10699   */\n      pop\n        /* \"#utility.yul\":10783:10787   */\n      0xa0\n        /* \"#utility.yul\":10776:10781   */\n      dup4\n        /* \"#utility.yul\":10772:10788   */\n      add\n        /* \"#utility.yul\":10766:10789   */\n      mload\n        /* \"#utility.yul\":10836:10839   */\n      dup5\n        /* \"#utility.yul\":10830:10834   */\n      dup3\n        /* \"#utility.yul\":10826:10840   */\n      sub\n        /* \"#utility.yul\":10819:10823   */\n      0xa0\n        /* \"#utility.yul\":10814:10817   */\n      dup7\n        /* \"#utility.yul\":10810:10824   */\n      add\n        /* \"#utility.yul\":10803:10841   */\n      mstore\n        /* \"#utility.yul\":10862:10935   */\n      tag_380\n        /* \"#utility.yul\":10930:10934   */\n      dup3\n        /* \"#utility.yul\":10916:10928   */\n      dup3\n        /* \"#utility.yul\":10862:10935   */\n      tag_249\n      jump\t// in\n    tag_380:\n        /* \"#utility.yul\":10854:10935   */\n      swap2\n      pop\n        /* \"#utility.yul\":10709:10946   */\n      pop\n        /* \"#utility.yul\":11032:11036   */\n      0xc0\n        /* \"#utility.yul\":11025:11030   */\n      dup4\n        /* \"#utility.yul\":11021:11037   */\n      add\n        /* \"#utility.yul\":11015:11038   */\n      mload\n        /* \"#utility.yul\":11051:11114   */\n      tag_381\n        /* \"#utility.yul\":11108:11112   */\n      0xc0\n        /* \"#utility.yul\":11103:11106   */\n      dup7\n        /* \"#utility.yul\":11099:11113   */\n      add\n        /* \"#utility.yul\":11085:11097   */\n      dup3\n        /* \"#utility.yul\":11051:11114   */\n      tag_250\n      jump\t// in\n    tag_381:\n        /* \"#utility.yul\":10956:11124   */\n      pop\n        /* \"#utility.yul\":11212:11216   */\n      0xe0\n        /* \"#utility.yul\":11205:11210   */\n      dup4\n        /* \"#utility.yul\":11201:11217   */\n      add\n        /* \"#utility.yul\":11195:11218   */\n      mload\n        /* \"#utility.yul\":11231:11294   */\n      tag_382\n        /* \"#utility.yul\":11288:11292   */\n      0xe0\n        /* \"#utility.yul\":11283:11286   */\n      dup7\n        /* \"#utility.yul\":11279:11293   */\n      add\n        /* \"#utility.yul\":11265:11277   */\n      dup3\n        /* \"#utility.yul\":11231:11294   */\n      tag_250\n      jump\t// in\n    tag_382:\n        /* \"#utility.yul\":11134:11304   */\n      pop\n        /* \"#utility.yul\":11391:11397   */\n      0x0100\n        /* \"#utility.yul\":11384:11389   */\n      dup4\n        /* \"#utility.yul\":11380:11398   */\n      add\n        /* \"#utility.yul\":11374:11399   */\n      mload\n        /* \"#utility.yul\":11412:11477   */\n      tag_383\n        /* \"#utility.yul\":11469:11475   */\n      0x0100\n        /* \"#utility.yul\":11464:11467   */\n      dup7\n        /* \"#utility.yul\":11460:11476   */\n      add\n        /* \"#utility.yul\":11446:11458   */\n      dup3\n        /* \"#utility.yul\":11412:11477   */\n      tag_250\n      jump\t// in\n    tag_383:\n        /* \"#utility.yul\":11314:11487   */\n      pop\n        /* \"#utility.yul\":11504:11508   */\n      dup1\n        /* \"#utility.yul\":11497:11508   */\n      swap2\n      pop\n        /* \"#utility.yul\":9539:11514   */\n      pop\n        /* \"#utility.yul\":9421:11514   */\n      swap3\n      swap2\n      pop\n      pop\n      jump\t// out\n        /* \"#utility.yul\":11520:11784   */\n    tag_252:\n        /* \"#utility.yul\":11643:11653   */\n      0x00\n        /* \"#utility.yul\":11678:11778   */\n      tag_385\n        /* \"#utility.yul\":11774:11777   */\n      dup4\n        /* \"#utility.yul\":11766:11772   */\n      dup4\n        /* \"#utility.yul\":11678:11778   */\n      tag_251\n      jump\t// in\n    tag_385:\n        /* \"#utility.yul\":11664:11778   */\n      swap1\n      pop\n        /* \"#utility.yul\":11520:11784   */\n      swap3\n      swap2\n      pop\n      pop\n      jump\t// out\n        /* \"#utility.yul\":11790:11930   */\n    tag_253:\n        /* \"#utility.yul\":11887:11891   */\n      0x00\n        /* \"#utility.yul\":11919:11923   */\n      0x20\n        /* \"#utility.yul\":11914:11917   */\n      dup3\n        /* \"#utility.yul\":11910:11924   */\n      add\n        /* \"#utility.yul\":11902:11924   */\n      swap1\n      pop\n        /* \"#utility.yul\":11790:11930   */\n      swap2\n      swap1\n      pop\n      jump\t// out\n        /* \"#utility.yul\":12028:13155   */\n    tag_254:\n        /* \"#utility.yul\":12201:12204   */\n      0x00\n        /* \"#utility.yul\":12230:12311   */\n      tag_388\n        /* \"#utility.yul\":12305:12310   */\n      dup3\n        /* \"#utility.yul\":12230:12311   */\n      tag_245\n      jump\t// in\n    tag_388:\n        /* \"#utility.yul\":12327:12440   */\n      tag_389\n        /* \"#utility.yul\":12433:12439   */\n      dup2\n        /* \"#utility.yul\":12428:12431   */\n      dup6\n        /* \"#utility.yul\":12327:12440   */\n      tag_246\n      jump\t// in\n    tag_389:\n        /* \"#utility.yul\":12320:12440   */\n      swap4\n      pop\n        /* \"#utility.yul\":12466:12469   */\n      dup4\n        /* \"#utility.yul\":12511:12515   */\n      0x20\n        /* \"#utility.yul\":12503:12509   */\n      dup3\n        /* \"#utility.yul\":12499:12516   */\n      mul\n        /* \"#utility.yul\":12494:12497   */\n      dup6\n        /* \"#utility.yul\":12490:12517   */\n      add\n        /* \"#utility.yul\":12541:12624   */\n      tag_390\n        /* \"#utility.yul\":12618:12623   */\n      dup6\n        /* \"#utility.yul\":12541:12624   */\n      tag_247\n      jump\t// in\n    tag_390:\n        /* \"#utility.yul\":12647:12654   */\n      dup1\n        /* \"#utility.yul\":12678:12679   */\n      0x00\n        /* \"#utility.yul\":12663:13110   */\n    tag_391:\n        /* \"#utility.yul\":12688:12694   */\n      dup6\n        /* \"#utility.yul\":12685:12686   */\n      dup2\n        /* \"#utility.yul\":12682:12695   */\n      lt\n        /* \"#utility.yul\":12663:13110   */\n      iszero\n      tag_393\n      jumpi\n        /* \"#utility.yul\":12759:12768   */\n      dup5\n        /* \"#utility.yul\":12753:12757   */\n      dup5\n        /* \"#utility.yul\":12749:12769   */\n      sub\n        /* \"#utility.yul\":12744:12747   */\n      dup10\n        /* \"#utility.yul\":12737:12770   */\n      mstore\n        /* \"#utility.yul\":12810:12816   */\n      dup2\n        /* \"#utility.yul\":12804:12817   */\n      mload\n        /* \"#utility.yul\":12838:12956   */\n      tag_394\n        /* \"#utility.yul\":12951:12955   */\n      dup6\n        /* \"#utility.yul\":12936:12949   */\n      dup3\n        /* \"#utility.yul\":12838:12956   */\n      tag_252\n      jump\t// in\n    tag_394:\n        /* \"#utility.yul\":12830:12956   */\n      swap5\n      pop\n        /* \"#utility.yul\":12979:13066   */\n      tag_395\n        /* \"#utility.yul\":13059:13065   */\n      dup4\n        /* \"#utility.yul\":12979:13066   */\n      tag_253\n      jump\t// in\n    tag_395:\n        /* \"#utility.yul\":12969:13066   */\n      swap3\n      pop\n        /* \"#utility.yul\":13095:13099   */\n      0x20\n        /* \"#utility.yul\":13090:13093   */\n      dup11\n        /* \"#utility.yul\":13086:13100   */\n      add\n        /* \"#utility.yul\":13079:13100   */\n      swap10\n      pop\n        /* \"#utility.yul\":12723:13110   */\n      pop\n        /* \"#utility.yul\":12710:12711   */\n      0x01\n        /* \"#utility.yul\":12707:12708   */\n      dup2\n        /* \"#utility.yul\":12703:12712   */\n      add\n        /* \"#utility.yul\":12698:12712   */\n      swap1\n      pop\n        /* \"#utility.yul\":12663:13110   */\n      jump(tag_391)\n    tag_393:\n        /* \"#utility.yul\":12667:12681   */\n      pop\n        /* \"#utility.yul\":13126:13130   */\n      dup3\n        /* \"#utility.yul\":13119:13130   */\n      swap8\n      pop\n        /* \"#utility.yul\":13146:13149   */\n      dup8\n        /* \"#utility.yul\":13139:13149   */\n      swap6\n      pop\n        /* \"#utility.yul\":12206:13155   */\n      pop\n      pop\n      pop\n      pop\n      pop\n        /* \"#utility.yul\":12028:13155   */\n      swap3\n      swap2\n      pop\n      pop\n      jump\t// out\n        /* \"#utility.yul\":13161:13642   */\n    tag_25:\n        /* \"#utility.yul\":13358:13362   */\n      0x00\n        /* \"#utility.yul\":13396:13398   */\n      0x20\n        /* \"#utility.yul\":13385:13394   */\n      dup3\n        /* \"#utility.yul\":13381:13399   */\n      add\n        /* \"#utility.yul\":13373:13399   */\n      swap1\n      pop\n        /* \"#utility.yul\":13445:13454   */\n      dup2\n        /* \"#utility.yul\":13439:13443   */\n      dup2\n        /* \"#utility.yul\":13435:13455   */\n      sub\n        /* \"#utility.yul\":13431:13432   */\n      0x00\n        /* \"#utility.yul\":13420:13429   */\n      dup4\n        /* \"#utility.yul\":13416:13433   */\n      add\n        /* \"#utility.yul\":13409:13456   */\n      mstore\n        /* \"#utility.yul\":13473:13635   */\n      tag_397\n        /* \"#utility.yul\":13630:13634   */\n      dup2\n        /* \"#utility.yul\":13621:13627   */\n      dup5\n        /* \"#utility.yul\":13473:13635   */\n      tag_254\n      jump\t// in\n    tag_397:\n        /* \"#utility.yul\":13465:13635   */\n      swap1\n      pop\n        /* \"#utility.yul\":13161:13642   */\n      swap3\n      swap2\n      pop\n      pop\n      jump\t// out\n        /* \"#utility.yul\":13648:13977   */\n    tag_28:\n        /* \"#utility.yul\":13707:13713   */\n      0x00\n        /* \"#utility.yul\":13756:13758   */\n      0x20\n        /* \"#utility.yul\":13744:13753   */\n      dup3\n        /* \"#utility.yul\":13735:13742   */\n      dup5\n        /* \"#utility.yul\":13731:13754   */\n      sub\n        /* \"#utility.yul\":13727:13759   */\n      slt\n        /* \"#utility.yul\":13724:13843   */\n      iszero\n      tag_399\n      jumpi\n        /* \"#utility.yul\":13762:13841   */\n      tag_400\n      tag_226\n      jump\t// in\n    tag_400:\n        /* \"#utility.yul\":13724:13843   */\n    tag_399:\n        /* \"#utility.yul\":13882:13883   */\n      0x00\n        /* \"#utility.yul\":13907:13960   */\n      tag_401\n        /* \"#utility.yul\":13952:13959   */\n      dup5\n        /* \"#utility.yul\":13943:13949   */\n      dup3\n        /* \"#utility.yul\":13932:13941   */\n      dup6\n        /* \"#utility.yul\":13928:13950   */\n      add\n        /* \"#utility.yul\":13907:13960   */\n      tag_244\n      jump\t// in\n    tag_401:\n        /* \"#utility.yul\":13897:13960   */\n      swap2\n      pop\n        /* \"#utility.yul\":13853:13970   */\n      pop\n        /* \"#utility.yul\":13648:13977   */\n      swap3\n      swap2\n      pop\n      pop\n      jump\t// out\n        /* \"#utility.yul\":13983:14817   */\n    tag_33:\n        /* \"#utility.yul\":14071:14077   */\n      0x00\n        /* \"#utility.yul\":14079:14085   */\n      dup1\n        /* \"#utility.yul\":14128:14130   */\n      0x40\n        /* \"#utility.yul\":14116:14125   */\n      dup4\n        /* \"#utility.yul\":14107:14114   */\n      dup6\n        /* \"#utility.yul\":14103:14126   */\n      sub\n        /* \"#utility.yul\":14099:14131   */\n      slt\n        /* \"#utility.yul\":14096:14215   */\n      iszero\n      tag_403\n      jumpi\n        /* \"#utility.yul\":14134:14213   */\n      tag_404\n      tag_226\n      jump\t// in\n    tag_404:\n        /* \"#utility.yul\":14096:14215   */\n    tag_403:\n        /* \"#utility.yul\":14282:14283   */\n      0x00\n        /* \"#utility.yul\":14271:14280   */\n      dup4\n        /* \"#utility.yul\":14267:14284   */\n      add\n        /* \"#utility.yul\":14254:14285   */\n      calldataload\n        /* \"#utility.yul\":14312:14330   */\n      0xffffffffffffffff\n        /* \"#utility.yul\":14304:14310   */\n      dup2\n        /* \"#utility.yul\":14301:14331   */\n      gt\n        /* \"#utility.yul\":14298:14415   */\n      iszero\n      tag_405\n      jumpi\n        /* \"#utility.yul\":14334:14413   */\n      tag_406\n      tag_227\n      jump\t// in\n    tag_406:\n        /* \"#utility.yul\":14298:14415   */\n    tag_405:\n        /* \"#utility.yul\":14439:14502   */\n      tag_407\n        /* \"#utility.yul\":14494:14501   */\n      dup6\n        /* \"#utility.yul\":14485:14491   */\n      dup3\n        /* \"#utility.yul\":14474:14483   */\n      dup7\n        /* \"#utility.yul\":14470:14492   */\n      add\n        /* \"#utility.yul\":14439:14502   */\n      tag_236\n      jump\t// in\n    tag_407:\n        /* \"#utility.yul\":14429:14502   */\n      swap3\n      pop\n        /* \"#utility.yul\":14225:14512   */\n      pop\n        /* \"#utility.yul\":14579:14581   */\n      0x20\n        /* \"#utility.yul\":14568:14577   */\n      dup4\n        /* \"#utility.yul\":14564:14582   */\n      add\n        /* \"#utility.yul\":14551:14583   */\n      calldataload\n        /* \"#utility.yul\":14610:14628   */\n      0xffffffffffffffff\n        /* \"#utility.yul\":14602:14608   */\n      dup2\n        /* \"#utility.yul\":14599:14629   */\n      gt\n        /* \"#utility.yul\":14596:14713   */\n      iszero\n      tag_408\n      jumpi\n        /* \"#utility.yul\":14632:14711   */\n      tag_409\n      tag_227\n      jump\t// in\n    tag_409:\n        /* \"#utility.yul\":14596:14713   */\n    tag_408:\n        /* \"#utility.yul\":14737:14800   */\n      tag_410\n        /* \"#utility.yul\":14792:14799   */\n      dup6\n        /* \"#utility.yul\":14783:14789   */\n      dup3\n        /* \"#utility.yul\":14772:14781   */\n      dup7\n        /* \"#utility.yul\":14768:14790   */\n      add\n        /* \"#utility.yul\":14737:14800   */\n      tag_236\n      jump\t// in\n    tag_410:\n        /* \"#utility.yul\":14727:14800   */\n      swap2\n      pop\n        /* \"#utility.yul\":14522:14810   */\n      pop\n        /* \"#utility.yul\":13983:14817   */\n      swap3\n      pop\n      swap3\n      swap1\n      pop\n      jump\t// out\n        /* \"#utility.yul\":14823:15136   */\n    tag_39:\n        /* \"#utility.yul\":14936:14940   */\n      0x00\n        /* \"#utility.yul\":14974:14976   */\n      0x20\n        /* \"#utility.yul\":14963:14972   */\n      dup3\n        /* \"#utility.yul\":14959:14977   */\n      add\n        /* \"#utility.yul\":14951:14977   */\n      swap1\n      pop\n        /* \"#utility.yul\":15023:15032   */\n      dup2\n        /* \"#utility.yul\":15017:15021   */\n      dup2\n        /* \"#utility.yul\":15013:15033   */\n      sub\n        /* \"#utility.yul\":15009:15010   */\n      0x00\n        /* \"#utility.yul\":14998:15007   */\n      dup4\n        /* \"#utility.yul\":14994:15011   */\n      add\n        /* \"#utility.yul\":14987:15034   */\n      mstore\n        /* \"#utility.yul\":15051:15129   */\n      tag_412\n        /* \"#utility.yul\":15124:15128   */\n      dup2\n        /* \"#utility.yul\":15115:15121   */\n      dup5\n        /* \"#utility.yul\":15051:15129   */\n      tag_240\n      jump\t// in\n    tag_412:\n        /* \"#utility.yul\":15043:15129   */\n      swap1\n      pop\n        /* \"#utility.yul\":14823:15136   */\n      swap3\n      swap2\n      pop\n      pop\n      jump\t// out\n        /* \"#utility.yul\":15230:17333   */\n    tag_255:\n        /* \"#utility.yul\":15353:15356   */\n      0x00\n        /* \"#utility.yul\":15389:15395   */\n      0x0120\n        /* \"#utility.yul\":15384:15387   */\n      dup4\n        /* \"#utility.yul\":15380:15396   */\n      add\n        /* \"#utility.yul\":15489:15493   */\n      0x00\n        /* \"#utility.yul\":15482:15487   */\n      dup4\n        /* \"#utility.yul\":15478:15494   */\n      add\n        /* \"#utility.yul\":15472:15495   */\n      mload\n        /* \"#utility.yul\":15542:15545   */\n      dup5\n        /* \"#utility.yul\":15536:15540   */\n      dup3\n        /* \"#utility.yul\":15532:15546   */\n      sub\n        /* \"#utility.yul\":15525:15529   */\n      0x00\n        /* \"#utility.yul\":15520:15523   */\n      dup7\n        /* \"#utility.yul\":15516:15530   */\n      add\n        /* \"#utility.yul\":15509:15547   */\n      mstore\n        /* \"#utility.yul\":15568:15641   */\n      tag_414\n        /* \"#utility.yul\":15636:15640   */\n      dup3\n        /* \"#utility.yul\":15622:15634   */\n      dup3\n        /* \"#utility.yul\":15568:15641   */\n      tag_249\n      jump\t// in\n    tag_414:\n        /* \"#utility.yul\":15560:15641   */\n      swap2\n      pop\n        /* \"#utility.yul\":15406:15652   */\n      pop\n        /* \"#utility.yul\":15740:15744   */\n      0x20\n        /* \"#utility.yul\":15733:15738   */\n      dup4\n        /* \"#utility.yul\":15729:15745   */\n      add\n        /* \"#utility.yul\":15723:15746   */\n      mload\n        /* \"#utility.yul\":15759:15822   */\n      tag_415\n        /* \"#utility.yul\":15816:15820   */\n      0x20\n        /* \"#utility.yul\":15811:15814   */\n      dup7\n        /* \"#utility.yul\":15807:15821   */\n      add\n        /* \"#utility.yul\":15793:15805   */\n      dup3\n        /* \"#utility.yul\":15759:15822   */\n      tag_250\n      jump\t// in\n    tag_415:\n        /* \"#utility.yul\":15662:15832   */\n      pop\n        /* \"#utility.yul\":15922:15926   */\n      0x40\n        /* \"#utility.yul\":15915:15920   */\n      dup4\n        /* \"#utility.yul\":15911:15927   */\n      add\n        /* \"#utility.yul\":15905:15928   */\n      mload\n        /* \"#utility.yul\":15941:16004   */\n      tag_416\n        /* \"#utility.yul\":15998:16002   */\n      0x40\n        /* \"#utility.yul\":15993:15996   */\n      dup7\n        /* \"#utility.yul\":15989:16003   */\n      add\n        /* \"#utility.yul\":15975:15987   */\n      dup3\n        /* \"#utility.yul\":15941:16004   */\n      tag_250\n      jump\t// in\n    tag_416:\n        /* \"#utility.yul\":15842:16014   */\n      pop\n        /* \"#utility.yul\":16101:16105   */\n      0x60\n        /* \"#utility.yul\":16094:16099   */\n      dup4\n        /* \"#utility.yul\":16090:16106   */\n      add\n        /* \"#utility.yul\":16084:16107   */\n      mload\n        /* \"#utility.yul\":16154:16157   */\n      dup5\n        /* \"#utility.yul\":16148:16152   */\n      dup3\n        /* \"#utility.yul\":16144:16158   */\n      sub\n        /* \"#utility.yul\":16137:16141   */\n      0x60\n        /* \"#utility.yul\":16132:16135   */\n      dup7\n        /* \"#utility.yul\":16128:16142   */\n      add\n        /* \"#utility.yul\":16121:16159   */\n      mstore\n        /* \"#utility.yul\":16180:16253   */\n      tag_417\n        /* \"#utility.yul\":16248:16252   */\n      dup3\n        /* \"#utility.yul\":16234:16246   */\n      dup3\n        /* \"#utility.yul\":16180:16253   */\n      tag_249\n      jump\t// in\n    tag_417:\n        /* \"#utility.yul\":16172:16253   */\n      swap2\n      pop\n        /* \"#utility.yul\":16024:16264   */\n      pop\n        /* \"#utility.yul\":16355:16359   */\n      0x80\n        /* \"#utility.yul\":16348:16353   */\n      dup4\n        /* \"#utility.yul\":16344:16360   */\n      add\n        /* \"#utility.yul\":16338:16361   */\n      mload\n        /* \"#utility.yul\":16408:16411   */\n      dup5\n        /* \"#utility.yul\":16402:16406   */\n      dup3\n        /* \"#utility.yul\":16398:16412   */\n      sub\n        /* \"#utility.yul\":16391:16395   */\n      0x80\n        /* \"#utility.yul\":16386:16389   */\n      dup7\n        /* \"#utility.yul\":16382:16396   */\n      add\n        /* \"#utility.yul\":16375:16413   */\n      mstore\n        /* \"#utility.yul\":16434:16507   */\n      tag_418\n        /* \"#utility.yul\":16502:16506   */\n      dup3\n        /* \"#utility.yul\":16488:16500   */\n      dup3\n        /* \"#utility.yul\":16434:16507   */\n      tag_249\n      jump\t// in\n    tag_418:\n        /* \"#utility.yul\":16426:16507   */\n      swap2\n      pop\n        /* \"#utility.yul\":16274:16518   */\n      pop\n        /* \"#utility.yul\":16602:16606   */\n      0xa0\n        /* \"#utility.yul\":16595:16600   */\n      dup4\n        /* \"#utility.yul\":16591:16607   */\n      add\n        /* \"#utility.yul\":16585:16608   */\n      mload\n        /* \"#utility.yul\":16655:16658   */\n      dup5\n        /* \"#utility.yul\":16649:16653   */\n      dup3\n        /* \"#utility.yul\":16645:16659   */\n      sub\n        /* \"#utility.yul\":16638:16642   */\n      0xa0\n        /* \"#utility.yul\":16633:16636   */\n      dup7\n        /* \"#utility.yul\":16629:16643   */\n      add\n        /* \"#utility.yul\":16622:16660   */\n      mstore\n        /* \"#utility.yul\":16681:16754   */\n      tag_419\n        /* \"#utility.yul\":16749:16753   */\n      dup3\n        /* \"#utility.yul\":16735:16747   */\n      dup3\n        /* \"#utility.yul\":16681:16754   */\n      tag_249\n      jump\t// in\n    tag_419:\n        /* \"#utility.yul\":16673:16754   */\n      swap2\n      pop\n        /* \"#utility.yul\":16528:16765   */\n      pop\n        /* \"#utility.yul\":16851:16855   */\n      0xc0\n        /* \"#utility.yul\":16844:16849   */\n      dup4\n        /* \"#utility.yul\":16840:16856   */\n      add\n        /* \"#utility.yul\":16834:16857   */\n      mload\n        /* \"#utility.yul\":16870:16933   */\n      tag_420\n        /* \"#utility.yul\":16927:16931   */\n      0xc0\n        /* \"#utility.yul\":16922:16925   */\n      dup7\n        /* \"#utility.yul\":16918:16932   */\n      add\n        /* \"#utility.yul\":16904:16916   */\n      dup3\n        /* \"#utility.yul\":16870:16933   */\n      tag_250\n      jump\t// in\n    tag_420:\n        /* \"#utility.yul\":16775:16943   */\n      pop\n        /* \"#utility.yul\":17031:17035   */\n      0xe0\n        /* \"#utility.yul\":17024:17029   */\n      dup4\n        /* \"#utility.yul\":17020:17036   */\n      add\n        /* \"#utility.yul\":17014:17037   */\n      mload\n        /* \"#utility.yul\":17050:17113   */\n      tag_421\n        /* \"#utility.yul\":17107:17111   */\n      0xe0\n        /* \"#utility.yul\":17102:17105   */\n      dup7\n        /* \"#utility.yul\":17098:17112   */\n      add\n        /* \"#utility.yul\":17084:17096   */\n      dup3\n        /* \"#utility.yul\":17050:17113   */\n      tag_250\n      jump\t// in\n    tag_421:\n        /* \"#utility.yul\":16953:17123   */\n      pop\n        /* \"#utility.yul\":17210:17216   */\n      0x0100\n        /* \"#utility.yul\":17203:17208   */\n      dup4\n        /* \"#utility.yul\":17199:17217   */\n      add\n        /* \"#utility.yul\":17193:17218   */\n      mload\n        /* \"#utility.yul\":17231:17296   */\n      tag_422\n        /* \"#utility.yul\":17288:17294   */\n      0x0100\n        /* \"#utility.yul\":17283:17286   */\n      dup7\n        /* \"#utility.yul\":17279:17295   */\n      add\n        /* \"#utility.yul\":17265:17277   */\n      dup3\n        /* \"#utility.yul\":17231:17296   */\n      tag_250\n      jump\t// in\n    tag_422:\n        /* \"#utility.yul\":17133:17306   */\n      pop\n        /* \"#utility.yul\":17323:17327   */\n      dup1\n        /* \"#utility.yul\":17316:17327   */\n      swap2\n      pop\n        /* \"#utility.yul\":15358:17333   */\n      pop\n        /* \"#utility.yul\":15230:17333   */\n      swap3\n      swap2\n      pop\n      pop\n      jump\t// out\n        /* \"#utility.yul\":17339:17720   */\n    tag_44:\n        /* \"#utility.yul\":17486:17490   */\n      0x00\n        /* \"#utility.yul\":17524:17526   */\n      0x20\n        /* \"#utility.yul\":17513:17522   */\n      dup3\n        /* \"#utility.yul\":17509:17527   */\n      add\n        /* \"#utility.yul\":17501:17527   */\n      swap1\n      pop\n        /* \"#utility.yul\":17573:17582   */\n      dup2\n        /* \"#utility.yul\":17567:17571   */\n      dup2\n        /* \"#utility.yul\":17563:17583   */\n      sub\n        /* \"#utility.yul\":17559:17560   */\n      0x00\n        /* \"#utility.yul\":17548:17557   */\n      dup4\n        /* \"#utility.yul\":17544:17561   */\n      add\n        /* \"#utility.yul\":17537:17584   */\n      mstore\n        /* \"#utility.yul\":17601:17713   */\n      tag_424\n        /* \"#utility.yul\":17708:17712   */\n      dup2\n        /* \"#utility.yul\":17699:17705   */\n      dup5\n        /* \"#utility.yul\":17601:17713   */\n      tag_255\n      jump\t// in\n    tag_424:\n        /* \"#utility.yul\":17593:17713   */\n      swap1\n      pop\n        /* \"#utility.yul\":17339:17720   */\n      swap3\n      swap2\n      pop\n      pop\n      jump\t// out\n        /* \"#utility.yul\":17726:17906   */\n    tag_256:\n        /* \"#utility.yul\":17774:17851   */\n      0x4e487b7100000000000000000000000000000000000000000000000000000000\n        /* \"#utility.yul\":17771:17772   */\n      0x00\n        /* \"#utility.yul\":17764:17852   */\n      mstore\n        /* \"#utility.yul\":17871:17875   */\n      0x22\n        /* \"#utility.yul\":17868:17869   */\n      0x04\n        /* \"#utility.yul\":17861:17876   */\n      mstore\n        /* \"#utility.yul\":17895:17899   */\n      0x24\n        /* \"#utility.yul\":17892:17893   */\n      0x00\n        /* \"#utility.yul\":17885:17900   */\n      revert\n        /* \"#utility.yul\":17912:18232   */\n    tag_49:\n        /* \"#utility.yul\":17956:17962   */\n      0x00\n        /* \"#utility.yul\":17993:17994   */\n      0x02\n        /* \"#utility.yul\":17987:17991   */\n      dup3\n        /* \"#utility.yul\":17983:17995   */\n      div\n        /* \"#utility.yul\":17973:17995   */\n      swap1\n      pop\n        /* \"#utility.yul\":18040:18041   */\n      0x01\n        /* \"#utility.yul\":18034:18038   */\n      dup3\n        /* \"#utility.yul\":18030:18042   */\n      and\n        /* \"#utility.yul\":18061:18079   */\n      dup1\n        /* \"#utility.yul\":18051:18132   */\n      tag_427\n      jumpi\n        /* \"#utility.yul\":18117:18121   */\n      0x7f\n        /* \"#utility.yul\":18109:18115   */\n      dup3\n        /* \"#utility.yul\":18105:18122   */\n      and\n        /* \"#utility.yul\":18095:18122   */\n      swap2\n      pop\n        /* \"#utility.yul\":18051:18132   */\n    tag_427:\n        /* \"#utility.yul\":18179:18181   */\n      0x20\n        /* \"#utility.yul\":18171:18177   */\n      dup3\n        /* \"#utility.yul\":18168:18182   */\n      lt\n        /* \"#utility.yul\":18148:18166   */\n      dup2\n        /* \"#utility.yul\":18145:18183   */\n      sub\n        /* \"#utility.yul\":18142:18226   */\n      tag_428\n      jumpi\n        /* \"#utility.yul\":18198:18216   */\n      tag_429\n      tag_256\n      jump\t// in\n    tag_429:\n        /* \"#utility.yul\":18142:18226   */\n    tag_428:\n        /* \"#utility.yul\":17963:18232   */\n      pop\n        /* \"#utility.yul\":17912:18232   */\n      swap2\n      swap1\n      pop\n      jump\t// out\n        /* \"#utility.yul\":18238:18386   */\n    tag_257:\n        /* \"#utility.yul\":18340:18351   */\n      0x00\n        /* \"#utility.yul\":18377:18380   */\n      dup2\n        /* \"#utility.yul\":18362:18380   */\n      swap1\n      pop\n        /* \"#utility.yul\":18238:18386   */\n      swap3\n      swap2\n      pop\n      pop\n      jump\t// out\n        /* \"#utility.yul\":18392:18782   */\n    tag_258:\n        /* \"#utility.yul\":18498:18501   */\n      0x00\n        /* \"#utility.yul\":18526:18565   */\n      tag_432\n        /* \"#utility.yul\":18559:18564   */\n      dup3\n        /* \"#utility.yul\":18526:18565   */\n      tag_237\n      jump\t// in\n    tag_432:\n        /* \"#utility.yul\":18581:18670   */\n      tag_433\n        /* \"#utility.yul\":18663:18669   */\n      dup2\n        /* \"#utility.yul\":18658:18661   */\n      dup6\n        /* \"#utility.yul\":18581:18670   */\n      tag_257\n      jump\t// in\n    tag_433:\n        /* \"#utility.yul\":18574:18670   */\n      swap4\n      pop\n        /* \"#utility.yul\":18679:18744   */\n      tag_434\n        /* \"#utility.yul\":18737:18743   */\n      dup2\n        /* \"#utility.yul\":18732:18735   */\n      dup6\n        /* \"#utility.yul\":18725:18729   */\n      0x20\n        /* \"#utility.yul\":18718:18723   */\n      dup7\n        /* \"#utility.yul\":18714:18730   */\n      add\n        /* \"#utility.yul\":18679:18744   */\n      tag_239\n      jump\t// in\n    tag_434:\n        /* \"#utility.yul\":18769:18775   */\n      dup1\n        /* \"#utility.yul\":18764:18767   */\n      dup5\n        /* \"#utility.yul\":18760:18776   */\n      add\n        /* \"#utility.yul\":18753:18776   */\n      swap2\n      pop\n        /* \"#utility.yul\":18502:18782   */\n      pop\n        /* \"#utility.yul\":18392:18782   */\n      swap3\n      swap2\n      pop\n      pop\n      jump\t// out\n        /* \"#utility.yul\":18788:19063   */\n    tag_71:\n        /* \"#utility.yul\":18920:18923   */\n      0x00\n        /* \"#utility.yul\":18942:19037   */\n      tag_436\n        /* \"#utility.yul\":19033:19036   */\n      dup3\n        /* \"#utility.yul\":19024:19030   */\n      dup5\n        /* \"#utility.yul\":18942:19037   */\n      tag_258\n      jump\t// in\n    tag_436:\n        /* \"#utility.yul\":18935:19037   */\n      swap2\n      pop\n        /* \"#utility.yul\":19054:19057   */\n      dup2\n        /* \"#utility.yul\":19047:19057   */\n      swap1\n      pop\n        /* \"#utility.yul\":18788:19063   */\n      swap3\n      swap2\n      pop\n      pop\n      jump\t// out\n        /* \"#utility.yul\":19069:19210   */\n    tag_259:\n        /* \"#utility.yul\":19118:19122   */\n      0x00\n        /* \"#utility.yul\":19141:19144   */\n      dup2\n        /* \"#utility.yul\":19133:19144   */\n      swap1\n      pop\n        /* \"#utility.yul\":19164:19167   */\n      dup2\n        /* \"#utility.yul\":19161:19162   */\n      0x00\n        /* \"#utility.yul\":19154:19168   */\n      mstore\n        /* \"#utility.yul\":19198:19202   */\n      0x20\n        /* \"#utility.yul\":19195:19196   */\n      0x00\n        /* \"#utility.yul\":19185:19203   */\n      keccak256\n        /* \"#utility.yul\":19177:19203   */\n      swap1\n      pop\n        /* \"#utility.yul\":19069:19210   */\n      swap2\n      swap1\n      pop\n      jump\t// out\n        /* \"#utility.yul\":19216:19309   */\n    tag_260:\n        /* \"#utility.yul\":19253:19259   */\n      0x00\n        /* \"#utility.yul\":19300:19302   */\n      0x20\n        /* \"#utility.yul\":19295:19297   */\n      0x1f\n        /* \"#utility.yul\":19288:19293   */\n      dup4\n        /* \"#utility.yul\":19284:19298   */\n      add\n        /* \"#utility.yul\":19280:19303   */\n      div\n        /* \"#utility.yul\":19270:19303   */\n      swap1\n      pop\n        /* \"#utility.yul\":19216:19309   */\n      swap2\n      swap1\n      pop\n      jump\t// out\n        /* \"#utility.yul\":19315:19422   */\n    tag_261:\n        /* \"#utility.yul\":19359:19367   */\n      0x00\n        /* \"#utility.yul\":19409:19414   */\n      dup3\n        /* \"#utility.yul\":19403:19407   */\n      dup3\n        /* \"#utility.yul\":19399:19415   */\n      shl\n        /* \"#utility.yul\":19378:19415   */\n      swap1\n      pop\n        /* \"#utility.yul\":19315:19422   */\n      swap3\n      swap2\n      pop\n      pop\n      jump\t// out\n        /* \"#utility.yul\":19428:19821   */\n    tag_262:\n        /* \"#utility.yul\":19497:19503   */\n      0x00\n        /* \"#utility.yul\":19547:19548   */\n      0x08\n        /* \"#utility.yul\":19535:19545   */\n      dup4\n        /* \"#utility.yul\":19531:19549   */\n      mul\n        /* \"#utility.yul\":19570:19667   */\n      tag_441\n        /* \"#utility.yul\":19600:19666   */\n      0xffffffffffffffffffffffffffffffffffffffffffffffffffffffffffffffff\n        /* \"#utility.yul\":19589:19598   */\n      dup3\n        /* \"#utility.yul\":19570:19667   */\n      tag_261\n      jump\t// in\n    tag_441:\n        /* \"#utility.yul\":19688:19727   */\n      tag_442\n        /* \"#utility.yul\":19718:19726   */\n      dup7\n        /* \"#utility.yul\":19707:19716   */\n      dup4\n        /* \"#utility.yul\":19688:19727   */\n      tag_261\n      jump\t// in\n    tag_442:\n        /* \"#utility.yul\":19676:19727   */\n      swap6\n      pop\n        /* \"#utility.yul\":19760:19764   */\n      dup1\n        /* \"#utility.yul\":19756:19765   */\n      not\n        /* \"#utility.yul\":19749:19754   */\n      dup5\n        /* \"#utility.yul\":19745:19766   */\n      and\n        /* \"#utility.yul\":19736:19766   */\n      swap4\n      pop\n        /* \"#utility.yul\":19809:19813   */\n      dup1\n        /* \"#utility.yul\":19799:19807   */\n      dup7\n        /* \"#utility.yul\":19795:19814   */\n      and\n        /* \"#utility.yul\":19788:19793   */\n      dup5\n        /* \"#utility.yul\":19785:19815   */\n      or\n        /* \"#utility.yul\":19775:19815   */\n      swap3\n      pop\n        /* \"#utility.yul\":19504:19821   */\n      pop\n      pop\n        /* \"#utility.yul\":19428:19821   */\n      swap4\n      swap3\n      pop\n      pop\n      pop\n      jump\t// out\n        /* \"#utility.yul\":19827:19887   */\n    tag_263:\n        /* \"#utility.yul\":19855:19858   */\n      0x00\n        /* \"#utility.yul\":19876:19881   */\n      dup2\n        /* \"#utility.yul\":19869:19881   */\n      swap1\n      pop\n        /* \"#utility.yul\":19827:19887   */\n      swap2\n      swap1\n      pop\n      jump\t// out\n        /* \"#utility.yul\":19893:20035   */\n    tag_264:\n        /* \"#utility.yul\":19943:19952   */\n      0x00\n        /* \"#utility.yul\":19976:20029   */\n      tag_445\n        /* \"#utility.yul\":19994:20028   */\n      tag_446\n        /* \"#utility.yul\":20003:20027   */\n      tag_447\n        /* \"#utility.yul\":20021:20026   */\n      dup5\n        /* \"#utility.yul\":20003:20027   */\n      tag_241\n      jump\t// in\n    tag_447:\n        /* \"#utility.yul\":19994:20028   */\n      tag_263\n      jump\t// in\n    tag_446:\n        /* \"#utility.yul\":19976:20029   */\n      tag_241\n      jump\t// in\n    tag_445:\n        /* \"#utility.yul\":19963:20029   */\n      swap1\n      pop\n        /* \"#utility.yul\":19893:20035   */\n      swap2\n      swap1\n      pop\n      jump\t// out\n        /* \"#utility.yul\":20041:20116   */\n    tag_265:\n        /* \"#utility.yul\":20084:20087   */\n      0x00\n        /* \"#utility.yul\":20105:20110   */\n      dup2\n        /* \"#utility.yul\":20098:20110   */\n      swap1\n      pop\n        /* \"#utility.yul\":20041:20116   */\n      swap2\n      swap1\n      pop\n      jump\t// out\n        /* \"#utility.yul\":20122:20391   */\n    tag_266:\n        /* \"#utility.yul\":20232:20271   */\n      tag_450\n        /* \"#utility.yul\":20263:20270   */\n      dup4\n        /* \"#utility.yul\":20232:20271   */\n      tag_264\n      jump\t// in\n    tag_450:\n        /* \"#utility.yul\":20293:20384   */\n      tag_451\n        /* \"#utility.yul\":20342:20383   */\n      tag_452\n        /* \"#utility.yul\":20366:20382   */\n      dup3\n        /* \"#utility.yul\":20342:20383   */\n      tag_265\n      jump\t// in\n    tag_452:\n        /* \"#utility.yul\":20334:20340   */\n      dup5\n        /* \"#utility.yul\":20327:20331   */\n      dup5\n        /* \"#utility.yul\":20321:20332   */\n      sload\n        /* \"#utility.yul\":20293:20384   */\n      tag_262\n      jump\t// in\n    tag_451:\n        /* \"#utility.yul\":20287:20291   */\n      dup3\n        /* \"#utility.yul\":20280:20385   */\n      sstore\n        /* \"#utility.yul\":20198:20391   */\n      pop\n        /* \"#utility.yul\":20122:20391   */\n      pop\n      pop\n      pop\n      jump\t// out\n        /* \"#utility.yul\":20397:20470   */\n    tag_267:\n        /* \"#utility.yul\":20442:20445   */\n      0x00\n        /* \"#utility.yul\":20397:20470   */\n      swap1\n      jump\t// out\n        /* \"#utility.yul\":20476:20665   */\n    tag_268:\n        /* \"#utility.yul\":20553:20585   */\n      tag_455\n      tag_267\n      jump\t// in\n    tag_455:\n        /* \"#utility.yul\":20594:20659   */\n      tag_456\n        /* \"#utility.yul\":20652:20658   */\n      dup2\n        /* \"#utility.yul\":20644:20650   */\n      dup5\n        /* \"#utility.yul\":20638:20642   */\n      dup5\n        /* \"#utility.yul\":20594:20659   */\n      tag_266\n      jump\t// in\n    tag_456:\n        /* \"#utility.yul\":20529:20665   */\n      pop\n        /* \"#utility.yul\":20476:20665   */\n      pop\n      pop\n      jump\t// out\n        /* \"#utility.yul\":20671:20857   */\n    tag_269:\n        /* \"#utility.yul\":20731:20851   */\n    tag_458:\n        /* \"#utility.yul\":20748:20751   */\n      dup2\n        /* \"#utility.yul\":20741:20746   */\n      dup2\n        /* \"#utility.yul\":20738:20752   */\n      lt\n        /* \"#utility.yul\":20731:20851   */\n      iszero\n      tag_460\n      jumpi\n        /* \"#utility.yul\":20802:20841   */\n      tag_461\n        /* \"#utility.yul\":20839:20840   */\n      0x00\n        /* \"#utility.yul\":20832:20837   */\n      dup3\n        /* \"#utility.yul\":20802:20841   */\n      tag_268\n      jump\t// in\n    tag_461:\n        /* \"#utility.yul\":20775:20776   */\n      0x01\n        /* \"#utility.yul\":20768:20773   */\n      dup2\n        /* \"#utility.yul\":20764:20777   */\n      add\n        /* \"#utility.yul\":20755:20777   */\n      swap1\n      pop\n        /* \"#utility.yul\":20731:20851   */\n      jump(tag_458)\n    tag_460:\n        /* \"#utility.yul\":20671:20857   */\n      pop\n      pop\n      jump\t// out\n        /* \"#utility.yul\":20863:21406   */\n    tag_270:\n        /* \"#utility.yul\":20964:20966   */\n      0x1f\n        /* \"#utility.yul\":20959:20962   */\n      dup3\n        /* \"#utility.yul\":20956:20967   */\n      gt\n        /* \"#utility.yul\":20953:21399   */\n      iszero\n      tag_463\n      jumpi\n        /* \"#utility.yul\":20998:21036   */\n      tag_464\n        /* \"#utility.yul\":21030:21035   */\n      dup2\n        /* \"#utility.yul\":20998:21036   */\n      tag_259\n      jump\t// in\n    tag_464:\n        /* \"#utility.yul\":21082:21111   */\n      tag_465\n        /* \"#utility.yul\":21100:21110   */\n      dup5\n        /* \"#utility.yul\":21082:21111   */\n      tag_260\n      jump\t// in\n    tag_465:\n        /* \"#utility.yul\":21072:21080   */\n      dup2\n        /* \"#utility.yul\":21068:21112   */\n      add\n        /* \"#utility.yul\":21265:21267   */\n      0x20\n        /* \"#utility.yul\":21253:21263   */\n      dup6\n        /* \"#utility.yul\":21250:21268   */\n      lt\n        /* \"#utility.yul\":21247:21296   */\n      iszero\n      tag_466\n      jumpi\n        /* \"#utility.yul\":21286:21294   */\n      dup2\n        /* \"#utility.yul\":21271:21294   */\n      swap1\n      pop\n        /* \"#utility.yul\":21247:21296   */\n    tag_466:\n        /* \"#utility.yul\":21309:21389   */\n      tag_467\n        /* \"#utility.yul\":21365:21387   */\n      tag_468\n        /* \"#utility.yul\":21383:21386   */\n      dup6\n        /* \"#utility.yul\":21365:21387   */\n      tag_260\n      jump\t// in\n    tag_468:\n        /* \"#utility.yul\":21355:21363   */\n      dup4\n        /* \"#utility.yul\":21351:21388   */\n      add\n        /* \"#utility.yul\":21338:21349   */\n      dup3\n        /* \"#utility.yul\":21309:21389   */\n      tag_269\n      jump\t// in\n    tag_467:\n        /* \"#utility.yul\":20968:21399   */\n      pop\n      pop\n        /* \"#utility.yul\":20953:21399   */\n    tag_463:\n        /* \"#utility.yul\":20863:21406   */\n      pop\n      pop\n      pop\n      jump\t// out\n        /* \"#utility.yul\":21412:21529   */\n    tag_271:\n        /* \"#utility.yul\":21466:21474   */\n      0x00\n        /* \"#utility.yul\":21516:21521   */\n      dup3\n        /* \"#utility.yul\":21510:21514   */\n      dup3\n        /* \"#utility.yul\":21506:21522   */\n      shr\n        /* \"#utility.yul\":21485:21522   */\n      swap1\n      pop\n        /* \"#utility.yul\":21412:21529   */\n      swap3\n      swap2\n      pop\n      pop\n      jump\t// out\n        /* \"#utility.yul\":21535:21704   */\n    tag_272:\n        /* \"#utility.yul\":21579:21585   */\n      0x00\n        /* \"#utility.yul\":21612:21663   */\n      tag_471\n        /* \"#utility.yul\":21660:21661   */\n      0x00\n        /* \"#utility.yul\":21656:21662   */\n      not\n        /* \"#utility.yul\":21648:21653   */\n      dup5\n        /* \"#utility.yul\":21645:21646   */\n      0x08\n        /* \"#utility.yul\":21641:21654   */\n      mul\n        /* \"#utility.yul\":21612:21663   */\n      tag_271\n      jump\t// in\n    tag_471:\n        /* \"#utility.yul\":21608:21664   */\n      not\n        /* \"#utility.yul\":21693:21697   */\n      dup1\n        /* \"#utility.yul\":21687:21691   */\n      dup4\n        /* \"#utility.yul\":21683:21698   */\n      and\n        /* \"#utility.yul\":21673:21698   */\n      swap2\n      pop\n        /* \"#utility.yul\":21586:21704   */\n      pop\n        /* \"#utility.yul\":21535:21704   */\n      swap3\n      swap2\n      pop\n      pop\n      jump\t// out\n        /* \"#utility.yul\":21709:22004   */\n    tag_273:\n        /* \"#utility.yul\":21785:21789   */\n      0x00\n        /* \"#utility.yul\":21931:21960   */\n      tag_473\n        /* \"#utility.yul\":21956:21959   */\n      dup4\n        /* \"#utility.yul\":21950:21954   */\n      dup4\n        /* \"#utility.yul\":21931:21960   */\n      tag_272\n      jump\t// in\n    tag_473:\n        /* \"#utility.yul\":21923:21960   */\n      swap2\n      pop\n        /* \"#utility.yul\":21993:21996   */\n      dup3\n        /* \"#utility.yul\":21990:21991   */\n      0x02\n        /* \"#utility.yul\":21986:21997   */\n      mul\n        /* \"#utility.yul\":21980:21984   */\n      dup3\n        /* \"#utility.yul\":21977:21998   */\n      or\n        /* \"#utility.yul\":21969:21998   */\n      swap1\n      pop\n        /* \"#utility.yul\":21709:22004   */\n      swap3\n      swap2\n      pop\n      pop\n      jump\t// out\n        /* \"#utility.yul\":22009:23404   */\n    tag_73:\n        /* \"#utility.yul\":22126:22163   */\n      tag_475\n        /* \"#utility.yul\":22159:22162   */\n      dup3\n        /* \"#utility.yul\":22126:22163   */\n      tag_237\n      jump\t// in\n    tag_475:\n        /* \"#utility.yul\":22228:22246   */\n      0xffffffffffffffff\n        /* \"#utility.yul\":22220:22226   */\n      dup2\n        /* \"#utility.yul\":22217:22247   */\n      gt\n        /* \"#utility.yul\":22214:22270   */\n      iszero\n      tag_476\n      jumpi\n        /* \"#utility.yul\":22250:22268   */\n      tag_477\n      tag_83\n      jump\t// in\n    tag_477:\n        /* \"#utility.yul\":22214:22270   */\n    tag_476:\n        /* \"#utility.yul\":22294:22332   */\n      tag_478\n        /* \"#utility.yul\":22326:22330   */\n      dup3\n        /* \"#utility.yul\":22320:22331   */\n      sload\n        /* \"#utility.yul\":22294:22332   */\n      tag_49\n      jump\t// in\n    tag_478:\n        /* \"#utility.yul\":22379:22446   */\n      tag_479\n        /* \"#utility.yul\":22439:22445   */\n      dup3\n        /* \"#utility.yul\":22431:22437   */\n      dup3\n        /* \"#utility.yul\":22425:22429   */\n      dup6\n        /* \"#utility.yul\":22379:22446   */\n      tag_270\n      jump\t// in\n    tag_479:\n        /* \"#utility.yul\":22473:22474   */\n      0x00\n        /* \"#utility.yul\":22497:22501   */\n      0x20\n        /* \"#utility.yul\":22484:22501   */\n      swap1\n      pop\n        /* \"#utility.yul\":22529:22531   */\n      0x1f\n        /* \"#utility.yul\":22521:22527   */\n      dup4\n        /* \"#utility.yul\":22518:22532   */\n      gt\n        /* \"#utility.yul\":22546:22547   */\n      0x01\n        /* \"#utility.yul\":22541:23159   */\n      dup2\n      eq\n      tag_481\n      jumpi\n        /* \"#utility.yul\":23203:23204   */\n      0x00\n        /* \"#utility.yul\":23220:23226   */\n      dup5\n        /* \"#utility.yul\":23217:23294   */\n      iszero\n      tag_482\n      jumpi\n        /* \"#utility.yul\":23269:23278   */\n      dup3\n        /* \"#utility.yul\":23264:23267   */\n      dup8\n        /* \"#utility.yul\":23260:23279   */\n      add\n        /* \"#utility.yul\":23254:23280   */\n      mload\n        /* \"#utility.yul\":23245:23280   */\n      swap1\n      pop\n        /* \"#utility.yul\":23217:23294   */\n    tag_482:\n        /* \"#utility.yul\":23320:23387   */\n      tag_483\n        /* \"#utility.yul\":23380:23386   */\n      dup6\n        /* \"#utility.yul\":23373:23378   */\n      dup3\n        /* \"#utility.yul\":23320:23387   */\n      tag_273\n      jump\t// in\n    tag_483:\n        /* \"#utility.yul\":23314:23318   */\n      dup7\n        /* \"#utility.yul\":23307:23388   */\n      sstore\n        /* \"#utility.yul\":23176:23398   */\n      pop\n        /* \"#utility.yul\":22511:23398   */\n      jump(tag_480)\n        /* \"#utility.yul\":22541:23159   */\n    tag_481:\n        /* \"#utility.yul\":22593:22597   */\n      0x1f\n        /* \"#utility.yul\":22589:22598   */\n      not\n        /* \"#utility.yul\":22581:22587   */\n      dup5\n        /* \"#utility.yul\":22577:22599   */\n      and\n        /* \"#utility.yul\":22627:22664   */\n      tag_484\n        /* \"#utility.yul\":22659:22663   */\n      dup7\n        /* \"#utility.yul\":22627:22664   */\n      tag_259\n      jump\t// in\n    tag_484:\n        /* \"#utility.yul\":22686:22687   */\n      0x00\n        /* \"#utility.yul\":22700:22908   */\n    tag_485:\n        /* \"#utility.yul\":22714:22721   */\n      dup3\n        /* \"#utility.yul\":22711:22712   */\n      dup2\n        /* \"#utility.yul\":22708:22722   */\n      lt\n        /* \"#utility.yul\":22700:22908   */\n      iszero\n      tag_487\n      jumpi\n        /* \"#utility.yul\":22793:22802   */\n      dup5\n        /* \"#utility.yul\":22788:22791   */\n      dup10\n        /* \"#utility.yul\":22784:22803   */\n      add\n        /* \"#utility.yul\":22778:22804   */\n      mload\n        /* \"#utility.yul\":22770:22776   */\n      dup3\n        /* \"#utility.yul\":22763:22805   */\n      sstore\n        /* \"#utility.yul\":22844:22845   */\n      0x01\n        /* \"#utility.yul\":22836:22842   */\n      dup3\n        /* \"#utility.yul\":22832:22846   */\n      add\n        /* \"#utility.yul\":22822:22846   */\n      swap2\n      pop\n        /* \"#utility.yul\":22891:22893   */\n      0x20\n        /* \"#utility.yul\":22880:22889   */\n      dup6\n        /* \"#utility.yul\":22876:22894   */\n      add\n        /* \"#utility.yul\":22863:22894   */\n      swap5\n      pop\n        /* \"#utility.yul\":22737:22741   */\n      0x20\n        /* \"#utility.yul\":22734:22735   */\n      dup2\n        /* \"#utility.yul\":22730:22742   */\n      add\n        /* \"#utility.yul\":22725:22742   */\n      swap1\n      pop\n        /* \"#utility.yul\":22700:22908   */\n      jump(tag_485)\n    tag_487:\n        /* \"#utility.yul\":22936:22942   */\n      dup7\n        /* \"#utility.yul\":22927:22934   */\n      dup4\n        /* \"#utility.yul\":22924:22943   */\n      lt\n        /* \"#utility.yul\":22921:23100   */\n      iszero\n      tag_488\n      jumpi\n        /* \"#utility.yul\":22994:23003   */\n      dup5\n        /* \"#utility.yul\":22989:22992   */\n      dup10\n        /* \"#utility.yul\":22985:23004   */\n      add\n        /* \"#utility.yul\":22979:23005   */\n      mload\n        /* \"#utility.yul\":23037:23085   */\n      tag_489\n        /* \"#utility.yul\":23079:23083   */\n      0x1f\n        /* \"#utility.yul\":23071:23077   */\n      dup10\n        /* \"#utility.yul\":23067:23084   */\n      and\n        /* \"#utility.yul\":23056:23065   */\n      dup3\n        /* \"#utility.yul\":23037:23085   */\n      tag_272\n      jump\t// in\n    tag_489:\n        /* \"#utility.yul\":23029:23035   */\n      dup4\n        /* \"#utility.yul\":23022:23086   */\n      sstore\n        /* \"#utility.yul\":22944:23100   */\n      pop\n        /* \"#utility.yul\":22921:23100   */\n    tag_488:\n        /* \"#utility.yul\":23146:23147   */\n      0x01\n        /* \"#utility.yul\":23142:23143   */\n      0x02\n        /* \"#utility.yul\":23134:23140   */\n      dup9\n        /* \"#utility.yul\":23130:23144   */\n      mul\n        /* \"#utility.yul\":23126:23148   */\n      add\n        /* \"#utility.yul\":23120:23124   */\n      dup9\n        /* \"#utility.yul\":23113:23149   */\n      sstore\n        /* \"#utility.yul\":22548:23159   */\n      pop\n      pop\n      pop\n        /* \"#utility.yul\":22511:23398   */\n    tag_480:\n      pop\n        /* \"#utility.yul\":22101:23404   */\n      pop\n      pop\n      pop\n        /* \"#utility.yul\":22009:23404   */\n      pop\n      pop\n      jump\t// out\n        /* \"#utility.yul\":23410:23590   */\n    tag_93:\n        /* \"#utility.yul\":23458:23535   */\n      0x4e487b7100000000000000000000000000000000000000000000000000000000\n        /* \"#utility.yul\":23455:23456   */\n      0x00\n        /* \"#utility.yul\":23448:23536   */\n      mstore\n        /* \"#utility.yul\":23555:23559   */\n      0x32\n        /* \"#utility.yul\":23552:23553   */\n      0x04\n        /* \"#utility.yul\":23545:23560   */\n      mstore\n        /* \"#utility.yul\":23579:23583   */\n      0x24\n        /* \"#utility.yul\":23576:23577   */\n      0x00\n        /* \"#utility.yul\":23569:23584   */\n      revert\n        /* \"#utility.yul\":23620:24494   */\n    tag_274:\n        /* \"#utility.yul\":23723:23726   */\n      0x00\n        /* \"#utility.yul\":23760:23765   */\n      dup2\n        /* \"#utility.yul\":23754:23766   */\n      sload\n        /* \"#utility.yul\":23789:23825   */\n      tag_492\n        /* \"#utility.yul\":23815:23824   */\n      dup2\n        /* \"#utility.yul\":23789:23825   */\n      tag_49\n      jump\t// in\n    tag_492:\n        /* \"#utility.yul\":23841:23930   */\n      tag_493\n        /* \"#utility.yul\":23923:23929   */\n      dup2\n        /* \"#utility.yul\":23918:23921   */\n      dup7\n        /* \"#utility.yul\":23841:23930   */\n      tag_257\n      jump\t// in\n    tag_493:\n        /* \"#utility.yul\":23834:23930   */\n      swap5\n      pop\n        /* \"#utility.yul\":23961:23962   */\n      0x01\n        /* \"#utility.yul\":23950:23959   */\n      dup3\n        /* \"#utility.yul\":23946:23963   */\n      and\n        /* \"#utility.yul\":23977:23978   */\n      0x00\n        /* \"#utility.yul\":23972:24138   */\n      dup2\n      eq\n      tag_495\n      jumpi\n        /* \"#utility.yul\":24152:24153   */\n      0x01\n        /* \"#utility.yul\":24147:24488   */\n      dup2\n      eq\n      tag_496\n      jumpi\n        /* \"#utility.yul\":23939:24488   */\n      jump(tag_494)\n        /* \"#utility.yul\":23972:24138   */\n    tag_495:\n        /* \"#utility.yul\":24056:24060   */\n      0xff\n        /* \"#utility.yul\":24052:24061   */\n      not\n        /* \"#utility.yul\":24041:24050   */\n      dup4\n        /* \"#utility.yul\":24037:24062   */\n      and\n        /* \"#utility.yul\":24032:24035   */\n      dup7\n        /* \"#utility.yul\":24025:24063   */\n      mstore\n        /* \"#utility.yul\":24118:24124   */\n      dup2\n        /* \"#utility.yul\":24111:24125   */\n      iszero\n        /* \"#utility.yul\":24104:24126   */\n      iszero\n        /* \"#utility.yul\":24096:24102   */\n      dup3\n        /* \"#utility.yul\":24092:24127   */\n      mul\n        /* \"#utility.yul\":24087:24090   */\n      dup7\n        /* \"#utility.yul\":24083:24128   */\n      add\n        /* \"#utility.yul\":24076:24128   */\n      swap4\n      pop\n        /* \"#utility.yul\":23972:24138   */\n      jump(tag_494)\n        /* \"#utility.yul\":24147:24488   */\n    tag_496:\n        /* \"#utility.yul\":24214:24252   */\n      tag_497\n        /* \"#utility.yul\":24246:24251   */\n      dup6\n        /* \"#utility.yul\":24214:24252   */\n      tag_259\n      jump\t// in\n    tag_497:\n        /* \"#utility.yul\":24274:24275   */\n      0x00\n        /* \"#utility.yul\":24288:24442   */\n    tag_498:\n        /* \"#utility.yul\":24302:24308   */\n      dup4\n        /* \"#utility.yul\":24299:24300   */\n      dup2\n        /* \"#utility.yul\":24296:24309   */\n      lt\n        /* \"#utility.yul\":24288:24442   */\n      iszero\n      tag_500\n      jumpi\n        /* \"#utility.yul\":24376:24383   */\n      dup2\n        /* \"#utility.yul\":24370:24384   */\n      sload\n        /* \"#utility.yul\":24366:24367   */\n      dup2\n        /* \"#utility.yul\":24361:24364   */\n      dup10\n        /* \"#utility.yul\":24357:24368   */\n      add\n        /* \"#utility.yul\":24350:24385   */\n      mstore\n        /* \"#utility.yul\":24426:24427   */\n      0x01\n        /* \"#utility.yul\":24417:24424   */\n      dup3\n        /* \"#utility.yul\":24413:24428   */\n      add\n        /* \"#utility.yul\":24402:24428   */\n      swap2\n      pop\n        /* \"#utility.yul\":24324:24328   */\n      0x20\n        /* \"#utility.yul\":24321:24322   */\n      dup2\n        /* \"#utility.yul\":24317:24329   */\n      add\n        /* \"#utility.yul\":24312:24329   */\n      swap1\n      pop\n        /* \"#utility.yul\":24288:24442   */\n      jump(tag_498)\n    tag_500:\n        /* \"#utility.yul\":24471:24477   */\n      dup4\n        /* \"#utility.yul\":24466:24469   */\n      dup9\n        /* \"#utility.yul\":24462:24478   */\n      add\n        /* \"#utility.yul\":24455:24478   */\n      swap6\n      pop\n        /* \"#utility.yul\":24154:24488   */\n      pop\n      pop\n        /* \"#utility.yul\":23939:24488   */\n    tag_494:\n      pop\n        /* \"#utility.yul\":23727:24494   */\n      pop\n      pop\n        /* \"#utility.yul\":23620:24494   */\n      swap3\n      swap2\n      pop\n      pop\n      jump\t// out\n        /* \"#utility.yul\":24500:24769   */\n    tag_96:\n        /* \"#utility.yul\":24629:24632   */\n      0x00\n        /* \"#utility.yul\":24651:24743   */\n      tag_502\n        /* \"#utility.yul\":24739:24742   */\n      dup3\n        /* \"#utility.yul\":24730:24736   */\n      dup5\n        /* \"#utility.yul\":24651:24743   */\n      tag_274\n      jump\t// in\n    tag_502:\n        /* \"#utility.yul\":24644:24743   */\n      swap2\n      pop\n        /* \"#utility.yul\":24760:24763   */\n      dup2\n        /* \"#utility.yul\":24753:24763   */\n      swap1\n      pop\n        /* \"#utility.yul\":24500:24769   */\n      swap3\n      swap2\n      pop\n      pop\n      jump\t// out\n        /* \"#utility.yul\":24775:24955   */\n    tag_275:\n        /* \"#utility.yul\":24823:24900   */\n      0x4e487b7100000000000000000000000000000000000000000000000000000000\n        /* \"#utility.yul\":24820:24821   */\n      0x00\n        /* \"#utility.yul\":24813:24901   */\n      mstore\n        /* \"#utility.yul\":24920:24924   */\n      0x11\n        /* \"#utility.yul\":24917:24918   */\n      0x04\n        /* \"#utility.yul\":24910:24925   */\n      mstore\n        /* \"#utility.yul\":24944:24948   */\n      0x24\n        /* \"#utility.yul\":24941:24942   */\n      0x00\n        /* \"#utility.yul\":24934:24949   */\n      revert\n        /* \"#utility.yul\":24961:25194   */\n    tag_120:\n        /* \"#utility.yul\":25000:25003   */\n      0x00\n        /* \"#utility.yul\":25023:25047   */\n      tag_505\n        /* \"#utility.yul\":25041:25046   */\n      dup3\n        /* \"#utility.yul\":25023:25047   */\n      tag_241\n      jump\t// in\n    tag_505:\n        /* \"#utility.yul\":25014:25047   */\n      swap2\n      pop\n        /* \"#utility.yul\":25069:25135   */\n      0xffffffffffffffffffffffffffffffffffffffffffffffffffffffffffffffff\n        /* \"#utility.yul\":25062:25067   */\n      dup3\n        /* \"#utility.yul\":25059:25136   */\n      sub\n        /* \"#utility.yul\":25056:25159   */\n      tag_506\n      jumpi\n        /* \"#utility.yul\":25139:25157   */\n      tag_507\n      tag_275\n      jump\t// in\n    tag_507:\n        /* \"#utility.yul\":25056:25159   */\n    tag_506:\n        /* \"#utility.yul\":25186:25187   */\n      0x01\n        /* \"#utility.yul\":25179:25184   */\n      dup3\n        /* \"#utility.yul\":25175:25188   */\n      add\n        /* \"#utility.yul\":25168:25188   */\n      swap1\n      pop\n        /* \"#utility.yul\":24961:25194   */\n      swap2\n      swap1\n      pop\n      jump\t// out\n        /* \"#utility.yul\":25200:25376   */\n    tag_276:\n        /* \"#utility.yul\":25340:25368   */\n      0x5472616e73616374696f6e20646f6573206e6f74206578697374000000000000\n        /* \"#utility.yul\":25336:25337   */\n      0x00\n        /* \"#utility.yul\":25328:25334   */\n      dup3\n        /* \"#utility.yul\":25324:25338   */\n      add\n        /* \"#utility.yul\":25317:25369   */\n      mstore\n        /* \"#utility.yul\":25200:25376   */\n      pop\n      jump\t// out\n        /* \"#utility.yul\":25382:25748   */\n    tag_277:\n        /* \"#utility.yul\":25524:25527   */\n      0x00\n        /* \"#utility.yul\":25545:25612   */\n      tag_510\n        /* \"#utility.yul\":25609:25611   */\n      0x1a\n        /* \"#utility.yul\":25604:25607   */\n      dup4\n        /* \"#utility.yul\":25545:25612   */\n      tag_238\n      jump\t// in\n    tag_510:\n        /* \"#utility.yul\":25538:25612   */\n      swap2\n      pop\n        /* \"#utility.yul\":25621:25714   */\n      tag_511\n        /* \"#utility.yul\":25710:25713   */\n      dup3\n        /* \"#utility.yul\":25621:25714   */\n      tag_276\n      jump\t// in\n    tag_511:\n        /* \"#utility.yul\":25739:25741   */\n      0x20\n        /* \"#utility.yul\":25734:25737   */\n      dup3\n        /* \"#utility.yul\":25730:25742   */\n      add\n        /* \"#utility.yul\":25723:25742   */\n      swap1\n      pop\n        /* \"#utility.yul\":25382:25748   */\n      swap2\n      swap1\n      pop\n      jump\t// out\n        /* \"#utility.yul\":25754:26173   */\n    tag_178:\n        /* \"#utility.yul\":25920:25924   */\n      0x00\n        /* \"#utility.yul\":25958:25960   */\n      0x20\n        /* \"#utility.yul\":25947:25956   */\n      dup3\n        /* \"#utility.yul\":25943:25961   */\n      add\n        /* \"#utility.yul\":25935:25961   */\n      swap1\n      pop\n        /* \"#utility.yul\":26007:26016   */\n      dup2\n        /* \"#utility.yul\":26001:26005   */\n      dup2\n        /* \"#utility.yul\":25997:26017   */\n      sub\n        /* \"#utility.yul\":25993:25994   */\n      0x00\n        /* \"#utility.yul\":25982:25991   */\n      dup4\n        /* \"#utility.yul\":25978:25995   */\n      add\n        /* \"#utility.yul\":25971:26018   */\n      mstore\n        /* \"#utility.yul\":26035:26166   */\n      tag_513\n        /* \"#utility.yul\":26161:26165   */\n      dup2\n        /* \"#utility.yul\":26035:26166   */\n      tag_277\n      jump\t// in\n    tag_513:\n        /* \"#utility.yul\":26027:26166   */\n      swap1\n      pop\n        /* \"#utility.yul\":25754:26173   */\n      swap2\n      swap1\n      pop\n      jump\t// out\n        /* \"#utility.yul\":26179:26693   */\n    tag_182:\n        /* \"#utility.yul\":26340:26344   */\n      0x00\n        /* \"#utility.yul\":26378:26380   */\n      0x40\n        /* \"#utility.yul\":26367:26376   */\n      dup3\n        /* \"#utility.yul\":26363:26381   */\n      add\n        /* \"#utility.yul\":26355:26381   */\n      swap1\n      pop\n        /* \"#utility.yul\":26427:26436   */\n      dup2\n        /* \"#utility.yul\":26421:26425   */\n      dup2\n        /* \"#utility.yul\":26417:26437   */\n      sub\n        /* \"#utility.yul\":26413:26414   */\n      0x00\n        /* \"#utility.yul\":26402:26411   */\n      dup4\n        /* \"#utility.yul\":26398:26415   */\n      add\n        /* \"#utility.yul\":26391:26438   */\n      mstore\n        /* \"#utility.yul\":26455:26533   */\n      tag_515\n        /* \"#utility.yul\":26528:26532   */\n      dup2\n        /* \"#utility.yul\":26519:26525   */\n      dup6\n        /* \"#utility.yul\":26455:26533   */\n      tag_240\n      jump\t// in\n    tag_515:\n        /* \"#utility.yul\":26447:26533   */\n      swap1\n      pop\n        /* \"#utility.yul\":26580:26589   */\n      dup2\n        /* \"#utility.yul\":26574:26578   */\n      dup2\n        /* \"#utility.yul\":26570:26590   */\n      sub\n        /* \"#utility.yul\":26565:26567   */\n      0x20\n        /* \"#utility.yul\":26554:26563   */\n      dup4\n        /* \"#utility.yul\":26550:26568   */\n      add\n        /* \"#utility.yul\":26543:26591   */\n      mstore\n        /* \"#utility.yul\":26608:26686   */\n      tag_516\n        /* \"#utility.yul\":26681:26685   */\n      dup2\n        /* \"#utility.yul\":26672:26678   */\n      dup5\n        /* \"#utility.yul\":26608:26686   */\n      tag_240\n      jump\t// in\n    tag_516:\n        /* \"#utility.yul\":26600:26686   */\n      swap1\n      pop\n        /* \"#utility.yul\":26179:26693   */\n      swap4\n      swap3\n      pop\n      pop\n      pop\n      jump\t// out\n\n    auxdata: 0xa26469706673582212208ae3118ca1e79b4c90c0a7607213b11ab269fff11e26fa1c8bbff73ff372207364736f6c63430008100033\n}\n",
				"bytecode": {
					"linkReferences": {},
					"object": "608060405234801561001057600080fd5b5061209b806100206000396000f3fe608060405234801561001057600080fd5b50600436106100885760003560e01c8063347047cc1161005b578063347047cc1461012f5780637ce99c581461014b578063d339b0ec1461017b578063fff50461146101ab57610088565b8063022236f41461008d57806321a1c63a146100c557806327506f53146100e15780632faa0cca146100ff575b600080fd5b6100a760048036038101906100a29190611487565b6101c7565b6040516100bc99989796959493929190611568565b60405180910390f35b6100df60048036038101906100da919061163d565b61044b565b005b6100e96105be565b6040516100f6919061196c565b60405180910390f35b6101196004803603810190610114919061198e565b610927565b604051610126919061196c565b60405180910390f35b610149600480360381019061014491906119bb565b610d5d565b005b6101656004803603810190610160919061198e565b610e38565b6040516101729190611a33565b60405180910390f35b61019560048036038101906101909190611487565b610ee4565b6040516101a29190611b2f565b60405180910390f35b6101c560048036038101906101c091906119bb565b611206565b005b60008180516020810182018051848252602083016020850120818352809550505050505060009150905080600001805461020090611b80565b80601f016020809104026020016040519081016040528092919081815260200182805461022c90611b80565b80156102795780601f1061024e57610100808354040283529160200191610279565b820191906000526020600020905b81548152906001019060200180831161025c57829003601f168201915b50505050509080600101549080600201549080600301805461029a90611b80565b80601f01602080910402602001604051908101604052809291908181526020018280546102c690611b80565b80156103135780601f106102e857610100808354040283529160200191610313565b820191906000526020600020905b8154815290600101906020018083116102f657829003601f168201915b50505050509080600401805461032890611b80565b80601f016020809104026020016040519081016040528092919081815260200182805461035490611b80565b80156103a15780601f10610376576101008083540402835291602001916103a1565b820191906000526020600020905b81548152906001019060200180831161038457829003601f168201915b5050505050908060050180546103b690611b80565b80601f01602080910402602001604051908101604052809291908181526020018280546103e290611b80565b801561042f5780601f106104045761010080835404028352916020019161042f565b820191906000526020600020905b81548152906001019060200180831161041257829003601f168201915b5050505050908060060154908060070154908060080154905089565b6040518061012001604052808a81526020018981526020018881526020018781526020018681526020018581526020018481526020018381526020018281525060008a60405161049b9190611bed565b908152602001604051809103902060008201518160000190816104be9190611db0565b50602082015181600101556040820151816002015560608201518160030190816104e89190611db0565b5060808201518160040190816104fe9190611db0565b5060a08201518160050190816105149190611db0565b5060c0820151816006015560e08201518160070155610100820151816008015590505060018990806001815401808255809150506001900390600052602060002001600090919091909150908161056b9190611db0565b507f69667cfc0e3856508eb79afd949ebdcd4cfe6b6391364fcc1270c73e9f4779d98989898989898989896040516105ab99989796959493929190611568565b60405180910390a1505050505050505050565b6060600060018054905067ffffffffffffffff8111156105e1576105e061135c565b5b60405190808252806020026020018201604052801561061a57816020015b6106076112e1565b8152602001906001900390816105ff5790505b50905060005b60018054905081101561091f5760006001828154811061064357610642611e82565b5b9060005260206000200160405161065a9190611f34565b90815260200160405180910390206040518061012001604052908160008201805461068490611b80565b80601f01602080910402602001604051908101604052809291908181526020018280546106b090611b80565b80156106fd5780601f106106d2576101008083540402835291602001916106fd565b820191906000526020600020905b8154815290600101906020018083116106e057829003601f168201915b50505050508152602001600182015481526020016002820154815260200160038201805461072a90611b80565b80601f016020809104026020016040519081016040528092919081815260200182805461075690611b80565b80156107a35780601f10610778576101008083540402835291602001916107a3565b820191906000526020600020905b81548152906001019060200180831161078657829003601f168201915b505050505081526020016004820180546107bc90611b80565b80601f01602080910402602001604051908101604052809291908181526020018280546107e890611b80565b80156108355780601f1061080a57610100808354040283529160200191610835565b820191906000526020600020905b81548152906001019060200180831161081857829003601f168201915b5050505050815260200160058201805461084e90611b80565b80601f016020809104026020016040519081016040528092919081815260200182805461087a90611b80565b80156108c75780601f1061089c576101008083540402835291602001916108c7565b820191906000526020600020905b8154815290600101906020018083116108aa57829003601f168201915b50505050508152602001600682015481526020016007820154815260200160088201548152505082828151811061090157610900611e82565b5b6020026020010181905250808061091790611f7a565b915050610620565b508091505090565b60606000805b6001805490508110156109a1578360006001838154811061095157610950611e82565b5b906000526020600020016040516109689190611f34565b9081526020016040518091039020600201540361098e57818061098a90611f7a565b9250505b808061099990611f7a565b91505061092d565b5060008167ffffffffffffffff8111156109be576109bd61135c565b5b6040519080825280602002602001820160405280156109f757816020015b6109e46112e1565b8152602001906001900390816109dc5790505b5090506000805b600180549050811015610d515785600060018381548110610a2257610a21611e82565b5b90600052602060002001604051610a399190611f34565b90815260200160405180910390206002015403610d3e57600060018281548110610a6657610a65611e82565b5b90600052602060002001604051610a7d9190611f34565b908152602001604051809103902060405180610120016040529081600082018054610aa790611b80565b80601f0160208091040260200160405190810160405280929190818152602001828054610ad390611b80565b8015610b205780601f10610af557610100808354040283529160200191610b20565b820191906000526020600020905b815481529060010190602001808311610b0357829003601f168201915b505050505081526020016001820154815260200160028201548152602001600382018054610b4d90611b80565b80601f0160208091040260200160405190810160405280929190818152602001828054610b7990611b80565b8015610bc65780601f10610b9b57610100808354040283529160200191610bc6565b820191906000526020600020905b815481529060010190602001808311610ba957829003601f168201915b50505050508152602001600482018054610bdf90611b80565b80601f0160208091040260200160405190810160405280929190818152602001828054610c0b90611b80565b8015610c585780601f10610c2d57610100808354040283529160200191610c58565b820191906000526020600020905b815481529060010190602001808311610c3b57829003601f168201915b50505050508152602001600582018054610c7190611b80565b80601f0160208091040260200160405190810160405280929190818152602001828054610c9d90611b80565b8015610cea5780601f10610cbf57610100808354040283529160200191610cea565b820191906000526020600020905b815481529060010190602001808311610ccd57829003601f168201915b505050505081526020016006820154815260200160078201548152602001600882015481525050838381518110610d2457610d23611e82565b5b60200260200101819052508180610d3a90611f7a565b9250505b8080610d4990611f7a565b9150506109fe565b50819350505050919050565b60008083604051610d6e9190611bed565b90815260200160405180910390206000018054610d8a90611b80565b905003610dcc576040517f08c379a0000000000000000000000000000000000000000000000000000000008152600401610dc39061200e565b60405180910390fd5b80600083604051610ddd9190611bed565b90815260200160405180910390206005019081610dfa9190611db0565b507fb75b1fec1bc9156569ae9f72fb29c6e6727b297e191d358465fff4c09d8f7d268282604051610e2c92919061202e565b60405180910390a15050565b60018181548110610e4857600080fd5b906000526020600020016000915090508054610e6390611b80565b80601f0160208091040260200160405190810160405280929190818152602001828054610e8f90611b80565b8015610edc5780601f10610eb157610100808354040283529160200191610edc565b820191906000526020600020905b815481529060010190602001808311610ebf57829003601f168201915b505050505081565b610eec6112e1565b60008083604051610efd9190611bed565b90815260200160405180910390206000018054610f1990611b80565b905003610f5b576040517f08c379a0000000000000000000000000000000000000000000000000000000008152600401610f529061200e565b60405180910390fd5b600082604051610f6b9190611bed565b908152602001604051809103902060405180610120016040529081600082018054610f9590611b80565b80601f0160208091040260200160405190810160405280929190818152602001828054610fc190611b80565b801561100e5780601f10610fe35761010080835404028352916020019161100e565b820191906000526020600020905b815481529060010190602001808311610ff157829003601f168201915b50505050508152602001600182015481526020016002820154815260200160038201805461103b90611b80565b80601f016020809104026020016040519081016040528092919081815260200182805461106790611b80565b80156110b45780601f10611089576101008083540402835291602001916110b4565b820191906000526020600020905b81548152906001019060200180831161109757829003601f168201915b505050505081526020016004820180546110cd90611b80565b80601f01602080910402602001604051908101604052809291908181526020018280546110f990611b80565b80156111465780601f1061111b57610100808354040283529160200191611146565b820191906000526020600020905b81548152906001019060200180831161112957829003601f168201915b5050505050815260200160058201805461115f90611b80565b80601f016020809104026020016040519081016040528092919081815260200182805461118b90611b80565b80156111d85780601f106111ad576101008083540402835291602001916111d8565b820191906000526020600020905b8154815290600101906020018083116111bb57829003601f168201915b5050505050815260200160068201548152602001600782015481526020016008820154815250509050919050565b600080836040516112179190611bed565b9081526020016040518091039020600001805461123390611b80565b905003611275576040517f08c379a000000000000000000000000000000000000000000000000000000000815260040161126c9061200e565b60405180910390fd5b806000836040516112869190611bed565b908152602001604051809103902060040190816112a39190611db0565b507fc61ffb03925558d248fba37b73270b12903d3f0ba5797af8b71a9f8bf0761a9882826040516112d592919061202e565b60405180910390a15050565b6040518061012001604052806060815260200160008152602001600081526020016060815260200160608152602001606081526020016000815260200160008152602001600081525090565b6000604051905090565b600080fd5b600080fd5b600080fd5b600080fd5b6000601f19601f8301169050919050565b7f4e487b7100000000000000000000000000000000000000000000000000000000600052604160045260246000fd5b6113948261134b565b810181811067ffffffffffffffff821117156113b3576113b261135c565b5b80604052505050565b60006113c661132d565b90506113d2828261138b565b919050565b600067ffffffffffffffff8211156113f2576113f161135c565b5b6113fb8261134b565b9050602081019050919050565b82818337600083830152505050565b600061142a611425846113d7565b6113bc565b90508281526020810184848401111561144657611445611346565b5b611451848285611408565b509392505050565b600082601f83011261146e5761146d611341565b5b813561147e848260208601611417565b91505092915050565b60006020828403121561149d5761149c611337565b5b600082013567ffffffffffffffff8111156114bb576114ba61133c565b5b6114c784828501611459565b91505092915050565b600081519050919050565b600082825260208201905092915050565b60005b8381101561150a5780820151818401526020810190506114ef565b60008484015250505050565b6000611521826114d0565b61152b81856114db565b935061153b8185602086016114ec565b6115448161134b565b840191505092915050565b6000819050919050565b6115628161154f565b82525050565b6000610120820190508181036000830152611583818c611516565b9050611592602083018b611559565b61159f604083018a611559565b81810360608301526115b18189611516565b905081810360808301526115c58188611516565b905081810360a08301526115d98187611516565b90506115e860c0830186611559565b6115f560e0830185611559565b611603610100830184611559565b9a9950505050505050505050565b61161a8161154f565b811461162557600080fd5b50565b60008135905061163781611611565b92915050565b60008060008060008060008060006101208a8c0312156116605761165f611337565b5b60008a013567ffffffffffffffff81111561167e5761167d61133c565b5b61168a8c828d01611459565b995050602061169b8c828d01611628565b98505060406116ac8c828d01611628565b97505060608a013567ffffffffffffffff8111156116cd576116cc61133c565b5b6116d98c828d01611459565b96505060808a013567ffffffffffffffff8111156116fa576116f961133c565b5b6117068c828d01611459565b95505060a08a013567ffffffffffffffff8111156117275761172661133c565b5b6117338c828d01611459565b94505060c06117448c828d01611628565b93505060e06117558c828d01611628565b9250506101006117678c828d01611628565b9150509295985092959850929598565b600081519050919050565b600082825260208201905092915050565b6000819050602082019050919050565b600082825260208201905092915050565b60006117bf826114d0565b6117c981856117a3565b93506117d98185602086016114ec565b6117e28161134b565b840191505092915050565b6117f68161154f565b82525050565b600061012083016000830151848203600086015261181a82826117b4565b915050602083015161182f60208601826117ed565b50604083015161184260408601826117ed565b506060830151848203606086015261185a82826117b4565b9150506080830151848203608086015261187482826117b4565b91505060a083015184820360a086015261188e82826117b4565b91505060c08301516118a360c08601826117ed565b5060e08301516118b660e08601826117ed565b506101008301516118cb6101008601826117ed565b508091505092915050565b60006118e283836117fc565b905092915050565b6000602082019050919050565b600061190282611777565b61190c8185611782565b93508360208202850161191e85611793565b8060005b8581101561195a578484038952815161193b85826118d6565b9450611946836118ea565b925060208a01995050600181019050611922565b50829750879550505050505092915050565b6000602082019050818103600083015261198681846118f7565b905092915050565b6000602082840312156119a4576119a3611337565b5b60006119b284828501611628565b91505092915050565b600080604083850312156119d2576119d1611337565b5b600083013567ffffffffffffffff8111156119f0576119ef61133c565b5b6119fc85828601611459565b925050602083013567ffffffffffffffff811115611a1d57611a1c61133c565b5b611a2985828601611459565b9150509250929050565b60006020820190508181036000830152611a4d8184611516565b905092915050565b6000610120830160008301518482036000860152611a7382826117b4565b9150506020830151611a8860208601826117ed565b506040830151611a9b60408601826117ed565b5060608301518482036060860152611ab382826117b4565b91505060808301518482036080860152611acd82826117b4565b91505060a083015184820360a0860152611ae782826117b4565b91505060c0830151611afc60c08601826117ed565b5060e0830151611b0f60e08601826117ed565b50610100830151611b246101008601826117ed565b508091505092915050565b60006020820190508181036000830152611b498184611a55565b905092915050565b7f4e487b7100000000000000000000000000000000000000000000000000000000600052602260045260246000fd5b60006002820490506001821680611b9857607f821691505b602082108103611bab57611baa611b51565b5b50919050565b600081905092915050565b6000611bc7826114d0565b611bd18185611bb1565b9350611be18185602086016114ec565b80840191505092915050565b6000611bf98284611bbc565b915081905092915050565b60008190508160005260206000209050919050565b60006020601f8301049050919050565b600082821b905092915050565b600060088302611c667fffffffffffffffffffffffffffffffffffffffffffffffffffffffffffffffff82611c29565b611c708683611c29565b95508019841693508086168417925050509392505050565b6000819050919050565b6000611cad611ca8611ca38461154f565b611c88565b61154f565b9050919050565b6000819050919050565b611cc783611c92565b611cdb611cd382611cb4565b848454611c36565b825550505050565b600090565b611cf0611ce3565b611cfb818484611cbe565b505050565b5b81811015611d1f57611d14600082611ce8565b600181019050611d01565b5050565b601f821115611d6457611d3581611c04565b611d3e84611c19565b81016020851015611d4d578190505b611d61611d5985611c19565b830182611d00565b50505b505050565b600082821c905092915050565b6000611d8760001984600802611d69565b1980831691505092915050565b6000611da08383611d76565b9150826002028217905092915050565b611db9826114d0565b67ffffffffffffffff811115611dd257611dd161135c565b5b611ddc8254611b80565b611de7828285611d23565b600060209050601f831160018114611e1a5760008415611e08578287015190505b611e128582611d94565b865550611e7a565b601f198416611e2886611c04565b60005b82811015611e5057848901518255600182019150602085019450602081019050611e2b565b86831015611e6d5784890151611e69601f891682611d76565b8355505b6001600288020188555050505b505050505050565b7f4e487b7100000000000000000000000000000000000000000000000000000000600052603260045260246000fd5b60008154611ebe81611b80565b611ec88186611bb1565b94506001821660008114611ee35760018114611ef857611f2b565b60ff1983168652811515820286019350611f2b565b611f0185611c04565b60005b83811015611f2357815481890152600182019150602081019050611f04565b838801955050505b50505092915050565b6000611f408284611eb1565b915081905092915050565b7f4e487b7100000000000000000000000000000000000000000000000000000000600052601160045260246000fd5b6000611f858261154f565b91507fffffffffffffffffffffffffffffffffffffffffffffffffffffffffffffffff8203611fb757611fb6611f4b565b5b600182019050919050565b7f5472616e73616374696f6e20646f6573206e6f74206578697374000000000000600082015250565b6000611ff8601a836114db565b915061200382611fc2565b602082019050919050565b6000602082019050818103600083015261202781611feb565b9050919050565b600060408201905081810360008301526120488185611516565b9050818103602083015261205c8184611516565b9050939250505056fea26469706673582212208ae3118ca1e79b4c90c0a7607213b11ab269fff11e26fa1c8bbff73ff372207364736f6c63430008100033",
					"opcodes": "PUSH1 0x80 PUSH1 0x40 MSTORE CALLVALUE DUP1 ISZERO PUSH2 0x10 JUMPI PUSH1 0x0 DUP1 REVERT JUMPDEST POP PUSH2 0x209B DUP1 PUSH2 0x20 PUSH1 0x0 CODECOPY PUSH1 0x0 RETURN INVALID PUSH1 0x80 PUSH1 0x40 MSTORE CALLVALUE DUP1 ISZERO PUSH2 0x10 JUMPI PUSH1 0x0 DUP1 REVERT JUMPDEST POP PUSH1 0x4 CALLDATASIZE LT PUSH2 0x88 JUMPI PUSH1 0x0 CALLDATALOAD PUSH1 0xE0 SHR DUP1 PUSH4 0x347047CC GT PUSH2 0x5B JUMPI DUP1 PUSH4 0x347047CC EQ PUSH2 0x12F JUMPI DUP1 PUSH4 0x7CE99C58 EQ PUSH2 0x14B JUMPI DUP1 PUSH4 0xD339B0EC EQ PUSH2 0x17B JUMPI DUP1 PUSH4 0xFFF50461 EQ PUSH2 0x1AB JUMPI PUSH2 0x88 JUMP JUMPDEST DUP1 PUSH4 0x22236F4 EQ PUSH2 0x8D JUMPI DUP1 PUSH4 0x21A1C63A EQ PUSH2 0xC5 JUMPI DUP1 PUSH4 0x27506F53 EQ PUSH2 0xE1 JUMPI DUP1 PUSH4 0x2FAA0CCA EQ PUSH2 0xFF JUMPI JUMPDEST PUSH1 0x0 DUP1 REVERT JUMPDEST PUSH2 0xA7 PUSH1 0x4 DUP1 CALLDATASIZE SUB DUP2 ADD SWAP1 PUSH2 0xA2 SWAP2 SWAP1 PUSH2 0x1487 JUMP JUMPDEST PUSH2 0x1C7 JUMP JUMPDEST PUSH1 0x40 MLOAD PUSH2 0xBC SWAP10 SWAP9 SWAP8 SWAP7 SWAP6 SWAP5 SWAP4 SWAP3 SWAP2 SWAP1 PUSH2 0x1568 JUMP JUMPDEST PUSH1 0x40 MLOAD DUP1 SWAP2 SUB SWAP1 RETURN JUMPDEST PUSH2 0xDF PUSH1 0x4 DUP1 CALLDATASIZE SUB DUP2 ADD SWAP1 PUSH2 0xDA SWAP2 SWAP1 PUSH2 0x163D JUMP JUMPDEST PUSH2 0x44B JUMP JUMPDEST STOP JUMPDEST PUSH2 0xE9 PUSH2 0x5BE JUMP JUMPDEST PUSH1 0x40 MLOAD PUSH2 0xF6 SWAP2 SWAP1 PUSH2 0x196C JUMP JUMPDEST PUSH1 0x40 MLOAD DUP1 SWAP2 SUB SWAP1 RETURN JUMPDEST PUSH2 0x119 PUSH1 0x4 DUP1 CALLDATASIZE SUB DUP2 ADD SWAP1 PUSH2 0x114 SWAP2 SWAP1 PUSH2 0x198E JUMP JUMPDEST PUSH2 0x927 JUMP JUMPDEST PUSH1 0x40 MLOAD PUSH2 0x126 SWAP2 SWAP1 PUSH2 0x196C JUMP JUMPDEST PUSH1 0x40 MLOAD DUP1 SWAP2 SUB SWAP1 RETURN JUMPDEST PUSH2 0x149 PUSH1 0x4 DUP1 CALLDATASIZE SUB DUP2 ADD SWAP1 PUSH2 0x144 SWAP2 SWAP1 PUSH2 0x19BB JUMP JUMPDEST PUSH2 0xD5D JUMP JUMPDEST STOP JUMPDEST PUSH2 0x165 PUSH1 0x4 DUP1 CALLDATASIZE SUB DUP2 ADD SWAP1 PUSH2 0x160 SWAP2 SWAP1 PUSH2 0x198E JUMP JUMPDEST PUSH2 0xE38 JUMP JUMPDEST PUSH1 0x40 MLOAD PUSH2 0x172 SWAP2 SWAP1 PUSH2 0x1A33 JUMP JUMPDEST PUSH1 0x40 MLOAD DUP1 SWAP2 SUB SWAP1 RETURN JUMPDEST PUSH2 0x195 PUSH1 0x4 DUP1 CALLDATASIZE SUB DUP2 ADD SWAP1 PUSH2 0x190 SWAP2 SWAP1 PUSH2 0x1487 JUMP JUMPDEST PUSH2 0xEE4 JUMP JUMPDEST PUSH1 0x40 MLOAD PUSH2 0x1A2 SWAP2 SWAP1 PUSH2 0x1B2F JUMP JUMPDEST PUSH1 0x40 MLOAD DUP1 SWAP2 SUB SWAP1 RETURN JUMPDEST PUSH2 0x1C5 PUSH1 0x4 DUP1 CALLDATASIZE SUB DUP2 ADD SWAP1 PUSH2 0x1C0 SWAP2 SWAP1 PUSH2 0x19BB JUMP JUMPDEST PUSH2 0x1206 JUMP JUMPDEST STOP JUMPDEST PUSH1 0x0 DUP2 DUP1 MLOAD PUSH1 0x20 DUP2 ADD DUP3 ADD DUP1 MLOAD DUP5 DUP3 MSTORE PUSH1 0x20 DUP4 ADD PUSH1 0x20 DUP6 ADD KECCAK256 DUP2 DUP4 MSTORE DUP1 SWAP6 POP POP POP POP POP POP PUSH1 0x0 SWAP2 POP SWAP1 POP DUP1 PUSH1 0x0 ADD DUP1 SLOAD PUSH2 0x200 SWAP1 PUSH2 0x1B80 JUMP JUMPDEST DUP1 PUSH1 0x1F ADD PUSH1 0x20 DUP1 SWAP2 DIV MUL PUSH1 0x20 ADD PUSH1 0x40 MLOAD SWAP1 DUP2 ADD PUSH1 0x40 MSTORE DUP1 SWAP3 SWAP2 SWAP1 DUP2 DUP2 MSTORE PUSH1 0x20 ADD DUP3 DUP1 SLOAD PUSH2 0x22C SWAP1 PUSH2 0x1B80 JUMP JUMPDEST DUP1 ISZERO PUSH2 0x279 JUMPI DUP1 PUSH1 0x1F LT PUSH2 0x24E JUMPI PUSH2 0x100 DUP1 DUP4 SLOAD DIV MUL DUP4 MSTORE SWAP2 PUSH1 0x20 ADD SWAP2 PUSH2 0x279 JUMP JUMPDEST DUP3 ADD SWAP2 SWAP1 PUSH1 0x0 MSTORE PUSH1 0x20 PUSH1 0x0 KECCAK256 SWAP1 JUMPDEST DUP2 SLOAD DUP2 MSTORE SWAP1 PUSH1 0x1 ADD SWAP1 PUSH1 0x20 ADD DUP1 DUP4 GT PUSH2 0x25C JUMPI DUP3 SWAP1 SUB PUSH1 0x1F AND DUP3 ADD SWAP2 JUMPDEST POP POP POP POP POP SWAP1 DUP1 PUSH1 0x1 ADD SLOAD SWAP1 DUP1 PUSH1 0x2 ADD SLOAD SWAP1 DUP1 PUSH1 0x3 ADD DUP1 SLOAD PUSH2 0x29A SWAP1 PUSH2 0x1B80 JUMP JUMPDEST DUP1 PUSH1 0x1F ADD PUSH1 0x20 DUP1 SWAP2 DIV MUL PUSH1 0x20 ADD PUSH1 0x40 MLOAD SWAP1 DUP2 ADD PUSH1 0x40 MSTORE DUP1 SWAP3 SWAP2 SWAP1 DUP2 DUP2 MSTORE PUSH1 0x20 ADD DUP3 DUP1 SLOAD PUSH2 0x2C6 SWAP1 PUSH2 0x1B80 JUMP JUMPDEST DUP1 ISZERO PUSH2 0x313 JUMPI DUP1 PUSH1 0x1F LT PUSH2 0x2E8 JUMPI PUSH2 0x100 DUP1 DUP4 SLOAD DIV MUL DUP4 MSTORE SWAP2 PUSH1 0x20 ADD SWAP2 PUSH2 0x313 JUMP JUMPDEST DUP3 ADD SWAP2 SWAP1 PUSH1 0x0 MSTORE PUSH1 0x20 PUSH1 0x0 KECCAK256 SWAP1 JUMPDEST DUP2 SLOAD DUP2 MSTORE SWAP1 PUSH1 0x1 ADD SWAP1 PUSH1 0x20 ADD DUP1 DUP4 GT PUSH2 0x2F6 JUMPI DUP3 SWAP1 SUB PUSH1 0x1F AND DUP3 ADD SWAP2 JUMPDEST POP POP POP POP POP SWAP1 DUP1 PUSH1 0x4 ADD DUP1 SLOAD PUSH2 0x328 SWAP1 PUSH2 0x1B80 JUMP JUMPDEST DUP1 PUSH1 0x1F ADD PUSH1 0x20 DUP1 SWAP2 DIV MUL PUSH1 0x20 ADD PUSH1 0x40 MLOAD SWAP1 DUP2 ADD PUSH1 0x40 MSTORE DUP1 SWAP3 SWAP2 SWAP1 DUP2 DUP2 MSTORE PUSH1 0x20 ADD DUP3 DUP1 SLOAD PUSH2 0x354 SWAP1 PUSH2 0x1B80 JUMP JUMPDEST DUP1 ISZERO PUSH2 0x3A1 JUMPI DUP1 PUSH1 0x1F LT PUSH2 0x376 JUMPI PUSH2 0x100 DUP1 DUP4 SLOAD DIV MUL DUP4 MSTORE SWAP2 PUSH1 0x20 ADD SWAP2 PUSH2 0x3A1 JUMP JUMPDEST DUP3 ADD SWAP2 SWAP1 PUSH1 0x0 MSTORE PUSH1 0x20 PUSH1 0x0 KECCAK256 SWAP1 JUMPDEST DUP2 SLOAD DUP2 MSTORE SWAP1 PUSH1 0x1 ADD SWAP1 PUSH1 0x20 ADD DUP1 DUP4 GT PUSH2 0x384 JUMPI DUP3 SWAP1 SUB PUSH1 0x1F AND DUP3 ADD SWAP2 JUMPDEST POP POP POP POP POP SWAP1 DUP1 PUSH1 0x5 ADD DUP1 SLOAD PUSH2 0x3B6 SWAP1 PUSH2 0x1B80 JUMP JUMPDEST DUP1 PUSH1 0x1F ADD PUSH1 0x20 DUP1 SWAP2 DIV MUL PUSH1 0x20 ADD PUSH1 0x40 MLOAD SWAP1 DUP2 ADD PUSH1 0x40 MSTORE DUP1 SWAP3 SWAP2 SWAP1 DUP2 DUP2 MSTORE PUSH1 0x20 ADD DUP3 DUP1 SLOAD PUSH2 0x3E2 SWAP1 PUSH2 0x1B80 JUMP JUMPDEST DUP1 ISZERO PUSH2 0x42F JUMPI DUP1 PUSH1 0x1F LT PUSH2 0x404 JUMPI PUSH2 0x100 DUP1 DUP4 SLOAD DIV MUL DUP4 MSTORE SWAP2 PUSH1 0x20 ADD SWAP2 PUSH2 0x42F JUMP JUMPDEST DUP3 ADD SWAP2 SWAP1 PUSH1 0x0 MSTORE PUSH1 0x20 PUSH1 0x0 KECCAK256 SWAP1 JUMPDEST DUP2 SLOAD DUP2 MSTORE SWAP1 PUSH1 0x1 ADD SWAP1 PUSH1 0x20 ADD DUP1 DUP4 GT PUSH2 0x412 JUMPI DUP3 SWAP1 SUB PUSH1 0x1F AND DUP3 ADD SWAP2 JUMPDEST POP POP POP POP POP SWAP1 DUP1 PUSH1 0x6 ADD SLOAD SWAP1 DUP1 PUSH1 0x7 ADD SLOAD SWAP1 DUP1 PUSH1 0x8 ADD SLOAD SWAP1 POP DUP10 JUMP JUMPDEST PUSH1 0x40 MLOAD DUP1 PUSH2 0x120 ADD PUSH1 0x40 MSTORE DUP1 DUP11 DUP2 MSTORE PUSH1 0x20 ADD DUP10 DUP2 MSTORE PUSH1 0x20 ADD DUP9 DUP2 MSTORE PUSH1 0x20 ADD DUP8 DUP2 MSTORE PUSH1 0x20 ADD DUP7 DUP2 MSTORE PUSH1 0x20 ADD DUP6 DUP2 MSTORE PUSH1 0x20 ADD DUP5 DUP2 MSTORE PUSH1 0x20 ADD DUP4 DUP2 MSTORE PUSH1 0x20 ADD DUP3 DUP2 MSTORE POP PUSH1 0x0 DUP11 PUSH1 0x40 MLOAD PUSH2 0x49B SWAP2 SWAP1 PUSH2 0x1BED JUMP JUMPDEST SWAP1 DUP2 MSTORE PUSH1 0x20 ADD PUSH1 0x40 MLOAD DUP1 SWAP2 SUB SWAP1 KECCAK256 PUSH1 0x0 DUP3 ADD MLOAD DUP2 PUSH1 0x0 ADD SWAP1 DUP2 PUSH2 0x4BE SWAP2 SWAP1 PUSH2 0x1DB0 JUMP JUMPDEST POP PUSH1 0x20 DUP3 ADD MLOAD DUP2 PUSH1 0x1 ADD SSTORE PUSH1 0x40 DUP3 ADD MLOAD DUP2 PUSH1 0x2 ADD SSTORE PUSH1 0x60 DUP3 ADD MLOAD DUP2 PUSH1 0x3 ADD SWAP1 DUP2 PUSH2 0x4E8 SWAP2 SWAP1 PUSH2 0x1DB0 JUMP JUMPDEST POP PUSH1 0x80 DUP3 ADD MLOAD DUP2 PUSH1 0x4 ADD SWAP1 DUP2 PUSH2 0x4FE SWAP2 SWAP1 PUSH2 0x1DB0 JUMP JUMPDEST POP PUSH1 0xA0 DUP3 ADD MLOAD DUP2 PUSH1 0x5 ADD SWAP1 DUP2 PUSH2 0x514 SWAP2 SWAP1 PUSH2 0x1DB0 JUMP JUMPDEST POP PUSH1 0xC0 DUP3 ADD MLOAD DUP2 PUSH1 0x6 ADD SSTORE PUSH1 0xE0 DUP3 ADD MLOAD DUP2 PUSH1 0x7 ADD SSTORE PUSH2 0x100 DUP3 ADD MLOAD DUP2 PUSH1 0x8 ADD SSTORE SWAP1 POP POP PUSH1 0x1 DUP10 SWAP1 DUP1 PUSH1 0x1 DUP2 SLOAD ADD DUP1 DUP3 SSTORE DUP1 SWAP2 POP POP PUSH1 0x1 SWAP1 SUB SWAP1 PUSH1 0x0 MSTORE PUSH1 0x20 PUSH1 0x0 KECCAK256 ADD PUSH1 0x0 SWAP1 SWAP2 SWAP1 SWAP2 SWAP1 SWAP2 POP SWAP1 DUP2 PUSH2 0x56B SWAP2 SWAP1 PUSH2 0x1DB0 JUMP JUMPDEST POP PUSH32 0x69667CFC0E3856508EB79AFD949EBDCD4CFE6B6391364FCC1270C73E9F4779D9 DUP10 DUP10 DUP10 DUP10 DUP10 DUP10 DUP10 DUP10 DUP10 PUSH1 0x40 MLOAD PUSH2 0x5AB SWAP10 SWAP9 SWAP8 SWAP7 SWAP6 SWAP5 SWAP4 SWAP3 SWAP2 SWAP1 PUSH2 0x1568 JUMP JUMPDEST PUSH1 0x40 MLOAD DUP1 SWAP2 SUB SWAP1 LOG1 POP POP POP POP POP POP POP POP POP JUMP JUMPDEST PUSH1 0x60 PUSH1 0x0 PUSH1 0x1 DUP1 SLOAD SWAP1 POP PUSH8 0xFFFFFFFFFFFFFFFF DUP2 GT ISZERO PUSH2 0x5E1 JUMPI PUSH2 0x5E0 PUSH2 0x135C JUMP JUMPDEST JUMPDEST PUSH1 0x40 MLOAD SWAP1 DUP1 DUP3 MSTORE DUP1 PUSH1 0x20 MUL PUSH1 0x20 ADD DUP3 ADD PUSH1 0x40 MSTORE DUP1 ISZERO PUSH2 0x61A JUMPI DUP2 PUSH1 0x20 ADD JUMPDEST PUSH2 0x607 PUSH2 0x12E1 JUMP JUMPDEST DUP2 MSTORE PUSH1 0x20 ADD SWAP1 PUSH1 0x1 SWAP1 SUB SWAP1 DUP2 PUSH2 0x5FF JUMPI SWAP1 POP JUMPDEST POP SWAP1 POP PUSH1 0x0 JUMPDEST PUSH1 0x1 DUP1 SLOAD SWAP1 POP DUP2 LT ISZERO PUSH2 0x91F JUMPI PUSH1 0x0 PUSH1 0x1 DUP3 DUP2 SLOAD DUP2 LT PUSH2 0x643 JUMPI PUSH2 0x642 PUSH2 0x1E82 JUMP JUMPDEST JUMPDEST SWAP1 PUSH1 0x0 MSTORE PUSH1 0x20 PUSH1 0x0 KECCAK256 ADD PUSH1 0x40 MLOAD PUSH2 0x65A SWAP2 SWAP1 PUSH2 0x1F34 JUMP JUMPDEST SWAP1 DUP2 MSTORE PUSH1 0x20 ADD PUSH1 0x40 MLOAD DUP1 SWAP2 SUB SWAP1 KECCAK256 PUSH1 0x40 MLOAD DUP1 PUSH2 0x120 ADD PUSH1 0x40 MSTORE SWAP1 DUP2 PUSH1 0x0 DUP3 ADD DUP1 SLOAD PUSH2 0x684 SWAP1 PUSH2 0x1B80 JUMP JUMPDEST DUP1 PUSH1 0x1F ADD PUSH1 0x20 DUP1 SWAP2 DIV MUL PUSH1 0x20 ADD PUSH1 0x40 MLOAD SWAP1 DUP2 ADD PUSH1 0x40 MSTORE DUP1 SWAP3 SWAP2 SWAP1 DUP2 DUP2 MSTORE PUSH1 0x20 ADD DUP3 DUP1 SLOAD PUSH2 0x6B0 SWAP1 PUSH2 0x1B80 JUMP JUMPDEST DUP1 ISZERO PUSH2 0x6FD JUMPI DUP1 PUSH1 0x1F LT PUSH2 0x6D2 JUMPI PUSH2 0x100 DUP1 DUP4 SLOAD DIV MUL DUP4 MSTORE SWAP2 PUSH1 0x20 ADD SWAP2 PUSH2 0x6FD JUMP JUMPDEST DUP3 ADD SWAP2 SWAP1 PUSH1 0x0 MSTORE PUSH1 0x20 PUSH1 0x0 KECCAK256 SWAP1 JUMPDEST DUP2 SLOAD DUP2 MSTORE SWAP1 PUSH1 0x1 ADD SWAP1 PUSH1 0x20 ADD DUP1 DUP4 GT PUSH2 0x6E0 JUMPI DUP3 SWAP1 SUB PUSH1 0x1F AND DUP3 ADD SWAP2 JUMPDEST POP POP POP POP POP DUP2 MSTORE PUSH1 0x20 ADD PUSH1 0x1 DUP3 ADD SLOAD DUP2 MSTORE PUSH1 0x20 ADD PUSH1 0x2 DUP3 ADD SLOAD DUP2 MSTORE PUSH1 0x20 ADD PUSH1 0x3 DUP3 ADD DUP1 SLOAD PUSH2 0x72A SWAP1 PUSH2 0x1B80 JUMP JUMPDEST DUP1 PUSH1 0x1F ADD PUSH1 0x20 DUP1 SWAP2 DIV MUL PUSH1 0x20 ADD PUSH1 0x40 MLOAD SWAP1 DUP2 ADD PUSH1 0x40 MSTORE DUP1 SWAP3 SWAP2 SWAP1 DUP2 DUP2 MSTORE PUSH1 0x20 ADD DUP3 DUP1 SLOAD PUSH2 0x756 SWAP1 PUSH2 0x1B80 JUMP JUMPDEST DUP1 ISZERO PUSH2 0x7A3 JUMPI DUP1 PUSH1 0x1F LT PUSH2 0x778 JUMPI PUSH2 0x100 DUP1 DUP4 SLOAD DIV MUL DUP4 MSTORE SWAP2 PUSH1 0x20 ADD SWAP2 PUSH2 0x7A3 JUMP JUMPDEST DUP3 ADD SWAP2 SWAP1 PUSH1 0x0 MSTORE PUSH1 0x20 PUSH1 0x0 KECCAK256 SWAP1 JUMPDEST DUP2 SLOAD DUP2 MSTORE SWAP1 PUSH1 0x1 ADD SWAP1 PUSH1 0x20 ADD DUP1 DUP4 GT PUSH2 0x786 JUMPI DUP3 SWAP1 SUB PUSH1 0x1F AND DUP3 ADD SWAP2 JUMPDEST POP POP POP POP POP DUP2 MSTORE PUSH1 0x20 ADD PUSH1 0x4 DUP3 ADD DUP1 SLOAD PUSH2 0x7BC SWAP1 PUSH2 0x1B80 JUMP JUMPDEST DUP1 PUSH1 0x1F ADD PUSH1 0x20 DUP1 SWAP2 DIV MUL PUSH1 0x20 ADD PUSH1 0x40 MLOAD SWAP1 DUP2 ADD PUSH1 0x40 MSTORE DUP1 SWAP3 SWAP2 SWAP1 DUP2 DUP2 MSTORE PUSH1 0x20 ADD DUP3 DUP1 SLOAD PUSH2 0x7E8 SWAP1 PUSH2 0x1B80 JUMP JUMPDEST DUP1 ISZERO PUSH2 0x835 JUMPI DUP1 PUSH1 0x1F LT PUSH2 0x80A JUMPI PUSH2 0x100 DUP1 DUP4 SLOAD DIV MUL DUP4 MSTORE SWAP2 PUSH1 0x20 ADD SWAP2 PUSH2 0x835 JUMP JUMPDEST DUP3 ADD SWAP2 SWAP1 PUSH1 0x0 MSTORE PUSH1 0x20 PUSH1 0x0 KECCAK256 SWAP1 JUMPDEST DUP2 SLOAD DUP2 MSTORE SWAP1 PUSH1 0x1 ADD SWAP1 PUSH1 0x20 ADD DUP1 DUP4 GT PUSH2 0x818 JUMPI DUP3 SWAP1 SUB PUSH1 0x1F AND DUP3 ADD SWAP2 JUMPDEST POP POP POP POP POP DUP2 MSTORE PUSH1 0x20 ADD PUSH1 0x5 DUP3 ADD DUP1 SLOAD PUSH2 0x84E SWAP1 PUSH2 0x1B80 JUMP JUMPDEST DUP1 PUSH1 0x1F ADD PUSH1 0x20 DUP1 SWAP2 DIV MUL PUSH1 0x20 ADD PUSH1 0x40 MLOAD SWAP1 DUP2 ADD PUSH1 0x40 MSTORE DUP1 SWAP3 SWAP2 SWAP1 DUP2 DUP2 MSTORE PUSH1 0x20 ADD DUP3 DUP1 SLOAD PUSH2 0x87A SWAP1 PUSH2 0x1B80 JUMP JUMPDEST DUP1 ISZERO PUSH2 0x8C7 JUMPI DUP1 PUSH1 0x1F LT PUSH2 0x89C JUMPI PUSH2 0x100 DUP1 DUP4 SLOAD DIV MUL DUP4 MSTORE SWAP2 PUSH1 0x20 ADD SWAP2 PUSH2 0x8C7 JUMP JUMPDEST DUP3 ADD SWAP2 SWAP1 PUSH1 0x0 MSTORE PUSH1 0x20 PUSH1 0x0 KECCAK256 SWAP1 JUMPDEST DUP2 SLOAD DUP2 MSTORE SWAP1 PUSH1 0x1 ADD SWAP1 PUSH1 0x20 ADD DUP1 DUP4 GT PUSH2 0x8AA JUMPI DUP3 SWAP1 SUB PUSH1 0x1F AND DUP3 ADD SWAP2 JUMPDEST POP POP POP POP POP DUP2 MSTORE PUSH1 0x20 ADD PUSH1 0x6 DUP3 ADD SLOAD DUP2 MSTORE PUSH1 0x20 ADD PUSH1 0x7 DUP3 ADD SLOAD DUP2 MSTORE PUSH1 0x20 ADD PUSH1 0x8 DUP3 ADD SLOAD DUP2 MSTORE POP POP DUP3 DUP3 DUP2 MLOAD DUP2 LT PUSH2 0x901 JUMPI PUSH2 0x900 PUSH2 0x1E82 JUMP JUMPDEST JUMPDEST PUSH1 0x20 MUL PUSH1 0x20 ADD ADD DUP2 SWAP1 MSTORE POP DUP1 DUP1 PUSH2 0x917 SWAP1 PUSH2 0x1F7A JUMP JUMPDEST SWAP2 POP POP PUSH2 0x620 JUMP JUMPDEST POP DUP1 SWAP2 POP POP SWAP1 JUMP JUMPDEST PUSH1 0x60 PUSH1 0x0 DUP1 JUMPDEST PUSH1 0x1 DUP1 SLOAD SWAP1 POP DUP2 LT ISZERO PUSH2 0x9A1 JUMPI DUP4 PUSH1 0x0 PUSH1 0x1 DUP4 DUP2 SLOAD DUP2 LT PUSH2 0x951 JUMPI PUSH2 0x950 PUSH2 0x1E82 JUMP JUMPDEST JUMPDEST SWAP1 PUSH1 0x0 MSTORE PUSH1 0x20 PUSH1 0x0 KECCAK256 ADD PUSH1 0x40 MLOAD PUSH2 0x968 SWAP2 SWAP1 PUSH2 0x1F34 JUMP JUMPDEST SWAP1 DUP2 MSTORE PUSH1 0x20 ADD PUSH1 0x40 MLOAD DUP1 SWAP2 SUB SWAP1 KECCAK256 PUSH1 0x2 ADD SLOAD SUB PUSH2 0x98E JUMPI DUP2 DUP1 PUSH2 0x98A SWAP1 PUSH2 0x1F7A JUMP JUMPDEST SWAP3 POP POP JUMPDEST DUP1 DUP1 PUSH2 0x999 SWAP1 PUSH2 0x1F7A JUMP JUMPDEST SWAP2 POP POP PUSH2 0x92D JUMP JUMPDEST POP PUSH1 0x0 DUP2 PUSH8 0xFFFFFFFFFFFFFFFF DUP2 GT ISZERO PUSH2 0x9BE JUMPI PUSH2 0x9BD PUSH2 0x135C JUMP JUMPDEST JUMPDEST PUSH1 0x40 MLOAD SWAP1 DUP1 DUP3 MSTORE DUP1 PUSH1 0x20 MUL PUSH1 0x20 ADD DUP3 ADD PUSH1 0x40 MSTORE DUP1 ISZERO PUSH2 0x9F7 JUMPI DUP2 PUSH1 0x20 ADD JUMPDEST PUSH2 0x9E4 PUSH2 0x12E1 JUMP JUMPDEST DUP2 MSTORE PUSH1 0x20 ADD SWAP1 PUSH1 0x1 SWAP1 SUB SWAP1 DUP2 PUSH2 0x9DC JUMPI SWAP1 POP JUMPDEST POP SWAP1 POP PUSH1 0x0 DUP1 JUMPDEST PUSH1 0x1 DUP1 SLOAD SWAP1 POP DUP2 LT ISZERO PUSH2 0xD51 JUMPI DUP6 PUSH1 0x0 PUSH1 0x1 DUP4 DUP2 SLOAD DUP2 LT PUSH2 0xA22 JUMPI PUSH2 0xA21 PUSH2 0x1E82 JUMP JUMPDEST JUMPDEST SWAP1 PUSH1 0x0 MSTORE PUSH1 0x20 PUSH1 0x0 KECCAK256 ADD PUSH1 0x40 MLOAD PUSH2 0xA39 SWAP2 SWAP1 PUSH2 0x1F34 JUMP JUMPDEST SWAP1 DUP2 MSTORE PUSH1 0x20 ADD PUSH1 0x40 MLOAD DUP1 SWAP2 SUB SWAP1 KECCAK256 PUSH1 0x2 ADD SLOAD SUB PUSH2 0xD3E JUMPI PUSH1 0x0 PUSH1 0x1 DUP3 DUP2 SLOAD DUP2 LT PUSH2 0xA66 JUMPI PUSH2 0xA65 PUSH2 0x1E82 JUMP JUMPDEST JUMPDEST SWAP1 PUSH1 0x0 MSTORE PUSH1 0x20 PUSH1 0x0 KECCAK256 ADD PUSH1 0x40 MLOAD PUSH2 0xA7D SWAP2 SWAP1 PUSH2 0x1F34 JUMP JUMPDEST SWAP1 DUP2 MSTORE PUSH1 0x20 ADD PUSH1 0x40 MLOAD DUP1 SWAP2 SUB SWAP1 KECCAK256 PUSH1 0x40 MLOAD DUP1 PUSH2 0x120 ADD PUSH1 0x40 MSTORE SWAP1 DUP2 PUSH1 0x0 DUP3 ADD DUP1 SLOAD PUSH2 0xAA7 SWAP1 PUSH2 0x1B80 JUMP JUMPDEST DUP1 PUSH1 0x1F ADD PUSH1 0x20 DUP1 SWAP2 DIV MUL PUSH1 0x20 ADD PUSH1 0x40 MLOAD SWAP1 DUP2 ADD PUSH1 0x40 MSTORE DUP1 SWAP3 SWAP2 SWAP1 DUP2 DUP2 MSTORE PUSH1 0x20 ADD DUP3 DUP1 SLOAD PUSH2 0xAD3 SWAP1 PUSH2 0x1B80 JUMP JUMPDEST DUP1 ISZERO PUSH2 0xB20 JUMPI DUP1 PUSH1 0x1F LT PUSH2 0xAF5 JUMPI PUSH2 0x100 DUP1 DUP4 SLOAD DIV MUL DUP4 MSTORE SWAP2 PUSH1 0x20 ADD SWAP2 PUSH2 0xB20 JUMP JUMPDEST DUP3 ADD SWAP2 SWAP1 PUSH1 0x0 MSTORE PUSH1 0x20 PUSH1 0x0 KECCAK256 SWAP1 JUMPDEST DUP2 SLOAD DUP2 MSTORE SWAP1 PUSH1 0x1 ADD SWAP1 PUSH1 0x20 ADD DUP1 DUP4 GT PUSH2 0xB03 JUMPI DUP3 SWAP1 SUB PUSH1 0x1F AND DUP3 ADD SWAP2 JUMPDEST POP POP POP POP POP DUP2 MSTORE PUSH1 0x20 ADD PUSH1 0x1 DUP3 ADD SLOAD DUP2 MSTORE PUSH1 0x20 ADD PUSH1 0x2 DUP3 ADD SLOAD DUP2 MSTORE PUSH1 0x20 ADD PUSH1 0x3 DUP3 ADD DUP1 SLOAD PUSH2 0xB4D SWAP1 PUSH2 0x1B80 JUMP JUMPDEST DUP1 PUSH1 0x1F ADD PUSH1 0x20 DUP1 SWAP2 DIV MUL PUSH1 0x20 ADD PUSH1 0x40 MLOAD SWAP1 DUP2 ADD PUSH1 0x40 MSTORE DUP1 SWAP3 SWAP2 SWAP1 DUP2 DUP2 MSTORE PUSH1 0x20 ADD DUP3 DUP1 SLOAD PUSH2 0xB79 SWAP1 PUSH2 0x1B80 JUMP JUMPDEST DUP1 ISZERO PUSH2 0xBC6 JUMPI DUP1 PUSH1 0x1F LT PUSH2 0xB9B JUMPI PUSH2 0x100 DUP1 DUP4 SLOAD DIV MUL DUP4 MSTORE SWAP2 PUSH1 0x20 ADD SWAP2 PUSH2 0xBC6 JUMP JUMPDEST DUP3 ADD SWAP2 SWAP1 PUSH1 0x0 MSTORE PUSH1 0x20 PUSH1 0x0 KECCAK256 SWAP1 JUMPDEST DUP2 SLOAD DUP2 MSTORE SWAP1 PUSH1 0x1 ADD SWAP1 PUSH1 0x20 ADD DUP1 DUP4 GT PUSH2 0xBA9 JUMPI DUP3 SWAP1 SUB PUSH1 0x1F AND DUP3 ADD SWAP2 JUMPDEST POP POP POP POP POP DUP2 MSTORE PUSH1 0x20 ADD PUSH1 0x4 DUP3 ADD DUP1 SLOAD PUSH2 0xBDF SWAP1 PUSH2 0x1B80 JUMP JUMPDEST DUP1 PUSH1 0x1F ADD PUSH1 0x20 DUP1 SWAP2 DIV MUL PUSH1 0x20 ADD PUSH1 0x40 MLOAD SWAP1 DUP2 ADD PUSH1 0x40 MSTORE DUP1 SWAP3 SWAP2 SWAP1 DUP2 DUP2 MSTORE PUSH1 0x20 ADD DUP3 DUP1 SLOAD PUSH2 0xC0B SWAP1 PUSH2 0x1B80 JUMP JUMPDEST DUP1 ISZERO PUSH2 0xC58 JUMPI DUP1 PUSH1 0x1F LT PUSH2 0xC2D JUMPI PUSH2 0x100 DUP1 DUP4 SLOAD DIV MUL DUP4 MSTORE SWAP2 PUSH1 0x20 ADD SWAP2 PUSH2 0xC58 JUMP JUMPDEST DUP3 ADD SWAP2 SWAP1 PUSH1 0x0 MSTORE PUSH1 0x20 PUSH1 0x0 KECCAK256 SWAP1 JUMPDEST DUP2 SLOAD DUP2 MSTORE SWAP1 PUSH1 0x1 ADD SWAP1 PUSH1 0x20 ADD DUP1 DUP4 GT PUSH2 0xC3B JUMPI DUP3 SWAP1 SUB PUSH1 0x1F AND DUP3 ADD SWAP2 JUMPDEST POP POP POP POP POP DUP2 MSTORE PUSH1 0x20 ADD PUSH1 0x5 DUP3 ADD DUP1 SLOAD PUSH2 0xC71 SWAP1 PUSH2 0x1B80 JUMP JUMPDEST DUP1 PUSH1 0x1F ADD PUSH1 0x20 DUP1 SWAP2 DIV MUL PUSH1 0x20 ADD PUSH1 0x40 MLOAD SWAP1 DUP2 ADD PUSH1 0x40 MSTORE DUP1 SWAP3 SWAP2 SWAP1 DUP2 DUP2 MSTORE PUSH1 0x20 ADD DUP3 DUP1 SLOAD PUSH2 0xC9D SWAP1 PUSH2 0x1B80 JUMP JUMPDEST DUP1 ISZERO PUSH2 0xCEA JUMPI DUP1 PUSH1 0x1F LT PUSH2 0xCBF JUMPI PUSH2 0x100 DUP1 DUP4 SLOAD DIV MUL DUP4 MSTORE SWAP2 PUSH1 0x20 ADD SWAP2 PUSH2 0xCEA JUMP JUMPDEST DUP3 ADD SWAP2 SWAP1 PUSH1 0x0 MSTORE PUSH1 0x20 PUSH1 0x0 KECCAK256 SWAP1 JUMPDEST DUP2 SLOAD DUP2 MSTORE SWAP1 PUSH1 0x1 ADD SWAP1 PUSH1 0x20 ADD DUP1 DUP4 GT PUSH2 0xCCD JUMPI DUP3 SWAP1 SUB PUSH1 0x1F AND DUP3 ADD SWAP2 JUMPDEST POP POP POP POP POP DUP2 MSTORE PUSH1 0x20 ADD PUSH1 0x6 DUP3 ADD SLOAD DUP2 MSTORE PUSH1 0x20 ADD PUSH1 0x7 DUP3 ADD SLOAD DUP2 MSTORE PUSH1 0x20 ADD PUSH1 0x8 DUP3 ADD SLOAD DUP2 MSTORE POP POP DUP4 DUP4 DUP2 MLOAD DUP2 LT PUSH2 0xD24 JUMPI PUSH2 0xD23 PUSH2 0x1E82 JUMP JUMPDEST JUMPDEST PUSH1 0x20 MUL PUSH1 0x20 ADD ADD DUP2 SWAP1 MSTORE POP DUP2 DUP1 PUSH2 0xD3A SWAP1 PUSH2 0x1F7A JUMP JUMPDEST SWAP3 POP POP JUMPDEST DUP1 DUP1 PUSH2 0xD49 SWAP1 PUSH2 0x1F7A JUMP JUMPDEST SWAP2 POP POP PUSH2 0x9FE JUMP JUMPDEST POP DUP2 SWAP4 POP POP POP POP SWAP2 SWAP1 POP JUMP JUMPDEST PUSH1 0x0 DUP1 DUP4 PUSH1 0x40 MLOAD PUSH2 0xD6E SWAP2 SWAP1 PUSH2 0x1BED JUMP JUMPDEST SWAP1 DUP2 MSTORE PUSH1 0x20 ADD PUSH1 0x40 MLOAD DUP1 SWAP2 SUB SWAP1 KECCAK256 PUSH1 0x0 ADD DUP1 SLOAD PUSH2 0xD8A SWAP1 PUSH2 0x1B80 JUMP JUMPDEST SWAP1 POP SUB PUSH2 0xDCC JUMPI PUSH1 0x40 MLOAD PUSH32 0x8C379A000000000000000000000000000000000000000000000000000000000 DUP2 MSTORE PUSH1 0x4 ADD PUSH2 0xDC3 SWAP1 PUSH2 0x200E JUMP JUMPDEST PUSH1 0x40 MLOAD DUP1 SWAP2 SUB SWAP1 REVERT JUMPDEST DUP1 PUSH1 0x0 DUP4 PUSH1 0x40 MLOAD PUSH2 0xDDD SWAP2 SWAP1 PUSH2 0x1BED JUMP JUMPDEST SWAP1 DUP2 MSTORE PUSH1 0x20 ADD PUSH1 0x40 MLOAD DUP1 SWAP2 SUB SWAP1 KECCAK256 PUSH1 0x5 ADD SWAP1 DUP2 PUSH2 0xDFA SWAP2 SWAP1 PUSH2 0x1DB0 JUMP JUMPDEST POP PUSH32 0xB75B1FEC1BC9156569AE9F72FB29C6E6727B297E191D358465FFF4C09D8F7D26 DUP3 DUP3 PUSH1 0x40 MLOAD PUSH2 0xE2C SWAP3 SWAP2 SWAP1 PUSH2 0x202E JUMP JUMPDEST PUSH1 0x40 MLOAD DUP1 SWAP2 SUB SWAP1 LOG1 POP POP JUMP JUMPDEST PUSH1 0x1 DUP2 DUP2 SLOAD DUP2 LT PUSH2 0xE48 JUMPI PUSH1 0x0 DUP1 REVERT JUMPDEST SWAP1 PUSH1 0x0 MSTORE PUSH1 0x20 PUSH1 0x0 KECCAK256 ADD PUSH1 0x0 SWAP2 POP SWAP1 POP DUP1 SLOAD PUSH2 0xE63 SWAP1 PUSH2 0x1B80 JUMP JUMPDEST DUP1 PUSH1 0x1F ADD PUSH1 0x20 DUP1 SWAP2 DIV MUL PUSH1 0x20 ADD PUSH1 0x40 MLOAD SWAP1 DUP2 ADD PUSH1 0x40 MSTORE DUP1 SWAP3 SWAP2 SWAP1 DUP2 DUP2 MSTORE PUSH1 0x20 ADD DUP3 DUP1 SLOAD PUSH2 0xE8F SWAP1 PUSH2 0x1B80 JUMP JUMPDEST DUP1 ISZERO PUSH2 0xEDC JUMPI DUP1 PUSH1 0x1F LT PUSH2 0xEB1 JUMPI PUSH2 0x100 DUP1 DUP4 SLOAD DIV MUL DUP4 MSTORE SWAP2 PUSH1 0x20 ADD SWAP2 PUSH2 0xEDC JUMP JUMPDEST DUP3 ADD SWAP2 SWAP1 PUSH1 0x0 MSTORE PUSH1 0x20 PUSH1 0x0 KECCAK256 SWAP1 JUMPDEST DUP2 SLOAD DUP2 MSTORE SWAP1 PUSH1 0x1 ADD SWAP1 PUSH1 0x20 ADD DUP1 DUP4 GT PUSH2 0xEBF JUMPI DUP3 SWAP1 SUB PUSH1 0x1F AND DUP3 ADD SWAP2 JUMPDEST POP POP POP POP POP DUP2 JUMP JUMPDEST PUSH2 0xEEC PUSH2 0x12E1 JUMP JUMPDEST PUSH1 0x0 DUP1 DUP4 PUSH1 0x40 MLOAD PUSH2 0xEFD SWAP2 SWAP1 PUSH2 0x1BED JUMP JUMPDEST SWAP1 DUP2 MSTORE PUSH1 0x20 ADD PUSH1 0x40 MLOAD DUP1 SWAP2 SUB SWAP1 KECCAK256 PUSH1 0x0 ADD DUP1 SLOAD PUSH2 0xF19 SWAP1 PUSH2 0x1B80 JUMP JUMPDEST SWAP1 POP SUB PUSH2 0xF5B JUMPI PUSH1 0x40 MLOAD PUSH32 0x8C379A000000000000000000000000000000000000000000000000000000000 DUP2 MSTORE PUSH1 0x4 ADD PUSH2 0xF52 SWAP1 PUSH2 0x200E JUMP JUMPDEST PUSH1 0x40 MLOAD DUP1 SWAP2 SUB SWAP1 REVERT JUMPDEST PUSH1 0x0 DUP3 PUSH1 0x40 MLOAD PUSH2 0xF6B SWAP2 SWAP1 PUSH2 0x1BED JUMP JUMPDEST SWAP1 DUP2 MSTORE PUSH1 0x20 ADD PUSH1 0x40 MLOAD DUP1 SWAP2 SUB SWAP1 KECCAK256 PUSH1 0x40 MLOAD DUP1 PUSH2 0x120 ADD PUSH1 0x40 MSTORE SWAP1 DUP2 PUSH1 0x0 DUP3 ADD DUP1 SLOAD PUSH2 0xF95 SWAP1 PUSH2 0x1B80 JUMP JUMPDEST DUP1 PUSH1 0x1F ADD PUSH1 0x20 DUP1 SWAP2 DIV MUL PUSH1 0x20 ADD PUSH1 0x40 MLOAD SWAP1 DUP2 ADD PUSH1 0x40 MSTORE DUP1 SWAP3 SWAP2 SWAP1 DUP2 DUP2 MSTORE PUSH1 0x20 ADD DUP3 DUP1 SLOAD PUSH2 0xFC1 SWAP1 PUSH2 0x1B80 JUMP JUMPDEST DUP1 ISZERO PUSH2 0x100E JUMPI DUP1 PUSH1 0x1F LT PUSH2 0xFE3 JUMPI PUSH2 0x100 DUP1 DUP4 SLOAD DIV MUL DUP4 MSTORE SWAP2 PUSH1 0x20 ADD SWAP2 PUSH2 0x100E JUMP JUMPDEST DUP3 ADD SWAP2 SWAP1 PUSH1 0x0 MSTORE PUSH1 0x20 PUSH1 0x0 KECCAK256 SWAP1 JUMPDEST DUP2 SLOAD DUP2 MSTORE SWAP1 PUSH1 0x1 ADD SWAP1 PUSH1 0x20 ADD DUP1 DUP4 GT PUSH2 0xFF1 JUMPI DUP3 SWAP1 SUB PUSH1 0x1F AND DUP3 ADD SWAP2 JUMPDEST POP POP POP POP POP DUP2 MSTORE PUSH1 0x20 ADD PUSH1 0x1 DUP3 ADD SLOAD DUP2 MSTORE PUSH1 0x20 ADD PUSH1 0x2 DUP3 ADD SLOAD DUP2 MSTORE PUSH1 0x20 ADD PUSH1 0x3 DUP3 ADD DUP1 SLOAD PUSH2 0x103B SWAP1 PUSH2 0x1B80 JUMP JUMPDEST DUP1 PUSH1 0x1F ADD PUSH1 0x20 DUP1 SWAP2 DIV MUL PUSH1 0x20 ADD PUSH1 0x40 MLOAD SWAP1 DUP2 ADD PUSH1 0x40 MSTORE DUP1 SWAP3 SWAP2 SWAP1 DUP2 DUP2 MSTORE PUSH1 0x20 ADD DUP3 DUP1 SLOAD PUSH2 0x1067 SWAP1 PUSH2 0x1B80 JUMP JUMPDEST DUP1 ISZERO PUSH2 0x10B4 JUMPI DUP1 PUSH1 0x1F LT PUSH2 0x1089 JUMPI PUSH2 0x100 DUP1 DUP4 SLOAD DIV MUL DUP4 MSTORE SWAP2 PUSH1 0x20 ADD SWAP2 PUSH2 0x10B4 JUMP JUMPDEST DUP3 ADD SWAP2 SWAP1 PUSH1 0x0 MSTORE PUSH1 0x20 PUSH1 0x0 KECCAK256 SWAP1 JUMPDEST DUP2 SLOAD DUP2 MSTORE SWAP1 PUSH1 0x1 ADD SWAP1 PUSH1 0x20 ADD DUP1 DUP4 GT PUSH2 0x1097 JUMPI DUP3 SWAP1 SUB PUSH1 0x1F AND DUP3 ADD SWAP2 JUMPDEST POP POP POP POP POP DUP2 MSTORE PUSH1 0x20 ADD PUSH1 0x4 DUP3 ADD DUP1 SLOAD PUSH2 0x10CD SWAP1 PUSH2 0x1B80 JUMP JUMPDEST DUP1 PUSH1 0x1F ADD PUSH1 0x20 DUP1 SWAP2 DIV MUL PUSH1 0x20 ADD PUSH1 0x40 MLOAD SWAP1 DUP2 ADD PUSH1 0x40 MSTORE DUP1 SWAP3 SWAP2 SWAP1 DUP2 DUP2 MSTORE PUSH1 0x20 ADD DUP3 DUP1 SLOAD PUSH2 0x10F9 SWAP1 PUSH2 0x1B80 JUMP JUMPDEST DUP1 ISZERO PUSH2 0x1146 JUMPI DUP1 PUSH1 0x1F LT PUSH2 0x111B JUMPI PUSH2 0x100 DUP1 DUP4 SLOAD DIV MUL DUP4 MSTORE SWAP2 PUSH1 0x20 ADD SWAP2 PUSH2 0x1146 JUMP JUMPDEST DUP3 ADD SWAP2 SWAP1 PUSH1 0x0 MSTORE PUSH1 0x20 PUSH1 0x0 KECCAK256 SWAP1 JUMPDEST DUP2 SLOAD DUP2 MSTORE SWAP1 PUSH1 0x1 ADD SWAP1 PUSH1 0x20 ADD DUP1 DUP4 GT PUSH2 0x1129 JUMPI DUP3 SWAP1 SUB PUSH1 0x1F AND DUP3 ADD SWAP2 JUMPDEST POP POP POP POP POP DUP2 MSTORE PUSH1 0x20 ADD PUSH1 0x5 DUP3 ADD DUP1 SLOAD PUSH2 0x115F SWAP1 PUSH2 0x1B80 JUMP JUMPDEST DUP1 PUSH1 0x1F ADD PUSH1 0x20 DUP1 SWAP2 DIV MUL PUSH1 0x20 ADD PUSH1 0x40 MLOAD SWAP1 DUP2 ADD PUSH1 0x40 MSTORE DUP1 SWAP3 SWAP2 SWAP1 DUP2 DUP2 MSTORE PUSH1 0x20 ADD DUP3 DUP1 SLOAD PUSH2 0x118B SWAP1 PUSH2 0x1B80 JUMP JUMPDEST DUP1 ISZERO PUSH2 0x11D8 JUMPI DUP1 PUSH1 0x1F LT PUSH2 0x11AD JUMPI PUSH2 0x100 DUP1 DUP4 SLOAD DIV MUL DUP4 MSTORE SWAP2 PUSH1 0x20 ADD SWAP2 PUSH2 0x11D8 JUMP JUMPDEST DUP3 ADD SWAP2 SWAP1 PUSH1 0x0 MSTORE PUSH1 0x20 PUSH1 0x0 KECCAK256 SWAP1 JUMPDEST DUP2 SLOAD DUP2 MSTORE SWAP1 PUSH1 0x1 ADD SWAP1 PUSH1 0x20 ADD DUP1 DUP4 GT PUSH2 0x11BB JUMPI DUP3 SWAP1 SUB PUSH1 0x1F AND DUP3 ADD SWAP2 JUMPDEST POP POP POP POP POP DUP2 MSTORE PUSH1 0x20 ADD PUSH1 0x6 DUP3 ADD SLOAD DUP2 MSTORE PUSH1 0x20 ADD PUSH1 0x7 DUP3 ADD SLOAD DUP2 MSTORE PUSH1 0x20 ADD PUSH1 0x8 DUP3 ADD SLOAD DUP2 MSTORE POP POP SWAP1 POP SWAP2 SWAP1 POP JUMP JUMPDEST PUSH1 0x0 DUP1 DUP4 PUSH1 0x40 MLOAD PUSH2 0x1217 SWAP2 SWAP1 PUSH2 0x1BED JUMP JUMPDEST SWAP1 DUP2 MSTORE PUSH1 0x20 ADD PUSH1 0x40 MLOAD DUP1 SWAP2 SUB SWAP1 KECCAK256 PUSH1 0x0 ADD DUP1 SLOAD PUSH2 0x1233 SWAP1 PUSH2 0x1B80 JUMP JUMPDEST SWAP1 POP SUB PUSH2 0x1275 JUMPI PUSH1 0x40 MLOAD PUSH32 0x8C379A000000000000000000000000000000000000000000000000000000000 DUP2 MSTORE PUSH1 0x4 ADD PUSH2 0x126C SWAP1 PUSH2 0x200E JUMP JUMPDEST PUSH1 0x40 MLOAD DUP1 SWAP2 SUB SWAP1 REVERT JUMPDEST DUP1 PUSH1 0x0 DUP4 PUSH1 0x40 MLOAD PUSH2 0x1286 SWAP2 SWAP1 PUSH2 0x1BED JUMP JUMPDEST SWAP1 DUP2 MSTORE PUSH1 0x20 ADD PUSH1 0x40 MLOAD DUP1 SWAP2 SUB SWAP1 KECCAK256 PUSH1 0x4 ADD SWAP1 DUP2 PUSH2 0x12A3 SWAP2 SWAP1 PUSH2 0x1DB0 JUMP JUMPDEST POP PUSH32 0xC61FFB03925558D248FBA37B73270B12903D3F0BA5797AF8B71A9F8BF0761A98 DUP3 DUP3 PUSH1 0x40 MLOAD PUSH2 0x12D5 SWAP3 SWAP2 SWAP1 PUSH2 0x202E JUMP JUMPDEST PUSH1 0x40 MLOAD DUP1 SWAP2 SUB SWAP1 LOG1 POP POP JUMP JUMPDEST PUSH1 0x40 MLOAD DUP1 PUSH2 0x120 ADD PUSH1 0x40 MSTORE DUP1 PUSH1 0x60 DUP2 MSTORE PUSH1 0x20 ADD PUSH1 0x0 DUP2 MSTORE PUSH1 0x20 ADD PUSH1 0x0 DUP2 MSTORE PUSH1 0x20 ADD PUSH1 0x60 DUP2 MSTORE PUSH1 0x20 ADD PUSH1 0x60 DUP2 MSTORE PUSH1 0x20 ADD PUSH1 0x60 DUP2 MSTORE PUSH1 0x20 ADD PUSH1 0x0 DUP2 MSTORE PUSH1 0x20 ADD PUSH1 0x0 DUP2 MSTORE PUSH1 0x20 ADD PUSH1 0x0 DUP2 MSTORE POP SWAP1 JUMP JUMPDEST PUSH1 0x0 PUSH1 0x40 MLOAD SWAP1 POP SWAP1 JUMP JUMPDEST PUSH1 0x0 DUP1 REVERT JUMPDEST PUSH1 0x0 DUP1 REVERT JUMPDEST PUSH1 0x0 DUP1 REVERT JUMPDEST PUSH1 0x0 DUP1 REVERT JUMPDEST PUSH1 0x0 PUSH1 0x1F NOT PUSH1 0x1F DUP4 ADD AND SWAP1 POP SWAP2 SWAP1 POP JUMP JUMPDEST PUSH32 0x4E487B7100000000000000000000000000000000000000000000000000000000 PUSH1 0x0 MSTORE PUSH1 0x41 PUSH1 0x4 MSTORE PUSH1 0x24 PUSH1 0x0 REVERT JUMPDEST PUSH2 0x1394 DUP3 PUSH2 0x134B JUMP JUMPDEST DUP2 ADD DUP2 DUP2 LT PUSH8 0xFFFFFFFFFFFFFFFF DUP3 GT OR ISZERO PUSH2 0x13B3 JUMPI PUSH2 0x13B2 PUSH2 0x135C JUMP JUMPDEST JUMPDEST DUP1 PUSH1 0x40 MSTORE POP POP POP JUMP JUMPDEST PUSH1 0x0 PUSH2 0x13C6 PUSH2 0x132D JUMP JUMPDEST SWAP1 POP PUSH2 0x13D2 DUP3 DUP3 PUSH2 0x138B JUMP JUMPDEST SWAP2 SWAP1 POP JUMP JUMPDEST PUSH1 0x0 PUSH8 0xFFFFFFFFFFFFFFFF DUP3 GT ISZERO PUSH2 0x13F2 JUMPI PUSH2 0x13F1 PUSH2 0x135C JUMP JUMPDEST JUMPDEST PUSH2 0x13FB DUP3 PUSH2 0x134B JUMP JUMPDEST SWAP1 POP PUSH1 0x20 DUP2 ADD SWAP1 POP SWAP2 SWAP1 POP JUMP JUMPDEST DUP3 DUP2 DUP4 CALLDATACOPY PUSH1 0x0 DUP4 DUP4 ADD MSTORE POP POP POP JUMP JUMPDEST PUSH1 0x0 PUSH2 0x142A PUSH2 0x1425 DUP5 PUSH2 0x13D7 JUMP JUMPDEST PUSH2 0x13BC JUMP JUMPDEST SWAP1 POP DUP3 DUP2 MSTORE PUSH1 0x20 DUP2 ADD DUP5 DUP5 DUP5 ADD GT ISZERO PUSH2 0x1446 JUMPI PUSH2 0x1445 PUSH2 0x1346 JUMP JUMPDEST JUMPDEST PUSH2 0x1451 DUP5 DUP3 DUP6 PUSH2 0x1408 JUMP JUMPDEST POP SWAP4 SWAP3 POP POP POP JUMP JUMPDEST PUSH1 0x0 DUP3 PUSH1 0x1F DUP4 ADD SLT PUSH2 0x146E JUMPI PUSH2 0x146D PUSH2 0x1341 JUMP JUMPDEST JUMPDEST DUP2 CALLDATALOAD PUSH2 0x147E DUP5 DUP3 PUSH1 0x20 DUP7 ADD PUSH2 0x1417 JUMP JUMPDEST SWAP2 POP POP SWAP3 SWAP2 POP POP JUMP JUMPDEST PUSH1 0x0 PUSH1 0x20 DUP3 DUP5 SUB SLT ISZERO PUSH2 0x149D JUMPI PUSH2 0x149C PUSH2 0x1337 JUMP JUMPDEST JUMPDEST PUSH1 0x0 DUP3 ADD CALLDATALOAD PUSH8 0xFFFFFFFFFFFFFFFF DUP2 GT ISZERO PUSH2 0x14BB JUMPI PUSH2 0x14BA PUSH2 0x133C JUMP JUMPDEST JUMPDEST PUSH2 0x14C7 DUP5 DUP3 DUP6 ADD PUSH2 0x1459 JUMP JUMPDEST SWAP2 POP POP SWAP3 SWAP2 POP POP JUMP JUMPDEST PUSH1 0x0 DUP2 MLOAD SWAP1 POP SWAP2 SWAP1 POP JUMP JUMPDEST PUSH1 0x0 DUP3 DUP3 MSTORE PUSH1 0x20 DUP3 ADD SWAP1 POP SWAP3 SWAP2 POP POP JUMP JUMPDEST PUSH1 0x0 JUMPDEST DUP4 DUP2 LT ISZERO PUSH2 0x150A JUMPI DUP1 DUP3 ADD MLOAD DUP2 DUP5 ADD MSTORE PUSH1 0x20 DUP2 ADD SWAP1 POP PUSH2 0x14EF JUMP JUMPDEST PUSH1 0x0 DUP5 DUP5 ADD MSTORE POP POP POP POP JUMP JUMPDEST PUSH1 0x0 PUSH2 0x1521 DUP3 PUSH2 0x14D0 JUMP JUMPDEST PUSH2 0x152B DUP2 DUP6 PUSH2 0x14DB JUMP JUMPDEST SWAP4 POP PUSH2 0x153B DUP2 DUP6 PUSH1 0x20 DUP7 ADD PUSH2 0x14EC JUMP JUMPDEST PUSH2 0x1544 DUP2 PUSH2 0x134B JUMP JUMPDEST DUP5 ADD SWAP2 POP POP SWAP3 SWAP2 POP POP JUMP JUMPDEST PUSH1 0x0 DUP2 SWAP1 POP SWAP2 SWAP1 POP JUMP JUMPDEST PUSH2 0x1562 DUP2 PUSH2 0x154F JUMP JUMPDEST DUP3 MSTORE POP POP JUMP JUMPDEST PUSH1 0x0 PUSH2 0x120 DUP3 ADD SWAP1 POP DUP2 DUP2 SUB PUSH1 0x0 DUP4 ADD MSTORE PUSH2 0x1583 DUP2 DUP13 PUSH2 0x1516 JUMP JUMPDEST SWAP1 POP PUSH2 0x1592 PUSH1 0x20 DUP4 ADD DUP12 PUSH2 0x1559 JUMP JUMPDEST PUSH2 0x159F PUSH1 0x40 DUP4 ADD DUP11 PUSH2 0x1559 JUMP JUMPDEST DUP2 DUP2 SUB PUSH1 0x60 DUP4 ADD MSTORE PUSH2 0x15B1 DUP2 DUP10 PUSH2 0x1516 JUMP JUMPDEST SWAP1 POP DUP2 DUP2 SUB PUSH1 0x80 DUP4 ADD MSTORE PUSH2 0x15C5 DUP2 DUP9 PUSH2 0x1516 JUMP JUMPDEST SWAP1 POP DUP2 DUP2 SUB PUSH1 0xA0 DUP4 ADD MSTORE PUSH2 0x15D9 DUP2 DUP8 PUSH2 0x1516 JUMP JUMPDEST SWAP1 POP PUSH2 0x15E8 PUSH1 0xC0 DUP4 ADD DUP7 PUSH2 0x1559 JUMP JUMPDEST PUSH2 0x15F5 PUSH1 0xE0 DUP4 ADD DUP6 PUSH2 0x1559 JUMP JUMPDEST PUSH2 0x1603 PUSH2 0x100 DUP4 ADD DUP5 PUSH2 0x1559 JUMP JUMPDEST SWAP11 SWAP10 POP POP POP POP POP POP POP POP POP POP JUMP JUMPDEST PUSH2 0x161A DUP2 PUSH2 0x154F JUMP JUMPDEST DUP2 EQ PUSH2 0x1625 JUMPI PUSH1 0x0 DUP1 REVERT JUMPDEST POP JUMP JUMPDEST PUSH1 0x0 DUP2 CALLDATALOAD SWAP1 POP PUSH2 0x1637 DUP2 PUSH2 0x1611 JUMP JUMPDEST SWAP3 SWAP2 POP POP JUMP JUMPDEST PUSH1 0x0 DUP1 PUSH1 0x0 DUP1 PUSH1 0x0 DUP1 PUSH1 0x0 DUP1 PUSH1 0x0 PUSH2 0x120 DUP11 DUP13 SUB SLT ISZERO PUSH2 0x1660 JUMPI PUSH2 0x165F PUSH2 0x1337 JUMP JUMPDEST JUMPDEST PUSH1 0x0 DUP11 ADD CALLDATALOAD PUSH8 0xFFFFFFFFFFFFFFFF DUP2 GT ISZERO PUSH2 0x167E JUMPI PUSH2 0x167D PUSH2 0x133C JUMP JUMPDEST JUMPDEST PUSH2 0x168A DUP13 DUP3 DUP14 ADD PUSH2 0x1459 JUMP JUMPDEST SWAP10 POP POP PUSH1 0x20 PUSH2 0x169B DUP13 DUP3 DUP14 ADD PUSH2 0x1628 JUMP JUMPDEST SWAP9 POP POP PUSH1 0x40 PUSH2 0x16AC DUP13 DUP3 DUP14 ADD PUSH2 0x1628 JUMP JUMPDEST SWAP8 POP POP PUSH1 0x60 DUP11 ADD CALLDATALOAD PUSH8 0xFFFFFFFFFFFFFFFF DUP2 GT ISZERO PUSH2 0x16CD JUMPI PUSH2 0x16CC PUSH2 0x133C JUMP JUMPDEST JUMPDEST PUSH2 0x16D9 DUP13 DUP3 DUP14 ADD PUSH2 0x1459 JUMP JUMPDEST SWAP7 POP POP PUSH1 0x80 DUP11 ADD CALLDATALOAD PUSH8 0xFFFFFFFFFFFFFFFF DUP2 GT ISZERO PUSH2 0x16FA JUMPI PUSH2 0x16F9 PUSH2 0x133C JUMP JUMPDEST JUMPDEST PUSH2 0x1706 DUP13 DUP3 DUP14 ADD PUSH2 0x1459 JUMP JUMPDEST SWAP6 POP POP PUSH1 0xA0 DUP11 ADD CALLDATALOAD PUSH8 0xFFFFFFFFFFFFFFFF DUP2 GT ISZERO PUSH2 0x1727 JUMPI PUSH2 0x1726 PUSH2 0x133C JUMP JUMPDEST JUMPDEST PUSH2 0x1733 DUP13 DUP3 DUP14 ADD PUSH2 0x1459 JUMP JUMPDEST SWAP5 POP POP PUSH1 0xC0 PUSH2 0x1744 DUP13 DUP3 DUP14 ADD PUSH2 0x1628 JUMP JUMPDEST SWAP4 POP POP PUSH1 0xE0 PUSH2 0x1755 DUP13 DUP3 DUP14 ADD PUSH2 0x1628 JUMP JUMPDEST SWAP3 POP POP PUSH2 0x100 PUSH2 0x1767 DUP13 DUP3 DUP14 ADD PUSH2 0x1628 JUMP JUMPDEST SWAP2 POP POP SWAP3 SWAP6 SWAP9 POP SWAP3 SWAP6 SWAP9 POP SWAP3 SWAP6 SWAP9 JUMP JUMPDEST PUSH1 0x0 DUP2 MLOAD SWAP1 POP SWAP2 SWAP1 POP JUMP JUMPDEST PUSH1 0x0 DUP3 DUP3 MSTORE PUSH1 0x20 DUP3 ADD SWAP1 POP SWAP3 SWAP2 POP POP JUMP JUMPDEST PUSH1 0x0 DUP2 SWAP1 POP PUSH1 0x20 DUP3 ADD SWAP1 POP SWAP2 SWAP1 POP JUMP JUMPDEST PUSH1 0x0 DUP3 DUP3 MSTORE PUSH1 0x20 DUP3 ADD SWAP1 POP SWAP3 SWAP2 POP POP JUMP JUMPDEST PUSH1 0x0 PUSH2 0x17BF DUP3 PUSH2 0x14D0 JUMP JUMPDEST PUSH2 0x17C9 DUP2 DUP6 PUSH2 0x17A3 JUMP JUMPDEST SWAP4 POP PUSH2 0x17D9 DUP2 DUP6 PUSH1 0x20 DUP7 ADD PUSH2 0x14EC JUMP JUMPDEST PUSH2 0x17E2 DUP2 PUSH2 0x134B JUMP JUMPDEST DUP5 ADD SWAP2 POP POP SWAP3 SWAP2 POP POP JUMP JUMPDEST PUSH2 0x17F6 DUP2 PUSH2 0x154F JUMP JUMPDEST DUP3 MSTORE POP POP JUMP JUMPDEST PUSH1 0x0 PUSH2 0x120 DUP4 ADD PUSH1 0x0 DUP4 ADD MLOAD DUP5 DUP3 SUB PUSH1 0x0 DUP7 ADD MSTORE PUSH2 0x181A DUP3 DUP3 PUSH2 0x17B4 JUMP JUMPDEST SWAP2 POP POP PUSH1 0x20 DUP4 ADD MLOAD PUSH2 0x182F PUSH1 0x20 DUP7 ADD DUP3 PUSH2 0x17ED JUMP JUMPDEST POP PUSH1 0x40 DUP4 ADD MLOAD PUSH2 0x1842 PUSH1 0x40 DUP7 ADD DUP3 PUSH2 0x17ED JUMP JUMPDEST POP PUSH1 0x60 DUP4 ADD MLOAD DUP5 DUP3 SUB PUSH1 0x60 DUP7 ADD MSTORE PUSH2 0x185A DUP3 DUP3 PUSH2 0x17B4 JUMP JUMPDEST SWAP2 POP POP PUSH1 0x80 DUP4 ADD MLOAD DUP5 DUP3 SUB PUSH1 0x80 DUP7 ADD MSTORE PUSH2 0x1874 DUP3 DUP3 PUSH2 0x17B4 JUMP JUMPDEST SWAP2 POP POP PUSH1 0xA0 DUP4 ADD MLOAD DUP5 DUP3 SUB PUSH1 0xA0 DUP7 ADD MSTORE PUSH2 0x188E DUP3 DUP3 PUSH2 0x17B4 JUMP JUMPDEST SWAP2 POP POP PUSH1 0xC0 DUP4 ADD MLOAD PUSH2 0x18A3 PUSH1 0xC0 DUP7 ADD DUP3 PUSH2 0x17ED JUMP JUMPDEST POP PUSH1 0xE0 DUP4 ADD MLOAD PUSH2 0x18B6 PUSH1 0xE0 DUP7 ADD DUP3 PUSH2 0x17ED JUMP JUMPDEST POP PUSH2 0x100 DUP4 ADD MLOAD PUSH2 0x18CB PUSH2 0x100 DUP7 ADD DUP3 PUSH2 0x17ED JUMP JUMPDEST POP DUP1 SWAP2 POP POP SWAP3 SWAP2 POP POP JUMP JUMPDEST PUSH1 0x0 PUSH2 0x18E2 DUP4 DUP4 PUSH2 0x17FC JUMP JUMPDEST SWAP1 POP SWAP3 SWAP2 POP POP JUMP JUMPDEST PUSH1 0x0 PUSH1 0x20 DUP3 ADD SWAP1 POP SWAP2 SWAP1 POP JUMP JUMPDEST PUSH1 0x0 PUSH2 0x1902 DUP3 PUSH2 0x1777 JUMP JUMPDEST PUSH2 0x190C DUP2 DUP6 PUSH2 0x1782 JUMP JUMPDEST SWAP4 POP DUP4 PUSH1 0x20 DUP3 MUL DUP6 ADD PUSH2 0x191E DUP6 PUSH2 0x1793 JUMP JUMPDEST DUP1 PUSH1 0x0 JUMPDEST DUP6 DUP2 LT ISZERO PUSH2 0x195A JUMPI DUP5 DUP5 SUB DUP10 MSTORE DUP2 MLOAD PUSH2 0x193B DUP6 DUP3 PUSH2 0x18D6 JUMP JUMPDEST SWAP5 POP PUSH2 0x1946 DUP4 PUSH2 0x18EA JUMP JUMPDEST SWAP3 POP PUSH1 0x20 DUP11 ADD SWAP10 POP POP PUSH1 0x1 DUP2 ADD SWAP1 POP PUSH2 0x1922 JUMP JUMPDEST POP DUP3 SWAP8 POP DUP8 SWAP6 POP POP POP POP POP POP SWAP3 SWAP2 POP POP JUMP JUMPDEST PUSH1 0x0 PUSH1 0x20 DUP3 ADD SWAP1 POP DUP2 DUP2 SUB PUSH1 0x0 DUP4 ADD MSTORE PUSH2 0x1986 DUP2 DUP5 PUSH2 0x18F7 JUMP JUMPDEST SWAP1 POP SWAP3 SWAP2 POP POP JUMP JUMPDEST PUSH1 0x0 PUSH1 0x20 DUP3 DUP5 SUB SLT ISZERO PUSH2 0x19A4 JUMPI PUSH2 0x19A3 PUSH2 0x1337 JUMP JUMPDEST JUMPDEST PUSH1 0x0 PUSH2 0x19B2 DUP5 DUP3 DUP6 ADD PUSH2 0x1628 JUMP JUMPDEST SWAP2 POP POP SWAP3 SWAP2 POP POP JUMP JUMPDEST PUSH1 0x0 DUP1 PUSH1 0x40 DUP4 DUP6 SUB SLT ISZERO PUSH2 0x19D2 JUMPI PUSH2 0x19D1 PUSH2 0x1337 JUMP JUMPDEST JUMPDEST PUSH1 0x0 DUP4 ADD CALLDATALOAD PUSH8 0xFFFFFFFFFFFFFFFF DUP2 GT ISZERO PUSH2 0x19F0 JUMPI PUSH2 0x19EF PUSH2 0x133C JUMP JUMPDEST JUMPDEST PUSH2 0x19FC DUP6 DUP3 DUP7 ADD PUSH2 0x1459 JUMP JUMPDEST SWAP3 POP POP PUSH1 0x20 DUP4 ADD CALLDATALOAD PUSH8 0xFFFFFFFFFFFFFFFF DUP2 GT ISZERO PUSH2 0x1A1D JUMPI PUSH2 0x1A1C PUSH2 0x133C JUMP JUMPDEST JUMPDEST PUSH2 0x1A29 DUP6 DUP3 DUP7 ADD PUSH2 0x1459 JUMP JUMPDEST SWAP2 POP POP SWAP3 POP SWAP3 SWAP1 POP JUMP JUMPDEST PUSH1 0x0 PUSH1 0x20 DUP3 ADD SWAP1 POP DUP2 DUP2 SUB PUSH1 0x0 DUP4 ADD MSTORE PUSH2 0x1A4D DUP2 DUP5 PUSH2 0x1516 JUMP JUMPDEST SWAP1 POP SWAP3 SWAP2 POP POP JUMP JUMPDEST PUSH1 0x0 PUSH2 0x120 DUP4 ADD PUSH1 0x0 DUP4 ADD MLOAD DUP5 DUP3 SUB PUSH1 0x0 DUP7 ADD MSTORE PUSH2 0x1A73 DUP3 DUP3 PUSH2 0x17B4 JUMP JUMPDEST SWAP2 POP POP PUSH1 0x20 DUP4 ADD MLOAD PUSH2 0x1A88 PUSH1 0x20 DUP7 ADD DUP3 PUSH2 0x17ED JUMP JUMPDEST POP PUSH1 0x40 DUP4 ADD MLOAD PUSH2 0x1A9B PUSH1 0x40 DUP7 ADD DUP3 PUSH2 0x17ED JUMP JUMPDEST POP PUSH1 0x60 DUP4 ADD MLOAD DUP5 DUP3 SUB PUSH1 0x60 DUP7 ADD MSTORE PUSH2 0x1AB3 DUP3 DUP3 PUSH2 0x17B4 JUMP JUMPDEST SWAP2 POP POP PUSH1 0x80 DUP4 ADD MLOAD DUP5 DUP3 SUB PUSH1 0x80 DUP7 ADD MSTORE PUSH2 0x1ACD DUP3 DUP3 PUSH2 0x17B4 JUMP JUMPDEST SWAP2 POP POP PUSH1 0xA0 DUP4 ADD MLOAD DUP5 DUP3 SUB PUSH1 0xA0 DUP7 ADD MSTORE PUSH2 0x1AE7 DUP3 DUP3 PUSH2 0x17B4 JUMP JUMPDEST SWAP2 POP POP PUSH1 0xC0 DUP4 ADD MLOAD PUSH2 0x1AFC PUSH1 0xC0 DUP7 ADD DUP3 PUSH2 0x17ED JUMP JUMPDEST POP PUSH1 0xE0 DUP4 ADD MLOAD PUSH2 0x1B0F PUSH1 0xE0 DUP7 ADD DUP3 PUSH2 0x17ED JUMP JUMPDEST POP PUSH2 0x100 DUP4 ADD MLOAD PUSH2 0x1B24 PUSH2 0x100 DUP7 ADD DUP3 PUSH2 0x17ED JUMP JUMPDEST POP DUP1 SWAP2 POP POP SWAP3 SWAP2 POP POP JUMP JUMPDEST PUSH1 0x0 PUSH1 0x20 DUP3 ADD SWAP1 POP DUP2 DUP2 SUB PUSH1 0x0 DUP4 ADD MSTORE PUSH2 0x1B49 DUP2 DUP5 PUSH2 0x1A55 JUMP JUMPDEST SWAP1 POP SWAP3 SWAP2 POP POP JUMP JUMPDEST PUSH32 0x4E487B7100000000000000000000000000000000000000000000000000000000 PUSH1 0x0 MSTORE PUSH1 0x22 PUSH1 0x4 MSTORE PUSH1 0x24 PUSH1 0x0 REVERT JUMPDEST PUSH1 0x0 PUSH1 0x2 DUP3 DIV SWAP1 POP PUSH1 0x1 DUP3 AND DUP1 PUSH2 0x1B98 JUMPI PUSH1 0x7F DUP3 AND SWAP2 POP JUMPDEST PUSH1 0x20 DUP3 LT DUP2 SUB PUSH2 0x1BAB JUMPI PUSH2 0x1BAA PUSH2 0x1B51 JUMP JUMPDEST JUMPDEST POP SWAP2 SWAP1 POP JUMP JUMPDEST PUSH1 0x0 DUP2 SWAP1 POP SWAP3 SWAP2 POP POP JUMP JUMPDEST PUSH1 0x0 PUSH2 0x1BC7 DUP3 PUSH2 0x14D0 JUMP JUMPDEST PUSH2 0x1BD1 DUP2 DUP6 PUSH2 0x1BB1 JUMP JUMPDEST SWAP4 POP PUSH2 0x1BE1 DUP2 DUP6 PUSH1 0x20 DUP7 ADD PUSH2 0x14EC JUMP JUMPDEST DUP1 DUP5 ADD SWAP2 POP POP SWAP3 SWAP2 POP POP JUMP JUMPDEST PUSH1 0x0 PUSH2 0x1BF9 DUP3 DUP5 PUSH2 0x1BBC JUMP JUMPDEST SWAP2 POP DUP2 SWAP1 POP SWAP3 SWAP2 POP POP JUMP JUMPDEST PUSH1 0x0 DUP2 SWAP1 POP DUP2 PUSH1 0x0 MSTORE PUSH1 0x20 PUSH1 0x0 KECCAK256 SWAP1 POP SWAP2 SWAP1 POP JUMP JUMPDEST PUSH1 0x0 PUSH1 0x20 PUSH1 0x1F DUP4 ADD DIV SWAP1 POP SWAP2 SWAP1 POP JUMP JUMPDEST PUSH1 0x0 DUP3 DUP3 SHL SWAP1 POP SWAP3 SWAP2 POP POP JUMP JUMPDEST PUSH1 0x0 PUSH1 0x8 DUP4 MUL PUSH2 0x1C66 PUSH32 0xFFFFFFFFFFFFFFFFFFFFFFFFFFFFFFFFFFFFFFFFFFFFFFFFFFFFFFFFFFFFFFFF DUP3 PUSH2 0x1C29 JUMP JUMPDEST PUSH2 0x1C70 DUP7 DUP4 PUSH2 0x1C29 JUMP JUMPDEST SWAP6 POP DUP1 NOT DUP5 AND SWAP4 POP DUP1 DUP7 AND DUP5 OR SWAP3 POP POP POP SWAP4 SWAP3 POP POP POP JUMP JUMPDEST PUSH1 0x0 DUP2 SWAP1 POP SWAP2 SWAP1 POP JUMP JUMPDEST PUSH1 0x0 PUSH2 0x1CAD PUSH2 0x1CA8 PUSH2 0x1CA3 DUP5 PUSH2 0x154F JUMP JUMPDEST PUSH2 0x1C88 JUMP JUMPDEST PUSH2 0x154F JUMP JUMPDEST SWAP1 POP SWAP2 SWAP1 POP JUMP JUMPDEST PUSH1 0x0 DUP2 SWAP1 POP SWAP2 SWAP1 POP JUMP JUMPDEST PUSH2 0x1CC7 DUP4 PUSH2 0x1C92 JUMP JUMPDEST PUSH2 0x1CDB PUSH2 0x1CD3 DUP3 PUSH2 0x1CB4 JUMP JUMPDEST DUP5 DUP5 SLOAD PUSH2 0x1C36 JUMP JUMPDEST DUP3 SSTORE POP POP POP POP JUMP JUMPDEST PUSH1 0x0 SWAP1 JUMP JUMPDEST PUSH2 0x1CF0 PUSH2 0x1CE3 JUMP JUMPDEST PUSH2 0x1CFB DUP2 DUP5 DUP5 PUSH2 0x1CBE JUMP JUMPDEST POP POP POP JUMP JUMPDEST JUMPDEST DUP2 DUP2 LT ISZERO PUSH2 0x1D1F JUMPI PUSH2 0x1D14 PUSH1 0x0 DUP3 PUSH2 0x1CE8 JUMP JUMPDEST PUSH1 0x1 DUP2 ADD SWAP1 POP PUSH2 0x1D01 JUMP JUMPDEST POP POP JUMP JUMPDEST PUSH1 0x1F DUP3 GT ISZERO PUSH2 0x1D64 JUMPI PUSH2 0x1D35 DUP2 PUSH2 0x1C04 JUMP JUMPDEST PUSH2 0x1D3E DUP5 PUSH2 0x1C19 JUMP JUMPDEST DUP2 ADD PUSH1 0x20 DUP6 LT ISZERO PUSH2 0x1D4D JUMPI DUP2 SWAP1 POP JUMPDEST PUSH2 0x1D61 PUSH2 0x1D59 DUP6 PUSH2 0x1C19 JUMP JUMPDEST DUP4 ADD DUP3 PUSH2 0x1D00 JUMP JUMPDEST POP POP JUMPDEST POP POP POP JUMP JUMPDEST PUSH1 0x0 DUP3 DUP3 SHR SWAP1 POP SWAP3 SWAP2 POP POP JUMP JUMPDEST PUSH1 0x0 PUSH2 0x1D87 PUSH1 0x0 NOT DUP5 PUSH1 0x8 MUL PUSH2 0x1D69 JUMP JUMPDEST NOT DUP1 DUP4 AND SWAP2 POP POP SWAP3 SWAP2 POP POP JUMP JUMPDEST PUSH1 0x0 PUSH2 0x1DA0 DUP4 DUP4 PUSH2 0x1D76 JUMP JUMPDEST SWAP2 POP DUP3 PUSH1 0x2 MUL DUP3 OR SWAP1 POP SWAP3 SWAP2 POP POP JUMP JUMPDEST PUSH2 0x1DB9 DUP3 PUSH2 0x14D0 JUMP JUMPDEST PUSH8 0xFFFFFFFFFFFFFFFF DUP2 GT ISZERO PUSH2 0x1DD2 JUMPI PUSH2 0x1DD1 PUSH2 0x135C JUMP JUMPDEST JUMPDEST PUSH2 0x1DDC DUP3 SLOAD PUSH2 0x1B80 JUMP JUMPDEST PUSH2 0x1DE7 DUP3 DUP3 DUP6 PUSH2 0x1D23 JUMP JUMPDEST PUSH1 0x0 PUSH1 0x20 SWAP1 POP PUSH1 0x1F DUP4 GT PUSH1 0x1 DUP2 EQ PUSH2 0x1E1A JUMPI PUSH1 0x0 DUP5 ISZERO PUSH2 0x1E08 JUMPI DUP3 DUP8 ADD MLOAD SWAP1 POP JUMPDEST PUSH2 0x1E12 DUP6 DUP3 PUSH2 0x1D94 JUMP JUMPDEST DUP7 SSTORE POP PUSH2 0x1E7A JUMP JUMPDEST PUSH1 0x1F NOT DUP5 AND PUSH2 0x1E28 DUP7 PUSH2 0x1C04 JUMP JUMPDEST PUSH1 0x0 JUMPDEST DUP3 DUP2 LT ISZERO PUSH2 0x1E50 JUMPI DUP5 DUP10 ADD MLOAD DUP3 SSTORE PUSH1 0x1 DUP3 ADD SWAP2 POP PUSH1 0x20 DUP6 ADD SWAP5 POP PUSH1 0x20 DUP2 ADD SWAP1 POP PUSH2 0x1E2B JUMP JUMPDEST DUP7 DUP4 LT ISZERO PUSH2 0x1E6D JUMPI DUP5 DUP10 ADD MLOAD PUSH2 0x1E69 PUSH1 0x1F DUP10 AND DUP3 PUSH2 0x1D76 JUMP JUMPDEST DUP4 SSTORE POP JUMPDEST PUSH1 0x1 PUSH1 0x2 DUP9 MUL ADD DUP9 SSTORE POP POP POP JUMPDEST POP POP POP POP POP POP JUMP JUMPDEST PUSH32 0x4E487B7100000000000000000000000000000000000000000000000000000000 PUSH1 0x0 MSTORE PUSH1 0x32 PUSH1 0x4 MSTORE PUSH1 0x24 PUSH1 0x0 REVERT JUMPDEST PUSH1 0x0 DUP2 SLOAD PUSH2 0x1EBE DUP2 PUSH2 0x1B80 JUMP JUMPDEST PUSH2 0x1EC8 DUP2 DUP7 PUSH2 0x1BB1 JUMP JUMPDEST SWAP5 POP PUSH1 0x1 DUP3 AND PUSH1 0x0 DUP2 EQ PUSH2 0x1EE3 JUMPI PUSH1 0x1 DUP2 EQ PUSH2 0x1EF8 JUMPI PUSH2 0x1F2B JUMP JUMPDEST PUSH1 0xFF NOT DUP4 AND DUP7 MSTORE DUP2 ISZERO ISZERO DUP3 MUL DUP7 ADD SWAP4 POP PUSH2 0x1F2B JUMP JUMPDEST PUSH2 0x1F01 DUP6 PUSH2 0x1C04 JUMP JUMPDEST PUSH1 0x0 JUMPDEST DUP4 DUP2 LT ISZERO PUSH2 0x1F23 JUMPI DUP2 SLOAD DUP2 DUP10 ADD MSTORE PUSH1 0x1 DUP3 ADD SWAP2 POP PUSH1 0x20 DUP2 ADD SWAP1 POP PUSH2 0x1F04 JUMP JUMPDEST DUP4 DUP9 ADD SWAP6 POP POP POP JUMPDEST POP POP POP SWAP3 SWAP2 POP POP JUMP JUMPDEST PUSH1 0x0 PUSH2 0x1F40 DUP3 DUP5 PUSH2 0x1EB1 JUMP JUMPDEST SWAP2 POP DUP2 SWAP1 POP SWAP3 SWAP2 POP POP JUMP JUMPDEST PUSH32 0x4E487B7100000000000000000000000000000000000000000000000000000000 PUSH1 0x0 MSTORE PUSH1 0x11 PUSH1 0x4 MSTORE PUSH1 0x24 PUSH1 0x0 REVERT JUMPDEST PUSH1 0x0 PUSH2 0x1F85 DUP3 PUSH2 0x154F JUMP JUMPDEST SWAP2 POP PUSH32 0xFFFFFFFFFFFFFFFFFFFFFFFFFFFFFFFFFFFFFFFFFFFFFFFFFFFFFFFFFFFFFFFF DUP3 SUB PUSH2 0x1FB7 JUMPI PUSH2 0x1FB6 PUSH2 0x1F4B JUMP JUMPDEST JUMPDEST PUSH1 0x1 DUP3 ADD SWAP1 POP SWAP2 SWAP1 POP JUMP JUMPDEST PUSH32 0x5472616E73616374696F6E20646F6573206E6F74206578697374000000000000 PUSH1 0x0 DUP3 ADD MSTORE POP JUMP JUMPDEST PUSH1 0x0 PUSH2 0x1FF8 PUSH1 0x1A DUP4 PUSH2 0x14DB JUMP JUMPDEST SWAP2 POP PUSH2 0x2003 DUP3 PUSH2 0x1FC2 JUMP JUMPDEST PUSH1 0x20 DUP3 ADD SWAP1 POP SWAP2 SWAP1 POP JUMP JUMPDEST PUSH1 0x0 PUSH1 0x20 DUP3 ADD SWAP1 POP DUP2 DUP2 SUB PUSH1 0x0 DUP4 ADD MSTORE PUSH2 0x2027 DUP2 PUSH2 0x1FEB JUMP JUMPDEST SWAP1 POP SWAP2 SWAP1 POP JUMP JUMPDEST PUSH1 0x0 PUSH1 0x40 DUP3 ADD SWAP1 POP DUP2 DUP2 SUB PUSH1 0x0 DUP4 ADD MSTORE PUSH2 0x2048 DUP2 DUP6 PUSH2 0x1516 JUMP JUMPDEST SWAP1 POP DUP2 DUP2 SUB PUSH1 0x20 DUP4 ADD MSTORE PUSH2 0x205C DUP2 DUP5 PUSH2 0x1516 JUMP JUMPDEST SWAP1 POP SWAP4 SWAP3 POP POP POP JUMP INVALID LOG2 PUSH5 0x6970667358 0x22 SLT KECCAK256 DUP11 0xE3 GT DUP13 LOG1 0xE7 SWAP12 0x4C SWAP1 0xC0 0xA7 PUSH1 0x72 SGT 0xB1 BYTE 0xB2 PUSH10 0xFFF11E26FA1C8BBFF73F RETURN PUSH19 0x207364736F6C63430008100033000000000000 "
				},
				"gasEstimates": {
					"creation": {
						"codeDepositCost": "1669400",
						"executionCost": "1750",
						"totalCost": "1671150"
					},
					"external": {
						"addTransaction(string,uint256,uint256,string,string,string,uint256,uint256,uint256)": "infinite",
						"getAllTransactions()": "infinite",
						"getTransactionByCode(string)": "infinite",
						"getTransactionByFromToUserId(uint256)": "infinite",
						"transactionCodes(uint256)": "infinite",
						"transactions(string)": "infinite",
						"updatePaymentStatus(string,string)": "infinite",
						"updateStatus(string,string)": "infinite"
					}
				},
				"methodIdentifiers": {
					"addTransaction(string,uint256,uint256,string,string,string,uint256,uint256,uint256)": "21a1c63a",
					"getAllTransactions()": "27506f53",
					"getTransactionByCode(string)": "d339b0ec",
					"getTransactionByFromToUserId(uint256)": "2faa0cca",
					"transactionCodes(uint256)": "7ce99c58",
					"transactions(string)": "022236f4",
					"updatePaymentStatus(string,string)": "fff50461",
					"updateStatus(string,string)": "347047cc"
				}
			},
			"storageLayout": {
				"storage": [
					{
						"astId": 25,
						"contract": "contracts/TransactionContract8Juni.sol:TransactionContract",
						"label": "transactions",
						"offset": 0,
						"slot": "0",
						"type": "t_mapping(t_string_memory_ptr,t_struct(Transaction)20_storage)"
					},
					{
						"astId": 28,
						"contract": "contracts/TransactionContract8Juni.sol:TransactionContract",
						"label": "transactionCodes",
						"offset": 0,
						"slot": "1",
						"type": "t_array(t_string_storage)dyn_storage"
					}
				],
				"types": {
					"t_array(t_string_storage)dyn_storage": {
						"base": "t_string_storage",
						"encoding": "dynamic_array",
						"label": "string[]",
						"numberOfBytes": "32"
					},
					"t_mapping(t_string_memory_ptr,t_struct(Transaction)20_storage)": {
						"encoding": "mapping",
						"key": "t_string_memory_ptr",
						"label": "mapping(string => struct TransactionContract.Transaction)",
						"numberOfBytes": "32",
						"value": "t_struct(Transaction)20_storage"
					},
					"t_string_memory_ptr": {
						"encoding": "bytes",
						"label": "string",
						"numberOfBytes": "32"
					},
					"t_string_storage": {
						"encoding": "bytes",
						"label": "string",
						"numberOfBytes": "32"
					},
					"t_struct(Transaction)20_storage": {
						"encoding": "inplace",
						"label": "struct TransactionContract.Transaction",
						"members": [
							{
								"astId": 3,
								"contract": "contracts/TransactionContract8Juni.sol:TransactionContract",
								"label": "transactionCode",
								"offset": 0,
								"slot": "0",
								"type": "t_string_storage"
							},
							{
								"astId": 5,
								"contract": "contracts/TransactionContract8Juni.sol:TransactionContract",
								"label": "campaignId",
								"offset": 0,
								"slot": "1",
								"type": "t_uint256"
							},
							{
								"astId": 7,
								"contract": "contracts/TransactionContract8Juni.sol:TransactionContract",
								"label": "fromToUserId",
								"offset": 0,
								"slot": "2",
								"type": "t_uint256"
							},
							{
								"astId": 9,
								"contract": "contracts/TransactionContract8Juni.sol:TransactionContract",
								"label": "orderType",
								"offset": 0,
								"slot": "3",
								"type": "t_string_storage"
							},
							{
								"astId": 11,
								"contract": "contracts/TransactionContract8Juni.sol:TransactionContract",
								"label": "paymentStatus",
								"offset": 0,
								"slot": "4",
								"type": "t_string_storage"
							},
							{
								"astId": 13,
								"contract": "contracts/TransactionContract8Juni.sol:TransactionContract",
								"label": "status",
								"offset": 0,
								"slot": "5",
								"type": "t_string_storage"
							},
							{
								"astId": 15,
								"contract": "contracts/TransactionContract8Juni.sol:TransactionContract",
								"label": "quantity",
								"offset": 0,
								"slot": "6",
								"type": "t_uint256"
							},
							{
								"astId": 17,
								"contract": "contracts/TransactionContract8Juni.sol:TransactionContract",
								"label": "totalPrice",
								"offset": 0,
								"slot": "7",
								"type": "t_uint256"
							},
							{
								"astId": 19,
								"contract": "contracts/TransactionContract8Juni.sol:TransactionContract",
								"label": "createdAt",
								"offset": 0,
								"slot": "8",
								"type": "t_uint256"
							}
						],
						"numberOfBytes": "288"
					},
					"t_uint256": {
						"encoding": "inplace",
						"label": "uint256",
						"numberOfBytes": "32"
					}
				}
			},
			"userdoc": {
				"kind": "user",
				"methods": {},
				"version": 1
			}
		}
	}
}