{
	"contracts/TransactionDetailContract28April.sol": {
		"TransactionDetailContract": {
			"abi": [
				{
					"anonymous": false,
					"inputs": [
						{
							"indexed": false,
							"internalType": "string",
							"name": "transactionCode",
							"type": "string"
						},
						{
							"indexed": false,
							"internalType": "uint256",
							"name": "price",
							"type": "uint256"
						},
						{
							"indexed": false,
							"internalType": "string",
							"name": "token",
							"type": "string"
						},
						{
							"indexed": false,
							"internalType": "uint256",
							"name": "createdAt",
							"type": "uint256"
						}
					],
					"name": "TransactionDetailAdded",
					"type": "event"
				},
				{
					"inputs": [
						{
							"internalType": "string[]",
							"name": "_transactionCode",
							"type": "string[]"
						},
						{
							"internalType": "uint256[]",
							"name": "_price",
							"type": "uint256[]"
						},
						{
							"internalType": "string[]",
							"name": "_token",
							"type": "string[]"
						},
						{
							"internalType": "uint256[]",
							"name": "_createdAt",
							"type": "uint256[]"
						}
					],
					"name": "addTransactionDetail",
					"outputs": [],
					"stateMutability": "nonpayable",
					"type": "function"
				},
				{
					"inputs": [],
					"name": "getAllTransactionDetail",
					"outputs": [
						{
							"components": [
								{
									"internalType": "string",
									"name": "transactionCode",
									"type": "string"
								},
								{
									"internalType": "uint256",
									"name": "price",
									"type": "uint256"
								},
								{
									"internalType": "string",
									"name": "token",
									"type": "string"
								},
								{
									"internalType": "uint256",
									"name": "createdAt",
									"type": "uint256"
								}
							],
							"internalType": "struct TransactionDetailContract.TransactionDetail[]",
							"name": "",
							"type": "tuple[]"
						}
					],
					"stateMutability": "view",
					"type": "function"
				},
				{
					"inputs": [
						{
							"internalType": "string",
							"name": "_transactionCode",
							"type": "string"
						}
					],
					"name": "getCountTransactionDetailByTransactionCode",
					"outputs": [
						{
							"internalType": "uint256",
							"name": "",
							"type": "uint256"
						}
					],
					"stateMutability": "view",
					"type": "function"
				},
				{
					"inputs": [
						{
							"internalType": "string",
							"name": "_transactionCode",
							"type": "string"
						}
					],
					"name": "getPriceFromTransactionDetailByTransactionCode",
					"outputs": [
						{
							"internalType": "uint256[]",
							"name": "",
							"type": "uint256[]"
						}
					],
					"stateMutability": "view",
					"type": "function"
				},
				{
					"inputs": [
						{
							"internalType": "string",
							"name": "_transactionCode",
							"type": "string"
						}
					],
					"name": "getTransactionDetailByCode",
					"outputs": [
						{
							"components": [
								{
									"internalType": "string",
									"name": "transactionCode",
									"type": "string"
								},
								{
									"internalType": "uint256",
									"name": "price",
									"type": "uint256"
								},
								{
									"internalType": "string",
									"name": "token",
									"type": "string"
								},
								{
									"internalType": "uint256",
									"name": "createdAt",
									"type": "uint256"
								}
							],
							"internalType": "struct TransactionDetailContract.TransactionDetail",
							"name": "",
							"type": "tuple"
						}
					],
					"stateMutability": "view",
					"type": "function"
				},
				{
					"inputs": [
						{
							"internalType": "string",
							"name": "_transactionCode",
							"type": "string"
						}
					],
					"name": "getTransactionDetailByTransactionCode",
					"outputs": [
						{
							"components": [
								{
									"internalType": "string",
									"name": "transactionCode",
									"type": "string"
								},
								{
									"internalType": "uint256",
									"name": "price",
									"type": "uint256"
								},
								{
									"internalType": "string",
									"name": "token",
									"type": "string"
								},
								{
									"internalType": "uint256",
									"name": "createdAt",
									"type": "uint256"
								}
							],
							"internalType": "struct TransactionDetailContract.TransactionDetail[]",
							"name": "",
							"type": "tuple[]"
						}
					],
					"stateMutability": "view",
					"type": "function"
				},
				{
					"inputs": [],
					"name": "transactionDetailCount",
					"outputs": [
						{
							"internalType": "uint256",
							"name": "",
							"type": "uint256"
						}
					],
					"stateMutability": "view",
					"type": "function"
				},
				{
					"inputs": [
						{
							"internalType": "uint256",
							"name": "",
							"type": "uint256"
						}
					],
					"name": "transactionDetails",
					"outputs": [
						{
							"internalType": "string",
							"name": "transactionCode",
							"type": "string"
						},
						{
							"internalType": "uint256",
							"name": "price",
							"type": "uint256"
						},
						{
							"internalType": "string",
							"name": "token",
							"type": "string"
						},
						{
							"internalType": "uint256",
							"name": "createdAt",
							"type": "uint256"
						}
					],
					"stateMutability": "view",
					"type": "function"
				}
			],
			"devdoc": {
				"kind": "dev",
				"methods": {},
				"version": 1
			},
			"evm": {
				"assembly": "    /* \"contracts/TransactionDetailContract28April.sol\":58:4779  contract TransactionDetailContract {... */\n  mstore(0x40, 0x80)\n  callvalue\n  dup1\n  iszero\n  tag_1\n  jumpi\n  0x00\n  dup1\n  revert\ntag_1:\n  pop\n  dataSize(sub_0)\n  dup1\n  dataOffset(sub_0)\n  0x00\n  codecopy\n  0x00\n  return\nstop\n\nsub_0: assembly {\n        /* \"contracts/TransactionDetailContract28April.sol\":58:4779  contract TransactionDetailContract {... */\n      mstore(0x40, 0x80)\n      callvalue\n      dup1\n      iszero\n      tag_1\n      jumpi\n      0x00\n      dup1\n      revert\n    tag_1:\n      pop\n      jumpi(tag_2, lt(calldatasize, 0x04))\n      shr(0xe0, calldataload(0x00))\n      dup1\n      0x9cd9be93\n      gt\n      tag_11\n      jumpi\n      dup1\n      0x9cd9be93\n      eq\n      tag_7\n      jumpi\n      dup1\n      0xa5773610\n      eq\n      tag_8\n      jumpi\n      dup1\n      0xcf810953\n      eq\n      tag_9\n      jumpi\n      dup1\n      0xf08c6ca8\n      eq\n      tag_10\n      jumpi\n      jump(tag_2)\n    tag_11:\n      dup1\n      0x0786c9a8\n      eq\n      tag_3\n      jumpi\n      dup1\n      0x2ef8750f\n      eq\n      tag_4\n      jumpi\n      dup1\n      0x3f0a54a6\n      eq\n      tag_5\n      jumpi\n      dup1\n      0x6351212e\n      eq\n      tag_6\n      jumpi\n    tag_2:\n      0x00\n      dup1\n      revert\n        /* \"contracts/TransactionDetailContract28April.sol\":2790:3753  function getPriceFromTransactionDetailByTransactionCode(... */\n    tag_3:\n      tag_12\n      0x04\n      dup1\n      calldatasize\n      sub\n      dup2\n      add\n      swap1\n      tag_13\n      swap2\n      swap1\n      tag_14\n      jump\t// in\n    tag_13:\n      tag_15\n      jump\t// in\n    tag_12:\n      mload(0x40)\n      tag_16\n      swap2\n      swap1\n      tag_17\n      jump\t// in\n    tag_16:\n      mload(0x40)\n      dup1\n      swap2\n      sub\n      swap1\n      return\n        /* \"contracts/TransactionDetailContract28April.sol\":1806:2784  function getTransactionDetailByTransactionCode(... */\n    tag_4:\n      tag_18\n      0x04\n      dup1\n      calldatasize\n      sub\n      dup2\n      add\n      swap1\n      tag_19\n      swap2\n      swap1\n      tag_14\n      jump\t// in\n    tag_19:\n      tag_20\n      jump\t// in\n    tag_18:\n      mload(0x40)\n      tag_21\n      swap2\n      swap1\n      tag_22\n      jump\t// in\n    tag_21:\n      mload(0x40)\n      dup1\n      swap2\n      sub\n      swap1\n      return\n        /* \"contracts/TransactionDetailContract28April.sol\":380:440  mapping(uint => TransactionDetail) public transactionDetails */\n    tag_5:\n      tag_23\n      0x04\n      dup1\n      calldatasize\n      sub\n      dup2\n      add\n      swap1\n      tag_24\n      swap2\n      swap1\n      tag_25\n      jump\t// in\n    tag_24:\n      tag_26\n      jump\t// in\n    tag_23:\n      mload(0x40)\n      tag_27\n      swap5\n      swap4\n      swap3\n      swap2\n      swap1\n      tag_28\n      jump\t// in\n    tag_27:\n      mload(0x40)\n      dup1\n      swap2\n      sub\n      swap1\n      return\n        /* \"contracts/TransactionDetailContract28April.sol\":487:1415  function addTransactionDetail(... */\n    tag_6:\n      tag_29\n      0x04\n      dup1\n      calldatasize\n      sub\n      dup2\n      add\n      swap1\n      tag_30\n      swap2\n      swap1\n      tag_31\n      jump\t// in\n    tag_30:\n      tag_32\n      jump\t// in\n    tag_29:\n      stop\n        /* \"contracts/TransactionDetailContract28April.sol\":3759:4253  function getCountTransactionDetailByTransactionCode(... */\n    tag_7:\n      tag_33\n      0x04\n      dup1\n      calldatasize\n      sub\n      dup2\n      add\n      swap1\n      tag_34\n      swap2\n      swap1\n      tag_14\n      jump\t// in\n    tag_34:\n      tag_35\n      jump\t// in\n    tag_33:\n      mload(0x40)\n      tag_36\n      swap2\n      swap1\n      tag_37\n      jump\t// in\n    tag_36:\n      mload(0x40)\n      dup1\n      swap2\n      sub\n      swap1\n      return\n        /* \"contracts/TransactionDetailContract28April.sol\":1421:1800  function getAllTransactionDetail()... */\n    tag_8:\n      tag_38\n      tag_39\n      jump\t// in\n    tag_38:\n      mload(0x40)\n      tag_40\n      swap2\n      swap1\n      tag_22\n      jump\t// in\n    tag_40:\n      mload(0x40)\n      dup1\n      swap2\n      sub\n      swap1\n      return\n        /* \"contracts/TransactionDetailContract28April.sol\":446:480  uint public transactionDetailCount */\n    tag_9:\n      tag_41\n      tag_42\n      jump\t// in\n    tag_41:\n      mload(0x40)\n      tag_43\n      swap2\n      swap1\n      tag_37\n      jump\t// in\n    tag_43:\n      mload(0x40)\n      dup1\n      swap2\n      sub\n      swap1\n      return\n        /* \"contracts/TransactionDetailContract28April.sol\":4259:4777  function getTransactionDetailByCode(... */\n    tag_10:\n      tag_44\n      0x04\n      dup1\n      calldatasize\n      sub\n      dup2\n      add\n      swap1\n      tag_45\n      swap2\n      swap1\n      tag_14\n      jump\t// in\n    tag_45:\n      tag_46\n      jump\t// in\n    tag_44:\n      mload(0x40)\n      tag_47\n      swap2\n      swap1\n      tag_48\n      jump\t// in\n    tag_47:\n      mload(0x40)\n      dup1\n      swap2\n      sub\n      swap1\n      return\n        /* \"contracts/TransactionDetailContract28April.sol\":2790:3753  function getPriceFromTransactionDetailByTransactionCode(... */\n    tag_15:\n        /* \"contracts/TransactionDetailContract28April.sol\":2913:2929  uint256[] memory */\n      0x60\n        /* \"contracts/TransactionDetailContract28April.sol\":2941:2951  uint count */\n      0x00\n        /* \"contracts/TransactionDetailContract28April.sol\":2970:2976  uint i */\n      dup1\n        /* \"contracts/TransactionDetailContract28April.sol\":2979:2980  1 */\n      0x01\n        /* \"contracts/TransactionDetailContract28April.sol\":2970:2980  uint i = 1 */\n      swap1\n      pop\n        /* \"contracts/TransactionDetailContract28April.sol\":2965:3269  for (uint i = 1; i <= transactionDetailCount; i++) {... */\n    tag_50:\n        /* \"contracts/TransactionDetailContract28April.sol\":2987:3009  transactionDetailCount */\n      sload(0x01)\n        /* \"contracts/TransactionDetailContract28April.sol\":2982:2983  i */\n      dup2\n        /* \"contracts/TransactionDetailContract28April.sol\":2982:3009  i <= transactionDetailCount */\n      gt\n        /* \"contracts/TransactionDetailContract28April.sol\":2965:3269  for (uint i = 1; i <= transactionDetailCount; i++) {... */\n      tag_51\n      jumpi\n        /* \"contracts/TransactionDetailContract28April.sol\":3186:3202  _transactionCode */\n      dup4\n        /* \"contracts/TransactionDetailContract28April.sol\":3169:3203  abi.encodePacked(_transactionCode) */\n      add(0x20, mload(0x40))\n      tag_53\n      swap2\n      swap1\n      tag_54\n      jump\t// in\n    tag_53:\n      mload(0x40)\n      0x20\n      dup2\n      dup4\n      sub\n      sub\n      dup2\n      mstore\n      swap1\n      0x40\n      mstore\n        /* \"contracts/TransactionDetailContract28April.sol\":3159:3204  keccak256(abi.encodePacked(_transactionCode)) */\n      dup1\n      mload\n      swap1\n      0x20\n      add\n      keccak256\n        /* \"contracts/TransactionDetailContract28April.sol\":3099:3117  transactionDetails */\n      0x00\n        /* \"contracts/TransactionDetailContract28April.sol\":3099:3120  transactionDetails[i] */\n      dup1\n        /* \"contracts/TransactionDetailContract28April.sol\":3118:3119  i */\n      dup4\n        /* \"contracts/TransactionDetailContract28April.sol\":3099:3120  transactionDetails[i] */\n      dup2\n      mstore\n      0x20\n      add\n      swap1\n      dup2\n      mstore\n      0x20\n      add\n      0x00\n      keccak256\n        /* \"contracts/TransactionDetailContract28April.sol\":3099:3136  transactionDetails[i].transactionCode */\n      0x00\n      add\n        /* \"contracts/TransactionDetailContract28April.sol\":3082:3137  abi.encodePacked(transactionDetails[i].transactionCode) */\n      add(0x20, mload(0x40))\n      tag_55\n      swap2\n      swap1\n      tag_56\n      jump\t// in\n    tag_55:\n      mload(0x40)\n      0x20\n      dup2\n      dup4\n      sub\n      sub\n      dup2\n      mstore\n      swap1\n      0x40\n      mstore\n        /* \"contracts/TransactionDetailContract28April.sol\":3051:3155  keccak256(... */\n      dup1\n      mload\n      swap1\n      0x20\n      add\n      keccak256\n        /* \"contracts/TransactionDetailContract28April.sol\":3051:3204  keccak256(... */\n      sub\n        /* \"contracts/TransactionDetailContract28April.sol\":3030:3259  if (... */\n      tag_57\n      jumpi\n        /* \"contracts/TransactionDetailContract28April.sol\":3237:3244  count++ */\n      dup2\n      dup1\n      tag_58\n      swap1\n      tag_59\n      jump\t// in\n    tag_58:\n      swap3\n      pop\n      pop\n        /* \"contracts/TransactionDetailContract28April.sol\":3030:3259  if (... */\n    tag_57:\n        /* \"contracts/TransactionDetailContract28April.sol\":3011:3014  i++ */\n      dup1\n      dup1\n      tag_60\n      swap1\n      tag_59\n      jump\t// in\n    tag_60:\n      swap2\n      pop\n      pop\n        /* \"contracts/TransactionDetailContract28April.sol\":2965:3269  for (uint i = 1; i <= transactionDetailCount; i++) {... */\n      jump(tag_50)\n    tag_51:\n      pop\n        /* \"contracts/TransactionDetailContract28April.sol\":3279:3302  uint256[] memory prices */\n      0x00\n        /* \"contracts/TransactionDetailContract28April.sol\":3319:3324  count */\n      dup2\n        /* \"contracts/TransactionDetailContract28April.sol\":3305:3325  new uint256[](count) */\n      0xffffffffffffffff\n      dup2\n      gt\n      iszero\n      tag_61\n      jumpi\n      tag_62\n      tag_63\n      jump\t// in\n    tag_62:\n    tag_61:\n      mload(0x40)\n      swap1\n      dup1\n      dup3\n      mstore\n      dup1\n      0x20\n      mul\n      0x20\n      add\n      dup3\n      add\n      0x40\n      mstore\n      dup1\n      iszero\n      tag_64\n      jumpi\n      dup2\n      0x20\n      add\n      0x20\n      dup3\n      mul\n      dup1\n      calldatasize\n      dup4\n      calldatacopy\n      dup1\n      dup3\n      add\n      swap2\n      pop\n      pop\n      swap1\n      pop\n    tag_64:\n      pop\n        /* \"contracts/TransactionDetailContract28April.sol\":3279:3325  uint256[] memory prices = new uint256[](count) */\n      swap1\n      pop\n        /* \"contracts/TransactionDetailContract28April.sol\":3335:3345  uint index */\n      0x00\n        /* \"contracts/TransactionDetailContract28April.sol\":3364:3370  uint i */\n      dup1\n        /* \"contracts/TransactionDetailContract28April.sol\":3373:3374  1 */\n      0x01\n        /* \"contracts/TransactionDetailContract28April.sol\":3364:3374  uint i = 1 */\n      swap1\n      pop\n        /* \"contracts/TransactionDetailContract28April.sol\":3359:3724  for (uint i = 1; i <= transactionDetailCount; i++) {... */\n    tag_65:\n        /* \"contracts/TransactionDetailContract28April.sol\":3381:3403  transactionDetailCount */\n      sload(0x01)\n        /* \"contracts/TransactionDetailContract28April.sol\":3376:3377  i */\n      dup2\n        /* \"contracts/TransactionDetailContract28April.sol\":3376:3403  i <= transactionDetailCount */\n      gt\n        /* \"contracts/TransactionDetailContract28April.sol\":3359:3724  for (uint i = 1; i <= transactionDetailCount; i++) {... */\n      tag_66\n      jumpi\n        /* \"contracts/TransactionDetailContract28April.sol\":3580:3596  _transactionCode */\n      dup6\n        /* \"contracts/TransactionDetailContract28April.sol\":3563:3597  abi.encodePacked(_transactionCode) */\n      add(0x20, mload(0x40))\n      tag_68\n      swap2\n      swap1\n      tag_54\n      jump\t// in\n    tag_68:\n      mload(0x40)\n      0x20\n      dup2\n      dup4\n      sub\n      sub\n      dup2\n      mstore\n      swap1\n      0x40\n      mstore\n        /* \"contracts/TransactionDetailContract28April.sol\":3553:3598  keccak256(abi.encodePacked(_transactionCode)) */\n      dup1\n      mload\n      swap1\n      0x20\n      add\n      keccak256\n        /* \"contracts/TransactionDetailContract28April.sol\":3493:3511  transactionDetails */\n      0x00\n        /* \"contracts/TransactionDetailContract28April.sol\":3493:3514  transactionDetails[i] */\n      dup1\n        /* \"contracts/TransactionDetailContract28April.sol\":3512:3513  i */\n      dup4\n        /* \"contracts/TransactionDetailContract28April.sol\":3493:3514  transactionDetails[i] */\n      dup2\n      mstore\n      0x20\n      add\n      swap1\n      dup2\n      mstore\n      0x20\n      add\n      0x00\n      keccak256\n        /* \"contracts/TransactionDetailContract28April.sol\":3493:3530  transactionDetails[i].transactionCode */\n      0x00\n      add\n        /* \"contracts/TransactionDetailContract28April.sol\":3476:3531  abi.encodePacked(transactionDetails[i].transactionCode) */\n      add(0x20, mload(0x40))\n      tag_69\n      swap2\n      swap1\n      tag_56\n      jump\t// in\n    tag_69:\n      mload(0x40)\n      0x20\n      dup2\n      dup4\n      sub\n      sub\n      dup2\n      mstore\n      swap1\n      0x40\n      mstore\n        /* \"contracts/TransactionDetailContract28April.sol\":3445:3549  keccak256(... */\n      dup1\n      mload\n      swap1\n      0x20\n      add\n      keccak256\n        /* \"contracts/TransactionDetailContract28April.sol\":3445:3598  keccak256(... */\n      sub\n        /* \"contracts/TransactionDetailContract28April.sol\":3424:3714  if (... */\n      tag_70\n      jumpi\n        /* \"contracts/TransactionDetailContract28April.sol\":3647:3665  transactionDetails */\n      0x00\n        /* \"contracts/TransactionDetailContract28April.sol\":3647:3668  transactionDetails[i] */\n      dup1\n        /* \"contracts/TransactionDetailContract28April.sol\":3666:3667  i */\n      dup3\n        /* \"contracts/TransactionDetailContract28April.sol\":3647:3668  transactionDetails[i] */\n      dup2\n      mstore\n      0x20\n      add\n      swap1\n      dup2\n      mstore\n      0x20\n      add\n      0x00\n      keccak256\n        /* \"contracts/TransactionDetailContract28April.sol\":3647:3674  transactionDetails[i].price */\n      0x01\n      add\n      sload\n        /* \"contracts/TransactionDetailContract28April.sol\":3631:3637  prices */\n      dup4\n        /* \"contracts/TransactionDetailContract28April.sol\":3638:3643  index */\n      dup4\n        /* \"contracts/TransactionDetailContract28April.sol\":3631:3644  prices[index] */\n      dup2\n      mload\n      dup2\n      lt\n      tag_71\n      jumpi\n      tag_72\n      tag_73\n      jump\t// in\n    tag_72:\n    tag_71:\n      0x20\n      mul\n      0x20\n      add\n      add\n        /* \"contracts/TransactionDetailContract28April.sol\":3631:3674  prices[index] = transactionDetails[i].price */\n      dup2\n      dup2\n      mstore\n      pop\n      pop\n        /* \"contracts/TransactionDetailContract28April.sol\":3692:3699  index++ */\n      dup2\n      dup1\n      tag_74\n      swap1\n      tag_59\n      jump\t// in\n    tag_74:\n      swap3\n      pop\n      pop\n        /* \"contracts/TransactionDetailContract28April.sol\":3424:3714  if (... */\n    tag_70:\n        /* \"contracts/TransactionDetailContract28April.sol\":3405:3408  i++ */\n      dup1\n      dup1\n      tag_75\n      swap1\n      tag_59\n      jump\t// in\n    tag_75:\n      swap2\n      pop\n      pop\n        /* \"contracts/TransactionDetailContract28April.sol\":3359:3724  for (uint i = 1; i <= transactionDetailCount; i++) {... */\n      jump(tag_65)\n    tag_66:\n      pop\n        /* \"contracts/TransactionDetailContract28April.sol\":3740:3746  prices */\n      dup2\n        /* \"contracts/TransactionDetailContract28April.sol\":3733:3746  return prices */\n      swap4\n      pop\n      pop\n      pop\n      pop\n        /* \"contracts/TransactionDetailContract28April.sol\":2790:3753  function getPriceFromTransactionDetailByTransactionCode(... */\n      swap2\n      swap1\n      pop\n      jump\t// out\n        /* \"contracts/TransactionDetailContract28April.sol\":1806:2784  function getTransactionDetailByTransactionCode(... */\n    tag_20:\n        /* \"contracts/TransactionDetailContract28April.sol\":1920:1946  TransactionDetail[] memory */\n      0x60\n        /* \"contracts/TransactionDetailContract28April.sol\":1958:1968  uint count */\n      0x00\n        /* \"contracts/TransactionDetailContract28April.sol\":1987:1993  uint i */\n      dup1\n        /* \"contracts/TransactionDetailContract28April.sol\":1996:1997  1 */\n      0x01\n        /* \"contracts/TransactionDetailContract28April.sol\":1987:1997  uint i = 1 */\n      swap1\n      pop\n        /* \"contracts/TransactionDetailContract28April.sol\":1982:2286  for (uint i = 1; i <= transactionDetailCount; i++) {... */\n    tag_77:\n        /* \"contracts/TransactionDetailContract28April.sol\":2004:2026  transactionDetailCount */\n      sload(0x01)\n        /* \"contracts/TransactionDetailContract28April.sol\":1999:2000  i */\n      dup2\n        /* \"contracts/TransactionDetailContract28April.sol\":1999:2026  i <= transactionDetailCount */\n      gt\n        /* \"contracts/TransactionDetailContract28April.sol\":1982:2286  for (uint i = 1; i <= transactionDetailCount; i++) {... */\n      tag_78\n      jumpi\n        /* \"contracts/TransactionDetailContract28April.sol\":2203:2219  _transactionCode */\n      dup4\n        /* \"contracts/TransactionDetailContract28April.sol\":2186:2220  abi.encodePacked(_transactionCode) */\n      add(0x20, mload(0x40))\n      tag_80\n      swap2\n      swap1\n      tag_54\n      jump\t// in\n    tag_80:\n      mload(0x40)\n      0x20\n      dup2\n      dup4\n      sub\n      sub\n      dup2\n      mstore\n      swap1\n      0x40\n      mstore\n        /* \"contracts/TransactionDetailContract28April.sol\":2176:2221  keccak256(abi.encodePacked(_transactionCode)) */\n      dup1\n      mload\n      swap1\n      0x20\n      add\n      keccak256\n        /* \"contracts/TransactionDetailContract28April.sol\":2116:2134  transactionDetails */\n      0x00\n        /* \"contracts/TransactionDetailContract28April.sol\":2116:2137  transactionDetails[i] */\n      dup1\n        /* \"contracts/TransactionDetailContract28April.sol\":2135:2136  i */\n      dup4\n        /* \"contracts/TransactionDetailContract28April.sol\":2116:2137  transactionDetails[i] */\n      dup2\n      mstore\n      0x20\n      add\n      swap1\n      dup2\n      mstore\n      0x20\n      add\n      0x00\n      keccak256\n        /* \"contracts/TransactionDetailContract28April.sol\":2116:2153  transactionDetails[i].transactionCode */\n      0x00\n      add\n        /* \"contracts/TransactionDetailContract28April.sol\":2099:2154  abi.encodePacked(transactionDetails[i].transactionCode) */\n      add(0x20, mload(0x40))\n      tag_81\n      swap2\n      swap1\n      tag_56\n      jump\t// in\n    tag_81:\n      mload(0x40)\n      0x20\n      dup2\n      dup4\n      sub\n      sub\n      dup2\n      mstore\n      swap1\n      0x40\n      mstore\n        /* \"contracts/TransactionDetailContract28April.sol\":2068:2172  keccak256(... */\n      dup1\n      mload\n      swap1\n      0x20\n      add\n      keccak256\n        /* \"contracts/TransactionDetailContract28April.sol\":2068:2221  keccak256(... */\n      sub\n        /* \"contracts/TransactionDetailContract28April.sol\":2047:2276  if (... */\n      tag_82\n      jumpi\n        /* \"contracts/TransactionDetailContract28April.sol\":2254:2261  count++ */\n      dup2\n      dup1\n      tag_83\n      swap1\n      tag_59\n      jump\t// in\n    tag_83:\n      swap3\n      pop\n      pop\n        /* \"contracts/TransactionDetailContract28April.sol\":2047:2276  if (... */\n    tag_82:\n        /* \"contracts/TransactionDetailContract28April.sol\":2028:2031  i++ */\n      dup1\n      dup1\n      tag_84\n      swap1\n      tag_59\n      jump\t// in\n    tag_84:\n      swap2\n      pop\n      pop\n        /* \"contracts/TransactionDetailContract28April.sol\":1982:2286  for (uint i = 1; i <= transactionDetailCount; i++) {... */\n      jump(tag_77)\n    tag_78:\n      pop\n        /* \"contracts/TransactionDetailContract28April.sol\":2296:2329  TransactionDetail[] memory result */\n      0x00\n        /* \"contracts/TransactionDetailContract28April.sol\":2356:2361  count */\n      dup2\n        /* \"contracts/TransactionDetailContract28April.sol\":2332:2362  new TransactionDetail[](count) */\n      0xffffffffffffffff\n      dup2\n      gt\n      iszero\n      tag_85\n      jumpi\n      tag_86\n      tag_63\n      jump\t// in\n    tag_86:\n    tag_85:\n      mload(0x40)\n      swap1\n      dup1\n      dup3\n      mstore\n      dup1\n      0x20\n      mul\n      0x20\n      add\n      dup3\n      add\n      0x40\n      mstore\n      dup1\n      iszero\n      tag_87\n      jumpi\n      dup2\n      0x20\n      add\n    tag_88:\n      tag_89\n      tag_90\n      jump\t// in\n    tag_89:\n      dup2\n      mstore\n      0x20\n      add\n      swap1\n      0x01\n      swap1\n      sub\n      swap1\n      dup2\n      tag_88\n      jumpi\n      swap1\n      pop\n    tag_87:\n      pop\n        /* \"contracts/TransactionDetailContract28April.sol\":2296:2362  TransactionDetail[] memory result = new TransactionDetail[](count) */\n      swap1\n      pop\n        /* \"contracts/TransactionDetailContract28April.sol\":2372:2382  uint index */\n      0x00\n        /* \"contracts/TransactionDetailContract28April.sol\":2401:2407  uint i */\n      dup1\n        /* \"contracts/TransactionDetailContract28April.sol\":2410:2411  1 */\n      0x01\n        /* \"contracts/TransactionDetailContract28April.sol\":2401:2411  uint i = 1 */\n      swap1\n      pop\n        /* \"contracts/TransactionDetailContract28April.sol\":2396:2755  for (uint i = 1; i <= transactionDetailCount; i++) {... */\n    tag_91:\n        /* \"contracts/TransactionDetailContract28April.sol\":2418:2440  transactionDetailCount */\n      sload(0x01)\n        /* \"contracts/TransactionDetailContract28April.sol\":2413:2414  i */\n      dup2\n        /* \"contracts/TransactionDetailContract28April.sol\":2413:2440  i <= transactionDetailCount */\n      gt\n        /* \"contracts/TransactionDetailContract28April.sol\":2396:2755  for (uint i = 1; i <= transactionDetailCount; i++) {... */\n      tag_92\n      jumpi\n        /* \"contracts/TransactionDetailContract28April.sol\":2617:2633  _transactionCode */\n      dup6\n        /* \"contracts/TransactionDetailContract28April.sol\":2600:2634  abi.encodePacked(_transactionCode) */\n      add(0x20, mload(0x40))\n      tag_94\n      swap2\n      swap1\n      tag_54\n      jump\t// in\n    tag_94:\n      mload(0x40)\n      0x20\n      dup2\n      dup4\n      sub\n      sub\n      dup2\n      mstore\n      swap1\n      0x40\n      mstore\n        /* \"contracts/TransactionDetailContract28April.sol\":2590:2635  keccak256(abi.encodePacked(_transactionCode)) */\n      dup1\n      mload\n      swap1\n      0x20\n      add\n      keccak256\n        /* \"contracts/TransactionDetailContract28April.sol\":2530:2548  transactionDetails */\n      0x00\n        /* \"contracts/TransactionDetailContract28April.sol\":2530:2551  transactionDetails[i] */\n      dup1\n        /* \"contracts/TransactionDetailContract28April.sol\":2549:2550  i */\n      dup4\n        /* \"contracts/TransactionDetailContract28April.sol\":2530:2551  transactionDetails[i] */\n      dup2\n      mstore\n      0x20\n      add\n      swap1\n      dup2\n      mstore\n      0x20\n      add\n      0x00\n      keccak256\n        /* \"contracts/TransactionDetailContract28April.sol\":2530:2567  transactionDetails[i].transactionCode */\n      0x00\n      add\n        /* \"contracts/TransactionDetailContract28April.sol\":2513:2568  abi.encodePacked(transactionDetails[i].transactionCode) */\n      add(0x20, mload(0x40))\n      tag_95\n      swap2\n      swap1\n      tag_56\n      jump\t// in\n    tag_95:\n      mload(0x40)\n      0x20\n      dup2\n      dup4\n      sub\n      sub\n      dup2\n      mstore\n      swap1\n      0x40\n      mstore\n        /* \"contracts/TransactionDetailContract28April.sol\":2482:2586  keccak256(... */\n      dup1\n      mload\n      swap1\n      0x20\n      add\n      keccak256\n        /* \"contracts/TransactionDetailContract28April.sol\":2482:2635  keccak256(... */\n      sub\n        /* \"contracts/TransactionDetailContract28April.sol\":2461:2745  if (... */\n      tag_96\n      jumpi\n        /* \"contracts/TransactionDetailContract28April.sol\":2684:2702  transactionDetails */\n      0x00\n        /* \"contracts/TransactionDetailContract28April.sol\":2684:2705  transactionDetails[i] */\n      dup1\n        /* \"contracts/TransactionDetailContract28April.sol\":2703:2704  i */\n      dup3\n        /* \"contracts/TransactionDetailContract28April.sol\":2684:2705  transactionDetails[i] */\n      dup2\n      mstore\n      0x20\n      add\n      swap1\n      dup2\n      mstore\n      0x20\n      add\n      0x00\n      keccak256\n        /* \"contracts/TransactionDetailContract28April.sol\":2668:2705  result[index] = transactionDetails[i] */\n      mload(0x40)\n      dup1\n      0x80\n      add\n      0x40\n      mstore\n      swap1\n      dup2\n      0x00\n      dup3\n      add\n      dup1\n      sload\n      tag_97\n      swap1\n      tag_98\n      jump\t// in\n    tag_97:\n      dup1\n      0x1f\n      add\n      0x20\n      dup1\n      swap2\n      div\n      mul\n      0x20\n      add\n      mload(0x40)\n      swap1\n      dup2\n      add\n      0x40\n      mstore\n      dup1\n      swap3\n      swap2\n      swap1\n      dup2\n      dup2\n      mstore\n      0x20\n      add\n      dup3\n      dup1\n      sload\n      tag_99\n      swap1\n      tag_98\n      jump\t// in\n    tag_99:\n      dup1\n      iszero\n      tag_100\n      jumpi\n      dup1\n      0x1f\n      lt\n      tag_101\n      jumpi\n      0x0100\n      dup1\n      dup4\n      sload\n      div\n      mul\n      dup4\n      mstore\n      swap2\n      0x20\n      add\n      swap2\n      jump(tag_100)\n    tag_101:\n      dup3\n      add\n      swap2\n      swap1\n      0x00\n      mstore\n      keccak256(0x00, 0x20)\n      swap1\n    tag_102:\n      dup2\n      sload\n      dup2\n      mstore\n      swap1\n      0x01\n      add\n      swap1\n      0x20\n      add\n      dup1\n      dup4\n      gt\n      tag_102\n      jumpi\n      dup3\n      swap1\n      sub\n      0x1f\n      and\n      dup3\n      add\n      swap2\n    tag_100:\n      pop\n      pop\n      pop\n      pop\n      pop\n      dup2\n      mstore\n      0x20\n      add\n      0x01\n      dup3\n      add\n      sload\n      dup2\n      mstore\n      0x20\n      add\n      0x02\n      dup3\n      add\n      dup1\n      sload\n      tag_103\n      swap1\n      tag_98\n      jump\t// in\n    tag_103:\n      dup1\n      0x1f\n      add\n      0x20\n      dup1\n      swap2\n      div\n      mul\n      0x20\n      add\n      mload(0x40)\n      swap1\n      dup2\n      add\n      0x40\n      mstore\n      dup1\n      swap3\n      swap2\n      swap1\n      dup2\n      dup2\n      mstore\n      0x20\n      add\n      dup3\n      dup1\n      sload\n      tag_104\n      swap1\n      tag_98\n      jump\t// in\n    tag_104:\n      dup1\n      iszero\n      tag_105\n      jumpi\n      dup1\n      0x1f\n      lt\n      tag_106\n      jumpi\n      0x0100\n      dup1\n      dup4\n      sload\n      div\n      mul\n      dup4\n      mstore\n      swap2\n      0x20\n      add\n      swap2\n      jump(tag_105)\n    tag_106:\n      dup3\n      add\n      swap2\n      swap1\n      0x00\n      mstore\n      keccak256(0x00, 0x20)\n      swap1\n    tag_107:\n      dup2\n      sload\n      dup2\n      mstore\n      swap1\n      0x01\n      add\n      swap1\n      0x20\n      add\n      dup1\n      dup4\n      gt\n      tag_107\n      jumpi\n      dup3\n      swap1\n      sub\n      0x1f\n      and\n      dup3\n      add\n      swap2\n    tag_105:\n      pop\n      pop\n      pop\n      pop\n      pop\n      dup2\n      mstore\n      0x20\n      add\n      0x03\n      dup3\n      add\n      sload\n      dup2\n      mstore\n      pop\n      pop\n        /* \"contracts/TransactionDetailContract28April.sol\":2668:2674  result */\n      dup4\n        /* \"contracts/TransactionDetailContract28April.sol\":2675:2680  index */\n      dup4\n        /* \"contracts/TransactionDetailContract28April.sol\":2668:2681  result[index] */\n      dup2\n      mload\n      dup2\n      lt\n      tag_108\n      jumpi\n      tag_109\n      tag_73\n      jump\t// in\n    tag_109:\n    tag_108:\n      0x20\n      mul\n      0x20\n      add\n      add\n        /* \"contracts/TransactionDetailContract28April.sol\":2668:2705  result[index] = transactionDetails[i] */\n      dup2\n      swap1\n      mstore\n      pop\n        /* \"contracts/TransactionDetailContract28April.sol\":2723:2730  index++ */\n      dup2\n      dup1\n      tag_110\n      swap1\n      tag_59\n      jump\t// in\n    tag_110:\n      swap3\n      pop\n      pop\n        /* \"contracts/TransactionDetailContract28April.sol\":2461:2745  if (... */\n    tag_96:\n        /* \"contracts/TransactionDetailContract28April.sol\":2442:2445  i++ */\n      dup1\n      dup1\n      tag_111\n      swap1\n      tag_59\n      jump\t// in\n    tag_111:\n      swap2\n      pop\n      pop\n        /* \"contracts/TransactionDetailContract28April.sol\":2396:2755  for (uint i = 1; i <= transactionDetailCount; i++) {... */\n      jump(tag_91)\n    tag_92:\n      pop\n        /* \"contracts/TransactionDetailContract28April.sol\":2771:2777  result */\n      dup2\n        /* \"contracts/TransactionDetailContract28April.sol\":2764:2777  return result */\n      swap4\n      pop\n      pop\n      pop\n      pop\n        /* \"contracts/TransactionDetailContract28April.sol\":1806:2784  function getTransactionDetailByTransactionCode(... */\n      swap2\n      swap1\n      pop\n      jump\t// out\n        /* \"contracts/TransactionDetailContract28April.sol\":380:440  mapping(uint => TransactionDetail) public transactionDetails */\n    tag_26:\n      mstore(0x20, 0x00)\n      dup1\n      0x00\n      mstore\n      keccak256(0x00, 0x40)\n      0x00\n      swap2\n      pop\n      swap1\n      pop\n      dup1\n      0x00\n      add\n      dup1\n      sload\n      tag_112\n      swap1\n      tag_98\n      jump\t// in\n    tag_112:\n      dup1\n      0x1f\n      add\n      0x20\n      dup1\n      swap2\n      div\n      mul\n      0x20\n      add\n      mload(0x40)\n      swap1\n      dup2\n      add\n      0x40\n      mstore\n      dup1\n      swap3\n      swap2\n      swap1\n      dup2\n      dup2\n      mstore\n      0x20\n      add\n      dup3\n      dup1\n      sload\n      tag_113\n      swap1\n      tag_98\n      jump\t// in\n    tag_113:\n      dup1\n      iszero\n      tag_114\n      jumpi\n      dup1\n      0x1f\n      lt\n      tag_115\n      jumpi\n      0x0100\n      dup1\n      dup4\n      sload\n      div\n      mul\n      dup4\n      mstore\n      swap2\n      0x20\n      add\n      swap2\n      jump(tag_114)\n    tag_115:\n      dup3\n      add\n      swap2\n      swap1\n      0x00\n      mstore\n      keccak256(0x00, 0x20)\n      swap1\n    tag_116:\n      dup2\n      sload\n      dup2\n      mstore\n      swap1\n      0x01\n      add\n      swap1\n      0x20\n      add\n      dup1\n      dup4\n      gt\n      tag_116\n      jumpi\n      dup3\n      swap1\n      sub\n      0x1f\n      and\n      dup3\n      add\n      swap2\n    tag_114:\n      pop\n      pop\n      pop\n      pop\n      pop\n      swap1\n      dup1\n      0x01\n      add\n      sload\n      swap1\n      dup1\n      0x02\n      add\n      dup1\n      sload\n      tag_117\n      swap1\n      tag_98\n      jump\t// in\n    tag_117:\n      dup1\n      0x1f\n      add\n      0x20\n      dup1\n      swap2\n      div\n      mul\n      0x20\n      add\n      mload(0x40)\n      swap1\n      dup2\n      add\n      0x40\n      mstore\n      dup1\n      swap3\n      swap2\n      swap1\n      dup2\n      dup2\n      mstore\n      0x20\n      add\n      dup3\n      dup1\n      sload\n      tag_118\n      swap1\n      tag_98\n      jump\t// in\n    tag_118:\n      dup1\n      iszero\n      tag_119\n      jumpi\n      dup1\n      0x1f\n      lt\n      tag_120\n      jumpi\n      0x0100\n      dup1\n      dup4\n      sload\n      div\n      mul\n      dup4\n      mstore\n      swap2\n      0x20\n      add\n      swap2\n      jump(tag_119)\n    tag_120:\n      dup3\n      add\n      swap2\n      swap1\n      0x00\n      mstore\n      keccak256(0x00, 0x20)\n      swap1\n    tag_121:\n      dup2\n      sload\n      dup2\n      mstore\n      swap1\n      0x01\n      add\n      swap1\n      0x20\n      add\n      dup1\n      dup4\n      gt\n      tag_121\n      jumpi\n      dup3\n      swap1\n      sub\n      0x1f\n      and\n      dup3\n      add\n      swap2\n    tag_119:\n      pop\n      pop\n      pop\n      pop\n      pop\n      swap1\n      dup1\n      0x03\n      add\n      sload\n      swap1\n      pop\n      dup5\n      jump\t// out\n        /* \"contracts/TransactionDetailContract28April.sol\":487:1415  function addTransactionDetail(... */\n    tag_32:\n        /* \"contracts/TransactionDetailContract28April.sol\":729:735  _price */\n      dup3\n        /* \"contracts/TransactionDetailContract28April.sol\":729:742  _price.length */\n      mload\n        /* \"contracts/TransactionDetailContract28April.sol\":702:718  _transactionCode */\n      dup5\n        /* \"contracts/TransactionDetailContract28April.sol\":702:725  _transactionCode.length */\n      mload\n        /* \"contracts/TransactionDetailContract28April.sol\":702:742  _transactionCode.length == _price.length */\n      eq\n        /* \"contracts/TransactionDetailContract28April.sol\":702:792  _transactionCode.length == _price.length &&... */\n      dup1\n      iszero\n      tag_123\n      jumpi\n      pop\n        /* \"contracts/TransactionDetailContract28April.sol\":779:785  _token */\n      dup2\n        /* \"contracts/TransactionDetailContract28April.sol\":779:792  _token.length */\n      mload\n        /* \"contracts/TransactionDetailContract28April.sol\":762:768  _price */\n      dup4\n        /* \"contracts/TransactionDetailContract28April.sol\":762:775  _price.length */\n      mload\n        /* \"contracts/TransactionDetailContract28April.sol\":762:792  _price.length == _token.length */\n      eq\n        /* \"contracts/TransactionDetailContract28April.sol\":702:792  _transactionCode.length == _price.length &&... */\n    tag_123:\n        /* \"contracts/TransactionDetailContract28April.sol\":702:846  _transactionCode.length == _price.length &&... */\n      dup1\n      iszero\n      tag_124\n      jumpi\n      pop\n        /* \"contracts/TransactionDetailContract28April.sol\":829:839  _createdAt */\n      dup1\n        /* \"contracts/TransactionDetailContract28April.sol\":829:846  _createdAt.length */\n      mload\n        /* \"contracts/TransactionDetailContract28April.sol\":812:818  _token */\n      dup3\n        /* \"contracts/TransactionDetailContract28April.sol\":812:825  _token.length */\n      mload\n        /* \"contracts/TransactionDetailContract28April.sol\":812:846  _token.length == _createdAt.length */\n      eq\n        /* \"contracts/TransactionDetailContract28April.sol\":702:846  _transactionCode.length == _price.length &&... */\n    tag_124:\n        /* \"contracts/TransactionDetailContract28April.sol\":681:908  require(... */\n      tag_125\n      jumpi\n      mload(0x40)\n      0x08c379a000000000000000000000000000000000000000000000000000000000\n      dup2\n      mstore\n      0x04\n      add\n      tag_126\n      swap1\n      tag_127\n      jump\t// in\n    tag_126:\n      mload(0x40)\n      dup1\n      swap2\n      sub\n      swap1\n      revert\n    tag_125:\n        /* \"contracts/TransactionDetailContract28April.sol\":924:930  uint i */\n      0x00\n        /* \"contracts/TransactionDetailContract28April.sol\":919:1409  for (uint i = 0; i < _transactionCode.length; i++) {... */\n    tag_128:\n        /* \"contracts/TransactionDetailContract28April.sol\":940:956  _transactionCode */\n      dup5\n        /* \"contracts/TransactionDetailContract28April.sol\":940:963  _transactionCode.length */\n      mload\n        /* \"contracts/TransactionDetailContract28April.sol\":936:937  i */\n      dup2\n        /* \"contracts/TransactionDetailContract28April.sol\":936:963  i < _transactionCode.length */\n      lt\n        /* \"contracts/TransactionDetailContract28April.sol\":919:1409  for (uint i = 0; i < _transactionCode.length; i++) {... */\n      iszero\n      tag_129\n      jumpi\n        /* \"contracts/TransactionDetailContract28April.sol\":984:1006  transactionDetailCount */\n      0x01\n      0x00\n        /* \"contracts/TransactionDetailContract28April.sol\":984:1008  transactionDetailCount++ */\n      dup2\n      sload\n      dup1\n      swap3\n      swap2\n      swap1\n      tag_131\n      swap1\n      tag_59\n      jump\t// in\n    tag_131:\n      swap2\n      swap1\n      pop\n      sstore\n      pop\n        /* \"contracts/TransactionDetailContract28April.sol\":1067:1220  TransactionDetail(... */\n      mload(0x40)\n      dup1\n      0x80\n      add\n      0x40\n      mstore\n      dup1\n        /* \"contracts/TransactionDetailContract28April.sol\":1102:1118  _transactionCode */\n      dup7\n        /* \"contracts/TransactionDetailContract28April.sol\":1119:1120  i */\n      dup4\n        /* \"contracts/TransactionDetailContract28April.sol\":1102:1121  _transactionCode[i] */\n      dup2\n      mload\n      dup2\n      lt\n      tag_132\n      jumpi\n      tag_133\n      tag_73\n      jump\t// in\n    tag_133:\n    tag_132:\n      0x20\n      mul\n      0x20\n      add\n      add\n      mload\n        /* \"contracts/TransactionDetailContract28April.sol\":1067:1220  TransactionDetail(... */\n      dup2\n      mstore\n      0x20\n      add\n        /* \"contracts/TransactionDetailContract28April.sol\":1139:1145  _price */\n      dup6\n        /* \"contracts/TransactionDetailContract28April.sol\":1146:1147  i */\n      dup4\n        /* \"contracts/TransactionDetailContract28April.sol\":1139:1148  _price[i] */\n      dup2\n      mload\n      dup2\n      lt\n      tag_134\n      jumpi\n      tag_135\n      tag_73\n      jump\t// in\n    tag_135:\n    tag_134:\n      0x20\n      mul\n      0x20\n      add\n      add\n      mload\n        /* \"contracts/TransactionDetailContract28April.sol\":1067:1220  TransactionDetail(... */\n      dup2\n      mstore\n      0x20\n      add\n        /* \"contracts/TransactionDetailContract28April.sol\":1166:1172  _token */\n      dup5\n        /* \"contracts/TransactionDetailContract28April.sol\":1173:1174  i */\n      dup4\n        /* \"contracts/TransactionDetailContract28April.sol\":1166:1175  _token[i] */\n      dup2\n      mload\n      dup2\n      lt\n      tag_136\n      jumpi\n      tag_137\n      tag_73\n      jump\t// in\n    tag_137:\n    tag_136:\n      0x20\n      mul\n      0x20\n      add\n      add\n      mload\n        /* \"contracts/TransactionDetailContract28April.sol\":1067:1220  TransactionDetail(... */\n      dup2\n      mstore\n      0x20\n      add\n        /* \"contracts/TransactionDetailContract28April.sol\":1193:1203  _createdAt */\n      dup4\n        /* \"contracts/TransactionDetailContract28April.sol\":1204:1205  i */\n      dup4\n        /* \"contracts/TransactionDetailContract28April.sol\":1193:1206  _createdAt[i] */\n      dup2\n      mload\n      dup2\n      lt\n      tag_138\n      jumpi\n      tag_139\n      tag_73\n      jump\t// in\n    tag_139:\n    tag_138:\n      0x20\n      mul\n      0x20\n      add\n      add\n      mload\n        /* \"contracts/TransactionDetailContract28April.sol\":1067:1220  TransactionDetail(... */\n      dup2\n      mstore\n      pop\n        /* \"contracts/TransactionDetailContract28April.sol\":1022:1040  transactionDetails */\n      0x00\n        /* \"contracts/TransactionDetailContract28April.sol\":1022:1064  transactionDetails[transactionDetailCount] */\n      dup1\n        /* \"contracts/TransactionDetailContract28April.sol\":1041:1063  transactionDetailCount */\n      sload(0x01)\n        /* \"contracts/TransactionDetailContract28April.sol\":1022:1064  transactionDetails[transactionDetailCount] */\n      dup2\n      mstore\n      0x20\n      add\n      swap1\n      dup2\n      mstore\n      0x20\n      add\n      0x00\n      keccak256\n        /* \"contracts/TransactionDetailContract28April.sol\":1022:1220  transactionDetails[transactionDetailCount] = TransactionDetail(... */\n      0x00\n      dup3\n      add\n      mload\n      dup2\n      0x00\n      add\n      swap1\n      dup2\n      tag_140\n      swap2\n      swap1\n      tag_141\n      jump\t// in\n    tag_140:\n      pop\n      0x20\n      dup3\n      add\n      mload\n      dup2\n      0x01\n      add\n      sstore\n      0x40\n      dup3\n      add\n      mload\n      dup2\n      0x02\n      add\n      swap1\n      dup2\n      tag_142\n      swap2\n      swap1\n      tag_141\n      jump\t// in\n    tag_142:\n      pop\n      0x60\n      dup3\n      add\n      mload\n      dup2\n      0x03\n      add\n      sstore\n      swap1\n      pop\n      pop\n        /* \"contracts/TransactionDetailContract28April.sol\":1240:1398  TransactionDetailAdded(... */\n      0xc5398f105799e97af1605dbaeed442f0e9b239fc622c4307746a08d7bf7db677\n        /* \"contracts/TransactionDetailContract28April.sol\":1280:1296  _transactionCode */\n      dup6\n        /* \"contracts/TransactionDetailContract28April.sol\":1297:1298  i */\n      dup3\n        /* \"contracts/TransactionDetailContract28April.sol\":1280:1299  _transactionCode[i] */\n      dup2\n      mload\n      dup2\n      lt\n      tag_143\n      jumpi\n      tag_144\n      tag_73\n      jump\t// in\n    tag_144:\n    tag_143:\n      0x20\n      mul\n      0x20\n      add\n      add\n      mload\n        /* \"contracts/TransactionDetailContract28April.sol\":1317:1323  _price */\n      dup6\n        /* \"contracts/TransactionDetailContract28April.sol\":1324:1325  i */\n      dup4\n        /* \"contracts/TransactionDetailContract28April.sol\":1317:1326  _price[i] */\n      dup2\n      mload\n      dup2\n      lt\n      tag_145\n      jumpi\n      tag_146\n      tag_73\n      jump\t// in\n    tag_146:\n    tag_145:\n      0x20\n      mul\n      0x20\n      add\n      add\n      mload\n        /* \"contracts/TransactionDetailContract28April.sol\":1344:1350  _token */\n      dup6\n        /* \"contracts/TransactionDetailContract28April.sol\":1351:1352  i */\n      dup5\n        /* \"contracts/TransactionDetailContract28April.sol\":1344:1353  _token[i] */\n      dup2\n      mload\n      dup2\n      lt\n      tag_147\n      jumpi\n      tag_148\n      tag_73\n      jump\t// in\n    tag_148:\n    tag_147:\n      0x20\n      mul\n      0x20\n      add\n      add\n      mload\n        /* \"contracts/TransactionDetailContract28April.sol\":1371:1381  _createdAt */\n      dup6\n        /* \"contracts/TransactionDetailContract28April.sol\":1382:1383  i */\n      dup6\n        /* \"contracts/TransactionDetailContract28April.sol\":1371:1384  _createdAt[i] */\n      dup2\n      mload\n      dup2\n      lt\n      tag_149\n      jumpi\n      tag_150\n      tag_73\n      jump\t// in\n    tag_150:\n    tag_149:\n      0x20\n      mul\n      0x20\n      add\n      add\n      mload\n        /* \"contracts/TransactionDetailContract28April.sol\":1240:1398  TransactionDetailAdded(... */\n      mload(0x40)\n      tag_151\n      swap5\n      swap4\n      swap3\n      swap2\n      swap1\n      tag_28\n      jump\t// in\n    tag_151:\n      mload(0x40)\n      dup1\n      swap2\n      sub\n      swap1\n      log1\n        /* \"contracts/TransactionDetailContract28April.sol\":965:968  i++ */\n      dup1\n      dup1\n      tag_152\n      swap1\n      tag_59\n      jump\t// in\n    tag_152:\n      swap2\n      pop\n      pop\n        /* \"contracts/TransactionDetailContract28April.sol\":919:1409  for (uint i = 0; i < _transactionCode.length; i++) {... */\n      jump(tag_128)\n    tag_129:\n      pop\n        /* \"contracts/TransactionDetailContract28April.sol\":487:1415  function addTransactionDetail(... */\n      pop\n      pop\n      pop\n      pop\n      jump\t// out\n        /* \"contracts/TransactionDetailContract28April.sol\":3759:4253  function getCountTransactionDetailByTransactionCode(... */\n    tag_35:\n        /* \"contracts/TransactionDetailContract28April.sol\":3878:3885  uint256 */\n      0x00\n        /* \"contracts/TransactionDetailContract28April.sol\":3897:3907  uint count */\n      dup1\n        /* \"contracts/TransactionDetailContract28April.sol\":3910:3911  0 */\n      0x00\n        /* \"contracts/TransactionDetailContract28April.sol\":3897:3911  uint count = 0 */\n      swap1\n      pop\n        /* \"contracts/TransactionDetailContract28April.sol\":3926:3932  uint i */\n      0x00\n        /* \"contracts/TransactionDetailContract28April.sol\":3935:3936  1 */\n      0x01\n        /* \"contracts/TransactionDetailContract28April.sol\":3926:3936  uint i = 1 */\n      swap1\n      pop\n        /* \"contracts/TransactionDetailContract28April.sol\":3921:4225  for (uint i = 1; i <= transactionDetailCount; i++) {... */\n    tag_154:\n        /* \"contracts/TransactionDetailContract28April.sol\":3943:3965  transactionDetailCount */\n      sload(0x01)\n        /* \"contracts/TransactionDetailContract28April.sol\":3938:3939  i */\n      dup2\n        /* \"contracts/TransactionDetailContract28April.sol\":3938:3965  i <= transactionDetailCount */\n      gt\n        /* \"contracts/TransactionDetailContract28April.sol\":3921:4225  for (uint i = 1; i <= transactionDetailCount; i++) {... */\n      tag_155\n      jumpi\n        /* \"contracts/TransactionDetailContract28April.sol\":4142:4158  _transactionCode */\n      dup4\n        /* \"contracts/TransactionDetailContract28April.sol\":4125:4159  abi.encodePacked(_transactionCode) */\n      add(0x20, mload(0x40))\n      tag_157\n      swap2\n      swap1\n      tag_54\n      jump\t// in\n    tag_157:\n      mload(0x40)\n      0x20\n      dup2\n      dup4\n      sub\n      sub\n      dup2\n      mstore\n      swap1\n      0x40\n      mstore\n        /* \"contracts/TransactionDetailContract28April.sol\":4115:4160  keccak256(abi.encodePacked(_transactionCode)) */\n      dup1\n      mload\n      swap1\n      0x20\n      add\n      keccak256\n        /* \"contracts/TransactionDetailContract28April.sol\":4055:4073  transactionDetails */\n      0x00\n        /* \"contracts/TransactionDetailContract28April.sol\":4055:4076  transactionDetails[i] */\n      dup1\n        /* \"contracts/TransactionDetailContract28April.sol\":4074:4075  i */\n      dup4\n        /* \"contracts/TransactionDetailContract28April.sol\":4055:4076  transactionDetails[i] */\n      dup2\n      mstore\n      0x20\n      add\n      swap1\n      dup2\n      mstore\n      0x20\n      add\n      0x00\n      keccak256\n        /* \"contracts/TransactionDetailContract28April.sol\":4055:4092  transactionDetails[i].transactionCode */\n      0x00\n      add\n        /* \"contracts/TransactionDetailContract28April.sol\":4038:4093  abi.encodePacked(transactionDetails[i].transactionCode) */\n      add(0x20, mload(0x40))\n      tag_158\n      swap2\n      swap1\n      tag_56\n      jump\t// in\n    tag_158:\n      mload(0x40)\n      0x20\n      dup2\n      dup4\n      sub\n      sub\n      dup2\n      mstore\n      swap1\n      0x40\n      mstore\n        /* \"contracts/TransactionDetailContract28April.sol\":4007:4111  keccak256(... */\n      dup1\n      mload\n      swap1\n      0x20\n      add\n      keccak256\n        /* \"contracts/TransactionDetailContract28April.sol\":4007:4160  keccak256(... */\n      sub\n        /* \"contracts/TransactionDetailContract28April.sol\":3986:4215  if (... */\n      tag_159\n      jumpi\n        /* \"contracts/TransactionDetailContract28April.sol\":4193:4200  count++ */\n      dup2\n      dup1\n      tag_160\n      swap1\n      tag_59\n      jump\t// in\n    tag_160:\n      swap3\n      pop\n      pop\n        /* \"contracts/TransactionDetailContract28April.sol\":3986:4215  if (... */\n    tag_159:\n        /* \"contracts/TransactionDetailContract28April.sol\":3967:3970  i++ */\n      dup1\n      dup1\n      tag_161\n      swap1\n      tag_59\n      jump\t// in\n    tag_161:\n      swap2\n      pop\n      pop\n        /* \"contracts/TransactionDetailContract28April.sol\":3921:4225  for (uint i = 1; i <= transactionDetailCount; i++) {... */\n      jump(tag_154)\n    tag_155:\n      pop\n        /* \"contracts/TransactionDetailContract28April.sol\":4241:4246  count */\n      dup1\n        /* \"contracts/TransactionDetailContract28April.sol\":4234:4246  return count */\n      swap2\n      pop\n      pop\n        /* \"contracts/TransactionDetailContract28April.sol\":3759:4253  function getCountTransactionDetailByTransactionCode(... */\n      swap2\n      swap1\n      pop\n      jump\t// out\n        /* \"contracts/TransactionDetailContract28April.sol\":1421:1800  function getAllTransactionDetail()... */\n    tag_39:\n        /* \"contracts/TransactionDetailContract28April.sol\":1501:1527  TransactionDetail[] memory */\n      0x60\n        /* \"contracts/TransactionDetailContract28April.sol\":1543:1576  TransactionDetail[] memory result */\n      0x00\n        /* \"contracts/TransactionDetailContract28April.sol\":1616:1638  transactionDetailCount */\n      sload(0x01)\n        /* \"contracts/TransactionDetailContract28April.sol\":1579:1648  new TransactionDetail[](... */\n      0xffffffffffffffff\n      dup2\n      gt\n      iszero\n      tag_163\n      jumpi\n      tag_164\n      tag_63\n      jump\t// in\n    tag_164:\n    tag_163:\n      mload(0x40)\n      swap1\n      dup1\n      dup3\n      mstore\n      dup1\n      0x20\n      mul\n      0x20\n      add\n      dup3\n      add\n      0x40\n      mstore\n      dup1\n      iszero\n      tag_165\n      jumpi\n      dup2\n      0x20\n      add\n    tag_166:\n      tag_167\n      tag_90\n      jump\t// in\n    tag_167:\n      dup2\n      mstore\n      0x20\n      add\n      swap1\n      0x01\n      swap1\n      sub\n      swap1\n      dup2\n      tag_166\n      jumpi\n      swap1\n      pop\n    tag_165:\n      pop\n        /* \"contracts/TransactionDetailContract28April.sol\":1543:1648  TransactionDetail[] memory result = new TransactionDetail[](... */\n      swap1\n      pop\n        /* \"contracts/TransactionDetailContract28April.sol\":1663:1669  uint i */\n      0x00\n        /* \"contracts/TransactionDetailContract28April.sol\":1672:1673  1 */\n      0x01\n        /* \"contracts/TransactionDetailContract28April.sol\":1663:1673  uint i = 1 */\n      swap1\n      pop\n        /* \"contracts/TransactionDetailContract28April.sol\":1658:1771  for (uint i = 1; i <= transactionDetailCount; i++) {... */\n    tag_168:\n        /* \"contracts/TransactionDetailContract28April.sol\":1680:1702  transactionDetailCount */\n      sload(0x01)\n        /* \"contracts/TransactionDetailContract28April.sol\":1675:1676  i */\n      dup2\n        /* \"contracts/TransactionDetailContract28April.sol\":1675:1702  i <= transactionDetailCount */\n      gt\n        /* \"contracts/TransactionDetailContract28April.sol\":1658:1771  for (uint i = 1; i <= transactionDetailCount; i++) {... */\n      tag_169\n      jumpi\n        /* \"contracts/TransactionDetailContract28April.sol\":1739:1757  transactionDetails */\n      0x00\n        /* \"contracts/TransactionDetailContract28April.sol\":1739:1760  transactionDetails[i] */\n      dup1\n        /* \"contracts/TransactionDetailContract28April.sol\":1758:1759  i */\n      dup3\n        /* \"contracts/TransactionDetailContract28April.sol\":1739:1760  transactionDetails[i] */\n      dup2\n      mstore\n      0x20\n      add\n      swap1\n      dup2\n      mstore\n      0x20\n      add\n      0x00\n      keccak256\n        /* \"contracts/TransactionDetailContract28April.sol\":1723:1760  result[i - 1] = transactionDetails[i] */\n      mload(0x40)\n      dup1\n      0x80\n      add\n      0x40\n      mstore\n      swap1\n      dup2\n      0x00\n      dup3\n      add\n      dup1\n      sload\n      tag_171\n      swap1\n      tag_98\n      jump\t// in\n    tag_171:\n      dup1\n      0x1f\n      add\n      0x20\n      dup1\n      swap2\n      div\n      mul\n      0x20\n      add\n      mload(0x40)\n      swap1\n      dup2\n      add\n      0x40\n      mstore\n      dup1\n      swap3\n      swap2\n      swap1\n      dup2\n      dup2\n      mstore\n      0x20\n      add\n      dup3\n      dup1\n      sload\n      tag_172\n      swap1\n      tag_98\n      jump\t// in\n    tag_172:\n      dup1\n      iszero\n      tag_173\n      jumpi\n      dup1\n      0x1f\n      lt\n      tag_174\n      jumpi\n      0x0100\n      dup1\n      dup4\n      sload\n      div\n      mul\n      dup4\n      mstore\n      swap2\n      0x20\n      add\n      swap2\n      jump(tag_173)\n    tag_174:\n      dup3\n      add\n      swap2\n      swap1\n      0x00\n      mstore\n      keccak256(0x00, 0x20)\n      swap1\n    tag_175:\n      dup2\n      sload\n      dup2\n      mstore\n      swap1\n      0x01\n      add\n      swap1\n      0x20\n      add\n      dup1\n      dup4\n      gt\n      tag_175\n      jumpi\n      dup3\n      swap1\n      sub\n      0x1f\n      and\n      dup3\n      add\n      swap2\n    tag_173:\n      pop\n      pop\n      pop\n      pop\n      pop\n      dup2\n      mstore\n      0x20\n      add\n      0x01\n      dup3\n      add\n      sload\n      dup2\n      mstore\n      0x20\n      add\n      0x02\n      dup3\n      add\n      dup1\n      sload\n      tag_176\n      swap1\n      tag_98\n      jump\t// in\n    tag_176:\n      dup1\n      0x1f\n      add\n      0x20\n      dup1\n      swap2\n      div\n      mul\n      0x20\n      add\n      mload(0x40)\n      swap1\n      dup2\n      add\n      0x40\n      mstore\n      dup1\n      swap3\n      swap2\n      swap1\n      dup2\n      dup2\n      mstore\n      0x20\n      add\n      dup3\n      dup1\n      sload\n      tag_177\n      swap1\n      tag_98\n      jump\t// in\n    tag_177:\n      dup1\n      iszero\n      tag_178\n      jumpi\n      dup1\n      0x1f\n      lt\n      tag_179\n      jumpi\n      0x0100\n      dup1\n      dup4\n      sload\n      div\n      mul\n      dup4\n      mstore\n      swap2\n      0x20\n      add\n      swap2\n      jump(tag_178)\n    tag_179:\n      dup3\n      add\n      swap2\n      swap1\n      0x00\n      mstore\n      keccak256(0x00, 0x20)\n      swap1\n    tag_180:\n      dup2\n      sload\n      dup2\n      mstore\n      swap1\n      0x01\n      add\n      swap1\n      0x20\n      add\n      dup1\n      dup4\n      gt\n      tag_180\n      jumpi\n      dup3\n      swap1\n      sub\n      0x1f\n      and\n      dup3\n      add\n      swap2\n    tag_178:\n      pop\n      pop\n      pop\n      pop\n      pop\n      dup2\n      mstore\n      0x20\n      add\n      0x03\n      dup3\n      add\n      sload\n      dup2\n      mstore\n      pop\n      pop\n        /* \"contracts/TransactionDetailContract28April.sol\":1723:1729  result */\n      dup3\n        /* \"contracts/TransactionDetailContract28April.sol\":1734:1735  1 */\n      0x01\n        /* \"contracts/TransactionDetailContract28April.sol\":1730:1731  i */\n      dup4\n        /* \"contracts/TransactionDetailContract28April.sol\":1730:1735  i - 1 */\n      tag_181\n      swap2\n      swap1\n      tag_182\n      jump\t// in\n    tag_181:\n        /* \"contracts/TransactionDetailContract28April.sol\":1723:1736  result[i - 1] */\n      dup2\n      mload\n      dup2\n      lt\n      tag_183\n      jumpi\n      tag_184\n      tag_73\n      jump\t// in\n    tag_184:\n    tag_183:\n      0x20\n      mul\n      0x20\n      add\n      add\n        /* \"contracts/TransactionDetailContract28April.sol\":1723:1760  result[i - 1] = transactionDetails[i] */\n      dup2\n      swap1\n      mstore\n      pop\n        /* \"contracts/TransactionDetailContract28April.sol\":1704:1707  i++ */\n      dup1\n      dup1\n      tag_185\n      swap1\n      tag_59\n      jump\t// in\n    tag_185:\n      swap2\n      pop\n      pop\n        /* \"contracts/TransactionDetailContract28April.sol\":1658:1771  for (uint i = 1; i <= transactionDetailCount; i++) {... */\n      jump(tag_168)\n    tag_169:\n      pop\n        /* \"contracts/TransactionDetailContract28April.sol\":1787:1793  result */\n      dup1\n        /* \"contracts/TransactionDetailContract28April.sol\":1780:1793  return result */\n      swap2\n      pop\n      pop\n        /* \"contracts/TransactionDetailContract28April.sol\":1421:1800  function getAllTransactionDetail()... */\n      swap1\n      jump\t// out\n        /* \"contracts/TransactionDetailContract28April.sol\":446:480  uint public transactionDetailCount */\n    tag_42:\n      sload(0x01)\n      dup2\n      jump\t// out\n        /* \"contracts/TransactionDetailContract28April.sol\":4259:4777  function getTransactionDetailByCode(... */\n    tag_46:\n        /* \"contracts/TransactionDetailContract28April.sol\":4362:4386  TransactionDetail memory */\n      tag_186\n      tag_90\n      jump\t// in\n    tag_186:\n        /* \"contracts/TransactionDetailContract28April.sol\":4403:4409  uint i */\n      0x00\n        /* \"contracts/TransactionDetailContract28April.sol\":4412:4413  1 */\n      0x01\n        /* \"contracts/TransactionDetailContract28April.sol\":4403:4413  uint i = 1 */\n      swap1\n      pop\n        /* \"contracts/TransactionDetailContract28April.sol\":4398:4723  for (uint i = 1; i <= transactionDetailCount; i++) {... */\n    tag_188:\n        /* \"contracts/TransactionDetailContract28April.sol\":4420:4442  transactionDetailCount */\n      sload(0x01)\n        /* \"contracts/TransactionDetailContract28April.sol\":4415:4416  i */\n      dup2\n        /* \"contracts/TransactionDetailContract28April.sol\":4415:4442  i <= transactionDetailCount */\n      gt\n        /* \"contracts/TransactionDetailContract28April.sol\":4398:4723  for (uint i = 1; i <= transactionDetailCount; i++) {... */\n      tag_189\n      jumpi\n        /* \"contracts/TransactionDetailContract28April.sol\":4619:4635  _transactionCode */\n      dup3\n        /* \"contracts/TransactionDetailContract28April.sol\":4602:4636  abi.encodePacked(_transactionCode) */\n      add(0x20, mload(0x40))\n      tag_191\n      swap2\n      swap1\n      tag_54\n      jump\t// in\n    tag_191:\n      mload(0x40)\n      0x20\n      dup2\n      dup4\n      sub\n      sub\n      dup2\n      mstore\n      swap1\n      0x40\n      mstore\n        /* \"contracts/TransactionDetailContract28April.sol\":4592:4637  keccak256(abi.encodePacked(_transactionCode)) */\n      dup1\n      mload\n      swap1\n      0x20\n      add\n      keccak256\n        /* \"contracts/TransactionDetailContract28April.sol\":4532:4550  transactionDetails */\n      0x00\n        /* \"contracts/TransactionDetailContract28April.sol\":4532:4553  transactionDetails[i] */\n      dup1\n        /* \"contracts/TransactionDetailContract28April.sol\":4551:4552  i */\n      dup4\n        /* \"contracts/TransactionDetailContract28April.sol\":4532:4553  transactionDetails[i] */\n      dup2\n      mstore\n      0x20\n      add\n      swap1\n      dup2\n      mstore\n      0x20\n      add\n      0x00\n      keccak256\n        /* \"contracts/TransactionDetailContract28April.sol\":4532:4569  transactionDetails[i].transactionCode */\n      0x00\n      add\n        /* \"contracts/TransactionDetailContract28April.sol\":4515:4570  abi.encodePacked(transactionDetails[i].transactionCode) */\n      add(0x20, mload(0x40))\n      tag_192\n      swap2\n      swap1\n      tag_56\n      jump\t// in\n    tag_192:\n      mload(0x40)\n      0x20\n      dup2\n      dup4\n      sub\n      sub\n      dup2\n      mstore\n      swap1\n      0x40\n      mstore\n        /* \"contracts/TransactionDetailContract28April.sol\":4484:4588  keccak256(... */\n      dup1\n      mload\n      swap1\n      0x20\n      add\n      keccak256\n        /* \"contracts/TransactionDetailContract28April.sol\":4484:4637  keccak256(... */\n      sub\n        /* \"contracts/TransactionDetailContract28April.sol\":4463:4713  if (... */\n      tag_193\n      jumpi\n        /* \"contracts/TransactionDetailContract28April.sol\":4677:4695  transactionDetails */\n      0x00\n        /* \"contracts/TransactionDetailContract28April.sol\":4677:4698  transactionDetails[i] */\n      dup1\n        /* \"contracts/TransactionDetailContract28April.sol\":4696:4697  i */\n      dup3\n        /* \"contracts/TransactionDetailContract28April.sol\":4677:4698  transactionDetails[i] */\n      dup2\n      mstore\n      0x20\n      add\n      swap1\n      dup2\n      mstore\n      0x20\n      add\n      0x00\n      keccak256\n        /* \"contracts/TransactionDetailContract28April.sol\":4670:4698  return transactionDetails[i] */\n      mload(0x40)\n      dup1\n      0x80\n      add\n      0x40\n      mstore\n      swap1\n      dup2\n      0x00\n      dup3\n      add\n      dup1\n      sload\n      tag_194\n      swap1\n      tag_98\n      jump\t// in\n    tag_194:\n      dup1\n      0x1f\n      add\n      0x20\n      dup1\n      swap2\n      div\n      mul\n      0x20\n      add\n      mload(0x40)\n      swap1\n      dup2\n      add\n      0x40\n      mstore\n      dup1\n      swap3\n      swap2\n      swap1\n      dup2\n      dup2\n      mstore\n      0x20\n      add\n      dup3\n      dup1\n      sload\n      tag_195\n      swap1\n      tag_98\n      jump\t// in\n    tag_195:\n      dup1\n      iszero\n      tag_196\n      jumpi\n      dup1\n      0x1f\n      lt\n      tag_197\n      jumpi\n      0x0100\n      dup1\n      dup4\n      sload\n      div\n      mul\n      dup4\n      mstore\n      swap2\n      0x20\n      add\n      swap2\n      jump(tag_196)\n    tag_197:\n      dup3\n      add\n      swap2\n      swap1\n      0x00\n      mstore\n      keccak256(0x00, 0x20)\n      swap1\n    tag_198:\n      dup2\n      sload\n      dup2\n      mstore\n      swap1\n      0x01\n      add\n      swap1\n      0x20\n      add\n      dup1\n      dup4\n      gt\n      tag_198\n      jumpi\n      dup3\n      swap1\n      sub\n      0x1f\n      and\n      dup3\n      add\n      swap2\n    tag_196:\n      pop\n      pop\n      pop\n      pop\n      pop\n      dup2\n      mstore\n      0x20\n      add\n      0x01\n      dup3\n      add\n      sload\n      dup2\n      mstore\n      0x20\n      add\n      0x02\n      dup3\n      add\n      dup1\n      sload\n      tag_199\n      swap1\n      tag_98\n      jump\t// in\n    tag_199:\n      dup1\n      0x1f\n      add\n      0x20\n      dup1\n      swap2\n      div\n      mul\n      0x20\n      add\n      mload(0x40)\n      swap1\n      dup2\n      add\n      0x40\n      mstore\n      dup1\n      swap3\n      swap2\n      swap1\n      dup2\n      dup2\n      mstore\n      0x20\n      add\n      dup3\n      dup1\n      sload\n      tag_200\n      swap1\n      tag_98\n      jump\t// in\n    tag_200:\n      dup1\n      iszero\n      tag_201\n      jumpi\n      dup1\n      0x1f\n      lt\n      tag_202\n      jumpi\n      0x0100\n      dup1\n      dup4\n      sload\n      div\n      mul\n      dup4\n      mstore\n      swap2\n      0x20\n      add\n      swap2\n      jump(tag_201)\n    tag_202:\n      dup3\n      add\n      swap2\n      swap1\n      0x00\n      mstore\n      keccak256(0x00, 0x20)\n      swap1\n    tag_203:\n      dup2\n      sload\n      dup2\n      mstore\n      swap1\n      0x01\n      add\n      swap1\n      0x20\n      add\n      dup1\n      dup4\n      gt\n      tag_203\n      jumpi\n      dup3\n      swap1\n      sub\n      0x1f\n      and\n      dup3\n      add\n      swap2\n    tag_201:\n      pop\n      pop\n      pop\n      pop\n      pop\n      dup2\n      mstore\n      0x20\n      add\n      0x03\n      dup3\n      add\n      sload\n      dup2\n      mstore\n      pop\n      pop\n      swap2\n      pop\n      pop\n      jump(tag_187)\n        /* \"contracts/TransactionDetailContract28April.sol\":4463:4713  if (... */\n    tag_193:\n        /* \"contracts/TransactionDetailContract28April.sol\":4444:4447  i++ */\n      dup1\n      dup1\n      tag_204\n      swap1\n      tag_59\n      jump\t// in\n    tag_204:\n      swap2\n      pop\n      pop\n        /* \"contracts/TransactionDetailContract28April.sol\":4398:4723  for (uint i = 1; i <= transactionDetailCount; i++) {... */\n      jump(tag_188)\n    tag_189:\n      pop\n        /* \"contracts/TransactionDetailContract28April.sol\":4732:4770  revert(\"Transaction detail not found\") */\n      mload(0x40)\n      0x08c379a000000000000000000000000000000000000000000000000000000000\n      dup2\n      mstore\n      0x04\n      add\n      tag_205\n      swap1\n      tag_206\n      jump\t// in\n    tag_205:\n      mload(0x40)\n      dup1\n      swap2\n      sub\n      swap1\n      revert\n        /* \"contracts/TransactionDetailContract28April.sol\":4259:4777  function getTransactionDetailByCode(... */\n    tag_187:\n      swap2\n      swap1\n      pop\n      jump\t// out\n    tag_90:\n      mload(0x40)\n      dup1\n      0x80\n      add\n      0x40\n      mstore\n      dup1\n      0x60\n      dup2\n      mstore\n      0x20\n      add\n      0x00\n      dup2\n      mstore\n      0x20\n      add\n      0x60\n      dup2\n      mstore\n      0x20\n      add\n      0x00\n      dup2\n      mstore\n      pop\n      swap1\n      jump\t// out\n        /* \"#utility.yul\":7:82   */\n    tag_207:\n        /* \"#utility.yul\":40:46   */\n      0x00\n        /* \"#utility.yul\":73:75   */\n      0x40\n        /* \"#utility.yul\":67:76   */\n      mload\n        /* \"#utility.yul\":57:76   */\n      swap1\n      pop\n        /* \"#utility.yul\":7:82   */\n      swap1\n      jump\t// out\n        /* \"#utility.yul\":88:205   */\n    tag_208:\n        /* \"#utility.yul\":197:198   */\n      0x00\n        /* \"#utility.yul\":194:195   */\n      dup1\n        /* \"#utility.yul\":187:199   */\n      revert\n        /* \"#utility.yul\":211:328   */\n    tag_209:\n        /* \"#utility.yul\":320:321   */\n      0x00\n        /* \"#utility.yul\":317:318   */\n      dup1\n        /* \"#utility.yul\":310:322   */\n      revert\n        /* \"#utility.yul\":334:451   */\n    tag_210:\n        /* \"#utility.yul\":443:444   */\n      0x00\n        /* \"#utility.yul\":440:441   */\n      dup1\n        /* \"#utility.yul\":433:445   */\n      revert\n        /* \"#utility.yul\":457:574   */\n    tag_211:\n        /* \"#utility.yul\":566:567   */\n      0x00\n        /* \"#utility.yul\":563:564   */\n      dup1\n        /* \"#utility.yul\":556:568   */\n      revert\n        /* \"#utility.yul\":580:682   */\n    tag_212:\n        /* \"#utility.yul\":621:627   */\n      0x00\n        /* \"#utility.yul\":672:674   */\n      0x1f\n        /* \"#utility.yul\":668:675   */\n      not\n        /* \"#utility.yul\":663:665   */\n      0x1f\n        /* \"#utility.yul\":656:661   */\n      dup4\n        /* \"#utility.yul\":652:666   */\n      add\n        /* \"#utility.yul\":648:676   */\n      and\n        /* \"#utility.yul\":638:676   */\n      swap1\n      pop\n        /* \"#utility.yul\":580:682   */\n      swap2\n      swap1\n      pop\n      jump\t// out\n        /* \"#utility.yul\":688:868   */\n    tag_63:\n        /* \"#utility.yul\":736:813   */\n      0x4e487b7100000000000000000000000000000000000000000000000000000000\n        /* \"#utility.yul\":733:734   */\n      0x00\n        /* \"#utility.yul\":726:814   */\n      mstore\n        /* \"#utility.yul\":833:837   */\n      0x41\n        /* \"#utility.yul\":830:831   */\n      0x04\n        /* \"#utility.yul\":823:838   */\n      mstore\n        /* \"#utility.yul\":857:861   */\n      0x24\n        /* \"#utility.yul\":854:855   */\n      0x00\n        /* \"#utility.yul\":847:862   */\n      revert\n        /* \"#utility.yul\":874:1155   */\n    tag_213:\n        /* \"#utility.yul\":957:984   */\n      tag_284\n        /* \"#utility.yul\":979:983   */\n      dup3\n        /* \"#utility.yul\":957:984   */\n      tag_212\n      jump\t// in\n    tag_284:\n        /* \"#utility.yul\":949:955   */\n      dup2\n        /* \"#utility.yul\":945:985   */\n      add\n        /* \"#utility.yul\":1087:1093   */\n      dup2\n        /* \"#utility.yul\":1075:1085   */\n      dup2\n        /* \"#utility.yul\":1072:1094   */\n      lt\n        /* \"#utility.yul\":1051:1069   */\n      0xffffffffffffffff\n        /* \"#utility.yul\":1039:1049   */\n      dup3\n        /* \"#utility.yul\":1036:1070   */\n      gt\n        /* \"#utility.yul\":1033:1095   */\n      or\n        /* \"#utility.yul\":1030:1118   */\n      iszero\n      tag_285\n      jumpi\n        /* \"#utility.yul\":1098:1116   */\n      tag_286\n      tag_63\n      jump\t// in\n    tag_286:\n        /* \"#utility.yul\":1030:1118   */\n    tag_285:\n        /* \"#utility.yul\":1138:1148   */\n      dup1\n        /* \"#utility.yul\":1134:1136   */\n      0x40\n        /* \"#utility.yul\":1127:1149   */\n      mstore\n        /* \"#utility.yul\":917:1155   */\n      pop\n        /* \"#utility.yul\":874:1155   */\n      pop\n      pop\n      jump\t// out\n        /* \"#utility.yul\":1161:1290   */\n    tag_214:\n        /* \"#utility.yul\":1195:1201   */\n      0x00\n        /* \"#utility.yul\":1222:1242   */\n      tag_288\n      tag_207\n      jump\t// in\n    tag_288:\n        /* \"#utility.yul\":1212:1242   */\n      swap1\n      pop\n        /* \"#utility.yul\":1251:1284   */\n      tag_289\n        /* \"#utility.yul\":1279:1283   */\n      dup3\n        /* \"#utility.yul\":1271:1277   */\n      dup3\n        /* \"#utility.yul\":1251:1284   */\n      tag_213\n      jump\t// in\n    tag_289:\n        /* \"#utility.yul\":1161:1290   */\n      swap2\n      swap1\n      pop\n      jump\t// out\n        /* \"#utility.yul\":1296:1604   */\n    tag_215:\n        /* \"#utility.yul\":1358:1362   */\n      0x00\n        /* \"#utility.yul\":1448:1466   */\n      0xffffffffffffffff\n        /* \"#utility.yul\":1440:1446   */\n      dup3\n        /* \"#utility.yul\":1437:1467   */\n      gt\n        /* \"#utility.yul\":1434:1490   */\n      iszero\n      tag_291\n      jumpi\n        /* \"#utility.yul\":1470:1488   */\n      tag_292\n      tag_63\n      jump\t// in\n    tag_292:\n        /* \"#utility.yul\":1434:1490   */\n    tag_291:\n        /* \"#utility.yul\":1508:1537   */\n      tag_293\n        /* \"#utility.yul\":1530:1536   */\n      dup3\n        /* \"#utility.yul\":1508:1537   */\n      tag_212\n      jump\t// in\n    tag_293:\n        /* \"#utility.yul\":1500:1537   */\n      swap1\n      pop\n        /* \"#utility.yul\":1592:1596   */\n      0x20\n        /* \"#utility.yul\":1586:1590   */\n      dup2\n        /* \"#utility.yul\":1582:1597   */\n      add\n        /* \"#utility.yul\":1574:1597   */\n      swap1\n      pop\n        /* \"#utility.yul\":1296:1604   */\n      swap2\n      swap1\n      pop\n      jump\t// out\n        /* \"#utility.yul\":1610:1756   */\n    tag_216:\n        /* \"#utility.yul\":1707:1713   */\n      dup3\n        /* \"#utility.yul\":1702:1705   */\n      dup2\n        /* \"#utility.yul\":1697:1700   */\n      dup4\n        /* \"#utility.yul\":1684:1714   */\n      calldatacopy\n        /* \"#utility.yul\":1748:1749   */\n      0x00\n        /* \"#utility.yul\":1739:1745   */\n      dup4\n        /* \"#utility.yul\":1734:1737   */\n      dup4\n        /* \"#utility.yul\":1730:1746   */\n      add\n        /* \"#utility.yul\":1723:1750   */\n      mstore\n        /* \"#utility.yul\":1610:1756   */\n      pop\n      pop\n      pop\n      jump\t// out\n        /* \"#utility.yul\":1762:2187   */\n    tag_217:\n        /* \"#utility.yul\":1840:1845   */\n      0x00\n        /* \"#utility.yul\":1865:1931   */\n      tag_296\n        /* \"#utility.yul\":1881:1930   */\n      tag_297\n        /* \"#utility.yul\":1923:1929   */\n      dup5\n        /* \"#utility.yul\":1881:1930   */\n      tag_215\n      jump\t// in\n    tag_297:\n        /* \"#utility.yul\":1865:1931   */\n      tag_214\n      jump\t// in\n    tag_296:\n        /* \"#utility.yul\":1856:1931   */\n      swap1\n      pop\n        /* \"#utility.yul\":1954:1960   */\n      dup3\n        /* \"#utility.yul\":1947:1952   */\n      dup2\n        /* \"#utility.yul\":1940:1961   */\n      mstore\n        /* \"#utility.yul\":1992:1996   */\n      0x20\n        /* \"#utility.yul\":1985:1990   */\n      dup2\n        /* \"#utility.yul\":1981:1997   */\n      add\n        /* \"#utility.yul\":2030:2033   */\n      dup5\n        /* \"#utility.yul\":2021:2027   */\n      dup5\n        /* \"#utility.yul\":2016:2019   */\n      dup5\n        /* \"#utility.yul\":2012:2028   */\n      add\n        /* \"#utility.yul\":2009:2034   */\n      gt\n        /* \"#utility.yul\":2006:2118   */\n      iszero\n      tag_298\n      jumpi\n        /* \"#utility.yul\":2037:2116   */\n      tag_299\n      tag_211\n      jump\t// in\n    tag_299:\n        /* \"#utility.yul\":2006:2118   */\n    tag_298:\n        /* \"#utility.yul\":2127:2181   */\n      tag_300\n        /* \"#utility.yul\":2174:2180   */\n      dup5\n        /* \"#utility.yul\":2169:2172   */\n      dup3\n        /* \"#utility.yul\":2164:2167   */\n      dup6\n        /* \"#utility.yul\":2127:2181   */\n      tag_216\n      jump\t// in\n    tag_300:\n        /* \"#utility.yul\":1846:2187   */\n      pop\n        /* \"#utility.yul\":1762:2187   */\n      swap4\n      swap3\n      pop\n      pop\n      pop\n      jump\t// out\n        /* \"#utility.yul\":2207:2547   */\n    tag_218:\n        /* \"#utility.yul\":2263:2268   */\n      0x00\n        /* \"#utility.yul\":2312:2315   */\n      dup3\n        /* \"#utility.yul\":2305:2309   */\n      0x1f\n        /* \"#utility.yul\":2297:2303   */\n      dup4\n        /* \"#utility.yul\":2293:2310   */\n      add\n        /* \"#utility.yul\":2289:2316   */\n      slt\n        /* \"#utility.yul\":2279:2401   */\n      tag_302\n      jumpi\n        /* \"#utility.yul\":2320:2399   */\n      tag_303\n      tag_210\n      jump\t// in\n    tag_303:\n        /* \"#utility.yul\":2279:2401   */\n    tag_302:\n        /* \"#utility.yul\":2437:2443   */\n      dup2\n        /* \"#utility.yul\":2424:2444   */\n      calldataload\n        /* \"#utility.yul\":2462:2541   */\n      tag_304\n        /* \"#utility.yul\":2537:2540   */\n      dup5\n        /* \"#utility.yul\":2529:2535   */\n      dup3\n        /* \"#utility.yul\":2522:2526   */\n      0x20\n        /* \"#utility.yul\":2514:2520   */\n      dup7\n        /* \"#utility.yul\":2510:2527   */\n      add\n        /* \"#utility.yul\":2462:2541   */\n      tag_217\n      jump\t// in\n    tag_304:\n        /* \"#utility.yul\":2453:2541   */\n      swap2\n      pop\n        /* \"#utility.yul\":2269:2547   */\n      pop\n        /* \"#utility.yul\":2207:2547   */\n      swap3\n      swap2\n      pop\n      pop\n      jump\t// out\n        /* \"#utility.yul\":2553:3062   */\n    tag_14:\n        /* \"#utility.yul\":2622:2628   */\n      0x00\n        /* \"#utility.yul\":2671:2673   */\n      0x20\n        /* \"#utility.yul\":2659:2668   */\n      dup3\n        /* \"#utility.yul\":2650:2657   */\n      dup5\n        /* \"#utility.yul\":2646:2669   */\n      sub\n        /* \"#utility.yul\":2642:2674   */\n      slt\n        /* \"#utility.yul\":2639:2758   */\n      iszero\n      tag_306\n      jumpi\n        /* \"#utility.yul\":2677:2756   */\n      tag_307\n      tag_208\n      jump\t// in\n    tag_307:\n        /* \"#utility.yul\":2639:2758   */\n    tag_306:\n        /* \"#utility.yul\":2825:2826   */\n      0x00\n        /* \"#utility.yul\":2814:2823   */\n      dup3\n        /* \"#utility.yul\":2810:2827   */\n      add\n        /* \"#utility.yul\":2797:2828   */\n      calldataload\n        /* \"#utility.yul\":2855:2873   */\n      0xffffffffffffffff\n        /* \"#utility.yul\":2847:2853   */\n      dup2\n        /* \"#utility.yul\":2844:2874   */\n      gt\n        /* \"#utility.yul\":2841:2958   */\n      iszero\n      tag_308\n      jumpi\n        /* \"#utility.yul\":2877:2956   */\n      tag_309\n      tag_209\n      jump\t// in\n    tag_309:\n        /* \"#utility.yul\":2841:2958   */\n    tag_308:\n        /* \"#utility.yul\":2982:3045   */\n      tag_310\n        /* \"#utility.yul\":3037:3044   */\n      dup5\n        /* \"#utility.yul\":3028:3034   */\n      dup3\n        /* \"#utility.yul\":3017:3026   */\n      dup6\n        /* \"#utility.yul\":3013:3035   */\n      add\n        /* \"#utility.yul\":2982:3045   */\n      tag_218\n      jump\t// in\n    tag_310:\n        /* \"#utility.yul\":2972:3045   */\n      swap2\n      pop\n        /* \"#utility.yul\":2768:3055   */\n      pop\n        /* \"#utility.yul\":2553:3062   */\n      swap3\n      swap2\n      pop\n      pop\n      jump\t// out\n        /* \"#utility.yul\":3068:3182   */\n    tag_219:\n        /* \"#utility.yul\":3135:3141   */\n      0x00\n        /* \"#utility.yul\":3169:3174   */\n      dup2\n        /* \"#utility.yul\":3163:3175   */\n      mload\n        /* \"#utility.yul\":3153:3175   */\n      swap1\n      pop\n        /* \"#utility.yul\":3068:3182   */\n      swap2\n      swap1\n      pop\n      jump\t// out\n        /* \"#utility.yul\":3188:3372   */\n    tag_220:\n        /* \"#utility.yul\":3287:3298   */\n      0x00\n        /* \"#utility.yul\":3321:3327   */\n      dup3\n        /* \"#utility.yul\":3316:3319   */\n      dup3\n        /* \"#utility.yul\":3309:3328   */\n      mstore\n        /* \"#utility.yul\":3361:3365   */\n      0x20\n        /* \"#utility.yul\":3356:3359   */\n      dup3\n        /* \"#utility.yul\":3352:3366   */\n      add\n        /* \"#utility.yul\":3337:3366   */\n      swap1\n      pop\n        /* \"#utility.yul\":3188:3372   */\n      swap3\n      swap2\n      pop\n      pop\n      jump\t// out\n        /* \"#utility.yul\":3378:3510   */\n    tag_221:\n        /* \"#utility.yul\":3445:3449   */\n      0x00\n        /* \"#utility.yul\":3468:3471   */\n      dup2\n        /* \"#utility.yul\":3460:3471   */\n      swap1\n      pop\n        /* \"#utility.yul\":3498:3502   */\n      0x20\n        /* \"#utility.yul\":3493:3496   */\n      dup3\n        /* \"#utility.yul\":3489:3503   */\n      add\n        /* \"#utility.yul\":3481:3503   */\n      swap1\n      pop\n        /* \"#utility.yul\":3378:3510   */\n      swap2\n      swap1\n      pop\n      jump\t// out\n        /* \"#utility.yul\":3516:3593   */\n    tag_222:\n        /* \"#utility.yul\":3553:3560   */\n      0x00\n        /* \"#utility.yul\":3582:3587   */\n      dup2\n        /* \"#utility.yul\":3571:3587   */\n      swap1\n      pop\n        /* \"#utility.yul\":3516:3593   */\n      swap2\n      swap1\n      pop\n      jump\t// out\n        /* \"#utility.yul\":3599:3707   */\n    tag_223:\n        /* \"#utility.yul\":3676:3700   */\n      tag_316\n        /* \"#utility.yul\":3694:3699   */\n      dup2\n        /* \"#utility.yul\":3676:3700   */\n      tag_222\n      jump\t// in\n    tag_316:\n        /* \"#utility.yul\":3671:3674   */\n      dup3\n        /* \"#utility.yul\":3664:3701   */\n      mstore\n        /* \"#utility.yul\":3599:3707   */\n      pop\n      pop\n      jump\t// out\n        /* \"#utility.yul\":3713:3892   */\n    tag_224:\n        /* \"#utility.yul\":3782:3792   */\n      0x00\n        /* \"#utility.yul\":3803:3849   */\n      tag_318\n        /* \"#utility.yul\":3845:3848   */\n      dup4\n        /* \"#utility.yul\":3837:3843   */\n      dup4\n        /* \"#utility.yul\":3803:3849   */\n      tag_223\n      jump\t// in\n    tag_318:\n        /* \"#utility.yul\":3881:3885   */\n      0x20\n        /* \"#utility.yul\":3876:3879   */\n      dup4\n        /* \"#utility.yul\":3872:3886   */\n      add\n        /* \"#utility.yul\":3858:3886   */\n      swap1\n      pop\n        /* \"#utility.yul\":3713:3892   */\n      swap3\n      swap2\n      pop\n      pop\n      jump\t// out\n        /* \"#utility.yul\":3898:4011   */\n    tag_225:\n        /* \"#utility.yul\":3968:3972   */\n      0x00\n        /* \"#utility.yul\":4000:4004   */\n      0x20\n        /* \"#utility.yul\":3995:3998   */\n      dup3\n        /* \"#utility.yul\":3991:4005   */\n      add\n        /* \"#utility.yul\":3983:4005   */\n      swap1\n      pop\n        /* \"#utility.yul\":3898:4011   */\n      swap2\n      swap1\n      pop\n      jump\t// out\n        /* \"#utility.yul\":4047:4779   */\n    tag_226:\n        /* \"#utility.yul\":4166:4169   */\n      0x00\n        /* \"#utility.yul\":4195:4249   */\n      tag_321\n        /* \"#utility.yul\":4243:4248   */\n      dup3\n        /* \"#utility.yul\":4195:4249   */\n      tag_219\n      jump\t// in\n    tag_321:\n        /* \"#utility.yul\":4265:4351   */\n      tag_322\n        /* \"#utility.yul\":4344:4350   */\n      dup2\n        /* \"#utility.yul\":4339:4342   */\n      dup6\n        /* \"#utility.yul\":4265:4351   */\n      tag_220\n      jump\t// in\n    tag_322:\n        /* \"#utility.yul\":4258:4351   */\n      swap4\n      pop\n        /* \"#utility.yul\":4375:4431   */\n      tag_323\n        /* \"#utility.yul\":4425:4430   */\n      dup4\n        /* \"#utility.yul\":4375:4431   */\n      tag_221\n      jump\t// in\n    tag_323:\n        /* \"#utility.yul\":4454:4461   */\n      dup1\n        /* \"#utility.yul\":4485:4486   */\n      0x00\n        /* \"#utility.yul\":4470:4754   */\n    tag_324:\n        /* \"#utility.yul\":4495:4501   */\n      dup4\n        /* \"#utility.yul\":4492:4493   */\n      dup2\n        /* \"#utility.yul\":4489:4502   */\n      lt\n        /* \"#utility.yul\":4470:4754   */\n      iszero\n      tag_326\n      jumpi\n        /* \"#utility.yul\":4571:4577   */\n      dup2\n        /* \"#utility.yul\":4565:4578   */\n      mload\n        /* \"#utility.yul\":4598:4661   */\n      tag_327\n        /* \"#utility.yul\":4657:4660   */\n      dup9\n        /* \"#utility.yul\":4642:4655   */\n      dup3\n        /* \"#utility.yul\":4598:4661   */\n      tag_224\n      jump\t// in\n    tag_327:\n        /* \"#utility.yul\":4591:4661   */\n      swap8\n      pop\n        /* \"#utility.yul\":4684:4744   */\n      tag_328\n        /* \"#utility.yul\":4737:4743   */\n      dup4\n        /* \"#utility.yul\":4684:4744   */\n      tag_225\n      jump\t// in\n    tag_328:\n        /* \"#utility.yul\":4674:4744   */\n      swap3\n      pop\n        /* \"#utility.yul\":4530:4754   */\n      pop\n        /* \"#utility.yul\":4517:4518   */\n      0x01\n        /* \"#utility.yul\":4514:4515   */\n      dup2\n        /* \"#utility.yul\":4510:4519   */\n      add\n        /* \"#utility.yul\":4505:4519   */\n      swap1\n      pop\n        /* \"#utility.yul\":4470:4754   */\n      jump(tag_324)\n    tag_326:\n        /* \"#utility.yul\":4474:4488   */\n      pop\n        /* \"#utility.yul\":4770:4773   */\n      dup6\n        /* \"#utility.yul\":4763:4773   */\n      swap4\n      pop\n        /* \"#utility.yul\":4171:4779   */\n      pop\n      pop\n      pop\n        /* \"#utility.yul\":4047:4779   */\n      swap3\n      swap2\n      pop\n      pop\n      jump\t// out\n        /* \"#utility.yul\":4785:5158   */\n    tag_17:\n        /* \"#utility.yul\":4928:4932   */\n      0x00\n        /* \"#utility.yul\":4966:4968   */\n      0x20\n        /* \"#utility.yul\":4955:4964   */\n      dup3\n        /* \"#utility.yul\":4951:4969   */\n      add\n        /* \"#utility.yul\":4943:4969   */\n      swap1\n      pop\n        /* \"#utility.yul\":5015:5024   */\n      dup2\n        /* \"#utility.yul\":5009:5013   */\n      dup2\n        /* \"#utility.yul\":5005:5025   */\n      sub\n        /* \"#utility.yul\":5001:5002   */\n      0x00\n        /* \"#utility.yul\":4990:4999   */\n      dup4\n        /* \"#utility.yul\":4986:5003   */\n      add\n        /* \"#utility.yul\":4979:5026   */\n      mstore\n        /* \"#utility.yul\":5043:5151   */\n      tag_330\n        /* \"#utility.yul\":5146:5150   */\n      dup2\n        /* \"#utility.yul\":5137:5143   */\n      dup5\n        /* \"#utility.yul\":5043:5151   */\n      tag_226\n      jump\t// in\n    tag_330:\n        /* \"#utility.yul\":5035:5151   */\n      swap1\n      pop\n        /* \"#utility.yul\":4785:5158   */\n      swap3\n      swap2\n      pop\n      pop\n      jump\t// out\n        /* \"#utility.yul\":5164:5311   */\n    tag_227:\n        /* \"#utility.yul\":5264:5270   */\n      0x00\n        /* \"#utility.yul\":5298:5303   */\n      dup2\n        /* \"#utility.yul\":5292:5304   */\n      mload\n        /* \"#utility.yul\":5282:5304   */\n      swap1\n      pop\n        /* \"#utility.yul\":5164:5311   */\n      swap2\n      swap1\n      pop\n      jump\t// out\n        /* \"#utility.yul\":5317:5534   */\n    tag_228:\n        /* \"#utility.yul\":5449:5460   */\n      0x00\n        /* \"#utility.yul\":5483:5489   */\n      dup3\n        /* \"#utility.yul\":5478:5481   */\n      dup3\n        /* \"#utility.yul\":5471:5490   */\n      mstore\n        /* \"#utility.yul\":5523:5527   */\n      0x20\n        /* \"#utility.yul\":5518:5521   */\n      dup3\n        /* \"#utility.yul\":5514:5528   */\n      add\n        /* \"#utility.yul\":5499:5528   */\n      swap1\n      pop\n        /* \"#utility.yul\":5317:5534   */\n      swap3\n      swap2\n      pop\n      pop\n      jump\t// out\n        /* \"#utility.yul\":5540:5705   */\n    tag_229:\n        /* \"#utility.yul\":5640:5644   */\n      0x00\n        /* \"#utility.yul\":5663:5666   */\n      dup2\n        /* \"#utility.yul\":5655:5666   */\n      swap1\n      pop\n        /* \"#utility.yul\":5693:5697   */\n      0x20\n        /* \"#utility.yul\":5688:5691   */\n      dup3\n        /* \"#utility.yul\":5684:5698   */\n      add\n        /* \"#utility.yul\":5676:5698   */\n      swap1\n      pop\n        /* \"#utility.yul\":5540:5705   */\n      swap2\n      swap1\n      pop\n      jump\t// out\n        /* \"#utility.yul\":5711:5810   */\n    tag_230:\n        /* \"#utility.yul\":5763:5769   */\n      0x00\n        /* \"#utility.yul\":5797:5802   */\n      dup2\n        /* \"#utility.yul\":5791:5803   */\n      mload\n        /* \"#utility.yul\":5781:5803   */\n      swap1\n      pop\n        /* \"#utility.yul\":5711:5810   */\n      swap2\n      swap1\n      pop\n      jump\t// out\n        /* \"#utility.yul\":5816:5975   */\n    tag_231:\n        /* \"#utility.yul\":5890:5901   */\n      0x00\n        /* \"#utility.yul\":5924:5930   */\n      dup3\n        /* \"#utility.yul\":5919:5922   */\n      dup3\n        /* \"#utility.yul\":5912:5931   */\n      mstore\n        /* \"#utility.yul\":5964:5968   */\n      0x20\n        /* \"#utility.yul\":5959:5962   */\n      dup3\n        /* \"#utility.yul\":5955:5969   */\n      add\n        /* \"#utility.yul\":5940:5969   */\n      swap1\n      pop\n        /* \"#utility.yul\":5816:5975   */\n      swap3\n      swap2\n      pop\n      pop\n      jump\t// out\n        /* \"#utility.yul\":5981:6227   */\n    tag_232:\n        /* \"#utility.yul\":6062:6063   */\n      0x00\n        /* \"#utility.yul\":6072:6185   */\n    tag_337:\n        /* \"#utility.yul\":6086:6092   */\n      dup4\n        /* \"#utility.yul\":6083:6084   */\n      dup2\n        /* \"#utility.yul\":6080:6093   */\n      lt\n        /* \"#utility.yul\":6072:6185   */\n      iszero\n      tag_339\n      jumpi\n        /* \"#utility.yul\":6171:6172   */\n      dup1\n        /* \"#utility.yul\":6166:6169   */\n      dup3\n        /* \"#utility.yul\":6162:6173   */\n      add\n        /* \"#utility.yul\":6156:6174   */\n      mload\n        /* \"#utility.yul\":6152:6153   */\n      dup2\n        /* \"#utility.yul\":6147:6150   */\n      dup5\n        /* \"#utility.yul\":6143:6154   */\n      add\n        /* \"#utility.yul\":6136:6175   */\n      mstore\n        /* \"#utility.yul\":6108:6110   */\n      0x20\n        /* \"#utility.yul\":6105:6106   */\n      dup2\n        /* \"#utility.yul\":6101:6111   */\n      add\n        /* \"#utility.yul\":6096:6111   */\n      swap1\n      pop\n        /* \"#utility.yul\":6072:6185   */\n      jump(tag_337)\n    tag_339:\n        /* \"#utility.yul\":6219:6220   */\n      0x00\n        /* \"#utility.yul\":6210:6216   */\n      dup5\n        /* \"#utility.yul\":6205:6208   */\n      dup5\n        /* \"#utility.yul\":6201:6217   */\n      add\n        /* \"#utility.yul\":6194:6221   */\n      mstore\n        /* \"#utility.yul\":6043:6227   */\n      pop\n        /* \"#utility.yul\":5981:6227   */\n      pop\n      pop\n      pop\n      jump\t// out\n        /* \"#utility.yul\":6233:6590   */\n    tag_233:\n        /* \"#utility.yul\":6311:6314   */\n      0x00\n        /* \"#utility.yul\":6339:6378   */\n      tag_341\n        /* \"#utility.yul\":6372:6377   */\n      dup3\n        /* \"#utility.yul\":6339:6378   */\n      tag_230\n      jump\t// in\n    tag_341:\n        /* \"#utility.yul\":6394:6455   */\n      tag_342\n        /* \"#utility.yul\":6448:6454   */\n      dup2\n        /* \"#utility.yul\":6443:6446   */\n      dup6\n        /* \"#utility.yul\":6394:6455   */\n      tag_231\n      jump\t// in\n    tag_342:\n        /* \"#utility.yul\":6387:6455   */\n      swap4\n      pop\n        /* \"#utility.yul\":6464:6529   */\n      tag_343\n        /* \"#utility.yul\":6522:6528   */\n      dup2\n        /* \"#utility.yul\":6517:6520   */\n      dup6\n        /* \"#utility.yul\":6510:6514   */\n      0x20\n        /* \"#utility.yul\":6503:6508   */\n      dup7\n        /* \"#utility.yul\":6499:6515   */\n      add\n        /* \"#utility.yul\":6464:6529   */\n      tag_232\n      jump\t// in\n    tag_343:\n        /* \"#utility.yul\":6554:6583   */\n      tag_344\n        /* \"#utility.yul\":6576:6582   */\n      dup2\n        /* \"#utility.yul\":6554:6583   */\n      tag_212\n      jump\t// in\n    tag_344:\n        /* \"#utility.yul\":6549:6552   */\n      dup5\n        /* \"#utility.yul\":6545:6584   */\n      add\n        /* \"#utility.yul\":6538:6584   */\n      swap2\n      pop\n        /* \"#utility.yul\":6315:6590   */\n      pop\n        /* \"#utility.yul\":6233:6590   */\n      swap3\n      swap2\n      pop\n      pop\n      jump\t// out\n        /* \"#utility.yul\":6708:7757   */\n    tag_234:\n        /* \"#utility.yul\":6833:6836   */\n      0x00\n        /* \"#utility.yul\":6869:6873   */\n      0x80\n        /* \"#utility.yul\":6864:6867   */\n      dup4\n        /* \"#utility.yul\":6860:6874   */\n      add\n        /* \"#utility.yul\":6967:6971   */\n      0x00\n        /* \"#utility.yul\":6960:6965   */\n      dup4\n        /* \"#utility.yul\":6956:6972   */\n      add\n        /* \"#utility.yul\":6950:6973   */\n      mload\n        /* \"#utility.yul\":7020:7023   */\n      dup5\n        /* \"#utility.yul\":7014:7018   */\n      dup3\n        /* \"#utility.yul\":7010:7024   */\n      sub\n        /* \"#utility.yul\":7003:7007   */\n      0x00\n        /* \"#utility.yul\":6998:7001   */\n      dup7\n        /* \"#utility.yul\":6994:7008   */\n      add\n        /* \"#utility.yul\":6987:7025   */\n      mstore\n        /* \"#utility.yul\":7046:7119   */\n      tag_346\n        /* \"#utility.yul\":7114:7118   */\n      dup3\n        /* \"#utility.yul\":7100:7112   */\n      dup3\n        /* \"#utility.yul\":7046:7119   */\n      tag_233\n      jump\t// in\n    tag_346:\n        /* \"#utility.yul\":7038:7119   */\n      swap2\n      pop\n        /* \"#utility.yul\":6884:7130   */\n      pop\n        /* \"#utility.yul\":7213:7217   */\n      0x20\n        /* \"#utility.yul\":7206:7211   */\n      dup4\n        /* \"#utility.yul\":7202:7218   */\n      add\n        /* \"#utility.yul\":7196:7219   */\n      mload\n        /* \"#utility.yul\":7232:7295   */\n      tag_347\n        /* \"#utility.yul\":7289:7293   */\n      0x20\n        /* \"#utility.yul\":7284:7287   */\n      dup7\n        /* \"#utility.yul\":7280:7294   */\n      add\n        /* \"#utility.yul\":7266:7278   */\n      dup3\n        /* \"#utility.yul\":7232:7295   */\n      tag_223\n      jump\t// in\n    tag_347:\n        /* \"#utility.yul\":7140:7305   */\n      pop\n        /* \"#utility.yul\":7388:7392   */\n      0x40\n        /* \"#utility.yul\":7381:7386   */\n      dup4\n        /* \"#utility.yul\":7377:7393   */\n      add\n        /* \"#utility.yul\":7371:7394   */\n      mload\n        /* \"#utility.yul\":7441:7444   */\n      dup5\n        /* \"#utility.yul\":7435:7439   */\n      dup3\n        /* \"#utility.yul\":7431:7445   */\n      sub\n        /* \"#utility.yul\":7424:7428   */\n      0x40\n        /* \"#utility.yul\":7419:7422   */\n      dup7\n        /* \"#utility.yul\":7415:7429   */\n      add\n        /* \"#utility.yul\":7408:7446   */\n      mstore\n        /* \"#utility.yul\":7467:7540   */\n      tag_348\n        /* \"#utility.yul\":7535:7539   */\n      dup3\n        /* \"#utility.yul\":7521:7533   */\n      dup3\n        /* \"#utility.yul\":7467:7540   */\n      tag_233\n      jump\t// in\n    tag_348:\n        /* \"#utility.yul\":7459:7540   */\n      swap2\n      pop\n        /* \"#utility.yul\":7315:7551   */\n      pop\n        /* \"#utility.yul\":7638:7642   */\n      0x60\n        /* \"#utility.yul\":7631:7636   */\n      dup4\n        /* \"#utility.yul\":7627:7643   */\n      add\n        /* \"#utility.yul\":7621:7644   */\n      mload\n        /* \"#utility.yul\":7657:7720   */\n      tag_349\n        /* \"#utility.yul\":7714:7718   */\n      0x60\n        /* \"#utility.yul\":7709:7712   */\n      dup7\n        /* \"#utility.yul\":7705:7719   */\n      add\n        /* \"#utility.yul\":7691:7703   */\n      dup3\n        /* \"#utility.yul\":7657:7720   */\n      tag_223\n      jump\t// in\n    tag_349:\n        /* \"#utility.yul\":7561:7730   */\n      pop\n        /* \"#utility.yul\":7747:7751   */\n      dup1\n        /* \"#utility.yul\":7740:7751   */\n      swap2\n      pop\n        /* \"#utility.yul\":6838:7757   */\n      pop\n        /* \"#utility.yul\":6708:7757   */\n      swap3\n      swap2\n      pop\n      pop\n      jump\t// out\n        /* \"#utility.yul\":7763:8051   */\n    tag_235:\n        /* \"#utility.yul\":7898:7908   */\n      0x00\n        /* \"#utility.yul\":7933:8045   */\n      tag_351\n        /* \"#utility.yul\":8041:8044   */\n      dup4\n        /* \"#utility.yul\":8033:8039   */\n      dup4\n        /* \"#utility.yul\":7933:8045   */\n      tag_234\n      jump\t// in\n    tag_351:\n        /* \"#utility.yul\":7919:8045   */\n      swap1\n      pop\n        /* \"#utility.yul\":7763:8051   */\n      swap3\n      swap2\n      pop\n      pop\n      jump\t// out\n        /* \"#utility.yul\":8057:8203   */\n    tag_236:\n        /* \"#utility.yul\":8160:8164   */\n      0x00\n        /* \"#utility.yul\":8192:8196   */\n      0x20\n        /* \"#utility.yul\":8187:8190   */\n      dup3\n        /* \"#utility.yul\":8183:8197   */\n      add\n        /* \"#utility.yul\":8175:8197   */\n      swap1\n      pop\n        /* \"#utility.yul\":8057:8203   */\n      swap2\n      swap1\n      pop\n      jump\t// out\n        /* \"#utility.yul\":8325:9500   */\n    tag_237:\n        /* \"#utility.yul\":8510:8513   */\n      0x00\n        /* \"#utility.yul\":8539:8626   */\n      tag_354\n        /* \"#utility.yul\":8620:8625   */\n      dup3\n        /* \"#utility.yul\":8539:8626   */\n      tag_227\n      jump\t// in\n    tag_354:\n        /* \"#utility.yul\":8642:8761   */\n      tag_355\n        /* \"#utility.yul\":8754:8760   */\n      dup2\n        /* \"#utility.yul\":8749:8752   */\n      dup6\n        /* \"#utility.yul\":8642:8761   */\n      tag_228\n      jump\t// in\n    tag_355:\n        /* \"#utility.yul\":8635:8761   */\n      swap4\n      pop\n        /* \"#utility.yul\":8787:8790   */\n      dup4\n        /* \"#utility.yul\":8832:8836   */\n      0x20\n        /* \"#utility.yul\":8824:8830   */\n      dup3\n        /* \"#utility.yul\":8820:8837   */\n      mul\n        /* \"#utility.yul\":8815:8818   */\n      dup6\n        /* \"#utility.yul\":8811:8838   */\n      add\n        /* \"#utility.yul\":8862:8951   */\n      tag_356\n        /* \"#utility.yul\":8945:8950   */\n      dup6\n        /* \"#utility.yul\":8862:8951   */\n      tag_229\n      jump\t// in\n    tag_356:\n        /* \"#utility.yul\":8974:8981   */\n      dup1\n        /* \"#utility.yul\":9005:9006   */\n      0x00\n        /* \"#utility.yul\":8990:9455   */\n    tag_357:\n        /* \"#utility.yul\":9015:9021   */\n      dup6\n        /* \"#utility.yul\":9012:9013   */\n      dup2\n        /* \"#utility.yul\":9009:9022   */\n      lt\n        /* \"#utility.yul\":8990:9455   */\n      iszero\n      tag_359\n      jumpi\n        /* \"#utility.yul\":9086:9095   */\n      dup5\n        /* \"#utility.yul\":9080:9084   */\n      dup5\n        /* \"#utility.yul\":9076:9096   */\n      sub\n        /* \"#utility.yul\":9071:9074   */\n      dup10\n        /* \"#utility.yul\":9064:9097   */\n      mstore\n        /* \"#utility.yul\":9137:9143   */\n      dup2\n        /* \"#utility.yul\":9131:9144   */\n      mload\n        /* \"#utility.yul\":9165:9295   */\n      tag_360\n        /* \"#utility.yul\":9290:9294   */\n      dup6\n        /* \"#utility.yul\":9275:9288   */\n      dup3\n        /* \"#utility.yul\":9165:9295   */\n      tag_235\n      jump\t// in\n    tag_360:\n        /* \"#utility.yul\":9157:9295   */\n      swap5\n      pop\n        /* \"#utility.yul\":9318:9411   */\n      tag_361\n        /* \"#utility.yul\":9404:9410   */\n      dup4\n        /* \"#utility.yul\":9318:9411   */\n      tag_236\n      jump\t// in\n    tag_361:\n        /* \"#utility.yul\":9308:9411   */\n      swap3\n      pop\n        /* \"#utility.yul\":9440:9444   */\n      0x20\n        /* \"#utility.yul\":9435:9438   */\n      dup11\n        /* \"#utility.yul\":9431:9445   */\n      add\n        /* \"#utility.yul\":9424:9445   */\n      swap10\n      pop\n        /* \"#utility.yul\":9050:9455   */\n      pop\n        /* \"#utility.yul\":9037:9038   */\n      0x01\n        /* \"#utility.yul\":9034:9035   */\n      dup2\n        /* \"#utility.yul\":9030:9039   */\n      add\n        /* \"#utility.yul\":9025:9039   */\n      swap1\n      pop\n        /* \"#utility.yul\":8990:9455   */\n      jump(tag_357)\n    tag_359:\n        /* \"#utility.yul\":8994:9008   */\n      pop\n        /* \"#utility.yul\":9471:9475   */\n      dup3\n        /* \"#utility.yul\":9464:9475   */\n      swap8\n      pop\n        /* \"#utility.yul\":9491:9494   */\n      dup8\n        /* \"#utility.yul\":9484:9494   */\n      swap6\n      pop\n        /* \"#utility.yul\":8515:9500   */\n      pop\n      pop\n      pop\n      pop\n      pop\n        /* \"#utility.yul\":8325:9500   */\n      swap3\n      swap2\n      pop\n      pop\n      jump\t// out\n        /* \"#utility.yul\":9506:10011   */\n    tag_22:\n        /* \"#utility.yul\":9715:9719   */\n      0x00\n        /* \"#utility.yul\":9753:9755   */\n      0x20\n        /* \"#utility.yul\":9742:9751   */\n      dup3\n        /* \"#utility.yul\":9738:9756   */\n      add\n        /* \"#utility.yul\":9730:9756   */\n      swap1\n      pop\n        /* \"#utility.yul\":9802:9811   */\n      dup2\n        /* \"#utility.yul\":9796:9800   */\n      dup2\n        /* \"#utility.yul\":9792:9812   */\n      sub\n        /* \"#utility.yul\":9788:9789   */\n      0x00\n        /* \"#utility.yul\":9777:9786   */\n      dup4\n        /* \"#utility.yul\":9773:9790   */\n      add\n        /* \"#utility.yul\":9766:9813   */\n      mstore\n        /* \"#utility.yul\":9830:10004   */\n      tag_363\n        /* \"#utility.yul\":9999:10003   */\n      dup2\n        /* \"#utility.yul\":9990:9996   */\n      dup5\n        /* \"#utility.yul\":9830:10004   */\n      tag_237\n      jump\t// in\n    tag_363:\n        /* \"#utility.yul\":9822:10004   */\n      swap1\n      pop\n        /* \"#utility.yul\":9506:10011   */\n      swap3\n      swap2\n      pop\n      pop\n      jump\t// out\n        /* \"#utility.yul\":10017:10139   */\n    tag_238:\n        /* \"#utility.yul\":10090:10114   */\n      tag_365\n        /* \"#utility.yul\":10108:10113   */\n      dup2\n        /* \"#utility.yul\":10090:10114   */\n      tag_222\n      jump\t// in\n    tag_365:\n        /* \"#utility.yul\":10083:10088   */\n      dup2\n        /* \"#utility.yul\":10080:10115   */\n      eq\n        /* \"#utility.yul\":10070:10133   */\n      tag_366\n      jumpi\n        /* \"#utility.yul\":10129:10130   */\n      0x00\n        /* \"#utility.yul\":10126:10127   */\n      dup1\n        /* \"#utility.yul\":10119:10131   */\n      revert\n        /* \"#utility.yul\":10070:10133   */\n    tag_366:\n        /* \"#utility.yul\":10017:10139   */\n      pop\n      jump\t// out\n        /* \"#utility.yul\":10145:10284   */\n    tag_239:\n        /* \"#utility.yul\":10191:10196   */\n      0x00\n        /* \"#utility.yul\":10229:10235   */\n      dup2\n        /* \"#utility.yul\":10216:10236   */\n      calldataload\n        /* \"#utility.yul\":10207:10236   */\n      swap1\n      pop\n        /* \"#utility.yul\":10245:10278   */\n      tag_368\n        /* \"#utility.yul\":10272:10277   */\n      dup2\n        /* \"#utility.yul\":10245:10278   */\n      tag_238\n      jump\t// in\n    tag_368:\n        /* \"#utility.yul\":10145:10284   */\n      swap3\n      swap2\n      pop\n      pop\n      jump\t// out\n        /* \"#utility.yul\":10290:10619   */\n    tag_25:\n        /* \"#utility.yul\":10349:10355   */\n      0x00\n        /* \"#utility.yul\":10398:10400   */\n      0x20\n        /* \"#utility.yul\":10386:10395   */\n      dup3\n        /* \"#utility.yul\":10377:10384   */\n      dup5\n        /* \"#utility.yul\":10373:10396   */\n      sub\n        /* \"#utility.yul\":10369:10401   */\n      slt\n        /* \"#utility.yul\":10366:10485   */\n      iszero\n      tag_370\n      jumpi\n        /* \"#utility.yul\":10404:10483   */\n      tag_371\n      tag_208\n      jump\t// in\n    tag_371:\n        /* \"#utility.yul\":10366:10485   */\n    tag_370:\n        /* \"#utility.yul\":10524:10525   */\n      0x00\n        /* \"#utility.yul\":10549:10602   */\n      tag_372\n        /* \"#utility.yul\":10594:10601   */\n      dup5\n        /* \"#utility.yul\":10585:10591   */\n      dup3\n        /* \"#utility.yul\":10574:10583   */\n      dup6\n        /* \"#utility.yul\":10570:10592   */\n      add\n        /* \"#utility.yul\":10549:10602   */\n      tag_239\n      jump\t// in\n    tag_372:\n        /* \"#utility.yul\":10539:10602   */\n      swap2\n      pop\n        /* \"#utility.yul\":10495:10612   */\n      pop\n        /* \"#utility.yul\":10290:10619   */\n      swap3\n      swap2\n      pop\n      pop\n      jump\t// out\n        /* \"#utility.yul\":10625:10794   */\n    tag_240:\n        /* \"#utility.yul\":10709:10720   */\n      0x00\n        /* \"#utility.yul\":10743:10749   */\n      dup3\n        /* \"#utility.yul\":10738:10741   */\n      dup3\n        /* \"#utility.yul\":10731:10750   */\n      mstore\n        /* \"#utility.yul\":10783:10787   */\n      0x20\n        /* \"#utility.yul\":10778:10781   */\n      dup3\n        /* \"#utility.yul\":10774:10788   */\n      add\n        /* \"#utility.yul\":10759:10788   */\n      swap1\n      pop\n        /* \"#utility.yul\":10625:10794   */\n      swap3\n      swap2\n      pop\n      pop\n      jump\t// out\n        /* \"#utility.yul\":10800:11177   */\n    tag_241:\n        /* \"#utility.yul\":10888:10891   */\n      0x00\n        /* \"#utility.yul\":10916:10955   */\n      tag_375\n        /* \"#utility.yul\":10949:10954   */\n      dup3\n        /* \"#utility.yul\":10916:10955   */\n      tag_230\n      jump\t// in\n    tag_375:\n        /* \"#utility.yul\":10971:11042   */\n      tag_376\n        /* \"#utility.yul\":11035:11041   */\n      dup2\n        /* \"#utility.yul\":11030:11033   */\n      dup6\n        /* \"#utility.yul\":10971:11042   */\n      tag_240\n      jump\t// in\n    tag_376:\n        /* \"#utility.yul\":10964:11042   */\n      swap4\n      pop\n        /* \"#utility.yul\":11051:11116   */\n      tag_377\n        /* \"#utility.yul\":11109:11115   */\n      dup2\n        /* \"#utility.yul\":11104:11107   */\n      dup6\n        /* \"#utility.yul\":11097:11101   */\n      0x20\n        /* \"#utility.yul\":11090:11095   */\n      dup7\n        /* \"#utility.yul\":11086:11102   */\n      add\n        /* \"#utility.yul\":11051:11116   */\n      tag_232\n      jump\t// in\n    tag_377:\n        /* \"#utility.yul\":11141:11170   */\n      tag_378\n        /* \"#utility.yul\":11163:11169   */\n      dup2\n        /* \"#utility.yul\":11141:11170   */\n      tag_212\n      jump\t// in\n    tag_378:\n        /* \"#utility.yul\":11136:11139   */\n      dup5\n        /* \"#utility.yul\":11132:11171   */\n      add\n        /* \"#utility.yul\":11125:11171   */\n      swap2\n      pop\n        /* \"#utility.yul\":10892:11177   */\n      pop\n        /* \"#utility.yul\":10800:11177   */\n      swap3\n      swap2\n      pop\n      pop\n      jump\t// out\n        /* \"#utility.yul\":11183:11301   */\n    tag_242:\n        /* \"#utility.yul\":11270:11294   */\n      tag_380\n        /* \"#utility.yul\":11288:11293   */\n      dup2\n        /* \"#utility.yul\":11270:11294   */\n      tag_222\n      jump\t// in\n    tag_380:\n        /* \"#utility.yul\":11265:11268   */\n      dup3\n        /* \"#utility.yul\":11258:11295   */\n      mstore\n        /* \"#utility.yul\":11183:11301   */\n      pop\n      pop\n      jump\t// out\n        /* \"#utility.yul\":11307:12042   */\n    tag_28:\n        /* \"#utility.yul\":11524:11528   */\n      0x00\n        /* \"#utility.yul\":11562:11565   */\n      0x80\n        /* \"#utility.yul\":11551:11560   */\n      dup3\n        /* \"#utility.yul\":11547:11566   */\n      add\n        /* \"#utility.yul\":11539:11566   */\n      swap1\n      pop\n        /* \"#utility.yul\":11612:11621   */\n      dup2\n        /* \"#utility.yul\":11606:11610   */\n      dup2\n        /* \"#utility.yul\":11602:11622   */\n      sub\n        /* \"#utility.yul\":11598:11599   */\n      0x00\n        /* \"#utility.yul\":11587:11596   */\n      dup4\n        /* \"#utility.yul\":11583:11600   */\n      add\n        /* \"#utility.yul\":11576:11623   */\n      mstore\n        /* \"#utility.yul\":11640:11718   */\n      tag_382\n        /* \"#utility.yul\":11713:11717   */\n      dup2\n        /* \"#utility.yul\":11704:11710   */\n      dup8\n        /* \"#utility.yul\":11640:11718   */\n      tag_241\n      jump\t// in\n    tag_382:\n        /* \"#utility.yul\":11632:11718   */\n      swap1\n      pop\n        /* \"#utility.yul\":11728:11800   */\n      tag_383\n        /* \"#utility.yul\":11796:11798   */\n      0x20\n        /* \"#utility.yul\":11785:11794   */\n      dup4\n        /* \"#utility.yul\":11781:11799   */\n      add\n        /* \"#utility.yul\":11772:11778   */\n      dup7\n        /* \"#utility.yul\":11728:11800   */\n      tag_242\n      jump\t// in\n    tag_383:\n        /* \"#utility.yul\":11847:11856   */\n      dup2\n        /* \"#utility.yul\":11841:11845   */\n      dup2\n        /* \"#utility.yul\":11837:11857   */\n      sub\n        /* \"#utility.yul\":11832:11834   */\n      0x40\n        /* \"#utility.yul\":11821:11830   */\n      dup4\n        /* \"#utility.yul\":11817:11835   */\n      add\n        /* \"#utility.yul\":11810:11858   */\n      mstore\n        /* \"#utility.yul\":11875:11953   */\n      tag_384\n        /* \"#utility.yul\":11948:11952   */\n      dup2\n        /* \"#utility.yul\":11939:11945   */\n      dup6\n        /* \"#utility.yul\":11875:11953   */\n      tag_241\n      jump\t// in\n    tag_384:\n        /* \"#utility.yul\":11867:11953   */\n      swap1\n      pop\n        /* \"#utility.yul\":11963:12035   */\n      tag_385\n        /* \"#utility.yul\":12031:12033   */\n      0x60\n        /* \"#utility.yul\":12020:12029   */\n      dup4\n        /* \"#utility.yul\":12016:12034   */\n      add\n        /* \"#utility.yul\":12007:12013   */\n      dup5\n        /* \"#utility.yul\":11963:12035   */\n      tag_242\n      jump\t// in\n    tag_385:\n        /* \"#utility.yul\":11307:12042   */\n      swap6\n      swap5\n      pop\n      pop\n      pop\n      pop\n      pop\n      jump\t// out\n        /* \"#utility.yul\":12048:12369   */\n    tag_243:\n        /* \"#utility.yul\":12135:12139   */\n      0x00\n        /* \"#utility.yul\":12225:12243   */\n      0xffffffffffffffff\n        /* \"#utility.yul\":12217:12223   */\n      dup3\n        /* \"#utility.yul\":12214:12244   */\n      gt\n        /* \"#utility.yul\":12211:12267   */\n      iszero\n      tag_387\n      jumpi\n        /* \"#utility.yul\":12247:12265   */\n      tag_388\n      tag_63\n      jump\t// in\n    tag_388:\n        /* \"#utility.yul\":12211:12267   */\n    tag_387:\n        /* \"#utility.yul\":12297:12301   */\n      0x20\n        /* \"#utility.yul\":12289:12295   */\n      dup3\n        /* \"#utility.yul\":12285:12302   */\n      mul\n        /* \"#utility.yul\":12277:12302   */\n      swap1\n      pop\n        /* \"#utility.yul\":12357:12361   */\n      0x20\n        /* \"#utility.yul\":12351:12355   */\n      dup2\n        /* \"#utility.yul\":12347:12362   */\n      add\n        /* \"#utility.yul\":12339:12362   */\n      swap1\n      pop\n        /* \"#utility.yul\":12048:12369   */\n      swap2\n      swap1\n      pop\n      jump\t// out\n        /* \"#utility.yul\":12375:12492   */\n    tag_244:\n        /* \"#utility.yul\":12484:12485   */\n      0x00\n        /* \"#utility.yul\":12481:12482   */\n      dup1\n        /* \"#utility.yul\":12474:12486   */\n      revert\n        /* \"#utility.yul\":12514:13459   */\n    tag_245:\n        /* \"#utility.yul\":12620:12625   */\n      0x00\n        /* \"#utility.yul\":12645:12736   */\n      tag_391\n        /* \"#utility.yul\":12661:12735   */\n      tag_392\n        /* \"#utility.yul\":12728:12734   */\n      dup5\n        /* \"#utility.yul\":12661:12735   */\n      tag_243\n      jump\t// in\n    tag_392:\n        /* \"#utility.yul\":12645:12736   */\n      tag_214\n      jump\t// in\n    tag_391:\n        /* \"#utility.yul\":12636:12736   */\n      swap1\n      pop\n        /* \"#utility.yul\":12756:12761   */\n      dup1\n        /* \"#utility.yul\":12785:12791   */\n      dup4\n        /* \"#utility.yul\":12778:12783   */\n      dup3\n        /* \"#utility.yul\":12771:12792   */\n      mstore\n        /* \"#utility.yul\":12819:12823   */\n      0x20\n        /* \"#utility.yul\":12812:12817   */\n      dup3\n        /* \"#utility.yul\":12808:12824   */\n      add\n        /* \"#utility.yul\":12801:12824   */\n      swap1\n      pop\n        /* \"#utility.yul\":12872:12876   */\n      0x20\n        /* \"#utility.yul\":12864:12870   */\n      dup5\n        /* \"#utility.yul\":12860:12877   */\n      mul\n        /* \"#utility.yul\":12852:12858   */\n      dup4\n        /* \"#utility.yul\":12848:12878   */\n      add\n        /* \"#utility.yul\":12901:12904   */\n      dup6\n        /* \"#utility.yul\":12893:12899   */\n      dup2\n        /* \"#utility.yul\":12890:12905   */\n      gt\n        /* \"#utility.yul\":12887:13009   */\n      iszero\n      tag_393\n      jumpi\n        /* \"#utility.yul\":12920:12999   */\n      tag_394\n      tag_244\n      jump\t// in\n    tag_394:\n        /* \"#utility.yul\":12887:13009   */\n    tag_393:\n        /* \"#utility.yul\":13035:13041   */\n      dup4\n        /* \"#utility.yul\":13018:13453   */\n    tag_395:\n        /* \"#utility.yul\":13052:13058   */\n      dup2\n        /* \"#utility.yul\":13047:13050   */\n      dup2\n        /* \"#utility.yul\":13044:13059   */\n      lt\n        /* \"#utility.yul\":13018:13453   */\n      iszero\n      tag_397\n      jumpi\n        /* \"#utility.yul\":13141:13144   */\n      dup1\n        /* \"#utility.yul\":13128:13145   */\n      calldataload\n        /* \"#utility.yul\":13177:13195   */\n      0xffffffffffffffff\n        /* \"#utility.yul\":13164:13175   */\n      dup2\n        /* \"#utility.yul\":13161:13196   */\n      gt\n        /* \"#utility.yul\":13158:13280   */\n      iszero\n      tag_398\n      jumpi\n        /* \"#utility.yul\":13199:13278   */\n      tag_399\n      tag_210\n      jump\t// in\n    tag_399:\n        /* \"#utility.yul\":13158:13280   */\n    tag_398:\n        /* \"#utility.yul\":13323:13334   */\n      dup1\n        /* \"#utility.yul\":13315:13321   */\n      dup7\n        /* \"#utility.yul\":13311:13335   */\n      add\n        /* \"#utility.yul\":13361:13408   */\n      tag_400\n        /* \"#utility.yul\":13404:13407   */\n      dup10\n        /* \"#utility.yul\":13392:13402   */\n      dup3\n        /* \"#utility.yul\":13361:13408   */\n      tag_218\n      jump\t// in\n    tag_400:\n        /* \"#utility.yul\":13356:13359   */\n      dup6\n        /* \"#utility.yul\":13349:13409   */\n      mstore\n        /* \"#utility.yul\":13438:13442   */\n      0x20\n        /* \"#utility.yul\":13433:13436   */\n      dup6\n        /* \"#utility.yul\":13429:13443   */\n      add\n        /* \"#utility.yul\":13422:13443   */\n      swap5\n      pop\n        /* \"#utility.yul\":13094:13453   */\n      pop\n      pop\n        /* \"#utility.yul\":13078:13082   */\n      0x20\n        /* \"#utility.yul\":13073:13076   */\n      dup2\n        /* \"#utility.yul\":13069:13083   */\n      add\n        /* \"#utility.yul\":13062:13083   */\n      swap1\n      pop\n        /* \"#utility.yul\":13018:13453   */\n      jump(tag_395)\n    tag_397:\n        /* \"#utility.yul\":13022:13043   */\n      pop\n        /* \"#utility.yul\":12626:13459   */\n      pop\n      pop\n        /* \"#utility.yul\":12514:13459   */\n      swap4\n      swap3\n      pop\n      pop\n      pop\n      jump\t// out\n        /* \"#utility.yul\":13481:13871   */\n    tag_246:\n        /* \"#utility.yul\":13562:13567   */\n      0x00\n        /* \"#utility.yul\":13611:13614   */\n      dup3\n        /* \"#utility.yul\":13604:13608   */\n      0x1f\n        /* \"#utility.yul\":13596:13602   */\n      dup4\n        /* \"#utility.yul\":13592:13609   */\n      add\n        /* \"#utility.yul\":13588:13615   */\n      slt\n        /* \"#utility.yul\":13578:13700   */\n      tag_402\n      jumpi\n        /* \"#utility.yul\":13619:13698   */\n      tag_403\n      tag_210\n      jump\t// in\n    tag_403:\n        /* \"#utility.yul\":13578:13700   */\n    tag_402:\n        /* \"#utility.yul\":13736:13742   */\n      dup2\n        /* \"#utility.yul\":13723:13743   */\n      calldataload\n        /* \"#utility.yul\":13761:13865   */\n      tag_404\n        /* \"#utility.yul\":13861:13864   */\n      dup5\n        /* \"#utility.yul\":13853:13859   */\n      dup3\n        /* \"#utility.yul\":13846:13850   */\n      0x20\n        /* \"#utility.yul\":13838:13844   */\n      dup7\n        /* \"#utility.yul\":13834:13851   */\n      add\n        /* \"#utility.yul\":13761:13865   */\n      tag_245\n      jump\t// in\n    tag_404:\n        /* \"#utility.yul\":13752:13865   */\n      swap2\n      pop\n        /* \"#utility.yul\":13568:13871   */\n      pop\n        /* \"#utility.yul\":13481:13871   */\n      swap3\n      swap2\n      pop\n      pop\n      jump\t// out\n        /* \"#utility.yul\":13877:14188   */\n    tag_247:\n        /* \"#utility.yul\":13954:13958   */\n      0x00\n        /* \"#utility.yul\":14044:14062   */\n      0xffffffffffffffff\n        /* \"#utility.yul\":14036:14042   */\n      dup3\n        /* \"#utility.yul\":14033:14063   */\n      gt\n        /* \"#utility.yul\":14030:14086   */\n      iszero\n      tag_406\n      jumpi\n        /* \"#utility.yul\":14066:14084   */\n      tag_407\n      tag_63\n      jump\t// in\n    tag_407:\n        /* \"#utility.yul\":14030:14086   */\n    tag_406:\n        /* \"#utility.yul\":14116:14120   */\n      0x20\n        /* \"#utility.yul\":14108:14114   */\n      dup3\n        /* \"#utility.yul\":14104:14121   */\n      mul\n        /* \"#utility.yul\":14096:14121   */\n      swap1\n      pop\n        /* \"#utility.yul\":14176:14180   */\n      0x20\n        /* \"#utility.yul\":14170:14174   */\n      dup2\n        /* \"#utility.yul\":14166:14181   */\n      add\n        /* \"#utility.yul\":14158:14181   */\n      swap1\n      pop\n        /* \"#utility.yul\":13877:14188   */\n      swap2\n      swap1\n      pop\n      jump\t// out\n        /* \"#utility.yul\":14211:14921   */\n    tag_248:\n        /* \"#utility.yul\":14307:14312   */\n      0x00\n        /* \"#utility.yul\":14332:14413   */\n      tag_409\n        /* \"#utility.yul\":14348:14412   */\n      tag_410\n        /* \"#utility.yul\":14405:14411   */\n      dup5\n        /* \"#utility.yul\":14348:14412   */\n      tag_247\n      jump\t// in\n    tag_410:\n        /* \"#utility.yul\":14332:14413   */\n      tag_214\n      jump\t// in\n    tag_409:\n        /* \"#utility.yul\":14323:14413   */\n      swap1\n      pop\n        /* \"#utility.yul\":14433:14438   */\n      dup1\n        /* \"#utility.yul\":14462:14468   */\n      dup4\n        /* \"#utility.yul\":14455:14460   */\n      dup3\n        /* \"#utility.yul\":14448:14469   */\n      mstore\n        /* \"#utility.yul\":14496:14500   */\n      0x20\n        /* \"#utility.yul\":14489:14494   */\n      dup3\n        /* \"#utility.yul\":14485:14501   */\n      add\n        /* \"#utility.yul\":14478:14501   */\n      swap1\n      pop\n        /* \"#utility.yul\":14549:14553   */\n      0x20\n        /* \"#utility.yul\":14541:14547   */\n      dup5\n        /* \"#utility.yul\":14537:14554   */\n      mul\n        /* \"#utility.yul\":14529:14535   */\n      dup4\n        /* \"#utility.yul\":14525:14555   */\n      add\n        /* \"#utility.yul\":14578:14581   */\n      dup6\n        /* \"#utility.yul\":14570:14576   */\n      dup2\n        /* \"#utility.yul\":14567:14582   */\n      gt\n        /* \"#utility.yul\":14564:14686   */\n      iszero\n      tag_411\n      jumpi\n        /* \"#utility.yul\":14597:14676   */\n      tag_412\n      tag_244\n      jump\t// in\n    tag_412:\n        /* \"#utility.yul\":14564:14686   */\n    tag_411:\n        /* \"#utility.yul\":14712:14718   */\n      dup4\n        /* \"#utility.yul\":14695:14915   */\n    tag_413:\n        /* \"#utility.yul\":14729:14735   */\n      dup2\n        /* \"#utility.yul\":14724:14727   */\n      dup2\n        /* \"#utility.yul\":14721:14736   */\n      lt\n        /* \"#utility.yul\":14695:14915   */\n      iszero\n      tag_415\n      jumpi\n        /* \"#utility.yul\":14804:14807   */\n      dup1\n        /* \"#utility.yul\":14833:14870   */\n      tag_416\n        /* \"#utility.yul\":14866:14869   */\n      dup9\n        /* \"#utility.yul\":14854:14864   */\n      dup3\n        /* \"#utility.yul\":14833:14870   */\n      tag_239\n      jump\t// in\n    tag_416:\n        /* \"#utility.yul\":14828:14831   */\n      dup5\n        /* \"#utility.yul\":14821:14871   */\n      mstore\n        /* \"#utility.yul\":14900:14904   */\n      0x20\n        /* \"#utility.yul\":14895:14898   */\n      dup5\n        /* \"#utility.yul\":14891:14905   */\n      add\n        /* \"#utility.yul\":14884:14905   */\n      swap4\n      pop\n        /* \"#utility.yul\":14771:14915   */\n      pop\n        /* \"#utility.yul\":14755:14759   */\n      0x20\n        /* \"#utility.yul\":14750:14753   */\n      dup2\n        /* \"#utility.yul\":14746:14760   */\n      add\n        /* \"#utility.yul\":14739:14760   */\n      swap1\n      pop\n        /* \"#utility.yul\":14695:14915   */\n      jump(tag_413)\n    tag_415:\n        /* \"#utility.yul\":14699:14720   */\n      pop\n        /* \"#utility.yul\":14313:14921   */\n      pop\n      pop\n        /* \"#utility.yul\":14211:14921   */\n      swap4\n      swap3\n      pop\n      pop\n      pop\n      jump\t// out\n        /* \"#utility.yul\":14944:15314   */\n    tag_249:\n        /* \"#utility.yul\":15015:15020   */\n      0x00\n        /* \"#utility.yul\":15064:15067   */\n      dup3\n        /* \"#utility.yul\":15057:15061   */\n      0x1f\n        /* \"#utility.yul\":15049:15055   */\n      dup4\n        /* \"#utility.yul\":15045:15062   */\n      add\n        /* \"#utility.yul\":15041:15068   */\n      slt\n        /* \"#utility.yul\":15031:15153   */\n      tag_418\n      jumpi\n        /* \"#utility.yul\":15072:15151   */\n      tag_419\n      tag_210\n      jump\t// in\n    tag_419:\n        /* \"#utility.yul\":15031:15153   */\n    tag_418:\n        /* \"#utility.yul\":15189:15195   */\n      dup2\n        /* \"#utility.yul\":15176:15196   */\n      calldataload\n        /* \"#utility.yul\":15214:15308   */\n      tag_420\n        /* \"#utility.yul\":15304:15307   */\n      dup5\n        /* \"#utility.yul\":15296:15302   */\n      dup3\n        /* \"#utility.yul\":15289:15293   */\n      0x20\n        /* \"#utility.yul\":15281:15287   */\n      dup7\n        /* \"#utility.yul\":15277:15294   */\n      add\n        /* \"#utility.yul\":15214:15308   */\n      tag_248\n      jump\t// in\n    tag_420:\n        /* \"#utility.yul\":15205:15308   */\n      swap2\n      pop\n        /* \"#utility.yul\":15021:15314   */\n      pop\n        /* \"#utility.yul\":14944:15314   */\n      swap3\n      swap2\n      pop\n      pop\n      jump\t// out\n        /* \"#utility.yul\":15320:16965   */\n    tag_31:\n        /* \"#utility.yul\":15526:15532   */\n      0x00\n        /* \"#utility.yul\":15534:15540   */\n      dup1\n        /* \"#utility.yul\":15542:15548   */\n      0x00\n        /* \"#utility.yul\":15550:15556   */\n      dup1\n        /* \"#utility.yul\":15599:15602   */\n      0x80\n        /* \"#utility.yul\":15587:15596   */\n      dup6\n        /* \"#utility.yul\":15578:15585   */\n      dup8\n        /* \"#utility.yul\":15574:15597   */\n      sub\n        /* \"#utility.yul\":15570:15603   */\n      slt\n        /* \"#utility.yul\":15567:15687   */\n      iszero\n      tag_422\n      jumpi\n        /* \"#utility.yul\":15606:15685   */\n      tag_423\n      tag_208\n      jump\t// in\n    tag_423:\n        /* \"#utility.yul\":15567:15687   */\n    tag_422:\n        /* \"#utility.yul\":15754:15755   */\n      0x00\n        /* \"#utility.yul\":15743:15752   */\n      dup6\n        /* \"#utility.yul\":15739:15756   */\n      add\n        /* \"#utility.yul\":15726:15757   */\n      calldataload\n        /* \"#utility.yul\":15784:15802   */\n      0xffffffffffffffff\n        /* \"#utility.yul\":15776:15782   */\n      dup2\n        /* \"#utility.yul\":15773:15803   */\n      gt\n        /* \"#utility.yul\":15770:15887   */\n      iszero\n      tag_424\n      jumpi\n        /* \"#utility.yul\":15806:15885   */\n      tag_425\n      tag_209\n      jump\t// in\n    tag_425:\n        /* \"#utility.yul\":15770:15887   */\n    tag_424:\n        /* \"#utility.yul\":15911:15999   */\n      tag_426\n        /* \"#utility.yul\":15991:15998   */\n      dup8\n        /* \"#utility.yul\":15982:15988   */\n      dup3\n        /* \"#utility.yul\":15971:15980   */\n      dup9\n        /* \"#utility.yul\":15967:15989   */\n      add\n        /* \"#utility.yul\":15911:15999   */\n      tag_246\n      jump\t// in\n    tag_426:\n        /* \"#utility.yul\":15901:15999   */\n      swap5\n      pop\n        /* \"#utility.yul\":15697:16009   */\n      pop\n        /* \"#utility.yul\":16076:16078   */\n      0x20\n        /* \"#utility.yul\":16065:16074   */\n      dup6\n        /* \"#utility.yul\":16061:16079   */\n      add\n        /* \"#utility.yul\":16048:16080   */\n      calldataload\n        /* \"#utility.yul\":16107:16125   */\n      0xffffffffffffffff\n        /* \"#utility.yul\":16099:16105   */\n      dup2\n        /* \"#utility.yul\":16096:16126   */\n      gt\n        /* \"#utility.yul\":16093:16210   */\n      iszero\n      tag_427\n      jumpi\n        /* \"#utility.yul\":16129:16208   */\n      tag_428\n      tag_209\n      jump\t// in\n    tag_428:\n        /* \"#utility.yul\":16093:16210   */\n    tag_427:\n        /* \"#utility.yul\":16234:16312   */\n      tag_429\n        /* \"#utility.yul\":16304:16311   */\n      dup8\n        /* \"#utility.yul\":16295:16301   */\n      dup3\n        /* \"#utility.yul\":16284:16293   */\n      dup9\n        /* \"#utility.yul\":16280:16302   */\n      add\n        /* \"#utility.yul\":16234:16312   */\n      tag_249\n      jump\t// in\n    tag_429:\n        /* \"#utility.yul\":16224:16312   */\n      swap4\n      pop\n        /* \"#utility.yul\":16019:16322   */\n      pop\n        /* \"#utility.yul\":16389:16391   */\n      0x40\n        /* \"#utility.yul\":16378:16387   */\n      dup6\n        /* \"#utility.yul\":16374:16392   */\n      add\n        /* \"#utility.yul\":16361:16393   */\n      calldataload\n        /* \"#utility.yul\":16420:16438   */\n      0xffffffffffffffff\n        /* \"#utility.yul\":16412:16418   */\n      dup2\n        /* \"#utility.yul\":16409:16439   */\n      gt\n        /* \"#utility.yul\":16406:16523   */\n      iszero\n      tag_430\n      jumpi\n        /* \"#utility.yul\":16442:16521   */\n      tag_431\n      tag_209\n      jump\t// in\n    tag_431:\n        /* \"#utility.yul\":16406:16523   */\n    tag_430:\n        /* \"#utility.yul\":16547:16635   */\n      tag_432\n        /* \"#utility.yul\":16627:16634   */\n      dup8\n        /* \"#utility.yul\":16618:16624   */\n      dup3\n        /* \"#utility.yul\":16607:16616   */\n      dup9\n        /* \"#utility.yul\":16603:16625   */\n      add\n        /* \"#utility.yul\":16547:16635   */\n      tag_246\n      jump\t// in\n    tag_432:\n        /* \"#utility.yul\":16537:16635   */\n      swap3\n      pop\n        /* \"#utility.yul\":16332:16645   */\n      pop\n        /* \"#utility.yul\":16712:16714   */\n      0x60\n        /* \"#utility.yul\":16701:16710   */\n      dup6\n        /* \"#utility.yul\":16697:16715   */\n      add\n        /* \"#utility.yul\":16684:16716   */\n      calldataload\n        /* \"#utility.yul\":16743:16761   */\n      0xffffffffffffffff\n        /* \"#utility.yul\":16735:16741   */\n      dup2\n        /* \"#utility.yul\":16732:16762   */\n      gt\n        /* \"#utility.yul\":16729:16846   */\n      iszero\n      tag_433\n      jumpi\n        /* \"#utility.yul\":16765:16844   */\n      tag_434\n      tag_209\n      jump\t// in\n    tag_434:\n        /* \"#utility.yul\":16729:16846   */\n    tag_433:\n        /* \"#utility.yul\":16870:16948   */\n      tag_435\n        /* \"#utility.yul\":16940:16947   */\n      dup8\n        /* \"#utility.yul\":16931:16937   */\n      dup3\n        /* \"#utility.yul\":16920:16929   */\n      dup9\n        /* \"#utility.yul\":16916:16938   */\n      add\n        /* \"#utility.yul\":16870:16948   */\n      tag_249\n      jump\t// in\n    tag_435:\n        /* \"#utility.yul\":16860:16948   */\n      swap2\n      pop\n        /* \"#utility.yul\":16655:16958   */\n      pop\n        /* \"#utility.yul\":15320:16965   */\n      swap3\n      swap6\n      swap2\n      swap5\n      pop\n      swap3\n      pop\n      jump\t// out\n        /* \"#utility.yul\":16971:17193   */\n    tag_37:\n        /* \"#utility.yul\":17064:17068   */\n      0x00\n        /* \"#utility.yul\":17102:17104   */\n      0x20\n        /* \"#utility.yul\":17091:17100   */\n      dup3\n        /* \"#utility.yul\":17087:17105   */\n      add\n        /* \"#utility.yul\":17079:17105   */\n      swap1\n      pop\n        /* \"#utility.yul\":17115:17186   */\n      tag_437\n        /* \"#utility.yul\":17183:17184   */\n      0x00\n        /* \"#utility.yul\":17172:17181   */\n      dup4\n        /* \"#utility.yul\":17168:17185   */\n      add\n        /* \"#utility.yul\":17159:17165   */\n      dup5\n        /* \"#utility.yul\":17115:17186   */\n      tag_242\n      jump\t// in\n    tag_437:\n        /* \"#utility.yul\":16971:17193   */\n      swap3\n      swap2\n      pop\n      pop\n      jump\t// out\n        /* \"#utility.yul\":17311:18370   */\n    tag_250:\n        /* \"#utility.yul\":17446:17449   */\n      0x00\n        /* \"#utility.yul\":17482:17486   */\n      0x80\n        /* \"#utility.yul\":17477:17480   */\n      dup4\n        /* \"#utility.yul\":17473:17487   */\n      add\n        /* \"#utility.yul\":17580:17584   */\n      0x00\n        /* \"#utility.yul\":17573:17578   */\n      dup4\n        /* \"#utility.yul\":17569:17585   */\n      add\n        /* \"#utility.yul\":17563:17586   */\n      mload\n        /* \"#utility.yul\":17633:17636   */\n      dup5\n        /* \"#utility.yul\":17627:17631   */\n      dup3\n        /* \"#utility.yul\":17623:17637   */\n      sub\n        /* \"#utility.yul\":17616:17620   */\n      0x00\n        /* \"#utility.yul\":17611:17614   */\n      dup7\n        /* \"#utility.yul\":17607:17621   */\n      add\n        /* \"#utility.yul\":17600:17638   */\n      mstore\n        /* \"#utility.yul\":17659:17732   */\n      tag_439\n        /* \"#utility.yul\":17727:17731   */\n      dup3\n        /* \"#utility.yul\":17713:17725   */\n      dup3\n        /* \"#utility.yul\":17659:17732   */\n      tag_233\n      jump\t// in\n    tag_439:\n        /* \"#utility.yul\":17651:17732   */\n      swap2\n      pop\n        /* \"#utility.yul\":17497:17743   */\n      pop\n        /* \"#utility.yul\":17826:17830   */\n      0x20\n        /* \"#utility.yul\":17819:17824   */\n      dup4\n        /* \"#utility.yul\":17815:17831   */\n      add\n        /* \"#utility.yul\":17809:17832   */\n      mload\n        /* \"#utility.yul\":17845:17908   */\n      tag_440\n        /* \"#utility.yul\":17902:17906   */\n      0x20\n        /* \"#utility.yul\":17897:17900   */\n      dup7\n        /* \"#utility.yul\":17893:17907   */\n      add\n        /* \"#utility.yul\":17879:17891   */\n      dup3\n        /* \"#utility.yul\":17845:17908   */\n      tag_223\n      jump\t// in\n    tag_440:\n        /* \"#utility.yul\":17753:17918   */\n      pop\n        /* \"#utility.yul\":18001:18005   */\n      0x40\n        /* \"#utility.yul\":17994:17999   */\n      dup4\n        /* \"#utility.yul\":17990:18006   */\n      add\n        /* \"#utility.yul\":17984:18007   */\n      mload\n        /* \"#utility.yul\":18054:18057   */\n      dup5\n        /* \"#utility.yul\":18048:18052   */\n      dup3\n        /* \"#utility.yul\":18044:18058   */\n      sub\n        /* \"#utility.yul\":18037:18041   */\n      0x40\n        /* \"#utility.yul\":18032:18035   */\n      dup7\n        /* \"#utility.yul\":18028:18042   */\n      add\n        /* \"#utility.yul\":18021:18059   */\n      mstore\n        /* \"#utility.yul\":18080:18153   */\n      tag_441\n        /* \"#utility.yul\":18148:18152   */\n      dup3\n        /* \"#utility.yul\":18134:18146   */\n      dup3\n        /* \"#utility.yul\":18080:18153   */\n      tag_233\n      jump\t// in\n    tag_441:\n        /* \"#utility.yul\":18072:18153   */\n      swap2\n      pop\n        /* \"#utility.yul\":17928:18164   */\n      pop\n        /* \"#utility.yul\":18251:18255   */\n      0x60\n        /* \"#utility.yul\":18244:18249   */\n      dup4\n        /* \"#utility.yul\":18240:18256   */\n      add\n        /* \"#utility.yul\":18234:18257   */\n      mload\n        /* \"#utility.yul\":18270:18333   */\n      tag_442\n        /* \"#utility.yul\":18327:18331   */\n      0x60\n        /* \"#utility.yul\":18322:18325   */\n      dup7\n        /* \"#utility.yul\":18318:18332   */\n      add\n        /* \"#utility.yul\":18304:18316   */\n      dup3\n        /* \"#utility.yul\":18270:18333   */\n      tag_223\n      jump\t// in\n    tag_442:\n        /* \"#utility.yul\":18174:18343   */\n      pop\n        /* \"#utility.yul\":18360:18364   */\n      dup1\n        /* \"#utility.yul\":18353:18364   */\n      swap2\n      pop\n        /* \"#utility.yul\":17451:18370   */\n      pop\n        /* \"#utility.yul\":17311:18370   */\n      swap3\n      swap2\n      pop\n      pop\n      jump\t// out\n        /* \"#utility.yul\":18376:18781   */\n    tag_48:\n        /* \"#utility.yul\":18535:18539   */\n      0x00\n        /* \"#utility.yul\":18573:18575   */\n      0x20\n        /* \"#utility.yul\":18562:18571   */\n      dup3\n        /* \"#utility.yul\":18558:18576   */\n      add\n        /* \"#utility.yul\":18550:18576   */\n      swap1\n      pop\n        /* \"#utility.yul\":18622:18631   */\n      dup2\n        /* \"#utility.yul\":18616:18620   */\n      dup2\n        /* \"#utility.yul\":18612:18632   */\n      sub\n        /* \"#utility.yul\":18608:18609   */\n      0x00\n        /* \"#utility.yul\":18597:18606   */\n      dup4\n        /* \"#utility.yul\":18593:18610   */\n      add\n        /* \"#utility.yul\":18586:18633   */\n      mstore\n        /* \"#utility.yul\":18650:18774   */\n      tag_444\n        /* \"#utility.yul\":18769:18773   */\n      dup2\n        /* \"#utility.yul\":18760:18766   */\n      dup5\n        /* \"#utility.yul\":18650:18774   */\n      tag_250\n      jump\t// in\n    tag_444:\n        /* \"#utility.yul\":18642:18774   */\n      swap1\n      pop\n        /* \"#utility.yul\":18376:18781   */\n      swap3\n      swap2\n      pop\n      pop\n      jump\t// out\n        /* \"#utility.yul\":18787:18935   */\n    tag_251:\n        /* \"#utility.yul\":18889:18900   */\n      0x00\n        /* \"#utility.yul\":18926:18929   */\n      dup2\n        /* \"#utility.yul\":18911:18929   */\n      swap1\n      pop\n        /* \"#utility.yul\":18787:18935   */\n      swap3\n      swap2\n      pop\n      pop\n      jump\t// out\n        /* \"#utility.yul\":18941:19331   */\n    tag_252:\n        /* \"#utility.yul\":19047:19050   */\n      0x00\n        /* \"#utility.yul\":19075:19114   */\n      tag_447\n        /* \"#utility.yul\":19108:19113   */\n      dup3\n        /* \"#utility.yul\":19075:19114   */\n      tag_230\n      jump\t// in\n    tag_447:\n        /* \"#utility.yul\":19130:19219   */\n      tag_448\n        /* \"#utility.yul\":19212:19218   */\n      dup2\n        /* \"#utility.yul\":19207:19210   */\n      dup6\n        /* \"#utility.yul\":19130:19219   */\n      tag_251\n      jump\t// in\n    tag_448:\n        /* \"#utility.yul\":19123:19219   */\n      swap4\n      pop\n        /* \"#utility.yul\":19228:19293   */\n      tag_449\n        /* \"#utility.yul\":19286:19292   */\n      dup2\n        /* \"#utility.yul\":19281:19284   */\n      dup6\n        /* \"#utility.yul\":19274:19278   */\n      0x20\n        /* \"#utility.yul\":19267:19272   */\n      dup7\n        /* \"#utility.yul\":19263:19279   */\n      add\n        /* \"#utility.yul\":19228:19293   */\n      tag_232\n      jump\t// in\n    tag_449:\n        /* \"#utility.yul\":19318:19324   */\n      dup1\n        /* \"#utility.yul\":19313:19316   */\n      dup5\n        /* \"#utility.yul\":19309:19325   */\n      add\n        /* \"#utility.yul\":19302:19325   */\n      swap2\n      pop\n        /* \"#utility.yul\":19051:19331   */\n      pop\n        /* \"#utility.yul\":18941:19331   */\n      swap3\n      swap2\n      pop\n      pop\n      jump\t// out\n        /* \"#utility.yul\":19337:19612   */\n    tag_54:\n        /* \"#utility.yul\":19469:19472   */\n      0x00\n        /* \"#utility.yul\":19491:19586   */\n      tag_451\n        /* \"#utility.yul\":19582:19585   */\n      dup3\n        /* \"#utility.yul\":19573:19579   */\n      dup5\n        /* \"#utility.yul\":19491:19586   */\n      tag_252\n      jump\t// in\n    tag_451:\n        /* \"#utility.yul\":19484:19586   */\n      swap2\n      pop\n        /* \"#utility.yul\":19603:19606   */\n      dup2\n        /* \"#utility.yul\":19596:19606   */\n      swap1\n      pop\n        /* \"#utility.yul\":19337:19612   */\n      swap3\n      swap2\n      pop\n      pop\n      jump\t// out\n        /* \"#utility.yul\":19618:19798   */\n    tag_253:\n        /* \"#utility.yul\":19666:19743   */\n      0x4e487b7100000000000000000000000000000000000000000000000000000000\n        /* \"#utility.yul\":19663:19664   */\n      0x00\n        /* \"#utility.yul\":19656:19744   */\n      mstore\n        /* \"#utility.yul\":19763:19767   */\n      0x22\n        /* \"#utility.yul\":19760:19761   */\n      0x04\n        /* \"#utility.yul\":19753:19768   */\n      mstore\n        /* \"#utility.yul\":19787:19791   */\n      0x24\n        /* \"#utility.yul\":19784:19785   */\n      0x00\n        /* \"#utility.yul\":19777:19792   */\n      revert\n        /* \"#utility.yul\":19804:20124   */\n    tag_98:\n        /* \"#utility.yul\":19848:19854   */\n      0x00\n        /* \"#utility.yul\":19885:19886   */\n      0x02\n        /* \"#utility.yul\":19879:19883   */\n      dup3\n        /* \"#utility.yul\":19875:19887   */\n      div\n        /* \"#utility.yul\":19865:19887   */\n      swap1\n      pop\n        /* \"#utility.yul\":19932:19933   */\n      0x01\n        /* \"#utility.yul\":19926:19930   */\n      dup3\n        /* \"#utility.yul\":19922:19934   */\n      and\n        /* \"#utility.yul\":19953:19971   */\n      dup1\n        /* \"#utility.yul\":19943:20024   */\n      tag_454\n      jumpi\n        /* \"#utility.yul\":20009:20013   */\n      0x7f\n        /* \"#utility.yul\":20001:20007   */\n      dup3\n        /* \"#utility.yul\":19997:20014   */\n      and\n        /* \"#utility.yul\":19987:20014   */\n      swap2\n      pop\n        /* \"#utility.yul\":19943:20024   */\n    tag_454:\n        /* \"#utility.yul\":20071:20073   */\n      0x20\n        /* \"#utility.yul\":20063:20069   */\n      dup3\n        /* \"#utility.yul\":20060:20074   */\n      lt\n        /* \"#utility.yul\":20040:20058   */\n      dup2\n        /* \"#utility.yul\":20037:20075   */\n      sub\n        /* \"#utility.yul\":20034:20118   */\n      tag_455\n      jumpi\n        /* \"#utility.yul\":20090:20108   */\n      tag_456\n      tag_253\n      jump\t// in\n    tag_456:\n        /* \"#utility.yul\":20034:20118   */\n    tag_455:\n        /* \"#utility.yul\":19855:20124   */\n      pop\n        /* \"#utility.yul\":19804:20124   */\n      swap2\n      swap1\n      pop\n      jump\t// out\n        /* \"#utility.yul\":20130:20271   */\n    tag_254:\n        /* \"#utility.yul\":20179:20183   */\n      0x00\n        /* \"#utility.yul\":20202:20205   */\n      dup2\n        /* \"#utility.yul\":20194:20205   */\n      swap1\n      pop\n        /* \"#utility.yul\":20225:20228   */\n      dup2\n        /* \"#utility.yul\":20222:20223   */\n      0x00\n        /* \"#utility.yul\":20215:20229   */\n      mstore\n        /* \"#utility.yul\":20259:20263   */\n      0x20\n        /* \"#utility.yul\":20256:20257   */\n      0x00\n        /* \"#utility.yul\":20246:20264   */\n      keccak256\n        /* \"#utility.yul\":20238:20264   */\n      swap1\n      pop\n        /* \"#utility.yul\":20130:20271   */\n      swap2\n      swap1\n      pop\n      jump\t// out\n        /* \"#utility.yul\":20301:21175   */\n    tag_255:\n        /* \"#utility.yul\":20404:20407   */\n      0x00\n        /* \"#utility.yul\":20441:20446   */\n      dup2\n        /* \"#utility.yul\":20435:20447   */\n      sload\n        /* \"#utility.yul\":20470:20506   */\n      tag_459\n        /* \"#utility.yul\":20496:20505   */\n      dup2\n        /* \"#utility.yul\":20470:20506   */\n      tag_98\n      jump\t// in\n    tag_459:\n        /* \"#utility.yul\":20522:20611   */\n      tag_460\n        /* \"#utility.yul\":20604:20610   */\n      dup2\n        /* \"#utility.yul\":20599:20602   */\n      dup7\n        /* \"#utility.yul\":20522:20611   */\n      tag_251\n      jump\t// in\n    tag_460:\n        /* \"#utility.yul\":20515:20611   */\n      swap5\n      pop\n        /* \"#utility.yul\":20642:20643   */\n      0x01\n        /* \"#utility.yul\":20631:20640   */\n      dup3\n        /* \"#utility.yul\":20627:20644   */\n      and\n        /* \"#utility.yul\":20658:20659   */\n      0x00\n        /* \"#utility.yul\":20653:20819   */\n      dup2\n      eq\n      tag_462\n      jumpi\n        /* \"#utility.yul\":20833:20834   */\n      0x01\n        /* \"#utility.yul\":20828:21169   */\n      dup2\n      eq\n      tag_463\n      jumpi\n        /* \"#utility.yul\":20620:21169   */\n      jump(tag_461)\n        /* \"#utility.yul\":20653:20819   */\n    tag_462:\n        /* \"#utility.yul\":20737:20741   */\n      0xff\n        /* \"#utility.yul\":20733:20742   */\n      not\n        /* \"#utility.yul\":20722:20731   */\n      dup4\n        /* \"#utility.yul\":20718:20743   */\n      and\n        /* \"#utility.yul\":20713:20716   */\n      dup7\n        /* \"#utility.yul\":20706:20744   */\n      mstore\n        /* \"#utility.yul\":20799:20805   */\n      dup2\n        /* \"#utility.yul\":20792:20806   */\n      iszero\n        /* \"#utility.yul\":20785:20807   */\n      iszero\n        /* \"#utility.yul\":20777:20783   */\n      dup3\n        /* \"#utility.yul\":20773:20808   */\n      mul\n        /* \"#utility.yul\":20768:20771   */\n      dup7\n        /* \"#utility.yul\":20764:20809   */\n      add\n        /* \"#utility.yul\":20757:20809   */\n      swap4\n      pop\n        /* \"#utility.yul\":20653:20819   */\n      jump(tag_461)\n        /* \"#utility.yul\":20828:21169   */\n    tag_463:\n        /* \"#utility.yul\":20895:20933   */\n      tag_464\n        /* \"#utility.yul\":20927:20932   */\n      dup6\n        /* \"#utility.yul\":20895:20933   */\n      tag_254\n      jump\t// in\n    tag_464:\n        /* \"#utility.yul\":20955:20956   */\n      0x00\n        /* \"#utility.yul\":20969:21123   */\n    tag_465:\n        /* \"#utility.yul\":20983:20989   */\n      dup4\n        /* \"#utility.yul\":20980:20981   */\n      dup2\n        /* \"#utility.yul\":20977:20990   */\n      lt\n        /* \"#utility.yul\":20969:21123   */\n      iszero\n      tag_467\n      jumpi\n        /* \"#utility.yul\":21057:21064   */\n      dup2\n        /* \"#utility.yul\":21051:21065   */\n      sload\n        /* \"#utility.yul\":21047:21048   */\n      dup2\n        /* \"#utility.yul\":21042:21045   */\n      dup10\n        /* \"#utility.yul\":21038:21049   */\n      add\n        /* \"#utility.yul\":21031:21066   */\n      mstore\n        /* \"#utility.yul\":21107:21108   */\n      0x01\n        /* \"#utility.yul\":21098:21105   */\n      dup3\n        /* \"#utility.yul\":21094:21109   */\n      add\n        /* \"#utility.yul\":21083:21109   */\n      swap2\n      pop\n        /* \"#utility.yul\":21005:21009   */\n      0x20\n        /* \"#utility.yul\":21002:21003   */\n      dup2\n        /* \"#utility.yul\":20998:21010   */\n      add\n        /* \"#utility.yul\":20993:21010   */\n      swap1\n      pop\n        /* \"#utility.yul\":20969:21123   */\n      jump(tag_465)\n    tag_467:\n        /* \"#utility.yul\":21152:21158   */\n      dup4\n        /* \"#utility.yul\":21147:21150   */\n      dup9\n        /* \"#utility.yul\":21143:21159   */\n      add\n        /* \"#utility.yul\":21136:21159   */\n      swap6\n      pop\n        /* \"#utility.yul\":20835:21169   */\n      pop\n      pop\n        /* \"#utility.yul\":20620:21169   */\n    tag_461:\n      pop\n        /* \"#utility.yul\":20408:21175   */\n      pop\n      pop\n        /* \"#utility.yul\":20301:21175   */\n      swap3\n      swap2\n      pop\n      pop\n      jump\t// out\n        /* \"#utility.yul\":21181:21450   */\n    tag_56:\n        /* \"#utility.yul\":21310:21313   */\n      0x00\n        /* \"#utility.yul\":21332:21424   */\n      tag_469\n        /* \"#utility.yul\":21420:21423   */\n      dup3\n        /* \"#utility.yul\":21411:21417   */\n      dup5\n        /* \"#utility.yul\":21332:21424   */\n      tag_255\n      jump\t// in\n    tag_469:\n        /* \"#utility.yul\":21325:21424   */\n      swap2\n      pop\n        /* \"#utility.yul\":21441:21444   */\n      dup2\n        /* \"#utility.yul\":21434:21444   */\n      swap1\n      pop\n        /* \"#utility.yul\":21181:21450   */\n      swap3\n      swap2\n      pop\n      pop\n      jump\t// out\n        /* \"#utility.yul\":21456:21636   */\n    tag_256:\n        /* \"#utility.yul\":21504:21581   */\n      0x4e487b7100000000000000000000000000000000000000000000000000000000\n        /* \"#utility.yul\":21501:21502   */\n      0x00\n        /* \"#utility.yul\":21494:21582   */\n      mstore\n        /* \"#utility.yul\":21601:21605   */\n      0x11\n        /* \"#utility.yul\":21598:21599   */\n      0x04\n        /* \"#utility.yul\":21591:21606   */\n      mstore\n        /* \"#utility.yul\":21625:21629   */\n      0x24\n        /* \"#utility.yul\":21622:21623   */\n      0x00\n        /* \"#utility.yul\":21615:21630   */\n      revert\n        /* \"#utility.yul\":21642:21875   */\n    tag_59:\n        /* \"#utility.yul\":21681:21684   */\n      0x00\n        /* \"#utility.yul\":21704:21728   */\n      tag_472\n        /* \"#utility.yul\":21722:21727   */\n      dup3\n        /* \"#utility.yul\":21704:21728   */\n      tag_222\n      jump\t// in\n    tag_472:\n        /* \"#utility.yul\":21695:21728   */\n      swap2\n      pop\n        /* \"#utility.yul\":21750:21816   */\n      0xffffffffffffffffffffffffffffffffffffffffffffffffffffffffffffffff\n        /* \"#utility.yul\":21743:21748   */\n      dup3\n        /* \"#utility.yul\":21740:21817   */\n      sub\n        /* \"#utility.yul\":21737:21840   */\n      tag_473\n      jumpi\n        /* \"#utility.yul\":21820:21838   */\n      tag_474\n      tag_256\n      jump\t// in\n    tag_474:\n        /* \"#utility.yul\":21737:21840   */\n    tag_473:\n        /* \"#utility.yul\":21867:21868   */\n      0x01\n        /* \"#utility.yul\":21860:21865   */\n      dup3\n        /* \"#utility.yul\":21856:21869   */\n      add\n        /* \"#utility.yul\":21849:21869   */\n      swap1\n      pop\n        /* \"#utility.yul\":21642:21875   */\n      swap2\n      swap1\n      pop\n      jump\t// out\n        /* \"#utility.yul\":21881:22061   */\n    tag_73:\n        /* \"#utility.yul\":21929:22006   */\n      0x4e487b7100000000000000000000000000000000000000000000000000000000\n        /* \"#utility.yul\":21926:21927   */\n      0x00\n        /* \"#utility.yul\":21919:22007   */\n      mstore\n        /* \"#utility.yul\":22026:22030   */\n      0x32\n        /* \"#utility.yul\":22023:22024   */\n      0x04\n        /* \"#utility.yul\":22016:22031   */\n      mstore\n        /* \"#utility.yul\":22050:22054   */\n      0x24\n        /* \"#utility.yul\":22047:22048   */\n      0x00\n        /* \"#utility.yul\":22040:22055   */\n      revert\n        /* \"#utility.yul\":22067:22290   */\n    tag_257:\n        /* \"#utility.yul\":22207:22241   */\n      0x4c656e67746873206f6620696e7075742061727261797320646f206e6f74206d\n        /* \"#utility.yul\":22203:22204   */\n      0x00\n        /* \"#utility.yul\":22195:22201   */\n      dup3\n        /* \"#utility.yul\":22191:22205   */\n      add\n        /* \"#utility.yul\":22184:22242   */\n      mstore\n        /* \"#utility.yul\":22276:22282   */\n      0x6174636800000000000000000000000000000000000000000000000000000000\n        /* \"#utility.yul\":22271:22273   */\n      0x20\n        /* \"#utility.yul\":22263:22269   */\n      dup3\n        /* \"#utility.yul\":22259:22274   */\n      add\n        /* \"#utility.yul\":22252:22283   */\n      mstore\n        /* \"#utility.yul\":22067:22290   */\n      pop\n      jump\t// out\n        /* \"#utility.yul\":22296:22662   */\n    tag_258:\n        /* \"#utility.yul\":22438:22441   */\n      0x00\n        /* \"#utility.yul\":22459:22526   */\n      tag_478\n        /* \"#utility.yul\":22523:22525   */\n      0x24\n        /* \"#utility.yul\":22518:22521   */\n      dup4\n        /* \"#utility.yul\":22459:22526   */\n      tag_240\n      jump\t// in\n    tag_478:\n        /* \"#utility.yul\":22452:22526   */\n      swap2\n      pop\n        /* \"#utility.yul\":22535:22628   */\n      tag_479\n        /* \"#utility.yul\":22624:22627   */\n      dup3\n        /* \"#utility.yul\":22535:22628   */\n      tag_257\n      jump\t// in\n    tag_479:\n        /* \"#utility.yul\":22653:22655   */\n      0x40\n        /* \"#utility.yul\":22648:22651   */\n      dup3\n        /* \"#utility.yul\":22644:22656   */\n      add\n        /* \"#utility.yul\":22637:22656   */\n      swap1\n      pop\n        /* \"#utility.yul\":22296:22662   */\n      swap2\n      swap1\n      pop\n      jump\t// out\n        /* \"#utility.yul\":22668:23087   */\n    tag_127:\n        /* \"#utility.yul\":22834:22838   */\n      0x00\n        /* \"#utility.yul\":22872:22874   */\n      0x20\n        /* \"#utility.yul\":22861:22870   */\n      dup3\n        /* \"#utility.yul\":22857:22875   */\n      add\n        /* \"#utility.yul\":22849:22875   */\n      swap1\n      pop\n        /* \"#utility.yul\":22921:22930   */\n      dup2\n        /* \"#utility.yul\":22915:22919   */\n      dup2\n        /* \"#utility.yul\":22911:22931   */\n      sub\n        /* \"#utility.yul\":22907:22908   */\n      0x00\n        /* \"#utility.yul\":22896:22905   */\n      dup4\n        /* \"#utility.yul\":22892:22909   */\n      add\n        /* \"#utility.yul\":22885:22932   */\n      mstore\n        /* \"#utility.yul\":22949:23080   */\n      tag_481\n        /* \"#utility.yul\":23075:23079   */\n      dup2\n        /* \"#utility.yul\":22949:23080   */\n      tag_258\n      jump\t// in\n    tag_481:\n        /* \"#utility.yul\":22941:23080   */\n      swap1\n      pop\n        /* \"#utility.yul\":22668:23087   */\n      swap2\n      swap1\n      pop\n      jump\t// out\n        /* \"#utility.yul\":23093:23186   */\n    tag_259:\n        /* \"#utility.yul\":23130:23136   */\n      0x00\n        /* \"#utility.yul\":23177:23179   */\n      0x20\n        /* \"#utility.yul\":23172:23174   */\n      0x1f\n        /* \"#utility.yul\":23165:23170   */\n      dup4\n        /* \"#utility.yul\":23161:23175   */\n      add\n        /* \"#utility.yul\":23157:23180   */\n      div\n        /* \"#utility.yul\":23147:23180   */\n      swap1\n      pop\n        /* \"#utility.yul\":23093:23186   */\n      swap2\n      swap1\n      pop\n      jump\t// out\n        /* \"#utility.yul\":23192:23299   */\n    tag_260:\n        /* \"#utility.yul\":23236:23244   */\n      0x00\n        /* \"#utility.yul\":23286:23291   */\n      dup3\n        /* \"#utility.yul\":23280:23284   */\n      dup3\n        /* \"#utility.yul\":23276:23292   */\n      shl\n        /* \"#utility.yul\":23255:23292   */\n      swap1\n      pop\n        /* \"#utility.yul\":23192:23299   */\n      swap3\n      swap2\n      pop\n      pop\n      jump\t// out\n        /* \"#utility.yul\":23305:23698   */\n    tag_261:\n        /* \"#utility.yul\":23374:23380   */\n      0x00\n        /* \"#utility.yul\":23424:23425   */\n      0x08\n        /* \"#utility.yul\":23412:23422   */\n      dup4\n        /* \"#utility.yul\":23408:23426   */\n      mul\n        /* \"#utility.yul\":23447:23544   */\n      tag_485\n        /* \"#utility.yul\":23477:23543   */\n      0xffffffffffffffffffffffffffffffffffffffffffffffffffffffffffffffff\n        /* \"#utility.yul\":23466:23475   */\n      dup3\n        /* \"#utility.yul\":23447:23544   */\n      tag_260\n      jump\t// in\n    tag_485:\n        /* \"#utility.yul\":23565:23604   */\n      tag_486\n        /* \"#utility.yul\":23595:23603   */\n      dup7\n        /* \"#utility.yul\":23584:23593   */\n      dup4\n        /* \"#utility.yul\":23565:23604   */\n      tag_260\n      jump\t// in\n    tag_486:\n        /* \"#utility.yul\":23553:23604   */\n      swap6\n      pop\n        /* \"#utility.yul\":23637:23641   */\n      dup1\n        /* \"#utility.yul\":23633:23642   */\n      not\n        /* \"#utility.yul\":23626:23631   */\n      dup5\n        /* \"#utility.yul\":23622:23643   */\n      and\n        /* \"#utility.yul\":23613:23643   */\n      swap4\n      pop\n        /* \"#utility.yul\":23686:23690   */\n      dup1\n        /* \"#utility.yul\":23676:23684   */\n      dup7\n        /* \"#utility.yul\":23672:23691   */\n      and\n        /* \"#utility.yul\":23665:23670   */\n      dup5\n        /* \"#utility.yul\":23662:23692   */\n      or\n        /* \"#utility.yul\":23652:23692   */\n      swap3\n      pop\n        /* \"#utility.yul\":23381:23698   */\n      pop\n      pop\n        /* \"#utility.yul\":23305:23698   */\n      swap4\n      swap3\n      pop\n      pop\n      pop\n      jump\t// out\n        /* \"#utility.yul\":23704:23764   */\n    tag_262:\n        /* \"#utility.yul\":23732:23735   */\n      0x00\n        /* \"#utility.yul\":23753:23758   */\n      dup2\n        /* \"#utility.yul\":23746:23758   */\n      swap1\n      pop\n        /* \"#utility.yul\":23704:23764   */\n      swap2\n      swap1\n      pop\n      jump\t// out\n        /* \"#utility.yul\":23770:23912   */\n    tag_263:\n        /* \"#utility.yul\":23820:23829   */\n      0x00\n        /* \"#utility.yul\":23853:23906   */\n      tag_489\n        /* \"#utility.yul\":23871:23905   */\n      tag_490\n        /* \"#utility.yul\":23880:23904   */\n      tag_491\n        /* \"#utility.yul\":23898:23903   */\n      dup5\n        /* \"#utility.yul\":23880:23904   */\n      tag_222\n      jump\t// in\n    tag_491:\n        /* \"#utility.yul\":23871:23905   */\n      tag_262\n      jump\t// in\n    tag_490:\n        /* \"#utility.yul\":23853:23906   */\n      tag_222\n      jump\t// in\n    tag_489:\n        /* \"#utility.yul\":23840:23906   */\n      swap1\n      pop\n        /* \"#utility.yul\":23770:23912   */\n      swap2\n      swap1\n      pop\n      jump\t// out\n        /* \"#utility.yul\":23918:23993   */\n    tag_264:\n        /* \"#utility.yul\":23961:23964   */\n      0x00\n        /* \"#utility.yul\":23982:23987   */\n      dup2\n        /* \"#utility.yul\":23975:23987   */\n      swap1\n      pop\n        /* \"#utility.yul\":23918:23993   */\n      swap2\n      swap1\n      pop\n      jump\t// out\n        /* \"#utility.yul\":23999:24268   */\n    tag_265:\n        /* \"#utility.yul\":24109:24148   */\n      tag_494\n        /* \"#utility.yul\":24140:24147   */\n      dup4\n        /* \"#utility.yul\":24109:24148   */\n      tag_263\n      jump\t// in\n    tag_494:\n        /* \"#utility.yul\":24170:24261   */\n      tag_495\n        /* \"#utility.yul\":24219:24260   */\n      tag_496\n        /* \"#utility.yul\":24243:24259   */\n      dup3\n        /* \"#utility.yul\":24219:24260   */\n      tag_264\n      jump\t// in\n    tag_496:\n        /* \"#utility.yul\":24211:24217   */\n      dup5\n        /* \"#utility.yul\":24204:24208   */\n      dup5\n        /* \"#utility.yul\":24198:24209   */\n      sload\n        /* \"#utility.yul\":24170:24261   */\n      tag_261\n      jump\t// in\n    tag_495:\n        /* \"#utility.yul\":24164:24168   */\n      dup3\n        /* \"#utility.yul\":24157:24262   */\n      sstore\n        /* \"#utility.yul\":24075:24268   */\n      pop\n        /* \"#utility.yul\":23999:24268   */\n      pop\n      pop\n      pop\n      jump\t// out\n        /* \"#utility.yul\":24274:24347   */\n    tag_266:\n        /* \"#utility.yul\":24319:24322   */\n      0x00\n        /* \"#utility.yul\":24274:24347   */\n      swap1\n      jump\t// out\n        /* \"#utility.yul\":24353:24542   */\n    tag_267:\n        /* \"#utility.yul\":24430:24462   */\n      tag_499\n      tag_266\n      jump\t// in\n    tag_499:\n        /* \"#utility.yul\":24471:24536   */\n      tag_500\n        /* \"#utility.yul\":24529:24535   */\n      dup2\n        /* \"#utility.yul\":24521:24527   */\n      dup5\n        /* \"#utility.yul\":24515:24519   */\n      dup5\n        /* \"#utility.yul\":24471:24536   */\n      tag_265\n      jump\t// in\n    tag_500:\n        /* \"#utility.yul\":24406:24542   */\n      pop\n        /* \"#utility.yul\":24353:24542   */\n      pop\n      pop\n      jump\t// out\n        /* \"#utility.yul\":24548:24734   */\n    tag_268:\n        /* \"#utility.yul\":24608:24728   */\n    tag_502:\n        /* \"#utility.yul\":24625:24628   */\n      dup2\n        /* \"#utility.yul\":24618:24623   */\n      dup2\n        /* \"#utility.yul\":24615:24629   */\n      lt\n        /* \"#utility.yul\":24608:24728   */\n      iszero\n      tag_504\n      jumpi\n        /* \"#utility.yul\":24679:24718   */\n      tag_505\n        /* \"#utility.yul\":24716:24717   */\n      0x00\n        /* \"#utility.yul\":24709:24714   */\n      dup3\n        /* \"#utility.yul\":24679:24718   */\n      tag_267\n      jump\t// in\n    tag_505:\n        /* \"#utility.yul\":24652:24653   */\n      0x01\n        /* \"#utility.yul\":24645:24650   */\n      dup2\n        /* \"#utility.yul\":24641:24654   */\n      add\n        /* \"#utility.yul\":24632:24654   */\n      swap1\n      pop\n        /* \"#utility.yul\":24608:24728   */\n      jump(tag_502)\n    tag_504:\n        /* \"#utility.yul\":24548:24734   */\n      pop\n      pop\n      jump\t// out\n        /* \"#utility.yul\":24740:25283   */\n    tag_269:\n        /* \"#utility.yul\":24841:24843   */\n      0x1f\n        /* \"#utility.yul\":24836:24839   */\n      dup3\n        /* \"#utility.yul\":24833:24844   */\n      gt\n        /* \"#utility.yul\":24830:25276   */\n      iszero\n      tag_507\n      jumpi\n        /* \"#utility.yul\":24875:24913   */\n      tag_508\n        /* \"#utility.yul\":24907:24912   */\n      dup2\n        /* \"#utility.yul\":24875:24913   */\n      tag_254\n      jump\t// in\n    tag_508:\n        /* \"#utility.yul\":24959:24988   */\n      tag_509\n        /* \"#utility.yul\":24977:24987   */\n      dup5\n        /* \"#utility.yul\":24959:24988   */\n      tag_259\n      jump\t// in\n    tag_509:\n        /* \"#utility.yul\":24949:24957   */\n      dup2\n        /* \"#utility.yul\":24945:24989   */\n      add\n        /* \"#utility.yul\":25142:25144   */\n      0x20\n        /* \"#utility.yul\":25130:25140   */\n      dup6\n        /* \"#utility.yul\":25127:25145   */\n      lt\n        /* \"#utility.yul\":25124:25173   */\n      iszero\n      tag_510\n      jumpi\n        /* \"#utility.yul\":25163:25171   */\n      dup2\n        /* \"#utility.yul\":25148:25171   */\n      swap1\n      pop\n        /* \"#utility.yul\":25124:25173   */\n    tag_510:\n        /* \"#utility.yul\":25186:25266   */\n      tag_511\n        /* \"#utility.yul\":25242:25264   */\n      tag_512\n        /* \"#utility.yul\":25260:25263   */\n      dup6\n        /* \"#utility.yul\":25242:25264   */\n      tag_259\n      jump\t// in\n    tag_512:\n        /* \"#utility.yul\":25232:25240   */\n      dup4\n        /* \"#utility.yul\":25228:25265   */\n      add\n        /* \"#utility.yul\":25215:25226   */\n      dup3\n        /* \"#utility.yul\":25186:25266   */\n      tag_268\n      jump\t// in\n    tag_511:\n        /* \"#utility.yul\":24845:25276   */\n      pop\n      pop\n        /* \"#utility.yul\":24830:25276   */\n    tag_507:\n        /* \"#utility.yul\":24740:25283   */\n      pop\n      pop\n      pop\n      jump\t// out\n        /* \"#utility.yul\":25289:25406   */\n    tag_270:\n        /* \"#utility.yul\":25343:25351   */\n      0x00\n        /* \"#utility.yul\":25393:25398   */\n      dup3\n        /* \"#utility.yul\":25387:25391   */\n      dup3\n        /* \"#utility.yul\":25383:25399   */\n      shr\n        /* \"#utility.yul\":25362:25399   */\n      swap1\n      pop\n        /* \"#utility.yul\":25289:25406   */\n      swap3\n      swap2\n      pop\n      pop\n      jump\t// out\n        /* \"#utility.yul\":25412:25581   */\n    tag_271:\n        /* \"#utility.yul\":25456:25462   */\n      0x00\n        /* \"#utility.yul\":25489:25540   */\n      tag_515\n        /* \"#utility.yul\":25537:25538   */\n      0x00\n        /* \"#utility.yul\":25533:25539   */\n      not\n        /* \"#utility.yul\":25525:25530   */\n      dup5\n        /* \"#utility.yul\":25522:25523   */\n      0x08\n        /* \"#utility.yul\":25518:25531   */\n      mul\n        /* \"#utility.yul\":25489:25540   */\n      tag_270\n      jump\t// in\n    tag_515:\n        /* \"#utility.yul\":25485:25541   */\n      not\n        /* \"#utility.yul\":25570:25574   */\n      dup1\n        /* \"#utility.yul\":25564:25568   */\n      dup4\n        /* \"#utility.yul\":25560:25575   */\n      and\n        /* \"#utility.yul\":25550:25575   */\n      swap2\n      pop\n        /* \"#utility.yul\":25463:25581   */\n      pop\n        /* \"#utility.yul\":25412:25581   */\n      swap3\n      swap2\n      pop\n      pop\n      jump\t// out\n        /* \"#utility.yul\":25586:25881   */\n    tag_272:\n        /* \"#utility.yul\":25662:25666   */\n      0x00\n        /* \"#utility.yul\":25808:25837   */\n      tag_517\n        /* \"#utility.yul\":25833:25836   */\n      dup4\n        /* \"#utility.yul\":25827:25831   */\n      dup4\n        /* \"#utility.yul\":25808:25837   */\n      tag_271\n      jump\t// in\n    tag_517:\n        /* \"#utility.yul\":25800:25837   */\n      swap2\n      pop\n        /* \"#utility.yul\":25870:25873   */\n      dup3\n        /* \"#utility.yul\":25867:25868   */\n      0x02\n        /* \"#utility.yul\":25863:25874   */\n      mul\n        /* \"#utility.yul\":25857:25861   */\n      dup3\n        /* \"#utility.yul\":25854:25875   */\n      or\n        /* \"#utility.yul\":25846:25875   */\n      swap1\n      pop\n        /* \"#utility.yul\":25586:25881   */\n      swap3\n      swap2\n      pop\n      pop\n      jump\t// out\n        /* \"#utility.yul\":25886:27281   */\n    tag_141:\n        /* \"#utility.yul\":26003:26040   */\n      tag_519\n        /* \"#utility.yul\":26036:26039   */\n      dup3\n        /* \"#utility.yul\":26003:26040   */\n      tag_230\n      jump\t// in\n    tag_519:\n        /* \"#utility.yul\":26105:26123   */\n      0xffffffffffffffff\n        /* \"#utility.yul\":26097:26103   */\n      dup2\n        /* \"#utility.yul\":26094:26124   */\n      gt\n        /* \"#utility.yul\":26091:26147   */\n      iszero\n      tag_520\n      jumpi\n        /* \"#utility.yul\":26127:26145   */\n      tag_521\n      tag_63\n      jump\t// in\n    tag_521:\n        /* \"#utility.yul\":26091:26147   */\n    tag_520:\n        /* \"#utility.yul\":26171:26209   */\n      tag_522\n        /* \"#utility.yul\":26203:26207   */\n      dup3\n        /* \"#utility.yul\":26197:26208   */\n      sload\n        /* \"#utility.yul\":26171:26209   */\n      tag_98\n      jump\t// in\n    tag_522:\n        /* \"#utility.yul\":26256:26323   */\n      tag_523\n        /* \"#utility.yul\":26316:26322   */\n      dup3\n        /* \"#utility.yul\":26308:26314   */\n      dup3\n        /* \"#utility.yul\":26302:26306   */\n      dup6\n        /* \"#utility.yul\":26256:26323   */\n      tag_269\n      jump\t// in\n    tag_523:\n        /* \"#utility.yul\":26350:26351   */\n      0x00\n        /* \"#utility.yul\":26374:26378   */\n      0x20\n        /* \"#utility.yul\":26361:26378   */\n      swap1\n      pop\n        /* \"#utility.yul\":26406:26408   */\n      0x1f\n        /* \"#utility.yul\":26398:26404   */\n      dup4\n        /* \"#utility.yul\":26395:26409   */\n      gt\n        /* \"#utility.yul\":26423:26424   */\n      0x01\n        /* \"#utility.yul\":26418:27036   */\n      dup2\n      eq\n      tag_525\n      jumpi\n        /* \"#utility.yul\":27080:27081   */\n      0x00\n        /* \"#utility.yul\":27097:27103   */\n      dup5\n        /* \"#utility.yul\":27094:27171   */\n      iszero\n      tag_526\n      jumpi\n        /* \"#utility.yul\":27146:27155   */\n      dup3\n        /* \"#utility.yul\":27141:27144   */\n      dup8\n        /* \"#utility.yul\":27137:27156   */\n      add\n        /* \"#utility.yul\":27131:27157   */\n      mload\n        /* \"#utility.yul\":27122:27157   */\n      swap1\n      pop\n        /* \"#utility.yul\":27094:27171   */\n    tag_526:\n        /* \"#utility.yul\":27197:27264   */\n      tag_527\n        /* \"#utility.yul\":27257:27263   */\n      dup6\n        /* \"#utility.yul\":27250:27255   */\n      dup3\n        /* \"#utility.yul\":27197:27264   */\n      tag_272\n      jump\t// in\n    tag_527:\n        /* \"#utility.yul\":27191:27195   */\n      dup7\n        /* \"#utility.yul\":27184:27265   */\n      sstore\n        /* \"#utility.yul\":27053:27275   */\n      pop\n        /* \"#utility.yul\":26388:27275   */\n      jump(tag_524)\n        /* \"#utility.yul\":26418:27036   */\n    tag_525:\n        /* \"#utility.yul\":26470:26474   */\n      0x1f\n        /* \"#utility.yul\":26466:26475   */\n      not\n        /* \"#utility.yul\":26458:26464   */\n      dup5\n        /* \"#utility.yul\":26454:26476   */\n      and\n        /* \"#utility.yul\":26504:26541   */\n      tag_528\n        /* \"#utility.yul\":26536:26540   */\n      dup7\n        /* \"#utility.yul\":26504:26541   */\n      tag_254\n      jump\t// in\n    tag_528:\n        /* \"#utility.yul\":26563:26564   */\n      0x00\n        /* \"#utility.yul\":26577:26785   */\n    tag_529:\n        /* \"#utility.yul\":26591:26598   */\n      dup3\n        /* \"#utility.yul\":26588:26589   */\n      dup2\n        /* \"#utility.yul\":26585:26599   */\n      lt\n        /* \"#utility.yul\":26577:26785   */\n      iszero\n      tag_531\n      jumpi\n        /* \"#utility.yul\":26670:26679   */\n      dup5\n        /* \"#utility.yul\":26665:26668   */\n      dup10\n        /* \"#utility.yul\":26661:26680   */\n      add\n        /* \"#utility.yul\":26655:26681   */\n      mload\n        /* \"#utility.yul\":26647:26653   */\n      dup3\n        /* \"#utility.yul\":26640:26682   */\n      sstore\n        /* \"#utility.yul\":26721:26722   */\n      0x01\n        /* \"#utility.yul\":26713:26719   */\n      dup3\n        /* \"#utility.yul\":26709:26723   */\n      add\n        /* \"#utility.yul\":26699:26723   */\n      swap2\n      pop\n        /* \"#utility.yul\":26768:26770   */\n      0x20\n        /* \"#utility.yul\":26757:26766   */\n      dup6\n        /* \"#utility.yul\":26753:26771   */\n      add\n        /* \"#utility.yul\":26740:26771   */\n      swap5\n      pop\n        /* \"#utility.yul\":26614:26618   */\n      0x20\n        /* \"#utility.yul\":26611:26612   */\n      dup2\n        /* \"#utility.yul\":26607:26619   */\n      add\n        /* \"#utility.yul\":26602:26619   */\n      swap1\n      pop\n        /* \"#utility.yul\":26577:26785   */\n      jump(tag_529)\n    tag_531:\n        /* \"#utility.yul\":26813:26819   */\n      dup7\n        /* \"#utility.yul\":26804:26811   */\n      dup4\n        /* \"#utility.yul\":26801:26820   */\n      lt\n        /* \"#utility.yul\":26798:26977   */\n      iszero\n      tag_532\n      jumpi\n        /* \"#utility.yul\":26871:26880   */\n      dup5\n        /* \"#utility.yul\":26866:26869   */\n      dup10\n        /* \"#utility.yul\":26862:26881   */\n      add\n        /* \"#utility.yul\":26856:26882   */\n      mload\n        /* \"#utility.yul\":26914:26962   */\n      tag_533\n        /* \"#utility.yul\":26956:26960   */\n      0x1f\n        /* \"#utility.yul\":26948:26954   */\n      dup10\n        /* \"#utility.yul\":26944:26961   */\n      and\n        /* \"#utility.yul\":26933:26942   */\n      dup3\n        /* \"#utility.yul\":26914:26962   */\n      tag_271\n      jump\t// in\n    tag_533:\n        /* \"#utility.yul\":26906:26912   */\n      dup4\n        /* \"#utility.yul\":26899:26963   */\n      sstore\n        /* \"#utility.yul\":26821:26977   */\n      pop\n        /* \"#utility.yul\":26798:26977   */\n    tag_532:\n        /* \"#utility.yul\":27023:27024   */\n      0x01\n        /* \"#utility.yul\":27019:27020   */\n      0x02\n        /* \"#utility.yul\":27011:27017   */\n      dup9\n        /* \"#utility.yul\":27007:27021   */\n      mul\n        /* \"#utility.yul\":27003:27025   */\n      add\n        /* \"#utility.yul\":26997:27001   */\n      dup9\n        /* \"#utility.yul\":26990:27026   */\n      sstore\n        /* \"#utility.yul\":26425:27036   */\n      pop\n      pop\n      pop\n        /* \"#utility.yul\":26388:27275   */\n    tag_524:\n      pop\n        /* \"#utility.yul\":25978:27281   */\n      pop\n      pop\n      pop\n        /* \"#utility.yul\":25886:27281   */\n      pop\n      pop\n      jump\t// out\n        /* \"#utility.yul\":27287:27481   */\n    tag_182:\n        /* \"#utility.yul\":27327:27331   */\n      0x00\n        /* \"#utility.yul\":27347:27367   */\n      tag_535\n        /* \"#utility.yul\":27365:27366   */\n      dup3\n        /* \"#utility.yul\":27347:27367   */\n      tag_222\n      jump\t// in\n    tag_535:\n        /* \"#utility.yul\":27342:27367   */\n      swap2\n      pop\n        /* \"#utility.yul\":27381:27401   */\n      tag_536\n        /* \"#utility.yul\":27399:27400   */\n      dup4\n        /* \"#utility.yul\":27381:27401   */\n      tag_222\n      jump\t// in\n    tag_536:\n        /* \"#utility.yul\":27376:27401   */\n      swap3\n      pop\n        /* \"#utility.yul\":27425:27426   */\n      dup3\n        /* \"#utility.yul\":27422:27423   */\n      dup3\n        /* \"#utility.yul\":27418:27427   */\n      sub\n        /* \"#utility.yul\":27410:27427   */\n      swap1\n      pop\n        /* \"#utility.yul\":27449:27450   */\n      dup2\n        /* \"#utility.yul\":27443:27447   */\n      dup2\n        /* \"#utility.yul\":27440:27451   */\n      gt\n        /* \"#utility.yul\":27437:27474   */\n      iszero\n      tag_537\n      jumpi\n        /* \"#utility.yul\":27454:27472   */\n      tag_538\n      tag_256\n      jump\t// in\n    tag_538:\n        /* \"#utility.yul\":27437:27474   */\n    tag_537:\n        /* \"#utility.yul\":27287:27481   */\n      swap3\n      swap2\n      pop\n      pop\n      jump\t// out\n        /* \"#utility.yul\":27487:27665   */\n    tag_273:\n        /* \"#utility.yul\":27627:27657   */\n      0x5472616e73616374696f6e2064657461696c206e6f7420666f756e6400000000\n        /* \"#utility.yul\":27623:27624   */\n      0x00\n        /* \"#utility.yul\":27615:27621   */\n      dup3\n        /* \"#utility.yul\":27611:27625   */\n      add\n        /* \"#utility.yul\":27604:27658   */\n      mstore\n        /* \"#utility.yul\":27487:27665   */\n      pop\n      jump\t// out\n        /* \"#utility.yul\":27671:28037   */\n    tag_274:\n        /* \"#utility.yul\":27813:27816   */\n      0x00\n        /* \"#utility.yul\":27834:27901   */\n      tag_541\n        /* \"#utility.yul\":27898:27900   */\n      0x1c\n        /* \"#utility.yul\":27893:27896   */\n      dup4\n        /* \"#utility.yul\":27834:27901   */\n      tag_240\n      jump\t// in\n    tag_541:\n        /* \"#utility.yul\":27827:27901   */\n      swap2\n      pop\n        /* \"#utility.yul\":27910:28003   */\n      tag_542\n        /* \"#utility.yul\":27999:28002   */\n      dup3\n        /* \"#utility.yul\":27910:28003   */\n      tag_273\n      jump\t// in\n    tag_542:\n        /* \"#utility.yul\":28028:28030   */\n      0x20\n        /* \"#utility.yul\":28023:28026   */\n      dup3\n        /* \"#utility.yul\":28019:28031   */\n      add\n        /* \"#utility.yul\":28012:28031   */\n      swap1\n      pop\n        /* \"#utility.yul\":27671:28037   */\n      swap2\n      swap1\n      pop\n      jump\t// out\n        /* \"#utility.yul\":28043:28462   */\n    tag_206:\n        /* \"#utility.yul\":28209:28213   */\n      0x00\n        /* \"#utility.yul\":28247:28249   */\n      0x20\n        /* \"#utility.yul\":28236:28245   */\n      dup3\n        /* \"#utility.yul\":28232:28250   */\n      add\n        /* \"#utility.yul\":28224:28250   */\n      swap1\n      pop\n        /* \"#utility.yul\":28296:28305   */\n      dup2\n        /* \"#utility.yul\":28290:28294   */\n      dup2\n        /* \"#utility.yul\":28286:28306   */\n      sub\n        /* \"#utility.yul\":28282:28283   */\n      0x00\n        /* \"#utility.yul\":28271:28280   */\n      dup4\n        /* \"#utility.yul\":28267:28284   */\n      add\n        /* \"#utility.yul\":28260:28307   */\n      mstore\n        /* \"#utility.yul\":28324:28455   */\n      tag_544\n        /* \"#utility.yul\":28450:28454   */\n      dup2\n        /* \"#utility.yul\":28324:28455   */\n      tag_274\n      jump\t// in\n    tag_544:\n        /* \"#utility.yul\":28316:28455   */\n      swap1\n      pop\n        /* \"#utility.yul\":28043:28462   */\n      swap2\n      swap1\n      pop\n      jump\t// out\n\n    auxdata: 0xa2646970667358221220eb4ca973a013a8bef922b2e9580e1834be12cbe73589e8c991d5f298ef0398eb64736f6c63430008100033\n}\n",
				"bytecode": {
					"linkReferences": {},
					"object": "608060405234801561001057600080fd5b50611d79806100206000396000f3fe608060405234801561001057600080fd5b50600436106100885760003560e01c80639cd9be931161005b5780639cd9be931461013c578063a57736101461016c578063cf8109531461018a578063f08c6ca8146101a857610088565b80630786c9a81461008d5780632ef8750f146100bd5780633f0a54a6146100ed5780636351212e14610120575b600080fd5b6100a760048036038101906100a29190611074565b6101d8565b6040516100b49190611185565b60405180910390f35b6100d760048036038101906100d29190611074565b61039d565b6040516100e49190611352565b60405180910390f35b610107600480360381019061010291906113a0565b6106ab565b6040516101179493929190611426565b60405180910390f35b61013a60048036038101906101359190611622565b6107eb565b005b61015660048036038101906101519190611074565b610a0c565b60405161016391906116f9565b60405180910390f35b610174610ab6565b6040516101819190611352565b60405180910390f35b610192610cbc565b60405161019f91906116f9565b60405180910390f35b6101c260048036038101906101bd9190611074565b610cc2565b6040516101cf919061177e565b60405180910390f35b6060600080600190505b600154811161027457836040516020016101fc91906117dc565b6040516020818303038152906040528051906020012060008083815260200190815260200160002060000160405160200161023791906118eb565b604051602081830303815290604052805190602001200361026157818061025d90611931565b9250505b808061026c90611931565b9150506101e2565b5060008167ffffffffffffffff81111561029157610290610f49565b5b6040519080825280602002602001820160405280156102bf5781602001602082028036833780820191505090505b509050600080600190505b600154811161039157856040516020016102e491906117dc565b6040516020818303038152906040528051906020012060008083815260200190815260200160002060000160405160200161031f91906118eb565b604051602081830303815290604052805190602001200361037e576000808281526020019081526020016000206001015483838151811061036357610362611979565b5b602002602001018181525050818061037a90611931565b9250505b808061038990611931565b9150506102ca565b50819350505050919050565b6060600080600190505b600154811161043957836040516020016103c191906117dc565b604051602081830303815290604052805190602001206000808381526020019081526020016000206000016040516020016103fc91906118eb565b604051602081830303815290604052805190602001200361042657818061042290611931565b9250505b808061043190611931565b9150506103a7565b5060008167ffffffffffffffff81111561045657610455610f49565b5b60405190808252806020026020018201604052801561048f57816020015b61047c610ef2565b8152602001906001900390816104745790505b509050600080600190505b600154811161069f57856040516020016104b491906117dc565b604051602081830303815290604052805190602001206000808381526020019081526020016000206000016040516020016104ef91906118eb565b604051602081830303815290604052805190602001200361068c5760008082815260200190815260200160002060405180608001604052908160008201805461053790611822565b80601f016020809104026020016040519081016040528092919081815260200182805461056390611822565b80156105b05780601f10610585576101008083540402835291602001916105b0565b820191906000526020600020905b81548152906001019060200180831161059357829003601f168201915b50505050508152602001600182015481526020016002820180546105d390611822565b80601f01602080910402602001604051908101604052809291908181526020018280546105ff90611822565b801561064c5780601f106106215761010080835404028352916020019161064c565b820191906000526020600020905b81548152906001019060200180831161062f57829003601f168201915b5050505050815260200160038201548152505083838151811061067257610671611979565b5b6020026020010181905250818061068890611931565b9250505b808061069790611931565b91505061049a565b50819350505050919050565b60006020528060005260406000206000915090508060000180546106ce90611822565b80601f01602080910402602001604051908101604052809291908181526020018280546106fa90611822565b80156107475780601f1061071c57610100808354040283529160200191610747565b820191906000526020600020905b81548152906001019060200180831161072a57829003601f168201915b50505050509080600101549080600201805461076290611822565b80601f016020809104026020016040519081016040528092919081815260200182805461078e90611822565b80156107db5780601f106107b0576101008083540402835291602001916107db565b820191906000526020600020905b8154815290600101906020018083116107be57829003601f168201915b5050505050908060030154905084565b825184511480156107fd575081518351145b801561080a575080518251145b610849576040517f08c379a000000000000000000000000000000000000000000000000000000000815260040161084090611a1a565b60405180910390fd5b60005b8451811015610a05576001600081548092919061086890611931565b9190505550604051806080016040528086838151811061088b5761088a611979565b5b602002602001015181526020018583815181106108ab576108aa611979565b5b602002602001015181526020018483815181106108cb576108ca611979565b5b602002602001015181526020018383815181106108eb576108ea611979565b5b60200260200101518152506000806001548152602001908152602001600020600082015181600001908161091f9190611bd1565b5060208201518160010155604082015181600201908161093f9190611bd1565b50606082015181600301559050507fc5398f105799e97af1605dbaeed442f0e9b239fc622c4307746a08d7bf7db67785828151811061098157610980611979565b5b602002602001015185838151811061099c5761099b611979565b5b60200260200101518584815181106109b7576109b6611979565b5b60200260200101518585815181106109d2576109d1611979565b5b60200260200101516040516109ea9493929190611426565b60405180910390a180806109fd90611931565b91505061084c565b5050505050565b600080600090506000600190505b6001548111610aac5783604051602001610a3491906117dc565b60405160208183030381529060405280519060200120600080838152602001908152602001600020600001604051602001610a6f91906118eb565b6040516020818303038152906040528051906020012003610a99578180610a9590611931565b9250505b8080610aa490611931565b915050610a1a565b5080915050919050565b6060600060015467ffffffffffffffff811115610ad657610ad5610f49565b5b604051908082528060200260200182016040528015610b0f57816020015b610afc610ef2565b815260200190600190039081610af45790505b5090506000600190505b6001548111610cb457600080828152602001908152602001600020604051806080016040529081600082018054610b4f90611822565b80601f0160208091040260200160405190810160405280929190818152602001828054610b7b90611822565b8015610bc85780601f10610b9d57610100808354040283529160200191610bc8565b820191906000526020600020905b815481529060010190602001808311610bab57829003601f168201915b5050505050815260200160018201548152602001600282018054610beb90611822565b80601f0160208091040260200160405190810160405280929190818152602001828054610c1790611822565b8015610c645780601f10610c3957610100808354040283529160200191610c64565b820191906000526020600020905b815481529060010190602001808311610c4757829003601f168201915b5050505050815260200160038201548152505082600183610c859190611ca3565b81518110610c9657610c95611979565b5b60200260200101819052508080610cac90611931565b915050610b19565b508091505090565b60015481565b610cca610ef2565b6000600190505b6001548111610eb15782604051602001610ceb91906117dc565b60405160208183030381529060405280519060200120600080838152602001908152602001600020600001604051602001610d2691906118eb565b6040516020818303038152906040528051906020012003610e9e57600080828152602001908152602001600020604051806080016040529081600082018054610d6e90611822565b80601f0160208091040260200160405190810160405280929190818152602001828054610d9a90611822565b8015610de75780601f10610dbc57610100808354040283529160200191610de7565b820191906000526020600020905b815481529060010190602001808311610dca57829003601f168201915b5050505050815260200160018201548152602001600282018054610e0a90611822565b80601f0160208091040260200160405190810160405280929190818152602001828054610e3690611822565b8015610e835780601f10610e5857610100808354040283529160200191610e83565b820191906000526020600020905b815481529060010190602001808311610e6657829003601f168201915b50505050508152602001600382015481525050915050610eed565b8080610ea990611931565b915050610cd1565b506040517f08c379a0000000000000000000000000000000000000000000000000000000008152600401610ee490611d23565b60405180910390fd5b919050565b6040518060800160405280606081526020016000815260200160608152602001600081525090565b6000604051905090565b600080fd5b600080fd5b600080fd5b600080fd5b6000601f19601f8301169050919050565b7f4e487b7100000000000000000000000000000000000000000000000000000000600052604160045260246000fd5b610f8182610f38565b810181811067ffffffffffffffff82111715610fa057610f9f610f49565b5b80604052505050565b6000610fb3610f1a565b9050610fbf8282610f78565b919050565b600067ffffffffffffffff821115610fdf57610fde610f49565b5b610fe882610f38565b9050602081019050919050565b82818337600083830152505050565b600061101761101284610fc4565b610fa9565b90508281526020810184848401111561103357611032610f33565b5b61103e848285610ff5565b509392505050565b600082601f83011261105b5761105a610f2e565b5b813561106b848260208601611004565b91505092915050565b60006020828403121561108a57611089610f24565b5b600082013567ffffffffffffffff8111156110a8576110a7610f29565b5b6110b484828501611046565b91505092915050565b600081519050919050565b600082825260208201905092915050565b6000819050602082019050919050565b6000819050919050565b6110fc816110e9565b82525050565b600061110e83836110f3565b60208301905092915050565b6000602082019050919050565b6000611132826110bd565b61113c81856110c8565b9350611147836110d9565b8060005b8381101561117857815161115f8882611102565b975061116a8361111a565b92505060018101905061114b565b5085935050505092915050565b6000602082019050818103600083015261119f8184611127565b905092915050565b600081519050919050565b600082825260208201905092915050565b6000819050602082019050919050565b600081519050919050565b600082825260208201905092915050565b60005b8381101561120d5780820151818401526020810190506111f2565b60008484015250505050565b6000611224826111d3565b61122e81856111de565b935061123e8185602086016111ef565b61124781610f38565b840191505092915050565b6000608083016000830151848203600086015261126f8282611219565b915050602083015161128460208601826110f3565b506040830151848203604086015261129c8282611219565b91505060608301516112b160608601826110f3565b508091505092915050565b60006112c88383611252565b905092915050565b6000602082019050919050565b60006112e8826111a7565b6112f281856111b2565b935083602082028501611304856111c3565b8060005b85811015611340578484038952815161132185826112bc565b945061132c836112d0565b925060208a01995050600181019050611308565b50829750879550505050505092915050565b6000602082019050818103600083015261136c81846112dd565b905092915050565b61137d816110e9565b811461138857600080fd5b50565b60008135905061139a81611374565b92915050565b6000602082840312156113b6576113b5610f24565b5b60006113c48482850161138b565b91505092915050565b600082825260208201905092915050565b60006113e9826111d3565b6113f381856113cd565b93506114038185602086016111ef565b61140c81610f38565b840191505092915050565b611420816110e9565b82525050565b6000608082019050818103600083015261144081876113de565b905061144f6020830186611417565b818103604083015261146181856113de565b90506114706060830184611417565b95945050505050565b600067ffffffffffffffff82111561149457611493610f49565b5b602082029050602081019050919050565b600080fd5b60006114bd6114b884611479565b610fa9565b905080838252602082019050602084028301858111156114e0576114df6114a5565b5b835b8181101561152757803567ffffffffffffffff81111561150557611504610f2e565b5b8086016115128982611046565b855260208501945050506020810190506114e2565b5050509392505050565b600082601f83011261154657611545610f2e565b5b81356115568482602086016114aa565b91505092915050565b600067ffffffffffffffff82111561157a57611579610f49565b5b602082029050602081019050919050565b600061159e6115998461155f565b610fa9565b905080838252602082019050602084028301858111156115c1576115c06114a5565b5b835b818110156115ea57806115d6888261138b565b8452602084019350506020810190506115c3565b5050509392505050565b600082601f83011261160957611608610f2e565b5b813561161984826020860161158b565b91505092915050565b6000806000806080858703121561163c5761163b610f24565b5b600085013567ffffffffffffffff81111561165a57611659610f29565b5b61166687828801611531565b945050602085013567ffffffffffffffff81111561168757611686610f29565b5b611693878288016115f4565b935050604085013567ffffffffffffffff8111156116b4576116b3610f29565b5b6116c087828801611531565b925050606085013567ffffffffffffffff8111156116e1576116e0610f29565b5b6116ed878288016115f4565b91505092959194509250565b600060208201905061170e6000830184611417565b92915050565b600060808301600083015184820360008601526117318282611219565b915050602083015161174660208601826110f3565b506040830151848203604086015261175e8282611219565b915050606083015161177360608601826110f3565b508091505092915050565b600060208201905081810360008301526117988184611714565b905092915050565b600081905092915050565b60006117b6826111d3565b6117c081856117a0565b93506117d08185602086016111ef565b80840191505092915050565b60006117e882846117ab565b915081905092915050565b7f4e487b7100000000000000000000000000000000000000000000000000000000600052602260045260246000fd5b6000600282049050600182168061183a57607f821691505b60208210810361184d5761184c6117f3565b5b50919050565b60008190508160005260206000209050919050565b6000815461187581611822565b61187f81866117a0565b9450600182166000811461189a57600181146118af576118e2565b60ff19831686528115158202860193506118e2565b6118b885611853565b60005b838110156118da578154818901526001820191506020810190506118bb565b838801955050505b50505092915050565b60006118f78284611868565b915081905092915050565b7f4e487b7100000000000000000000000000000000000000000000000000000000600052601160045260246000fd5b600061193c826110e9565b91507fffffffffffffffffffffffffffffffffffffffffffffffffffffffffffffffff820361196e5761196d611902565b5b600182019050919050565b7f4e487b7100000000000000000000000000000000000000000000000000000000600052603260045260246000fd5b7f4c656e67746873206f6620696e7075742061727261797320646f206e6f74206d60008201527f6174636800000000000000000000000000000000000000000000000000000000602082015250565b6000611a046024836113cd565b9150611a0f826119a8565b604082019050919050565b60006020820190508181036000830152611a33816119f7565b9050919050565b60006020601f8301049050919050565b600082821b905092915050565b600060088302611a877fffffffffffffffffffffffffffffffffffffffffffffffffffffffffffffffff82611a4a565b611a918683611a4a565b95508019841693508086168417925050509392505050565b6000819050919050565b6000611ace611ac9611ac4846110e9565b611aa9565b6110e9565b9050919050565b6000819050919050565b611ae883611ab3565b611afc611af482611ad5565b848454611a57565b825550505050565b600090565b611b11611b04565b611b1c818484611adf565b505050565b5b81811015611b4057611b35600082611b09565b600181019050611b22565b5050565b601f821115611b8557611b5681611853565b611b5f84611a3a565b81016020851015611b6e578190505b611b82611b7a85611a3a565b830182611b21565b50505b505050565b600082821c905092915050565b6000611ba860001984600802611b8a565b1980831691505092915050565b6000611bc18383611b97565b9150826002028217905092915050565b611bda826111d3565b67ffffffffffffffff811115611bf357611bf2610f49565b5b611bfd8254611822565b611c08828285611b44565b600060209050601f831160018114611c3b5760008415611c29578287015190505b611c338582611bb5565b865550611c9b565b601f198416611c4986611853565b60005b82811015611c7157848901518255600182019150602085019450602081019050611c4c565b86831015611c8e5784890151611c8a601f891682611b97565b8355505b6001600288020188555050505b505050505050565b6000611cae826110e9565b9150611cb9836110e9565b9250828203905081811115611cd157611cd0611902565b5b92915050565b7f5472616e73616374696f6e2064657461696c206e6f7420666f756e6400000000600082015250565b6000611d0d601c836113cd565b9150611d1882611cd7565b602082019050919050565b60006020820190508181036000830152611d3c81611d00565b905091905056fea2646970667358221220eb4ca973a013a8bef922b2e9580e1834be12cbe73589e8c991d5f298ef0398eb64736f6c63430008100033",
					"opcodes": "PUSH1 0x80 PUSH1 0x40 MSTORE CALLVALUE DUP1 ISZERO PUSH2 0x10 JUMPI PUSH1 0x0 DUP1 REVERT JUMPDEST POP PUSH2 0x1D79 DUP1 PUSH2 0x20 PUSH1 0x0 CODECOPY PUSH1 0x0 RETURN INVALID PUSH1 0x80 PUSH1 0x40 MSTORE CALLVALUE DUP1 ISZERO PUSH2 0x10 JUMPI PUSH1 0x0 DUP1 REVERT JUMPDEST POP PUSH1 0x4 CALLDATASIZE LT PUSH2 0x88 JUMPI PUSH1 0x0 CALLDATALOAD PUSH1 0xE0 SHR DUP1 PUSH4 0x9CD9BE93 GT PUSH2 0x5B JUMPI DUP1 PUSH4 0x9CD9BE93 EQ PUSH2 0x13C JUMPI DUP1 PUSH4 0xA5773610 EQ PUSH2 0x16C JUMPI DUP1 PUSH4 0xCF810953 EQ PUSH2 0x18A JUMPI DUP1 PUSH4 0xF08C6CA8 EQ PUSH2 0x1A8 JUMPI PUSH2 0x88 JUMP JUMPDEST DUP1 PUSH4 0x786C9A8 EQ PUSH2 0x8D JUMPI DUP1 PUSH4 0x2EF8750F EQ PUSH2 0xBD JUMPI DUP1 PUSH4 0x3F0A54A6 EQ PUSH2 0xED JUMPI DUP1 PUSH4 0x6351212E EQ PUSH2 0x120 JUMPI JUMPDEST PUSH1 0x0 DUP1 REVERT JUMPDEST PUSH2 0xA7 PUSH1 0x4 DUP1 CALLDATASIZE SUB DUP2 ADD SWAP1 PUSH2 0xA2 SWAP2 SWAP1 PUSH2 0x1074 JUMP JUMPDEST PUSH2 0x1D8 JUMP JUMPDEST PUSH1 0x40 MLOAD PUSH2 0xB4 SWAP2 SWAP1 PUSH2 0x1185 JUMP JUMPDEST PUSH1 0x40 MLOAD DUP1 SWAP2 SUB SWAP1 RETURN JUMPDEST PUSH2 0xD7 PUSH1 0x4 DUP1 CALLDATASIZE SUB DUP2 ADD SWAP1 PUSH2 0xD2 SWAP2 SWAP1 PUSH2 0x1074 JUMP JUMPDEST PUSH2 0x39D JUMP JUMPDEST PUSH1 0x40 MLOAD PUSH2 0xE4 SWAP2 SWAP1 PUSH2 0x1352 JUMP JUMPDEST PUSH1 0x40 MLOAD DUP1 SWAP2 SUB SWAP1 RETURN JUMPDEST PUSH2 0x107 PUSH1 0x4 DUP1 CALLDATASIZE SUB DUP2 ADD SWAP1 PUSH2 0x102 SWAP2 SWAP1 PUSH2 0x13A0 JUMP JUMPDEST PUSH2 0x6AB JUMP JUMPDEST PUSH1 0x40 MLOAD PUSH2 0x117 SWAP5 SWAP4 SWAP3 SWAP2 SWAP1 PUSH2 0x1426 JUMP JUMPDEST PUSH1 0x40 MLOAD DUP1 SWAP2 SUB SWAP1 RETURN JUMPDEST PUSH2 0x13A PUSH1 0x4 DUP1 CALLDATASIZE SUB DUP2 ADD SWAP1 PUSH2 0x135 SWAP2 SWAP1 PUSH2 0x1622 JUMP JUMPDEST PUSH2 0x7EB JUMP JUMPDEST STOP JUMPDEST PUSH2 0x156 PUSH1 0x4 DUP1 CALLDATASIZE SUB DUP2 ADD SWAP1 PUSH2 0x151 SWAP2 SWAP1 PUSH2 0x1074 JUMP JUMPDEST PUSH2 0xA0C JUMP JUMPDEST PUSH1 0x40 MLOAD PUSH2 0x163 SWAP2 SWAP1 PUSH2 0x16F9 JUMP JUMPDEST PUSH1 0x40 MLOAD DUP1 SWAP2 SUB SWAP1 RETURN JUMPDEST PUSH2 0x174 PUSH2 0xAB6 JUMP JUMPDEST PUSH1 0x40 MLOAD PUSH2 0x181 SWAP2 SWAP1 PUSH2 0x1352 JUMP JUMPDEST PUSH1 0x40 MLOAD DUP1 SWAP2 SUB SWAP1 RETURN JUMPDEST PUSH2 0x192 PUSH2 0xCBC JUMP JUMPDEST PUSH1 0x40 MLOAD PUSH2 0x19F SWAP2 SWAP1 PUSH2 0x16F9 JUMP JUMPDEST PUSH1 0x40 MLOAD DUP1 SWAP2 SUB SWAP1 RETURN JUMPDEST PUSH2 0x1C2 PUSH1 0x4 DUP1 CALLDATASIZE SUB DUP2 ADD SWAP1 PUSH2 0x1BD SWAP2 SWAP1 PUSH2 0x1074 JUMP JUMPDEST PUSH2 0xCC2 JUMP JUMPDEST PUSH1 0x40 MLOAD PUSH2 0x1CF SWAP2 SWAP1 PUSH2 0x177E JUMP JUMPDEST PUSH1 0x40 MLOAD DUP1 SWAP2 SUB SWAP1 RETURN JUMPDEST PUSH1 0x60 PUSH1 0x0 DUP1 PUSH1 0x1 SWAP1 POP JUMPDEST PUSH1 0x1 SLOAD DUP2 GT PUSH2 0x274 JUMPI DUP4 PUSH1 0x40 MLOAD PUSH1 0x20 ADD PUSH2 0x1FC SWAP2 SWAP1 PUSH2 0x17DC JUMP JUMPDEST PUSH1 0x40 MLOAD PUSH1 0x20 DUP2 DUP4 SUB SUB DUP2 MSTORE SWAP1 PUSH1 0x40 MSTORE DUP1 MLOAD SWAP1 PUSH1 0x20 ADD KECCAK256 PUSH1 0x0 DUP1 DUP4 DUP2 MSTORE PUSH1 0x20 ADD SWAP1 DUP2 MSTORE PUSH1 0x20 ADD PUSH1 0x0 KECCAK256 PUSH1 0x0 ADD PUSH1 0x40 MLOAD PUSH1 0x20 ADD PUSH2 0x237 SWAP2 SWAP1 PUSH2 0x18EB JUMP JUMPDEST PUSH1 0x40 MLOAD PUSH1 0x20 DUP2 DUP4 SUB SUB DUP2 MSTORE SWAP1 PUSH1 0x40 MSTORE DUP1 MLOAD SWAP1 PUSH1 0x20 ADD KECCAK256 SUB PUSH2 0x261 JUMPI DUP2 DUP1 PUSH2 0x25D SWAP1 PUSH2 0x1931 JUMP JUMPDEST SWAP3 POP POP JUMPDEST DUP1 DUP1 PUSH2 0x26C SWAP1 PUSH2 0x1931 JUMP JUMPDEST SWAP2 POP POP PUSH2 0x1E2 JUMP JUMPDEST POP PUSH1 0x0 DUP2 PUSH8 0xFFFFFFFFFFFFFFFF DUP2 GT ISZERO PUSH2 0x291 JUMPI PUSH2 0x290 PUSH2 0xF49 JUMP JUMPDEST JUMPDEST PUSH1 0x40 MLOAD SWAP1 DUP1 DUP3 MSTORE DUP1 PUSH1 0x20 MUL PUSH1 0x20 ADD DUP3 ADD PUSH1 0x40 MSTORE DUP1 ISZERO PUSH2 0x2BF JUMPI DUP2 PUSH1 0x20 ADD PUSH1 0x20 DUP3 MUL DUP1 CALLDATASIZE DUP4 CALLDATACOPY DUP1 DUP3 ADD SWAP2 POP POP SWAP1 POP JUMPDEST POP SWAP1 POP PUSH1 0x0 DUP1 PUSH1 0x1 SWAP1 POP JUMPDEST PUSH1 0x1 SLOAD DUP2 GT PUSH2 0x391 JUMPI DUP6 PUSH1 0x40 MLOAD PUSH1 0x20 ADD PUSH2 0x2E4 SWAP2 SWAP1 PUSH2 0x17DC JUMP JUMPDEST PUSH1 0x40 MLOAD PUSH1 0x20 DUP2 DUP4 SUB SUB DUP2 MSTORE SWAP1 PUSH1 0x40 MSTORE DUP1 MLOAD SWAP1 PUSH1 0x20 ADD KECCAK256 PUSH1 0x0 DUP1 DUP4 DUP2 MSTORE PUSH1 0x20 ADD SWAP1 DUP2 MSTORE PUSH1 0x20 ADD PUSH1 0x0 KECCAK256 PUSH1 0x0 ADD PUSH1 0x40 MLOAD PUSH1 0x20 ADD PUSH2 0x31F SWAP2 SWAP1 PUSH2 0x18EB JUMP JUMPDEST PUSH1 0x40 MLOAD PUSH1 0x20 DUP2 DUP4 SUB SUB DUP2 MSTORE SWAP1 PUSH1 0x40 MSTORE DUP1 MLOAD SWAP1 PUSH1 0x20 ADD KECCAK256 SUB PUSH2 0x37E JUMPI PUSH1 0x0 DUP1 DUP3 DUP2 MSTORE PUSH1 0x20 ADD SWAP1 DUP2 MSTORE PUSH1 0x20 ADD PUSH1 0x0 KECCAK256 PUSH1 0x1 ADD SLOAD DUP4 DUP4 DUP2 MLOAD DUP2 LT PUSH2 0x363 JUMPI PUSH2 0x362 PUSH2 0x1979 JUMP JUMPDEST JUMPDEST PUSH1 0x20 MUL PUSH1 0x20 ADD ADD DUP2 DUP2 MSTORE POP POP DUP2 DUP1 PUSH2 0x37A SWAP1 PUSH2 0x1931 JUMP JUMPDEST SWAP3 POP POP JUMPDEST DUP1 DUP1 PUSH2 0x389 SWAP1 PUSH2 0x1931 JUMP JUMPDEST SWAP2 POP POP PUSH2 0x2CA JUMP JUMPDEST POP DUP2 SWAP4 POP POP POP POP SWAP2 SWAP1 POP JUMP JUMPDEST PUSH1 0x60 PUSH1 0x0 DUP1 PUSH1 0x1 SWAP1 POP JUMPDEST PUSH1 0x1 SLOAD DUP2 GT PUSH2 0x439 JUMPI DUP4 PUSH1 0x40 MLOAD PUSH1 0x20 ADD PUSH2 0x3C1 SWAP2 SWAP1 PUSH2 0x17DC JUMP JUMPDEST PUSH1 0x40 MLOAD PUSH1 0x20 DUP2 DUP4 SUB SUB DUP2 MSTORE SWAP1 PUSH1 0x40 MSTORE DUP1 MLOAD SWAP1 PUSH1 0x20 ADD KECCAK256 PUSH1 0x0 DUP1 DUP4 DUP2 MSTORE PUSH1 0x20 ADD SWAP1 DUP2 MSTORE PUSH1 0x20 ADD PUSH1 0x0 KECCAK256 PUSH1 0x0 ADD PUSH1 0x40 MLOAD PUSH1 0x20 ADD PUSH2 0x3FC SWAP2 SWAP1 PUSH2 0x18EB JUMP JUMPDEST PUSH1 0x40 MLOAD PUSH1 0x20 DUP2 DUP4 SUB SUB DUP2 MSTORE SWAP1 PUSH1 0x40 MSTORE DUP1 MLOAD SWAP1 PUSH1 0x20 ADD KECCAK256 SUB PUSH2 0x426 JUMPI DUP2 DUP1 PUSH2 0x422 SWAP1 PUSH2 0x1931 JUMP JUMPDEST SWAP3 POP POP JUMPDEST DUP1 DUP1 PUSH2 0x431 SWAP1 PUSH2 0x1931 JUMP JUMPDEST SWAP2 POP POP PUSH2 0x3A7 JUMP JUMPDEST POP PUSH1 0x0 DUP2 PUSH8 0xFFFFFFFFFFFFFFFF DUP2 GT ISZERO PUSH2 0x456 JUMPI PUSH2 0x455 PUSH2 0xF49 JUMP JUMPDEST JUMPDEST PUSH1 0x40 MLOAD SWAP1 DUP1 DUP3 MSTORE DUP1 PUSH1 0x20 MUL PUSH1 0x20 ADD DUP3 ADD PUSH1 0x40 MSTORE DUP1 ISZERO PUSH2 0x48F JUMPI DUP2 PUSH1 0x20 ADD JUMPDEST PUSH2 0x47C PUSH2 0xEF2 JUMP JUMPDEST DUP2 MSTORE PUSH1 0x20 ADD SWAP1 PUSH1 0x1 SWAP1 SUB SWAP1 DUP2 PUSH2 0x474 JUMPI SWAP1 POP JUMPDEST POP SWAP1 POP PUSH1 0x0 DUP1 PUSH1 0x1 SWAP1 POP JUMPDEST PUSH1 0x1 SLOAD DUP2 GT PUSH2 0x69F JUMPI DUP6 PUSH1 0x40 MLOAD PUSH1 0x20 ADD PUSH2 0x4B4 SWAP2 SWAP1 PUSH2 0x17DC JUMP JUMPDEST PUSH1 0x40 MLOAD PUSH1 0x20 DUP2 DUP4 SUB SUB DUP2 MSTORE SWAP1 PUSH1 0x40 MSTORE DUP1 MLOAD SWAP1 PUSH1 0x20 ADD KECCAK256 PUSH1 0x0 DUP1 DUP4 DUP2 MSTORE PUSH1 0x20 ADD SWAP1 DUP2 MSTORE PUSH1 0x20 ADD PUSH1 0x0 KECCAK256 PUSH1 0x0 ADD PUSH1 0x40 MLOAD PUSH1 0x20 ADD PUSH2 0x4EF SWAP2 SWAP1 PUSH2 0x18EB JUMP JUMPDEST PUSH1 0x40 MLOAD PUSH1 0x20 DUP2 DUP4 SUB SUB DUP2 MSTORE SWAP1 PUSH1 0x40 MSTORE DUP1 MLOAD SWAP1 PUSH1 0x20 ADD KECCAK256 SUB PUSH2 0x68C JUMPI PUSH1 0x0 DUP1 DUP3 DUP2 MSTORE PUSH1 0x20 ADD SWAP1 DUP2 MSTORE PUSH1 0x20 ADD PUSH1 0x0 KECCAK256 PUSH1 0x40 MLOAD DUP1 PUSH1 0x80 ADD PUSH1 0x40 MSTORE SWAP1 DUP2 PUSH1 0x0 DUP3 ADD DUP1 SLOAD PUSH2 0x537 SWAP1 PUSH2 0x1822 JUMP JUMPDEST DUP1 PUSH1 0x1F ADD PUSH1 0x20 DUP1 SWAP2 DIV MUL PUSH1 0x20 ADD PUSH1 0x40 MLOAD SWAP1 DUP2 ADD PUSH1 0x40 MSTORE DUP1 SWAP3 SWAP2 SWAP1 DUP2 DUP2 MSTORE PUSH1 0x20 ADD DUP3 DUP1 SLOAD PUSH2 0x563 SWAP1 PUSH2 0x1822 JUMP JUMPDEST DUP1 ISZERO PUSH2 0x5B0 JUMPI DUP1 PUSH1 0x1F LT PUSH2 0x585 JUMPI PUSH2 0x100 DUP1 DUP4 SLOAD DIV MUL DUP4 MSTORE SWAP2 PUSH1 0x20 ADD SWAP2 PUSH2 0x5B0 JUMP JUMPDEST DUP3 ADD SWAP2 SWAP1 PUSH1 0x0 MSTORE PUSH1 0x20 PUSH1 0x0 KECCAK256 SWAP1 JUMPDEST DUP2 SLOAD DUP2 MSTORE SWAP1 PUSH1 0x1 ADD SWAP1 PUSH1 0x20 ADD DUP1 DUP4 GT PUSH2 0x593 JUMPI DUP3 SWAP1 SUB PUSH1 0x1F AND DUP3 ADD SWAP2 JUMPDEST POP POP POP POP POP DUP2 MSTORE PUSH1 0x20 ADD PUSH1 0x1 DUP3 ADD SLOAD DUP2 MSTORE PUSH1 0x20 ADD PUSH1 0x2 DUP3 ADD DUP1 SLOAD PUSH2 0x5D3 SWAP1 PUSH2 0x1822 JUMP JUMPDEST DUP1 PUSH1 0x1F ADD PUSH1 0x20 DUP1 SWAP2 DIV MUL PUSH1 0x20 ADD PUSH1 0x40 MLOAD SWAP1 DUP2 ADD PUSH1 0x40 MSTORE DUP1 SWAP3 SWAP2 SWAP1 DUP2 DUP2 MSTORE PUSH1 0x20 ADD DUP3 DUP1 SLOAD PUSH2 0x5FF SWAP1 PUSH2 0x1822 JUMP JUMPDEST DUP1 ISZERO PUSH2 0x64C JUMPI DUP1 PUSH1 0x1F LT PUSH2 0x621 JUMPI PUSH2 0x100 DUP1 DUP4 SLOAD DIV MUL DUP4 MSTORE SWAP2 PUSH1 0x20 ADD SWAP2 PUSH2 0x64C JUMP JUMPDEST DUP3 ADD SWAP2 SWAP1 PUSH1 0x0 MSTORE PUSH1 0x20 PUSH1 0x0 KECCAK256 SWAP1 JUMPDEST DUP2 SLOAD DUP2 MSTORE SWAP1 PUSH1 0x1 ADD SWAP1 PUSH1 0x20 ADD DUP1 DUP4 GT PUSH2 0x62F JUMPI DUP3 SWAP1 SUB PUSH1 0x1F AND DUP3 ADD SWAP2 JUMPDEST POP POP POP POP POP DUP2 MSTORE PUSH1 0x20 ADD PUSH1 0x3 DUP3 ADD SLOAD DUP2 MSTORE POP POP DUP4 DUP4 DUP2 MLOAD DUP2 LT PUSH2 0x672 JUMPI PUSH2 0x671 PUSH2 0x1979 JUMP JUMPDEST JUMPDEST PUSH1 0x20 MUL PUSH1 0x20 ADD ADD DUP2 SWAP1 MSTORE POP DUP2 DUP1 PUSH2 0x688 SWAP1 PUSH2 0x1931 JUMP JUMPDEST SWAP3 POP POP JUMPDEST DUP1 DUP1 PUSH2 0x697 SWAP1 PUSH2 0x1931 JUMP JUMPDEST SWAP2 POP POP PUSH2 0x49A JUMP JUMPDEST POP DUP2 SWAP4 POP POP POP POP SWAP2 SWAP1 POP JUMP JUMPDEST PUSH1 0x0 PUSH1 0x20 MSTORE DUP1 PUSH1 0x0 MSTORE PUSH1 0x40 PUSH1 0x0 KECCAK256 PUSH1 0x0 SWAP2 POP SWAP1 POP DUP1 PUSH1 0x0 ADD DUP1 SLOAD PUSH2 0x6CE SWAP1 PUSH2 0x1822 JUMP JUMPDEST DUP1 PUSH1 0x1F ADD PUSH1 0x20 DUP1 SWAP2 DIV MUL PUSH1 0x20 ADD PUSH1 0x40 MLOAD SWAP1 DUP2 ADD PUSH1 0x40 MSTORE DUP1 SWAP3 SWAP2 SWAP1 DUP2 DUP2 MSTORE PUSH1 0x20 ADD DUP3 DUP1 SLOAD PUSH2 0x6FA SWAP1 PUSH2 0x1822 JUMP JUMPDEST DUP1 ISZERO PUSH2 0x747 JUMPI DUP1 PUSH1 0x1F LT PUSH2 0x71C JUMPI PUSH2 0x100 DUP1 DUP4 SLOAD DIV MUL DUP4 MSTORE SWAP2 PUSH1 0x20 ADD SWAP2 PUSH2 0x747 JUMP JUMPDEST DUP3 ADD SWAP2 SWAP1 PUSH1 0x0 MSTORE PUSH1 0x20 PUSH1 0x0 KECCAK256 SWAP1 JUMPDEST DUP2 SLOAD DUP2 MSTORE SWAP1 PUSH1 0x1 ADD SWAP1 PUSH1 0x20 ADD DUP1 DUP4 GT PUSH2 0x72A JUMPI DUP3 SWAP1 SUB PUSH1 0x1F AND DUP3 ADD SWAP2 JUMPDEST POP POP POP POP POP SWAP1 DUP1 PUSH1 0x1 ADD SLOAD SWAP1 DUP1 PUSH1 0x2 ADD DUP1 SLOAD PUSH2 0x762 SWAP1 PUSH2 0x1822 JUMP JUMPDEST DUP1 PUSH1 0x1F ADD PUSH1 0x20 DUP1 SWAP2 DIV MUL PUSH1 0x20 ADD PUSH1 0x40 MLOAD SWAP1 DUP2 ADD PUSH1 0x40 MSTORE DUP1 SWAP3 SWAP2 SWAP1 DUP2 DUP2 MSTORE PUSH1 0x20 ADD DUP3 DUP1 SLOAD PUSH2 0x78E SWAP1 PUSH2 0x1822 JUMP JUMPDEST DUP1 ISZERO PUSH2 0x7DB JUMPI DUP1 PUSH1 0x1F LT PUSH2 0x7B0 JUMPI PUSH2 0x100 DUP1 DUP4 SLOAD DIV MUL DUP4 MSTORE SWAP2 PUSH1 0x20 ADD SWAP2 PUSH2 0x7DB JUMP JUMPDEST DUP3 ADD SWAP2 SWAP1 PUSH1 0x0 MSTORE PUSH1 0x20 PUSH1 0x0 KECCAK256 SWAP1 JUMPDEST DUP2 SLOAD DUP2 MSTORE SWAP1 PUSH1 0x1 ADD SWAP1 PUSH1 0x20 ADD DUP1 DUP4 GT PUSH2 0x7BE JUMPI DUP3 SWAP1 SUB PUSH1 0x1F AND DUP3 ADD SWAP2 JUMPDEST POP POP POP POP POP SWAP1 DUP1 PUSH1 0x3 ADD SLOAD SWAP1 POP DUP5 JUMP JUMPDEST DUP3 MLOAD DUP5 MLOAD EQ DUP1 ISZERO PUSH2 0x7FD JUMPI POP DUP2 MLOAD DUP4 MLOAD EQ JUMPDEST DUP1 ISZERO PUSH2 0x80A JUMPI POP DUP1 MLOAD DUP3 MLOAD EQ JUMPDEST PUSH2 0x849 JUMPI PUSH1 0x40 MLOAD PUSH32 0x8C379A000000000000000000000000000000000000000000000000000000000 DUP2 MSTORE PUSH1 0x4 ADD PUSH2 0x840 SWAP1 PUSH2 0x1A1A JUMP JUMPDEST PUSH1 0x40 MLOAD DUP1 SWAP2 SUB SWAP1 REVERT JUMPDEST PUSH1 0x0 JUMPDEST DUP5 MLOAD DUP2 LT ISZERO PUSH2 0xA05 JUMPI PUSH1 0x1 PUSH1 0x0 DUP2 SLOAD DUP1 SWAP3 SWAP2 SWAP1 PUSH2 0x868 SWAP1 PUSH2 0x1931 JUMP JUMPDEST SWAP2 SWAP1 POP SSTORE POP PUSH1 0x40 MLOAD DUP1 PUSH1 0x80 ADD PUSH1 0x40 MSTORE DUP1 DUP7 DUP4 DUP2 MLOAD DUP2 LT PUSH2 0x88B JUMPI PUSH2 0x88A PUSH2 0x1979 JUMP JUMPDEST JUMPDEST PUSH1 0x20 MUL PUSH1 0x20 ADD ADD MLOAD DUP2 MSTORE PUSH1 0x20 ADD DUP6 DUP4 DUP2 MLOAD DUP2 LT PUSH2 0x8AB JUMPI PUSH2 0x8AA PUSH2 0x1979 JUMP JUMPDEST JUMPDEST PUSH1 0x20 MUL PUSH1 0x20 ADD ADD MLOAD DUP2 MSTORE PUSH1 0x20 ADD DUP5 DUP4 DUP2 MLOAD DUP2 LT PUSH2 0x8CB JUMPI PUSH2 0x8CA PUSH2 0x1979 JUMP JUMPDEST JUMPDEST PUSH1 0x20 MUL PUSH1 0x20 ADD ADD MLOAD DUP2 MSTORE PUSH1 0x20 ADD DUP4 DUP4 DUP2 MLOAD DUP2 LT PUSH2 0x8EB JUMPI PUSH2 0x8EA PUSH2 0x1979 JUMP JUMPDEST JUMPDEST PUSH1 0x20 MUL PUSH1 0x20 ADD ADD MLOAD DUP2 MSTORE POP PUSH1 0x0 DUP1 PUSH1 0x1 SLOAD DUP2 MSTORE PUSH1 0x20 ADD SWAP1 DUP2 MSTORE PUSH1 0x20 ADD PUSH1 0x0 KECCAK256 PUSH1 0x0 DUP3 ADD MLOAD DUP2 PUSH1 0x0 ADD SWAP1 DUP2 PUSH2 0x91F SWAP2 SWAP1 PUSH2 0x1BD1 JUMP JUMPDEST POP PUSH1 0x20 DUP3 ADD MLOAD DUP2 PUSH1 0x1 ADD SSTORE PUSH1 0x40 DUP3 ADD MLOAD DUP2 PUSH1 0x2 ADD SWAP1 DUP2 PUSH2 0x93F SWAP2 SWAP1 PUSH2 0x1BD1 JUMP JUMPDEST POP PUSH1 0x60 DUP3 ADD MLOAD DUP2 PUSH1 0x3 ADD SSTORE SWAP1 POP POP PUSH32 0xC5398F105799E97AF1605DBAEED442F0E9B239FC622C4307746A08D7BF7DB677 DUP6 DUP3 DUP2 MLOAD DUP2 LT PUSH2 0x981 JUMPI PUSH2 0x980 PUSH2 0x1979 JUMP JUMPDEST JUMPDEST PUSH1 0x20 MUL PUSH1 0x20 ADD ADD MLOAD DUP6 DUP4 DUP2 MLOAD DUP2 LT PUSH2 0x99C JUMPI PUSH2 0x99B PUSH2 0x1979 JUMP JUMPDEST JUMPDEST PUSH1 0x20 MUL PUSH1 0x20 ADD ADD MLOAD DUP6 DUP5 DUP2 MLOAD DUP2 LT PUSH2 0x9B7 JUMPI PUSH2 0x9B6 PUSH2 0x1979 JUMP JUMPDEST JUMPDEST PUSH1 0x20 MUL PUSH1 0x20 ADD ADD MLOAD DUP6 DUP6 DUP2 MLOAD DUP2 LT PUSH2 0x9D2 JUMPI PUSH2 0x9D1 PUSH2 0x1979 JUMP JUMPDEST JUMPDEST PUSH1 0x20 MUL PUSH1 0x20 ADD ADD MLOAD PUSH1 0x40 MLOAD PUSH2 0x9EA SWAP5 SWAP4 SWAP3 SWAP2 SWAP1 PUSH2 0x1426 JUMP JUMPDEST PUSH1 0x40 MLOAD DUP1 SWAP2 SUB SWAP1 LOG1 DUP1 DUP1 PUSH2 0x9FD SWAP1 PUSH2 0x1931 JUMP JUMPDEST SWAP2 POP POP PUSH2 0x84C JUMP JUMPDEST POP POP POP POP POP JUMP JUMPDEST PUSH1 0x0 DUP1 PUSH1 0x0 SWAP1 POP PUSH1 0x0 PUSH1 0x1 SWAP1 POP JUMPDEST PUSH1 0x1 SLOAD DUP2 GT PUSH2 0xAAC JUMPI DUP4 PUSH1 0x40 MLOAD PUSH1 0x20 ADD PUSH2 0xA34 SWAP2 SWAP1 PUSH2 0x17DC JUMP JUMPDEST PUSH1 0x40 MLOAD PUSH1 0x20 DUP2 DUP4 SUB SUB DUP2 MSTORE SWAP1 PUSH1 0x40 MSTORE DUP1 MLOAD SWAP1 PUSH1 0x20 ADD KECCAK256 PUSH1 0x0 DUP1 DUP4 DUP2 MSTORE PUSH1 0x20 ADD SWAP1 DUP2 MSTORE PUSH1 0x20 ADD PUSH1 0x0 KECCAK256 PUSH1 0x0 ADD PUSH1 0x40 MLOAD PUSH1 0x20 ADD PUSH2 0xA6F SWAP2 SWAP1 PUSH2 0x18EB JUMP JUMPDEST PUSH1 0x40 MLOAD PUSH1 0x20 DUP2 DUP4 SUB SUB DUP2 MSTORE SWAP1 PUSH1 0x40 MSTORE DUP1 MLOAD SWAP1 PUSH1 0x20 ADD KECCAK256 SUB PUSH2 0xA99 JUMPI DUP2 DUP1 PUSH2 0xA95 SWAP1 PUSH2 0x1931 JUMP JUMPDEST SWAP3 POP POP JUMPDEST DUP1 DUP1 PUSH2 0xAA4 SWAP1 PUSH2 0x1931 JUMP JUMPDEST SWAP2 POP POP PUSH2 0xA1A JUMP JUMPDEST POP DUP1 SWAP2 POP POP SWAP2 SWAP1 POP JUMP JUMPDEST PUSH1 0x60 PUSH1 0x0 PUSH1 0x1 SLOAD PUSH8 0xFFFFFFFFFFFFFFFF DUP2 GT ISZERO PUSH2 0xAD6 JUMPI PUSH2 0xAD5 PUSH2 0xF49 JUMP JUMPDEST JUMPDEST PUSH1 0x40 MLOAD SWAP1 DUP1 DUP3 MSTORE DUP1 PUSH1 0x20 MUL PUSH1 0x20 ADD DUP3 ADD PUSH1 0x40 MSTORE DUP1 ISZERO PUSH2 0xB0F JUMPI DUP2 PUSH1 0x20 ADD JUMPDEST PUSH2 0xAFC PUSH2 0xEF2 JUMP JUMPDEST DUP2 MSTORE PUSH1 0x20 ADD SWAP1 PUSH1 0x1 SWAP1 SUB SWAP1 DUP2 PUSH2 0xAF4 JUMPI SWAP1 POP JUMPDEST POP SWAP1 POP PUSH1 0x0 PUSH1 0x1 SWAP1 POP JUMPDEST PUSH1 0x1 SLOAD DUP2 GT PUSH2 0xCB4 JUMPI PUSH1 0x0 DUP1 DUP3 DUP2 MSTORE PUSH1 0x20 ADD SWAP1 DUP2 MSTORE PUSH1 0x20 ADD PUSH1 0x0 KECCAK256 PUSH1 0x40 MLOAD DUP1 PUSH1 0x80 ADD PUSH1 0x40 MSTORE SWAP1 DUP2 PUSH1 0x0 DUP3 ADD DUP1 SLOAD PUSH2 0xB4F SWAP1 PUSH2 0x1822 JUMP JUMPDEST DUP1 PUSH1 0x1F ADD PUSH1 0x20 DUP1 SWAP2 DIV MUL PUSH1 0x20 ADD PUSH1 0x40 MLOAD SWAP1 DUP2 ADD PUSH1 0x40 MSTORE DUP1 SWAP3 SWAP2 SWAP1 DUP2 DUP2 MSTORE PUSH1 0x20 ADD DUP3 DUP1 SLOAD PUSH2 0xB7B SWAP1 PUSH2 0x1822 JUMP JUMPDEST DUP1 ISZERO PUSH2 0xBC8 JUMPI DUP1 PUSH1 0x1F LT PUSH2 0xB9D JUMPI PUSH2 0x100 DUP1 DUP4 SLOAD DIV MUL DUP4 MSTORE SWAP2 PUSH1 0x20 ADD SWAP2 PUSH2 0xBC8 JUMP JUMPDEST DUP3 ADD SWAP2 SWAP1 PUSH1 0x0 MSTORE PUSH1 0x20 PUSH1 0x0 KECCAK256 SWAP1 JUMPDEST DUP2 SLOAD DUP2 MSTORE SWAP1 PUSH1 0x1 ADD SWAP1 PUSH1 0x20 ADD DUP1 DUP4 GT PUSH2 0xBAB JUMPI DUP3 SWAP1 SUB PUSH1 0x1F AND DUP3 ADD SWAP2 JUMPDEST POP POP POP POP POP DUP2 MSTORE PUSH1 0x20 ADD PUSH1 0x1 DUP3 ADD SLOAD DUP2 MSTORE PUSH1 0x20 ADD PUSH1 0x2 DUP3 ADD DUP1 SLOAD PUSH2 0xBEB SWAP1 PUSH2 0x1822 JUMP JUMPDEST DUP1 PUSH1 0x1F ADD PUSH1 0x20 DUP1 SWAP2 DIV MUL PUSH1 0x20 ADD PUSH1 0x40 MLOAD SWAP1 DUP2 ADD PUSH1 0x40 MSTORE DUP1 SWAP3 SWAP2 SWAP1 DUP2 DUP2 MSTORE PUSH1 0x20 ADD DUP3 DUP1 SLOAD PUSH2 0xC17 SWAP1 PUSH2 0x1822 JUMP JUMPDEST DUP1 ISZERO PUSH2 0xC64 JUMPI DUP1 PUSH1 0x1F LT PUSH2 0xC39 JUMPI PUSH2 0x100 DUP1 DUP4 SLOAD DIV MUL DUP4 MSTORE SWAP2 PUSH1 0x20 ADD SWAP2 PUSH2 0xC64 JUMP JUMPDEST DUP3 ADD SWAP2 SWAP1 PUSH1 0x0 MSTORE PUSH1 0x20 PUSH1 0x0 KECCAK256 SWAP1 JUMPDEST DUP2 SLOAD DUP2 MSTORE SWAP1 PUSH1 0x1 ADD SWAP1 PUSH1 0x20 ADD DUP1 DUP4 GT PUSH2 0xC47 JUMPI DUP3 SWAP1 SUB PUSH1 0x1F AND DUP3 ADD SWAP2 JUMPDEST POP POP POP POP POP DUP2 MSTORE PUSH1 0x20 ADD PUSH1 0x3 DUP3 ADD SLOAD DUP2 MSTORE POP POP DUP3 PUSH1 0x1 DUP4 PUSH2 0xC85 SWAP2 SWAP1 PUSH2 0x1CA3 JUMP JUMPDEST DUP2 MLOAD DUP2 LT PUSH2 0xC96 JUMPI PUSH2 0xC95 PUSH2 0x1979 JUMP JUMPDEST JUMPDEST PUSH1 0x20 MUL PUSH1 0x20 ADD ADD DUP2 SWAP1 MSTORE POP DUP1 DUP1 PUSH2 0xCAC SWAP1 PUSH2 0x1931 JUMP JUMPDEST SWAP2 POP POP PUSH2 0xB19 JUMP JUMPDEST POP DUP1 SWAP2 POP POP SWAP1 JUMP JUMPDEST PUSH1 0x1 SLOAD DUP2 JUMP JUMPDEST PUSH2 0xCCA PUSH2 0xEF2 JUMP JUMPDEST PUSH1 0x0 PUSH1 0x1 SWAP1 POP JUMPDEST PUSH1 0x1 SLOAD DUP2 GT PUSH2 0xEB1 JUMPI DUP3 PUSH1 0x40 MLOAD PUSH1 0x20 ADD PUSH2 0xCEB SWAP2 SWAP1 PUSH2 0x17DC JUMP JUMPDEST PUSH1 0x40 MLOAD PUSH1 0x20 DUP2 DUP4 SUB SUB DUP2 MSTORE SWAP1 PUSH1 0x40 MSTORE DUP1 MLOAD SWAP1 PUSH1 0x20 ADD KECCAK256 PUSH1 0x0 DUP1 DUP4 DUP2 MSTORE PUSH1 0x20 ADD SWAP1 DUP2 MSTORE PUSH1 0x20 ADD PUSH1 0x0 KECCAK256 PUSH1 0x0 ADD PUSH1 0x40 MLOAD PUSH1 0x20 ADD PUSH2 0xD26 SWAP2 SWAP1 PUSH2 0x18EB JUMP JUMPDEST PUSH1 0x40 MLOAD PUSH1 0x20 DUP2 DUP4 SUB SUB DUP2 MSTORE SWAP1 PUSH1 0x40 MSTORE DUP1 MLOAD SWAP1 PUSH1 0x20 ADD KECCAK256 SUB PUSH2 0xE9E JUMPI PUSH1 0x0 DUP1 DUP3 DUP2 MSTORE PUSH1 0x20 ADD SWAP1 DUP2 MSTORE PUSH1 0x20 ADD PUSH1 0x0 KECCAK256 PUSH1 0x40 MLOAD DUP1 PUSH1 0x80 ADD PUSH1 0x40 MSTORE SWAP1 DUP2 PUSH1 0x0 DUP3 ADD DUP1 SLOAD PUSH2 0xD6E SWAP1 PUSH2 0x1822 JUMP JUMPDEST DUP1 PUSH1 0x1F ADD PUSH1 0x20 DUP1 SWAP2 DIV MUL PUSH1 0x20 ADD PUSH1 0x40 MLOAD SWAP1 DUP2 ADD PUSH1 0x40 MSTORE DUP1 SWAP3 SWAP2 SWAP1 DUP2 DUP2 MSTORE PUSH1 0x20 ADD DUP3 DUP1 SLOAD PUSH2 0xD9A SWAP1 PUSH2 0x1822 JUMP JUMPDEST DUP1 ISZERO PUSH2 0xDE7 JUMPI DUP1 PUSH1 0x1F LT PUSH2 0xDBC JUMPI PUSH2 0x100 DUP1 DUP4 SLOAD DIV MUL DUP4 MSTORE SWAP2 PUSH1 0x20 ADD SWAP2 PUSH2 0xDE7 JUMP JUMPDEST DUP3 ADD SWAP2 SWAP1 PUSH1 0x0 MSTORE PUSH1 0x20 PUSH1 0x0 KECCAK256 SWAP1 JUMPDEST DUP2 SLOAD DUP2 MSTORE SWAP1 PUSH1 0x1 ADD SWAP1 PUSH1 0x20 ADD DUP1 DUP4 GT PUSH2 0xDCA JUMPI DUP3 SWAP1 SUB PUSH1 0x1F AND DUP3 ADD SWAP2 JUMPDEST POP POP POP POP POP DUP2 MSTORE PUSH1 0x20 ADD PUSH1 0x1 DUP3 ADD SLOAD DUP2 MSTORE PUSH1 0x20 ADD PUSH1 0x2 DUP3 ADD DUP1 SLOAD PUSH2 0xE0A SWAP1 PUSH2 0x1822 JUMP JUMPDEST DUP1 PUSH1 0x1F ADD PUSH1 0x20 DUP1 SWAP2 DIV MUL PUSH1 0x20 ADD PUSH1 0x40 MLOAD SWAP1 DUP2 ADD PUSH1 0x40 MSTORE DUP1 SWAP3 SWAP2 SWAP1 DUP2 DUP2 MSTORE PUSH1 0x20 ADD DUP3 DUP1 SLOAD PUSH2 0xE36 SWAP1 PUSH2 0x1822 JUMP JUMPDEST DUP1 ISZERO PUSH2 0xE83 JUMPI DUP1 PUSH1 0x1F LT PUSH2 0xE58 JUMPI PUSH2 0x100 DUP1 DUP4 SLOAD DIV MUL DUP4 MSTORE SWAP2 PUSH1 0x20 ADD SWAP2 PUSH2 0xE83 JUMP JUMPDEST DUP3 ADD SWAP2 SWAP1 PUSH1 0x0 MSTORE PUSH1 0x20 PUSH1 0x0 KECCAK256 SWAP1 JUMPDEST DUP2 SLOAD DUP2 MSTORE SWAP1 PUSH1 0x1 ADD SWAP1 PUSH1 0x20 ADD DUP1 DUP4 GT PUSH2 0xE66 JUMPI DUP3 SWAP1 SUB PUSH1 0x1F AND DUP3 ADD SWAP2 JUMPDEST POP POP POP POP POP DUP2 MSTORE PUSH1 0x20 ADD PUSH1 0x3 DUP3 ADD SLOAD DUP2 MSTORE POP POP SWAP2 POP POP PUSH2 0xEED JUMP JUMPDEST DUP1 DUP1 PUSH2 0xEA9 SWAP1 PUSH2 0x1931 JUMP JUMPDEST SWAP2 POP POP PUSH2 0xCD1 JUMP JUMPDEST POP PUSH1 0x40 MLOAD PUSH32 0x8C379A000000000000000000000000000000000000000000000000000000000 DUP2 MSTORE PUSH1 0x4 ADD PUSH2 0xEE4 SWAP1 PUSH2 0x1D23 JUMP JUMPDEST PUSH1 0x40 MLOAD DUP1 SWAP2 SUB SWAP1 REVERT JUMPDEST SWAP2 SWAP1 POP JUMP JUMPDEST PUSH1 0x40 MLOAD DUP1 PUSH1 0x80 ADD PUSH1 0x40 MSTORE DUP1 PUSH1 0x60 DUP2 MSTORE PUSH1 0x20 ADD PUSH1 0x0 DUP2 MSTORE PUSH1 0x20 ADD PUSH1 0x60 DUP2 MSTORE PUSH1 0x20 ADD PUSH1 0x0 DUP2 MSTORE POP SWAP1 JUMP JUMPDEST PUSH1 0x0 PUSH1 0x40 MLOAD SWAP1 POP SWAP1 JUMP JUMPDEST PUSH1 0x0 DUP1 REVERT JUMPDEST PUSH1 0x0 DUP1 REVERT JUMPDEST PUSH1 0x0 DUP1 REVERT JUMPDEST PUSH1 0x0 DUP1 REVERT JUMPDEST PUSH1 0x0 PUSH1 0x1F NOT PUSH1 0x1F DUP4 ADD AND SWAP1 POP SWAP2 SWAP1 POP JUMP JUMPDEST PUSH32 0x4E487B7100000000000000000000000000000000000000000000000000000000 PUSH1 0x0 MSTORE PUSH1 0x41 PUSH1 0x4 MSTORE PUSH1 0x24 PUSH1 0x0 REVERT JUMPDEST PUSH2 0xF81 DUP3 PUSH2 0xF38 JUMP JUMPDEST DUP2 ADD DUP2 DUP2 LT PUSH8 0xFFFFFFFFFFFFFFFF DUP3 GT OR ISZERO PUSH2 0xFA0 JUMPI PUSH2 0xF9F PUSH2 0xF49 JUMP JUMPDEST JUMPDEST DUP1 PUSH1 0x40 MSTORE POP POP POP JUMP JUMPDEST PUSH1 0x0 PUSH2 0xFB3 PUSH2 0xF1A JUMP JUMPDEST SWAP1 POP PUSH2 0xFBF DUP3 DUP3 PUSH2 0xF78 JUMP JUMPDEST SWAP2 SWAP1 POP JUMP JUMPDEST PUSH1 0x0 PUSH8 0xFFFFFFFFFFFFFFFF DUP3 GT ISZERO PUSH2 0xFDF JUMPI PUSH2 0xFDE PUSH2 0xF49 JUMP JUMPDEST JUMPDEST PUSH2 0xFE8 DUP3 PUSH2 0xF38 JUMP JUMPDEST SWAP1 POP PUSH1 0x20 DUP2 ADD SWAP1 POP SWAP2 SWAP1 POP JUMP JUMPDEST DUP3 DUP2 DUP4 CALLDATACOPY PUSH1 0x0 DUP4 DUP4 ADD MSTORE POP POP POP JUMP JUMPDEST PUSH1 0x0 PUSH2 0x1017 PUSH2 0x1012 DUP5 PUSH2 0xFC4 JUMP JUMPDEST PUSH2 0xFA9 JUMP JUMPDEST SWAP1 POP DUP3 DUP2 MSTORE PUSH1 0x20 DUP2 ADD DUP5 DUP5 DUP5 ADD GT ISZERO PUSH2 0x1033 JUMPI PUSH2 0x1032 PUSH2 0xF33 JUMP JUMPDEST JUMPDEST PUSH2 0x103E DUP5 DUP3 DUP6 PUSH2 0xFF5 JUMP JUMPDEST POP SWAP4 SWAP3 POP POP POP JUMP JUMPDEST PUSH1 0x0 DUP3 PUSH1 0x1F DUP4 ADD SLT PUSH2 0x105B JUMPI PUSH2 0x105A PUSH2 0xF2E JUMP JUMPDEST JUMPDEST DUP2 CALLDATALOAD PUSH2 0x106B DUP5 DUP3 PUSH1 0x20 DUP7 ADD PUSH2 0x1004 JUMP JUMPDEST SWAP2 POP POP SWAP3 SWAP2 POP POP JUMP JUMPDEST PUSH1 0x0 PUSH1 0x20 DUP3 DUP5 SUB SLT ISZERO PUSH2 0x108A JUMPI PUSH2 0x1089 PUSH2 0xF24 JUMP JUMPDEST JUMPDEST PUSH1 0x0 DUP3 ADD CALLDATALOAD PUSH8 0xFFFFFFFFFFFFFFFF DUP2 GT ISZERO PUSH2 0x10A8 JUMPI PUSH2 0x10A7 PUSH2 0xF29 JUMP JUMPDEST JUMPDEST PUSH2 0x10B4 DUP5 DUP3 DUP6 ADD PUSH2 0x1046 JUMP JUMPDEST SWAP2 POP POP SWAP3 SWAP2 POP POP JUMP JUMPDEST PUSH1 0x0 DUP2 MLOAD SWAP1 POP SWAP2 SWAP1 POP JUMP JUMPDEST PUSH1 0x0 DUP3 DUP3 MSTORE PUSH1 0x20 DUP3 ADD SWAP1 POP SWAP3 SWAP2 POP POP JUMP JUMPDEST PUSH1 0x0 DUP2 SWAP1 POP PUSH1 0x20 DUP3 ADD SWAP1 POP SWAP2 SWAP1 POP JUMP JUMPDEST PUSH1 0x0 DUP2 SWAP1 POP SWAP2 SWAP1 POP JUMP JUMPDEST PUSH2 0x10FC DUP2 PUSH2 0x10E9 JUMP JUMPDEST DUP3 MSTORE POP POP JUMP JUMPDEST PUSH1 0x0 PUSH2 0x110E DUP4 DUP4 PUSH2 0x10F3 JUMP JUMPDEST PUSH1 0x20 DUP4 ADD SWAP1 POP SWAP3 SWAP2 POP POP JUMP JUMPDEST PUSH1 0x0 PUSH1 0x20 DUP3 ADD SWAP1 POP SWAP2 SWAP1 POP JUMP JUMPDEST PUSH1 0x0 PUSH2 0x1132 DUP3 PUSH2 0x10BD JUMP JUMPDEST PUSH2 0x113C DUP2 DUP6 PUSH2 0x10C8 JUMP JUMPDEST SWAP4 POP PUSH2 0x1147 DUP4 PUSH2 0x10D9 JUMP JUMPDEST DUP1 PUSH1 0x0 JUMPDEST DUP4 DUP2 LT ISZERO PUSH2 0x1178 JUMPI DUP2 MLOAD PUSH2 0x115F DUP9 DUP3 PUSH2 0x1102 JUMP JUMPDEST SWAP8 POP PUSH2 0x116A DUP4 PUSH2 0x111A JUMP JUMPDEST SWAP3 POP POP PUSH1 0x1 DUP2 ADD SWAP1 POP PUSH2 0x114B JUMP JUMPDEST POP DUP6 SWAP4 POP POP POP POP SWAP3 SWAP2 POP POP JUMP JUMPDEST PUSH1 0x0 PUSH1 0x20 DUP3 ADD SWAP1 POP DUP2 DUP2 SUB PUSH1 0x0 DUP4 ADD MSTORE PUSH2 0x119F DUP2 DUP5 PUSH2 0x1127 JUMP JUMPDEST SWAP1 POP SWAP3 SWAP2 POP POP JUMP JUMPDEST PUSH1 0x0 DUP2 MLOAD SWAP1 POP SWAP2 SWAP1 POP JUMP JUMPDEST PUSH1 0x0 DUP3 DUP3 MSTORE PUSH1 0x20 DUP3 ADD SWAP1 POP SWAP3 SWAP2 POP POP JUMP JUMPDEST PUSH1 0x0 DUP2 SWAP1 POP PUSH1 0x20 DUP3 ADD SWAP1 POP SWAP2 SWAP1 POP JUMP JUMPDEST PUSH1 0x0 DUP2 MLOAD SWAP1 POP SWAP2 SWAP1 POP JUMP JUMPDEST PUSH1 0x0 DUP3 DUP3 MSTORE PUSH1 0x20 DUP3 ADD SWAP1 POP SWAP3 SWAP2 POP POP JUMP JUMPDEST PUSH1 0x0 JUMPDEST DUP4 DUP2 LT ISZERO PUSH2 0x120D JUMPI DUP1 DUP3 ADD MLOAD DUP2 DUP5 ADD MSTORE PUSH1 0x20 DUP2 ADD SWAP1 POP PUSH2 0x11F2 JUMP JUMPDEST PUSH1 0x0 DUP5 DUP5 ADD MSTORE POP POP POP POP JUMP JUMPDEST PUSH1 0x0 PUSH2 0x1224 DUP3 PUSH2 0x11D3 JUMP JUMPDEST PUSH2 0x122E DUP2 DUP6 PUSH2 0x11DE JUMP JUMPDEST SWAP4 POP PUSH2 0x123E DUP2 DUP6 PUSH1 0x20 DUP7 ADD PUSH2 0x11EF JUMP JUMPDEST PUSH2 0x1247 DUP2 PUSH2 0xF38 JUMP JUMPDEST DUP5 ADD SWAP2 POP POP SWAP3 SWAP2 POP POP JUMP JUMPDEST PUSH1 0x0 PUSH1 0x80 DUP4 ADD PUSH1 0x0 DUP4 ADD MLOAD DUP5 DUP3 SUB PUSH1 0x0 DUP7 ADD MSTORE PUSH2 0x126F DUP3 DUP3 PUSH2 0x1219 JUMP JUMPDEST SWAP2 POP POP PUSH1 0x20 DUP4 ADD MLOAD PUSH2 0x1284 PUSH1 0x20 DUP7 ADD DUP3 PUSH2 0x10F3 JUMP JUMPDEST POP PUSH1 0x40 DUP4 ADD MLOAD DUP5 DUP3 SUB PUSH1 0x40 DUP7 ADD MSTORE PUSH2 0x129C DUP3 DUP3 PUSH2 0x1219 JUMP JUMPDEST SWAP2 POP POP PUSH1 0x60 DUP4 ADD MLOAD PUSH2 0x12B1 PUSH1 0x60 DUP7 ADD DUP3 PUSH2 0x10F3 JUMP JUMPDEST POP DUP1 SWAP2 POP POP SWAP3 SWAP2 POP POP JUMP JUMPDEST PUSH1 0x0 PUSH2 0x12C8 DUP4 DUP4 PUSH2 0x1252 JUMP JUMPDEST SWAP1 POP SWAP3 SWAP2 POP POP JUMP JUMPDEST PUSH1 0x0 PUSH1 0x20 DUP3 ADD SWAP1 POP SWAP2 SWAP1 POP JUMP JUMPDEST PUSH1 0x0 PUSH2 0x12E8 DUP3 PUSH2 0x11A7 JUMP JUMPDEST PUSH2 0x12F2 DUP2 DUP6 PUSH2 0x11B2 JUMP JUMPDEST SWAP4 POP DUP4 PUSH1 0x20 DUP3 MUL DUP6 ADD PUSH2 0x1304 DUP6 PUSH2 0x11C3 JUMP JUMPDEST DUP1 PUSH1 0x0 JUMPDEST DUP6 DUP2 LT ISZERO PUSH2 0x1340 JUMPI DUP5 DUP5 SUB DUP10 MSTORE DUP2 MLOAD PUSH2 0x1321 DUP6 DUP3 PUSH2 0x12BC JUMP JUMPDEST SWAP5 POP PUSH2 0x132C DUP4 PUSH2 0x12D0 JUMP JUMPDEST SWAP3 POP PUSH1 0x20 DUP11 ADD SWAP10 POP POP PUSH1 0x1 DUP2 ADD SWAP1 POP PUSH2 0x1308 JUMP JUMPDEST POP DUP3 SWAP8 POP DUP8 SWAP6 POP POP POP POP POP POP SWAP3 SWAP2 POP POP JUMP JUMPDEST PUSH1 0x0 PUSH1 0x20 DUP3 ADD SWAP1 POP DUP2 DUP2 SUB PUSH1 0x0 DUP4 ADD MSTORE PUSH2 0x136C DUP2 DUP5 PUSH2 0x12DD JUMP JUMPDEST SWAP1 POP SWAP3 SWAP2 POP POP JUMP JUMPDEST PUSH2 0x137D DUP2 PUSH2 0x10E9 JUMP JUMPDEST DUP2 EQ PUSH2 0x1388 JUMPI PUSH1 0x0 DUP1 REVERT JUMPDEST POP JUMP JUMPDEST PUSH1 0x0 DUP2 CALLDATALOAD SWAP1 POP PUSH2 0x139A DUP2 PUSH2 0x1374 JUMP JUMPDEST SWAP3 SWAP2 POP POP JUMP JUMPDEST PUSH1 0x0 PUSH1 0x20 DUP3 DUP5 SUB SLT ISZERO PUSH2 0x13B6 JUMPI PUSH2 0x13B5 PUSH2 0xF24 JUMP JUMPDEST JUMPDEST PUSH1 0x0 PUSH2 0x13C4 DUP5 DUP3 DUP6 ADD PUSH2 0x138B JUMP JUMPDEST SWAP2 POP POP SWAP3 SWAP2 POP POP JUMP JUMPDEST PUSH1 0x0 DUP3 DUP3 MSTORE PUSH1 0x20 DUP3 ADD SWAP1 POP SWAP3 SWAP2 POP POP JUMP JUMPDEST PUSH1 0x0 PUSH2 0x13E9 DUP3 PUSH2 0x11D3 JUMP JUMPDEST PUSH2 0x13F3 DUP2 DUP6 PUSH2 0x13CD JUMP JUMPDEST SWAP4 POP PUSH2 0x1403 DUP2 DUP6 PUSH1 0x20 DUP7 ADD PUSH2 0x11EF JUMP JUMPDEST PUSH2 0x140C DUP2 PUSH2 0xF38 JUMP JUMPDEST DUP5 ADD SWAP2 POP POP SWAP3 SWAP2 POP POP JUMP JUMPDEST PUSH2 0x1420 DUP2 PUSH2 0x10E9 JUMP JUMPDEST DUP3 MSTORE POP POP JUMP JUMPDEST PUSH1 0x0 PUSH1 0x80 DUP3 ADD SWAP1 POP DUP2 DUP2 SUB PUSH1 0x0 DUP4 ADD MSTORE PUSH2 0x1440 DUP2 DUP8 PUSH2 0x13DE JUMP JUMPDEST SWAP1 POP PUSH2 0x144F PUSH1 0x20 DUP4 ADD DUP7 PUSH2 0x1417 JUMP JUMPDEST DUP2 DUP2 SUB PUSH1 0x40 DUP4 ADD MSTORE PUSH2 0x1461 DUP2 DUP6 PUSH2 0x13DE JUMP JUMPDEST SWAP1 POP PUSH2 0x1470 PUSH1 0x60 DUP4 ADD DUP5 PUSH2 0x1417 JUMP JUMPDEST SWAP6 SWAP5 POP POP POP POP POP JUMP JUMPDEST PUSH1 0x0 PUSH8 0xFFFFFFFFFFFFFFFF DUP3 GT ISZERO PUSH2 0x1494 JUMPI PUSH2 0x1493 PUSH2 0xF49 JUMP JUMPDEST JUMPDEST PUSH1 0x20 DUP3 MUL SWAP1 POP PUSH1 0x20 DUP2 ADD SWAP1 POP SWAP2 SWAP1 POP JUMP JUMPDEST PUSH1 0x0 DUP1 REVERT JUMPDEST PUSH1 0x0 PUSH2 0x14BD PUSH2 0x14B8 DUP5 PUSH2 0x1479 JUMP JUMPDEST PUSH2 0xFA9 JUMP JUMPDEST SWAP1 POP DUP1 DUP4 DUP3 MSTORE PUSH1 0x20 DUP3 ADD SWAP1 POP PUSH1 0x20 DUP5 MUL DUP4 ADD DUP6 DUP2 GT ISZERO PUSH2 0x14E0 JUMPI PUSH2 0x14DF PUSH2 0x14A5 JUMP JUMPDEST JUMPDEST DUP4 JUMPDEST DUP2 DUP2 LT ISZERO PUSH2 0x1527 JUMPI DUP1 CALLDATALOAD PUSH8 0xFFFFFFFFFFFFFFFF DUP2 GT ISZERO PUSH2 0x1505 JUMPI PUSH2 0x1504 PUSH2 0xF2E JUMP JUMPDEST JUMPDEST DUP1 DUP7 ADD PUSH2 0x1512 DUP10 DUP3 PUSH2 0x1046 JUMP JUMPDEST DUP6 MSTORE PUSH1 0x20 DUP6 ADD SWAP5 POP POP POP PUSH1 0x20 DUP2 ADD SWAP1 POP PUSH2 0x14E2 JUMP JUMPDEST POP POP POP SWAP4 SWAP3 POP POP POP JUMP JUMPDEST PUSH1 0x0 DUP3 PUSH1 0x1F DUP4 ADD SLT PUSH2 0x1546 JUMPI PUSH2 0x1545 PUSH2 0xF2E JUMP JUMPDEST JUMPDEST DUP2 CALLDATALOAD PUSH2 0x1556 DUP5 DUP3 PUSH1 0x20 DUP7 ADD PUSH2 0x14AA JUMP JUMPDEST SWAP2 POP POP SWAP3 SWAP2 POP POP JUMP JUMPDEST PUSH1 0x0 PUSH8 0xFFFFFFFFFFFFFFFF DUP3 GT ISZERO PUSH2 0x157A JUMPI PUSH2 0x1579 PUSH2 0xF49 JUMP JUMPDEST JUMPDEST PUSH1 0x20 DUP3 MUL SWAP1 POP PUSH1 0x20 DUP2 ADD SWAP1 POP SWAP2 SWAP1 POP JUMP JUMPDEST PUSH1 0x0 PUSH2 0x159E PUSH2 0x1599 DUP5 PUSH2 0x155F JUMP JUMPDEST PUSH2 0xFA9 JUMP JUMPDEST SWAP1 POP DUP1 DUP4 DUP3 MSTORE PUSH1 0x20 DUP3 ADD SWAP1 POP PUSH1 0x20 DUP5 MUL DUP4 ADD DUP6 DUP2 GT ISZERO PUSH2 0x15C1 JUMPI PUSH2 0x15C0 PUSH2 0x14A5 JUMP JUMPDEST JUMPDEST DUP4 JUMPDEST DUP2 DUP2 LT ISZERO PUSH2 0x15EA JUMPI DUP1 PUSH2 0x15D6 DUP9 DUP3 PUSH2 0x138B JUMP JUMPDEST DUP5 MSTORE PUSH1 0x20 DUP5 ADD SWAP4 POP POP PUSH1 0x20 DUP2 ADD SWAP1 POP PUSH2 0x15C3 JUMP JUMPDEST POP POP POP SWAP4 SWAP3 POP POP POP JUMP JUMPDEST PUSH1 0x0 DUP3 PUSH1 0x1F DUP4 ADD SLT PUSH2 0x1609 JUMPI PUSH2 0x1608 PUSH2 0xF2E JUMP JUMPDEST JUMPDEST DUP2 CALLDATALOAD PUSH2 0x1619 DUP5 DUP3 PUSH1 0x20 DUP7 ADD PUSH2 0x158B JUMP JUMPDEST SWAP2 POP POP SWAP3 SWAP2 POP POP JUMP JUMPDEST PUSH1 0x0 DUP1 PUSH1 0x0 DUP1 PUSH1 0x80 DUP6 DUP8 SUB SLT ISZERO PUSH2 0x163C JUMPI PUSH2 0x163B PUSH2 0xF24 JUMP JUMPDEST JUMPDEST PUSH1 0x0 DUP6 ADD CALLDATALOAD PUSH8 0xFFFFFFFFFFFFFFFF DUP2 GT ISZERO PUSH2 0x165A JUMPI PUSH2 0x1659 PUSH2 0xF29 JUMP JUMPDEST JUMPDEST PUSH2 0x1666 DUP8 DUP3 DUP9 ADD PUSH2 0x1531 JUMP JUMPDEST SWAP5 POP POP PUSH1 0x20 DUP6 ADD CALLDATALOAD PUSH8 0xFFFFFFFFFFFFFFFF DUP2 GT ISZERO PUSH2 0x1687 JUMPI PUSH2 0x1686 PUSH2 0xF29 JUMP JUMPDEST JUMPDEST PUSH2 0x1693 DUP8 DUP3 DUP9 ADD PUSH2 0x15F4 JUMP JUMPDEST SWAP4 POP POP PUSH1 0x40 DUP6 ADD CALLDATALOAD PUSH8 0xFFFFFFFFFFFFFFFF DUP2 GT ISZERO PUSH2 0x16B4 JUMPI PUSH2 0x16B3 PUSH2 0xF29 JUMP JUMPDEST JUMPDEST PUSH2 0x16C0 DUP8 DUP3 DUP9 ADD PUSH2 0x1531 JUMP JUMPDEST SWAP3 POP POP PUSH1 0x60 DUP6 ADD CALLDATALOAD PUSH8 0xFFFFFFFFFFFFFFFF DUP2 GT ISZERO PUSH2 0x16E1 JUMPI PUSH2 0x16E0 PUSH2 0xF29 JUMP JUMPDEST JUMPDEST PUSH2 0x16ED DUP8 DUP3 DUP9 ADD PUSH2 0x15F4 JUMP JUMPDEST SWAP2 POP POP SWAP3 SWAP6 SWAP2 SWAP5 POP SWAP3 POP JUMP JUMPDEST PUSH1 0x0 PUSH1 0x20 DUP3 ADD SWAP1 POP PUSH2 0x170E PUSH1 0x0 DUP4 ADD DUP5 PUSH2 0x1417 JUMP JUMPDEST SWAP3 SWAP2 POP POP JUMP JUMPDEST PUSH1 0x0 PUSH1 0x80 DUP4 ADD PUSH1 0x0 DUP4 ADD MLOAD DUP5 DUP3 SUB PUSH1 0x0 DUP7 ADD MSTORE PUSH2 0x1731 DUP3 DUP3 PUSH2 0x1219 JUMP JUMPDEST SWAP2 POP POP PUSH1 0x20 DUP4 ADD MLOAD PUSH2 0x1746 PUSH1 0x20 DUP7 ADD DUP3 PUSH2 0x10F3 JUMP JUMPDEST POP PUSH1 0x40 DUP4 ADD MLOAD DUP5 DUP3 SUB PUSH1 0x40 DUP7 ADD MSTORE PUSH2 0x175E DUP3 DUP3 PUSH2 0x1219 JUMP JUMPDEST SWAP2 POP POP PUSH1 0x60 DUP4 ADD MLOAD PUSH2 0x1773 PUSH1 0x60 DUP7 ADD DUP3 PUSH2 0x10F3 JUMP JUMPDEST POP DUP1 SWAP2 POP POP SWAP3 SWAP2 POP POP JUMP JUMPDEST PUSH1 0x0 PUSH1 0x20 DUP3 ADD SWAP1 POP DUP2 DUP2 SUB PUSH1 0x0 DUP4 ADD MSTORE PUSH2 0x1798 DUP2 DUP5 PUSH2 0x1714 JUMP JUMPDEST SWAP1 POP SWAP3 SWAP2 POP POP JUMP JUMPDEST PUSH1 0x0 DUP2 SWAP1 POP SWAP3 SWAP2 POP POP JUMP JUMPDEST PUSH1 0x0 PUSH2 0x17B6 DUP3 PUSH2 0x11D3 JUMP JUMPDEST PUSH2 0x17C0 DUP2 DUP6 PUSH2 0x17A0 JUMP JUMPDEST SWAP4 POP PUSH2 0x17D0 DUP2 DUP6 PUSH1 0x20 DUP7 ADD PUSH2 0x11EF JUMP JUMPDEST DUP1 DUP5 ADD SWAP2 POP POP SWAP3 SWAP2 POP POP JUMP JUMPDEST PUSH1 0x0 PUSH2 0x17E8 DUP3 DUP5 PUSH2 0x17AB JUMP JUMPDEST SWAP2 POP DUP2 SWAP1 POP SWAP3 SWAP2 POP POP JUMP JUMPDEST PUSH32 0x4E487B7100000000000000000000000000000000000000000000000000000000 PUSH1 0x0 MSTORE PUSH1 0x22 PUSH1 0x4 MSTORE PUSH1 0x24 PUSH1 0x0 REVERT JUMPDEST PUSH1 0x0 PUSH1 0x2 DUP3 DIV SWAP1 POP PUSH1 0x1 DUP3 AND DUP1 PUSH2 0x183A JUMPI PUSH1 0x7F DUP3 AND SWAP2 POP JUMPDEST PUSH1 0x20 DUP3 LT DUP2 SUB PUSH2 0x184D JUMPI PUSH2 0x184C PUSH2 0x17F3 JUMP JUMPDEST JUMPDEST POP SWAP2 SWAP1 POP JUMP JUMPDEST PUSH1 0x0 DUP2 SWAP1 POP DUP2 PUSH1 0x0 MSTORE PUSH1 0x20 PUSH1 0x0 KECCAK256 SWAP1 POP SWAP2 SWAP1 POP JUMP JUMPDEST PUSH1 0x0 DUP2 SLOAD PUSH2 0x1875 DUP2 PUSH2 0x1822 JUMP JUMPDEST PUSH2 0x187F DUP2 DUP7 PUSH2 0x17A0 JUMP JUMPDEST SWAP5 POP PUSH1 0x1 DUP3 AND PUSH1 0x0 DUP2 EQ PUSH2 0x189A JUMPI PUSH1 0x1 DUP2 EQ PUSH2 0x18AF JUMPI PUSH2 0x18E2 JUMP JUMPDEST PUSH1 0xFF NOT DUP4 AND DUP7 MSTORE DUP2 ISZERO ISZERO DUP3 MUL DUP7 ADD SWAP4 POP PUSH2 0x18E2 JUMP JUMPDEST PUSH2 0x18B8 DUP6 PUSH2 0x1853 JUMP JUMPDEST PUSH1 0x0 JUMPDEST DUP4 DUP2 LT ISZERO PUSH2 0x18DA JUMPI DUP2 SLOAD DUP2 DUP10 ADD MSTORE PUSH1 0x1 DUP3 ADD SWAP2 POP PUSH1 0x20 DUP2 ADD SWAP1 POP PUSH2 0x18BB JUMP JUMPDEST DUP4 DUP9 ADD SWAP6 POP POP POP JUMPDEST POP POP POP SWAP3 SWAP2 POP POP JUMP JUMPDEST PUSH1 0x0 PUSH2 0x18F7 DUP3 DUP5 PUSH2 0x1868 JUMP JUMPDEST SWAP2 POP DUP2 SWAP1 POP SWAP3 SWAP2 POP POP JUMP JUMPDEST PUSH32 0x4E487B7100000000000000000000000000000000000000000000000000000000 PUSH1 0x0 MSTORE PUSH1 0x11 PUSH1 0x4 MSTORE PUSH1 0x24 PUSH1 0x0 REVERT JUMPDEST PUSH1 0x0 PUSH2 0x193C DUP3 PUSH2 0x10E9 JUMP JUMPDEST SWAP2 POP PUSH32 0xFFFFFFFFFFFFFFFFFFFFFFFFFFFFFFFFFFFFFFFFFFFFFFFFFFFFFFFFFFFFFFFF DUP3 SUB PUSH2 0x196E JUMPI PUSH2 0x196D PUSH2 0x1902 JUMP JUMPDEST JUMPDEST PUSH1 0x1 DUP3 ADD SWAP1 POP SWAP2 SWAP1 POP JUMP JUMPDEST PUSH32 0x4E487B7100000000000000000000000000000000000000000000000000000000 PUSH1 0x0 MSTORE PUSH1 0x32 PUSH1 0x4 MSTORE PUSH1 0x24 PUSH1 0x0 REVERT JUMPDEST PUSH32 0x4C656E67746873206F6620696E7075742061727261797320646F206E6F74206D PUSH1 0x0 DUP3 ADD MSTORE PUSH32 0x6174636800000000000000000000000000000000000000000000000000000000 PUSH1 0x20 DUP3 ADD MSTORE POP JUMP JUMPDEST PUSH1 0x0 PUSH2 0x1A04 PUSH1 0x24 DUP4 PUSH2 0x13CD JUMP JUMPDEST SWAP2 POP PUSH2 0x1A0F DUP3 PUSH2 0x19A8 JUMP JUMPDEST PUSH1 0x40 DUP3 ADD SWAP1 POP SWAP2 SWAP1 POP JUMP JUMPDEST PUSH1 0x0 PUSH1 0x20 DUP3 ADD SWAP1 POP DUP2 DUP2 SUB PUSH1 0x0 DUP4 ADD MSTORE PUSH2 0x1A33 DUP2 PUSH2 0x19F7 JUMP JUMPDEST SWAP1 POP SWAP2 SWAP1 POP JUMP JUMPDEST PUSH1 0x0 PUSH1 0x20 PUSH1 0x1F DUP4 ADD DIV SWAP1 POP SWAP2 SWAP1 POP JUMP JUMPDEST PUSH1 0x0 DUP3 DUP3 SHL SWAP1 POP SWAP3 SWAP2 POP POP JUMP JUMPDEST PUSH1 0x0 PUSH1 0x8 DUP4 MUL PUSH2 0x1A87 PUSH32 0xFFFFFFFFFFFFFFFFFFFFFFFFFFFFFFFFFFFFFFFFFFFFFFFFFFFFFFFFFFFFFFFF DUP3 PUSH2 0x1A4A JUMP JUMPDEST PUSH2 0x1A91 DUP7 DUP4 PUSH2 0x1A4A JUMP JUMPDEST SWAP6 POP DUP1 NOT DUP5 AND SWAP4 POP DUP1 DUP7 AND DUP5 OR SWAP3 POP POP POP SWAP4 SWAP3 POP POP POP JUMP JUMPDEST PUSH1 0x0 DUP2 SWAP1 POP SWAP2 SWAP1 POP JUMP JUMPDEST PUSH1 0x0 PUSH2 0x1ACE PUSH2 0x1AC9 PUSH2 0x1AC4 DUP5 PUSH2 0x10E9 JUMP JUMPDEST PUSH2 0x1AA9 JUMP JUMPDEST PUSH2 0x10E9 JUMP JUMPDEST SWAP1 POP SWAP2 SWAP1 POP JUMP JUMPDEST PUSH1 0x0 DUP2 SWAP1 POP SWAP2 SWAP1 POP JUMP JUMPDEST PUSH2 0x1AE8 DUP4 PUSH2 0x1AB3 JUMP JUMPDEST PUSH2 0x1AFC PUSH2 0x1AF4 DUP3 PUSH2 0x1AD5 JUMP JUMPDEST DUP5 DUP5 SLOAD PUSH2 0x1A57 JUMP JUMPDEST DUP3 SSTORE POP POP POP POP JUMP JUMPDEST PUSH1 0x0 SWAP1 JUMP JUMPDEST PUSH2 0x1B11 PUSH2 0x1B04 JUMP JUMPDEST PUSH2 0x1B1C DUP2 DUP5 DUP5 PUSH2 0x1ADF JUMP JUMPDEST POP POP POP JUMP JUMPDEST JUMPDEST DUP2 DUP2 LT ISZERO PUSH2 0x1B40 JUMPI PUSH2 0x1B35 PUSH1 0x0 DUP3 PUSH2 0x1B09 JUMP JUMPDEST PUSH1 0x1 DUP2 ADD SWAP1 POP PUSH2 0x1B22 JUMP JUMPDEST POP POP JUMP JUMPDEST PUSH1 0x1F DUP3 GT ISZERO PUSH2 0x1B85 JUMPI PUSH2 0x1B56 DUP2 PUSH2 0x1853 JUMP JUMPDEST PUSH2 0x1B5F DUP5 PUSH2 0x1A3A JUMP JUMPDEST DUP2 ADD PUSH1 0x20 DUP6 LT ISZERO PUSH2 0x1B6E JUMPI DUP2 SWAP1 POP JUMPDEST PUSH2 0x1B82 PUSH2 0x1B7A DUP6 PUSH2 0x1A3A JUMP JUMPDEST DUP4 ADD DUP3 PUSH2 0x1B21 JUMP JUMPDEST POP POP JUMPDEST POP POP POP JUMP JUMPDEST PUSH1 0x0 DUP3 DUP3 SHR SWAP1 POP SWAP3 SWAP2 POP POP JUMP JUMPDEST PUSH1 0x0 PUSH2 0x1BA8 PUSH1 0x0 NOT DUP5 PUSH1 0x8 MUL PUSH2 0x1B8A JUMP JUMPDEST NOT DUP1 DUP4 AND SWAP2 POP POP SWAP3 SWAP2 POP POP JUMP JUMPDEST PUSH1 0x0 PUSH2 0x1BC1 DUP4 DUP4 PUSH2 0x1B97 JUMP JUMPDEST SWAP2 POP DUP3 PUSH1 0x2 MUL DUP3 OR SWAP1 POP SWAP3 SWAP2 POP POP JUMP JUMPDEST PUSH2 0x1BDA DUP3 PUSH2 0x11D3 JUMP JUMPDEST PUSH8 0xFFFFFFFFFFFFFFFF DUP2 GT ISZERO PUSH2 0x1BF3 JUMPI PUSH2 0x1BF2 PUSH2 0xF49 JUMP JUMPDEST JUMPDEST PUSH2 0x1BFD DUP3 SLOAD PUSH2 0x1822 JUMP JUMPDEST PUSH2 0x1C08 DUP3 DUP3 DUP6 PUSH2 0x1B44 JUMP JUMPDEST PUSH1 0x0 PUSH1 0x20 SWAP1 POP PUSH1 0x1F DUP4 GT PUSH1 0x1 DUP2 EQ PUSH2 0x1C3B JUMPI PUSH1 0x0 DUP5 ISZERO PUSH2 0x1C29 JUMPI DUP3 DUP8 ADD MLOAD SWAP1 POP JUMPDEST PUSH2 0x1C33 DUP6 DUP3 PUSH2 0x1BB5 JUMP JUMPDEST DUP7 SSTORE POP PUSH2 0x1C9B JUMP JUMPDEST PUSH1 0x1F NOT DUP5 AND PUSH2 0x1C49 DUP7 PUSH2 0x1853 JUMP JUMPDEST PUSH1 0x0 JUMPDEST DUP3 DUP2 LT ISZERO PUSH2 0x1C71 JUMPI DUP5 DUP10 ADD MLOAD DUP3 SSTORE PUSH1 0x1 DUP3 ADD SWAP2 POP PUSH1 0x20 DUP6 ADD SWAP5 POP PUSH1 0x20 DUP2 ADD SWAP1 POP PUSH2 0x1C4C JUMP JUMPDEST DUP7 DUP4 LT ISZERO PUSH2 0x1C8E JUMPI DUP5 DUP10 ADD MLOAD PUSH2 0x1C8A PUSH1 0x1F DUP10 AND DUP3 PUSH2 0x1B97 JUMP JUMPDEST DUP4 SSTORE POP JUMPDEST PUSH1 0x1 PUSH1 0x2 DUP9 MUL ADD DUP9 SSTORE POP POP POP JUMPDEST POP POP POP POP POP POP JUMP JUMPDEST PUSH1 0x0 PUSH2 0x1CAE DUP3 PUSH2 0x10E9 JUMP JUMPDEST SWAP2 POP PUSH2 0x1CB9 DUP4 PUSH2 0x10E9 JUMP JUMPDEST SWAP3 POP DUP3 DUP3 SUB SWAP1 POP DUP2 DUP2 GT ISZERO PUSH2 0x1CD1 JUMPI PUSH2 0x1CD0 PUSH2 0x1902 JUMP JUMPDEST JUMPDEST SWAP3 SWAP2 POP POP JUMP JUMPDEST PUSH32 0x5472616E73616374696F6E2064657461696C206E6F7420666F756E6400000000 PUSH1 0x0 DUP3 ADD MSTORE POP JUMP JUMPDEST PUSH1 0x0 PUSH2 0x1D0D PUSH1 0x1C DUP4 PUSH2 0x13CD JUMP JUMPDEST SWAP2 POP PUSH2 0x1D18 DUP3 PUSH2 0x1CD7 JUMP JUMPDEST PUSH1 0x20 DUP3 ADD SWAP1 POP SWAP2 SWAP1 POP JUMP JUMPDEST PUSH1 0x0 PUSH1 0x20 DUP3 ADD SWAP1 POP DUP2 DUP2 SUB PUSH1 0x0 DUP4 ADD MSTORE PUSH2 0x1D3C DUP2 PUSH2 0x1D00 JUMP JUMPDEST SWAP1 POP SWAP2 SWAP1 POP JUMP INVALID LOG2 PUSH5 0x6970667358 0x22 SLT KECCAK256 0xEB 0x4C 0xA9 PUSH20 0xA013A8BEF922B2E9580E1834BE12CBE73589E8C9 SWAP2 0xD5 CALLCODE SWAP9 0xEF SUB SWAP9 0xEB PUSH5 0x736F6C6343 STOP ADDMOD LT STOP CALLER "
				},
				"gasEstimates": {
					"creation": {
						"codeDepositCost": "1509000",
						"executionCost": "1575",
						"totalCost": "1510575"
					},
					"external": {
						"addTransactionDetail(string[],uint256[],string[],uint256[])": "infinite",
						"getAllTransactionDetail()": "infinite",
						"getCountTransactionDetailByTransactionCode(string)": "infinite",
						"getPriceFromTransactionDetailByTransactionCode(string)": "infinite",
						"getTransactionDetailByCode(string)": "infinite",
						"getTransactionDetailByTransactionCode(string)": "infinite",
						"transactionDetailCount()": "2473",
						"transactionDetails(uint256)": "infinite"
					}
				},
				"methodIdentifiers": {
					"addTransactionDetail(string[],uint256[],string[],uint256[])": "6351212e",
					"getAllTransactionDetail()": "a5773610",
					"getCountTransactionDetailByTransactionCode(string)": "9cd9be93",
					"getPriceFromTransactionDetailByTransactionCode(string)": "0786c9a8",
					"getTransactionDetailByCode(string)": "f08c6ca8",
					"getTransactionDetailByTransactionCode(string)": "2ef8750f",
					"transactionDetailCount()": "cf810953",
					"transactionDetails(uint256)": "3f0a54a6"
				}
			},
			"storageLayout": {
				"storage": [
					{
						"astId": 25,
						"contract": "contracts/TransactionDetailContract28April.sol:TransactionDetailContract",
						"label": "transactionDetails",
						"offset": 0,
						"slot": "0",
						"type": "t_mapping(t_uint256,t_struct(TransactionDetail)10_storage)"
					},
					{
						"astId": 27,
						"contract": "contracts/TransactionDetailContract28April.sol:TransactionDetailContract",
						"label": "transactionDetailCount",
						"offset": 0,
						"slot": "1",
						"type": "t_uint256"
					}
				],
				"types": {
					"t_mapping(t_uint256,t_struct(TransactionDetail)10_storage)": {
						"encoding": "mapping",
						"key": "t_uint256",
						"label": "mapping(uint256 => struct TransactionDetailContract.TransactionDetail)",
						"numberOfBytes": "32",
						"value": "t_struct(TransactionDetail)10_storage"
					},
					"t_string_storage": {
						"encoding": "bytes",
						"label": "string",
						"numberOfBytes": "32"
					},
					"t_struct(TransactionDetail)10_storage": {
						"encoding": "inplace",
						"label": "struct TransactionDetailContract.TransactionDetail",
						"members": [
							{
								"astId": 3,
								"contract": "contracts/TransactionDetailContract28April.sol:TransactionDetailContract",
								"label": "transactionCode",
								"offset": 0,
								"slot": "0",
								"type": "t_string_storage"
							},
							{
								"astId": 5,
								"contract": "contracts/TransactionDetailContract28April.sol:TransactionDetailContract",
								"label": "price",
								"offset": 0,
								"slot": "1",
								"type": "t_uint256"
							},
							{
								"astId": 7,
								"contract": "contracts/TransactionDetailContract28April.sol:TransactionDetailContract",
								"label": "token",
								"offset": 0,
								"slot": "2",
								"type": "t_string_storage"
							},
							{
								"astId": 9,
								"contract": "contracts/TransactionDetailContract28April.sol:TransactionDetailContract",
								"label": "createdAt",
								"offset": 0,
								"slot": "3",
								"type": "t_uint256"
							}
						],
						"numberOfBytes": "128"
					},
					"t_uint256": {
						"encoding": "inplace",
						"label": "uint256",
						"numberOfBytes": "32"
					}
				}
			},
			"userdoc": {
				"kind": "user",
				"methods": {},
				"version": 1
			}
		}
	}
}