{
	"contracts/TransactionContract9Juni.sol": {
		"TransactionContract": {
			"abi": [
				{
					"inputs": [],
					"stateMutability": "nonpayable",
					"type": "constructor"
				},
				{
					"anonymous": false,
					"inputs": [
						{
							"indexed": false,
							"internalType": "string",
							"name": "transactionCode",
							"type": "string"
						},
						{
							"indexed": false,
							"internalType": "string",
							"name": "newPaymentStatus",
							"type": "string"
						}
					],
					"name": "PaymentStatusUpdated",
					"type": "event"
				},
				{
					"anonymous": false,
					"inputs": [
						{
							"indexed": false,
							"internalType": "string",
							"name": "transactionCode",
							"type": "string"
						},
						{
							"indexed": false,
							"internalType": "string",
							"name": "newStatus",
							"type": "string"
						}
					],
					"name": "StatusUpdated",
					"type": "event"
				},
				{
					"anonymous": false,
					"inputs": [
						{
							"indexed": false,
							"internalType": "string",
							"name": "transactionCode",
							"type": "string"
						},
						{
							"indexed": false,
							"internalType": "string",
							"name": "campaignId",
							"type": "string"
						},
						{
							"indexed": false,
							"internalType": "string",
							"name": "fromToUserId",
							"type": "string"
						},
						{
							"indexed": false,
							"internalType": "string",
							"name": "orderType",
							"type": "string"
						},
						{
							"indexed": false,
							"internalType": "string",
							"name": "paymentStatus",
							"type": "string"
						},
						{
							"indexed": false,
							"internalType": "string",
							"name": "status",
							"type": "string"
						},
						{
							"indexed": false,
							"internalType": "uint256",
							"name": "quantity",
							"type": "uint256"
						},
						{
							"indexed": false,
							"internalType": "uint256",
							"name": "totalPrice",
							"type": "uint256"
						},
						{
							"indexed": false,
							"internalType": "string",
							"name": "paymentMethodDetailId",
							"type": "string"
						},
						{
							"indexed": false,
							"internalType": "uint256",
							"name": "createdAt",
							"type": "uint256"
						}
					],
					"name": "TransactionAdded",
					"type": "event"
				},
				{
					"inputs": [
						{
							"internalType": "string",
							"name": "_transactionCode",
							"type": "string"
						},
						{
							"internalType": "string",
							"name": "_campaignId",
							"type": "string"
						},
						{
							"internalType": "string",
							"name": "_fromToUserId",
							"type": "string"
						},
						{
							"internalType": "string",
							"name": "_orderType",
							"type": "string"
						},
						{
							"internalType": "string",
							"name": "_paymentStatus",
							"type": "string"
						},
						{
							"internalType": "string",
							"name": "_status",
							"type": "string"
						},
						{
							"internalType": "uint256",
							"name": "_quantity",
							"type": "uint256"
						},
						{
							"internalType": "uint256",
							"name": "_totalPrice",
							"type": "uint256"
						},
						{
							"internalType": "string",
							"name": "_paymentMethodDetailId",
							"type": "string"
						},
						{
							"internalType": "uint256",
							"name": "_createdAt",
							"type": "uint256"
						}
					],
					"name": "addTransaction",
					"outputs": [],
					"stateMutability": "nonpayable",
					"type": "function"
				},
				{
					"inputs": [],
					"name": "getAllTransactions",
					"outputs": [
						{
							"components": [
								{
									"internalType": "string",
									"name": "transactionCode",
									"type": "string"
								},
								{
									"internalType": "string",
									"name": "campaignId",
									"type": "string"
								},
								{
									"internalType": "string",
									"name": "fromToUserId",
									"type": "string"
								},
								{
									"internalType": "string",
									"name": "orderType",
									"type": "string"
								},
								{
									"internalType": "string",
									"name": "paymentStatus",
									"type": "string"
								},
								{
									"internalType": "string",
									"name": "status",
									"type": "string"
								},
								{
									"internalType": "uint256",
									"name": "quantity",
									"type": "uint256"
								},
								{
									"internalType": "uint256",
									"name": "totalPrice",
									"type": "uint256"
								},
								{
									"internalType": "string",
									"name": "paymentMethodDetailId",
									"type": "string"
								},
								{
									"internalType": "uint256",
									"name": "createdAt",
									"type": "uint256"
								}
							],
							"internalType": "struct TransactionContract.Transaction[]",
							"name": "",
							"type": "tuple[]"
						}
					],
					"stateMutability": "view",
					"type": "function"
				},
				{
					"inputs": [
						{
							"internalType": "string",
							"name": "_campaignId",
							"type": "string"
						}
					],
					"name": "getTransactionByCampaignId",
					"outputs": [
						{
							"components": [
								{
									"internalType": "string",
									"name": "transactionCode",
									"type": "string"
								},
								{
									"internalType": "string",
									"name": "campaignId",
									"type": "string"
								},
								{
									"internalType": "string",
									"name": "fromToUserId",
									"type": "string"
								},
								{
									"internalType": "string",
									"name": "orderType",
									"type": "string"
								},
								{
									"internalType": "string",
									"name": "paymentStatus",
									"type": "string"
								},
								{
									"internalType": "string",
									"name": "status",
									"type": "string"
								},
								{
									"internalType": "uint256",
									"name": "quantity",
									"type": "uint256"
								},
								{
									"internalType": "uint256",
									"name": "totalPrice",
									"type": "uint256"
								},
								{
									"internalType": "string",
									"name": "paymentMethodDetailId",
									"type": "string"
								},
								{
									"internalType": "uint256",
									"name": "createdAt",
									"type": "uint256"
								}
							],
							"internalType": "struct TransactionContract.Transaction[]",
							"name": "",
							"type": "tuple[]"
						}
					],
					"stateMutability": "view",
					"type": "function"
				},
				{
					"inputs": [
						{
							"internalType": "string",
							"name": "_transactionCode",
							"type": "string"
						}
					],
					"name": "getTransactionByCode",
					"outputs": [
						{
							"components": [
								{
									"internalType": "string",
									"name": "transactionCode",
									"type": "string"
								},
								{
									"internalType": "string",
									"name": "campaignId",
									"type": "string"
								},
								{
									"internalType": "string",
									"name": "fromToUserId",
									"type": "string"
								},
								{
									"internalType": "string",
									"name": "orderType",
									"type": "string"
								},
								{
									"internalType": "string",
									"name": "paymentStatus",
									"type": "string"
								},
								{
									"internalType": "string",
									"name": "status",
									"type": "string"
								},
								{
									"internalType": "uint256",
									"name": "quantity",
									"type": "uint256"
								},
								{
									"internalType": "uint256",
									"name": "totalPrice",
									"type": "uint256"
								},
								{
									"internalType": "string",
									"name": "paymentMethodDetailId",
									"type": "string"
								},
								{
									"internalType": "uint256",
									"name": "createdAt",
									"type": "uint256"
								}
							],
							"internalType": "struct TransactionContract.Transaction",
							"name": "",
							"type": "tuple"
						}
					],
					"stateMutability": "view",
					"type": "function"
				},
				{
					"inputs": [
						{
							"internalType": "string",
							"name": "_fromToUserId",
							"type": "string"
						}
					],
					"name": "getTransactionByFromToUserId",
					"outputs": [
						{
							"components": [
								{
									"internalType": "string",
									"name": "transactionCode",
									"type": "string"
								},
								{
									"internalType": "string",
									"name": "campaignId",
									"type": "string"
								},
								{
									"internalType": "string",
									"name": "fromToUserId",
									"type": "string"
								},
								{
									"internalType": "string",
									"name": "orderType",
									"type": "string"
								},
								{
									"internalType": "string",
									"name": "paymentStatus",
									"type": "string"
								},
								{
									"internalType": "string",
									"name": "status",
									"type": "string"
								},
								{
									"internalType": "uint256",
									"name": "quantity",
									"type": "uint256"
								},
								{
									"internalType": "uint256",
									"name": "totalPrice",
									"type": "uint256"
								},
								{
									"internalType": "string",
									"name": "paymentMethodDetailId",
									"type": "string"
								},
								{
									"internalType": "uint256",
									"name": "createdAt",
									"type": "uint256"
								}
							],
							"internalType": "struct TransactionContract.Transaction[]",
							"name": "",
							"type": "tuple[]"
						}
					],
					"stateMutability": "view",
					"type": "function"
				},
				{
					"inputs": [
						{
							"internalType": "uint256",
							"name": "",
							"type": "uint256"
						}
					],
					"name": "transactionCodes",
					"outputs": [
						{
							"internalType": "string",
							"name": "",
							"type": "string"
						}
					],
					"stateMutability": "view",
					"type": "function"
				},
				{
					"inputs": [
						{
							"internalType": "string",
							"name": "",
							"type": "string"
						}
					],
					"name": "transactions",
					"outputs": [
						{
							"internalType": "string",
							"name": "transactionCode",
							"type": "string"
						},
						{
							"internalType": "string",
							"name": "campaignId",
							"type": "string"
						},
						{
							"internalType": "string",
							"name": "fromToUserId",
							"type": "string"
						},
						{
							"internalType": "string",
							"name": "orderType",
							"type": "string"
						},
						{
							"internalType": "string",
							"name": "paymentStatus",
							"type": "string"
						},
						{
							"internalType": "string",
							"name": "status",
							"type": "string"
						},
						{
							"internalType": "uint256",
							"name": "quantity",
							"type": "uint256"
						},
						{
							"internalType": "uint256",
							"name": "totalPrice",
							"type": "uint256"
						},
						{
							"internalType": "string",
							"name": "paymentMethodDetailId",
							"type": "string"
						},
						{
							"internalType": "uint256",
							"name": "createdAt",
							"type": "uint256"
						}
					],
					"stateMutability": "view",
					"type": "function"
				},
				{
					"inputs": [
						{
							"internalType": "string",
							"name": "_transactionCode",
							"type": "string"
						},
						{
							"internalType": "string",
							"name": "_newPaymentStatus",
							"type": "string"
						}
					],
					"name": "updatePaymentStatus",
					"outputs": [],
					"stateMutability": "nonpayable",
					"type": "function"
				},
				{
					"inputs": [
						{
							"internalType": "string",
							"name": "_transactionCode",
							"type": "string"
						},
						{
							"internalType": "string",
							"name": "_newStatus",
							"type": "string"
						}
					],
					"name": "updateStatus",
					"outputs": [],
					"stateMutability": "nonpayable",
					"type": "function"
				}
			],
			"devdoc": {
				"kind": "dev",
				"methods": {},
				"version": 1
			},
			"evm": {
				"assembly": "    /* \"contracts/TransactionContract9Juni.sol\":57:5493  contract TransactionContract {... */\n  mstore(0x40, 0x80)\n    /* \"contracts/TransactionContract9Juni.sol\":1025:1074  constructor() {... */\n  callvalue\n  dup1\n  iszero\n  tag_1\n  jumpi\n  0x00\n  dup1\n  revert\ntag_1:\n  pop\n    /* \"contracts/TransactionContract9Juni.sol\":57:5493  contract TransactionContract {... */\n  dataSize(sub_0)\n  dup1\n  dataOffset(sub_0)\n  0x00\n  codecopy\n  0x00\n  return\nstop\n\nsub_0: assembly {\n        /* \"contracts/TransactionContract9Juni.sol\":57:5493  contract TransactionContract {... */\n      mstore(0x40, 0x80)\n      callvalue\n      dup1\n      iszero\n      tag_1\n      jumpi\n      0x00\n      dup1\n      revert\n    tag_1:\n      pop\n      jumpi(tag_2, lt(calldatasize, 0x04))\n      shr(0xe0, calldataload(0x00))\n      dup1\n      0x7ee9ed47\n      gt\n      tag_12\n      jumpi\n      dup1\n      0x7ee9ed47\n      eq\n      tag_7\n      jumpi\n      dup1\n      0x814cb8eb\n      eq\n      tag_8\n      jumpi\n      dup1\n      0x9db897dd\n      eq\n      tag_9\n      jumpi\n      dup1\n      0xd339b0ec\n      eq\n      tag_10\n      jumpi\n      dup1\n      0xfff50461\n      eq\n      tag_11\n      jumpi\n      jump(tag_2)\n    tag_12:\n      dup1\n      0x022236f4\n      eq\n      tag_3\n      jumpi\n      dup1\n      0x27506f53\n      eq\n      tag_4\n      jumpi\n      dup1\n      0x347047cc\n      eq\n      tag_5\n      jumpi\n      dup1\n      0x7ce99c58\n      eq\n      tag_6\n      jumpi\n    tag_2:\n      0x00\n      dup1\n      revert\n        /* \"contracts/TransactionContract9Juni.sol\":404:454  mapping(string => Transaction) public transactions */\n    tag_3:\n      tag_13\n      0x04\n      dup1\n      calldatasize\n      sub\n      dup2\n      add\n      swap1\n      tag_14\n      swap2\n      swap1\n      tag_15\n      jump\t// in\n    tag_14:\n      tag_16\n      jump\t// in\n    tag_13:\n      mload(0x40)\n      tag_17\n      swap11\n      swap10\n      swap9\n      swap8\n      swap7\n      swap6\n      swap5\n      swap4\n      swap3\n      swap2\n      swap1\n      tag_18\n      jump\t// in\n    tag_17:\n      mload(0x40)\n      dup1\n      swap2\n      sub\n      swap1\n      return\n        /* \"contracts/TransactionContract9Juni.sol\":2194:2558  function getAllTransactions() public view returns (Transaction[] memory) {... */\n    tag_4:\n      tag_19\n      tag_20\n      jump\t// in\n    tag_19:\n      mload(0x40)\n      tag_21\n      swap2\n      swap1\n      tag_22\n      jump\t// in\n    tag_21:\n      mload(0x40)\n      dup1\n      swap2\n      sub\n      swap1\n      return\n        /* \"contracts/TransactionContract9Juni.sol\":2564:2946  function updateStatus(... */\n    tag_5:\n      tag_23\n      0x04\n      dup1\n      calldatasize\n      sub\n      dup2\n      add\n      swap1\n      tag_24\n      swap2\n      swap1\n      tag_25\n      jump\t// in\n    tag_24:\n      tag_26\n      jump\t// in\n    tag_23:\n      stop\n        /* \"contracts/TransactionContract9Juni.sol\":481:513  string[] public transactionCodes */\n    tag_6:\n      tag_27\n      0x04\n      dup1\n      calldatasize\n      sub\n      dup2\n      add\n      swap1\n      tag_28\n      swap2\n      swap1\n      tag_29\n      jump\t// in\n    tag_28:\n      tag_30\n      jump\t// in\n    tag_27:\n      mload(0x40)\n      tag_31\n      swap2\n      swap1\n      tag_32\n      jump\t// in\n    tag_31:\n      mload(0x40)\n      dup1\n      swap2\n      sub\n      swap1\n      return\n        /* \"contracts/TransactionContract9Juni.sol\":3382:4277  function getTransactionByFromToUserId(... */\n    tag_7:\n      tag_33\n      0x04\n      dup1\n      calldatasize\n      sub\n      dup2\n      add\n      swap1\n      tag_34\n      swap2\n      swap1\n      tag_15\n      jump\t// in\n    tag_34:\n      tag_35\n      jump\t// in\n    tag_33:\n      mload(0x40)\n      tag_36\n      swap2\n      swap1\n      tag_22\n      jump\t// in\n    tag_36:\n      mload(0x40)\n      dup1\n      swap2\n      sub\n      swap1\n      return\n        /* \"contracts/TransactionContract9Juni.sol\":1080:2188  function addTransaction(... */\n    tag_8:\n      tag_37\n      0x04\n      dup1\n      calldatasize\n      sub\n      dup2\n      add\n      swap1\n      tag_38\n      swap2\n      swap1\n      tag_39\n      jump\t// in\n    tag_38:\n      tag_40\n      jump\t// in\n    tag_37:\n      stop\n        /* \"contracts/TransactionContract9Juni.sol\":4608:5491  function getTransactionByCampaignId(... */\n    tag_9:\n      tag_41\n      0x04\n      dup1\n      calldatasize\n      sub\n      dup2\n      add\n      swap1\n      tag_42\n      swap2\n      swap1\n      tag_15\n      jump\t// in\n    tag_42:\n      tag_43\n      jump\t// in\n    tag_41:\n      mload(0x40)\n      tag_44\n      swap2\n      swap1\n      tag_22\n      jump\t// in\n    tag_44:\n      mload(0x40)\n      dup1\n      swap2\n      sub\n      swap1\n      return\n        /* \"contracts/TransactionContract9Juni.sol\":4283:4602  function getTransactionByCode(... */\n    tag_10:\n      tag_45\n      0x04\n      dup1\n      calldatasize\n      sub\n      dup2\n      add\n      swap1\n      tag_46\n      swap2\n      swap1\n      tag_15\n      jump\t// in\n    tag_46:\n      tag_47\n      jump\t// in\n    tag_45:\n      mload(0x40)\n      tag_48\n      swap2\n      swap1\n      tag_49\n      jump\t// in\n    tag_48:\n      mload(0x40)\n      dup1\n      swap2\n      sub\n      swap1\n      return\n        /* \"contracts/TransactionContract9Juni.sol\":2952:3376  function updatePaymentStatus(... */\n    tag_11:\n      tag_50\n      0x04\n      dup1\n      calldatasize\n      sub\n      dup2\n      add\n      swap1\n      tag_51\n      swap2\n      swap1\n      tag_25\n      jump\t// in\n    tag_51:\n      tag_52\n      jump\t// in\n    tag_50:\n      stop\n        /* \"contracts/TransactionContract9Juni.sol\":404:454  mapping(string => Transaction) public transactions */\n    tag_16:\n      0x00\n      dup2\n      dup1\n      mload\n      0x20\n      dup2\n      add\n      dup3\n      add\n      dup1\n      mload\n      dup5\n      dup3\n      mstore\n      0x20\n      dup4\n      add\n      0x20\n      dup6\n      add\n      keccak256\n      dup2\n      dup4\n      mstore\n      dup1\n      swap6\n      pop\n      pop\n      pop\n      pop\n      pop\n      pop\n      0x00\n      swap2\n      pop\n      swap1\n      pop\n      dup1\n      0x00\n      add\n      dup1\n      sload\n      tag_53\n      swap1\n      tag_54\n      jump\t// in\n    tag_53:\n      dup1\n      0x1f\n      add\n      0x20\n      dup1\n      swap2\n      div\n      mul\n      0x20\n      add\n      mload(0x40)\n      swap1\n      dup2\n      add\n      0x40\n      mstore\n      dup1\n      swap3\n      swap2\n      swap1\n      dup2\n      dup2\n      mstore\n      0x20\n      add\n      dup3\n      dup1\n      sload\n      tag_55\n      swap1\n      tag_54\n      jump\t// in\n    tag_55:\n      dup1\n      iszero\n      tag_56\n      jumpi\n      dup1\n      0x1f\n      lt\n      tag_57\n      jumpi\n      0x0100\n      dup1\n      dup4\n      sload\n      div\n      mul\n      dup4\n      mstore\n      swap2\n      0x20\n      add\n      swap2\n      jump(tag_56)\n    tag_57:\n      dup3\n      add\n      swap2\n      swap1\n      0x00\n      mstore\n      keccak256(0x00, 0x20)\n      swap1\n    tag_58:\n      dup2\n      sload\n      dup2\n      mstore\n      swap1\n      0x01\n      add\n      swap1\n      0x20\n      add\n      dup1\n      dup4\n      gt\n      tag_58\n      jumpi\n      dup3\n      swap1\n      sub\n      0x1f\n      and\n      dup3\n      add\n      swap2\n    tag_56:\n      pop\n      pop\n      pop\n      pop\n      pop\n      swap1\n      dup1\n      0x01\n      add\n      dup1\n      sload\n      tag_59\n      swap1\n      tag_54\n      jump\t// in\n    tag_59:\n      dup1\n      0x1f\n      add\n      0x20\n      dup1\n      swap2\n      div\n      mul\n      0x20\n      add\n      mload(0x40)\n      swap1\n      dup2\n      add\n      0x40\n      mstore\n      dup1\n      swap3\n      swap2\n      swap1\n      dup2\n      dup2\n      mstore\n      0x20\n      add\n      dup3\n      dup1\n      sload\n      tag_60\n      swap1\n      tag_54\n      jump\t// in\n    tag_60:\n      dup1\n      iszero\n      tag_61\n      jumpi\n      dup1\n      0x1f\n      lt\n      tag_62\n      jumpi\n      0x0100\n      dup1\n      dup4\n      sload\n      div\n      mul\n      dup4\n      mstore\n      swap2\n      0x20\n      add\n      swap2\n      jump(tag_61)\n    tag_62:\n      dup3\n      add\n      swap2\n      swap1\n      0x00\n      mstore\n      keccak256(0x00, 0x20)\n      swap1\n    tag_63:\n      dup2\n      sload\n      dup2\n      mstore\n      swap1\n      0x01\n      add\n      swap1\n      0x20\n      add\n      dup1\n      dup4\n      gt\n      tag_63\n      jumpi\n      dup3\n      swap1\n      sub\n      0x1f\n      and\n      dup3\n      add\n      swap2\n    tag_61:\n      pop\n      pop\n      pop\n      pop\n      pop\n      swap1\n      dup1\n      0x02\n      add\n      dup1\n      sload\n      tag_64\n      swap1\n      tag_54\n      jump\t// in\n    tag_64:\n      dup1\n      0x1f\n      add\n      0x20\n      dup1\n      swap2\n      div\n      mul\n      0x20\n      add\n      mload(0x40)\n      swap1\n      dup2\n      add\n      0x40\n      mstore\n      dup1\n      swap3\n      swap2\n      swap1\n      dup2\n      dup2\n      mstore\n      0x20\n      add\n      dup3\n      dup1\n      sload\n      tag_65\n      swap1\n      tag_54\n      jump\t// in\n    tag_65:\n      dup1\n      iszero\n      tag_66\n      jumpi\n      dup1\n      0x1f\n      lt\n      tag_67\n      jumpi\n      0x0100\n      dup1\n      dup4\n      sload\n      div\n      mul\n      dup4\n      mstore\n      swap2\n      0x20\n      add\n      swap2\n      jump(tag_66)\n    tag_67:\n      dup3\n      add\n      swap2\n      swap1\n      0x00\n      mstore\n      keccak256(0x00, 0x20)\n      swap1\n    tag_68:\n      dup2\n      sload\n      dup2\n      mstore\n      swap1\n      0x01\n      add\n      swap1\n      0x20\n      add\n      dup1\n      dup4\n      gt\n      tag_68\n      jumpi\n      dup3\n      swap1\n      sub\n      0x1f\n      and\n      dup3\n      add\n      swap2\n    tag_66:\n      pop\n      pop\n      pop\n      pop\n      pop\n      swap1\n      dup1\n      0x03\n      add\n      dup1\n      sload\n      tag_69\n      swap1\n      tag_54\n      jump\t// in\n    tag_69:\n      dup1\n      0x1f\n      add\n      0x20\n      dup1\n      swap2\n      div\n      mul\n      0x20\n      add\n      mload(0x40)\n      swap1\n      dup2\n      add\n      0x40\n      mstore\n      dup1\n      swap3\n      swap2\n      swap1\n      dup2\n      dup2\n      mstore\n      0x20\n      add\n      dup3\n      dup1\n      sload\n      tag_70\n      swap1\n      tag_54\n      jump\t// in\n    tag_70:\n      dup1\n      iszero\n      tag_71\n      jumpi\n      dup1\n      0x1f\n      lt\n      tag_72\n      jumpi\n      0x0100\n      dup1\n      dup4\n      sload\n      div\n      mul\n      dup4\n      mstore\n      swap2\n      0x20\n      add\n      swap2\n      jump(tag_71)\n    tag_72:\n      dup3\n      add\n      swap2\n      swap1\n      0x00\n      mstore\n      keccak256(0x00, 0x20)\n      swap1\n    tag_73:\n      dup2\n      sload\n      dup2\n      mstore\n      swap1\n      0x01\n      add\n      swap1\n      0x20\n      add\n      dup1\n      dup4\n      gt\n      tag_73\n      jumpi\n      dup3\n      swap1\n      sub\n      0x1f\n      and\n      dup3\n      add\n      swap2\n    tag_71:\n      pop\n      pop\n      pop\n      pop\n      pop\n      swap1\n      dup1\n      0x04\n      add\n      dup1\n      sload\n      tag_74\n      swap1\n      tag_54\n      jump\t// in\n    tag_74:\n      dup1\n      0x1f\n      add\n      0x20\n      dup1\n      swap2\n      div\n      mul\n      0x20\n      add\n      mload(0x40)\n      swap1\n      dup2\n      add\n      0x40\n      mstore\n      dup1\n      swap3\n      swap2\n      swap1\n      dup2\n      dup2\n      mstore\n      0x20\n      add\n      dup3\n      dup1\n      sload\n      tag_75\n      swap1\n      tag_54\n      jump\t// in\n    tag_75:\n      dup1\n      iszero\n      tag_76\n      jumpi\n      dup1\n      0x1f\n      lt\n      tag_77\n      jumpi\n      0x0100\n      dup1\n      dup4\n      sload\n      div\n      mul\n      dup4\n      mstore\n      swap2\n      0x20\n      add\n      swap2\n      jump(tag_76)\n    tag_77:\n      dup3\n      add\n      swap2\n      swap1\n      0x00\n      mstore\n      keccak256(0x00, 0x20)\n      swap1\n    tag_78:\n      dup2\n      sload\n      dup2\n      mstore\n      swap1\n      0x01\n      add\n      swap1\n      0x20\n      add\n      dup1\n      dup4\n      gt\n      tag_78\n      jumpi\n      dup3\n      swap1\n      sub\n      0x1f\n      and\n      dup3\n      add\n      swap2\n    tag_76:\n      pop\n      pop\n      pop\n      pop\n      pop\n      swap1\n      dup1\n      0x05\n      add\n      dup1\n      sload\n      tag_79\n      swap1\n      tag_54\n      jump\t// in\n    tag_79:\n      dup1\n      0x1f\n      add\n      0x20\n      dup1\n      swap2\n      div\n      mul\n      0x20\n      add\n      mload(0x40)\n      swap1\n      dup2\n      add\n      0x40\n      mstore\n      dup1\n      swap3\n      swap2\n      swap1\n      dup2\n      dup2\n      mstore\n      0x20\n      add\n      dup3\n      dup1\n      sload\n      tag_80\n      swap1\n      tag_54\n      jump\t// in\n    tag_80:\n      dup1\n      iszero\n      tag_81\n      jumpi\n      dup1\n      0x1f\n      lt\n      tag_82\n      jumpi\n      0x0100\n      dup1\n      dup4\n      sload\n      div\n      mul\n      dup4\n      mstore\n      swap2\n      0x20\n      add\n      swap2\n      jump(tag_81)\n    tag_82:\n      dup3\n      add\n      swap2\n      swap1\n      0x00\n      mstore\n      keccak256(0x00, 0x20)\n      swap1\n    tag_83:\n      dup2\n      sload\n      dup2\n      mstore\n      swap1\n      0x01\n      add\n      swap1\n      0x20\n      add\n      dup1\n      dup4\n      gt\n      tag_83\n      jumpi\n      dup3\n      swap1\n      sub\n      0x1f\n      and\n      dup3\n      add\n      swap2\n    tag_81:\n      pop\n      pop\n      pop\n      pop\n      pop\n      swap1\n      dup1\n      0x06\n      add\n      sload\n      swap1\n      dup1\n      0x07\n      add\n      sload\n      swap1\n      dup1\n      0x08\n      add\n      dup1\n      sload\n      tag_84\n      swap1\n      tag_54\n      jump\t// in\n    tag_84:\n      dup1\n      0x1f\n      add\n      0x20\n      dup1\n      swap2\n      div\n      mul\n      0x20\n      add\n      mload(0x40)\n      swap1\n      dup2\n      add\n      0x40\n      mstore\n      dup1\n      swap3\n      swap2\n      swap1\n      dup2\n      dup2\n      mstore\n      0x20\n      add\n      dup3\n      dup1\n      sload\n      tag_85\n      swap1\n      tag_54\n      jump\t// in\n    tag_85:\n      dup1\n      iszero\n      tag_86\n      jumpi\n      dup1\n      0x1f\n      lt\n      tag_87\n      jumpi\n      0x0100\n      dup1\n      dup4\n      sload\n      div\n      mul\n      dup4\n      mstore\n      swap2\n      0x20\n      add\n      swap2\n      jump(tag_86)\n    tag_87:\n      dup3\n      add\n      swap2\n      swap1\n      0x00\n      mstore\n      keccak256(0x00, 0x20)\n      swap1\n    tag_88:\n      dup2\n      sload\n      dup2\n      mstore\n      swap1\n      0x01\n      add\n      swap1\n      0x20\n      add\n      dup1\n      dup4\n      gt\n      tag_88\n      jumpi\n      dup3\n      swap1\n      sub\n      0x1f\n      and\n      dup3\n      add\n      swap2\n    tag_86:\n      pop\n      pop\n      pop\n      pop\n      pop\n      swap1\n      dup1\n      0x09\n      add\n      sload\n      swap1\n      pop\n      dup11\n      jump\t// out\n        /* \"contracts/TransactionContract9Juni.sol\":2194:2558  function getAllTransactions() public view returns (Transaction[] memory) {... */\n    tag_20:\n        /* \"contracts/TransactionContract9Juni.sol\":2245:2265  Transaction[] memory */\n      0x60\n        /* \"contracts/TransactionContract9Juni.sol\":2277:2313  Transaction[] memory allTransactions */\n      0x00\n        /* \"contracts/TransactionContract9Juni.sol\":2347:2363  transactionCodes */\n      0x01\n        /* \"contracts/TransactionContract9Juni.sol\":2347:2370  transactionCodes.length */\n      dup1\n      sload\n      swap1\n      pop\n        /* \"contracts/TransactionContract9Juni.sol\":2316:2380  new Transaction[](... */\n      0xffffffffffffffff\n      dup2\n      gt\n      iszero\n      tag_90\n      jumpi\n      tag_91\n      tag_92\n      jump\t// in\n    tag_91:\n    tag_90:\n      mload(0x40)\n      swap1\n      dup1\n      dup3\n      mstore\n      dup1\n      0x20\n      mul\n      0x20\n      add\n      dup3\n      add\n      0x40\n      mstore\n      dup1\n      iszero\n      tag_93\n      jumpi\n      dup2\n      0x20\n      add\n    tag_94:\n      tag_95\n      tag_96\n      jump\t// in\n    tag_95:\n      dup2\n      mstore\n      0x20\n      add\n      swap1\n      0x01\n      swap1\n      sub\n      swap1\n      dup2\n      tag_94\n      jumpi\n      swap1\n      pop\n    tag_93:\n      pop\n        /* \"contracts/TransactionContract9Juni.sol\":2277:2380  Transaction[] memory allTransactions = new Transaction[](... */\n      swap1\n      pop\n        /* \"contracts/TransactionContract9Juni.sol\":2395:2401  uint i */\n      0x00\n        /* \"contracts/TransactionContract9Juni.sol\":2390:2520  for (uint i = 0; i < transactionCodes.length; i++) {... */\n    tag_97:\n        /* \"contracts/TransactionContract9Juni.sol\":2411:2427  transactionCodes */\n      0x01\n        /* \"contracts/TransactionContract9Juni.sol\":2411:2434  transactionCodes.length */\n      dup1\n      sload\n      swap1\n      pop\n        /* \"contracts/TransactionContract9Juni.sol\":2407:2408  i */\n      dup2\n        /* \"contracts/TransactionContract9Juni.sol\":2407:2434  i < transactionCodes.length */\n      lt\n        /* \"contracts/TransactionContract9Juni.sol\":2390:2520  for (uint i = 0; i < transactionCodes.length; i++) {... */\n      iszero\n      tag_98\n      jumpi\n        /* \"contracts/TransactionContract9Juni.sol\":2476:2488  transactions */\n      0x00\n        /* \"contracts/TransactionContract9Juni.sol\":2489:2505  transactionCodes */\n      0x01\n        /* \"contracts/TransactionContract9Juni.sol\":2506:2507  i */\n      dup3\n        /* \"contracts/TransactionContract9Juni.sol\":2489:2508  transactionCodes[i] */\n      dup2\n      sload\n      dup2\n      lt\n      tag_100\n      jumpi\n      tag_101\n      tag_102\n      jump\t// in\n    tag_101:\n    tag_100:\n      swap1\n      0x00\n      mstore\n      keccak256(0x00, 0x20)\n      add\n        /* \"contracts/TransactionContract9Juni.sol\":2476:2509  transactions[transactionCodes[i]] */\n      mload(0x40)\n      tag_104\n      swap2\n      swap1\n      tag_105\n      jump\t// in\n    tag_104:\n      swap1\n      dup2\n      mstore\n      0x20\n      add\n      mload(0x40)\n      dup1\n      swap2\n      sub\n      swap1\n      keccak256\n        /* \"contracts/TransactionContract9Juni.sol\":2455:2509  allTransactions[i] = transactions[transactionCodes[i]] */\n      mload(0x40)\n      dup1\n      0x0140\n      add\n      0x40\n      mstore\n      swap1\n      dup2\n      0x00\n      dup3\n      add\n      dup1\n      sload\n      tag_106\n      swap1\n      tag_54\n      jump\t// in\n    tag_106:\n      dup1\n      0x1f\n      add\n      0x20\n      dup1\n      swap2\n      div\n      mul\n      0x20\n      add\n      mload(0x40)\n      swap1\n      dup2\n      add\n      0x40\n      mstore\n      dup1\n      swap3\n      swap2\n      swap1\n      dup2\n      dup2\n      mstore\n      0x20\n      add\n      dup3\n      dup1\n      sload\n      tag_107\n      swap1\n      tag_54\n      jump\t// in\n    tag_107:\n      dup1\n      iszero\n      tag_108\n      jumpi\n      dup1\n      0x1f\n      lt\n      tag_109\n      jumpi\n      0x0100\n      dup1\n      dup4\n      sload\n      div\n      mul\n      dup4\n      mstore\n      swap2\n      0x20\n      add\n      swap2\n      jump(tag_108)\n    tag_109:\n      dup3\n      add\n      swap2\n      swap1\n      0x00\n      mstore\n      keccak256(0x00, 0x20)\n      swap1\n    tag_110:\n      dup2\n      sload\n      dup2\n      mstore\n      swap1\n      0x01\n      add\n      swap1\n      0x20\n      add\n      dup1\n      dup4\n      gt\n      tag_110\n      jumpi\n      dup3\n      swap1\n      sub\n      0x1f\n      and\n      dup3\n      add\n      swap2\n    tag_108:\n      pop\n      pop\n      pop\n      pop\n      pop\n      dup2\n      mstore\n      0x20\n      add\n      0x01\n      dup3\n      add\n      dup1\n      sload\n      tag_111\n      swap1\n      tag_54\n      jump\t// in\n    tag_111:\n      dup1\n      0x1f\n      add\n      0x20\n      dup1\n      swap2\n      div\n      mul\n      0x20\n      add\n      mload(0x40)\n      swap1\n      dup2\n      add\n      0x40\n      mstore\n      dup1\n      swap3\n      swap2\n      swap1\n      dup2\n      dup2\n      mstore\n      0x20\n      add\n      dup3\n      dup1\n      sload\n      tag_112\n      swap1\n      tag_54\n      jump\t// in\n    tag_112:\n      dup1\n      iszero\n      tag_113\n      jumpi\n      dup1\n      0x1f\n      lt\n      tag_114\n      jumpi\n      0x0100\n      dup1\n      dup4\n      sload\n      div\n      mul\n      dup4\n      mstore\n      swap2\n      0x20\n      add\n      swap2\n      jump(tag_113)\n    tag_114:\n      dup3\n      add\n      swap2\n      swap1\n      0x00\n      mstore\n      keccak256(0x00, 0x20)\n      swap1\n    tag_115:\n      dup2\n      sload\n      dup2\n      mstore\n      swap1\n      0x01\n      add\n      swap1\n      0x20\n      add\n      dup1\n      dup4\n      gt\n      tag_115\n      jumpi\n      dup3\n      swap1\n      sub\n      0x1f\n      and\n      dup3\n      add\n      swap2\n    tag_113:\n      pop\n      pop\n      pop\n      pop\n      pop\n      dup2\n      mstore\n      0x20\n      add\n      0x02\n      dup3\n      add\n      dup1\n      sload\n      tag_116\n      swap1\n      tag_54\n      jump\t// in\n    tag_116:\n      dup1\n      0x1f\n      add\n      0x20\n      dup1\n      swap2\n      div\n      mul\n      0x20\n      add\n      mload(0x40)\n      swap1\n      dup2\n      add\n      0x40\n      mstore\n      dup1\n      swap3\n      swap2\n      swap1\n      dup2\n      dup2\n      mstore\n      0x20\n      add\n      dup3\n      dup1\n      sload\n      tag_117\n      swap1\n      tag_54\n      jump\t// in\n    tag_117:\n      dup1\n      iszero\n      tag_118\n      jumpi\n      dup1\n      0x1f\n      lt\n      tag_119\n      jumpi\n      0x0100\n      dup1\n      dup4\n      sload\n      div\n      mul\n      dup4\n      mstore\n      swap2\n      0x20\n      add\n      swap2\n      jump(tag_118)\n    tag_119:\n      dup3\n      add\n      swap2\n      swap1\n      0x00\n      mstore\n      keccak256(0x00, 0x20)\n      swap1\n    tag_120:\n      dup2\n      sload\n      dup2\n      mstore\n      swap1\n      0x01\n      add\n      swap1\n      0x20\n      add\n      dup1\n      dup4\n      gt\n      tag_120\n      jumpi\n      dup3\n      swap1\n      sub\n      0x1f\n      and\n      dup3\n      add\n      swap2\n    tag_118:\n      pop\n      pop\n      pop\n      pop\n      pop\n      dup2\n      mstore\n      0x20\n      add\n      0x03\n      dup3\n      add\n      dup1\n      sload\n      tag_121\n      swap1\n      tag_54\n      jump\t// in\n    tag_121:\n      dup1\n      0x1f\n      add\n      0x20\n      dup1\n      swap2\n      div\n      mul\n      0x20\n      add\n      mload(0x40)\n      swap1\n      dup2\n      add\n      0x40\n      mstore\n      dup1\n      swap3\n      swap2\n      swap1\n      dup2\n      dup2\n      mstore\n      0x20\n      add\n      dup3\n      dup1\n      sload\n      tag_122\n      swap1\n      tag_54\n      jump\t// in\n    tag_122:\n      dup1\n      iszero\n      tag_123\n      jumpi\n      dup1\n      0x1f\n      lt\n      tag_124\n      jumpi\n      0x0100\n      dup1\n      dup4\n      sload\n      div\n      mul\n      dup4\n      mstore\n      swap2\n      0x20\n      add\n      swap2\n      jump(tag_123)\n    tag_124:\n      dup3\n      add\n      swap2\n      swap1\n      0x00\n      mstore\n      keccak256(0x00, 0x20)\n      swap1\n    tag_125:\n      dup2\n      sload\n      dup2\n      mstore\n      swap1\n      0x01\n      add\n      swap1\n      0x20\n      add\n      dup1\n      dup4\n      gt\n      tag_125\n      jumpi\n      dup3\n      swap1\n      sub\n      0x1f\n      and\n      dup3\n      add\n      swap2\n    tag_123:\n      pop\n      pop\n      pop\n      pop\n      pop\n      dup2\n      mstore\n      0x20\n      add\n      0x04\n      dup3\n      add\n      dup1\n      sload\n      tag_126\n      swap1\n      tag_54\n      jump\t// in\n    tag_126:\n      dup1\n      0x1f\n      add\n      0x20\n      dup1\n      swap2\n      div\n      mul\n      0x20\n      add\n      mload(0x40)\n      swap1\n      dup2\n      add\n      0x40\n      mstore\n      dup1\n      swap3\n      swap2\n      swap1\n      dup2\n      dup2\n      mstore\n      0x20\n      add\n      dup3\n      dup1\n      sload\n      tag_127\n      swap1\n      tag_54\n      jump\t// in\n    tag_127:\n      dup1\n      iszero\n      tag_128\n      jumpi\n      dup1\n      0x1f\n      lt\n      tag_129\n      jumpi\n      0x0100\n      dup1\n      dup4\n      sload\n      div\n      mul\n      dup4\n      mstore\n      swap2\n      0x20\n      add\n      swap2\n      jump(tag_128)\n    tag_129:\n      dup3\n      add\n      swap2\n      swap1\n      0x00\n      mstore\n      keccak256(0x00, 0x20)\n      swap1\n    tag_130:\n      dup2\n      sload\n      dup2\n      mstore\n      swap1\n      0x01\n      add\n      swap1\n      0x20\n      add\n      dup1\n      dup4\n      gt\n      tag_130\n      jumpi\n      dup3\n      swap1\n      sub\n      0x1f\n      and\n      dup3\n      add\n      swap2\n    tag_128:\n      pop\n      pop\n      pop\n      pop\n      pop\n      dup2\n      mstore\n      0x20\n      add\n      0x05\n      dup3\n      add\n      dup1\n      sload\n      tag_131\n      swap1\n      tag_54\n      jump\t// in\n    tag_131:\n      dup1\n      0x1f\n      add\n      0x20\n      dup1\n      swap2\n      div\n      mul\n      0x20\n      add\n      mload(0x40)\n      swap1\n      dup2\n      add\n      0x40\n      mstore\n      dup1\n      swap3\n      swap2\n      swap1\n      dup2\n      dup2\n      mstore\n      0x20\n      add\n      dup3\n      dup1\n      sload\n      tag_132\n      swap1\n      tag_54\n      jump\t// in\n    tag_132:\n      dup1\n      iszero\n      tag_133\n      jumpi\n      dup1\n      0x1f\n      lt\n      tag_134\n      jumpi\n      0x0100\n      dup1\n      dup4\n      sload\n      div\n      mul\n      dup4\n      mstore\n      swap2\n      0x20\n      add\n      swap2\n      jump(tag_133)\n    tag_134:\n      dup3\n      add\n      swap2\n      swap1\n      0x00\n      mstore\n      keccak256(0x00, 0x20)\n      swap1\n    tag_135:\n      dup2\n      sload\n      dup2\n      mstore\n      swap1\n      0x01\n      add\n      swap1\n      0x20\n      add\n      dup1\n      dup4\n      gt\n      tag_135\n      jumpi\n      dup3\n      swap1\n      sub\n      0x1f\n      and\n      dup3\n      add\n      swap2\n    tag_133:\n      pop\n      pop\n      pop\n      pop\n      pop\n      dup2\n      mstore\n      0x20\n      add\n      0x06\n      dup3\n      add\n      sload\n      dup2\n      mstore\n      0x20\n      add\n      0x07\n      dup3\n      add\n      sload\n      dup2\n      mstore\n      0x20\n      add\n      0x08\n      dup3\n      add\n      dup1\n      sload\n      tag_136\n      swap1\n      tag_54\n      jump\t// in\n    tag_136:\n      dup1\n      0x1f\n      add\n      0x20\n      dup1\n      swap2\n      div\n      mul\n      0x20\n      add\n      mload(0x40)\n      swap1\n      dup2\n      add\n      0x40\n      mstore\n      dup1\n      swap3\n      swap2\n      swap1\n      dup2\n      dup2\n      mstore\n      0x20\n      add\n      dup3\n      dup1\n      sload\n      tag_137\n      swap1\n      tag_54\n      jump\t// in\n    tag_137:\n      dup1\n      iszero\n      tag_138\n      jumpi\n      dup1\n      0x1f\n      lt\n      tag_139\n      jumpi\n      0x0100\n      dup1\n      dup4\n      sload\n      div\n      mul\n      dup4\n      mstore\n      swap2\n      0x20\n      add\n      swap2\n      jump(tag_138)\n    tag_139:\n      dup3\n      add\n      swap2\n      swap1\n      0x00\n      mstore\n      keccak256(0x00, 0x20)\n      swap1\n    tag_140:\n      dup2\n      sload\n      dup2\n      mstore\n      swap1\n      0x01\n      add\n      swap1\n      0x20\n      add\n      dup1\n      dup4\n      gt\n      tag_140\n      jumpi\n      dup3\n      swap1\n      sub\n      0x1f\n      and\n      dup3\n      add\n      swap2\n    tag_138:\n      pop\n      pop\n      pop\n      pop\n      pop\n      dup2\n      mstore\n      0x20\n      add\n      0x09\n      dup3\n      add\n      sload\n      dup2\n      mstore\n      pop\n      pop\n        /* \"contracts/TransactionContract9Juni.sol\":2455:2470  allTransactions */\n      dup3\n        /* \"contracts/TransactionContract9Juni.sol\":2471:2472  i */\n      dup3\n        /* \"contracts/TransactionContract9Juni.sol\":2455:2473  allTransactions[i] */\n      dup2\n      mload\n      dup2\n      lt\n      tag_141\n      jumpi\n      tag_142\n      tag_102\n      jump\t// in\n    tag_142:\n    tag_141:\n      0x20\n      mul\n      0x20\n      add\n      add\n        /* \"contracts/TransactionContract9Juni.sol\":2455:2509  allTransactions[i] = transactions[transactionCodes[i]] */\n      dup2\n      swap1\n      mstore\n      pop\n        /* \"contracts/TransactionContract9Juni.sol\":2436:2439  i++ */\n      dup1\n      dup1\n      tag_143\n      swap1\n      tag_144\n      jump\t// in\n    tag_143:\n      swap2\n      pop\n      pop\n        /* \"contracts/TransactionContract9Juni.sol\":2390:2520  for (uint i = 0; i < transactionCodes.length; i++) {... */\n      jump(tag_97)\n    tag_98:\n      pop\n        /* \"contracts/TransactionContract9Juni.sol\":2536:2551  allTransactions */\n      dup1\n        /* \"contracts/TransactionContract9Juni.sol\":2529:2551  return allTransactions */\n      swap2\n      pop\n      pop\n        /* \"contracts/TransactionContract9Juni.sol\":2194:2558  function getAllTransactions() public view returns (Transaction[] memory) {... */\n      swap1\n      jump\t// out\n        /* \"contracts/TransactionContract9Juni.sol\":2564:2946  function updateStatus(... */\n    tag_26:\n        /* \"contracts/TransactionContract9Juni.sol\":2768:2769  0 */\n      0x00\n        /* \"contracts/TransactionContract9Juni.sol\":2710:2722  transactions */\n      dup1\n        /* \"contracts/TransactionContract9Juni.sol\":2723:2739  _transactionCode */\n      dup4\n        /* \"contracts/TransactionContract9Juni.sol\":2710:2740  transactions[_transactionCode] */\n      mload(0x40)\n      tag_146\n      swap2\n      swap1\n      tag_147\n      jump\t// in\n    tag_146:\n      swap1\n      dup2\n      mstore\n      0x20\n      add\n      mload(0x40)\n      dup1\n      swap2\n      sub\n      swap1\n      keccak256\n        /* \"contracts/TransactionContract9Juni.sol\":2710:2756  transactions[_transactionCode].transactionCode */\n      0x00\n      add\n        /* \"contracts/TransactionContract9Juni.sol\":2704:2764  bytes(transactions[_transactionCode].transactionCode).length */\n      dup1\n      sload\n      tag_148\n      swap1\n      tag_54\n      jump\t// in\n    tag_148:\n      swap1\n      pop\n        /* \"contracts/TransactionContract9Juni.sol\":2704:2769  bytes(transactions[_transactionCode].transactionCode).length != 0 */\n      sub\n        /* \"contracts/TransactionContract9Juni.sol\":2683:2821  require(... */\n      tag_149\n      jumpi\n      mload(0x40)\n      0x08c379a000000000000000000000000000000000000000000000000000000000\n      dup2\n      mstore\n      0x04\n      add\n      tag_150\n      swap1\n      tag_151\n      jump\t// in\n    tag_150:\n      mload(0x40)\n      dup1\n      swap2\n      sub\n      swap1\n      revert\n    tag_149:\n        /* \"contracts/TransactionContract9Juni.sol\":2871:2881  _newStatus */\n      dup1\n        /* \"contracts/TransactionContract9Juni.sol\":2831:2843  transactions */\n      0x00\n        /* \"contracts/TransactionContract9Juni.sol\":2844:2860  _transactionCode */\n      dup4\n        /* \"contracts/TransactionContract9Juni.sol\":2831:2861  transactions[_transactionCode] */\n      mload(0x40)\n      tag_152\n      swap2\n      swap1\n      tag_147\n      jump\t// in\n    tag_152:\n      swap1\n      dup2\n      mstore\n      0x20\n      add\n      mload(0x40)\n      dup1\n      swap2\n      sub\n      swap1\n      keccak256\n        /* \"contracts/TransactionContract9Juni.sol\":2831:2868  transactions[_transactionCode].status */\n      0x05\n      add\n        /* \"contracts/TransactionContract9Juni.sol\":2831:2881  transactions[_transactionCode].status = _newStatus */\n      swap1\n      dup2\n      tag_153\n      swap2\n      swap1\n      tag_154\n      jump\t// in\n    tag_153:\n      pop\n        /* \"contracts/TransactionContract9Juni.sol\":2896:2939  StatusUpdated(_transactionCode, _newStatus) */\n      0xb75b1fec1bc9156569ae9f72fb29c6e6727b297e191d358465fff4c09d8f7d26\n        /* \"contracts/TransactionContract9Juni.sol\":2910:2926  _transactionCode */\n      dup3\n        /* \"contracts/TransactionContract9Juni.sol\":2928:2938  _newStatus */\n      dup3\n        /* \"contracts/TransactionContract9Juni.sol\":2896:2939  StatusUpdated(_transactionCode, _newStatus) */\n      mload(0x40)\n      tag_155\n      swap3\n      swap2\n      swap1\n      tag_156\n      jump\t// in\n    tag_155:\n      mload(0x40)\n      dup1\n      swap2\n      sub\n      swap1\n      log1\n        /* \"contracts/TransactionContract9Juni.sol\":2564:2946  function updateStatus(... */\n      pop\n      pop\n      jump\t// out\n        /* \"contracts/TransactionContract9Juni.sol\":481:513  string[] public transactionCodes */\n    tag_30:\n      0x01\n      dup2\n      dup2\n      sload\n      dup2\n      lt\n      tag_157\n      jumpi\n      0x00\n      dup1\n      revert\n    tag_157:\n      swap1\n      0x00\n      mstore\n      keccak256(0x00, 0x20)\n      add\n      0x00\n      swap2\n      pop\n      swap1\n      pop\n      dup1\n      sload\n      tag_159\n      swap1\n      tag_54\n      jump\t// in\n    tag_159:\n      dup1\n      0x1f\n      add\n      0x20\n      dup1\n      swap2\n      div\n      mul\n      0x20\n      add\n      mload(0x40)\n      swap1\n      dup2\n      add\n      0x40\n      mstore\n      dup1\n      swap3\n      swap2\n      swap1\n      dup2\n      dup2\n      mstore\n      0x20\n      add\n      dup3\n      dup1\n      sload\n      tag_160\n      swap1\n      tag_54\n      jump\t// in\n    tag_160:\n      dup1\n      iszero\n      tag_161\n      jumpi\n      dup1\n      0x1f\n      lt\n      tag_162\n      jumpi\n      0x0100\n      dup1\n      dup4\n      sload\n      div\n      mul\n      dup4\n      mstore\n      swap2\n      0x20\n      add\n      swap2\n      jump(tag_161)\n    tag_162:\n      dup3\n      add\n      swap2\n      swap1\n      0x00\n      mstore\n      keccak256(0x00, 0x20)\n      swap1\n    tag_163:\n      dup2\n      sload\n      dup2\n      mstore\n      swap1\n      0x01\n      add\n      swap1\n      0x20\n      add\n      dup1\n      dup4\n      gt\n      tag_163\n      jumpi\n      dup3\n      swap1\n      sub\n      0x1f\n      and\n      dup3\n      add\n      swap2\n    tag_161:\n      pop\n      pop\n      pop\n      pop\n      pop\n      dup2\n      jump\t// out\n        /* \"contracts/TransactionContract9Juni.sol\":3382:4277  function getTransactionByFromToUserId(... */\n    tag_35:\n        /* \"contracts/TransactionContract9Juni.sol\":3484:3504  Transaction[] memory */\n      0x60\n        /* \"contracts/TransactionContract9Juni.sol\":3516:3526  uint count */\n      0x00\n        /* \"contracts/TransactionContract9Juni.sol\":3545:3551  uint i */\n      dup1\n        /* \"contracts/TransactionContract9Juni.sol\":3540:3812  for (uint i = 0; i < transactionCodes.length; i++) {... */\n    tag_165:\n        /* \"contracts/TransactionContract9Juni.sol\":3561:3577  transactionCodes */\n      0x01\n        /* \"contracts/TransactionContract9Juni.sol\":3561:3584  transactionCodes.length */\n      dup1\n      sload\n      swap1\n      pop\n        /* \"contracts/TransactionContract9Juni.sol\":3557:3558  i */\n      dup2\n        /* \"contracts/TransactionContract9Juni.sol\":3557:3584  i < transactionCodes.length */\n      lt\n        /* \"contracts/TransactionContract9Juni.sol\":3540:3812  for (uint i = 0; i < transactionCodes.length; i++) {... */\n      iszero\n      tag_166\n      jumpi\n        /* \"contracts/TransactionContract9Juni.sol\":3732:3745  _fromToUserId */\n      dup4\n        /* \"contracts/TransactionContract9Juni.sol\":3715:3746  abi.encodePacked(_fromToUserId) */\n      add(0x20, mload(0x40))\n      tag_168\n      swap2\n      swap1\n      tag_147\n      jump\t// in\n    tag_168:\n      mload(0x40)\n      0x20\n      dup2\n      dup4\n      sub\n      sub\n      dup2\n      mstore\n      swap1\n      0x40\n      mstore\n        /* \"contracts/TransactionContract9Juni.sol\":3705:3747  keccak256(abi.encodePacked(_fromToUserId)) */\n      dup1\n      mload\n      swap1\n      0x20\n      add\n      keccak256\n        /* \"contracts/TransactionContract9Juni.sol\":3653:3665  transactions */\n      0x00\n        /* \"contracts/TransactionContract9Juni.sol\":3666:3682  transactionCodes */\n      0x01\n        /* \"contracts/TransactionContract9Juni.sol\":3683:3684  i */\n      dup4\n        /* \"contracts/TransactionContract9Juni.sol\":3666:3685  transactionCodes[i] */\n      dup2\n      sload\n      dup2\n      lt\n      tag_169\n      jumpi\n      tag_170\n      tag_102\n      jump\t// in\n    tag_170:\n    tag_169:\n      swap1\n      0x00\n      mstore\n      keccak256(0x00, 0x20)\n      add\n        /* \"contracts/TransactionContract9Juni.sol\":3653:3686  transactions[transactionCodes[i]] */\n      mload(0x40)\n      tag_172\n      swap2\n      swap1\n      tag_105\n      jump\t// in\n    tag_172:\n      swap1\n      dup2\n      mstore\n      0x20\n      add\n      mload(0x40)\n      dup1\n      swap2\n      sub\n      swap1\n      keccak256\n        /* \"contracts/TransactionContract9Juni.sol\":3653:3699  transactions[transactionCodes[i]].fromToUserId */\n      0x02\n      add\n        /* \"contracts/TransactionContract9Juni.sol\":3636:3700  abi.encodePacked(transactions[transactionCodes[i]].fromToUserId) */\n      add(0x20, mload(0x40))\n      tag_173\n      swap2\n      swap1\n      tag_105\n      jump\t// in\n    tag_173:\n      mload(0x40)\n      0x20\n      dup2\n      dup4\n      sub\n      sub\n      dup2\n      mstore\n      swap1\n      0x40\n      mstore\n        /* \"contracts/TransactionContract9Juni.sol\":3626:3701  keccak256(abi.encodePacked(transactions[transactionCodes[i]].fromToUserId)) */\n      dup1\n      mload\n      swap1\n      0x20\n      add\n      keccak256\n        /* \"contracts/TransactionContract9Juni.sol\":3626:3747  keccak256(abi.encodePacked(transactions[transactionCodes[i]].fromToUserId)) == keccak256(abi.encodePacked(_fromToUserId)) */\n      sub\n        /* \"contracts/TransactionContract9Juni.sol\":3605:3802  if (... */\n      tag_174\n      jumpi\n        /* \"contracts/TransactionContract9Juni.sol\":3780:3787  count++ */\n      dup2\n      dup1\n      tag_175\n      swap1\n      tag_144\n      jump\t// in\n    tag_175:\n      swap3\n      pop\n      pop\n        /* \"contracts/TransactionContract9Juni.sol\":3605:3802  if (... */\n    tag_174:\n        /* \"contracts/TransactionContract9Juni.sol\":3586:3589  i++ */\n      dup1\n      dup1\n      tag_176\n      swap1\n      tag_144\n      jump\t// in\n    tag_176:\n      swap2\n      pop\n      pop\n        /* \"contracts/TransactionContract9Juni.sol\":3540:3812  for (uint i = 0; i < transactionCodes.length; i++) {... */\n      jump(tag_165)\n    tag_166:\n      pop\n        /* \"contracts/TransactionContract9Juni.sol\":3821:3848  Transaction[] memory result */\n      0x00\n        /* \"contracts/TransactionContract9Juni.sol\":3869:3874  count */\n      dup2\n        /* \"contracts/TransactionContract9Juni.sol\":3851:3875  new Transaction[](count) */\n      0xffffffffffffffff\n      dup2\n      gt\n      iszero\n      tag_177\n      jumpi\n      tag_178\n      tag_92\n      jump\t// in\n    tag_178:\n    tag_177:\n      mload(0x40)\n      swap1\n      dup1\n      dup3\n      mstore\n      dup1\n      0x20\n      mul\n      0x20\n      add\n      dup3\n      add\n      0x40\n      mstore\n      dup1\n      iszero\n      tag_179\n      jumpi\n      dup2\n      0x20\n      add\n    tag_180:\n      tag_181\n      tag_96\n      jump\t// in\n    tag_181:\n      dup2\n      mstore\n      0x20\n      add\n      swap1\n      0x01\n      swap1\n      sub\n      swap1\n      dup2\n      tag_180\n      jumpi\n      swap1\n      pop\n    tag_179:\n      pop\n        /* \"contracts/TransactionContract9Juni.sol\":3821:3875  Transaction[] memory result = new Transaction[](count) */\n      swap1\n      pop\n        /* \"contracts/TransactionContract9Juni.sol\":3885:3895  uint index */\n      0x00\n        /* \"contracts/TransactionContract9Juni.sol\":3914:3920  uint i */\n      dup1\n        /* \"contracts/TransactionContract9Juni.sol\":3909:4248  for (uint i = 0; i < transactionCodes.length; i++) {... */\n    tag_182:\n        /* \"contracts/TransactionContract9Juni.sol\":3930:3946  transactionCodes */\n      0x01\n        /* \"contracts/TransactionContract9Juni.sol\":3930:3953  transactionCodes.length */\n      dup1\n      sload\n      swap1\n      pop\n        /* \"contracts/TransactionContract9Juni.sol\":3926:3927  i */\n      dup2\n        /* \"contracts/TransactionContract9Juni.sol\":3926:3953  i < transactionCodes.length */\n      lt\n        /* \"contracts/TransactionContract9Juni.sol\":3909:4248  for (uint i = 0; i < transactionCodes.length; i++) {... */\n      iszero\n      tag_183\n      jumpi\n        /* \"contracts/TransactionContract9Juni.sol\":4101:4114  _fromToUserId */\n      dup6\n        /* \"contracts/TransactionContract9Juni.sol\":4084:4115  abi.encodePacked(_fromToUserId) */\n      add(0x20, mload(0x40))\n      tag_185\n      swap2\n      swap1\n      tag_147\n      jump\t// in\n    tag_185:\n      mload(0x40)\n      0x20\n      dup2\n      dup4\n      sub\n      sub\n      dup2\n      mstore\n      swap1\n      0x40\n      mstore\n        /* \"contracts/TransactionContract9Juni.sol\":4074:4116  keccak256(abi.encodePacked(_fromToUserId)) */\n      dup1\n      mload\n      swap1\n      0x20\n      add\n      keccak256\n        /* \"contracts/TransactionContract9Juni.sol\":4022:4034  transactions */\n      0x00\n        /* \"contracts/TransactionContract9Juni.sol\":4035:4051  transactionCodes */\n      0x01\n        /* \"contracts/TransactionContract9Juni.sol\":4052:4053  i */\n      dup4\n        /* \"contracts/TransactionContract9Juni.sol\":4035:4054  transactionCodes[i] */\n      dup2\n      sload\n      dup2\n      lt\n      tag_186\n      jumpi\n      tag_187\n      tag_102\n      jump\t// in\n    tag_187:\n    tag_186:\n      swap1\n      0x00\n      mstore\n      keccak256(0x00, 0x20)\n      add\n        /* \"contracts/TransactionContract9Juni.sol\":4022:4055  transactions[transactionCodes[i]] */\n      mload(0x40)\n      tag_189\n      swap2\n      swap1\n      tag_105\n      jump\t// in\n    tag_189:\n      swap1\n      dup2\n      mstore\n      0x20\n      add\n      mload(0x40)\n      dup1\n      swap2\n      sub\n      swap1\n      keccak256\n        /* \"contracts/TransactionContract9Juni.sol\":4022:4068  transactions[transactionCodes[i]].fromToUserId */\n      0x02\n      add\n        /* \"contracts/TransactionContract9Juni.sol\":4005:4069  abi.encodePacked(transactions[transactionCodes[i]].fromToUserId) */\n      add(0x20, mload(0x40))\n      tag_190\n      swap2\n      swap1\n      tag_105\n      jump\t// in\n    tag_190:\n      mload(0x40)\n      0x20\n      dup2\n      dup4\n      sub\n      sub\n      dup2\n      mstore\n      swap1\n      0x40\n      mstore\n        /* \"contracts/TransactionContract9Juni.sol\":3995:4070  keccak256(abi.encodePacked(transactions[transactionCodes[i]].fromToUserId)) */\n      dup1\n      mload\n      swap1\n      0x20\n      add\n      keccak256\n        /* \"contracts/TransactionContract9Juni.sol\":3995:4116  keccak256(abi.encodePacked(transactions[transactionCodes[i]].fromToUserId)) == keccak256(abi.encodePacked(_fromToUserId)) */\n      sub\n        /* \"contracts/TransactionContract9Juni.sol\":3974:4238  if (... */\n      tag_191\n      jumpi\n        /* \"contracts/TransactionContract9Juni.sol\":4165:4177  transactions */\n      0x00\n        /* \"contracts/TransactionContract9Juni.sol\":4178:4194  transactionCodes */\n      0x01\n        /* \"contracts/TransactionContract9Juni.sol\":4195:4196  i */\n      dup3\n        /* \"contracts/TransactionContract9Juni.sol\":4178:4197  transactionCodes[i] */\n      dup2\n      sload\n      dup2\n      lt\n      tag_192\n      jumpi\n      tag_193\n      tag_102\n      jump\t// in\n    tag_193:\n    tag_192:\n      swap1\n      0x00\n      mstore\n      keccak256(0x00, 0x20)\n      add\n        /* \"contracts/TransactionContract9Juni.sol\":4165:4198  transactions[transactionCodes[i]] */\n      mload(0x40)\n      tag_195\n      swap2\n      swap1\n      tag_105\n      jump\t// in\n    tag_195:\n      swap1\n      dup2\n      mstore\n      0x20\n      add\n      mload(0x40)\n      dup1\n      swap2\n      sub\n      swap1\n      keccak256\n        /* \"contracts/TransactionContract9Juni.sol\":4149:4198  result[index] = transactions[transactionCodes[i]] */\n      mload(0x40)\n      dup1\n      0x0140\n      add\n      0x40\n      mstore\n      swap1\n      dup2\n      0x00\n      dup3\n      add\n      dup1\n      sload\n      tag_196\n      swap1\n      tag_54\n      jump\t// in\n    tag_196:\n      dup1\n      0x1f\n      add\n      0x20\n      dup1\n      swap2\n      div\n      mul\n      0x20\n      add\n      mload(0x40)\n      swap1\n      dup2\n      add\n      0x40\n      mstore\n      dup1\n      swap3\n      swap2\n      swap1\n      dup2\n      dup2\n      mstore\n      0x20\n      add\n      dup3\n      dup1\n      sload\n      tag_197\n      swap1\n      tag_54\n      jump\t// in\n    tag_197:\n      dup1\n      iszero\n      tag_198\n      jumpi\n      dup1\n      0x1f\n      lt\n      tag_199\n      jumpi\n      0x0100\n      dup1\n      dup4\n      sload\n      div\n      mul\n      dup4\n      mstore\n      swap2\n      0x20\n      add\n      swap2\n      jump(tag_198)\n    tag_199:\n      dup3\n      add\n      swap2\n      swap1\n      0x00\n      mstore\n      keccak256(0x00, 0x20)\n      swap1\n    tag_200:\n      dup2\n      sload\n      dup2\n      mstore\n      swap1\n      0x01\n      add\n      swap1\n      0x20\n      add\n      dup1\n      dup4\n      gt\n      tag_200\n      jumpi\n      dup3\n      swap1\n      sub\n      0x1f\n      and\n      dup3\n      add\n      swap2\n    tag_198:\n      pop\n      pop\n      pop\n      pop\n      pop\n      dup2\n      mstore\n      0x20\n      add\n      0x01\n      dup3\n      add\n      dup1\n      sload\n      tag_201\n      swap1\n      tag_54\n      jump\t// in\n    tag_201:\n      dup1\n      0x1f\n      add\n      0x20\n      dup1\n      swap2\n      div\n      mul\n      0x20\n      add\n      mload(0x40)\n      swap1\n      dup2\n      add\n      0x40\n      mstore\n      dup1\n      swap3\n      swap2\n      swap1\n      dup2\n      dup2\n      mstore\n      0x20\n      add\n      dup3\n      dup1\n      sload\n      tag_202\n      swap1\n      tag_54\n      jump\t// in\n    tag_202:\n      dup1\n      iszero\n      tag_203\n      jumpi\n      dup1\n      0x1f\n      lt\n      tag_204\n      jumpi\n      0x0100\n      dup1\n      dup4\n      sload\n      div\n      mul\n      dup4\n      mstore\n      swap2\n      0x20\n      add\n      swap2\n      jump(tag_203)\n    tag_204:\n      dup3\n      add\n      swap2\n      swap1\n      0x00\n      mstore\n      keccak256(0x00, 0x20)\n      swap1\n    tag_205:\n      dup2\n      sload\n      dup2\n      mstore\n      swap1\n      0x01\n      add\n      swap1\n      0x20\n      add\n      dup1\n      dup4\n      gt\n      tag_205\n      jumpi\n      dup3\n      swap1\n      sub\n      0x1f\n      and\n      dup3\n      add\n      swap2\n    tag_203:\n      pop\n      pop\n      pop\n      pop\n      pop\n      dup2\n      mstore\n      0x20\n      add\n      0x02\n      dup3\n      add\n      dup1\n      sload\n      tag_206\n      swap1\n      tag_54\n      jump\t// in\n    tag_206:\n      dup1\n      0x1f\n      add\n      0x20\n      dup1\n      swap2\n      div\n      mul\n      0x20\n      add\n      mload(0x40)\n      swap1\n      dup2\n      add\n      0x40\n      mstore\n      dup1\n      swap3\n      swap2\n      swap1\n      dup2\n      dup2\n      mstore\n      0x20\n      add\n      dup3\n      dup1\n      sload\n      tag_207\n      swap1\n      tag_54\n      jump\t// in\n    tag_207:\n      dup1\n      iszero\n      tag_208\n      jumpi\n      dup1\n      0x1f\n      lt\n      tag_209\n      jumpi\n      0x0100\n      dup1\n      dup4\n      sload\n      div\n      mul\n      dup4\n      mstore\n      swap2\n      0x20\n      add\n      swap2\n      jump(tag_208)\n    tag_209:\n      dup3\n      add\n      swap2\n      swap1\n      0x00\n      mstore\n      keccak256(0x00, 0x20)\n      swap1\n    tag_210:\n      dup2\n      sload\n      dup2\n      mstore\n      swap1\n      0x01\n      add\n      swap1\n      0x20\n      add\n      dup1\n      dup4\n      gt\n      tag_210\n      jumpi\n      dup3\n      swap1\n      sub\n      0x1f\n      and\n      dup3\n      add\n      swap2\n    tag_208:\n      pop\n      pop\n      pop\n      pop\n      pop\n      dup2\n      mstore\n      0x20\n      add\n      0x03\n      dup3\n      add\n      dup1\n      sload\n      tag_211\n      swap1\n      tag_54\n      jump\t// in\n    tag_211:\n      dup1\n      0x1f\n      add\n      0x20\n      dup1\n      swap2\n      div\n      mul\n      0x20\n      add\n      mload(0x40)\n      swap1\n      dup2\n      add\n      0x40\n      mstore\n      dup1\n      swap3\n      swap2\n      swap1\n      dup2\n      dup2\n      mstore\n      0x20\n      add\n      dup3\n      dup1\n      sload\n      tag_212\n      swap1\n      tag_54\n      jump\t// in\n    tag_212:\n      dup1\n      iszero\n      tag_213\n      jumpi\n      dup1\n      0x1f\n      lt\n      tag_214\n      jumpi\n      0x0100\n      dup1\n      dup4\n      sload\n      div\n      mul\n      dup4\n      mstore\n      swap2\n      0x20\n      add\n      swap2\n      jump(tag_213)\n    tag_214:\n      dup3\n      add\n      swap2\n      swap1\n      0x00\n      mstore\n      keccak256(0x00, 0x20)\n      swap1\n    tag_215:\n      dup2\n      sload\n      dup2\n      mstore\n      swap1\n      0x01\n      add\n      swap1\n      0x20\n      add\n      dup1\n      dup4\n      gt\n      tag_215\n      jumpi\n      dup3\n      swap1\n      sub\n      0x1f\n      and\n      dup3\n      add\n      swap2\n    tag_213:\n      pop\n      pop\n      pop\n      pop\n      pop\n      dup2\n      mstore\n      0x20\n      add\n      0x04\n      dup3\n      add\n      dup1\n      sload\n      tag_216\n      swap1\n      tag_54\n      jump\t// in\n    tag_216:\n      dup1\n      0x1f\n      add\n      0x20\n      dup1\n      swap2\n      div\n      mul\n      0x20\n      add\n      mload(0x40)\n      swap1\n      dup2\n      add\n      0x40\n      mstore\n      dup1\n      swap3\n      swap2\n      swap1\n      dup2\n      dup2\n      mstore\n      0x20\n      add\n      dup3\n      dup1\n      sload\n      tag_217\n      swap1\n      tag_54\n      jump\t// in\n    tag_217:\n      dup1\n      iszero\n      tag_218\n      jumpi\n      dup1\n      0x1f\n      lt\n      tag_219\n      jumpi\n      0x0100\n      dup1\n      dup4\n      sload\n      div\n      mul\n      dup4\n      mstore\n      swap2\n      0x20\n      add\n      swap2\n      jump(tag_218)\n    tag_219:\n      dup3\n      add\n      swap2\n      swap1\n      0x00\n      mstore\n      keccak256(0x00, 0x20)\n      swap1\n    tag_220:\n      dup2\n      sload\n      dup2\n      mstore\n      swap1\n      0x01\n      add\n      swap1\n      0x20\n      add\n      dup1\n      dup4\n      gt\n      tag_220\n      jumpi\n      dup3\n      swap1\n      sub\n      0x1f\n      and\n      dup3\n      add\n      swap2\n    tag_218:\n      pop\n      pop\n      pop\n      pop\n      pop\n      dup2\n      mstore\n      0x20\n      add\n      0x05\n      dup3\n      add\n      dup1\n      sload\n      tag_221\n      swap1\n      tag_54\n      jump\t// in\n    tag_221:\n      dup1\n      0x1f\n      add\n      0x20\n      dup1\n      swap2\n      div\n      mul\n      0x20\n      add\n      mload(0x40)\n      swap1\n      dup2\n      add\n      0x40\n      mstore\n      dup1\n      swap3\n      swap2\n      swap1\n      dup2\n      dup2\n      mstore\n      0x20\n      add\n      dup3\n      dup1\n      sload\n      tag_222\n      swap1\n      tag_54\n      jump\t// in\n    tag_222:\n      dup1\n      iszero\n      tag_223\n      jumpi\n      dup1\n      0x1f\n      lt\n      tag_224\n      jumpi\n      0x0100\n      dup1\n      dup4\n      sload\n      div\n      mul\n      dup4\n      mstore\n      swap2\n      0x20\n      add\n      swap2\n      jump(tag_223)\n    tag_224:\n      dup3\n      add\n      swap2\n      swap1\n      0x00\n      mstore\n      keccak256(0x00, 0x20)\n      swap1\n    tag_225:\n      dup2\n      sload\n      dup2\n      mstore\n      swap1\n      0x01\n      add\n      swap1\n      0x20\n      add\n      dup1\n      dup4\n      gt\n      tag_225\n      jumpi\n      dup3\n      swap1\n      sub\n      0x1f\n      and\n      dup3\n      add\n      swap2\n    tag_223:\n      pop\n      pop\n      pop\n      pop\n      pop\n      dup2\n      mstore\n      0x20\n      add\n      0x06\n      dup3\n      add\n      sload\n      dup2\n      mstore\n      0x20\n      add\n      0x07\n      dup3\n      add\n      sload\n      dup2\n      mstore\n      0x20\n      add\n      0x08\n      dup3\n      add\n      dup1\n      sload\n      tag_226\n      swap1\n      tag_54\n      jump\t// in\n    tag_226:\n      dup1\n      0x1f\n      add\n      0x20\n      dup1\n      swap2\n      div\n      mul\n      0x20\n      add\n      mload(0x40)\n      swap1\n      dup2\n      add\n      0x40\n      mstore\n      dup1\n      swap3\n      swap2\n      swap1\n      dup2\n      dup2\n      mstore\n      0x20\n      add\n      dup3\n      dup1\n      sload\n      tag_227\n      swap1\n      tag_54\n      jump\t// in\n    tag_227:\n      dup1\n      iszero\n      tag_228\n      jumpi\n      dup1\n      0x1f\n      lt\n      tag_229\n      jumpi\n      0x0100\n      dup1\n      dup4\n      sload\n      div\n      mul\n      dup4\n      mstore\n      swap2\n      0x20\n      add\n      swap2\n      jump(tag_228)\n    tag_229:\n      dup3\n      add\n      swap2\n      swap1\n      0x00\n      mstore\n      keccak256(0x00, 0x20)\n      swap1\n    tag_230:\n      dup2\n      sload\n      dup2\n      mstore\n      swap1\n      0x01\n      add\n      swap1\n      0x20\n      add\n      dup1\n      dup4\n      gt\n      tag_230\n      jumpi\n      dup3\n      swap1\n      sub\n      0x1f\n      and\n      dup3\n      add\n      swap2\n    tag_228:\n      pop\n      pop\n      pop\n      pop\n      pop\n      dup2\n      mstore\n      0x20\n      add\n      0x09\n      dup3\n      add\n      sload\n      dup2\n      mstore\n      pop\n      pop\n        /* \"contracts/TransactionContract9Juni.sol\":4149:4155  result */\n      dup4\n        /* \"contracts/TransactionContract9Juni.sol\":4156:4161  index */\n      dup4\n        /* \"contracts/TransactionContract9Juni.sol\":4149:4162  result[index] */\n      dup2\n      mload\n      dup2\n      lt\n      tag_231\n      jumpi\n      tag_232\n      tag_102\n      jump\t// in\n    tag_232:\n    tag_231:\n      0x20\n      mul\n      0x20\n      add\n      add\n        /* \"contracts/TransactionContract9Juni.sol\":4149:4198  result[index] = transactions[transactionCodes[i]] */\n      dup2\n      swap1\n      mstore\n      pop\n        /* \"contracts/TransactionContract9Juni.sol\":4216:4223  index++ */\n      dup2\n      dup1\n      tag_233\n      swap1\n      tag_144\n      jump\t// in\n    tag_233:\n      swap3\n      pop\n      pop\n        /* \"contracts/TransactionContract9Juni.sol\":3974:4238  if (... */\n    tag_191:\n        /* \"contracts/TransactionContract9Juni.sol\":3955:3958  i++ */\n      dup1\n      dup1\n      tag_234\n      swap1\n      tag_144\n      jump\t// in\n    tag_234:\n      swap2\n      pop\n      pop\n        /* \"contracts/TransactionContract9Juni.sol\":3909:4248  for (uint i = 0; i < transactionCodes.length; i++) {... */\n      jump(tag_182)\n    tag_183:\n      pop\n        /* \"contracts/TransactionContract9Juni.sol\":4264:4270  result */\n      dup2\n        /* \"contracts/TransactionContract9Juni.sol\":4257:4270  return result */\n      swap4\n      pop\n      pop\n      pop\n      pop\n        /* \"contracts/TransactionContract9Juni.sol\":3382:4277  function getTransactionByFromToUserId(... */\n      swap2\n      swap1\n      pop\n      jump\t// out\n        /* \"contracts/TransactionContract9Juni.sol\":1080:2188  function addTransaction(... */\n    tag_40:\n        /* \"contracts/TransactionContract9Juni.sol\":1499:1783  Transaction(... */\n      mload(0x40)\n      dup1\n      0x0140\n      add\n      0x40\n      mstore\n      dup1\n        /* \"contracts/TransactionContract9Juni.sol\":1524:1540  _transactionCode */\n      dup12\n        /* \"contracts/TransactionContract9Juni.sol\":1499:1783  Transaction(... */\n      dup2\n      mstore\n      0x20\n      add\n        /* \"contracts/TransactionContract9Juni.sol\":1554:1565  _campaignId */\n      dup11\n        /* \"contracts/TransactionContract9Juni.sol\":1499:1783  Transaction(... */\n      dup2\n      mstore\n      0x20\n      add\n        /* \"contracts/TransactionContract9Juni.sol\":1579:1592  _fromToUserId */\n      dup10\n        /* \"contracts/TransactionContract9Juni.sol\":1499:1783  Transaction(... */\n      dup2\n      mstore\n      0x20\n      add\n        /* \"contracts/TransactionContract9Juni.sol\":1606:1616  _orderType */\n      dup9\n        /* \"contracts/TransactionContract9Juni.sol\":1499:1783  Transaction(... */\n      dup2\n      mstore\n      0x20\n      add\n        /* \"contracts/TransactionContract9Juni.sol\":1630:1644  _paymentStatus */\n      dup8\n        /* \"contracts/TransactionContract9Juni.sol\":1499:1783  Transaction(... */\n      dup2\n      mstore\n      0x20\n      add\n        /* \"contracts/TransactionContract9Juni.sol\":1658:1665  _status */\n      dup7\n        /* \"contracts/TransactionContract9Juni.sol\":1499:1783  Transaction(... */\n      dup2\n      mstore\n      0x20\n      add\n        /* \"contracts/TransactionContract9Juni.sol\":1679:1688  _quantity */\n      dup6\n        /* \"contracts/TransactionContract9Juni.sol\":1499:1783  Transaction(... */\n      dup2\n      mstore\n      0x20\n      add\n        /* \"contracts/TransactionContract9Juni.sol\":1702:1713  _totalPrice */\n      dup5\n        /* \"contracts/TransactionContract9Juni.sol\":1499:1783  Transaction(... */\n      dup2\n      mstore\n      0x20\n      add\n        /* \"contracts/TransactionContract9Juni.sol\":1727:1749  _paymentMethodDetailId */\n      dup4\n        /* \"contracts/TransactionContract9Juni.sol\":1499:1783  Transaction(... */\n      dup2\n      mstore\n      0x20\n      add\n        /* \"contracts/TransactionContract9Juni.sol\":1763:1773  _createdAt */\n      dup3\n        /* \"contracts/TransactionContract9Juni.sol\":1499:1783  Transaction(... */\n      dup2\n      mstore\n      pop\n        /* \"contracts/TransactionContract9Juni.sol\":1466:1478  transactions */\n      0x00\n        /* \"contracts/TransactionContract9Juni.sol\":1479:1495  _transactionCode */\n      dup12\n        /* \"contracts/TransactionContract9Juni.sol\":1466:1496  transactions[_transactionCode] */\n      mload(0x40)\n      tag_236\n      swap2\n      swap1\n      tag_147\n      jump\t// in\n    tag_236:\n      swap1\n      dup2\n      mstore\n      0x20\n      add\n      mload(0x40)\n      dup1\n      swap2\n      sub\n      swap1\n      keccak256\n        /* \"contracts/TransactionContract9Juni.sol\":1466:1783  transactions[_transactionCode] = Transaction(... */\n      0x00\n      dup3\n      add\n      mload\n      dup2\n      0x00\n      add\n      swap1\n      dup2\n      tag_237\n      swap2\n      swap1\n      tag_154\n      jump\t// in\n    tag_237:\n      pop\n      0x20\n      dup3\n      add\n      mload\n      dup2\n      0x01\n      add\n      swap1\n      dup2\n      tag_238\n      swap2\n      swap1\n      tag_154\n      jump\t// in\n    tag_238:\n      pop\n      0x40\n      dup3\n      add\n      mload\n      dup2\n      0x02\n      add\n      swap1\n      dup2\n      tag_239\n      swap2\n      swap1\n      tag_154\n      jump\t// in\n    tag_239:\n      pop\n      0x60\n      dup3\n      add\n      mload\n      dup2\n      0x03\n      add\n      swap1\n      dup2\n      tag_240\n      swap2\n      swap1\n      tag_154\n      jump\t// in\n    tag_240:\n      pop\n      0x80\n      dup3\n      add\n      mload\n      dup2\n      0x04\n      add\n      swap1\n      dup2\n      tag_241\n      swap2\n      swap1\n      tag_154\n      jump\t// in\n    tag_241:\n      pop\n      0xa0\n      dup3\n      add\n      mload\n      dup2\n      0x05\n      add\n      swap1\n      dup2\n      tag_242\n      swap2\n      swap1\n      tag_154\n      jump\t// in\n    tag_242:\n      pop\n      0xc0\n      dup3\n      add\n      mload\n      dup2\n      0x06\n      add\n      sstore\n      0xe0\n      dup3\n      add\n      mload\n      dup2\n      0x07\n      add\n      sstore\n      0x0100\n      dup3\n      add\n      mload\n      dup2\n      0x08\n      add\n      swap1\n      dup2\n      tag_243\n      swap2\n      swap1\n      tag_154\n      jump\t// in\n    tag_243:\n      pop\n      0x0120\n      dup3\n      add\n      mload\n      dup2\n      0x09\n      add\n      sstore\n      swap1\n      pop\n      pop\n        /* \"contracts/TransactionContract9Juni.sol\":1794:1810  transactionCodes */\n      0x01\n        /* \"contracts/TransactionContract9Juni.sol\":1816:1832  _transactionCode */\n      dup11\n        /* \"contracts/TransactionContract9Juni.sol\":1794:1833  transactionCodes.push(_transactionCode) */\n      swap1\n      dup1\n      0x01\n      dup2\n      sload\n      add\n      dup1\n      dup3\n      sstore\n      dup1\n      swap2\n      pop\n      pop\n      0x01\n      swap1\n      sub\n      swap1\n      0x00\n      mstore\n      keccak256(0x00, 0x20)\n      add\n      0x00\n      swap1\n      swap2\n      swap1\n      swap2\n      swap1\n      swap2\n      pop\n      swap1\n      dup2\n      tag_245\n      swap2\n      swap1\n      tag_154\n      jump\t// in\n    tag_245:\n      pop\n        /* \"contracts/TransactionContract9Juni.sol\":1892:2181  TransactionAdded(... */\n      0x86b635665185c0479e14de4802087c1ead14a87167c270c210630b0b3d91fd22\n        /* \"contracts/TransactionContract9Juni.sol\":1922:1938  _transactionCode */\n      dup11\n        /* \"contracts/TransactionContract9Juni.sol\":1952:1963  _campaignId */\n      dup11\n        /* \"contracts/TransactionContract9Juni.sol\":1977:1990  _fromToUserId */\n      dup11\n        /* \"contracts/TransactionContract9Juni.sol\":2004:2014  _orderType */\n      dup11\n        /* \"contracts/TransactionContract9Juni.sol\":2028:2042  _paymentStatus */\n      dup11\n        /* \"contracts/TransactionContract9Juni.sol\":2056:2063  _status */\n      dup11\n        /* \"contracts/TransactionContract9Juni.sol\":2077:2086  _quantity */\n      dup11\n        /* \"contracts/TransactionContract9Juni.sol\":2100:2111  _totalPrice */\n      dup11\n        /* \"contracts/TransactionContract9Juni.sol\":2125:2147  _paymentMethodDetailId */\n      dup11\n        /* \"contracts/TransactionContract9Juni.sol\":2161:2171  _createdAt */\n      dup11\n        /* \"contracts/TransactionContract9Juni.sol\":1892:2181  TransactionAdded(... */\n      mload(0x40)\n      tag_246\n      swap11\n      swap10\n      swap9\n      swap8\n      swap7\n      swap6\n      swap5\n      swap4\n      swap3\n      swap2\n      swap1\n      tag_18\n      jump\t// in\n    tag_246:\n      mload(0x40)\n      dup1\n      swap2\n      sub\n      swap1\n      log1\n        /* \"contracts/TransactionContract9Juni.sol\":1080:2188  function addTransaction(... */\n      pop\n      pop\n      pop\n      pop\n      pop\n      pop\n      pop\n      pop\n      pop\n      pop\n      jump\t// out\n        /* \"contracts/TransactionContract9Juni.sol\":4608:5491  function getTransactionByCampaignId(... */\n    tag_43:\n        /* \"contracts/TransactionContract9Juni.sol\":4706:4726  Transaction[] memory */\n      0x60\n        /* \"contracts/TransactionContract9Juni.sol\":4738:4748  uint count */\n      0x00\n        /* \"contracts/TransactionContract9Juni.sol\":4767:4773  uint i */\n      dup1\n        /* \"contracts/TransactionContract9Juni.sol\":4762:5030  for (uint i = 0; i < transactionCodes.length; i++) {... */\n    tag_248:\n        /* \"contracts/TransactionContract9Juni.sol\":4783:4799  transactionCodes */\n      0x01\n        /* \"contracts/TransactionContract9Juni.sol\":4783:4806  transactionCodes.length */\n      dup1\n      sload\n      swap1\n      pop\n        /* \"contracts/TransactionContract9Juni.sol\":4779:4780  i */\n      dup2\n        /* \"contracts/TransactionContract9Juni.sol\":4779:4806  i < transactionCodes.length */\n      lt\n        /* \"contracts/TransactionContract9Juni.sol\":4762:5030  for (uint i = 0; i < transactionCodes.length; i++) {... */\n      iszero\n      tag_249\n      jumpi\n        /* \"contracts/TransactionContract9Juni.sol\":4952:4963  _campaignId */\n      dup4\n        /* \"contracts/TransactionContract9Juni.sol\":4935:4964  abi.encodePacked(_campaignId) */\n      add(0x20, mload(0x40))\n      tag_251\n      swap2\n      swap1\n      tag_147\n      jump\t// in\n    tag_251:\n      mload(0x40)\n      0x20\n      dup2\n      dup4\n      sub\n      sub\n      dup2\n      mstore\n      swap1\n      0x40\n      mstore\n        /* \"contracts/TransactionContract9Juni.sol\":4925:4965  keccak256(abi.encodePacked(_campaignId)) */\n      dup1\n      mload\n      swap1\n      0x20\n      add\n      keccak256\n        /* \"contracts/TransactionContract9Juni.sol\":4875:4887  transactions */\n      0x00\n        /* \"contracts/TransactionContract9Juni.sol\":4888:4904  transactionCodes */\n      0x01\n        /* \"contracts/TransactionContract9Juni.sol\":4905:4906  i */\n      dup4\n        /* \"contracts/TransactionContract9Juni.sol\":4888:4907  transactionCodes[i] */\n      dup2\n      sload\n      dup2\n      lt\n      tag_252\n      jumpi\n      tag_253\n      tag_102\n      jump\t// in\n    tag_253:\n    tag_252:\n      swap1\n      0x00\n      mstore\n      keccak256(0x00, 0x20)\n      add\n        /* \"contracts/TransactionContract9Juni.sol\":4875:4908  transactions[transactionCodes[i]] */\n      mload(0x40)\n      tag_255\n      swap2\n      swap1\n      tag_105\n      jump\t// in\n    tag_255:\n      swap1\n      dup2\n      mstore\n      0x20\n      add\n      mload(0x40)\n      dup1\n      swap2\n      sub\n      swap1\n      keccak256\n        /* \"contracts/TransactionContract9Juni.sol\":4875:4919  transactions[transactionCodes[i]].campaignId */\n      0x01\n      add\n        /* \"contracts/TransactionContract9Juni.sol\":4858:4920  abi.encodePacked(transactions[transactionCodes[i]].campaignId) */\n      add(0x20, mload(0x40))\n      tag_256\n      swap2\n      swap1\n      tag_105\n      jump\t// in\n    tag_256:\n      mload(0x40)\n      0x20\n      dup2\n      dup4\n      sub\n      sub\n      dup2\n      mstore\n      swap1\n      0x40\n      mstore\n        /* \"contracts/TransactionContract9Juni.sol\":4848:4921  keccak256(abi.encodePacked(transactions[transactionCodes[i]].campaignId)) */\n      dup1\n      mload\n      swap1\n      0x20\n      add\n      keccak256\n        /* \"contracts/TransactionContract9Juni.sol\":4848:4965  keccak256(abi.encodePacked(transactions[transactionCodes[i]].campaignId)) == keccak256(abi.encodePacked(_campaignId)) */\n      sub\n        /* \"contracts/TransactionContract9Juni.sol\":4827:5020  if (... */\n      tag_257\n      jumpi\n        /* \"contracts/TransactionContract9Juni.sol\":4998:5005  count++ */\n      dup2\n      dup1\n      tag_258\n      swap1\n      tag_144\n      jump\t// in\n    tag_258:\n      swap3\n      pop\n      pop\n        /* \"contracts/TransactionContract9Juni.sol\":4827:5020  if (... */\n    tag_257:\n        /* \"contracts/TransactionContract9Juni.sol\":4808:4811  i++ */\n      dup1\n      dup1\n      tag_259\n      swap1\n      tag_144\n      jump\t// in\n    tag_259:\n      swap2\n      pop\n      pop\n        /* \"contracts/TransactionContract9Juni.sol\":4762:5030  for (uint i = 0; i < transactionCodes.length; i++) {... */\n      jump(tag_248)\n    tag_249:\n      pop\n        /* \"contracts/TransactionContract9Juni.sol\":5039:5066  Transaction[] memory result */\n      0x00\n        /* \"contracts/TransactionContract9Juni.sol\":5087:5092  count */\n      dup2\n        /* \"contracts/TransactionContract9Juni.sol\":5069:5093  new Transaction[](count) */\n      0xffffffffffffffff\n      dup2\n      gt\n      iszero\n      tag_260\n      jumpi\n      tag_261\n      tag_92\n      jump\t// in\n    tag_261:\n    tag_260:\n      mload(0x40)\n      swap1\n      dup1\n      dup3\n      mstore\n      dup1\n      0x20\n      mul\n      0x20\n      add\n      dup3\n      add\n      0x40\n      mstore\n      dup1\n      iszero\n      tag_262\n      jumpi\n      dup2\n      0x20\n      add\n    tag_263:\n      tag_264\n      tag_96\n      jump\t// in\n    tag_264:\n      dup2\n      mstore\n      0x20\n      add\n      swap1\n      0x01\n      swap1\n      sub\n      swap1\n      dup2\n      tag_263\n      jumpi\n      swap1\n      pop\n    tag_262:\n      pop\n        /* \"contracts/TransactionContract9Juni.sol\":5039:5093  Transaction[] memory result = new Transaction[](count) */\n      swap1\n      pop\n        /* \"contracts/TransactionContract9Juni.sol\":5103:5113  uint index */\n      0x00\n        /* \"contracts/TransactionContract9Juni.sol\":5132:5138  uint i */\n      dup1\n        /* \"contracts/TransactionContract9Juni.sol\":5127:5462  for (uint i = 0; i < transactionCodes.length; i++) {... */\n    tag_265:\n        /* \"contracts/TransactionContract9Juni.sol\":5148:5164  transactionCodes */\n      0x01\n        /* \"contracts/TransactionContract9Juni.sol\":5148:5171  transactionCodes.length */\n      dup1\n      sload\n      swap1\n      pop\n        /* \"contracts/TransactionContract9Juni.sol\":5144:5145  i */\n      dup2\n        /* \"contracts/TransactionContract9Juni.sol\":5144:5171  i < transactionCodes.length */\n      lt\n        /* \"contracts/TransactionContract9Juni.sol\":5127:5462  for (uint i = 0; i < transactionCodes.length; i++) {... */\n      iszero\n      tag_266\n      jumpi\n        /* \"contracts/TransactionContract9Juni.sol\":5317:5328  _campaignId */\n      dup6\n        /* \"contracts/TransactionContract9Juni.sol\":5300:5329  abi.encodePacked(_campaignId) */\n      add(0x20, mload(0x40))\n      tag_268\n      swap2\n      swap1\n      tag_147\n      jump\t// in\n    tag_268:\n      mload(0x40)\n      0x20\n      dup2\n      dup4\n      sub\n      sub\n      dup2\n      mstore\n      swap1\n      0x40\n      mstore\n        /* \"contracts/TransactionContract9Juni.sol\":5290:5330  keccak256(abi.encodePacked(_campaignId)) */\n      dup1\n      mload\n      swap1\n      0x20\n      add\n      keccak256\n        /* \"contracts/TransactionContract9Juni.sol\":5240:5252  transactions */\n      0x00\n        /* \"contracts/TransactionContract9Juni.sol\":5253:5269  transactionCodes */\n      0x01\n        /* \"contracts/TransactionContract9Juni.sol\":5270:5271  i */\n      dup4\n        /* \"contracts/TransactionContract9Juni.sol\":5253:5272  transactionCodes[i] */\n      dup2\n      sload\n      dup2\n      lt\n      tag_269\n      jumpi\n      tag_270\n      tag_102\n      jump\t// in\n    tag_270:\n    tag_269:\n      swap1\n      0x00\n      mstore\n      keccak256(0x00, 0x20)\n      add\n        /* \"contracts/TransactionContract9Juni.sol\":5240:5273  transactions[transactionCodes[i]] */\n      mload(0x40)\n      tag_272\n      swap2\n      swap1\n      tag_105\n      jump\t// in\n    tag_272:\n      swap1\n      dup2\n      mstore\n      0x20\n      add\n      mload(0x40)\n      dup1\n      swap2\n      sub\n      swap1\n      keccak256\n        /* \"contracts/TransactionContract9Juni.sol\":5240:5284  transactions[transactionCodes[i]].campaignId */\n      0x01\n      add\n        /* \"contracts/TransactionContract9Juni.sol\":5223:5285  abi.encodePacked(transactions[transactionCodes[i]].campaignId) */\n      add(0x20, mload(0x40))\n      tag_273\n      swap2\n      swap1\n      tag_105\n      jump\t// in\n    tag_273:\n      mload(0x40)\n      0x20\n      dup2\n      dup4\n      sub\n      sub\n      dup2\n      mstore\n      swap1\n      0x40\n      mstore\n        /* \"contracts/TransactionContract9Juni.sol\":5213:5286  keccak256(abi.encodePacked(transactions[transactionCodes[i]].campaignId)) */\n      dup1\n      mload\n      swap1\n      0x20\n      add\n      keccak256\n        /* \"contracts/TransactionContract9Juni.sol\":5213:5330  keccak256(abi.encodePacked(transactions[transactionCodes[i]].campaignId)) == keccak256(abi.encodePacked(_campaignId)) */\n      sub\n        /* \"contracts/TransactionContract9Juni.sol\":5192:5452  if (... */\n      tag_274\n      jumpi\n        /* \"contracts/TransactionContract9Juni.sol\":5379:5391  transactions */\n      0x00\n        /* \"contracts/TransactionContract9Juni.sol\":5392:5408  transactionCodes */\n      0x01\n        /* \"contracts/TransactionContract9Juni.sol\":5409:5410  i */\n      dup3\n        /* \"contracts/TransactionContract9Juni.sol\":5392:5411  transactionCodes[i] */\n      dup2\n      sload\n      dup2\n      lt\n      tag_275\n      jumpi\n      tag_276\n      tag_102\n      jump\t// in\n    tag_276:\n    tag_275:\n      swap1\n      0x00\n      mstore\n      keccak256(0x00, 0x20)\n      add\n        /* \"contracts/TransactionContract9Juni.sol\":5379:5412  transactions[transactionCodes[i]] */\n      mload(0x40)\n      tag_278\n      swap2\n      swap1\n      tag_105\n      jump\t// in\n    tag_278:\n      swap1\n      dup2\n      mstore\n      0x20\n      add\n      mload(0x40)\n      dup1\n      swap2\n      sub\n      swap1\n      keccak256\n        /* \"contracts/TransactionContract9Juni.sol\":5363:5412  result[index] = transactions[transactionCodes[i]] */\n      mload(0x40)\n      dup1\n      0x0140\n      add\n      0x40\n      mstore\n      swap1\n      dup2\n      0x00\n      dup3\n      add\n      dup1\n      sload\n      tag_279\n      swap1\n      tag_54\n      jump\t// in\n    tag_279:\n      dup1\n      0x1f\n      add\n      0x20\n      dup1\n      swap2\n      div\n      mul\n      0x20\n      add\n      mload(0x40)\n      swap1\n      dup2\n      add\n      0x40\n      mstore\n      dup1\n      swap3\n      swap2\n      swap1\n      dup2\n      dup2\n      mstore\n      0x20\n      add\n      dup3\n      dup1\n      sload\n      tag_280\n      swap1\n      tag_54\n      jump\t// in\n    tag_280:\n      dup1\n      iszero\n      tag_281\n      jumpi\n      dup1\n      0x1f\n      lt\n      tag_282\n      jumpi\n      0x0100\n      dup1\n      dup4\n      sload\n      div\n      mul\n      dup4\n      mstore\n      swap2\n      0x20\n      add\n      swap2\n      jump(tag_281)\n    tag_282:\n      dup3\n      add\n      swap2\n      swap1\n      0x00\n      mstore\n      keccak256(0x00, 0x20)\n      swap1\n    tag_283:\n      dup2\n      sload\n      dup2\n      mstore\n      swap1\n      0x01\n      add\n      swap1\n      0x20\n      add\n      dup1\n      dup4\n      gt\n      tag_283\n      jumpi\n      dup3\n      swap1\n      sub\n      0x1f\n      and\n      dup3\n      add\n      swap2\n    tag_281:\n      pop\n      pop\n      pop\n      pop\n      pop\n      dup2\n      mstore\n      0x20\n      add\n      0x01\n      dup3\n      add\n      dup1\n      sload\n      tag_284\n      swap1\n      tag_54\n      jump\t// in\n    tag_284:\n      dup1\n      0x1f\n      add\n      0x20\n      dup1\n      swap2\n      div\n      mul\n      0x20\n      add\n      mload(0x40)\n      swap1\n      dup2\n      add\n      0x40\n      mstore\n      dup1\n      swap3\n      swap2\n      swap1\n      dup2\n      dup2\n      mstore\n      0x20\n      add\n      dup3\n      dup1\n      sload\n      tag_285\n      swap1\n      tag_54\n      jump\t// in\n    tag_285:\n      dup1\n      iszero\n      tag_286\n      jumpi\n      dup1\n      0x1f\n      lt\n      tag_287\n      jumpi\n      0x0100\n      dup1\n      dup4\n      sload\n      div\n      mul\n      dup4\n      mstore\n      swap2\n      0x20\n      add\n      swap2\n      jump(tag_286)\n    tag_287:\n      dup3\n      add\n      swap2\n      swap1\n      0x00\n      mstore\n      keccak256(0x00, 0x20)\n      swap1\n    tag_288:\n      dup2\n      sload\n      dup2\n      mstore\n      swap1\n      0x01\n      add\n      swap1\n      0x20\n      add\n      dup1\n      dup4\n      gt\n      tag_288\n      jumpi\n      dup3\n      swap1\n      sub\n      0x1f\n      and\n      dup3\n      add\n      swap2\n    tag_286:\n      pop\n      pop\n      pop\n      pop\n      pop\n      dup2\n      mstore\n      0x20\n      add\n      0x02\n      dup3\n      add\n      dup1\n      sload\n      tag_289\n      swap1\n      tag_54\n      jump\t// in\n    tag_289:\n      dup1\n      0x1f\n      add\n      0x20\n      dup1\n      swap2\n      div\n      mul\n      0x20\n      add\n      mload(0x40)\n      swap1\n      dup2\n      add\n      0x40\n      mstore\n      dup1\n      swap3\n      swap2\n      swap1\n      dup2\n      dup2\n      mstore\n      0x20\n      add\n      dup3\n      dup1\n      sload\n      tag_290\n      swap1\n      tag_54\n      jump\t// in\n    tag_290:\n      dup1\n      iszero\n      tag_291\n      jumpi\n      dup1\n      0x1f\n      lt\n      tag_292\n      jumpi\n      0x0100\n      dup1\n      dup4\n      sload\n      div\n      mul\n      dup4\n      mstore\n      swap2\n      0x20\n      add\n      swap2\n      jump(tag_291)\n    tag_292:\n      dup3\n      add\n      swap2\n      swap1\n      0x00\n      mstore\n      keccak256(0x00, 0x20)\n      swap1\n    tag_293:\n      dup2\n      sload\n      dup2\n      mstore\n      swap1\n      0x01\n      add\n      swap1\n      0x20\n      add\n      dup1\n      dup4\n      gt\n      tag_293\n      jumpi\n      dup3\n      swap1\n      sub\n      0x1f\n      and\n      dup3\n      add\n      swap2\n    tag_291:\n      pop\n      pop\n      pop\n      pop\n      pop\n      dup2\n      mstore\n      0x20\n      add\n      0x03\n      dup3\n      add\n      dup1\n      sload\n      tag_294\n      swap1\n      tag_54\n      jump\t// in\n    tag_294:\n      dup1\n      0x1f\n      add\n      0x20\n      dup1\n      swap2\n      div\n      mul\n      0x20\n      add\n      mload(0x40)\n      swap1\n      dup2\n      add\n      0x40\n      mstore\n      dup1\n      swap3\n      swap2\n      swap1\n      dup2\n      dup2\n      mstore\n      0x20\n      add\n      dup3\n      dup1\n      sload\n      tag_295\n      swap1\n      tag_54\n      jump\t// in\n    tag_295:\n      dup1\n      iszero\n      tag_296\n      jumpi\n      dup1\n      0x1f\n      lt\n      tag_297\n      jumpi\n      0x0100\n      dup1\n      dup4\n      sload\n      div\n      mul\n      dup4\n      mstore\n      swap2\n      0x20\n      add\n      swap2\n      jump(tag_296)\n    tag_297:\n      dup3\n      add\n      swap2\n      swap1\n      0x00\n      mstore\n      keccak256(0x00, 0x20)\n      swap1\n    tag_298:\n      dup2\n      sload\n      dup2\n      mstore\n      swap1\n      0x01\n      add\n      swap1\n      0x20\n      add\n      dup1\n      dup4\n      gt\n      tag_298\n      jumpi\n      dup3\n      swap1\n      sub\n      0x1f\n      and\n      dup3\n      add\n      swap2\n    tag_296:\n      pop\n      pop\n      pop\n      pop\n      pop\n      dup2\n      mstore\n      0x20\n      add\n      0x04\n      dup3\n      add\n      dup1\n      sload\n      tag_299\n      swap1\n      tag_54\n      jump\t// in\n    tag_299:\n      dup1\n      0x1f\n      add\n      0x20\n      dup1\n      swap2\n      div\n      mul\n      0x20\n      add\n      mload(0x40)\n      swap1\n      dup2\n      add\n      0x40\n      mstore\n      dup1\n      swap3\n      swap2\n      swap1\n      dup2\n      dup2\n      mstore\n      0x20\n      add\n      dup3\n      dup1\n      sload\n      tag_300\n      swap1\n      tag_54\n      jump\t// in\n    tag_300:\n      dup1\n      iszero\n      tag_301\n      jumpi\n      dup1\n      0x1f\n      lt\n      tag_302\n      jumpi\n      0x0100\n      dup1\n      dup4\n      sload\n      div\n      mul\n      dup4\n      mstore\n      swap2\n      0x20\n      add\n      swap2\n      jump(tag_301)\n    tag_302:\n      dup3\n      add\n      swap2\n      swap1\n      0x00\n      mstore\n      keccak256(0x00, 0x20)\n      swap1\n    tag_303:\n      dup2\n      sload\n      dup2\n      mstore\n      swap1\n      0x01\n      add\n      swap1\n      0x20\n      add\n      dup1\n      dup4\n      gt\n      tag_303\n      jumpi\n      dup3\n      swap1\n      sub\n      0x1f\n      and\n      dup3\n      add\n      swap2\n    tag_301:\n      pop\n      pop\n      pop\n      pop\n      pop\n      dup2\n      mstore\n      0x20\n      add\n      0x05\n      dup3\n      add\n      dup1\n      sload\n      tag_304\n      swap1\n      tag_54\n      jump\t// in\n    tag_304:\n      dup1\n      0x1f\n      add\n      0x20\n      dup1\n      swap2\n      div\n      mul\n      0x20\n      add\n      mload(0x40)\n      swap1\n      dup2\n      add\n      0x40\n      mstore\n      dup1\n      swap3\n      swap2\n      swap1\n      dup2\n      dup2\n      mstore\n      0x20\n      add\n      dup3\n      dup1\n      sload\n      tag_305\n      swap1\n      tag_54\n      jump\t// in\n    tag_305:\n      dup1\n      iszero\n      tag_306\n      jumpi\n      dup1\n      0x1f\n      lt\n      tag_307\n      jumpi\n      0x0100\n      dup1\n      dup4\n      sload\n      div\n      mul\n      dup4\n      mstore\n      swap2\n      0x20\n      add\n      swap2\n      jump(tag_306)\n    tag_307:\n      dup3\n      add\n      swap2\n      swap1\n      0x00\n      mstore\n      keccak256(0x00, 0x20)\n      swap1\n    tag_308:\n      dup2\n      sload\n      dup2\n      mstore\n      swap1\n      0x01\n      add\n      swap1\n      0x20\n      add\n      dup1\n      dup4\n      gt\n      tag_308\n      jumpi\n      dup3\n      swap1\n      sub\n      0x1f\n      and\n      dup3\n      add\n      swap2\n    tag_306:\n      pop\n      pop\n      pop\n      pop\n      pop\n      dup2\n      mstore\n      0x20\n      add\n      0x06\n      dup3\n      add\n      sload\n      dup2\n      mstore\n      0x20\n      add\n      0x07\n      dup3\n      add\n      sload\n      dup2\n      mstore\n      0x20\n      add\n      0x08\n      dup3\n      add\n      dup1\n      sload\n      tag_309\n      swap1\n      tag_54\n      jump\t// in\n    tag_309:\n      dup1\n      0x1f\n      add\n      0x20\n      dup1\n      swap2\n      div\n      mul\n      0x20\n      add\n      mload(0x40)\n      swap1\n      dup2\n      add\n      0x40\n      mstore\n      dup1\n      swap3\n      swap2\n      swap1\n      dup2\n      dup2\n      mstore\n      0x20\n      add\n      dup3\n      dup1\n      sload\n      tag_310\n      swap1\n      tag_54\n      jump\t// in\n    tag_310:\n      dup1\n      iszero\n      tag_311\n      jumpi\n      dup1\n      0x1f\n      lt\n      tag_312\n      jumpi\n      0x0100\n      dup1\n      dup4\n      sload\n      div\n      mul\n      dup4\n      mstore\n      swap2\n      0x20\n      add\n      swap2\n      jump(tag_311)\n    tag_312:\n      dup3\n      add\n      swap2\n      swap1\n      0x00\n      mstore\n      keccak256(0x00, 0x20)\n      swap1\n    tag_313:\n      dup2\n      sload\n      dup2\n      mstore\n      swap1\n      0x01\n      add\n      swap1\n      0x20\n      add\n      dup1\n      dup4\n      gt\n      tag_313\n      jumpi\n      dup3\n      swap1\n      sub\n      0x1f\n      and\n      dup3\n      add\n      swap2\n    tag_311:\n      pop\n      pop\n      pop\n      pop\n      pop\n      dup2\n      mstore\n      0x20\n      add\n      0x09\n      dup3\n      add\n      sload\n      dup2\n      mstore\n      pop\n      pop\n        /* \"contracts/TransactionContract9Juni.sol\":5363:5369  result */\n      dup4\n        /* \"contracts/TransactionContract9Juni.sol\":5370:5375  index */\n      dup4\n        /* \"contracts/TransactionContract9Juni.sol\":5363:5376  result[index] */\n      dup2\n      mload\n      dup2\n      lt\n      tag_314\n      jumpi\n      tag_315\n      tag_102\n      jump\t// in\n    tag_315:\n    tag_314:\n      0x20\n      mul\n      0x20\n      add\n      add\n        /* \"contracts/TransactionContract9Juni.sol\":5363:5412  result[index] = transactions[transactionCodes[i]] */\n      dup2\n      swap1\n      mstore\n      pop\n        /* \"contracts/TransactionContract9Juni.sol\":5430:5437  index++ */\n      dup2\n      dup1\n      tag_316\n      swap1\n      tag_144\n      jump\t// in\n    tag_316:\n      swap3\n      pop\n      pop\n        /* \"contracts/TransactionContract9Juni.sol\":5192:5452  if (... */\n    tag_274:\n        /* \"contracts/TransactionContract9Juni.sol\":5173:5176  i++ */\n      dup1\n      dup1\n      tag_317\n      swap1\n      tag_144\n      jump\t// in\n    tag_317:\n      swap2\n      pop\n      pop\n        /* \"contracts/TransactionContract9Juni.sol\":5127:5462  for (uint i = 0; i < transactionCodes.length; i++) {... */\n      jump(tag_265)\n    tag_266:\n      pop\n        /* \"contracts/TransactionContract9Juni.sol\":5478:5484  result */\n      dup2\n        /* \"contracts/TransactionContract9Juni.sol\":5471:5484  return result */\n      swap4\n      pop\n      pop\n      pop\n      pop\n        /* \"contracts/TransactionContract9Juni.sol\":4608:5491  function getTransactionByCampaignId(... */\n      swap2\n      swap1\n      pop\n      jump\t// out\n        /* \"contracts/TransactionContract9Juni.sol\":4283:4602  function getTransactionByCode(... */\n    tag_47:\n        /* \"contracts/TransactionContract9Juni.sol\":4380:4398  Transaction memory */\n      tag_318\n      tag_96\n      jump\t// in\n    tag_318:\n        /* \"contracts/TransactionContract9Juni.sol\":4495:4496  0 */\n      0x00\n        /* \"contracts/TransactionContract9Juni.sol\":4437:4449  transactions */\n      dup1\n        /* \"contracts/TransactionContract9Juni.sol\":4450:4466  _transactionCode */\n      dup4\n        /* \"contracts/TransactionContract9Juni.sol\":4437:4467  transactions[_transactionCode] */\n      mload(0x40)\n      tag_320\n      swap2\n      swap1\n      tag_147\n      jump\t// in\n    tag_320:\n      swap1\n      dup2\n      mstore\n      0x20\n      add\n      mload(0x40)\n      dup1\n      swap2\n      sub\n      swap1\n      keccak256\n        /* \"contracts/TransactionContract9Juni.sol\":4437:4483  transactions[_transactionCode].transactionCode */\n      0x00\n      add\n        /* \"contracts/TransactionContract9Juni.sol\":4431:4491  bytes(transactions[_transactionCode].transactionCode).length */\n      dup1\n      sload\n      tag_321\n      swap1\n      tag_54\n      jump\t// in\n    tag_321:\n      swap1\n      pop\n        /* \"contracts/TransactionContract9Juni.sol\":4431:4496  bytes(transactions[_transactionCode].transactionCode).length != 0 */\n      sub\n        /* \"contracts/TransactionContract9Juni.sol\":4410:4548  require(... */\n      tag_322\n      jumpi\n      mload(0x40)\n      0x08c379a000000000000000000000000000000000000000000000000000000000\n      dup2\n      mstore\n      0x04\n      add\n      tag_323\n      swap1\n      tag_151\n      jump\t// in\n    tag_323:\n      mload(0x40)\n      dup1\n      swap2\n      sub\n      swap1\n      revert\n    tag_322:\n        /* \"contracts/TransactionContract9Juni.sol\":4565:4577  transactions */\n      0x00\n        /* \"contracts/TransactionContract9Juni.sol\":4578:4594  _transactionCode */\n      dup3\n        /* \"contracts/TransactionContract9Juni.sol\":4565:4595  transactions[_transactionCode] */\n      mload(0x40)\n      tag_324\n      swap2\n      swap1\n      tag_147\n      jump\t// in\n    tag_324:\n      swap1\n      dup2\n      mstore\n      0x20\n      add\n      mload(0x40)\n      dup1\n      swap2\n      sub\n      swap1\n      keccak256\n        /* \"contracts/TransactionContract9Juni.sol\":4558:4595  return transactions[_transactionCode] */\n      mload(0x40)\n      dup1\n      0x0140\n      add\n      0x40\n      mstore\n      swap1\n      dup2\n      0x00\n      dup3\n      add\n      dup1\n      sload\n      tag_325\n      swap1\n      tag_54\n      jump\t// in\n    tag_325:\n      dup1\n      0x1f\n      add\n      0x20\n      dup1\n      swap2\n      div\n      mul\n      0x20\n      add\n      mload(0x40)\n      swap1\n      dup2\n      add\n      0x40\n      mstore\n      dup1\n      swap3\n      swap2\n      swap1\n      dup2\n      dup2\n      mstore\n      0x20\n      add\n      dup3\n      dup1\n      sload\n      tag_326\n      swap1\n      tag_54\n      jump\t// in\n    tag_326:\n      dup1\n      iszero\n      tag_327\n      jumpi\n      dup1\n      0x1f\n      lt\n      tag_328\n      jumpi\n      0x0100\n      dup1\n      dup4\n      sload\n      div\n      mul\n      dup4\n      mstore\n      swap2\n      0x20\n      add\n      swap2\n      jump(tag_327)\n    tag_328:\n      dup3\n      add\n      swap2\n      swap1\n      0x00\n      mstore\n      keccak256(0x00, 0x20)\n      swap1\n    tag_329:\n      dup2\n      sload\n      dup2\n      mstore\n      swap1\n      0x01\n      add\n      swap1\n      0x20\n      add\n      dup1\n      dup4\n      gt\n      tag_329\n      jumpi\n      dup3\n      swap1\n      sub\n      0x1f\n      and\n      dup3\n      add\n      swap2\n    tag_327:\n      pop\n      pop\n      pop\n      pop\n      pop\n      dup2\n      mstore\n      0x20\n      add\n      0x01\n      dup3\n      add\n      dup1\n      sload\n      tag_330\n      swap1\n      tag_54\n      jump\t// in\n    tag_330:\n      dup1\n      0x1f\n      add\n      0x20\n      dup1\n      swap2\n      div\n      mul\n      0x20\n      add\n      mload(0x40)\n      swap1\n      dup2\n      add\n      0x40\n      mstore\n      dup1\n      swap3\n      swap2\n      swap1\n      dup2\n      dup2\n      mstore\n      0x20\n      add\n      dup3\n      dup1\n      sload\n      tag_331\n      swap1\n      tag_54\n      jump\t// in\n    tag_331:\n      dup1\n      iszero\n      tag_332\n      jumpi\n      dup1\n      0x1f\n      lt\n      tag_333\n      jumpi\n      0x0100\n      dup1\n      dup4\n      sload\n      div\n      mul\n      dup4\n      mstore\n      swap2\n      0x20\n      add\n      swap2\n      jump(tag_332)\n    tag_333:\n      dup3\n      add\n      swap2\n      swap1\n      0x00\n      mstore\n      keccak256(0x00, 0x20)\n      swap1\n    tag_334:\n      dup2\n      sload\n      dup2\n      mstore\n      swap1\n      0x01\n      add\n      swap1\n      0x20\n      add\n      dup1\n      dup4\n      gt\n      tag_334\n      jumpi\n      dup3\n      swap1\n      sub\n      0x1f\n      and\n      dup3\n      add\n      swap2\n    tag_332:\n      pop\n      pop\n      pop\n      pop\n      pop\n      dup2\n      mstore\n      0x20\n      add\n      0x02\n      dup3\n      add\n      dup1\n      sload\n      tag_335\n      swap1\n      tag_54\n      jump\t// in\n    tag_335:\n      dup1\n      0x1f\n      add\n      0x20\n      dup1\n      swap2\n      div\n      mul\n      0x20\n      add\n      mload(0x40)\n      swap1\n      dup2\n      add\n      0x40\n      mstore\n      dup1\n      swap3\n      swap2\n      swap1\n      dup2\n      dup2\n      mstore\n      0x20\n      add\n      dup3\n      dup1\n      sload\n      tag_336\n      swap1\n      tag_54\n      jump\t// in\n    tag_336:\n      dup1\n      iszero\n      tag_337\n      jumpi\n      dup1\n      0x1f\n      lt\n      tag_338\n      jumpi\n      0x0100\n      dup1\n      dup4\n      sload\n      div\n      mul\n      dup4\n      mstore\n      swap2\n      0x20\n      add\n      swap2\n      jump(tag_337)\n    tag_338:\n      dup3\n      add\n      swap2\n      swap1\n      0x00\n      mstore\n      keccak256(0x00, 0x20)\n      swap1\n    tag_339:\n      dup2\n      sload\n      dup2\n      mstore\n      swap1\n      0x01\n      add\n      swap1\n      0x20\n      add\n      dup1\n      dup4\n      gt\n      tag_339\n      jumpi\n      dup3\n      swap1\n      sub\n      0x1f\n      and\n      dup3\n      add\n      swap2\n    tag_337:\n      pop\n      pop\n      pop\n      pop\n      pop\n      dup2\n      mstore\n      0x20\n      add\n      0x03\n      dup3\n      add\n      dup1\n      sload\n      tag_340\n      swap1\n      tag_54\n      jump\t// in\n    tag_340:\n      dup1\n      0x1f\n      add\n      0x20\n      dup1\n      swap2\n      div\n      mul\n      0x20\n      add\n      mload(0x40)\n      swap1\n      dup2\n      add\n      0x40\n      mstore\n      dup1\n      swap3\n      swap2\n      swap1\n      dup2\n      dup2\n      mstore\n      0x20\n      add\n      dup3\n      dup1\n      sload\n      tag_341\n      swap1\n      tag_54\n      jump\t// in\n    tag_341:\n      dup1\n      iszero\n      tag_342\n      jumpi\n      dup1\n      0x1f\n      lt\n      tag_343\n      jumpi\n      0x0100\n      dup1\n      dup4\n      sload\n      div\n      mul\n      dup4\n      mstore\n      swap2\n      0x20\n      add\n      swap2\n      jump(tag_342)\n    tag_343:\n      dup3\n      add\n      swap2\n      swap1\n      0x00\n      mstore\n      keccak256(0x00, 0x20)\n      swap1\n    tag_344:\n      dup2\n      sload\n      dup2\n      mstore\n      swap1\n      0x01\n      add\n      swap1\n      0x20\n      add\n      dup1\n      dup4\n      gt\n      tag_344\n      jumpi\n      dup3\n      swap1\n      sub\n      0x1f\n      and\n      dup3\n      add\n      swap2\n    tag_342:\n      pop\n      pop\n      pop\n      pop\n      pop\n      dup2\n      mstore\n      0x20\n      add\n      0x04\n      dup3\n      add\n      dup1\n      sload\n      tag_345\n      swap1\n      tag_54\n      jump\t// in\n    tag_345:\n      dup1\n      0x1f\n      add\n      0x20\n      dup1\n      swap2\n      div\n      mul\n      0x20\n      add\n      mload(0x40)\n      swap1\n      dup2\n      add\n      0x40\n      mstore\n      dup1\n      swap3\n      swap2\n      swap1\n      dup2\n      dup2\n      mstore\n      0x20\n      add\n      dup3\n      dup1\n      sload\n      tag_346\n      swap1\n      tag_54\n      jump\t// in\n    tag_346:\n      dup1\n      iszero\n      tag_347\n      jumpi\n      dup1\n      0x1f\n      lt\n      tag_348\n      jumpi\n      0x0100\n      dup1\n      dup4\n      sload\n      div\n      mul\n      dup4\n      mstore\n      swap2\n      0x20\n      add\n      swap2\n      jump(tag_347)\n    tag_348:\n      dup3\n      add\n      swap2\n      swap1\n      0x00\n      mstore\n      keccak256(0x00, 0x20)\n      swap1\n    tag_349:\n      dup2\n      sload\n      dup2\n      mstore\n      swap1\n      0x01\n      add\n      swap1\n      0x20\n      add\n      dup1\n      dup4\n      gt\n      tag_349\n      jumpi\n      dup3\n      swap1\n      sub\n      0x1f\n      and\n      dup3\n      add\n      swap2\n    tag_347:\n      pop\n      pop\n      pop\n      pop\n      pop\n      dup2\n      mstore\n      0x20\n      add\n      0x05\n      dup3\n      add\n      dup1\n      sload\n      tag_350\n      swap1\n      tag_54\n      jump\t// in\n    tag_350:\n      dup1\n      0x1f\n      add\n      0x20\n      dup1\n      swap2\n      div\n      mul\n      0x20\n      add\n      mload(0x40)\n      swap1\n      dup2\n      add\n      0x40\n      mstore\n      dup1\n      swap3\n      swap2\n      swap1\n      dup2\n      dup2\n      mstore\n      0x20\n      add\n      dup3\n      dup1\n      sload\n      tag_351\n      swap1\n      tag_54\n      jump\t// in\n    tag_351:\n      dup1\n      iszero\n      tag_352\n      jumpi\n      dup1\n      0x1f\n      lt\n      tag_353\n      jumpi\n      0x0100\n      dup1\n      dup4\n      sload\n      div\n      mul\n      dup4\n      mstore\n      swap2\n      0x20\n      add\n      swap2\n      jump(tag_352)\n    tag_353:\n      dup3\n      add\n      swap2\n      swap1\n      0x00\n      mstore\n      keccak256(0x00, 0x20)\n      swap1\n    tag_354:\n      dup2\n      sload\n      dup2\n      mstore\n      swap1\n      0x01\n      add\n      swap1\n      0x20\n      add\n      dup1\n      dup4\n      gt\n      tag_354\n      jumpi\n      dup3\n      swap1\n      sub\n      0x1f\n      and\n      dup3\n      add\n      swap2\n    tag_352:\n      pop\n      pop\n      pop\n      pop\n      pop\n      dup2\n      mstore\n      0x20\n      add\n      0x06\n      dup3\n      add\n      sload\n      dup2\n      mstore\n      0x20\n      add\n      0x07\n      dup3\n      add\n      sload\n      dup2\n      mstore\n      0x20\n      add\n      0x08\n      dup3\n      add\n      dup1\n      sload\n      tag_355\n      swap1\n      tag_54\n      jump\t// in\n    tag_355:\n      dup1\n      0x1f\n      add\n      0x20\n      dup1\n      swap2\n      div\n      mul\n      0x20\n      add\n      mload(0x40)\n      swap1\n      dup2\n      add\n      0x40\n      mstore\n      dup1\n      swap3\n      swap2\n      swap1\n      dup2\n      dup2\n      mstore\n      0x20\n      add\n      dup3\n      dup1\n      sload\n      tag_356\n      swap1\n      tag_54\n      jump\t// in\n    tag_356:\n      dup1\n      iszero\n      tag_357\n      jumpi\n      dup1\n      0x1f\n      lt\n      tag_358\n      jumpi\n      0x0100\n      dup1\n      dup4\n      sload\n      div\n      mul\n      dup4\n      mstore\n      swap2\n      0x20\n      add\n      swap2\n      jump(tag_357)\n    tag_358:\n      dup3\n      add\n      swap2\n      swap1\n      0x00\n      mstore\n      keccak256(0x00, 0x20)\n      swap1\n    tag_359:\n      dup2\n      sload\n      dup2\n      mstore\n      swap1\n      0x01\n      add\n      swap1\n      0x20\n      add\n      dup1\n      dup4\n      gt\n      tag_359\n      jumpi\n      dup3\n      swap1\n      sub\n      0x1f\n      and\n      dup3\n      add\n      swap2\n    tag_357:\n      pop\n      pop\n      pop\n      pop\n      pop\n      dup2\n      mstore\n      0x20\n      add\n      0x09\n      dup3\n      add\n      sload\n      dup2\n      mstore\n      pop\n      pop\n      swap1\n      pop\n        /* \"contracts/TransactionContract9Juni.sol\":4283:4602  function getTransactionByCode(... */\n      swap2\n      swap1\n      pop\n      jump\t// out\n        /* \"contracts/TransactionContract9Juni.sol\":2952:3376  function updatePaymentStatus(... */\n    tag_52:\n        /* \"contracts/TransactionContract9Juni.sol\":3170:3171  0 */\n      0x00\n        /* \"contracts/TransactionContract9Juni.sol\":3112:3124  transactions */\n      dup1\n        /* \"contracts/TransactionContract9Juni.sol\":3125:3141  _transactionCode */\n      dup4\n        /* \"contracts/TransactionContract9Juni.sol\":3112:3142  transactions[_transactionCode] */\n      mload(0x40)\n      tag_361\n      swap2\n      swap1\n      tag_147\n      jump\t// in\n    tag_361:\n      swap1\n      dup2\n      mstore\n      0x20\n      add\n      mload(0x40)\n      dup1\n      swap2\n      sub\n      swap1\n      keccak256\n        /* \"contracts/TransactionContract9Juni.sol\":3112:3158  transactions[_transactionCode].transactionCode */\n      0x00\n      add\n        /* \"contracts/TransactionContract9Juni.sol\":3106:3166  bytes(transactions[_transactionCode].transactionCode).length */\n      dup1\n      sload\n      tag_362\n      swap1\n      tag_54\n      jump\t// in\n    tag_362:\n      swap1\n      pop\n        /* \"contracts/TransactionContract9Juni.sol\":3106:3171  bytes(transactions[_transactionCode].transactionCode).length != 0 */\n      sub\n        /* \"contracts/TransactionContract9Juni.sol\":3085:3223  require(... */\n      tag_363\n      jumpi\n      mload(0x40)\n      0x08c379a000000000000000000000000000000000000000000000000000000000\n      dup2\n      mstore\n      0x04\n      add\n      tag_364\n      swap1\n      tag_151\n      jump\t// in\n    tag_364:\n      mload(0x40)\n      dup1\n      swap2\n      sub\n      swap1\n      revert\n    tag_363:\n        /* \"contracts/TransactionContract9Juni.sol\":3280:3297  _newPaymentStatus */\n      dup1\n        /* \"contracts/TransactionContract9Juni.sol\":3233:3245  transactions */\n      0x00\n        /* \"contracts/TransactionContract9Juni.sol\":3246:3262  _transactionCode */\n      dup4\n        /* \"contracts/TransactionContract9Juni.sol\":3233:3263  transactions[_transactionCode] */\n      mload(0x40)\n      tag_365\n      swap2\n      swap1\n      tag_147\n      jump\t// in\n    tag_365:\n      swap1\n      dup2\n      mstore\n      0x20\n      add\n      mload(0x40)\n      dup1\n      swap2\n      sub\n      swap1\n      keccak256\n        /* \"contracts/TransactionContract9Juni.sol\":3233:3277  transactions[_transactionCode].paymentStatus */\n      0x04\n      add\n        /* \"contracts/TransactionContract9Juni.sol\":3233:3297  transactions[_transactionCode].paymentStatus = _newPaymentStatus */\n      swap1\n      dup2\n      tag_366\n      swap2\n      swap1\n      tag_154\n      jump\t// in\n    tag_366:\n      pop\n        /* \"contracts/TransactionContract9Juni.sol\":3312:3369  PaymentStatusUpdated(_transactionCode, _newPaymentStatus) */\n      0xc61ffb03925558d248fba37b73270b12903d3f0ba5797af8b71a9f8bf0761a98\n        /* \"contracts/TransactionContract9Juni.sol\":3333:3349  _transactionCode */\n      dup3\n        /* \"contracts/TransactionContract9Juni.sol\":3351:3368  _newPaymentStatus */\n      dup3\n        /* \"contracts/TransactionContract9Juni.sol\":3312:3369  PaymentStatusUpdated(_transactionCode, _newPaymentStatus) */\n      mload(0x40)\n      tag_367\n      swap3\n      swap2\n      swap1\n      tag_156\n      jump\t// in\n    tag_367:\n      mload(0x40)\n      dup1\n      swap2\n      sub\n      swap1\n      log1\n        /* \"contracts/TransactionContract9Juni.sol\":2952:3376  function updatePaymentStatus(... */\n      pop\n      pop\n      jump\t// out\n    tag_96:\n      mload(0x40)\n      dup1\n      0x0140\n      add\n      0x40\n      mstore\n      dup1\n      0x60\n      dup2\n      mstore\n      0x20\n      add\n      0x60\n      dup2\n      mstore\n      0x20\n      add\n      0x60\n      dup2\n      mstore\n      0x20\n      add\n      0x60\n      dup2\n      mstore\n      0x20\n      add\n      0x60\n      dup2\n      mstore\n      0x20\n      add\n      0x60\n      dup2\n      mstore\n      0x20\n      add\n      0x00\n      dup2\n      mstore\n      0x20\n      add\n      0x00\n      dup2\n      mstore\n      0x20\n      add\n      0x60\n      dup2\n      mstore\n      0x20\n      add\n      0x00\n      dup2\n      mstore\n      pop\n      swap1\n      jump\t// out\n        /* \"#utility.yul\":7:82   */\n    tag_368:\n        /* \"#utility.yul\":40:46   */\n      0x00\n        /* \"#utility.yul\":73:75   */\n      0x40\n        /* \"#utility.yul\":67:76   */\n      mload\n        /* \"#utility.yul\":57:76   */\n      swap1\n      pop\n        /* \"#utility.yul\":7:82   */\n      swap1\n      jump\t// out\n        /* \"#utility.yul\":88:205   */\n    tag_369:\n        /* \"#utility.yul\":197:198   */\n      0x00\n        /* \"#utility.yul\":194:195   */\n      dup1\n        /* \"#utility.yul\":187:199   */\n      revert\n        /* \"#utility.yul\":211:328   */\n    tag_370:\n        /* \"#utility.yul\":320:321   */\n      0x00\n        /* \"#utility.yul\":317:318   */\n      dup1\n        /* \"#utility.yul\":310:322   */\n      revert\n        /* \"#utility.yul\":334:451   */\n    tag_371:\n        /* \"#utility.yul\":443:444   */\n      0x00\n        /* \"#utility.yul\":440:441   */\n      dup1\n        /* \"#utility.yul\":433:445   */\n      revert\n        /* \"#utility.yul\":457:574   */\n    tag_372:\n        /* \"#utility.yul\":566:567   */\n      0x00\n        /* \"#utility.yul\":563:564   */\n      dup1\n        /* \"#utility.yul\":556:568   */\n      revert\n        /* \"#utility.yul\":580:682   */\n    tag_373:\n        /* \"#utility.yul\":621:627   */\n      0x00\n        /* \"#utility.yul\":672:674   */\n      0x1f\n        /* \"#utility.yul\":668:675   */\n      not\n        /* \"#utility.yul\":663:665   */\n      0x1f\n        /* \"#utility.yul\":656:661   */\n      dup4\n        /* \"#utility.yul\":652:666   */\n      add\n        /* \"#utility.yul\":648:676   */\n      and\n        /* \"#utility.yul\":638:676   */\n      swap1\n      pop\n        /* \"#utility.yul\":580:682   */\n      swap2\n      swap1\n      pop\n      jump\t// out\n        /* \"#utility.yul\":688:868   */\n    tag_92:\n        /* \"#utility.yul\":736:813   */\n      0x4e487b7100000000000000000000000000000000000000000000000000000000\n        /* \"#utility.yul\":733:734   */\n      0x00\n        /* \"#utility.yul\":726:814   */\n      mstore\n        /* \"#utility.yul\":833:837   */\n      0x41\n        /* \"#utility.yul\":830:831   */\n      0x04\n        /* \"#utility.yul\":823:838   */\n      mstore\n        /* \"#utility.yul\":857:861   */\n      0x24\n        /* \"#utility.yul\":854:855   */\n      0x00\n        /* \"#utility.yul\":847:862   */\n      revert\n        /* \"#utility.yul\":874:1155   */\n    tag_374:\n        /* \"#utility.yul\":957:984   */\n      tag_430\n        /* \"#utility.yul\":979:983   */\n      dup3\n        /* \"#utility.yul\":957:984   */\n      tag_373\n      jump\t// in\n    tag_430:\n        /* \"#utility.yul\":949:955   */\n      dup2\n        /* \"#utility.yul\":945:985   */\n      add\n        /* \"#utility.yul\":1087:1093   */\n      dup2\n        /* \"#utility.yul\":1075:1085   */\n      dup2\n        /* \"#utility.yul\":1072:1094   */\n      lt\n        /* \"#utility.yul\":1051:1069   */\n      0xffffffffffffffff\n        /* \"#utility.yul\":1039:1049   */\n      dup3\n        /* \"#utility.yul\":1036:1070   */\n      gt\n        /* \"#utility.yul\":1033:1095   */\n      or\n        /* \"#utility.yul\":1030:1118   */\n      iszero\n      tag_431\n      jumpi\n        /* \"#utility.yul\":1098:1116   */\n      tag_432\n      tag_92\n      jump\t// in\n    tag_432:\n        /* \"#utility.yul\":1030:1118   */\n    tag_431:\n        /* \"#utility.yul\":1138:1148   */\n      dup1\n        /* \"#utility.yul\":1134:1136   */\n      0x40\n        /* \"#utility.yul\":1127:1149   */\n      mstore\n        /* \"#utility.yul\":917:1155   */\n      pop\n        /* \"#utility.yul\":874:1155   */\n      pop\n      pop\n      jump\t// out\n        /* \"#utility.yul\":1161:1290   */\n    tag_375:\n        /* \"#utility.yul\":1195:1201   */\n      0x00\n        /* \"#utility.yul\":1222:1242   */\n      tag_434\n      tag_368\n      jump\t// in\n    tag_434:\n        /* \"#utility.yul\":1212:1242   */\n      swap1\n      pop\n        /* \"#utility.yul\":1251:1284   */\n      tag_435\n        /* \"#utility.yul\":1279:1283   */\n      dup3\n        /* \"#utility.yul\":1271:1277   */\n      dup3\n        /* \"#utility.yul\":1251:1284   */\n      tag_374\n      jump\t// in\n    tag_435:\n        /* \"#utility.yul\":1161:1290   */\n      swap2\n      swap1\n      pop\n      jump\t// out\n        /* \"#utility.yul\":1296:1604   */\n    tag_376:\n        /* \"#utility.yul\":1358:1362   */\n      0x00\n        /* \"#utility.yul\":1448:1466   */\n      0xffffffffffffffff\n        /* \"#utility.yul\":1440:1446   */\n      dup3\n        /* \"#utility.yul\":1437:1467   */\n      gt\n        /* \"#utility.yul\":1434:1490   */\n      iszero\n      tag_437\n      jumpi\n        /* \"#utility.yul\":1470:1488   */\n      tag_438\n      tag_92\n      jump\t// in\n    tag_438:\n        /* \"#utility.yul\":1434:1490   */\n    tag_437:\n        /* \"#utility.yul\":1508:1537   */\n      tag_439\n        /* \"#utility.yul\":1530:1536   */\n      dup3\n        /* \"#utility.yul\":1508:1537   */\n      tag_373\n      jump\t// in\n    tag_439:\n        /* \"#utility.yul\":1500:1537   */\n      swap1\n      pop\n        /* \"#utility.yul\":1592:1596   */\n      0x20\n        /* \"#utility.yul\":1586:1590   */\n      dup2\n        /* \"#utility.yul\":1582:1597   */\n      add\n        /* \"#utility.yul\":1574:1597   */\n      swap1\n      pop\n        /* \"#utility.yul\":1296:1604   */\n      swap2\n      swap1\n      pop\n      jump\t// out\n        /* \"#utility.yul\":1610:1756   */\n    tag_377:\n        /* \"#utility.yul\":1707:1713   */\n      dup3\n        /* \"#utility.yul\":1702:1705   */\n      dup2\n        /* \"#utility.yul\":1697:1700   */\n      dup4\n        /* \"#utility.yul\":1684:1714   */\n      calldatacopy\n        /* \"#utility.yul\":1748:1749   */\n      0x00\n        /* \"#utility.yul\":1739:1745   */\n      dup4\n        /* \"#utility.yul\":1734:1737   */\n      dup4\n        /* \"#utility.yul\":1730:1746   */\n      add\n        /* \"#utility.yul\":1723:1750   */\n      mstore\n        /* \"#utility.yul\":1610:1756   */\n      pop\n      pop\n      pop\n      jump\t// out\n        /* \"#utility.yul\":1762:2187   */\n    tag_378:\n        /* \"#utility.yul\":1840:1845   */\n      0x00\n        /* \"#utility.yul\":1865:1931   */\n      tag_442\n        /* \"#utility.yul\":1881:1930   */\n      tag_443\n        /* \"#utility.yul\":1923:1929   */\n      dup5\n        /* \"#utility.yul\":1881:1930   */\n      tag_376\n      jump\t// in\n    tag_443:\n        /* \"#utility.yul\":1865:1931   */\n      tag_375\n      jump\t// in\n    tag_442:\n        /* \"#utility.yul\":1856:1931   */\n      swap1\n      pop\n        /* \"#utility.yul\":1954:1960   */\n      dup3\n        /* \"#utility.yul\":1947:1952   */\n      dup2\n        /* \"#utility.yul\":1940:1961   */\n      mstore\n        /* \"#utility.yul\":1992:1996   */\n      0x20\n        /* \"#utility.yul\":1985:1990   */\n      dup2\n        /* \"#utility.yul\":1981:1997   */\n      add\n        /* \"#utility.yul\":2030:2033   */\n      dup5\n        /* \"#utility.yul\":2021:2027   */\n      dup5\n        /* \"#utility.yul\":2016:2019   */\n      dup5\n        /* \"#utility.yul\":2012:2028   */\n      add\n        /* \"#utility.yul\":2009:2034   */\n      gt\n        /* \"#utility.yul\":2006:2118   */\n      iszero\n      tag_444\n      jumpi\n        /* \"#utility.yul\":2037:2116   */\n      tag_445\n      tag_372\n      jump\t// in\n    tag_445:\n        /* \"#utility.yul\":2006:2118   */\n    tag_444:\n        /* \"#utility.yul\":2127:2181   */\n      tag_446\n        /* \"#utility.yul\":2174:2180   */\n      dup5\n        /* \"#utility.yul\":2169:2172   */\n      dup3\n        /* \"#utility.yul\":2164:2167   */\n      dup6\n        /* \"#utility.yul\":2127:2181   */\n      tag_377\n      jump\t// in\n    tag_446:\n        /* \"#utility.yul\":1846:2187   */\n      pop\n        /* \"#utility.yul\":1762:2187   */\n      swap4\n      swap3\n      pop\n      pop\n      pop\n      jump\t// out\n        /* \"#utility.yul\":2207:2547   */\n    tag_379:\n        /* \"#utility.yul\":2263:2268   */\n      0x00\n        /* \"#utility.yul\":2312:2315   */\n      dup3\n        /* \"#utility.yul\":2305:2309   */\n      0x1f\n        /* \"#utility.yul\":2297:2303   */\n      dup4\n        /* \"#utility.yul\":2293:2310   */\n      add\n        /* \"#utility.yul\":2289:2316   */\n      slt\n        /* \"#utility.yul\":2279:2401   */\n      tag_448\n      jumpi\n        /* \"#utility.yul\":2320:2399   */\n      tag_449\n      tag_371\n      jump\t// in\n    tag_449:\n        /* \"#utility.yul\":2279:2401   */\n    tag_448:\n        /* \"#utility.yul\":2437:2443   */\n      dup2\n        /* \"#utility.yul\":2424:2444   */\n      calldataload\n        /* \"#utility.yul\":2462:2541   */\n      tag_450\n        /* \"#utility.yul\":2537:2540   */\n      dup5\n        /* \"#utility.yul\":2529:2535   */\n      dup3\n        /* \"#utility.yul\":2522:2526   */\n      0x20\n        /* \"#utility.yul\":2514:2520   */\n      dup7\n        /* \"#utility.yul\":2510:2527   */\n      add\n        /* \"#utility.yul\":2462:2541   */\n      tag_378\n      jump\t// in\n    tag_450:\n        /* \"#utility.yul\":2453:2541   */\n      swap2\n      pop\n        /* \"#utility.yul\":2269:2547   */\n      pop\n        /* \"#utility.yul\":2207:2547   */\n      swap3\n      swap2\n      pop\n      pop\n      jump\t// out\n        /* \"#utility.yul\":2553:3062   */\n    tag_15:\n        /* \"#utility.yul\":2622:2628   */\n      0x00\n        /* \"#utility.yul\":2671:2673   */\n      0x20\n        /* \"#utility.yul\":2659:2668   */\n      dup3\n        /* \"#utility.yul\":2650:2657   */\n      dup5\n        /* \"#utility.yul\":2646:2669   */\n      sub\n        /* \"#utility.yul\":2642:2674   */\n      slt\n        /* \"#utility.yul\":2639:2758   */\n      iszero\n      tag_452\n      jumpi\n        /* \"#utility.yul\":2677:2756   */\n      tag_453\n      tag_369\n      jump\t// in\n    tag_453:\n        /* \"#utility.yul\":2639:2758   */\n    tag_452:\n        /* \"#utility.yul\":2825:2826   */\n      0x00\n        /* \"#utility.yul\":2814:2823   */\n      dup3\n        /* \"#utility.yul\":2810:2827   */\n      add\n        /* \"#utility.yul\":2797:2828   */\n      calldataload\n        /* \"#utility.yul\":2855:2873   */\n      0xffffffffffffffff\n        /* \"#utility.yul\":2847:2853   */\n      dup2\n        /* \"#utility.yul\":2844:2874   */\n      gt\n        /* \"#utility.yul\":2841:2958   */\n      iszero\n      tag_454\n      jumpi\n        /* \"#utility.yul\":2877:2956   */\n      tag_455\n      tag_370\n      jump\t// in\n    tag_455:\n        /* \"#utility.yul\":2841:2958   */\n    tag_454:\n        /* \"#utility.yul\":2982:3045   */\n      tag_456\n        /* \"#utility.yul\":3037:3044   */\n      dup5\n        /* \"#utility.yul\":3028:3034   */\n      dup3\n        /* \"#utility.yul\":3017:3026   */\n      dup6\n        /* \"#utility.yul\":3013:3035   */\n      add\n        /* \"#utility.yul\":2982:3045   */\n      tag_379\n      jump\t// in\n    tag_456:\n        /* \"#utility.yul\":2972:3045   */\n      swap2\n      pop\n        /* \"#utility.yul\":2768:3055   */\n      pop\n        /* \"#utility.yul\":2553:3062   */\n      swap3\n      swap2\n      pop\n      pop\n      jump\t// out\n        /* \"#utility.yul\":3068:3167   */\n    tag_380:\n        /* \"#utility.yul\":3120:3126   */\n      0x00\n        /* \"#utility.yul\":3154:3159   */\n      dup2\n        /* \"#utility.yul\":3148:3160   */\n      mload\n        /* \"#utility.yul\":3138:3160   */\n      swap1\n      pop\n        /* \"#utility.yul\":3068:3167   */\n      swap2\n      swap1\n      pop\n      jump\t// out\n        /* \"#utility.yul\":3173:3342   */\n    tag_381:\n        /* \"#utility.yul\":3257:3268   */\n      0x00\n        /* \"#utility.yul\":3291:3297   */\n      dup3\n        /* \"#utility.yul\":3286:3289   */\n      dup3\n        /* \"#utility.yul\":3279:3298   */\n      mstore\n        /* \"#utility.yul\":3331:3335   */\n      0x20\n        /* \"#utility.yul\":3326:3329   */\n      dup3\n        /* \"#utility.yul\":3322:3336   */\n      add\n        /* \"#utility.yul\":3307:3336   */\n      swap1\n      pop\n        /* \"#utility.yul\":3173:3342   */\n      swap3\n      swap2\n      pop\n      pop\n      jump\t// out\n        /* \"#utility.yul\":3348:3594   */\n    tag_382:\n        /* \"#utility.yul\":3429:3430   */\n      0x00\n        /* \"#utility.yul\":3439:3552   */\n    tag_460:\n        /* \"#utility.yul\":3453:3459   */\n      dup4\n        /* \"#utility.yul\":3450:3451   */\n      dup2\n        /* \"#utility.yul\":3447:3460   */\n      lt\n        /* \"#utility.yul\":3439:3552   */\n      iszero\n      tag_462\n      jumpi\n        /* \"#utility.yul\":3538:3539   */\n      dup1\n        /* \"#utility.yul\":3533:3536   */\n      dup3\n        /* \"#utility.yul\":3529:3540   */\n      add\n        /* \"#utility.yul\":3523:3541   */\n      mload\n        /* \"#utility.yul\":3519:3520   */\n      dup2\n        /* \"#utility.yul\":3514:3517   */\n      dup5\n        /* \"#utility.yul\":3510:3521   */\n      add\n        /* \"#utility.yul\":3503:3542   */\n      mstore\n        /* \"#utility.yul\":3475:3477   */\n      0x20\n        /* \"#utility.yul\":3472:3473   */\n      dup2\n        /* \"#utility.yul\":3468:3478   */\n      add\n        /* \"#utility.yul\":3463:3478   */\n      swap1\n      pop\n        /* \"#utility.yul\":3439:3552   */\n      jump(tag_460)\n    tag_462:\n        /* \"#utility.yul\":3586:3587   */\n      0x00\n        /* \"#utility.yul\":3577:3583   */\n      dup5\n        /* \"#utility.yul\":3572:3575   */\n      dup5\n        /* \"#utility.yul\":3568:3584   */\n      add\n        /* \"#utility.yul\":3561:3588   */\n      mstore\n        /* \"#utility.yul\":3410:3594   */\n      pop\n        /* \"#utility.yul\":3348:3594   */\n      pop\n      pop\n      pop\n      jump\t// out\n        /* \"#utility.yul\":3600:3977   */\n    tag_383:\n        /* \"#utility.yul\":3688:3691   */\n      0x00\n        /* \"#utility.yul\":3716:3755   */\n      tag_464\n        /* \"#utility.yul\":3749:3754   */\n      dup3\n        /* \"#utility.yul\":3716:3755   */\n      tag_380\n      jump\t// in\n    tag_464:\n        /* \"#utility.yul\":3771:3842   */\n      tag_465\n        /* \"#utility.yul\":3835:3841   */\n      dup2\n        /* \"#utility.yul\":3830:3833   */\n      dup6\n        /* \"#utility.yul\":3771:3842   */\n      tag_381\n      jump\t// in\n    tag_465:\n        /* \"#utility.yul\":3764:3842   */\n      swap4\n      pop\n        /* \"#utility.yul\":3851:3916   */\n      tag_466\n        /* \"#utility.yul\":3909:3915   */\n      dup2\n        /* \"#utility.yul\":3904:3907   */\n      dup6\n        /* \"#utility.yul\":3897:3901   */\n      0x20\n        /* \"#utility.yul\":3890:3895   */\n      dup7\n        /* \"#utility.yul\":3886:3902   */\n      add\n        /* \"#utility.yul\":3851:3916   */\n      tag_382\n      jump\t// in\n    tag_466:\n        /* \"#utility.yul\":3941:3970   */\n      tag_467\n        /* \"#utility.yul\":3963:3969   */\n      dup2\n        /* \"#utility.yul\":3941:3970   */\n      tag_373\n      jump\t// in\n    tag_467:\n        /* \"#utility.yul\":3936:3939   */\n      dup5\n        /* \"#utility.yul\":3932:3971   */\n      add\n        /* \"#utility.yul\":3925:3971   */\n      swap2\n      pop\n        /* \"#utility.yul\":3692:3977   */\n      pop\n        /* \"#utility.yul\":3600:3977   */\n      swap3\n      swap2\n      pop\n      pop\n      jump\t// out\n        /* \"#utility.yul\":3983:4060   */\n    tag_384:\n        /* \"#utility.yul\":4020:4027   */\n      0x00\n        /* \"#utility.yul\":4049:4054   */\n      dup2\n        /* \"#utility.yul\":4038:4054   */\n      swap1\n      pop\n        /* \"#utility.yul\":3983:4060   */\n      swap2\n      swap1\n      pop\n      jump\t// out\n        /* \"#utility.yul\":4066:4184   */\n    tag_385:\n        /* \"#utility.yul\":4153:4177   */\n      tag_470\n        /* \"#utility.yul\":4171:4176   */\n      dup2\n        /* \"#utility.yul\":4153:4177   */\n      tag_384\n      jump\t// in\n    tag_470:\n        /* \"#utility.yul\":4148:4151   */\n      dup3\n        /* \"#utility.yul\":4141:4178   */\n      mstore\n        /* \"#utility.yul\":4066:4184   */\n      pop\n      pop\n      jump\t// out\n        /* \"#utility.yul\":4190:6046   */\n    tag_18:\n        /* \"#utility.yul\":4675:4679   */\n      0x00\n        /* \"#utility.yul\":4713:4716   */\n      0x0140\n        /* \"#utility.yul\":4702:4711   */\n      dup3\n        /* \"#utility.yul\":4698:4717   */\n      add\n        /* \"#utility.yul\":4690:4717   */\n      swap1\n      pop\n        /* \"#utility.yul\":4763:4772   */\n      dup2\n        /* \"#utility.yul\":4757:4761   */\n      dup2\n        /* \"#utility.yul\":4753:4773   */\n      sub\n        /* \"#utility.yul\":4749:4750   */\n      0x00\n        /* \"#utility.yul\":4738:4747   */\n      dup4\n        /* \"#utility.yul\":4734:4751   */\n      add\n        /* \"#utility.yul\":4727:4774   */\n      mstore\n        /* \"#utility.yul\":4791:4869   */\n      tag_472\n        /* \"#utility.yul\":4864:4868   */\n      dup2\n        /* \"#utility.yul\":4855:4861   */\n      dup14\n        /* \"#utility.yul\":4791:4869   */\n      tag_383\n      jump\t// in\n    tag_472:\n        /* \"#utility.yul\":4783:4869   */\n      swap1\n      pop\n        /* \"#utility.yul\":4916:4925   */\n      dup2\n        /* \"#utility.yul\":4910:4914   */\n      dup2\n        /* \"#utility.yul\":4906:4926   */\n      sub\n        /* \"#utility.yul\":4901:4903   */\n      0x20\n        /* \"#utility.yul\":4890:4899   */\n      dup4\n        /* \"#utility.yul\":4886:4904   */\n      add\n        /* \"#utility.yul\":4879:4927   */\n      mstore\n        /* \"#utility.yul\":4944:5022   */\n      tag_473\n        /* \"#utility.yul\":5017:5021   */\n      dup2\n        /* \"#utility.yul\":5008:5014   */\n      dup13\n        /* \"#utility.yul\":4944:5022   */\n      tag_383\n      jump\t// in\n    tag_473:\n        /* \"#utility.yul\":4936:5022   */\n      swap1\n      pop\n        /* \"#utility.yul\":5069:5078   */\n      dup2\n        /* \"#utility.yul\":5063:5067   */\n      dup2\n        /* \"#utility.yul\":5059:5079   */\n      sub\n        /* \"#utility.yul\":5054:5056   */\n      0x40\n        /* \"#utility.yul\":5043:5052   */\n      dup4\n        /* \"#utility.yul\":5039:5057   */\n      add\n        /* \"#utility.yul\":5032:5080   */\n      mstore\n        /* \"#utility.yul\":5097:5175   */\n      tag_474\n        /* \"#utility.yul\":5170:5174   */\n      dup2\n        /* \"#utility.yul\":5161:5167   */\n      dup12\n        /* \"#utility.yul\":5097:5175   */\n      tag_383\n      jump\t// in\n    tag_474:\n        /* \"#utility.yul\":5089:5175   */\n      swap1\n      pop\n        /* \"#utility.yul\":5222:5231   */\n      dup2\n        /* \"#utility.yul\":5216:5220   */\n      dup2\n        /* \"#utility.yul\":5212:5232   */\n      sub\n        /* \"#utility.yul\":5207:5209   */\n      0x60\n        /* \"#utility.yul\":5196:5205   */\n      dup4\n        /* \"#utility.yul\":5192:5210   */\n      add\n        /* \"#utility.yul\":5185:5233   */\n      mstore\n        /* \"#utility.yul\":5250:5328   */\n      tag_475\n        /* \"#utility.yul\":5323:5327   */\n      dup2\n        /* \"#utility.yul\":5314:5320   */\n      dup11\n        /* \"#utility.yul\":5250:5328   */\n      tag_383\n      jump\t// in\n    tag_475:\n        /* \"#utility.yul\":5242:5328   */\n      swap1\n      pop\n        /* \"#utility.yul\":5376:5385   */\n      dup2\n        /* \"#utility.yul\":5370:5374   */\n      dup2\n        /* \"#utility.yul\":5366:5386   */\n      sub\n        /* \"#utility.yul\":5360:5363   */\n      0x80\n        /* \"#utility.yul\":5349:5358   */\n      dup4\n        /* \"#utility.yul\":5345:5364   */\n      add\n        /* \"#utility.yul\":5338:5387   */\n      mstore\n        /* \"#utility.yul\":5404:5482   */\n      tag_476\n        /* \"#utility.yul\":5477:5481   */\n      dup2\n        /* \"#utility.yul\":5468:5474   */\n      dup10\n        /* \"#utility.yul\":5404:5482   */\n      tag_383\n      jump\t// in\n    tag_476:\n        /* \"#utility.yul\":5396:5482   */\n      swap1\n      pop\n        /* \"#utility.yul\":5530:5539   */\n      dup2\n        /* \"#utility.yul\":5524:5528   */\n      dup2\n        /* \"#utility.yul\":5520:5540   */\n      sub\n        /* \"#utility.yul\":5514:5517   */\n      0xa0\n        /* \"#utility.yul\":5503:5512   */\n      dup4\n        /* \"#utility.yul\":5499:5518   */\n      add\n        /* \"#utility.yul\":5492:5541   */\n      mstore\n        /* \"#utility.yul\":5558:5636   */\n      tag_477\n        /* \"#utility.yul\":5631:5635   */\n      dup2\n        /* \"#utility.yul\":5622:5628   */\n      dup9\n        /* \"#utility.yul\":5558:5636   */\n      tag_383\n      jump\t// in\n    tag_477:\n        /* \"#utility.yul\":5550:5636   */\n      swap1\n      pop\n        /* \"#utility.yul\":5646:5719   */\n      tag_478\n        /* \"#utility.yul\":5714:5717   */\n      0xc0\n        /* \"#utility.yul\":5703:5712   */\n      dup4\n        /* \"#utility.yul\":5699:5718   */\n      add\n        /* \"#utility.yul\":5690:5696   */\n      dup8\n        /* \"#utility.yul\":5646:5719   */\n      tag_385\n      jump\t// in\n    tag_478:\n        /* \"#utility.yul\":5729:5802   */\n      tag_479\n        /* \"#utility.yul\":5797:5800   */\n      0xe0\n        /* \"#utility.yul\":5786:5795   */\n      dup4\n        /* \"#utility.yul\":5782:5801   */\n      add\n        /* \"#utility.yul\":5773:5779   */\n      dup7\n        /* \"#utility.yul\":5729:5802   */\n      tag_385\n      jump\t// in\n    tag_479:\n        /* \"#utility.yul\":5850:5859   */\n      dup2\n        /* \"#utility.yul\":5844:5848   */\n      dup2\n        /* \"#utility.yul\":5840:5860   */\n      sub\n        /* \"#utility.yul\":5834:5837   */\n      0x0100\n        /* \"#utility.yul\":5823:5832   */\n      dup4\n        /* \"#utility.yul\":5819:5838   */\n      add\n        /* \"#utility.yul\":5812:5861   */\n      mstore\n        /* \"#utility.yul\":5878:5956   */\n      tag_480\n        /* \"#utility.yul\":5951:5955   */\n      dup2\n        /* \"#utility.yul\":5942:5948   */\n      dup6\n        /* \"#utility.yul\":5878:5956   */\n      tag_383\n      jump\t// in\n    tag_480:\n        /* \"#utility.yul\":5870:5956   */\n      swap1\n      pop\n        /* \"#utility.yul\":5966:6039   */\n      tag_481\n        /* \"#utility.yul\":6034:6037   */\n      0x0120\n        /* \"#utility.yul\":6023:6032   */\n      dup4\n        /* \"#utility.yul\":6019:6038   */\n      add\n        /* \"#utility.yul\":6010:6016   */\n      dup5\n        /* \"#utility.yul\":5966:6039   */\n      tag_385\n      jump\t// in\n    tag_481:\n        /* \"#utility.yul\":4190:6046   */\n      swap12\n      swap11\n      pop\n      pop\n      pop\n      pop\n      pop\n      pop\n      pop\n      pop\n      pop\n      pop\n      pop\n      jump\t// out\n        /* \"#utility.yul\":6052:6193   */\n    tag_386:\n        /* \"#utility.yul\":6146:6152   */\n      0x00\n        /* \"#utility.yul\":6180:6185   */\n      dup2\n        /* \"#utility.yul\":6174:6186   */\n      mload\n        /* \"#utility.yul\":6164:6186   */\n      swap1\n      pop\n        /* \"#utility.yul\":6052:6193   */\n      swap2\n      swap1\n      pop\n      jump\t// out\n        /* \"#utility.yul\":6199:6410   */\n    tag_387:\n        /* \"#utility.yul\":6325:6336   */\n      0x00\n        /* \"#utility.yul\":6359:6365   */\n      dup3\n        /* \"#utility.yul\":6354:6357   */\n      dup3\n        /* \"#utility.yul\":6347:6366   */\n      mstore\n        /* \"#utility.yul\":6399:6403   */\n      0x20\n        /* \"#utility.yul\":6394:6397   */\n      dup3\n        /* \"#utility.yul\":6390:6404   */\n      add\n        /* \"#utility.yul\":6375:6404   */\n      swap1\n      pop\n        /* \"#utility.yul\":6199:6410   */\n      swap3\n      swap2\n      pop\n      pop\n      jump\t// out\n        /* \"#utility.yul\":6416:6575   */\n    tag_388:\n        /* \"#utility.yul\":6510:6514   */\n      0x00\n        /* \"#utility.yul\":6533:6536   */\n      dup2\n        /* \"#utility.yul\":6525:6536   */\n      swap1\n      pop\n        /* \"#utility.yul\":6563:6567   */\n      0x20\n        /* \"#utility.yul\":6558:6561   */\n      dup3\n        /* \"#utility.yul\":6554:6568   */\n      add\n        /* \"#utility.yul\":6546:6568   */\n      swap1\n      pop\n        /* \"#utility.yul\":6416:6575   */\n      swap2\n      swap1\n      pop\n      jump\t// out\n        /* \"#utility.yul\":6581:6740   */\n    tag_389:\n        /* \"#utility.yul\":6655:6666   */\n      0x00\n        /* \"#utility.yul\":6689:6695   */\n      dup3\n        /* \"#utility.yul\":6684:6687   */\n      dup3\n        /* \"#utility.yul\":6677:6696   */\n      mstore\n        /* \"#utility.yul\":6729:6733   */\n      0x20\n        /* \"#utility.yul\":6724:6727   */\n      dup3\n        /* \"#utility.yul\":6720:6734   */\n      add\n        /* \"#utility.yul\":6705:6734   */\n      swap1\n      pop\n        /* \"#utility.yul\":6581:6740   */\n      swap3\n      swap2\n      pop\n      pop\n      jump\t// out\n        /* \"#utility.yul\":6746:7103   */\n    tag_390:\n        /* \"#utility.yul\":6824:6827   */\n      0x00\n        /* \"#utility.yul\":6852:6891   */\n      tag_487\n        /* \"#utility.yul\":6885:6890   */\n      dup3\n        /* \"#utility.yul\":6852:6891   */\n      tag_380\n      jump\t// in\n    tag_487:\n        /* \"#utility.yul\":6907:6968   */\n      tag_488\n        /* \"#utility.yul\":6961:6967   */\n      dup2\n        /* \"#utility.yul\":6956:6959   */\n      dup6\n        /* \"#utility.yul\":6907:6968   */\n      tag_389\n      jump\t// in\n    tag_488:\n        /* \"#utility.yul\":6900:6968   */\n      swap4\n      pop\n        /* \"#utility.yul\":6977:7042   */\n      tag_489\n        /* \"#utility.yul\":7035:7041   */\n      dup2\n        /* \"#utility.yul\":7030:7033   */\n      dup6\n        /* \"#utility.yul\":7023:7027   */\n      0x20\n        /* \"#utility.yul\":7016:7021   */\n      dup7\n        /* \"#utility.yul\":7012:7028   */\n      add\n        /* \"#utility.yul\":6977:7042   */\n      tag_382\n      jump\t// in\n    tag_489:\n        /* \"#utility.yul\":7067:7096   */\n      tag_490\n        /* \"#utility.yul\":7089:7095   */\n      dup2\n        /* \"#utility.yul\":7067:7096   */\n      tag_373\n      jump\t// in\n    tag_490:\n        /* \"#utility.yul\":7062:7065   */\n      dup5\n        /* \"#utility.yul\":7058:7097   */\n      add\n        /* \"#utility.yul\":7051:7097   */\n      swap2\n      pop\n        /* \"#utility.yul\":6828:7103   */\n      pop\n        /* \"#utility.yul\":6746:7103   */\n      swap3\n      swap2\n      pop\n      pop\n      jump\t// out\n        /* \"#utility.yul\":7109:7217   */\n    tag_391:\n        /* \"#utility.yul\":7186:7210   */\n      tag_492\n        /* \"#utility.yul\":7204:7209   */\n      dup2\n        /* \"#utility.yul\":7186:7210   */\n      tag_384\n      jump\t// in\n    tag_492:\n        /* \"#utility.yul\":7181:7184   */\n      dup3\n        /* \"#utility.yul\":7174:7211   */\n      mstore\n        /* \"#utility.yul\":7109:7217   */\n      pop\n      pop\n      jump\t// out\n        /* \"#utility.yul\":7311:9812   */\n    tag_392:\n        /* \"#utility.yul\":7424:7427   */\n      0x00\n        /* \"#utility.yul\":7460:7466   */\n      0x0140\n        /* \"#utility.yul\":7455:7458   */\n      dup4\n        /* \"#utility.yul\":7451:7467   */\n      add\n        /* \"#utility.yul\":7560:7564   */\n      0x00\n        /* \"#utility.yul\":7553:7558   */\n      dup4\n        /* \"#utility.yul\":7549:7565   */\n      add\n        /* \"#utility.yul\":7543:7566   */\n      mload\n        /* \"#utility.yul\":7613:7616   */\n      dup5\n        /* \"#utility.yul\":7607:7611   */\n      dup3\n        /* \"#utility.yul\":7603:7617   */\n      sub\n        /* \"#utility.yul\":7596:7600   */\n      0x00\n        /* \"#utility.yul\":7591:7594   */\n      dup7\n        /* \"#utility.yul\":7587:7601   */\n      add\n        /* \"#utility.yul\":7580:7618   */\n      mstore\n        /* \"#utility.yul\":7639:7712   */\n      tag_494\n        /* \"#utility.yul\":7707:7711   */\n      dup3\n        /* \"#utility.yul\":7693:7705   */\n      dup3\n        /* \"#utility.yul\":7639:7712   */\n      tag_390\n      jump\t// in\n    tag_494:\n        /* \"#utility.yul\":7631:7712   */\n      swap2\n      pop\n        /* \"#utility.yul\":7477:7723   */\n      pop\n        /* \"#utility.yul\":7811:7815   */\n      0x20\n        /* \"#utility.yul\":7804:7809   */\n      dup4\n        /* \"#utility.yul\":7800:7816   */\n      add\n        /* \"#utility.yul\":7794:7817   */\n      mload\n        /* \"#utility.yul\":7864:7867   */\n      dup5\n        /* \"#utility.yul\":7858:7862   */\n      dup3\n        /* \"#utility.yul\":7854:7868   */\n      sub\n        /* \"#utility.yul\":7847:7851   */\n      0x20\n        /* \"#utility.yul\":7842:7845   */\n      dup7\n        /* \"#utility.yul\":7838:7852   */\n      add\n        /* \"#utility.yul\":7831:7869   */\n      mstore\n        /* \"#utility.yul\":7890:7963   */\n      tag_495\n        /* \"#utility.yul\":7958:7962   */\n      dup3\n        /* \"#utility.yul\":7944:7956   */\n      dup3\n        /* \"#utility.yul\":7890:7963   */\n      tag_390\n      jump\t// in\n    tag_495:\n        /* \"#utility.yul\":7882:7963   */\n      swap2\n      pop\n        /* \"#utility.yul\":7733:7974   */\n      pop\n        /* \"#utility.yul\":8064:8068   */\n      0x40\n        /* \"#utility.yul\":8057:8062   */\n      dup4\n        /* \"#utility.yul\":8053:8069   */\n      add\n        /* \"#utility.yul\":8047:8070   */\n      mload\n        /* \"#utility.yul\":8117:8120   */\n      dup5\n        /* \"#utility.yul\":8111:8115   */\n      dup3\n        /* \"#utility.yul\":8107:8121   */\n      sub\n        /* \"#utility.yul\":8100:8104   */\n      0x40\n        /* \"#utility.yul\":8095:8098   */\n      dup7\n        /* \"#utility.yul\":8091:8105   */\n      add\n        /* \"#utility.yul\":8084:8122   */\n      mstore\n        /* \"#utility.yul\":8143:8216   */\n      tag_496\n        /* \"#utility.yul\":8211:8215   */\n      dup3\n        /* \"#utility.yul\":8197:8209   */\n      dup3\n        /* \"#utility.yul\":8143:8216   */\n      tag_390\n      jump\t// in\n    tag_496:\n        /* \"#utility.yul\":8135:8216   */\n      swap2\n      pop\n        /* \"#utility.yul\":7984:8227   */\n      pop\n        /* \"#utility.yul\":8314:8318   */\n      0x60\n        /* \"#utility.yul\":8307:8312   */\n      dup4\n        /* \"#utility.yul\":8303:8319   */\n      add\n        /* \"#utility.yul\":8297:8320   */\n      mload\n        /* \"#utility.yul\":8367:8370   */\n      dup5\n        /* \"#utility.yul\":8361:8365   */\n      dup3\n        /* \"#utility.yul\":8357:8371   */\n      sub\n        /* \"#utility.yul\":8350:8354   */\n      0x60\n        /* \"#utility.yul\":8345:8348   */\n      dup7\n        /* \"#utility.yul\":8341:8355   */\n      add\n        /* \"#utility.yul\":8334:8372   */\n      mstore\n        /* \"#utility.yul\":8393:8466   */\n      tag_497\n        /* \"#utility.yul\":8461:8465   */\n      dup3\n        /* \"#utility.yul\":8447:8459   */\n      dup3\n        /* \"#utility.yul\":8393:8466   */\n      tag_390\n      jump\t// in\n    tag_497:\n        /* \"#utility.yul\":8385:8466   */\n      swap2\n      pop\n        /* \"#utility.yul\":8237:8477   */\n      pop\n        /* \"#utility.yul\":8568:8572   */\n      0x80\n        /* \"#utility.yul\":8561:8566   */\n      dup4\n        /* \"#utility.yul\":8557:8573   */\n      add\n        /* \"#utility.yul\":8551:8574   */\n      mload\n        /* \"#utility.yul\":8621:8624   */\n      dup5\n        /* \"#utility.yul\":8615:8619   */\n      dup3\n        /* \"#utility.yul\":8611:8625   */\n      sub\n        /* \"#utility.yul\":8604:8608   */\n      0x80\n        /* \"#utility.yul\":8599:8602   */\n      dup7\n        /* \"#utility.yul\":8595:8609   */\n      add\n        /* \"#utility.yul\":8588:8626   */\n      mstore\n        /* \"#utility.yul\":8647:8720   */\n      tag_498\n        /* \"#utility.yul\":8715:8719   */\n      dup3\n        /* \"#utility.yul\":8701:8713   */\n      dup3\n        /* \"#utility.yul\":8647:8720   */\n      tag_390\n      jump\t// in\n    tag_498:\n        /* \"#utility.yul\":8639:8720   */\n      swap2\n      pop\n        /* \"#utility.yul\":8487:8731   */\n      pop\n        /* \"#utility.yul\":8815:8819   */\n      0xa0\n        /* \"#utility.yul\":8808:8813   */\n      dup4\n        /* \"#utility.yul\":8804:8820   */\n      add\n        /* \"#utility.yul\":8798:8821   */\n      mload\n        /* \"#utility.yul\":8868:8871   */\n      dup5\n        /* \"#utility.yul\":8862:8866   */\n      dup3\n        /* \"#utility.yul\":8858:8872   */\n      sub\n        /* \"#utility.yul\":8851:8855   */\n      0xa0\n        /* \"#utility.yul\":8846:8849   */\n      dup7\n        /* \"#utility.yul\":8842:8856   */\n      add\n        /* \"#utility.yul\":8835:8873   */\n      mstore\n        /* \"#utility.yul\":8894:8967   */\n      tag_499\n        /* \"#utility.yul\":8962:8966   */\n      dup3\n        /* \"#utility.yul\":8948:8960   */\n      dup3\n        /* \"#utility.yul\":8894:8967   */\n      tag_390\n      jump\t// in\n    tag_499:\n        /* \"#utility.yul\":8886:8967   */\n      swap2\n      pop\n        /* \"#utility.yul\":8741:8978   */\n      pop\n        /* \"#utility.yul\":9064:9068   */\n      0xc0\n        /* \"#utility.yul\":9057:9062   */\n      dup4\n        /* \"#utility.yul\":9053:9069   */\n      add\n        /* \"#utility.yul\":9047:9070   */\n      mload\n        /* \"#utility.yul\":9083:9146   */\n      tag_500\n        /* \"#utility.yul\":9140:9144   */\n      0xc0\n        /* \"#utility.yul\":9135:9138   */\n      dup7\n        /* \"#utility.yul\":9131:9145   */\n      add\n        /* \"#utility.yul\":9117:9129   */\n      dup3\n        /* \"#utility.yul\":9083:9146   */\n      tag_391\n      jump\t// in\n    tag_500:\n        /* \"#utility.yul\":8988:9156   */\n      pop\n        /* \"#utility.yul\":9244:9248   */\n      0xe0\n        /* \"#utility.yul\":9237:9242   */\n      dup4\n        /* \"#utility.yul\":9233:9249   */\n      add\n        /* \"#utility.yul\":9227:9250   */\n      mload\n        /* \"#utility.yul\":9263:9326   */\n      tag_501\n        /* \"#utility.yul\":9320:9324   */\n      0xe0\n        /* \"#utility.yul\":9315:9318   */\n      dup7\n        /* \"#utility.yul\":9311:9325   */\n      add\n        /* \"#utility.yul\":9297:9309   */\n      dup3\n        /* \"#utility.yul\":9263:9326   */\n      tag_391\n      jump\t// in\n    tag_501:\n        /* \"#utility.yul\":9166:9336   */\n      pop\n        /* \"#utility.yul\":9435:9441   */\n      0x0100\n        /* \"#utility.yul\":9428:9433   */\n      dup4\n        /* \"#utility.yul\":9424:9442   */\n      add\n        /* \"#utility.yul\":9418:9443   */\n      mload\n        /* \"#utility.yul\":9492:9495   */\n      dup5\n        /* \"#utility.yul\":9486:9490   */\n      dup3\n        /* \"#utility.yul\":9482:9496   */\n      sub\n        /* \"#utility.yul\":9473:9479   */\n      0x0100\n        /* \"#utility.yul\":9468:9471   */\n      dup7\n        /* \"#utility.yul\":9464:9480   */\n      add\n        /* \"#utility.yul\":9457:9497   */\n      mstore\n        /* \"#utility.yul\":9518:9591   */\n      tag_502\n        /* \"#utility.yul\":9586:9590   */\n      dup3\n        /* \"#utility.yul\":9572:9584   */\n      dup3\n        /* \"#utility.yul\":9518:9591   */\n      tag_390\n      jump\t// in\n    tag_502:\n        /* \"#utility.yul\":9510:9591   */\n      swap2\n      pop\n        /* \"#utility.yul\":9346:9602   */\n      pop\n        /* \"#utility.yul\":9689:9695   */\n      0x0120\n        /* \"#utility.yul\":9682:9687   */\n      dup4\n        /* \"#utility.yul\":9678:9696   */\n      add\n        /* \"#utility.yul\":9672:9697   */\n      mload\n        /* \"#utility.yul\":9710:9775   */\n      tag_503\n        /* \"#utility.yul\":9767:9773   */\n      0x0120\n        /* \"#utility.yul\":9762:9765   */\n      dup7\n        /* \"#utility.yul\":9758:9774   */\n      add\n        /* \"#utility.yul\":9744:9756   */\n      dup3\n        /* \"#utility.yul\":9710:9775   */\n      tag_391\n      jump\t// in\n    tag_503:\n        /* \"#utility.yul\":9612:9785   */\n      pop\n        /* \"#utility.yul\":9802:9806   */\n      dup1\n        /* \"#utility.yul\":9795:9806   */\n      swap2\n      pop\n        /* \"#utility.yul\":7429:9812   */\n      pop\n        /* \"#utility.yul\":7311:9812   */\n      swap3\n      swap2\n      pop\n      pop\n      jump\t// out\n        /* \"#utility.yul\":9818:10082   */\n    tag_393:\n        /* \"#utility.yul\":9941:9951   */\n      0x00\n        /* \"#utility.yul\":9976:10076   */\n      tag_505\n        /* \"#utility.yul\":10072:10075   */\n      dup4\n        /* \"#utility.yul\":10064:10070   */\n      dup4\n        /* \"#utility.yul\":9976:10076   */\n      tag_392\n      jump\t// in\n    tag_505:\n        /* \"#utility.yul\":9962:10076   */\n      swap1\n      pop\n        /* \"#utility.yul\":9818:10082   */\n      swap3\n      swap2\n      pop\n      pop\n      jump\t// out\n        /* \"#utility.yul\":10088:10228   */\n    tag_394:\n        /* \"#utility.yul\":10185:10189   */\n      0x00\n        /* \"#utility.yul\":10217:10221   */\n      0x20\n        /* \"#utility.yul\":10212:10215   */\n      dup3\n        /* \"#utility.yul\":10208:10222   */\n      add\n        /* \"#utility.yul\":10200:10222   */\n      swap1\n      pop\n        /* \"#utility.yul\":10088:10228   */\n      swap2\n      swap1\n      pop\n      jump\t// out\n        /* \"#utility.yul\":10326:11453   */\n    tag_395:\n        /* \"#utility.yul\":10499:10502   */\n      0x00\n        /* \"#utility.yul\":10528:10609   */\n      tag_508\n        /* \"#utility.yul\":10603:10608   */\n      dup3\n        /* \"#utility.yul\":10528:10609   */\n      tag_386\n      jump\t// in\n    tag_508:\n        /* \"#utility.yul\":10625:10738   */\n      tag_509\n        /* \"#utility.yul\":10731:10737   */\n      dup2\n        /* \"#utility.yul\":10726:10729   */\n      dup6\n        /* \"#utility.yul\":10625:10738   */\n      tag_387\n      jump\t// in\n    tag_509:\n        /* \"#utility.yul\":10618:10738   */\n      swap4\n      pop\n        /* \"#utility.yul\":10764:10767   */\n      dup4\n        /* \"#utility.yul\":10809:10813   */\n      0x20\n        /* \"#utility.yul\":10801:10807   */\n      dup3\n        /* \"#utility.yul\":10797:10814   */\n      mul\n        /* \"#utility.yul\":10792:10795   */\n      dup6\n        /* \"#utility.yul\":10788:10815   */\n      add\n        /* \"#utility.yul\":10839:10922   */\n      tag_510\n        /* \"#utility.yul\":10916:10921   */\n      dup6\n        /* \"#utility.yul\":10839:10922   */\n      tag_388\n      jump\t// in\n    tag_510:\n        /* \"#utility.yul\":10945:10952   */\n      dup1\n        /* \"#utility.yul\":10976:10977   */\n      0x00\n        /* \"#utility.yul\":10961:11408   */\n    tag_511:\n        /* \"#utility.yul\":10986:10992   */\n      dup6\n        /* \"#utility.yul\":10983:10984   */\n      dup2\n        /* \"#utility.yul\":10980:10993   */\n      lt\n        /* \"#utility.yul\":10961:11408   */\n      iszero\n      tag_513\n      jumpi\n        /* \"#utility.yul\":11057:11066   */\n      dup5\n        /* \"#utility.yul\":11051:11055   */\n      dup5\n        /* \"#utility.yul\":11047:11067   */\n      sub\n        /* \"#utility.yul\":11042:11045   */\n      dup10\n        /* \"#utility.yul\":11035:11068   */\n      mstore\n        /* \"#utility.yul\":11108:11114   */\n      dup2\n        /* \"#utility.yul\":11102:11115   */\n      mload\n        /* \"#utility.yul\":11136:11254   */\n      tag_514\n        /* \"#utility.yul\":11249:11253   */\n      dup6\n        /* \"#utility.yul\":11234:11247   */\n      dup3\n        /* \"#utility.yul\":11136:11254   */\n      tag_393\n      jump\t// in\n    tag_514:\n        /* \"#utility.yul\":11128:11254   */\n      swap5\n      pop\n        /* \"#utility.yul\":11277:11364   */\n      tag_515\n        /* \"#utility.yul\":11357:11363   */\n      dup4\n        /* \"#utility.yul\":11277:11364   */\n      tag_394\n      jump\t// in\n    tag_515:\n        /* \"#utility.yul\":11267:11364   */\n      swap3\n      pop\n        /* \"#utility.yul\":11393:11397   */\n      0x20\n        /* \"#utility.yul\":11388:11391   */\n      dup11\n        /* \"#utility.yul\":11384:11398   */\n      add\n        /* \"#utility.yul\":11377:11398   */\n      swap10\n      pop\n        /* \"#utility.yul\":11021:11408   */\n      pop\n        /* \"#utility.yul\":11008:11009   */\n      0x01\n        /* \"#utility.yul\":11005:11006   */\n      dup2\n        /* \"#utility.yul\":11001:11010   */\n      add\n        /* \"#utility.yul\":10996:11010   */\n      swap1\n      pop\n        /* \"#utility.yul\":10961:11408   */\n      jump(tag_511)\n    tag_513:\n        /* \"#utility.yul\":10965:10979   */\n      pop\n        /* \"#utility.yul\":11424:11428   */\n      dup3\n        /* \"#utility.yul\":11417:11428   */\n      swap8\n      pop\n        /* \"#utility.yul\":11444:11447   */\n      dup8\n        /* \"#utility.yul\":11437:11447   */\n      swap6\n      pop\n        /* \"#utility.yul\":10504:11453   */\n      pop\n      pop\n      pop\n      pop\n      pop\n        /* \"#utility.yul\":10326:11453   */\n      swap3\n      swap2\n      pop\n      pop\n      jump\t// out\n        /* \"#utility.yul\":11459:11940   */\n    tag_22:\n        /* \"#utility.yul\":11656:11660   */\n      0x00\n        /* \"#utility.yul\":11694:11696   */\n      0x20\n        /* \"#utility.yul\":11683:11692   */\n      dup3\n        /* \"#utility.yul\":11679:11697   */\n      add\n        /* \"#utility.yul\":11671:11697   */\n      swap1\n      pop\n        /* \"#utility.yul\":11743:11752   */\n      dup2\n        /* \"#utility.yul\":11737:11741   */\n      dup2\n        /* \"#utility.yul\":11733:11753   */\n      sub\n        /* \"#utility.yul\":11729:11730   */\n      0x00\n        /* \"#utility.yul\":11718:11727   */\n      dup4\n        /* \"#utility.yul\":11714:11731   */\n      add\n        /* \"#utility.yul\":11707:11754   */\n      mstore\n        /* \"#utility.yul\":11771:11933   */\n      tag_517\n        /* \"#utility.yul\":11928:11932   */\n      dup2\n        /* \"#utility.yul\":11919:11925   */\n      dup5\n        /* \"#utility.yul\":11771:11933   */\n      tag_395\n      jump\t// in\n    tag_517:\n        /* \"#utility.yul\":11763:11933   */\n      swap1\n      pop\n        /* \"#utility.yul\":11459:11940   */\n      swap3\n      swap2\n      pop\n      pop\n      jump\t// out\n        /* \"#utility.yul\":11946:12780   */\n    tag_25:\n        /* \"#utility.yul\":12034:12040   */\n      0x00\n        /* \"#utility.yul\":12042:12048   */\n      dup1\n        /* \"#utility.yul\":12091:12093   */\n      0x40\n        /* \"#utility.yul\":12079:12088   */\n      dup4\n        /* \"#utility.yul\":12070:12077   */\n      dup6\n        /* \"#utility.yul\":12066:12089   */\n      sub\n        /* \"#utility.yul\":12062:12094   */\n      slt\n        /* \"#utility.yul\":12059:12178   */\n      iszero\n      tag_519\n      jumpi\n        /* \"#utility.yul\":12097:12176   */\n      tag_520\n      tag_369\n      jump\t// in\n    tag_520:\n        /* \"#utility.yul\":12059:12178   */\n    tag_519:\n        /* \"#utility.yul\":12245:12246   */\n      0x00\n        /* \"#utility.yul\":12234:12243   */\n      dup4\n        /* \"#utility.yul\":12230:12247   */\n      add\n        /* \"#utility.yul\":12217:12248   */\n      calldataload\n        /* \"#utility.yul\":12275:12293   */\n      0xffffffffffffffff\n        /* \"#utility.yul\":12267:12273   */\n      dup2\n        /* \"#utility.yul\":12264:12294   */\n      gt\n        /* \"#utility.yul\":12261:12378   */\n      iszero\n      tag_521\n      jumpi\n        /* \"#utility.yul\":12297:12376   */\n      tag_522\n      tag_370\n      jump\t// in\n    tag_522:\n        /* \"#utility.yul\":12261:12378   */\n    tag_521:\n        /* \"#utility.yul\":12402:12465   */\n      tag_523\n        /* \"#utility.yul\":12457:12464   */\n      dup6\n        /* \"#utility.yul\":12448:12454   */\n      dup3\n        /* \"#utility.yul\":12437:12446   */\n      dup7\n        /* \"#utility.yul\":12433:12455   */\n      add\n        /* \"#utility.yul\":12402:12465   */\n      tag_379\n      jump\t// in\n    tag_523:\n        /* \"#utility.yul\":12392:12465   */\n      swap3\n      pop\n        /* \"#utility.yul\":12188:12475   */\n      pop\n        /* \"#utility.yul\":12542:12544   */\n      0x20\n        /* \"#utility.yul\":12531:12540   */\n      dup4\n        /* \"#utility.yul\":12527:12545   */\n      add\n        /* \"#utility.yul\":12514:12546   */\n      calldataload\n        /* \"#utility.yul\":12573:12591   */\n      0xffffffffffffffff\n        /* \"#utility.yul\":12565:12571   */\n      dup2\n        /* \"#utility.yul\":12562:12592   */\n      gt\n        /* \"#utility.yul\":12559:12676   */\n      iszero\n      tag_524\n      jumpi\n        /* \"#utility.yul\":12595:12674   */\n      tag_525\n      tag_370\n      jump\t// in\n    tag_525:\n        /* \"#utility.yul\":12559:12676   */\n    tag_524:\n        /* \"#utility.yul\":12700:12763   */\n      tag_526\n        /* \"#utility.yul\":12755:12762   */\n      dup6\n        /* \"#utility.yul\":12746:12752   */\n      dup3\n        /* \"#utility.yul\":12735:12744   */\n      dup7\n        /* \"#utility.yul\":12731:12753   */\n      add\n        /* \"#utility.yul\":12700:12763   */\n      tag_379\n      jump\t// in\n    tag_526:\n        /* \"#utility.yul\":12690:12763   */\n      swap2\n      pop\n        /* \"#utility.yul\":12485:12773   */\n      pop\n        /* \"#utility.yul\":11946:12780   */\n      swap3\n      pop\n      swap3\n      swap1\n      pop\n      jump\t// out\n        /* \"#utility.yul\":12786:12908   */\n    tag_396:\n        /* \"#utility.yul\":12859:12883   */\n      tag_528\n        /* \"#utility.yul\":12877:12882   */\n      dup2\n        /* \"#utility.yul\":12859:12883   */\n      tag_384\n      jump\t// in\n    tag_528:\n        /* \"#utility.yul\":12852:12857   */\n      dup2\n        /* \"#utility.yul\":12849:12884   */\n      eq\n        /* \"#utility.yul\":12839:12902   */\n      tag_529\n      jumpi\n        /* \"#utility.yul\":12898:12899   */\n      0x00\n        /* \"#utility.yul\":12895:12896   */\n      dup1\n        /* \"#utility.yul\":12888:12900   */\n      revert\n        /* \"#utility.yul\":12839:12902   */\n    tag_529:\n        /* \"#utility.yul\":12786:12908   */\n      pop\n      jump\t// out\n        /* \"#utility.yul\":12914:13053   */\n    tag_397:\n        /* \"#utility.yul\":12960:12965   */\n      0x00\n        /* \"#utility.yul\":12998:13004   */\n      dup2\n        /* \"#utility.yul\":12985:13005   */\n      calldataload\n        /* \"#utility.yul\":12976:13005   */\n      swap1\n      pop\n        /* \"#utility.yul\":13014:13047   */\n      tag_531\n        /* \"#utility.yul\":13041:13046   */\n      dup2\n        /* \"#utility.yul\":13014:13047   */\n      tag_396\n      jump\t// in\n    tag_531:\n        /* \"#utility.yul\":12914:13053   */\n      swap3\n      swap2\n      pop\n      pop\n      jump\t// out\n        /* \"#utility.yul\":13059:13388   */\n    tag_29:\n        /* \"#utility.yul\":13118:13124   */\n      0x00\n        /* \"#utility.yul\":13167:13169   */\n      0x20\n        /* \"#utility.yul\":13155:13164   */\n      dup3\n        /* \"#utility.yul\":13146:13153   */\n      dup5\n        /* \"#utility.yul\":13142:13165   */\n      sub\n        /* \"#utility.yul\":13138:13170   */\n      slt\n        /* \"#utility.yul\":13135:13254   */\n      iszero\n      tag_533\n      jumpi\n        /* \"#utility.yul\":13173:13252   */\n      tag_534\n      tag_369\n      jump\t// in\n    tag_534:\n        /* \"#utility.yul\":13135:13254   */\n    tag_533:\n        /* \"#utility.yul\":13293:13294   */\n      0x00\n        /* \"#utility.yul\":13318:13371   */\n      tag_535\n        /* \"#utility.yul\":13363:13370   */\n      dup5\n        /* \"#utility.yul\":13354:13360   */\n      dup3\n        /* \"#utility.yul\":13343:13352   */\n      dup6\n        /* \"#utility.yul\":13339:13361   */\n      add\n        /* \"#utility.yul\":13318:13371   */\n      tag_397\n      jump\t// in\n    tag_535:\n        /* \"#utility.yul\":13308:13371   */\n      swap2\n      pop\n        /* \"#utility.yul\":13264:13381   */\n      pop\n        /* \"#utility.yul\":13059:13388   */\n      swap3\n      swap2\n      pop\n      pop\n      jump\t// out\n        /* \"#utility.yul\":13394:13707   */\n    tag_32:\n        /* \"#utility.yul\":13507:13511   */\n      0x00\n        /* \"#utility.yul\":13545:13547   */\n      0x20\n        /* \"#utility.yul\":13534:13543   */\n      dup3\n        /* \"#utility.yul\":13530:13548   */\n      add\n        /* \"#utility.yul\":13522:13548   */\n      swap1\n      pop\n        /* \"#utility.yul\":13594:13603   */\n      dup2\n        /* \"#utility.yul\":13588:13592   */\n      dup2\n        /* \"#utility.yul\":13584:13604   */\n      sub\n        /* \"#utility.yul\":13580:13581   */\n      0x00\n        /* \"#utility.yul\":13569:13578   */\n      dup4\n        /* \"#utility.yul\":13565:13582   */\n      add\n        /* \"#utility.yul\":13558:13605   */\n      mstore\n        /* \"#utility.yul\":13622:13700   */\n      tag_537\n        /* \"#utility.yul\":13695:13699   */\n      dup2\n        /* \"#utility.yul\":13686:13692   */\n      dup5\n        /* \"#utility.yul\":13622:13700   */\n      tag_383\n      jump\t// in\n    tag_537:\n        /* \"#utility.yul\":13614:13700   */\n      swap1\n      pop\n        /* \"#utility.yul\":13394:13707   */\n      swap3\n      swap2\n      pop\n      pop\n      jump\t// out\n        /* \"#utility.yul\":13713:16614   */\n    tag_39:\n        /* \"#utility.yul\":13923:13929   */\n      0x00\n        /* \"#utility.yul\":13931:13937   */\n      dup1\n        /* \"#utility.yul\":13939:13945   */\n      0x00\n        /* \"#utility.yul\":13947:13953   */\n      dup1\n        /* \"#utility.yul\":13955:13961   */\n      0x00\n        /* \"#utility.yul\":13963:13969   */\n      dup1\n        /* \"#utility.yul\":13971:13977   */\n      0x00\n        /* \"#utility.yul\":13979:13985   */\n      dup1\n        /* \"#utility.yul\":13987:13993   */\n      0x00\n        /* \"#utility.yul\":13995:14001   */\n      dup1\n        /* \"#utility.yul\":14044:14047   */\n      0x0140\n        /* \"#utility.yul\":14032:14041   */\n      dup12\n        /* \"#utility.yul\":14023:14030   */\n      dup14\n        /* \"#utility.yul\":14019:14042   */\n      sub\n        /* \"#utility.yul\":14015:14048   */\n      slt\n        /* \"#utility.yul\":14012:14132   */\n      iszero\n      tag_539\n      jumpi\n        /* \"#utility.yul\":14051:14130   */\n      tag_540\n      tag_369\n      jump\t// in\n    tag_540:\n        /* \"#utility.yul\":14012:14132   */\n    tag_539:\n        /* \"#utility.yul\":14199:14200   */\n      0x00\n        /* \"#utility.yul\":14188:14197   */\n      dup12\n        /* \"#utility.yul\":14184:14201   */\n      add\n        /* \"#utility.yul\":14171:14202   */\n      calldataload\n        /* \"#utility.yul\":14229:14247   */\n      0xffffffffffffffff\n        /* \"#utility.yul\":14221:14227   */\n      dup2\n        /* \"#utility.yul\":14218:14248   */\n      gt\n        /* \"#utility.yul\":14215:14332   */\n      iszero\n      tag_541\n      jumpi\n        /* \"#utility.yul\":14251:14330   */\n      tag_542\n      tag_370\n      jump\t// in\n    tag_542:\n        /* \"#utility.yul\":14215:14332   */\n    tag_541:\n        /* \"#utility.yul\":14356:14419   */\n      tag_543\n        /* \"#utility.yul\":14411:14418   */\n      dup14\n        /* \"#utility.yul\":14402:14408   */\n      dup3\n        /* \"#utility.yul\":14391:14400   */\n      dup15\n        /* \"#utility.yul\":14387:14409   */\n      add\n        /* \"#utility.yul\":14356:14419   */\n      tag_379\n      jump\t// in\n    tag_543:\n        /* \"#utility.yul\":14346:14419   */\n      swap11\n      pop\n        /* \"#utility.yul\":14142:14429   */\n      pop\n        /* \"#utility.yul\":14496:14498   */\n      0x20\n        /* \"#utility.yul\":14485:14494   */\n      dup12\n        /* \"#utility.yul\":14481:14499   */\n      add\n        /* \"#utility.yul\":14468:14500   */\n      calldataload\n        /* \"#utility.yul\":14527:14545   */\n      0xffffffffffffffff\n        /* \"#utility.yul\":14519:14525   */\n      dup2\n        /* \"#utility.yul\":14516:14546   */\n      gt\n        /* \"#utility.yul\":14513:14630   */\n      iszero\n      tag_544\n      jumpi\n        /* \"#utility.yul\":14549:14628   */\n      tag_545\n      tag_370\n      jump\t// in\n    tag_545:\n        /* \"#utility.yul\":14513:14630   */\n    tag_544:\n        /* \"#utility.yul\":14654:14717   */\n      tag_546\n        /* \"#utility.yul\":14709:14716   */\n      dup14\n        /* \"#utility.yul\":14700:14706   */\n      dup3\n        /* \"#utility.yul\":14689:14698   */\n      dup15\n        /* \"#utility.yul\":14685:14707   */\n      add\n        /* \"#utility.yul\":14654:14717   */\n      tag_379\n      jump\t// in\n    tag_546:\n        /* \"#utility.yul\":14644:14717   */\n      swap10\n      pop\n        /* \"#utility.yul\":14439:14727   */\n      pop\n        /* \"#utility.yul\":14794:14796   */\n      0x40\n        /* \"#utility.yul\":14783:14792   */\n      dup12\n        /* \"#utility.yul\":14779:14797   */\n      add\n        /* \"#utility.yul\":14766:14798   */\n      calldataload\n        /* \"#utility.yul\":14825:14843   */\n      0xffffffffffffffff\n        /* \"#utility.yul\":14817:14823   */\n      dup2\n        /* \"#utility.yul\":14814:14844   */\n      gt\n        /* \"#utility.yul\":14811:14928   */\n      iszero\n      tag_547\n      jumpi\n        /* \"#utility.yul\":14847:14926   */\n      tag_548\n      tag_370\n      jump\t// in\n    tag_548:\n        /* \"#utility.yul\":14811:14928   */\n    tag_547:\n        /* \"#utility.yul\":14952:15015   */\n      tag_549\n        /* \"#utility.yul\":15007:15014   */\n      dup14\n        /* \"#utility.yul\":14998:15004   */\n      dup3\n        /* \"#utility.yul\":14987:14996   */\n      dup15\n        /* \"#utility.yul\":14983:15005   */\n      add\n        /* \"#utility.yul\":14952:15015   */\n      tag_379\n      jump\t// in\n    tag_549:\n        /* \"#utility.yul\":14942:15015   */\n      swap9\n      pop\n        /* \"#utility.yul\":14737:15025   */\n      pop\n        /* \"#utility.yul\":15092:15094   */\n      0x60\n        /* \"#utility.yul\":15081:15090   */\n      dup12\n        /* \"#utility.yul\":15077:15095   */\n      add\n        /* \"#utility.yul\":15064:15096   */\n      calldataload\n        /* \"#utility.yul\":15123:15141   */\n      0xffffffffffffffff\n        /* \"#utility.yul\":15115:15121   */\n      dup2\n        /* \"#utility.yul\":15112:15142   */\n      gt\n        /* \"#utility.yul\":15109:15226   */\n      iszero\n      tag_550\n      jumpi\n        /* \"#utility.yul\":15145:15224   */\n      tag_551\n      tag_370\n      jump\t// in\n    tag_551:\n        /* \"#utility.yul\":15109:15226   */\n    tag_550:\n        /* \"#utility.yul\":15250:15313   */\n      tag_552\n        /* \"#utility.yul\":15305:15312   */\n      dup14\n        /* \"#utility.yul\":15296:15302   */\n      dup3\n        /* \"#utility.yul\":15285:15294   */\n      dup15\n        /* \"#utility.yul\":15281:15303   */\n      add\n        /* \"#utility.yul\":15250:15313   */\n      tag_379\n      jump\t// in\n    tag_552:\n        /* \"#utility.yul\":15240:15313   */\n      swap8\n      pop\n        /* \"#utility.yul\":15035:15323   */\n      pop\n        /* \"#utility.yul\":15390:15393   */\n      0x80\n        /* \"#utility.yul\":15379:15388   */\n      dup12\n        /* \"#utility.yul\":15375:15394   */\n      add\n        /* \"#utility.yul\":15362:15395   */\n      calldataload\n        /* \"#utility.yul\":15422:15440   */\n      0xffffffffffffffff\n        /* \"#utility.yul\":15414:15420   */\n      dup2\n        /* \"#utility.yul\":15411:15441   */\n      gt\n        /* \"#utility.yul\":15408:15525   */\n      iszero\n      tag_553\n      jumpi\n        /* \"#utility.yul\":15444:15523   */\n      tag_554\n      tag_370\n      jump\t// in\n    tag_554:\n        /* \"#utility.yul\":15408:15525   */\n    tag_553:\n        /* \"#utility.yul\":15549:15612   */\n      tag_555\n        /* \"#utility.yul\":15604:15611   */\n      dup14\n        /* \"#utility.yul\":15595:15601   */\n      dup3\n        /* \"#utility.yul\":15584:15593   */\n      dup15\n        /* \"#utility.yul\":15580:15602   */\n      add\n        /* \"#utility.yul\":15549:15612   */\n      tag_379\n      jump\t// in\n    tag_555:\n        /* \"#utility.yul\":15539:15612   */\n      swap7\n      pop\n        /* \"#utility.yul\":15333:15622   */\n      pop\n        /* \"#utility.yul\":15689:15692   */\n      0xa0\n        /* \"#utility.yul\":15678:15687   */\n      dup12\n        /* \"#utility.yul\":15674:15693   */\n      add\n        /* \"#utility.yul\":15661:15694   */\n      calldataload\n        /* \"#utility.yul\":15721:15739   */\n      0xffffffffffffffff\n        /* \"#utility.yul\":15713:15719   */\n      dup2\n        /* \"#utility.yul\":15710:15740   */\n      gt\n        /* \"#utility.yul\":15707:15824   */\n      iszero\n      tag_556\n      jumpi\n        /* \"#utility.yul\":15743:15822   */\n      tag_557\n      tag_370\n      jump\t// in\n    tag_557:\n        /* \"#utility.yul\":15707:15824   */\n    tag_556:\n        /* \"#utility.yul\":15848:15911   */\n      tag_558\n        /* \"#utility.yul\":15903:15910   */\n      dup14\n        /* \"#utility.yul\":15894:15900   */\n      dup3\n        /* \"#utility.yul\":15883:15892   */\n      dup15\n        /* \"#utility.yul\":15879:15901   */\n      add\n        /* \"#utility.yul\":15848:15911   */\n      tag_379\n      jump\t// in\n    tag_558:\n        /* \"#utility.yul\":15838:15911   */\n      swap6\n      pop\n        /* \"#utility.yul\":15632:15921   */\n      pop\n        /* \"#utility.yul\":15960:15963   */\n      0xc0\n        /* \"#utility.yul\":15987:16040   */\n      tag_559\n        /* \"#utility.yul\":16032:16039   */\n      dup14\n        /* \"#utility.yul\":16023:16029   */\n      dup3\n        /* \"#utility.yul\":16012:16021   */\n      dup15\n        /* \"#utility.yul\":16008:16030   */\n      add\n        /* \"#utility.yul\":15987:16040   */\n      tag_397\n      jump\t// in\n    tag_559:\n        /* \"#utility.yul\":15977:16040   */\n      swap5\n      pop\n        /* \"#utility.yul\":15931:16050   */\n      pop\n        /* \"#utility.yul\":16089:16092   */\n      0xe0\n        /* \"#utility.yul\":16116:16169   */\n      tag_560\n        /* \"#utility.yul\":16161:16168   */\n      dup14\n        /* \"#utility.yul\":16152:16158   */\n      dup3\n        /* \"#utility.yul\":16141:16150   */\n      dup15\n        /* \"#utility.yul\":16137:16159   */\n      add\n        /* \"#utility.yul\":16116:16169   */\n      tag_397\n      jump\t// in\n    tag_560:\n        /* \"#utility.yul\":16106:16169   */\n      swap4\n      pop\n        /* \"#utility.yul\":16060:16179   */\n      pop\n        /* \"#utility.yul\":16246:16249   */\n      0x0100\n        /* \"#utility.yul\":16235:16244   */\n      dup12\n        /* \"#utility.yul\":16231:16250   */\n      add\n        /* \"#utility.yul\":16218:16251   */\n      calldataload\n        /* \"#utility.yul\":16278:16296   */\n      0xffffffffffffffff\n        /* \"#utility.yul\":16270:16276   */\n      dup2\n        /* \"#utility.yul\":16267:16297   */\n      gt\n        /* \"#utility.yul\":16264:16381   */\n      iszero\n      tag_561\n      jumpi\n        /* \"#utility.yul\":16300:16379   */\n      tag_562\n      tag_370\n      jump\t// in\n    tag_562:\n        /* \"#utility.yul\":16264:16381   */\n    tag_561:\n        /* \"#utility.yul\":16405:16468   */\n      tag_563\n        /* \"#utility.yul\":16460:16467   */\n      dup14\n        /* \"#utility.yul\":16451:16457   */\n      dup3\n        /* \"#utility.yul\":16440:16449   */\n      dup15\n        /* \"#utility.yul\":16436:16458   */\n      add\n        /* \"#utility.yul\":16405:16468   */\n      tag_379\n      jump\t// in\n    tag_563:\n        /* \"#utility.yul\":16395:16468   */\n      swap3\n      pop\n        /* \"#utility.yul\":16189:16478   */\n      pop\n        /* \"#utility.yul\":16517:16520   */\n      0x0120\n        /* \"#utility.yul\":16544:16597   */\n      tag_564\n        /* \"#utility.yul\":16589:16596   */\n      dup14\n        /* \"#utility.yul\":16580:16586   */\n      dup3\n        /* \"#utility.yul\":16569:16578   */\n      dup15\n        /* \"#utility.yul\":16565:16587   */\n      add\n        /* \"#utility.yul\":16544:16597   */\n      tag_397\n      jump\t// in\n    tag_564:\n        /* \"#utility.yul\":16534:16597   */\n      swap2\n      pop\n        /* \"#utility.yul\":16488:16607   */\n      pop\n        /* \"#utility.yul\":13713:16614   */\n      swap3\n      swap6\n      swap9\n      swap12\n      swap2\n      swap5\n      swap8\n      swap11\n      pop\n      swap3\n      swap6\n      swap9\n      pop\n      jump\t// out\n        /* \"#utility.yul\":16708:19219   */\n    tag_398:\n        /* \"#utility.yul\":16831:16834   */\n      0x00\n        /* \"#utility.yul\":16867:16873   */\n      0x0140\n        /* \"#utility.yul\":16862:16865   */\n      dup4\n        /* \"#utility.yul\":16858:16874   */\n      add\n        /* \"#utility.yul\":16967:16971   */\n      0x00\n        /* \"#utility.yul\":16960:16965   */\n      dup4\n        /* \"#utility.yul\":16956:16972   */\n      add\n        /* \"#utility.yul\":16950:16973   */\n      mload\n        /* \"#utility.yul\":17020:17023   */\n      dup5\n        /* \"#utility.yul\":17014:17018   */\n      dup3\n        /* \"#utility.yul\":17010:17024   */\n      sub\n        /* \"#utility.yul\":17003:17007   */\n      0x00\n        /* \"#utility.yul\":16998:17001   */\n      dup7\n        /* \"#utility.yul\":16994:17008   */\n      add\n        /* \"#utility.yul\":16987:17025   */\n      mstore\n        /* \"#utility.yul\":17046:17119   */\n      tag_566\n        /* \"#utility.yul\":17114:17118   */\n      dup3\n        /* \"#utility.yul\":17100:17112   */\n      dup3\n        /* \"#utility.yul\":17046:17119   */\n      tag_390\n      jump\t// in\n    tag_566:\n        /* \"#utility.yul\":17038:17119   */\n      swap2\n      pop\n        /* \"#utility.yul\":16884:17130   */\n      pop\n        /* \"#utility.yul\":17218:17222   */\n      0x20\n        /* \"#utility.yul\":17211:17216   */\n      dup4\n        /* \"#utility.yul\":17207:17223   */\n      add\n        /* \"#utility.yul\":17201:17224   */\n      mload\n        /* \"#utility.yul\":17271:17274   */\n      dup5\n        /* \"#utility.yul\":17265:17269   */\n      dup3\n        /* \"#utility.yul\":17261:17275   */\n      sub\n        /* \"#utility.yul\":17254:17258   */\n      0x20\n        /* \"#utility.yul\":17249:17252   */\n      dup7\n        /* \"#utility.yul\":17245:17259   */\n      add\n        /* \"#utility.yul\":17238:17276   */\n      mstore\n        /* \"#utility.yul\":17297:17370   */\n      tag_567\n        /* \"#utility.yul\":17365:17369   */\n      dup3\n        /* \"#utility.yul\":17351:17363   */\n      dup3\n        /* \"#utility.yul\":17297:17370   */\n      tag_390\n      jump\t// in\n    tag_567:\n        /* \"#utility.yul\":17289:17370   */\n      swap2\n      pop\n        /* \"#utility.yul\":17140:17381   */\n      pop\n        /* \"#utility.yul\":17471:17475   */\n      0x40\n        /* \"#utility.yul\":17464:17469   */\n      dup4\n        /* \"#utility.yul\":17460:17476   */\n      add\n        /* \"#utility.yul\":17454:17477   */\n      mload\n        /* \"#utility.yul\":17524:17527   */\n      dup5\n        /* \"#utility.yul\":17518:17522   */\n      dup3\n        /* \"#utility.yul\":17514:17528   */\n      sub\n        /* \"#utility.yul\":17507:17511   */\n      0x40\n        /* \"#utility.yul\":17502:17505   */\n      dup7\n        /* \"#utility.yul\":17498:17512   */\n      add\n        /* \"#utility.yul\":17491:17529   */\n      mstore\n        /* \"#utility.yul\":17550:17623   */\n      tag_568\n        /* \"#utility.yul\":17618:17622   */\n      dup3\n        /* \"#utility.yul\":17604:17616   */\n      dup3\n        /* \"#utility.yul\":17550:17623   */\n      tag_390\n      jump\t// in\n    tag_568:\n        /* \"#utility.yul\":17542:17623   */\n      swap2\n      pop\n        /* \"#utility.yul\":17391:17634   */\n      pop\n        /* \"#utility.yul\":17721:17725   */\n      0x60\n        /* \"#utility.yul\":17714:17719   */\n      dup4\n        /* \"#utility.yul\":17710:17726   */\n      add\n        /* \"#utility.yul\":17704:17727   */\n      mload\n        /* \"#utility.yul\":17774:17777   */\n      dup5\n        /* \"#utility.yul\":17768:17772   */\n      dup3\n        /* \"#utility.yul\":17764:17778   */\n      sub\n        /* \"#utility.yul\":17757:17761   */\n      0x60\n        /* \"#utility.yul\":17752:17755   */\n      dup7\n        /* \"#utility.yul\":17748:17762   */\n      add\n        /* \"#utility.yul\":17741:17779   */\n      mstore\n        /* \"#utility.yul\":17800:17873   */\n      tag_569\n        /* \"#utility.yul\":17868:17872   */\n      dup3\n        /* \"#utility.yul\":17854:17866   */\n      dup3\n        /* \"#utility.yul\":17800:17873   */\n      tag_390\n      jump\t// in\n    tag_569:\n        /* \"#utility.yul\":17792:17873   */\n      swap2\n      pop\n        /* \"#utility.yul\":17644:17884   */\n      pop\n        /* \"#utility.yul\":17975:17979   */\n      0x80\n        /* \"#utility.yul\":17968:17973   */\n      dup4\n        /* \"#utility.yul\":17964:17980   */\n      add\n        /* \"#utility.yul\":17958:17981   */\n      mload\n        /* \"#utility.yul\":18028:18031   */\n      dup5\n        /* \"#utility.yul\":18022:18026   */\n      dup3\n        /* \"#utility.yul\":18018:18032   */\n      sub\n        /* \"#utility.yul\":18011:18015   */\n      0x80\n        /* \"#utility.yul\":18006:18009   */\n      dup7\n        /* \"#utility.yul\":18002:18016   */\n      add\n        /* \"#utility.yul\":17995:18033   */\n      mstore\n        /* \"#utility.yul\":18054:18127   */\n      tag_570\n        /* \"#utility.yul\":18122:18126   */\n      dup3\n        /* \"#utility.yul\":18108:18120   */\n      dup3\n        /* \"#utility.yul\":18054:18127   */\n      tag_390\n      jump\t// in\n    tag_570:\n        /* \"#utility.yul\":18046:18127   */\n      swap2\n      pop\n        /* \"#utility.yul\":17894:18138   */\n      pop\n        /* \"#utility.yul\":18222:18226   */\n      0xa0\n        /* \"#utility.yul\":18215:18220   */\n      dup4\n        /* \"#utility.yul\":18211:18227   */\n      add\n        /* \"#utility.yul\":18205:18228   */\n      mload\n        /* \"#utility.yul\":18275:18278   */\n      dup5\n        /* \"#utility.yul\":18269:18273   */\n      dup3\n        /* \"#utility.yul\":18265:18279   */\n      sub\n        /* \"#utility.yul\":18258:18262   */\n      0xa0\n        /* \"#utility.yul\":18253:18256   */\n      dup7\n        /* \"#utility.yul\":18249:18263   */\n      add\n        /* \"#utility.yul\":18242:18280   */\n      mstore\n        /* \"#utility.yul\":18301:18374   */\n      tag_571\n        /* \"#utility.yul\":18369:18373   */\n      dup3\n        /* \"#utility.yul\":18355:18367   */\n      dup3\n        /* \"#utility.yul\":18301:18374   */\n      tag_390\n      jump\t// in\n    tag_571:\n        /* \"#utility.yul\":18293:18374   */\n      swap2\n      pop\n        /* \"#utility.yul\":18148:18385   */\n      pop\n        /* \"#utility.yul\":18471:18475   */\n      0xc0\n        /* \"#utility.yul\":18464:18469   */\n      dup4\n        /* \"#utility.yul\":18460:18476   */\n      add\n        /* \"#utility.yul\":18454:18477   */\n      mload\n        /* \"#utility.yul\":18490:18553   */\n      tag_572\n        /* \"#utility.yul\":18547:18551   */\n      0xc0\n        /* \"#utility.yul\":18542:18545   */\n      dup7\n        /* \"#utility.yul\":18538:18552   */\n      add\n        /* \"#utility.yul\":18524:18536   */\n      dup3\n        /* \"#utility.yul\":18490:18553   */\n      tag_391\n      jump\t// in\n    tag_572:\n        /* \"#utility.yul\":18395:18563   */\n      pop\n        /* \"#utility.yul\":18651:18655   */\n      0xe0\n        /* \"#utility.yul\":18644:18649   */\n      dup4\n        /* \"#utility.yul\":18640:18656   */\n      add\n        /* \"#utility.yul\":18634:18657   */\n      mload\n        /* \"#utility.yul\":18670:18733   */\n      tag_573\n        /* \"#utility.yul\":18727:18731   */\n      0xe0\n        /* \"#utility.yul\":18722:18725   */\n      dup7\n        /* \"#utility.yul\":18718:18732   */\n      add\n        /* \"#utility.yul\":18704:18716   */\n      dup3\n        /* \"#utility.yul\":18670:18733   */\n      tag_391\n      jump\t// in\n    tag_573:\n        /* \"#utility.yul\":18573:18743   */\n      pop\n        /* \"#utility.yul\":18842:18848   */\n      0x0100\n        /* \"#utility.yul\":18835:18840   */\n      dup4\n        /* \"#utility.yul\":18831:18849   */\n      add\n        /* \"#utility.yul\":18825:18850   */\n      mload\n        /* \"#utility.yul\":18899:18902   */\n      dup5\n        /* \"#utility.yul\":18893:18897   */\n      dup3\n        /* \"#utility.yul\":18889:18903   */\n      sub\n        /* \"#utility.yul\":18880:18886   */\n      0x0100\n        /* \"#utility.yul\":18875:18878   */\n      dup7\n        /* \"#utility.yul\":18871:18887   */\n      add\n        /* \"#utility.yul\":18864:18904   */\n      mstore\n        /* \"#utility.yul\":18925:18998   */\n      tag_574\n        /* \"#utility.yul\":18993:18997   */\n      dup3\n        /* \"#utility.yul\":18979:18991   */\n      dup3\n        /* \"#utility.yul\":18925:18998   */\n      tag_390\n      jump\t// in\n    tag_574:\n        /* \"#utility.yul\":18917:18998   */\n      swap2\n      pop\n        /* \"#utility.yul\":18753:19009   */\n      pop\n        /* \"#utility.yul\":19096:19102   */\n      0x0120\n        /* \"#utility.yul\":19089:19094   */\n      dup4\n        /* \"#utility.yul\":19085:19103   */\n      add\n        /* \"#utility.yul\":19079:19104   */\n      mload\n        /* \"#utility.yul\":19117:19182   */\n      tag_575\n        /* \"#utility.yul\":19174:19180   */\n      0x0120\n        /* \"#utility.yul\":19169:19172   */\n      dup7\n        /* \"#utility.yul\":19165:19181   */\n      add\n        /* \"#utility.yul\":19151:19163   */\n      dup3\n        /* \"#utility.yul\":19117:19182   */\n      tag_391\n      jump\t// in\n    tag_575:\n        /* \"#utility.yul\":19019:19192   */\n      pop\n        /* \"#utility.yul\":19209:19213   */\n      dup1\n        /* \"#utility.yul\":19202:19213   */\n      swap2\n      pop\n        /* \"#utility.yul\":16836:19219   */\n      pop\n        /* \"#utility.yul\":16708:19219   */\n      swap3\n      swap2\n      pop\n      pop\n      jump\t// out\n        /* \"#utility.yul\":19225:19606   */\n    tag_49:\n        /* \"#utility.yul\":19372:19376   */\n      0x00\n        /* \"#utility.yul\":19410:19412   */\n      0x20\n        /* \"#utility.yul\":19399:19408   */\n      dup3\n        /* \"#utility.yul\":19395:19413   */\n      add\n        /* \"#utility.yul\":19387:19413   */\n      swap1\n      pop\n        /* \"#utility.yul\":19459:19468   */\n      dup2\n        /* \"#utility.yul\":19453:19457   */\n      dup2\n        /* \"#utility.yul\":19449:19469   */\n      sub\n        /* \"#utility.yul\":19445:19446   */\n      0x00\n        /* \"#utility.yul\":19434:19443   */\n      dup4\n        /* \"#utility.yul\":19430:19447   */\n      add\n        /* \"#utility.yul\":19423:19470   */\n      mstore\n        /* \"#utility.yul\":19487:19599   */\n      tag_577\n        /* \"#utility.yul\":19594:19598   */\n      dup2\n        /* \"#utility.yul\":19585:19591   */\n      dup5\n        /* \"#utility.yul\":19487:19599   */\n      tag_398\n      jump\t// in\n    tag_577:\n        /* \"#utility.yul\":19479:19599   */\n      swap1\n      pop\n        /* \"#utility.yul\":19225:19606   */\n      swap3\n      swap2\n      pop\n      pop\n      jump\t// out\n        /* \"#utility.yul\":19612:19792   */\n    tag_399:\n        /* \"#utility.yul\":19660:19737   */\n      0x4e487b7100000000000000000000000000000000000000000000000000000000\n        /* \"#utility.yul\":19657:19658   */\n      0x00\n        /* \"#utility.yul\":19650:19738   */\n      mstore\n        /* \"#utility.yul\":19757:19761   */\n      0x22\n        /* \"#utility.yul\":19754:19755   */\n      0x04\n        /* \"#utility.yul\":19747:19762   */\n      mstore\n        /* \"#utility.yul\":19781:19785   */\n      0x24\n        /* \"#utility.yul\":19778:19779   */\n      0x00\n        /* \"#utility.yul\":19771:19786   */\n      revert\n        /* \"#utility.yul\":19798:20118   */\n    tag_54:\n        /* \"#utility.yul\":19842:19848   */\n      0x00\n        /* \"#utility.yul\":19879:19880   */\n      0x02\n        /* \"#utility.yul\":19873:19877   */\n      dup3\n        /* \"#utility.yul\":19869:19881   */\n      div\n        /* \"#utility.yul\":19859:19881   */\n      swap1\n      pop\n        /* \"#utility.yul\":19926:19927   */\n      0x01\n        /* \"#utility.yul\":19920:19924   */\n      dup3\n        /* \"#utility.yul\":19916:19928   */\n      and\n        /* \"#utility.yul\":19947:19965   */\n      dup1\n        /* \"#utility.yul\":19937:20018   */\n      tag_580\n      jumpi\n        /* \"#utility.yul\":20003:20007   */\n      0x7f\n        /* \"#utility.yul\":19995:20001   */\n      dup3\n        /* \"#utility.yul\":19991:20008   */\n      and\n        /* \"#utility.yul\":19981:20008   */\n      swap2\n      pop\n        /* \"#utility.yul\":19937:20018   */\n    tag_580:\n        /* \"#utility.yul\":20065:20067   */\n      0x20\n        /* \"#utility.yul\":20057:20063   */\n      dup3\n        /* \"#utility.yul\":20054:20068   */\n      lt\n        /* \"#utility.yul\":20034:20052   */\n      dup2\n        /* \"#utility.yul\":20031:20069   */\n      sub\n        /* \"#utility.yul\":20028:20112   */\n      tag_581\n      jumpi\n        /* \"#utility.yul\":20084:20102   */\n      tag_582\n      tag_399\n      jump\t// in\n    tag_582:\n        /* \"#utility.yul\":20028:20112   */\n    tag_581:\n        /* \"#utility.yul\":19849:20118   */\n      pop\n        /* \"#utility.yul\":19798:20118   */\n      swap2\n      swap1\n      pop\n      jump\t// out\n        /* \"#utility.yul\":20124:20304   */\n    tag_102:\n        /* \"#utility.yul\":20172:20249   */\n      0x4e487b7100000000000000000000000000000000000000000000000000000000\n        /* \"#utility.yul\":20169:20170   */\n      0x00\n        /* \"#utility.yul\":20162:20250   */\n      mstore\n        /* \"#utility.yul\":20269:20273   */\n      0x32\n        /* \"#utility.yul\":20266:20267   */\n      0x04\n        /* \"#utility.yul\":20259:20274   */\n      mstore\n        /* \"#utility.yul\":20293:20297   */\n      0x24\n        /* \"#utility.yul\":20290:20291   */\n      0x00\n        /* \"#utility.yul\":20283:20298   */\n      revert\n        /* \"#utility.yul\":20310:20458   */\n    tag_400:\n        /* \"#utility.yul\":20412:20423   */\n      0x00\n        /* \"#utility.yul\":20449:20452   */\n      dup2\n        /* \"#utility.yul\":20434:20452   */\n      swap1\n      pop\n        /* \"#utility.yul\":20310:20458   */\n      swap3\n      swap2\n      pop\n      pop\n      jump\t// out\n        /* \"#utility.yul\":20464:20605   */\n    tag_401:\n        /* \"#utility.yul\":20513:20517   */\n      0x00\n        /* \"#utility.yul\":20536:20539   */\n      dup2\n        /* \"#utility.yul\":20528:20539   */\n      swap1\n      pop\n        /* \"#utility.yul\":20559:20562   */\n      dup2\n        /* \"#utility.yul\":20556:20557   */\n      0x00\n        /* \"#utility.yul\":20549:20563   */\n      mstore\n        /* \"#utility.yul\":20593:20597   */\n      0x20\n        /* \"#utility.yul\":20590:20591   */\n      0x00\n        /* \"#utility.yul\":20580:20598   */\n      keccak256\n        /* \"#utility.yul\":20572:20598   */\n      swap1\n      pop\n        /* \"#utility.yul\":20464:20605   */\n      swap2\n      swap1\n      pop\n      jump\t// out\n        /* \"#utility.yul\":20635:21509   */\n    tag_402:\n        /* \"#utility.yul\":20738:20741   */\n      0x00\n        /* \"#utility.yul\":20775:20780   */\n      dup2\n        /* \"#utility.yul\":20769:20781   */\n      sload\n        /* \"#utility.yul\":20804:20840   */\n      tag_587\n        /* \"#utility.yul\":20830:20839   */\n      dup2\n        /* \"#utility.yul\":20804:20840   */\n      tag_54\n      jump\t// in\n    tag_587:\n        /* \"#utility.yul\":20856:20945   */\n      tag_588\n        /* \"#utility.yul\":20938:20944   */\n      dup2\n        /* \"#utility.yul\":20933:20936   */\n      dup7\n        /* \"#utility.yul\":20856:20945   */\n      tag_400\n      jump\t// in\n    tag_588:\n        /* \"#utility.yul\":20849:20945   */\n      swap5\n      pop\n        /* \"#utility.yul\":20976:20977   */\n      0x01\n        /* \"#utility.yul\":20965:20974   */\n      dup3\n        /* \"#utility.yul\":20961:20978   */\n      and\n        /* \"#utility.yul\":20992:20993   */\n      0x00\n        /* \"#utility.yul\":20987:21153   */\n      dup2\n      eq\n      tag_590\n      jumpi\n        /* \"#utility.yul\":21167:21168   */\n      0x01\n        /* \"#utility.yul\":21162:21503   */\n      dup2\n      eq\n      tag_591\n      jumpi\n        /* \"#utility.yul\":20954:21503   */\n      jump(tag_589)\n        /* \"#utility.yul\":20987:21153   */\n    tag_590:\n        /* \"#utility.yul\":21071:21075   */\n      0xff\n        /* \"#utility.yul\":21067:21076   */\n      not\n        /* \"#utility.yul\":21056:21065   */\n      dup4\n        /* \"#utility.yul\":21052:21077   */\n      and\n        /* \"#utility.yul\":21047:21050   */\n      dup7\n        /* \"#utility.yul\":21040:21078   */\n      mstore\n        /* \"#utility.yul\":21133:21139   */\n      dup2\n        /* \"#utility.yul\":21126:21140   */\n      iszero\n        /* \"#utility.yul\":21119:21141   */\n      iszero\n        /* \"#utility.yul\":21111:21117   */\n      dup3\n        /* \"#utility.yul\":21107:21142   */\n      mul\n        /* \"#utility.yul\":21102:21105   */\n      dup7\n        /* \"#utility.yul\":21098:21143   */\n      add\n        /* \"#utility.yul\":21091:21143   */\n      swap4\n      pop\n        /* \"#utility.yul\":20987:21153   */\n      jump(tag_589)\n        /* \"#utility.yul\":21162:21503   */\n    tag_591:\n        /* \"#utility.yul\":21229:21267   */\n      tag_592\n        /* \"#utility.yul\":21261:21266   */\n      dup6\n        /* \"#utility.yul\":21229:21267   */\n      tag_401\n      jump\t// in\n    tag_592:\n        /* \"#utility.yul\":21289:21290   */\n      0x00\n        /* \"#utility.yul\":21303:21457   */\n    tag_593:\n        /* \"#utility.yul\":21317:21323   */\n      dup4\n        /* \"#utility.yul\":21314:21315   */\n      dup2\n        /* \"#utility.yul\":21311:21324   */\n      lt\n        /* \"#utility.yul\":21303:21457   */\n      iszero\n      tag_595\n      jumpi\n        /* \"#utility.yul\":21391:21398   */\n      dup2\n        /* \"#utility.yul\":21385:21399   */\n      sload\n        /* \"#utility.yul\":21381:21382   */\n      dup2\n        /* \"#utility.yul\":21376:21379   */\n      dup10\n        /* \"#utility.yul\":21372:21383   */\n      add\n        /* \"#utility.yul\":21365:21400   */\n      mstore\n        /* \"#utility.yul\":21441:21442   */\n      0x01\n        /* \"#utility.yul\":21432:21439   */\n      dup3\n        /* \"#utility.yul\":21428:21443   */\n      add\n        /* \"#utility.yul\":21417:21443   */\n      swap2\n      pop\n        /* \"#utility.yul\":21339:21343   */\n      0x20\n        /* \"#utility.yul\":21336:21337   */\n      dup2\n        /* \"#utility.yul\":21332:21344   */\n      add\n        /* \"#utility.yul\":21327:21344   */\n      swap1\n      pop\n        /* \"#utility.yul\":21303:21457   */\n      jump(tag_593)\n    tag_595:\n        /* \"#utility.yul\":21486:21492   */\n      dup4\n        /* \"#utility.yul\":21481:21484   */\n      dup9\n        /* \"#utility.yul\":21477:21493   */\n      add\n        /* \"#utility.yul\":21470:21493   */\n      swap6\n      pop\n        /* \"#utility.yul\":21169:21503   */\n      pop\n      pop\n        /* \"#utility.yul\":20954:21503   */\n    tag_589:\n      pop\n        /* \"#utility.yul\":20742:21509   */\n      pop\n      pop\n        /* \"#utility.yul\":20635:21509   */\n      swap3\n      swap2\n      pop\n      pop\n      jump\t// out\n        /* \"#utility.yul\":21515:21784   */\n    tag_105:\n        /* \"#utility.yul\":21644:21647   */\n      0x00\n        /* \"#utility.yul\":21666:21758   */\n      tag_597\n        /* \"#utility.yul\":21754:21757   */\n      dup3\n        /* \"#utility.yul\":21745:21751   */\n      dup5\n        /* \"#utility.yul\":21666:21758   */\n      tag_402\n      jump\t// in\n    tag_597:\n        /* \"#utility.yul\":21659:21758   */\n      swap2\n      pop\n        /* \"#utility.yul\":21775:21778   */\n      dup2\n        /* \"#utility.yul\":21768:21778   */\n      swap1\n      pop\n        /* \"#utility.yul\":21515:21784   */\n      swap3\n      swap2\n      pop\n      pop\n      jump\t// out\n        /* \"#utility.yul\":21790:21970   */\n    tag_403:\n        /* \"#utility.yul\":21838:21915   */\n      0x4e487b7100000000000000000000000000000000000000000000000000000000\n        /* \"#utility.yul\":21835:21836   */\n      0x00\n        /* \"#utility.yul\":21828:21916   */\n      mstore\n        /* \"#utility.yul\":21935:21939   */\n      0x11\n        /* \"#utility.yul\":21932:21933   */\n      0x04\n        /* \"#utility.yul\":21925:21940   */\n      mstore\n        /* \"#utility.yul\":21959:21963   */\n      0x24\n        /* \"#utility.yul\":21956:21957   */\n      0x00\n        /* \"#utility.yul\":21949:21964   */\n      revert\n        /* \"#utility.yul\":21976:22209   */\n    tag_144:\n        /* \"#utility.yul\":22015:22018   */\n      0x00\n        /* \"#utility.yul\":22038:22062   */\n      tag_600\n        /* \"#utility.yul\":22056:22061   */\n      dup3\n        /* \"#utility.yul\":22038:22062   */\n      tag_384\n      jump\t// in\n    tag_600:\n        /* \"#utility.yul\":22029:22062   */\n      swap2\n      pop\n        /* \"#utility.yul\":22084:22150   */\n      0xffffffffffffffffffffffffffffffffffffffffffffffffffffffffffffffff\n        /* \"#utility.yul\":22077:22082   */\n      dup3\n        /* \"#utility.yul\":22074:22151   */\n      sub\n        /* \"#utility.yul\":22071:22174   */\n      tag_601\n      jumpi\n        /* \"#utility.yul\":22154:22172   */\n      tag_602\n      tag_403\n      jump\t// in\n    tag_602:\n        /* \"#utility.yul\":22071:22174   */\n    tag_601:\n        /* \"#utility.yul\":22201:22202   */\n      0x01\n        /* \"#utility.yul\":22194:22199   */\n      dup3\n        /* \"#utility.yul\":22190:22203   */\n      add\n        /* \"#utility.yul\":22183:22203   */\n      swap1\n      pop\n        /* \"#utility.yul\":21976:22209   */\n      swap2\n      swap1\n      pop\n      jump\t// out\n        /* \"#utility.yul\":22215:22605   */\n    tag_404:\n        /* \"#utility.yul\":22321:22324   */\n      0x00\n        /* \"#utility.yul\":22349:22388   */\n      tag_604\n        /* \"#utility.yul\":22382:22387   */\n      dup3\n        /* \"#utility.yul\":22349:22388   */\n      tag_380\n      jump\t// in\n    tag_604:\n        /* \"#utility.yul\":22404:22493   */\n      tag_605\n        /* \"#utility.yul\":22486:22492   */\n      dup2\n        /* \"#utility.yul\":22481:22484   */\n      dup6\n        /* \"#utility.yul\":22404:22493   */\n      tag_400\n      jump\t// in\n    tag_605:\n        /* \"#utility.yul\":22397:22493   */\n      swap4\n      pop\n        /* \"#utility.yul\":22502:22567   */\n      tag_606\n        /* \"#utility.yul\":22560:22566   */\n      dup2\n        /* \"#utility.yul\":22555:22558   */\n      dup6\n        /* \"#utility.yul\":22548:22552   */\n      0x20\n        /* \"#utility.yul\":22541:22546   */\n      dup7\n        /* \"#utility.yul\":22537:22553   */\n      add\n        /* \"#utility.yul\":22502:22567   */\n      tag_382\n      jump\t// in\n    tag_606:\n        /* \"#utility.yul\":22592:22598   */\n      dup1\n        /* \"#utility.yul\":22587:22590   */\n      dup5\n        /* \"#utility.yul\":22583:22599   */\n      add\n        /* \"#utility.yul\":22576:22599   */\n      swap2\n      pop\n        /* \"#utility.yul\":22325:22605   */\n      pop\n        /* \"#utility.yul\":22215:22605   */\n      swap3\n      swap2\n      pop\n      pop\n      jump\t// out\n        /* \"#utility.yul\":22611:22886   */\n    tag_147:\n        /* \"#utility.yul\":22743:22746   */\n      0x00\n        /* \"#utility.yul\":22765:22860   */\n      tag_608\n        /* \"#utility.yul\":22856:22859   */\n      dup3\n        /* \"#utility.yul\":22847:22853   */\n      dup5\n        /* \"#utility.yul\":22765:22860   */\n      tag_404\n      jump\t// in\n    tag_608:\n        /* \"#utility.yul\":22758:22860   */\n      swap2\n      pop\n        /* \"#utility.yul\":22877:22880   */\n      dup2\n        /* \"#utility.yul\":22870:22880   */\n      swap1\n      pop\n        /* \"#utility.yul\":22611:22886   */\n      swap3\n      swap2\n      pop\n      pop\n      jump\t// out\n        /* \"#utility.yul\":22892:23068   */\n    tag_405:\n        /* \"#utility.yul\":23032:23060   */\n      0x5472616e73616374696f6e20646f6573206e6f74206578697374000000000000\n        /* \"#utility.yul\":23028:23029   */\n      0x00\n        /* \"#utility.yul\":23020:23026   */\n      dup3\n        /* \"#utility.yul\":23016:23030   */\n      add\n        /* \"#utility.yul\":23009:23061   */\n      mstore\n        /* \"#utility.yul\":22892:23068   */\n      pop\n      jump\t// out\n        /* \"#utility.yul\":23074:23440   */\n    tag_406:\n        /* \"#utility.yul\":23216:23219   */\n      0x00\n        /* \"#utility.yul\":23237:23304   */\n      tag_611\n        /* \"#utility.yul\":23301:23303   */\n      0x1a\n        /* \"#utility.yul\":23296:23299   */\n      dup4\n        /* \"#utility.yul\":23237:23304   */\n      tag_381\n      jump\t// in\n    tag_611:\n        /* \"#utility.yul\":23230:23304   */\n      swap2\n      pop\n        /* \"#utility.yul\":23313:23406   */\n      tag_612\n        /* \"#utility.yul\":23402:23405   */\n      dup3\n        /* \"#utility.yul\":23313:23406   */\n      tag_405\n      jump\t// in\n    tag_612:\n        /* \"#utility.yul\":23431:23433   */\n      0x20\n        /* \"#utility.yul\":23426:23429   */\n      dup3\n        /* \"#utility.yul\":23422:23434   */\n      add\n        /* \"#utility.yul\":23415:23434   */\n      swap1\n      pop\n        /* \"#utility.yul\":23074:23440   */\n      swap2\n      swap1\n      pop\n      jump\t// out\n        /* \"#utility.yul\":23446:23865   */\n    tag_151:\n        /* \"#utility.yul\":23612:23616   */\n      0x00\n        /* \"#utility.yul\":23650:23652   */\n      0x20\n        /* \"#utility.yul\":23639:23648   */\n      dup3\n        /* \"#utility.yul\":23635:23653   */\n      add\n        /* \"#utility.yul\":23627:23653   */\n      swap1\n      pop\n        /* \"#utility.yul\":23699:23708   */\n      dup2\n        /* \"#utility.yul\":23693:23697   */\n      dup2\n        /* \"#utility.yul\":23689:23709   */\n      sub\n        /* \"#utility.yul\":23685:23686   */\n      0x00\n        /* \"#utility.yul\":23674:23683   */\n      dup4\n        /* \"#utility.yul\":23670:23687   */\n      add\n        /* \"#utility.yul\":23663:23710   */\n      mstore\n        /* \"#utility.yul\":23727:23858   */\n      tag_614\n        /* \"#utility.yul\":23853:23857   */\n      dup2\n        /* \"#utility.yul\":23727:23858   */\n      tag_406\n      jump\t// in\n    tag_614:\n        /* \"#utility.yul\":23719:23858   */\n      swap1\n      pop\n        /* \"#utility.yul\":23446:23865   */\n      swap2\n      swap1\n      pop\n      jump\t// out\n        /* \"#utility.yul\":23871:23964   */\n    tag_407:\n        /* \"#utility.yul\":23908:23914   */\n      0x00\n        /* \"#utility.yul\":23955:23957   */\n      0x20\n        /* \"#utility.yul\":23950:23952   */\n      0x1f\n        /* \"#utility.yul\":23943:23948   */\n      dup4\n        /* \"#utility.yul\":23939:23953   */\n      add\n        /* \"#utility.yul\":23935:23958   */\n      div\n        /* \"#utility.yul\":23925:23958   */\n      swap1\n      pop\n        /* \"#utility.yul\":23871:23964   */\n      swap2\n      swap1\n      pop\n      jump\t// out\n        /* \"#utility.yul\":23970:24077   */\n    tag_408:\n        /* \"#utility.yul\":24014:24022   */\n      0x00\n        /* \"#utility.yul\":24064:24069   */\n      dup3\n        /* \"#utility.yul\":24058:24062   */\n      dup3\n        /* \"#utility.yul\":24054:24070   */\n      shl\n        /* \"#utility.yul\":24033:24070   */\n      swap1\n      pop\n        /* \"#utility.yul\":23970:24077   */\n      swap3\n      swap2\n      pop\n      pop\n      jump\t// out\n        /* \"#utility.yul\":24083:24476   */\n    tag_409:\n        /* \"#utility.yul\":24152:24158   */\n      0x00\n        /* \"#utility.yul\":24202:24203   */\n      0x08\n        /* \"#utility.yul\":24190:24200   */\n      dup4\n        /* \"#utility.yul\":24186:24204   */\n      mul\n        /* \"#utility.yul\":24225:24322   */\n      tag_618\n        /* \"#utility.yul\":24255:24321   */\n      0xffffffffffffffffffffffffffffffffffffffffffffffffffffffffffffffff\n        /* \"#utility.yul\":24244:24253   */\n      dup3\n        /* \"#utility.yul\":24225:24322   */\n      tag_408\n      jump\t// in\n    tag_618:\n        /* \"#utility.yul\":24343:24382   */\n      tag_619\n        /* \"#utility.yul\":24373:24381   */\n      dup7\n        /* \"#utility.yul\":24362:24371   */\n      dup4\n        /* \"#utility.yul\":24343:24382   */\n      tag_408\n      jump\t// in\n    tag_619:\n        /* \"#utility.yul\":24331:24382   */\n      swap6\n      pop\n        /* \"#utility.yul\":24415:24419   */\n      dup1\n        /* \"#utility.yul\":24411:24420   */\n      not\n        /* \"#utility.yul\":24404:24409   */\n      dup5\n        /* \"#utility.yul\":24400:24421   */\n      and\n        /* \"#utility.yul\":24391:24421   */\n      swap4\n      pop\n        /* \"#utility.yul\":24464:24468   */\n      dup1\n        /* \"#utility.yul\":24454:24462   */\n      dup7\n        /* \"#utility.yul\":24450:24469   */\n      and\n        /* \"#utility.yul\":24443:24448   */\n      dup5\n        /* \"#utility.yul\":24440:24470   */\n      or\n        /* \"#utility.yul\":24430:24470   */\n      swap3\n      pop\n        /* \"#utility.yul\":24159:24476   */\n      pop\n      pop\n        /* \"#utility.yul\":24083:24476   */\n      swap4\n      swap3\n      pop\n      pop\n      pop\n      jump\t// out\n        /* \"#utility.yul\":24482:24542   */\n    tag_410:\n        /* \"#utility.yul\":24510:24513   */\n      0x00\n        /* \"#utility.yul\":24531:24536   */\n      dup2\n        /* \"#utility.yul\":24524:24536   */\n      swap1\n      pop\n        /* \"#utility.yul\":24482:24542   */\n      swap2\n      swap1\n      pop\n      jump\t// out\n        /* \"#utility.yul\":24548:24690   */\n    tag_411:\n        /* \"#utility.yul\":24598:24607   */\n      0x00\n        /* \"#utility.yul\":24631:24684   */\n      tag_622\n        /* \"#utility.yul\":24649:24683   */\n      tag_623\n        /* \"#utility.yul\":24658:24682   */\n      tag_624\n        /* \"#utility.yul\":24676:24681   */\n      dup5\n        /* \"#utility.yul\":24658:24682   */\n      tag_384\n      jump\t// in\n    tag_624:\n        /* \"#utility.yul\":24649:24683   */\n      tag_410\n      jump\t// in\n    tag_623:\n        /* \"#utility.yul\":24631:24684   */\n      tag_384\n      jump\t// in\n    tag_622:\n        /* \"#utility.yul\":24618:24684   */\n      swap1\n      pop\n        /* \"#utility.yul\":24548:24690   */\n      swap2\n      swap1\n      pop\n      jump\t// out\n        /* \"#utility.yul\":24696:24771   */\n    tag_412:\n        /* \"#utility.yul\":24739:24742   */\n      0x00\n        /* \"#utility.yul\":24760:24765   */\n      dup2\n        /* \"#utility.yul\":24753:24765   */\n      swap1\n      pop\n        /* \"#utility.yul\":24696:24771   */\n      swap2\n      swap1\n      pop\n      jump\t// out\n        /* \"#utility.yul\":24777:25046   */\n    tag_413:\n        /* \"#utility.yul\":24887:24926   */\n      tag_627\n        /* \"#utility.yul\":24918:24925   */\n      dup4\n        /* \"#utility.yul\":24887:24926   */\n      tag_411\n      jump\t// in\n    tag_627:\n        /* \"#utility.yul\":24948:25039   */\n      tag_628\n        /* \"#utility.yul\":24997:25038   */\n      tag_629\n        /* \"#utility.yul\":25021:25037   */\n      dup3\n        /* \"#utility.yul\":24997:25038   */\n      tag_412\n      jump\t// in\n    tag_629:\n        /* \"#utility.yul\":24989:24995   */\n      dup5\n        /* \"#utility.yul\":24982:24986   */\n      dup5\n        /* \"#utility.yul\":24976:24987   */\n      sload\n        /* \"#utility.yul\":24948:25039   */\n      tag_409\n      jump\t// in\n    tag_628:\n        /* \"#utility.yul\":24942:24946   */\n      dup3\n        /* \"#utility.yul\":24935:25040   */\n      sstore\n        /* \"#utility.yul\":24853:25046   */\n      pop\n        /* \"#utility.yul\":24777:25046   */\n      pop\n      pop\n      pop\n      jump\t// out\n        /* \"#utility.yul\":25052:25125   */\n    tag_414:\n        /* \"#utility.yul\":25097:25100   */\n      0x00\n        /* \"#utility.yul\":25052:25125   */\n      swap1\n      jump\t// out\n        /* \"#utility.yul\":25131:25320   */\n    tag_415:\n        /* \"#utility.yul\":25208:25240   */\n      tag_632\n      tag_414\n      jump\t// in\n    tag_632:\n        /* \"#utility.yul\":25249:25314   */\n      tag_633\n        /* \"#utility.yul\":25307:25313   */\n      dup2\n        /* \"#utility.yul\":25299:25305   */\n      dup5\n        /* \"#utility.yul\":25293:25297   */\n      dup5\n        /* \"#utility.yul\":25249:25314   */\n      tag_413\n      jump\t// in\n    tag_633:\n        /* \"#utility.yul\":25184:25320   */\n      pop\n        /* \"#utility.yul\":25131:25320   */\n      pop\n      pop\n      jump\t// out\n        /* \"#utility.yul\":25326:25512   */\n    tag_416:\n        /* \"#utility.yul\":25386:25506   */\n    tag_635:\n        /* \"#utility.yul\":25403:25406   */\n      dup2\n        /* \"#utility.yul\":25396:25401   */\n      dup2\n        /* \"#utility.yul\":25393:25407   */\n      lt\n        /* \"#utility.yul\":25386:25506   */\n      iszero\n      tag_637\n      jumpi\n        /* \"#utility.yul\":25457:25496   */\n      tag_638\n        /* \"#utility.yul\":25494:25495   */\n      0x00\n        /* \"#utility.yul\":25487:25492   */\n      dup3\n        /* \"#utility.yul\":25457:25496   */\n      tag_415\n      jump\t// in\n    tag_638:\n        /* \"#utility.yul\":25430:25431   */\n      0x01\n        /* \"#utility.yul\":25423:25428   */\n      dup2\n        /* \"#utility.yul\":25419:25432   */\n      add\n        /* \"#utility.yul\":25410:25432   */\n      swap1\n      pop\n        /* \"#utility.yul\":25386:25506   */\n      jump(tag_635)\n    tag_637:\n        /* \"#utility.yul\":25326:25512   */\n      pop\n      pop\n      jump\t// out\n        /* \"#utility.yul\":25518:26061   */\n    tag_417:\n        /* \"#utility.yul\":25619:25621   */\n      0x1f\n        /* \"#utility.yul\":25614:25617   */\n      dup3\n        /* \"#utility.yul\":25611:25622   */\n      gt\n        /* \"#utility.yul\":25608:26054   */\n      iszero\n      tag_640\n      jumpi\n        /* \"#utility.yul\":25653:25691   */\n      tag_641\n        /* \"#utility.yul\":25685:25690   */\n      dup2\n        /* \"#utility.yul\":25653:25691   */\n      tag_401\n      jump\t// in\n    tag_641:\n        /* \"#utility.yul\":25737:25766   */\n      tag_642\n        /* \"#utility.yul\":25755:25765   */\n      dup5\n        /* \"#utility.yul\":25737:25766   */\n      tag_407\n      jump\t// in\n    tag_642:\n        /* \"#utility.yul\":25727:25735   */\n      dup2\n        /* \"#utility.yul\":25723:25767   */\n      add\n        /* \"#utility.yul\":25920:25922   */\n      0x20\n        /* \"#utility.yul\":25908:25918   */\n      dup6\n        /* \"#utility.yul\":25905:25923   */\n      lt\n        /* \"#utility.yul\":25902:25951   */\n      iszero\n      tag_643\n      jumpi\n        /* \"#utility.yul\":25941:25949   */\n      dup2\n        /* \"#utility.yul\":25926:25949   */\n      swap1\n      pop\n        /* \"#utility.yul\":25902:25951   */\n    tag_643:\n        /* \"#utility.yul\":25964:26044   */\n      tag_644\n        /* \"#utility.yul\":26020:26042   */\n      tag_645\n        /* \"#utility.yul\":26038:26041   */\n      dup6\n        /* \"#utility.yul\":26020:26042   */\n      tag_407\n      jump\t// in\n    tag_645:\n        /* \"#utility.yul\":26010:26018   */\n      dup4\n        /* \"#utility.yul\":26006:26043   */\n      add\n        /* \"#utility.yul\":25993:26004   */\n      dup3\n        /* \"#utility.yul\":25964:26044   */\n      tag_416\n      jump\t// in\n    tag_644:\n        /* \"#utility.yul\":25623:26054   */\n      pop\n      pop\n        /* \"#utility.yul\":25608:26054   */\n    tag_640:\n        /* \"#utility.yul\":25518:26061   */\n      pop\n      pop\n      pop\n      jump\t// out\n        /* \"#utility.yul\":26067:26184   */\n    tag_418:\n        /* \"#utility.yul\":26121:26129   */\n      0x00\n        /* \"#utility.yul\":26171:26176   */\n      dup3\n        /* \"#utility.yul\":26165:26169   */\n      dup3\n        /* \"#utility.yul\":26161:26177   */\n      shr\n        /* \"#utility.yul\":26140:26177   */\n      swap1\n      pop\n        /* \"#utility.yul\":26067:26184   */\n      swap3\n      swap2\n      pop\n      pop\n      jump\t// out\n        /* \"#utility.yul\":26190:26359   */\n    tag_419:\n        /* \"#utility.yul\":26234:26240   */\n      0x00\n        /* \"#utility.yul\":26267:26318   */\n      tag_648\n        /* \"#utility.yul\":26315:26316   */\n      0x00\n        /* \"#utility.yul\":26311:26317   */\n      not\n        /* \"#utility.yul\":26303:26308   */\n      dup5\n        /* \"#utility.yul\":26300:26301   */\n      0x08\n        /* \"#utility.yul\":26296:26309   */\n      mul\n        /* \"#utility.yul\":26267:26318   */\n      tag_418\n      jump\t// in\n    tag_648:\n        /* \"#utility.yul\":26263:26319   */\n      not\n        /* \"#utility.yul\":26348:26352   */\n      dup1\n        /* \"#utility.yul\":26342:26346   */\n      dup4\n        /* \"#utility.yul\":26338:26353   */\n      and\n        /* \"#utility.yul\":26328:26353   */\n      swap2\n      pop\n        /* \"#utility.yul\":26241:26359   */\n      pop\n        /* \"#utility.yul\":26190:26359   */\n      swap3\n      swap2\n      pop\n      pop\n      jump\t// out\n        /* \"#utility.yul\":26364:26659   */\n    tag_420:\n        /* \"#utility.yul\":26440:26444   */\n      0x00\n        /* \"#utility.yul\":26586:26615   */\n      tag_650\n        /* \"#utility.yul\":26611:26614   */\n      dup4\n        /* \"#utility.yul\":26605:26609   */\n      dup4\n        /* \"#utility.yul\":26586:26615   */\n      tag_419\n      jump\t// in\n    tag_650:\n        /* \"#utility.yul\":26578:26615   */\n      swap2\n      pop\n        /* \"#utility.yul\":26648:26651   */\n      dup3\n        /* \"#utility.yul\":26645:26646   */\n      0x02\n        /* \"#utility.yul\":26641:26652   */\n      mul\n        /* \"#utility.yul\":26635:26639   */\n      dup3\n        /* \"#utility.yul\":26632:26653   */\n      or\n        /* \"#utility.yul\":26624:26653   */\n      swap1\n      pop\n        /* \"#utility.yul\":26364:26659   */\n      swap3\n      swap2\n      pop\n      pop\n      jump\t// out\n        /* \"#utility.yul\":26664:28059   */\n    tag_154:\n        /* \"#utility.yul\":26781:26818   */\n      tag_652\n        /* \"#utility.yul\":26814:26817   */\n      dup3\n        /* \"#utility.yul\":26781:26818   */\n      tag_380\n      jump\t// in\n    tag_652:\n        /* \"#utility.yul\":26883:26901   */\n      0xffffffffffffffff\n        /* \"#utility.yul\":26875:26881   */\n      dup2\n        /* \"#utility.yul\":26872:26902   */\n      gt\n        /* \"#utility.yul\":26869:26925   */\n      iszero\n      tag_653\n      jumpi\n        /* \"#utility.yul\":26905:26923   */\n      tag_654\n      tag_92\n      jump\t// in\n    tag_654:\n        /* \"#utility.yul\":26869:26925   */\n    tag_653:\n        /* \"#utility.yul\":26949:26987   */\n      tag_655\n        /* \"#utility.yul\":26981:26985   */\n      dup3\n        /* \"#utility.yul\":26975:26986   */\n      sload\n        /* \"#utility.yul\":26949:26987   */\n      tag_54\n      jump\t// in\n    tag_655:\n        /* \"#utility.yul\":27034:27101   */\n      tag_656\n        /* \"#utility.yul\":27094:27100   */\n      dup3\n        /* \"#utility.yul\":27086:27092   */\n      dup3\n        /* \"#utility.yul\":27080:27084   */\n      dup6\n        /* \"#utility.yul\":27034:27101   */\n      tag_417\n      jump\t// in\n    tag_656:\n        /* \"#utility.yul\":27128:27129   */\n      0x00\n        /* \"#utility.yul\":27152:27156   */\n      0x20\n        /* \"#utility.yul\":27139:27156   */\n      swap1\n      pop\n        /* \"#utility.yul\":27184:27186   */\n      0x1f\n        /* \"#utility.yul\":27176:27182   */\n      dup4\n        /* \"#utility.yul\":27173:27187   */\n      gt\n        /* \"#utility.yul\":27201:27202   */\n      0x01\n        /* \"#utility.yul\":27196:27814   */\n      dup2\n      eq\n      tag_658\n      jumpi\n        /* \"#utility.yul\":27858:27859   */\n      0x00\n        /* \"#utility.yul\":27875:27881   */\n      dup5\n        /* \"#utility.yul\":27872:27949   */\n      iszero\n      tag_659\n      jumpi\n        /* \"#utility.yul\":27924:27933   */\n      dup3\n        /* \"#utility.yul\":27919:27922   */\n      dup8\n        /* \"#utility.yul\":27915:27934   */\n      add\n        /* \"#utility.yul\":27909:27935   */\n      mload\n        /* \"#utility.yul\":27900:27935   */\n      swap1\n      pop\n        /* \"#utility.yul\":27872:27949   */\n    tag_659:\n        /* \"#utility.yul\":27975:28042   */\n      tag_660\n        /* \"#utility.yul\":28035:28041   */\n      dup6\n        /* \"#utility.yul\":28028:28033   */\n      dup3\n        /* \"#utility.yul\":27975:28042   */\n      tag_420\n      jump\t// in\n    tag_660:\n        /* \"#utility.yul\":27969:27973   */\n      dup7\n        /* \"#utility.yul\":27962:28043   */\n      sstore\n        /* \"#utility.yul\":27831:28053   */\n      pop\n        /* \"#utility.yul\":27166:28053   */\n      jump(tag_657)\n        /* \"#utility.yul\":27196:27814   */\n    tag_658:\n        /* \"#utility.yul\":27248:27252   */\n      0x1f\n        /* \"#utility.yul\":27244:27253   */\n      not\n        /* \"#utility.yul\":27236:27242   */\n      dup5\n        /* \"#utility.yul\":27232:27254   */\n      and\n        /* \"#utility.yul\":27282:27319   */\n      tag_661\n        /* \"#utility.yul\":27314:27318   */\n      dup7\n        /* \"#utility.yul\":27282:27319   */\n      tag_401\n      jump\t// in\n    tag_661:\n        /* \"#utility.yul\":27341:27342   */\n      0x00\n        /* \"#utility.yul\":27355:27563   */\n    tag_662:\n        /* \"#utility.yul\":27369:27376   */\n      dup3\n        /* \"#utility.yul\":27366:27367   */\n      dup2\n        /* \"#utility.yul\":27363:27377   */\n      lt\n        /* \"#utility.yul\":27355:27563   */\n      iszero\n      tag_664\n      jumpi\n        /* \"#utility.yul\":27448:27457   */\n      dup5\n        /* \"#utility.yul\":27443:27446   */\n      dup10\n        /* \"#utility.yul\":27439:27458   */\n      add\n        /* \"#utility.yul\":27433:27459   */\n      mload\n        /* \"#utility.yul\":27425:27431   */\n      dup3\n        /* \"#utility.yul\":27418:27460   */\n      sstore\n        /* \"#utility.yul\":27499:27500   */\n      0x01\n        /* \"#utility.yul\":27491:27497   */\n      dup3\n        /* \"#utility.yul\":27487:27501   */\n      add\n        /* \"#utility.yul\":27477:27501   */\n      swap2\n      pop\n        /* \"#utility.yul\":27546:27548   */\n      0x20\n        /* \"#utility.yul\":27535:27544   */\n      dup6\n        /* \"#utility.yul\":27531:27549   */\n      add\n        /* \"#utility.yul\":27518:27549   */\n      swap5\n      pop\n        /* \"#utility.yul\":27392:27396   */\n      0x20\n        /* \"#utility.yul\":27389:27390   */\n      dup2\n        /* \"#utility.yul\":27385:27397   */\n      add\n        /* \"#utility.yul\":27380:27397   */\n      swap1\n      pop\n        /* \"#utility.yul\":27355:27563   */\n      jump(tag_662)\n    tag_664:\n        /* \"#utility.yul\":27591:27597   */\n      dup7\n        /* \"#utility.yul\":27582:27589   */\n      dup4\n        /* \"#utility.yul\":27579:27598   */\n      lt\n        /* \"#utility.yul\":27576:27755   */\n      iszero\n      tag_665\n      jumpi\n        /* \"#utility.yul\":27649:27658   */\n      dup5\n        /* \"#utility.yul\":27644:27647   */\n      dup10\n        /* \"#utility.yul\":27640:27659   */\n      add\n        /* \"#utility.yul\":27634:27660   */\n      mload\n        /* \"#utility.yul\":27692:27740   */\n      tag_666\n        /* \"#utility.yul\":27734:27738   */\n      0x1f\n        /* \"#utility.yul\":27726:27732   */\n      dup10\n        /* \"#utility.yul\":27722:27739   */\n      and\n        /* \"#utility.yul\":27711:27720   */\n      dup3\n        /* \"#utility.yul\":27692:27740   */\n      tag_419\n      jump\t// in\n    tag_666:\n        /* \"#utility.yul\":27684:27690   */\n      dup4\n        /* \"#utility.yul\":27677:27741   */\n      sstore\n        /* \"#utility.yul\":27599:27755   */\n      pop\n        /* \"#utility.yul\":27576:27755   */\n    tag_665:\n        /* \"#utility.yul\":27801:27802   */\n      0x01\n        /* \"#utility.yul\":27797:27798   */\n      0x02\n        /* \"#utility.yul\":27789:27795   */\n      dup9\n        /* \"#utility.yul\":27785:27799   */\n      mul\n        /* \"#utility.yul\":27781:27803   */\n      add\n        /* \"#utility.yul\":27775:27779   */\n      dup9\n        /* \"#utility.yul\":27768:27804   */\n      sstore\n        /* \"#utility.yul\":27203:27814   */\n      pop\n      pop\n      pop\n        /* \"#utility.yul\":27166:28053   */\n    tag_657:\n      pop\n        /* \"#utility.yul\":26756:28059   */\n      pop\n      pop\n      pop\n        /* \"#utility.yul\":26664:28059   */\n      pop\n      pop\n      jump\t// out\n        /* \"#utility.yul\":28065:28579   */\n    tag_156:\n        /* \"#utility.yul\":28226:28230   */\n      0x00\n        /* \"#utility.yul\":28264:28266   */\n      0x40\n        /* \"#utility.yul\":28253:28262   */\n      dup3\n        /* \"#utility.yul\":28249:28267   */\n      add\n        /* \"#utility.yul\":28241:28267   */\n      swap1\n      pop\n        /* \"#utility.yul\":28313:28322   */\n      dup2\n        /* \"#utility.yul\":28307:28311   */\n      dup2\n        /* \"#utility.yul\":28303:28323   */\n      sub\n        /* \"#utility.yul\":28299:28300   */\n      0x00\n        /* \"#utility.yul\":28288:28297   */\n      dup4\n        /* \"#utility.yul\":28284:28301   */\n      add\n        /* \"#utility.yul\":28277:28324   */\n      mstore\n        /* \"#utility.yul\":28341:28419   */\n      tag_668\n        /* \"#utility.yul\":28414:28418   */\n      dup2\n        /* \"#utility.yul\":28405:28411   */\n      dup6\n        /* \"#utility.yul\":28341:28419   */\n      tag_383\n      jump\t// in\n    tag_668:\n        /* \"#utility.yul\":28333:28419   */\n      swap1\n      pop\n        /* \"#utility.yul\":28466:28475   */\n      dup2\n        /* \"#utility.yul\":28460:28464   */\n      dup2\n        /* \"#utility.yul\":28456:28476   */\n      sub\n        /* \"#utility.yul\":28451:28453   */\n      0x20\n        /* \"#utility.yul\":28440:28449   */\n      dup4\n        /* \"#utility.yul\":28436:28454   */\n      add\n        /* \"#utility.yul\":28429:28477   */\n      mstore\n        /* \"#utility.yul\":28494:28572   */\n      tag_669\n        /* \"#utility.yul\":28567:28571   */\n      dup2\n        /* \"#utility.yul\":28558:28564   */\n      dup5\n        /* \"#utility.yul\":28494:28572   */\n      tag_383\n      jump\t// in\n    tag_669:\n        /* \"#utility.yul\":28486:28572   */\n      swap1\n      pop\n        /* \"#utility.yul\":28065:28579   */\n      swap4\n      swap3\n      pop\n      pop\n      pop\n      jump\t// out\n\n    auxdata: 0xa26469706673582212200c09ace87fcef60a59da4d38a45dce0f8e42cd30846996bd60c418c7faa26b1364736f6c63430008100033\n}\n",
				"bytecode": {
					"linkReferences": {},
					"object": "608060405234801561001057600080fd5b50612f7f806100206000396000f3fe608060405234801561001057600080fd5b50600436106100935760003560e01c80637ee9ed47116100665780637ee9ed471461013b578063814cb8eb1461016b5780639db897dd14610187578063d339b0ec146101b7578063fff50461146101e757610093565b8063022236f41461009857806327506f53146100d1578063347047cc146100ef5780637ce99c581461010b575b600080fd5b6100b260048036038101906100ad919061228a565b610203565b6040516100c89a9998979695949392919061236b565b60405180910390f35b6100d9610625565b6040516100e69190612657565b60405180910390f35b61010960048036038101906101049190612679565b610b30565b005b6101256004803603810190610120919061271d565b610c0b565b604051610132919061274a565b60405180910390f35b6101556004803603810190610150919061228a565b610cb7565b6040516101629190612657565b60405180910390f35b6101856004803603810190610180919061276c565b611325565b005b6101a1600480360381019061019c919061228a565b6114d0565b6040516101ae9190612657565b60405180910390f35b6101d160048036038101906101cc919061228a565b611b3e565b6040516101de9190612a13565b60405180910390f35b61020160048036038101906101fc9190612679565b612002565b005b60008180516020810182018051848252602083016020850120818352809550505050505060009150905080600001805461023c90612a64565b80601f016020809104026020016040519081016040528092919081815260200182805461026890612a64565b80156102b55780601f1061028a576101008083540402835291602001916102b5565b820191906000526020600020905b81548152906001019060200180831161029857829003601f168201915b5050505050908060010180546102ca90612a64565b80601f01602080910402602001604051908101604052809291908181526020018280546102f690612a64565b80156103435780601f1061031857610100808354040283529160200191610343565b820191906000526020600020905b81548152906001019060200180831161032657829003601f168201915b50505050509080600201805461035890612a64565b80601f016020809104026020016040519081016040528092919081815260200182805461038490612a64565b80156103d15780601f106103a6576101008083540402835291602001916103d1565b820191906000526020600020905b8154815290600101906020018083116103b457829003601f168201915b5050505050908060030180546103e690612a64565b80601f016020809104026020016040519081016040528092919081815260200182805461041290612a64565b801561045f5780601f106104345761010080835404028352916020019161045f565b820191906000526020600020905b81548152906001019060200180831161044257829003601f168201915b50505050509080600401805461047490612a64565b80601f01602080910402602001604051908101604052809291908181526020018280546104a090612a64565b80156104ed5780601f106104c2576101008083540402835291602001916104ed565b820191906000526020600020905b8154815290600101906020018083116104d057829003601f168201915b50505050509080600501805461050290612a64565b80601f016020809104026020016040519081016040528092919081815260200182805461052e90612a64565b801561057b5780601f106105505761010080835404028352916020019161057b565b820191906000526020600020905b81548152906001019060200180831161055e57829003601f168201915b50505050509080600601549080600701549080600801805461059c90612a64565b80601f01602080910402602001604051908101604052809291908181526020018280546105c890612a64565b80156106155780601f106105ea57610100808354040283529160200191610615565b820191906000526020600020905b8154815290600101906020018083116105f857829003601f168201915b505050505090806009015490508a565b6060600060018054905067ffffffffffffffff8111156106485761064761215f565b5b60405190808252806020026020018201604052801561068157816020015b61066e6120dd565b8152602001906001900390816106665790505b50905060005b600180549050811015610b28576000600182815481106106aa576106a9612a95565b5b906000526020600020016040516106c19190612b67565b9081526020016040518091039020604051806101400160405290816000820180546106eb90612a64565b80601f016020809104026020016040519081016040528092919081815260200182805461071790612a64565b80156107645780601f1061073957610100808354040283529160200191610764565b820191906000526020600020905b81548152906001019060200180831161074757829003601f168201915b5050505050815260200160018201805461077d90612a64565b80601f01602080910402602001604051908101604052809291908181526020018280546107a990612a64565b80156107f65780601f106107cb576101008083540402835291602001916107f6565b820191906000526020600020905b8154815290600101906020018083116107d957829003601f168201915b5050505050815260200160028201805461080f90612a64565b80601f016020809104026020016040519081016040528092919081815260200182805461083b90612a64565b80156108885780601f1061085d57610100808354040283529160200191610888565b820191906000526020600020905b81548152906001019060200180831161086b57829003601f168201915b505050505081526020016003820180546108a190612a64565b80601f01602080910402602001604051908101604052809291908181526020018280546108cd90612a64565b801561091a5780601f106108ef5761010080835404028352916020019161091a565b820191906000526020600020905b8154815290600101906020018083116108fd57829003601f168201915b5050505050815260200160048201805461093390612a64565b80601f016020809104026020016040519081016040528092919081815260200182805461095f90612a64565b80156109ac5780601f10610981576101008083540402835291602001916109ac565b820191906000526020600020905b81548152906001019060200180831161098f57829003601f168201915b505050505081526020016005820180546109c590612a64565b80601f01602080910402602001604051908101604052809291908181526020018280546109f190612a64565b8015610a3e5780601f10610a1357610100808354040283529160200191610a3e565b820191906000526020600020905b815481529060010190602001808311610a2157829003601f168201915b505050505081526020016006820154815260200160078201548152602001600882018054610a6b90612a64565b80601f0160208091040260200160405190810160405280929190818152602001828054610a9790612a64565b8015610ae45780601f10610ab957610100808354040283529160200191610ae4565b820191906000526020600020905b815481529060010190602001808311610ac757829003601f168201915b50505050508152602001600982015481525050828281518110610b0a57610b09612a95565b5b60200260200101819052508080610b2090612bad565b915050610687565b508091505090565b60008083604051610b419190612c26565b90815260200160405180910390206000018054610b5d90612a64565b905003610b9f576040517f08c379a0000000000000000000000000000000000000000000000000000000008152600401610b9690612c89565b60405180910390fd5b80600083604051610bb09190612c26565b90815260200160405180910390206005019081610bcd9190612e40565b507fb75b1fec1bc9156569ae9f72fb29c6e6727b297e191d358465fff4c09d8f7d268282604051610bff929190612f12565b60405180910390a15050565b60018181548110610c1b57600080fd5b906000526020600020016000915090508054610c3690612a64565b80601f0160208091040260200160405190810160405280929190818152602001828054610c6290612a64565b8015610caf5780601f10610c8457610100808354040283529160200191610caf565b820191906000526020600020905b815481529060010190602001808311610c9257829003601f168201915b505050505081565b60606000805b600180549050811015610d7c5783604051602001610cdb9190612c26565b60405160208183030381529060405280519060200120600060018381548110610d0757610d06612a95565b5b90600052602060002001604051610d1e9190612b67565b9081526020016040518091039020600201604051602001610d3f9190612b67565b6040516020818303038152906040528051906020012003610d69578180610d6590612bad565b9250505b8080610d7490612bad565b915050610cbd565b5060008167ffffffffffffffff811115610d9957610d9861215f565b5b604051908082528060200260200182016040528015610dd257816020015b610dbf6120dd565b815260200190600190039081610db75790505b5090506000805b6001805490508110156113195785604051602001610df79190612c26565b60405160208183030381529060405280519060200120600060018381548110610e2357610e22612a95565b5b90600052602060002001604051610e3a9190612b67565b9081526020016040518091039020600201604051602001610e5b9190612b67565b604051602081830303815290604052805190602001200361130657600060018281548110610e8c57610e8b612a95565b5b90600052602060002001604051610ea39190612b67565b908152602001604051809103902060405180610140016040529081600082018054610ecd90612a64565b80601f0160208091040260200160405190810160405280929190818152602001828054610ef990612a64565b8015610f465780601f10610f1b57610100808354040283529160200191610f46565b820191906000526020600020905b815481529060010190602001808311610f2957829003601f168201915b50505050508152602001600182018054610f5f90612a64565b80601f0160208091040260200160405190810160405280929190818152602001828054610f8b90612a64565b8015610fd85780601f10610fad57610100808354040283529160200191610fd8565b820191906000526020600020905b815481529060010190602001808311610fbb57829003601f168201915b50505050508152602001600282018054610ff190612a64565b80601f016020809104026020016040519081016040528092919081815260200182805461101d90612a64565b801561106a5780601f1061103f5761010080835404028352916020019161106a565b820191906000526020600020905b81548152906001019060200180831161104d57829003601f168201915b5050505050815260200160038201805461108390612a64565b80601f01602080910402602001604051908101604052809291908181526020018280546110af90612a64565b80156110fc5780601f106110d1576101008083540402835291602001916110fc565b820191906000526020600020905b8154815290600101906020018083116110df57829003601f168201915b5050505050815260200160048201805461111590612a64565b80601f016020809104026020016040519081016040528092919081815260200182805461114190612a64565b801561118e5780601f106111635761010080835404028352916020019161118e565b820191906000526020600020905b81548152906001019060200180831161117157829003601f168201915b505050505081526020016005820180546111a790612a64565b80601f01602080910402602001604051908101604052809291908181526020018280546111d390612a64565b80156112205780601f106111f557610100808354040283529160200191611220565b820191906000526020600020905b81548152906001019060200180831161120357829003601f168201915b50505050508152602001600682015481526020016007820154815260200160088201805461124d90612a64565b80601f016020809104026020016040519081016040528092919081815260200182805461127990612a64565b80156112c65780601f1061129b576101008083540402835291602001916112c6565b820191906000526020600020905b8154815290600101906020018083116112a957829003601f168201915b505050505081526020016009820154815250508383815181106112ec576112eb612a95565b5b6020026020010181905250818061130290612bad565b9250505b808061131190612bad565b915050610dd9565b50819350505050919050565b6040518061014001604052808b81526020018a81526020018981526020018881526020018781526020018681526020018581526020018481526020018381526020018281525060008b60405161137b9190612c26565b9081526020016040518091039020600082015181600001908161139e9190612e40565b5060208201518160010190816113b49190612e40565b5060408201518160020190816113ca9190612e40565b5060608201518160030190816113e09190612e40565b5060808201518160040190816113f69190612e40565b5060a082015181600501908161140c9190612e40565b5060c0820151816006015560e082015181600701556101008201518160080190816114379190612e40565b50610120820151816009015590505060018a90806001815401808255809150506001900390600052602060002001600090919091909150908161147a9190612e40565b507f86b635665185c0479e14de4802087c1ead14a87167c270c210630b0b3d91fd228a8a8a8a8a8a8a8a8a8a6040516114bc9a9998979695949392919061236b565b60405180910390a150505050505050505050565b60606000805b60018054905081101561159557836040516020016114f49190612c26565b604051602081830303815290604052805190602001206000600183815481106115205761151f612a95565b5b906000526020600020016040516115379190612b67565b90815260200160405180910390206001016040516020016115589190612b67565b604051602081830303815290604052805190602001200361158257818061157e90612bad565b9250505b808061158d90612bad565b9150506114d6565b5060008167ffffffffffffffff8111156115b2576115b161215f565b5b6040519080825280602002602001820160405280156115eb57816020015b6115d86120dd565b8152602001906001900390816115d05790505b5090506000805b600180549050811015611b3257856040516020016116109190612c26565b6040516020818303038152906040528051906020012060006001838154811061163c5761163b612a95565b5b906000526020600020016040516116539190612b67565b90815260200160405180910390206001016040516020016116749190612b67565b6040516020818303038152906040528051906020012003611b1f576000600182815481106116a5576116a4612a95565b5b906000526020600020016040516116bc9190612b67565b9081526020016040518091039020604051806101400160405290816000820180546116e690612a64565b80601f016020809104026020016040519081016040528092919081815260200182805461171290612a64565b801561175f5780601f106117345761010080835404028352916020019161175f565b820191906000526020600020905b81548152906001019060200180831161174257829003601f168201915b5050505050815260200160018201805461177890612a64565b80601f01602080910402602001604051908101604052809291908181526020018280546117a490612a64565b80156117f15780601f106117c6576101008083540402835291602001916117f1565b820191906000526020600020905b8154815290600101906020018083116117d457829003601f168201915b5050505050815260200160028201805461180a90612a64565b80601f016020809104026020016040519081016040528092919081815260200182805461183690612a64565b80156118835780601f1061185857610100808354040283529160200191611883565b820191906000526020600020905b81548152906001019060200180831161186657829003601f168201915b5050505050815260200160038201805461189c90612a64565b80601f01602080910402602001604051908101604052809291908181526020018280546118c890612a64565b80156119155780601f106118ea57610100808354040283529160200191611915565b820191906000526020600020905b8154815290600101906020018083116118f857829003601f168201915b5050505050815260200160048201805461192e90612a64565b80601f016020809104026020016040519081016040528092919081815260200182805461195a90612a64565b80156119a75780601f1061197c576101008083540402835291602001916119a7565b820191906000526020600020905b81548152906001019060200180831161198a57829003601f168201915b505050505081526020016005820180546119c090612a64565b80601f01602080910402602001604051908101604052809291908181526020018280546119ec90612a64565b8015611a395780601f10611a0e57610100808354040283529160200191611a39565b820191906000526020600020905b815481529060010190602001808311611a1c57829003601f168201915b505050505081526020016006820154815260200160078201548152602001600882018054611a6690612a64565b80601f0160208091040260200160405190810160405280929190818152602001828054611a9290612a64565b8015611adf5780601f10611ab457610100808354040283529160200191611adf565b820191906000526020600020905b815481529060010190602001808311611ac257829003601f168201915b50505050508152602001600982015481525050838381518110611b0557611b04612a95565b5b60200260200101819052508180611b1b90612bad565b9250505b8080611b2a90612bad565b9150506115f2565b50819350505050919050565b611b466120dd565b60008083604051611b579190612c26565b90815260200160405180910390206000018054611b7390612a64565b905003611bb5576040517f08c379a0000000000000000000000000000000000000000000000000000000008152600401611bac90612c89565b60405180910390fd5b600082604051611bc59190612c26565b908152602001604051809103902060405180610140016040529081600082018054611bef90612a64565b80601f0160208091040260200160405190810160405280929190818152602001828054611c1b90612a64565b8015611c685780601f10611c3d57610100808354040283529160200191611c68565b820191906000526020600020905b815481529060010190602001808311611c4b57829003601f168201915b50505050508152602001600182018054611c8190612a64565b80601f0160208091040260200160405190810160405280929190818152602001828054611cad90612a64565b8015611cfa5780601f10611ccf57610100808354040283529160200191611cfa565b820191906000526020600020905b815481529060010190602001808311611cdd57829003601f168201915b50505050508152602001600282018054611d1390612a64565b80601f0160208091040260200160405190810160405280929190818152602001828054611d3f90612a64565b8015611d8c5780601f10611d6157610100808354040283529160200191611d8c565b820191906000526020600020905b815481529060010190602001808311611d6f57829003601f168201915b50505050508152602001600382018054611da590612a64565b80601f0160208091040260200160405190810160405280929190818152602001828054611dd190612a64565b8015611e1e5780601f10611df357610100808354040283529160200191611e1e565b820191906000526020600020905b815481529060010190602001808311611e0157829003601f168201915b50505050508152602001600482018054611e3790612a64565b80601f0160208091040260200160405190810160405280929190818152602001828054611e6390612a64565b8015611eb05780601f10611e8557610100808354040283529160200191611eb0565b820191906000526020600020905b815481529060010190602001808311611e9357829003601f168201915b50505050508152602001600582018054611ec990612a64565b80601f0160208091040260200160405190810160405280929190818152602001828054611ef590612a64565b8015611f425780601f10611f1757610100808354040283529160200191611f42565b820191906000526020600020905b815481529060010190602001808311611f2557829003601f168201915b505050505081526020016006820154815260200160078201548152602001600882018054611f6f90612a64565b80601f0160208091040260200160405190810160405280929190818152602001828054611f9b90612a64565b8015611fe85780601f10611fbd57610100808354040283529160200191611fe8565b820191906000526020600020905b815481529060010190602001808311611fcb57829003601f168201915b505050505081526020016009820154815250509050919050565b600080836040516120139190612c26565b9081526020016040518091039020600001805461202f90612a64565b905003612071576040517f08c379a000000000000000000000000000000000000000000000000000000000815260040161206890612c89565b60405180910390fd5b806000836040516120829190612c26565b9081526020016040518091039020600401908161209f9190612e40565b507fc61ffb03925558d248fba37b73270b12903d3f0ba5797af8b71a9f8bf0761a9882826040516120d1929190612f12565b60405180910390a15050565b604051806101400160405280606081526020016060815260200160608152602001606081526020016060815260200160608152602001600081526020016000815260200160608152602001600081525090565b6000604051905090565b600080fd5b600080fd5b600080fd5b600080fd5b6000601f19601f8301169050919050565b7f4e487b7100000000000000000000000000000000000000000000000000000000600052604160045260246000fd5b6121978261214e565b810181811067ffffffffffffffff821117156121b6576121b561215f565b5b80604052505050565b60006121c9612130565b90506121d5828261218e565b919050565b600067ffffffffffffffff8211156121f5576121f461215f565b5b6121fe8261214e565b9050602081019050919050565b82818337600083830152505050565b600061222d612228846121da565b6121bf565b90508281526020810184848401111561224957612248612149565b5b61225484828561220b565b509392505050565b600082601f83011261227157612270612144565b5b813561228184826020860161221a565b91505092915050565b6000602082840312156122a05761229f61213a565b5b600082013567ffffffffffffffff8111156122be576122bd61213f565b5b6122ca8482850161225c565b91505092915050565b600081519050919050565b600082825260208201905092915050565b60005b8381101561230d5780820151818401526020810190506122f2565b60008484015250505050565b6000612324826122d3565b61232e81856122de565b935061233e8185602086016122ef565b6123478161214e565b840191505092915050565b6000819050919050565b61236581612352565b82525050565b6000610140820190508181036000830152612386818d612319565b9050818103602083015261239a818c612319565b905081810360408301526123ae818b612319565b905081810360608301526123c2818a612319565b905081810360808301526123d68189612319565b905081810360a08301526123ea8188612319565b90506123f960c083018761235c565b61240660e083018661235c565b8181036101008301526124198185612319565b905061242961012083018461235c565b9b9a5050505050505050505050565b600081519050919050565b600082825260208201905092915050565b6000819050602082019050919050565b600082825260208201905092915050565b6000612480826122d3565b61248a8185612464565b935061249a8185602086016122ef565b6124a38161214e565b840191505092915050565b6124b781612352565b82525050565b60006101408301600083015184820360008601526124db8282612475565b915050602083015184820360208601526124f58282612475565b9150506040830151848203604086015261250f8282612475565b915050606083015184820360608601526125298282612475565b915050608083015184820360808601526125438282612475565b91505060a083015184820360a086015261255d8282612475565b91505060c083015161257260c08601826124ae565b5060e083015161258560e08601826124ae565b5061010083015184820361010086015261259f8282612475565b9150506101208301516125b66101208601826124ae565b508091505092915050565b60006125cd83836124bd565b905092915050565b6000602082019050919050565b60006125ed82612438565b6125f78185612443565b93508360208202850161260985612454565b8060005b85811015612645578484038952815161262685826125c1565b9450612631836125d5565b925060208a0199505060018101905061260d565b50829750879550505050505092915050565b6000602082019050818103600083015261267181846125e2565b905092915050565b600080604083850312156126905761268f61213a565b5b600083013567ffffffffffffffff8111156126ae576126ad61213f565b5b6126ba8582860161225c565b925050602083013567ffffffffffffffff8111156126db576126da61213f565b5b6126e78582860161225c565b9150509250929050565b6126fa81612352565b811461270557600080fd5b50565b600081359050612717816126f1565b92915050565b6000602082840312156127335761273261213a565b5b600061274184828501612708565b91505092915050565b600060208201905081810360008301526127648184612319565b905092915050565b6000806000806000806000806000806101408b8d0312156127905761278f61213a565b5b60008b013567ffffffffffffffff8111156127ae576127ad61213f565b5b6127ba8d828e0161225c565b9a505060208b013567ffffffffffffffff8111156127db576127da61213f565b5b6127e78d828e0161225c565b99505060408b013567ffffffffffffffff8111156128085761280761213f565b5b6128148d828e0161225c565b98505060608b013567ffffffffffffffff8111156128355761283461213f565b5b6128418d828e0161225c565b97505060808b013567ffffffffffffffff8111156128625761286161213f565b5b61286e8d828e0161225c565b96505060a08b013567ffffffffffffffff81111561288f5761288e61213f565b5b61289b8d828e0161225c565b95505060c06128ac8d828e01612708565b94505060e06128bd8d828e01612708565b9350506101008b013567ffffffffffffffff8111156128df576128de61213f565b5b6128eb8d828e0161225c565b9250506101206128fd8d828e01612708565b9150509295989b9194979a5092959850565b600061014083016000830151848203600086015261292d8282612475565b915050602083015184820360208601526129478282612475565b915050604083015184820360408601526129618282612475565b9150506060830151848203606086015261297b8282612475565b915050608083015184820360808601526129958282612475565b91505060a083015184820360a08601526129af8282612475565b91505060c08301516129c460c08601826124ae565b5060e08301516129d760e08601826124ae565b506101008301518482036101008601526129f18282612475565b915050610120830151612a086101208601826124ae565b508091505092915050565b60006020820190508181036000830152612a2d818461290f565b905092915050565b7f4e487b7100000000000000000000000000000000000000000000000000000000600052602260045260246000fd5b60006002820490506001821680612a7c57607f821691505b602082108103612a8f57612a8e612a35565b5b50919050565b7f4e487b7100000000000000000000000000000000000000000000000000000000600052603260045260246000fd5b600081905092915050565b60008190508160005260206000209050919050565b60008154612af181612a64565b612afb8186612ac4565b94506001821660008114612b165760018114612b2b57612b5e565b60ff1983168652811515820286019350612b5e565b612b3485612acf565b60005b83811015612b5657815481890152600182019150602081019050612b37565b838801955050505b50505092915050565b6000612b738284612ae4565b915081905092915050565b7f4e487b7100000000000000000000000000000000000000000000000000000000600052601160045260246000fd5b6000612bb882612352565b91507fffffffffffffffffffffffffffffffffffffffffffffffffffffffffffffffff8203612bea57612be9612b7e565b5b600182019050919050565b6000612c00826122d3565b612c0a8185612ac4565b9350612c1a8185602086016122ef565b80840191505092915050565b6000612c328284612bf5565b915081905092915050565b7f5472616e73616374696f6e20646f6573206e6f74206578697374000000000000600082015250565b6000612c73601a836122de565b9150612c7e82612c3d565b602082019050919050565b60006020820190508181036000830152612ca281612c66565b9050919050565b60006020601f8301049050919050565b600082821b905092915050565b600060088302612cf67fffffffffffffffffffffffffffffffffffffffffffffffffffffffffffffffff82612cb9565b612d008683612cb9565b95508019841693508086168417925050509392505050565b6000819050919050565b6000612d3d612d38612d3384612352565b612d18565b612352565b9050919050565b6000819050919050565b612d5783612d22565b612d6b612d6382612d44565b848454612cc6565b825550505050565b600090565b612d80612d73565b612d8b818484612d4e565b505050565b5b81811015612daf57612da4600082612d78565b600181019050612d91565b5050565b601f821115612df457612dc581612acf565b612dce84612ca9565b81016020851015612ddd578190505b612df1612de985612ca9565b830182612d90565b50505b505050565b600082821c905092915050565b6000612e1760001984600802612df9565b1980831691505092915050565b6000612e308383612e06565b9150826002028217905092915050565b612e49826122d3565b67ffffffffffffffff811115612e6257612e6161215f565b5b612e6c8254612a64565b612e77828285612db3565b600060209050601f831160018114612eaa5760008415612e98578287015190505b612ea28582612e24565b865550612f0a565b601f198416612eb886612acf565b60005b82811015612ee057848901518255600182019150602085019450602081019050612ebb565b86831015612efd5784890151612ef9601f891682612e06565b8355505b6001600288020188555050505b505050505050565b60006040820190508181036000830152612f2c8185612319565b90508181036020830152612f408184612319565b9050939250505056fea26469706673582212200c09ace87fcef60a59da4d38a45dce0f8e42cd30846996bd60c418c7faa26b1364736f6c63430008100033",
					"opcodes": "PUSH1 0x80 PUSH1 0x40 MSTORE CALLVALUE DUP1 ISZERO PUSH2 0x10 JUMPI PUSH1 0x0 DUP1 REVERT JUMPDEST POP PUSH2 0x2F7F DUP1 PUSH2 0x20 PUSH1 0x0 CODECOPY PUSH1 0x0 RETURN INVALID PUSH1 0x80 PUSH1 0x40 MSTORE CALLVALUE DUP1 ISZERO PUSH2 0x10 JUMPI PUSH1 0x0 DUP1 REVERT JUMPDEST POP PUSH1 0x4 CALLDATASIZE LT PUSH2 0x93 JUMPI PUSH1 0x0 CALLDATALOAD PUSH1 0xE0 SHR DUP1 PUSH4 0x7EE9ED47 GT PUSH2 0x66 JUMPI DUP1 PUSH4 0x7EE9ED47 EQ PUSH2 0x13B JUMPI DUP1 PUSH4 0x814CB8EB EQ PUSH2 0x16B JUMPI DUP1 PUSH4 0x9DB897DD EQ PUSH2 0x187 JUMPI DUP1 PUSH4 0xD339B0EC EQ PUSH2 0x1B7 JUMPI DUP1 PUSH4 0xFFF50461 EQ PUSH2 0x1E7 JUMPI PUSH2 0x93 JUMP JUMPDEST DUP1 PUSH4 0x22236F4 EQ PUSH2 0x98 JUMPI DUP1 PUSH4 0x27506F53 EQ PUSH2 0xD1 JUMPI DUP1 PUSH4 0x347047CC EQ PUSH2 0xEF JUMPI DUP1 PUSH4 0x7CE99C58 EQ PUSH2 0x10B JUMPI JUMPDEST PUSH1 0x0 DUP1 REVERT JUMPDEST PUSH2 0xB2 PUSH1 0x4 DUP1 CALLDATASIZE SUB DUP2 ADD SWAP1 PUSH2 0xAD SWAP2 SWAP1 PUSH2 0x228A JUMP JUMPDEST PUSH2 0x203 JUMP JUMPDEST PUSH1 0x40 MLOAD PUSH2 0xC8 SWAP11 SWAP10 SWAP9 SWAP8 SWAP7 SWAP6 SWAP5 SWAP4 SWAP3 SWAP2 SWAP1 PUSH2 0x236B JUMP JUMPDEST PUSH1 0x40 MLOAD DUP1 SWAP2 SUB SWAP1 RETURN JUMPDEST PUSH2 0xD9 PUSH2 0x625 JUMP JUMPDEST PUSH1 0x40 MLOAD PUSH2 0xE6 SWAP2 SWAP1 PUSH2 0x2657 JUMP JUMPDEST PUSH1 0x40 MLOAD DUP1 SWAP2 SUB SWAP1 RETURN JUMPDEST PUSH2 0x109 PUSH1 0x4 DUP1 CALLDATASIZE SUB DUP2 ADD SWAP1 PUSH2 0x104 SWAP2 SWAP1 PUSH2 0x2679 JUMP JUMPDEST PUSH2 0xB30 JUMP JUMPDEST STOP JUMPDEST PUSH2 0x125 PUSH1 0x4 DUP1 CALLDATASIZE SUB DUP2 ADD SWAP1 PUSH2 0x120 SWAP2 SWAP1 PUSH2 0x271D JUMP JUMPDEST PUSH2 0xC0B JUMP JUMPDEST PUSH1 0x40 MLOAD PUSH2 0x132 SWAP2 SWAP1 PUSH2 0x274A JUMP JUMPDEST PUSH1 0x40 MLOAD DUP1 SWAP2 SUB SWAP1 RETURN JUMPDEST PUSH2 0x155 PUSH1 0x4 DUP1 CALLDATASIZE SUB DUP2 ADD SWAP1 PUSH2 0x150 SWAP2 SWAP1 PUSH2 0x228A JUMP JUMPDEST PUSH2 0xCB7 JUMP JUMPDEST PUSH1 0x40 MLOAD PUSH2 0x162 SWAP2 SWAP1 PUSH2 0x2657 JUMP JUMPDEST PUSH1 0x40 MLOAD DUP1 SWAP2 SUB SWAP1 RETURN JUMPDEST PUSH2 0x185 PUSH1 0x4 DUP1 CALLDATASIZE SUB DUP2 ADD SWAP1 PUSH2 0x180 SWAP2 SWAP1 PUSH2 0x276C JUMP JUMPDEST PUSH2 0x1325 JUMP JUMPDEST STOP JUMPDEST PUSH2 0x1A1 PUSH1 0x4 DUP1 CALLDATASIZE SUB DUP2 ADD SWAP1 PUSH2 0x19C SWAP2 SWAP1 PUSH2 0x228A JUMP JUMPDEST PUSH2 0x14D0 JUMP JUMPDEST PUSH1 0x40 MLOAD PUSH2 0x1AE SWAP2 SWAP1 PUSH2 0x2657 JUMP JUMPDEST PUSH1 0x40 MLOAD DUP1 SWAP2 SUB SWAP1 RETURN JUMPDEST PUSH2 0x1D1 PUSH1 0x4 DUP1 CALLDATASIZE SUB DUP2 ADD SWAP1 PUSH2 0x1CC SWAP2 SWAP1 PUSH2 0x228A JUMP JUMPDEST PUSH2 0x1B3E JUMP JUMPDEST PUSH1 0x40 MLOAD PUSH2 0x1DE SWAP2 SWAP1 PUSH2 0x2A13 JUMP JUMPDEST PUSH1 0x40 MLOAD DUP1 SWAP2 SUB SWAP1 RETURN JUMPDEST PUSH2 0x201 PUSH1 0x4 DUP1 CALLDATASIZE SUB DUP2 ADD SWAP1 PUSH2 0x1FC SWAP2 SWAP1 PUSH2 0x2679 JUMP JUMPDEST PUSH2 0x2002 JUMP JUMPDEST STOP JUMPDEST PUSH1 0x0 DUP2 DUP1 MLOAD PUSH1 0x20 DUP2 ADD DUP3 ADD DUP1 MLOAD DUP5 DUP3 MSTORE PUSH1 0x20 DUP4 ADD PUSH1 0x20 DUP6 ADD KECCAK256 DUP2 DUP4 MSTORE DUP1 SWAP6 POP POP POP POP POP POP PUSH1 0x0 SWAP2 POP SWAP1 POP DUP1 PUSH1 0x0 ADD DUP1 SLOAD PUSH2 0x23C SWAP1 PUSH2 0x2A64 JUMP JUMPDEST DUP1 PUSH1 0x1F ADD PUSH1 0x20 DUP1 SWAP2 DIV MUL PUSH1 0x20 ADD PUSH1 0x40 MLOAD SWAP1 DUP2 ADD PUSH1 0x40 MSTORE DUP1 SWAP3 SWAP2 SWAP1 DUP2 DUP2 MSTORE PUSH1 0x20 ADD DUP3 DUP1 SLOAD PUSH2 0x268 SWAP1 PUSH2 0x2A64 JUMP JUMPDEST DUP1 ISZERO PUSH2 0x2B5 JUMPI DUP1 PUSH1 0x1F LT PUSH2 0x28A JUMPI PUSH2 0x100 DUP1 DUP4 SLOAD DIV MUL DUP4 MSTORE SWAP2 PUSH1 0x20 ADD SWAP2 PUSH2 0x2B5 JUMP JUMPDEST DUP3 ADD SWAP2 SWAP1 PUSH1 0x0 MSTORE PUSH1 0x20 PUSH1 0x0 KECCAK256 SWAP1 JUMPDEST DUP2 SLOAD DUP2 MSTORE SWAP1 PUSH1 0x1 ADD SWAP1 PUSH1 0x20 ADD DUP1 DUP4 GT PUSH2 0x298 JUMPI DUP3 SWAP1 SUB PUSH1 0x1F AND DUP3 ADD SWAP2 JUMPDEST POP POP POP POP POP SWAP1 DUP1 PUSH1 0x1 ADD DUP1 SLOAD PUSH2 0x2CA SWAP1 PUSH2 0x2A64 JUMP JUMPDEST DUP1 PUSH1 0x1F ADD PUSH1 0x20 DUP1 SWAP2 DIV MUL PUSH1 0x20 ADD PUSH1 0x40 MLOAD SWAP1 DUP2 ADD PUSH1 0x40 MSTORE DUP1 SWAP3 SWAP2 SWAP1 DUP2 DUP2 MSTORE PUSH1 0x20 ADD DUP3 DUP1 SLOAD PUSH2 0x2F6 SWAP1 PUSH2 0x2A64 JUMP JUMPDEST DUP1 ISZERO PUSH2 0x343 JUMPI DUP1 PUSH1 0x1F LT PUSH2 0x318 JUMPI PUSH2 0x100 DUP1 DUP4 SLOAD DIV MUL DUP4 MSTORE SWAP2 PUSH1 0x20 ADD SWAP2 PUSH2 0x343 JUMP JUMPDEST DUP3 ADD SWAP2 SWAP1 PUSH1 0x0 MSTORE PUSH1 0x20 PUSH1 0x0 KECCAK256 SWAP1 JUMPDEST DUP2 SLOAD DUP2 MSTORE SWAP1 PUSH1 0x1 ADD SWAP1 PUSH1 0x20 ADD DUP1 DUP4 GT PUSH2 0x326 JUMPI DUP3 SWAP1 SUB PUSH1 0x1F AND DUP3 ADD SWAP2 JUMPDEST POP POP POP POP POP SWAP1 DUP1 PUSH1 0x2 ADD DUP1 SLOAD PUSH2 0x358 SWAP1 PUSH2 0x2A64 JUMP JUMPDEST DUP1 PUSH1 0x1F ADD PUSH1 0x20 DUP1 SWAP2 DIV MUL PUSH1 0x20 ADD PUSH1 0x40 MLOAD SWAP1 DUP2 ADD PUSH1 0x40 MSTORE DUP1 SWAP3 SWAP2 SWAP1 DUP2 DUP2 MSTORE PUSH1 0x20 ADD DUP3 DUP1 SLOAD PUSH2 0x384 SWAP1 PUSH2 0x2A64 JUMP JUMPDEST DUP1 ISZERO PUSH2 0x3D1 JUMPI DUP1 PUSH1 0x1F LT PUSH2 0x3A6 JUMPI PUSH2 0x100 DUP1 DUP4 SLOAD DIV MUL DUP4 MSTORE SWAP2 PUSH1 0x20 ADD SWAP2 PUSH2 0x3D1 JUMP JUMPDEST DUP3 ADD SWAP2 SWAP1 PUSH1 0x0 MSTORE PUSH1 0x20 PUSH1 0x0 KECCAK256 SWAP1 JUMPDEST DUP2 SLOAD DUP2 MSTORE SWAP1 PUSH1 0x1 ADD SWAP1 PUSH1 0x20 ADD DUP1 DUP4 GT PUSH2 0x3B4 JUMPI DUP3 SWAP1 SUB PUSH1 0x1F AND DUP3 ADD SWAP2 JUMPDEST POP POP POP POP POP SWAP1 DUP1 PUSH1 0x3 ADD DUP1 SLOAD PUSH2 0x3E6 SWAP1 PUSH2 0x2A64 JUMP JUMPDEST DUP1 PUSH1 0x1F ADD PUSH1 0x20 DUP1 SWAP2 DIV MUL PUSH1 0x20 ADD PUSH1 0x40 MLOAD SWAP1 DUP2 ADD PUSH1 0x40 MSTORE DUP1 SWAP3 SWAP2 SWAP1 DUP2 DUP2 MSTORE PUSH1 0x20 ADD DUP3 DUP1 SLOAD PUSH2 0x412 SWAP1 PUSH2 0x2A64 JUMP JUMPDEST DUP1 ISZERO PUSH2 0x45F JUMPI DUP1 PUSH1 0x1F LT PUSH2 0x434 JUMPI PUSH2 0x100 DUP1 DUP4 SLOAD DIV MUL DUP4 MSTORE SWAP2 PUSH1 0x20 ADD SWAP2 PUSH2 0x45F JUMP JUMPDEST DUP3 ADD SWAP2 SWAP1 PUSH1 0x0 MSTORE PUSH1 0x20 PUSH1 0x0 KECCAK256 SWAP1 JUMPDEST DUP2 SLOAD DUP2 MSTORE SWAP1 PUSH1 0x1 ADD SWAP1 PUSH1 0x20 ADD DUP1 DUP4 GT PUSH2 0x442 JUMPI DUP3 SWAP1 SUB PUSH1 0x1F AND DUP3 ADD SWAP2 JUMPDEST POP POP POP POP POP SWAP1 DUP1 PUSH1 0x4 ADD DUP1 SLOAD PUSH2 0x474 SWAP1 PUSH2 0x2A64 JUMP JUMPDEST DUP1 PUSH1 0x1F ADD PUSH1 0x20 DUP1 SWAP2 DIV MUL PUSH1 0x20 ADD PUSH1 0x40 MLOAD SWAP1 DUP2 ADD PUSH1 0x40 MSTORE DUP1 SWAP3 SWAP2 SWAP1 DUP2 DUP2 MSTORE PUSH1 0x20 ADD DUP3 DUP1 SLOAD PUSH2 0x4A0 SWAP1 PUSH2 0x2A64 JUMP JUMPDEST DUP1 ISZERO PUSH2 0x4ED JUMPI DUP1 PUSH1 0x1F LT PUSH2 0x4C2 JUMPI PUSH2 0x100 DUP1 DUP4 SLOAD DIV MUL DUP4 MSTORE SWAP2 PUSH1 0x20 ADD SWAP2 PUSH2 0x4ED JUMP JUMPDEST DUP3 ADD SWAP2 SWAP1 PUSH1 0x0 MSTORE PUSH1 0x20 PUSH1 0x0 KECCAK256 SWAP1 JUMPDEST DUP2 SLOAD DUP2 MSTORE SWAP1 PUSH1 0x1 ADD SWAP1 PUSH1 0x20 ADD DUP1 DUP4 GT PUSH2 0x4D0 JUMPI DUP3 SWAP1 SUB PUSH1 0x1F AND DUP3 ADD SWAP2 JUMPDEST POP POP POP POP POP SWAP1 DUP1 PUSH1 0x5 ADD DUP1 SLOAD PUSH2 0x502 SWAP1 PUSH2 0x2A64 JUMP JUMPDEST DUP1 PUSH1 0x1F ADD PUSH1 0x20 DUP1 SWAP2 DIV MUL PUSH1 0x20 ADD PUSH1 0x40 MLOAD SWAP1 DUP2 ADD PUSH1 0x40 MSTORE DUP1 SWAP3 SWAP2 SWAP1 DUP2 DUP2 MSTORE PUSH1 0x20 ADD DUP3 DUP1 SLOAD PUSH2 0x52E SWAP1 PUSH2 0x2A64 JUMP JUMPDEST DUP1 ISZERO PUSH2 0x57B JUMPI DUP1 PUSH1 0x1F LT PUSH2 0x550 JUMPI PUSH2 0x100 DUP1 DUP4 SLOAD DIV MUL DUP4 MSTORE SWAP2 PUSH1 0x20 ADD SWAP2 PUSH2 0x57B JUMP JUMPDEST DUP3 ADD SWAP2 SWAP1 PUSH1 0x0 MSTORE PUSH1 0x20 PUSH1 0x0 KECCAK256 SWAP1 JUMPDEST DUP2 SLOAD DUP2 MSTORE SWAP1 PUSH1 0x1 ADD SWAP1 PUSH1 0x20 ADD DUP1 DUP4 GT PUSH2 0x55E JUMPI DUP3 SWAP1 SUB PUSH1 0x1F AND DUP3 ADD SWAP2 JUMPDEST POP POP POP POP POP SWAP1 DUP1 PUSH1 0x6 ADD SLOAD SWAP1 DUP1 PUSH1 0x7 ADD SLOAD SWAP1 DUP1 PUSH1 0x8 ADD DUP1 SLOAD PUSH2 0x59C SWAP1 PUSH2 0x2A64 JUMP JUMPDEST DUP1 PUSH1 0x1F ADD PUSH1 0x20 DUP1 SWAP2 DIV MUL PUSH1 0x20 ADD PUSH1 0x40 MLOAD SWAP1 DUP2 ADD PUSH1 0x40 MSTORE DUP1 SWAP3 SWAP2 SWAP1 DUP2 DUP2 MSTORE PUSH1 0x20 ADD DUP3 DUP1 SLOAD PUSH2 0x5C8 SWAP1 PUSH2 0x2A64 JUMP JUMPDEST DUP1 ISZERO PUSH2 0x615 JUMPI DUP1 PUSH1 0x1F LT PUSH2 0x5EA JUMPI PUSH2 0x100 DUP1 DUP4 SLOAD DIV MUL DUP4 MSTORE SWAP2 PUSH1 0x20 ADD SWAP2 PUSH2 0x615 JUMP JUMPDEST DUP3 ADD SWAP2 SWAP1 PUSH1 0x0 MSTORE PUSH1 0x20 PUSH1 0x0 KECCAK256 SWAP1 JUMPDEST DUP2 SLOAD DUP2 MSTORE SWAP1 PUSH1 0x1 ADD SWAP1 PUSH1 0x20 ADD DUP1 DUP4 GT PUSH2 0x5F8 JUMPI DUP3 SWAP1 SUB PUSH1 0x1F AND DUP3 ADD SWAP2 JUMPDEST POP POP POP POP POP SWAP1 DUP1 PUSH1 0x9 ADD SLOAD SWAP1 POP DUP11 JUMP JUMPDEST PUSH1 0x60 PUSH1 0x0 PUSH1 0x1 DUP1 SLOAD SWAP1 POP PUSH8 0xFFFFFFFFFFFFFFFF DUP2 GT ISZERO PUSH2 0x648 JUMPI PUSH2 0x647 PUSH2 0x215F JUMP JUMPDEST JUMPDEST PUSH1 0x40 MLOAD SWAP1 DUP1 DUP3 MSTORE DUP1 PUSH1 0x20 MUL PUSH1 0x20 ADD DUP3 ADD PUSH1 0x40 MSTORE DUP1 ISZERO PUSH2 0x681 JUMPI DUP2 PUSH1 0x20 ADD JUMPDEST PUSH2 0x66E PUSH2 0x20DD JUMP JUMPDEST DUP2 MSTORE PUSH1 0x20 ADD SWAP1 PUSH1 0x1 SWAP1 SUB SWAP1 DUP2 PUSH2 0x666 JUMPI SWAP1 POP JUMPDEST POP SWAP1 POP PUSH1 0x0 JUMPDEST PUSH1 0x1 DUP1 SLOAD SWAP1 POP DUP2 LT ISZERO PUSH2 0xB28 JUMPI PUSH1 0x0 PUSH1 0x1 DUP3 DUP2 SLOAD DUP2 LT PUSH2 0x6AA JUMPI PUSH2 0x6A9 PUSH2 0x2A95 JUMP JUMPDEST JUMPDEST SWAP1 PUSH1 0x0 MSTORE PUSH1 0x20 PUSH1 0x0 KECCAK256 ADD PUSH1 0x40 MLOAD PUSH2 0x6C1 SWAP2 SWAP1 PUSH2 0x2B67 JUMP JUMPDEST SWAP1 DUP2 MSTORE PUSH1 0x20 ADD PUSH1 0x40 MLOAD DUP1 SWAP2 SUB SWAP1 KECCAK256 PUSH1 0x40 MLOAD DUP1 PUSH2 0x140 ADD PUSH1 0x40 MSTORE SWAP1 DUP2 PUSH1 0x0 DUP3 ADD DUP1 SLOAD PUSH2 0x6EB SWAP1 PUSH2 0x2A64 JUMP JUMPDEST DUP1 PUSH1 0x1F ADD PUSH1 0x20 DUP1 SWAP2 DIV MUL PUSH1 0x20 ADD PUSH1 0x40 MLOAD SWAP1 DUP2 ADD PUSH1 0x40 MSTORE DUP1 SWAP3 SWAP2 SWAP1 DUP2 DUP2 MSTORE PUSH1 0x20 ADD DUP3 DUP1 SLOAD PUSH2 0x717 SWAP1 PUSH2 0x2A64 JUMP JUMPDEST DUP1 ISZERO PUSH2 0x764 JUMPI DUP1 PUSH1 0x1F LT PUSH2 0x739 JUMPI PUSH2 0x100 DUP1 DUP4 SLOAD DIV MUL DUP4 MSTORE SWAP2 PUSH1 0x20 ADD SWAP2 PUSH2 0x764 JUMP JUMPDEST DUP3 ADD SWAP2 SWAP1 PUSH1 0x0 MSTORE PUSH1 0x20 PUSH1 0x0 KECCAK256 SWAP1 JUMPDEST DUP2 SLOAD DUP2 MSTORE SWAP1 PUSH1 0x1 ADD SWAP1 PUSH1 0x20 ADD DUP1 DUP4 GT PUSH2 0x747 JUMPI DUP3 SWAP1 SUB PUSH1 0x1F AND DUP3 ADD SWAP2 JUMPDEST POP POP POP POP POP DUP2 MSTORE PUSH1 0x20 ADD PUSH1 0x1 DUP3 ADD DUP1 SLOAD PUSH2 0x77D SWAP1 PUSH2 0x2A64 JUMP JUMPDEST DUP1 PUSH1 0x1F ADD PUSH1 0x20 DUP1 SWAP2 DIV MUL PUSH1 0x20 ADD PUSH1 0x40 MLOAD SWAP1 DUP2 ADD PUSH1 0x40 MSTORE DUP1 SWAP3 SWAP2 SWAP1 DUP2 DUP2 MSTORE PUSH1 0x20 ADD DUP3 DUP1 SLOAD PUSH2 0x7A9 SWAP1 PUSH2 0x2A64 JUMP JUMPDEST DUP1 ISZERO PUSH2 0x7F6 JUMPI DUP1 PUSH1 0x1F LT PUSH2 0x7CB JUMPI PUSH2 0x100 DUP1 DUP4 SLOAD DIV MUL DUP4 MSTORE SWAP2 PUSH1 0x20 ADD SWAP2 PUSH2 0x7F6 JUMP JUMPDEST DUP3 ADD SWAP2 SWAP1 PUSH1 0x0 MSTORE PUSH1 0x20 PUSH1 0x0 KECCAK256 SWAP1 JUMPDEST DUP2 SLOAD DUP2 MSTORE SWAP1 PUSH1 0x1 ADD SWAP1 PUSH1 0x20 ADD DUP1 DUP4 GT PUSH2 0x7D9 JUMPI DUP3 SWAP1 SUB PUSH1 0x1F AND DUP3 ADD SWAP2 JUMPDEST POP POP POP POP POP DUP2 MSTORE PUSH1 0x20 ADD PUSH1 0x2 DUP3 ADD DUP1 SLOAD PUSH2 0x80F SWAP1 PUSH2 0x2A64 JUMP JUMPDEST DUP1 PUSH1 0x1F ADD PUSH1 0x20 DUP1 SWAP2 DIV MUL PUSH1 0x20 ADD PUSH1 0x40 MLOAD SWAP1 DUP2 ADD PUSH1 0x40 MSTORE DUP1 SWAP3 SWAP2 SWAP1 DUP2 DUP2 MSTORE PUSH1 0x20 ADD DUP3 DUP1 SLOAD PUSH2 0x83B SWAP1 PUSH2 0x2A64 JUMP JUMPDEST DUP1 ISZERO PUSH2 0x888 JUMPI DUP1 PUSH1 0x1F LT PUSH2 0x85D JUMPI PUSH2 0x100 DUP1 DUP4 SLOAD DIV MUL DUP4 MSTORE SWAP2 PUSH1 0x20 ADD SWAP2 PUSH2 0x888 JUMP JUMPDEST DUP3 ADD SWAP2 SWAP1 PUSH1 0x0 MSTORE PUSH1 0x20 PUSH1 0x0 KECCAK256 SWAP1 JUMPDEST DUP2 SLOAD DUP2 MSTORE SWAP1 PUSH1 0x1 ADD SWAP1 PUSH1 0x20 ADD DUP1 DUP4 GT PUSH2 0x86B JUMPI DUP3 SWAP1 SUB PUSH1 0x1F AND DUP3 ADD SWAP2 JUMPDEST POP POP POP POP POP DUP2 MSTORE PUSH1 0x20 ADD PUSH1 0x3 DUP3 ADD DUP1 SLOAD PUSH2 0x8A1 SWAP1 PUSH2 0x2A64 JUMP JUMPDEST DUP1 PUSH1 0x1F ADD PUSH1 0x20 DUP1 SWAP2 DIV MUL PUSH1 0x20 ADD PUSH1 0x40 MLOAD SWAP1 DUP2 ADD PUSH1 0x40 MSTORE DUP1 SWAP3 SWAP2 SWAP1 DUP2 DUP2 MSTORE PUSH1 0x20 ADD DUP3 DUP1 SLOAD PUSH2 0x8CD SWAP1 PUSH2 0x2A64 JUMP JUMPDEST DUP1 ISZERO PUSH2 0x91A JUMPI DUP1 PUSH1 0x1F LT PUSH2 0x8EF JUMPI PUSH2 0x100 DUP1 DUP4 SLOAD DIV MUL DUP4 MSTORE SWAP2 PUSH1 0x20 ADD SWAP2 PUSH2 0x91A JUMP JUMPDEST DUP3 ADD SWAP2 SWAP1 PUSH1 0x0 MSTORE PUSH1 0x20 PUSH1 0x0 KECCAK256 SWAP1 JUMPDEST DUP2 SLOAD DUP2 MSTORE SWAP1 PUSH1 0x1 ADD SWAP1 PUSH1 0x20 ADD DUP1 DUP4 GT PUSH2 0x8FD JUMPI DUP3 SWAP1 SUB PUSH1 0x1F AND DUP3 ADD SWAP2 JUMPDEST POP POP POP POP POP DUP2 MSTORE PUSH1 0x20 ADD PUSH1 0x4 DUP3 ADD DUP1 SLOAD PUSH2 0x933 SWAP1 PUSH2 0x2A64 JUMP JUMPDEST DUP1 PUSH1 0x1F ADD PUSH1 0x20 DUP1 SWAP2 DIV MUL PUSH1 0x20 ADD PUSH1 0x40 MLOAD SWAP1 DUP2 ADD PUSH1 0x40 MSTORE DUP1 SWAP3 SWAP2 SWAP1 DUP2 DUP2 MSTORE PUSH1 0x20 ADD DUP3 DUP1 SLOAD PUSH2 0x95F SWAP1 PUSH2 0x2A64 JUMP JUMPDEST DUP1 ISZERO PUSH2 0x9AC JUMPI DUP1 PUSH1 0x1F LT PUSH2 0x981 JUMPI PUSH2 0x100 DUP1 DUP4 SLOAD DIV MUL DUP4 MSTORE SWAP2 PUSH1 0x20 ADD SWAP2 PUSH2 0x9AC JUMP JUMPDEST DUP3 ADD SWAP2 SWAP1 PUSH1 0x0 MSTORE PUSH1 0x20 PUSH1 0x0 KECCAK256 SWAP1 JUMPDEST DUP2 SLOAD DUP2 MSTORE SWAP1 PUSH1 0x1 ADD SWAP1 PUSH1 0x20 ADD DUP1 DUP4 GT PUSH2 0x98F JUMPI DUP3 SWAP1 SUB PUSH1 0x1F AND DUP3 ADD SWAP2 JUMPDEST POP POP POP POP POP DUP2 MSTORE PUSH1 0x20 ADD PUSH1 0x5 DUP3 ADD DUP1 SLOAD PUSH2 0x9C5 SWAP1 PUSH2 0x2A64 JUMP JUMPDEST DUP1 PUSH1 0x1F ADD PUSH1 0x20 DUP1 SWAP2 DIV MUL PUSH1 0x20 ADD PUSH1 0x40 MLOAD SWAP1 DUP2 ADD PUSH1 0x40 MSTORE DUP1 SWAP3 SWAP2 SWAP1 DUP2 DUP2 MSTORE PUSH1 0x20 ADD DUP3 DUP1 SLOAD PUSH2 0x9F1 SWAP1 PUSH2 0x2A64 JUMP JUMPDEST DUP1 ISZERO PUSH2 0xA3E JUMPI DUP1 PUSH1 0x1F LT PUSH2 0xA13 JUMPI PUSH2 0x100 DUP1 DUP4 SLOAD DIV MUL DUP4 MSTORE SWAP2 PUSH1 0x20 ADD SWAP2 PUSH2 0xA3E JUMP JUMPDEST DUP3 ADD SWAP2 SWAP1 PUSH1 0x0 MSTORE PUSH1 0x20 PUSH1 0x0 KECCAK256 SWAP1 JUMPDEST DUP2 SLOAD DUP2 MSTORE SWAP1 PUSH1 0x1 ADD SWAP1 PUSH1 0x20 ADD DUP1 DUP4 GT PUSH2 0xA21 JUMPI DUP3 SWAP1 SUB PUSH1 0x1F AND DUP3 ADD SWAP2 JUMPDEST POP POP POP POP POP DUP2 MSTORE PUSH1 0x20 ADD PUSH1 0x6 DUP3 ADD SLOAD DUP2 MSTORE PUSH1 0x20 ADD PUSH1 0x7 DUP3 ADD SLOAD DUP2 MSTORE PUSH1 0x20 ADD PUSH1 0x8 DUP3 ADD DUP1 SLOAD PUSH2 0xA6B SWAP1 PUSH2 0x2A64 JUMP JUMPDEST DUP1 PUSH1 0x1F ADD PUSH1 0x20 DUP1 SWAP2 DIV MUL PUSH1 0x20 ADD PUSH1 0x40 MLOAD SWAP1 DUP2 ADD PUSH1 0x40 MSTORE DUP1 SWAP3 SWAP2 SWAP1 DUP2 DUP2 MSTORE PUSH1 0x20 ADD DUP3 DUP1 SLOAD PUSH2 0xA97 SWAP1 PUSH2 0x2A64 JUMP JUMPDEST DUP1 ISZERO PUSH2 0xAE4 JUMPI DUP1 PUSH1 0x1F LT PUSH2 0xAB9 JUMPI PUSH2 0x100 DUP1 DUP4 SLOAD DIV MUL DUP4 MSTORE SWAP2 PUSH1 0x20 ADD SWAP2 PUSH2 0xAE4 JUMP JUMPDEST DUP3 ADD SWAP2 SWAP1 PUSH1 0x0 MSTORE PUSH1 0x20 PUSH1 0x0 KECCAK256 SWAP1 JUMPDEST DUP2 SLOAD DUP2 MSTORE SWAP1 PUSH1 0x1 ADD SWAP1 PUSH1 0x20 ADD DUP1 DUP4 GT PUSH2 0xAC7 JUMPI DUP3 SWAP1 SUB PUSH1 0x1F AND DUP3 ADD SWAP2 JUMPDEST POP POP POP POP POP DUP2 MSTORE PUSH1 0x20 ADD PUSH1 0x9 DUP3 ADD SLOAD DUP2 MSTORE POP POP DUP3 DUP3 DUP2 MLOAD DUP2 LT PUSH2 0xB0A JUMPI PUSH2 0xB09 PUSH2 0x2A95 JUMP JUMPDEST JUMPDEST PUSH1 0x20 MUL PUSH1 0x20 ADD ADD DUP2 SWAP1 MSTORE POP DUP1 DUP1 PUSH2 0xB20 SWAP1 PUSH2 0x2BAD JUMP JUMPDEST SWAP2 POP POP PUSH2 0x687 JUMP JUMPDEST POP DUP1 SWAP2 POP POP SWAP1 JUMP JUMPDEST PUSH1 0x0 DUP1 DUP4 PUSH1 0x40 MLOAD PUSH2 0xB41 SWAP2 SWAP1 PUSH2 0x2C26 JUMP JUMPDEST SWAP1 DUP2 MSTORE PUSH1 0x20 ADD PUSH1 0x40 MLOAD DUP1 SWAP2 SUB SWAP1 KECCAK256 PUSH1 0x0 ADD DUP1 SLOAD PUSH2 0xB5D SWAP1 PUSH2 0x2A64 JUMP JUMPDEST SWAP1 POP SUB PUSH2 0xB9F JUMPI PUSH1 0x40 MLOAD PUSH32 0x8C379A000000000000000000000000000000000000000000000000000000000 DUP2 MSTORE PUSH1 0x4 ADD PUSH2 0xB96 SWAP1 PUSH2 0x2C89 JUMP JUMPDEST PUSH1 0x40 MLOAD DUP1 SWAP2 SUB SWAP1 REVERT JUMPDEST DUP1 PUSH1 0x0 DUP4 PUSH1 0x40 MLOAD PUSH2 0xBB0 SWAP2 SWAP1 PUSH2 0x2C26 JUMP JUMPDEST SWAP1 DUP2 MSTORE PUSH1 0x20 ADD PUSH1 0x40 MLOAD DUP1 SWAP2 SUB SWAP1 KECCAK256 PUSH1 0x5 ADD SWAP1 DUP2 PUSH2 0xBCD SWAP2 SWAP1 PUSH2 0x2E40 JUMP JUMPDEST POP PUSH32 0xB75B1FEC1BC9156569AE9F72FB29C6E6727B297E191D358465FFF4C09D8F7D26 DUP3 DUP3 PUSH1 0x40 MLOAD PUSH2 0xBFF SWAP3 SWAP2 SWAP1 PUSH2 0x2F12 JUMP JUMPDEST PUSH1 0x40 MLOAD DUP1 SWAP2 SUB SWAP1 LOG1 POP POP JUMP JUMPDEST PUSH1 0x1 DUP2 DUP2 SLOAD DUP2 LT PUSH2 0xC1B JUMPI PUSH1 0x0 DUP1 REVERT JUMPDEST SWAP1 PUSH1 0x0 MSTORE PUSH1 0x20 PUSH1 0x0 KECCAK256 ADD PUSH1 0x0 SWAP2 POP SWAP1 POP DUP1 SLOAD PUSH2 0xC36 SWAP1 PUSH2 0x2A64 JUMP JUMPDEST DUP1 PUSH1 0x1F ADD PUSH1 0x20 DUP1 SWAP2 DIV MUL PUSH1 0x20 ADD PUSH1 0x40 MLOAD SWAP1 DUP2 ADD PUSH1 0x40 MSTORE DUP1 SWAP3 SWAP2 SWAP1 DUP2 DUP2 MSTORE PUSH1 0x20 ADD DUP3 DUP1 SLOAD PUSH2 0xC62 SWAP1 PUSH2 0x2A64 JUMP JUMPDEST DUP1 ISZERO PUSH2 0xCAF JUMPI DUP1 PUSH1 0x1F LT PUSH2 0xC84 JUMPI PUSH2 0x100 DUP1 DUP4 SLOAD DIV MUL DUP4 MSTORE SWAP2 PUSH1 0x20 ADD SWAP2 PUSH2 0xCAF JUMP JUMPDEST DUP3 ADD SWAP2 SWAP1 PUSH1 0x0 MSTORE PUSH1 0x20 PUSH1 0x0 KECCAK256 SWAP1 JUMPDEST DUP2 SLOAD DUP2 MSTORE SWAP1 PUSH1 0x1 ADD SWAP1 PUSH1 0x20 ADD DUP1 DUP4 GT PUSH2 0xC92 JUMPI DUP3 SWAP1 SUB PUSH1 0x1F AND DUP3 ADD SWAP2 JUMPDEST POP POP POP POP POP DUP2 JUMP JUMPDEST PUSH1 0x60 PUSH1 0x0 DUP1 JUMPDEST PUSH1 0x1 DUP1 SLOAD SWAP1 POP DUP2 LT ISZERO PUSH2 0xD7C JUMPI DUP4 PUSH1 0x40 MLOAD PUSH1 0x20 ADD PUSH2 0xCDB SWAP2 SWAP1 PUSH2 0x2C26 JUMP JUMPDEST PUSH1 0x40 MLOAD PUSH1 0x20 DUP2 DUP4 SUB SUB DUP2 MSTORE SWAP1 PUSH1 0x40 MSTORE DUP1 MLOAD SWAP1 PUSH1 0x20 ADD KECCAK256 PUSH1 0x0 PUSH1 0x1 DUP4 DUP2 SLOAD DUP2 LT PUSH2 0xD07 JUMPI PUSH2 0xD06 PUSH2 0x2A95 JUMP JUMPDEST JUMPDEST SWAP1 PUSH1 0x0 MSTORE PUSH1 0x20 PUSH1 0x0 KECCAK256 ADD PUSH1 0x40 MLOAD PUSH2 0xD1E SWAP2 SWAP1 PUSH2 0x2B67 JUMP JUMPDEST SWAP1 DUP2 MSTORE PUSH1 0x20 ADD PUSH1 0x40 MLOAD DUP1 SWAP2 SUB SWAP1 KECCAK256 PUSH1 0x2 ADD PUSH1 0x40 MLOAD PUSH1 0x20 ADD PUSH2 0xD3F SWAP2 SWAP1 PUSH2 0x2B67 JUMP JUMPDEST PUSH1 0x40 MLOAD PUSH1 0x20 DUP2 DUP4 SUB SUB DUP2 MSTORE SWAP1 PUSH1 0x40 MSTORE DUP1 MLOAD SWAP1 PUSH1 0x20 ADD KECCAK256 SUB PUSH2 0xD69 JUMPI DUP2 DUP1 PUSH2 0xD65 SWAP1 PUSH2 0x2BAD JUMP JUMPDEST SWAP3 POP POP JUMPDEST DUP1 DUP1 PUSH2 0xD74 SWAP1 PUSH2 0x2BAD JUMP JUMPDEST SWAP2 POP POP PUSH2 0xCBD JUMP JUMPDEST POP PUSH1 0x0 DUP2 PUSH8 0xFFFFFFFFFFFFFFFF DUP2 GT ISZERO PUSH2 0xD99 JUMPI PUSH2 0xD98 PUSH2 0x215F JUMP JUMPDEST JUMPDEST PUSH1 0x40 MLOAD SWAP1 DUP1 DUP3 MSTORE DUP1 PUSH1 0x20 MUL PUSH1 0x20 ADD DUP3 ADD PUSH1 0x40 MSTORE DUP1 ISZERO PUSH2 0xDD2 JUMPI DUP2 PUSH1 0x20 ADD JUMPDEST PUSH2 0xDBF PUSH2 0x20DD JUMP JUMPDEST DUP2 MSTORE PUSH1 0x20 ADD SWAP1 PUSH1 0x1 SWAP1 SUB SWAP1 DUP2 PUSH2 0xDB7 JUMPI SWAP1 POP JUMPDEST POP SWAP1 POP PUSH1 0x0 DUP1 JUMPDEST PUSH1 0x1 DUP1 SLOAD SWAP1 POP DUP2 LT ISZERO PUSH2 0x1319 JUMPI DUP6 PUSH1 0x40 MLOAD PUSH1 0x20 ADD PUSH2 0xDF7 SWAP2 SWAP1 PUSH2 0x2C26 JUMP JUMPDEST PUSH1 0x40 MLOAD PUSH1 0x20 DUP2 DUP4 SUB SUB DUP2 MSTORE SWAP1 PUSH1 0x40 MSTORE DUP1 MLOAD SWAP1 PUSH1 0x20 ADD KECCAK256 PUSH1 0x0 PUSH1 0x1 DUP4 DUP2 SLOAD DUP2 LT PUSH2 0xE23 JUMPI PUSH2 0xE22 PUSH2 0x2A95 JUMP JUMPDEST JUMPDEST SWAP1 PUSH1 0x0 MSTORE PUSH1 0x20 PUSH1 0x0 KECCAK256 ADD PUSH1 0x40 MLOAD PUSH2 0xE3A SWAP2 SWAP1 PUSH2 0x2B67 JUMP JUMPDEST SWAP1 DUP2 MSTORE PUSH1 0x20 ADD PUSH1 0x40 MLOAD DUP1 SWAP2 SUB SWAP1 KECCAK256 PUSH1 0x2 ADD PUSH1 0x40 MLOAD PUSH1 0x20 ADD PUSH2 0xE5B SWAP2 SWAP1 PUSH2 0x2B67 JUMP JUMPDEST PUSH1 0x40 MLOAD PUSH1 0x20 DUP2 DUP4 SUB SUB DUP2 MSTORE SWAP1 PUSH1 0x40 MSTORE DUP1 MLOAD SWAP1 PUSH1 0x20 ADD KECCAK256 SUB PUSH2 0x1306 JUMPI PUSH1 0x0 PUSH1 0x1 DUP3 DUP2 SLOAD DUP2 LT PUSH2 0xE8C JUMPI PUSH2 0xE8B PUSH2 0x2A95 JUMP JUMPDEST JUMPDEST SWAP1 PUSH1 0x0 MSTORE PUSH1 0x20 PUSH1 0x0 KECCAK256 ADD PUSH1 0x40 MLOAD PUSH2 0xEA3 SWAP2 SWAP1 PUSH2 0x2B67 JUMP JUMPDEST SWAP1 DUP2 MSTORE PUSH1 0x20 ADD PUSH1 0x40 MLOAD DUP1 SWAP2 SUB SWAP1 KECCAK256 PUSH1 0x40 MLOAD DUP1 PUSH2 0x140 ADD PUSH1 0x40 MSTORE SWAP1 DUP2 PUSH1 0x0 DUP3 ADD DUP1 SLOAD PUSH2 0xECD SWAP1 PUSH2 0x2A64 JUMP JUMPDEST DUP1 PUSH1 0x1F ADD PUSH1 0x20 DUP1 SWAP2 DIV MUL PUSH1 0x20 ADD PUSH1 0x40 MLOAD SWAP1 DUP2 ADD PUSH1 0x40 MSTORE DUP1 SWAP3 SWAP2 SWAP1 DUP2 DUP2 MSTORE PUSH1 0x20 ADD DUP3 DUP1 SLOAD PUSH2 0xEF9 SWAP1 PUSH2 0x2A64 JUMP JUMPDEST DUP1 ISZERO PUSH2 0xF46 JUMPI DUP1 PUSH1 0x1F LT PUSH2 0xF1B JUMPI PUSH2 0x100 DUP1 DUP4 SLOAD DIV MUL DUP4 MSTORE SWAP2 PUSH1 0x20 ADD SWAP2 PUSH2 0xF46 JUMP JUMPDEST DUP3 ADD SWAP2 SWAP1 PUSH1 0x0 MSTORE PUSH1 0x20 PUSH1 0x0 KECCAK256 SWAP1 JUMPDEST DUP2 SLOAD DUP2 MSTORE SWAP1 PUSH1 0x1 ADD SWAP1 PUSH1 0x20 ADD DUP1 DUP4 GT PUSH2 0xF29 JUMPI DUP3 SWAP1 SUB PUSH1 0x1F AND DUP3 ADD SWAP2 JUMPDEST POP POP POP POP POP DUP2 MSTORE PUSH1 0x20 ADD PUSH1 0x1 DUP3 ADD DUP1 SLOAD PUSH2 0xF5F SWAP1 PUSH2 0x2A64 JUMP JUMPDEST DUP1 PUSH1 0x1F ADD PUSH1 0x20 DUP1 SWAP2 DIV MUL PUSH1 0x20 ADD PUSH1 0x40 MLOAD SWAP1 DUP2 ADD PUSH1 0x40 MSTORE DUP1 SWAP3 SWAP2 SWAP1 DUP2 DUP2 MSTORE PUSH1 0x20 ADD DUP3 DUP1 SLOAD PUSH2 0xF8B SWAP1 PUSH2 0x2A64 JUMP JUMPDEST DUP1 ISZERO PUSH2 0xFD8 JUMPI DUP1 PUSH1 0x1F LT PUSH2 0xFAD JUMPI PUSH2 0x100 DUP1 DUP4 SLOAD DIV MUL DUP4 MSTORE SWAP2 PUSH1 0x20 ADD SWAP2 PUSH2 0xFD8 JUMP JUMPDEST DUP3 ADD SWAP2 SWAP1 PUSH1 0x0 MSTORE PUSH1 0x20 PUSH1 0x0 KECCAK256 SWAP1 JUMPDEST DUP2 SLOAD DUP2 MSTORE SWAP1 PUSH1 0x1 ADD SWAP1 PUSH1 0x20 ADD DUP1 DUP4 GT PUSH2 0xFBB JUMPI DUP3 SWAP1 SUB PUSH1 0x1F AND DUP3 ADD SWAP2 JUMPDEST POP POP POP POP POP DUP2 MSTORE PUSH1 0x20 ADD PUSH1 0x2 DUP3 ADD DUP1 SLOAD PUSH2 0xFF1 SWAP1 PUSH2 0x2A64 JUMP JUMPDEST DUP1 PUSH1 0x1F ADD PUSH1 0x20 DUP1 SWAP2 DIV MUL PUSH1 0x20 ADD PUSH1 0x40 MLOAD SWAP1 DUP2 ADD PUSH1 0x40 MSTORE DUP1 SWAP3 SWAP2 SWAP1 DUP2 DUP2 MSTORE PUSH1 0x20 ADD DUP3 DUP1 SLOAD PUSH2 0x101D SWAP1 PUSH2 0x2A64 JUMP JUMPDEST DUP1 ISZERO PUSH2 0x106A JUMPI DUP1 PUSH1 0x1F LT PUSH2 0x103F JUMPI PUSH2 0x100 DUP1 DUP4 SLOAD DIV MUL DUP4 MSTORE SWAP2 PUSH1 0x20 ADD SWAP2 PUSH2 0x106A JUMP JUMPDEST DUP3 ADD SWAP2 SWAP1 PUSH1 0x0 MSTORE PUSH1 0x20 PUSH1 0x0 KECCAK256 SWAP1 JUMPDEST DUP2 SLOAD DUP2 MSTORE SWAP1 PUSH1 0x1 ADD SWAP1 PUSH1 0x20 ADD DUP1 DUP4 GT PUSH2 0x104D JUMPI DUP3 SWAP1 SUB PUSH1 0x1F AND DUP3 ADD SWAP2 JUMPDEST POP POP POP POP POP DUP2 MSTORE PUSH1 0x20 ADD PUSH1 0x3 DUP3 ADD DUP1 SLOAD PUSH2 0x1083 SWAP1 PUSH2 0x2A64 JUMP JUMPDEST DUP1 PUSH1 0x1F ADD PUSH1 0x20 DUP1 SWAP2 DIV MUL PUSH1 0x20 ADD PUSH1 0x40 MLOAD SWAP1 DUP2 ADD PUSH1 0x40 MSTORE DUP1 SWAP3 SWAP2 SWAP1 DUP2 DUP2 MSTORE PUSH1 0x20 ADD DUP3 DUP1 SLOAD PUSH2 0x10AF SWAP1 PUSH2 0x2A64 JUMP JUMPDEST DUP1 ISZERO PUSH2 0x10FC JUMPI DUP1 PUSH1 0x1F LT PUSH2 0x10D1 JUMPI PUSH2 0x100 DUP1 DUP4 SLOAD DIV MUL DUP4 MSTORE SWAP2 PUSH1 0x20 ADD SWAP2 PUSH2 0x10FC JUMP JUMPDEST DUP3 ADD SWAP2 SWAP1 PUSH1 0x0 MSTORE PUSH1 0x20 PUSH1 0x0 KECCAK256 SWAP1 JUMPDEST DUP2 SLOAD DUP2 MSTORE SWAP1 PUSH1 0x1 ADD SWAP1 PUSH1 0x20 ADD DUP1 DUP4 GT PUSH2 0x10DF JUMPI DUP3 SWAP1 SUB PUSH1 0x1F AND DUP3 ADD SWAP2 JUMPDEST POP POP POP POP POP DUP2 MSTORE PUSH1 0x20 ADD PUSH1 0x4 DUP3 ADD DUP1 SLOAD PUSH2 0x1115 SWAP1 PUSH2 0x2A64 JUMP JUMPDEST DUP1 PUSH1 0x1F ADD PUSH1 0x20 DUP1 SWAP2 DIV MUL PUSH1 0x20 ADD PUSH1 0x40 MLOAD SWAP1 DUP2 ADD PUSH1 0x40 MSTORE DUP1 SWAP3 SWAP2 SWAP1 DUP2 DUP2 MSTORE PUSH1 0x20 ADD DUP3 DUP1 SLOAD PUSH2 0x1141 SWAP1 PUSH2 0x2A64 JUMP JUMPDEST DUP1 ISZERO PUSH2 0x118E JUMPI DUP1 PUSH1 0x1F LT PUSH2 0x1163 JUMPI PUSH2 0x100 DUP1 DUP4 SLOAD DIV MUL DUP4 MSTORE SWAP2 PUSH1 0x20 ADD SWAP2 PUSH2 0x118E JUMP JUMPDEST DUP3 ADD SWAP2 SWAP1 PUSH1 0x0 MSTORE PUSH1 0x20 PUSH1 0x0 KECCAK256 SWAP1 JUMPDEST DUP2 SLOAD DUP2 MSTORE SWAP1 PUSH1 0x1 ADD SWAP1 PUSH1 0x20 ADD DUP1 DUP4 GT PUSH2 0x1171 JUMPI DUP3 SWAP1 SUB PUSH1 0x1F AND DUP3 ADD SWAP2 JUMPDEST POP POP POP POP POP DUP2 MSTORE PUSH1 0x20 ADD PUSH1 0x5 DUP3 ADD DUP1 SLOAD PUSH2 0x11A7 SWAP1 PUSH2 0x2A64 JUMP JUMPDEST DUP1 PUSH1 0x1F ADD PUSH1 0x20 DUP1 SWAP2 DIV MUL PUSH1 0x20 ADD PUSH1 0x40 MLOAD SWAP1 DUP2 ADD PUSH1 0x40 MSTORE DUP1 SWAP3 SWAP2 SWAP1 DUP2 DUP2 MSTORE PUSH1 0x20 ADD DUP3 DUP1 SLOAD PUSH2 0x11D3 SWAP1 PUSH2 0x2A64 JUMP JUMPDEST DUP1 ISZERO PUSH2 0x1220 JUMPI DUP1 PUSH1 0x1F LT PUSH2 0x11F5 JUMPI PUSH2 0x100 DUP1 DUP4 SLOAD DIV MUL DUP4 MSTORE SWAP2 PUSH1 0x20 ADD SWAP2 PUSH2 0x1220 JUMP JUMPDEST DUP3 ADD SWAP2 SWAP1 PUSH1 0x0 MSTORE PUSH1 0x20 PUSH1 0x0 KECCAK256 SWAP1 JUMPDEST DUP2 SLOAD DUP2 MSTORE SWAP1 PUSH1 0x1 ADD SWAP1 PUSH1 0x20 ADD DUP1 DUP4 GT PUSH2 0x1203 JUMPI DUP3 SWAP1 SUB PUSH1 0x1F AND DUP3 ADD SWAP2 JUMPDEST POP POP POP POP POP DUP2 MSTORE PUSH1 0x20 ADD PUSH1 0x6 DUP3 ADD SLOAD DUP2 MSTORE PUSH1 0x20 ADD PUSH1 0x7 DUP3 ADD SLOAD DUP2 MSTORE PUSH1 0x20 ADD PUSH1 0x8 DUP3 ADD DUP1 SLOAD PUSH2 0x124D SWAP1 PUSH2 0x2A64 JUMP JUMPDEST DUP1 PUSH1 0x1F ADD PUSH1 0x20 DUP1 SWAP2 DIV MUL PUSH1 0x20 ADD PUSH1 0x40 MLOAD SWAP1 DUP2 ADD PUSH1 0x40 MSTORE DUP1 SWAP3 SWAP2 SWAP1 DUP2 DUP2 MSTORE PUSH1 0x20 ADD DUP3 DUP1 SLOAD PUSH2 0x1279 SWAP1 PUSH2 0x2A64 JUMP JUMPDEST DUP1 ISZERO PUSH2 0x12C6 JUMPI DUP1 PUSH1 0x1F LT PUSH2 0x129B JUMPI PUSH2 0x100 DUP1 DUP4 SLOAD DIV MUL DUP4 MSTORE SWAP2 PUSH1 0x20 ADD SWAP2 PUSH2 0x12C6 JUMP JUMPDEST DUP3 ADD SWAP2 SWAP1 PUSH1 0x0 MSTORE PUSH1 0x20 PUSH1 0x0 KECCAK256 SWAP1 JUMPDEST DUP2 SLOAD DUP2 MSTORE SWAP1 PUSH1 0x1 ADD SWAP1 PUSH1 0x20 ADD DUP1 DUP4 GT PUSH2 0x12A9 JUMPI DUP3 SWAP1 SUB PUSH1 0x1F AND DUP3 ADD SWAP2 JUMPDEST POP POP POP POP POP DUP2 MSTORE PUSH1 0x20 ADD PUSH1 0x9 DUP3 ADD SLOAD DUP2 MSTORE POP POP DUP4 DUP4 DUP2 MLOAD DUP2 LT PUSH2 0x12EC JUMPI PUSH2 0x12EB PUSH2 0x2A95 JUMP JUMPDEST JUMPDEST PUSH1 0x20 MUL PUSH1 0x20 ADD ADD DUP2 SWAP1 MSTORE POP DUP2 DUP1 PUSH2 0x1302 SWAP1 PUSH2 0x2BAD JUMP JUMPDEST SWAP3 POP POP JUMPDEST DUP1 DUP1 PUSH2 0x1311 SWAP1 PUSH2 0x2BAD JUMP JUMPDEST SWAP2 POP POP PUSH2 0xDD9 JUMP JUMPDEST POP DUP2 SWAP4 POP POP POP POP SWAP2 SWAP1 POP JUMP JUMPDEST PUSH1 0x40 MLOAD DUP1 PUSH2 0x140 ADD PUSH1 0x40 MSTORE DUP1 DUP12 DUP2 MSTORE PUSH1 0x20 ADD DUP11 DUP2 MSTORE PUSH1 0x20 ADD DUP10 DUP2 MSTORE PUSH1 0x20 ADD DUP9 DUP2 MSTORE PUSH1 0x20 ADD DUP8 DUP2 MSTORE PUSH1 0x20 ADD DUP7 DUP2 MSTORE PUSH1 0x20 ADD DUP6 DUP2 MSTORE PUSH1 0x20 ADD DUP5 DUP2 MSTORE PUSH1 0x20 ADD DUP4 DUP2 MSTORE PUSH1 0x20 ADD DUP3 DUP2 MSTORE POP PUSH1 0x0 DUP12 PUSH1 0x40 MLOAD PUSH2 0x137B SWAP2 SWAP1 PUSH2 0x2C26 JUMP JUMPDEST SWAP1 DUP2 MSTORE PUSH1 0x20 ADD PUSH1 0x40 MLOAD DUP1 SWAP2 SUB SWAP1 KECCAK256 PUSH1 0x0 DUP3 ADD MLOAD DUP2 PUSH1 0x0 ADD SWAP1 DUP2 PUSH2 0x139E SWAP2 SWAP1 PUSH2 0x2E40 JUMP JUMPDEST POP PUSH1 0x20 DUP3 ADD MLOAD DUP2 PUSH1 0x1 ADD SWAP1 DUP2 PUSH2 0x13B4 SWAP2 SWAP1 PUSH2 0x2E40 JUMP JUMPDEST POP PUSH1 0x40 DUP3 ADD MLOAD DUP2 PUSH1 0x2 ADD SWAP1 DUP2 PUSH2 0x13CA SWAP2 SWAP1 PUSH2 0x2E40 JUMP JUMPDEST POP PUSH1 0x60 DUP3 ADD MLOAD DUP2 PUSH1 0x3 ADD SWAP1 DUP2 PUSH2 0x13E0 SWAP2 SWAP1 PUSH2 0x2E40 JUMP JUMPDEST POP PUSH1 0x80 DUP3 ADD MLOAD DUP2 PUSH1 0x4 ADD SWAP1 DUP2 PUSH2 0x13F6 SWAP2 SWAP1 PUSH2 0x2E40 JUMP JUMPDEST POP PUSH1 0xA0 DUP3 ADD MLOAD DUP2 PUSH1 0x5 ADD SWAP1 DUP2 PUSH2 0x140C SWAP2 SWAP1 PUSH2 0x2E40 JUMP JUMPDEST POP PUSH1 0xC0 DUP3 ADD MLOAD DUP2 PUSH1 0x6 ADD SSTORE PUSH1 0xE0 DUP3 ADD MLOAD DUP2 PUSH1 0x7 ADD SSTORE PUSH2 0x100 DUP3 ADD MLOAD DUP2 PUSH1 0x8 ADD SWAP1 DUP2 PUSH2 0x1437 SWAP2 SWAP1 PUSH2 0x2E40 JUMP JUMPDEST POP PUSH2 0x120 DUP3 ADD MLOAD DUP2 PUSH1 0x9 ADD SSTORE SWAP1 POP POP PUSH1 0x1 DUP11 SWAP1 DUP1 PUSH1 0x1 DUP2 SLOAD ADD DUP1 DUP3 SSTORE DUP1 SWAP2 POP POP PUSH1 0x1 SWAP1 SUB SWAP1 PUSH1 0x0 MSTORE PUSH1 0x20 PUSH1 0x0 KECCAK256 ADD PUSH1 0x0 SWAP1 SWAP2 SWAP1 SWAP2 SWAP1 SWAP2 POP SWAP1 DUP2 PUSH2 0x147A SWAP2 SWAP1 PUSH2 0x2E40 JUMP JUMPDEST POP PUSH32 0x86B635665185C0479E14DE4802087C1EAD14A87167C270C210630B0B3D91FD22 DUP11 DUP11 DUP11 DUP11 DUP11 DUP11 DUP11 DUP11 DUP11 DUP11 PUSH1 0x40 MLOAD PUSH2 0x14BC SWAP11 SWAP10 SWAP9 SWAP8 SWAP7 SWAP6 SWAP5 SWAP4 SWAP3 SWAP2 SWAP1 PUSH2 0x236B JUMP JUMPDEST PUSH1 0x40 MLOAD DUP1 SWAP2 SUB SWAP1 LOG1 POP POP POP POP POP POP POP POP POP POP JUMP JUMPDEST PUSH1 0x60 PUSH1 0x0 DUP1 JUMPDEST PUSH1 0x1 DUP1 SLOAD SWAP1 POP DUP2 LT ISZERO PUSH2 0x1595 JUMPI DUP4 PUSH1 0x40 MLOAD PUSH1 0x20 ADD PUSH2 0x14F4 SWAP2 SWAP1 PUSH2 0x2C26 JUMP JUMPDEST PUSH1 0x40 MLOAD PUSH1 0x20 DUP2 DUP4 SUB SUB DUP2 MSTORE SWAP1 PUSH1 0x40 MSTORE DUP1 MLOAD SWAP1 PUSH1 0x20 ADD KECCAK256 PUSH1 0x0 PUSH1 0x1 DUP4 DUP2 SLOAD DUP2 LT PUSH2 0x1520 JUMPI PUSH2 0x151F PUSH2 0x2A95 JUMP JUMPDEST JUMPDEST SWAP1 PUSH1 0x0 MSTORE PUSH1 0x20 PUSH1 0x0 KECCAK256 ADD PUSH1 0x40 MLOAD PUSH2 0x1537 SWAP2 SWAP1 PUSH2 0x2B67 JUMP JUMPDEST SWAP1 DUP2 MSTORE PUSH1 0x20 ADD PUSH1 0x40 MLOAD DUP1 SWAP2 SUB SWAP1 KECCAK256 PUSH1 0x1 ADD PUSH1 0x40 MLOAD PUSH1 0x20 ADD PUSH2 0x1558 SWAP2 SWAP1 PUSH2 0x2B67 JUMP JUMPDEST PUSH1 0x40 MLOAD PUSH1 0x20 DUP2 DUP4 SUB SUB DUP2 MSTORE SWAP1 PUSH1 0x40 MSTORE DUP1 MLOAD SWAP1 PUSH1 0x20 ADD KECCAK256 SUB PUSH2 0x1582 JUMPI DUP2 DUP1 PUSH2 0x157E SWAP1 PUSH2 0x2BAD JUMP JUMPDEST SWAP3 POP POP JUMPDEST DUP1 DUP1 PUSH2 0x158D SWAP1 PUSH2 0x2BAD JUMP JUMPDEST SWAP2 POP POP PUSH2 0x14D6 JUMP JUMPDEST POP PUSH1 0x0 DUP2 PUSH8 0xFFFFFFFFFFFFFFFF DUP2 GT ISZERO PUSH2 0x15B2 JUMPI PUSH2 0x15B1 PUSH2 0x215F JUMP JUMPDEST JUMPDEST PUSH1 0x40 MLOAD SWAP1 DUP1 DUP3 MSTORE DUP1 PUSH1 0x20 MUL PUSH1 0x20 ADD DUP3 ADD PUSH1 0x40 MSTORE DUP1 ISZERO PUSH2 0x15EB JUMPI DUP2 PUSH1 0x20 ADD JUMPDEST PUSH2 0x15D8 PUSH2 0x20DD JUMP JUMPDEST DUP2 MSTORE PUSH1 0x20 ADD SWAP1 PUSH1 0x1 SWAP1 SUB SWAP1 DUP2 PUSH2 0x15D0 JUMPI SWAP1 POP JUMPDEST POP SWAP1 POP PUSH1 0x0 DUP1 JUMPDEST PUSH1 0x1 DUP1 SLOAD SWAP1 POP DUP2 LT ISZERO PUSH2 0x1B32 JUMPI DUP6 PUSH1 0x40 MLOAD PUSH1 0x20 ADD PUSH2 0x1610 SWAP2 SWAP1 PUSH2 0x2C26 JUMP JUMPDEST PUSH1 0x40 MLOAD PUSH1 0x20 DUP2 DUP4 SUB SUB DUP2 MSTORE SWAP1 PUSH1 0x40 MSTORE DUP1 MLOAD SWAP1 PUSH1 0x20 ADD KECCAK256 PUSH1 0x0 PUSH1 0x1 DUP4 DUP2 SLOAD DUP2 LT PUSH2 0x163C JUMPI PUSH2 0x163B PUSH2 0x2A95 JUMP JUMPDEST JUMPDEST SWAP1 PUSH1 0x0 MSTORE PUSH1 0x20 PUSH1 0x0 KECCAK256 ADD PUSH1 0x40 MLOAD PUSH2 0x1653 SWAP2 SWAP1 PUSH2 0x2B67 JUMP JUMPDEST SWAP1 DUP2 MSTORE PUSH1 0x20 ADD PUSH1 0x40 MLOAD DUP1 SWAP2 SUB SWAP1 KECCAK256 PUSH1 0x1 ADD PUSH1 0x40 MLOAD PUSH1 0x20 ADD PUSH2 0x1674 SWAP2 SWAP1 PUSH2 0x2B67 JUMP JUMPDEST PUSH1 0x40 MLOAD PUSH1 0x20 DUP2 DUP4 SUB SUB DUP2 MSTORE SWAP1 PUSH1 0x40 MSTORE DUP1 MLOAD SWAP1 PUSH1 0x20 ADD KECCAK256 SUB PUSH2 0x1B1F JUMPI PUSH1 0x0 PUSH1 0x1 DUP3 DUP2 SLOAD DUP2 LT PUSH2 0x16A5 JUMPI PUSH2 0x16A4 PUSH2 0x2A95 JUMP JUMPDEST JUMPDEST SWAP1 PUSH1 0x0 MSTORE PUSH1 0x20 PUSH1 0x0 KECCAK256 ADD PUSH1 0x40 MLOAD PUSH2 0x16BC SWAP2 SWAP1 PUSH2 0x2B67 JUMP JUMPDEST SWAP1 DUP2 MSTORE PUSH1 0x20 ADD PUSH1 0x40 MLOAD DUP1 SWAP2 SUB SWAP1 KECCAK256 PUSH1 0x40 MLOAD DUP1 PUSH2 0x140 ADD PUSH1 0x40 MSTORE SWAP1 DUP2 PUSH1 0x0 DUP3 ADD DUP1 SLOAD PUSH2 0x16E6 SWAP1 PUSH2 0x2A64 JUMP JUMPDEST DUP1 PUSH1 0x1F ADD PUSH1 0x20 DUP1 SWAP2 DIV MUL PUSH1 0x20 ADD PUSH1 0x40 MLOAD SWAP1 DUP2 ADD PUSH1 0x40 MSTORE DUP1 SWAP3 SWAP2 SWAP1 DUP2 DUP2 MSTORE PUSH1 0x20 ADD DUP3 DUP1 SLOAD PUSH2 0x1712 SWAP1 PUSH2 0x2A64 JUMP JUMPDEST DUP1 ISZERO PUSH2 0x175F JUMPI DUP1 PUSH1 0x1F LT PUSH2 0x1734 JUMPI PUSH2 0x100 DUP1 DUP4 SLOAD DIV MUL DUP4 MSTORE SWAP2 PUSH1 0x20 ADD SWAP2 PUSH2 0x175F JUMP JUMPDEST DUP3 ADD SWAP2 SWAP1 PUSH1 0x0 MSTORE PUSH1 0x20 PUSH1 0x0 KECCAK256 SWAP1 JUMPDEST DUP2 SLOAD DUP2 MSTORE SWAP1 PUSH1 0x1 ADD SWAP1 PUSH1 0x20 ADD DUP1 DUP4 GT PUSH2 0x1742 JUMPI DUP3 SWAP1 SUB PUSH1 0x1F AND DUP3 ADD SWAP2 JUMPDEST POP POP POP POP POP DUP2 MSTORE PUSH1 0x20 ADD PUSH1 0x1 DUP3 ADD DUP1 SLOAD PUSH2 0x1778 SWAP1 PUSH2 0x2A64 JUMP JUMPDEST DUP1 PUSH1 0x1F ADD PUSH1 0x20 DUP1 SWAP2 DIV MUL PUSH1 0x20 ADD PUSH1 0x40 MLOAD SWAP1 DUP2 ADD PUSH1 0x40 MSTORE DUP1 SWAP3 SWAP2 SWAP1 DUP2 DUP2 MSTORE PUSH1 0x20 ADD DUP3 DUP1 SLOAD PUSH2 0x17A4 SWAP1 PUSH2 0x2A64 JUMP JUMPDEST DUP1 ISZERO PUSH2 0x17F1 JUMPI DUP1 PUSH1 0x1F LT PUSH2 0x17C6 JUMPI PUSH2 0x100 DUP1 DUP4 SLOAD DIV MUL DUP4 MSTORE SWAP2 PUSH1 0x20 ADD SWAP2 PUSH2 0x17F1 JUMP JUMPDEST DUP3 ADD SWAP2 SWAP1 PUSH1 0x0 MSTORE PUSH1 0x20 PUSH1 0x0 KECCAK256 SWAP1 JUMPDEST DUP2 SLOAD DUP2 MSTORE SWAP1 PUSH1 0x1 ADD SWAP1 PUSH1 0x20 ADD DUP1 DUP4 GT PUSH2 0x17D4 JUMPI DUP3 SWAP1 SUB PUSH1 0x1F AND DUP3 ADD SWAP2 JUMPDEST POP POP POP POP POP DUP2 MSTORE PUSH1 0x20 ADD PUSH1 0x2 DUP3 ADD DUP1 SLOAD PUSH2 0x180A SWAP1 PUSH2 0x2A64 JUMP JUMPDEST DUP1 PUSH1 0x1F ADD PUSH1 0x20 DUP1 SWAP2 DIV MUL PUSH1 0x20 ADD PUSH1 0x40 MLOAD SWAP1 DUP2 ADD PUSH1 0x40 MSTORE DUP1 SWAP3 SWAP2 SWAP1 DUP2 DUP2 MSTORE PUSH1 0x20 ADD DUP3 DUP1 SLOAD PUSH2 0x1836 SWAP1 PUSH2 0x2A64 JUMP JUMPDEST DUP1 ISZERO PUSH2 0x1883 JUMPI DUP1 PUSH1 0x1F LT PUSH2 0x1858 JUMPI PUSH2 0x100 DUP1 DUP4 SLOAD DIV MUL DUP4 MSTORE SWAP2 PUSH1 0x20 ADD SWAP2 PUSH2 0x1883 JUMP JUMPDEST DUP3 ADD SWAP2 SWAP1 PUSH1 0x0 MSTORE PUSH1 0x20 PUSH1 0x0 KECCAK256 SWAP1 JUMPDEST DUP2 SLOAD DUP2 MSTORE SWAP1 PUSH1 0x1 ADD SWAP1 PUSH1 0x20 ADD DUP1 DUP4 GT PUSH2 0x1866 JUMPI DUP3 SWAP1 SUB PUSH1 0x1F AND DUP3 ADD SWAP2 JUMPDEST POP POP POP POP POP DUP2 MSTORE PUSH1 0x20 ADD PUSH1 0x3 DUP3 ADD DUP1 SLOAD PUSH2 0x189C SWAP1 PUSH2 0x2A64 JUMP JUMPDEST DUP1 PUSH1 0x1F ADD PUSH1 0x20 DUP1 SWAP2 DIV MUL PUSH1 0x20 ADD PUSH1 0x40 MLOAD SWAP1 DUP2 ADD PUSH1 0x40 MSTORE DUP1 SWAP3 SWAP2 SWAP1 DUP2 DUP2 MSTORE PUSH1 0x20 ADD DUP3 DUP1 SLOAD PUSH2 0x18C8 SWAP1 PUSH2 0x2A64 JUMP JUMPDEST DUP1 ISZERO PUSH2 0x1915 JUMPI DUP1 PUSH1 0x1F LT PUSH2 0x18EA JUMPI PUSH2 0x100 DUP1 DUP4 SLOAD DIV MUL DUP4 MSTORE SWAP2 PUSH1 0x20 ADD SWAP2 PUSH2 0x1915 JUMP JUMPDEST DUP3 ADD SWAP2 SWAP1 PUSH1 0x0 MSTORE PUSH1 0x20 PUSH1 0x0 KECCAK256 SWAP1 JUMPDEST DUP2 SLOAD DUP2 MSTORE SWAP1 PUSH1 0x1 ADD SWAP1 PUSH1 0x20 ADD DUP1 DUP4 GT PUSH2 0x18F8 JUMPI DUP3 SWAP1 SUB PUSH1 0x1F AND DUP3 ADD SWAP2 JUMPDEST POP POP POP POP POP DUP2 MSTORE PUSH1 0x20 ADD PUSH1 0x4 DUP3 ADD DUP1 SLOAD PUSH2 0x192E SWAP1 PUSH2 0x2A64 JUMP JUMPDEST DUP1 PUSH1 0x1F ADD PUSH1 0x20 DUP1 SWAP2 DIV MUL PUSH1 0x20 ADD PUSH1 0x40 MLOAD SWAP1 DUP2 ADD PUSH1 0x40 MSTORE DUP1 SWAP3 SWAP2 SWAP1 DUP2 DUP2 MSTORE PUSH1 0x20 ADD DUP3 DUP1 SLOAD PUSH2 0x195A SWAP1 PUSH2 0x2A64 JUMP JUMPDEST DUP1 ISZERO PUSH2 0x19A7 JUMPI DUP1 PUSH1 0x1F LT PUSH2 0x197C JUMPI PUSH2 0x100 DUP1 DUP4 SLOAD DIV MUL DUP4 MSTORE SWAP2 PUSH1 0x20 ADD SWAP2 PUSH2 0x19A7 JUMP JUMPDEST DUP3 ADD SWAP2 SWAP1 PUSH1 0x0 MSTORE PUSH1 0x20 PUSH1 0x0 KECCAK256 SWAP1 JUMPDEST DUP2 SLOAD DUP2 MSTORE SWAP1 PUSH1 0x1 ADD SWAP1 PUSH1 0x20 ADD DUP1 DUP4 GT PUSH2 0x198A JUMPI DUP3 SWAP1 SUB PUSH1 0x1F AND DUP3 ADD SWAP2 JUMPDEST POP POP POP POP POP DUP2 MSTORE PUSH1 0x20 ADD PUSH1 0x5 DUP3 ADD DUP1 SLOAD PUSH2 0x19C0 SWAP1 PUSH2 0x2A64 JUMP JUMPDEST DUP1 PUSH1 0x1F ADD PUSH1 0x20 DUP1 SWAP2 DIV MUL PUSH1 0x20 ADD PUSH1 0x40 MLOAD SWAP1 DUP2 ADD PUSH1 0x40 MSTORE DUP1 SWAP3 SWAP2 SWAP1 DUP2 DUP2 MSTORE PUSH1 0x20 ADD DUP3 DUP1 SLOAD PUSH2 0x19EC SWAP1 PUSH2 0x2A64 JUMP JUMPDEST DUP1 ISZERO PUSH2 0x1A39 JUMPI DUP1 PUSH1 0x1F LT PUSH2 0x1A0E JUMPI PUSH2 0x100 DUP1 DUP4 SLOAD DIV MUL DUP4 MSTORE SWAP2 PUSH1 0x20 ADD SWAP2 PUSH2 0x1A39 JUMP JUMPDEST DUP3 ADD SWAP2 SWAP1 PUSH1 0x0 MSTORE PUSH1 0x20 PUSH1 0x0 KECCAK256 SWAP1 JUMPDEST DUP2 SLOAD DUP2 MSTORE SWAP1 PUSH1 0x1 ADD SWAP1 PUSH1 0x20 ADD DUP1 DUP4 GT PUSH2 0x1A1C JUMPI DUP3 SWAP1 SUB PUSH1 0x1F AND DUP3 ADD SWAP2 JUMPDEST POP POP POP POP POP DUP2 MSTORE PUSH1 0x20 ADD PUSH1 0x6 DUP3 ADD SLOAD DUP2 MSTORE PUSH1 0x20 ADD PUSH1 0x7 DUP3 ADD SLOAD DUP2 MSTORE PUSH1 0x20 ADD PUSH1 0x8 DUP3 ADD DUP1 SLOAD PUSH2 0x1A66 SWAP1 PUSH2 0x2A64 JUMP JUMPDEST DUP1 PUSH1 0x1F ADD PUSH1 0x20 DUP1 SWAP2 DIV MUL PUSH1 0x20 ADD PUSH1 0x40 MLOAD SWAP1 DUP2 ADD PUSH1 0x40 MSTORE DUP1 SWAP3 SWAP2 SWAP1 DUP2 DUP2 MSTORE PUSH1 0x20 ADD DUP3 DUP1 SLOAD PUSH2 0x1A92 SWAP1 PUSH2 0x2A64 JUMP JUMPDEST DUP1 ISZERO PUSH2 0x1ADF JUMPI DUP1 PUSH1 0x1F LT PUSH2 0x1AB4 JUMPI PUSH2 0x100 DUP1 DUP4 SLOAD DIV MUL DUP4 MSTORE SWAP2 PUSH1 0x20 ADD SWAP2 PUSH2 0x1ADF JUMP JUMPDEST DUP3 ADD SWAP2 SWAP1 PUSH1 0x0 MSTORE PUSH1 0x20 PUSH1 0x0 KECCAK256 SWAP1 JUMPDEST DUP2 SLOAD DUP2 MSTORE SWAP1 PUSH1 0x1 ADD SWAP1 PUSH1 0x20 ADD DUP1 DUP4 GT PUSH2 0x1AC2 JUMPI DUP3 SWAP1 SUB PUSH1 0x1F AND DUP3 ADD SWAP2 JUMPDEST POP POP POP POP POP DUP2 MSTORE PUSH1 0x20 ADD PUSH1 0x9 DUP3 ADD SLOAD DUP2 MSTORE POP POP DUP4 DUP4 DUP2 MLOAD DUP2 LT PUSH2 0x1B05 JUMPI PUSH2 0x1B04 PUSH2 0x2A95 JUMP JUMPDEST JUMPDEST PUSH1 0x20 MUL PUSH1 0x20 ADD ADD DUP2 SWAP1 MSTORE POP DUP2 DUP1 PUSH2 0x1B1B SWAP1 PUSH2 0x2BAD JUMP JUMPDEST SWAP3 POP POP JUMPDEST DUP1 DUP1 PUSH2 0x1B2A SWAP1 PUSH2 0x2BAD JUMP JUMPDEST SWAP2 POP POP PUSH2 0x15F2 JUMP JUMPDEST POP DUP2 SWAP4 POP POP POP POP SWAP2 SWAP1 POP JUMP JUMPDEST PUSH2 0x1B46 PUSH2 0x20DD JUMP JUMPDEST PUSH1 0x0 DUP1 DUP4 PUSH1 0x40 MLOAD PUSH2 0x1B57 SWAP2 SWAP1 PUSH2 0x2C26 JUMP JUMPDEST SWAP1 DUP2 MSTORE PUSH1 0x20 ADD PUSH1 0x40 MLOAD DUP1 SWAP2 SUB SWAP1 KECCAK256 PUSH1 0x0 ADD DUP1 SLOAD PUSH2 0x1B73 SWAP1 PUSH2 0x2A64 JUMP JUMPDEST SWAP1 POP SUB PUSH2 0x1BB5 JUMPI PUSH1 0x40 MLOAD PUSH32 0x8C379A000000000000000000000000000000000000000000000000000000000 DUP2 MSTORE PUSH1 0x4 ADD PUSH2 0x1BAC SWAP1 PUSH2 0x2C89 JUMP JUMPDEST PUSH1 0x40 MLOAD DUP1 SWAP2 SUB SWAP1 REVERT JUMPDEST PUSH1 0x0 DUP3 PUSH1 0x40 MLOAD PUSH2 0x1BC5 SWAP2 SWAP1 PUSH2 0x2C26 JUMP JUMPDEST SWAP1 DUP2 MSTORE PUSH1 0x20 ADD PUSH1 0x40 MLOAD DUP1 SWAP2 SUB SWAP1 KECCAK256 PUSH1 0x40 MLOAD DUP1 PUSH2 0x140 ADD PUSH1 0x40 MSTORE SWAP1 DUP2 PUSH1 0x0 DUP3 ADD DUP1 SLOAD PUSH2 0x1BEF SWAP1 PUSH2 0x2A64 JUMP JUMPDEST DUP1 PUSH1 0x1F ADD PUSH1 0x20 DUP1 SWAP2 DIV MUL PUSH1 0x20 ADD PUSH1 0x40 MLOAD SWAP1 DUP2 ADD PUSH1 0x40 MSTORE DUP1 SWAP3 SWAP2 SWAP1 DUP2 DUP2 MSTORE PUSH1 0x20 ADD DUP3 DUP1 SLOAD PUSH2 0x1C1B SWAP1 PUSH2 0x2A64 JUMP JUMPDEST DUP1 ISZERO PUSH2 0x1C68 JUMPI DUP1 PUSH1 0x1F LT PUSH2 0x1C3D JUMPI PUSH2 0x100 DUP1 DUP4 SLOAD DIV MUL DUP4 MSTORE SWAP2 PUSH1 0x20 ADD SWAP2 PUSH2 0x1C68 JUMP JUMPDEST DUP3 ADD SWAP2 SWAP1 PUSH1 0x0 MSTORE PUSH1 0x20 PUSH1 0x0 KECCAK256 SWAP1 JUMPDEST DUP2 SLOAD DUP2 MSTORE SWAP1 PUSH1 0x1 ADD SWAP1 PUSH1 0x20 ADD DUP1 DUP4 GT PUSH2 0x1C4B JUMPI DUP3 SWAP1 SUB PUSH1 0x1F AND DUP3 ADD SWAP2 JUMPDEST POP POP POP POP POP DUP2 MSTORE PUSH1 0x20 ADD PUSH1 0x1 DUP3 ADD DUP1 SLOAD PUSH2 0x1C81 SWAP1 PUSH2 0x2A64 JUMP JUMPDEST DUP1 PUSH1 0x1F ADD PUSH1 0x20 DUP1 SWAP2 DIV MUL PUSH1 0x20 ADD PUSH1 0x40 MLOAD SWAP1 DUP2 ADD PUSH1 0x40 MSTORE DUP1 SWAP3 SWAP2 SWAP1 DUP2 DUP2 MSTORE PUSH1 0x20 ADD DUP3 DUP1 SLOAD PUSH2 0x1CAD SWAP1 PUSH2 0x2A64 JUMP JUMPDEST DUP1 ISZERO PUSH2 0x1CFA JUMPI DUP1 PUSH1 0x1F LT PUSH2 0x1CCF JUMPI PUSH2 0x100 DUP1 DUP4 SLOAD DIV MUL DUP4 MSTORE SWAP2 PUSH1 0x20 ADD SWAP2 PUSH2 0x1CFA JUMP JUMPDEST DUP3 ADD SWAP2 SWAP1 PUSH1 0x0 MSTORE PUSH1 0x20 PUSH1 0x0 KECCAK256 SWAP1 JUMPDEST DUP2 SLOAD DUP2 MSTORE SWAP1 PUSH1 0x1 ADD SWAP1 PUSH1 0x20 ADD DUP1 DUP4 GT PUSH2 0x1CDD JUMPI DUP3 SWAP1 SUB PUSH1 0x1F AND DUP3 ADD SWAP2 JUMPDEST POP POP POP POP POP DUP2 MSTORE PUSH1 0x20 ADD PUSH1 0x2 DUP3 ADD DUP1 SLOAD PUSH2 0x1D13 SWAP1 PUSH2 0x2A64 JUMP JUMPDEST DUP1 PUSH1 0x1F ADD PUSH1 0x20 DUP1 SWAP2 DIV MUL PUSH1 0x20 ADD PUSH1 0x40 MLOAD SWAP1 DUP2 ADD PUSH1 0x40 MSTORE DUP1 SWAP3 SWAP2 SWAP1 DUP2 DUP2 MSTORE PUSH1 0x20 ADD DUP3 DUP1 SLOAD PUSH2 0x1D3F SWAP1 PUSH2 0x2A64 JUMP JUMPDEST DUP1 ISZERO PUSH2 0x1D8C JUMPI DUP1 PUSH1 0x1F LT PUSH2 0x1D61 JUMPI PUSH2 0x100 DUP1 DUP4 SLOAD DIV MUL DUP4 MSTORE SWAP2 PUSH1 0x20 ADD SWAP2 PUSH2 0x1D8C JUMP JUMPDEST DUP3 ADD SWAP2 SWAP1 PUSH1 0x0 MSTORE PUSH1 0x20 PUSH1 0x0 KECCAK256 SWAP1 JUMPDEST DUP2 SLOAD DUP2 MSTORE SWAP1 PUSH1 0x1 ADD SWAP1 PUSH1 0x20 ADD DUP1 DUP4 GT PUSH2 0x1D6F JUMPI DUP3 SWAP1 SUB PUSH1 0x1F AND DUP3 ADD SWAP2 JUMPDEST POP POP POP POP POP DUP2 MSTORE PUSH1 0x20 ADD PUSH1 0x3 DUP3 ADD DUP1 SLOAD PUSH2 0x1DA5 SWAP1 PUSH2 0x2A64 JUMP JUMPDEST DUP1 PUSH1 0x1F ADD PUSH1 0x20 DUP1 SWAP2 DIV MUL PUSH1 0x20 ADD PUSH1 0x40 MLOAD SWAP1 DUP2 ADD PUSH1 0x40 MSTORE DUP1 SWAP3 SWAP2 SWAP1 DUP2 DUP2 MSTORE PUSH1 0x20 ADD DUP3 DUP1 SLOAD PUSH2 0x1DD1 SWAP1 PUSH2 0x2A64 JUMP JUMPDEST DUP1 ISZERO PUSH2 0x1E1E JUMPI DUP1 PUSH1 0x1F LT PUSH2 0x1DF3 JUMPI PUSH2 0x100 DUP1 DUP4 SLOAD DIV MUL DUP4 MSTORE SWAP2 PUSH1 0x20 ADD SWAP2 PUSH2 0x1E1E JUMP JUMPDEST DUP3 ADD SWAP2 SWAP1 PUSH1 0x0 MSTORE PUSH1 0x20 PUSH1 0x0 KECCAK256 SWAP1 JUMPDEST DUP2 SLOAD DUP2 MSTORE SWAP1 PUSH1 0x1 ADD SWAP1 PUSH1 0x20 ADD DUP1 DUP4 GT PUSH2 0x1E01 JUMPI DUP3 SWAP1 SUB PUSH1 0x1F AND DUP3 ADD SWAP2 JUMPDEST POP POP POP POP POP DUP2 MSTORE PUSH1 0x20 ADD PUSH1 0x4 DUP3 ADD DUP1 SLOAD PUSH2 0x1E37 SWAP1 PUSH2 0x2A64 JUMP JUMPDEST DUP1 PUSH1 0x1F ADD PUSH1 0x20 DUP1 SWAP2 DIV MUL PUSH1 0x20 ADD PUSH1 0x40 MLOAD SWAP1 DUP2 ADD PUSH1 0x40 MSTORE DUP1 SWAP3 SWAP2 SWAP1 DUP2 DUP2 MSTORE PUSH1 0x20 ADD DUP3 DUP1 SLOAD PUSH2 0x1E63 SWAP1 PUSH2 0x2A64 JUMP JUMPDEST DUP1 ISZERO PUSH2 0x1EB0 JUMPI DUP1 PUSH1 0x1F LT PUSH2 0x1E85 JUMPI PUSH2 0x100 DUP1 DUP4 SLOAD DIV MUL DUP4 MSTORE SWAP2 PUSH1 0x20 ADD SWAP2 PUSH2 0x1EB0 JUMP JUMPDEST DUP3 ADD SWAP2 SWAP1 PUSH1 0x0 MSTORE PUSH1 0x20 PUSH1 0x0 KECCAK256 SWAP1 JUMPDEST DUP2 SLOAD DUP2 MSTORE SWAP1 PUSH1 0x1 ADD SWAP1 PUSH1 0x20 ADD DUP1 DUP4 GT PUSH2 0x1E93 JUMPI DUP3 SWAP1 SUB PUSH1 0x1F AND DUP3 ADD SWAP2 JUMPDEST POP POP POP POP POP DUP2 MSTORE PUSH1 0x20 ADD PUSH1 0x5 DUP3 ADD DUP1 SLOAD PUSH2 0x1EC9 SWAP1 PUSH2 0x2A64 JUMP JUMPDEST DUP1 PUSH1 0x1F ADD PUSH1 0x20 DUP1 SWAP2 DIV MUL PUSH1 0x20 ADD PUSH1 0x40 MLOAD SWAP1 DUP2 ADD PUSH1 0x40 MSTORE DUP1 SWAP3 SWAP2 SWAP1 DUP2 DUP2 MSTORE PUSH1 0x20 ADD DUP3 DUP1 SLOAD PUSH2 0x1EF5 SWAP1 PUSH2 0x2A64 JUMP JUMPDEST DUP1 ISZERO PUSH2 0x1F42 JUMPI DUP1 PUSH1 0x1F LT PUSH2 0x1F17 JUMPI PUSH2 0x100 DUP1 DUP4 SLOAD DIV MUL DUP4 MSTORE SWAP2 PUSH1 0x20 ADD SWAP2 PUSH2 0x1F42 JUMP JUMPDEST DUP3 ADD SWAP2 SWAP1 PUSH1 0x0 MSTORE PUSH1 0x20 PUSH1 0x0 KECCAK256 SWAP1 JUMPDEST DUP2 SLOAD DUP2 MSTORE SWAP1 PUSH1 0x1 ADD SWAP1 PUSH1 0x20 ADD DUP1 DUP4 GT PUSH2 0x1F25 JUMPI DUP3 SWAP1 SUB PUSH1 0x1F AND DUP3 ADD SWAP2 JUMPDEST POP POP POP POP POP DUP2 MSTORE PUSH1 0x20 ADD PUSH1 0x6 DUP3 ADD SLOAD DUP2 MSTORE PUSH1 0x20 ADD PUSH1 0x7 DUP3 ADD SLOAD DUP2 MSTORE PUSH1 0x20 ADD PUSH1 0x8 DUP3 ADD DUP1 SLOAD PUSH2 0x1F6F SWAP1 PUSH2 0x2A64 JUMP JUMPDEST DUP1 PUSH1 0x1F ADD PUSH1 0x20 DUP1 SWAP2 DIV MUL PUSH1 0x20 ADD PUSH1 0x40 MLOAD SWAP1 DUP2 ADD PUSH1 0x40 MSTORE DUP1 SWAP3 SWAP2 SWAP1 DUP2 DUP2 MSTORE PUSH1 0x20 ADD DUP3 DUP1 SLOAD PUSH2 0x1F9B SWAP1 PUSH2 0x2A64 JUMP JUMPDEST DUP1 ISZERO PUSH2 0x1FE8 JUMPI DUP1 PUSH1 0x1F LT PUSH2 0x1FBD JUMPI PUSH2 0x100 DUP1 DUP4 SLOAD DIV MUL DUP4 MSTORE SWAP2 PUSH1 0x20 ADD SWAP2 PUSH2 0x1FE8 JUMP JUMPDEST DUP3 ADD SWAP2 SWAP1 PUSH1 0x0 MSTORE PUSH1 0x20 PUSH1 0x0 KECCAK256 SWAP1 JUMPDEST DUP2 SLOAD DUP2 MSTORE SWAP1 PUSH1 0x1 ADD SWAP1 PUSH1 0x20 ADD DUP1 DUP4 GT PUSH2 0x1FCB JUMPI DUP3 SWAP1 SUB PUSH1 0x1F AND DUP3 ADD SWAP2 JUMPDEST POP POP POP POP POP DUP2 MSTORE PUSH1 0x20 ADD PUSH1 0x9 DUP3 ADD SLOAD DUP2 MSTORE POP POP SWAP1 POP SWAP2 SWAP1 POP JUMP JUMPDEST PUSH1 0x0 DUP1 DUP4 PUSH1 0x40 MLOAD PUSH2 0x2013 SWAP2 SWAP1 PUSH2 0x2C26 JUMP JUMPDEST SWAP1 DUP2 MSTORE PUSH1 0x20 ADD PUSH1 0x40 MLOAD DUP1 SWAP2 SUB SWAP1 KECCAK256 PUSH1 0x0 ADD DUP1 SLOAD PUSH2 0x202F SWAP1 PUSH2 0x2A64 JUMP JUMPDEST SWAP1 POP SUB PUSH2 0x2071 JUMPI PUSH1 0x40 MLOAD PUSH32 0x8C379A000000000000000000000000000000000000000000000000000000000 DUP2 MSTORE PUSH1 0x4 ADD PUSH2 0x2068 SWAP1 PUSH2 0x2C89 JUMP JUMPDEST PUSH1 0x40 MLOAD DUP1 SWAP2 SUB SWAP1 REVERT JUMPDEST DUP1 PUSH1 0x0 DUP4 PUSH1 0x40 MLOAD PUSH2 0x2082 SWAP2 SWAP1 PUSH2 0x2C26 JUMP JUMPDEST SWAP1 DUP2 MSTORE PUSH1 0x20 ADD PUSH1 0x40 MLOAD DUP1 SWAP2 SUB SWAP1 KECCAK256 PUSH1 0x4 ADD SWAP1 DUP2 PUSH2 0x209F SWAP2 SWAP1 PUSH2 0x2E40 JUMP JUMPDEST POP PUSH32 0xC61FFB03925558D248FBA37B73270B12903D3F0BA5797AF8B71A9F8BF0761A98 DUP3 DUP3 PUSH1 0x40 MLOAD PUSH2 0x20D1 SWAP3 SWAP2 SWAP1 PUSH2 0x2F12 JUMP JUMPDEST PUSH1 0x40 MLOAD DUP1 SWAP2 SUB SWAP1 LOG1 POP POP JUMP JUMPDEST PUSH1 0x40 MLOAD DUP1 PUSH2 0x140 ADD PUSH1 0x40 MSTORE DUP1 PUSH1 0x60 DUP2 MSTORE PUSH1 0x20 ADD PUSH1 0x60 DUP2 MSTORE PUSH1 0x20 ADD PUSH1 0x60 DUP2 MSTORE PUSH1 0x20 ADD PUSH1 0x60 DUP2 MSTORE PUSH1 0x20 ADD PUSH1 0x60 DUP2 MSTORE PUSH1 0x20 ADD PUSH1 0x60 DUP2 MSTORE PUSH1 0x20 ADD PUSH1 0x0 DUP2 MSTORE PUSH1 0x20 ADD PUSH1 0x0 DUP2 MSTORE PUSH1 0x20 ADD PUSH1 0x60 DUP2 MSTORE PUSH1 0x20 ADD PUSH1 0x0 DUP2 MSTORE POP SWAP1 JUMP JUMPDEST PUSH1 0x0 PUSH1 0x40 MLOAD SWAP1 POP SWAP1 JUMP JUMPDEST PUSH1 0x0 DUP1 REVERT JUMPDEST PUSH1 0x0 DUP1 REVERT JUMPDEST PUSH1 0x0 DUP1 REVERT JUMPDEST PUSH1 0x0 DUP1 REVERT JUMPDEST PUSH1 0x0 PUSH1 0x1F NOT PUSH1 0x1F DUP4 ADD AND SWAP1 POP SWAP2 SWAP1 POP JUMP JUMPDEST PUSH32 0x4E487B7100000000000000000000000000000000000000000000000000000000 PUSH1 0x0 MSTORE PUSH1 0x41 PUSH1 0x4 MSTORE PUSH1 0x24 PUSH1 0x0 REVERT JUMPDEST PUSH2 0x2197 DUP3 PUSH2 0x214E JUMP JUMPDEST DUP2 ADD DUP2 DUP2 LT PUSH8 0xFFFFFFFFFFFFFFFF DUP3 GT OR ISZERO PUSH2 0x21B6 JUMPI PUSH2 0x21B5 PUSH2 0x215F JUMP JUMPDEST JUMPDEST DUP1 PUSH1 0x40 MSTORE POP POP POP JUMP JUMPDEST PUSH1 0x0 PUSH2 0x21C9 PUSH2 0x2130 JUMP JUMPDEST SWAP1 POP PUSH2 0x21D5 DUP3 DUP3 PUSH2 0x218E JUMP JUMPDEST SWAP2 SWAP1 POP JUMP JUMPDEST PUSH1 0x0 PUSH8 0xFFFFFFFFFFFFFFFF DUP3 GT ISZERO PUSH2 0x21F5 JUMPI PUSH2 0x21F4 PUSH2 0x215F JUMP JUMPDEST JUMPDEST PUSH2 0x21FE DUP3 PUSH2 0x214E JUMP JUMPDEST SWAP1 POP PUSH1 0x20 DUP2 ADD SWAP1 POP SWAP2 SWAP1 POP JUMP JUMPDEST DUP3 DUP2 DUP4 CALLDATACOPY PUSH1 0x0 DUP4 DUP4 ADD MSTORE POP POP POP JUMP JUMPDEST PUSH1 0x0 PUSH2 0x222D PUSH2 0x2228 DUP5 PUSH2 0x21DA JUMP JUMPDEST PUSH2 0x21BF JUMP JUMPDEST SWAP1 POP DUP3 DUP2 MSTORE PUSH1 0x20 DUP2 ADD DUP5 DUP5 DUP5 ADD GT ISZERO PUSH2 0x2249 JUMPI PUSH2 0x2248 PUSH2 0x2149 JUMP JUMPDEST JUMPDEST PUSH2 0x2254 DUP5 DUP3 DUP6 PUSH2 0x220B JUMP JUMPDEST POP SWAP4 SWAP3 POP POP POP JUMP JUMPDEST PUSH1 0x0 DUP3 PUSH1 0x1F DUP4 ADD SLT PUSH2 0x2271 JUMPI PUSH2 0x2270 PUSH2 0x2144 JUMP JUMPDEST JUMPDEST DUP2 CALLDATALOAD PUSH2 0x2281 DUP5 DUP3 PUSH1 0x20 DUP7 ADD PUSH2 0x221A JUMP JUMPDEST SWAP2 POP POP SWAP3 SWAP2 POP POP JUMP JUMPDEST PUSH1 0x0 PUSH1 0x20 DUP3 DUP5 SUB SLT ISZERO PUSH2 0x22A0 JUMPI PUSH2 0x229F PUSH2 0x213A JUMP JUMPDEST JUMPDEST PUSH1 0x0 DUP3 ADD CALLDATALOAD PUSH8 0xFFFFFFFFFFFFFFFF DUP2 GT ISZERO PUSH2 0x22BE JUMPI PUSH2 0x22BD PUSH2 0x213F JUMP JUMPDEST JUMPDEST PUSH2 0x22CA DUP5 DUP3 DUP6 ADD PUSH2 0x225C JUMP JUMPDEST SWAP2 POP POP SWAP3 SWAP2 POP POP JUMP JUMPDEST PUSH1 0x0 DUP2 MLOAD SWAP1 POP SWAP2 SWAP1 POP JUMP JUMPDEST PUSH1 0x0 DUP3 DUP3 MSTORE PUSH1 0x20 DUP3 ADD SWAP1 POP SWAP3 SWAP2 POP POP JUMP JUMPDEST PUSH1 0x0 JUMPDEST DUP4 DUP2 LT ISZERO PUSH2 0x230D JUMPI DUP1 DUP3 ADD MLOAD DUP2 DUP5 ADD MSTORE PUSH1 0x20 DUP2 ADD SWAP1 POP PUSH2 0x22F2 JUMP JUMPDEST PUSH1 0x0 DUP5 DUP5 ADD MSTORE POP POP POP POP JUMP JUMPDEST PUSH1 0x0 PUSH2 0x2324 DUP3 PUSH2 0x22D3 JUMP JUMPDEST PUSH2 0x232E DUP2 DUP6 PUSH2 0x22DE JUMP JUMPDEST SWAP4 POP PUSH2 0x233E DUP2 DUP6 PUSH1 0x20 DUP7 ADD PUSH2 0x22EF JUMP JUMPDEST PUSH2 0x2347 DUP2 PUSH2 0x214E JUMP JUMPDEST DUP5 ADD SWAP2 POP POP SWAP3 SWAP2 POP POP JUMP JUMPDEST PUSH1 0x0 DUP2 SWAP1 POP SWAP2 SWAP1 POP JUMP JUMPDEST PUSH2 0x2365 DUP2 PUSH2 0x2352 JUMP JUMPDEST DUP3 MSTORE POP POP JUMP JUMPDEST PUSH1 0x0 PUSH2 0x140 DUP3 ADD SWAP1 POP DUP2 DUP2 SUB PUSH1 0x0 DUP4 ADD MSTORE PUSH2 0x2386 DUP2 DUP14 PUSH2 0x2319 JUMP JUMPDEST SWAP1 POP DUP2 DUP2 SUB PUSH1 0x20 DUP4 ADD MSTORE PUSH2 0x239A DUP2 DUP13 PUSH2 0x2319 JUMP JUMPDEST SWAP1 POP DUP2 DUP2 SUB PUSH1 0x40 DUP4 ADD MSTORE PUSH2 0x23AE DUP2 DUP12 PUSH2 0x2319 JUMP JUMPDEST SWAP1 POP DUP2 DUP2 SUB PUSH1 0x60 DUP4 ADD MSTORE PUSH2 0x23C2 DUP2 DUP11 PUSH2 0x2319 JUMP JUMPDEST SWAP1 POP DUP2 DUP2 SUB PUSH1 0x80 DUP4 ADD MSTORE PUSH2 0x23D6 DUP2 DUP10 PUSH2 0x2319 JUMP JUMPDEST SWAP1 POP DUP2 DUP2 SUB PUSH1 0xA0 DUP4 ADD MSTORE PUSH2 0x23EA DUP2 DUP9 PUSH2 0x2319 JUMP JUMPDEST SWAP1 POP PUSH2 0x23F9 PUSH1 0xC0 DUP4 ADD DUP8 PUSH2 0x235C JUMP JUMPDEST PUSH2 0x2406 PUSH1 0xE0 DUP4 ADD DUP7 PUSH2 0x235C JUMP JUMPDEST DUP2 DUP2 SUB PUSH2 0x100 DUP4 ADD MSTORE PUSH2 0x2419 DUP2 DUP6 PUSH2 0x2319 JUMP JUMPDEST SWAP1 POP PUSH2 0x2429 PUSH2 0x120 DUP4 ADD DUP5 PUSH2 0x235C JUMP JUMPDEST SWAP12 SWAP11 POP POP POP POP POP POP POP POP POP POP POP JUMP JUMPDEST PUSH1 0x0 DUP2 MLOAD SWAP1 POP SWAP2 SWAP1 POP JUMP JUMPDEST PUSH1 0x0 DUP3 DUP3 MSTORE PUSH1 0x20 DUP3 ADD SWAP1 POP SWAP3 SWAP2 POP POP JUMP JUMPDEST PUSH1 0x0 DUP2 SWAP1 POP PUSH1 0x20 DUP3 ADD SWAP1 POP SWAP2 SWAP1 POP JUMP JUMPDEST PUSH1 0x0 DUP3 DUP3 MSTORE PUSH1 0x20 DUP3 ADD SWAP1 POP SWAP3 SWAP2 POP POP JUMP JUMPDEST PUSH1 0x0 PUSH2 0x2480 DUP3 PUSH2 0x22D3 JUMP JUMPDEST PUSH2 0x248A DUP2 DUP6 PUSH2 0x2464 JUMP JUMPDEST SWAP4 POP PUSH2 0x249A DUP2 DUP6 PUSH1 0x20 DUP7 ADD PUSH2 0x22EF JUMP JUMPDEST PUSH2 0x24A3 DUP2 PUSH2 0x214E JUMP JUMPDEST DUP5 ADD SWAP2 POP POP SWAP3 SWAP2 POP POP JUMP JUMPDEST PUSH2 0x24B7 DUP2 PUSH2 0x2352 JUMP JUMPDEST DUP3 MSTORE POP POP JUMP JUMPDEST PUSH1 0x0 PUSH2 0x140 DUP4 ADD PUSH1 0x0 DUP4 ADD MLOAD DUP5 DUP3 SUB PUSH1 0x0 DUP7 ADD MSTORE PUSH2 0x24DB DUP3 DUP3 PUSH2 0x2475 JUMP JUMPDEST SWAP2 POP POP PUSH1 0x20 DUP4 ADD MLOAD DUP5 DUP3 SUB PUSH1 0x20 DUP7 ADD MSTORE PUSH2 0x24F5 DUP3 DUP3 PUSH2 0x2475 JUMP JUMPDEST SWAP2 POP POP PUSH1 0x40 DUP4 ADD MLOAD DUP5 DUP3 SUB PUSH1 0x40 DUP7 ADD MSTORE PUSH2 0x250F DUP3 DUP3 PUSH2 0x2475 JUMP JUMPDEST SWAP2 POP POP PUSH1 0x60 DUP4 ADD MLOAD DUP5 DUP3 SUB PUSH1 0x60 DUP7 ADD MSTORE PUSH2 0x2529 DUP3 DUP3 PUSH2 0x2475 JUMP JUMPDEST SWAP2 POP POP PUSH1 0x80 DUP4 ADD MLOAD DUP5 DUP3 SUB PUSH1 0x80 DUP7 ADD MSTORE PUSH2 0x2543 DUP3 DUP3 PUSH2 0x2475 JUMP JUMPDEST SWAP2 POP POP PUSH1 0xA0 DUP4 ADD MLOAD DUP5 DUP3 SUB PUSH1 0xA0 DUP7 ADD MSTORE PUSH2 0x255D DUP3 DUP3 PUSH2 0x2475 JUMP JUMPDEST SWAP2 POP POP PUSH1 0xC0 DUP4 ADD MLOAD PUSH2 0x2572 PUSH1 0xC0 DUP7 ADD DUP3 PUSH2 0x24AE JUMP JUMPDEST POP PUSH1 0xE0 DUP4 ADD MLOAD PUSH2 0x2585 PUSH1 0xE0 DUP7 ADD DUP3 PUSH2 0x24AE JUMP JUMPDEST POP PUSH2 0x100 DUP4 ADD MLOAD DUP5 DUP3 SUB PUSH2 0x100 DUP7 ADD MSTORE PUSH2 0x259F DUP3 DUP3 PUSH2 0x2475 JUMP JUMPDEST SWAP2 POP POP PUSH2 0x120 DUP4 ADD MLOAD PUSH2 0x25B6 PUSH2 0x120 DUP7 ADD DUP3 PUSH2 0x24AE JUMP JUMPDEST POP DUP1 SWAP2 POP POP SWAP3 SWAP2 POP POP JUMP JUMPDEST PUSH1 0x0 PUSH2 0x25CD DUP4 DUP4 PUSH2 0x24BD JUMP JUMPDEST SWAP1 POP SWAP3 SWAP2 POP POP JUMP JUMPDEST PUSH1 0x0 PUSH1 0x20 DUP3 ADD SWAP1 POP SWAP2 SWAP1 POP JUMP JUMPDEST PUSH1 0x0 PUSH2 0x25ED DUP3 PUSH2 0x2438 JUMP JUMPDEST PUSH2 0x25F7 DUP2 DUP6 PUSH2 0x2443 JUMP JUMPDEST SWAP4 POP DUP4 PUSH1 0x20 DUP3 MUL DUP6 ADD PUSH2 0x2609 DUP6 PUSH2 0x2454 JUMP JUMPDEST DUP1 PUSH1 0x0 JUMPDEST DUP6 DUP2 LT ISZERO PUSH2 0x2645 JUMPI DUP5 DUP5 SUB DUP10 MSTORE DUP2 MLOAD PUSH2 0x2626 DUP6 DUP3 PUSH2 0x25C1 JUMP JUMPDEST SWAP5 POP PUSH2 0x2631 DUP4 PUSH2 0x25D5 JUMP JUMPDEST SWAP3 POP PUSH1 0x20 DUP11 ADD SWAP10 POP POP PUSH1 0x1 DUP2 ADD SWAP1 POP PUSH2 0x260D JUMP JUMPDEST POP DUP3 SWAP8 POP DUP8 SWAP6 POP POP POP POP POP POP SWAP3 SWAP2 POP POP JUMP JUMPDEST PUSH1 0x0 PUSH1 0x20 DUP3 ADD SWAP1 POP DUP2 DUP2 SUB PUSH1 0x0 DUP4 ADD MSTORE PUSH2 0x2671 DUP2 DUP5 PUSH2 0x25E2 JUMP JUMPDEST SWAP1 POP SWAP3 SWAP2 POP POP JUMP JUMPDEST PUSH1 0x0 DUP1 PUSH1 0x40 DUP4 DUP6 SUB SLT ISZERO PUSH2 0x2690 JUMPI PUSH2 0x268F PUSH2 0x213A JUMP JUMPDEST JUMPDEST PUSH1 0x0 DUP4 ADD CALLDATALOAD PUSH8 0xFFFFFFFFFFFFFFFF DUP2 GT ISZERO PUSH2 0x26AE JUMPI PUSH2 0x26AD PUSH2 0x213F JUMP JUMPDEST JUMPDEST PUSH2 0x26BA DUP6 DUP3 DUP7 ADD PUSH2 0x225C JUMP JUMPDEST SWAP3 POP POP PUSH1 0x20 DUP4 ADD CALLDATALOAD PUSH8 0xFFFFFFFFFFFFFFFF DUP2 GT ISZERO PUSH2 0x26DB JUMPI PUSH2 0x26DA PUSH2 0x213F JUMP JUMPDEST JUMPDEST PUSH2 0x26E7 DUP6 DUP3 DUP7 ADD PUSH2 0x225C JUMP JUMPDEST SWAP2 POP POP SWAP3 POP SWAP3 SWAP1 POP JUMP JUMPDEST PUSH2 0x26FA DUP2 PUSH2 0x2352 JUMP JUMPDEST DUP2 EQ PUSH2 0x2705 JUMPI PUSH1 0x0 DUP1 REVERT JUMPDEST POP JUMP JUMPDEST PUSH1 0x0 DUP2 CALLDATALOAD SWAP1 POP PUSH2 0x2717 DUP2 PUSH2 0x26F1 JUMP JUMPDEST SWAP3 SWAP2 POP POP JUMP JUMPDEST PUSH1 0x0 PUSH1 0x20 DUP3 DUP5 SUB SLT ISZERO PUSH2 0x2733 JUMPI PUSH2 0x2732 PUSH2 0x213A JUMP JUMPDEST JUMPDEST PUSH1 0x0 PUSH2 0x2741 DUP5 DUP3 DUP6 ADD PUSH2 0x2708 JUMP JUMPDEST SWAP2 POP POP SWAP3 SWAP2 POP POP JUMP JUMPDEST PUSH1 0x0 PUSH1 0x20 DUP3 ADD SWAP1 POP DUP2 DUP2 SUB PUSH1 0x0 DUP4 ADD MSTORE PUSH2 0x2764 DUP2 DUP5 PUSH2 0x2319 JUMP JUMPDEST SWAP1 POP SWAP3 SWAP2 POP POP JUMP JUMPDEST PUSH1 0x0 DUP1 PUSH1 0x0 DUP1 PUSH1 0x0 DUP1 PUSH1 0x0 DUP1 PUSH1 0x0 DUP1 PUSH2 0x140 DUP12 DUP14 SUB SLT ISZERO PUSH2 0x2790 JUMPI PUSH2 0x278F PUSH2 0x213A JUMP JUMPDEST JUMPDEST PUSH1 0x0 DUP12 ADD CALLDATALOAD PUSH8 0xFFFFFFFFFFFFFFFF DUP2 GT ISZERO PUSH2 0x27AE JUMPI PUSH2 0x27AD PUSH2 0x213F JUMP JUMPDEST JUMPDEST PUSH2 0x27BA DUP14 DUP3 DUP15 ADD PUSH2 0x225C JUMP JUMPDEST SWAP11 POP POP PUSH1 0x20 DUP12 ADD CALLDATALOAD PUSH8 0xFFFFFFFFFFFFFFFF DUP2 GT ISZERO PUSH2 0x27DB JUMPI PUSH2 0x27DA PUSH2 0x213F JUMP JUMPDEST JUMPDEST PUSH2 0x27E7 DUP14 DUP3 DUP15 ADD PUSH2 0x225C JUMP JUMPDEST SWAP10 POP POP PUSH1 0x40 DUP12 ADD CALLDATALOAD PUSH8 0xFFFFFFFFFFFFFFFF DUP2 GT ISZERO PUSH2 0x2808 JUMPI PUSH2 0x2807 PUSH2 0x213F JUMP JUMPDEST JUMPDEST PUSH2 0x2814 DUP14 DUP3 DUP15 ADD PUSH2 0x225C JUMP JUMPDEST SWAP9 POP POP PUSH1 0x60 DUP12 ADD CALLDATALOAD PUSH8 0xFFFFFFFFFFFFFFFF DUP2 GT ISZERO PUSH2 0x2835 JUMPI PUSH2 0x2834 PUSH2 0x213F JUMP JUMPDEST JUMPDEST PUSH2 0x2841 DUP14 DUP3 DUP15 ADD PUSH2 0x225C JUMP JUMPDEST SWAP8 POP POP PUSH1 0x80 DUP12 ADD CALLDATALOAD PUSH8 0xFFFFFFFFFFFFFFFF DUP2 GT ISZERO PUSH2 0x2862 JUMPI PUSH2 0x2861 PUSH2 0x213F JUMP JUMPDEST JUMPDEST PUSH2 0x286E DUP14 DUP3 DUP15 ADD PUSH2 0x225C JUMP JUMPDEST SWAP7 POP POP PUSH1 0xA0 DUP12 ADD CALLDATALOAD PUSH8 0xFFFFFFFFFFFFFFFF DUP2 GT ISZERO PUSH2 0x288F JUMPI PUSH2 0x288E PUSH2 0x213F JUMP JUMPDEST JUMPDEST PUSH2 0x289B DUP14 DUP3 DUP15 ADD PUSH2 0x225C JUMP JUMPDEST SWAP6 POP POP PUSH1 0xC0 PUSH2 0x28AC DUP14 DUP3 DUP15 ADD PUSH2 0x2708 JUMP JUMPDEST SWAP5 POP POP PUSH1 0xE0 PUSH2 0x28BD DUP14 DUP3 DUP15 ADD PUSH2 0x2708 JUMP JUMPDEST SWAP4 POP POP PUSH2 0x100 DUP12 ADD CALLDATALOAD PUSH8 0xFFFFFFFFFFFFFFFF DUP2 GT ISZERO PUSH2 0x28DF JUMPI PUSH2 0x28DE PUSH2 0x213F JUMP JUMPDEST JUMPDEST PUSH2 0x28EB DUP14 DUP3 DUP15 ADD PUSH2 0x225C JUMP JUMPDEST SWAP3 POP POP PUSH2 0x120 PUSH2 0x28FD DUP14 DUP3 DUP15 ADD PUSH2 0x2708 JUMP JUMPDEST SWAP2 POP POP SWAP3 SWAP6 SWAP9 SWAP12 SWAP2 SWAP5 SWAP8 SWAP11 POP SWAP3 SWAP6 SWAP9 POP JUMP JUMPDEST PUSH1 0x0 PUSH2 0x140 DUP4 ADD PUSH1 0x0 DUP4 ADD MLOAD DUP5 DUP3 SUB PUSH1 0x0 DUP7 ADD MSTORE PUSH2 0x292D DUP3 DUP3 PUSH2 0x2475 JUMP JUMPDEST SWAP2 POP POP PUSH1 0x20 DUP4 ADD MLOAD DUP5 DUP3 SUB PUSH1 0x20 DUP7 ADD MSTORE PUSH2 0x2947 DUP3 DUP3 PUSH2 0x2475 JUMP JUMPDEST SWAP2 POP POP PUSH1 0x40 DUP4 ADD MLOAD DUP5 DUP3 SUB PUSH1 0x40 DUP7 ADD MSTORE PUSH2 0x2961 DUP3 DUP3 PUSH2 0x2475 JUMP JUMPDEST SWAP2 POP POP PUSH1 0x60 DUP4 ADD MLOAD DUP5 DUP3 SUB PUSH1 0x60 DUP7 ADD MSTORE PUSH2 0x297B DUP3 DUP3 PUSH2 0x2475 JUMP JUMPDEST SWAP2 POP POP PUSH1 0x80 DUP4 ADD MLOAD DUP5 DUP3 SUB PUSH1 0x80 DUP7 ADD MSTORE PUSH2 0x2995 DUP3 DUP3 PUSH2 0x2475 JUMP JUMPDEST SWAP2 POP POP PUSH1 0xA0 DUP4 ADD MLOAD DUP5 DUP3 SUB PUSH1 0xA0 DUP7 ADD MSTORE PUSH2 0x29AF DUP3 DUP3 PUSH2 0x2475 JUMP JUMPDEST SWAP2 POP POP PUSH1 0xC0 DUP4 ADD MLOAD PUSH2 0x29C4 PUSH1 0xC0 DUP7 ADD DUP3 PUSH2 0x24AE JUMP JUMPDEST POP PUSH1 0xE0 DUP4 ADD MLOAD PUSH2 0x29D7 PUSH1 0xE0 DUP7 ADD DUP3 PUSH2 0x24AE JUMP JUMPDEST POP PUSH2 0x100 DUP4 ADD MLOAD DUP5 DUP3 SUB PUSH2 0x100 DUP7 ADD MSTORE PUSH2 0x29F1 DUP3 DUP3 PUSH2 0x2475 JUMP JUMPDEST SWAP2 POP POP PUSH2 0x120 DUP4 ADD MLOAD PUSH2 0x2A08 PUSH2 0x120 DUP7 ADD DUP3 PUSH2 0x24AE JUMP JUMPDEST POP DUP1 SWAP2 POP POP SWAP3 SWAP2 POP POP JUMP JUMPDEST PUSH1 0x0 PUSH1 0x20 DUP3 ADD SWAP1 POP DUP2 DUP2 SUB PUSH1 0x0 DUP4 ADD MSTORE PUSH2 0x2A2D DUP2 DUP5 PUSH2 0x290F JUMP JUMPDEST SWAP1 POP SWAP3 SWAP2 POP POP JUMP JUMPDEST PUSH32 0x4E487B7100000000000000000000000000000000000000000000000000000000 PUSH1 0x0 MSTORE PUSH1 0x22 PUSH1 0x4 MSTORE PUSH1 0x24 PUSH1 0x0 REVERT JUMPDEST PUSH1 0x0 PUSH1 0x2 DUP3 DIV SWAP1 POP PUSH1 0x1 DUP3 AND DUP1 PUSH2 0x2A7C JUMPI PUSH1 0x7F DUP3 AND SWAP2 POP JUMPDEST PUSH1 0x20 DUP3 LT DUP2 SUB PUSH2 0x2A8F JUMPI PUSH2 0x2A8E PUSH2 0x2A35 JUMP JUMPDEST JUMPDEST POP SWAP2 SWAP1 POP JUMP JUMPDEST PUSH32 0x4E487B7100000000000000000000000000000000000000000000000000000000 PUSH1 0x0 MSTORE PUSH1 0x32 PUSH1 0x4 MSTORE PUSH1 0x24 PUSH1 0x0 REVERT JUMPDEST PUSH1 0x0 DUP2 SWAP1 POP SWAP3 SWAP2 POP POP JUMP JUMPDEST PUSH1 0x0 DUP2 SWAP1 POP DUP2 PUSH1 0x0 MSTORE PUSH1 0x20 PUSH1 0x0 KECCAK256 SWAP1 POP SWAP2 SWAP1 POP JUMP JUMPDEST PUSH1 0x0 DUP2 SLOAD PUSH2 0x2AF1 DUP2 PUSH2 0x2A64 JUMP JUMPDEST PUSH2 0x2AFB DUP2 DUP7 PUSH2 0x2AC4 JUMP JUMPDEST SWAP5 POP PUSH1 0x1 DUP3 AND PUSH1 0x0 DUP2 EQ PUSH2 0x2B16 JUMPI PUSH1 0x1 DUP2 EQ PUSH2 0x2B2B JUMPI PUSH2 0x2B5E JUMP JUMPDEST PUSH1 0xFF NOT DUP4 AND DUP7 MSTORE DUP2 ISZERO ISZERO DUP3 MUL DUP7 ADD SWAP4 POP PUSH2 0x2B5E JUMP JUMPDEST PUSH2 0x2B34 DUP6 PUSH2 0x2ACF JUMP JUMPDEST PUSH1 0x0 JUMPDEST DUP4 DUP2 LT ISZERO PUSH2 0x2B56 JUMPI DUP2 SLOAD DUP2 DUP10 ADD MSTORE PUSH1 0x1 DUP3 ADD SWAP2 POP PUSH1 0x20 DUP2 ADD SWAP1 POP PUSH2 0x2B37 JUMP JUMPDEST DUP4 DUP9 ADD SWAP6 POP POP POP JUMPDEST POP POP POP SWAP3 SWAP2 POP POP JUMP JUMPDEST PUSH1 0x0 PUSH2 0x2B73 DUP3 DUP5 PUSH2 0x2AE4 JUMP JUMPDEST SWAP2 POP DUP2 SWAP1 POP SWAP3 SWAP2 POP POP JUMP JUMPDEST PUSH32 0x4E487B7100000000000000000000000000000000000000000000000000000000 PUSH1 0x0 MSTORE PUSH1 0x11 PUSH1 0x4 MSTORE PUSH1 0x24 PUSH1 0x0 REVERT JUMPDEST PUSH1 0x0 PUSH2 0x2BB8 DUP3 PUSH2 0x2352 JUMP JUMPDEST SWAP2 POP PUSH32 0xFFFFFFFFFFFFFFFFFFFFFFFFFFFFFFFFFFFFFFFFFFFFFFFFFFFFFFFFFFFFFFFF DUP3 SUB PUSH2 0x2BEA JUMPI PUSH2 0x2BE9 PUSH2 0x2B7E JUMP JUMPDEST JUMPDEST PUSH1 0x1 DUP3 ADD SWAP1 POP SWAP2 SWAP1 POP JUMP JUMPDEST PUSH1 0x0 PUSH2 0x2C00 DUP3 PUSH2 0x22D3 JUMP JUMPDEST PUSH2 0x2C0A DUP2 DUP6 PUSH2 0x2AC4 JUMP JUMPDEST SWAP4 POP PUSH2 0x2C1A DUP2 DUP6 PUSH1 0x20 DUP7 ADD PUSH2 0x22EF JUMP JUMPDEST DUP1 DUP5 ADD SWAP2 POP POP SWAP3 SWAP2 POP POP JUMP JUMPDEST PUSH1 0x0 PUSH2 0x2C32 DUP3 DUP5 PUSH2 0x2BF5 JUMP JUMPDEST SWAP2 POP DUP2 SWAP1 POP SWAP3 SWAP2 POP POP JUMP JUMPDEST PUSH32 0x5472616E73616374696F6E20646F6573206E6F74206578697374000000000000 PUSH1 0x0 DUP3 ADD MSTORE POP JUMP JUMPDEST PUSH1 0x0 PUSH2 0x2C73 PUSH1 0x1A DUP4 PUSH2 0x22DE JUMP JUMPDEST SWAP2 POP PUSH2 0x2C7E DUP3 PUSH2 0x2C3D JUMP JUMPDEST PUSH1 0x20 DUP3 ADD SWAP1 POP SWAP2 SWAP1 POP JUMP JUMPDEST PUSH1 0x0 PUSH1 0x20 DUP3 ADD SWAP1 POP DUP2 DUP2 SUB PUSH1 0x0 DUP4 ADD MSTORE PUSH2 0x2CA2 DUP2 PUSH2 0x2C66 JUMP JUMPDEST SWAP1 POP SWAP2 SWAP1 POP JUMP JUMPDEST PUSH1 0x0 PUSH1 0x20 PUSH1 0x1F DUP4 ADD DIV SWAP1 POP SWAP2 SWAP1 POP JUMP JUMPDEST PUSH1 0x0 DUP3 DUP3 SHL SWAP1 POP SWAP3 SWAP2 POP POP JUMP JUMPDEST PUSH1 0x0 PUSH1 0x8 DUP4 MUL PUSH2 0x2CF6 PUSH32 0xFFFFFFFFFFFFFFFFFFFFFFFFFFFFFFFFFFFFFFFFFFFFFFFFFFFFFFFFFFFFFFFF DUP3 PUSH2 0x2CB9 JUMP JUMPDEST PUSH2 0x2D00 DUP7 DUP4 PUSH2 0x2CB9 JUMP JUMPDEST SWAP6 POP DUP1 NOT DUP5 AND SWAP4 POP DUP1 DUP7 AND DUP5 OR SWAP3 POP POP POP SWAP4 SWAP3 POP POP POP JUMP JUMPDEST PUSH1 0x0 DUP2 SWAP1 POP SWAP2 SWAP1 POP JUMP JUMPDEST PUSH1 0x0 PUSH2 0x2D3D PUSH2 0x2D38 PUSH2 0x2D33 DUP5 PUSH2 0x2352 JUMP JUMPDEST PUSH2 0x2D18 JUMP JUMPDEST PUSH2 0x2352 JUMP JUMPDEST SWAP1 POP SWAP2 SWAP1 POP JUMP JUMPDEST PUSH1 0x0 DUP2 SWAP1 POP SWAP2 SWAP1 POP JUMP JUMPDEST PUSH2 0x2D57 DUP4 PUSH2 0x2D22 JUMP JUMPDEST PUSH2 0x2D6B PUSH2 0x2D63 DUP3 PUSH2 0x2D44 JUMP JUMPDEST DUP5 DUP5 SLOAD PUSH2 0x2CC6 JUMP JUMPDEST DUP3 SSTORE POP POP POP POP JUMP JUMPDEST PUSH1 0x0 SWAP1 JUMP JUMPDEST PUSH2 0x2D80 PUSH2 0x2D73 JUMP JUMPDEST PUSH2 0x2D8B DUP2 DUP5 DUP5 PUSH2 0x2D4E JUMP JUMPDEST POP POP POP JUMP JUMPDEST JUMPDEST DUP2 DUP2 LT ISZERO PUSH2 0x2DAF JUMPI PUSH2 0x2DA4 PUSH1 0x0 DUP3 PUSH2 0x2D78 JUMP JUMPDEST PUSH1 0x1 DUP2 ADD SWAP1 POP PUSH2 0x2D91 JUMP JUMPDEST POP POP JUMP JUMPDEST PUSH1 0x1F DUP3 GT ISZERO PUSH2 0x2DF4 JUMPI PUSH2 0x2DC5 DUP2 PUSH2 0x2ACF JUMP JUMPDEST PUSH2 0x2DCE DUP5 PUSH2 0x2CA9 JUMP JUMPDEST DUP2 ADD PUSH1 0x20 DUP6 LT ISZERO PUSH2 0x2DDD JUMPI DUP2 SWAP1 POP JUMPDEST PUSH2 0x2DF1 PUSH2 0x2DE9 DUP6 PUSH2 0x2CA9 JUMP JUMPDEST DUP4 ADD DUP3 PUSH2 0x2D90 JUMP JUMPDEST POP POP JUMPDEST POP POP POP JUMP JUMPDEST PUSH1 0x0 DUP3 DUP3 SHR SWAP1 POP SWAP3 SWAP2 POP POP JUMP JUMPDEST PUSH1 0x0 PUSH2 0x2E17 PUSH1 0x0 NOT DUP5 PUSH1 0x8 MUL PUSH2 0x2DF9 JUMP JUMPDEST NOT DUP1 DUP4 AND SWAP2 POP POP SWAP3 SWAP2 POP POP JUMP JUMPDEST PUSH1 0x0 PUSH2 0x2E30 DUP4 DUP4 PUSH2 0x2E06 JUMP JUMPDEST SWAP2 POP DUP3 PUSH1 0x2 MUL DUP3 OR SWAP1 POP SWAP3 SWAP2 POP POP JUMP JUMPDEST PUSH2 0x2E49 DUP3 PUSH2 0x22D3 JUMP JUMPDEST PUSH8 0xFFFFFFFFFFFFFFFF DUP2 GT ISZERO PUSH2 0x2E62 JUMPI PUSH2 0x2E61 PUSH2 0x215F JUMP JUMPDEST JUMPDEST PUSH2 0x2E6C DUP3 SLOAD PUSH2 0x2A64 JUMP JUMPDEST PUSH2 0x2E77 DUP3 DUP3 DUP6 PUSH2 0x2DB3 JUMP JUMPDEST PUSH1 0x0 PUSH1 0x20 SWAP1 POP PUSH1 0x1F DUP4 GT PUSH1 0x1 DUP2 EQ PUSH2 0x2EAA JUMPI PUSH1 0x0 DUP5 ISZERO PUSH2 0x2E98 JUMPI DUP3 DUP8 ADD MLOAD SWAP1 POP JUMPDEST PUSH2 0x2EA2 DUP6 DUP3 PUSH2 0x2E24 JUMP JUMPDEST DUP7 SSTORE POP PUSH2 0x2F0A JUMP JUMPDEST PUSH1 0x1F NOT DUP5 AND PUSH2 0x2EB8 DUP7 PUSH2 0x2ACF JUMP JUMPDEST PUSH1 0x0 JUMPDEST DUP3 DUP2 LT ISZERO PUSH2 0x2EE0 JUMPI DUP5 DUP10 ADD MLOAD DUP3 SSTORE PUSH1 0x1 DUP3 ADD SWAP2 POP PUSH1 0x20 DUP6 ADD SWAP5 POP PUSH1 0x20 DUP2 ADD SWAP1 POP PUSH2 0x2EBB JUMP JUMPDEST DUP7 DUP4 LT ISZERO PUSH2 0x2EFD JUMPI DUP5 DUP10 ADD MLOAD PUSH2 0x2EF9 PUSH1 0x1F DUP10 AND DUP3 PUSH2 0x2E06 JUMP JUMPDEST DUP4 SSTORE POP JUMPDEST PUSH1 0x1 PUSH1 0x2 DUP9 MUL ADD DUP9 SSTORE POP POP POP JUMPDEST POP POP POP POP POP POP JUMP JUMPDEST PUSH1 0x0 PUSH1 0x40 DUP3 ADD SWAP1 POP DUP2 DUP2 SUB PUSH1 0x0 DUP4 ADD MSTORE PUSH2 0x2F2C DUP2 DUP6 PUSH2 0x2319 JUMP JUMPDEST SWAP1 POP DUP2 DUP2 SUB PUSH1 0x20 DUP4 ADD MSTORE PUSH2 0x2F40 DUP2 DUP5 PUSH2 0x2319 JUMP JUMPDEST SWAP1 POP SWAP4 SWAP3 POP POP POP JUMP INVALID LOG2 PUSH5 0x6970667358 0x22 SLT KECCAK256 0xC MULMOD 0xAC 0xE8 PUSH32 0xCEF60A59DA4D38A45DCE0F8E42CD30846996BD60C418C7FAA26B1364736F6C63 NUMBER STOP ADDMOD LT STOP CALLER "
				},
				"gasEstimates": {
					"creation": {
						"codeDepositCost": "2431800",
						"executionCost": "2613",
						"totalCost": "2434413"
					},
					"external": {
						"addTransaction(string,string,string,string,string,string,uint256,uint256,string,uint256)": "infinite",
						"getAllTransactions()": "infinite",
						"getTransactionByCampaignId(string)": "infinite",
						"getTransactionByCode(string)": "infinite",
						"getTransactionByFromToUserId(string)": "infinite",
						"transactionCodes(uint256)": "infinite",
						"transactions(string)": "infinite",
						"updatePaymentStatus(string,string)": "infinite",
						"updateStatus(string,string)": "infinite"
					}
				},
				"methodIdentifiers": {
					"addTransaction(string,string,string,string,string,string,uint256,uint256,string,uint256)": "814cb8eb",
					"getAllTransactions()": "27506f53",
					"getTransactionByCampaignId(string)": "9db897dd",
					"getTransactionByCode(string)": "d339b0ec",
					"getTransactionByFromToUserId(string)": "7ee9ed47",
					"transactionCodes(uint256)": "7ce99c58",
					"transactions(string)": "022236f4",
					"updatePaymentStatus(string,string)": "fff50461",
					"updateStatus(string,string)": "347047cc"
				}
			},
			"storageLayout": {
				"storage": [
					{
						"astId": 27,
						"contract": "contracts/TransactionContract9Juni.sol:TransactionContract",
						"label": "transactions",
						"offset": 0,
						"slot": "0",
						"type": "t_mapping(t_string_memory_ptr,t_struct(Transaction)22_storage)"
					},
					{
						"astId": 30,
						"contract": "contracts/TransactionContract9Juni.sol:TransactionContract",
						"label": "transactionCodes",
						"offset": 0,
						"slot": "1",
						"type": "t_array(t_string_storage)dyn_storage"
					}
				],
				"types": {
					"t_array(t_string_storage)dyn_storage": {
						"base": "t_string_storage",
						"encoding": "dynamic_array",
						"label": "string[]",
						"numberOfBytes": "32"
					},
					"t_mapping(t_string_memory_ptr,t_struct(Transaction)22_storage)": {
						"encoding": "mapping",
						"key": "t_string_memory_ptr",
						"label": "mapping(string => struct TransactionContract.Transaction)",
						"numberOfBytes": "32",
						"value": "t_struct(Transaction)22_storage"
					},
					"t_string_memory_ptr": {
						"encoding": "bytes",
						"label": "string",
						"numberOfBytes": "32"
					},
					"t_string_storage": {
						"encoding": "bytes",
						"label": "string",
						"numberOfBytes": "32"
					},
					"t_struct(Transaction)22_storage": {
						"encoding": "inplace",
						"label": "struct TransactionContract.Transaction",
						"members": [
							{
								"astId": 3,
								"contract": "contracts/TransactionContract9Juni.sol:TransactionContract",
								"label": "transactionCode",
								"offset": 0,
								"slot": "0",
								"type": "t_string_storage"
							},
							{
								"astId": 5,
								"contract": "contracts/TransactionContract9Juni.sol:TransactionContract",
								"label": "campaignId",
								"offset": 0,
								"slot": "1",
								"type": "t_string_storage"
							},
							{
								"astId": 7,
								"contract": "contracts/TransactionContract9Juni.sol:TransactionContract",
								"label": "fromToUserId",
								"offset": 0,
								"slot": "2",
								"type": "t_string_storage"
							},
							{
								"astId": 9,
								"contract": "contracts/TransactionContract9Juni.sol:TransactionContract",
								"label": "orderType",
								"offset": 0,
								"slot": "3",
								"type": "t_string_storage"
							},
							{
								"astId": 11,
								"contract": "contracts/TransactionContract9Juni.sol:TransactionContract",
								"label": "paymentStatus",
								"offset": 0,
								"slot": "4",
								"type": "t_string_storage"
							},
							{
								"astId": 13,
								"contract": "contracts/TransactionContract9Juni.sol:TransactionContract",
								"label": "status",
								"offset": 0,
								"slot": "5",
								"type": "t_string_storage"
							},
							{
								"astId": 15,
								"contract": "contracts/TransactionContract9Juni.sol:TransactionContract",
								"label": "quantity",
								"offset": 0,
								"slot": "6",
								"type": "t_uint256"
							},
							{
								"astId": 17,
								"contract": "contracts/TransactionContract9Juni.sol:TransactionContract",
								"label": "totalPrice",
								"offset": 0,
								"slot": "7",
								"type": "t_uint256"
							},
							{
								"astId": 19,
								"contract": "contracts/TransactionContract9Juni.sol:TransactionContract",
								"label": "paymentMethodDetailId",
								"offset": 0,
								"slot": "8",
								"type": "t_string_storage"
							},
							{
								"astId": 21,
								"contract": "contracts/TransactionContract9Juni.sol:TransactionContract",
								"label": "createdAt",
								"offset": 0,
								"slot": "9",
								"type": "t_uint256"
							}
						],
						"numberOfBytes": "320"
					},
					"t_uint256": {
						"encoding": "inplace",
						"label": "uint256",
						"numberOfBytes": "32"
					}
				}
			},
			"userdoc": {
				"kind": "user",
				"methods": {},
				"version": 1
			}
		}
	}
}