{
	"contracts/TransactionDetailContract18Juni.sol": {
		"TransactionDetailContract": {
			"abi": [
				{
					"anonymous": false,
					"inputs": [
						{
							"indexed": false,
							"internalType": "string",
							"name": "transactionCode",
							"type": "string"
						},
						{
							"indexed": false,
							"internalType": "uint256",
							"name": "price",
							"type": "uint256"
						},
						{
							"indexed": false,
							"internalType": "string",
							"name": "token",
							"type": "string"
						},
						{
							"indexed": false,
							"internalType": "uint256",
							"name": "createdAt",
							"type": "uint256"
						}
					],
					"name": "TransactionDetailAdded",
					"type": "event"
				},
				{
					"inputs": [
						{
							"internalType": "string",
							"name": "_transactionCode",
							"type": "string"
						},
						{
							"internalType": "uint256",
							"name": "_price",
							"type": "uint256"
						},
						{
							"internalType": "string",
							"name": "_token",
							"type": "string"
						},
						{
							"internalType": "uint256",
							"name": "_createdAt",
							"type": "uint256"
						}
					],
					"name": "addTransactionDetail",
					"outputs": [],
					"stateMutability": "nonpayable",
					"type": "function"
				},
				{
					"inputs": [
						{
							"internalType": "string",
							"name": "_transactionCode",
							"type": "string"
						}
					],
					"name": "getCountTransactionDetailByTransactionCode",
					"outputs": [
						{
							"internalType": "uint256",
							"name": "",
							"type": "uint256"
						}
					],
					"stateMutability": "view",
					"type": "function"
				},
				{
					"inputs": [
						{
							"internalType": "string",
							"name": "_transactionCode",
							"type": "string"
						}
					],
					"name": "getPriceFromTransactionDetailByTransactionCode",
					"outputs": [
						{
							"internalType": "uint256",
							"name": "",
							"type": "uint256"
						}
					],
					"stateMutability": "view",
					"type": "function"
				},
				{
					"inputs": [
						{
							"internalType": "string",
							"name": "_transactionCode",
							"type": "string"
						}
					],
					"name": "getTransactionDetailByTransactionCode",
					"outputs": [
						{
							"components": [
								{
									"internalType": "string",
									"name": "transactionCode",
									"type": "string"
								},
								{
									"internalType": "uint256",
									"name": "price",
									"type": "uint256"
								},
								{
									"internalType": "string",
									"name": "token",
									"type": "string"
								},
								{
									"internalType": "uint256",
									"name": "createdAt",
									"type": "uint256"
								}
							],
							"internalType": "struct TransactionDetailContract.TransactionDetail[]",
							"name": "",
							"type": "tuple[]"
						}
					],
					"stateMutability": "view",
					"type": "function"
				}
			],
			"devdoc": {
				"kind": "dev",
				"methods": {},
				"version": 1
			},
			"evm": {
				"assembly": "    /* \"contracts/TransactionDetailContract18Juni.sol\":57:2031  contract TransactionDetailContract {... */\n  mstore(0x40, 0x80)\n  callvalue\n  dup1\n  iszero\n  tag_1\n  jumpi\n  0x00\n  dup1\n  revert\ntag_1:\n  pop\n  dataSize(sub_0)\n  dup1\n  dataOffset(sub_0)\n  0x00\n  codecopy\n  0x00\n  return\nstop\n\nsub_0: assembly {\n        /* \"contracts/TransactionDetailContract18Juni.sol\":57:2031  contract TransactionDetailContract {... */\n      mstore(0x40, 0x80)\n      callvalue\n      dup1\n      iszero\n      tag_1\n      jumpi\n      0x00\n      dup1\n      revert\n    tag_1:\n      pop\n      jumpi(tag_2, lt(calldatasize, 0x04))\n      shr(0xe0, calldataload(0x00))\n      dup1\n      0x0786c9a8\n      eq\n      tag_3\n      jumpi\n      dup1\n      0x2ef8750f\n      eq\n      tag_4\n      jumpi\n      dup1\n      0x9cd9be93\n      eq\n      tag_5\n      jumpi\n      dup1\n      0x9f041311\n      eq\n      tag_6\n      jumpi\n    tag_2:\n      0x00\n      dup1\n      revert\n        /* \"contracts/TransactionDetailContract18Juni.sol\":1732:2029  function getPriceFromTransactionDetailByTransactionCode(... */\n    tag_3:\n      tag_7\n      0x04\n      dup1\n      calldatasize\n      sub\n      dup2\n      add\n      swap1\n      tag_8\n      swap2\n      swap1\n      tag_9\n      jump\t// in\n    tag_8:\n      tag_10\n      jump\t// in\n    tag_7:\n      mload(0x40)\n      tag_11\n      swap2\n      swap1\n      tag_12\n      jump\t// in\n    tag_11:\n      mload(0x40)\n      dup1\n      swap2\n      sub\n      swap1\n      return\n        /* \"contracts/TransactionDetailContract18Juni.sol\":1451:1653  function getTransactionDetailByTransactionCode(... */\n    tag_4:\n      tag_13\n      0x04\n      dup1\n      calldatasize\n      sub\n      dup2\n      add\n      swap1\n      tag_14\n      swap2\n      swap1\n      tag_9\n      jump\t// in\n    tag_14:\n      tag_15\n      jump\t// in\n    tag_13:\n      mload(0x40)\n      tag_16\n      swap2\n      swap1\n      tag_17\n      jump\t// in\n    tag_16:\n      mload(0x40)\n      dup1\n      swap2\n      sub\n      swap1\n      return\n        /* \"contracts/TransactionDetailContract18Juni.sol\":1186:1378  function getCountTransactionDetailByTransactionCode(... */\n    tag_5:\n      tag_18\n      0x04\n      dup1\n      calldatasize\n      sub\n      dup2\n      add\n      swap1\n      tag_19\n      swap2\n      swap1\n      tag_9\n      jump\t// in\n    tag_19:\n      tag_20\n      jump\t// in\n    tag_18:\n      mload(0x40)\n      tag_21\n      swap2\n      swap1\n      tag_12\n      jump\t// in\n    tag_21:\n      mload(0x40)\n      dup1\n      swap2\n      sub\n      swap1\n      return\n        /* \"contracts/TransactionDetailContract18Juni.sol\":537:1108  function addTransactionDetail(... */\n    tag_6:\n      tag_22\n      0x04\n      dup1\n      calldatasize\n      sub\n      dup2\n      add\n      swap1\n      tag_23\n      swap2\n      swap1\n      tag_24\n      jump\t// in\n    tag_23:\n      tag_25\n      jump\t// in\n    tag_22:\n      stop\n        /* \"contracts/TransactionDetailContract18Juni.sol\":1732:2029  function getPriceFromTransactionDetailByTransactionCode(... */\n    tag_10:\n        /* \"contracts/TransactionDetailContract18Juni.sol\":1855:1862  uint256 */\n      0x00\n        /* \"contracts/TransactionDetailContract18Juni.sol\":1928:1929  0 */\n      dup1\n        /* \"contracts/TransactionDetailContract18Juni.sol\":1882:1900  transactionDetails */\n      0x00\n        /* \"contracts/TransactionDetailContract18Juni.sol\":1901:1917  _transactionCode */\n      dup4\n        /* \"contracts/TransactionDetailContract18Juni.sol\":1882:1918  transactionDetails[_transactionCode] */\n      mload(0x40)\n      tag_27\n      swap2\n      swap1\n      tag_28\n      jump\t// in\n    tag_27:\n      swap1\n      dup2\n      mstore\n      0x20\n      add\n      mload(0x40)\n      dup1\n      swap2\n      sub\n      swap1\n      keccak256\n        /* \"contracts/TransactionDetailContract18Juni.sol\":1882:1925  transactionDetails[_transactionCode].length */\n      dup1\n      sload\n      swap1\n      pop\n        /* \"contracts/TransactionDetailContract18Juni.sol\":1882:1929  transactionDetails[_transactionCode].length > 0 */\n      gt\n        /* \"contracts/TransactionDetailContract18Juni.sol\":1874:1960  require(transactionDetails[_transactionCode].length > 0, \"Transaction code not found\") */\n      tag_29\n      jumpi\n      mload(0x40)\n      0x08c379a000000000000000000000000000000000000000000000000000000000\n      dup2\n      mstore\n      0x04\n      add\n      tag_30\n      swap1\n      tag_31\n      jump\t// in\n    tag_30:\n      mload(0x40)\n      dup1\n      swap2\n      sub\n      swap1\n      revert\n    tag_29:\n        /* \"contracts/TransactionDetailContract18Juni.sol\":1977:1995  transactionDetails */\n      0x00\n        /* \"contracts/TransactionDetailContract18Juni.sol\":1996:2012  _transactionCode */\n      dup3\n        /* \"contracts/TransactionDetailContract18Juni.sol\":1977:2013  transactionDetails[_transactionCode] */\n      mload(0x40)\n      tag_32\n      swap2\n      swap1\n      tag_28\n      jump\t// in\n    tag_32:\n      swap1\n      dup2\n      mstore\n      0x20\n      add\n      mload(0x40)\n      dup1\n      swap2\n      sub\n      swap1\n      keccak256\n        /* \"contracts/TransactionDetailContract18Juni.sol\":2014:2015  0 */\n      0x00\n        /* \"contracts/TransactionDetailContract18Juni.sol\":1977:2016  transactionDetails[_transactionCode][0] */\n      dup2\n      sload\n      dup2\n      lt\n      tag_33\n      jumpi\n      tag_34\n      tag_35\n      jump\t// in\n    tag_34:\n    tag_33:\n      swap1\n      0x00\n      mstore\n      keccak256(0x00, 0x20)\n      swap1\n      0x04\n      mul\n      add\n        /* \"contracts/TransactionDetailContract18Juni.sol\":1977:2022  transactionDetails[_transactionCode][0].price */\n      0x01\n      add\n      sload\n        /* \"contracts/TransactionDetailContract18Juni.sol\":1970:2022  return transactionDetails[_transactionCode][0].price */\n      swap1\n      pop\n        /* \"contracts/TransactionDetailContract18Juni.sol\":1732:2029  function getPriceFromTransactionDetailByTransactionCode(... */\n      swap2\n      swap1\n      pop\n      jump\t// out\n        /* \"contracts/TransactionDetailContract18Juni.sol\":1451:1653  function getTransactionDetailByTransactionCode(... */\n    tag_15:\n        /* \"contracts/TransactionDetailContract18Juni.sol\":1565:1591  TransactionDetail[] memory */\n      0x60\n        /* \"contracts/TransactionDetailContract18Juni.sol\":1610:1628  transactionDetails */\n      0x00\n        /* \"contracts/TransactionDetailContract18Juni.sol\":1629:1645  _transactionCode */\n      dup3\n        /* \"contracts/TransactionDetailContract18Juni.sol\":1610:1646  transactionDetails[_transactionCode] */\n      mload(0x40)\n      tag_38\n      swap2\n      swap1\n      tag_28\n      jump\t// in\n    tag_38:\n      swap1\n      dup2\n      mstore\n      0x20\n      add\n      mload(0x40)\n      dup1\n      swap2\n      sub\n      swap1\n      keccak256\n        /* \"contracts/TransactionDetailContract18Juni.sol\":1603:1646  return transactionDetails[_transactionCode] */\n      dup1\n      sload\n      dup1\n      0x20\n      mul\n      0x20\n      add\n      mload(0x40)\n      swap1\n      dup2\n      add\n      0x40\n      mstore\n      dup1\n      swap3\n      swap2\n      swap1\n      dup2\n      dup2\n      mstore\n      0x20\n      add\n      0x00\n      swap1\n    tag_39:\n      dup3\n      dup3\n      lt\n      iszero\n      tag_40\n      jumpi\n      dup4\n      dup3\n      swap1\n      0x00\n      mstore\n      keccak256(0x00, 0x20)\n      swap1\n      0x04\n      mul\n      add\n      mload(0x40)\n      dup1\n      0x80\n      add\n      0x40\n      mstore\n      swap1\n      dup2\n      0x00\n      dup3\n      add\n      dup1\n      sload\n      tag_42\n      swap1\n      tag_43\n      jump\t// in\n    tag_42:\n      dup1\n      0x1f\n      add\n      0x20\n      dup1\n      swap2\n      div\n      mul\n      0x20\n      add\n      mload(0x40)\n      swap1\n      dup2\n      add\n      0x40\n      mstore\n      dup1\n      swap3\n      swap2\n      swap1\n      dup2\n      dup2\n      mstore\n      0x20\n      add\n      dup3\n      dup1\n      sload\n      tag_44\n      swap1\n      tag_43\n      jump\t// in\n    tag_44:\n      dup1\n      iszero\n      tag_45\n      jumpi\n      dup1\n      0x1f\n      lt\n      tag_46\n      jumpi\n      0x0100\n      dup1\n      dup4\n      sload\n      div\n      mul\n      dup4\n      mstore\n      swap2\n      0x20\n      add\n      swap2\n      jump(tag_45)\n    tag_46:\n      dup3\n      add\n      swap2\n      swap1\n      0x00\n      mstore\n      keccak256(0x00, 0x20)\n      swap1\n    tag_47:\n      dup2\n      sload\n      dup2\n      mstore\n      swap1\n      0x01\n      add\n      swap1\n      0x20\n      add\n      dup1\n      dup4\n      gt\n      tag_47\n      jumpi\n      dup3\n      swap1\n      sub\n      0x1f\n      and\n      dup3\n      add\n      swap2\n    tag_45:\n      pop\n      pop\n      pop\n      pop\n      pop\n      dup2\n      mstore\n      0x20\n      add\n      0x01\n      dup3\n      add\n      sload\n      dup2\n      mstore\n      0x20\n      add\n      0x02\n      dup3\n      add\n      dup1\n      sload\n      tag_48\n      swap1\n      tag_43\n      jump\t// in\n    tag_48:\n      dup1\n      0x1f\n      add\n      0x20\n      dup1\n      swap2\n      div\n      mul\n      0x20\n      add\n      mload(0x40)\n      swap1\n      dup2\n      add\n      0x40\n      mstore\n      dup1\n      swap3\n      swap2\n      swap1\n      dup2\n      dup2\n      mstore\n      0x20\n      add\n      dup3\n      dup1\n      sload\n      tag_49\n      swap1\n      tag_43\n      jump\t// in\n    tag_49:\n      dup1\n      iszero\n      tag_50\n      jumpi\n      dup1\n      0x1f\n      lt\n      tag_51\n      jumpi\n      0x0100\n      dup1\n      dup4\n      sload\n      div\n      mul\n      dup4\n      mstore\n      swap2\n      0x20\n      add\n      swap2\n      jump(tag_50)\n    tag_51:\n      dup3\n      add\n      swap2\n      swap1\n      0x00\n      mstore\n      keccak256(0x00, 0x20)\n      swap1\n    tag_52:\n      dup2\n      sload\n      dup2\n      mstore\n      swap1\n      0x01\n      add\n      swap1\n      0x20\n      add\n      dup1\n      dup4\n      gt\n      tag_52\n      jumpi\n      dup3\n      swap1\n      sub\n      0x1f\n      and\n      dup3\n      add\n      swap2\n    tag_50:\n      pop\n      pop\n      pop\n      pop\n      pop\n      dup2\n      mstore\n      0x20\n      add\n      0x03\n      dup3\n      add\n      sload\n      dup2\n      mstore\n      pop\n      pop\n      dup2\n      mstore\n      0x20\n      add\n      swap1\n      0x01\n      add\n      swap1\n      jump(tag_39)\n    tag_40:\n      pop\n      pop\n      pop\n      pop\n      swap1\n      pop\n        /* \"contracts/TransactionDetailContract18Juni.sol\":1451:1653  function getTransactionDetailByTransactionCode(... */\n      swap2\n      swap1\n      pop\n      jump\t// out\n        /* \"contracts/TransactionDetailContract18Juni.sol\":1186:1378  function getCountTransactionDetailByTransactionCode(... */\n    tag_20:\n        /* \"contracts/TransactionDetailContract18Juni.sol\":1305:1309  uint */\n      0x00\n        /* \"contracts/TransactionDetailContract18Juni.sol\":1328:1346  transactionDetails */\n      dup1\n        /* \"contracts/TransactionDetailContract18Juni.sol\":1347:1363  _transactionCode */\n      dup3\n        /* \"contracts/TransactionDetailContract18Juni.sol\":1328:1364  transactionDetails[_transactionCode] */\n      mload(0x40)\n      tag_54\n      swap2\n      swap1\n      tag_28\n      jump\t// in\n    tag_54:\n      swap1\n      dup2\n      mstore\n      0x20\n      add\n      mload(0x40)\n      dup1\n      swap2\n      sub\n      swap1\n      keccak256\n        /* \"contracts/TransactionDetailContract18Juni.sol\":1328:1371  transactionDetails[_transactionCode].length */\n      dup1\n      sload\n      swap1\n      pop\n        /* \"contracts/TransactionDetailContract18Juni.sol\":1321:1371  return transactionDetails[_transactionCode].length */\n      swap1\n      pop\n        /* \"contracts/TransactionDetailContract18Juni.sol\":1186:1378  function getCountTransactionDetailByTransactionCode(... */\n      swap2\n      swap1\n      pop\n      jump\t// out\n        /* \"contracts/TransactionDetailContract18Juni.sol\":537:1108  function addTransactionDetail(... */\n    tag_25:\n        /* \"contracts/TransactionDetailContract18Juni.sol\":709:727  transactionDetails */\n      0x00\n        /* \"contracts/TransactionDetailContract18Juni.sol\":728:744  _transactionCode */\n      dup5\n        /* \"contracts/TransactionDetailContract18Juni.sol\":709:745  transactionDetails[_transactionCode] */\n      mload(0x40)\n      tag_56\n      swap2\n      swap1\n      tag_28\n      jump\t// in\n    tag_56:\n      swap1\n      dup2\n      mstore\n      0x20\n      add\n      mload(0x40)\n      dup1\n      swap2\n      sub\n      swap1\n      keccak256\n        /* \"contracts/TransactionDetailContract18Juni.sol\":764:949  TransactionDetail({... */\n      mload(0x40)\n      dup1\n      0x80\n      add\n      0x40\n      mstore\n      dup1\n        /* \"contracts/TransactionDetailContract18Juni.sol\":817:833  _transactionCode */\n      dup7\n        /* \"contracts/TransactionDetailContract18Juni.sol\":764:949  TransactionDetail({... */\n      dup2\n      mstore\n      0x20\n      add\n        /* \"contracts/TransactionDetailContract18Juni.sol\":858:864  _price */\n      dup6\n        /* \"contracts/TransactionDetailContract18Juni.sol\":764:949  TransactionDetail({... */\n      dup2\n      mstore\n      0x20\n      add\n        /* \"contracts/TransactionDetailContract18Juni.sol\":889:895  _token */\n      dup5\n        /* \"contracts/TransactionDetailContract18Juni.sol\":764:949  TransactionDetail({... */\n      dup2\n      mstore\n      0x20\n      add\n        /* \"contracts/TransactionDetailContract18Juni.sol\":924:934  _createdAt */\n      dup4\n        /* \"contracts/TransactionDetailContract18Juni.sol\":764:949  TransactionDetail({... */\n      dup2\n      mstore\n      pop\n        /* \"contracts/TransactionDetailContract18Juni.sol\":709:959  transactionDetails[_transactionCode].push(... */\n      swap1\n      dup1\n      0x01\n      dup2\n      sload\n      add\n      dup1\n      dup3\n      sstore\n      dup1\n      swap2\n      pop\n      pop\n      0x01\n      swap1\n      sub\n      swap1\n      0x00\n      mstore\n      keccak256(0x00, 0x20)\n      swap1\n      0x04\n      mul\n      add\n      0x00\n      swap1\n      swap2\n      swap1\n      swap2\n      swap1\n      swap2\n      pop\n      0x00\n      dup3\n      add\n      mload\n      dup2\n      0x00\n      add\n      swap1\n      dup2\n      tag_58\n      swap2\n      swap1\n      tag_59\n      jump\t// in\n    tag_58:\n      pop\n      0x20\n      dup3\n      add\n      mload\n      dup2\n      0x01\n      add\n      sstore\n      0x40\n      dup3\n      add\n      mload\n      dup2\n      0x02\n      add\n      swap1\n      dup2\n      tag_60\n      swap2\n      swap1\n      tag_59\n      jump\t// in\n    tag_60:\n      pop\n      0x60\n      dup3\n      add\n      mload\n      dup2\n      0x03\n      add\n      sstore\n      pop\n      pop\n        /* \"contracts/TransactionDetailContract18Juni.sol\":975:1101  TransactionDetailAdded(... */\n      0xc5398f105799e97af1605dbaeed442f0e9b239fc622c4307746a08d7bf7db677\n        /* \"contracts/TransactionDetailContract18Juni.sol\":1011:1027  _transactionCode */\n      dup5\n        /* \"contracts/TransactionDetailContract18Juni.sol\":1041:1047  _price */\n      dup5\n        /* \"contracts/TransactionDetailContract18Juni.sol\":1061:1067  _token */\n      dup5\n        /* \"contracts/TransactionDetailContract18Juni.sol\":1081:1091  _createdAt */\n      dup5\n        /* \"contracts/TransactionDetailContract18Juni.sol\":975:1101  TransactionDetailAdded(... */\n      mload(0x40)\n      tag_61\n      swap5\n      swap4\n      swap3\n      swap2\n      swap1\n      tag_62\n      jump\t// in\n    tag_61:\n      mload(0x40)\n      dup1\n      swap2\n      sub\n      swap1\n      log1\n        /* \"contracts/TransactionDetailContract18Juni.sol\":537:1108  function addTransactionDetail(... */\n      pop\n      pop\n      pop\n      pop\n      jump\t// out\n        /* \"#utility.yul\":7:82   */\n    tag_63:\n        /* \"#utility.yul\":40:46   */\n      0x00\n        /* \"#utility.yul\":73:75   */\n      0x40\n        /* \"#utility.yul\":67:76   */\n      mload\n        /* \"#utility.yul\":57:76   */\n      swap1\n      pop\n        /* \"#utility.yul\":7:82   */\n      swap1\n      jump\t// out\n        /* \"#utility.yul\":88:205   */\n    tag_64:\n        /* \"#utility.yul\":197:198   */\n      0x00\n        /* \"#utility.yul\":194:195   */\n      dup1\n        /* \"#utility.yul\":187:199   */\n      revert\n        /* \"#utility.yul\":211:328   */\n    tag_65:\n        /* \"#utility.yul\":320:321   */\n      0x00\n        /* \"#utility.yul\":317:318   */\n      dup1\n        /* \"#utility.yul\":310:322   */\n      revert\n        /* \"#utility.yul\":334:451   */\n    tag_66:\n        /* \"#utility.yul\":443:444   */\n      0x00\n        /* \"#utility.yul\":440:441   */\n      dup1\n        /* \"#utility.yul\":433:445   */\n      revert\n        /* \"#utility.yul\":457:574   */\n    tag_67:\n        /* \"#utility.yul\":566:567   */\n      0x00\n        /* \"#utility.yul\":563:564   */\n      dup1\n        /* \"#utility.yul\":556:568   */\n      revert\n        /* \"#utility.yul\":580:682   */\n    tag_68:\n        /* \"#utility.yul\":621:627   */\n      0x00\n        /* \"#utility.yul\":672:674   */\n      0x1f\n        /* \"#utility.yul\":668:675   */\n      not\n        /* \"#utility.yul\":663:665   */\n      0x1f\n        /* \"#utility.yul\":656:661   */\n      dup4\n        /* \"#utility.yul\":652:666   */\n      add\n        /* \"#utility.yul\":648:676   */\n      and\n        /* \"#utility.yul\":638:676   */\n      swap1\n      pop\n        /* \"#utility.yul\":580:682   */\n      swap2\n      swap1\n      pop\n      jump\t// out\n        /* \"#utility.yul\":688:868   */\n    tag_69:\n        /* \"#utility.yul\":736:813   */\n      0x4e487b7100000000000000000000000000000000000000000000000000000000\n        /* \"#utility.yul\":733:734   */\n      0x00\n        /* \"#utility.yul\":726:814   */\n      mstore\n        /* \"#utility.yul\":833:837   */\n      0x41\n        /* \"#utility.yul\":830:831   */\n      0x04\n        /* \"#utility.yul\":823:838   */\n      mstore\n        /* \"#utility.yul\":857:861   */\n      0x24\n        /* \"#utility.yul\":854:855   */\n      0x00\n        /* \"#utility.yul\":847:862   */\n      revert\n        /* \"#utility.yul\":874:1155   */\n    tag_70:\n        /* \"#utility.yul\":957:984   */\n      tag_123\n        /* \"#utility.yul\":979:983   */\n      dup3\n        /* \"#utility.yul\":957:984   */\n      tag_68\n      jump\t// in\n    tag_123:\n        /* \"#utility.yul\":949:955   */\n      dup2\n        /* \"#utility.yul\":945:985   */\n      add\n        /* \"#utility.yul\":1087:1093   */\n      dup2\n        /* \"#utility.yul\":1075:1085   */\n      dup2\n        /* \"#utility.yul\":1072:1094   */\n      lt\n        /* \"#utility.yul\":1051:1069   */\n      0xffffffffffffffff\n        /* \"#utility.yul\":1039:1049   */\n      dup3\n        /* \"#utility.yul\":1036:1070   */\n      gt\n        /* \"#utility.yul\":1033:1095   */\n      or\n        /* \"#utility.yul\":1030:1118   */\n      iszero\n      tag_124\n      jumpi\n        /* \"#utility.yul\":1098:1116   */\n      tag_125\n      tag_69\n      jump\t// in\n    tag_125:\n        /* \"#utility.yul\":1030:1118   */\n    tag_124:\n        /* \"#utility.yul\":1138:1148   */\n      dup1\n        /* \"#utility.yul\":1134:1136   */\n      0x40\n        /* \"#utility.yul\":1127:1149   */\n      mstore\n        /* \"#utility.yul\":917:1155   */\n      pop\n        /* \"#utility.yul\":874:1155   */\n      pop\n      pop\n      jump\t// out\n        /* \"#utility.yul\":1161:1290   */\n    tag_71:\n        /* \"#utility.yul\":1195:1201   */\n      0x00\n        /* \"#utility.yul\":1222:1242   */\n      tag_127\n      tag_63\n      jump\t// in\n    tag_127:\n        /* \"#utility.yul\":1212:1242   */\n      swap1\n      pop\n        /* \"#utility.yul\":1251:1284   */\n      tag_128\n        /* \"#utility.yul\":1279:1283   */\n      dup3\n        /* \"#utility.yul\":1271:1277   */\n      dup3\n        /* \"#utility.yul\":1251:1284   */\n      tag_70\n      jump\t// in\n    tag_128:\n        /* \"#utility.yul\":1161:1290   */\n      swap2\n      swap1\n      pop\n      jump\t// out\n        /* \"#utility.yul\":1296:1604   */\n    tag_72:\n        /* \"#utility.yul\":1358:1362   */\n      0x00\n        /* \"#utility.yul\":1448:1466   */\n      0xffffffffffffffff\n        /* \"#utility.yul\":1440:1446   */\n      dup3\n        /* \"#utility.yul\":1437:1467   */\n      gt\n        /* \"#utility.yul\":1434:1490   */\n      iszero\n      tag_130\n      jumpi\n        /* \"#utility.yul\":1470:1488   */\n      tag_131\n      tag_69\n      jump\t// in\n    tag_131:\n        /* \"#utility.yul\":1434:1490   */\n    tag_130:\n        /* \"#utility.yul\":1508:1537   */\n      tag_132\n        /* \"#utility.yul\":1530:1536   */\n      dup3\n        /* \"#utility.yul\":1508:1537   */\n      tag_68\n      jump\t// in\n    tag_132:\n        /* \"#utility.yul\":1500:1537   */\n      swap1\n      pop\n        /* \"#utility.yul\":1592:1596   */\n      0x20\n        /* \"#utility.yul\":1586:1590   */\n      dup2\n        /* \"#utility.yul\":1582:1597   */\n      add\n        /* \"#utility.yul\":1574:1597   */\n      swap1\n      pop\n        /* \"#utility.yul\":1296:1604   */\n      swap2\n      swap1\n      pop\n      jump\t// out\n        /* \"#utility.yul\":1610:1756   */\n    tag_73:\n        /* \"#utility.yul\":1707:1713   */\n      dup3\n        /* \"#utility.yul\":1702:1705   */\n      dup2\n        /* \"#utility.yul\":1697:1700   */\n      dup4\n        /* \"#utility.yul\":1684:1714   */\n      calldatacopy\n        /* \"#utility.yul\":1748:1749   */\n      0x00\n        /* \"#utility.yul\":1739:1745   */\n      dup4\n        /* \"#utility.yul\":1734:1737   */\n      dup4\n        /* \"#utility.yul\":1730:1746   */\n      add\n        /* \"#utility.yul\":1723:1750   */\n      mstore\n        /* \"#utility.yul\":1610:1756   */\n      pop\n      pop\n      pop\n      jump\t// out\n        /* \"#utility.yul\":1762:2187   */\n    tag_74:\n        /* \"#utility.yul\":1840:1845   */\n      0x00\n        /* \"#utility.yul\":1865:1931   */\n      tag_135\n        /* \"#utility.yul\":1881:1930   */\n      tag_136\n        /* \"#utility.yul\":1923:1929   */\n      dup5\n        /* \"#utility.yul\":1881:1930   */\n      tag_72\n      jump\t// in\n    tag_136:\n        /* \"#utility.yul\":1865:1931   */\n      tag_71\n      jump\t// in\n    tag_135:\n        /* \"#utility.yul\":1856:1931   */\n      swap1\n      pop\n        /* \"#utility.yul\":1954:1960   */\n      dup3\n        /* \"#utility.yul\":1947:1952   */\n      dup2\n        /* \"#utility.yul\":1940:1961   */\n      mstore\n        /* \"#utility.yul\":1992:1996   */\n      0x20\n        /* \"#utility.yul\":1985:1990   */\n      dup2\n        /* \"#utility.yul\":1981:1997   */\n      add\n        /* \"#utility.yul\":2030:2033   */\n      dup5\n        /* \"#utility.yul\":2021:2027   */\n      dup5\n        /* \"#utility.yul\":2016:2019   */\n      dup5\n        /* \"#utility.yul\":2012:2028   */\n      add\n        /* \"#utility.yul\":2009:2034   */\n      gt\n        /* \"#utility.yul\":2006:2118   */\n      iszero\n      tag_137\n      jumpi\n        /* \"#utility.yul\":2037:2116   */\n      tag_138\n      tag_67\n      jump\t// in\n    tag_138:\n        /* \"#utility.yul\":2006:2118   */\n    tag_137:\n        /* \"#utility.yul\":2127:2181   */\n      tag_139\n        /* \"#utility.yul\":2174:2180   */\n      dup5\n        /* \"#utility.yul\":2169:2172   */\n      dup3\n        /* \"#utility.yul\":2164:2167   */\n      dup6\n        /* \"#utility.yul\":2127:2181   */\n      tag_73\n      jump\t// in\n    tag_139:\n        /* \"#utility.yul\":1846:2187   */\n      pop\n        /* \"#utility.yul\":1762:2187   */\n      swap4\n      swap3\n      pop\n      pop\n      pop\n      jump\t// out\n        /* \"#utility.yul\":2207:2547   */\n    tag_75:\n        /* \"#utility.yul\":2263:2268   */\n      0x00\n        /* \"#utility.yul\":2312:2315   */\n      dup3\n        /* \"#utility.yul\":2305:2309   */\n      0x1f\n        /* \"#utility.yul\":2297:2303   */\n      dup4\n        /* \"#utility.yul\":2293:2310   */\n      add\n        /* \"#utility.yul\":2289:2316   */\n      slt\n        /* \"#utility.yul\":2279:2401   */\n      tag_141\n      jumpi\n        /* \"#utility.yul\":2320:2399   */\n      tag_142\n      tag_66\n      jump\t// in\n    tag_142:\n        /* \"#utility.yul\":2279:2401   */\n    tag_141:\n        /* \"#utility.yul\":2437:2443   */\n      dup2\n        /* \"#utility.yul\":2424:2444   */\n      calldataload\n        /* \"#utility.yul\":2462:2541   */\n      tag_143\n        /* \"#utility.yul\":2537:2540   */\n      dup5\n        /* \"#utility.yul\":2529:2535   */\n      dup3\n        /* \"#utility.yul\":2522:2526   */\n      0x20\n        /* \"#utility.yul\":2514:2520   */\n      dup7\n        /* \"#utility.yul\":2510:2527   */\n      add\n        /* \"#utility.yul\":2462:2541   */\n      tag_74\n      jump\t// in\n    tag_143:\n        /* \"#utility.yul\":2453:2541   */\n      swap2\n      pop\n        /* \"#utility.yul\":2269:2547   */\n      pop\n        /* \"#utility.yul\":2207:2547   */\n      swap3\n      swap2\n      pop\n      pop\n      jump\t// out\n        /* \"#utility.yul\":2553:3062   */\n    tag_9:\n        /* \"#utility.yul\":2622:2628   */\n      0x00\n        /* \"#utility.yul\":2671:2673   */\n      0x20\n        /* \"#utility.yul\":2659:2668   */\n      dup3\n        /* \"#utility.yul\":2650:2657   */\n      dup5\n        /* \"#utility.yul\":2646:2669   */\n      sub\n        /* \"#utility.yul\":2642:2674   */\n      slt\n        /* \"#utility.yul\":2639:2758   */\n      iszero\n      tag_145\n      jumpi\n        /* \"#utility.yul\":2677:2756   */\n      tag_146\n      tag_64\n      jump\t// in\n    tag_146:\n        /* \"#utility.yul\":2639:2758   */\n    tag_145:\n        /* \"#utility.yul\":2825:2826   */\n      0x00\n        /* \"#utility.yul\":2814:2823   */\n      dup3\n        /* \"#utility.yul\":2810:2827   */\n      add\n        /* \"#utility.yul\":2797:2828   */\n      calldataload\n        /* \"#utility.yul\":2855:2873   */\n      0xffffffffffffffff\n        /* \"#utility.yul\":2847:2853   */\n      dup2\n        /* \"#utility.yul\":2844:2874   */\n      gt\n        /* \"#utility.yul\":2841:2958   */\n      iszero\n      tag_147\n      jumpi\n        /* \"#utility.yul\":2877:2956   */\n      tag_148\n      tag_65\n      jump\t// in\n    tag_148:\n        /* \"#utility.yul\":2841:2958   */\n    tag_147:\n        /* \"#utility.yul\":2982:3045   */\n      tag_149\n        /* \"#utility.yul\":3037:3044   */\n      dup5\n        /* \"#utility.yul\":3028:3034   */\n      dup3\n        /* \"#utility.yul\":3017:3026   */\n      dup6\n        /* \"#utility.yul\":3013:3035   */\n      add\n        /* \"#utility.yul\":2982:3045   */\n      tag_75\n      jump\t// in\n    tag_149:\n        /* \"#utility.yul\":2972:3045   */\n      swap2\n      pop\n        /* \"#utility.yul\":2768:3055   */\n      pop\n        /* \"#utility.yul\":2553:3062   */\n      swap3\n      swap2\n      pop\n      pop\n      jump\t// out\n        /* \"#utility.yul\":3068:3145   */\n    tag_76:\n        /* \"#utility.yul\":3105:3112   */\n      0x00\n        /* \"#utility.yul\":3134:3139   */\n      dup2\n        /* \"#utility.yul\":3123:3139   */\n      swap1\n      pop\n        /* \"#utility.yul\":3068:3145   */\n      swap2\n      swap1\n      pop\n      jump\t// out\n        /* \"#utility.yul\":3151:3269   */\n    tag_77:\n        /* \"#utility.yul\":3238:3262   */\n      tag_152\n        /* \"#utility.yul\":3256:3261   */\n      dup2\n        /* \"#utility.yul\":3238:3262   */\n      tag_76\n      jump\t// in\n    tag_152:\n        /* \"#utility.yul\":3233:3236   */\n      dup3\n        /* \"#utility.yul\":3226:3263   */\n      mstore\n        /* \"#utility.yul\":3151:3269   */\n      pop\n      pop\n      jump\t// out\n        /* \"#utility.yul\":3275:3497   */\n    tag_12:\n        /* \"#utility.yul\":3368:3372   */\n      0x00\n        /* \"#utility.yul\":3406:3408   */\n      0x20\n        /* \"#utility.yul\":3395:3404   */\n      dup3\n        /* \"#utility.yul\":3391:3409   */\n      add\n        /* \"#utility.yul\":3383:3409   */\n      swap1\n      pop\n        /* \"#utility.yul\":3419:3490   */\n      tag_154\n        /* \"#utility.yul\":3487:3488   */\n      0x00\n        /* \"#utility.yul\":3476:3485   */\n      dup4\n        /* \"#utility.yul\":3472:3489   */\n      add\n        /* \"#utility.yul\":3463:3469   */\n      dup5\n        /* \"#utility.yul\":3419:3490   */\n      tag_77\n      jump\t// in\n    tag_154:\n        /* \"#utility.yul\":3275:3497   */\n      swap3\n      swap2\n      pop\n      pop\n      jump\t// out\n        /* \"#utility.yul\":3503:3650   */\n    tag_78:\n        /* \"#utility.yul\":3603:3609   */\n      0x00\n        /* \"#utility.yul\":3637:3642   */\n      dup2\n        /* \"#utility.yul\":3631:3643   */\n      mload\n        /* \"#utility.yul\":3621:3643   */\n      swap1\n      pop\n        /* \"#utility.yul\":3503:3650   */\n      swap2\n      swap1\n      pop\n      jump\t// out\n        /* \"#utility.yul\":3656:3873   */\n    tag_79:\n        /* \"#utility.yul\":3788:3799   */\n      0x00\n        /* \"#utility.yul\":3822:3828   */\n      dup3\n        /* \"#utility.yul\":3817:3820   */\n      dup3\n        /* \"#utility.yul\":3810:3829   */\n      mstore\n        /* \"#utility.yul\":3862:3866   */\n      0x20\n        /* \"#utility.yul\":3857:3860   */\n      dup3\n        /* \"#utility.yul\":3853:3867   */\n      add\n        /* \"#utility.yul\":3838:3867   */\n      swap1\n      pop\n        /* \"#utility.yul\":3656:3873   */\n      swap3\n      swap2\n      pop\n      pop\n      jump\t// out\n        /* \"#utility.yul\":3879:4044   */\n    tag_80:\n        /* \"#utility.yul\":3979:3983   */\n      0x00\n        /* \"#utility.yul\":4002:4005   */\n      dup2\n        /* \"#utility.yul\":3994:4005   */\n      swap1\n      pop\n        /* \"#utility.yul\":4032:4036   */\n      0x20\n        /* \"#utility.yul\":4027:4030   */\n      dup3\n        /* \"#utility.yul\":4023:4037   */\n      add\n        /* \"#utility.yul\":4015:4037   */\n      swap1\n      pop\n        /* \"#utility.yul\":3879:4044   */\n      swap2\n      swap1\n      pop\n      jump\t// out\n        /* \"#utility.yul\":4050:4149   */\n    tag_81:\n        /* \"#utility.yul\":4102:4108   */\n      0x00\n        /* \"#utility.yul\":4136:4141   */\n      dup2\n        /* \"#utility.yul\":4130:4142   */\n      mload\n        /* \"#utility.yul\":4120:4142   */\n      swap1\n      pop\n        /* \"#utility.yul\":4050:4149   */\n      swap2\n      swap1\n      pop\n      jump\t// out\n        /* \"#utility.yul\":4155:4314   */\n    tag_82:\n        /* \"#utility.yul\":4229:4240   */\n      0x00\n        /* \"#utility.yul\":4263:4269   */\n      dup3\n        /* \"#utility.yul\":4258:4261   */\n      dup3\n        /* \"#utility.yul\":4251:4270   */\n      mstore\n        /* \"#utility.yul\":4303:4307   */\n      0x20\n        /* \"#utility.yul\":4298:4301   */\n      dup3\n        /* \"#utility.yul\":4294:4308   */\n      add\n        /* \"#utility.yul\":4279:4308   */\n      swap1\n      pop\n        /* \"#utility.yul\":4155:4314   */\n      swap3\n      swap2\n      pop\n      pop\n      jump\t// out\n        /* \"#utility.yul\":4320:4566   */\n    tag_83:\n        /* \"#utility.yul\":4401:4402   */\n      0x00\n        /* \"#utility.yul\":4411:4524   */\n    tag_161:\n        /* \"#utility.yul\":4425:4431   */\n      dup4\n        /* \"#utility.yul\":4422:4423   */\n      dup2\n        /* \"#utility.yul\":4419:4432   */\n      lt\n        /* \"#utility.yul\":4411:4524   */\n      iszero\n      tag_163\n      jumpi\n        /* \"#utility.yul\":4510:4511   */\n      dup1\n        /* \"#utility.yul\":4505:4508   */\n      dup3\n        /* \"#utility.yul\":4501:4512   */\n      add\n        /* \"#utility.yul\":4495:4513   */\n      mload\n        /* \"#utility.yul\":4491:4492   */\n      dup2\n        /* \"#utility.yul\":4486:4489   */\n      dup5\n        /* \"#utility.yul\":4482:4493   */\n      add\n        /* \"#utility.yul\":4475:4514   */\n      mstore\n        /* \"#utility.yul\":4447:4449   */\n      0x20\n        /* \"#utility.yul\":4444:4445   */\n      dup2\n        /* \"#utility.yul\":4440:4450   */\n      add\n        /* \"#utility.yul\":4435:4450   */\n      swap1\n      pop\n        /* \"#utility.yul\":4411:4524   */\n      jump(tag_161)\n    tag_163:\n        /* \"#utility.yul\":4558:4559   */\n      0x00\n        /* \"#utility.yul\":4549:4555   */\n      dup5\n        /* \"#utility.yul\":4544:4547   */\n      dup5\n        /* \"#utility.yul\":4540:4556   */\n      add\n        /* \"#utility.yul\":4533:4560   */\n      mstore\n        /* \"#utility.yul\":4382:4566   */\n      pop\n        /* \"#utility.yul\":4320:4566   */\n      pop\n      pop\n      pop\n      jump\t// out\n        /* \"#utility.yul\":4572:4929   */\n    tag_84:\n        /* \"#utility.yul\":4650:4653   */\n      0x00\n        /* \"#utility.yul\":4678:4717   */\n      tag_165\n        /* \"#utility.yul\":4711:4716   */\n      dup3\n        /* \"#utility.yul\":4678:4717   */\n      tag_81\n      jump\t// in\n    tag_165:\n        /* \"#utility.yul\":4733:4794   */\n      tag_166\n        /* \"#utility.yul\":4787:4793   */\n      dup2\n        /* \"#utility.yul\":4782:4785   */\n      dup6\n        /* \"#utility.yul\":4733:4794   */\n      tag_82\n      jump\t// in\n    tag_166:\n        /* \"#utility.yul\":4726:4794   */\n      swap4\n      pop\n        /* \"#utility.yul\":4803:4868   */\n      tag_167\n        /* \"#utility.yul\":4861:4867   */\n      dup2\n        /* \"#utility.yul\":4856:4859   */\n      dup6\n        /* \"#utility.yul\":4849:4853   */\n      0x20\n        /* \"#utility.yul\":4842:4847   */\n      dup7\n        /* \"#utility.yul\":4838:4854   */\n      add\n        /* \"#utility.yul\":4803:4868   */\n      tag_83\n      jump\t// in\n    tag_167:\n        /* \"#utility.yul\":4893:4922   */\n      tag_168\n        /* \"#utility.yul\":4915:4921   */\n      dup2\n        /* \"#utility.yul\":4893:4922   */\n      tag_68\n      jump\t// in\n    tag_168:\n        /* \"#utility.yul\":4888:4891   */\n      dup5\n        /* \"#utility.yul\":4884:4923   */\n      add\n        /* \"#utility.yul\":4877:4923   */\n      swap2\n      pop\n        /* \"#utility.yul\":4654:4929   */\n      pop\n        /* \"#utility.yul\":4572:4929   */\n      swap3\n      swap2\n      pop\n      pop\n      jump\t// out\n        /* \"#utility.yul\":4935:5043   */\n    tag_85:\n        /* \"#utility.yul\":5012:5036   */\n      tag_170\n        /* \"#utility.yul\":5030:5035   */\n      dup2\n        /* \"#utility.yul\":5012:5036   */\n      tag_76\n      jump\t// in\n    tag_170:\n        /* \"#utility.yul\":5007:5010   */\n      dup3\n        /* \"#utility.yul\":5000:5037   */\n      mstore\n        /* \"#utility.yul\":4935:5043   */\n      pop\n      pop\n      jump\t// out\n        /* \"#utility.yul\":5161:6210   */\n    tag_86:\n        /* \"#utility.yul\":5286:5289   */\n      0x00\n        /* \"#utility.yul\":5322:5326   */\n      0x80\n        /* \"#utility.yul\":5317:5320   */\n      dup4\n        /* \"#utility.yul\":5313:5327   */\n      add\n        /* \"#utility.yul\":5420:5424   */\n      0x00\n        /* \"#utility.yul\":5413:5418   */\n      dup4\n        /* \"#utility.yul\":5409:5425   */\n      add\n        /* \"#utility.yul\":5403:5426   */\n      mload\n        /* \"#utility.yul\":5473:5476   */\n      dup5\n        /* \"#utility.yul\":5467:5471   */\n      dup3\n        /* \"#utility.yul\":5463:5477   */\n      sub\n        /* \"#utility.yul\":5456:5460   */\n      0x00\n        /* \"#utility.yul\":5451:5454   */\n      dup7\n        /* \"#utility.yul\":5447:5461   */\n      add\n        /* \"#utility.yul\":5440:5478   */\n      mstore\n        /* \"#utility.yul\":5499:5572   */\n      tag_172\n        /* \"#utility.yul\":5567:5571   */\n      dup3\n        /* \"#utility.yul\":5553:5565   */\n      dup3\n        /* \"#utility.yul\":5499:5572   */\n      tag_84\n      jump\t// in\n    tag_172:\n        /* \"#utility.yul\":5491:5572   */\n      swap2\n      pop\n        /* \"#utility.yul\":5337:5583   */\n      pop\n        /* \"#utility.yul\":5666:5670   */\n      0x20\n        /* \"#utility.yul\":5659:5664   */\n      dup4\n        /* \"#utility.yul\":5655:5671   */\n      add\n        /* \"#utility.yul\":5649:5672   */\n      mload\n        /* \"#utility.yul\":5685:5748   */\n      tag_173\n        /* \"#utility.yul\":5742:5746   */\n      0x20\n        /* \"#utility.yul\":5737:5740   */\n      dup7\n        /* \"#utility.yul\":5733:5747   */\n      add\n        /* \"#utility.yul\":5719:5731   */\n      dup3\n        /* \"#utility.yul\":5685:5748   */\n      tag_85\n      jump\t// in\n    tag_173:\n        /* \"#utility.yul\":5593:5758   */\n      pop\n        /* \"#utility.yul\":5841:5845   */\n      0x40\n        /* \"#utility.yul\":5834:5839   */\n      dup4\n        /* \"#utility.yul\":5830:5846   */\n      add\n        /* \"#utility.yul\":5824:5847   */\n      mload\n        /* \"#utility.yul\":5894:5897   */\n      dup5\n        /* \"#utility.yul\":5888:5892   */\n      dup3\n        /* \"#utility.yul\":5884:5898   */\n      sub\n        /* \"#utility.yul\":5877:5881   */\n      0x40\n        /* \"#utility.yul\":5872:5875   */\n      dup7\n        /* \"#utility.yul\":5868:5882   */\n      add\n        /* \"#utility.yul\":5861:5899   */\n      mstore\n        /* \"#utility.yul\":5920:5993   */\n      tag_174\n        /* \"#utility.yul\":5988:5992   */\n      dup3\n        /* \"#utility.yul\":5974:5986   */\n      dup3\n        /* \"#utility.yul\":5920:5993   */\n      tag_84\n      jump\t// in\n    tag_174:\n        /* \"#utility.yul\":5912:5993   */\n      swap2\n      pop\n        /* \"#utility.yul\":5768:6004   */\n      pop\n        /* \"#utility.yul\":6091:6095   */\n      0x60\n        /* \"#utility.yul\":6084:6089   */\n      dup4\n        /* \"#utility.yul\":6080:6096   */\n      add\n        /* \"#utility.yul\":6074:6097   */\n      mload\n        /* \"#utility.yul\":6110:6173   */\n      tag_175\n        /* \"#utility.yul\":6167:6171   */\n      0x60\n        /* \"#utility.yul\":6162:6165   */\n      dup7\n        /* \"#utility.yul\":6158:6172   */\n      add\n        /* \"#utility.yul\":6144:6156   */\n      dup3\n        /* \"#utility.yul\":6110:6173   */\n      tag_85\n      jump\t// in\n    tag_175:\n        /* \"#utility.yul\":6014:6183   */\n      pop\n        /* \"#utility.yul\":6200:6204   */\n      dup1\n        /* \"#utility.yul\":6193:6204   */\n      swap2\n      pop\n        /* \"#utility.yul\":5291:6210   */\n      pop\n        /* \"#utility.yul\":5161:6210   */\n      swap3\n      swap2\n      pop\n      pop\n      jump\t// out\n        /* \"#utility.yul\":6216:6504   */\n    tag_87:\n        /* \"#utility.yul\":6351:6361   */\n      0x00\n        /* \"#utility.yul\":6386:6498   */\n      tag_177\n        /* \"#utility.yul\":6494:6497   */\n      dup4\n        /* \"#utility.yul\":6486:6492   */\n      dup4\n        /* \"#utility.yul\":6386:6498   */\n      tag_86\n      jump\t// in\n    tag_177:\n        /* \"#utility.yul\":6372:6498   */\n      swap1\n      pop\n        /* \"#utility.yul\":6216:6504   */\n      swap3\n      swap2\n      pop\n      pop\n      jump\t// out\n        /* \"#utility.yul\":6510:6656   */\n    tag_88:\n        /* \"#utility.yul\":6613:6617   */\n      0x00\n        /* \"#utility.yul\":6645:6649   */\n      0x20\n        /* \"#utility.yul\":6640:6643   */\n      dup3\n        /* \"#utility.yul\":6636:6650   */\n      add\n        /* \"#utility.yul\":6628:6650   */\n      swap1\n      pop\n        /* \"#utility.yul\":6510:6656   */\n      swap2\n      swap1\n      pop\n      jump\t// out\n        /* \"#utility.yul\":6778:7953   */\n    tag_89:\n        /* \"#utility.yul\":6963:6966   */\n      0x00\n        /* \"#utility.yul\":6992:7079   */\n      tag_180\n        /* \"#utility.yul\":7073:7078   */\n      dup3\n        /* \"#utility.yul\":6992:7079   */\n      tag_78\n      jump\t// in\n    tag_180:\n        /* \"#utility.yul\":7095:7214   */\n      tag_181\n        /* \"#utility.yul\":7207:7213   */\n      dup2\n        /* \"#utility.yul\":7202:7205   */\n      dup6\n        /* \"#utility.yul\":7095:7214   */\n      tag_79\n      jump\t// in\n    tag_181:\n        /* \"#utility.yul\":7088:7214   */\n      swap4\n      pop\n        /* \"#utility.yul\":7240:7243   */\n      dup4\n        /* \"#utility.yul\":7285:7289   */\n      0x20\n        /* \"#utility.yul\":7277:7283   */\n      dup3\n        /* \"#utility.yul\":7273:7290   */\n      mul\n        /* \"#utility.yul\":7268:7271   */\n      dup6\n        /* \"#utility.yul\":7264:7291   */\n      add\n        /* \"#utility.yul\":7315:7404   */\n      tag_182\n        /* \"#utility.yul\":7398:7403   */\n      dup6\n        /* \"#utility.yul\":7315:7404   */\n      tag_80\n      jump\t// in\n    tag_182:\n        /* \"#utility.yul\":7427:7434   */\n      dup1\n        /* \"#utility.yul\":7458:7459   */\n      0x00\n        /* \"#utility.yul\":7443:7908   */\n    tag_183:\n        /* \"#utility.yul\":7468:7474   */\n      dup6\n        /* \"#utility.yul\":7465:7466   */\n      dup2\n        /* \"#utility.yul\":7462:7475   */\n      lt\n        /* \"#utility.yul\":7443:7908   */\n      iszero\n      tag_185\n      jumpi\n        /* \"#utility.yul\":7539:7548   */\n      dup5\n        /* \"#utility.yul\":7533:7537   */\n      dup5\n        /* \"#utility.yul\":7529:7549   */\n      sub\n        /* \"#utility.yul\":7524:7527   */\n      dup10\n        /* \"#utility.yul\":7517:7550   */\n      mstore\n        /* \"#utility.yul\":7590:7596   */\n      dup2\n        /* \"#utility.yul\":7584:7597   */\n      mload\n        /* \"#utility.yul\":7618:7748   */\n      tag_186\n        /* \"#utility.yul\":7743:7747   */\n      dup6\n        /* \"#utility.yul\":7728:7741   */\n      dup3\n        /* \"#utility.yul\":7618:7748   */\n      tag_87\n      jump\t// in\n    tag_186:\n        /* \"#utility.yul\":7610:7748   */\n      swap5\n      pop\n        /* \"#utility.yul\":7771:7864   */\n      tag_187\n        /* \"#utility.yul\":7857:7863   */\n      dup4\n        /* \"#utility.yul\":7771:7864   */\n      tag_88\n      jump\t// in\n    tag_187:\n        /* \"#utility.yul\":7761:7864   */\n      swap3\n      pop\n        /* \"#utility.yul\":7893:7897   */\n      0x20\n        /* \"#utility.yul\":7888:7891   */\n      dup11\n        /* \"#utility.yul\":7884:7898   */\n      add\n        /* \"#utility.yul\":7877:7898   */\n      swap10\n      pop\n        /* \"#utility.yul\":7503:7908   */\n      pop\n        /* \"#utility.yul\":7490:7491   */\n      0x01\n        /* \"#utility.yul\":7487:7488   */\n      dup2\n        /* \"#utility.yul\":7483:7492   */\n      add\n        /* \"#utility.yul\":7478:7492   */\n      swap1\n      pop\n        /* \"#utility.yul\":7443:7908   */\n      jump(tag_183)\n    tag_185:\n        /* \"#utility.yul\":7447:7461   */\n      pop\n        /* \"#utility.yul\":7924:7928   */\n      dup3\n        /* \"#utility.yul\":7917:7928   */\n      swap8\n      pop\n        /* \"#utility.yul\":7944:7947   */\n      dup8\n        /* \"#utility.yul\":7937:7947   */\n      swap6\n      pop\n        /* \"#utility.yul\":6968:7953   */\n      pop\n      pop\n      pop\n      pop\n      pop\n        /* \"#utility.yul\":6778:7953   */\n      swap3\n      swap2\n      pop\n      pop\n      jump\t// out\n        /* \"#utility.yul\":7959:8464   */\n    tag_17:\n        /* \"#utility.yul\":8168:8172   */\n      0x00\n        /* \"#utility.yul\":8206:8208   */\n      0x20\n        /* \"#utility.yul\":8195:8204   */\n      dup3\n        /* \"#utility.yul\":8191:8209   */\n      add\n        /* \"#utility.yul\":8183:8209   */\n      swap1\n      pop\n        /* \"#utility.yul\":8255:8264   */\n      dup2\n        /* \"#utility.yul\":8249:8253   */\n      dup2\n        /* \"#utility.yul\":8245:8265   */\n      sub\n        /* \"#utility.yul\":8241:8242   */\n      0x00\n        /* \"#utility.yul\":8230:8239   */\n      dup4\n        /* \"#utility.yul\":8226:8243   */\n      add\n        /* \"#utility.yul\":8219:8266   */\n      mstore\n        /* \"#utility.yul\":8283:8457   */\n      tag_189\n        /* \"#utility.yul\":8452:8456   */\n      dup2\n        /* \"#utility.yul\":8443:8449   */\n      dup5\n        /* \"#utility.yul\":8283:8457   */\n      tag_89\n      jump\t// in\n    tag_189:\n        /* \"#utility.yul\":8275:8457   */\n      swap1\n      pop\n        /* \"#utility.yul\":7959:8464   */\n      swap3\n      swap2\n      pop\n      pop\n      jump\t// out\n        /* \"#utility.yul\":8470:8592   */\n    tag_90:\n        /* \"#utility.yul\":8543:8567   */\n      tag_191\n        /* \"#utility.yul\":8561:8566   */\n      dup2\n        /* \"#utility.yul\":8543:8567   */\n      tag_76\n      jump\t// in\n    tag_191:\n        /* \"#utility.yul\":8536:8541   */\n      dup2\n        /* \"#utility.yul\":8533:8568   */\n      eq\n        /* \"#utility.yul\":8523:8586   */\n      tag_192\n      jumpi\n        /* \"#utility.yul\":8582:8583   */\n      0x00\n        /* \"#utility.yul\":8579:8580   */\n      dup1\n        /* \"#utility.yul\":8572:8584   */\n      revert\n        /* \"#utility.yul\":8523:8586   */\n    tag_192:\n        /* \"#utility.yul\":8470:8592   */\n      pop\n      jump\t// out\n        /* \"#utility.yul\":8598:8737   */\n    tag_91:\n        /* \"#utility.yul\":8644:8649   */\n      0x00\n        /* \"#utility.yul\":8682:8688   */\n      dup2\n        /* \"#utility.yul\":8669:8689   */\n      calldataload\n        /* \"#utility.yul\":8660:8689   */\n      swap1\n      pop\n        /* \"#utility.yul\":8698:8731   */\n      tag_194\n        /* \"#utility.yul\":8725:8730   */\n      dup2\n        /* \"#utility.yul\":8698:8731   */\n      tag_90\n      jump\t// in\n    tag_194:\n        /* \"#utility.yul\":8598:8737   */\n      swap3\n      swap2\n      pop\n      pop\n      jump\t// out\n        /* \"#utility.yul\":8743:9868   */\n    tag_24:\n        /* \"#utility.yul\":8849:8855   */\n      0x00\n        /* \"#utility.yul\":8857:8863   */\n      dup1\n        /* \"#utility.yul\":8865:8871   */\n      0x00\n        /* \"#utility.yul\":8873:8879   */\n      dup1\n        /* \"#utility.yul\":8922:8925   */\n      0x80\n        /* \"#utility.yul\":8910:8919   */\n      dup6\n        /* \"#utility.yul\":8901:8908   */\n      dup8\n        /* \"#utility.yul\":8897:8920   */\n      sub\n        /* \"#utility.yul\":8893:8926   */\n      slt\n        /* \"#utility.yul\":8890:9010   */\n      iszero\n      tag_196\n      jumpi\n        /* \"#utility.yul\":8929:9008   */\n      tag_197\n      tag_64\n      jump\t// in\n    tag_197:\n        /* \"#utility.yul\":8890:9010   */\n    tag_196:\n        /* \"#utility.yul\":9077:9078   */\n      0x00\n        /* \"#utility.yul\":9066:9075   */\n      dup6\n        /* \"#utility.yul\":9062:9079   */\n      add\n        /* \"#utility.yul\":9049:9080   */\n      calldataload\n        /* \"#utility.yul\":9107:9125   */\n      0xffffffffffffffff\n        /* \"#utility.yul\":9099:9105   */\n      dup2\n        /* \"#utility.yul\":9096:9126   */\n      gt\n        /* \"#utility.yul\":9093:9210   */\n      iszero\n      tag_198\n      jumpi\n        /* \"#utility.yul\":9129:9208   */\n      tag_199\n      tag_65\n      jump\t// in\n    tag_199:\n        /* \"#utility.yul\":9093:9210   */\n    tag_198:\n        /* \"#utility.yul\":9234:9297   */\n      tag_200\n        /* \"#utility.yul\":9289:9296   */\n      dup8\n        /* \"#utility.yul\":9280:9286   */\n      dup3\n        /* \"#utility.yul\":9269:9278   */\n      dup9\n        /* \"#utility.yul\":9265:9287   */\n      add\n        /* \"#utility.yul\":9234:9297   */\n      tag_75\n      jump\t// in\n    tag_200:\n        /* \"#utility.yul\":9224:9297   */\n      swap5\n      pop\n        /* \"#utility.yul\":9020:9307   */\n      pop\n        /* \"#utility.yul\":9346:9348   */\n      0x20\n        /* \"#utility.yul\":9372:9425   */\n      tag_201\n        /* \"#utility.yul\":9417:9424   */\n      dup8\n        /* \"#utility.yul\":9408:9414   */\n      dup3\n        /* \"#utility.yul\":9397:9406   */\n      dup9\n        /* \"#utility.yul\":9393:9415   */\n      add\n        /* \"#utility.yul\":9372:9425   */\n      tag_91\n      jump\t// in\n    tag_201:\n        /* \"#utility.yul\":9362:9425   */\n      swap4\n      pop\n        /* \"#utility.yul\":9317:9435   */\n      pop\n        /* \"#utility.yul\":9502:9504   */\n      0x40\n        /* \"#utility.yul\":9491:9500   */\n      dup6\n        /* \"#utility.yul\":9487:9505   */\n      add\n        /* \"#utility.yul\":9474:9506   */\n      calldataload\n        /* \"#utility.yul\":9533:9551   */\n      0xffffffffffffffff\n        /* \"#utility.yul\":9525:9531   */\n      dup2\n        /* \"#utility.yul\":9522:9552   */\n      gt\n        /* \"#utility.yul\":9519:9636   */\n      iszero\n      tag_202\n      jumpi\n        /* \"#utility.yul\":9555:9634   */\n      tag_203\n      tag_65\n      jump\t// in\n    tag_203:\n        /* \"#utility.yul\":9519:9636   */\n    tag_202:\n        /* \"#utility.yul\":9660:9723   */\n      tag_204\n        /* \"#utility.yul\":9715:9722   */\n      dup8\n        /* \"#utility.yul\":9706:9712   */\n      dup3\n        /* \"#utility.yul\":9695:9704   */\n      dup9\n        /* \"#utility.yul\":9691:9713   */\n      add\n        /* \"#utility.yul\":9660:9723   */\n      tag_75\n      jump\t// in\n    tag_204:\n        /* \"#utility.yul\":9650:9723   */\n      swap3\n      pop\n        /* \"#utility.yul\":9445:9733   */\n      pop\n        /* \"#utility.yul\":9772:9774   */\n      0x60\n        /* \"#utility.yul\":9798:9851   */\n      tag_205\n        /* \"#utility.yul\":9843:9850   */\n      dup8\n        /* \"#utility.yul\":9834:9840   */\n      dup3\n        /* \"#utility.yul\":9823:9832   */\n      dup9\n        /* \"#utility.yul\":9819:9841   */\n      add\n        /* \"#utility.yul\":9798:9851   */\n      tag_91\n      jump\t// in\n    tag_205:\n        /* \"#utility.yul\":9788:9851   */\n      swap2\n      pop\n        /* \"#utility.yul\":9743:9861   */\n      pop\n        /* \"#utility.yul\":8743:9868   */\n      swap3\n      swap6\n      swap2\n      swap5\n      pop\n      swap3\n      pop\n      jump\t// out\n        /* \"#utility.yul\":9874:10022   */\n    tag_92:\n        /* \"#utility.yul\":9976:9987   */\n      0x00\n        /* \"#utility.yul\":10013:10016   */\n      dup2\n        /* \"#utility.yul\":9998:10016   */\n      swap1\n      pop\n        /* \"#utility.yul\":9874:10022   */\n      swap3\n      swap2\n      pop\n      pop\n      jump\t// out\n        /* \"#utility.yul\":10028:10418   */\n    tag_93:\n        /* \"#utility.yul\":10134:10137   */\n      0x00\n        /* \"#utility.yul\":10162:10201   */\n      tag_208\n        /* \"#utility.yul\":10195:10200   */\n      dup3\n        /* \"#utility.yul\":10162:10201   */\n      tag_81\n      jump\t// in\n    tag_208:\n        /* \"#utility.yul\":10217:10306   */\n      tag_209\n        /* \"#utility.yul\":10299:10305   */\n      dup2\n        /* \"#utility.yul\":10294:10297   */\n      dup6\n        /* \"#utility.yul\":10217:10306   */\n      tag_92\n      jump\t// in\n    tag_209:\n        /* \"#utility.yul\":10210:10306   */\n      swap4\n      pop\n        /* \"#utility.yul\":10315:10380   */\n      tag_210\n        /* \"#utility.yul\":10373:10379   */\n      dup2\n        /* \"#utility.yul\":10368:10371   */\n      dup6\n        /* \"#utility.yul\":10361:10365   */\n      0x20\n        /* \"#utility.yul\":10354:10359   */\n      dup7\n        /* \"#utility.yul\":10350:10366   */\n      add\n        /* \"#utility.yul\":10315:10380   */\n      tag_83\n      jump\t// in\n    tag_210:\n        /* \"#utility.yul\":10405:10411   */\n      dup1\n        /* \"#utility.yul\":10400:10403   */\n      dup5\n        /* \"#utility.yul\":10396:10412   */\n      add\n        /* \"#utility.yul\":10389:10412   */\n      swap2\n      pop\n        /* \"#utility.yul\":10138:10418   */\n      pop\n        /* \"#utility.yul\":10028:10418   */\n      swap3\n      swap2\n      pop\n      pop\n      jump\t// out\n        /* \"#utility.yul\":10424:10699   */\n    tag_28:\n        /* \"#utility.yul\":10556:10559   */\n      0x00\n        /* \"#utility.yul\":10578:10673   */\n      tag_212\n        /* \"#utility.yul\":10669:10672   */\n      dup3\n        /* \"#utility.yul\":10660:10666   */\n      dup5\n        /* \"#utility.yul\":10578:10673   */\n      tag_93\n      jump\t// in\n    tag_212:\n        /* \"#utility.yul\":10571:10673   */\n      swap2\n      pop\n        /* \"#utility.yul\":10690:10693   */\n      dup2\n        /* \"#utility.yul\":10683:10693   */\n      swap1\n      pop\n        /* \"#utility.yul\":10424:10699   */\n      swap3\n      swap2\n      pop\n      pop\n      jump\t// out\n        /* \"#utility.yul\":10705:10874   */\n    tag_94:\n        /* \"#utility.yul\":10789:10800   */\n      0x00\n        /* \"#utility.yul\":10823:10829   */\n      dup3\n        /* \"#utility.yul\":10818:10821   */\n      dup3\n        /* \"#utility.yul\":10811:10830   */\n      mstore\n        /* \"#utility.yul\":10863:10867   */\n      0x20\n        /* \"#utility.yul\":10858:10861   */\n      dup3\n        /* \"#utility.yul\":10854:10868   */\n      add\n        /* \"#utility.yul\":10839:10868   */\n      swap1\n      pop\n        /* \"#utility.yul\":10705:10874   */\n      swap3\n      swap2\n      pop\n      pop\n      jump\t// out\n        /* \"#utility.yul\":10880:11056   */\n    tag_95:\n        /* \"#utility.yul\":11020:11048   */\n      0x5472616e73616374696f6e20636f6465206e6f7420666f756e64000000000000\n        /* \"#utility.yul\":11016:11017   */\n      0x00\n        /* \"#utility.yul\":11008:11014   */\n      dup3\n        /* \"#utility.yul\":11004:11018   */\n      add\n        /* \"#utility.yul\":10997:11049   */\n      mstore\n        /* \"#utility.yul\":10880:11056   */\n      pop\n      jump\t// out\n        /* \"#utility.yul\":11062:11428   */\n    tag_96:\n        /* \"#utility.yul\":11204:11207   */\n      0x00\n        /* \"#utility.yul\":11225:11292   */\n      tag_216\n        /* \"#utility.yul\":11289:11291   */\n      0x1a\n        /* \"#utility.yul\":11284:11287   */\n      dup4\n        /* \"#utility.yul\":11225:11292   */\n      tag_94\n      jump\t// in\n    tag_216:\n        /* \"#utility.yul\":11218:11292   */\n      swap2\n      pop\n        /* \"#utility.yul\":11301:11394   */\n      tag_217\n        /* \"#utility.yul\":11390:11393   */\n      dup3\n        /* \"#utility.yul\":11301:11394   */\n      tag_95\n      jump\t// in\n    tag_217:\n        /* \"#utility.yul\":11419:11421   */\n      0x20\n        /* \"#utility.yul\":11414:11417   */\n      dup3\n        /* \"#utility.yul\":11410:11422   */\n      add\n        /* \"#utility.yul\":11403:11422   */\n      swap1\n      pop\n        /* \"#utility.yul\":11062:11428   */\n      swap2\n      swap1\n      pop\n      jump\t// out\n        /* \"#utility.yul\":11434:11853   */\n    tag_31:\n        /* \"#utility.yul\":11600:11604   */\n      0x00\n        /* \"#utility.yul\":11638:11640   */\n      0x20\n        /* \"#utility.yul\":11627:11636   */\n      dup3\n        /* \"#utility.yul\":11623:11641   */\n      add\n        /* \"#utility.yul\":11615:11641   */\n      swap1\n      pop\n        /* \"#utility.yul\":11687:11696   */\n      dup2\n        /* \"#utility.yul\":11681:11685   */\n      dup2\n        /* \"#utility.yul\":11677:11697   */\n      sub\n        /* \"#utility.yul\":11673:11674   */\n      0x00\n        /* \"#utility.yul\":11662:11671   */\n      dup4\n        /* \"#utility.yul\":11658:11675   */\n      add\n        /* \"#utility.yul\":11651:11698   */\n      mstore\n        /* \"#utility.yul\":11715:11846   */\n      tag_219\n        /* \"#utility.yul\":11841:11845   */\n      dup2\n        /* \"#utility.yul\":11715:11846   */\n      tag_96\n      jump\t// in\n    tag_219:\n        /* \"#utility.yul\":11707:11846   */\n      swap1\n      pop\n        /* \"#utility.yul\":11434:11853   */\n      swap2\n      swap1\n      pop\n      jump\t// out\n        /* \"#utility.yul\":11859:12039   */\n    tag_35:\n        /* \"#utility.yul\":11907:11984   */\n      0x4e487b7100000000000000000000000000000000000000000000000000000000\n        /* \"#utility.yul\":11904:11905   */\n      0x00\n        /* \"#utility.yul\":11897:11985   */\n      mstore\n        /* \"#utility.yul\":12004:12008   */\n      0x32\n        /* \"#utility.yul\":12001:12002   */\n      0x04\n        /* \"#utility.yul\":11994:12009   */\n      mstore\n        /* \"#utility.yul\":12028:12032   */\n      0x24\n        /* \"#utility.yul\":12025:12026   */\n      0x00\n        /* \"#utility.yul\":12018:12033   */\n      revert\n        /* \"#utility.yul\":12045:12225   */\n    tag_97:\n        /* \"#utility.yul\":12093:12170   */\n      0x4e487b7100000000000000000000000000000000000000000000000000000000\n        /* \"#utility.yul\":12090:12091   */\n      0x00\n        /* \"#utility.yul\":12083:12171   */\n      mstore\n        /* \"#utility.yul\":12190:12194   */\n      0x22\n        /* \"#utility.yul\":12187:12188   */\n      0x04\n        /* \"#utility.yul\":12180:12195   */\n      mstore\n        /* \"#utility.yul\":12214:12218   */\n      0x24\n        /* \"#utility.yul\":12211:12212   */\n      0x00\n        /* \"#utility.yul\":12204:12219   */\n      revert\n        /* \"#utility.yul\":12231:12551   */\n    tag_43:\n        /* \"#utility.yul\":12275:12281   */\n      0x00\n        /* \"#utility.yul\":12312:12313   */\n      0x02\n        /* \"#utility.yul\":12306:12310   */\n      dup3\n        /* \"#utility.yul\":12302:12314   */\n      div\n        /* \"#utility.yul\":12292:12314   */\n      swap1\n      pop\n        /* \"#utility.yul\":12359:12360   */\n      0x01\n        /* \"#utility.yul\":12353:12357   */\n      dup3\n        /* \"#utility.yul\":12349:12361   */\n      and\n        /* \"#utility.yul\":12380:12398   */\n      dup1\n        /* \"#utility.yul\":12370:12451   */\n      tag_223\n      jumpi\n        /* \"#utility.yul\":12436:12440   */\n      0x7f\n        /* \"#utility.yul\":12428:12434   */\n      dup3\n        /* \"#utility.yul\":12424:12441   */\n      and\n        /* \"#utility.yul\":12414:12441   */\n      swap2\n      pop\n        /* \"#utility.yul\":12370:12451   */\n    tag_223:\n        /* \"#utility.yul\":12498:12500   */\n      0x20\n        /* \"#utility.yul\":12490:12496   */\n      dup3\n        /* \"#utility.yul\":12487:12501   */\n      lt\n        /* \"#utility.yul\":12467:12485   */\n      dup2\n        /* \"#utility.yul\":12464:12502   */\n      sub\n        /* \"#utility.yul\":12461:12545   */\n      tag_224\n      jumpi\n        /* \"#utility.yul\":12517:12535   */\n      tag_225\n      tag_97\n      jump\t// in\n    tag_225:\n        /* \"#utility.yul\":12461:12545   */\n    tag_224:\n        /* \"#utility.yul\":12282:12551   */\n      pop\n        /* \"#utility.yul\":12231:12551   */\n      swap2\n      swap1\n      pop\n      jump\t// out\n        /* \"#utility.yul\":12557:12698   */\n    tag_98:\n        /* \"#utility.yul\":12606:12610   */\n      0x00\n        /* \"#utility.yul\":12629:12632   */\n      dup2\n        /* \"#utility.yul\":12621:12632   */\n      swap1\n      pop\n        /* \"#utility.yul\":12652:12655   */\n      dup2\n        /* \"#utility.yul\":12649:12650   */\n      0x00\n        /* \"#utility.yul\":12642:12656   */\n      mstore\n        /* \"#utility.yul\":12686:12690   */\n      0x20\n        /* \"#utility.yul\":12683:12684   */\n      0x00\n        /* \"#utility.yul\":12673:12691   */\n      keccak256\n        /* \"#utility.yul\":12665:12691   */\n      swap1\n      pop\n        /* \"#utility.yul\":12557:12698   */\n      swap2\n      swap1\n      pop\n      jump\t// out\n        /* \"#utility.yul\":12704:12797   */\n    tag_99:\n        /* \"#utility.yul\":12741:12747   */\n      0x00\n        /* \"#utility.yul\":12788:12790   */\n      0x20\n        /* \"#utility.yul\":12783:12785   */\n      0x1f\n        /* \"#utility.yul\":12776:12781   */\n      dup4\n        /* \"#utility.yul\":12772:12786   */\n      add\n        /* \"#utility.yul\":12768:12791   */\n      div\n        /* \"#utility.yul\":12758:12791   */\n      swap1\n      pop\n        /* \"#utility.yul\":12704:12797   */\n      swap2\n      swap1\n      pop\n      jump\t// out\n        /* \"#utility.yul\":12803:12910   */\n    tag_100:\n        /* \"#utility.yul\":12847:12855   */\n      0x00\n        /* \"#utility.yul\":12897:12902   */\n      dup3\n        /* \"#utility.yul\":12891:12895   */\n      dup3\n        /* \"#utility.yul\":12887:12903   */\n      shl\n        /* \"#utility.yul\":12866:12903   */\n      swap1\n      pop\n        /* \"#utility.yul\":12803:12910   */\n      swap3\n      swap2\n      pop\n      pop\n      jump\t// out\n        /* \"#utility.yul\":12916:13309   */\n    tag_101:\n        /* \"#utility.yul\":12985:12991   */\n      0x00\n        /* \"#utility.yul\":13035:13036   */\n      0x08\n        /* \"#utility.yul\":13023:13033   */\n      dup4\n        /* \"#utility.yul\":13019:13037   */\n      mul\n        /* \"#utility.yul\":13058:13155   */\n      tag_230\n        /* \"#utility.yul\":13088:13154   */\n      0xffffffffffffffffffffffffffffffffffffffffffffffffffffffffffffffff\n        /* \"#utility.yul\":13077:13086   */\n      dup3\n        /* \"#utility.yul\":13058:13155   */\n      tag_100\n      jump\t// in\n    tag_230:\n        /* \"#utility.yul\":13176:13215   */\n      tag_231\n        /* \"#utility.yul\":13206:13214   */\n      dup7\n        /* \"#utility.yul\":13195:13204   */\n      dup4\n        /* \"#utility.yul\":13176:13215   */\n      tag_100\n      jump\t// in\n    tag_231:\n        /* \"#utility.yul\":13164:13215   */\n      swap6\n      pop\n        /* \"#utility.yul\":13248:13252   */\n      dup1\n        /* \"#utility.yul\":13244:13253   */\n      not\n        /* \"#utility.yul\":13237:13242   */\n      dup5\n        /* \"#utility.yul\":13233:13254   */\n      and\n        /* \"#utility.yul\":13224:13254   */\n      swap4\n      pop\n        /* \"#utility.yul\":13297:13301   */\n      dup1\n        /* \"#utility.yul\":13287:13295   */\n      dup7\n        /* \"#utility.yul\":13283:13302   */\n      and\n        /* \"#utility.yul\":13276:13281   */\n      dup5\n        /* \"#utility.yul\":13273:13303   */\n      or\n        /* \"#utility.yul\":13263:13303   */\n      swap3\n      pop\n        /* \"#utility.yul\":12992:13309   */\n      pop\n      pop\n        /* \"#utility.yul\":12916:13309   */\n      swap4\n      swap3\n      pop\n      pop\n      pop\n      jump\t// out\n        /* \"#utility.yul\":13315:13375   */\n    tag_102:\n        /* \"#utility.yul\":13343:13346   */\n      0x00\n        /* \"#utility.yul\":13364:13369   */\n      dup2\n        /* \"#utility.yul\":13357:13369   */\n      swap1\n      pop\n        /* \"#utility.yul\":13315:13375   */\n      swap2\n      swap1\n      pop\n      jump\t// out\n        /* \"#utility.yul\":13381:13523   */\n    tag_103:\n        /* \"#utility.yul\":13431:13440   */\n      0x00\n        /* \"#utility.yul\":13464:13517   */\n      tag_234\n        /* \"#utility.yul\":13482:13516   */\n      tag_235\n        /* \"#utility.yul\":13491:13515   */\n      tag_236\n        /* \"#utility.yul\":13509:13514   */\n      dup5\n        /* \"#utility.yul\":13491:13515   */\n      tag_76\n      jump\t// in\n    tag_236:\n        /* \"#utility.yul\":13482:13516   */\n      tag_102\n      jump\t// in\n    tag_235:\n        /* \"#utility.yul\":13464:13517   */\n      tag_76\n      jump\t// in\n    tag_234:\n        /* \"#utility.yul\":13451:13517   */\n      swap1\n      pop\n        /* \"#utility.yul\":13381:13523   */\n      swap2\n      swap1\n      pop\n      jump\t// out\n        /* \"#utility.yul\":13529:13604   */\n    tag_104:\n        /* \"#utility.yul\":13572:13575   */\n      0x00\n        /* \"#utility.yul\":13593:13598   */\n      dup2\n        /* \"#utility.yul\":13586:13598   */\n      swap1\n      pop\n        /* \"#utility.yul\":13529:13604   */\n      swap2\n      swap1\n      pop\n      jump\t// out\n        /* \"#utility.yul\":13610:13879   */\n    tag_105:\n        /* \"#utility.yul\":13720:13759   */\n      tag_239\n        /* \"#utility.yul\":13751:13758   */\n      dup4\n        /* \"#utility.yul\":13720:13759   */\n      tag_103\n      jump\t// in\n    tag_239:\n        /* \"#utility.yul\":13781:13872   */\n      tag_240\n        /* \"#utility.yul\":13830:13871   */\n      tag_241\n        /* \"#utility.yul\":13854:13870   */\n      dup3\n        /* \"#utility.yul\":13830:13871   */\n      tag_104\n      jump\t// in\n    tag_241:\n        /* \"#utility.yul\":13822:13828   */\n      dup5\n        /* \"#utility.yul\":13815:13819   */\n      dup5\n        /* \"#utility.yul\":13809:13820   */\n      sload\n        /* \"#utility.yul\":13781:13872   */\n      tag_101\n      jump\t// in\n    tag_240:\n        /* \"#utility.yul\":13775:13779   */\n      dup3\n        /* \"#utility.yul\":13768:13873   */\n      sstore\n        /* \"#utility.yul\":13686:13879   */\n      pop\n        /* \"#utility.yul\":13610:13879   */\n      pop\n      pop\n      pop\n      jump\t// out\n        /* \"#utility.yul\":13885:13958   */\n    tag_106:\n        /* \"#utility.yul\":13930:13933   */\n      0x00\n        /* \"#utility.yul\":13885:13958   */\n      swap1\n      jump\t// out\n        /* \"#utility.yul\":13964:14153   */\n    tag_107:\n        /* \"#utility.yul\":14041:14073   */\n      tag_244\n      tag_106\n      jump\t// in\n    tag_244:\n        /* \"#utility.yul\":14082:14147   */\n      tag_245\n        /* \"#utility.yul\":14140:14146   */\n      dup2\n        /* \"#utility.yul\":14132:14138   */\n      dup5\n        /* \"#utility.yul\":14126:14130   */\n      dup5\n        /* \"#utility.yul\":14082:14147   */\n      tag_105\n      jump\t// in\n    tag_245:\n        /* \"#utility.yul\":14017:14153   */\n      pop\n        /* \"#utility.yul\":13964:14153   */\n      pop\n      pop\n      jump\t// out\n        /* \"#utility.yul\":14159:14345   */\n    tag_108:\n        /* \"#utility.yul\":14219:14339   */\n    tag_247:\n        /* \"#utility.yul\":14236:14239   */\n      dup2\n        /* \"#utility.yul\":14229:14234   */\n      dup2\n        /* \"#utility.yul\":14226:14240   */\n      lt\n        /* \"#utility.yul\":14219:14339   */\n      iszero\n      tag_249\n      jumpi\n        /* \"#utility.yul\":14290:14329   */\n      tag_250\n        /* \"#utility.yul\":14327:14328   */\n      0x00\n        /* \"#utility.yul\":14320:14325   */\n      dup3\n        /* \"#utility.yul\":14290:14329   */\n      tag_107\n      jump\t// in\n    tag_250:\n        /* \"#utility.yul\":14263:14264   */\n      0x01\n        /* \"#utility.yul\":14256:14261   */\n      dup2\n        /* \"#utility.yul\":14252:14265   */\n      add\n        /* \"#utility.yul\":14243:14265   */\n      swap1\n      pop\n        /* \"#utility.yul\":14219:14339   */\n      jump(tag_247)\n    tag_249:\n        /* \"#utility.yul\":14159:14345   */\n      pop\n      pop\n      jump\t// out\n        /* \"#utility.yul\":14351:14894   */\n    tag_109:\n        /* \"#utility.yul\":14452:14454   */\n      0x1f\n        /* \"#utility.yul\":14447:14450   */\n      dup3\n        /* \"#utility.yul\":14444:14455   */\n      gt\n        /* \"#utility.yul\":14441:14887   */\n      iszero\n      tag_252\n      jumpi\n        /* \"#utility.yul\":14486:14524   */\n      tag_253\n        /* \"#utility.yul\":14518:14523   */\n      dup2\n        /* \"#utility.yul\":14486:14524   */\n      tag_98\n      jump\t// in\n    tag_253:\n        /* \"#utility.yul\":14570:14599   */\n      tag_254\n        /* \"#utility.yul\":14588:14598   */\n      dup5\n        /* \"#utility.yul\":14570:14599   */\n      tag_99\n      jump\t// in\n    tag_254:\n        /* \"#utility.yul\":14560:14568   */\n      dup2\n        /* \"#utility.yul\":14556:14600   */\n      add\n        /* \"#utility.yul\":14753:14755   */\n      0x20\n        /* \"#utility.yul\":14741:14751   */\n      dup6\n        /* \"#utility.yul\":14738:14756   */\n      lt\n        /* \"#utility.yul\":14735:14784   */\n      iszero\n      tag_255\n      jumpi\n        /* \"#utility.yul\":14774:14782   */\n      dup2\n        /* \"#utility.yul\":14759:14782   */\n      swap1\n      pop\n        /* \"#utility.yul\":14735:14784   */\n    tag_255:\n        /* \"#utility.yul\":14797:14877   */\n      tag_256\n        /* \"#utility.yul\":14853:14875   */\n      tag_257\n        /* \"#utility.yul\":14871:14874   */\n      dup6\n        /* \"#utility.yul\":14853:14875   */\n      tag_99\n      jump\t// in\n    tag_257:\n        /* \"#utility.yul\":14843:14851   */\n      dup4\n        /* \"#utility.yul\":14839:14876   */\n      add\n        /* \"#utility.yul\":14826:14837   */\n      dup3\n        /* \"#utility.yul\":14797:14877   */\n      tag_108\n      jump\t// in\n    tag_256:\n        /* \"#utility.yul\":14456:14887   */\n      pop\n      pop\n        /* \"#utility.yul\":14441:14887   */\n    tag_252:\n        /* \"#utility.yul\":14351:14894   */\n      pop\n      pop\n      pop\n      jump\t// out\n        /* \"#utility.yul\":14900:15017   */\n    tag_110:\n        /* \"#utility.yul\":14954:14962   */\n      0x00\n        /* \"#utility.yul\":15004:15009   */\n      dup3\n        /* \"#utility.yul\":14998:15002   */\n      dup3\n        /* \"#utility.yul\":14994:15010   */\n      shr\n        /* \"#utility.yul\":14973:15010   */\n      swap1\n      pop\n        /* \"#utility.yul\":14900:15017   */\n      swap3\n      swap2\n      pop\n      pop\n      jump\t// out\n        /* \"#utility.yul\":15023:15192   */\n    tag_111:\n        /* \"#utility.yul\":15067:15073   */\n      0x00\n        /* \"#utility.yul\":15100:15151   */\n      tag_260\n        /* \"#utility.yul\":15148:15149   */\n      0x00\n        /* \"#utility.yul\":15144:15150   */\n      not\n        /* \"#utility.yul\":15136:15141   */\n      dup5\n        /* \"#utility.yul\":15133:15134   */\n      0x08\n        /* \"#utility.yul\":15129:15142   */\n      mul\n        /* \"#utility.yul\":15100:15151   */\n      tag_110\n      jump\t// in\n    tag_260:\n        /* \"#utility.yul\":15096:15152   */\n      not\n        /* \"#utility.yul\":15181:15185   */\n      dup1\n        /* \"#utility.yul\":15175:15179   */\n      dup4\n        /* \"#utility.yul\":15171:15186   */\n      and\n        /* \"#utility.yul\":15161:15186   */\n      swap2\n      pop\n        /* \"#utility.yul\":15074:15192   */\n      pop\n        /* \"#utility.yul\":15023:15192   */\n      swap3\n      swap2\n      pop\n      pop\n      jump\t// out\n        /* \"#utility.yul\":15197:15492   */\n    tag_112:\n        /* \"#utility.yul\":15273:15277   */\n      0x00\n        /* \"#utility.yul\":15419:15448   */\n      tag_262\n        /* \"#utility.yul\":15444:15447   */\n      dup4\n        /* \"#utility.yul\":15438:15442   */\n      dup4\n        /* \"#utility.yul\":15419:15448   */\n      tag_111\n      jump\t// in\n    tag_262:\n        /* \"#utility.yul\":15411:15448   */\n      swap2\n      pop\n        /* \"#utility.yul\":15481:15484   */\n      dup3\n        /* \"#utility.yul\":15478:15479   */\n      0x02\n        /* \"#utility.yul\":15474:15485   */\n      mul\n        /* \"#utility.yul\":15468:15472   */\n      dup3\n        /* \"#utility.yul\":15465:15486   */\n      or\n        /* \"#utility.yul\":15457:15486   */\n      swap1\n      pop\n        /* \"#utility.yul\":15197:15492   */\n      swap3\n      swap2\n      pop\n      pop\n      jump\t// out\n        /* \"#utility.yul\":15497:16892   */\n    tag_59:\n        /* \"#utility.yul\":15614:15651   */\n      tag_264\n        /* \"#utility.yul\":15647:15650   */\n      dup3\n        /* \"#utility.yul\":15614:15651   */\n      tag_81\n      jump\t// in\n    tag_264:\n        /* \"#utility.yul\":15716:15734   */\n      0xffffffffffffffff\n        /* \"#utility.yul\":15708:15714   */\n      dup2\n        /* \"#utility.yul\":15705:15735   */\n      gt\n        /* \"#utility.yul\":15702:15758   */\n      iszero\n      tag_265\n      jumpi\n        /* \"#utility.yul\":15738:15756   */\n      tag_266\n      tag_69\n      jump\t// in\n    tag_266:\n        /* \"#utility.yul\":15702:15758   */\n    tag_265:\n        /* \"#utility.yul\":15782:15820   */\n      tag_267\n        /* \"#utility.yul\":15814:15818   */\n      dup3\n        /* \"#utility.yul\":15808:15819   */\n      sload\n        /* \"#utility.yul\":15782:15820   */\n      tag_43\n      jump\t// in\n    tag_267:\n        /* \"#utility.yul\":15867:15934   */\n      tag_268\n        /* \"#utility.yul\":15927:15933   */\n      dup3\n        /* \"#utility.yul\":15919:15925   */\n      dup3\n        /* \"#utility.yul\":15913:15917   */\n      dup6\n        /* \"#utility.yul\":15867:15934   */\n      tag_109\n      jump\t// in\n    tag_268:\n        /* \"#utility.yul\":15961:15962   */\n      0x00\n        /* \"#utility.yul\":15985:15989   */\n      0x20\n        /* \"#utility.yul\":15972:15989   */\n      swap1\n      pop\n        /* \"#utility.yul\":16017:16019   */\n      0x1f\n        /* \"#utility.yul\":16009:16015   */\n      dup4\n        /* \"#utility.yul\":16006:16020   */\n      gt\n        /* \"#utility.yul\":16034:16035   */\n      0x01\n        /* \"#utility.yul\":16029:16647   */\n      dup2\n      eq\n      tag_270\n      jumpi\n        /* \"#utility.yul\":16691:16692   */\n      0x00\n        /* \"#utility.yul\":16708:16714   */\n      dup5\n        /* \"#utility.yul\":16705:16782   */\n      iszero\n      tag_271\n      jumpi\n        /* \"#utility.yul\":16757:16766   */\n      dup3\n        /* \"#utility.yul\":16752:16755   */\n      dup8\n        /* \"#utility.yul\":16748:16767   */\n      add\n        /* \"#utility.yul\":16742:16768   */\n      mload\n        /* \"#utility.yul\":16733:16768   */\n      swap1\n      pop\n        /* \"#utility.yul\":16705:16782   */\n    tag_271:\n        /* \"#utility.yul\":16808:16875   */\n      tag_272\n        /* \"#utility.yul\":16868:16874   */\n      dup6\n        /* \"#utility.yul\":16861:16866   */\n      dup3\n        /* \"#utility.yul\":16808:16875   */\n      tag_112\n      jump\t// in\n    tag_272:\n        /* \"#utility.yul\":16802:16806   */\n      dup7\n        /* \"#utility.yul\":16795:16876   */\n      sstore\n        /* \"#utility.yul\":16664:16886   */\n      pop\n        /* \"#utility.yul\":15999:16886   */\n      jump(tag_269)\n        /* \"#utility.yul\":16029:16647   */\n    tag_270:\n        /* \"#utility.yul\":16081:16085   */\n      0x1f\n        /* \"#utility.yul\":16077:16086   */\n      not\n        /* \"#utility.yul\":16069:16075   */\n      dup5\n        /* \"#utility.yul\":16065:16087   */\n      and\n        /* \"#utility.yul\":16115:16152   */\n      tag_273\n        /* \"#utility.yul\":16147:16151   */\n      dup7\n        /* \"#utility.yul\":16115:16152   */\n      tag_98\n      jump\t// in\n    tag_273:\n        /* \"#utility.yul\":16174:16175   */\n      0x00\n        /* \"#utility.yul\":16188:16396   */\n    tag_274:\n        /* \"#utility.yul\":16202:16209   */\n      dup3\n        /* \"#utility.yul\":16199:16200   */\n      dup2\n        /* \"#utility.yul\":16196:16210   */\n      lt\n        /* \"#utility.yul\":16188:16396   */\n      iszero\n      tag_276\n      jumpi\n        /* \"#utility.yul\":16281:16290   */\n      dup5\n        /* \"#utility.yul\":16276:16279   */\n      dup10\n        /* \"#utility.yul\":16272:16291   */\n      add\n        /* \"#utility.yul\":16266:16292   */\n      mload\n        /* \"#utility.yul\":16258:16264   */\n      dup3\n        /* \"#utility.yul\":16251:16293   */\n      sstore\n        /* \"#utility.yul\":16332:16333   */\n      0x01\n        /* \"#utility.yul\":16324:16330   */\n      dup3\n        /* \"#utility.yul\":16320:16334   */\n      add\n        /* \"#utility.yul\":16310:16334   */\n      swap2\n      pop\n        /* \"#utility.yul\":16379:16381   */\n      0x20\n        /* \"#utility.yul\":16368:16377   */\n      dup6\n        /* \"#utility.yul\":16364:16382   */\n      add\n        /* \"#utility.yul\":16351:16382   */\n      swap5\n      pop\n        /* \"#utility.yul\":16225:16229   */\n      0x20\n        /* \"#utility.yul\":16222:16223   */\n      dup2\n        /* \"#utility.yul\":16218:16230   */\n      add\n        /* \"#utility.yul\":16213:16230   */\n      swap1\n      pop\n        /* \"#utility.yul\":16188:16396   */\n      jump(tag_274)\n    tag_276:\n        /* \"#utility.yul\":16424:16430   */\n      dup7\n        /* \"#utility.yul\":16415:16422   */\n      dup4\n        /* \"#utility.yul\":16412:16431   */\n      lt\n        /* \"#utility.yul\":16409:16588   */\n      iszero\n      tag_277\n      jumpi\n        /* \"#utility.yul\":16482:16491   */\n      dup5\n        /* \"#utility.yul\":16477:16480   */\n      dup10\n        /* \"#utility.yul\":16473:16492   */\n      add\n        /* \"#utility.yul\":16467:16493   */\n      mload\n        /* \"#utility.yul\":16525:16573   */\n      tag_278\n        /* \"#utility.yul\":16567:16571   */\n      0x1f\n        /* \"#utility.yul\":16559:16565   */\n      dup10\n        /* \"#utility.yul\":16555:16572   */\n      and\n        /* \"#utility.yul\":16544:16553   */\n      dup3\n        /* \"#utility.yul\":16525:16573   */\n      tag_111\n      jump\t// in\n    tag_278:\n        /* \"#utility.yul\":16517:16523   */\n      dup4\n        /* \"#utility.yul\":16510:16574   */\n      sstore\n        /* \"#utility.yul\":16432:16588   */\n      pop\n        /* \"#utility.yul\":16409:16588   */\n    tag_277:\n        /* \"#utility.yul\":16634:16635   */\n      0x01\n        /* \"#utility.yul\":16630:16631   */\n      0x02\n        /* \"#utility.yul\":16622:16628   */\n      dup9\n        /* \"#utility.yul\":16618:16632   */\n      mul\n        /* \"#utility.yul\":16614:16636   */\n      add\n        /* \"#utility.yul\":16608:16612   */\n      dup9\n        /* \"#utility.yul\":16601:16637   */\n      sstore\n        /* \"#utility.yul\":16036:16647   */\n      pop\n      pop\n      pop\n        /* \"#utility.yul\":15999:16886   */\n    tag_269:\n      pop\n        /* \"#utility.yul\":15589:16892   */\n      pop\n      pop\n      pop\n        /* \"#utility.yul\":15497:16892   */\n      pop\n      pop\n      jump\t// out\n        /* \"#utility.yul\":16898:17275   */\n    tag_113:\n        /* \"#utility.yul\":16986:16989   */\n      0x00\n        /* \"#utility.yul\":17014:17053   */\n      tag_280\n        /* \"#utility.yul\":17047:17052   */\n      dup3\n        /* \"#utility.yul\":17014:17053   */\n      tag_81\n      jump\t// in\n    tag_280:\n        /* \"#utility.yul\":17069:17140   */\n      tag_281\n        /* \"#utility.yul\":17133:17139   */\n      dup2\n        /* \"#utility.yul\":17128:17131   */\n      dup6\n        /* \"#utility.yul\":17069:17140   */\n      tag_94\n      jump\t// in\n    tag_281:\n        /* \"#utility.yul\":17062:17140   */\n      swap4\n      pop\n        /* \"#utility.yul\":17149:17214   */\n      tag_282\n        /* \"#utility.yul\":17207:17213   */\n      dup2\n        /* \"#utility.yul\":17202:17205   */\n      dup6\n        /* \"#utility.yul\":17195:17199   */\n      0x20\n        /* \"#utility.yul\":17188:17193   */\n      dup7\n        /* \"#utility.yul\":17184:17200   */\n      add\n        /* \"#utility.yul\":17149:17214   */\n      tag_83\n      jump\t// in\n    tag_282:\n        /* \"#utility.yul\":17239:17268   */\n      tag_283\n        /* \"#utility.yul\":17261:17267   */\n      dup2\n        /* \"#utility.yul\":17239:17268   */\n      tag_68\n      jump\t// in\n    tag_283:\n        /* \"#utility.yul\":17234:17237   */\n      dup5\n        /* \"#utility.yul\":17230:17269   */\n      add\n        /* \"#utility.yul\":17223:17269   */\n      swap2\n      pop\n        /* \"#utility.yul\":16990:17275   */\n      pop\n        /* \"#utility.yul\":16898:17275   */\n      swap3\n      swap2\n      pop\n      pop\n      jump\t// out\n        /* \"#utility.yul\":17281:18016   */\n    tag_62:\n        /* \"#utility.yul\":17498:17502   */\n      0x00\n        /* \"#utility.yul\":17536:17539   */\n      0x80\n        /* \"#utility.yul\":17525:17534   */\n      dup3\n        /* \"#utility.yul\":17521:17540   */\n      add\n        /* \"#utility.yul\":17513:17540   */\n      swap1\n      pop\n        /* \"#utility.yul\":17586:17595   */\n      dup2\n        /* \"#utility.yul\":17580:17584   */\n      dup2\n        /* \"#utility.yul\":17576:17596   */\n      sub\n        /* \"#utility.yul\":17572:17573   */\n      0x00\n        /* \"#utility.yul\":17561:17570   */\n      dup4\n        /* \"#utility.yul\":17557:17574   */\n      add\n        /* \"#utility.yul\":17550:17597   */\n      mstore\n        /* \"#utility.yul\":17614:17692   */\n      tag_285\n        /* \"#utility.yul\":17687:17691   */\n      dup2\n        /* \"#utility.yul\":17678:17684   */\n      dup8\n        /* \"#utility.yul\":17614:17692   */\n      tag_113\n      jump\t// in\n    tag_285:\n        /* \"#utility.yul\":17606:17692   */\n      swap1\n      pop\n        /* \"#utility.yul\":17702:17774   */\n      tag_286\n        /* \"#utility.yul\":17770:17772   */\n      0x20\n        /* \"#utility.yul\":17759:17768   */\n      dup4\n        /* \"#utility.yul\":17755:17773   */\n      add\n        /* \"#utility.yul\":17746:17752   */\n      dup7\n        /* \"#utility.yul\":17702:17774   */\n      tag_77\n      jump\t// in\n    tag_286:\n        /* \"#utility.yul\":17821:17830   */\n      dup2\n        /* \"#utility.yul\":17815:17819   */\n      dup2\n        /* \"#utility.yul\":17811:17831   */\n      sub\n        /* \"#utility.yul\":17806:17808   */\n      0x40\n        /* \"#utility.yul\":17795:17804   */\n      dup4\n        /* \"#utility.yul\":17791:17809   */\n      add\n        /* \"#utility.yul\":17784:17832   */\n      mstore\n        /* \"#utility.yul\":17849:17927   */\n      tag_287\n        /* \"#utility.yul\":17922:17926   */\n      dup2\n        /* \"#utility.yul\":17913:17919   */\n      dup6\n        /* \"#utility.yul\":17849:17927   */\n      tag_113\n      jump\t// in\n    tag_287:\n        /* \"#utility.yul\":17841:17927   */\n      swap1\n      pop\n        /* \"#utility.yul\":17937:18009   */\n      tag_288\n        /* \"#utility.yul\":18005:18007   */\n      0x60\n        /* \"#utility.yul\":17994:18003   */\n      dup4\n        /* \"#utility.yul\":17990:18008   */\n      add\n        /* \"#utility.yul\":17981:17987   */\n      dup5\n        /* \"#utility.yul\":17937:18009   */\n      tag_77\n      jump\t// in\n    tag_288:\n        /* \"#utility.yul\":17281:18016   */\n      swap6\n      swap5\n      pop\n      pop\n      pop\n      pop\n      pop\n      jump\t// out\n\n    auxdata: 0xa264697066735822122045bce43fe0ed6d64fb6a6357fbb4bdff06c1b8ae6396383fc01c7fab452fc7e864736f6c63430008100033\n}\n",
				"bytecode": {
					"linkReferences": {},
					"object": "608060405234801561001057600080fd5b50610d95806100206000396000f3fe608060405234801561001057600080fd5b506004361061004c5760003560e01c80630786c9a8146100515780632ef8750f146100815780639cd9be93146100b15780639f041311146100e1575b600080fd5b61006b600480360381019061006691906105d2565b6100fd565b6040516100789190610634565b60405180910390f35b61009b600480360381019061009691906105d2565b6101ac565b6040516100a89190610809565b60405180910390f35b6100cb60048036038101906100c691906105d2565b610361565b6040516100d89190610634565b60405180910390f35b6100fb60048036038101906100f69190610857565b61038b565b005b6000806000836040516101109190610932565b90815260200160405180910390208054905011610162576040517f08c379a0000000000000000000000000000000000000000000000000000000008152600401610159906109a6565b60405180910390fd5b6000826040516101729190610932565b9081526020016040518091039020600081548110610193576101926109c6565b5b9060005260206000209060040201600101549050919050565b60606000826040516101be9190610932565b9081526020016040518091039020805480602002602001604051908101604052809291908181526020016000905b82821015610356578382906000526020600020906004020160405180608001604052908160008201805461021f90610a24565b80601f016020809104026020016040519081016040528092919081815260200182805461024b90610a24565b80156102985780601f1061026d57610100808354040283529160200191610298565b820191906000526020600020905b81548152906001019060200180831161027b57829003601f168201915b50505050508152602001600182015481526020016002820180546102bb90610a24565b80601f01602080910402602001604051908101604052809291908181526020018280546102e790610a24565b80156103345780601f1061030957610100808354040283529160200191610334565b820191906000526020600020905b81548152906001019060200180831161031757829003601f168201915b50505050508152602001600382015481525050815260200190600101906101ec565b505050509050919050565b600080826040516103729190610932565b9081526020016040518091039020805490509050919050565b60008460405161039b9190610932565b9081526020016040518091039020604051806080016040528086815260200185815260200184815260200183815250908060018154018082558091505060019003906000526020600020906004020160009091909190915060008201518160000190816104089190610c01565b506020820151816001015560408201518160020190816104289190610c01565b506060820151816003015550507fc5398f105799e97af1605dbaeed442f0e9b239fc622c4307746a08d7bf7db6778484848460405161046a9493929190610d0c565b60405180910390a150505050565b6000604051905090565b600080fd5b600080fd5b600080fd5b600080fd5b6000601f19601f8301169050919050565b7f4e487b7100000000000000000000000000000000000000000000000000000000600052604160045260246000fd5b6104df82610496565b810181811067ffffffffffffffff821117156104fe576104fd6104a7565b5b80604052505050565b6000610511610478565b905061051d82826104d6565b919050565b600067ffffffffffffffff82111561053d5761053c6104a7565b5b61054682610496565b9050602081019050919050565b82818337600083830152505050565b600061057561057084610522565b610507565b90508281526020810184848401111561059157610590610491565b5b61059c848285610553565b509392505050565b600082601f8301126105b9576105b861048c565b5b81356105c9848260208601610562565b91505092915050565b6000602082840312156105e8576105e7610482565b5b600082013567ffffffffffffffff81111561060657610605610487565b5b610612848285016105a4565b91505092915050565b6000819050919050565b61062e8161061b565b82525050565b60006020820190506106496000830184610625565b92915050565b600081519050919050565b600082825260208201905092915050565b6000819050602082019050919050565b600081519050919050565b600082825260208201905092915050565b60005b838110156106b557808201518184015260208101905061069a565b60008484015250505050565b60006106cc8261067b565b6106d68185610686565b93506106e6818560208601610697565b6106ef81610496565b840191505092915050565b6107038161061b565b82525050565b6000608083016000830151848203600086015261072682826106c1565b915050602083015161073b60208601826106fa565b506040830151848203604086015261075382826106c1565b915050606083015161076860608601826106fa565b508091505092915050565b600061077f8383610709565b905092915050565b6000602082019050919050565b600061079f8261064f565b6107a9818561065a565b9350836020820285016107bb8561066b565b8060005b858110156107f757848403895281516107d88582610773565b94506107e383610787565b925060208a019950506001810190506107bf565b50829750879550505050505092915050565b600060208201905081810360008301526108238184610794565b905092915050565b6108348161061b565b811461083f57600080fd5b50565b6000813590506108518161082b565b92915050565b6000806000806080858703121561087157610870610482565b5b600085013567ffffffffffffffff81111561088f5761088e610487565b5b61089b878288016105a4565b94505060206108ac87828801610842565b935050604085013567ffffffffffffffff8111156108cd576108cc610487565b5b6108d9878288016105a4565b92505060606108ea87828801610842565b91505092959194509250565b600081905092915050565b600061090c8261067b565b61091681856108f6565b9350610926818560208601610697565b80840191505092915050565b600061093e8284610901565b915081905092915050565b600082825260208201905092915050565b7f5472616e73616374696f6e20636f6465206e6f7420666f756e64000000000000600082015250565b6000610990601a83610949565b915061099b8261095a565b602082019050919050565b600060208201905081810360008301526109bf81610983565b9050919050565b7f4e487b7100000000000000000000000000000000000000000000000000000000600052603260045260246000fd5b7f4e487b7100000000000000000000000000000000000000000000000000000000600052602260045260246000fd5b60006002820490506001821680610a3c57607f821691505b602082108103610a4f57610a4e6109f5565b5b50919050565b60008190508160005260206000209050919050565b60006020601f8301049050919050565b600082821b905092915050565b600060088302610ab77fffffffffffffffffffffffffffffffffffffffffffffffffffffffffffffffff82610a7a565b610ac18683610a7a565b95508019841693508086168417925050509392505050565b6000819050919050565b6000610afe610af9610af48461061b565b610ad9565b61061b565b9050919050565b6000819050919050565b610b1883610ae3565b610b2c610b2482610b05565b848454610a87565b825550505050565b600090565b610b41610b34565b610b4c818484610b0f565b505050565b5b81811015610b7057610b65600082610b39565b600181019050610b52565b5050565b601f821115610bb557610b8681610a55565b610b8f84610a6a565b81016020851015610b9e578190505b610bb2610baa85610a6a565b830182610b51565b50505b505050565b600082821c905092915050565b6000610bd860001984600802610bba565b1980831691505092915050565b6000610bf18383610bc7565b9150826002028217905092915050565b610c0a8261067b565b67ffffffffffffffff811115610c2357610c226104a7565b5b610c2d8254610a24565b610c38828285610b74565b600060209050601f831160018114610c6b5760008415610c59578287015190505b610c638582610be5565b865550610ccb565b601f198416610c7986610a55565b60005b82811015610ca157848901518255600182019150602085019450602081019050610c7c565b86831015610cbe5784890151610cba601f891682610bc7565b8355505b6001600288020188555050505b505050505050565b6000610cde8261067b565b610ce88185610949565b9350610cf8818560208601610697565b610d0181610496565b840191505092915050565b60006080820190508181036000830152610d268187610cd3565b9050610d356020830186610625565b8181036040830152610d478185610cd3565b9050610d566060830184610625565b9594505050505056fea264697066735822122045bce43fe0ed6d64fb6a6357fbb4bdff06c1b8ae6396383fc01c7fab452fc7e864736f6c63430008100033",
					"opcodes": "PUSH1 0x80 PUSH1 0x40 MSTORE CALLVALUE DUP1 ISZERO PUSH2 0x10 JUMPI PUSH1 0x0 DUP1 REVERT JUMPDEST POP PUSH2 0xD95 DUP1 PUSH2 0x20 PUSH1 0x0 CODECOPY PUSH1 0x0 RETURN INVALID PUSH1 0x80 PUSH1 0x40 MSTORE CALLVALUE DUP1 ISZERO PUSH2 0x10 JUMPI PUSH1 0x0 DUP1 REVERT JUMPDEST POP PUSH1 0x4 CALLDATASIZE LT PUSH2 0x4C JUMPI PUSH1 0x0 CALLDATALOAD PUSH1 0xE0 SHR DUP1 PUSH4 0x786C9A8 EQ PUSH2 0x51 JUMPI DUP1 PUSH4 0x2EF8750F EQ PUSH2 0x81 JUMPI DUP1 PUSH4 0x9CD9BE93 EQ PUSH2 0xB1 JUMPI DUP1 PUSH4 0x9F041311 EQ PUSH2 0xE1 JUMPI JUMPDEST PUSH1 0x0 DUP1 REVERT JUMPDEST PUSH2 0x6B PUSH1 0x4 DUP1 CALLDATASIZE SUB DUP2 ADD SWAP1 PUSH2 0x66 SWAP2 SWAP1 PUSH2 0x5D2 JUMP JUMPDEST PUSH2 0xFD JUMP JUMPDEST PUSH1 0x40 MLOAD PUSH2 0x78 SWAP2 SWAP1 PUSH2 0x634 JUMP JUMPDEST PUSH1 0x40 MLOAD DUP1 SWAP2 SUB SWAP1 RETURN JUMPDEST PUSH2 0x9B PUSH1 0x4 DUP1 CALLDATASIZE SUB DUP2 ADD SWAP1 PUSH2 0x96 SWAP2 SWAP1 PUSH2 0x5D2 JUMP JUMPDEST PUSH2 0x1AC JUMP JUMPDEST PUSH1 0x40 MLOAD PUSH2 0xA8 SWAP2 SWAP1 PUSH2 0x809 JUMP JUMPDEST PUSH1 0x40 MLOAD DUP1 SWAP2 SUB SWAP1 RETURN JUMPDEST PUSH2 0xCB PUSH1 0x4 DUP1 CALLDATASIZE SUB DUP2 ADD SWAP1 PUSH2 0xC6 SWAP2 SWAP1 PUSH2 0x5D2 JUMP JUMPDEST PUSH2 0x361 JUMP JUMPDEST PUSH1 0x40 MLOAD PUSH2 0xD8 SWAP2 SWAP1 PUSH2 0x634 JUMP JUMPDEST PUSH1 0x40 MLOAD DUP1 SWAP2 SUB SWAP1 RETURN JUMPDEST PUSH2 0xFB PUSH1 0x4 DUP1 CALLDATASIZE SUB DUP2 ADD SWAP1 PUSH2 0xF6 SWAP2 SWAP1 PUSH2 0x857 JUMP JUMPDEST PUSH2 0x38B JUMP JUMPDEST STOP JUMPDEST PUSH1 0x0 DUP1 PUSH1 0x0 DUP4 PUSH1 0x40 MLOAD PUSH2 0x110 SWAP2 SWAP1 PUSH2 0x932 JUMP JUMPDEST SWAP1 DUP2 MSTORE PUSH1 0x20 ADD PUSH1 0x40 MLOAD DUP1 SWAP2 SUB SWAP1 KECCAK256 DUP1 SLOAD SWAP1 POP GT PUSH2 0x162 JUMPI PUSH1 0x40 MLOAD PUSH32 0x8C379A000000000000000000000000000000000000000000000000000000000 DUP2 MSTORE PUSH1 0x4 ADD PUSH2 0x159 SWAP1 PUSH2 0x9A6 JUMP JUMPDEST PUSH1 0x40 MLOAD DUP1 SWAP2 SUB SWAP1 REVERT JUMPDEST PUSH1 0x0 DUP3 PUSH1 0x40 MLOAD PUSH2 0x172 SWAP2 SWAP1 PUSH2 0x932 JUMP JUMPDEST SWAP1 DUP2 MSTORE PUSH1 0x20 ADD PUSH1 0x40 MLOAD DUP1 SWAP2 SUB SWAP1 KECCAK256 PUSH1 0x0 DUP2 SLOAD DUP2 LT PUSH2 0x193 JUMPI PUSH2 0x192 PUSH2 0x9C6 JUMP JUMPDEST JUMPDEST SWAP1 PUSH1 0x0 MSTORE PUSH1 0x20 PUSH1 0x0 KECCAK256 SWAP1 PUSH1 0x4 MUL ADD PUSH1 0x1 ADD SLOAD SWAP1 POP SWAP2 SWAP1 POP JUMP JUMPDEST PUSH1 0x60 PUSH1 0x0 DUP3 PUSH1 0x40 MLOAD PUSH2 0x1BE SWAP2 SWAP1 PUSH2 0x932 JUMP JUMPDEST SWAP1 DUP2 MSTORE PUSH1 0x20 ADD PUSH1 0x40 MLOAD DUP1 SWAP2 SUB SWAP1 KECCAK256 DUP1 SLOAD DUP1 PUSH1 0x20 MUL PUSH1 0x20 ADD PUSH1 0x40 MLOAD SWAP1 DUP2 ADD PUSH1 0x40 MSTORE DUP1 SWAP3 SWAP2 SWAP1 DUP2 DUP2 MSTORE PUSH1 0x20 ADD PUSH1 0x0 SWAP1 JUMPDEST DUP3 DUP3 LT ISZERO PUSH2 0x356 JUMPI DUP4 DUP3 SWAP1 PUSH1 0x0 MSTORE PUSH1 0x20 PUSH1 0x0 KECCAK256 SWAP1 PUSH1 0x4 MUL ADD PUSH1 0x40 MLOAD DUP1 PUSH1 0x80 ADD PUSH1 0x40 MSTORE SWAP1 DUP2 PUSH1 0x0 DUP3 ADD DUP1 SLOAD PUSH2 0x21F SWAP1 PUSH2 0xA24 JUMP JUMPDEST DUP1 PUSH1 0x1F ADD PUSH1 0x20 DUP1 SWAP2 DIV MUL PUSH1 0x20 ADD PUSH1 0x40 MLOAD SWAP1 DUP2 ADD PUSH1 0x40 MSTORE DUP1 SWAP3 SWAP2 SWAP1 DUP2 DUP2 MSTORE PUSH1 0x20 ADD DUP3 DUP1 SLOAD PUSH2 0x24B SWAP1 PUSH2 0xA24 JUMP JUMPDEST DUP1 ISZERO PUSH2 0x298 JUMPI DUP1 PUSH1 0x1F LT PUSH2 0x26D JUMPI PUSH2 0x100 DUP1 DUP4 SLOAD DIV MUL DUP4 MSTORE SWAP2 PUSH1 0x20 ADD SWAP2 PUSH2 0x298 JUMP JUMPDEST DUP3 ADD SWAP2 SWAP1 PUSH1 0x0 MSTORE PUSH1 0x20 PUSH1 0x0 KECCAK256 SWAP1 JUMPDEST DUP2 SLOAD DUP2 MSTORE SWAP1 PUSH1 0x1 ADD SWAP1 PUSH1 0x20 ADD DUP1 DUP4 GT PUSH2 0x27B JUMPI DUP3 SWAP1 SUB PUSH1 0x1F AND DUP3 ADD SWAP2 JUMPDEST POP POP POP POP POP DUP2 MSTORE PUSH1 0x20 ADD PUSH1 0x1 DUP3 ADD SLOAD DUP2 MSTORE PUSH1 0x20 ADD PUSH1 0x2 DUP3 ADD DUP1 SLOAD PUSH2 0x2BB SWAP1 PUSH2 0xA24 JUMP JUMPDEST DUP1 PUSH1 0x1F ADD PUSH1 0x20 DUP1 SWAP2 DIV MUL PUSH1 0x20 ADD PUSH1 0x40 MLOAD SWAP1 DUP2 ADD PUSH1 0x40 MSTORE DUP1 SWAP3 SWAP2 SWAP1 DUP2 DUP2 MSTORE PUSH1 0x20 ADD DUP3 DUP1 SLOAD PUSH2 0x2E7 SWAP1 PUSH2 0xA24 JUMP JUMPDEST DUP1 ISZERO PUSH2 0x334 JUMPI DUP1 PUSH1 0x1F LT PUSH2 0x309 JUMPI PUSH2 0x100 DUP1 DUP4 SLOAD DIV MUL DUP4 MSTORE SWAP2 PUSH1 0x20 ADD SWAP2 PUSH2 0x334 JUMP JUMPDEST DUP3 ADD SWAP2 SWAP1 PUSH1 0x0 MSTORE PUSH1 0x20 PUSH1 0x0 KECCAK256 SWAP1 JUMPDEST DUP2 SLOAD DUP2 MSTORE SWAP1 PUSH1 0x1 ADD SWAP1 PUSH1 0x20 ADD DUP1 DUP4 GT PUSH2 0x317 JUMPI DUP3 SWAP1 SUB PUSH1 0x1F AND DUP3 ADD SWAP2 JUMPDEST POP POP POP POP POP DUP2 MSTORE PUSH1 0x20 ADD PUSH1 0x3 DUP3 ADD SLOAD DUP2 MSTORE POP POP DUP2 MSTORE PUSH1 0x20 ADD SWAP1 PUSH1 0x1 ADD SWAP1 PUSH2 0x1EC JUMP JUMPDEST POP POP POP POP SWAP1 POP SWAP2 SWAP1 POP JUMP JUMPDEST PUSH1 0x0 DUP1 DUP3 PUSH1 0x40 MLOAD PUSH2 0x372 SWAP2 SWAP1 PUSH2 0x932 JUMP JUMPDEST SWAP1 DUP2 MSTORE PUSH1 0x20 ADD PUSH1 0x40 MLOAD DUP1 SWAP2 SUB SWAP1 KECCAK256 DUP1 SLOAD SWAP1 POP SWAP1 POP SWAP2 SWAP1 POP JUMP JUMPDEST PUSH1 0x0 DUP5 PUSH1 0x40 MLOAD PUSH2 0x39B SWAP2 SWAP1 PUSH2 0x932 JUMP JUMPDEST SWAP1 DUP2 MSTORE PUSH1 0x20 ADD PUSH1 0x40 MLOAD DUP1 SWAP2 SUB SWAP1 KECCAK256 PUSH1 0x40 MLOAD DUP1 PUSH1 0x80 ADD PUSH1 0x40 MSTORE DUP1 DUP7 DUP2 MSTORE PUSH1 0x20 ADD DUP6 DUP2 MSTORE PUSH1 0x20 ADD DUP5 DUP2 MSTORE PUSH1 0x20 ADD DUP4 DUP2 MSTORE POP SWAP1 DUP1 PUSH1 0x1 DUP2 SLOAD ADD DUP1 DUP3 SSTORE DUP1 SWAP2 POP POP PUSH1 0x1 SWAP1 SUB SWAP1 PUSH1 0x0 MSTORE PUSH1 0x20 PUSH1 0x0 KECCAK256 SWAP1 PUSH1 0x4 MUL ADD PUSH1 0x0 SWAP1 SWAP2 SWAP1 SWAP2 SWAP1 SWAP2 POP PUSH1 0x0 DUP3 ADD MLOAD DUP2 PUSH1 0x0 ADD SWAP1 DUP2 PUSH2 0x408 SWAP2 SWAP1 PUSH2 0xC01 JUMP JUMPDEST POP PUSH1 0x20 DUP3 ADD MLOAD DUP2 PUSH1 0x1 ADD SSTORE PUSH1 0x40 DUP3 ADD MLOAD DUP2 PUSH1 0x2 ADD SWAP1 DUP2 PUSH2 0x428 SWAP2 SWAP1 PUSH2 0xC01 JUMP JUMPDEST POP PUSH1 0x60 DUP3 ADD MLOAD DUP2 PUSH1 0x3 ADD SSTORE POP POP PUSH32 0xC5398F105799E97AF1605DBAEED442F0E9B239FC622C4307746A08D7BF7DB677 DUP5 DUP5 DUP5 DUP5 PUSH1 0x40 MLOAD PUSH2 0x46A SWAP5 SWAP4 SWAP3 SWAP2 SWAP1 PUSH2 0xD0C JUMP JUMPDEST PUSH1 0x40 MLOAD DUP1 SWAP2 SUB SWAP1 LOG1 POP POP POP POP JUMP JUMPDEST PUSH1 0x0 PUSH1 0x40 MLOAD SWAP1 POP SWAP1 JUMP JUMPDEST PUSH1 0x0 DUP1 REVERT JUMPDEST PUSH1 0x0 DUP1 REVERT JUMPDEST PUSH1 0x0 DUP1 REVERT JUMPDEST PUSH1 0x0 DUP1 REVERT JUMPDEST PUSH1 0x0 PUSH1 0x1F NOT PUSH1 0x1F DUP4 ADD AND SWAP1 POP SWAP2 SWAP1 POP JUMP JUMPDEST PUSH32 0x4E487B7100000000000000000000000000000000000000000000000000000000 PUSH1 0x0 MSTORE PUSH1 0x41 PUSH1 0x4 MSTORE PUSH1 0x24 PUSH1 0x0 REVERT JUMPDEST PUSH2 0x4DF DUP3 PUSH2 0x496 JUMP JUMPDEST DUP2 ADD DUP2 DUP2 LT PUSH8 0xFFFFFFFFFFFFFFFF DUP3 GT OR ISZERO PUSH2 0x4FE JUMPI PUSH2 0x4FD PUSH2 0x4A7 JUMP JUMPDEST JUMPDEST DUP1 PUSH1 0x40 MSTORE POP POP POP JUMP JUMPDEST PUSH1 0x0 PUSH2 0x511 PUSH2 0x478 JUMP JUMPDEST SWAP1 POP PUSH2 0x51D DUP3 DUP3 PUSH2 0x4D6 JUMP JUMPDEST SWAP2 SWAP1 POP JUMP JUMPDEST PUSH1 0x0 PUSH8 0xFFFFFFFFFFFFFFFF DUP3 GT ISZERO PUSH2 0x53D JUMPI PUSH2 0x53C PUSH2 0x4A7 JUMP JUMPDEST JUMPDEST PUSH2 0x546 DUP3 PUSH2 0x496 JUMP JUMPDEST SWAP1 POP PUSH1 0x20 DUP2 ADD SWAP1 POP SWAP2 SWAP1 POP JUMP JUMPDEST DUP3 DUP2 DUP4 CALLDATACOPY PUSH1 0x0 DUP4 DUP4 ADD MSTORE POP POP POP JUMP JUMPDEST PUSH1 0x0 PUSH2 0x575 PUSH2 0x570 DUP5 PUSH2 0x522 JUMP JUMPDEST PUSH2 0x507 JUMP JUMPDEST SWAP1 POP DUP3 DUP2 MSTORE PUSH1 0x20 DUP2 ADD DUP5 DUP5 DUP5 ADD GT ISZERO PUSH2 0x591 JUMPI PUSH2 0x590 PUSH2 0x491 JUMP JUMPDEST JUMPDEST PUSH2 0x59C DUP5 DUP3 DUP6 PUSH2 0x553 JUMP JUMPDEST POP SWAP4 SWAP3 POP POP POP JUMP JUMPDEST PUSH1 0x0 DUP3 PUSH1 0x1F DUP4 ADD SLT PUSH2 0x5B9 JUMPI PUSH2 0x5B8 PUSH2 0x48C JUMP JUMPDEST JUMPDEST DUP2 CALLDATALOAD PUSH2 0x5C9 DUP5 DUP3 PUSH1 0x20 DUP7 ADD PUSH2 0x562 JUMP JUMPDEST SWAP2 POP POP SWAP3 SWAP2 POP POP JUMP JUMPDEST PUSH1 0x0 PUSH1 0x20 DUP3 DUP5 SUB SLT ISZERO PUSH2 0x5E8 JUMPI PUSH2 0x5E7 PUSH2 0x482 JUMP JUMPDEST JUMPDEST PUSH1 0x0 DUP3 ADD CALLDATALOAD PUSH8 0xFFFFFFFFFFFFFFFF DUP2 GT ISZERO PUSH2 0x606 JUMPI PUSH2 0x605 PUSH2 0x487 JUMP JUMPDEST JUMPDEST PUSH2 0x612 DUP5 DUP3 DUP6 ADD PUSH2 0x5A4 JUMP JUMPDEST SWAP2 POP POP SWAP3 SWAP2 POP POP JUMP JUMPDEST PUSH1 0x0 DUP2 SWAP1 POP SWAP2 SWAP1 POP JUMP JUMPDEST PUSH2 0x62E DUP2 PUSH2 0x61B JUMP JUMPDEST DUP3 MSTORE POP POP JUMP JUMPDEST PUSH1 0x0 PUSH1 0x20 DUP3 ADD SWAP1 POP PUSH2 0x649 PUSH1 0x0 DUP4 ADD DUP5 PUSH2 0x625 JUMP JUMPDEST SWAP3 SWAP2 POP POP JUMP JUMPDEST PUSH1 0x0 DUP2 MLOAD SWAP1 POP SWAP2 SWAP1 POP JUMP JUMPDEST PUSH1 0x0 DUP3 DUP3 MSTORE PUSH1 0x20 DUP3 ADD SWAP1 POP SWAP3 SWAP2 POP POP JUMP JUMPDEST PUSH1 0x0 DUP2 SWAP1 POP PUSH1 0x20 DUP3 ADD SWAP1 POP SWAP2 SWAP1 POP JUMP JUMPDEST PUSH1 0x0 DUP2 MLOAD SWAP1 POP SWAP2 SWAP1 POP JUMP JUMPDEST PUSH1 0x0 DUP3 DUP3 MSTORE PUSH1 0x20 DUP3 ADD SWAP1 POP SWAP3 SWAP2 POP POP JUMP JUMPDEST PUSH1 0x0 JUMPDEST DUP4 DUP2 LT ISZERO PUSH2 0x6B5 JUMPI DUP1 DUP3 ADD MLOAD DUP2 DUP5 ADD MSTORE PUSH1 0x20 DUP2 ADD SWAP1 POP PUSH2 0x69A JUMP JUMPDEST PUSH1 0x0 DUP5 DUP5 ADD MSTORE POP POP POP POP JUMP JUMPDEST PUSH1 0x0 PUSH2 0x6CC DUP3 PUSH2 0x67B JUMP JUMPDEST PUSH2 0x6D6 DUP2 DUP6 PUSH2 0x686 JUMP JUMPDEST SWAP4 POP PUSH2 0x6E6 DUP2 DUP6 PUSH1 0x20 DUP7 ADD PUSH2 0x697 JUMP JUMPDEST PUSH2 0x6EF DUP2 PUSH2 0x496 JUMP JUMPDEST DUP5 ADD SWAP2 POP POP SWAP3 SWAP2 POP POP JUMP JUMPDEST PUSH2 0x703 DUP2 PUSH2 0x61B JUMP JUMPDEST DUP3 MSTORE POP POP JUMP JUMPDEST PUSH1 0x0 PUSH1 0x80 DUP4 ADD PUSH1 0x0 DUP4 ADD MLOAD DUP5 DUP3 SUB PUSH1 0x0 DUP7 ADD MSTORE PUSH2 0x726 DUP3 DUP3 PUSH2 0x6C1 JUMP JUMPDEST SWAP2 POP POP PUSH1 0x20 DUP4 ADD MLOAD PUSH2 0x73B PUSH1 0x20 DUP7 ADD DUP3 PUSH2 0x6FA JUMP JUMPDEST POP PUSH1 0x40 DUP4 ADD MLOAD DUP5 DUP3 SUB PUSH1 0x40 DUP7 ADD MSTORE PUSH2 0x753 DUP3 DUP3 PUSH2 0x6C1 JUMP JUMPDEST SWAP2 POP POP PUSH1 0x60 DUP4 ADD MLOAD PUSH2 0x768 PUSH1 0x60 DUP7 ADD DUP3 PUSH2 0x6FA JUMP JUMPDEST POP DUP1 SWAP2 POP POP SWAP3 SWAP2 POP POP JUMP JUMPDEST PUSH1 0x0 PUSH2 0x77F DUP4 DUP4 PUSH2 0x709 JUMP JUMPDEST SWAP1 POP SWAP3 SWAP2 POP POP JUMP JUMPDEST PUSH1 0x0 PUSH1 0x20 DUP3 ADD SWAP1 POP SWAP2 SWAP1 POP JUMP JUMPDEST PUSH1 0x0 PUSH2 0x79F DUP3 PUSH2 0x64F JUMP JUMPDEST PUSH2 0x7A9 DUP2 DUP6 PUSH2 0x65A JUMP JUMPDEST SWAP4 POP DUP4 PUSH1 0x20 DUP3 MUL DUP6 ADD PUSH2 0x7BB DUP6 PUSH2 0x66B JUMP JUMPDEST DUP1 PUSH1 0x0 JUMPDEST DUP6 DUP2 LT ISZERO PUSH2 0x7F7 JUMPI DUP5 DUP5 SUB DUP10 MSTORE DUP2 MLOAD PUSH2 0x7D8 DUP6 DUP3 PUSH2 0x773 JUMP JUMPDEST SWAP5 POP PUSH2 0x7E3 DUP4 PUSH2 0x787 JUMP JUMPDEST SWAP3 POP PUSH1 0x20 DUP11 ADD SWAP10 POP POP PUSH1 0x1 DUP2 ADD SWAP1 POP PUSH2 0x7BF JUMP JUMPDEST POP DUP3 SWAP8 POP DUP8 SWAP6 POP POP POP POP POP POP SWAP3 SWAP2 POP POP JUMP JUMPDEST PUSH1 0x0 PUSH1 0x20 DUP3 ADD SWAP1 POP DUP2 DUP2 SUB PUSH1 0x0 DUP4 ADD MSTORE PUSH2 0x823 DUP2 DUP5 PUSH2 0x794 JUMP JUMPDEST SWAP1 POP SWAP3 SWAP2 POP POP JUMP JUMPDEST PUSH2 0x834 DUP2 PUSH2 0x61B JUMP JUMPDEST DUP2 EQ PUSH2 0x83F JUMPI PUSH1 0x0 DUP1 REVERT JUMPDEST POP JUMP JUMPDEST PUSH1 0x0 DUP2 CALLDATALOAD SWAP1 POP PUSH2 0x851 DUP2 PUSH2 0x82B JUMP JUMPDEST SWAP3 SWAP2 POP POP JUMP JUMPDEST PUSH1 0x0 DUP1 PUSH1 0x0 DUP1 PUSH1 0x80 DUP6 DUP8 SUB SLT ISZERO PUSH2 0x871 JUMPI PUSH2 0x870 PUSH2 0x482 JUMP JUMPDEST JUMPDEST PUSH1 0x0 DUP6 ADD CALLDATALOAD PUSH8 0xFFFFFFFFFFFFFFFF DUP2 GT ISZERO PUSH2 0x88F JUMPI PUSH2 0x88E PUSH2 0x487 JUMP JUMPDEST JUMPDEST PUSH2 0x89B DUP8 DUP3 DUP9 ADD PUSH2 0x5A4 JUMP JUMPDEST SWAP5 POP POP PUSH1 0x20 PUSH2 0x8AC DUP8 DUP3 DUP9 ADD PUSH2 0x842 JUMP JUMPDEST SWAP4 POP POP PUSH1 0x40 DUP6 ADD CALLDATALOAD PUSH8 0xFFFFFFFFFFFFFFFF DUP2 GT ISZERO PUSH2 0x8CD JUMPI PUSH2 0x8CC PUSH2 0x487 JUMP JUMPDEST JUMPDEST PUSH2 0x8D9 DUP8 DUP3 DUP9 ADD PUSH2 0x5A4 JUMP JUMPDEST SWAP3 POP POP PUSH1 0x60 PUSH2 0x8EA DUP8 DUP3 DUP9 ADD PUSH2 0x842 JUMP JUMPDEST SWAP2 POP POP SWAP3 SWAP6 SWAP2 SWAP5 POP SWAP3 POP JUMP JUMPDEST PUSH1 0x0 DUP2 SWAP1 POP SWAP3 SWAP2 POP POP JUMP JUMPDEST PUSH1 0x0 PUSH2 0x90C DUP3 PUSH2 0x67B JUMP JUMPDEST PUSH2 0x916 DUP2 DUP6 PUSH2 0x8F6 JUMP JUMPDEST SWAP4 POP PUSH2 0x926 DUP2 DUP6 PUSH1 0x20 DUP7 ADD PUSH2 0x697 JUMP JUMPDEST DUP1 DUP5 ADD SWAP2 POP POP SWAP3 SWAP2 POP POP JUMP JUMPDEST PUSH1 0x0 PUSH2 0x93E DUP3 DUP5 PUSH2 0x901 JUMP JUMPDEST SWAP2 POP DUP2 SWAP1 POP SWAP3 SWAP2 POP POP JUMP JUMPDEST PUSH1 0x0 DUP3 DUP3 MSTORE PUSH1 0x20 DUP3 ADD SWAP1 POP SWAP3 SWAP2 POP POP JUMP JUMPDEST PUSH32 0x5472616E73616374696F6E20636F6465206E6F7420666F756E64000000000000 PUSH1 0x0 DUP3 ADD MSTORE POP JUMP JUMPDEST PUSH1 0x0 PUSH2 0x990 PUSH1 0x1A DUP4 PUSH2 0x949 JUMP JUMPDEST SWAP2 POP PUSH2 0x99B DUP3 PUSH2 0x95A JUMP JUMPDEST PUSH1 0x20 DUP3 ADD SWAP1 POP SWAP2 SWAP1 POP JUMP JUMPDEST PUSH1 0x0 PUSH1 0x20 DUP3 ADD SWAP1 POP DUP2 DUP2 SUB PUSH1 0x0 DUP4 ADD MSTORE PUSH2 0x9BF DUP2 PUSH2 0x983 JUMP JUMPDEST SWAP1 POP SWAP2 SWAP1 POP JUMP JUMPDEST PUSH32 0x4E487B7100000000000000000000000000000000000000000000000000000000 PUSH1 0x0 MSTORE PUSH1 0x32 PUSH1 0x4 MSTORE PUSH1 0x24 PUSH1 0x0 REVERT JUMPDEST PUSH32 0x4E487B7100000000000000000000000000000000000000000000000000000000 PUSH1 0x0 MSTORE PUSH1 0x22 PUSH1 0x4 MSTORE PUSH1 0x24 PUSH1 0x0 REVERT JUMPDEST PUSH1 0x0 PUSH1 0x2 DUP3 DIV SWAP1 POP PUSH1 0x1 DUP3 AND DUP1 PUSH2 0xA3C JUMPI PUSH1 0x7F DUP3 AND SWAP2 POP JUMPDEST PUSH1 0x20 DUP3 LT DUP2 SUB PUSH2 0xA4F JUMPI PUSH2 0xA4E PUSH2 0x9F5 JUMP JUMPDEST JUMPDEST POP SWAP2 SWAP1 POP JUMP JUMPDEST PUSH1 0x0 DUP2 SWAP1 POP DUP2 PUSH1 0x0 MSTORE PUSH1 0x20 PUSH1 0x0 KECCAK256 SWAP1 POP SWAP2 SWAP1 POP JUMP JUMPDEST PUSH1 0x0 PUSH1 0x20 PUSH1 0x1F DUP4 ADD DIV SWAP1 POP SWAP2 SWAP1 POP JUMP JUMPDEST PUSH1 0x0 DUP3 DUP3 SHL SWAP1 POP SWAP3 SWAP2 POP POP JUMP JUMPDEST PUSH1 0x0 PUSH1 0x8 DUP4 MUL PUSH2 0xAB7 PUSH32 0xFFFFFFFFFFFFFFFFFFFFFFFFFFFFFFFFFFFFFFFFFFFFFFFFFFFFFFFFFFFFFFFF DUP3 PUSH2 0xA7A JUMP JUMPDEST PUSH2 0xAC1 DUP7 DUP4 PUSH2 0xA7A JUMP JUMPDEST SWAP6 POP DUP1 NOT DUP5 AND SWAP4 POP DUP1 DUP7 AND DUP5 OR SWAP3 POP POP POP SWAP4 SWAP3 POP POP POP JUMP JUMPDEST PUSH1 0x0 DUP2 SWAP1 POP SWAP2 SWAP1 POP JUMP JUMPDEST PUSH1 0x0 PUSH2 0xAFE PUSH2 0xAF9 PUSH2 0xAF4 DUP5 PUSH2 0x61B JUMP JUMPDEST PUSH2 0xAD9 JUMP JUMPDEST PUSH2 0x61B JUMP JUMPDEST SWAP1 POP SWAP2 SWAP1 POP JUMP JUMPDEST PUSH1 0x0 DUP2 SWAP1 POP SWAP2 SWAP1 POP JUMP JUMPDEST PUSH2 0xB18 DUP4 PUSH2 0xAE3 JUMP JUMPDEST PUSH2 0xB2C PUSH2 0xB24 DUP3 PUSH2 0xB05 JUMP JUMPDEST DUP5 DUP5 SLOAD PUSH2 0xA87 JUMP JUMPDEST DUP3 SSTORE POP POP POP POP JUMP JUMPDEST PUSH1 0x0 SWAP1 JUMP JUMPDEST PUSH2 0xB41 PUSH2 0xB34 JUMP JUMPDEST PUSH2 0xB4C DUP2 DUP5 DUP5 PUSH2 0xB0F JUMP JUMPDEST POP POP POP JUMP JUMPDEST JUMPDEST DUP2 DUP2 LT ISZERO PUSH2 0xB70 JUMPI PUSH2 0xB65 PUSH1 0x0 DUP3 PUSH2 0xB39 JUMP JUMPDEST PUSH1 0x1 DUP2 ADD SWAP1 POP PUSH2 0xB52 JUMP JUMPDEST POP POP JUMP JUMPDEST PUSH1 0x1F DUP3 GT ISZERO PUSH2 0xBB5 JUMPI PUSH2 0xB86 DUP2 PUSH2 0xA55 JUMP JUMPDEST PUSH2 0xB8F DUP5 PUSH2 0xA6A JUMP JUMPDEST DUP2 ADD PUSH1 0x20 DUP6 LT ISZERO PUSH2 0xB9E JUMPI DUP2 SWAP1 POP JUMPDEST PUSH2 0xBB2 PUSH2 0xBAA DUP6 PUSH2 0xA6A JUMP JUMPDEST DUP4 ADD DUP3 PUSH2 0xB51 JUMP JUMPDEST POP POP JUMPDEST POP POP POP JUMP JUMPDEST PUSH1 0x0 DUP3 DUP3 SHR SWAP1 POP SWAP3 SWAP2 POP POP JUMP JUMPDEST PUSH1 0x0 PUSH2 0xBD8 PUSH1 0x0 NOT DUP5 PUSH1 0x8 MUL PUSH2 0xBBA JUMP JUMPDEST NOT DUP1 DUP4 AND SWAP2 POP POP SWAP3 SWAP2 POP POP JUMP JUMPDEST PUSH1 0x0 PUSH2 0xBF1 DUP4 DUP4 PUSH2 0xBC7 JUMP JUMPDEST SWAP2 POP DUP3 PUSH1 0x2 MUL DUP3 OR SWAP1 POP SWAP3 SWAP2 POP POP JUMP JUMPDEST PUSH2 0xC0A DUP3 PUSH2 0x67B JUMP JUMPDEST PUSH8 0xFFFFFFFFFFFFFFFF DUP2 GT ISZERO PUSH2 0xC23 JUMPI PUSH2 0xC22 PUSH2 0x4A7 JUMP JUMPDEST JUMPDEST PUSH2 0xC2D DUP3 SLOAD PUSH2 0xA24 JUMP JUMPDEST PUSH2 0xC38 DUP3 DUP3 DUP6 PUSH2 0xB74 JUMP JUMPDEST PUSH1 0x0 PUSH1 0x20 SWAP1 POP PUSH1 0x1F DUP4 GT PUSH1 0x1 DUP2 EQ PUSH2 0xC6B JUMPI PUSH1 0x0 DUP5 ISZERO PUSH2 0xC59 JUMPI DUP3 DUP8 ADD MLOAD SWAP1 POP JUMPDEST PUSH2 0xC63 DUP6 DUP3 PUSH2 0xBE5 JUMP JUMPDEST DUP7 SSTORE POP PUSH2 0xCCB JUMP JUMPDEST PUSH1 0x1F NOT DUP5 AND PUSH2 0xC79 DUP7 PUSH2 0xA55 JUMP JUMPDEST PUSH1 0x0 JUMPDEST DUP3 DUP2 LT ISZERO PUSH2 0xCA1 JUMPI DUP5 DUP10 ADD MLOAD DUP3 SSTORE PUSH1 0x1 DUP3 ADD SWAP2 POP PUSH1 0x20 DUP6 ADD SWAP5 POP PUSH1 0x20 DUP2 ADD SWAP1 POP PUSH2 0xC7C JUMP JUMPDEST DUP7 DUP4 LT ISZERO PUSH2 0xCBE JUMPI DUP5 DUP10 ADD MLOAD PUSH2 0xCBA PUSH1 0x1F DUP10 AND DUP3 PUSH2 0xBC7 JUMP JUMPDEST DUP4 SSTORE POP JUMPDEST PUSH1 0x1 PUSH1 0x2 DUP9 MUL ADD DUP9 SSTORE POP POP POP JUMPDEST POP POP POP POP POP POP JUMP JUMPDEST PUSH1 0x0 PUSH2 0xCDE DUP3 PUSH2 0x67B JUMP JUMPDEST PUSH2 0xCE8 DUP2 DUP6 PUSH2 0x949 JUMP JUMPDEST SWAP4 POP PUSH2 0xCF8 DUP2 DUP6 PUSH1 0x20 DUP7 ADD PUSH2 0x697 JUMP JUMPDEST PUSH2 0xD01 DUP2 PUSH2 0x496 JUMP JUMPDEST DUP5 ADD SWAP2 POP POP SWAP3 SWAP2 POP POP JUMP JUMPDEST PUSH1 0x0 PUSH1 0x80 DUP3 ADD SWAP1 POP DUP2 DUP2 SUB PUSH1 0x0 DUP4 ADD MSTORE PUSH2 0xD26 DUP2 DUP8 PUSH2 0xCD3 JUMP JUMPDEST SWAP1 POP PUSH2 0xD35 PUSH1 0x20 DUP4 ADD DUP7 PUSH2 0x625 JUMP JUMPDEST DUP2 DUP2 SUB PUSH1 0x40 DUP4 ADD MSTORE PUSH2 0xD47 DUP2 DUP6 PUSH2 0xCD3 JUMP JUMPDEST SWAP1 POP PUSH2 0xD56 PUSH1 0x60 DUP4 ADD DUP5 PUSH2 0x625 JUMP JUMPDEST SWAP6 SWAP5 POP POP POP POP POP JUMP INVALID LOG2 PUSH5 0x6970667358 0x22 SLT KECCAK256 GASLIMIT 0xBC 0xE4 EXTCODEHASH 0xE0 0xED PUSH14 0x64FB6A6357FBB4BDFF06C1B8AE63 SWAP7 CODESIZE EXTCODEHASH 0xC0 SHR PUSH32 0xAB452FC7E864736F6C6343000810003300000000000000000000000000000000 "
				},
				"gasEstimates": {
					"creation": {
						"codeDepositCost": "695400",
						"executionCost": "728",
						"totalCost": "696128"
					},
					"external": {
						"addTransactionDetail(string,uint256,string,uint256)": "infinite",
						"getCountTransactionDetailByTransactionCode(string)": "infinite",
						"getPriceFromTransactionDetailByTransactionCode(string)": "infinite",
						"getTransactionDetailByTransactionCode(string)": "infinite"
					}
				},
				"methodIdentifiers": {
					"addTransactionDetail(string,uint256,string,uint256)": "9f041311",
					"getCountTransactionDetailByTransactionCode(string)": "9cd9be93",
					"getPriceFromTransactionDetailByTransactionCode(string)": "0786c9a8",
					"getTransactionDetailByTransactionCode(string)": "2ef8750f"
				}
			},
			"storageLayout": {
				"storage": [
					{
						"astId": 16,
						"contract": "contracts/TransactionDetailContract18Juni.sol:TransactionDetailContract",
						"label": "transactionDetails",
						"offset": 0,
						"slot": "0",
						"type": "t_mapping(t_string_memory_ptr,t_array(t_struct(TransactionDetail)10_storage)dyn_storage)"
					}
				],
				"types": {
					"t_array(t_struct(TransactionDetail)10_storage)dyn_storage": {
						"base": "t_struct(TransactionDetail)10_storage",
						"encoding": "dynamic_array",
						"label": "struct TransactionDetailContract.TransactionDetail[]",
						"numberOfBytes": "32"
					},
					"t_mapping(t_string_memory_ptr,t_array(t_struct(TransactionDetail)10_storage)dyn_storage)": {
						"encoding": "mapping",
						"key": "t_string_memory_ptr",
						"label": "mapping(string => struct TransactionDetailContract.TransactionDetail[])",
						"numberOfBytes": "32",
						"value": "t_array(t_struct(TransactionDetail)10_storage)dyn_storage"
					},
					"t_string_memory_ptr": {
						"encoding": "bytes",
						"label": "string",
						"numberOfBytes": "32"
					},
					"t_string_storage": {
						"encoding": "bytes",
						"label": "string",
						"numberOfBytes": "32"
					},
					"t_struct(TransactionDetail)10_storage": {
						"encoding": "inplace",
						"label": "struct TransactionDetailContract.TransactionDetail",
						"members": [
							{
								"astId": 3,
								"contract": "contracts/TransactionDetailContract18Juni.sol:TransactionDetailContract",
								"label": "transactionCode",
								"offset": 0,
								"slot": "0",
								"type": "t_string_storage"
							},
							{
								"astId": 5,
								"contract": "contracts/TransactionDetailContract18Juni.sol:TransactionDetailContract",
								"label": "price",
								"offset": 0,
								"slot": "1",
								"type": "t_uint256"
							},
							{
								"astId": 7,
								"contract": "contracts/TransactionDetailContract18Juni.sol:TransactionDetailContract",
								"label": "token",
								"offset": 0,
								"slot": "2",
								"type": "t_string_storage"
							},
							{
								"astId": 9,
								"contract": "contracts/TransactionDetailContract18Juni.sol:TransactionDetailContract",
								"label": "createdAt",
								"offset": 0,
								"slot": "3",
								"type": "t_uint256"
							}
						],
						"numberOfBytes": "128"
					},
					"t_uint256": {
						"encoding": "inplace",
						"label": "uint256",
						"numberOfBytes": "32"
					}
				}
			},
			"userdoc": {
				"kind": "user",
				"methods": {},
				"version": 1
			}
		}
	}
}