{
	"data": {
		"bytecode": {
			"linkReferences": {},
			"object": "608060405234801561001057600080fd5b50336000806101000a81548173ffffffffffffffffffffffffffffffffffffffff021916908373ffffffffffffffffffffffffffffffffffffffff160217905550610be9806100606000396000f3fe608060405234801561001057600080fd5b506004361061004c5760003560e01c80633379ccd2146100515780638da5cb5b1461006d5780639ace38c21461008b578063b77bf600146100c0575b600080fd5b61006b6004803603810190610066919061056f565b6100de565b005b610075610269565b6040516100829190610663565b60405180910390f35b6100a560048036038101906100a0919061067e565b61028d565b6040516100b796959493929190610742565b60405180910390f35b6100c86103d9565b6040516100d591906107b1565b60405180910390f35b60008054906101000a900473ffffffffffffffffffffffffffffffffffffffff1673ffffffffffffffffffffffffffffffffffffffff163373ffffffffffffffffffffffffffffffffffffffff161461016c576040517f08c379a00000000000000000000000000000000000000000000000000000000081526004016101639061083e565b60405180910390fd5b6002600081548092919061017f9061088d565b91905055506040518060c00160405280600254815260200186815260200185815260200184815260200183815260200182815250600160006002548152602001908152602001600020600082015181600001556020820151816001015560408201518160020190816101f19190610ae1565b5060608201518160030190816102079190610ae1565b506080820151816004015560a082015181600501559050507f14b581795d0057fad2bdfa7446dfdd6a3bda78e0131c5cdc0fef8e4603713dc6600254868686868660405161025a96959493929190610742565b60405180910390a15050505050565b60008054906101000a900473ffffffffffffffffffffffffffffffffffffffff1681565b60016020528060005260406000206000915090508060000154908060010154908060020180546102bc90610904565b80601f01602080910402602001604051908101604052809291908181526020018280546102e890610904565b80156103355780601f1061030a57610100808354040283529160200191610335565b820191906000526020600020905b81548152906001019060200180831161031857829003601f168201915b50505050509080600301805461034a90610904565b80601f016020809104026020016040519081016040528092919081815260200182805461037690610904565b80156103c35780601f10610398576101008083540402835291602001916103c3565b820191906000526020600020905b8154815290600101906020018083116103a657829003601f168201915b5050505050908060040154908060050154905086565b60025481565b6000604051905090565b600080fd5b600080fd5b6000819050919050565b610406816103f3565b811461041157600080fd5b50565b600081359050610423816103fd565b92915050565b600080fd5b600080fd5b6000601f19601f8301169050919050565b7f4e487b7100000000000000000000000000000000000000000000000000000000600052604160045260246000fd5b61047c82610433565b810181811067ffffffffffffffff8211171561049b5761049a610444565b5b80604052505050565b60006104ae6103df565b90506104ba8282610473565b919050565b600067ffffffffffffffff8211156104da576104d9610444565b5b6104e382610433565b9050602081019050919050565b82818337600083830152505050565b600061051261050d846104bf565b6104a4565b90508281526020810184848401111561052e5761052d61042e565b5b6105398482856104f0565b509392505050565b600082601f83011261055657610555610429565b5b81356105668482602086016104ff565b91505092915050565b600080600080600060a0868803121561058b5761058a6103e9565b5b600061059988828901610414565b955050602086013567ffffffffffffffff8111156105ba576105b96103ee565b5b6105c688828901610541565b945050604086013567ffffffffffffffff8111156105e7576105e66103ee565b5b6105f388828901610541565b935050606061060488828901610414565b925050608061061588828901610414565b9150509295509295909350565b600073ffffffffffffffffffffffffffffffffffffffff82169050919050565b600061064d82610622565b9050919050565b61065d81610642565b82525050565b60006020820190506106786000830184610654565b92915050565b600060208284031215610694576106936103e9565b5b60006106a284828501610414565b91505092915050565b6106b4816103f3565b82525050565b600081519050919050565b600082825260208201905092915050565b60005b838110156106f45780820151818401526020810190506106d9565b83811115610703576000848401525b50505050565b6000610714826106ba565b61071e81856106c5565b935061072e8185602086016106d6565b61073781610433565b840191505092915050565b600060c08201905061075760008301896106ab565b61076460208301886106ab565b81810360408301526107768187610709565b9050818103606083015261078a8186610709565b905061079960808301856106ab565b6107a660a08301846106ab565b979650505050505050565b60006020820190506107c660008301846106ab565b92915050565b7f4f6e6c7920746865206f776e65722063616e2063616c6c20746869732066756e60008201527f6374696f6e000000000000000000000000000000000000000000000000000000602082015250565b60006108286025836106c5565b9150610833826107cc565b604082019050919050565b600060208201905081810360008301526108578161081b565b9050919050565b7f4e487b7100000000000000000000000000000000000000000000000000000000600052601160045260246000fd5b6000610898826103f3565b91507fffffffffffffffffffffffffffffffffffffffffffffffffffffffffffffffff82036108ca576108c961085e565b5b600182019050919050565b7f4e487b7100000000000000000000000000000000000000000000000000000000600052602260045260246000fd5b6000600282049050600182168061091c57607f821691505b60208210810361092f5761092e6108d5565b5b50919050565b60008190508160005260206000209050919050565b60006020601f8301049050919050565b600082821b905092915050565b6000600883026109977fffffffffffffffffffffffffffffffffffffffffffffffffffffffffffffffff8261095a565b6109a1868361095a565b95508019841693508086168417925050509392505050565b6000819050919050565b60006109de6109d96109d4846103f3565b6109b9565b6103f3565b9050919050565b6000819050919050565b6109f8836109c3565b610a0c610a04826109e5565b848454610967565b825550505050565b600090565b610a21610a14565b610a2c8184846109ef565b505050565b5b81811015610a5057610a45600082610a19565b600181019050610a32565b5050565b601f821115610a9557610a6681610935565b610a6f8461094a565b81016020851015610a7e578190505b610a92610a8a8561094a565b830182610a31565b50505b505050565b600082821c905092915050565b6000610ab860001984600802610a9a565b1980831691505092915050565b6000610ad18383610aa7565b9150826002028217905092915050565b610aea826106ba565b67ffffffffffffffff811115610b0357610b02610444565b5b610b0d8254610904565b610b18828285610a54565b600060209050601f831160018114610b4b5760008415610b39578287015190505b610b438582610ac5565b865550610bab565b601f198416610b5986610935565b60005b82811015610b8157848901518255600182019150602085019450602081019050610b5c565b86831015610b9e5784890151610b9a601f891682610aa7565b8355505b6001600288020188555050505b50505050505056fea264697066735822122088eee41329ccf0ca1d9b7fe5946a9bb73a046269bb231d162ba66b84ea9bd29d64736f6c634300080f0033",
			"opcodes": "PUSH1 0x80 PUSH1 0x40 MSTORE CALLVALUE DUP1 ISZERO PUSH2 0x10 JUMPI PUSH1 0x0 DUP1 REVERT JUMPDEST POP CALLER PUSH1 0x0 DUP1 PUSH2 0x100 EXP DUP2 SLOAD DUP2 PUSH20 0xFFFFFFFFFFFFFFFFFFFFFFFFFFFFFFFFFFFFFFFF MUL NOT AND SWAP1 DUP4 PUSH20 0xFFFFFFFFFFFFFFFFFFFFFFFFFFFFFFFFFFFFFFFF AND MUL OR SWAP1 SSTORE POP PUSH2 0xBE9 DUP1 PUSH2 0x60 PUSH1 0x0 CODECOPY PUSH1 0x0 RETURN INVALID PUSH1 0x80 PUSH1 0x40 MSTORE CALLVALUE DUP1 ISZERO PUSH2 0x10 JUMPI PUSH1 0x0 DUP1 REVERT JUMPDEST POP PUSH1 0x4 CALLDATASIZE LT PUSH2 0x4C JUMPI PUSH1 0x0 CALLDATALOAD PUSH1 0xE0 SHR DUP1 PUSH4 0x3379CCD2 EQ PUSH2 0x51 JUMPI DUP1 PUSH4 0x8DA5CB5B EQ PUSH2 0x6D JUMPI DUP1 PUSH4 0x9ACE38C2 EQ PUSH2 0x8B JUMPI DUP1 PUSH4 0xB77BF600 EQ PUSH2 0xC0 JUMPI JUMPDEST PUSH1 0x0 DUP1 REVERT JUMPDEST PUSH2 0x6B PUSH1 0x4 DUP1 CALLDATASIZE SUB DUP2 ADD SWAP1 PUSH2 0x66 SWAP2 SWAP1 PUSH2 0x56F JUMP JUMPDEST PUSH2 0xDE JUMP JUMPDEST STOP JUMPDEST PUSH2 0x75 PUSH2 0x269 JUMP JUMPDEST PUSH1 0x40 MLOAD PUSH2 0x82 SWAP2 SWAP1 PUSH2 0x663 JUMP JUMPDEST PUSH1 0x40 MLOAD DUP1 SWAP2 SUB SWAP1 RETURN JUMPDEST PUSH2 0xA5 PUSH1 0x4 DUP1 CALLDATASIZE SUB DUP2 ADD SWAP1 PUSH2 0xA0 SWAP2 SWAP1 PUSH2 0x67E JUMP JUMPDEST PUSH2 0x28D JUMP JUMPDEST PUSH1 0x40 MLOAD PUSH2 0xB7 SWAP7 SWAP6 SWAP5 SWAP4 SWAP3 SWAP2 SWAP1 PUSH2 0x742 JUMP JUMPDEST PUSH1 0x40 MLOAD DUP1 SWAP2 SUB SWAP1 RETURN JUMPDEST PUSH2 0xC8 PUSH2 0x3D9 JUMP JUMPDEST PUSH1 0x40 MLOAD PUSH2 0xD5 SWAP2 SWAP1 PUSH2 0x7B1 JUMP JUMPDEST PUSH1 0x40 MLOAD DUP1 SWAP2 SUB SWAP1 RETURN JUMPDEST PUSH1 0x0 DUP1 SLOAD SWAP1 PUSH2 0x100 EXP SWAP1 DIV PUSH20 0xFFFFFFFFFFFFFFFFFFFFFFFFFFFFFFFFFFFFFFFF AND PUSH20 0xFFFFFFFFFFFFFFFFFFFFFFFFFFFFFFFFFFFFFFFF AND CALLER PUSH20 0xFFFFFFFFFFFFFFFFFFFFFFFFFFFFFFFFFFFFFFFF AND EQ PUSH2 0x16C JUMPI PUSH1 0x40 MLOAD PUSH32 0x8C379A000000000000000000000000000000000000000000000000000000000 DUP2 MSTORE PUSH1 0x4 ADD PUSH2 0x163 SWAP1 PUSH2 0x83E JUMP JUMPDEST PUSH1 0x40 MLOAD DUP1 SWAP2 SUB SWAP1 REVERT JUMPDEST PUSH1 0x2 PUSH1 0x0 DUP2 SLOAD DUP1 SWAP3 SWAP2 SWAP1 PUSH2 0x17F SWAP1 PUSH2 0x88D JUMP JUMPDEST SWAP2 SWAP1 POP SSTORE POP PUSH1 0x40 MLOAD DUP1 PUSH1 0xC0 ADD PUSH1 0x40 MSTORE DUP1 PUSH1 0x2 SLOAD DUP2 MSTORE PUSH1 0x20 ADD DUP7 DUP2 MSTORE PUSH1 0x20 ADD DUP6 DUP2 MSTORE PUSH1 0x20 ADD DUP5 DUP2 MSTORE PUSH1 0x20 ADD DUP4 DUP2 MSTORE PUSH1 0x20 ADD DUP3 DUP2 MSTORE POP PUSH1 0x1 PUSH1 0x0 PUSH1 0x2 SLOAD DUP2 MSTORE PUSH1 0x20 ADD SWAP1 DUP2 MSTORE PUSH1 0x20 ADD PUSH1 0x0 KECCAK256 PUSH1 0x0 DUP3 ADD MLOAD DUP2 PUSH1 0x0 ADD SSTORE PUSH1 0x20 DUP3 ADD MLOAD DUP2 PUSH1 0x1 ADD SSTORE PUSH1 0x40 DUP3 ADD MLOAD DUP2 PUSH1 0x2 ADD SWAP1 DUP2 PUSH2 0x1F1 SWAP2 SWAP1 PUSH2 0xAE1 JUMP JUMPDEST POP PUSH1 0x60 DUP3 ADD MLOAD DUP2 PUSH1 0x3 ADD SWAP1 DUP2 PUSH2 0x207 SWAP2 SWAP1 PUSH2 0xAE1 JUMP JUMPDEST POP PUSH1 0x80 DUP3 ADD MLOAD DUP2 PUSH1 0x4 ADD SSTORE PUSH1 0xA0 DUP3 ADD MLOAD DUP2 PUSH1 0x5 ADD SSTORE SWAP1 POP POP PUSH32 0x14B581795D0057FAD2BDFA7446DFDD6A3BDA78E0131C5CDC0FEF8E4603713DC6 PUSH1 0x2 SLOAD DUP7 DUP7 DUP7 DUP7 DUP7 PUSH1 0x40 MLOAD PUSH2 0x25A SWAP7 SWAP6 SWAP5 SWAP4 SWAP3 SWAP2 SWAP1 PUSH2 0x742 JUMP JUMPDEST PUSH1 0x40 MLOAD DUP1 SWAP2 SUB SWAP1 LOG1 POP POP POP POP POP JUMP JUMPDEST PUSH1 0x0 DUP1 SLOAD SWAP1 PUSH2 0x100 EXP SWAP1 DIV PUSH20 0xFFFFFFFFFFFFFFFFFFFFFFFFFFFFFFFFFFFFFFFF AND DUP2 JUMP JUMPDEST PUSH1 0x1 PUSH1 0x20 MSTORE DUP1 PUSH1 0x0 MSTORE PUSH1 0x40 PUSH1 0x0 KECCAK256 PUSH1 0x0 SWAP2 POP SWAP1 POP DUP1 PUSH1 0x0 ADD SLOAD SWAP1 DUP1 PUSH1 0x1 ADD SLOAD SWAP1 DUP1 PUSH1 0x2 ADD DUP1 SLOAD PUSH2 0x2BC SWAP1 PUSH2 0x904 JUMP JUMPDEST DUP1 PUSH1 0x1F ADD PUSH1 0x20 DUP1 SWAP2 DIV MUL PUSH1 0x20 ADD PUSH1 0x40 MLOAD SWAP1 DUP2 ADD PUSH1 0x40 MSTORE DUP1 SWAP3 SWAP2 SWAP1 DUP2 DUP2 MSTORE PUSH1 0x20 ADD DUP3 DUP1 SLOAD PUSH2 0x2E8 SWAP1 PUSH2 0x904 JUMP JUMPDEST DUP1 ISZERO PUSH2 0x335 JUMPI DUP1 PUSH1 0x1F LT PUSH2 0x30A JUMPI PUSH2 0x100 DUP1 DUP4 SLOAD DIV MUL DUP4 MSTORE SWAP2 PUSH1 0x20 ADD SWAP2 PUSH2 0x335 JUMP JUMPDEST DUP3 ADD SWAP2 SWAP1 PUSH1 0x0 MSTORE PUSH1 0x20 PUSH1 0x0 KECCAK256 SWAP1 JUMPDEST DUP2 SLOAD DUP2 MSTORE SWAP1 PUSH1 0x1 ADD SWAP1 PUSH1 0x20 ADD DUP1 DUP4 GT PUSH2 0x318 JUMPI DUP3 SWAP1 SUB PUSH1 0x1F AND DUP3 ADD SWAP2 JUMPDEST POP POP POP POP POP SWAP1 DUP1 PUSH1 0x3 ADD DUP1 SLOAD PUSH2 0x34A SWAP1 PUSH2 0x904 JUMP JUMPDEST DUP1 PUSH1 0x1F ADD PUSH1 0x20 DUP1 SWAP2 DIV MUL PUSH1 0x20 ADD PUSH1 0x40 MLOAD SWAP1 DUP2 ADD PUSH1 0x40 MSTORE DUP1 SWAP3 SWAP2 SWAP1 DUP2 DUP2 MSTORE PUSH1 0x20 ADD DUP3 DUP1 SLOAD PUSH2 0x376 SWAP1 PUSH2 0x904 JUMP JUMPDEST DUP1 ISZERO PUSH2 0x3C3 JUMPI DUP1 PUSH1 0x1F LT PUSH2 0x398 JUMPI PUSH2 0x100 DUP1 DUP4 SLOAD DIV MUL DUP4 MSTORE SWAP2 PUSH1 0x20 ADD SWAP2 PUSH2 0x3C3 JUMP JUMPDEST DUP3 ADD SWAP2 SWAP1 PUSH1 0x0 MSTORE PUSH1 0x20 PUSH1 0x0 KECCAK256 SWAP1 JUMPDEST DUP2 SLOAD DUP2 MSTORE SWAP1 PUSH1 0x1 ADD SWAP1 PUSH1 0x20 ADD DUP1 DUP4 GT PUSH2 0x3A6 JUMPI DUP3 SWAP1 SUB PUSH1 0x1F AND DUP3 ADD SWAP2 JUMPDEST POP POP POP POP POP SWAP1 DUP1 PUSH1 0x4 ADD SLOAD SWAP1 DUP1 PUSH1 0x5 ADD SLOAD SWAP1 POP DUP7 JUMP JUMPDEST PUSH1 0x2 SLOAD DUP2 JUMP JUMPDEST PUSH1 0x0 PUSH1 0x40 MLOAD SWAP1 POP SWAP1 JUMP JUMPDEST PUSH1 0x0 DUP1 REVERT JUMPDEST PUSH1 0x0 DUP1 REVERT JUMPDEST PUSH1 0x0 DUP2 SWAP1 POP SWAP2 SWAP1 POP JUMP JUMPDEST PUSH2 0x406 DUP2 PUSH2 0x3F3 JUMP JUMPDEST DUP2 EQ PUSH2 0x411 JUMPI PUSH1 0x0 DUP1 REVERT JUMPDEST POP JUMP JUMPDEST PUSH1 0x0 DUP2 CALLDATALOAD SWAP1 POP PUSH2 0x423 DUP2 PUSH2 0x3FD JUMP JUMPDEST SWAP3 SWAP2 POP POP JUMP JUMPDEST PUSH1 0x0 DUP1 REVERT JUMPDEST PUSH1 0x0 DUP1 REVERT JUMPDEST PUSH1 0x0 PUSH1 0x1F NOT PUSH1 0x1F DUP4 ADD AND SWAP1 POP SWAP2 SWAP1 POP JUMP JUMPDEST PUSH32 0x4E487B7100000000000000000000000000000000000000000000000000000000 PUSH1 0x0 MSTORE PUSH1 0x41 PUSH1 0x4 MSTORE PUSH1 0x24 PUSH1 0x0 REVERT JUMPDEST PUSH2 0x47C DUP3 PUSH2 0x433 JUMP JUMPDEST DUP2 ADD DUP2 DUP2 LT PUSH8 0xFFFFFFFFFFFFFFFF DUP3 GT OR ISZERO PUSH2 0x49B JUMPI PUSH2 0x49A PUSH2 0x444 JUMP JUMPDEST JUMPDEST DUP1 PUSH1 0x40 MSTORE POP POP POP JUMP JUMPDEST PUSH1 0x0 PUSH2 0x4AE PUSH2 0x3DF JUMP JUMPDEST SWAP1 POP PUSH2 0x4BA DUP3 DUP3 PUSH2 0x473 JUMP JUMPDEST SWAP2 SWAP1 POP JUMP JUMPDEST PUSH1 0x0 PUSH8 0xFFFFFFFFFFFFFFFF DUP3 GT ISZERO PUSH2 0x4DA JUMPI PUSH2 0x4D9 PUSH2 0x444 JUMP JUMPDEST JUMPDEST PUSH2 0x4E3 DUP3 PUSH2 0x433 JUMP JUMPDEST SWAP1 POP PUSH1 0x20 DUP2 ADD SWAP1 POP SWAP2 SWAP1 POP JUMP JUMPDEST DUP3 DUP2 DUP4 CALLDATACOPY PUSH1 0x0 DUP4 DUP4 ADD MSTORE POP POP POP JUMP JUMPDEST PUSH1 0x0 PUSH2 0x512 PUSH2 0x50D DUP5 PUSH2 0x4BF JUMP JUMPDEST PUSH2 0x4A4 JUMP JUMPDEST SWAP1 POP DUP3 DUP2 MSTORE PUSH1 0x20 DUP2 ADD DUP5 DUP5 DUP5 ADD GT ISZERO PUSH2 0x52E JUMPI PUSH2 0x52D PUSH2 0x42E JUMP JUMPDEST JUMPDEST PUSH2 0x539 DUP5 DUP3 DUP6 PUSH2 0x4F0 JUMP JUMPDEST POP SWAP4 SWAP3 POP POP POP JUMP JUMPDEST PUSH1 0x0 DUP3 PUSH1 0x1F DUP4 ADD SLT PUSH2 0x556 JUMPI PUSH2 0x555 PUSH2 0x429 JUMP JUMPDEST JUMPDEST DUP2 CALLDATALOAD PUSH2 0x566 DUP5 DUP3 PUSH1 0x20 DUP7 ADD PUSH2 0x4FF JUMP JUMPDEST SWAP2 POP POP SWAP3 SWAP2 POP POP JUMP JUMPDEST PUSH1 0x0 DUP1 PUSH1 0x0 DUP1 PUSH1 0x0 PUSH1 0xA0 DUP7 DUP9 SUB SLT ISZERO PUSH2 0x58B JUMPI PUSH2 0x58A PUSH2 0x3E9 JUMP JUMPDEST JUMPDEST PUSH1 0x0 PUSH2 0x599 DUP9 DUP3 DUP10 ADD PUSH2 0x414 JUMP JUMPDEST SWAP6 POP POP PUSH1 0x20 DUP7 ADD CALLDATALOAD PUSH8 0xFFFFFFFFFFFFFFFF DUP2 GT ISZERO PUSH2 0x5BA JUMPI PUSH2 0x5B9 PUSH2 0x3EE JUMP JUMPDEST JUMPDEST PUSH2 0x5C6 DUP9 DUP3 DUP10 ADD PUSH2 0x541 JUMP JUMPDEST SWAP5 POP POP PUSH1 0x40 DUP7 ADD CALLDATALOAD PUSH8 0xFFFFFFFFFFFFFFFF DUP2 GT ISZERO PUSH2 0x5E7 JUMPI PUSH2 0x5E6 PUSH2 0x3EE JUMP JUMPDEST JUMPDEST PUSH2 0x5F3 DUP9 DUP3 DUP10 ADD PUSH2 0x541 JUMP JUMPDEST SWAP4 POP POP PUSH1 0x60 PUSH2 0x604 DUP9 DUP3 DUP10 ADD PUSH2 0x414 JUMP JUMPDEST SWAP3 POP POP PUSH1 0x80 PUSH2 0x615 DUP9 DUP3 DUP10 ADD PUSH2 0x414 JUMP JUMPDEST SWAP2 POP POP SWAP3 SWAP6 POP SWAP3 SWAP6 SWAP1 SWAP4 POP JUMP JUMPDEST PUSH1 0x0 PUSH20 0xFFFFFFFFFFFFFFFFFFFFFFFFFFFFFFFFFFFFFFFF DUP3 AND SWAP1 POP SWAP2 SWAP1 POP JUMP JUMPDEST PUSH1 0x0 PUSH2 0x64D DUP3 PUSH2 0x622 JUMP JUMPDEST SWAP1 POP SWAP2 SWAP1 POP JUMP JUMPDEST PUSH2 0x65D DUP2 PUSH2 0x642 JUMP JUMPDEST DUP3 MSTORE POP POP JUMP JUMPDEST PUSH1 0x0 PUSH1 0x20 DUP3 ADD SWAP1 POP PUSH2 0x678 PUSH1 0x0 DUP4 ADD DUP5 PUSH2 0x654 JUMP JUMPDEST SWAP3 SWAP2 POP POP JUMP JUMPDEST PUSH1 0x0 PUSH1 0x20 DUP3 DUP5 SUB SLT ISZERO PUSH2 0x694 JUMPI PUSH2 0x693 PUSH2 0x3E9 JUMP JUMPDEST JUMPDEST PUSH1 0x0 PUSH2 0x6A2 DUP5 DUP3 DUP6 ADD PUSH2 0x414 JUMP JUMPDEST SWAP2 POP POP SWAP3 SWAP2 POP POP JUMP JUMPDEST PUSH2 0x6B4 DUP2 PUSH2 0x3F3 JUMP JUMPDEST DUP3 MSTORE POP POP JUMP JUMPDEST PUSH1 0x0 DUP2 MLOAD SWAP1 POP SWAP2 SWAP1 POP JUMP JUMPDEST PUSH1 0x0 DUP3 DUP3 MSTORE PUSH1 0x20 DUP3 ADD SWAP1 POP SWAP3 SWAP2 POP POP JUMP JUMPDEST PUSH1 0x0 JUMPDEST DUP4 DUP2 LT ISZERO PUSH2 0x6F4 JUMPI DUP1 DUP3 ADD MLOAD DUP2 DUP5 ADD MSTORE PUSH1 0x20 DUP2 ADD SWAP1 POP PUSH2 0x6D9 JUMP JUMPDEST DUP4 DUP2 GT ISZERO PUSH2 0x703 JUMPI PUSH1 0x0 DUP5 DUP5 ADD MSTORE JUMPDEST POP POP POP POP JUMP JUMPDEST PUSH1 0x0 PUSH2 0x714 DUP3 PUSH2 0x6BA JUMP JUMPDEST PUSH2 0x71E DUP2 DUP6 PUSH2 0x6C5 JUMP JUMPDEST SWAP4 POP PUSH2 0x72E DUP2 DUP6 PUSH1 0x20 DUP7 ADD PUSH2 0x6D6 JUMP JUMPDEST PUSH2 0x737 DUP2 PUSH2 0x433 JUMP JUMPDEST DUP5 ADD SWAP2 POP POP SWAP3 SWAP2 POP POP JUMP JUMPDEST PUSH1 0x0 PUSH1 0xC0 DUP3 ADD SWAP1 POP PUSH2 0x757 PUSH1 0x0 DUP4 ADD DUP10 PUSH2 0x6AB JUMP JUMPDEST PUSH2 0x764 PUSH1 0x20 DUP4 ADD DUP9 PUSH2 0x6AB JUMP JUMPDEST DUP2 DUP2 SUB PUSH1 0x40 DUP4 ADD MSTORE PUSH2 0x776 DUP2 DUP8 PUSH2 0x709 JUMP JUMPDEST SWAP1 POP DUP2 DUP2 SUB PUSH1 0x60 DUP4 ADD MSTORE PUSH2 0x78A DUP2 DUP7 PUSH2 0x709 JUMP JUMPDEST SWAP1 POP PUSH2 0x799 PUSH1 0x80 DUP4 ADD DUP6 PUSH2 0x6AB JUMP JUMPDEST PUSH2 0x7A6 PUSH1 0xA0 DUP4 ADD DUP5 PUSH2 0x6AB JUMP JUMPDEST SWAP8 SWAP7 POP POP POP POP POP POP POP JUMP JUMPDEST PUSH1 0x0 PUSH1 0x20 DUP3 ADD SWAP1 POP PUSH2 0x7C6 PUSH1 0x0 DUP4 ADD DUP5 PUSH2 0x6AB JUMP JUMPDEST SWAP3 SWAP2 POP POP JUMP JUMPDEST PUSH32 0x4F6E6C7920746865206F776E65722063616E2063616C6C20746869732066756E PUSH1 0x0 DUP3 ADD MSTORE PUSH32 0x6374696F6E000000000000000000000000000000000000000000000000000000 PUSH1 0x20 DUP3 ADD MSTORE POP JUMP JUMPDEST PUSH1 0x0 PUSH2 0x828 PUSH1 0x25 DUP4 PUSH2 0x6C5 JUMP JUMPDEST SWAP2 POP PUSH2 0x833 DUP3 PUSH2 0x7CC JUMP JUMPDEST PUSH1 0x40 DUP3 ADD SWAP1 POP SWAP2 SWAP1 POP JUMP JUMPDEST PUSH1 0x0 PUSH1 0x20 DUP3 ADD SWAP1 POP DUP2 DUP2 SUB PUSH1 0x0 DUP4 ADD MSTORE PUSH2 0x857 DUP2 PUSH2 0x81B JUMP JUMPDEST SWAP1 POP SWAP2 SWAP1 POP JUMP JUMPDEST PUSH32 0x4E487B7100000000000000000000000000000000000000000000000000000000 PUSH1 0x0 MSTORE PUSH1 0x11 PUSH1 0x4 MSTORE PUSH1 0x24 PUSH1 0x0 REVERT JUMPDEST PUSH1 0x0 PUSH2 0x898 DUP3 PUSH2 0x3F3 JUMP JUMPDEST SWAP2 POP PUSH32 0xFFFFFFFFFFFFFFFFFFFFFFFFFFFFFFFFFFFFFFFFFFFFFFFFFFFFFFFFFFFFFFFF DUP3 SUB PUSH2 0x8CA JUMPI PUSH2 0x8C9 PUSH2 0x85E JUMP JUMPDEST JUMPDEST PUSH1 0x1 DUP3 ADD SWAP1 POP SWAP2 SWAP1 POP JUMP JUMPDEST PUSH32 0x4E487B7100000000000000000000000000000000000000000000000000000000 PUSH1 0x0 MSTORE PUSH1 0x22 PUSH1 0x4 MSTORE PUSH1 0x24 PUSH1 0x0 REVERT JUMPDEST PUSH1 0x0 PUSH1 0x2 DUP3 DIV SWAP1 POP PUSH1 0x1 DUP3 AND DUP1 PUSH2 0x91C JUMPI PUSH1 0x7F DUP3 AND SWAP2 POP JUMPDEST PUSH1 0x20 DUP3 LT DUP2 SUB PUSH2 0x92F JUMPI PUSH2 0x92E PUSH2 0x8D5 JUMP JUMPDEST JUMPDEST POP SWAP2 SWAP1 POP JUMP JUMPDEST PUSH1 0x0 DUP2 SWAP1 POP DUP2 PUSH1 0x0 MSTORE PUSH1 0x20 PUSH1 0x0 KECCAK256 SWAP1 POP SWAP2 SWAP1 POP JUMP JUMPDEST PUSH1 0x0 PUSH1 0x20 PUSH1 0x1F DUP4 ADD DIV SWAP1 POP SWAP2 SWAP1 POP JUMP JUMPDEST PUSH1 0x0 DUP3 DUP3 SHL SWAP1 POP SWAP3 SWAP2 POP POP JUMP JUMPDEST PUSH1 0x0 PUSH1 0x8 DUP4 MUL PUSH2 0x997 PUSH32 0xFFFFFFFFFFFFFFFFFFFFFFFFFFFFFFFFFFFFFFFFFFFFFFFFFFFFFFFFFFFFFFFF DUP3 PUSH2 0x95A JUMP JUMPDEST PUSH2 0x9A1 DUP7 DUP4 PUSH2 0x95A JUMP JUMPDEST SWAP6 POP DUP1 NOT DUP5 AND SWAP4 POP DUP1 DUP7 AND DUP5 OR SWAP3 POP POP POP SWAP4 SWAP3 POP POP POP JUMP JUMPDEST PUSH1 0x0 DUP2 SWAP1 POP SWAP2 SWAP1 POP JUMP JUMPDEST PUSH1 0x0 PUSH2 0x9DE PUSH2 0x9D9 PUSH2 0x9D4 DUP5 PUSH2 0x3F3 JUMP JUMPDEST PUSH2 0x9B9 JUMP JUMPDEST PUSH2 0x3F3 JUMP JUMPDEST SWAP1 POP SWAP2 SWAP1 POP JUMP JUMPDEST PUSH1 0x0 DUP2 SWAP1 POP SWAP2 SWAP1 POP JUMP JUMPDEST PUSH2 0x9F8 DUP4 PUSH2 0x9C3 JUMP JUMPDEST PUSH2 0xA0C PUSH2 0xA04 DUP3 PUSH2 0x9E5 JUMP JUMPDEST DUP5 DUP5 SLOAD PUSH2 0x967 JUMP JUMPDEST DUP3 SSTORE POP POP POP POP JUMP JUMPDEST PUSH1 0x0 SWAP1 JUMP JUMPDEST PUSH2 0xA21 PUSH2 0xA14 JUMP JUMPDEST PUSH2 0xA2C DUP2 DUP5 DUP5 PUSH2 0x9EF JUMP JUMPDEST POP POP POP JUMP JUMPDEST JUMPDEST DUP2 DUP2 LT ISZERO PUSH2 0xA50 JUMPI PUSH2 0xA45 PUSH1 0x0 DUP3 PUSH2 0xA19 JUMP JUMPDEST PUSH1 0x1 DUP2 ADD SWAP1 POP PUSH2 0xA32 JUMP JUMPDEST POP POP JUMP JUMPDEST PUSH1 0x1F DUP3 GT ISZERO PUSH2 0xA95 JUMPI PUSH2 0xA66 DUP2 PUSH2 0x935 JUMP JUMPDEST PUSH2 0xA6F DUP5 PUSH2 0x94A JUMP JUMPDEST DUP2 ADD PUSH1 0x20 DUP6 LT ISZERO PUSH2 0xA7E JUMPI DUP2 SWAP1 POP JUMPDEST PUSH2 0xA92 PUSH2 0xA8A DUP6 PUSH2 0x94A JUMP JUMPDEST DUP4 ADD DUP3 PUSH2 0xA31 JUMP JUMPDEST POP POP JUMPDEST POP POP POP JUMP JUMPDEST PUSH1 0x0 DUP3 DUP3 SHR SWAP1 POP SWAP3 SWAP2 POP POP JUMP JUMPDEST PUSH1 0x0 PUSH2 0xAB8 PUSH1 0x0 NOT DUP5 PUSH1 0x8 MUL PUSH2 0xA9A JUMP JUMPDEST NOT DUP1 DUP4 AND SWAP2 POP POP SWAP3 SWAP2 POP POP JUMP JUMPDEST PUSH1 0x0 PUSH2 0xAD1 DUP4 DUP4 PUSH2 0xAA7 JUMP JUMPDEST SWAP2 POP DUP3 PUSH1 0x2 MUL DUP3 OR SWAP1 POP SWAP3 SWAP2 POP POP JUMP JUMPDEST PUSH2 0xAEA DUP3 PUSH2 0x6BA JUMP JUMPDEST PUSH8 0xFFFFFFFFFFFFFFFF DUP2 GT ISZERO PUSH2 0xB03 JUMPI PUSH2 0xB02 PUSH2 0x444 JUMP JUMPDEST JUMPDEST PUSH2 0xB0D DUP3 SLOAD PUSH2 0x904 JUMP JUMPDEST PUSH2 0xB18 DUP3 DUP3 DUP6 PUSH2 0xA54 JUMP JUMPDEST PUSH1 0x0 PUSH1 0x20 SWAP1 POP PUSH1 0x1F DUP4 GT PUSH1 0x1 DUP2 EQ PUSH2 0xB4B JUMPI PUSH1 0x0 DUP5 ISZERO PUSH2 0xB39 JUMPI DUP3 DUP8 ADD MLOAD SWAP1 POP JUMPDEST PUSH2 0xB43 DUP6 DUP3 PUSH2 0xAC5 JUMP JUMPDEST DUP7 SSTORE POP PUSH2 0xBAB JUMP JUMPDEST PUSH1 0x1F NOT DUP5 AND PUSH2 0xB59 DUP7 PUSH2 0x935 JUMP JUMPDEST PUSH1 0x0 JUMPDEST DUP3 DUP2 LT ISZERO PUSH2 0xB81 JUMPI DUP5 DUP10 ADD MLOAD DUP3 SSTORE PUSH1 0x1 DUP3 ADD SWAP2 POP PUSH1 0x20 DUP6 ADD SWAP5 POP PUSH1 0x20 DUP2 ADD SWAP1 POP PUSH2 0xB5C JUMP JUMPDEST DUP7 DUP4 LT ISZERO PUSH2 0xB9E JUMPI DUP5 DUP10 ADD MLOAD PUSH2 0xB9A PUSH1 0x1F DUP10 AND DUP3 PUSH2 0xAA7 JUMP JUMPDEST DUP4 SSTORE POP JUMPDEST PUSH1 0x1 PUSH1 0x2 DUP9 MUL ADD DUP9 SSTORE POP POP POP JUMPDEST POP POP POP POP POP POP JUMP INVALID LOG2 PUSH5 0x6970667358 0x22 SLT KECCAK256 DUP9 0xEE 0xE4 SGT 0x29 0xCC CREATE 0xCA SAR SWAP12 PUSH32 0xE5946A9BB73A046269BB231D162BA66B84EA9BD29D64736F6C634300080F0033 "
		},
		"gasEstimates": {
			"creation": {
				"codeDepositCost": "609800",
				"executionCost": "24911",
				"totalCost": "634711"
			},
			"external": {
				"addTransaction(uint256,string,string,uint256,uint256)": "infinite",
				"owner()": "2511",
				"transactionCount()": "2473",
				"transactions(uint256)": "infinite"
			}
		},
		"methodIdentifiers": {
			"addTransaction(uint256,string,string,uint256,uint256)": "3379ccd2",
			"owner()": "8da5cb5b",
			"transactionCount()": "b77bf600",
			"transactions(uint256)": "9ace38c2"
		}
	},
	"abi": [
		{
			"inputs": [],
			"stateMutability": "nonpayable",
			"type": "constructor"
		},
		{
			"anonymous": false,
			"inputs": [
				{
					"indexed": false,
					"internalType": "uint256",
					"name": "transactionId",
					"type": "uint256"
				},
				{
					"indexed": false,
					"internalType": "uint256",
					"name": "rupiahAmount",
					"type": "uint256"
				},
				{
					"indexed": false,
					"internalType": "string",
					"name": "buyer",
					"type": "string"
				},
				{
					"indexed": false,
					"internalType": "string",
					"name": "productName",
					"type": "string"
				},
				{
					"indexed": false,
					"internalType": "uint256",
					"name": "quantity",
					"type": "uint256"
				},
				{
					"indexed": false,
					"internalType": "uint256",
					"name": "price",
					"type": "uint256"
				}
			],
			"name": "TransactionAdded",
			"type": "event"
		},
		{
			"inputs": [
				{
					"internalType": "uint256",
					"name": "_rupiahAmount",
					"type": "uint256"
				},
				{
					"internalType": "string",
					"name": "_buyer",
					"type": "string"
				},
				{
					"internalType": "string",
					"name": "_productName",
					"type": "string"
				},
				{
					"internalType": "uint256",
					"name": "_quantity",
					"type": "uint256"
				},
				{
					"internalType": "uint256",
					"name": "_price",
					"type": "uint256"
				}
			],
			"name": "addTransaction",
			"outputs": [],
			"stateMutability": "nonpayable",
			"type": "function"
		},
		{
			"inputs": [],
			"name": "owner",
			"outputs": [
				{
					"internalType": "address",
					"name": "",
					"type": "address"
				}
			],
			"stateMutability": "view",
			"type": "function"
		},
		{
			"inputs": [],
			"name": "transactionCount",
			"outputs": [
				{
					"internalType": "uint256",
					"name": "",
					"type": "uint256"
				}
			],
			"stateMutability": "view",
			"type": "function"
		},
		{
			"inputs": [
				{
					"internalType": "uint256",
					"name": "",
					"type": "uint256"
				}
			],
			"name": "transactions",
			"outputs": [
				{
					"internalType": "uint256",
					"name": "transactionId",
					"type": "uint256"
				},
				{
					"internalType": "uint256",
					"name": "rupiahAmount",
					"type": "uint256"
				},
				{
					"internalType": "string",
					"name": "buyer",
					"type": "string"
				},
				{
					"internalType": "string",
					"name": "productName",
					"type": "string"
				},
				{
					"internalType": "uint256",
					"name": "quantity",
					"type": "uint256"
				},
				{
					"internalType": "uint256",
					"name": "price",
					"type": "uint256"
				}
			],
			"stateMutability": "view",
			"type": "function"
		}
	]
}