{
	"data": {
		"bytecode": {
			"linkReferences": {},
			"object": "608060405234801561001057600080fd5b50613699806100206000396000f3fe608060405234801561001057600080fd5b50600436106100a95760003560e01c80637ce99c58116100715780637ce99c581461015c5780637ee9ed471461018c578063814cb8eb146101bc5780639db897dd146101d8578063d339b0ec14610208578063fff5046114610238576100a9565b8063022236f4146100ae57806327506f53146100e85780632b47300d14610106578063347047cc1461012257806377839eb71461013e575b600080fd5b6100c860048036038101906100c3919061278d565b610254565b6040516100df9b9a9998979695949392919061286e565b60405180910390f35b6100f0610704565b6040516100fd9190612b8c565b60405180910390f35b610120600480360381019061011b9190612bae565b610ca1565b005b61013c60048036038101906101379190612bae565b610e17565b005b610146610ef2565b6040516101539190612c26565b60405180910390f35b61017660048036038101906101719190612c6d565b610eff565b6040516101839190612c9a565b60405180910390f35b6101a660048036038101906101a1919061278d565b610fab565b6040516101b39190612b8c565b60405180910390f35b6101d660048036038101906101d19190612cbc565b6116ab565b005b6101f260048036038101906101ed919061278d565b6118a8565b6040516101ff9190612b8c565b60405180910390f35b610222600480360381019061021d919061278d565b611fa8565b60405161022f9190612f7f565b60405180910390f35b610252600480360381019061024d9190612bae565b6124fe565b005b60008180516020810182018051848252602083016020850120818352809550505050505060009150905080600001805461028d90612fd0565b80601f01602080910402602001604051908101604052809291908181526020018280546102b990612fd0565b80156103065780601f106102db57610100808354040283529160200191610306565b820191906000526020600020905b8154815290600101906020018083116102e957829003601f168201915b50505050509080600101805461031b90612fd0565b80601f016020809104026020016040519081016040528092919081815260200182805461034790612fd0565b80156103945780601f1061036957610100808354040283529160200191610394565b820191906000526020600020905b81548152906001019060200180831161037757829003601f168201915b5050505050908060020180546103a990612fd0565b80601f01602080910402602001604051908101604052809291908181526020018280546103d590612fd0565b80156104225780601f106103f757610100808354040283529160200191610422565b820191906000526020600020905b81548152906001019060200180831161040557829003601f168201915b50505050509080600301805461043790612fd0565b80601f016020809104026020016040519081016040528092919081815260200182805461046390612fd0565b80156104b05780601f10610485576101008083540402835291602001916104b0565b820191906000526020600020905b81548152906001019060200180831161049357829003601f168201915b5050505050908060040180546104c590612fd0565b80601f01602080910402602001604051908101604052809291908181526020018280546104f190612fd0565b801561053e5780601f106105135761010080835404028352916020019161053e565b820191906000526020600020905b81548152906001019060200180831161052157829003601f168201915b50505050509080600501805461055390612fd0565b80601f016020809104026020016040519081016040528092919081815260200182805461057f90612fd0565b80156105cc5780601f106105a1576101008083540402835291602001916105cc565b820191906000526020600020905b8154815290600101906020018083116105af57829003601f168201915b5050505050908060060154908060070154908060080180546105ed90612fd0565b80601f016020809104026020016040519081016040528092919081815260200182805461061990612fd0565b80156106665780601f1061063b57610100808354040283529160200191610666565b820191906000526020600020905b81548152906001019060200180831161064957829003601f168201915b50505050509080600901805461067b90612fd0565b80601f01602080910402602001604051908101604052809291908181526020018280546106a790612fd0565b80156106f45780601f106106c9576101008083540402835291602001916106f4565b820191906000526020600020905b8154815290600101906020018083116106d757829003601f168201915b50505050509080600a015490508b565b6060600060018054905067ffffffffffffffff81111561072757610726612662565b5b60405190808252806020026020018201604052801561076057816020015b61074d6125d9565b8152602001906001900390816107455790505b50905060005b600180549050811015610c995760006001828154811061078957610788613001565b5b906000526020600020016040516107a091906130d3565b9081526020016040518091039020604051806101600160405290816000820180546107ca90612fd0565b80601f01602080910402602001604051908101604052809291908181526020018280546107f690612fd0565b80156108435780601f1061081857610100808354040283529160200191610843565b820191906000526020600020905b81548152906001019060200180831161082657829003601f168201915b5050505050815260200160018201805461085c90612fd0565b80601f016020809104026020016040519081016040528092919081815260200182805461088890612fd0565b80156108d55780601f106108aa576101008083540402835291602001916108d5565b820191906000526020600020905b8154815290600101906020018083116108b857829003601f168201915b505050505081526020016002820180546108ee90612fd0565b80601f016020809104026020016040519081016040528092919081815260200182805461091a90612fd0565b80156109675780601f1061093c57610100808354040283529160200191610967565b820191906000526020600020905b81548152906001019060200180831161094a57829003601f168201915b5050505050815260200160038201805461098090612fd0565b80601f01602080910402602001604051908101604052809291908181526020018280546109ac90612fd0565b80156109f95780601f106109ce576101008083540402835291602001916109f9565b820191906000526020600020905b8154815290600101906020018083116109dc57829003601f168201915b50505050508152602001600482018054610a1290612fd0565b80601f0160208091040260200160405190810160405280929190818152602001828054610a3e90612fd0565b8015610a8b5780601f10610a6057610100808354040283529160200191610a8b565b820191906000526020600020905b815481529060010190602001808311610a6e57829003601f168201915b50505050508152602001600582018054610aa490612fd0565b80601f0160208091040260200160405190810160405280929190818152602001828054610ad090612fd0565b8015610b1d5780601f10610af257610100808354040283529160200191610b1d565b820191906000526020600020905b815481529060010190602001808311610b0057829003601f168201915b505050505081526020016006820154815260200160078201548152602001600882018054610b4a90612fd0565b80601f0160208091040260200160405190810160405280929190818152602001828054610b7690612fd0565b8015610bc35780601f10610b9857610100808354040283529160200191610bc3565b820191906000526020600020905b815481529060010190602001808311610ba657829003601f168201915b50505050508152602001600982018054610bdc90612fd0565b80601f0160208091040260200160405190810160405280929190818152602001828054610c0890612fd0565b8015610c555780601f10610c2a57610100808354040283529160200191610c55565b820191906000526020600020905b815481529060010190602001808311610c3857829003601f168201915b50505050508152602001600a82015481525050828281518110610c7b57610c7a613001565b5b60200260200101819052508080610c9190613119565b915050610766565b508091505090565b60008083604051610cb29190613192565b90815260200160405180910390206000018054610cce90612fd0565b905003610d10576040517f08c379a0000000000000000000000000000000000000000000000000000000008152600401610d07906131f5565b60405180910390fd5b80600083604051610d219190613192565b90815260200160405180910390206009019081610d3e91906133ac565b506040518060400160405280600481526020017f7061696400000000000000000000000000000000000000000000000000000000815250600083604051610d859190613192565b90815260200160405180910390206004019081610da291906133ac565b507f186c2b6377d1e8f7a4f2acb5a42183967f7d748c4c6e91d623ed00da8f01417d8282604051610dd492919061347e565b60405180910390a17fc61ffb03925558d248fba37b73270b12903d3f0ba5797af8b71a9f8bf0761a9882604051610e0b9190613501565b60405180910390a15050565b60008083604051610e289190613192565b90815260200160405180910390206000018054610e4490612fd0565b905003610e86576040517f08c379a0000000000000000000000000000000000000000000000000000000008152600401610e7d906131f5565b60405180910390fd5b80600083604051610e979190613192565b90815260200160405180910390206005019081610eb491906133ac565b507fb75b1fec1bc9156569ae9f72fb29c6e6727b297e191d358465fff4c09d8f7d268282604051610ee692919061347e565b60405180910390a15050565b6000600180549050905090565b60018181548110610f0f57600080fd5b906000526020600020016000915090508054610f2a90612fd0565b80601f0160208091040260200160405190810160405280929190818152602001828054610f5690612fd0565b8015610fa35780601f10610f7857610100808354040283529160200191610fa3565b820191906000526020600020905b815481529060010190602001808311610f8657829003601f168201915b505050505081565b60606000805b6001805490508110156110705783604051602001610fcf9190613192565b60405160208183030381529060405280519060200120600060018381548110610ffb57610ffa613001565b5b9060005260206000200160405161101291906130d3565b908152602001604051809103902060020160405160200161103391906130d3565b604051602081830303815290604052805190602001200361105d57818061105990613119565b9250505b808061106890613119565b915050610fb1565b5060008167ffffffffffffffff81111561108d5761108c612662565b5b6040519080825280602002602001820160405280156110c657816020015b6110b36125d9565b8152602001906001900390816110ab5790505b5090506000805b60018054905081101561169f57856040516020016110eb9190613192565b6040516020818303038152906040528051906020012060006001838154811061111757611116613001565b5b9060005260206000200160405161112e91906130d3565b908152602001604051809103902060020160405160200161114f91906130d3565b604051602081830303815290604052805190602001200361168c576000600182815481106111805761117f613001565b5b9060005260206000200160405161119791906130d3565b9081526020016040518091039020604051806101600160405290816000820180546111c190612fd0565b80601f01602080910402602001604051908101604052809291908181526020018280546111ed90612fd0565b801561123a5780601f1061120f5761010080835404028352916020019161123a565b820191906000526020600020905b81548152906001019060200180831161121d57829003601f168201915b5050505050815260200160018201805461125390612fd0565b80601f016020809104026020016040519081016040528092919081815260200182805461127f90612fd0565b80156112cc5780601f106112a1576101008083540402835291602001916112cc565b820191906000526020600020905b8154815290600101906020018083116112af57829003601f168201915b505050505081526020016002820180546112e590612fd0565b80601f016020809104026020016040519081016040528092919081815260200182805461131190612fd0565b801561135e5780601f106113335761010080835404028352916020019161135e565b820191906000526020600020905b81548152906001019060200180831161134157829003601f168201915b5050505050815260200160038201805461137790612fd0565b80601f01602080910402602001604051908101604052809291908181526020018280546113a390612fd0565b80156113f05780601f106113c5576101008083540402835291602001916113f0565b820191906000526020600020905b8154815290600101906020018083116113d357829003601f168201915b5050505050815260200160048201805461140990612fd0565b80601f016020809104026020016040519081016040528092919081815260200182805461143590612fd0565b80156114825780601f1061145757610100808354040283529160200191611482565b820191906000526020600020905b81548152906001019060200180831161146557829003601f168201915b5050505050815260200160058201805461149b90612fd0565b80601f01602080910402602001604051908101604052809291908181526020018280546114c790612fd0565b80156115145780601f106114e957610100808354040283529160200191611514565b820191906000526020600020905b8154815290600101906020018083116114f757829003601f168201915b50505050508152602001600682015481526020016007820154815260200160088201805461154190612fd0565b80601f016020809104026020016040519081016040528092919081815260200182805461156d90612fd0565b80156115ba5780601f1061158f576101008083540402835291602001916115ba565b820191906000526020600020905b81548152906001019060200180831161159d57829003601f168201915b505050505081526020016009820180546115d390612fd0565b80601f01602080910402602001604051908101604052809291908181526020018280546115ff90612fd0565b801561164c5780601f106116215761010080835404028352916020019161164c565b820191906000526020600020905b81548152906001019060200180831161162f57829003601f168201915b50505050508152602001600a8201548152505083838151811061167257611671613001565b5b6020026020010181905250818061168890613119565b9250505b808061169790613119565b9150506110cd565b50819350505050919050565b6040518061016001604052808b81526020018a81526020018981526020018881526020018781526020018681526020018581526020018481526020018381526020016040518060400160405280600481526020017f6e756c6c0000000000000000000000000000000000000000000000000000000081525081526020018281525060008b60405161173c9190613192565b9081526020016040518091039020600082015181600001908161175f91906133ac565b50602082015181600101908161177591906133ac565b50604082015181600201908161178b91906133ac565b5060608201518160030190816117a191906133ac565b5060808201518160040190816117b791906133ac565b5060a08201518160050190816117cd91906133ac565b5060c0820151816006015560e082015181600701556101008201518160080190816117f891906133ac565b5061012082015181600901908161180f91906133ac565b5061014082015181600a015590505060018a90806001815401808255809150506001900390600052602060002001600090919091909150908161185291906133ac565b507f5cd3880a2112a5001c77c80fc5f3cc78f5e578532f8fac0609615fc2b10e47278a8a8a8a8a8a8a8a8a8a6040516118949a99989796959493929190613582565b60405180910390a150505050505050505050565b60606000805b60018054905081101561196d57836040516020016118cc9190613192565b604051602081830303815290604052805190602001206000600183815481106118f8576118f7613001565b5b9060005260206000200160405161190f91906130d3565b908152602001604051809103902060010160405160200161193091906130d3565b604051602081830303815290604052805190602001200361195a57818061195690613119565b9250505b808061196590613119565b9150506118ae565b5060008167ffffffffffffffff81111561198a57611989612662565b5b6040519080825280602002602001820160405280156119c357816020015b6119b06125d9565b8152602001906001900390816119a85790505b5090506000805b600180549050811015611f9c57856040516020016119e89190613192565b60405160208183030381529060405280519060200120600060018381548110611a1457611a13613001565b5b90600052602060002001604051611a2b91906130d3565b9081526020016040518091039020600101604051602001611a4c91906130d3565b6040516020818303038152906040528051906020012003611f8957600060018281548110611a7d57611a7c613001565b5b90600052602060002001604051611a9491906130d3565b908152602001604051809103902060405180610160016040529081600082018054611abe90612fd0565b80601f0160208091040260200160405190810160405280929190818152602001828054611aea90612fd0565b8015611b375780601f10611b0c57610100808354040283529160200191611b37565b820191906000526020600020905b815481529060010190602001808311611b1a57829003601f168201915b50505050508152602001600182018054611b5090612fd0565b80601f0160208091040260200160405190810160405280929190818152602001828054611b7c90612fd0565b8015611bc95780601f10611b9e57610100808354040283529160200191611bc9565b820191906000526020600020905b815481529060010190602001808311611bac57829003601f168201915b50505050508152602001600282018054611be290612fd0565b80601f0160208091040260200160405190810160405280929190818152602001828054611c0e90612fd0565b8015611c5b5780601f10611c3057610100808354040283529160200191611c5b565b820191906000526020600020905b815481529060010190602001808311611c3e57829003601f168201915b50505050508152602001600382018054611c7490612fd0565b80601f0160208091040260200160405190810160405280929190818152602001828054611ca090612fd0565b8015611ced5780601f10611cc257610100808354040283529160200191611ced565b820191906000526020600020905b815481529060010190602001808311611cd057829003601f168201915b50505050508152602001600482018054611d0690612fd0565b80601f0160208091040260200160405190810160405280929190818152602001828054611d3290612fd0565b8015611d7f5780601f10611d5457610100808354040283529160200191611d7f565b820191906000526020600020905b815481529060010190602001808311611d6257829003601f168201915b50505050508152602001600582018054611d9890612fd0565b80601f0160208091040260200160405190810160405280929190818152602001828054611dc490612fd0565b8015611e115780601f10611de657610100808354040283529160200191611e11565b820191906000526020600020905b815481529060010190602001808311611df457829003601f168201915b505050505081526020016006820154815260200160078201548152602001600882018054611e3e90612fd0565b80601f0160208091040260200160405190810160405280929190818152602001828054611e6a90612fd0565b8015611eb75780601f10611e8c57610100808354040283529160200191611eb7565b820191906000526020600020905b815481529060010190602001808311611e9a57829003601f168201915b50505050508152602001600982018054611ed090612fd0565b80601f0160208091040260200160405190810160405280929190818152602001828054611efc90612fd0565b8015611f495780601f10611f1e57610100808354040283529160200191611f49565b820191906000526020600020905b815481529060010190602001808311611f2c57829003601f168201915b50505050508152602001600a82015481525050838381518110611f6f57611f6e613001565b5b60200260200101819052508180611f8590613119565b9250505b8080611f9490613119565b9150506119ca565b50819350505050919050565b611fb06125d9565b60008083604051611fc19190613192565b90815260200160405180910390206000018054611fdd90612fd0565b90500361201f576040517f08c379a0000000000000000000000000000000000000000000000000000000008152600401612016906131f5565b60405180910390fd5b60008260405161202f9190613192565b90815260200160405180910390206040518061016001604052908160008201805461205990612fd0565b80601f016020809104026020016040519081016040528092919081815260200182805461208590612fd0565b80156120d25780601f106120a7576101008083540402835291602001916120d2565b820191906000526020600020905b8154815290600101906020018083116120b557829003601f168201915b505050505081526020016001820180546120eb90612fd0565b80601f016020809104026020016040519081016040528092919081815260200182805461211790612fd0565b80156121645780601f1061213957610100808354040283529160200191612164565b820191906000526020600020905b81548152906001019060200180831161214757829003601f168201915b5050505050815260200160028201805461217d90612fd0565b80601f01602080910402602001604051908101604052809291908181526020018280546121a990612fd0565b80156121f65780601f106121cb576101008083540402835291602001916121f6565b820191906000526020600020905b8154815290600101906020018083116121d957829003601f168201915b5050505050815260200160038201805461220f90612fd0565b80601f016020809104026020016040519081016040528092919081815260200182805461223b90612fd0565b80156122885780601f1061225d57610100808354040283529160200191612288565b820191906000526020600020905b81548152906001019060200180831161226b57829003601f168201915b505050505081526020016004820180546122a190612fd0565b80601f01602080910402602001604051908101604052809291908181526020018280546122cd90612fd0565b801561231a5780601f106122ef5761010080835404028352916020019161231a565b820191906000526020600020905b8154815290600101906020018083116122fd57829003601f168201915b5050505050815260200160058201805461233390612fd0565b80601f016020809104026020016040519081016040528092919081815260200182805461235f90612fd0565b80156123ac5780601f10612381576101008083540402835291602001916123ac565b820191906000526020600020905b81548152906001019060200180831161238f57829003601f168201915b5050505050815260200160068201548152602001600782015481526020016008820180546123d990612fd0565b80601f016020809104026020016040519081016040528092919081815260200182805461240590612fd0565b80156124525780601f1061242757610100808354040283529160200191612452565b820191906000526020600020905b81548152906001019060200180831161243557829003601f168201915b5050505050815260200160098201805461246b90612fd0565b80601f016020809104026020016040519081016040528092919081815260200182805461249790612fd0565b80156124e45780601f106124b9576101008083540402835291602001916124e4565b820191906000526020600020905b8154815290600101906020018083116124c757829003601f168201915b50505050508152602001600a820154815250509050919050565b6000808360405161250f9190613192565b9081526020016040518091039020600001805461252b90612fd0565b90500361256d576040517f08c379a0000000000000000000000000000000000000000000000000000000008152600401612564906131f5565b60405180910390fd5b8060008360405161257e9190613192565b9081526020016040518091039020600401908161259b91906133ac565b507fc61ffb03925558d248fba37b73270b12903d3f0ba5797af8b71a9f8bf0761a9882826040516125cd92919061347e565b60405180910390a15050565b60405180610160016040528060608152602001606081526020016060815260200160608152602001606081526020016060815260200160008152602001600081526020016060815260200160608152602001600081525090565b6000604051905090565b600080fd5b600080fd5b600080fd5b600080fd5b6000601f19601f8301169050919050565b7f4e487b7100000000000000000000000000000000000000000000000000000000600052604160045260246000fd5b61269a82612651565b810181811067ffffffffffffffff821117156126b9576126b8612662565b5b80604052505050565b60006126cc612633565b90506126d88282612691565b919050565b600067ffffffffffffffff8211156126f8576126f7612662565b5b61270182612651565b9050602081019050919050565b82818337600083830152505050565b600061273061272b846126dd565b6126c2565b90508281526020810184848401111561274c5761274b61264c565b5b61275784828561270e565b509392505050565b600082601f83011261277457612773612647565b5b813561278484826020860161271d565b91505092915050565b6000602082840312156127a3576127a261263d565b5b600082013567ffffffffffffffff8111156127c1576127c0612642565b5b6127cd8482850161275f565b91505092915050565b600081519050919050565b600082825260208201905092915050565b60005b838110156128105780820151818401526020810190506127f5565b60008484015250505050565b6000612827826127d6565b61283181856127e1565b93506128418185602086016127f2565b61284a81612651565b840191505092915050565b6000819050919050565b61286881612855565b82525050565b6000610160820190508181036000830152612889818e61281c565b9050818103602083015261289d818d61281c565b905081810360408301526128b1818c61281c565b905081810360608301526128c5818b61281c565b905081810360808301526128d9818a61281c565b905081810360a08301526128ed818961281c565b90506128fc60c083018861285f565b61290960e083018761285f565b81810361010083015261291c818661281c565b9050818103610120830152612931818561281c565b905061294161014083018461285f565b9c9b505050505050505050505050565b600081519050919050565b600082825260208201905092915050565b6000819050602082019050919050565b600082825260208201905092915050565b6000612999826127d6565b6129a3818561297d565b93506129b38185602086016127f2565b6129bc81612651565b840191505092915050565b6129d081612855565b82525050565b60006101608301600083015184820360008601526129f4828261298e565b91505060208301518482036020860152612a0e828261298e565b91505060408301518482036040860152612a28828261298e565b91505060608301518482036060860152612a42828261298e565b91505060808301518482036080860152612a5c828261298e565b91505060a083015184820360a0860152612a76828261298e565b91505060c0830151612a8b60c08601826129c7565b5060e0830151612a9e60e08601826129c7565b50610100830151848203610100860152612ab8828261298e565b915050610120830151848203610120860152612ad4828261298e565b915050610140830151612aeb6101408601826129c7565b508091505092915050565b6000612b0283836129d6565b905092915050565b6000602082019050919050565b6000612b2282612951565b612b2c818561295c565b935083602082028501612b3e8561296d565b8060005b85811015612b7a5784840389528151612b5b8582612af6565b9450612b6683612b0a565b925060208a01995050600181019050612b42565b50829750879550505050505092915050565b60006020820190508181036000830152612ba68184612b17565b905092915050565b60008060408385031215612bc557612bc461263d565b5b600083013567ffffffffffffffff811115612be357612be2612642565b5b612bef8582860161275f565b925050602083013567ffffffffffffffff811115612c1057612c0f612642565b5b612c1c8582860161275f565b9150509250929050565b6000602082019050612c3b600083018461285f565b92915050565b612c4a81612855565b8114612c5557600080fd5b50565b600081359050612c6781612c41565b92915050565b600060208284031215612c8357612c8261263d565b5b6000612c9184828501612c58565b91505092915050565b60006020820190508181036000830152612cb4818461281c565b905092915050565b6000806000806000806000806000806101408b8d031215612ce057612cdf61263d565b5b60008b013567ffffffffffffffff811115612cfe57612cfd612642565b5b612d0a8d828e0161275f565b9a505060208b013567ffffffffffffffff811115612d2b57612d2a612642565b5b612d378d828e0161275f565b99505060408b013567ffffffffffffffff811115612d5857612d57612642565b5b612d648d828e0161275f565b98505060608b013567ffffffffffffffff811115612d8557612d84612642565b5b612d918d828e0161275f565b97505060808b013567ffffffffffffffff811115612db257612db1612642565b5b612dbe8d828e0161275f565b96505060a08b013567ffffffffffffffff811115612ddf57612dde612642565b5b612deb8d828e0161275f565b95505060c0612dfc8d828e01612c58565b94505060e0612e0d8d828e01612c58565b9350506101008b013567ffffffffffffffff811115612e2f57612e2e612642565b5b612e3b8d828e0161275f565b925050610120612e4d8d828e01612c58565b9150509295989b9194979a5092959850565b6000610160830160008301518482036000860152612e7d828261298e565b91505060208301518482036020860152612e97828261298e565b91505060408301518482036040860152612eb1828261298e565b91505060608301518482036060860152612ecb828261298e565b91505060808301518482036080860152612ee5828261298e565b91505060a083015184820360a0860152612eff828261298e565b91505060c0830151612f1460c08601826129c7565b5060e0830151612f2760e08601826129c7565b50610100830151848203610100860152612f41828261298e565b915050610120830151848203610120860152612f5d828261298e565b915050610140830151612f746101408601826129c7565b508091505092915050565b60006020820190508181036000830152612f998184612e5f565b905092915050565b7f4e487b7100000000000000000000000000000000000000000000000000000000600052602260045260246000fd5b60006002820490506001821680612fe857607f821691505b602082108103612ffb57612ffa612fa1565b5b50919050565b7f4e487b7100000000000000000000000000000000000000000000000000000000600052603260045260246000fd5b600081905092915050565b60008190508160005260206000209050919050565b6000815461305d81612fd0565b6130678186613030565b945060018216600081146130825760018114613097576130ca565b60ff19831686528115158202860193506130ca565b6130a08561303b565b60005b838110156130c2578154818901526001820191506020810190506130a3565b838801955050505b50505092915050565b60006130df8284613050565b915081905092915050565b7f4e487b7100000000000000000000000000000000000000000000000000000000600052601160045260246000fd5b600061312482612855565b91507fffffffffffffffffffffffffffffffffffffffffffffffffffffffffffffffff8203613156576131556130ea565b5b600182019050919050565b600061316c826127d6565b6131768185613030565b93506131868185602086016127f2565b80840191505092915050565b600061319e8284613161565b915081905092915050565b7f5472616e73616374696f6e20646f6573206e6f74206578697374000000000000600082015250565b60006131df601a836127e1565b91506131ea826131a9565b602082019050919050565b6000602082019050818103600083015261320e816131d2565b9050919050565b60006020601f8301049050919050565b600082821b905092915050565b6000600883026132627fffffffffffffffffffffffffffffffffffffffffffffffffffffffffffffffff82613225565b61326c8683613225565b95508019841693508086168417925050509392505050565b6000819050919050565b60006132a96132a461329f84612855565b613284565b612855565b9050919050565b6000819050919050565b6132c38361328e565b6132d76132cf826132b0565b848454613232565b825550505050565b600090565b6132ec6132df565b6132f78184846132ba565b505050565b5b8181101561331b576133106000826132e4565b6001810190506132fd565b5050565b601f821115613360576133318161303b565b61333a84613215565b81016020851015613349578190505b61335d61335585613215565b8301826132fc565b50505b505050565b600082821c905092915050565b600061338360001984600802613365565b1980831691505092915050565b600061339c8383613372565b9150826002028217905092915050565b6133b5826127d6565b67ffffffffffffffff8111156133ce576133cd612662565b5b6133d88254612fd0565b6133e382828561331f565b600060209050601f8311600181146134165760008415613404578287015190505b61340e8582613390565b865550613476565b601f1984166134248661303b565b60005b8281101561344c57848901518255600182019150602085019450602081019050613427565b868310156134695784890151613465601f891682613372565b8355505b6001600288020188555050505b505050505050565b60006040820190508181036000830152613498818561281c565b905081810360208301526134ac818461281c565b90509392505050565b7f7061696400000000000000000000000000000000000000000000000000000000600082015250565b60006134eb6004836127e1565b91506134f6826134b5565b602082019050919050565b6000604082019050818103600083015261351b818461281c565b9050818103602083015261352e816134de565b905092915050565b7f6e756c6c00000000000000000000000000000000000000000000000000000000600082015250565b600061356c6004836127e1565b915061357782613536565b602082019050919050565b600061016082019050818103600083015261359d818d61281c565b905081810360208301526135b1818c61281c565b905081810360408301526135c5818b61281c565b905081810360608301526135d9818a61281c565b905081810360808301526135ed818961281c565b905081810360a0830152613601818861281c565b905061361060c083018761285f565b61361d60e083018661285f565b818103610100830152613630818561281c565b90508181036101208301526136448161355f565b905061365461014083018461285f565b9b9a505050505050505050505056fea264697066735822122016ffa0ce80cf00dd3e75eb9b5b6078484be642677a8101dfa7cfdf6c897781f564736f6c63430008100033",
			"opcodes": "PUSH1 0x80 PUSH1 0x40 MSTORE CALLVALUE DUP1 ISZERO PUSH2 0x10 JUMPI PUSH1 0x0 DUP1 REVERT JUMPDEST POP PUSH2 0x3699 DUP1 PUSH2 0x20 PUSH1 0x0 CODECOPY PUSH1 0x0 RETURN INVALID PUSH1 0x80 PUSH1 0x40 MSTORE CALLVALUE DUP1 ISZERO PUSH2 0x10 JUMPI PUSH1 0x0 DUP1 REVERT JUMPDEST POP PUSH1 0x4 CALLDATASIZE LT PUSH2 0xA9 JUMPI PUSH1 0x0 CALLDATALOAD PUSH1 0xE0 SHR DUP1 PUSH4 0x7CE99C58 GT PUSH2 0x71 JUMPI DUP1 PUSH4 0x7CE99C58 EQ PUSH2 0x15C JUMPI DUP1 PUSH4 0x7EE9ED47 EQ PUSH2 0x18C JUMPI DUP1 PUSH4 0x814CB8EB EQ PUSH2 0x1BC JUMPI DUP1 PUSH4 0x9DB897DD EQ PUSH2 0x1D8 JUMPI DUP1 PUSH4 0xD339B0EC EQ PUSH2 0x208 JUMPI DUP1 PUSH4 0xFFF50461 EQ PUSH2 0x238 JUMPI PUSH2 0xA9 JUMP JUMPDEST DUP1 PUSH4 0x22236F4 EQ PUSH2 0xAE JUMPI DUP1 PUSH4 0x27506F53 EQ PUSH2 0xE8 JUMPI DUP1 PUSH4 0x2B47300D EQ PUSH2 0x106 JUMPI DUP1 PUSH4 0x347047CC EQ PUSH2 0x122 JUMPI DUP1 PUSH4 0x77839EB7 EQ PUSH2 0x13E JUMPI JUMPDEST PUSH1 0x0 DUP1 REVERT JUMPDEST PUSH2 0xC8 PUSH1 0x4 DUP1 CALLDATASIZE SUB DUP2 ADD SWAP1 PUSH2 0xC3 SWAP2 SWAP1 PUSH2 0x278D JUMP JUMPDEST PUSH2 0x254 JUMP JUMPDEST PUSH1 0x40 MLOAD PUSH2 0xDF SWAP12 SWAP11 SWAP10 SWAP9 SWAP8 SWAP7 SWAP6 SWAP5 SWAP4 SWAP3 SWAP2 SWAP1 PUSH2 0x286E JUMP JUMPDEST PUSH1 0x40 MLOAD DUP1 SWAP2 SUB SWAP1 RETURN JUMPDEST PUSH2 0xF0 PUSH2 0x704 JUMP JUMPDEST PUSH1 0x40 MLOAD PUSH2 0xFD SWAP2 SWAP1 PUSH2 0x2B8C JUMP JUMPDEST PUSH1 0x40 MLOAD DUP1 SWAP2 SUB SWAP1 RETURN JUMPDEST PUSH2 0x120 PUSH1 0x4 DUP1 CALLDATASIZE SUB DUP2 ADD SWAP1 PUSH2 0x11B SWAP2 SWAP1 PUSH2 0x2BAE JUMP JUMPDEST PUSH2 0xCA1 JUMP JUMPDEST STOP JUMPDEST PUSH2 0x13C PUSH1 0x4 DUP1 CALLDATASIZE SUB DUP2 ADD SWAP1 PUSH2 0x137 SWAP2 SWAP1 PUSH2 0x2BAE JUMP JUMPDEST PUSH2 0xE17 JUMP JUMPDEST STOP JUMPDEST PUSH2 0x146 PUSH2 0xEF2 JUMP JUMPDEST PUSH1 0x40 MLOAD PUSH2 0x153 SWAP2 SWAP1 PUSH2 0x2C26 JUMP JUMPDEST PUSH1 0x40 MLOAD DUP1 SWAP2 SUB SWAP1 RETURN JUMPDEST PUSH2 0x176 PUSH1 0x4 DUP1 CALLDATASIZE SUB DUP2 ADD SWAP1 PUSH2 0x171 SWAP2 SWAP1 PUSH2 0x2C6D JUMP JUMPDEST PUSH2 0xEFF JUMP JUMPDEST PUSH1 0x40 MLOAD PUSH2 0x183 SWAP2 SWAP1 PUSH2 0x2C9A JUMP JUMPDEST PUSH1 0x40 MLOAD DUP1 SWAP2 SUB SWAP1 RETURN JUMPDEST PUSH2 0x1A6 PUSH1 0x4 DUP1 CALLDATASIZE SUB DUP2 ADD SWAP1 PUSH2 0x1A1 SWAP2 SWAP1 PUSH2 0x278D JUMP JUMPDEST PUSH2 0xFAB JUMP JUMPDEST PUSH1 0x40 MLOAD PUSH2 0x1B3 SWAP2 SWAP1 PUSH2 0x2B8C JUMP JUMPDEST PUSH1 0x40 MLOAD DUP1 SWAP2 SUB SWAP1 RETURN JUMPDEST PUSH2 0x1D6 PUSH1 0x4 DUP1 CALLDATASIZE SUB DUP2 ADD SWAP1 PUSH2 0x1D1 SWAP2 SWAP1 PUSH2 0x2CBC JUMP JUMPDEST PUSH2 0x16AB JUMP JUMPDEST STOP JUMPDEST PUSH2 0x1F2 PUSH1 0x4 DUP1 CALLDATASIZE SUB DUP2 ADD SWAP1 PUSH2 0x1ED SWAP2 SWAP1 PUSH2 0x278D JUMP JUMPDEST PUSH2 0x18A8 JUMP JUMPDEST PUSH1 0x40 MLOAD PUSH2 0x1FF SWAP2 SWAP1 PUSH2 0x2B8C JUMP JUMPDEST PUSH1 0x40 MLOAD DUP1 SWAP2 SUB SWAP1 RETURN JUMPDEST PUSH2 0x222 PUSH1 0x4 DUP1 CALLDATASIZE SUB DUP2 ADD SWAP1 PUSH2 0x21D SWAP2 SWAP1 PUSH2 0x278D JUMP JUMPDEST PUSH2 0x1FA8 JUMP JUMPDEST PUSH1 0x40 MLOAD PUSH2 0x22F SWAP2 SWAP1 PUSH2 0x2F7F JUMP JUMPDEST PUSH1 0x40 MLOAD DUP1 SWAP2 SUB SWAP1 RETURN JUMPDEST PUSH2 0x252 PUSH1 0x4 DUP1 CALLDATASIZE SUB DUP2 ADD SWAP1 PUSH2 0x24D SWAP2 SWAP1 PUSH2 0x2BAE JUMP JUMPDEST PUSH2 0x24FE JUMP JUMPDEST STOP JUMPDEST PUSH1 0x0 DUP2 DUP1 MLOAD PUSH1 0x20 DUP2 ADD DUP3 ADD DUP1 MLOAD DUP5 DUP3 MSTORE PUSH1 0x20 DUP4 ADD PUSH1 0x20 DUP6 ADD KECCAK256 DUP2 DUP4 MSTORE DUP1 SWAP6 POP POP POP POP POP POP PUSH1 0x0 SWAP2 POP SWAP1 POP DUP1 PUSH1 0x0 ADD DUP1 SLOAD PUSH2 0x28D SWAP1 PUSH2 0x2FD0 JUMP JUMPDEST DUP1 PUSH1 0x1F ADD PUSH1 0x20 DUP1 SWAP2 DIV MUL PUSH1 0x20 ADD PUSH1 0x40 MLOAD SWAP1 DUP2 ADD PUSH1 0x40 MSTORE DUP1 SWAP3 SWAP2 SWAP1 DUP2 DUP2 MSTORE PUSH1 0x20 ADD DUP3 DUP1 SLOAD PUSH2 0x2B9 SWAP1 PUSH2 0x2FD0 JUMP JUMPDEST DUP1 ISZERO PUSH2 0x306 JUMPI DUP1 PUSH1 0x1F LT PUSH2 0x2DB JUMPI PUSH2 0x100 DUP1 DUP4 SLOAD DIV MUL DUP4 MSTORE SWAP2 PUSH1 0x20 ADD SWAP2 PUSH2 0x306 JUMP JUMPDEST DUP3 ADD SWAP2 SWAP1 PUSH1 0x0 MSTORE PUSH1 0x20 PUSH1 0x0 KECCAK256 SWAP1 JUMPDEST DUP2 SLOAD DUP2 MSTORE SWAP1 PUSH1 0x1 ADD SWAP1 PUSH1 0x20 ADD DUP1 DUP4 GT PUSH2 0x2E9 JUMPI DUP3 SWAP1 SUB PUSH1 0x1F AND DUP3 ADD SWAP2 JUMPDEST POP POP POP POP POP SWAP1 DUP1 PUSH1 0x1 ADD DUP1 SLOAD PUSH2 0x31B SWAP1 PUSH2 0x2FD0 JUMP JUMPDEST DUP1 PUSH1 0x1F ADD PUSH1 0x20 DUP1 SWAP2 DIV MUL PUSH1 0x20 ADD PUSH1 0x40 MLOAD SWAP1 DUP2 ADD PUSH1 0x40 MSTORE DUP1 SWAP3 SWAP2 SWAP1 DUP2 DUP2 MSTORE PUSH1 0x20 ADD DUP3 DUP1 SLOAD PUSH2 0x347 SWAP1 PUSH2 0x2FD0 JUMP JUMPDEST DUP1 ISZERO PUSH2 0x394 JUMPI DUP1 PUSH1 0x1F LT PUSH2 0x369 JUMPI PUSH2 0x100 DUP1 DUP4 SLOAD DIV MUL DUP4 MSTORE SWAP2 PUSH1 0x20 ADD SWAP2 PUSH2 0x394 JUMP JUMPDEST DUP3 ADD SWAP2 SWAP1 PUSH1 0x0 MSTORE PUSH1 0x20 PUSH1 0x0 KECCAK256 SWAP1 JUMPDEST DUP2 SLOAD DUP2 MSTORE SWAP1 PUSH1 0x1 ADD SWAP1 PUSH1 0x20 ADD DUP1 DUP4 GT PUSH2 0x377 JUMPI DUP3 SWAP1 SUB PUSH1 0x1F AND DUP3 ADD SWAP2 JUMPDEST POP POP POP POP POP SWAP1 DUP1 PUSH1 0x2 ADD DUP1 SLOAD PUSH2 0x3A9 SWAP1 PUSH2 0x2FD0 JUMP JUMPDEST DUP1 PUSH1 0x1F ADD PUSH1 0x20 DUP1 SWAP2 DIV MUL PUSH1 0x20 ADD PUSH1 0x40 MLOAD SWAP1 DUP2 ADD PUSH1 0x40 MSTORE DUP1 SWAP3 SWAP2 SWAP1 DUP2 DUP2 MSTORE PUSH1 0x20 ADD DUP3 DUP1 SLOAD PUSH2 0x3D5 SWAP1 PUSH2 0x2FD0 JUMP JUMPDEST DUP1 ISZERO PUSH2 0x422 JUMPI DUP1 PUSH1 0x1F LT PUSH2 0x3F7 JUMPI PUSH2 0x100 DUP1 DUP4 SLOAD DIV MUL DUP4 MSTORE SWAP2 PUSH1 0x20 ADD SWAP2 PUSH2 0x422 JUMP JUMPDEST DUP3 ADD SWAP2 SWAP1 PUSH1 0x0 MSTORE PUSH1 0x20 PUSH1 0x0 KECCAK256 SWAP1 JUMPDEST DUP2 SLOAD DUP2 MSTORE SWAP1 PUSH1 0x1 ADD SWAP1 PUSH1 0x20 ADD DUP1 DUP4 GT PUSH2 0x405 JUMPI DUP3 SWAP1 SUB PUSH1 0x1F AND DUP3 ADD SWAP2 JUMPDEST POP POP POP POP POP SWAP1 DUP1 PUSH1 0x3 ADD DUP1 SLOAD PUSH2 0x437 SWAP1 PUSH2 0x2FD0 JUMP JUMPDEST DUP1 PUSH1 0x1F ADD PUSH1 0x20 DUP1 SWAP2 DIV MUL PUSH1 0x20 ADD PUSH1 0x40 MLOAD SWAP1 DUP2 ADD PUSH1 0x40 MSTORE DUP1 SWAP3 SWAP2 SWAP1 DUP2 DUP2 MSTORE PUSH1 0x20 ADD DUP3 DUP1 SLOAD PUSH2 0x463 SWAP1 PUSH2 0x2FD0 JUMP JUMPDEST DUP1 ISZERO PUSH2 0x4B0 JUMPI DUP1 PUSH1 0x1F LT PUSH2 0x485 JUMPI PUSH2 0x100 DUP1 DUP4 SLOAD DIV MUL DUP4 MSTORE SWAP2 PUSH1 0x20 ADD SWAP2 PUSH2 0x4B0 JUMP JUMPDEST DUP3 ADD SWAP2 SWAP1 PUSH1 0x0 MSTORE PUSH1 0x20 PUSH1 0x0 KECCAK256 SWAP1 JUMPDEST DUP2 SLOAD DUP2 MSTORE SWAP1 PUSH1 0x1 ADD SWAP1 PUSH1 0x20 ADD DUP1 DUP4 GT PUSH2 0x493 JUMPI DUP3 SWAP1 SUB PUSH1 0x1F AND DUP3 ADD SWAP2 JUMPDEST POP POP POP POP POP SWAP1 DUP1 PUSH1 0x4 ADD DUP1 SLOAD PUSH2 0x4C5 SWAP1 PUSH2 0x2FD0 JUMP JUMPDEST DUP1 PUSH1 0x1F ADD PUSH1 0x20 DUP1 SWAP2 DIV MUL PUSH1 0x20 ADD PUSH1 0x40 MLOAD SWAP1 DUP2 ADD PUSH1 0x40 MSTORE DUP1 SWAP3 SWAP2 SWAP1 DUP2 DUP2 MSTORE PUSH1 0x20 ADD DUP3 DUP1 SLOAD PUSH2 0x4F1 SWAP1 PUSH2 0x2FD0 JUMP JUMPDEST DUP1 ISZERO PUSH2 0x53E JUMPI DUP1 PUSH1 0x1F LT PUSH2 0x513 JUMPI PUSH2 0x100 DUP1 DUP4 SLOAD DIV MUL DUP4 MSTORE SWAP2 PUSH1 0x20 ADD SWAP2 PUSH2 0x53E JUMP JUMPDEST DUP3 ADD SWAP2 SWAP1 PUSH1 0x0 MSTORE PUSH1 0x20 PUSH1 0x0 KECCAK256 SWAP1 JUMPDEST DUP2 SLOAD DUP2 MSTORE SWAP1 PUSH1 0x1 ADD SWAP1 PUSH1 0x20 ADD DUP1 DUP4 GT PUSH2 0x521 JUMPI DUP3 SWAP1 SUB PUSH1 0x1F AND DUP3 ADD SWAP2 JUMPDEST POP POP POP POP POP SWAP1 DUP1 PUSH1 0x5 ADD DUP1 SLOAD PUSH2 0x553 SWAP1 PUSH2 0x2FD0 JUMP JUMPDEST DUP1 PUSH1 0x1F ADD PUSH1 0x20 DUP1 SWAP2 DIV MUL PUSH1 0x20 ADD PUSH1 0x40 MLOAD SWAP1 DUP2 ADD PUSH1 0x40 MSTORE DUP1 SWAP3 SWAP2 SWAP1 DUP2 DUP2 MSTORE PUSH1 0x20 ADD DUP3 DUP1 SLOAD PUSH2 0x57F SWAP1 PUSH2 0x2FD0 JUMP JUMPDEST DUP1 ISZERO PUSH2 0x5CC JUMPI DUP1 PUSH1 0x1F LT PUSH2 0x5A1 JUMPI PUSH2 0x100 DUP1 DUP4 SLOAD DIV MUL DUP4 MSTORE SWAP2 PUSH1 0x20 ADD SWAP2 PUSH2 0x5CC JUMP JUMPDEST DUP3 ADD SWAP2 SWAP1 PUSH1 0x0 MSTORE PUSH1 0x20 PUSH1 0x0 KECCAK256 SWAP1 JUMPDEST DUP2 SLOAD DUP2 MSTORE SWAP1 PUSH1 0x1 ADD SWAP1 PUSH1 0x20 ADD DUP1 DUP4 GT PUSH2 0x5AF JUMPI DUP3 SWAP1 SUB PUSH1 0x1F AND DUP3 ADD SWAP2 JUMPDEST POP POP POP POP POP SWAP1 DUP1 PUSH1 0x6 ADD SLOAD SWAP1 DUP1 PUSH1 0x7 ADD SLOAD SWAP1 DUP1 PUSH1 0x8 ADD DUP1 SLOAD PUSH2 0x5ED SWAP1 PUSH2 0x2FD0 JUMP JUMPDEST DUP1 PUSH1 0x1F ADD PUSH1 0x20 DUP1 SWAP2 DIV MUL PUSH1 0x20 ADD PUSH1 0x40 MLOAD SWAP1 DUP2 ADD PUSH1 0x40 MSTORE DUP1 SWAP3 SWAP2 SWAP1 DUP2 DUP2 MSTORE PUSH1 0x20 ADD DUP3 DUP1 SLOAD PUSH2 0x619 SWAP1 PUSH2 0x2FD0 JUMP JUMPDEST DUP1 ISZERO PUSH2 0x666 JUMPI DUP1 PUSH1 0x1F LT PUSH2 0x63B JUMPI PUSH2 0x100 DUP1 DUP4 SLOAD DIV MUL DUP4 MSTORE SWAP2 PUSH1 0x20 ADD SWAP2 PUSH2 0x666 JUMP JUMPDEST DUP3 ADD SWAP2 SWAP1 PUSH1 0x0 MSTORE PUSH1 0x20 PUSH1 0x0 KECCAK256 SWAP1 JUMPDEST DUP2 SLOAD DUP2 MSTORE SWAP1 PUSH1 0x1 ADD SWAP1 PUSH1 0x20 ADD DUP1 DUP4 GT PUSH2 0x649 JUMPI DUP3 SWAP1 SUB PUSH1 0x1F AND DUP3 ADD SWAP2 JUMPDEST POP POP POP POP POP SWAP1 DUP1 PUSH1 0x9 ADD DUP1 SLOAD PUSH2 0x67B SWAP1 PUSH2 0x2FD0 JUMP JUMPDEST DUP1 PUSH1 0x1F ADD PUSH1 0x20 DUP1 SWAP2 DIV MUL PUSH1 0x20 ADD PUSH1 0x40 MLOAD SWAP1 DUP2 ADD PUSH1 0x40 MSTORE DUP1 SWAP3 SWAP2 SWAP1 DUP2 DUP2 MSTORE PUSH1 0x20 ADD DUP3 DUP1 SLOAD PUSH2 0x6A7 SWAP1 PUSH2 0x2FD0 JUMP JUMPDEST DUP1 ISZERO PUSH2 0x6F4 JUMPI DUP1 PUSH1 0x1F LT PUSH2 0x6C9 JUMPI PUSH2 0x100 DUP1 DUP4 SLOAD DIV MUL DUP4 MSTORE SWAP2 PUSH1 0x20 ADD SWAP2 PUSH2 0x6F4 JUMP JUMPDEST DUP3 ADD SWAP2 SWAP1 PUSH1 0x0 MSTORE PUSH1 0x20 PUSH1 0x0 KECCAK256 SWAP1 JUMPDEST DUP2 SLOAD DUP2 MSTORE SWAP1 PUSH1 0x1 ADD SWAP1 PUSH1 0x20 ADD DUP1 DUP4 GT PUSH2 0x6D7 JUMPI DUP3 SWAP1 SUB PUSH1 0x1F AND DUP3 ADD SWAP2 JUMPDEST POP POP POP POP POP SWAP1 DUP1 PUSH1 0xA ADD SLOAD SWAP1 POP DUP12 JUMP JUMPDEST PUSH1 0x60 PUSH1 0x0 PUSH1 0x1 DUP1 SLOAD SWAP1 POP PUSH8 0xFFFFFFFFFFFFFFFF DUP2 GT ISZERO PUSH2 0x727 JUMPI PUSH2 0x726 PUSH2 0x2662 JUMP JUMPDEST JUMPDEST PUSH1 0x40 MLOAD SWAP1 DUP1 DUP3 MSTORE DUP1 PUSH1 0x20 MUL PUSH1 0x20 ADD DUP3 ADD PUSH1 0x40 MSTORE DUP1 ISZERO PUSH2 0x760 JUMPI DUP2 PUSH1 0x20 ADD JUMPDEST PUSH2 0x74D PUSH2 0x25D9 JUMP JUMPDEST DUP2 MSTORE PUSH1 0x20 ADD SWAP1 PUSH1 0x1 SWAP1 SUB SWAP1 DUP2 PUSH2 0x745 JUMPI SWAP1 POP JUMPDEST POP SWAP1 POP PUSH1 0x0 JUMPDEST PUSH1 0x1 DUP1 SLOAD SWAP1 POP DUP2 LT ISZERO PUSH2 0xC99 JUMPI PUSH1 0x0 PUSH1 0x1 DUP3 DUP2 SLOAD DUP2 LT PUSH2 0x789 JUMPI PUSH2 0x788 PUSH2 0x3001 JUMP JUMPDEST JUMPDEST SWAP1 PUSH1 0x0 MSTORE PUSH1 0x20 PUSH1 0x0 KECCAK256 ADD PUSH1 0x40 MLOAD PUSH2 0x7A0 SWAP2 SWAP1 PUSH2 0x30D3 JUMP JUMPDEST SWAP1 DUP2 MSTORE PUSH1 0x20 ADD PUSH1 0x40 MLOAD DUP1 SWAP2 SUB SWAP1 KECCAK256 PUSH1 0x40 MLOAD DUP1 PUSH2 0x160 ADD PUSH1 0x40 MSTORE SWAP1 DUP2 PUSH1 0x0 DUP3 ADD DUP1 SLOAD PUSH2 0x7CA SWAP1 PUSH2 0x2FD0 JUMP JUMPDEST DUP1 PUSH1 0x1F ADD PUSH1 0x20 DUP1 SWAP2 DIV MUL PUSH1 0x20 ADD PUSH1 0x40 MLOAD SWAP1 DUP2 ADD PUSH1 0x40 MSTORE DUP1 SWAP3 SWAP2 SWAP1 DUP2 DUP2 MSTORE PUSH1 0x20 ADD DUP3 DUP1 SLOAD PUSH2 0x7F6 SWAP1 PUSH2 0x2FD0 JUMP JUMPDEST DUP1 ISZERO PUSH2 0x843 JUMPI DUP1 PUSH1 0x1F LT PUSH2 0x818 JUMPI PUSH2 0x100 DUP1 DUP4 SLOAD DIV MUL DUP4 MSTORE SWAP2 PUSH1 0x20 ADD SWAP2 PUSH2 0x843 JUMP JUMPDEST DUP3 ADD SWAP2 SWAP1 PUSH1 0x0 MSTORE PUSH1 0x20 PUSH1 0x0 KECCAK256 SWAP1 JUMPDEST DUP2 SLOAD DUP2 MSTORE SWAP1 PUSH1 0x1 ADD SWAP1 PUSH1 0x20 ADD DUP1 DUP4 GT PUSH2 0x826 JUMPI DUP3 SWAP1 SUB PUSH1 0x1F AND DUP3 ADD SWAP2 JUMPDEST POP POP POP POP POP DUP2 MSTORE PUSH1 0x20 ADD PUSH1 0x1 DUP3 ADD DUP1 SLOAD PUSH2 0x85C SWAP1 PUSH2 0x2FD0 JUMP JUMPDEST DUP1 PUSH1 0x1F ADD PUSH1 0x20 DUP1 SWAP2 DIV MUL PUSH1 0x20 ADD PUSH1 0x40 MLOAD SWAP1 DUP2 ADD PUSH1 0x40 MSTORE DUP1 SWAP3 SWAP2 SWAP1 DUP2 DUP2 MSTORE PUSH1 0x20 ADD DUP3 DUP1 SLOAD PUSH2 0x888 SWAP1 PUSH2 0x2FD0 JUMP JUMPDEST DUP1 ISZERO PUSH2 0x8D5 JUMPI DUP1 PUSH1 0x1F LT PUSH2 0x8AA JUMPI PUSH2 0x100 DUP1 DUP4 SLOAD DIV MUL DUP4 MSTORE SWAP2 PUSH1 0x20 ADD SWAP2 PUSH2 0x8D5 JUMP JUMPDEST DUP3 ADD SWAP2 SWAP1 PUSH1 0x0 MSTORE PUSH1 0x20 PUSH1 0x0 KECCAK256 SWAP1 JUMPDEST DUP2 SLOAD DUP2 MSTORE SWAP1 PUSH1 0x1 ADD SWAP1 PUSH1 0x20 ADD DUP1 DUP4 GT PUSH2 0x8B8 JUMPI DUP3 SWAP1 SUB PUSH1 0x1F AND DUP3 ADD SWAP2 JUMPDEST POP POP POP POP POP DUP2 MSTORE PUSH1 0x20 ADD PUSH1 0x2 DUP3 ADD DUP1 SLOAD PUSH2 0x8EE SWAP1 PUSH2 0x2FD0 JUMP JUMPDEST DUP1 PUSH1 0x1F ADD PUSH1 0x20 DUP1 SWAP2 DIV MUL PUSH1 0x20 ADD PUSH1 0x40 MLOAD SWAP1 DUP2 ADD PUSH1 0x40 MSTORE DUP1 SWAP3 SWAP2 SWAP1 DUP2 DUP2 MSTORE PUSH1 0x20 ADD DUP3 DUP1 SLOAD PUSH2 0x91A SWAP1 PUSH2 0x2FD0 JUMP JUMPDEST DUP1 ISZERO PUSH2 0x967 JUMPI DUP1 PUSH1 0x1F LT PUSH2 0x93C JUMPI PUSH2 0x100 DUP1 DUP4 SLOAD DIV MUL DUP4 MSTORE SWAP2 PUSH1 0x20 ADD SWAP2 PUSH2 0x967 JUMP JUMPDEST DUP3 ADD SWAP2 SWAP1 PUSH1 0x0 MSTORE PUSH1 0x20 PUSH1 0x0 KECCAK256 SWAP1 JUMPDEST DUP2 SLOAD DUP2 MSTORE SWAP1 PUSH1 0x1 ADD SWAP1 PUSH1 0x20 ADD DUP1 DUP4 GT PUSH2 0x94A JUMPI DUP3 SWAP1 SUB PUSH1 0x1F AND DUP3 ADD SWAP2 JUMPDEST POP POP POP POP POP DUP2 MSTORE PUSH1 0x20 ADD PUSH1 0x3 DUP3 ADD DUP1 SLOAD PUSH2 0x980 SWAP1 PUSH2 0x2FD0 JUMP JUMPDEST DUP1 PUSH1 0x1F ADD PUSH1 0x20 DUP1 SWAP2 DIV MUL PUSH1 0x20 ADD PUSH1 0x40 MLOAD SWAP1 DUP2 ADD PUSH1 0x40 MSTORE DUP1 SWAP3 SWAP2 SWAP1 DUP2 DUP2 MSTORE PUSH1 0x20 ADD DUP3 DUP1 SLOAD PUSH2 0x9AC SWAP1 PUSH2 0x2FD0 JUMP JUMPDEST DUP1 ISZERO PUSH2 0x9F9 JUMPI DUP1 PUSH1 0x1F LT PUSH2 0x9CE JUMPI PUSH2 0x100 DUP1 DUP4 SLOAD DIV MUL DUP4 MSTORE SWAP2 PUSH1 0x20 ADD SWAP2 PUSH2 0x9F9 JUMP JUMPDEST DUP3 ADD SWAP2 SWAP1 PUSH1 0x0 MSTORE PUSH1 0x20 PUSH1 0x0 KECCAK256 SWAP1 JUMPDEST DUP2 SLOAD DUP2 MSTORE SWAP1 PUSH1 0x1 ADD SWAP1 PUSH1 0x20 ADD DUP1 DUP4 GT PUSH2 0x9DC JUMPI DUP3 SWAP1 SUB PUSH1 0x1F AND DUP3 ADD SWAP2 JUMPDEST POP POP POP POP POP DUP2 MSTORE PUSH1 0x20 ADD PUSH1 0x4 DUP3 ADD DUP1 SLOAD PUSH2 0xA12 SWAP1 PUSH2 0x2FD0 JUMP JUMPDEST DUP1 PUSH1 0x1F ADD PUSH1 0x20 DUP1 SWAP2 DIV MUL PUSH1 0x20 ADD PUSH1 0x40 MLOAD SWAP1 DUP2 ADD PUSH1 0x40 MSTORE DUP1 SWAP3 SWAP2 SWAP1 DUP2 DUP2 MSTORE PUSH1 0x20 ADD DUP3 DUP1 SLOAD PUSH2 0xA3E SWAP1 PUSH2 0x2FD0 JUMP JUMPDEST DUP1 ISZERO PUSH2 0xA8B JUMPI DUP1 PUSH1 0x1F LT PUSH2 0xA60 JUMPI PUSH2 0x100 DUP1 DUP4 SLOAD DIV MUL DUP4 MSTORE SWAP2 PUSH1 0x20 ADD SWAP2 PUSH2 0xA8B JUMP JUMPDEST DUP3 ADD SWAP2 SWAP1 PUSH1 0x0 MSTORE PUSH1 0x20 PUSH1 0x0 KECCAK256 SWAP1 JUMPDEST DUP2 SLOAD DUP2 MSTORE SWAP1 PUSH1 0x1 ADD SWAP1 PUSH1 0x20 ADD DUP1 DUP4 GT PUSH2 0xA6E JUMPI DUP3 SWAP1 SUB PUSH1 0x1F AND DUP3 ADD SWAP2 JUMPDEST POP POP POP POP POP DUP2 MSTORE PUSH1 0x20 ADD PUSH1 0x5 DUP3 ADD DUP1 SLOAD PUSH2 0xAA4 SWAP1 PUSH2 0x2FD0 JUMP JUMPDEST DUP1 PUSH1 0x1F ADD PUSH1 0x20 DUP1 SWAP2 DIV MUL PUSH1 0x20 ADD PUSH1 0x40 MLOAD SWAP1 DUP2 ADD PUSH1 0x40 MSTORE DUP1 SWAP3 SWAP2 SWAP1 DUP2 DUP2 MSTORE PUSH1 0x20 ADD DUP3 DUP1 SLOAD PUSH2 0xAD0 SWAP1 PUSH2 0x2FD0 JUMP JUMPDEST DUP1 ISZERO PUSH2 0xB1D JUMPI DUP1 PUSH1 0x1F LT PUSH2 0xAF2 JUMPI PUSH2 0x100 DUP1 DUP4 SLOAD DIV MUL DUP4 MSTORE SWAP2 PUSH1 0x20 ADD SWAP2 PUSH2 0xB1D JUMP JUMPDEST DUP3 ADD SWAP2 SWAP1 PUSH1 0x0 MSTORE PUSH1 0x20 PUSH1 0x0 KECCAK256 SWAP1 JUMPDEST DUP2 SLOAD DUP2 MSTORE SWAP1 PUSH1 0x1 ADD SWAP1 PUSH1 0x20 ADD DUP1 DUP4 GT PUSH2 0xB00 JUMPI DUP3 SWAP1 SUB PUSH1 0x1F AND DUP3 ADD SWAP2 JUMPDEST POP POP POP POP POP DUP2 MSTORE PUSH1 0x20 ADD PUSH1 0x6 DUP3 ADD SLOAD DUP2 MSTORE PUSH1 0x20 ADD PUSH1 0x7 DUP3 ADD SLOAD DUP2 MSTORE PUSH1 0x20 ADD PUSH1 0x8 DUP3 ADD DUP1 SLOAD PUSH2 0xB4A SWAP1 PUSH2 0x2FD0 JUMP JUMPDEST DUP1 PUSH1 0x1F ADD PUSH1 0x20 DUP1 SWAP2 DIV MUL PUSH1 0x20 ADD PUSH1 0x40 MLOAD SWAP1 DUP2 ADD PUSH1 0x40 MSTORE DUP1 SWAP3 SWAP2 SWAP1 DUP2 DUP2 MSTORE PUSH1 0x20 ADD DUP3 DUP1 SLOAD PUSH2 0xB76 SWAP1 PUSH2 0x2FD0 JUMP JUMPDEST DUP1 ISZERO PUSH2 0xBC3 JUMPI DUP1 PUSH1 0x1F LT PUSH2 0xB98 JUMPI PUSH2 0x100 DUP1 DUP4 SLOAD DIV MUL DUP4 MSTORE SWAP2 PUSH1 0x20 ADD SWAP2 PUSH2 0xBC3 JUMP JUMPDEST DUP3 ADD SWAP2 SWAP1 PUSH1 0x0 MSTORE PUSH1 0x20 PUSH1 0x0 KECCAK256 SWAP1 JUMPDEST DUP2 SLOAD DUP2 MSTORE SWAP1 PUSH1 0x1 ADD SWAP1 PUSH1 0x20 ADD DUP1 DUP4 GT PUSH2 0xBA6 JUMPI DUP3 SWAP1 SUB PUSH1 0x1F AND DUP3 ADD SWAP2 JUMPDEST POP POP POP POP POP DUP2 MSTORE PUSH1 0x20 ADD PUSH1 0x9 DUP3 ADD DUP1 SLOAD PUSH2 0xBDC SWAP1 PUSH2 0x2FD0 JUMP JUMPDEST DUP1 PUSH1 0x1F ADD PUSH1 0x20 DUP1 SWAP2 DIV MUL PUSH1 0x20 ADD PUSH1 0x40 MLOAD SWAP1 DUP2 ADD PUSH1 0x40 MSTORE DUP1 SWAP3 SWAP2 SWAP1 DUP2 DUP2 MSTORE PUSH1 0x20 ADD DUP3 DUP1 SLOAD PUSH2 0xC08 SWAP1 PUSH2 0x2FD0 JUMP JUMPDEST DUP1 ISZERO PUSH2 0xC55 JUMPI DUP1 PUSH1 0x1F LT PUSH2 0xC2A JUMPI PUSH2 0x100 DUP1 DUP4 SLOAD DIV MUL DUP4 MSTORE SWAP2 PUSH1 0x20 ADD SWAP2 PUSH2 0xC55 JUMP JUMPDEST DUP3 ADD SWAP2 SWAP1 PUSH1 0x0 MSTORE PUSH1 0x20 PUSH1 0x0 KECCAK256 SWAP1 JUMPDEST DUP2 SLOAD DUP2 MSTORE SWAP1 PUSH1 0x1 ADD SWAP1 PUSH1 0x20 ADD DUP1 DUP4 GT PUSH2 0xC38 JUMPI DUP3 SWAP1 SUB PUSH1 0x1F AND DUP3 ADD SWAP2 JUMPDEST POP POP POP POP POP DUP2 MSTORE PUSH1 0x20 ADD PUSH1 0xA DUP3 ADD SLOAD DUP2 MSTORE POP POP DUP3 DUP3 DUP2 MLOAD DUP2 LT PUSH2 0xC7B JUMPI PUSH2 0xC7A PUSH2 0x3001 JUMP JUMPDEST JUMPDEST PUSH1 0x20 MUL PUSH1 0x20 ADD ADD DUP2 SWAP1 MSTORE POP DUP1 DUP1 PUSH2 0xC91 SWAP1 PUSH2 0x3119 JUMP JUMPDEST SWAP2 POP POP PUSH2 0x766 JUMP JUMPDEST POP DUP1 SWAP2 POP POP SWAP1 JUMP JUMPDEST PUSH1 0x0 DUP1 DUP4 PUSH1 0x40 MLOAD PUSH2 0xCB2 SWAP2 SWAP1 PUSH2 0x3192 JUMP JUMPDEST SWAP1 DUP2 MSTORE PUSH1 0x20 ADD PUSH1 0x40 MLOAD DUP1 SWAP2 SUB SWAP1 KECCAK256 PUSH1 0x0 ADD DUP1 SLOAD PUSH2 0xCCE SWAP1 PUSH2 0x2FD0 JUMP JUMPDEST SWAP1 POP SUB PUSH2 0xD10 JUMPI PUSH1 0x40 MLOAD PUSH32 0x8C379A000000000000000000000000000000000000000000000000000000000 DUP2 MSTORE PUSH1 0x4 ADD PUSH2 0xD07 SWAP1 PUSH2 0x31F5 JUMP JUMPDEST PUSH1 0x40 MLOAD DUP1 SWAP2 SUB SWAP1 REVERT JUMPDEST DUP1 PUSH1 0x0 DUP4 PUSH1 0x40 MLOAD PUSH2 0xD21 SWAP2 SWAP1 PUSH2 0x3192 JUMP JUMPDEST SWAP1 DUP2 MSTORE PUSH1 0x20 ADD PUSH1 0x40 MLOAD DUP1 SWAP2 SUB SWAP1 KECCAK256 PUSH1 0x9 ADD SWAP1 DUP2 PUSH2 0xD3E SWAP2 SWAP1 PUSH2 0x33AC JUMP JUMPDEST POP PUSH1 0x40 MLOAD DUP1 PUSH1 0x40 ADD PUSH1 0x40 MSTORE DUP1 PUSH1 0x4 DUP2 MSTORE PUSH1 0x20 ADD PUSH32 0x7061696400000000000000000000000000000000000000000000000000000000 DUP2 MSTORE POP PUSH1 0x0 DUP4 PUSH1 0x40 MLOAD PUSH2 0xD85 SWAP2 SWAP1 PUSH2 0x3192 JUMP JUMPDEST SWAP1 DUP2 MSTORE PUSH1 0x20 ADD PUSH1 0x40 MLOAD DUP1 SWAP2 SUB SWAP1 KECCAK256 PUSH1 0x4 ADD SWAP1 DUP2 PUSH2 0xDA2 SWAP2 SWAP1 PUSH2 0x33AC JUMP JUMPDEST POP PUSH32 0x186C2B6377D1E8F7A4F2ACB5A42183967F7D748C4C6E91D623ED00DA8F01417D DUP3 DUP3 PUSH1 0x40 MLOAD PUSH2 0xDD4 SWAP3 SWAP2 SWAP1 PUSH2 0x347E JUMP JUMPDEST PUSH1 0x40 MLOAD DUP1 SWAP2 SUB SWAP1 LOG1 PUSH32 0xC61FFB03925558D248FBA37B73270B12903D3F0BA5797AF8B71A9F8BF0761A98 DUP3 PUSH1 0x40 MLOAD PUSH2 0xE0B SWAP2 SWAP1 PUSH2 0x3501 JUMP JUMPDEST PUSH1 0x40 MLOAD DUP1 SWAP2 SUB SWAP1 LOG1 POP POP JUMP JUMPDEST PUSH1 0x0 DUP1 DUP4 PUSH1 0x40 MLOAD PUSH2 0xE28 SWAP2 SWAP1 PUSH2 0x3192 JUMP JUMPDEST SWAP1 DUP2 MSTORE PUSH1 0x20 ADD PUSH1 0x40 MLOAD DUP1 SWAP2 SUB SWAP1 KECCAK256 PUSH1 0x0 ADD DUP1 SLOAD PUSH2 0xE44 SWAP1 PUSH2 0x2FD0 JUMP JUMPDEST SWAP1 POP SUB PUSH2 0xE86 JUMPI PUSH1 0x40 MLOAD PUSH32 0x8C379A000000000000000000000000000000000000000000000000000000000 DUP2 MSTORE PUSH1 0x4 ADD PUSH2 0xE7D SWAP1 PUSH2 0x31F5 JUMP JUMPDEST PUSH1 0x40 MLOAD DUP1 SWAP2 SUB SWAP1 REVERT JUMPDEST DUP1 PUSH1 0x0 DUP4 PUSH1 0x40 MLOAD PUSH2 0xE97 SWAP2 SWAP1 PUSH2 0x3192 JUMP JUMPDEST SWAP1 DUP2 MSTORE PUSH1 0x20 ADD PUSH1 0x40 MLOAD DUP1 SWAP2 SUB SWAP1 KECCAK256 PUSH1 0x5 ADD SWAP1 DUP2 PUSH2 0xEB4 SWAP2 SWAP1 PUSH2 0x33AC JUMP JUMPDEST POP PUSH32 0xB75B1FEC1BC9156569AE9F72FB29C6E6727B297E191D358465FFF4C09D8F7D26 DUP3 DUP3 PUSH1 0x40 MLOAD PUSH2 0xEE6 SWAP3 SWAP2 SWAP1 PUSH2 0x347E JUMP JUMPDEST PUSH1 0x40 MLOAD DUP1 SWAP2 SUB SWAP1 LOG1 POP POP JUMP JUMPDEST PUSH1 0x0 PUSH1 0x1 DUP1 SLOAD SWAP1 POP SWAP1 POP SWAP1 JUMP JUMPDEST PUSH1 0x1 DUP2 DUP2 SLOAD DUP2 LT PUSH2 0xF0F JUMPI PUSH1 0x0 DUP1 REVERT JUMPDEST SWAP1 PUSH1 0x0 MSTORE PUSH1 0x20 PUSH1 0x0 KECCAK256 ADD PUSH1 0x0 SWAP2 POP SWAP1 POP DUP1 SLOAD PUSH2 0xF2A SWAP1 PUSH2 0x2FD0 JUMP JUMPDEST DUP1 PUSH1 0x1F ADD PUSH1 0x20 DUP1 SWAP2 DIV MUL PUSH1 0x20 ADD PUSH1 0x40 MLOAD SWAP1 DUP2 ADD PUSH1 0x40 MSTORE DUP1 SWAP3 SWAP2 SWAP1 DUP2 DUP2 MSTORE PUSH1 0x20 ADD DUP3 DUP1 SLOAD PUSH2 0xF56 SWAP1 PUSH2 0x2FD0 JUMP JUMPDEST DUP1 ISZERO PUSH2 0xFA3 JUMPI DUP1 PUSH1 0x1F LT PUSH2 0xF78 JUMPI PUSH2 0x100 DUP1 DUP4 SLOAD DIV MUL DUP4 MSTORE SWAP2 PUSH1 0x20 ADD SWAP2 PUSH2 0xFA3 JUMP JUMPDEST DUP3 ADD SWAP2 SWAP1 PUSH1 0x0 MSTORE PUSH1 0x20 PUSH1 0x0 KECCAK256 SWAP1 JUMPDEST DUP2 SLOAD DUP2 MSTORE SWAP1 PUSH1 0x1 ADD SWAP1 PUSH1 0x20 ADD DUP1 DUP4 GT PUSH2 0xF86 JUMPI DUP3 SWAP1 SUB PUSH1 0x1F AND DUP3 ADD SWAP2 JUMPDEST POP POP POP POP POP DUP2 JUMP JUMPDEST PUSH1 0x60 PUSH1 0x0 DUP1 JUMPDEST PUSH1 0x1 DUP1 SLOAD SWAP1 POP DUP2 LT ISZERO PUSH2 0x1070 JUMPI DUP4 PUSH1 0x40 MLOAD PUSH1 0x20 ADD PUSH2 0xFCF SWAP2 SWAP1 PUSH2 0x3192 JUMP JUMPDEST PUSH1 0x40 MLOAD PUSH1 0x20 DUP2 DUP4 SUB SUB DUP2 MSTORE SWAP1 PUSH1 0x40 MSTORE DUP1 MLOAD SWAP1 PUSH1 0x20 ADD KECCAK256 PUSH1 0x0 PUSH1 0x1 DUP4 DUP2 SLOAD DUP2 LT PUSH2 0xFFB JUMPI PUSH2 0xFFA PUSH2 0x3001 JUMP JUMPDEST JUMPDEST SWAP1 PUSH1 0x0 MSTORE PUSH1 0x20 PUSH1 0x0 KECCAK256 ADD PUSH1 0x40 MLOAD PUSH2 0x1012 SWAP2 SWAP1 PUSH2 0x30D3 JUMP JUMPDEST SWAP1 DUP2 MSTORE PUSH1 0x20 ADD PUSH1 0x40 MLOAD DUP1 SWAP2 SUB SWAP1 KECCAK256 PUSH1 0x2 ADD PUSH1 0x40 MLOAD PUSH1 0x20 ADD PUSH2 0x1033 SWAP2 SWAP1 PUSH2 0x30D3 JUMP JUMPDEST PUSH1 0x40 MLOAD PUSH1 0x20 DUP2 DUP4 SUB SUB DUP2 MSTORE SWAP1 PUSH1 0x40 MSTORE DUP1 MLOAD SWAP1 PUSH1 0x20 ADD KECCAK256 SUB PUSH2 0x105D JUMPI DUP2 DUP1 PUSH2 0x1059 SWAP1 PUSH2 0x3119 JUMP JUMPDEST SWAP3 POP POP JUMPDEST DUP1 DUP1 PUSH2 0x1068 SWAP1 PUSH2 0x3119 JUMP JUMPDEST SWAP2 POP POP PUSH2 0xFB1 JUMP JUMPDEST POP PUSH1 0x0 DUP2 PUSH8 0xFFFFFFFFFFFFFFFF DUP2 GT ISZERO PUSH2 0x108D JUMPI PUSH2 0x108C PUSH2 0x2662 JUMP JUMPDEST JUMPDEST PUSH1 0x40 MLOAD SWAP1 DUP1 DUP3 MSTORE DUP1 PUSH1 0x20 MUL PUSH1 0x20 ADD DUP3 ADD PUSH1 0x40 MSTORE DUP1 ISZERO PUSH2 0x10C6 JUMPI DUP2 PUSH1 0x20 ADD JUMPDEST PUSH2 0x10B3 PUSH2 0x25D9 JUMP JUMPDEST DUP2 MSTORE PUSH1 0x20 ADD SWAP1 PUSH1 0x1 SWAP1 SUB SWAP1 DUP2 PUSH2 0x10AB JUMPI SWAP1 POP JUMPDEST POP SWAP1 POP PUSH1 0x0 DUP1 JUMPDEST PUSH1 0x1 DUP1 SLOAD SWAP1 POP DUP2 LT ISZERO PUSH2 0x169F JUMPI DUP6 PUSH1 0x40 MLOAD PUSH1 0x20 ADD PUSH2 0x10EB SWAP2 SWAP1 PUSH2 0x3192 JUMP JUMPDEST PUSH1 0x40 MLOAD PUSH1 0x20 DUP2 DUP4 SUB SUB DUP2 MSTORE SWAP1 PUSH1 0x40 MSTORE DUP1 MLOAD SWAP1 PUSH1 0x20 ADD KECCAK256 PUSH1 0x0 PUSH1 0x1 DUP4 DUP2 SLOAD DUP2 LT PUSH2 0x1117 JUMPI PUSH2 0x1116 PUSH2 0x3001 JUMP JUMPDEST JUMPDEST SWAP1 PUSH1 0x0 MSTORE PUSH1 0x20 PUSH1 0x0 KECCAK256 ADD PUSH1 0x40 MLOAD PUSH2 0x112E SWAP2 SWAP1 PUSH2 0x30D3 JUMP JUMPDEST SWAP1 DUP2 MSTORE PUSH1 0x20 ADD PUSH1 0x40 MLOAD DUP1 SWAP2 SUB SWAP1 KECCAK256 PUSH1 0x2 ADD PUSH1 0x40 MLOAD PUSH1 0x20 ADD PUSH2 0x114F SWAP2 SWAP1 PUSH2 0x30D3 JUMP JUMPDEST PUSH1 0x40 MLOAD PUSH1 0x20 DUP2 DUP4 SUB SUB DUP2 MSTORE SWAP1 PUSH1 0x40 MSTORE DUP1 MLOAD SWAP1 PUSH1 0x20 ADD KECCAK256 SUB PUSH2 0x168C JUMPI PUSH1 0x0 PUSH1 0x1 DUP3 DUP2 SLOAD DUP2 LT PUSH2 0x1180 JUMPI PUSH2 0x117F PUSH2 0x3001 JUMP JUMPDEST JUMPDEST SWAP1 PUSH1 0x0 MSTORE PUSH1 0x20 PUSH1 0x0 KECCAK256 ADD PUSH1 0x40 MLOAD PUSH2 0x1197 SWAP2 SWAP1 PUSH2 0x30D3 JUMP JUMPDEST SWAP1 DUP2 MSTORE PUSH1 0x20 ADD PUSH1 0x40 MLOAD DUP1 SWAP2 SUB SWAP1 KECCAK256 PUSH1 0x40 MLOAD DUP1 PUSH2 0x160 ADD PUSH1 0x40 MSTORE SWAP1 DUP2 PUSH1 0x0 DUP3 ADD DUP1 SLOAD PUSH2 0x11C1 SWAP1 PUSH2 0x2FD0 JUMP JUMPDEST DUP1 PUSH1 0x1F ADD PUSH1 0x20 DUP1 SWAP2 DIV MUL PUSH1 0x20 ADD PUSH1 0x40 MLOAD SWAP1 DUP2 ADD PUSH1 0x40 MSTORE DUP1 SWAP3 SWAP2 SWAP1 DUP2 DUP2 MSTORE PUSH1 0x20 ADD DUP3 DUP1 SLOAD PUSH2 0x11ED SWAP1 PUSH2 0x2FD0 JUMP JUMPDEST DUP1 ISZERO PUSH2 0x123A JUMPI DUP1 PUSH1 0x1F LT PUSH2 0x120F JUMPI PUSH2 0x100 DUP1 DUP4 SLOAD DIV MUL DUP4 MSTORE SWAP2 PUSH1 0x20 ADD SWAP2 PUSH2 0x123A JUMP JUMPDEST DUP3 ADD SWAP2 SWAP1 PUSH1 0x0 MSTORE PUSH1 0x20 PUSH1 0x0 KECCAK256 SWAP1 JUMPDEST DUP2 SLOAD DUP2 MSTORE SWAP1 PUSH1 0x1 ADD SWAP1 PUSH1 0x20 ADD DUP1 DUP4 GT PUSH2 0x121D JUMPI DUP3 SWAP1 SUB PUSH1 0x1F AND DUP3 ADD SWAP2 JUMPDEST POP POP POP POP POP DUP2 MSTORE PUSH1 0x20 ADD PUSH1 0x1 DUP3 ADD DUP1 SLOAD PUSH2 0x1253 SWAP1 PUSH2 0x2FD0 JUMP JUMPDEST DUP1 PUSH1 0x1F ADD PUSH1 0x20 DUP1 SWAP2 DIV MUL PUSH1 0x20 ADD PUSH1 0x40 MLOAD SWAP1 DUP2 ADD PUSH1 0x40 MSTORE DUP1 SWAP3 SWAP2 SWAP1 DUP2 DUP2 MSTORE PUSH1 0x20 ADD DUP3 DUP1 SLOAD PUSH2 0x127F SWAP1 PUSH2 0x2FD0 JUMP JUMPDEST DUP1 ISZERO PUSH2 0x12CC JUMPI DUP1 PUSH1 0x1F LT PUSH2 0x12A1 JUMPI PUSH2 0x100 DUP1 DUP4 SLOAD DIV MUL DUP4 MSTORE SWAP2 PUSH1 0x20 ADD SWAP2 PUSH2 0x12CC JUMP JUMPDEST DUP3 ADD SWAP2 SWAP1 PUSH1 0x0 MSTORE PUSH1 0x20 PUSH1 0x0 KECCAK256 SWAP1 JUMPDEST DUP2 SLOAD DUP2 MSTORE SWAP1 PUSH1 0x1 ADD SWAP1 PUSH1 0x20 ADD DUP1 DUP4 GT PUSH2 0x12AF JUMPI DUP3 SWAP1 SUB PUSH1 0x1F AND DUP3 ADD SWAP2 JUMPDEST POP POP POP POP POP DUP2 MSTORE PUSH1 0x20 ADD PUSH1 0x2 DUP3 ADD DUP1 SLOAD PUSH2 0x12E5 SWAP1 PUSH2 0x2FD0 JUMP JUMPDEST DUP1 PUSH1 0x1F ADD PUSH1 0x20 DUP1 SWAP2 DIV MUL PUSH1 0x20 ADD PUSH1 0x40 MLOAD SWAP1 DUP2 ADD PUSH1 0x40 MSTORE DUP1 SWAP3 SWAP2 SWAP1 DUP2 DUP2 MSTORE PUSH1 0x20 ADD DUP3 DUP1 SLOAD PUSH2 0x1311 SWAP1 PUSH2 0x2FD0 JUMP JUMPDEST DUP1 ISZERO PUSH2 0x135E JUMPI DUP1 PUSH1 0x1F LT PUSH2 0x1333 JUMPI PUSH2 0x100 DUP1 DUP4 SLOAD DIV MUL DUP4 MSTORE SWAP2 PUSH1 0x20 ADD SWAP2 PUSH2 0x135E JUMP JUMPDEST DUP3 ADD SWAP2 SWAP1 PUSH1 0x0 MSTORE PUSH1 0x20 PUSH1 0x0 KECCAK256 SWAP1 JUMPDEST DUP2 SLOAD DUP2 MSTORE SWAP1 PUSH1 0x1 ADD SWAP1 PUSH1 0x20 ADD DUP1 DUP4 GT PUSH2 0x1341 JUMPI DUP3 SWAP1 SUB PUSH1 0x1F AND DUP3 ADD SWAP2 JUMPDEST POP POP POP POP POP DUP2 MSTORE PUSH1 0x20 ADD PUSH1 0x3 DUP3 ADD DUP1 SLOAD PUSH2 0x1377 SWAP1 PUSH2 0x2FD0 JUMP JUMPDEST DUP1 PUSH1 0x1F ADD PUSH1 0x20 DUP1 SWAP2 DIV MUL PUSH1 0x20 ADD PUSH1 0x40 MLOAD SWAP1 DUP2 ADD PUSH1 0x40 MSTORE DUP1 SWAP3 SWAP2 SWAP1 DUP2 DUP2 MSTORE PUSH1 0x20 ADD DUP3 DUP1 SLOAD PUSH2 0x13A3 SWAP1 PUSH2 0x2FD0 JUMP JUMPDEST DUP1 ISZERO PUSH2 0x13F0 JUMPI DUP1 PUSH1 0x1F LT PUSH2 0x13C5 JUMPI PUSH2 0x100 DUP1 DUP4 SLOAD DIV MUL DUP4 MSTORE SWAP2 PUSH1 0x20 ADD SWAP2 PUSH2 0x13F0 JUMP JUMPDEST DUP3 ADD SWAP2 SWAP1 PUSH1 0x0 MSTORE PUSH1 0x20 PUSH1 0x0 KECCAK256 SWAP1 JUMPDEST DUP2 SLOAD DUP2 MSTORE SWAP1 PUSH1 0x1 ADD SWAP1 PUSH1 0x20 ADD DUP1 DUP4 GT PUSH2 0x13D3 JUMPI DUP3 SWAP1 SUB PUSH1 0x1F AND DUP3 ADD SWAP2 JUMPDEST POP POP POP POP POP DUP2 MSTORE PUSH1 0x20 ADD PUSH1 0x4 DUP3 ADD DUP1 SLOAD PUSH2 0x1409 SWAP1 PUSH2 0x2FD0 JUMP JUMPDEST DUP1 PUSH1 0x1F ADD PUSH1 0x20 DUP1 SWAP2 DIV MUL PUSH1 0x20 ADD PUSH1 0x40 MLOAD SWAP1 DUP2 ADD PUSH1 0x40 MSTORE DUP1 SWAP3 SWAP2 SWAP1 DUP2 DUP2 MSTORE PUSH1 0x20 ADD DUP3 DUP1 SLOAD PUSH2 0x1435 SWAP1 PUSH2 0x2FD0 JUMP JUMPDEST DUP1 ISZERO PUSH2 0x1482 JUMPI DUP1 PUSH1 0x1F LT PUSH2 0x1457 JUMPI PUSH2 0x100 DUP1 DUP4 SLOAD DIV MUL DUP4 MSTORE SWAP2 PUSH1 0x20 ADD SWAP2 PUSH2 0x1482 JUMP JUMPDEST DUP3 ADD SWAP2 SWAP1 PUSH1 0x0 MSTORE PUSH1 0x20 PUSH1 0x0 KECCAK256 SWAP1 JUMPDEST DUP2 SLOAD DUP2 MSTORE SWAP1 PUSH1 0x1 ADD SWAP1 PUSH1 0x20 ADD DUP1 DUP4 GT PUSH2 0x1465 JUMPI DUP3 SWAP1 SUB PUSH1 0x1F AND DUP3 ADD SWAP2 JUMPDEST POP POP POP POP POP DUP2 MSTORE PUSH1 0x20 ADD PUSH1 0x5 DUP3 ADD DUP1 SLOAD PUSH2 0x149B SWAP1 PUSH2 0x2FD0 JUMP JUMPDEST DUP1 PUSH1 0x1F ADD PUSH1 0x20 DUP1 SWAP2 DIV MUL PUSH1 0x20 ADD PUSH1 0x40 MLOAD SWAP1 DUP2 ADD PUSH1 0x40 MSTORE DUP1 SWAP3 SWAP2 SWAP1 DUP2 DUP2 MSTORE PUSH1 0x20 ADD DUP3 DUP1 SLOAD PUSH2 0x14C7 SWAP1 PUSH2 0x2FD0 JUMP JUMPDEST DUP1 ISZERO PUSH2 0x1514 JUMPI DUP1 PUSH1 0x1F LT PUSH2 0x14E9 JUMPI PUSH2 0x100 DUP1 DUP4 SLOAD DIV MUL DUP4 MSTORE SWAP2 PUSH1 0x20 ADD SWAP2 PUSH2 0x1514 JUMP JUMPDEST DUP3 ADD SWAP2 SWAP1 PUSH1 0x0 MSTORE PUSH1 0x20 PUSH1 0x0 KECCAK256 SWAP1 JUMPDEST DUP2 SLOAD DUP2 MSTORE SWAP1 PUSH1 0x1 ADD SWAP1 PUSH1 0x20 ADD DUP1 DUP4 GT PUSH2 0x14F7 JUMPI DUP3 SWAP1 SUB PUSH1 0x1F AND DUP3 ADD SWAP2 JUMPDEST POP POP POP POP POP DUP2 MSTORE PUSH1 0x20 ADD PUSH1 0x6 DUP3 ADD SLOAD DUP2 MSTORE PUSH1 0x20 ADD PUSH1 0x7 DUP3 ADD SLOAD DUP2 MSTORE PUSH1 0x20 ADD PUSH1 0x8 DUP3 ADD DUP1 SLOAD PUSH2 0x1541 SWAP1 PUSH2 0x2FD0 JUMP JUMPDEST DUP1 PUSH1 0x1F ADD PUSH1 0x20 DUP1 SWAP2 DIV MUL PUSH1 0x20 ADD PUSH1 0x40 MLOAD SWAP1 DUP2 ADD PUSH1 0x40 MSTORE DUP1 SWAP3 SWAP2 SWAP1 DUP2 DUP2 MSTORE PUSH1 0x20 ADD DUP3 DUP1 SLOAD PUSH2 0x156D SWAP1 PUSH2 0x2FD0 JUMP JUMPDEST DUP1 ISZERO PUSH2 0x15BA JUMPI DUP1 PUSH1 0x1F LT PUSH2 0x158F JUMPI PUSH2 0x100 DUP1 DUP4 SLOAD DIV MUL DUP4 MSTORE SWAP2 PUSH1 0x20 ADD SWAP2 PUSH2 0x15BA JUMP JUMPDEST DUP3 ADD SWAP2 SWAP1 PUSH1 0x0 MSTORE PUSH1 0x20 PUSH1 0x0 KECCAK256 SWAP1 JUMPDEST DUP2 SLOAD DUP2 MSTORE SWAP1 PUSH1 0x1 ADD SWAP1 PUSH1 0x20 ADD DUP1 DUP4 GT PUSH2 0x159D JUMPI DUP3 SWAP1 SUB PUSH1 0x1F AND DUP3 ADD SWAP2 JUMPDEST POP POP POP POP POP DUP2 MSTORE PUSH1 0x20 ADD PUSH1 0x9 DUP3 ADD DUP1 SLOAD PUSH2 0x15D3 SWAP1 PUSH2 0x2FD0 JUMP JUMPDEST DUP1 PUSH1 0x1F ADD PUSH1 0x20 DUP1 SWAP2 DIV MUL PUSH1 0x20 ADD PUSH1 0x40 MLOAD SWAP1 DUP2 ADD PUSH1 0x40 MSTORE DUP1 SWAP3 SWAP2 SWAP1 DUP2 DUP2 MSTORE PUSH1 0x20 ADD DUP3 DUP1 SLOAD PUSH2 0x15FF SWAP1 PUSH2 0x2FD0 JUMP JUMPDEST DUP1 ISZERO PUSH2 0x164C JUMPI DUP1 PUSH1 0x1F LT PUSH2 0x1621 JUMPI PUSH2 0x100 DUP1 DUP4 SLOAD DIV MUL DUP4 MSTORE SWAP2 PUSH1 0x20 ADD SWAP2 PUSH2 0x164C JUMP JUMPDEST DUP3 ADD SWAP2 SWAP1 PUSH1 0x0 MSTORE PUSH1 0x20 PUSH1 0x0 KECCAK256 SWAP1 JUMPDEST DUP2 SLOAD DUP2 MSTORE SWAP1 PUSH1 0x1 ADD SWAP1 PUSH1 0x20 ADD DUP1 DUP4 GT PUSH2 0x162F JUMPI DUP3 SWAP1 SUB PUSH1 0x1F AND DUP3 ADD SWAP2 JUMPDEST POP POP POP POP POP DUP2 MSTORE PUSH1 0x20 ADD PUSH1 0xA DUP3 ADD SLOAD DUP2 MSTORE POP POP DUP4 DUP4 DUP2 MLOAD DUP2 LT PUSH2 0x1672 JUMPI PUSH2 0x1671 PUSH2 0x3001 JUMP JUMPDEST JUMPDEST PUSH1 0x20 MUL PUSH1 0x20 ADD ADD DUP2 SWAP1 MSTORE POP DUP2 DUP1 PUSH2 0x1688 SWAP1 PUSH2 0x3119 JUMP JUMPDEST SWAP3 POP POP JUMPDEST DUP1 DUP1 PUSH2 0x1697 SWAP1 PUSH2 0x3119 JUMP JUMPDEST SWAP2 POP POP PUSH2 0x10CD JUMP JUMPDEST POP DUP2 SWAP4 POP POP POP POP SWAP2 SWAP1 POP JUMP JUMPDEST PUSH1 0x40 MLOAD DUP1 PUSH2 0x160 ADD PUSH1 0x40 MSTORE DUP1 DUP12 DUP2 MSTORE PUSH1 0x20 ADD DUP11 DUP2 MSTORE PUSH1 0x20 ADD DUP10 DUP2 MSTORE PUSH1 0x20 ADD DUP9 DUP2 MSTORE PUSH1 0x20 ADD DUP8 DUP2 MSTORE PUSH1 0x20 ADD DUP7 DUP2 MSTORE PUSH1 0x20 ADD DUP6 DUP2 MSTORE PUSH1 0x20 ADD DUP5 DUP2 MSTORE PUSH1 0x20 ADD DUP4 DUP2 MSTORE PUSH1 0x20 ADD PUSH1 0x40 MLOAD DUP1 PUSH1 0x40 ADD PUSH1 0x40 MSTORE DUP1 PUSH1 0x4 DUP2 MSTORE PUSH1 0x20 ADD PUSH32 0x6E756C6C00000000000000000000000000000000000000000000000000000000 DUP2 MSTORE POP DUP2 MSTORE PUSH1 0x20 ADD DUP3 DUP2 MSTORE POP PUSH1 0x0 DUP12 PUSH1 0x40 MLOAD PUSH2 0x173C SWAP2 SWAP1 PUSH2 0x3192 JUMP JUMPDEST SWAP1 DUP2 MSTORE PUSH1 0x20 ADD PUSH1 0x40 MLOAD DUP1 SWAP2 SUB SWAP1 KECCAK256 PUSH1 0x0 DUP3 ADD MLOAD DUP2 PUSH1 0x0 ADD SWAP1 DUP2 PUSH2 0x175F SWAP2 SWAP1 PUSH2 0x33AC JUMP JUMPDEST POP PUSH1 0x20 DUP3 ADD MLOAD DUP2 PUSH1 0x1 ADD SWAP1 DUP2 PUSH2 0x1775 SWAP2 SWAP1 PUSH2 0x33AC JUMP JUMPDEST POP PUSH1 0x40 DUP3 ADD MLOAD DUP2 PUSH1 0x2 ADD SWAP1 DUP2 PUSH2 0x178B SWAP2 SWAP1 PUSH2 0x33AC JUMP JUMPDEST POP PUSH1 0x60 DUP3 ADD MLOAD DUP2 PUSH1 0x3 ADD SWAP1 DUP2 PUSH2 0x17A1 SWAP2 SWAP1 PUSH2 0x33AC JUMP JUMPDEST POP PUSH1 0x80 DUP3 ADD MLOAD DUP2 PUSH1 0x4 ADD SWAP1 DUP2 PUSH2 0x17B7 SWAP2 SWAP1 PUSH2 0x33AC JUMP JUMPDEST POP PUSH1 0xA0 DUP3 ADD MLOAD DUP2 PUSH1 0x5 ADD SWAP1 DUP2 PUSH2 0x17CD SWAP2 SWAP1 PUSH2 0x33AC JUMP JUMPDEST POP PUSH1 0xC0 DUP3 ADD MLOAD DUP2 PUSH1 0x6 ADD SSTORE PUSH1 0xE0 DUP3 ADD MLOAD DUP2 PUSH1 0x7 ADD SSTORE PUSH2 0x100 DUP3 ADD MLOAD DUP2 PUSH1 0x8 ADD SWAP1 DUP2 PUSH2 0x17F8 SWAP2 SWAP1 PUSH2 0x33AC JUMP JUMPDEST POP PUSH2 0x120 DUP3 ADD MLOAD DUP2 PUSH1 0x9 ADD SWAP1 DUP2 PUSH2 0x180F SWAP2 SWAP1 PUSH2 0x33AC JUMP JUMPDEST POP PUSH2 0x140 DUP3 ADD MLOAD DUP2 PUSH1 0xA ADD SSTORE SWAP1 POP POP PUSH1 0x1 DUP11 SWAP1 DUP1 PUSH1 0x1 DUP2 SLOAD ADD DUP1 DUP3 SSTORE DUP1 SWAP2 POP POP PUSH1 0x1 SWAP1 SUB SWAP1 PUSH1 0x0 MSTORE PUSH1 0x20 PUSH1 0x0 KECCAK256 ADD PUSH1 0x0 SWAP1 SWAP2 SWAP1 SWAP2 SWAP1 SWAP2 POP SWAP1 DUP2 PUSH2 0x1852 SWAP2 SWAP1 PUSH2 0x33AC JUMP JUMPDEST POP PUSH32 0x5CD3880A2112A5001C77C80FC5F3CC78F5E578532F8FAC0609615FC2B10E4727 DUP11 DUP11 DUP11 DUP11 DUP11 DUP11 DUP11 DUP11 DUP11 DUP11 PUSH1 0x40 MLOAD PUSH2 0x1894 SWAP11 SWAP10 SWAP9 SWAP8 SWAP7 SWAP6 SWAP5 SWAP4 SWAP3 SWAP2 SWAP1 PUSH2 0x3582 JUMP JUMPDEST PUSH1 0x40 MLOAD DUP1 SWAP2 SUB SWAP1 LOG1 POP POP POP POP POP POP POP POP POP POP JUMP JUMPDEST PUSH1 0x60 PUSH1 0x0 DUP1 JUMPDEST PUSH1 0x1 DUP1 SLOAD SWAP1 POP DUP2 LT ISZERO PUSH2 0x196D JUMPI DUP4 PUSH1 0x40 MLOAD PUSH1 0x20 ADD PUSH2 0x18CC SWAP2 SWAP1 PUSH2 0x3192 JUMP JUMPDEST PUSH1 0x40 MLOAD PUSH1 0x20 DUP2 DUP4 SUB SUB DUP2 MSTORE SWAP1 PUSH1 0x40 MSTORE DUP1 MLOAD SWAP1 PUSH1 0x20 ADD KECCAK256 PUSH1 0x0 PUSH1 0x1 DUP4 DUP2 SLOAD DUP2 LT PUSH2 0x18F8 JUMPI PUSH2 0x18F7 PUSH2 0x3001 JUMP JUMPDEST JUMPDEST SWAP1 PUSH1 0x0 MSTORE PUSH1 0x20 PUSH1 0x0 KECCAK256 ADD PUSH1 0x40 MLOAD PUSH2 0x190F SWAP2 SWAP1 PUSH2 0x30D3 JUMP JUMPDEST SWAP1 DUP2 MSTORE PUSH1 0x20 ADD PUSH1 0x40 MLOAD DUP1 SWAP2 SUB SWAP1 KECCAK256 PUSH1 0x1 ADD PUSH1 0x40 MLOAD PUSH1 0x20 ADD PUSH2 0x1930 SWAP2 SWAP1 PUSH2 0x30D3 JUMP JUMPDEST PUSH1 0x40 MLOAD PUSH1 0x20 DUP2 DUP4 SUB SUB DUP2 MSTORE SWAP1 PUSH1 0x40 MSTORE DUP1 MLOAD SWAP1 PUSH1 0x20 ADD KECCAK256 SUB PUSH2 0x195A JUMPI DUP2 DUP1 PUSH2 0x1956 SWAP1 PUSH2 0x3119 JUMP JUMPDEST SWAP3 POP POP JUMPDEST DUP1 DUP1 PUSH2 0x1965 SWAP1 PUSH2 0x3119 JUMP JUMPDEST SWAP2 POP POP PUSH2 0x18AE JUMP JUMPDEST POP PUSH1 0x0 DUP2 PUSH8 0xFFFFFFFFFFFFFFFF DUP2 GT ISZERO PUSH2 0x198A JUMPI PUSH2 0x1989 PUSH2 0x2662 JUMP JUMPDEST JUMPDEST PUSH1 0x40 MLOAD SWAP1 DUP1 DUP3 MSTORE DUP1 PUSH1 0x20 MUL PUSH1 0x20 ADD DUP3 ADD PUSH1 0x40 MSTORE DUP1 ISZERO PUSH2 0x19C3 JUMPI DUP2 PUSH1 0x20 ADD JUMPDEST PUSH2 0x19B0 PUSH2 0x25D9 JUMP JUMPDEST DUP2 MSTORE PUSH1 0x20 ADD SWAP1 PUSH1 0x1 SWAP1 SUB SWAP1 DUP2 PUSH2 0x19A8 JUMPI SWAP1 POP JUMPDEST POP SWAP1 POP PUSH1 0x0 DUP1 JUMPDEST PUSH1 0x1 DUP1 SLOAD SWAP1 POP DUP2 LT ISZERO PUSH2 0x1F9C JUMPI DUP6 PUSH1 0x40 MLOAD PUSH1 0x20 ADD PUSH2 0x19E8 SWAP2 SWAP1 PUSH2 0x3192 JUMP JUMPDEST PUSH1 0x40 MLOAD PUSH1 0x20 DUP2 DUP4 SUB SUB DUP2 MSTORE SWAP1 PUSH1 0x40 MSTORE DUP1 MLOAD SWAP1 PUSH1 0x20 ADD KECCAK256 PUSH1 0x0 PUSH1 0x1 DUP4 DUP2 SLOAD DUP2 LT PUSH2 0x1A14 JUMPI PUSH2 0x1A13 PUSH2 0x3001 JUMP JUMPDEST JUMPDEST SWAP1 PUSH1 0x0 MSTORE PUSH1 0x20 PUSH1 0x0 KECCAK256 ADD PUSH1 0x40 MLOAD PUSH2 0x1A2B SWAP2 SWAP1 PUSH2 0x30D3 JUMP JUMPDEST SWAP1 DUP2 MSTORE PUSH1 0x20 ADD PUSH1 0x40 MLOAD DUP1 SWAP2 SUB SWAP1 KECCAK256 PUSH1 0x1 ADD PUSH1 0x40 MLOAD PUSH1 0x20 ADD PUSH2 0x1A4C SWAP2 SWAP1 PUSH2 0x30D3 JUMP JUMPDEST PUSH1 0x40 MLOAD PUSH1 0x20 DUP2 DUP4 SUB SUB DUP2 MSTORE SWAP1 PUSH1 0x40 MSTORE DUP1 MLOAD SWAP1 PUSH1 0x20 ADD KECCAK256 SUB PUSH2 0x1F89 JUMPI PUSH1 0x0 PUSH1 0x1 DUP3 DUP2 SLOAD DUP2 LT PUSH2 0x1A7D JUMPI PUSH2 0x1A7C PUSH2 0x3001 JUMP JUMPDEST JUMPDEST SWAP1 PUSH1 0x0 MSTORE PUSH1 0x20 PUSH1 0x0 KECCAK256 ADD PUSH1 0x40 MLOAD PUSH2 0x1A94 SWAP2 SWAP1 PUSH2 0x30D3 JUMP JUMPDEST SWAP1 DUP2 MSTORE PUSH1 0x20 ADD PUSH1 0x40 MLOAD DUP1 SWAP2 SUB SWAP1 KECCAK256 PUSH1 0x40 MLOAD DUP1 PUSH2 0x160 ADD PUSH1 0x40 MSTORE SWAP1 DUP2 PUSH1 0x0 DUP3 ADD DUP1 SLOAD PUSH2 0x1ABE SWAP1 PUSH2 0x2FD0 JUMP JUMPDEST DUP1 PUSH1 0x1F ADD PUSH1 0x20 DUP1 SWAP2 DIV MUL PUSH1 0x20 ADD PUSH1 0x40 MLOAD SWAP1 DUP2 ADD PUSH1 0x40 MSTORE DUP1 SWAP3 SWAP2 SWAP1 DUP2 DUP2 MSTORE PUSH1 0x20 ADD DUP3 DUP1 SLOAD PUSH2 0x1AEA SWAP1 PUSH2 0x2FD0 JUMP JUMPDEST DUP1 ISZERO PUSH2 0x1B37 JUMPI DUP1 PUSH1 0x1F LT PUSH2 0x1B0C JUMPI PUSH2 0x100 DUP1 DUP4 SLOAD DIV MUL DUP4 MSTORE SWAP2 PUSH1 0x20 ADD SWAP2 PUSH2 0x1B37 JUMP JUMPDEST DUP3 ADD SWAP2 SWAP1 PUSH1 0x0 MSTORE PUSH1 0x20 PUSH1 0x0 KECCAK256 SWAP1 JUMPDEST DUP2 SLOAD DUP2 MSTORE SWAP1 PUSH1 0x1 ADD SWAP1 PUSH1 0x20 ADD DUP1 DUP4 GT PUSH2 0x1B1A JUMPI DUP3 SWAP1 SUB PUSH1 0x1F AND DUP3 ADD SWAP2 JUMPDEST POP POP POP POP POP DUP2 MSTORE PUSH1 0x20 ADD PUSH1 0x1 DUP3 ADD DUP1 SLOAD PUSH2 0x1B50 SWAP1 PUSH2 0x2FD0 JUMP JUMPDEST DUP1 PUSH1 0x1F ADD PUSH1 0x20 DUP1 SWAP2 DIV MUL PUSH1 0x20 ADD PUSH1 0x40 MLOAD SWAP1 DUP2 ADD PUSH1 0x40 MSTORE DUP1 SWAP3 SWAP2 SWAP1 DUP2 DUP2 MSTORE PUSH1 0x20 ADD DUP3 DUP1 SLOAD PUSH2 0x1B7C SWAP1 PUSH2 0x2FD0 JUMP JUMPDEST DUP1 ISZERO PUSH2 0x1BC9 JUMPI DUP1 PUSH1 0x1F LT PUSH2 0x1B9E JUMPI PUSH2 0x100 DUP1 DUP4 SLOAD DIV MUL DUP4 MSTORE SWAP2 PUSH1 0x20 ADD SWAP2 PUSH2 0x1BC9 JUMP JUMPDEST DUP3 ADD SWAP2 SWAP1 PUSH1 0x0 MSTORE PUSH1 0x20 PUSH1 0x0 KECCAK256 SWAP1 JUMPDEST DUP2 SLOAD DUP2 MSTORE SWAP1 PUSH1 0x1 ADD SWAP1 PUSH1 0x20 ADD DUP1 DUP4 GT PUSH2 0x1BAC JUMPI DUP3 SWAP1 SUB PUSH1 0x1F AND DUP3 ADD SWAP2 JUMPDEST POP POP POP POP POP DUP2 MSTORE PUSH1 0x20 ADD PUSH1 0x2 DUP3 ADD DUP1 SLOAD PUSH2 0x1BE2 SWAP1 PUSH2 0x2FD0 JUMP JUMPDEST DUP1 PUSH1 0x1F ADD PUSH1 0x20 DUP1 SWAP2 DIV MUL PUSH1 0x20 ADD PUSH1 0x40 MLOAD SWAP1 DUP2 ADD PUSH1 0x40 MSTORE DUP1 SWAP3 SWAP2 SWAP1 DUP2 DUP2 MSTORE PUSH1 0x20 ADD DUP3 DUP1 SLOAD PUSH2 0x1C0E SWAP1 PUSH2 0x2FD0 JUMP JUMPDEST DUP1 ISZERO PUSH2 0x1C5B JUMPI DUP1 PUSH1 0x1F LT PUSH2 0x1C30 JUMPI PUSH2 0x100 DUP1 DUP4 SLOAD DIV MUL DUP4 MSTORE SWAP2 PUSH1 0x20 ADD SWAP2 PUSH2 0x1C5B JUMP JUMPDEST DUP3 ADD SWAP2 SWAP1 PUSH1 0x0 MSTORE PUSH1 0x20 PUSH1 0x0 KECCAK256 SWAP1 JUMPDEST DUP2 SLOAD DUP2 MSTORE SWAP1 PUSH1 0x1 ADD SWAP1 PUSH1 0x20 ADD DUP1 DUP4 GT PUSH2 0x1C3E JUMPI DUP3 SWAP1 SUB PUSH1 0x1F AND DUP3 ADD SWAP2 JUMPDEST POP POP POP POP POP DUP2 MSTORE PUSH1 0x20 ADD PUSH1 0x3 DUP3 ADD DUP1 SLOAD PUSH2 0x1C74 SWAP1 PUSH2 0x2FD0 JUMP JUMPDEST DUP1 PUSH1 0x1F ADD PUSH1 0x20 DUP1 SWAP2 DIV MUL PUSH1 0x20 ADD PUSH1 0x40 MLOAD SWAP1 DUP2 ADD PUSH1 0x40 MSTORE DUP1 SWAP3 SWAP2 SWAP1 DUP2 DUP2 MSTORE PUSH1 0x20 ADD DUP3 DUP1 SLOAD PUSH2 0x1CA0 SWAP1 PUSH2 0x2FD0 JUMP JUMPDEST DUP1 ISZERO PUSH2 0x1CED JUMPI DUP1 PUSH1 0x1F LT PUSH2 0x1CC2 JUMPI PUSH2 0x100 DUP1 DUP4 SLOAD DIV MUL DUP4 MSTORE SWAP2 PUSH1 0x20 ADD SWAP2 PUSH2 0x1CED JUMP JUMPDEST DUP3 ADD SWAP2 SWAP1 PUSH1 0x0 MSTORE PUSH1 0x20 PUSH1 0x0 KECCAK256 SWAP1 JUMPDEST DUP2 SLOAD DUP2 MSTORE SWAP1 PUSH1 0x1 ADD SWAP1 PUSH1 0x20 ADD DUP1 DUP4 GT PUSH2 0x1CD0 JUMPI DUP3 SWAP1 SUB PUSH1 0x1F AND DUP3 ADD SWAP2 JUMPDEST POP POP POP POP POP DUP2 MSTORE PUSH1 0x20 ADD PUSH1 0x4 DUP3 ADD DUP1 SLOAD PUSH2 0x1D06 SWAP1 PUSH2 0x2FD0 JUMP JUMPDEST DUP1 PUSH1 0x1F ADD PUSH1 0x20 DUP1 SWAP2 DIV MUL PUSH1 0x20 ADD PUSH1 0x40 MLOAD SWAP1 DUP2 ADD PUSH1 0x40 MSTORE DUP1 SWAP3 SWAP2 SWAP1 DUP2 DUP2 MSTORE PUSH1 0x20 ADD DUP3 DUP1 SLOAD PUSH2 0x1D32 SWAP1 PUSH2 0x2FD0 JUMP JUMPDEST DUP1 ISZERO PUSH2 0x1D7F JUMPI DUP1 PUSH1 0x1F LT PUSH2 0x1D54 JUMPI PUSH2 0x100 DUP1 DUP4 SLOAD DIV MUL DUP4 MSTORE SWAP2 PUSH1 0x20 ADD SWAP2 PUSH2 0x1D7F JUMP JUMPDEST DUP3 ADD SWAP2 SWAP1 PUSH1 0x0 MSTORE PUSH1 0x20 PUSH1 0x0 KECCAK256 SWAP1 JUMPDEST DUP2 SLOAD DUP2 MSTORE SWAP1 PUSH1 0x1 ADD SWAP1 PUSH1 0x20 ADD DUP1 DUP4 GT PUSH2 0x1D62 JUMPI DUP3 SWAP1 SUB PUSH1 0x1F AND DUP3 ADD SWAP2 JUMPDEST POP POP POP POP POP DUP2 MSTORE PUSH1 0x20 ADD PUSH1 0x5 DUP3 ADD DUP1 SLOAD PUSH2 0x1D98 SWAP1 PUSH2 0x2FD0 JUMP JUMPDEST DUP1 PUSH1 0x1F ADD PUSH1 0x20 DUP1 SWAP2 DIV MUL PUSH1 0x20 ADD PUSH1 0x40 MLOAD SWAP1 DUP2 ADD PUSH1 0x40 MSTORE DUP1 SWAP3 SWAP2 SWAP1 DUP2 DUP2 MSTORE PUSH1 0x20 ADD DUP3 DUP1 SLOAD PUSH2 0x1DC4 SWAP1 PUSH2 0x2FD0 JUMP JUMPDEST DUP1 ISZERO PUSH2 0x1E11 JUMPI DUP1 PUSH1 0x1F LT PUSH2 0x1DE6 JUMPI PUSH2 0x100 DUP1 DUP4 SLOAD DIV MUL DUP4 MSTORE SWAP2 PUSH1 0x20 ADD SWAP2 PUSH2 0x1E11 JUMP JUMPDEST DUP3 ADD SWAP2 SWAP1 PUSH1 0x0 MSTORE PUSH1 0x20 PUSH1 0x0 KECCAK256 SWAP1 JUMPDEST DUP2 SLOAD DUP2 MSTORE SWAP1 PUSH1 0x1 ADD SWAP1 PUSH1 0x20 ADD DUP1 DUP4 GT PUSH2 0x1DF4 JUMPI DUP3 SWAP1 SUB PUSH1 0x1F AND DUP3 ADD SWAP2 JUMPDEST POP POP POP POP POP DUP2 MSTORE PUSH1 0x20 ADD PUSH1 0x6 DUP3 ADD SLOAD DUP2 MSTORE PUSH1 0x20 ADD PUSH1 0x7 DUP3 ADD SLOAD DUP2 MSTORE PUSH1 0x20 ADD PUSH1 0x8 DUP3 ADD DUP1 SLOAD PUSH2 0x1E3E SWAP1 PUSH2 0x2FD0 JUMP JUMPDEST DUP1 PUSH1 0x1F ADD PUSH1 0x20 DUP1 SWAP2 DIV MUL PUSH1 0x20 ADD PUSH1 0x40 MLOAD SWAP1 DUP2 ADD PUSH1 0x40 MSTORE DUP1 SWAP3 SWAP2 SWAP1 DUP2 DUP2 MSTORE PUSH1 0x20 ADD DUP3 DUP1 SLOAD PUSH2 0x1E6A SWAP1 PUSH2 0x2FD0 JUMP JUMPDEST DUP1 ISZERO PUSH2 0x1EB7 JUMPI DUP1 PUSH1 0x1F LT PUSH2 0x1E8C JUMPI PUSH2 0x100 DUP1 DUP4 SLOAD DIV MUL DUP4 MSTORE SWAP2 PUSH1 0x20 ADD SWAP2 PUSH2 0x1EB7 JUMP JUMPDEST DUP3 ADD SWAP2 SWAP1 PUSH1 0x0 MSTORE PUSH1 0x20 PUSH1 0x0 KECCAK256 SWAP1 JUMPDEST DUP2 SLOAD DUP2 MSTORE SWAP1 PUSH1 0x1 ADD SWAP1 PUSH1 0x20 ADD DUP1 DUP4 GT PUSH2 0x1E9A JUMPI DUP3 SWAP1 SUB PUSH1 0x1F AND DUP3 ADD SWAP2 JUMPDEST POP POP POP POP POP DUP2 MSTORE PUSH1 0x20 ADD PUSH1 0x9 DUP3 ADD DUP1 SLOAD PUSH2 0x1ED0 SWAP1 PUSH2 0x2FD0 JUMP JUMPDEST DUP1 PUSH1 0x1F ADD PUSH1 0x20 DUP1 SWAP2 DIV MUL PUSH1 0x20 ADD PUSH1 0x40 MLOAD SWAP1 DUP2 ADD PUSH1 0x40 MSTORE DUP1 SWAP3 SWAP2 SWAP1 DUP2 DUP2 MSTORE PUSH1 0x20 ADD DUP3 DUP1 SLOAD PUSH2 0x1EFC SWAP1 PUSH2 0x2FD0 JUMP JUMPDEST DUP1 ISZERO PUSH2 0x1F49 JUMPI DUP1 PUSH1 0x1F LT PUSH2 0x1F1E JUMPI PUSH2 0x100 DUP1 DUP4 SLOAD DIV MUL DUP4 MSTORE SWAP2 PUSH1 0x20 ADD SWAP2 PUSH2 0x1F49 JUMP JUMPDEST DUP3 ADD SWAP2 SWAP1 PUSH1 0x0 MSTORE PUSH1 0x20 PUSH1 0x0 KECCAK256 SWAP1 JUMPDEST DUP2 SLOAD DUP2 MSTORE SWAP1 PUSH1 0x1 ADD SWAP1 PUSH1 0x20 ADD DUP1 DUP4 GT PUSH2 0x1F2C JUMPI DUP3 SWAP1 SUB PUSH1 0x1F AND DUP3 ADD SWAP2 JUMPDEST POP POP POP POP POP DUP2 MSTORE PUSH1 0x20 ADD PUSH1 0xA DUP3 ADD SLOAD DUP2 MSTORE POP POP DUP4 DUP4 DUP2 MLOAD DUP2 LT PUSH2 0x1F6F JUMPI PUSH2 0x1F6E PUSH2 0x3001 JUMP JUMPDEST JUMPDEST PUSH1 0x20 MUL PUSH1 0x20 ADD ADD DUP2 SWAP1 MSTORE POP DUP2 DUP1 PUSH2 0x1F85 SWAP1 PUSH2 0x3119 JUMP JUMPDEST SWAP3 POP POP JUMPDEST DUP1 DUP1 PUSH2 0x1F94 SWAP1 PUSH2 0x3119 JUMP JUMPDEST SWAP2 POP POP PUSH2 0x19CA JUMP JUMPDEST POP DUP2 SWAP4 POP POP POP POP SWAP2 SWAP1 POP JUMP JUMPDEST PUSH2 0x1FB0 PUSH2 0x25D9 JUMP JUMPDEST PUSH1 0x0 DUP1 DUP4 PUSH1 0x40 MLOAD PUSH2 0x1FC1 SWAP2 SWAP1 PUSH2 0x3192 JUMP JUMPDEST SWAP1 DUP2 MSTORE PUSH1 0x20 ADD PUSH1 0x40 MLOAD DUP1 SWAP2 SUB SWAP1 KECCAK256 PUSH1 0x0 ADD DUP1 SLOAD PUSH2 0x1FDD SWAP1 PUSH2 0x2FD0 JUMP JUMPDEST SWAP1 POP SUB PUSH2 0x201F JUMPI PUSH1 0x40 MLOAD PUSH32 0x8C379A000000000000000000000000000000000000000000000000000000000 DUP2 MSTORE PUSH1 0x4 ADD PUSH2 0x2016 SWAP1 PUSH2 0x31F5 JUMP JUMPDEST PUSH1 0x40 MLOAD DUP1 SWAP2 SUB SWAP1 REVERT JUMPDEST PUSH1 0x0 DUP3 PUSH1 0x40 MLOAD PUSH2 0x202F SWAP2 SWAP1 PUSH2 0x3192 JUMP JUMPDEST SWAP1 DUP2 MSTORE PUSH1 0x20 ADD PUSH1 0x40 MLOAD DUP1 SWAP2 SUB SWAP1 KECCAK256 PUSH1 0x40 MLOAD DUP1 PUSH2 0x160 ADD PUSH1 0x40 MSTORE SWAP1 DUP2 PUSH1 0x0 DUP3 ADD DUP1 SLOAD PUSH2 0x2059 SWAP1 PUSH2 0x2FD0 JUMP JUMPDEST DUP1 PUSH1 0x1F ADD PUSH1 0x20 DUP1 SWAP2 DIV MUL PUSH1 0x20 ADD PUSH1 0x40 MLOAD SWAP1 DUP2 ADD PUSH1 0x40 MSTORE DUP1 SWAP3 SWAP2 SWAP1 DUP2 DUP2 MSTORE PUSH1 0x20 ADD DUP3 DUP1 SLOAD PUSH2 0x2085 SWAP1 PUSH2 0x2FD0 JUMP JUMPDEST DUP1 ISZERO PUSH2 0x20D2 JUMPI DUP1 PUSH1 0x1F LT PUSH2 0x20A7 JUMPI PUSH2 0x100 DUP1 DUP4 SLOAD DIV MUL DUP4 MSTORE SWAP2 PUSH1 0x20 ADD SWAP2 PUSH2 0x20D2 JUMP JUMPDEST DUP3 ADD SWAP2 SWAP1 PUSH1 0x0 MSTORE PUSH1 0x20 PUSH1 0x0 KECCAK256 SWAP1 JUMPDEST DUP2 SLOAD DUP2 MSTORE SWAP1 PUSH1 0x1 ADD SWAP1 PUSH1 0x20 ADD DUP1 DUP4 GT PUSH2 0x20B5 JUMPI DUP3 SWAP1 SUB PUSH1 0x1F AND DUP3 ADD SWAP2 JUMPDEST POP POP POP POP POP DUP2 MSTORE PUSH1 0x20 ADD PUSH1 0x1 DUP3 ADD DUP1 SLOAD PUSH2 0x20EB SWAP1 PUSH2 0x2FD0 JUMP JUMPDEST DUP1 PUSH1 0x1F ADD PUSH1 0x20 DUP1 SWAP2 DIV MUL PUSH1 0x20 ADD PUSH1 0x40 MLOAD SWAP1 DUP2 ADD PUSH1 0x40 MSTORE DUP1 SWAP3 SWAP2 SWAP1 DUP2 DUP2 MSTORE PUSH1 0x20 ADD DUP3 DUP1 SLOAD PUSH2 0x2117 SWAP1 PUSH2 0x2FD0 JUMP JUMPDEST DUP1 ISZERO PUSH2 0x2164 JUMPI DUP1 PUSH1 0x1F LT PUSH2 0x2139 JUMPI PUSH2 0x100 DUP1 DUP4 SLOAD DIV MUL DUP4 MSTORE SWAP2 PUSH1 0x20 ADD SWAP2 PUSH2 0x2164 JUMP JUMPDEST DUP3 ADD SWAP2 SWAP1 PUSH1 0x0 MSTORE PUSH1 0x20 PUSH1 0x0 KECCAK256 SWAP1 JUMPDEST DUP2 SLOAD DUP2 MSTORE SWAP1 PUSH1 0x1 ADD SWAP1 PUSH1 0x20 ADD DUP1 DUP4 GT PUSH2 0x2147 JUMPI DUP3 SWAP1 SUB PUSH1 0x1F AND DUP3 ADD SWAP2 JUMPDEST POP POP POP POP POP DUP2 MSTORE PUSH1 0x20 ADD PUSH1 0x2 DUP3 ADD DUP1 SLOAD PUSH2 0x217D SWAP1 PUSH2 0x2FD0 JUMP JUMPDEST DUP1 PUSH1 0x1F ADD PUSH1 0x20 DUP1 SWAP2 DIV MUL PUSH1 0x20 ADD PUSH1 0x40 MLOAD SWAP1 DUP2 ADD PUSH1 0x40 MSTORE DUP1 SWAP3 SWAP2 SWAP1 DUP2 DUP2 MSTORE PUSH1 0x20 ADD DUP3 DUP1 SLOAD PUSH2 0x21A9 SWAP1 PUSH2 0x2FD0 JUMP JUMPDEST DUP1 ISZERO PUSH2 0x21F6 JUMPI DUP1 PUSH1 0x1F LT PUSH2 0x21CB JUMPI PUSH2 0x100 DUP1 DUP4 SLOAD DIV MUL DUP4 MSTORE SWAP2 PUSH1 0x20 ADD SWAP2 PUSH2 0x21F6 JUMP JUMPDEST DUP3 ADD SWAP2 SWAP1 PUSH1 0x0 MSTORE PUSH1 0x20 PUSH1 0x0 KECCAK256 SWAP1 JUMPDEST DUP2 SLOAD DUP2 MSTORE SWAP1 PUSH1 0x1 ADD SWAP1 PUSH1 0x20 ADD DUP1 DUP4 GT PUSH2 0x21D9 JUMPI DUP3 SWAP1 SUB PUSH1 0x1F AND DUP3 ADD SWAP2 JUMPDEST POP POP POP POP POP DUP2 MSTORE PUSH1 0x20 ADD PUSH1 0x3 DUP3 ADD DUP1 SLOAD PUSH2 0x220F SWAP1 PUSH2 0x2FD0 JUMP JUMPDEST DUP1 PUSH1 0x1F ADD PUSH1 0x20 DUP1 SWAP2 DIV MUL PUSH1 0x20 ADD PUSH1 0x40 MLOAD SWAP1 DUP2 ADD PUSH1 0x40 MSTORE DUP1 SWAP3 SWAP2 SWAP1 DUP2 DUP2 MSTORE PUSH1 0x20 ADD DUP3 DUP1 SLOAD PUSH2 0x223B SWAP1 PUSH2 0x2FD0 JUMP JUMPDEST DUP1 ISZERO PUSH2 0x2288 JUMPI DUP1 PUSH1 0x1F LT PUSH2 0x225D JUMPI PUSH2 0x100 DUP1 DUP4 SLOAD DIV MUL DUP4 MSTORE SWAP2 PUSH1 0x20 ADD SWAP2 PUSH2 0x2288 JUMP JUMPDEST DUP3 ADD SWAP2 SWAP1 PUSH1 0x0 MSTORE PUSH1 0x20 PUSH1 0x0 KECCAK256 SWAP1 JUMPDEST DUP2 SLOAD DUP2 MSTORE SWAP1 PUSH1 0x1 ADD SWAP1 PUSH1 0x20 ADD DUP1 DUP4 GT PUSH2 0x226B JUMPI DUP3 SWAP1 SUB PUSH1 0x1F AND DUP3 ADD SWAP2 JUMPDEST POP POP POP POP POP DUP2 MSTORE PUSH1 0x20 ADD PUSH1 0x4 DUP3 ADD DUP1 SLOAD PUSH2 0x22A1 SWAP1 PUSH2 0x2FD0 JUMP JUMPDEST DUP1 PUSH1 0x1F ADD PUSH1 0x20 DUP1 SWAP2 DIV MUL PUSH1 0x20 ADD PUSH1 0x40 MLOAD SWAP1 DUP2 ADD PUSH1 0x40 MSTORE DUP1 SWAP3 SWAP2 SWAP1 DUP2 DUP2 MSTORE PUSH1 0x20 ADD DUP3 DUP1 SLOAD PUSH2 0x22CD SWAP1 PUSH2 0x2FD0 JUMP JUMPDEST DUP1 ISZERO PUSH2 0x231A JUMPI DUP1 PUSH1 0x1F LT PUSH2 0x22EF JUMPI PUSH2 0x100 DUP1 DUP4 SLOAD DIV MUL DUP4 MSTORE SWAP2 PUSH1 0x20 ADD SWAP2 PUSH2 0x231A JUMP JUMPDEST DUP3 ADD SWAP2 SWAP1 PUSH1 0x0 MSTORE PUSH1 0x20 PUSH1 0x0 KECCAK256 SWAP1 JUMPDEST DUP2 SLOAD DUP2 MSTORE SWAP1 PUSH1 0x1 ADD SWAP1 PUSH1 0x20 ADD DUP1 DUP4 GT PUSH2 0x22FD JUMPI DUP3 SWAP1 SUB PUSH1 0x1F AND DUP3 ADD SWAP2 JUMPDEST POP POP POP POP POP DUP2 MSTORE PUSH1 0x20 ADD PUSH1 0x5 DUP3 ADD DUP1 SLOAD PUSH2 0x2333 SWAP1 PUSH2 0x2FD0 JUMP JUMPDEST DUP1 PUSH1 0x1F ADD PUSH1 0x20 DUP1 SWAP2 DIV MUL PUSH1 0x20 ADD PUSH1 0x40 MLOAD SWAP1 DUP2 ADD PUSH1 0x40 MSTORE DUP1 SWAP3 SWAP2 SWAP1 DUP2 DUP2 MSTORE PUSH1 0x20 ADD DUP3 DUP1 SLOAD PUSH2 0x235F SWAP1 PUSH2 0x2FD0 JUMP JUMPDEST DUP1 ISZERO PUSH2 0x23AC JUMPI DUP1 PUSH1 0x1F LT PUSH2 0x2381 JUMPI PUSH2 0x100 DUP1 DUP4 SLOAD DIV MUL DUP4 MSTORE SWAP2 PUSH1 0x20 ADD SWAP2 PUSH2 0x23AC JUMP JUMPDEST DUP3 ADD SWAP2 SWAP1 PUSH1 0x0 MSTORE PUSH1 0x20 PUSH1 0x0 KECCAK256 SWAP1 JUMPDEST DUP2 SLOAD DUP2 MSTORE SWAP1 PUSH1 0x1 ADD SWAP1 PUSH1 0x20 ADD DUP1 DUP4 GT PUSH2 0x238F JUMPI DUP3 SWAP1 SUB PUSH1 0x1F AND DUP3 ADD SWAP2 JUMPDEST POP POP POP POP POP DUP2 MSTORE PUSH1 0x20 ADD PUSH1 0x6 DUP3 ADD SLOAD DUP2 MSTORE PUSH1 0x20 ADD PUSH1 0x7 DUP3 ADD SLOAD DUP2 MSTORE PUSH1 0x20 ADD PUSH1 0x8 DUP3 ADD DUP1 SLOAD PUSH2 0x23D9 SWAP1 PUSH2 0x2FD0 JUMP JUMPDEST DUP1 PUSH1 0x1F ADD PUSH1 0x20 DUP1 SWAP2 DIV MUL PUSH1 0x20 ADD PUSH1 0x40 MLOAD SWAP1 DUP2 ADD PUSH1 0x40 MSTORE DUP1 SWAP3 SWAP2 SWAP1 DUP2 DUP2 MSTORE PUSH1 0x20 ADD DUP3 DUP1 SLOAD PUSH2 0x2405 SWAP1 PUSH2 0x2FD0 JUMP JUMPDEST DUP1 ISZERO PUSH2 0x2452 JUMPI DUP1 PUSH1 0x1F LT PUSH2 0x2427 JUMPI PUSH2 0x100 DUP1 DUP4 SLOAD DIV MUL DUP4 MSTORE SWAP2 PUSH1 0x20 ADD SWAP2 PUSH2 0x2452 JUMP JUMPDEST DUP3 ADD SWAP2 SWAP1 PUSH1 0x0 MSTORE PUSH1 0x20 PUSH1 0x0 KECCAK256 SWAP1 JUMPDEST DUP2 SLOAD DUP2 MSTORE SWAP1 PUSH1 0x1 ADD SWAP1 PUSH1 0x20 ADD DUP1 DUP4 GT PUSH2 0x2435 JUMPI DUP3 SWAP1 SUB PUSH1 0x1F AND DUP3 ADD SWAP2 JUMPDEST POP POP POP POP POP DUP2 MSTORE PUSH1 0x20 ADD PUSH1 0x9 DUP3 ADD DUP1 SLOAD PUSH2 0x246B SWAP1 PUSH2 0x2FD0 JUMP JUMPDEST DUP1 PUSH1 0x1F ADD PUSH1 0x20 DUP1 SWAP2 DIV MUL PUSH1 0x20 ADD PUSH1 0x40 MLOAD SWAP1 DUP2 ADD PUSH1 0x40 MSTORE DUP1 SWAP3 SWAP2 SWAP1 DUP2 DUP2 MSTORE PUSH1 0x20 ADD DUP3 DUP1 SLOAD PUSH2 0x2497 SWAP1 PUSH2 0x2FD0 JUMP JUMPDEST DUP1 ISZERO PUSH2 0x24E4 JUMPI DUP1 PUSH1 0x1F LT PUSH2 0x24B9 JUMPI PUSH2 0x100 DUP1 DUP4 SLOAD DIV MUL DUP4 MSTORE SWAP2 PUSH1 0x20 ADD SWAP2 PUSH2 0x24E4 JUMP JUMPDEST DUP3 ADD SWAP2 SWAP1 PUSH1 0x0 MSTORE PUSH1 0x20 PUSH1 0x0 KECCAK256 SWAP1 JUMPDEST DUP2 SLOAD DUP2 MSTORE SWAP1 PUSH1 0x1 ADD SWAP1 PUSH1 0x20 ADD DUP1 DUP4 GT PUSH2 0x24C7 JUMPI DUP3 SWAP1 SUB PUSH1 0x1F AND DUP3 ADD SWAP2 JUMPDEST POP POP POP POP POP DUP2 MSTORE PUSH1 0x20 ADD PUSH1 0xA DUP3 ADD SLOAD DUP2 MSTORE POP POP SWAP1 POP SWAP2 SWAP1 POP JUMP JUMPDEST PUSH1 0x0 DUP1 DUP4 PUSH1 0x40 MLOAD PUSH2 0x250F SWAP2 SWAP1 PUSH2 0x3192 JUMP JUMPDEST SWAP1 DUP2 MSTORE PUSH1 0x20 ADD PUSH1 0x40 MLOAD DUP1 SWAP2 SUB SWAP1 KECCAK256 PUSH1 0x0 ADD DUP1 SLOAD PUSH2 0x252B SWAP1 PUSH2 0x2FD0 JUMP JUMPDEST SWAP1 POP SUB PUSH2 0x256D JUMPI PUSH1 0x40 MLOAD PUSH32 0x8C379A000000000000000000000000000000000000000000000000000000000 DUP2 MSTORE PUSH1 0x4 ADD PUSH2 0x2564 SWAP1 PUSH2 0x31F5 JUMP JUMPDEST PUSH1 0x40 MLOAD DUP1 SWAP2 SUB SWAP1 REVERT JUMPDEST DUP1 PUSH1 0x0 DUP4 PUSH1 0x40 MLOAD PUSH2 0x257E SWAP2 SWAP1 PUSH2 0x3192 JUMP JUMPDEST SWAP1 DUP2 MSTORE PUSH1 0x20 ADD PUSH1 0x40 MLOAD DUP1 SWAP2 SUB SWAP1 KECCAK256 PUSH1 0x4 ADD SWAP1 DUP2 PUSH2 0x259B SWAP2 SWAP1 PUSH2 0x33AC JUMP JUMPDEST POP PUSH32 0xC61FFB03925558D248FBA37B73270B12903D3F0BA5797AF8B71A9F8BF0761A98 DUP3 DUP3 PUSH1 0x40 MLOAD PUSH2 0x25CD SWAP3 SWAP2 SWAP1 PUSH2 0x347E JUMP JUMPDEST PUSH1 0x40 MLOAD DUP1 SWAP2 SUB SWAP1 LOG1 POP POP JUMP JUMPDEST PUSH1 0x40 MLOAD DUP1 PUSH2 0x160 ADD PUSH1 0x40 MSTORE DUP1 PUSH1 0x60 DUP2 MSTORE PUSH1 0x20 ADD PUSH1 0x60 DUP2 MSTORE PUSH1 0x20 ADD PUSH1 0x60 DUP2 MSTORE PUSH1 0x20 ADD PUSH1 0x60 DUP2 MSTORE PUSH1 0x20 ADD PUSH1 0x60 DUP2 MSTORE PUSH1 0x20 ADD PUSH1 0x60 DUP2 MSTORE PUSH1 0x20 ADD PUSH1 0x0 DUP2 MSTORE PUSH1 0x20 ADD PUSH1 0x0 DUP2 MSTORE PUSH1 0x20 ADD PUSH1 0x60 DUP2 MSTORE PUSH1 0x20 ADD PUSH1 0x60 DUP2 MSTORE PUSH1 0x20 ADD PUSH1 0x0 DUP2 MSTORE POP SWAP1 JUMP JUMPDEST PUSH1 0x0 PUSH1 0x40 MLOAD SWAP1 POP SWAP1 JUMP JUMPDEST PUSH1 0x0 DUP1 REVERT JUMPDEST PUSH1 0x0 DUP1 REVERT JUMPDEST PUSH1 0x0 DUP1 REVERT JUMPDEST PUSH1 0x0 DUP1 REVERT JUMPDEST PUSH1 0x0 PUSH1 0x1F NOT PUSH1 0x1F DUP4 ADD AND SWAP1 POP SWAP2 SWAP1 POP JUMP JUMPDEST PUSH32 0x4E487B7100000000000000000000000000000000000000000000000000000000 PUSH1 0x0 MSTORE PUSH1 0x41 PUSH1 0x4 MSTORE PUSH1 0x24 PUSH1 0x0 REVERT JUMPDEST PUSH2 0x269A DUP3 PUSH2 0x2651 JUMP JUMPDEST DUP2 ADD DUP2 DUP2 LT PUSH8 0xFFFFFFFFFFFFFFFF DUP3 GT OR ISZERO PUSH2 0x26B9 JUMPI PUSH2 0x26B8 PUSH2 0x2662 JUMP JUMPDEST JUMPDEST DUP1 PUSH1 0x40 MSTORE POP POP POP JUMP JUMPDEST PUSH1 0x0 PUSH2 0x26CC PUSH2 0x2633 JUMP JUMPDEST SWAP1 POP PUSH2 0x26D8 DUP3 DUP3 PUSH2 0x2691 JUMP JUMPDEST SWAP2 SWAP1 POP JUMP JUMPDEST PUSH1 0x0 PUSH8 0xFFFFFFFFFFFFFFFF DUP3 GT ISZERO PUSH2 0x26F8 JUMPI PUSH2 0x26F7 PUSH2 0x2662 JUMP JUMPDEST JUMPDEST PUSH2 0x2701 DUP3 PUSH2 0x2651 JUMP JUMPDEST SWAP1 POP PUSH1 0x20 DUP2 ADD SWAP1 POP SWAP2 SWAP1 POP JUMP JUMPDEST DUP3 DUP2 DUP4 CALLDATACOPY PUSH1 0x0 DUP4 DUP4 ADD MSTORE POP POP POP JUMP JUMPDEST PUSH1 0x0 PUSH2 0x2730 PUSH2 0x272B DUP5 PUSH2 0x26DD JUMP JUMPDEST PUSH2 0x26C2 JUMP JUMPDEST SWAP1 POP DUP3 DUP2 MSTORE PUSH1 0x20 DUP2 ADD DUP5 DUP5 DUP5 ADD GT ISZERO PUSH2 0x274C JUMPI PUSH2 0x274B PUSH2 0x264C JUMP JUMPDEST JUMPDEST PUSH2 0x2757 DUP5 DUP3 DUP6 PUSH2 0x270E JUMP JUMPDEST POP SWAP4 SWAP3 POP POP POP JUMP JUMPDEST PUSH1 0x0 DUP3 PUSH1 0x1F DUP4 ADD SLT PUSH2 0x2774 JUMPI PUSH2 0x2773 PUSH2 0x2647 JUMP JUMPDEST JUMPDEST DUP2 CALLDATALOAD PUSH2 0x2784 DUP5 DUP3 PUSH1 0x20 DUP7 ADD PUSH2 0x271D JUMP JUMPDEST SWAP2 POP POP SWAP3 SWAP2 POP POP JUMP JUMPDEST PUSH1 0x0 PUSH1 0x20 DUP3 DUP5 SUB SLT ISZERO PUSH2 0x27A3 JUMPI PUSH2 0x27A2 PUSH2 0x263D JUMP JUMPDEST JUMPDEST PUSH1 0x0 DUP3 ADD CALLDATALOAD PUSH8 0xFFFFFFFFFFFFFFFF DUP2 GT ISZERO PUSH2 0x27C1 JUMPI PUSH2 0x27C0 PUSH2 0x2642 JUMP JUMPDEST JUMPDEST PUSH2 0x27CD DUP5 DUP3 DUP6 ADD PUSH2 0x275F JUMP JUMPDEST SWAP2 POP POP SWAP3 SWAP2 POP POP JUMP JUMPDEST PUSH1 0x0 DUP2 MLOAD SWAP1 POP SWAP2 SWAP1 POP JUMP JUMPDEST PUSH1 0x0 DUP3 DUP3 MSTORE PUSH1 0x20 DUP3 ADD SWAP1 POP SWAP3 SWAP2 POP POP JUMP JUMPDEST PUSH1 0x0 JUMPDEST DUP4 DUP2 LT ISZERO PUSH2 0x2810 JUMPI DUP1 DUP3 ADD MLOAD DUP2 DUP5 ADD MSTORE PUSH1 0x20 DUP2 ADD SWAP1 POP PUSH2 0x27F5 JUMP JUMPDEST PUSH1 0x0 DUP5 DUP5 ADD MSTORE POP POP POP POP JUMP JUMPDEST PUSH1 0x0 PUSH2 0x2827 DUP3 PUSH2 0x27D6 JUMP JUMPDEST PUSH2 0x2831 DUP2 DUP6 PUSH2 0x27E1 JUMP JUMPDEST SWAP4 POP PUSH2 0x2841 DUP2 DUP6 PUSH1 0x20 DUP7 ADD PUSH2 0x27F2 JUMP JUMPDEST PUSH2 0x284A DUP2 PUSH2 0x2651 JUMP JUMPDEST DUP5 ADD SWAP2 POP POP SWAP3 SWAP2 POP POP JUMP JUMPDEST PUSH1 0x0 DUP2 SWAP1 POP SWAP2 SWAP1 POP JUMP JUMPDEST PUSH2 0x2868 DUP2 PUSH2 0x2855 JUMP JUMPDEST DUP3 MSTORE POP POP JUMP JUMPDEST PUSH1 0x0 PUSH2 0x160 DUP3 ADD SWAP1 POP DUP2 DUP2 SUB PUSH1 0x0 DUP4 ADD MSTORE PUSH2 0x2889 DUP2 DUP15 PUSH2 0x281C JUMP JUMPDEST SWAP1 POP DUP2 DUP2 SUB PUSH1 0x20 DUP4 ADD MSTORE PUSH2 0x289D DUP2 DUP14 PUSH2 0x281C JUMP JUMPDEST SWAP1 POP DUP2 DUP2 SUB PUSH1 0x40 DUP4 ADD MSTORE PUSH2 0x28B1 DUP2 DUP13 PUSH2 0x281C JUMP JUMPDEST SWAP1 POP DUP2 DUP2 SUB PUSH1 0x60 DUP4 ADD MSTORE PUSH2 0x28C5 DUP2 DUP12 PUSH2 0x281C JUMP JUMPDEST SWAP1 POP DUP2 DUP2 SUB PUSH1 0x80 DUP4 ADD MSTORE PUSH2 0x28D9 DUP2 DUP11 PUSH2 0x281C JUMP JUMPDEST SWAP1 POP DUP2 DUP2 SUB PUSH1 0xA0 DUP4 ADD MSTORE PUSH2 0x28ED DUP2 DUP10 PUSH2 0x281C JUMP JUMPDEST SWAP1 POP PUSH2 0x28FC PUSH1 0xC0 DUP4 ADD DUP9 PUSH2 0x285F JUMP JUMPDEST PUSH2 0x2909 PUSH1 0xE0 DUP4 ADD DUP8 PUSH2 0x285F JUMP JUMPDEST DUP2 DUP2 SUB PUSH2 0x100 DUP4 ADD MSTORE PUSH2 0x291C DUP2 DUP7 PUSH2 0x281C JUMP JUMPDEST SWAP1 POP DUP2 DUP2 SUB PUSH2 0x120 DUP4 ADD MSTORE PUSH2 0x2931 DUP2 DUP6 PUSH2 0x281C JUMP JUMPDEST SWAP1 POP PUSH2 0x2941 PUSH2 0x140 DUP4 ADD DUP5 PUSH2 0x285F JUMP JUMPDEST SWAP13 SWAP12 POP POP POP POP POP POP POP POP POP POP POP POP JUMP JUMPDEST PUSH1 0x0 DUP2 MLOAD SWAP1 POP SWAP2 SWAP1 POP JUMP JUMPDEST PUSH1 0x0 DUP3 DUP3 MSTORE PUSH1 0x20 DUP3 ADD SWAP1 POP SWAP3 SWAP2 POP POP JUMP JUMPDEST PUSH1 0x0 DUP2 SWAP1 POP PUSH1 0x20 DUP3 ADD SWAP1 POP SWAP2 SWAP1 POP JUMP JUMPDEST PUSH1 0x0 DUP3 DUP3 MSTORE PUSH1 0x20 DUP3 ADD SWAP1 POP SWAP3 SWAP2 POP POP JUMP JUMPDEST PUSH1 0x0 PUSH2 0x2999 DUP3 PUSH2 0x27D6 JUMP JUMPDEST PUSH2 0x29A3 DUP2 DUP6 PUSH2 0x297D JUMP JUMPDEST SWAP4 POP PUSH2 0x29B3 DUP2 DUP6 PUSH1 0x20 DUP7 ADD PUSH2 0x27F2 JUMP JUMPDEST PUSH2 0x29BC DUP2 PUSH2 0x2651 JUMP JUMPDEST DUP5 ADD SWAP2 POP POP SWAP3 SWAP2 POP POP JUMP JUMPDEST PUSH2 0x29D0 DUP2 PUSH2 0x2855 JUMP JUMPDEST DUP3 MSTORE POP POP JUMP JUMPDEST PUSH1 0x0 PUSH2 0x160 DUP4 ADD PUSH1 0x0 DUP4 ADD MLOAD DUP5 DUP3 SUB PUSH1 0x0 DUP7 ADD MSTORE PUSH2 0x29F4 DUP3 DUP3 PUSH2 0x298E JUMP JUMPDEST SWAP2 POP POP PUSH1 0x20 DUP4 ADD MLOAD DUP5 DUP3 SUB PUSH1 0x20 DUP7 ADD MSTORE PUSH2 0x2A0E DUP3 DUP3 PUSH2 0x298E JUMP JUMPDEST SWAP2 POP POP PUSH1 0x40 DUP4 ADD MLOAD DUP5 DUP3 SUB PUSH1 0x40 DUP7 ADD MSTORE PUSH2 0x2A28 DUP3 DUP3 PUSH2 0x298E JUMP JUMPDEST SWAP2 POP POP PUSH1 0x60 DUP4 ADD MLOAD DUP5 DUP3 SUB PUSH1 0x60 DUP7 ADD MSTORE PUSH2 0x2A42 DUP3 DUP3 PUSH2 0x298E JUMP JUMPDEST SWAP2 POP POP PUSH1 0x80 DUP4 ADD MLOAD DUP5 DUP3 SUB PUSH1 0x80 DUP7 ADD MSTORE PUSH2 0x2A5C DUP3 DUP3 PUSH2 0x298E JUMP JUMPDEST SWAP2 POP POP PUSH1 0xA0 DUP4 ADD MLOAD DUP5 DUP3 SUB PUSH1 0xA0 DUP7 ADD MSTORE PUSH2 0x2A76 DUP3 DUP3 PUSH2 0x298E JUMP JUMPDEST SWAP2 POP POP PUSH1 0xC0 DUP4 ADD MLOAD PUSH2 0x2A8B PUSH1 0xC0 DUP7 ADD DUP3 PUSH2 0x29C7 JUMP JUMPDEST POP PUSH1 0xE0 DUP4 ADD MLOAD PUSH2 0x2A9E PUSH1 0xE0 DUP7 ADD DUP3 PUSH2 0x29C7 JUMP JUMPDEST POP PUSH2 0x100 DUP4 ADD MLOAD DUP5 DUP3 SUB PUSH2 0x100 DUP7 ADD MSTORE PUSH2 0x2AB8 DUP3 DUP3 PUSH2 0x298E JUMP JUMPDEST SWAP2 POP POP PUSH2 0x120 DUP4 ADD MLOAD DUP5 DUP3 SUB PUSH2 0x120 DUP7 ADD MSTORE PUSH2 0x2AD4 DUP3 DUP3 PUSH2 0x298E JUMP JUMPDEST SWAP2 POP POP PUSH2 0x140 DUP4 ADD MLOAD PUSH2 0x2AEB PUSH2 0x140 DUP7 ADD DUP3 PUSH2 0x29C7 JUMP JUMPDEST POP DUP1 SWAP2 POP POP SWAP3 SWAP2 POP POP JUMP JUMPDEST PUSH1 0x0 PUSH2 0x2B02 DUP4 DUP4 PUSH2 0x29D6 JUMP JUMPDEST SWAP1 POP SWAP3 SWAP2 POP POP JUMP JUMPDEST PUSH1 0x0 PUSH1 0x20 DUP3 ADD SWAP1 POP SWAP2 SWAP1 POP JUMP JUMPDEST PUSH1 0x0 PUSH2 0x2B22 DUP3 PUSH2 0x2951 JUMP JUMPDEST PUSH2 0x2B2C DUP2 DUP6 PUSH2 0x295C JUMP JUMPDEST SWAP4 POP DUP4 PUSH1 0x20 DUP3 MUL DUP6 ADD PUSH2 0x2B3E DUP6 PUSH2 0x296D JUMP JUMPDEST DUP1 PUSH1 0x0 JUMPDEST DUP6 DUP2 LT ISZERO PUSH2 0x2B7A JUMPI DUP5 DUP5 SUB DUP10 MSTORE DUP2 MLOAD PUSH2 0x2B5B DUP6 DUP3 PUSH2 0x2AF6 JUMP JUMPDEST SWAP5 POP PUSH2 0x2B66 DUP4 PUSH2 0x2B0A JUMP JUMPDEST SWAP3 POP PUSH1 0x20 DUP11 ADD SWAP10 POP POP PUSH1 0x1 DUP2 ADD SWAP1 POP PUSH2 0x2B42 JUMP JUMPDEST POP DUP3 SWAP8 POP DUP8 SWAP6 POP POP POP POP POP POP SWAP3 SWAP2 POP POP JUMP JUMPDEST PUSH1 0x0 PUSH1 0x20 DUP3 ADD SWAP1 POP DUP2 DUP2 SUB PUSH1 0x0 DUP4 ADD MSTORE PUSH2 0x2BA6 DUP2 DUP5 PUSH2 0x2B17 JUMP JUMPDEST SWAP1 POP SWAP3 SWAP2 POP POP JUMP JUMPDEST PUSH1 0x0 DUP1 PUSH1 0x40 DUP4 DUP6 SUB SLT ISZERO PUSH2 0x2BC5 JUMPI PUSH2 0x2BC4 PUSH2 0x263D JUMP JUMPDEST JUMPDEST PUSH1 0x0 DUP4 ADD CALLDATALOAD PUSH8 0xFFFFFFFFFFFFFFFF DUP2 GT ISZERO PUSH2 0x2BE3 JUMPI PUSH2 0x2BE2 PUSH2 0x2642 JUMP JUMPDEST JUMPDEST PUSH2 0x2BEF DUP6 DUP3 DUP7 ADD PUSH2 0x275F JUMP JUMPDEST SWAP3 POP POP PUSH1 0x20 DUP4 ADD CALLDATALOAD PUSH8 0xFFFFFFFFFFFFFFFF DUP2 GT ISZERO PUSH2 0x2C10 JUMPI PUSH2 0x2C0F PUSH2 0x2642 JUMP JUMPDEST JUMPDEST PUSH2 0x2C1C DUP6 DUP3 DUP7 ADD PUSH2 0x275F JUMP JUMPDEST SWAP2 POP POP SWAP3 POP SWAP3 SWAP1 POP JUMP JUMPDEST PUSH1 0x0 PUSH1 0x20 DUP3 ADD SWAP1 POP PUSH2 0x2C3B PUSH1 0x0 DUP4 ADD DUP5 PUSH2 0x285F JUMP JUMPDEST SWAP3 SWAP2 POP POP JUMP JUMPDEST PUSH2 0x2C4A DUP2 PUSH2 0x2855 JUMP JUMPDEST DUP2 EQ PUSH2 0x2C55 JUMPI PUSH1 0x0 DUP1 REVERT JUMPDEST POP JUMP JUMPDEST PUSH1 0x0 DUP2 CALLDATALOAD SWAP1 POP PUSH2 0x2C67 DUP2 PUSH2 0x2C41 JUMP JUMPDEST SWAP3 SWAP2 POP POP JUMP JUMPDEST PUSH1 0x0 PUSH1 0x20 DUP3 DUP5 SUB SLT ISZERO PUSH2 0x2C83 JUMPI PUSH2 0x2C82 PUSH2 0x263D JUMP JUMPDEST JUMPDEST PUSH1 0x0 PUSH2 0x2C91 DUP5 DUP3 DUP6 ADD PUSH2 0x2C58 JUMP JUMPDEST SWAP2 POP POP SWAP3 SWAP2 POP POP JUMP JUMPDEST PUSH1 0x0 PUSH1 0x20 DUP3 ADD SWAP1 POP DUP2 DUP2 SUB PUSH1 0x0 DUP4 ADD MSTORE PUSH2 0x2CB4 DUP2 DUP5 PUSH2 0x281C JUMP JUMPDEST SWAP1 POP SWAP3 SWAP2 POP POP JUMP JUMPDEST PUSH1 0x0 DUP1 PUSH1 0x0 DUP1 PUSH1 0x0 DUP1 PUSH1 0x0 DUP1 PUSH1 0x0 DUP1 PUSH2 0x140 DUP12 DUP14 SUB SLT ISZERO PUSH2 0x2CE0 JUMPI PUSH2 0x2CDF PUSH2 0x263D JUMP JUMPDEST JUMPDEST PUSH1 0x0 DUP12 ADD CALLDATALOAD PUSH8 0xFFFFFFFFFFFFFFFF DUP2 GT ISZERO PUSH2 0x2CFE JUMPI PUSH2 0x2CFD PUSH2 0x2642 JUMP JUMPDEST JUMPDEST PUSH2 0x2D0A DUP14 DUP3 DUP15 ADD PUSH2 0x275F JUMP JUMPDEST SWAP11 POP POP PUSH1 0x20 DUP12 ADD CALLDATALOAD PUSH8 0xFFFFFFFFFFFFFFFF DUP2 GT ISZERO PUSH2 0x2D2B JUMPI PUSH2 0x2D2A PUSH2 0x2642 JUMP JUMPDEST JUMPDEST PUSH2 0x2D37 DUP14 DUP3 DUP15 ADD PUSH2 0x275F JUMP JUMPDEST SWAP10 POP POP PUSH1 0x40 DUP12 ADD CALLDATALOAD PUSH8 0xFFFFFFFFFFFFFFFF DUP2 GT ISZERO PUSH2 0x2D58 JUMPI PUSH2 0x2D57 PUSH2 0x2642 JUMP JUMPDEST JUMPDEST PUSH2 0x2D64 DUP14 DUP3 DUP15 ADD PUSH2 0x275F JUMP JUMPDEST SWAP9 POP POP PUSH1 0x60 DUP12 ADD CALLDATALOAD PUSH8 0xFFFFFFFFFFFFFFFF DUP2 GT ISZERO PUSH2 0x2D85 JUMPI PUSH2 0x2D84 PUSH2 0x2642 JUMP JUMPDEST JUMPDEST PUSH2 0x2D91 DUP14 DUP3 DUP15 ADD PUSH2 0x275F JUMP JUMPDEST SWAP8 POP POP PUSH1 0x80 DUP12 ADD CALLDATALOAD PUSH8 0xFFFFFFFFFFFFFFFF DUP2 GT ISZERO PUSH2 0x2DB2 JUMPI PUSH2 0x2DB1 PUSH2 0x2642 JUMP JUMPDEST JUMPDEST PUSH2 0x2DBE DUP14 DUP3 DUP15 ADD PUSH2 0x275F JUMP JUMPDEST SWAP7 POP POP PUSH1 0xA0 DUP12 ADD CALLDATALOAD PUSH8 0xFFFFFFFFFFFFFFFF DUP2 GT ISZERO PUSH2 0x2DDF JUMPI PUSH2 0x2DDE PUSH2 0x2642 JUMP JUMPDEST JUMPDEST PUSH2 0x2DEB DUP14 DUP3 DUP15 ADD PUSH2 0x275F JUMP JUMPDEST SWAP6 POP POP PUSH1 0xC0 PUSH2 0x2DFC DUP14 DUP3 DUP15 ADD PUSH2 0x2C58 JUMP JUMPDEST SWAP5 POP POP PUSH1 0xE0 PUSH2 0x2E0D DUP14 DUP3 DUP15 ADD PUSH2 0x2C58 JUMP JUMPDEST SWAP4 POP POP PUSH2 0x100 DUP12 ADD CALLDATALOAD PUSH8 0xFFFFFFFFFFFFFFFF DUP2 GT ISZERO PUSH2 0x2E2F JUMPI PUSH2 0x2E2E PUSH2 0x2642 JUMP JUMPDEST JUMPDEST PUSH2 0x2E3B DUP14 DUP3 DUP15 ADD PUSH2 0x275F JUMP JUMPDEST SWAP3 POP POP PUSH2 0x120 PUSH2 0x2E4D DUP14 DUP3 DUP15 ADD PUSH2 0x2C58 JUMP JUMPDEST SWAP2 POP POP SWAP3 SWAP6 SWAP9 SWAP12 SWAP2 SWAP5 SWAP8 SWAP11 POP SWAP3 SWAP6 SWAP9 POP JUMP JUMPDEST PUSH1 0x0 PUSH2 0x160 DUP4 ADD PUSH1 0x0 DUP4 ADD MLOAD DUP5 DUP3 SUB PUSH1 0x0 DUP7 ADD MSTORE PUSH2 0x2E7D DUP3 DUP3 PUSH2 0x298E JUMP JUMPDEST SWAP2 POP POP PUSH1 0x20 DUP4 ADD MLOAD DUP5 DUP3 SUB PUSH1 0x20 DUP7 ADD MSTORE PUSH2 0x2E97 DUP3 DUP3 PUSH2 0x298E JUMP JUMPDEST SWAP2 POP POP PUSH1 0x40 DUP4 ADD MLOAD DUP5 DUP3 SUB PUSH1 0x40 DUP7 ADD MSTORE PUSH2 0x2EB1 DUP3 DUP3 PUSH2 0x298E JUMP JUMPDEST SWAP2 POP POP PUSH1 0x60 DUP4 ADD MLOAD DUP5 DUP3 SUB PUSH1 0x60 DUP7 ADD MSTORE PUSH2 0x2ECB DUP3 DUP3 PUSH2 0x298E JUMP JUMPDEST SWAP2 POP POP PUSH1 0x80 DUP4 ADD MLOAD DUP5 DUP3 SUB PUSH1 0x80 DUP7 ADD MSTORE PUSH2 0x2EE5 DUP3 DUP3 PUSH2 0x298E JUMP JUMPDEST SWAP2 POP POP PUSH1 0xA0 DUP4 ADD MLOAD DUP5 DUP3 SUB PUSH1 0xA0 DUP7 ADD MSTORE PUSH2 0x2EFF DUP3 DUP3 PUSH2 0x298E JUMP JUMPDEST SWAP2 POP POP PUSH1 0xC0 DUP4 ADD MLOAD PUSH2 0x2F14 PUSH1 0xC0 DUP7 ADD DUP3 PUSH2 0x29C7 JUMP JUMPDEST POP PUSH1 0xE0 DUP4 ADD MLOAD PUSH2 0x2F27 PUSH1 0xE0 DUP7 ADD DUP3 PUSH2 0x29C7 JUMP JUMPDEST POP PUSH2 0x100 DUP4 ADD MLOAD DUP5 DUP3 SUB PUSH2 0x100 DUP7 ADD MSTORE PUSH2 0x2F41 DUP3 DUP3 PUSH2 0x298E JUMP JUMPDEST SWAP2 POP POP PUSH2 0x120 DUP4 ADD MLOAD DUP5 DUP3 SUB PUSH2 0x120 DUP7 ADD MSTORE PUSH2 0x2F5D DUP3 DUP3 PUSH2 0x298E JUMP JUMPDEST SWAP2 POP POP PUSH2 0x140 DUP4 ADD MLOAD PUSH2 0x2F74 PUSH2 0x140 DUP7 ADD DUP3 PUSH2 0x29C7 JUMP JUMPDEST POP DUP1 SWAP2 POP POP SWAP3 SWAP2 POP POP JUMP JUMPDEST PUSH1 0x0 PUSH1 0x20 DUP3 ADD SWAP1 POP DUP2 DUP2 SUB PUSH1 0x0 DUP4 ADD MSTORE PUSH2 0x2F99 DUP2 DUP5 PUSH2 0x2E5F JUMP JUMPDEST SWAP1 POP SWAP3 SWAP2 POP POP JUMP JUMPDEST PUSH32 0x4E487B7100000000000000000000000000000000000000000000000000000000 PUSH1 0x0 MSTORE PUSH1 0x22 PUSH1 0x4 MSTORE PUSH1 0x24 PUSH1 0x0 REVERT JUMPDEST PUSH1 0x0 PUSH1 0x2 DUP3 DIV SWAP1 POP PUSH1 0x1 DUP3 AND DUP1 PUSH2 0x2FE8 JUMPI PUSH1 0x7F DUP3 AND SWAP2 POP JUMPDEST PUSH1 0x20 DUP3 LT DUP2 SUB PUSH2 0x2FFB JUMPI PUSH2 0x2FFA PUSH2 0x2FA1 JUMP JUMPDEST JUMPDEST POP SWAP2 SWAP1 POP JUMP JUMPDEST PUSH32 0x4E487B7100000000000000000000000000000000000000000000000000000000 PUSH1 0x0 MSTORE PUSH1 0x32 PUSH1 0x4 MSTORE PUSH1 0x24 PUSH1 0x0 REVERT JUMPDEST PUSH1 0x0 DUP2 SWAP1 POP SWAP3 SWAP2 POP POP JUMP JUMPDEST PUSH1 0x0 DUP2 SWAP1 POP DUP2 PUSH1 0x0 MSTORE PUSH1 0x20 PUSH1 0x0 KECCAK256 SWAP1 POP SWAP2 SWAP1 POP JUMP JUMPDEST PUSH1 0x0 DUP2 SLOAD PUSH2 0x305D DUP2 PUSH2 0x2FD0 JUMP JUMPDEST PUSH2 0x3067 DUP2 DUP7 PUSH2 0x3030 JUMP JUMPDEST SWAP5 POP PUSH1 0x1 DUP3 AND PUSH1 0x0 DUP2 EQ PUSH2 0x3082 JUMPI PUSH1 0x1 DUP2 EQ PUSH2 0x3097 JUMPI PUSH2 0x30CA JUMP JUMPDEST PUSH1 0xFF NOT DUP4 AND DUP7 MSTORE DUP2 ISZERO ISZERO DUP3 MUL DUP7 ADD SWAP4 POP PUSH2 0x30CA JUMP JUMPDEST PUSH2 0x30A0 DUP6 PUSH2 0x303B JUMP JUMPDEST PUSH1 0x0 JUMPDEST DUP4 DUP2 LT ISZERO PUSH2 0x30C2 JUMPI DUP2 SLOAD DUP2 DUP10 ADD MSTORE PUSH1 0x1 DUP3 ADD SWAP2 POP PUSH1 0x20 DUP2 ADD SWAP1 POP PUSH2 0x30A3 JUMP JUMPDEST DUP4 DUP9 ADD SWAP6 POP POP POP JUMPDEST POP POP POP SWAP3 SWAP2 POP POP JUMP JUMPDEST PUSH1 0x0 PUSH2 0x30DF DUP3 DUP5 PUSH2 0x3050 JUMP JUMPDEST SWAP2 POP DUP2 SWAP1 POP SWAP3 SWAP2 POP POP JUMP JUMPDEST PUSH32 0x4E487B7100000000000000000000000000000000000000000000000000000000 PUSH1 0x0 MSTORE PUSH1 0x11 PUSH1 0x4 MSTORE PUSH1 0x24 PUSH1 0x0 REVERT JUMPDEST PUSH1 0x0 PUSH2 0x3124 DUP3 PUSH2 0x2855 JUMP JUMPDEST SWAP2 POP PUSH32 0xFFFFFFFFFFFFFFFFFFFFFFFFFFFFFFFFFFFFFFFFFFFFFFFFFFFFFFFFFFFFFFFF DUP3 SUB PUSH2 0x3156 JUMPI PUSH2 0x3155 PUSH2 0x30EA JUMP JUMPDEST JUMPDEST PUSH1 0x1 DUP3 ADD SWAP1 POP SWAP2 SWAP1 POP JUMP JUMPDEST PUSH1 0x0 PUSH2 0x316C DUP3 PUSH2 0x27D6 JUMP JUMPDEST PUSH2 0x3176 DUP2 DUP6 PUSH2 0x3030 JUMP JUMPDEST SWAP4 POP PUSH2 0x3186 DUP2 DUP6 PUSH1 0x20 DUP7 ADD PUSH2 0x27F2 JUMP JUMPDEST DUP1 DUP5 ADD SWAP2 POP POP SWAP3 SWAP2 POP POP JUMP JUMPDEST PUSH1 0x0 PUSH2 0x319E DUP3 DUP5 PUSH2 0x3161 JUMP JUMPDEST SWAP2 POP DUP2 SWAP1 POP SWAP3 SWAP2 POP POP JUMP JUMPDEST PUSH32 0x5472616E73616374696F6E20646F6573206E6F74206578697374000000000000 PUSH1 0x0 DUP3 ADD MSTORE POP JUMP JUMPDEST PUSH1 0x0 PUSH2 0x31DF PUSH1 0x1A DUP4 PUSH2 0x27E1 JUMP JUMPDEST SWAP2 POP PUSH2 0x31EA DUP3 PUSH2 0x31A9 JUMP JUMPDEST PUSH1 0x20 DUP3 ADD SWAP1 POP SWAP2 SWAP1 POP JUMP JUMPDEST PUSH1 0x0 PUSH1 0x20 DUP3 ADD SWAP1 POP DUP2 DUP2 SUB PUSH1 0x0 DUP4 ADD MSTORE PUSH2 0x320E DUP2 PUSH2 0x31D2 JUMP JUMPDEST SWAP1 POP SWAP2 SWAP1 POP JUMP JUMPDEST PUSH1 0x0 PUSH1 0x20 PUSH1 0x1F DUP4 ADD DIV SWAP1 POP SWAP2 SWAP1 POP JUMP JUMPDEST PUSH1 0x0 DUP3 DUP3 SHL SWAP1 POP SWAP3 SWAP2 POP POP JUMP JUMPDEST PUSH1 0x0 PUSH1 0x8 DUP4 MUL PUSH2 0x3262 PUSH32 0xFFFFFFFFFFFFFFFFFFFFFFFFFFFFFFFFFFFFFFFFFFFFFFFFFFFFFFFFFFFFFFFF DUP3 PUSH2 0x3225 JUMP JUMPDEST PUSH2 0x326C DUP7 DUP4 PUSH2 0x3225 JUMP JUMPDEST SWAP6 POP DUP1 NOT DUP5 AND SWAP4 POP DUP1 DUP7 AND DUP5 OR SWAP3 POP POP POP SWAP4 SWAP3 POP POP POP JUMP JUMPDEST PUSH1 0x0 DUP2 SWAP1 POP SWAP2 SWAP1 POP JUMP JUMPDEST PUSH1 0x0 PUSH2 0x32A9 PUSH2 0x32A4 PUSH2 0x329F DUP5 PUSH2 0x2855 JUMP JUMPDEST PUSH2 0x3284 JUMP JUMPDEST PUSH2 0x2855 JUMP JUMPDEST SWAP1 POP SWAP2 SWAP1 POP JUMP JUMPDEST PUSH1 0x0 DUP2 SWAP1 POP SWAP2 SWAP1 POP JUMP JUMPDEST PUSH2 0x32C3 DUP4 PUSH2 0x328E JUMP JUMPDEST PUSH2 0x32D7 PUSH2 0x32CF DUP3 PUSH2 0x32B0 JUMP JUMPDEST DUP5 DUP5 SLOAD PUSH2 0x3232 JUMP JUMPDEST DUP3 SSTORE POP POP POP POP JUMP JUMPDEST PUSH1 0x0 SWAP1 JUMP JUMPDEST PUSH2 0x32EC PUSH2 0x32DF JUMP JUMPDEST PUSH2 0x32F7 DUP2 DUP5 DUP5 PUSH2 0x32BA JUMP JUMPDEST POP POP POP JUMP JUMPDEST JUMPDEST DUP2 DUP2 LT ISZERO PUSH2 0x331B JUMPI PUSH2 0x3310 PUSH1 0x0 DUP3 PUSH2 0x32E4 JUMP JUMPDEST PUSH1 0x1 DUP2 ADD SWAP1 POP PUSH2 0x32FD JUMP JUMPDEST POP POP JUMP JUMPDEST PUSH1 0x1F DUP3 GT ISZERO PUSH2 0x3360 JUMPI PUSH2 0x3331 DUP2 PUSH2 0x303B JUMP JUMPDEST PUSH2 0x333A DUP5 PUSH2 0x3215 JUMP JUMPDEST DUP2 ADD PUSH1 0x20 DUP6 LT ISZERO PUSH2 0x3349 JUMPI DUP2 SWAP1 POP JUMPDEST PUSH2 0x335D PUSH2 0x3355 DUP6 PUSH2 0x3215 JUMP JUMPDEST DUP4 ADD DUP3 PUSH2 0x32FC JUMP JUMPDEST POP POP JUMPDEST POP POP POP JUMP JUMPDEST PUSH1 0x0 DUP3 DUP3 SHR SWAP1 POP SWAP3 SWAP2 POP POP JUMP JUMPDEST PUSH1 0x0 PUSH2 0x3383 PUSH1 0x0 NOT DUP5 PUSH1 0x8 MUL PUSH2 0x3365 JUMP JUMPDEST NOT DUP1 DUP4 AND SWAP2 POP POP SWAP3 SWAP2 POP POP JUMP JUMPDEST PUSH1 0x0 PUSH2 0x339C DUP4 DUP4 PUSH2 0x3372 JUMP JUMPDEST SWAP2 POP DUP3 PUSH1 0x2 MUL DUP3 OR SWAP1 POP SWAP3 SWAP2 POP POP JUMP JUMPDEST PUSH2 0x33B5 DUP3 PUSH2 0x27D6 JUMP JUMPDEST PUSH8 0xFFFFFFFFFFFFFFFF DUP2 GT ISZERO PUSH2 0x33CE JUMPI PUSH2 0x33CD PUSH2 0x2662 JUMP JUMPDEST JUMPDEST PUSH2 0x33D8 DUP3 SLOAD PUSH2 0x2FD0 JUMP JUMPDEST PUSH2 0x33E3 DUP3 DUP3 DUP6 PUSH2 0x331F JUMP JUMPDEST PUSH1 0x0 PUSH1 0x20 SWAP1 POP PUSH1 0x1F DUP4 GT PUSH1 0x1 DUP2 EQ PUSH2 0x3416 JUMPI PUSH1 0x0 DUP5 ISZERO PUSH2 0x3404 JUMPI DUP3 DUP8 ADD MLOAD SWAP1 POP JUMPDEST PUSH2 0x340E DUP6 DUP3 PUSH2 0x3390 JUMP JUMPDEST DUP7 SSTORE POP PUSH2 0x3476 JUMP JUMPDEST PUSH1 0x1F NOT DUP5 AND PUSH2 0x3424 DUP7 PUSH2 0x303B JUMP JUMPDEST PUSH1 0x0 JUMPDEST DUP3 DUP2 LT ISZERO PUSH2 0x344C JUMPI DUP5 DUP10 ADD MLOAD DUP3 SSTORE PUSH1 0x1 DUP3 ADD SWAP2 POP PUSH1 0x20 DUP6 ADD SWAP5 POP PUSH1 0x20 DUP2 ADD SWAP1 POP PUSH2 0x3427 JUMP JUMPDEST DUP7 DUP4 LT ISZERO PUSH2 0x3469 JUMPI DUP5 DUP10 ADD MLOAD PUSH2 0x3465 PUSH1 0x1F DUP10 AND DUP3 PUSH2 0x3372 JUMP JUMPDEST DUP4 SSTORE POP JUMPDEST PUSH1 0x1 PUSH1 0x2 DUP9 MUL ADD DUP9 SSTORE POP POP POP JUMPDEST POP POP POP POP POP POP JUMP JUMPDEST PUSH1 0x0 PUSH1 0x40 DUP3 ADD SWAP1 POP DUP2 DUP2 SUB PUSH1 0x0 DUP4 ADD MSTORE PUSH2 0x3498 DUP2 DUP6 PUSH2 0x281C JUMP JUMPDEST SWAP1 POP DUP2 DUP2 SUB PUSH1 0x20 DUP4 ADD MSTORE PUSH2 0x34AC DUP2 DUP5 PUSH2 0x281C JUMP JUMPDEST SWAP1 POP SWAP4 SWAP3 POP POP POP JUMP JUMPDEST PUSH32 0x7061696400000000000000000000000000000000000000000000000000000000 PUSH1 0x0 DUP3 ADD MSTORE POP JUMP JUMPDEST PUSH1 0x0 PUSH2 0x34EB PUSH1 0x4 DUP4 PUSH2 0x27E1 JUMP JUMPDEST SWAP2 POP PUSH2 0x34F6 DUP3 PUSH2 0x34B5 JUMP JUMPDEST PUSH1 0x20 DUP3 ADD SWAP1 POP SWAP2 SWAP1 POP JUMP JUMPDEST PUSH1 0x0 PUSH1 0x40 DUP3 ADD SWAP1 POP DUP2 DUP2 SUB PUSH1 0x0 DUP4 ADD MSTORE PUSH2 0x351B DUP2 DUP5 PUSH2 0x281C JUMP JUMPDEST SWAP1 POP DUP2 DUP2 SUB PUSH1 0x20 DUP4 ADD MSTORE PUSH2 0x352E DUP2 PUSH2 0x34DE JUMP JUMPDEST SWAP1 POP SWAP3 SWAP2 POP POP JUMP JUMPDEST PUSH32 0x6E756C6C00000000000000000000000000000000000000000000000000000000 PUSH1 0x0 DUP3 ADD MSTORE POP JUMP JUMPDEST PUSH1 0x0 PUSH2 0x356C PUSH1 0x4 DUP4 PUSH2 0x27E1 JUMP JUMPDEST SWAP2 POP PUSH2 0x3577 DUP3 PUSH2 0x3536 JUMP JUMPDEST PUSH1 0x20 DUP3 ADD SWAP1 POP SWAP2 SWAP1 POP JUMP JUMPDEST PUSH1 0x0 PUSH2 0x160 DUP3 ADD SWAP1 POP DUP2 DUP2 SUB PUSH1 0x0 DUP4 ADD MSTORE PUSH2 0x359D DUP2 DUP14 PUSH2 0x281C JUMP JUMPDEST SWAP1 POP DUP2 DUP2 SUB PUSH1 0x20 DUP4 ADD MSTORE PUSH2 0x35B1 DUP2 DUP13 PUSH2 0x281C JUMP JUMPDEST SWAP1 POP DUP2 DUP2 SUB PUSH1 0x40 DUP4 ADD MSTORE PUSH2 0x35C5 DUP2 DUP12 PUSH2 0x281C JUMP JUMPDEST SWAP1 POP DUP2 DUP2 SUB PUSH1 0x60 DUP4 ADD MSTORE PUSH2 0x35D9 DUP2 DUP11 PUSH2 0x281C JUMP JUMPDEST SWAP1 POP DUP2 DUP2 SUB PUSH1 0x80 DUP4 ADD MSTORE PUSH2 0x35ED DUP2 DUP10 PUSH2 0x281C JUMP JUMPDEST SWAP1 POP DUP2 DUP2 SUB PUSH1 0xA0 DUP4 ADD MSTORE PUSH2 0x3601 DUP2 DUP9 PUSH2 0x281C JUMP JUMPDEST SWAP1 POP PUSH2 0x3610 PUSH1 0xC0 DUP4 ADD DUP8 PUSH2 0x285F JUMP JUMPDEST PUSH2 0x361D PUSH1 0xE0 DUP4 ADD DUP7 PUSH2 0x285F JUMP JUMPDEST DUP2 DUP2 SUB PUSH2 0x100 DUP4 ADD MSTORE PUSH2 0x3630 DUP2 DUP6 PUSH2 0x281C JUMP JUMPDEST SWAP1 POP DUP2 DUP2 SUB PUSH2 0x120 DUP4 ADD MSTORE PUSH2 0x3644 DUP2 PUSH2 0x355F JUMP JUMPDEST SWAP1 POP PUSH2 0x3654 PUSH2 0x140 DUP4 ADD DUP5 PUSH2 0x285F JUMP JUMPDEST SWAP12 SWAP11 POP POP POP POP POP POP POP POP POP POP POP JUMP INVALID LOG2 PUSH5 0x6970667358 0x22 SLT KECCAK256 AND SELFDESTRUCT LOG0 0xCE DUP1 0xCF STOP 0xDD RETURNDATACOPY PUSH22 0xEB9B5B6078484BE642677A8101DFA7CFDF6C897781F5 PUSH5 0x736F6C6343 STOP ADDMOD LT STOP CALLER "
		},
		"gasEstimates": {
			"creation": {
				"codeDepositCost": "2795400",
				"executionCost": "3045",
				"totalCost": "2798445"
			},
			"external": {
				"addTransaction(string,string,string,string,string,string,uint256,uint256,string,uint256)": "infinite",
				"getAllTransactions()": "infinite",
				"getCountTransaction()": "2534",
				"getTransactionByCampaignId(string)": "infinite",
				"getTransactionByCode(string)": "infinite",
				"getTransactionByFromToUserId(string)": "infinite",
				"transactionCodes(uint256)": "infinite",
				"transactions(string)": "infinite",
				"updatePaymentProof(string,string)": "infinite",
				"updatePaymentStatus(string,string)": "infinite",
				"updateStatus(string,string)": "infinite"
			}
		},
		"methodIdentifiers": {
			"addTransaction(string,string,string,string,string,string,uint256,uint256,string,uint256)": "814cb8eb",
			"getAllTransactions()": "27506f53",
			"getCountTransaction()": "77839eb7",
			"getTransactionByCampaignId(string)": "9db897dd",
			"getTransactionByCode(string)": "d339b0ec",
			"getTransactionByFromToUserId(string)": "7ee9ed47",
			"transactionCodes(uint256)": "7ce99c58",
			"transactions(string)": "022236f4",
			"updatePaymentProof(string,string)": "2b47300d",
			"updatePaymentStatus(string,string)": "fff50461",
			"updateStatus(string,string)": "347047cc"
		}
	},
	"abi": [
		{
			"inputs": [],
			"stateMutability": "nonpayable",
			"type": "constructor"
		},
		{
			"anonymous": false,
			"inputs": [
				{
					"indexed": false,
					"internalType": "string",
					"name": "transactionCode",
					"type": "string"
				},
				{
					"indexed": false,
					"internalType": "string",
					"name": "newPaymentProof",
					"type": "string"
				}
			],
			"name": "PaymentProofUpdated",
			"type": "event"
		},
		{
			"anonymous": false,
			"inputs": [
				{
					"indexed": false,
					"internalType": "string",
					"name": "transactionCode",
					"type": "string"
				},
				{
					"indexed": false,
					"internalType": "string",
					"name": "newPaymentStatus",
					"type": "string"
				}
			],
			"name": "PaymentStatusUpdated",
			"type": "event"
		},
		{
			"anonymous": false,
			"inputs": [
				{
					"indexed": false,
					"internalType": "string",
					"name": "transactionCode",
					"type": "string"
				},
				{
					"indexed": false,
					"internalType": "string",
					"name": "newStatus",
					"type": "string"
				}
			],
			"name": "StatusUpdated",
			"type": "event"
		},
		{
			"anonymous": false,
			"inputs": [
				{
					"indexed": false,
					"internalType": "string",
					"name": "transactionCode",
					"type": "string"
				},
				{
					"indexed": false,
					"internalType": "string",
					"name": "campaignId",
					"type": "string"
				},
				{
					"indexed": false,
					"internalType": "string",
					"name": "fromToUserId",
					"type": "string"
				},
				{
					"indexed": false,
					"internalType": "string",
					"name": "orderType",
					"type": "string"
				},
				{
					"indexed": false,
					"internalType": "string",
					"name": "paymentStatus",
					"type": "string"
				},
				{
					"indexed": false,
					"internalType": "string",
					"name": "status",
					"type": "string"
				},
				{
					"indexed": false,
					"internalType": "uint256",
					"name": "quantity",
					"type": "uint256"
				},
				{
					"indexed": false,
					"internalType": "uint256",
					"name": "totalPrice",
					"type": "uint256"
				},
				{
					"indexed": false,
					"internalType": "string",
					"name": "paymentMethodDetailId",
					"type": "string"
				},
				{
					"indexed": false,
					"internalType": "string",
					"name": "paymentProof",
					"type": "string"
				},
				{
					"indexed": false,
					"internalType": "uint256",
					"name": "createdAt",
					"type": "uint256"
				}
			],
			"name": "TransactionAdded",
			"type": "event"
		},
		{
			"inputs": [
				{
					"internalType": "string",
					"name": "_transactionCode",
					"type": "string"
				},
				{
					"internalType": "string",
					"name": "_campaignId",
					"type": "string"
				},
				{
					"internalType": "string",
					"name": "_fromToUserId",
					"type": "string"
				},
				{
					"internalType": "string",
					"name": "_orderType",
					"type": "string"
				},
				{
					"internalType": "string",
					"name": "_paymentStatus",
					"type": "string"
				},
				{
					"internalType": "string",
					"name": "_status",
					"type": "string"
				},
				{
					"internalType": "uint256",
					"name": "_quantity",
					"type": "uint256"
				},
				{
					"internalType": "uint256",
					"name": "_totalPrice",
					"type": "uint256"
				},
				{
					"internalType": "string",
					"name": "_paymentMethodDetailId",
					"type": "string"
				},
				{
					"internalType": "uint256",
					"name": "_createdAt",
					"type": "uint256"
				}
			],
			"name": "addTransaction",
			"outputs": [],
			"stateMutability": "nonpayable",
			"type": "function"
		},
		{
			"inputs": [],
			"name": "getAllTransactions",
			"outputs": [
				{
					"components": [
						{
							"internalType": "string",
							"name": "transactionCode",
							"type": "string"
						},
						{
							"internalType": "string",
							"name": "campaignId",
							"type": "string"
						},
						{
							"internalType": "string",
							"name": "fromToUserId",
							"type": "string"
						},
						{
							"internalType": "string",
							"name": "orderType",
							"type": "string"
						},
						{
							"internalType": "string",
							"name": "paymentStatus",
							"type": "string"
						},
						{
							"internalType": "string",
							"name": "status",
							"type": "string"
						},
						{
							"internalType": "uint256",
							"name": "quantity",
							"type": "uint256"
						},
						{
							"internalType": "uint256",
							"name": "totalPrice",
							"type": "uint256"
						},
						{
							"internalType": "string",
							"name": "paymentMethodDetailId",
							"type": "string"
						},
						{
							"internalType": "string",
							"name": "paymentProof",
							"type": "string"
						},
						{
							"internalType": "uint256",
							"name": "createdAt",
							"type": "uint256"
						}
					],
					"internalType": "struct TransactionContract.Transaction[]",
					"name": "",
					"type": "tuple[]"
				}
			],
			"stateMutability": "view",
			"type": "function"
		},
		{
			"inputs": [],
			"name": "getCountTransaction",
			"outputs": [
				{
					"internalType": "uint256",
					"name": "",
					"type": "uint256"
				}
			],
			"stateMutability": "view",
			"type": "function"
		},
		{
			"inputs": [
				{
					"internalType": "string",
					"name": "_campaignId",
					"type": "string"
				}
			],
			"name": "getTransactionByCampaignId",
			"outputs": [
				{
					"components": [
						{
							"internalType": "string",
							"name": "transactionCode",
							"type": "string"
						},
						{
							"internalType": "string",
							"name": "campaignId",
							"type": "string"
						},
						{
							"internalType": "string",
							"name": "fromToUserId",
							"type": "string"
						},
						{
							"internalType": "string",
							"name": "orderType",
							"type": "string"
						},
						{
							"internalType": "string",
							"name": "paymentStatus",
							"type": "string"
						},
						{
							"internalType": "string",
							"name": "status",
							"type": "string"
						},
						{
							"internalType": "uint256",
							"name": "quantity",
							"type": "uint256"
						},
						{
							"internalType": "uint256",
							"name": "totalPrice",
							"type": "uint256"
						},
						{
							"internalType": "string",
							"name": "paymentMethodDetailId",
							"type": "string"
						},
						{
							"internalType": "string",
							"name": "paymentProof",
							"type": "string"
						},
						{
							"internalType": "uint256",
							"name": "createdAt",
							"type": "uint256"
						}
					],
					"internalType": "struct TransactionContract.Transaction[]",
					"name": "",
					"type": "tuple[]"
				}
			],
			"stateMutability": "view",
			"type": "function"
		},
		{
			"inputs": [
				{
					"internalType": "string",
					"name": "_transactionCode",
					"type": "string"
				}
			],
			"name": "getTransactionByCode",
			"outputs": [
				{
					"components": [
						{
							"internalType": "string",
							"name": "transactionCode",
							"type": "string"
						},
						{
							"internalType": "string",
							"name": "campaignId",
							"type": "string"
						},
						{
							"internalType": "string",
							"name": "fromToUserId",
							"type": "string"
						},
						{
							"internalType": "string",
							"name": "orderType",
							"type": "string"
						},
						{
							"internalType": "string",
							"name": "paymentStatus",
							"type": "string"
						},
						{
							"internalType": "string",
							"name": "status",
							"type": "string"
						},
						{
							"internalType": "uint256",
							"name": "quantity",
							"type": "uint256"
						},
						{
							"internalType": "uint256",
							"name": "totalPrice",
							"type": "uint256"
						},
						{
							"internalType": "string",
							"name": "paymentMethodDetailId",
							"type": "string"
						},
						{
							"internalType": "string",
							"name": "paymentProof",
							"type": "string"
						},
						{
							"internalType": "uint256",
							"name": "createdAt",
							"type": "uint256"
						}
					],
					"internalType": "struct TransactionContract.Transaction",
					"name": "",
					"type": "tuple"
				}
			],
			"stateMutability": "view",
			"type": "function"
		},
		{
			"inputs": [
				{
					"internalType": "string",
					"name": "_fromToUserId",
					"type": "string"
				}
			],
			"name": "getTransactionByFromToUserId",
			"outputs": [
				{
					"components": [
						{
							"internalType": "string",
							"name": "transactionCode",
							"type": "string"
						},
						{
							"internalType": "string",
							"name": "campaignId",
							"type": "string"
						},
						{
							"internalType": "string",
							"name": "fromToUserId",
							"type": "string"
						},
						{
							"internalType": "string",
							"name": "orderType",
							"type": "string"
						},
						{
							"internalType": "string",
							"name": "paymentStatus",
							"type": "string"
						},
						{
							"internalType": "string",
							"name": "status",
							"type": "string"
						},
						{
							"internalType": "uint256",
							"name": "quantity",
							"type": "uint256"
						},
						{
							"internalType": "uint256",
							"name": "totalPrice",
							"type": "uint256"
						},
						{
							"internalType": "string",
							"name": "paymentMethodDetailId",
							"type": "string"
						},
						{
							"internalType": "string",
							"name": "paymentProof",
							"type": "string"
						},
						{
							"internalType": "uint256",
							"name": "createdAt",
							"type": "uint256"
						}
					],
					"internalType": "struct TransactionContract.Transaction[]",
					"name": "",
					"type": "tuple[]"
				}
			],
			"stateMutability": "view",
			"type": "function"
		},
		{
			"inputs": [
				{
					"internalType": "uint256",
					"name": "",
					"type": "uint256"
				}
			],
			"name": "transactionCodes",
			"outputs": [
				{
					"internalType": "string",
					"name": "",
					"type": "string"
				}
			],
			"stateMutability": "view",
			"type": "function"
		},
		{
			"inputs": [
				{
					"internalType": "string",
					"name": "",
					"type": "string"
				}
			],
			"name": "transactions",
			"outputs": [
				{
					"internalType": "string",
					"name": "transactionCode",
					"type": "string"
				},
				{
					"internalType": "string",
					"name": "campaignId",
					"type": "string"
				},
				{
					"internalType": "string",
					"name": "fromToUserId",
					"type": "string"
				},
				{
					"internalType": "string",
					"name": "orderType",
					"type": "string"
				},
				{
					"internalType": "string",
					"name": "paymentStatus",
					"type": "string"
				},
				{
					"internalType": "string",
					"name": "status",
					"type": "string"
				},
				{
					"internalType": "uint256",
					"name": "quantity",
					"type": "uint256"
				},
				{
					"internalType": "uint256",
					"name": "totalPrice",
					"type": "uint256"
				},
				{
					"internalType": "string",
					"name": "paymentMethodDetailId",
					"type": "string"
				},
				{
					"internalType": "string",
					"name": "paymentProof",
					"type": "string"
				},
				{
					"internalType": "uint256",
					"name": "createdAt",
					"type": "uint256"
				}
			],
			"stateMutability": "view",
			"type": "function"
		},
		{
			"inputs": [
				{
					"internalType": "string",
					"name": "_transactionCode",
					"type": "string"
				},
				{
					"internalType": "string",
					"name": "_newPaymentProof",
					"type": "string"
				}
			],
			"name": "updatePaymentProof",
			"outputs": [],
			"stateMutability": "nonpayable",
			"type": "function"
		},
		{
			"inputs": [
				{
					"internalType": "string",
					"name": "_transactionCode",
					"type": "string"
				},
				{
					"internalType": "string",
					"name": "_newPaymentStatus",
					"type": "string"
				}
			],
			"name": "updatePaymentStatus",
			"outputs": [],
			"stateMutability": "nonpayable",
			"type": "function"
		},
		{
			"inputs": [
				{
					"internalType": "string",
					"name": "_transactionCode",
					"type": "string"
				},
				{
					"internalType": "string",
					"name": "_newStatus",
					"type": "string"
				}
			],
			"name": "updateStatus",
			"outputs": [],
			"stateMutability": "nonpayable",
			"type": "function"
		}
	]
}